{
  "_format": "hh-sol-artifact-1",
  "contractName": "TEST1111",
  "sourceName": "contracts/dotty copy.sol",
  "abi": [
    {
      "anonymous": false,
      "inputs": [
        {
          "indexed": false,
          "internalType": "address",
          "name": "previousAdmin",
          "type": "address"
        },
        {
          "indexed": false,
          "internalType": "address",
          "name": "newAdmin",
          "type": "address"
        }
      ],
      "name": "AdminChanged",
      "type": "event"
    },
    {
      "anonymous": false,
      "inputs": [
        {
          "indexed": true,
          "internalType": "address",
          "name": "owner",
          "type": "address"
        },
        {
          "indexed": true,
          "internalType": "address",
          "name": "spender",
          "type": "address"
        },
        {
          "indexed": false,
          "internalType": "uint256",
          "name": "value",
          "type": "uint256"
        }
      ],
      "name": "Approval",
      "type": "event"
    },
    {
      "anonymous": false,
      "inputs": [
        {
          "indexed": true,
          "internalType": "address",
          "name": "beacon",
          "type": "address"
        }
      ],
      "name": "BeaconUpgraded",
      "type": "event"
    },
    {
      "anonymous": false,
      "inputs": [
        {
          "indexed": true,
          "internalType": "address",
          "name": "previousOwner",
          "type": "address"
        },
        {
          "indexed": true,
          "internalType": "address",
          "name": "newOwner",
          "type": "address"
        }
      ],
      "name": "OwnershipTransferred",
      "type": "event"
    },
    {
      "anonymous": false,
      "inputs": [
        {
          "indexed": true,
          "internalType": "address",
          "name": "from",
          "type": "address"
        },
        {
          "indexed": true,
          "internalType": "address",
          "name": "to",
          "type": "address"
        },
        {
          "indexed": false,
          "internalType": "uint256",
          "name": "value",
          "type": "uint256"
        }
      ],
      "name": "Transfer",
      "type": "event"
    },
    {
      "anonymous": false,
      "inputs": [
        {
          "indexed": true,
          "internalType": "address",
          "name": "implementation",
          "type": "address"
        }
      ],
      "name": "Upgraded",
      "type": "event"
    },
    {
      "inputs": [],
      "name": "_backFeeRate",
      "outputs": [
        {
          "internalType": "uint256",
          "name": "",
          "type": "uint256"
        }
      ],
      "stateMutability": "view",
      "type": "function"
    },
    {
      "inputs": [],
      "name": "_burnFeeRate",
      "outputs": [
        {
          "internalType": "uint256",
          "name": "",
          "type": "uint256"
        }
      ],
      "stateMutability": "view",
      "type": "function"
    },
    {
      "inputs": [],
      "name": "_burnStopAt",
      "outputs": [
        {
          "internalType": "uint256",
          "name": "",
          "type": "uint256"
        }
      ],
      "stateMutability": "view",
      "type": "function"
    },
    {
      "inputs": [],
      "name": "_excludelpAddress",
      "outputs": [
        {
          "internalType": "address",
          "name": "",
          "type": "address"
        }
      ],
      "stateMutability": "view",
      "type": "function"
    },
    {
      "inputs": [],
      "name": "_feeRate",
      "outputs": [
        {
          "internalType": "uint256",
          "name": "",
          "type": "uint256"
        }
      ],
      "stateMutability": "view",
      "type": "function"
    },
    {
      "inputs": [],
      "name": "_holdDividendAt",
      "outputs": [
        {
          "internalType": "uint256",
          "name": "",
          "type": "uint256"
        }
      ],
      "stateMutability": "view",
      "type": "function"
    },
    {
      "inputs": [],
      "name": "_holdDividendEnd",
      "outputs": [
        {
          "internalType": "uint256",
          "name": "",
          "type": "uint256"
        }
      ],
      "stateMutability": "view",
      "type": "function"
    },
    {
      "inputs": [],
      "name": "_holderFeeRate",
      "outputs": [
        {
          "internalType": "uint256",
          "name": "",
          "type": "uint256"
        }
      ],
      "stateMutability": "view",
      "type": "function"
    },
    {
      "inputs": [],
      "name": "_liquidityFee",
      "outputs": [
        {
          "internalType": "uint256",
          "name": "",
          "type": "uint256"
        }
      ],
      "stateMutability": "view",
      "type": "function"
    },
    {
      "inputs": [],
      "name": "_lp2FeeRate",
      "outputs": [
        {
          "internalType": "uint256",
          "name": "",
          "type": "uint256"
        }
      ],
      "stateMutability": "view",
      "type": "function"
    },
    {
      "inputs": [],
      "name": "_lpDividendFirstAt",
      "outputs": [
        {
          "internalType": "uint256",
          "name": "",
          "type": "uint256"
        }
      ],
      "stateMutability": "view",
      "type": "function"
    },
    {
      "inputs": [],
      "name": "_lpDividendSecondAt",
      "outputs": [
        {
          "internalType": "uint256",
          "name": "",
          "type": "uint256"
        }
      ],
      "stateMutability": "view",
      "type": "function"
    },
    {
      "inputs": [],
      "name": "_lpFeeRate",
      "outputs": [
        {
          "internalType": "uint256",
          "name": "",
          "type": "uint256"
        }
      ],
      "stateMutability": "view",
      "type": "function"
    },
    {
      "inputs": [],
      "name": "_market1FeeSum",
      "outputs": [
        {
          "internalType": "uint256",
          "name": "",
          "type": "uint256"
        }
      ],
      "stateMutability": "view",
      "type": "function"
    },
    {
      "inputs": [],
      "name": "_market2FeeSum",
      "outputs": [
        {
          "internalType": "uint256",
          "name": "",
          "type": "uint256"
        }
      ],
      "stateMutability": "view",
      "type": "function"
    },
    {
      "inputs": [],
      "name": "_marketFeeRate",
      "outputs": [
        {
          "internalType": "uint256",
          "name": "",
          "type": "uint256"
        }
      ],
      "stateMutability": "view",
      "type": "function"
    },
    {
      "inputs": [],
      "name": "_marketFeeSwapAt",
      "outputs": [
        {
          "internalType": "uint256",
          "name": "",
          "type": "uint256"
        }
      ],
      "stateMutability": "view",
      "type": "function"
    },
    {
      "inputs": [],
      "name": "_overflowTakeFee",
      "outputs": [
        {
          "internalType": "uint256",
          "name": "",
          "type": "uint256"
        }
      ],
      "stateMutability": "view",
      "type": "function"
    },
    {
      "inputs": [],
      "name": "_rewardBaseHolder",
      "outputs": [
        {
          "internalType": "uint256",
          "name": "",
          "type": "uint256"
        }
      ],
      "stateMutability": "view",
      "type": "function"
    },
    {
      "inputs": [],
      "name": "_rewardBaseLPFirst",
      "outputs": [
        {
          "internalType": "uint256",
          "name": "",
          "type": "uint256"
        }
      ],
      "stateMutability": "view",
      "type": "function"
    },
    {
      "inputs": [],
      "name": "_rewardBaseLPSecond",
      "outputs": [
        {
          "internalType": "uint256",
          "name": "",
          "type": "uint256"
        }
      ],
      "stateMutability": "view",
      "type": "function"
    },
    {
      "inputs": [],
      "name": "_swapAndLiquifyAt",
      "outputs": [
        {
          "internalType": "uint256",
          "name": "",
          "type": "uint256"
        }
      ],
      "stateMutability": "view",
      "type": "function"
    },
    {
      "inputs": [],
      "name": "_swapAt",
      "outputs": [
        {
          "internalType": "uint256",
          "name": "",
          "type": "uint256"
        }
      ],
      "stateMutability": "view",
      "type": "function"
    },
    {
      "inputs": [],
      "name": "_swapDividendTokens",
      "outputs": [],
      "stateMutability": "nonpayable",
      "type": "function"
    },
    {
      "inputs": [],
      "name": "_swapOrDividend",
      "outputs": [
        {
          "internalType": "uint256",
          "name": "",
          "type": "uint256"
        }
      ],
      "stateMutability": "view",
      "type": "function"
    },
    {
      "inputs": [
        {
          "internalType": "address",
          "name": "",
          "type": "address"
        }
      ],
      "name": "_whitelist",
      "outputs": [
        {
          "internalType": "bool",
          "name": "",
          "type": "bool"
        }
      ],
      "stateMutability": "view",
      "type": "function"
    },
    {
      "inputs": [
        {
          "internalType": "address",
          "name": "owner",
          "type": "address"
        },
        {
          "internalType": "address",
          "name": "spender",
          "type": "address"
        }
      ],
      "name": "allowance",
      "outputs": [
        {
          "internalType": "uint256",
          "name": "",
          "type": "uint256"
        }
      ],
      "stateMutability": "view",
      "type": "function"
    },
    {
      "inputs": [
        {
          "internalType": "address",
          "name": "spender",
          "type": "address"
        },
        {
          "internalType": "uint256",
          "name": "amount",
          "type": "uint256"
        }
      ],
      "name": "approve",
      "outputs": [
        {
          "internalType": "bool",
          "name": "",
          "type": "bool"
        }
      ],
      "stateMutability": "nonpayable",
      "type": "function"
    },
    {
      "inputs": [
        {
          "internalType": "address",
          "name": "account",
          "type": "address"
        }
      ],
      "name": "balanceOf",
      "outputs": [
        {
          "internalType": "uint256",
          "name": "",
          "type": "uint256"
        }
      ],
      "stateMutability": "view",
      "type": "function"
    },
    {
      "inputs": [
        {
          "internalType": "address",
          "name": "account",
          "type": "address"
        }
      ],
      "name": "contains",
      "outputs": [
        {
          "internalType": "bool",
          "name": "",
          "type": "bool"
        }
      ],
      "stateMutability": "view",
      "type": "function"
    },
    {
      "inputs": [],
      "name": "deadWallet",
      "outputs": [
        {
          "internalType": "address",
          "name": "",
          "type": "address"
        }
      ],
      "stateMutability": "view",
      "type": "function"
    },
    {
      "inputs": [],
      "name": "decimals",
      "outputs": [
        {
          "internalType": "uint8",
          "name": "",
          "type": "uint8"
        }
      ],
      "stateMutability": "view",
      "type": "function"
    },
    {
      "inputs": [
        {
          "internalType": "address",
          "name": "spender",
          "type": "address"
        },
        {
          "internalType": "uint256",
          "name": "subtractedValue",
          "type": "uint256"
        }
      ],
      "name": "decreaseAllowance",
      "outputs": [
        {
          "internalType": "bool",
          "name": "",
          "type": "bool"
        }
      ],
      "stateMutability": "nonpayable",
      "type": "function"
    },
    {
      "inputs": [],
      "name": "dividend",
      "outputs": [],
      "stateMutability": "nonpayable",
      "type": "function"
    },
    {
      "inputs": [
        {
          "internalType": "uint256",
          "name": "index",
          "type": "uint256"
        }
      ],
      "name": "getHolderAt",
      "outputs": [
        {
          "internalType": "address",
          "name": "",
          "type": "address"
        }
      ],
      "stateMutability": "view",
      "type": "function"
    },
    {
      "inputs": [],
      "name": "getHolderLength",
      "outputs": [
        {
          "internalType": "uint256",
          "name": "",
          "type": "uint256"
        }
      ],
      "stateMutability": "view",
      "type": "function"
    },
    {
      "inputs": [
        {
          "internalType": "address",
          "name": "account",
          "type": "address"
        }
      ],
      "name": "getRewardBalance",
      "outputs": [
        {
          "internalType": "uint256",
          "name": "",
          "type": "uint256"
        },
        {
          "internalType": "uint256",
          "name": "",
          "type": "uint256"
        },
        {
          "internalType": "uint256",
          "name": "",
          "type": "uint256"
        }
      ],
      "stateMutability": "view",
      "type": "function"
    },
    {
      "inputs": [
        {
          "internalType": "address",
          "name": "account",
          "type": "address"
        }
      ],
      "name": "getRewardValues",
      "outputs": [
        {
          "internalType": "uint256",
          "name": "",
          "type": "uint256"
        },
        {
          "internalType": "uint256",
          "name": "",
          "type": "uint256"
        },
        {
          "internalType": "uint256",
          "name": "",
          "type": "uint256"
        },
        {
          "internalType": "uint256",
          "name": "",
          "type": "uint256"
        },
        {
          "internalType": "uint256",
          "name": "",
          "type": "uint256"
        }
      ],
      "stateMutability": "view",
      "type": "function"
    },
    {
      "inputs": [],
      "name": "getTradingIsEnabled",
      "outputs": [
        {
          "internalType": "bool",
          "name": "",
          "type": "bool"
        }
      ],
      "stateMutability": "view",
      "type": "function"
    },
    {
      "inputs": [
        {
          "internalType": "address",
          "name": "spender",
          "type": "address"
        },
        {
          "internalType": "uint256",
          "name": "addedValue",
          "type": "uint256"
        }
      ],
      "name": "increaseAllowance",
      "outputs": [
        {
          "internalType": "bool",
          "name": "",
          "type": "bool"
        }
      ],
      "stateMutability": "nonpayable",
      "type": "function"
    },
    {
      "inputs": [],
      "name": "initialize",
      "outputs": [],
      "stateMutability": "nonpayable",
      "type": "function"
    },
    {
      "inputs": [],
      "name": "lastProcessedIndex",
      "outputs": [
        {
          "internalType": "uint256",
          "name": "",
          "type": "uint256"
        }
      ],
      "stateMutability": "view",
      "type": "function"
    },
    {
      "inputs": [],
      "name": "name",
      "outputs": [
        {
          "internalType": "string",
          "name": "",
          "type": "string"
        }
      ],
      "stateMutability": "view",
      "type": "function"
    },
    {
      "inputs": [],
      "name": "owner",
      "outputs": [
        {
          "internalType": "address",
          "name": "",
          "type": "address"
        }
      ],
      "stateMutability": "view",
      "type": "function"
    },
    {
      "inputs": [],
      "name": "proxiableUUID",
      "outputs": [
        {
          "internalType": "bytes32",
          "name": "",
          "type": "bytes32"
        }
      ],
      "stateMutability": "view",
      "type": "function"
    },
    {
      "inputs": [
        {
          "internalType": "address",
          "name": "account",
          "type": "address"
        }
      ],
      "name": "removeHolder",
      "outputs": [],
      "stateMutability": "nonpayable",
      "type": "function"
    },
    {
      "inputs": [],
      "name": "removeLiquidityTakeFee",
      "outputs": [
        {
          "internalType": "bool",
          "name": "",
          "type": "bool"
        }
      ],
      "stateMutability": "view",
      "type": "function"
    },
    {
      "inputs": [],
      "name": "renounceOwnership",
      "outputs": [],
      "stateMutability": "nonpayable",
      "type": "function"
    },
    {
      "inputs": [
        {
          "internalType": "uint256",
          "name": "burnStopAt",
          "type": "uint256"
        }
      ],
      "name": "setBurnStopAt",
      "outputs": [],
      "stateMutability": "nonpayable",
      "type": "function"
    },
    {
      "inputs": [
        {
          "internalType": "address",
          "name": "account",
          "type": "address"
        }
      ],
      "name": "setExcludelpAddress",
      "outputs": [],
      "stateMutability": "nonpayable",
      "type": "function"
    },
    {
      "inputs": [
        {
          "internalType": "uint256",
          "name": "holdDividendAt",
          "type": "uint256"
        },
        {
          "internalType": "uint256",
          "name": "holdDividendEnd",
          "type": "uint256"
        }
      ],
      "name": "setHoldDividend",
      "outputs": [],
      "stateMutability": "nonpayable",
      "type": "function"
    },
    {
      "inputs": [
        {
          "internalType": "uint256",
          "name": "lpDividendFirstAt",
          "type": "uint256"
        },
        {
          "internalType": "uint256",
          "name": "lpDividendSecondAt",
          "type": "uint256"
        }
      ],
      "name": "setLPDividendAt",
      "outputs": [],
      "stateMutability": "nonpayable",
      "type": "function"
    },
    {
      "inputs": [
        {
          "internalType": "uint256",
          "name": "marketFeeSwapAt",
          "type": "uint256"
        }
      ],
      "name": "setMarketFeeSwapAt",
      "outputs": [],
      "stateMutability": "nonpayable",
      "type": "function"
    },
    {
      "inputs": [
        {
          "internalType": "address",
          "name": "marketingWalletAddress",
          "type": "address"
        },
        {
          "internalType": "address",
          "name": "marketing1WalletAddress",
          "type": "address"
        }
      ],
      "name": "setMarketingWalletAddress",
      "outputs": [],
      "stateMutability": "nonpayable",
      "type": "function"
    },
    {
      "inputs": [
        {
          "internalType": "uint256",
          "name": "overflowTakeFee",
          "type": "uint256"
        }
      ],
      "name": "setOverflowTakeFee",
      "outputs": [],
      "stateMutability": "nonpayable",
      "type": "function"
    },
    {
      "inputs": [
        {
          "internalType": "bool",
          "name": "_enabled",
          "type": "bool"
        }
      ],
      "name": "setRemoveLiquidityTakeFee",
      "outputs": [],
      "stateMutability": "nonpayable",
      "type": "function"
    },
    {
      "inputs": [
        {
          "internalType": "uint256",
          "name": "rewardBaseLPFirst",
          "type": "uint256"
        },
        {
          "internalType": "uint256",
          "name": "rewardBaseLPSecond",
          "type": "uint256"
        },
        {
          "internalType": "uint256",
          "name": "rewardBaseHolder",
          "type": "uint256"
        }
      ],
      "name": "setRewardBase",
      "outputs": [],
      "stateMutability": "nonpayable",
      "type": "function"
    },
    {
      "inputs": [
        {
          "internalType": "address",
          "name": "dot",
          "type": "address"
        }
      ],
      "name": "setRewardToken1",
      "outputs": [],
      "stateMutability": "nonpayable",
      "type": "function"
    },
    {
      "inputs": [
        {
          "internalType": "address",
          "name": "shib",
          "type": "address"
        }
      ],
      "name": "setRewardToken2",
      "outputs": [],
      "stateMutability": "nonpayable",
      "type": "function"
    },
    {
      "inputs": [
        {
          "internalType": "uint256",
          "name": "swapAndLiquifyAt",
          "type": "uint256"
        }
      ],
      "name": "setSwapAndLiquifyAt",
      "outputs": [],
      "stateMutability": "nonpayable",
      "type": "function"
    },
    {
      "inputs": [
        {
          "internalType": "uint256",
          "name": "swapAt",
          "type": "uint256"
        }
      ],
      "name": "setSwapAt",
      "outputs": [],
      "stateMutability": "nonpayable",
      "type": "function"
    },
    {
      "inputs": [
        {
          "internalType": "uint256",
          "name": "index",
          "type": "uint256"
        }
      ],
      "name": "setSwapOrDividend",
      "outputs": [],
      "stateMutability": "nonpayable",
      "type": "function"
    },
    {
      "inputs": [
        {
          "internalType": "address",
          "name": "account",
          "type": "address"
        }
      ],
      "name": "setTakeFeeWallet",
      "outputs": [],
      "stateMutability": "nonpayable",
      "type": "function"
    },
    {
      "inputs": [],
      "name": "swapAndDividend",
      "outputs": [],
      "stateMutability": "nonpayable",
      "type": "function"
    },
    {
      "inputs": [],
      "name": "swapAndLiquify",
      "outputs": [],
      "stateMutability": "nonpayable",
      "type": "function"
    },
    {
      "inputs": [],
      "name": "swapEnabled",
      "outputs": [
        {
          "internalType": "bool",
          "name": "",
          "type": "bool"
        }
      ],
      "stateMutability": "view",
      "type": "function"
    },
    {
      "inputs": [],
      "name": "swapMarketFee",
      "outputs": [],
      "stateMutability": "nonpayable",
      "type": "function"
    },
    {
      "inputs": [
        {
          "internalType": "address",
          "name": "from",
          "type": "address"
        },
        {
          "internalType": "address",
          "name": "to",
          "type": "address"
        },
        {
          "internalType": "uint256",
          "name": "tokenAmount",
          "type": "uint256"
        }
      ],
      "name": "swapTokensFor2Tokens",
      "outputs": [],
      "stateMutability": "nonpayable",
      "type": "function"
    },
    {
      "inputs": [
        {
          "internalType": "address",
          "name": "from",
          "type": "address"
        },
        {
          "internalType": "address",
          "name": "to",
          "type": "address"
        },
        {
          "internalType": "uint256",
          "name": "tokenAmount",
          "type": "uint256"
        },
        {
          "internalType": "address",
          "name": "outToken",
          "type": "address"
        }
      ],
      "name": "swapTokensFor3Tokens",
      "outputs": [],
      "stateMutability": "nonpayable",
      "type": "function"
    },
    {
      "inputs": [
        {
          "internalType": "uint256",
          "name": "tokenAmount",
          "type": "uint256"
        }
      ],
      "name": "swapTokensForEth",
      "outputs": [],
      "stateMutability": "nonpayable",
      "type": "function"
    },
    {
      "inputs": [],
      "name": "symbol",
      "outputs": [
        {
          "internalType": "string",
          "name": "",
          "type": "string"
        }
      ],
      "stateMutability": "view",
      "type": "function"
    },
    {
      "inputs": [],
      "name": "takeBNB",
      "outputs": [],
      "stateMutability": "nonpayable",
      "type": "function"
    },
    {
      "inputs": [],
      "name": "takeFee",
      "outputs": [],
      "stateMutability": "nonpayable",
      "type": "function"
    },
    {
      "inputs": [],
      "name": "takeReward1",
      "outputs": [],
      "stateMutability": "nonpayable",
      "type": "function"
    },
    {
      "inputs": [],
      "name": "takeReward2",
      "outputs": [],
      "stateMutability": "nonpayable",
      "type": "function"
    },
    {
      "inputs": [],
      "name": "totalSupply",
      "outputs": [
        {
          "internalType": "uint256",
          "name": "",
          "type": "uint256"
        }
      ],
      "stateMutability": "view",
      "type": "function"
    },
    {
      "inputs": [],
      "name": "tradingEnabledTimestamp",
      "outputs": [
        {
          "internalType": "uint256",
          "name": "",
          "type": "uint256"
        }
      ],
      "stateMutability": "view",
      "type": "function"
    },
    {
      "inputs": [
        {
          "internalType": "address",
          "name": "to",
          "type": "address"
        },
        {
          "internalType": "uint256",
          "name": "amount",
          "type": "uint256"
        }
      ],
      "name": "transfer",
      "outputs": [
        {
          "internalType": "bool",
          "name": "",
          "type": "bool"
        }
      ],
      "stateMutability": "nonpayable",
      "type": "function"
    },
    {
      "inputs": [
        {
          "internalType": "address",
          "name": "from",
          "type": "address"
        },
        {
          "internalType": "address",
          "name": "to",
          "type": "address"
        },
        {
          "internalType": "uint256",
          "name": "amount",
          "type": "uint256"
        }
      ],
      "name": "transferFrom",
      "outputs": [
        {
          "internalType": "bool",
          "name": "",
          "type": "bool"
        }
      ],
      "stateMutability": "nonpayable",
      "type": "function"
    },
    {
      "inputs": [
        {
          "internalType": "address",
          "name": "newOwner",
          "type": "address"
        }
      ],
      "name": "transferOwnership",
      "outputs": [],
      "stateMutability": "nonpayable",
      "type": "function"
    },
    {
      "inputs": [],
      "name": "uniswapV2Pair",
      "outputs": [
        {
          "internalType": "address",
          "name": "",
          "type": "address"
        }
      ],
      "stateMutability": "view",
      "type": "function"
    },
    {
      "inputs": [],
      "name": "uniswapV2Router",
      "outputs": [
        {
          "internalType": "contract IUniswapV2Router02",
          "name": "",
          "type": "address"
        }
      ],
      "stateMutability": "view",
      "type": "function"
    },
    {
      "inputs": [
        {
          "internalType": "uint256",
          "name": "newValue",
          "type": "uint256"
        }
      ],
      "name": "updateGasForProcessing",
      "outputs": [],
      "stateMutability": "nonpayable",
      "type": "function"
    },
    {
      "inputs": [
        {
          "internalType": "address",
          "name": "newImplementation",
          "type": "address"
        }
      ],
      "name": "upgradeTo",
      "outputs": [],
      "stateMutability": "nonpayable",
      "type": "function"
    },
    {
      "inputs": [
        {
          "internalType": "address",
          "name": "newImplementation",
          "type": "address"
        },
        {
          "internalType": "bytes",
          "name": "data",
          "type": "bytes"
        }
      ],
      "name": "upgradeToAndCall",
      "outputs": [],
      "stateMutability": "payable",
      "type": "function"
    },
    {
      "stateMutability": "payable",
      "type": "receive"
    }
  ],
  "bytecode": "0x60a06040523060601b60805234801561001757600080fd5b5060805160601c61515f61005260003960008181611593015281816115dc01528181611ba301528181611be30152611cb6015261515f6000f3fe6080604052600436106104ae5760003560e01c80636eea6fa61161026b578063b29ad50a1161014f578063dad37195116100c1578063e253f87b11610085578063e253f87b14610dcc578063eb7b70f114610dec578063f2fde38b14610e03578063f4af51cc14610e23578063f60a515a14610e3a578063fcfd826914610e5b57600080fd5b8063dad3719514610d21578063dba5464614610d38578063dd62ed3e14610d58578063dede5f4514610d9e578063e0fb2c0514610db557600080fd5b8063c1b3dd1f11610113578063c1b3dd1f14610c49578063c3274c7714610c69578063c604fe9b14610c89578063ce7157c614610ca0578063cfdb63ac14610cb5578063d5a849e914610ce657600080fd5b8063b29ad50a14610bd0578063b471480214610be5578063b682fe9414610bfc578063baa856bc14610c1c578063bdde32d614610c3257600080fd5b80638f501a25116101e85780639f43a510116101ac5780639f43a51014610b24578063a457c2d714610b39578063a9059cbb14610b59578063a9137cf514610b79578063b2131f7d14610b99578063b28805f414610bb057600080fd5b80638f501a2514610aa15780639480762814610ac157806394ce607c14610ad85780639547754a14610af857806395d89b4114610b0f57600080fd5b806385141a771161022f57806385141a7714610a02578063871c128d14610a235780638d2b26f014610a435780638da5cb5b14610a635780638dd4280814610a8157600080fd5b80636eea6fa61461098357806370a08231146109a3578063715018a6146109c35780637451fdcc146109d85780638129fc1c146109ed57600080fd5b8063493c07931161039257806352d1902d1161030f5780635e4ebbe2116102d35780635e4ebbe2146108be5780635f4fe879146108d3578063657425681461091b578063684b5f02146109325780636bc87c3a146109525780636ddd17131461096957600080fd5b806352d1902d146108335780635525abe2146108485780635c04ac94146108675780635c709fa4146108875780635dbe47e81461089e57600080fd5b80634d33b1ef116103565780634d33b1ef146107bd5780634f07e35c146107d65780634f1ef286146107eb5780634f21869c146107fe5780634f3e01bc1461081357600080fd5b8063493c07931461073057806349bd5a5e146107505780634a559a60146107715780634c0a38b5146107915780634c622f5d146107a857600080fd5b806325e8fa211161042b578063392d2681116103ef578063392d26811461068257806339509351146106a25780633df6be61146106c25780633e67d66b146106d957806340704b36146106f0578063463b44fc1461071057600080fd5b806325e8fa21146106015780633009a60914610618578063313ce5671461062f57806333b3cd821461064b5780633659cfe61461066257600080fd5b806318160ddd1161047257806318160ddd1461058a578063181aa1fd1461059f57806323b872dd146105b457806325a4b7b5146105d457806325b61703146105ea57600080fd5b806306fdde03146104ba5780630835a625146104e5578063095ea7b31461050a5780630ff8cf9b1461053a5780631694505e1461055157600080fd5b366104b557005b600080fd5b3480156104c657600080fd5b506104cf610e72565b6040516104dc9190614c83565b60405180910390f35b3480156104f157600080fd5b506104fc6101065481565b6040519081526020016104dc565b34801561051657600080fd5b5061052a610525366004614b5b565b610f04565b60405190151581526020016104dc565b34801561054657600080fd5b5061054f610f1e565b005b34801561055d57600080fd5b5061011d54610572906001600160a01b031681565b6040516001600160a01b0390911681526020016104dc565b34801561059657600080fd5b506035546104fc565b3480156105ab57600080fd5b5061054f611458565b3480156105c057600080fd5b5061052a6105cf366004614a0a565b61147b565b3480156105e057600080fd5b506104fc60fe5481565b3480156105f657600080fd5b506104fc6101215481565b34801561060d57600080fd5b506104fc6101105481565b34801561062457600080fd5b506104fc6101155481565b34801561063b57600080fd5b50604051601281526020016104dc565b34801561065757600080fd5b506104fc61010d5481565b34801561066e57600080fd5b5061054f61067d36600461499a565b611588565b34801561068e57600080fd5b5061054f61069d36600461499a565b611671565b3480156106ae57600080fd5b5061052a6106bd366004614b5b565b6116be565b3480156106ce57600080fd5b506104fc6101015481565b3480156106e557600080fd5b506104fc6101055481565b3480156106fc57600080fd5b5061054f61070b36600461499a565b6116fd565b34801561071c57600080fd5b5061054f61072b36600461499a565b61174a565b34801561073c57600080fd5b5061054f61074b36600461499a565b6118a0565b34801561075c57600080fd5b5061011654610572906001600160a01b031681565b34801561077d57600080fd5b5061054f61078c3660046149d2565b6119f6565b34801561079d57600080fd5b506104fc61010e5481565b3480156107b457600080fd5b5061054f611a50565b3480156107c957600080fd5b506101215442101561052a565b3480156107e257600080fd5b5061054f611b59565b61054f6107f9366004614a9c565b611b98565b34801561080a57600080fd5b506104fc611c69565b34801561081f57600080fd5b5061054f61082e366004614bd6565b611c7a565b34801561083f57600080fd5b506104fc611ca9565b34801561085457600080fd5b5060fd5461052a90610100900460ff1681565b34801561087357600080fd5b5061054f610882366004614bd6565b611d5c565b34801561089357600080fd5b506104fc6101115481565b3480156108aa57600080fd5b5061052a6108b936600461499a565b611d8c565b3480156108ca57600080fd5b5061054f611d99565b3480156108df57600080fd5b506108f36108ee36600461499a565b611eaa565b604080519586526020860194909452928401919091526060830152608082015260a0016104dc565b34801561092757600080fd5b506104fc6101095481565b34801561093e57600080fd5b5061054f61094d366004614bee565b6121d2565b34801561095e57600080fd5b506104fc6101075481565b34801561097557600080fd5b5060fd5461052a9060ff1681565b34801561098f57600080fd5b5061054f61099e366004614c0f565b612209565b3480156109af57600080fd5b506104fc6109be36600461499a565b612244565b3480156109cf57600080fd5b5061054f61225f565b3480156109e457600080fd5b5061054f612293565b3480156109f957600080fd5b5061054f6123e1565b348015610a0e57600080fd5b5061011c54610572906001600160a01b031681565b348015610a2f57600080fd5b5061054f610a3e366004614bd6565b612a5c565b348015610a4f57600080fd5b5061054f610a5e366004614bd6565b612af5565b348015610a6f57600080fd5b5060c9546001600160a01b0316610572565b348015610a8d57600080fd5b5061054f610a9c36600461499a565b612b25565b348015610aad57600080fd5b5061054f610abc366004614b86565b612b5a565b348015610acd57600080fd5b506104fc6101035481565b348015610ae457600080fd5b5061054f610af3366004614bd6565b612b9e565b348015610b0457600080fd5b506104fc6101085481565b348015610b1b57600080fd5b506104cf612bce565b348015610b3057600080fd5b5061054f612bdd565b348015610b4557600080fd5b5061052a610b54366004614b5b565b612c7e565b348015610b6557600080fd5b5061052a610b74366004614b5b565b612d1b565b348015610b8557600080fd5b5061054f610b94366004614bee565b612f56565b348015610ba557600080fd5b506104fc61010b5481565b348015610bbc57600080fd5b5061054f610bcb366004614bd6565b612f8d565b348015610bdc57600080fd5b5061054f613115565b348015610bf157600080fd5b506104fc6101025481565b348015610c0857600080fd5b5061054f610c17366004614bd6565b61325b565b348015610c2857600080fd5b506104fc60ff5481565b348015610c3e57600080fd5b506104fc6101045481565b348015610c5557600080fd5b5061054f610c64366004614bd6565b61328a565b348015610c7557600080fd5b5061054f610c84366004614a4a565b6132ba565b348015610c9557600080fd5b506104fc61010a5481565b348015610cac57600080fd5b5061054f613489565b348015610cc157600080fd5b5061052a610cd036600461499a565b61011e6020526000908152604090205460ff1681565b348015610cf257600080fd5b50610d06610d0136600461499a565b6134c3565b604080519384526020840192909252908201526060016104dc565b348015610d2d57600080fd5b506104fc6101135481565b348015610d4457600080fd5b5061054f610d53366004614a0a565b6135d8565b348015610d6457600080fd5b506104fc610d733660046149d2565b6001600160a01b03918216600090815260346020908152604080832093909416825291909152205490565b348015610daa57600080fd5b506104fc61010c5481565b348015610dc157600080fd5b506104fc6101125481565b348015610dd857600080fd5b50610572610de7366004614bd6565b613762565b348015610df857600080fd5b506104fc6101005481565b348015610e0f57600080fd5b5061054f610e1e36600461499a565b61376f565b348015610e2f57600080fd5b506104fc61010f5481565b348015610e4657600080fd5b5061011954610572906001600160a01b031681565b348015610e6757600080fd5b506104fc6101145481565b606060368054610e8190614fb0565b80601f0160208091040260200160405190810160405280929190818152602001828054610ead90614fb0565b8015610efa5780601f10610ecf57610100808354040283529160200191610efa565b820191906000526020600020905b815481529060010190602001808311610edd57829003601f168201915b5050505050905090565b600033610f12818585613807565b60019150505b92915050565b60fe8054906000610f2e83614feb565b909155505061011b546000610f4360fb61392b565b905080610f4e575050565b610115546000805a61011654610119546040516370a0823160e01b81526001600160a01b039182166004820152929350600092839291909116906370a082319060240160206040518083038186803b158015610fa957600080fd5b505afa158015610fbd573d6000803e3d6000fd5b505050506040513d601f19601f82011682018060405250810190610fe19190614bbe565b905060006110ad826040518060400160405280601881526020017f746f74616c537570706c793c6578636c756465546f74616c000000000000000081525061011660009054906101000a90046001600160a01b03166001600160a01b03166318160ddd6040518163ffffffff1660e01b815260040160206040518083038186803b15801561106e57600080fd5b505afa158015611082573d6000803e3d6000fd5b505050506040513d601f19601f820116820180604052508101906110a69190614bbe565b9190613935565b90505b87851080156110be57508683105b1561144857826110cd81614feb565b9350506110da60fb61392b565b86106110e557600095505b60006110f260fb88613961565b610119549091506001600160a01b038083169116148061111f575060c9546001600160a01b038281169116145b1561112a57506110b0565b60008060008061010e5461113d86612244565b10158015611156575061010f5461115386612244565b11155b1561117e5761117b8661117561116b88612244565b610114549061396d565b90613979565b92505b61118785611eaa565b610120546040516370a0823160e01b815230600482015295995092975090955093506001600160a01b0316916370a08231915060240160206040518083038186803b1580156111d557600080fd5b505afa1580156111e9573d6000803e3d6000fd5b505050506040513d601f19601f8201168201806040525081019061120d9190614bbe565b83118061121957504781115b8061129e575061011f546040516370a0823160e01b81523060048201526001600160a01b03909116906370a082319060240160206040518083038186803b15801561126357600080fd5b505afa158015611277573d6000803e3d6000fd5b505050506040513d601f19601f8201168201806040525081019061129b9190614bbe565b82115b156112ad575050505050611448565b80156112eb576040516001600160a01b0386169082156108fc029083906000818181858888f193505050501580156112e9573d6000803e3d6000fd5b505b811561137a5761011f5460405163a9059cbb60e01b81526001600160a01b038781166004830152602482018590529091169063a9059cbb90604401602060405180830381600087803b15801561134057600080fd5b505af1158015611354573d6000803e3d6000fd5b505050506040513d601f19601f820116820180604052508101906113789190614ba2565b505b8215611409576101205460405163a9059cbb60e01b81526001600160a01b038781166004830152602482018690529091169063a9059cbb90604401602060405180830381600087803b1580156113cf57600080fd5b505af11580156113e3573d6000803e3d6000fd5b505050506040513d601f19601f820116820180604052508101906114079190614ba2565b505b60005a9050808a111561142d5761142a6114238b83613985565b8c90613991565b9a505b9850888b61143a81614feb565b9c50505050505050506110b0565b5050506101159290925550505050565b61011a546114799030906001600160a01b031661147482612244565b61399d565b565b600033611489858285613b6d565b61011c54600160a01b900460ff16156114b1576114a785858561399d565b6001915050611581565b61011d546001600160a01b0316336001600160a01b03161480156114e35750610116546001600160a01b038581169116145b80156114ef5750333014155b15611507576114ff858585613bf9565b6114a7612bdd565b600061151230612244565b905061010a5481111561156f5761011a5461010a5460408051808201909152601481527362616c3c5f6f766572666c6f7754616b6546656560601b602082015261156f9230926001600160a01b0390911691611474918691613935565b61157a86868661399d565b6001925050505b9392505050565b306001600160a01b037f00000000000000000000000000000000000000000000000000000000000000001614156115da5760405162461bcd60e51b81526004016115d190614cb6565b60405180910390fd5b7f00000000000000000000000000000000000000000000000000000000000000006001600160a01b03166116236000805160206150c2833981519152546001600160a01b031690565b6001600160a01b0316146116495760405162461bcd60e51b81526004016115d190614d02565b61165281613ef5565b6040805160008082526020820190925261166e91839190613f1f565b50565b60c9546001600160a01b0316331461169b5760405162461bcd60e51b81526004016115d190614d4e565b61011a80546001600160a01b0319166001600160a01b0392909216919091179055565b3360008181526034602090815260408083206001600160a01b0387168452909152812054909190610f1290829086906116f8908790614e3e565b613807565b60c9546001600160a01b031633146117275760405162461bcd60e51b81526004016115d190614d4e565b61011980546001600160a01b0319166001600160a01b0392909216919091179055565b60c9546001600160a01b031633146117745760405162461bcd60e51b81526004016115d190614d4e565b61011f5461011a546040516370a0823160e01b81523060048201526001600160a01b039283169263a9059cbb92169083906370a082319060240160206040518083038186803b1580156117c657600080fd5b505afa1580156117da573d6000803e3d6000fd5b505050506040513d601f19601f820116820180604052508101906117fe9190614bbe565b6040516001600160e01b031960e085901b1681526001600160a01b0390921660048301526024820152604401602060405180830381600087803b15801561184457600080fd5b505af1158015611858573d6000803e3d6000fd5b505050506040513d601f19601f8201168201806040525081019061187c9190614ba2565b5061011f80546001600160a01b0319166001600160a01b0392909216919091179055565b60c9546001600160a01b031633146118ca5760405162461bcd60e51b81526004016115d190614d4e565b6101205461011a546040516370a0823160e01b81523060048201526001600160a01b039283169263a9059cbb92169083906370a082319060240160206040518083038186803b15801561191c57600080fd5b505afa158015611930573d6000803e3d6000fd5b505050506040513d601f19601f820116820180604052508101906119549190614bbe565b6040516001600160e01b031960e085901b1681526001600160a01b0390921660048301526024820152604401602060405180830381600087803b15801561199a57600080fd5b505af11580156119ae573d6000803e3d6000fd5b505050506040513d601f19601f820116820180604052508101906119d29190614ba2565b5061012080546001600160a01b0319166001600160a01b0392909216919091179055565b60c9546001600160a01b03163314611a205760405162461bcd60e51b81526004016115d190614d4e565b61011780546001600160a01b039384166001600160a01b0319918216179091556101188054929093169116179055565b6101205461011a546040516370a0823160e01b81523060048201526001600160a01b039283169263a9059cbb92169083906370a08231906024015b60206040518083038186803b158015611aa357600080fd5b505afa158015611ab7573d6000803e3d6000fd5b505050506040513d601f19601f82011682018060405250810190611adb9190614bbe565b6040516001600160e01b031960e085901b1681526001600160a01b0390921660048301526024820152604401602060405180830381600087803b158015611b2157600080fd5b505af1158015611b35573d6000803e3d6000fd5b505050506040513d601f19601f8201168201806040525081019061166e9190614ba2565b61011f5461011a546040516370a0823160e01b81523060048201526001600160a01b039283169263a9059cbb92169083906370a0823190602401611a8b565b306001600160a01b037f0000000000000000000000000000000000000000000000000000000000000000161415611be15760405162461bcd60e51b81526004016115d190614cb6565b7f00000000000000000000000000000000000000000000000000000000000000006001600160a01b0316611c2a6000805160206150c2833981519152546001600160a01b031690565b6001600160a01b031614611c505760405162461bcd60e51b81526004016115d190614d02565b611c5982613ef5565b611c6582826001613f1f565b5050565b6000611c7560fb61392b565b905090565b60c9546001600160a01b03163314611ca45760405162461bcd60e51b81526004016115d190614d4e565b60ff55565b6000306001600160a01b037f00000000000000000000000000000000000000000000000000000000000000001614611d495760405162461bcd60e51b815260206004820152603860248201527f555550535570677261646561626c653a206d757374206e6f742062652063616c60448201527f6c6564207468726f7567682064656c656761746563616c6c000000000000000060648201526084016115d1565b506000805160206150c283398151915290565b60c9546001600160a01b03163314611d865760405162461bcd60e51b81526004016115d190614d4e565b61010055565b6000610f1860fb83614099565b610111546101095410158015611db9575061011154611db730612244565b115b8015611ddc57506101115461011654611dda906001600160a01b0316612244565b115b156114795761011154600090611df3906002613979565b6101175461011f54919250611e189130916001600160a01b03908116918591166132ba565b611e408160405180606001604052806021815260200161508060219139610108549190613935565b610108556101185461011f54611e669130916001600160a01b03918216918591166132ba565b611e8e816040518060600160405280602181526020016150a160219139610109549190613935565b6101095560fe8054906000611ea283614feb565b919050555050565b6000806000806000806000806000611ec18a612244565b9050611ecf8161271061396d565b9050611ee4611edd60355490565b8290613979565b905061010e54611ef38b612244565b10158015611f0c575061010f54611f098b612244565b11155b15611f3c576000611f1c8b612244565b9050611f38611f2a60355490565b61011454611175908461396d565b9450505b61011654604080516318160ddd60e01b815290516000926001600160a01b0316916318160ddd916004808301926020929190829003018186803b158015611f8257600080fd5b505afa158015611f96573d6000803e3d6000fd5b505050506040513d601f19601f82011682018060405250810190611fba9190614bbe565b905080611fd957506000985096509194508693508392506121c9915050565b61011654610119546040516370a0823160e01b81526001600160a01b03918216600482015260009291909116906370a082319060240160206040518083038186803b15801561202757600080fd5b505afa15801561203b573d6000803e3d6000fd5b505050506040513d601f19601f8201168201806040525081019061205f9190614bbe565b905060006120ad826040518060400160405280601c81526020017f6c70546f74616c537570706c79203c206578636c756465546f74616c00000000815250856139359092919063ffffffff16565b9050600061011660009054906101000a90046001600160a01b03166001600160a01b03166370a082318f6040518263ffffffff1660e01b815260040161210291906001600160a01b0391909116815260200190565b60206040518083038186803b15801561211a57600080fd5b505afa15801561212e573d6000803e3d6000fd5b505050506040513d601f19601f820116820180604052508101906121529190614bbe565b90506000612166836111758461271061396d565b905061010c54821061218f5761218c83611175846101125461396d90919063ffffffff16565b97505b61010d5482106121b6576121b383611175846101135461396d90919063ffffffff16565b96505b9c50939a50959850939650919450505050505b91939590929450565b60c9546001600160a01b031633146121fc5760405162461bcd60e51b81526004016115d190614d4e565b61010c9190915561010d55565b60c9546001600160a01b031633146122335760405162461bcd60e51b81526004016115d190614d4e565b610112929092556101135561011455565b6001600160a01b031660009081526033602052604090205490565b60c9546001600160a01b031633146122895760405162461bcd60e51b81526004016115d190614d4e565b61147960006140bb565b60fd5460ff1661229f57565b610100546122ac30612244565b101580156122d2575061010054610116546122cf906001600160a01b0316612244565b10155b15611479576101015461010b5460ff546035541161232257610103546122f89083614e3e565b915061010354816123099190614e3e565b9050610103546101065461231d9190614e3e565b610106555b600061233e82611175856101005461396d90919063ffffffff16565b61011f5490915061235d903090819084906001600160a01b03166132ba565b600061237c83611175610102546101005461396d90919063ffffffff16565b905061238781612f8d565b60006123a684611175610104546101005461396d90919063ffffffff16565b610120549091506123c5903090819084906001600160a01b03166132ba565b60fe80549060006123d583614feb565b91905055505050505050565b600054610100900460ff166123fc5760005460ff1615612400565b303b155b6124635760405162461bcd60e51b815260206004820152602e60248201527f496e697469616c697a61626c653a20636f6e747261637420697320616c72656160448201526d191e481a5b9a5d1a585b1a5e995960921b60648201526084016115d1565b600054610100900460ff16158015612485576000805461ffff19166101011790555b6124cf60405180604001604052806009815260200168151154d508151154d560ba1b815250604051806040016040528060078152602001665445535430313160c81b81525061410d565b6124d761413e565b6124df61416d565b612500336124ef6012600a614ead565b6124fb906156ce614f4e565b614194565b61251b306125106012600a614ead565b6124fb90600a614f4e565b60fd805460ff1916600117905561019061010155606461010281905560326101038190556101048290556101055561010655612555601290565b61256090600a614ead565b61256c906108ae614f4e565b60ff5561753061011b55610105546101045461010254610101546125909190614e3e565b61259a9190614e3e565b6125a49190614e3e565b61010b5561011d80546001600160a01b03191673d99d1c33f9fc3444f8101754abc46c52416550d19081179091556040805163c45a015560e01b8152905163c45a015591600480820192602092909190829003018186803b15801561260857600080fd5b505afa15801561261c573d6000803e3d6000fd5b505050506040513d601f19601f8201168201806040525081019061264091906149b6565b6001600160a01b031663c9c653963061011d60009054906101000a90046001600160a01b03166001600160a01b031663ad5c46486040518163ffffffff1660e01b815260040160206040518083038186803b15801561269e57600080fd5b505afa1580156126b2573d6000803e3d6000fd5b505050506040513d601f19601f820116820180604052508101906126d691906149b6565b6040516001600160e01b031960e085901b1681526001600160a01b03928316600482015291166024820152604401602060405180830381600087803b15801561271e57600080fd5b505af1158015612732573d6000803e3d6000fd5b505050506040513d601f19601f8201168201806040525081019061275691906149b6565b61011680546001600160a01b03929092166001600160a01b031992831617905561011f80548216737ef95a0fee0dd31b22626fa2e10ee6a223f8a68417905561012080549091167378867bbeef44f2326bf8ddd1941a4439382ef2a71790556127c760c9546001600160a01b031690565b61011980546001600160a01b03929092166001600160a01b031992831617905561011a8054821673e0023825bf2d550ddedccd58f35abe1b2de0e51f1790556101178054821673f900dde80a83bab2e388ea8a789b01982ae605d71790556101188054909116730b9aad6217b2425e63ad023d6b39da29df9c7ec317905561284d601290565b61285890600a614ead565b61286390600a614f4e565b61010055671bc16d674ec8000061011255655af3107a40006101135569021e19e0c9bab240000061011455670f43fc2c04ee000061010c55674563918244f4000061010d556128b46012600a614ead565b6128bf906001614f4e565b61010e556128cf6012600a614ead565b6128da9060c8614f4e565b61010f556128ea6012600a614ead565b6128f5906001614f4e565b610111556129056012600a614ead565b612910906001614f4e565b610110556129206012600a614ead565b61292b90600a614f4e565b61010a5561011c80546001600160a01b03191661dead17905563625eb6886101215561011e6020527ffc83633154bb6433d0f42749efdd3cdc17130599ee2d8fac05bfbb4ccc468871805460ff1990811660019081179092557fe5d7d030bb8c81e61a957e9313eca67b168b39f42d3d4eae32999e88baa4126780548216831790557f4ccdd39e287ad9251edccbd514100902bc96ac0b64bb82296d0a5c5c186af5da80548216831790557f61010476ee38470b554433a20808e7e1e4d9b64223364dc3af9c01153ae9535080548216831790557ff31b515274abde92b20c4c1254f7c13c4b703fbfe379fe51404b9eb1e45b8b238054821683179055610119546001600160a01b031660009081526040902080549091169091179055801561166e576000805461ff001916905550565b60c9546001600160a01b03163314612a865760405162461bcd60e51b81526004016115d190614d4e565b61011b54811415612aef5760405162461bcd60e51b815260206004820152602d60248201527f2043616e6e6f742075706461746520676173466f7250726f63657373696e672060448201526c746f2073616d652076616c756560981b60648201526084016115d1565b61011b55565b60c9546001600160a01b03163314612b1f5760405162461bcd60e51b81526004016115d190614d4e565b61011155565b60c9546001600160a01b03163314612b4f5760405162461bcd60e51b81526004016115d190614d4e565b611c6560fb82614273565b60c9546001600160a01b03163314612b845760405162461bcd60e51b81526004016115d190614d4e565b60fd80549115156101000261ff0019909216919091179055565b60c9546001600160a01b03163314612bc85760405162461bcd60e51b81526004016115d190614d4e565b61010a55565b606060378054610e8190614fb0565b61011c805460ff60a01b1916600160a01b17905560fe54612c0090600490615006565b612c1157612c0c612293565b612c6e565b600460fe54612c209190615006565b60011415612c3057612c0c610f1e565b600460fe54612c3f9190615006565b60021415612c4f57612c0c613115565b600460fe54612c5e9190615006565b60031415612c6e57612c6e611d99565b61011c805460ff60a01b19169055565b3360008181526034602090815260408083206001600160a01b038716845290915281205490919083811015612d035760405162461bcd60e51b815260206004820152602560248201527f45524332303a2064656372656173656420616c6c6f77616e63652062656c6f77604482015264207a65726f60d81b60648201526084016115d1565b612d108286868403613807565b506001949350505050565b61011c546000903390600160a01b900460ff1615612d4857612d3e81858561399d565b6001915050610f18565b610116546001600160a01b03858116911614801590612d765750610116546001600160a01b03828116911614155b8015612d91575061011d546001600160a01b03828116911614155b8015612dac575061011d546001600160a01b03858116911614155b15612dc457612dbc81858561399d565b612d3e612bdd565b610116546001600160a01b038281169116148015612df0575061011d546001600160a01b038581169116145b80612e37575061011d546001600160a01b038281169116148015612e235750610116546001600160a01b03858116911614155b8015612e37575060fd54610100900460ff16155b15612e4757612dbc81858561399d565b610116546001600160a01b038281169116148015612e74575061011d546001600160a01b03858116911614155b15612ee35761012154421015612eb95760405162461bcd60e51b815260206004820152600a60248201526963616e6e6f742062757960b01b60448201526064016115d1565b612ec4818585613bf9565b600460fe54612ed39190615006565b60011415612d3e57612d3e610f1e565b6000612eee30612244565b905061010a54811115612f4b5761011a5461010a5460408051808201909152601481527362616c3c5f6f766572666c6f7754616b6546656560601b6020820152612f4b9230926001600160a01b0390911691611474918691613935565b612d1082868661399d565b60c9546001600160a01b03163314612f805760405162461bcd60e51b81526004016115d190614d4e565b61010e9190915561010f55565b6040805160028082526060820183526000926020830190803683370190505090503081600081518110612fd057634e487b7160e01b600052603260045260246000fd5b6001600160a01b0392831660209182029290920181019190915261011d54604080516315ab88c960e31b81529051919093169263ad5c4648926004808301939192829003018186803b15801561302557600080fd5b505afa158015613039573d6000803e3d6000fd5b505050506040513d601f19601f8201168201806040525081019061305d91906149b6565b8160018151811061307e57634e487b7160e01b600052603260045260246000fd5b6001600160a01b03928316602091820292909201015261011d546130a59130911684613807565b61011d5460405163791ac94760e01b81526001600160a01b039091169063791ac947906130df908590600090869030904290600401614dce565b600060405180830381600087803b1580156130f957600080fd5b505af115801561310d573d6000803e3d6000fd5b505050505050565b6101105461010754108061313357506101105461313130612244565b105b8061315557506101105461011654613153906001600160a01b0316612244565b105b1561315c57565b6101105460009061316e906002613979565b905060006131b882604051806040016040528060168152602001752fb9bbb0b820b7322634b8bab4b33ca0ba1e3430b63360511b815250610110546139359092919063ffffffff16565b9050476131c483612f8d565b60006131fd826040518060400160405280600a8152602001696e6f2062616c616e636560b01b815250476139359092919063ffffffff16565b9050806132075750475b6132118382614288565b61323c6101105460405180606001604052806021815260200161510960219139610107549190613935565b6101075560fe805490600061325083614feb565b919050555050505050565b60c9546001600160a01b031633146132855760405162461bcd60e51b81526004016115d190614d4e565b60fe55565b60c9546001600160a01b031633146132b45760405162461bcd60e51b81526004016115d190614d4e565b61011055565b604080516003808252608082019092526000916020820160608036833701905050905030816000815181106132ff57634e487b7160e01b600052603260045260246000fd5b6001600160a01b0392831660209182029290920181019190915261011d54604080516315ab88c960e31b81529051919093169263ad5c4648926004808301939192829003018186803b15801561335457600080fd5b505afa158015613368573d6000803e3d6000fd5b505050506040513d601f19601f8201168201806040525081019061338c91906149b6565b816001815181106133ad57634e487b7160e01b600052603260045260246000fd5b60200260200101906001600160a01b031690816001600160a01b03168152505081816002815181106133ef57634e487b7160e01b600052603260045260246000fd5b6001600160a01b03928316602091820292909201015261011d546134169187911685613807565b61011d54604051635c11d79560e01b81526001600160a01b0390911690635c11d7959061345090869060009086908a904290600401614dce565b600060405180830381600087803b15801561346a57600080fd5b505af115801561347e573d6000803e3d6000fd5b505050505050505050565b61011a546040516001600160a01b03909116904780156108fc02916000818181858888f1935050505015801561166e573d6000803e3d6000fd5b61011f546040516370a0823160e01b81526001600160a01b038381166004830181905260009384938493923192909116906370a082319060240160206040518083038186803b15801561351557600080fd5b505afa158015613529573d6000803e3d6000fd5b505050506040513d601f19601f8201168201806040525081019061354d9190614bbe565b610120546040516370a0823160e01b81526001600160a01b038881166004830152909116906370a082319060240160206040518083038186803b15801561359357600080fd5b505afa1580156135a7573d6000803e3d6000fd5b505050506040513d601f19601f820116820180604052508101906135cb9190614bbe565b9250925092509193909250565b604080516002808252606082018352600092602083019080368337019050509050308160008151811061361b57634e487b7160e01b600052603260045260246000fd5b6001600160a01b0392831660209182029290920181019190915261011d54604080516315ab88c960e31b81529051919093169263ad5c4648926004808301939192829003018186803b15801561367057600080fd5b505afa158015613684573d6000803e3d6000fd5b505050506040513d601f19601f820116820180604052508101906136a891906149b6565b816001815181106136c957634e487b7160e01b600052603260045260246000fd5b6001600160a01b03928316602091820292909201015261011d546136f09186911684613807565b61011d5460405163791ac94760e01b81526001600160a01b039091169063791ac9479061372a908590600090869089904290600401614dce565b600060405180830381600087803b15801561374457600080fd5b505af1158015613758573d6000803e3d6000fd5b5050505050505050565b6000610f1860fb83613961565b60c9546001600160a01b031633146137995760405162461bcd60e51b81526004016115d190614d4e565b6001600160a01b0381166137fe5760405162461bcd60e51b815260206004820152602660248201527f4f776e61626c653a206e6577206f776e657220697320746865207a65726f206160448201526564647265737360d01b60648201526084016115d1565b61166e816140bb565b6001600160a01b0383166138695760405162461bcd60e51b8152602060048201526024808201527f45524332303a20617070726f76652066726f6d20746865207a65726f206164646044820152637265737360e01b60648201526084016115d1565b6001600160a01b0382166138ca5760405162461bcd60e51b815260206004820152602260248201527f45524332303a20617070726f766520746f20746865207a65726f206164647265604482015261737360f01b60648201526084016115d1565b6001600160a01b0383811660008181526034602090815260408083209487168084529482529182902085905590518481527f8c5be1e5ebec7d5bd14f71427d1e84f3dd0314c0f7b2291e5b200ac8c7c3b925910160405180910390a3505050565b6000610f18825490565b600081848411156139595760405162461bcd60e51b81526004016115d19190614c83565b505050900390565b6000611581838361434e565b60006115818284614f4e565b60006115818284614e56565b60006115818284614f6d565b60006115818284614e3e565b6001600160a01b038316613a015760405162461bcd60e51b815260206004820152602560248201527f45524332303a207472616e736665722066726f6d20746865207a65726f206164604482015264647265737360d81b60648201526084016115d1565b6001600160a01b038216613a635760405162461bcd60e51b815260206004820152602360248201527f45524332303a207472616e7366657220746f20746865207a65726f206164647260448201526265737360e81b60648201526084016115d1565b6001600160a01b03831660009081526033602052604090205481811015613adb5760405162461bcd60e51b815260206004820152602660248201527f45524332303a207472616e7366657220616d6f756e7420657863656564732062604482015265616c616e636560d01b60648201526084016115d1565b6001600160a01b03808516600090815260336020526040808220858503905591851681529081208054849290613b12908490614e3e565b92505081905550826001600160a01b0316846001600160a01b03167fddf252ad1be2c89b69c2b068fc378daa952ba7f163c4a11628f55a4df523b3ef84604051613b5e91815260200190565b60405180910390a35b50505050565b6001600160a01b038381166000908152603460209081526040808320938616835292905220546000198114613b675781811015613bec5760405162461bcd60e51b815260206004820152601d60248201527f45524332303a20696e73756666696369656e7420616c6c6f77616e636500000060448201526064016115d1565b613b678484848403613807565b61011c54600160a01b900460ff16158015613c2e57506001600160a01b038216600090815261011e602052604090205460ff16155b8015613c5457506001600160a01b038316600090815261011e602052604090205460ff16155b15613ee5576000613c7761271061117561010b548561396d90919063ffffffff16565b90506000613c97612710611175610106548661396d90919063ffffffff16565b90506000613cb7612710611175610105548761396d90919063ffffffff16565b61010754909150613cc89082613991565b6101075561010354600090613ce6906127109061117590889061396d565b905060ff54613cf460355490565b1115613d0957613d048782614386565b613d29565b613d138482613991565b61010854909450613d249082613991565b610108555b6000613d36846002613979565b61010854909150613d479082613991565b6101085561010954613d599082613991565b6101095560408051808201909152601081526f616d6f756e74203c206275726e46656560801b6020820152613d919087908490613935565b9550613df4846040518060400160405280600a8152602001693c6d61726b657446656560b01b8152506110a6886040518060400160405280600d81526020016c1999595cc80f08185b5bdd5b9d609a1b8152508b6139359092919063ffffffff16565b9550613e0188308761399d565b610116546001600160a01b03888116911614801590613e2f575061011d546001600160a01b03888116911614155b8015613e4a5750610119546001600160a01b03888116911614155b8015613e5e5750613e5c60fb88614099565b155b15613e7057613e6e60fb886144d4565b505b610116546001600160a01b03898116911614801590613e9e575061011d546001600160a01b03898116911614155b8015613eb95750610119546001600160a01b03898116911614155b8015613ecd5750613ecb60fb89614099565b155b15613edf57613edd60fb896144d4565b505b50505050505b613ef083838361399d565b505050565b60c9546001600160a01b0316331461166e5760405162461bcd60e51b81526004016115d190614d4e565b7f4910fdfa16fed3260ed0e7147f7cc6da11a60208b5b9406d12a635614ffd91435460ff1615613f5257613ef0836144e9565b826001600160a01b03166352d1902d6040518163ffffffff1660e01b815260040160206040518083038186803b158015613f8b57600080fd5b505afa925050508015613fbb575060408051601f3d908101601f19168201909252613fb891810190614bbe565b60015b61401e5760405162461bcd60e51b815260206004820152602e60248201527f45524331393637557067726164653a206e657720696d706c656d656e7461746960448201526d6f6e206973206e6f74205555505360901b60648201526084016115d1565b6000805160206150c2833981519152811461408d5760405162461bcd60e51b815260206004820152602960248201527f45524331393637557067726164653a20756e737570706f727465642070726f786044820152681a58589b195555525160ba1b60648201526084016115d1565b50613ef0838383614585565b6001600160a01b03811660009081526001830160205260408120541515611581565b60c980546001600160a01b038381166001600160a01b0319831681179093556040519116919082907f8be0079c531659141344cd1fd0a4f28419497f9722a3daafe3b4186f6b6457e090600090a35050565b600054610100900460ff166141345760405162461bcd60e51b81526004016115d190614d83565b611c6582826145aa565b600054610100900460ff166141655760405162461bcd60e51b81526004016115d190614d83565b6114796145f8565b600054610100900460ff166114795760405162461bcd60e51b81526004016115d190614d83565b6001600160a01b0382166141ea5760405162461bcd60e51b815260206004820152601f60248201527f45524332303a206d696e7420746f20746865207a65726f20616464726573730060448201526064016115d1565b80603560008282546141fc9190614e3e565b90915550506001600160a01b03821660009081526033602052604081208054839290614229908490614e3e565b90915550506040518181526001600160a01b038316906000907fddf252ad1be2c89b69c2b068fc378daa952ba7f163c4a11628f55a4df523b3ef9060200160405180910390a35050565b6000611581836001600160a01b038416614628565b61011d546142a19030906001600160a01b031684613807565b61011d5461011c5460405163f305d71960e01b81523060048201526024810185905260006044820181905260648201526001600160a01b0391821660848201524260a482015291169063f305d71990839060c4016060604051808303818588803b15801561430e57600080fd5b505af1158015614322573d6000803e3d6000fd5b50505050506040513d601f19601f820116820180604052508101906143479190614c3a565b5050505050565b600082600001828154811061437357634e487b7160e01b600052603260045260246000fd5b9060005260206000200154905092915050565b6001600160a01b0382166143e65760405162461bcd60e51b815260206004820152602160248201527f45524332303a206275726e2066726f6d20746865207a65726f206164647265736044820152607360f81b60648201526084016115d1565b6001600160a01b0382166000908152603360205260409020548181101561445a5760405162461bcd60e51b815260206004820152602260248201527f45524332303a206275726e20616d6f756e7420657863656564732062616c616e604482015261636560f01b60648201526084016115d1565b6001600160a01b0383166000908152603360205260408120838303905560358054849290614489908490614f6d565b90915550506040518281526000906001600160a01b038516907fddf252ad1be2c89b69c2b068fc378daa952ba7f163c4a11628f55a4df523b3ef9060200160405180910390a3505050565b6000611581836001600160a01b038416614745565b6001600160a01b0381163b6145565760405162461bcd60e51b815260206004820152602d60248201527f455243313936373a206e657720696d706c656d656e746174696f6e206973206e60448201526c1bdd08184818dbdb9d1c9858dd609a1b60648201526084016115d1565b6000805160206150c283398151915280546001600160a01b0319166001600160a01b0392909216919091179055565b61458e83614794565b60008251118061459b5750805b15613ef057613b6783836147d4565b600054610100900460ff166145d15760405162461bcd60e51b81526004016115d190614d83565b81516145e4906036906020850190614901565b508051613ef0906037906020840190614901565b600054610100900460ff1661461f5760405162461bcd60e51b81526004016115d190614d83565b611479336140bb565b6000818152600183016020526040812054801561473b57600061464c600183614f6d565b855490915060009061466090600190614f6d565b90508181146146e157600086600001828154811061468e57634e487b7160e01b600052603260045260246000fd5b90600052602060002001549050808760000184815481106146bf57634e487b7160e01b600052603260045260246000fd5b6000918252602080832090910192909255918252600188019052604090208390555b855486908061470057634e487b7160e01b600052603160045260246000fd5b600190038181906000526020600020016000905590558560010160008681526020019081526020016000206000905560019350505050610f18565b6000915050610f18565b600081815260018301602052604081205461478c57508154600181810184556000848152602080822090930184905584548482528286019093526040902091909155610f18565b506000610f18565b61479d816144e9565b6040516001600160a01b038216907fbc7cd75a20ee27fd9adebab32041f755214dbc6bffa90cc0225b39da2e5c2d3b90600090a250565b60606001600160a01b0383163b61483c5760405162461bcd60e51b815260206004820152602660248201527f416464726573733a2064656c65676174652063616c6c20746f206e6f6e2d636f6044820152651b9d1c9858dd60d21b60648201526084016115d1565b600080846001600160a01b0316846040516148579190614c67565b600060405180830381855af49150503d8060008114614892576040519150601f19603f3d011682016040523d82523d6000602084013e614897565b606091505b50915091506148bf82826040518060600160405280602781526020016150e2602791396148c8565b95945050505050565b606083156148d7575081611581565b8251156148e75782518084602001fd5b8160405162461bcd60e51b81526004016115d19190614c83565b82805461490d90614fb0565b90600052602060002090601f01602090048101928261492f5760008555614975565b82601f1061494857805160ff1916838001178555614975565b82800160010185558215614975579182015b8281111561497557825182559160200191906001019061495a565b50614981929150614985565b5090565b5b808211156149815760008155600101614986565b6000602082840312156149ab578081fd5b81356115818161505c565b6000602082840312156149c7578081fd5b81516115818161505c565b600080604083850312156149e4578081fd5b82356149ef8161505c565b915060208301356149ff8161505c565b809150509250929050565b600080600060608486031215614a1e578081fd5b8335614a298161505c565b92506020840135614a398161505c565b929592945050506040919091013590565b60008060008060808587031215614a5f578081fd5b8435614a6a8161505c565b93506020850135614a7a8161505c565b9250604085013591506060850135614a918161505c565b939692955090935050565b60008060408385031215614aae578182fd5b8235614ab98161505c565b9150602083013567ffffffffffffffff80821115614ad5578283fd5b818501915085601f830112614ae8578283fd5b813581811115614afa57614afa615046565b604051601f8201601f19908116603f01168101908382118183101715614b2257614b22615046565b81604052828152886020848701011115614b3a578586fd5b82602086016020830137856020848301015280955050505050509250929050565b60008060408385031215614b6d578182fd5b8235614b788161505c565b946020939093013593505050565b600060208284031215614b97578081fd5b813561158181615071565b600060208284031215614bb3578081fd5b815161158181615071565b600060208284031215614bcf578081fd5b5051919050565b600060208284031215614be7578081fd5b5035919050565b60008060408385031215614c00578182fd5b50508035926020909101359150565b600080600060608486031215614c23578283fd5b505081359360208301359350604090920135919050565b600080600060608486031215614c4e578081fd5b8351925060208401519150604084015190509250925092565b60008251614c79818460208701614f84565b9190910192915050565b6020815260008251806020840152614ca2816040850160208701614f84565b601f01601f19169190910160400192915050565b6020808252602c908201527f46756e6374696f6e206d7573742062652063616c6c6564207468726f7567682060408201526b19195b1959d85d1958d85b1b60a21b606082015260800190565b6020808252602c908201527f46756e6374696f6e206d7573742062652063616c6c6564207468726f7567682060408201526b6163746976652070726f787960a01b606082015260800190565b6020808252818101527f4f776e61626c653a2063616c6c6572206973206e6f7420746865206f776e6572604082015260600190565b6020808252602b908201527f496e697469616c697a61626c653a20636f6e7472616374206973206e6f74206960408201526a6e697469616c697a696e6760a81b606082015260800190565b600060a082018783526020878185015260a0604085015281875180845260c0860191508289019350845b81811015614e1d5784516001600160a01b031683529383019391830191600101614df8565b50506001600160a01b03969096166060850152505050608001529392505050565b60008219821115614e5157614e5161501a565b500190565b600082614e6557614e65615030565b500490565b600181815b80851115614ea5578160001904821115614e8b57614e8b61501a565b80851615614e9857918102915b93841c9390800290614e6f565b509250929050565b600061158160ff841683600082614ec657506001610f18565b81614ed357506000610f18565b8160018114612d3e5760028114614ee957614f05565b60ff841115614efa57614efa61501a565b50506001821b610f18565b5060208310610133831016604e8410600b8410161715614f28575081810a610f18565b614f328383614e6a565b8060001904821115614f4657614f4661501a565b029392505050565b6000816000190483118215151615614f6857614f6861501a565b500290565b600082821015614f7f57614f7f61501a565b500390565b60005b83811015614f9f578181015183820152602001614f87565b83811115613b675750506000910152565b600181811c90821680614fc457607f821691505b60208210811415614fe557634e487b7160e01b600052602260045260246000fd5b50919050565b6000600019821415614fff57614fff61501a565b5060010190565b60008261501557615015615030565b500690565b634e487b7160e01b600052601160045260246000fd5b634e487b7160e01b600052601260045260246000fd5b634e487b7160e01b600052604160045260246000fd5b6001600160a01b038116811461166e57600080fd5b801515811461166e57600080fdfe5f6d61726b65743146656553756d203c205f6d61726b65744665655377617041745f6d61726b65743246656553756d203c205f6d61726b6574466565537761704174360894a13ba1a3210667c828492db98dca3e2076cc3735a920a3ca505d382bbc416464726573733a206c6f772d6c6576656c2064656c65676174652063616c6c206661696c65645f6c6971756964697479466565203c205f73776170416e644c6971756966794174a2646970667358221220cc5d1adb183dbb5f495d14ad68367b3aac9d66b8d17f62f2929971ebedfea2b964736f6c63430008040033",
  "linkReferences": {},
  "deployedLinkReferences": {}
}