{
  "_format": "hh-sol-artifact-1",
  "contractName": "TEST1111",
  "sourceName": "contracts/dotty copy.sol",
  "abi": [
    {
      "anonymous": false,
      "inputs": [
        {
          "indexed": false,
          "internalType": "address",
          "name": "previousAdmin",
          "type": "address"
        },
        {
          "indexed": false,
          "internalType": "address",
          "name": "newAdmin",
          "type": "address"
        }
      ],
      "name": "AdminChanged",
      "type": "event"
    },
    {
      "anonymous": false,
      "inputs": [
        {
          "indexed": true,
          "internalType": "address",
          "name": "owner",
          "type": "address"
        },
        {
          "indexed": true,
          "internalType": "address",
          "name": "spender",
          "type": "address"
        },
        {
          "indexed": false,
          "internalType": "uint256",
          "name": "value",
          "type": "uint256"
        }
      ],
      "name": "Approval",
      "type": "event"
    },
    {
      "anonymous": false,
      "inputs": [
        {
          "indexed": true,
          "internalType": "address",
          "name": "beacon",
          "type": "address"
        }
      ],
      "name": "BeaconUpgraded",
      "type": "event"
    },
    {
      "anonymous": false,
      "inputs": [
        {
          "indexed": true,
          "internalType": "address",
          "name": "previousOwner",
          "type": "address"
        },
        {
          "indexed": true,
          "internalType": "address",
          "name": "newOwner",
          "type": "address"
        }
      ],
      "name": "OwnershipTransferred",
      "type": "event"
    },
    {
      "anonymous": false,
      "inputs": [
        {
          "indexed": true,
          "internalType": "address",
          "name": "from",
          "type": "address"
        },
        {
          "indexed": true,
          "internalType": "address",
          "name": "to",
          "type": "address"
        },
        {
          "indexed": false,
          "internalType": "uint256",
          "name": "value",
          "type": "uint256"
        }
      ],
      "name": "Transfer",
      "type": "event"
    },
    {
      "anonymous": false,
      "inputs": [
        {
          "indexed": true,
          "internalType": "address",
          "name": "implementation",
          "type": "address"
        }
      ],
      "name": "Upgraded",
      "type": "event"
    },
    {
      "inputs": [],
      "name": "_backFeeRate",
      "outputs": [
        {
          "internalType": "uint256",
          "name": "",
          "type": "uint256"
        }
      ],
      "stateMutability": "view",
      "type": "function"
    },
    {
      "inputs": [],
      "name": "_burnFeeRate",
      "outputs": [
        {
          "internalType": "uint256",
          "name": "",
          "type": "uint256"
        }
      ],
      "stateMutability": "view",
      "type": "function"
    },
    {
      "inputs": [],
      "name": "_burnStopAt",
      "outputs": [
        {
          "internalType": "uint256",
          "name": "",
          "type": "uint256"
        }
      ],
      "stateMutability": "view",
      "type": "function"
    },
    {
      "inputs": [],
      "name": "_excludelpAddress",
      "outputs": [
        {
          "internalType": "address",
          "name": "",
          "type": "address"
        }
      ],
      "stateMutability": "view",
      "type": "function"
    },
    {
      "inputs": [],
      "name": "_feeRate",
      "outputs": [
        {
          "internalType": "uint256",
          "name": "",
          "type": "uint256"
        }
      ],
      "stateMutability": "view",
      "type": "function"
    },
    {
      "inputs": [],
      "name": "_holdDividendAt",
      "outputs": [
        {
          "internalType": "uint256",
          "name": "",
          "type": "uint256"
        }
      ],
      "stateMutability": "view",
      "type": "function"
    },
    {
      "inputs": [],
      "name": "_holdDividendEnd",
      "outputs": [
        {
          "internalType": "uint256",
          "name": "",
          "type": "uint256"
        }
      ],
      "stateMutability": "view",
      "type": "function"
    },
    {
      "inputs": [],
      "name": "_holderFeeRate",
      "outputs": [
        {
          "internalType": "uint256",
          "name": "",
          "type": "uint256"
        }
      ],
      "stateMutability": "view",
      "type": "function"
    },
    {
      "inputs": [],
      "name": "_liquidityFee",
      "outputs": [
        {
          "internalType": "uint256",
          "name": "",
          "type": "uint256"
        }
      ],
      "stateMutability": "view",
      "type": "function"
    },
    {
      "inputs": [],
      "name": "_lp2FeeRate",
      "outputs": [
        {
          "internalType": "uint256",
          "name": "",
          "type": "uint256"
        }
      ],
      "stateMutability": "view",
      "type": "function"
    },
    {
      "inputs": [],
      "name": "_lpDividendFirstAt",
      "outputs": [
        {
          "internalType": "uint256",
          "name": "",
          "type": "uint256"
        }
      ],
      "stateMutability": "view",
      "type": "function"
    },
    {
      "inputs": [],
      "name": "_lpDividendSecondAt",
      "outputs": [
        {
          "internalType": "uint256",
          "name": "",
          "type": "uint256"
        }
      ],
      "stateMutability": "view",
      "type": "function"
    },
    {
      "inputs": [],
      "name": "_lpFeeRate",
      "outputs": [
        {
          "internalType": "uint256",
          "name": "",
          "type": "uint256"
        }
      ],
      "stateMutability": "view",
      "type": "function"
    },
    {
      "inputs": [],
      "name": "_market1FeeSum",
      "outputs": [
        {
          "internalType": "uint256",
          "name": "",
          "type": "uint256"
        }
      ],
      "stateMutability": "view",
      "type": "function"
    },
    {
      "inputs": [],
      "name": "_market2FeeSum",
      "outputs": [
        {
          "internalType": "uint256",
          "name": "",
          "type": "uint256"
        }
      ],
      "stateMutability": "view",
      "type": "function"
    },
    {
      "inputs": [],
      "name": "_marketFeeRate",
      "outputs": [
        {
          "internalType": "uint256",
          "name": "",
          "type": "uint256"
        }
      ],
      "stateMutability": "view",
      "type": "function"
    },
    {
      "inputs": [],
      "name": "_marketFeeSwapAt",
      "outputs": [
        {
          "internalType": "uint256",
          "name": "",
          "type": "uint256"
        }
      ],
      "stateMutability": "view",
      "type": "function"
    },
    {
      "inputs": [],
      "name": "_overflowTakeFee",
      "outputs": [
        {
          "internalType": "uint256",
          "name": "",
          "type": "uint256"
        }
      ],
      "stateMutability": "view",
      "type": "function"
    },
    {
      "inputs": [],
      "name": "_rewardBaseHolder",
      "outputs": [
        {
          "internalType": "uint256",
          "name": "",
          "type": "uint256"
        }
      ],
      "stateMutability": "view",
      "type": "function"
    },
    {
      "inputs": [],
      "name": "_rewardBaseLPFirst",
      "outputs": [
        {
          "internalType": "uint256",
          "name": "",
          "type": "uint256"
        }
      ],
      "stateMutability": "view",
      "type": "function"
    },
    {
      "inputs": [],
      "name": "_rewardBaseLPSecond",
      "outputs": [
        {
          "internalType": "uint256",
          "name": "",
          "type": "uint256"
        }
      ],
      "stateMutability": "view",
      "type": "function"
    },
    {
      "inputs": [],
      "name": "_swapAndLiquifyAt",
      "outputs": [
        {
          "internalType": "uint256",
          "name": "",
          "type": "uint256"
        }
      ],
      "stateMutability": "view",
      "type": "function"
    },
    {
      "inputs": [],
      "name": "_swapAt",
      "outputs": [
        {
          "internalType": "uint256",
          "name": "",
          "type": "uint256"
        }
      ],
      "stateMutability": "view",
      "type": "function"
    },
    {
      "inputs": [],
      "name": "_swapDividendTokens",
      "outputs": [],
      "stateMutability": "nonpayable",
      "type": "function"
    },
    {
      "inputs": [],
      "name": "_swapOrDividend",
      "outputs": [
        {
          "internalType": "uint256",
          "name": "",
          "type": "uint256"
        }
      ],
      "stateMutability": "view",
      "type": "function"
    },
    {
      "inputs": [
        {
          "internalType": "address",
          "name": "",
          "type": "address"
        }
      ],
      "name": "_whitelist",
      "outputs": [
        {
          "internalType": "bool",
          "name": "",
          "type": "bool"
        }
      ],
      "stateMutability": "view",
      "type": "function"
    },
    {
      "inputs": [
        {
          "internalType": "address",
          "name": "owner",
          "type": "address"
        },
        {
          "internalType": "address",
          "name": "spender",
          "type": "address"
        }
      ],
      "name": "allowance",
      "outputs": [
        {
          "internalType": "uint256",
          "name": "",
          "type": "uint256"
        }
      ],
      "stateMutability": "view",
      "type": "function"
    },
    {
      "inputs": [
        {
          "internalType": "address",
          "name": "spender",
          "type": "address"
        },
        {
          "internalType": "uint256",
          "name": "amount",
          "type": "uint256"
        }
      ],
      "name": "approve",
      "outputs": [
        {
          "internalType": "bool",
          "name": "",
          "type": "bool"
        }
      ],
      "stateMutability": "nonpayable",
      "type": "function"
    },
    {
      "inputs": [
        {
          "internalType": "address",
          "name": "account",
          "type": "address"
        }
      ],
      "name": "balanceOf",
      "outputs": [
        {
          "internalType": "uint256",
          "name": "",
          "type": "uint256"
        }
      ],
      "stateMutability": "view",
      "type": "function"
    },
    {
      "inputs": [
        {
          "internalType": "address",
          "name": "account",
          "type": "address"
        }
      ],
      "name": "contains",
      "outputs": [
        {
          "internalType": "bool",
          "name": "",
          "type": "bool"
        }
      ],
      "stateMutability": "view",
      "type": "function"
    },
    {
      "inputs": [],
      "name": "deadWallet",
      "outputs": [
        {
          "internalType": "address",
          "name": "",
          "type": "address"
        }
      ],
      "stateMutability": "view",
      "type": "function"
    },
    {
      "inputs": [],
      "name": "decimals",
      "outputs": [
        {
          "internalType": "uint8",
          "name": "",
          "type": "uint8"
        }
      ],
      "stateMutability": "view",
      "type": "function"
    },
    {
      "inputs": [
        {
          "internalType": "address",
          "name": "spender",
          "type": "address"
        },
        {
          "internalType": "uint256",
          "name": "subtractedValue",
          "type": "uint256"
        }
      ],
      "name": "decreaseAllowance",
      "outputs": [
        {
          "internalType": "bool",
          "name": "",
          "type": "bool"
        }
      ],
      "stateMutability": "nonpayable",
      "type": "function"
    },
    {
      "inputs": [],
      "name": "dividend",
      "outputs": [],
      "stateMutability": "nonpayable",
      "type": "function"
    },
    {
      "inputs": [
        {
          "internalType": "uint256",
          "name": "index",
          "type": "uint256"
        }
      ],
      "name": "getHolderAt",
      "outputs": [
        {
          "internalType": "address",
          "name": "",
          "type": "address"
        }
      ],
      "stateMutability": "view",
      "type": "function"
    },
    {
      "inputs": [],
      "name": "getHolderLength",
      "outputs": [
        {
          "internalType": "uint256",
          "name": "",
          "type": "uint256"
        }
      ],
      "stateMutability": "view",
      "type": "function"
    },
    {
      "inputs": [
        {
          "internalType": "address",
          "name": "account",
          "type": "address"
        }
      ],
      "name": "getRewardBalance",
      "outputs": [
        {
          "internalType": "uint256",
          "name": "",
          "type": "uint256"
        },
        {
          "internalType": "uint256",
          "name": "",
          "type": "uint256"
        },
        {
          "internalType": "uint256",
          "name": "",
          "type": "uint256"
        }
      ],
      "stateMutability": "view",
      "type": "function"
    },
    {
      "inputs": [
        {
          "internalType": "address",
          "name": "account",
          "type": "address"
        }
      ],
      "name": "getRewardValues",
      "outputs": [
        {
          "internalType": "uint256",
          "name": "",
          "type": "uint256"
        },
        {
          "internalType": "uint256",
          "name": "",
          "type": "uint256"
        },
        {
          "internalType": "uint256",
          "name": "",
          "type": "uint256"
        },
        {
          "internalType": "uint256",
          "name": "",
          "type": "uint256"
        },
        {
          "internalType": "uint256",
          "name": "",
          "type": "uint256"
        }
      ],
      "stateMutability": "view",
      "type": "function"
    },
    {
      "inputs": [],
      "name": "getTradingIsEnabled",
      "outputs": [
        {
          "internalType": "bool",
          "name": "",
          "type": "bool"
        }
      ],
      "stateMutability": "view",
      "type": "function"
    },
    {
      "inputs": [
        {
          "internalType": "address",
          "name": "spender",
          "type": "address"
        },
        {
          "internalType": "uint256",
          "name": "addedValue",
          "type": "uint256"
        }
      ],
      "name": "increaseAllowance",
      "outputs": [
        {
          "internalType": "bool",
          "name": "",
          "type": "bool"
        }
      ],
      "stateMutability": "nonpayable",
      "type": "function"
    },
    {
      "inputs": [],
      "name": "initialize",
      "outputs": [],
      "stateMutability": "nonpayable",
      "type": "function"
    },
    {
      "inputs": [],
      "name": "lastProcessedIndex",
      "outputs": [
        {
          "internalType": "uint256",
          "name": "",
          "type": "uint256"
        }
      ],
      "stateMutability": "view",
      "type": "function"
    },
    {
      "inputs": [],
      "name": "name",
      "outputs": [
        {
          "internalType": "string",
          "name": "",
          "type": "string"
        }
      ],
      "stateMutability": "view",
      "type": "function"
    },
    {
      "inputs": [],
      "name": "owner",
      "outputs": [
        {
          "internalType": "address",
          "name": "",
          "type": "address"
        }
      ],
      "stateMutability": "view",
      "type": "function"
    },
    {
      "inputs": [],
      "name": "proxiableUUID",
      "outputs": [
        {
          "internalType": "bytes32",
          "name": "",
          "type": "bytes32"
        }
      ],
      "stateMutability": "view",
      "type": "function"
    },
    {
      "inputs": [
        {
          "internalType": "address",
          "name": "account",
          "type": "address"
        }
      ],
      "name": "removeHolder",
      "outputs": [],
      "stateMutability": "nonpayable",
      "type": "function"
    },
    {
      "inputs": [],
      "name": "removeLiquidityTakeFee",
      "outputs": [
        {
          "internalType": "bool",
          "name": "",
          "type": "bool"
        }
      ],
      "stateMutability": "view",
      "type": "function"
    },
    {
      "inputs": [],
      "name": "renounceOwnership",
      "outputs": [],
      "stateMutability": "nonpayable",
      "type": "function"
    },
    {
      "inputs": [
        {
          "internalType": "uint256",
          "name": "burnStopAt",
          "type": "uint256"
        }
      ],
      "name": "setBurnStopAt",
      "outputs": [],
      "stateMutability": "nonpayable",
      "type": "function"
    },
    {
      "inputs": [
        {
          "internalType": "address",
          "name": "account",
          "type": "address"
        }
      ],
      "name": "setExcludelpAddress",
      "outputs": [],
      "stateMutability": "nonpayable",
      "type": "function"
    },
    {
      "inputs": [
        {
          "internalType": "uint256",
          "name": "holdDividendAt",
          "type": "uint256"
        },
        {
          "internalType": "uint256",
          "name": "holdDividendEnd",
          "type": "uint256"
        }
      ],
      "name": "setHoldDividend",
      "outputs": [],
      "stateMutability": "nonpayable",
      "type": "function"
    },
    {
      "inputs": [
        {
          "internalType": "uint256",
          "name": "lpDividendFirstAt",
          "type": "uint256"
        },
        {
          "internalType": "uint256",
          "name": "lpDividendSecondAt",
          "type": "uint256"
        }
      ],
      "name": "setLPDividendAt",
      "outputs": [],
      "stateMutability": "nonpayable",
      "type": "function"
    },
    {
      "inputs": [
        {
          "internalType": "uint256",
          "name": "marketFeeSwapAt",
          "type": "uint256"
        }
      ],
      "name": "setMarketFeeSwapAt",
      "outputs": [],
      "stateMutability": "nonpayable",
      "type": "function"
    },
    {
      "inputs": [
        {
          "internalType": "address",
          "name": "marketingWalletAddress",
          "type": "address"
        },
        {
          "internalType": "address",
          "name": "marketing1WalletAddress",
          "type": "address"
        }
      ],
      "name": "setMarketingWalletAddress",
      "outputs": [],
      "stateMutability": "nonpayable",
      "type": "function"
    },
    {
      "inputs": [
        {
          "internalType": "uint256",
          "name": "overflowTakeFee",
          "type": "uint256"
        }
      ],
      "name": "setOverflowTakeFee",
      "outputs": [],
      "stateMutability": "nonpayable",
      "type": "function"
    },
    {
      "inputs": [
        {
          "internalType": "bool",
          "name": "_enabled",
          "type": "bool"
        }
      ],
      "name": "setRemoveLiquidityTakeFee",
      "outputs": [],
      "stateMutability": "nonpayable",
      "type": "function"
    },
    {
      "inputs": [
        {
          "internalType": "uint256",
          "name": "rewardBaseLPFirst",
          "type": "uint256"
        },
        {
          "internalType": "uint256",
          "name": "rewardBaseLPSecond",
          "type": "uint256"
        },
        {
          "internalType": "uint256",
          "name": "rewardBaseHolder",
          "type": "uint256"
        }
      ],
      "name": "setRewardBase",
      "outputs": [],
      "stateMutability": "nonpayable",
      "type": "function"
    },
    {
      "inputs": [
        {
          "internalType": "address",
          "name": "dot",
          "type": "address"
        }
      ],
      "name": "setRewardToken1",
      "outputs": [],
      "stateMutability": "nonpayable",
      "type": "function"
    },
    {
      "inputs": [
        {
          "internalType": "address",
          "name": "shib",
          "type": "address"
        }
      ],
      "name": "setRewardToken2",
      "outputs": [],
      "stateMutability": "nonpayable",
      "type": "function"
    },
    {
      "inputs": [
        {
          "internalType": "uint256",
          "name": "swapAndLiquifyAt",
          "type": "uint256"
        }
      ],
      "name": "setSwapAndLiquifyAt",
      "outputs": [],
      "stateMutability": "nonpayable",
      "type": "function"
    },
    {
      "inputs": [
        {
          "internalType": "uint256",
          "name": "swapAt",
          "type": "uint256"
        }
      ],
      "name": "setSwapAt",
      "outputs": [],
      "stateMutability": "nonpayable",
      "type": "function"
    },
    {
      "inputs": [
        {
          "internalType": "uint256",
          "name": "index",
          "type": "uint256"
        }
      ],
      "name": "setSwapOrDividend",
      "outputs": [],
      "stateMutability": "nonpayable",
      "type": "function"
    },
    {
      "inputs": [
        {
          "internalType": "address",
          "name": "account",
          "type": "address"
        }
      ],
      "name": "setTakeFeeWallet",
      "outputs": [],
      "stateMutability": "nonpayable",
      "type": "function"
    },
    {
      "inputs": [],
      "name": "swapAndDividend",
      "outputs": [],
      "stateMutability": "nonpayable",
      "type": "function"
    },
    {
      "inputs": [],
      "name": "swapAndLiquify",
      "outputs": [],
      "stateMutability": "nonpayable",
      "type": "function"
    },
    {
      "inputs": [],
      "name": "swapEnabled",
      "outputs": [
        {
          "internalType": "bool",
          "name": "",
          "type": "bool"
        }
      ],
      "stateMutability": "view",
      "type": "function"
    },
    {
      "inputs": [],
      "name": "swapMarketFee",
      "outputs": [],
      "stateMutability": "nonpayable",
      "type": "function"
    },
    {
      "inputs": [
        {
          "internalType": "address",
          "name": "from",
          "type": "address"
        },
        {
          "internalType": "address",
          "name": "to",
          "type": "address"
        },
        {
          "internalType": "uint256",
          "name": "tokenAmount",
          "type": "uint256"
        }
      ],
      "name": "swapTokensFor2Tokens",
      "outputs": [],
      "stateMutability": "nonpayable",
      "type": "function"
    },
    {
      "inputs": [
        {
          "internalType": "address",
          "name": "from",
          "type": "address"
        },
        {
          "internalType": "address",
          "name": "to",
          "type": "address"
        },
        {
          "internalType": "uint256",
          "name": "tokenAmount",
          "type": "uint256"
        },
        {
          "internalType": "address",
          "name": "outToken",
          "type": "address"
        }
      ],
      "name": "swapTokensFor3Tokens",
      "outputs": [],
      "stateMutability": "nonpayable",
      "type": "function"
    },
    {
      "inputs": [
        {
          "internalType": "uint256",
          "name": "tokenAmount",
          "type": "uint256"
        }
      ],
      "name": "swapTokensForEth",
      "outputs": [],
      "stateMutability": "nonpayable",
      "type": "function"
    },
    {
      "inputs": [],
      "name": "symbol",
      "outputs": [
        {
          "internalType": "string",
          "name": "",
          "type": "string"
        }
      ],
      "stateMutability": "view",
      "type": "function"
    },
    {
      "inputs": [],
      "name": "takeBNB",
      "outputs": [],
      "stateMutability": "nonpayable",
      "type": "function"
    },
    {
      "inputs": [],
      "name": "takeFee",
      "outputs": [],
      "stateMutability": "nonpayable",
      "type": "function"
    },
    {
      "inputs": [],
      "name": "takeReward1",
      "outputs": [],
      "stateMutability": "nonpayable",
      "type": "function"
    },
    {
      "inputs": [],
      "name": "takeReward2",
      "outputs": [],
      "stateMutability": "nonpayable",
      "type": "function"
    },
    {
      "inputs": [],
      "name": "totalSupply",
      "outputs": [
        {
          "internalType": "uint256",
          "name": "",
          "type": "uint256"
        }
      ],
      "stateMutability": "view",
      "type": "function"
    },
    {
      "inputs": [],
      "name": "tradingEnabledTimestamp",
      "outputs": [
        {
          "internalType": "uint256",
          "name": "",
          "type": "uint256"
        }
      ],
      "stateMutability": "view",
      "type": "function"
    },
    {
      "inputs": [
        {
          "internalType": "address",
          "name": "to",
          "type": "address"
        },
        {
          "internalType": "uint256",
          "name": "amount",
          "type": "uint256"
        }
      ],
      "name": "transfer",
      "outputs": [
        {
          "internalType": "bool",
          "name": "",
          "type": "bool"
        }
      ],
      "stateMutability": "nonpayable",
      "type": "function"
    },
    {
      "inputs": [
        {
          "internalType": "address",
          "name": "from",
          "type": "address"
        },
        {
          "internalType": "address",
          "name": "to",
          "type": "address"
        },
        {
          "internalType": "uint256",
          "name": "amount",
          "type": "uint256"
        }
      ],
      "name": "transferFrom",
      "outputs": [
        {
          "internalType": "bool",
          "name": "",
          "type": "bool"
        }
      ],
      "stateMutability": "nonpayable",
      "type": "function"
    },
    {
      "inputs": [
        {
          "internalType": "address",
          "name": "newOwner",
          "type": "address"
        }
      ],
      "name": "transferOwnership",
      "outputs": [],
      "stateMutability": "nonpayable",
      "type": "function"
    },
    {
      "inputs": [],
      "name": "uniswapV2Pair",
      "outputs": [
        {
          "internalType": "address",
          "name": "",
          "type": "address"
        }
      ],
      "stateMutability": "view",
      "type": "function"
    },
    {
      "inputs": [],
      "name": "uniswapV2Router",
      "outputs": [
        {
          "internalType": "contract IUniswapV2Router02",
          "name": "",
          "type": "address"
        }
      ],
      "stateMutability": "view",
      "type": "function"
    },
    {
      "inputs": [
        {
          "internalType": "uint256",
          "name": "newValue",
          "type": "uint256"
        }
      ],
      "name": "updateGasForProcessing",
      "outputs": [],
      "stateMutability": "nonpayable",
      "type": "function"
    },
    {
      "inputs": [
        {
          "internalType": "address",
          "name": "newImplementation",
          "type": "address"
        }
      ],
      "name": "upgradeTo",
      "outputs": [],
      "stateMutability": "nonpayable",
      "type": "function"
    },
    {
      "inputs": [
        {
          "internalType": "address",
          "name": "newImplementation",
          "type": "address"
        },
        {
          "internalType": "bytes",
          "name": "data",
          "type": "bytes"
        }
      ],
      "name": "upgradeToAndCall",
      "outputs": [],
      "stateMutability": "payable",
      "type": "function"
    },
    {
      "stateMutability": "payable",
      "type": "receive"
    }
  ],
  "bytecode": "0x60a06040523060601b60805234801561001757600080fd5b5060805160601c61519661005260003960008181611595015281816115de01528181611ba501528181611be50152611cb801526151966000f3fe6080604052600436106104ae5760003560e01c80636eea6fa61161026b578063b29ad50a1161014f578063dad37195116100c1578063e253f87b11610085578063e253f87b14610dcc578063eb7b70f114610dec578063f2fde38b14610e03578063f4af51cc14610e23578063f60a515a14610e3a578063fcfd826914610e5b576104b5565b8063dad3719514610d21578063dba5464614610d38578063dd62ed3e14610d58578063dede5f4514610d9e578063e0fb2c0514610db5576104b5565b8063c1b3dd1f11610113578063c1b3dd1f14610c49578063c3274c7714610c69578063c604fe9b14610c89578063ce7157c614610ca0578063cfdb63ac14610cb5578063d5a849e914610ce6576104b5565b8063b29ad50a14610bd0578063b471480214610be5578063b682fe9414610bfc578063baa856bc14610c1c578063bdde32d614610c32576104b5565b80638f501a25116101e85780639f43a510116101ac5780639f43a51014610b24578063a457c2d714610b39578063a9059cbb14610b59578063a9137cf514610b79578063b2131f7d14610b99578063b28805f414610bb0576104b5565b80638f501a2514610aa15780639480762814610ac157806394ce607c14610ad85780639547754a14610af857806395d89b4114610b0f576104b5565b806385141a771161022f57806385141a7714610a02578063871c128d14610a235780638d2b26f014610a435780638da5cb5b14610a635780638dd4280814610a81576104b5565b80636eea6fa61461098357806370a08231146109a3578063715018a6146109c35780637451fdcc146109d85780638129fc1c146109ed576104b5565b8063493c07931161039257806352d1902d1161030f5780635e4ebbe2116102d35780635e4ebbe2146108be5780635f4fe879146108d3578063657425681461091b578063684b5f02146109325780636bc87c3a146109525780636ddd171314610969576104b5565b806352d1902d146108335780635525abe2146108485780635c04ac94146108675780635c709fa4146108875780635dbe47e81461089e576104b5565b80634d33b1ef116103565780634d33b1ef146107bd5780634f07e35c146107d65780634f1ef286146107eb5780634f21869c146107fe5780634f3e01bc14610813576104b5565b8063493c07931461073057806349bd5a5e146107505780634a559a60146107715780634c0a38b5146107915780634c622f5d146107a8576104b5565b806325e8fa211161042b578063392d2681116103ef578063392d26811461068257806339509351146106a25780633df6be61146106c25780633e67d66b146106d957806340704b36146106f0578063463b44fc14610710576104b5565b806325e8fa21146106015780633009a60914610618578063313ce5671461062f57806333b3cd821461064b5780633659cfe614610662576104b5565b806318160ddd1161047257806318160ddd1461058a578063181aa1fd1461059f57806323b872dd146105b457806325a4b7b5146105d457806325b61703146105ea576104b5565b806306fdde03146104ba5780630835a625146104e5578063095ea7b31461050a5780630ff8cf9b1461053a5780631694505e14610551576104b5565b366104b557005b600080fd5b3480156104c657600080fd5b506104cf610e72565b6040516104dc9190614c91565b60405180910390f35b3480156104f157600080fd5b506104fc6101065481565b6040519081526020016104dc565b34801561051657600080fd5b5061052a610525366004614b69565b610f04565b60405190151581526020016104dc565b34801561054657600080fd5b5061054f610f1e565b005b34801561055d57600080fd5b5061011d54610572906001600160a01b031681565b6040516001600160a01b0390911681526020016104dc565b34801561059657600080fd5b506035546104fc565b3480156105ab57600080fd5b5061054f61145c565b3480156105c057600080fd5b5061052a6105cf366004614a18565b61147d565b3480156105e057600080fd5b506104fc60fe5481565b3480156105f657600080fd5b506104fc6101215481565b34801561060d57600080fd5b506104fc6101105481565b34801561062457600080fd5b506104fc6101155481565b34801561063b57600080fd5b50604051601281526020016104dc565b34801561065757600080fd5b506104fc61010d5481565b34801561066e57600080fd5b5061054f61067d3660046149a8565b61158a565b34801561068e57600080fd5b5061054f61069d3660046149a8565b611673565b3480156106ae57600080fd5b5061052a6106bd366004614b69565b6116c0565b3480156106ce57600080fd5b506104fc6101015481565b3480156106e557600080fd5b506104fc6101055481565b3480156106fc57600080fd5b5061054f61070b3660046149a8565b6116ff565b34801561071c57600080fd5b5061054f61072b3660046149a8565b61174c565b34801561073c57600080fd5b5061054f61074b3660046149a8565b6118a2565b34801561075c57600080fd5b5061011654610572906001600160a01b031681565b34801561077d57600080fd5b5061054f61078c3660046149e0565b6119f8565b34801561079d57600080fd5b506104fc61010e5481565b3480156107b457600080fd5b5061054f611a52565b3480156107c957600080fd5b506101215442101561052a565b3480156107e257600080fd5b5061054f611b5b565b61054f6107f9366004614aaa565b611b9a565b34801561080a57600080fd5b506104fc611c6b565b34801561081f57600080fd5b5061054f61082e366004614be4565b611c7c565b34801561083f57600080fd5b506104fc611cab565b34801561085457600080fd5b5060fd5461052a90610100900460ff1681565b34801561087357600080fd5b5061054f610882366004614be4565b611d5e565b34801561089357600080fd5b506104fc6101115481565b3480156108aa57600080fd5b5061052a6108b93660046149a8565b611d8e565b3480156108ca57600080fd5b5061054f611d9b565b3480156108df57600080fd5b506108f36108ee3660046149a8565b611eac565b604080519586526020860194909452928401919091526060830152608082015260a0016104dc565b34801561092757600080fd5b506104fc6101095481565b34801561093e57600080fd5b5061054f61094d366004614bfc565b6121d4565b34801561095e57600080fd5b506104fc6101075481565b34801561097557600080fd5b5060fd5461052a9060ff1681565b34801561098f57600080fd5b5061054f61099e366004614c1d565b61220b565b3480156109af57600080fd5b506104fc6109be3660046149a8565b612246565b3480156109cf57600080fd5b5061054f612261565b3480156109e457600080fd5b5061054f612295565b3480156109f957600080fd5b5061054f6123e6565b348015610a0e57600080fd5b5061011c54610572906001600160a01b031681565b348015610a2f57600080fd5b5061054f610a3e366004614be4565b612a61565b348015610a4f57600080fd5b5061054f610a5e366004614be4565b612afa565b348015610a6f57600080fd5b5060c9546001600160a01b0316610572565b348015610a8d57600080fd5b5061054f610a9c3660046149a8565b612b2a565b348015610aad57600080fd5b5061054f610abc366004614b94565b612b5f565b348015610acd57600080fd5b506104fc6101035481565b348015610ae457600080fd5b5061054f610af3366004614be4565b612ba3565b348015610b0457600080fd5b506104fc6101085481565b348015610b1b57600080fd5b506104cf612bd3565b348015610b3057600080fd5b5061054f612be2565b348015610b4557600080fd5b5061052a610b54366004614b69565b612c83565b348015610b6557600080fd5b5061052a610b74366004614b69565b612d20565b348015610b8557600080fd5b5061054f610b94366004614bfc565b612f5b565b348015610ba557600080fd5b506104fc61010b5481565b348015610bbc57600080fd5b5061054f610bcb366004614be4565b612f92565b348015610bdc57600080fd5b5061054f61311a565b348015610bf157600080fd5b506104fc6101025481565b348015610c0857600080fd5b5061054f610c17366004614be4565b613263565b348015610c2857600080fd5b506104fc60ff5481565b348015610c3e57600080fd5b506104fc6101045481565b348015610c5557600080fd5b5061054f610c64366004614be4565b613292565b348015610c7557600080fd5b5061054f610c84366004614a58565b6132c2565b348015610c9557600080fd5b506104fc61010a5481565b348015610cac57600080fd5b5061054f613491565b348015610cc157600080fd5b5061052a610cd03660046149a8565b61011e6020526000908152604090205460ff1681565b348015610cf257600080fd5b50610d06610d013660046149a8565b6134cb565b604080519384526020840192909252908201526060016104dc565b348015610d2d57600080fd5b506104fc6101135481565b348015610d4457600080fd5b5061054f610d53366004614a18565b6135e0565b348015610d6457600080fd5b506104fc610d733660046149e0565b6001600160a01b03918216600090815260346020908152604080832093909416825291909152205490565b348015610daa57600080fd5b506104fc61010c5481565b348015610dc157600080fd5b506104fc6101125481565b348015610dd857600080fd5b50610572610de7366004614be4565b61376a565b348015610df857600080fd5b506104fc6101005481565b348015610e0f57600080fd5b5061054f610e1e3660046149a8565b613777565b348015610e2f57600080fd5b506104fc61010f5481565b348015610e4657600080fd5b5061011954610572906001600160a01b031681565b348015610e6757600080fd5b506104fc6101145481565b606060368054610e8190614fe7565b80601f0160208091040260200160405190810160405280929190818152602001828054610ead90614fe7565b8015610efa5780601f10610ecf57610100808354040283529160200191610efa565b820191906000526020600020905b815481529060010190602001808311610edd57829003601f168201915b5050505050905090565b600033610f1281858561380f565b60019150505b92915050565b60fe8054906000610f2e83615022565b909155505061011b546000610f4360fb613933565b905080610f5157505061145a565b610115546000805a61011654610119546040516370a0823160e01b81526001600160a01b039182166004820152929350600092839291909116906370a082319060240160206040518083038186803b158015610fac57600080fd5b505afa158015610fc0573d6000803e3d6000fd5b505050506040513d601f19601f82011682018060405250810190610fe49190614bcc565b905060006110b0826040518060400160405280601881526020017f746f74616c537570706c793c6578636c756465546f74616c000000000000000081525061011660009054906101000a90046001600160a01b03166001600160a01b03166318160ddd6040518163ffffffff1660e01b815260040160206040518083038186803b15801561107157600080fd5b505afa158015611085573d6000803e3d6000fd5b505050506040513d601f19601f820116820180604052508101906110a99190614bcc565b919061393d565b90505b87851080156110c157508683105b1561144b57826110d081615022565b9350506110dd60fb613933565b86106110e857600095505b60006110f560fb88613969565b610119549091506001600160a01b0380831691161480611122575060c9546001600160a01b038281169116145b1561112d57506110b3565b60008060008061010e5461114086612246565b10158015611159575061010f5461115686612246565b11155b156111815761117e8661117861116e88612246565b6101145490613975565b90613981565b92505b61118a85611eac565b610120546040516370a0823160e01b815230600482015295995092975090955093506001600160a01b0316916370a08231915060240160206040518083038186803b1580156111d857600080fd5b505afa1580156111ec573d6000803e3d6000fd5b505050506040513d601f19601f820116820180604052508101906112109190614bcc565b83118061121c57504781115b806112a1575061011f546040516370a0823160e01b81523060048201526001600160a01b03909116906370a082319060240160206040518083038186803b15801561126657600080fd5b505afa15801561127a573d6000803e3d6000fd5b505050506040513d601f19601f8201168201806040525081019061129e9190614bcc565b82115b156112b057505050505061144b565b80156112ee576040516001600160a01b0386169082156108fc029083906000818181858888f193505050501580156112ec573d6000803e3d6000fd5b505b811561137d5761011f5460405163a9059cbb60e01b81526001600160a01b038781166004830152602482018590529091169063a9059cbb90604401602060405180830381600087803b15801561134357600080fd5b505af1158015611357573d6000803e3d6000fd5b505050506040513d601f19601f8201168201806040525081019061137b9190614bb0565b505b821561140c576101205460405163a9059cbb60e01b81526001600160a01b038781166004830152602482018690529091169063a9059cbb90604401602060405180830381600087803b1580156113d257600080fd5b505af11580156113e6573d6000803e3d6000fd5b505050506040513d601f19601f8201168201806040525081019061140a9190614bb0565b505b60005a9050808a11156114305761142d6114268b8361398d565b8c90613999565b9a505b9850888b61143d81615022565b9c50505050505050506110b3565b50505061011592909255505050505b565b61011a5461145a9030906001600160a01b031661147882612246565b6139a5565b60003361148b858285613b75565b61011c54600160a01b900460ff16156114b3576114a98585856139a5565b6001915050611583565b61011d546001600160a01b0316336001600160a01b03161480156114e55750610116546001600160a01b038581169116145b80156114f15750333014155b1561150957611501858585613c01565b6114a9612be2565b600061151430612246565b905061010a548111156115715761011a5461010a5460408051808201909152601481527362616c3c5f6f766572666c6f7754616b6546656560601b60208201526115719230926001600160a01b039091169161147891869161393d565b61157c8686866139a5565b6001925050505b9392505050565b306001600160a01b037f00000000000000000000000000000000000000000000000000000000000000001614156115dc5760405162461bcd60e51b81526004016115d390614cc4565b60405180910390fd5b7f00000000000000000000000000000000000000000000000000000000000000006001600160a01b03166116256000805160206150f9833981519152546001600160a01b031690565b6001600160a01b03161461164b5760405162461bcd60e51b81526004016115d390614d10565b61165481613efd565b6040805160008082526020820190925261167091839190613f27565b50565b60c9546001600160a01b0316331461169d5760405162461bcd60e51b81526004016115d390614d5c565b61011a80546001600160a01b0319166001600160a01b0392909216919091179055565b3360008181526034602090815260408083206001600160a01b0387168452909152812054909190610f1290829086906116fa908790614e4c565b61380f565b60c9546001600160a01b031633146117295760405162461bcd60e51b81526004016115d390614d5c565b61011980546001600160a01b0319166001600160a01b0392909216919091179055565b60c9546001600160a01b031633146117765760405162461bcd60e51b81526004016115d390614d5c565b61011f5461011a546040516370a0823160e01b81523060048201526001600160a01b039283169263a9059cbb92169083906370a082319060240160206040518083038186803b1580156117c857600080fd5b505afa1580156117dc573d6000803e3d6000fd5b505050506040513d601f19601f820116820180604052508101906118009190614bcc565b6040516001600160e01b031960e085901b1681526001600160a01b0390921660048301526024820152604401602060405180830381600087803b15801561184657600080fd5b505af115801561185a573d6000803e3d6000fd5b505050506040513d601f19601f8201168201806040525081019061187e9190614bb0565b5061011f80546001600160a01b0319166001600160a01b0392909216919091179055565b60c9546001600160a01b031633146118cc5760405162461bcd60e51b81526004016115d390614d5c565b6101205461011a546040516370a0823160e01b81523060048201526001600160a01b039283169263a9059cbb92169083906370a082319060240160206040518083038186803b15801561191e57600080fd5b505afa158015611932573d6000803e3d6000fd5b505050506040513d601f19601f820116820180604052508101906119569190614bcc565b6040516001600160e01b031960e085901b1681526001600160a01b0390921660048301526024820152604401602060405180830381600087803b15801561199c57600080fd5b505af11580156119b0573d6000803e3d6000fd5b505050506040513d601f19601f820116820180604052508101906119d49190614bb0565b5061012080546001600160a01b0319166001600160a01b0392909216919091179055565b60c9546001600160a01b03163314611a225760405162461bcd60e51b81526004016115d390614d5c565b61011780546001600160a01b039384166001600160a01b0319918216179091556101188054929093169116179055565b6101205461011a546040516370a0823160e01b81523060048201526001600160a01b039283169263a9059cbb92169083906370a08231906024015b60206040518083038186803b158015611aa557600080fd5b505afa158015611ab9573d6000803e3d6000fd5b505050506040513d601f19601f82011682018060405250810190611add9190614bcc565b6040516001600160e01b031960e085901b1681526001600160a01b0390921660048301526024820152604401602060405180830381600087803b158015611b2357600080fd5b505af1158015611b37573d6000803e3d6000fd5b505050506040513d601f19601f820116820180604052508101906116709190614bb0565b61011f5461011a546040516370a0823160e01b81523060048201526001600160a01b039283169263a9059cbb92169083906370a0823190602401611a8d565b306001600160a01b037f0000000000000000000000000000000000000000000000000000000000000000161415611be35760405162461bcd60e51b81526004016115d390614cc4565b7f00000000000000000000000000000000000000000000000000000000000000006001600160a01b0316611c2c6000805160206150f9833981519152546001600160a01b031690565b6001600160a01b031614611c525760405162461bcd60e51b81526004016115d390614d10565b611c5b82613efd565b611c6782826001613f27565b5050565b6000611c7760fb613933565b905090565b60c9546001600160a01b03163314611ca65760405162461bcd60e51b81526004016115d390614d5c565b60ff55565b6000306001600160a01b037f00000000000000000000000000000000000000000000000000000000000000001614611d4b5760405162461bcd60e51b815260206004820152603860248201527f555550535570677261646561626c653a206d757374206e6f742062652063616c60448201527f6c6564207468726f7567682064656c656761746563616c6c000000000000000060648201526084016115d3565b506000805160206150f983398151915290565b60c9546001600160a01b03163314611d885760405162461bcd60e51b81526004016115d390614d5c565b61010055565b6000610f1860fb836140a6565b610111546101095410158015611dbb575061011154611db930612246565b115b8015611dde57506101115461011654611ddc906001600160a01b0316612246565b115b1561145a5761011154600090611df5906002613981565b6101175461011f54919250611e1a9130916001600160a01b03908116918591166132c2565b611e42816040518060600160405280602181526020016150b76021913961010854919061393d565b610108556101185461011f54611e689130916001600160a01b03918216918591166132c2565b611e90816040518060600160405280602181526020016150d86021913961010954919061393d565b6101095560fe8054906000611ea483615022565b919050555050565b6000806000806000806000806000611ec38a612246565b9050611ed181612710613975565b9050611ee6611edf60355490565b8290613981565b905061010e54611ef58b612246565b10158015611f0e575061010f54611f0b8b612246565b11155b15611f3e576000611f1e8b612246565b9050611f3a611f2c60355490565b610114546111789084613975565b9450505b61011654604080516318160ddd60e01b815290516000926001600160a01b0316916318160ddd916004808301926020929190829003018186803b158015611f8457600080fd5b505afa158015611f98573d6000803e3d6000fd5b505050506040513d601f19601f82011682018060405250810190611fbc9190614bcc565b905080611fdb57506000985096509194508693508392506121cb915050565b61011654610119546040516370a0823160e01b81526001600160a01b03918216600482015260009291909116906370a082319060240160206040518083038186803b15801561202957600080fd5b505afa15801561203d573d6000803e3d6000fd5b505050506040513d601f19601f820116820180604052508101906120619190614bcc565b905060006120af826040518060400160405280601c81526020017f6c70546f74616c537570706c79203c206578636c756465546f74616c000000008152508561393d9092919063ffffffff16565b9050600061011660009054906101000a90046001600160a01b03166001600160a01b03166370a082318f6040518263ffffffff1660e01b815260040161210491906001600160a01b0391909116815260200190565b60206040518083038186803b15801561211c57600080fd5b505afa158015612130573d6000803e3d6000fd5b505050506040513d601f19601f820116820180604052508101906121549190614bcc565b905060006121688361117884612710613975565b905061010c5482106121915761218e83611178846101125461397590919063ffffffff16565b97505b61010d5482106121b8576121b583611178846101135461397590919063ffffffff16565b96505b9c50939a50959850939650919450505050505b91939590929450565b60c9546001600160a01b031633146121fe5760405162461bcd60e51b81526004016115d390614d5c565b61010c9190915561010d55565b60c9546001600160a01b031633146122355760405162461bcd60e51b81526004016115d390614d5c565b610112929092556101135561011455565b6001600160a01b031660009081526033602052604090205490565b60c9546001600160a01b0316331461228b5760405162461bcd60e51b81526004016115d390614d5c565b61145a60006140c8565b60fd5460ff166122a45761145a565b610100546122b130612246565b101580156122d7575061010054610116546122d4906001600160a01b0316612246565b10155b1561145a576101015461010b5460ff546035541161232757610103546122fd9083614e4c565b9150610103548161230e9190614e4c565b905061010354610106546123229190614e4c565b610106555b600061234382611178856101005461397590919063ffffffff16565b61011f54909150612362903090819084906001600160a01b03166132c2565b600061238183611178610102546101005461397590919063ffffffff16565b905061238c81612f92565b60006123ab84611178610104546101005461397590919063ffffffff16565b610120549091506123ca903090819084906001600160a01b03166132c2565b60fe80549060006123da83615022565b91905055505050505050565b600054610100900460ff166124015760005460ff1615612405565b303b155b6124685760405162461bcd60e51b815260206004820152602e60248201527f496e697469616c697a61626c653a20636f6e747261637420697320616c72656160448201526d191e481a5b9a5d1a585b1a5e995960921b60648201526084016115d3565b600054610100900460ff1615801561248a576000805461ffff19166101011790555b6124d460405180604001604052806009815260200168151154d508151154d560ba1b815250604051806040016040528060078152602001665445535430313160c81b81525061411a565b6124dc61414b565b6124e461417a565b612505336124f46012600a614ebe565b612500906156ce614f85565b6141a1565b612520306125156012600a614ebe565b61250090600a614f85565b60fd805460ff191660011790556101906101015560646101028190556032610103819055610104829055610105556101065561255a601290565b61256590600a614ebe565b612571906108ae614f85565b60ff5561753061011b55610105546101045461010254610101546125959190614e4c565b61259f9190614e4c565b6125a99190614e4c565b61010b5561011d80546001600160a01b03191673d99d1c33f9fc3444f8101754abc46c52416550d19081179091556040805163c45a015560e01b8152905163c45a015591600480820192602092909190829003018186803b15801561260d57600080fd5b505afa158015612621573d6000803e3d6000fd5b505050506040513d601f19601f8201168201806040525081019061264591906149c4565b6001600160a01b031663c9c653963061011d60009054906101000a90046001600160a01b03166001600160a01b031663ad5c46486040518163ffffffff1660e01b815260040160206040518083038186803b1580156126a357600080fd5b505afa1580156126b7573d6000803e3d6000fd5b505050506040513d601f19601f820116820180604052508101906126db91906149c4565b6040516001600160e01b031960e085901b1681526001600160a01b03928316600482015291166024820152604401602060405180830381600087803b15801561272357600080fd5b505af1158015612737573d6000803e3d6000fd5b505050506040513d601f19601f8201168201806040525081019061275b91906149c4565b61011680546001600160a01b03929092166001600160a01b031992831617905561011f80548216737ef95a0fee0dd31b22626fa2e10ee6a223f8a68417905561012080549091167378867bbeef44f2326bf8ddd1941a4439382ef2a71790556127cc60c9546001600160a01b031690565b61011980546001600160a01b03929092166001600160a01b031992831617905561011a8054821673e0023825bf2d550ddedccd58f35abe1b2de0e51f1790556101178054821673f900dde80a83bab2e388ea8a789b01982ae605d71790556101188054909116730b9aad6217b2425e63ad023d6b39da29df9c7ec3179055612852601290565b61285d90600a614ebe565b61286890600a614f85565b61010055671bc16d674ec8000061011255655af3107a40006101135569021e19e0c9bab240000061011455670f43fc2c04ee000061010c55674563918244f4000061010d556128b96012600a614ebe565b6128c4906001614f85565b61010e556128d46012600a614ebe565b6128df9060c8614f85565b61010f556128ef6012600a614ebe565b6128fa906001614f85565b6101115561290a6012600a614ebe565b612915906001614f85565b610110556129256012600a614ebe565b61293090600a614f85565b61010a5561011c80546001600160a01b03191661dead17905563625eb6886101215561011e6020527ffc83633154bb6433d0f42749efdd3cdc17130599ee2d8fac05bfbb4ccc468871805460ff1990811660019081179092557fe5d7d030bb8c81e61a957e9313eca67b168b39f42d3d4eae32999e88baa4126780548216831790557f4ccdd39e287ad9251edccbd514100902bc96ac0b64bb82296d0a5c5c186af5da80548216831790557f61010476ee38470b554433a20808e7e1e4d9b64223364dc3af9c01153ae9535080548216831790557ff31b515274abde92b20c4c1254f7c13c4b703fbfe379fe51404b9eb1e45b8b238054821683179055610119546001600160a01b0316600090815260409020805490911690911790558015611670576000805461ff001916905550565b60c9546001600160a01b03163314612a8b5760405162461bcd60e51b81526004016115d390614d5c565b61011b54811415612af45760405162461bcd60e51b815260206004820152602d60248201527f2043616e6e6f742075706461746520676173466f7250726f63657373696e672060448201526c746f2073616d652076616c756560981b60648201526084016115d3565b61011b55565b60c9546001600160a01b03163314612b245760405162461bcd60e51b81526004016115d390614d5c565b61011155565b60c9546001600160a01b03163314612b545760405162461bcd60e51b81526004016115d390614d5c565b611c6760fb82614281565b60c9546001600160a01b03163314612b895760405162461bcd60e51b81526004016115d390614d5c565b60fd80549115156101000261ff0019909216919091179055565b60c9546001600160a01b03163314612bcd5760405162461bcd60e51b81526004016115d390614d5c565b61010a55565b606060378054610e8190614fe7565b61011c805460ff60a01b1916600160a01b17905560fe54612c059060049061503d565b612c1657612c11612295565b612c73565b600460fe54612c25919061503d565b60011415612c3557612c11610f1e565b600460fe54612c44919061503d565b60021415612c5457612c1161311a565b600460fe54612c63919061503d565b60031415612c7357612c73611d9b565b61011c805460ff60a01b19169055565b3360008181526034602090815260408083206001600160a01b038716845290915281205490919083811015612d085760405162461bcd60e51b815260206004820152602560248201527f45524332303a2064656372656173656420616c6c6f77616e63652062656c6f77604482015264207a65726f60d81b60648201526084016115d3565b612d15828686840361380f565b506001949350505050565b61011c546000903390600160a01b900460ff1615612d4d57612d438185856139a5565b6001915050610f18565b610116546001600160a01b03858116911614801590612d7b5750610116546001600160a01b03828116911614155b8015612d96575061011d546001600160a01b03828116911614155b8015612db1575061011d546001600160a01b03858116911614155b15612dc957612dc18185856139a5565b612d43612be2565b610116546001600160a01b038281169116148015612df5575061011d546001600160a01b038581169116145b80612e3c575061011d546001600160a01b038281169116148015612e285750610116546001600160a01b03858116911614155b8015612e3c575060fd54610100900460ff16155b15612e4c57612dc18185856139a5565b610116546001600160a01b038281169116148015612e79575061011d546001600160a01b03858116911614155b15612ee85761012154421015612ebe5760405162461bcd60e51b815260206004820152600a60248201526963616e6e6f742062757960b01b60448201526064016115d3565b612ec9818585613c01565b600460fe54612ed8919061503d565b60011415612d4357612d43610f1e565b6000612ef330612246565b905061010a54811115612f505761011a5461010a5460408051808201909152601481527362616c3c5f6f766572666c6f7754616b6546656560601b6020820152612f509230926001600160a01b039091169161147891869161393d565b612d158286866139a5565b60c9546001600160a01b03163314612f855760405162461bcd60e51b81526004016115d390614d5c565b61010e9190915561010f55565b6040805160028082526060820183526000926020830190803683370190505090503081600081518110612fd557634e487b7160e01b600052603260045260246000fd5b6001600160a01b0392831660209182029290920181019190915261011d54604080516315ab88c960e31b81529051919093169263ad5c4648926004808301939192829003018186803b15801561302a57600080fd5b505afa15801561303e573d6000803e3d6000fd5b505050506040513d601f19601f8201168201806040525081019061306291906149c4565b8160018151811061308357634e487b7160e01b600052603260045260246000fd5b6001600160a01b03928316602091820292909201015261011d546130aa913091168461380f565b61011d5460405163791ac94760e01b81526001600160a01b039091169063791ac947906130e4908590600090869030904290600401614ddc565b600060405180830381600087803b1580156130fe57600080fd5b505af1158015613112573d6000803e3d6000fd5b505050505050565b6101105461010754108061313857506101105461313630612246565b105b8061315a57506101105461011654613158906001600160a01b0316612246565b105b156131645761145a565b61011054600090613176906002613981565b905060006131c082604051806040016040528060168152602001752fb9bbb0b820b7322634b8bab4b33ca0ba1e3430b63360511b8152506101105461393d9092919063ffffffff16565b9050476131cc83612f92565b6000613205826040518060400160405280600a8152602001696e6f2062616c616e636560b01b8152504761393d9092919063ffffffff16565b90508061320f5750475b6132198382614296565b613244610110546040518060600160405280602181526020016151406021913961010754919061393d565b6101075560fe805490600061325883615022565b919050555050505050565b60c9546001600160a01b0316331461328d5760405162461bcd60e51b81526004016115d390614d5c565b60fe55565b60c9546001600160a01b031633146132bc5760405162461bcd60e51b81526004016115d390614d5c565b61011055565b6040805160038082526080820190925260009160208201606080368337019050509050308160008151811061330757634e487b7160e01b600052603260045260246000fd5b6001600160a01b0392831660209182029290920181019190915261011d54604080516315ab88c960e31b81529051919093169263ad5c4648926004808301939192829003018186803b15801561335c57600080fd5b505afa158015613370573d6000803e3d6000fd5b505050506040513d601f19601f8201168201806040525081019061339491906149c4565b816001815181106133b557634e487b7160e01b600052603260045260246000fd5b60200260200101906001600160a01b031690816001600160a01b03168152505081816002815181106133f757634e487b7160e01b600052603260045260246000fd5b6001600160a01b03928316602091820292909201015261011d5461341e918791168561380f565b61011d54604051635c11d79560e01b81526001600160a01b0390911690635c11d7959061345890869060009086908a904290600401614ddc565b600060405180830381600087803b15801561347257600080fd5b505af1158015613486573d6000803e3d6000fd5b505050505050505050565b61011a546040516001600160a01b03909116904780156108fc02916000818181858888f19350505050158015611670573d6000803e3d6000fd5b61011f546040516370a0823160e01b81526001600160a01b038381166004830181905260009384938493923192909116906370a082319060240160206040518083038186803b15801561351d57600080fd5b505afa158015613531573d6000803e3d6000fd5b505050506040513d601f19601f820116820180604052508101906135559190614bcc565b610120546040516370a0823160e01b81526001600160a01b038881166004830152909116906370a082319060240160206040518083038186803b15801561359b57600080fd5b505afa1580156135af573d6000803e3d6000fd5b505050506040513d601f19601f820116820180604052508101906135d39190614bcc565b9250925092509193909250565b604080516002808252606082018352600092602083019080368337019050509050308160008151811061362357634e487b7160e01b600052603260045260246000fd5b6001600160a01b0392831660209182029290920181019190915261011d54604080516315ab88c960e31b81529051919093169263ad5c4648926004808301939192829003018186803b15801561367857600080fd5b505afa15801561368c573d6000803e3d6000fd5b505050506040513d601f19601f820116820180604052508101906136b091906149c4565b816001815181106136d157634e487b7160e01b600052603260045260246000fd5b6001600160a01b03928316602091820292909201015261011d546136f8918691168461380f565b61011d5460405163791ac94760e01b81526001600160a01b039091169063791ac94790613732908590600090869089904290600401614ddc565b600060405180830381600087803b15801561374c57600080fd5b505af1158015613760573d6000803e3d6000fd5b5050505050505050565b6000610f1860fb83613969565b60c9546001600160a01b031633146137a15760405162461bcd60e51b81526004016115d390614d5c565b6001600160a01b0381166138065760405162461bcd60e51b815260206004820152602660248201527f4f776e61626c653a206e6577206f776e657220697320746865207a65726f206160448201526564647265737360d01b60648201526084016115d3565b611670816140c8565b6001600160a01b0383166138715760405162461bcd60e51b8152602060048201526024808201527f45524332303a20617070726f76652066726f6d20746865207a65726f206164646044820152637265737360e01b60648201526084016115d3565b6001600160a01b0382166138d25760405162461bcd60e51b815260206004820152602260248201527f45524332303a20617070726f766520746f20746865207a65726f206164647265604482015261737360f01b60648201526084016115d3565b6001600160a01b0383811660008181526034602090815260408083209487168084529482529182902085905590518481527f8c5be1e5ebec7d5bd14f71427d1e84f3dd0314c0f7b2291e5b200ac8c7c3b925910160405180910390a3505050565b6000610f18825490565b600081848411156139615760405162461bcd60e51b81526004016115d39190614c91565b505050900390565b6000611583838361435c565b60006115838284614f85565b60006115838284614e64565b60006115838284614fa4565b60006115838284614e4c565b6001600160a01b038316613a095760405162461bcd60e51b815260206004820152602560248201527f45524332303a207472616e736665722066726f6d20746865207a65726f206164604482015264647265737360d81b60648201526084016115d3565b6001600160a01b038216613a6b5760405162461bcd60e51b815260206004820152602360248201527f45524332303a207472616e7366657220746f20746865207a65726f206164647260448201526265737360e81b60648201526084016115d3565b6001600160a01b03831660009081526033602052604090205481811015613ae35760405162461bcd60e51b815260206004820152602660248201527f45524332303a207472616e7366657220616d6f756e7420657863656564732062604482015265616c616e636560d01b60648201526084016115d3565b6001600160a01b03808516600090815260336020526040808220858503905591851681529081208054849290613b1a908490614e4c565b92505081905550826001600160a01b0316846001600160a01b03167fddf252ad1be2c89b69c2b068fc378daa952ba7f163c4a11628f55a4df523b3ef84604051613b6691815260200190565b60405180910390a35b50505050565b6001600160a01b038381166000908152603460209081526040808320938616835292905220546000198114613b6f5781811015613bf45760405162461bcd60e51b815260206004820152601d60248201527f45524332303a20696e73756666696369656e7420616c6c6f77616e636500000060448201526064016115d3565b613b6f848484840361380f565b61011c54600160a01b900460ff16158015613c3657506001600160a01b038216600090815261011e602052604090205460ff16155b8015613c5c57506001600160a01b038316600090815261011e602052604090205460ff16155b15613eed576000613c7f61271061117861010b548561397590919063ffffffff16565b90506000613c9f612710611178610106548661397590919063ffffffff16565b90506000613cbf612710611178610105548761397590919063ffffffff16565b61010754909150613cd09082613999565b6101075561010354600090613cee9061271090611178908890613975565b905060ff54613cfc60355490565b1115613d1157613d0c8782614394565b613d31565b613d1b8482613999565b61010854909450613d2c9082613999565b610108555b6000613d3e846002613981565b61010854909150613d4f9082613999565b6101085561010954613d619082613999565b6101095560408051808201909152601081526f616d6f756e74203c206275726e46656560801b6020820152613d99908790849061393d565b9550613dfc846040518060400160405280600a8152602001693c6d61726b657446656560b01b8152506110a9886040518060400160405280600d81526020016c1999595cc80f08185b5bdd5b9d609a1b8152508b61393d9092919063ffffffff16565b9550613e098830876139a5565b610116546001600160a01b03888116911614801590613e37575061011d546001600160a01b03888116911614155b8015613e525750610119546001600160a01b03888116911614155b8015613e665750613e6460fb886140a6565b155b15613e7857613e7660fb886144e2565b505b610116546001600160a01b03898116911614801590613ea6575061011d546001600160a01b03898116911614155b8015613ec15750610119546001600160a01b03898116911614155b8015613ed55750613ed360fb896140a6565b155b15613ee757613ee560fb896144e2565b505b50505050505b613ef88383836139a5565b505050565b60c9546001600160a01b031633146116705760405162461bcd60e51b81526004016115d390614d5c565b7f4910fdfa16fed3260ed0e7147f7cc6da11a60208b5b9406d12a635614ffd91435460ff1615613f5f57613f5a836144f7565b613ef8565b826001600160a01b03166352d1902d6040518163ffffffff1660e01b815260040160206040518083038186803b158015613f9857600080fd5b505afa925050508015613fc8575060408051601f3d908101601f19168201909252613fc591810190614bcc565b60015b61402b5760405162461bcd60e51b815260206004820152602e60248201527f45524331393637557067726164653a206e657720696d706c656d656e7461746960448201526d6f6e206973206e6f74205555505360901b60648201526084016115d3565b6000805160206150f9833981519152811461409a5760405162461bcd60e51b815260206004820152602960248201527f45524331393637557067726164653a20756e737570706f727465642070726f786044820152681a58589b195555525160ba1b60648201526084016115d3565b50613ef8838383614593565b6001600160a01b03811660009081526001830160205260408120541515611583565b60c980546001600160a01b038381166001600160a01b0319831681179093556040519116919082907f8be0079c531659141344cd1fd0a4f28419497f9722a3daafe3b4186f6b6457e090600090a35050565b600054610100900460ff166141415760405162461bcd60e51b81526004016115d390614d91565b611c6782826145b8565b600054610100900460ff166141725760405162461bcd60e51b81526004016115d390614d91565b61145a614606565b600054610100900460ff1661145a5760405162461bcd60e51b81526004016115d390614d91565b6001600160a01b0382166141f75760405162461bcd60e51b815260206004820152601f60248201527f45524332303a206d696e7420746f20746865207a65726f20616464726573730060448201526064016115d3565b80603560008282546142099190614e4c565b90915550506001600160a01b03821660009081526033602052604081208054839290614236908490614e4c565b90915550506040518181526001600160a01b038316906000907fddf252ad1be2c89b69c2b068fc378daa952ba7f163c4a11628f55a4df523b3ef9060200160405180910390a3611c67565b6000611583836001600160a01b038416614636565b61011d546142af9030906001600160a01b03168461380f565b61011d5461011c5460405163f305d71960e01b81523060048201526024810185905260006044820181905260648201526001600160a01b0391821660848201524260a482015291169063f305d71990839060c4016060604051808303818588803b15801561431c57600080fd5b505af1158015614330573d6000803e3d6000fd5b50505050506040513d601f19601f820116820180604052508101906143559190614c48565b5050505050565b600082600001828154811061438157634e487b7160e01b600052603260045260246000fd5b9060005260206000200154905092915050565b6001600160a01b0382166143f45760405162461bcd60e51b815260206004820152602160248201527f45524332303a206275726e2066726f6d20746865207a65726f206164647265736044820152607360f81b60648201526084016115d3565b6001600160a01b038216600090815260336020526040902054818110156144685760405162461bcd60e51b815260206004820152602260248201527f45524332303a206275726e20616d6f756e7420657863656564732062616c616e604482015261636560f01b60648201526084016115d3565b6001600160a01b0383166000908152603360205260408120838303905560358054849290614497908490614fa4565b90915550506040518281526000906001600160a01b038516907fddf252ad1be2c89b69c2b068fc378daa952ba7f163c4a11628f55a4df523b3ef9060200160405180910390a3613ef8565b6000611583836001600160a01b038416614753565b6001600160a01b0381163b6145645760405162461bcd60e51b815260206004820152602d60248201527f455243313936373a206e657720696d706c656d656e746174696f6e206973206e60448201526c1bdd08184818dbdb9d1c9858dd609a1b60648201526084016115d3565b6000805160206150f983398151915280546001600160a01b0319166001600160a01b0392909216919091179055565b61459c836147a2565b6000825111806145a95750805b15613ef857613b6f83836147e2565b600054610100900460ff166145df5760405162461bcd60e51b81526004016115d390614d91565b81516145f290603690602085019061490f565b508051613ef890603790602084019061490f565b600054610100900460ff1661462d5760405162461bcd60e51b81526004016115d390614d91565b61145a336140c8565b6000818152600183016020526040812054801561474957600061465a600183614fa4565b855490915060009061466e90600190614fa4565b90508181146146ef57600086600001828154811061469c57634e487b7160e01b600052603260045260246000fd5b90600052602060002001549050808760000184815481106146cd57634e487b7160e01b600052603260045260246000fd5b6000918252602080832090910192909255918252600188019052604090208390555b855486908061470e57634e487b7160e01b600052603160045260246000fd5b600190038181906000526020600020016000905590558560010160008681526020019081526020016000206000905560019350505050610f18565b6000915050610f18565b600081815260018301602052604081205461479a57508154600181810184556000848152602080822090930184905584548482528286019093526040902091909155610f18565b506000610f18565b6147ab816144f7565b6040516001600160a01b038216907fbc7cd75a20ee27fd9adebab32041f755214dbc6bffa90cc0225b39da2e5c2d3b90600090a250565b60606001600160a01b0383163b61484a5760405162461bcd60e51b815260206004820152602660248201527f416464726573733a2064656c65676174652063616c6c20746f206e6f6e2d636f6044820152651b9d1c9858dd60d21b60648201526084016115d3565b600080846001600160a01b0316846040516148659190614c75565b600060405180830381855af49150503d80600081146148a0576040519150601f19603f3d011682016040523d82523d6000602084013e6148a5565b606091505b50915091506148cd8282604051806060016040528060278152602001615119602791396148d6565b95945050505050565b606083156148e5575081611583565b8251156148f55782518084602001fd5b8160405162461bcd60e51b81526004016115d39190614c91565b82805461491b90614fe7565b90600052602060002090601f01602090048101928261493d5760008555614983565b82601f1061495657805160ff1916838001178555614983565b82800160010185558215614983579182015b82811115614983578251825591602001919060010190614968565b5061498f929150614993565b5090565b5b8082111561498f5760008155600101614994565b6000602082840312156149b9578081fd5b813561158381615093565b6000602082840312156149d5578081fd5b815161158381615093565b600080604083850312156149f2578081fd5b82356149fd81615093565b91506020830135614a0d81615093565b809150509250929050565b600080600060608486031215614a2c578081fd5b8335614a3781615093565b92506020840135614a4781615093565b929592945050506040919091013590565b60008060008060808587031215614a6d578081fd5b8435614a7881615093565b93506020850135614a8881615093565b9250604085013591506060850135614a9f81615093565b939692955090935050565b60008060408385031215614abc578182fd5b8235614ac781615093565b9150602083013567ffffffffffffffff80821115614ae3578283fd5b818501915085601f830112614af6578283fd5b813581811115614b0857614b0861507d565b604051601f8201601f19908116603f01168101908382118183101715614b3057614b3061507d565b81604052828152886020848701011115614b48578586fd5b82602086016020830137856020848301015280955050505050509250929050565b60008060408385031215614b7b578182fd5b8235614b8681615093565b946020939093013593505050565b600060208284031215614ba5578081fd5b8135611583816150a8565b600060208284031215614bc1578081fd5b8151611583816150a8565b600060208284031215614bdd578081fd5b5051919050565b600060208284031215614bf5578081fd5b5035919050565b60008060408385031215614c0e578182fd5b50508035926020909101359150565b600080600060608486031215614c31578283fd5b505081359360208301359350604090920135919050565b600080600060608486031215614c5c578081fd5b8351925060208401519150604084015190509250925092565b60008251614c87818460208701614fbb565b9190910192915050565b6000602082528251806020840152614cb0816040850160208701614fbb565b601f01601f19169190910160400192915050565b6020808252602c908201527f46756e6374696f6e206d7573742062652063616c6c6564207468726f7567682060408201526b19195b1959d85d1958d85b1b60a21b606082015260800190565b6020808252602c908201527f46756e6374696f6e206d7573742062652063616c6c6564207468726f7567682060408201526b6163746976652070726f787960a01b606082015260800190565b6020808252818101527f4f776e61626c653a2063616c6c6572206973206e6f7420746865206f776e6572604082015260600190565b6020808252602b908201527f496e697469616c697a61626c653a20636f6e7472616374206973206e6f74206960408201526a6e697469616c697a696e6760a81b606082015260800190565b600060a082018783526020878185015260a0604085015281875180845260c0860191508289019350845b81811015614e2b5784516001600160a01b031683529383019391830191600101614e06565b50506001600160a01b03969096166060850152505050608001529392505050565b60008219821115614e5f57614e5f615051565b500190565b600082614e7357614e73615067565b500490565b80825b6001808611614e8a5750614eb5565b818704821115614e9c57614e9c615051565b80861615614ea957918102915b9490941c938002614e7b565b94509492505050565b600061158360001960ff851684600082614eda57506001611583565b81614ee757506000611583565b81600181146114a95760028114614efd57614f2a565b60ff841115614f0e57614f0e615051565b6001841b915084821115614f2457614f24615051565b50611583565b5060208310610133831016604e8410600b8410161715614f5d575081810a83811115614f5857614f58615051565b611583565b614f6a8484846001614e78565b808604821115614f7c57614f7c615051565b02949350505050565b6000816000190483118215151615614f9f57614f9f615051565b500290565b600082821015614fb657614fb6615051565b500390565b60005b83811015614fd6578181015183820152602001614fbe565b83811115613b6f5750506000910152565b600181811c90821680614ffb57607f821691505b6020821081141561501c57634e487b7160e01b600052602260045260246000fd5b50919050565b600060001982141561503657615036615051565b5060010190565b60008261504c5761504c615067565b500690565b634e487b7160e01b600052601160045260246000fd5b634e487b7160e01b600052601260045260246000fd5b634e487b7160e01b600052604160045260246000fd5b6001600160a01b038116811461167057600080fd5b801515811461167057600080fdfe5f6d61726b65743146656553756d203c205f6d61726b65744665655377617041745f6d61726b65743246656553756d203c205f6d61726b6574466565537761704174360894a13ba1a3210667c828492db98dca3e2076cc3735a920a3ca505d382bbc416464726573733a206c6f772d6c6576656c2064656c65676174652063616c6c206661696c65645f6c6971756964697479466565203c205f73776170416e644c6971756966794174a2646970667358221220ba03e40a33604e573723c2669bacad342457dabbaae77bca1b9a88745e53517764736f6c63430008030033",
  "linkReferences": {},
  "deployedLinkReferences": {}
}