{
  "_format": "hh-sol-artifact-1",
  "contractName": "PSC",
  "sourceName": "contracts/psc/psc.sol",
  "abi": [
    {
      "inputs": [],
      "stateMutability": "nonpayable",
      "type": "constructor"
    },
    {
      "anonymous": false,
      "inputs": [
        {
          "indexed": true,
          "internalType": "address",
          "name": "owner",
          "type": "address"
        },
        {
          "indexed": true,
          "internalType": "address",
          "name": "spender",
          "type": "address"
        },
        {
          "indexed": false,
          "internalType": "uint256",
          "name": "value",
          "type": "uint256"
        }
      ],
      "name": "Approval",
      "type": "event"
    },
    {
      "anonymous": false,
      "inputs": [
        {
          "indexed": true,
          "internalType": "address",
          "name": "previousOwner",
          "type": "address"
        },
        {
          "indexed": true,
          "internalType": "address",
          "name": "newOwner",
          "type": "address"
        }
      ],
      "name": "OwnershipTransferred",
      "type": "event"
    },
    {
      "anonymous": false,
      "inputs": [
        {
          "indexed": true,
          "internalType": "address",
          "name": "from",
          "type": "address"
        },
        {
          "indexed": true,
          "internalType": "address",
          "name": "to",
          "type": "address"
        },
        {
          "indexed": false,
          "internalType": "uint256",
          "name": "value",
          "type": "uint256"
        }
      ],
      "name": "Transfer",
      "type": "event"
    },
    {
      "inputs": [],
      "name": "MAX",
      "outputs": [
        {
          "internalType": "uint256",
          "name": "",
          "type": "uint256"
        }
      ],
      "stateMutability": "view",
      "type": "function"
    },
    {
      "inputs": [
        {
          "internalType": "address",
          "name": "owner",
          "type": "address"
        },
        {
          "internalType": "address",
          "name": "spender",
          "type": "address"
        }
      ],
      "name": "allowance",
      "outputs": [
        {
          "internalType": "uint256",
          "name": "",
          "type": "uint256"
        }
      ],
      "stateMutability": "view",
      "type": "function"
    },
    {
      "inputs": [
        {
          "internalType": "address",
          "name": "spender",
          "type": "address"
        },
        {
          "internalType": "uint256",
          "name": "amount",
          "type": "uint256"
        }
      ],
      "name": "approve",
      "outputs": [
        {
          "internalType": "bool",
          "name": "",
          "type": "bool"
        }
      ],
      "stateMutability": "nonpayable",
      "type": "function"
    },
    {
      "inputs": [
        {
          "internalType": "address",
          "name": "account",
          "type": "address"
        }
      ],
      "name": "balanceOf",
      "outputs": [
        {
          "internalType": "uint256",
          "name": "",
          "type": "uint256"
        }
      ],
      "stateMutability": "view",
      "type": "function"
    },
    {
      "inputs": [],
      "name": "decimals",
      "outputs": [
        {
          "internalType": "uint8",
          "name": "",
          "type": "uint8"
        }
      ],
      "stateMutability": "view",
      "type": "function"
    },
    {
      "inputs": [
        {
          "internalType": "address",
          "name": "spender",
          "type": "address"
        },
        {
          "internalType": "uint256",
          "name": "subtractedValue",
          "type": "uint256"
        }
      ],
      "name": "decreaseAllowance",
      "outputs": [
        {
          "internalType": "bool",
          "name": "",
          "type": "bool"
        }
      ],
      "stateMutability": "nonpayable",
      "type": "function"
    },
    {
      "inputs": [
        {
          "internalType": "address",
          "name": "spender",
          "type": "address"
        },
        {
          "internalType": "uint256",
          "name": "addedValue",
          "type": "uint256"
        }
      ],
      "name": "increaseAllowance",
      "outputs": [
        {
          "internalType": "bool",
          "name": "",
          "type": "bool"
        }
      ],
      "stateMutability": "nonpayable",
      "type": "function"
    },
    {
      "inputs": [],
      "name": "name",
      "outputs": [
        {
          "internalType": "string",
          "name": "",
          "type": "string"
        }
      ],
      "stateMutability": "view",
      "type": "function"
    },
    {
      "inputs": [],
      "name": "owner",
      "outputs": [
        {
          "internalType": "address",
          "name": "",
          "type": "address"
        }
      ],
      "stateMutability": "view",
      "type": "function"
    },
    {
      "inputs": [],
      "name": "renounceOwnership",
      "outputs": [],
      "stateMutability": "nonpayable",
      "type": "function"
    },
    {
      "inputs": [
        {
          "internalType": "address",
          "name": "_target",
          "type": "address"
        }
      ],
      "name": "setMintAddress",
      "outputs": [],
      "stateMutability": "nonpayable",
      "type": "function"
    },
    {
      "inputs": [
        {
          "internalType": "address",
          "name": "_target",
          "type": "address"
        }
      ],
      "name": "setSwapAddress",
      "outputs": [],
      "stateMutability": "nonpayable",
      "type": "function"
    },
    {
      "inputs": [],
      "name": "symbol",
      "outputs": [
        {
          "internalType": "string",
          "name": "",
          "type": "string"
        }
      ],
      "stateMutability": "view",
      "type": "function"
    },
    {
      "inputs": [],
      "name": "totalSupply",
      "outputs": [
        {
          "internalType": "uint256",
          "name": "",
          "type": "uint256"
        }
      ],
      "stateMutability": "view",
      "type": "function"
    },
    {
      "inputs": [
        {
          "internalType": "address",
          "name": "recipient",
          "type": "address"
        },
        {
          "internalType": "uint256",
          "name": "amount",
          "type": "uint256"
        }
      ],
      "name": "transfer",
      "outputs": [
        {
          "internalType": "bool",
          "name": "",
          "type": "bool"
        }
      ],
      "stateMutability": "nonpayable",
      "type": "function"
    },
    {
      "inputs": [
        {
          "internalType": "address",
          "name": "sender",
          "type": "address"
        },
        {
          "internalType": "address",
          "name": "recipient",
          "type": "address"
        },
        {
          "internalType": "uint256",
          "name": "amount",
          "type": "uint256"
        }
      ],
      "name": "transferFrom",
      "outputs": [
        {
          "internalType": "bool",
          "name": "",
          "type": "bool"
        }
      ],
      "stateMutability": "nonpayable",
      "type": "function"
    },
    {
      "inputs": [
        {
          "internalType": "address",
          "name": "newOwner",
          "type": "address"
        }
      ],
      "name": "transferOwnership",
      "outputs": [],
      "stateMutability": "nonpayable",
      "type": "function"
    }
  ],
  "bytecode": "0x6080604052600680546001600160a01b03199081167301b130e4b7e2d321cd5c02a15947d50b8c80cb1c17909155600780549091167382476e7bbf846da5ee750b74a7dff9a08a9db61e17905534801561005857600080fd5b5060408051808201825260038082526250534360e81b60208084018290528451808601909552828552840152909190610091838261033b565b50600461009e828261033b565b50506005805460ff191660121790555060006100b73390565b60058054610100600160a81b0319166101006001600160a01b03841690810291909117909155604051919250906000907f8be0079c531659141344cd1fd0a4f28419497f9722a3daafe3b4186f6b6457e0908290a35061013c3361011d60055460ff1690565b61012890600a6104f4565b610137906402540be40061050a565b610141565b610534565b61014b828261014f565b5050565b6001600160a01b0382166101aa5760405162461bcd60e51b815260206004820152601f60248201527f45524332303a206d696e7420746f20746865207a65726f20616464726573730060448201526064015b60405180910390fd5b6002546101b79082610232565b6002556001600160a01b0382166000908152602081905260409020546101dd9082610232565b6001600160a01b038316600081815260208181526040808320949094559251848152919290917fddf252ad1be2c89b69c2b068fc378daa952ba7f163c4a11628f55a4df523b3ef910160405180910390a35050565b60008061023f8385610521565b9050838110156102915760405162461bcd60e51b815260206004820152601b60248201527f536166654d6174683a206164646974696f6e206f766572666c6f77000000000060448201526064016101a1565b90505b92915050565b634e487b7160e01b600052604160045260246000fd5b600181811c908216806102c457607f821691505b6020821081036102e457634e487b7160e01b600052602260045260246000fd5b50919050565b601f821115610336576000816000526020600020601f850160051c810160208610156103135750805b601f850160051c820191505b818110156103325782815560010161031f565b5050505b505050565b81516001600160401b038111156103545761035461029a565b6103688161036284546102b0565b846102ea565b602080601f83116001811461039d57600084156103855750858301515b600019600386901b1c1916600185901b178555610332565b600085815260208120601f198616915b828110156103cc578886015182559484019460019091019084016103ad565b50858210156103ea5787850151600019600388901b60f8161c191681555b5050505050600190811b01905550565b634e487b7160e01b600052601160045260246000fd5b600181815b8085111561044b578160001904821115610431576104316103fa565b8085161561043e57918102915b93841c9390800290610415565b509250929050565b60008261046257506001610294565b8161046f57506000610294565b8160018114610485576002811461048f576104ab565b6001915050610294565b60ff8411156104a0576104a06103fa565b50506001821b610294565b5060208310610133831016604e8410600b84101617156104ce575081810a610294565b6104d88383610410565b80600019048211156104ec576104ec6103fa565b029392505050565b600061050360ff841683610453565b9392505050565b8082028115828204841417610294576102946103fa565b80820180821115610294576102946103fa565b610e56806105436000396000f3fe608060405234801561001057600080fd5b506004361061011b5760003560e01c80637dc4b9cc116100b2578063a9059cbb11610081578063dd62ed3e11610066578063dd62ed3e14610254578063f2fde38b1461028d578063fab37154146102a057600080fd5b8063a9059cbb14610238578063d49d51811461024b57600080fd5b80637dc4b9cc146101e15780638da5cb5b146101f457806395d89b411461021d578063a457c2d71461022557600080fd5b8063313ce567116100ee578063313ce56714610186578063395093511461019b57806370a08231146101ae578063715018a6146101d757600080fd5b806306fdde0314610120578063095ea7b31461013e57806318160ddd1461016157806323b872dd14610173575b600080fd5b6101286102b3565b6040516101359190610c3e565b60405180910390f35b61015161014c366004610ca9565b610345565b6040519015158152602001610135565b6002545b604051908152602001610135565b610151610181366004610cd3565b61035c565b60055460405160ff9091168152602001610135565b6101516101a9366004610ca9565b6103c5565b6101656101bc366004610d0f565b6001600160a01b031660009081526020819052604090205490565b6101df6103fb565b005b6101df6101ef366004610d0f565b6104bd565b60055461010090046001600160a01b03166040516001600160a01b039091168152602001610135565b61012861054c565b610151610233366004610ca9565b61055b565b610151610246366004610ca9565b6105aa565b61016560001981565b610165610262366004610d2a565b6001600160a01b03918216600090815260016020908152604080832093909416825291909152205490565b6101df61029b366004610d0f565b6105b7565b6101df6102ae366004610d0f565b610707565b6060600380546102c290610d5d565b80601f01602080910402602001604051908101604052809291908181526020018280546102ee90610d5d565b801561033b5780601f106103105761010080835404028352916020019161033b565b820191906000526020600020905b81548152906001019060200180831161031e57829003601f168201915b5050505050905090565b6000610352338484610796565b5060015b92915050565b60006103698484846108ef565b6103bb84336103b685604051806060016040528060288152602001610dd4602891396001600160a01b038a16600090815260016020908152604080832033845290915290205491906109db565b610796565b5060019392505050565b3360008181526001602090815260408083206001600160a01b038716845290915281205490916103529185906103b69086610a15565b6005546001600160a01b036101009091041633146104605760405162461bcd60e51b815260206004820181905260248201527f4f776e61626c653a2063616c6c6572206973206e6f7420746865206f776e657260448201526064015b60405180910390fd5b60055460405160009161010090046001600160a01b0316907f8be0079c531659141344cd1fd0a4f28419497f9722a3daafe3b4186f6b6457e0908390a36005805474ffffffffffffffffffffffffffffffffffffffff0019169055565b6005546001600160a01b0361010090910416331461051d5760405162461bcd60e51b815260206004820181905260248201527f4f776e61626c653a2063616c6c6572206973206e6f7420746865206f776e65726044820152606401610457565b6006805473ffffffffffffffffffffffffffffffffffffffff19166001600160a01b0392909216919091179055565b6060600480546102c290610d5d565b600061035233846103b685604051806060016040528060258152602001610dfc602591393360009081526001602090815260408083206001600160a01b038d16845290915290205491906109db565b60006103523384846108ef565b6005546001600160a01b036101009091041633146106175760405162461bcd60e51b815260206004820181905260248201527f4f776e61626c653a2063616c6c6572206973206e6f7420746865206f776e65726044820152606401610457565b6001600160a01b0381166106935760405162461bcd60e51b815260206004820152602660248201527f4f776e61626c653a206e6577206f776e657220697320746865207a65726f206160448201527f64647265737300000000000000000000000000000000000000000000000000006064820152608401610457565b6005546040516001600160a01b0380841692610100900416907f8be0079c531659141344cd1fd0a4f28419497f9722a3daafe3b4186f6b6457e090600090a3600580546001600160a01b039092166101000274ffffffffffffffffffffffffffffffffffffffff0019909216919091179055565b6005546001600160a01b036101009091041633146107675760405162461bcd60e51b815260206004820181905260248201527f4f776e61626c653a2063616c6c6572206973206e6f7420746865206f776e65726044820152606401610457565b6007805473ffffffffffffffffffffffffffffffffffffffff19166001600160a01b0392909216919091179055565b6001600160a01b0383166108115760405162461bcd60e51b8152602060048201526024808201527f45524332303a20617070726f76652066726f6d20746865207a65726f2061646460448201527f72657373000000000000000000000000000000000000000000000000000000006064820152608401610457565b6001600160a01b03821661088d5760405162461bcd60e51b815260206004820152602260248201527f45524332303a20617070726f766520746f20746865207a65726f20616464726560448201527f73730000000000000000000000000000000000000000000000000000000000006064820152608401610457565b6001600160a01b0383811660008181526001602090815260408083209487168084529482529182902085905590518481527f8c5be1e5ebec7d5bd14f71427d1e84f3dd0314c0f7b2291e5b200ac8c7c3b92591015b60405180910390a3505050565b826001600160a01b0316826001600160a01b03160361095c5760405162461bcd60e51b815260206004820152602360248201527f45524332303a207472616e7366657220746f207468652073616d65206164647260448201526265737360e81b6064820152608401610457565b6001600160a01b0382166109be5760405162461bcd60e51b815260206004820152602360248201527f45524332303a207472616e7366657220746f20746865207a65726f206164647260448201526265737360e81b6064820152608401610457565b600081116109cb57600080fd5b6109d6838383610a7b565b505050565b600081848411156109ff5760405162461bcd60e51b81526004016104579190610c3e565b506000610a0c8486610dad565b95945050505050565b600080610a228385610dc0565b905083811015610a745760405162461bcd60e51b815260206004820152601b60248201527f536166654d6174683a206164646974696f6e206f766572666c6f7700000000006044820152606401610457565b9392505050565b6001600160a01b038316610af75760405162461bcd60e51b815260206004820152602560248201527f45524332303a207472616e736665722066726f6d20746865207a65726f20616460448201527f64726573730000000000000000000000000000000000000000000000000000006064820152608401610457565b6001600160a01b038216610b595760405162461bcd60e51b815260206004820152602360248201527f45524332303a207472616e7366657220746f20746865207a65726f206164647260448201526265737360e81b6064820152608401610457565b6001600160a01b038316600090815260208190526040902054610b7c9082610bfc565b6001600160a01b038085166000908152602081905260408082209390935590841681522054610bab9082610a15565b6001600160a01b038381166000818152602081815260409182902094909455518481529092918616917fddf252ad1be2c89b69c2b068fc378daa952ba7f163c4a11628f55a4df523b3ef91016108e2565b6000610a7483836040518060400160405280601e81526020017f536166654d6174683a207375627472616374696f6e206f766572666c6f7700008152506109db565b60006020808352835180602085015260005b81811015610c6c57858101830151858201604001528201610c50565b506000604082860101526040601f19601f8301168501019250505092915050565b80356001600160a01b0381168114610ca457600080fd5b919050565b60008060408385031215610cbc57600080fd5b610cc583610c8d565b946020939093013593505050565b600080600060608486031215610ce857600080fd5b610cf184610c8d565b9250610cff60208501610c8d565b9150604084013590509250925092565b600060208284031215610d2157600080fd5b610a7482610c8d565b60008060408385031215610d3d57600080fd5b610d4683610c8d565b9150610d5460208401610c8d565b90509250929050565b600181811c90821680610d7157607f821691505b602082108103610d9157634e487b7160e01b600052602260045260246000fd5b50919050565b634e487b7160e01b600052601160045260246000fd5b8181038181111561035657610356610d97565b8082018082111561035657610356610d9756fe45524332303a207472616e7366657220616d6f756e74206578636565647320616c6c6f77616e636545524332303a2064656372656173656420616c6c6f77616e63652062656c6f77207a65726fa26469706673582212202173f5d536c7c242d0cd2ec144e13c07d4635186bbce46e43c8060b76840df1b64736f6c63430008190033",
  "linkReferences": {},
  "deployedLinkReferences": {}
}