{
  "_format": "hh-sol-artifact-1",
  "contractName": "Mint",
  "sourceName": "contracts/psc/mint.sol",
  "abi": [
    {
      "inputs": [],
      "stateMutability": "nonpayable",
      "type": "constructor"
    },
    {
      "inputs": [
        {
          "internalType": "address",
          "name": "target",
          "type": "address"
        }
      ],
      "name": "AddressEmptyCode",
      "type": "error"
    },
    {
      "inputs": [
        {
          "internalType": "address",
          "name": "implementation",
          "type": "address"
        }
      ],
      "name": "ERC1967InvalidImplementation",
      "type": "error"
    },
    {
      "inputs": [],
      "name": "ERC1967NonPayable",
      "type": "error"
    },
    {
      "inputs": [],
      "name": "FailedCall",
      "type": "error"
    },
    {
      "inputs": [],
      "name": "InvalidInitialization",
      "type": "error"
    },
    {
      "inputs": [],
      "name": "NotInitializing",
      "type": "error"
    },
    {
      "inputs": [
        {
          "internalType": "address",
          "name": "owner",
          "type": "address"
        }
      ],
      "name": "OwnableInvalidOwner",
      "type": "error"
    },
    {
      "inputs": [
        {
          "internalType": "address",
          "name": "account",
          "type": "address"
        }
      ],
      "name": "OwnableUnauthorizedAccount",
      "type": "error"
    },
    {
      "inputs": [],
      "name": "UUPSUnauthorizedCallContext",
      "type": "error"
    },
    {
      "inputs": [
        {
          "internalType": "bytes32",
          "name": "slot",
          "type": "bytes32"
        }
      ],
      "name": "UUPSUnsupportedProxiableUUID",
      "type": "error"
    },
    {
      "anonymous": false,
      "inputs": [
        {
          "indexed": false,
          "internalType": "uint64",
          "name": "version",
          "type": "uint64"
        }
      ],
      "name": "Initialized",
      "type": "event"
    },
    {
      "anonymous": false,
      "inputs": [
        {
          "indexed": true,
          "internalType": "address",
          "name": "previousOwner",
          "type": "address"
        },
        {
          "indexed": true,
          "internalType": "address",
          "name": "newOwner",
          "type": "address"
        }
      ],
      "name": "OwnershipTransferred",
      "type": "event"
    },
    {
      "anonymous": false,
      "inputs": [
        {
          "indexed": true,
          "internalType": "address",
          "name": "implementation",
          "type": "address"
        }
      ],
      "name": "Upgraded",
      "type": "event"
    },
    {
      "inputs": [],
      "name": "MAX",
      "outputs": [
        {
          "internalType": "uint256",
          "name": "",
          "type": "uint256"
        }
      ],
      "stateMutability": "view",
      "type": "function"
    },
    {
      "inputs": [],
      "name": "UPGRADE_INTERFACE_VERSION",
      "outputs": [
        {
          "internalType": "string",
          "name": "",
          "type": "string"
        }
      ],
      "stateMutability": "view",
      "type": "function"
    },
    {
      "inputs": [
        {
          "internalType": "uint256",
          "name": "",
          "type": "uint256"
        }
      ],
      "name": "_buyRecord",
      "outputs": [
        {
          "internalType": "address",
          "name": "ads",
          "type": "address"
        },
        {
          "internalType": "uint256",
          "name": "value",
          "type": "uint256"
        },
        {
          "internalType": "uint256",
          "name": "time",
          "type": "uint256"
        }
      ],
      "stateMutability": "view",
      "type": "function"
    },
    {
      "inputs": [
        {
          "internalType": "uint256",
          "name": "",
          "type": "uint256"
        },
        {
          "internalType": "address",
          "name": "",
          "type": "address"
        }
      ],
      "name": "_isReward",
      "outputs": [
        {
          "internalType": "bool",
          "name": "",
          "type": "bool"
        }
      ],
      "stateMutability": "view",
      "type": "function"
    },
    {
      "inputs": [
        {
          "internalType": "address",
          "name": "",
          "type": "address"
        }
      ],
      "name": "_lastT",
      "outputs": [
        {
          "internalType": "uint256",
          "name": "",
          "type": "uint256"
        }
      ],
      "stateMutability": "view",
      "type": "function"
    },
    {
      "inputs": [
        {
          "internalType": "uint256",
          "name": "",
          "type": "uint256"
        }
      ],
      "name": "_mintLevelInfo",
      "outputs": [
        {
          "internalType": "uint256",
          "name": "price",
          "type": "uint256"
        },
        {
          "internalType": "uint256",
          "name": "power",
          "type": "uint256"
        },
        {
          "internalType": "uint256",
          "name": "bei",
          "type": "uint256"
        }
      ],
      "stateMutability": "view",
      "type": "function"
    },
    {
      "inputs": [],
      "name": "_nft",
      "outputs": [
        {
          "internalType": "address",
          "name": "",
          "type": "address"
        }
      ],
      "stateMutability": "view",
      "type": "function"
    },
    {
      "inputs": [
        {
          "internalType": "address",
          "name": "",
          "type": "address"
        }
      ],
      "name": "_orders",
      "outputs": [
        {
          "internalType": "bool",
          "name": "isExist",
          "type": "bool"
        },
        {
          "internalType": "uint256",
          "name": "power",
          "type": "uint256"
        },
        {
          "internalType": "uint256",
          "name": "totalU",
          "type": "uint256"
        },
        {
          "internalType": "uint256",
          "name": "remain",
          "type": "uint256"
        },
        {
          "internalType": "uint256",
          "name": "lastTime",
          "type": "uint256"
        },
        {
          "internalType": "uint256",
          "name": "rank",
          "type": "uint256"
        },
        {
          "internalType": "uint256",
          "name": "b",
          "type": "uint256"
        },
        {
          "internalType": "uint256",
          "name": "t",
          "type": "uint256"
        }
      ],
      "stateMutability": "view",
      "type": "function"
    },
    {
      "inputs": [
        {
          "internalType": "address",
          "name": "",
          "type": "address"
        }
      ],
      "name": "_ordersReward",
      "outputs": [
        {
          "internalType": "uint256",
          "name": "zhiJunRankReward",
          "type": "uint256"
        },
        {
          "internalType": "uint256",
          "name": "zhiRankReward",
          "type": "uint256"
        },
        {
          "internalType": "uint256",
          "name": "weekRankReward",
          "type": "uint256"
        },
        {
          "internalType": "uint256",
          "name": "admin2Reward",
          "type": "uint256"
        }
      ],
      "stateMutability": "view",
      "type": "function"
    },
    {
      "inputs": [],
      "name": "_swapRouter",
      "outputs": [
        {
          "internalType": "contract IPancakeRouter02",
          "name": "",
          "type": "address"
        }
      ],
      "stateMutability": "view",
      "type": "function"
    },
    {
      "inputs": [],
      "name": "_targetAddress20",
      "outputs": [
        {
          "internalType": "address",
          "name": "",
          "type": "address"
        }
      ],
      "stateMutability": "view",
      "type": "function"
    },
    {
      "inputs": [],
      "name": "_targetAddress5",
      "outputs": [
        {
          "internalType": "address",
          "name": "",
          "type": "address"
        }
      ],
      "stateMutability": "view",
      "type": "function"
    },
    {
      "inputs": [
        {
          "internalType": "address",
          "name": "",
          "type": "address"
        }
      ],
      "name": "_teamInfo",
      "outputs": [
        {
          "internalType": "uint256",
          "name": "zhi",
          "type": "uint256"
        },
        {
          "internalType": "uint256",
          "name": "tureZhi",
          "type": "uint256"
        },
        {
          "internalType": "uint256",
          "name": "team",
          "type": "uint256"
        },
        {
          "internalType": "uint256",
          "name": "trueTeam",
          "type": "uint256"
        },
        {
          "internalType": "uint256",
          "name": "teamAmount",
          "type": "uint256"
        }
      ],
      "stateMutability": "view",
      "type": "function"
    },
    {
      "inputs": [],
      "name": "_token",
      "outputs": [
        {
          "internalType": "address",
          "name": "",
          "type": "address"
        }
      ],
      "stateMutability": "view",
      "type": "function"
    },
    {
      "inputs": [
        {
          "internalType": "address",
          "name": "_target",
          "type": "address"
        },
        {
          "internalType": "uint256",
          "name": "_weight",
          "type": "uint256"
        }
      ],
      "name": "addAdminRewardUser",
      "outputs": [],
      "stateMutability": "nonpayable",
      "type": "function"
    },
    {
      "inputs": [
        {
          "internalType": "address",
          "name": "_ads",
          "type": "address"
        },
        {
          "internalType": "uint256",
          "name": "value",
          "type": "uint256"
        }
      ],
      "name": "addElement",
      "outputs": [],
      "stateMutability": "nonpayable",
      "type": "function"
    },
    {
      "inputs": [
        {
          "internalType": "address",
          "name": "_target",
          "type": "address"
        },
        {
          "internalType": "uint256",
          "name": "_amount",
          "type": "uint256"
        }
      ],
      "name": "addPower",
      "outputs": [],
      "stateMutability": "nonpayable",
      "type": "function"
    },
    {
      "inputs": [],
      "name": "addPowerFee",
      "outputs": [
        {
          "internalType": "uint256",
          "name": "",
          "type": "uint256"
        }
      ],
      "stateMutability": "view",
      "type": "function"
    },
    {
      "inputs": [
        {
          "internalType": "address[]",
          "name": "_operAddress",
          "type": "address[]"
        },
        {
          "internalType": "address",
          "name": "_target",
          "type": "address"
        }
      ],
      "name": "adminBind",
      "outputs": [],
      "stateMutability": "nonpayable",
      "type": "function"
    },
    {
      "inputs": [
        {
          "internalType": "uint256",
          "name": "",
          "type": "uint256"
        }
      ],
      "name": "adminRewardList",
      "outputs": [
        {
          "internalType": "address",
          "name": "user",
          "type": "address"
        },
        {
          "internalType": "uint256",
          "name": "weight",
          "type": "uint256"
        }
      ],
      "stateMutability": "view",
      "type": "function"
    },
    {
      "inputs": [
        {
          "internalType": "address",
          "name": "",
          "type": "address"
        },
        {
          "internalType": "uint256",
          "name": "",
          "type": "uint256"
        }
      ],
      "name": "adminRewardRecord",
      "outputs": [
        {
          "internalType": "uint256",
          "name": "id",
          "type": "uint256"
        },
        {
          "internalType": "uint256",
          "name": "time",
          "type": "uint256"
        }
      ],
      "stateMutability": "view",
      "type": "function"
    },
    {
      "inputs": [
        {
          "internalType": "address",
          "name": "_target",
          "type": "address"
        },
        {
          "internalType": "address",
          "name": "_top",
          "type": "address"
        },
        {
          "internalType": "uint256",
          "name": "price",
          "type": "uint256"
        },
        {
          "internalType": "uint256",
          "name": "power",
          "type": "uint256"
        }
      ],
      "name": "adminWrite",
      "outputs": [],
      "stateMutability": "nonpayable",
      "type": "function"
    },
    {
      "inputs": [
        {
          "internalType": "address",
          "name": "_operAddress",
          "type": "address"
        },
        {
          "internalType": "address",
          "name": "_target",
          "type": "address"
        }
      ],
      "name": "bind",
      "outputs": [],
      "stateMutability": "nonpayable",
      "type": "function"
    },
    {
      "inputs": [],
      "name": "calTodayProduce",
      "outputs": [],
      "stateMutability": "nonpayable",
      "type": "function"
    },
    {
      "inputs": [
        {
          "internalType": "uint256",
          "name": "a",
          "type": "uint256"
        },
        {
          "internalType": "uint256",
          "name": "b",
          "type": "uint256"
        }
      ],
      "name": "calculatePercentageDifference",
      "outputs": [
        {
          "internalType": "uint256",
          "name": "",
          "type": "uint256"
        }
      ],
      "stateMutability": "pure",
      "type": "function"
    },
    {
      "inputs": [
        {
          "internalType": "address",
          "name": "fundAddress",
          "type": "address"
        }
      ],
      "name": "claimBalance",
      "outputs": [],
      "stateMutability": "nonpayable",
      "type": "function"
    },
    {
      "inputs": [
        {
          "internalType": "address",
          "name": "fundAddress",
          "type": "address"
        },
        {
          "internalType": "address",
          "name": "token",
          "type": "address"
        },
        {
          "internalType": "uint256",
          "name": "amount",
          "type": "uint256"
        }
      ],
      "name": "claimToken",
      "outputs": [],
      "stateMutability": "nonpayable",
      "type": "function"
    },
    {
      "inputs": [],
      "name": "end",
      "outputs": [
        {
          "internalType": "uint256",
          "name": "",
          "type": "uint256"
        }
      ],
      "stateMutability": "view",
      "type": "function"
    },
    {
      "inputs": [],
      "name": "getAdminRewardList",
      "outputs": [
        {
          "components": [
            {
              "internalType": "address",
              "name": "user",
              "type": "address"
            },
            {
              "internalType": "uint256",
              "name": "weight",
              "type": "uint256"
            }
          ],
          "internalType": "struct Mint.Admin2RewardInfo[]",
          "name": "",
          "type": "tuple[]"
        }
      ],
      "stateMutability": "view",
      "type": "function"
    },
    {
      "inputs": [
        {
          "internalType": "address",
          "name": "_target",
          "type": "address"
        }
      ],
      "name": "getAdminRewardList",
      "outputs": [
        {
          "components": [
            {
              "internalType": "uint256",
              "name": "id",
              "type": "uint256"
            },
            {
              "internalType": "uint256",
              "name": "time",
              "type": "uint256"
            }
          ],
          "internalType": "struct Mint.PladgeRecord[]",
          "name": "",
          "type": "tuple[]"
        }
      ],
      "stateMutability": "view",
      "type": "function"
    },
    {
      "inputs": [
        {
          "internalType": "address",
          "name": "_target",
          "type": "address"
        }
      ],
      "name": "getAmountA",
      "outputs": [
        {
          "internalType": "uint256",
          "name": "",
          "type": "uint256"
        }
      ],
      "stateMutability": "view",
      "type": "function"
    },
    {
      "inputs": [
        {
          "internalType": "address",
          "name": "_target",
          "type": "address"
        }
      ],
      "name": "getAmountB",
      "outputs": [
        {
          "internalType": "uint256",
          "name": "",
          "type": "uint256"
        }
      ],
      "stateMutability": "view",
      "type": "function"
    },
    {
      "inputs": [
        {
          "internalType": "address",
          "name": "_target",
          "type": "address"
        }
      ],
      "name": "getAmountT",
      "outputs": [
        {
          "internalType": "uint256",
          "name": "",
          "type": "uint256"
        }
      ],
      "stateMutability": "view",
      "type": "function"
    },
    {
      "inputs": [
        {
          "internalType": "uint256",
          "name": "_time",
          "type": "uint256"
        }
      ],
      "name": "getDayPower",
      "outputs": [
        {
          "internalType": "uint256",
          "name": "",
          "type": "uint256"
        }
      ],
      "stateMutability": "view",
      "type": "function"
    },
    {
      "inputs": [],
      "name": "getElements51to550",
      "outputs": [
        {
          "components": [
            {
              "internalType": "address",
              "name": "ads",
              "type": "address"
            },
            {
              "internalType": "uint256",
              "name": "value",
              "type": "uint256"
            },
            {
              "internalType": "uint256",
              "name": "time",
              "type": "uint256"
            }
          ],
          "internalType": "struct Mint.BuyRecord[]",
          "name": "result",
          "type": "tuple[]"
        }
      ],
      "stateMutability": "view",
      "type": "function"
    },
    {
      "inputs": [],
      "name": "getFirst50Elements",
      "outputs": [
        {
          "components": [
            {
              "internalType": "address",
              "name": "ads",
              "type": "address"
            },
            {
              "internalType": "uint256",
              "name": "value",
              "type": "uint256"
            },
            {
              "internalType": "uint256",
              "name": "time",
              "type": "uint256"
            }
          ],
          "internalType": "struct Mint.BuyRecord[]",
          "name": "result",
          "type": "tuple[]"
        }
      ],
      "stateMutability": "view",
      "type": "function"
    },
    {
      "inputs": [
        {
          "internalType": "address",
          "name": "_target",
          "type": "address"
        }
      ],
      "name": "getLastTByUser",
      "outputs": [
        {
          "internalType": "uint256",
          "name": "",
          "type": "uint256"
        }
      ],
      "stateMutability": "view",
      "type": "function"
    },
    {
      "inputs": [
        {
          "internalType": "address",
          "name": "_target",
          "type": "address"
        }
      ],
      "name": "getMyInfo",
      "outputs": [
        {
          "internalType": "address",
          "name": "",
          "type": "address"
        },
        {
          "internalType": "uint256",
          "name": "",
          "type": "uint256"
        },
        {
          "internalType": "uint256",
          "name": "",
          "type": "uint256"
        },
        {
          "internalType": "uint256",
          "name": "",
          "type": "uint256"
        },
        {
          "internalType": "uint256",
          "name": "",
          "type": "uint256"
        }
      ],
      "stateMutability": "view",
      "type": "function"
    },
    {
      "inputs": [
        {
          "internalType": "address",
          "name": "_target",
          "type": "address"
        }
      ],
      "name": "getMyInfo2",
      "outputs": [
        {
          "internalType": "uint256",
          "name": "",
          "type": "uint256"
        },
        {
          "internalType": "uint256",
          "name": "",
          "type": "uint256"
        },
        {
          "internalType": "uint256",
          "name": "",
          "type": "uint256"
        },
        {
          "internalType": "uint256",
          "name": "",
          "type": "uint256"
        }
      ],
      "stateMutability": "view",
      "type": "function"
    },
    {
      "inputs": [
        {
          "internalType": "address",
          "name": "_target",
          "type": "address"
        }
      ],
      "name": "getMyTeam",
      "outputs": [
        {
          "components": [
            {
              "internalType": "uint256",
              "name": "zhi",
              "type": "uint256"
            },
            {
              "internalType": "uint256",
              "name": "tureZhi",
              "type": "uint256"
            },
            {
              "internalType": "uint256",
              "name": "team",
              "type": "uint256"
            },
            {
              "internalType": "uint256",
              "name": "trueTeam",
              "type": "uint256"
            },
            {
              "internalType": "uint256",
              "name": "teamAmount",
              "type": "uint256"
            }
          ],
          "internalType": "struct Mint.Team",
          "name": "",
          "type": "tuple"
        }
      ],
      "stateMutability": "view",
      "type": "function"
    },
    {
      "inputs": [
        {
          "internalType": "address",
          "name": "_target",
          "type": "address"
        }
      ],
      "name": "getPladeList",
      "outputs": [
        {
          "components": [
            {
              "internalType": "uint256",
              "name": "id",
              "type": "uint256"
            },
            {
              "internalType": "uint256",
              "name": "time",
              "type": "uint256"
            }
          ],
          "internalType": "struct Mint.PladgeRecord[]",
          "name": "",
          "type": "tuple[]"
        }
      ],
      "stateMutability": "view",
      "type": "function"
    },
    {
      "inputs": [
        {
          "internalType": "uint256",
          "name": "startIndex",
          "type": "uint256"
        },
        {
          "internalType": "uint256",
          "name": "endIndex",
          "type": "uint256"
        }
      ],
      "name": "getRankedAddressesByRange",
      "outputs": [
        {
          "components": [
            {
              "internalType": "address",
              "name": "user",
              "type": "address"
            },
            {
              "internalType": "uint256",
              "name": "reward",
              "type": "uint256"
            }
          ],
          "internalType": "struct Mint.RewardInfo[]",
          "name": "",
          "type": "tuple[]"
        }
      ],
      "stateMutability": "view",
      "type": "function"
    },
    {
      "inputs": [
        {
          "internalType": "address",
          "name": "_target",
          "type": "address"
        }
      ],
      "name": "getReawrd",
      "outputs": [],
      "stateMutability": "nonpayable",
      "type": "function"
    },
    {
      "inputs": [
        {
          "internalType": "address",
          "name": "_address",
          "type": "address"
        }
      ],
      "name": "getRecommend",
      "outputs": [
        {
          "internalType": "address",
          "name": "",
          "type": "address"
        }
      ],
      "stateMutability": "view",
      "type": "function"
    },
    {
      "inputs": [
        {
          "internalType": "address",
          "name": "_target",
          "type": "address"
        }
      ],
      "name": "getRewardList",
      "outputs": [
        {
          "components": [
            {
              "internalType": "uint256",
              "name": "stat",
              "type": "uint256"
            },
            {
              "internalType": "uint256",
              "name": "dyna",
              "type": "uint256"
            },
            {
              "internalType": "uint256",
              "name": "total",
              "type": "uint256"
            }
          ],
          "internalType": "struct Mint.RewardRecord[]",
          "name": "",
          "type": "tuple[]"
        }
      ],
      "stateMutability": "view",
      "type": "function"
    },
    {
      "inputs": [
        {
          "internalType": "address",
          "name": "_target",
          "type": "address"
        }
      ],
      "name": "getRewardTotal",
      "outputs": [
        {
          "internalType": "uint256",
          "name": "",
          "type": "uint256"
        }
      ],
      "stateMutability": "view",
      "type": "function"
    },
    {
      "inputs": [
        {
          "internalType": "address",
          "name": "_target",
          "type": "address"
        }
      ],
      "name": "getStatic",
      "outputs": [
        {
          "internalType": "uint256",
          "name": "",
          "type": "uint256"
        }
      ],
      "stateMutability": "view",
      "type": "function"
    },
    {
      "inputs": [
        {
          "internalType": "address",
          "name": "_target",
          "type": "address"
        }
      ],
      "name": "getSync",
      "outputs": [
        {
          "internalType": "uint256",
          "name": "",
          "type": "uint256"
        }
      ],
      "stateMutability": "view",
      "type": "function"
    },
    {
      "inputs": [],
      "name": "getTListList",
      "outputs": [
        {
          "internalType": "address[]",
          "name": "",
          "type": "address[]"
        }
      ],
      "stateMutability": "view",
      "type": "function"
    },
    {
      "inputs": [
        {
          "internalType": "uint256",
          "name": "i",
          "type": "uint256"
        }
      ],
      "name": "getTRankAddress",
      "outputs": [
        {
          "internalType": "address",
          "name": "user",
          "type": "address"
        },
        {
          "internalType": "uint256",
          "name": "reward",
          "type": "uint256"
        }
      ],
      "stateMutability": "view",
      "type": "function"
    },
    {
      "inputs": [],
      "name": "getTRankLength",
      "outputs": [
        {
          "internalType": "uint256",
          "name": "",
          "type": "uint256"
        }
      ],
      "stateMutability": "view",
      "type": "function"
    },
    {
      "inputs": [
        {
          "internalType": "address",
          "name": "_target",
          "type": "address"
        }
      ],
      "name": "getTeamList",
      "outputs": [
        {
          "internalType": "address[]",
          "name": "",
          "type": "address[]"
        }
      ],
      "stateMutability": "view",
      "type": "function"
    },
    {
      "inputs": [],
      "name": "getTime",
      "outputs": [
        {
          "internalType": "uint256",
          "name": "",
          "type": "uint256"
        }
      ],
      "stateMutability": "view",
      "type": "function"
    },
    {
      "inputs": [],
      "name": "getTimeWeek",
      "outputs": [
        {
          "internalType": "uint256",
          "name": "",
          "type": "uint256"
        }
      ],
      "stateMutability": "view",
      "type": "function"
    },
    {
      "inputs": [],
      "name": "getTodayProduceNoDecimal",
      "outputs": [
        {
          "internalType": "uint256",
          "name": "",
          "type": "uint256"
        }
      ],
      "stateMutability": "view",
      "type": "function"
    },
    {
      "inputs": [
        {
          "internalType": "uint256",
          "name": "total",
          "type": "uint256"
        }
      ],
      "name": "getTokenPriceByU",
      "outputs": [
        {
          "internalType": "uint256",
          "name": "",
          "type": "uint256"
        }
      ],
      "stateMutability": "view",
      "type": "function"
    },
    {
      "inputs": [],
      "name": "getTotalAdminWeight",
      "outputs": [
        {
          "internalType": "uint256",
          "name": "",
          "type": "uint256"
        }
      ],
      "stateMutability": "view",
      "type": "function"
    },
    {
      "inputs": [],
      "name": "getTotalT",
      "outputs": [
        {
          "internalType": "uint256",
          "name": "",
          "type": "uint256"
        }
      ],
      "stateMutability": "view",
      "type": "function"
    },
    {
      "inputs": [
        {
          "internalType": "uint256",
          "name": "total",
          "type": "uint256"
        }
      ],
      "name": "getUPriceByToken",
      "outputs": [
        {
          "internalType": "uint256",
          "name": "",
          "type": "uint256"
        }
      ],
      "stateMutability": "view",
      "type": "function"
    },
    {
      "inputs": [
        {
          "internalType": "uint256",
          "name": "weekId",
          "type": "uint256"
        }
      ],
      "name": "getWeekRankUsers",
      "outputs": [
        {
          "components": [
            {
              "internalType": "address",
              "name": "user",
              "type": "address"
            },
            {
              "internalType": "uint256",
              "name": "reward",
              "type": "uint256"
            }
          ],
          "internalType": "struct Mint.RewardInfo[]",
          "name": "",
          "type": "tuple[]"
        }
      ],
      "stateMutability": "view",
      "type": "function"
    },
    {
      "inputs": [
        {
          "internalType": "uint256",
          "name": "_time",
          "type": "uint256"
        }
      ],
      "name": "getWeekTotal",
      "outputs": [
        {
          "internalType": "uint256",
          "name": "",
          "type": "uint256"
        }
      ],
      "stateMutability": "view",
      "type": "function"
    },
    {
      "inputs": [
        {
          "internalType": "uint256",
          "name": "weekId",
          "type": "uint256"
        }
      ],
      "name": "getWeekUsers",
      "outputs": [
        {
          "internalType": "address[]",
          "name": "",
          "type": "address[]"
        }
      ],
      "stateMutability": "view",
      "type": "function"
    },
    {
      "inputs": [],
      "name": "initialize",
      "outputs": [],
      "stateMutability": "nonpayable",
      "type": "function"
    },
    {
      "inputs": [
        {
          "internalType": "uint256",
          "name": "",
          "type": "uint256"
        },
        {
          "internalType": "address",
          "name": "",
          "type": "address"
        }
      ],
      "name": "lastReward",
      "outputs": [
        {
          "internalType": "uint256",
          "name": "",
          "type": "uint256"
        }
      ],
      "stateMutability": "view",
      "type": "function"
    },
    {
      "inputs": [],
      "name": "lastTotalT",
      "outputs": [
        {
          "internalType": "uint256",
          "name": "",
          "type": "uint256"
        }
      ],
      "stateMutability": "view",
      "type": "function"
    },
    {
      "inputs": [],
      "name": "lastdayPower",
      "outputs": [
        {
          "internalType": "uint256",
          "name": "",
          "type": "uint256"
        }
      ],
      "stateMutability": "view",
      "type": "function"
    },
    {
      "inputs": [],
      "name": "lastdaydayPower",
      "outputs": [
        {
          "internalType": "uint256",
          "name": "",
          "type": "uint256"
        }
      ],
      "stateMutability": "view",
      "type": "function"
    },
    {
      "inputs": [
        {
          "internalType": "address",
          "name": "_operAddress",
          "type": "address"
        },
        {
          "internalType": "uint256",
          "name": "_id",
          "type": "uint256"
        }
      ],
      "name": "mining",
      "outputs": [],
      "stateMutability": "nonpayable",
      "type": "function"
    },
    {
      "inputs": [
        {
          "internalType": "address",
          "name": "operator",
          "type": "address"
        },
        {
          "internalType": "address",
          "name": "from",
          "type": "address"
        },
        {
          "internalType": "uint256[]",
          "name": "ids",
          "type": "uint256[]"
        },
        {
          "internalType": "uint256[]",
          "name": "values",
          "type": "uint256[]"
        },
        {
          "internalType": "bytes",
          "name": "data",
          "type": "bytes"
        }
      ],
      "name": "onERC1155BatchReceived",
      "outputs": [
        {
          "internalType": "bytes4",
          "name": "",
          "type": "bytes4"
        }
      ],
      "stateMutability": "nonpayable",
      "type": "function"
    },
    {
      "inputs": [
        {
          "internalType": "address",
          "name": "operator",
          "type": "address"
        },
        {
          "internalType": "address",
          "name": "from",
          "type": "address"
        },
        {
          "internalType": "uint256",
          "name": "id",
          "type": "uint256"
        },
        {
          "internalType": "uint256",
          "name": "value",
          "type": "uint256"
        },
        {
          "internalType": "bytes",
          "name": "data",
          "type": "bytes"
        }
      ],
      "name": "onERC1155Received",
      "outputs": [
        {
          "internalType": "bytes4",
          "name": "",
          "type": "bytes4"
        }
      ],
      "stateMutability": "nonpayable",
      "type": "function"
    },
    {
      "inputs": [],
      "name": "owner",
      "outputs": [
        {
          "internalType": "address",
          "name": "",
          "type": "address"
        }
      ],
      "stateMutability": "view",
      "type": "function"
    },
    {
      "inputs": [
        {
          "internalType": "address",
          "name": "",
          "type": "address"
        },
        {
          "internalType": "uint256",
          "name": "",
          "type": "uint256"
        }
      ],
      "name": "pladeList",
      "outputs": [
        {
          "internalType": "uint256",
          "name": "id",
          "type": "uint256"
        },
        {
          "internalType": "uint256",
          "name": "time",
          "type": "uint256"
        }
      ],
      "stateMutability": "view",
      "type": "function"
    },
    {
      "inputs": [
        {
          "internalType": "uint256",
          "name": "",
          "type": "uint256"
        }
      ],
      "name": "powerInfo",
      "outputs": [
        {
          "internalType": "uint256",
          "name": "",
          "type": "uint256"
        }
      ],
      "stateMutability": "view",
      "type": "function"
    },
    {
      "inputs": [],
      "name": "proxiableUUID",
      "outputs": [
        {
          "internalType": "bytes32",
          "name": "",
          "type": "bytes32"
        }
      ],
      "stateMutability": "view",
      "type": "function"
    },
    {
      "inputs": [
        {
          "internalType": "address",
          "name": "_target",
          "type": "address"
        },
        {
          "internalType": "uint256",
          "name": "_amount",
          "type": "uint256"
        }
      ],
      "name": "queryReawrd70",
      "outputs": [
        {
          "internalType": "uint256",
          "name": "res",
          "type": "uint256"
        }
      ],
      "stateMutability": "view",
      "type": "function"
    },
    {
      "inputs": [
        {
          "internalType": "address",
          "name": "",
          "type": "address"
        }
      ],
      "name": "recommend",
      "outputs": [
        {
          "internalType": "address",
          "name": "",
          "type": "address"
        }
      ],
      "stateMutability": "view",
      "type": "function"
    },
    {
      "inputs": [],
      "name": "renounceOwnership",
      "outputs": [],
      "stateMutability": "nonpayable",
      "type": "function"
    },
    {
      "inputs": [
        {
          "internalType": "address",
          "name": "",
          "type": "address"
        },
        {
          "internalType": "uint256",
          "name": "",
          "type": "uint256"
        }
      ],
      "name": "rewardList",
      "outputs": [
        {
          "internalType": "uint256",
          "name": "stat",
          "type": "uint256"
        },
        {
          "internalType": "uint256",
          "name": "dyna",
          "type": "uint256"
        },
        {
          "internalType": "uint256",
          "name": "total",
          "type": "uint256"
        }
      ],
      "stateMutability": "view",
      "type": "function"
    },
    {
      "inputs": [
        {
          "internalType": "address",
          "name": "",
          "type": "address"
        }
      ],
      "name": "rewardTotalAmount",
      "outputs": [
        {
          "internalType": "uint256",
          "name": "",
          "type": "uint256"
        }
      ],
      "stateMutability": "view",
      "type": "function"
    },
    {
      "inputs": [
        {
          "internalType": "address",
          "name": "_target",
          "type": "address"
        }
      ],
      "name": "setNFT",
      "outputs": [],
      "stateMutability": "nonpayable",
      "type": "function"
    },
    {
      "inputs": [
        {
          "internalType": "uint256",
          "name": "time",
          "type": "uint256"
        },
        {
          "internalType": "uint256",
          "name": "amount",
          "type": "uint256"
        }
      ],
      "name": "setPow",
      "outputs": [],
      "stateMutability": "nonpayable",
      "type": "function"
    },
    {
      "inputs": [
        {
          "internalType": "uint256",
          "name": "fee",
          "type": "uint256"
        }
      ],
      "name": "setPowerFee",
      "outputs": [],
      "stateMutability": "nonpayable",
      "type": "function"
    },
    {
      "inputs": [
        {
          "internalType": "address",
          "name": "_target",
          "type": "address"
        }
      ],
      "name": "setSwapContractAddress",
      "outputs": [],
      "stateMutability": "nonpayable",
      "type": "function"
    },
    {
      "inputs": [
        {
          "internalType": "address",
          "name": "_target",
          "type": "address"
        }
      ],
      "name": "setTargetAddress20",
      "outputs": [],
      "stateMutability": "nonpayable",
      "type": "function"
    },
    {
      "inputs": [
        {
          "internalType": "address",
          "name": "_target",
          "type": "address"
        }
      ],
      "name": "setTargetAddress5",
      "outputs": [],
      "stateMutability": "nonpayable",
      "type": "function"
    },
    {
      "inputs": [
        {
          "internalType": "address",
          "name": "_target",
          "type": "address"
        }
      ],
      "name": "setToken",
      "outputs": [],
      "stateMutability": "nonpayable",
      "type": "function"
    },
    {
      "inputs": [],
      "name": "size",
      "outputs": [
        {
          "internalType": "uint256",
          "name": "",
          "type": "uint256"
        }
      ],
      "stateMutability": "view",
      "type": "function"
    },
    {
      "inputs": [],
      "name": "sortTList",
      "outputs": [],
      "stateMutability": "nonpayable",
      "type": "function"
    },
    {
      "inputs": [],
      "name": "sortWeekReward",
      "outputs": [],
      "stateMutability": "nonpayable",
      "type": "function"
    },
    {
      "inputs": [],
      "name": "start",
      "outputs": [
        {
          "internalType": "uint256",
          "name": "",
          "type": "uint256"
        }
      ],
      "stateMutability": "view",
      "type": "function"
    },
    {
      "inputs": [
        {
          "internalType": "bytes4",
          "name": "interfaceId",
          "type": "bytes4"
        }
      ],
      "name": "supportsInterface",
      "outputs": [
        {
          "internalType": "bool",
          "name": "",
          "type": "bool"
        }
      ],
      "stateMutability": "view",
      "type": "function"
    },
    {
      "inputs": [
        {
          "internalType": "uint256",
          "name": "",
          "type": "uint256"
        }
      ],
      "name": "tList",
      "outputs": [
        {
          "internalType": "address",
          "name": "",
          "type": "address"
        }
      ],
      "stateMutability": "view",
      "type": "function"
    },
    {
      "inputs": [
        {
          "internalType": "uint256",
          "name": "",
          "type": "uint256"
        }
      ],
      "name": "tRankAddress",
      "outputs": [
        {
          "internalType": "address",
          "name": "user",
          "type": "address"
        },
        {
          "internalType": "uint256",
          "name": "reward",
          "type": "uint256"
        }
      ],
      "stateMutability": "view",
      "type": "function"
    },
    {
      "inputs": [
        {
          "internalType": "address",
          "name": "",
          "type": "address"
        }
      ],
      "name": "tReward",
      "outputs": [
        {
          "internalType": "uint256",
          "name": "",
          "type": "uint256"
        }
      ],
      "stateMutability": "view",
      "type": "function"
    },
    {
      "inputs": [
        {
          "internalType": "address",
          "name": "",
          "type": "address"
        },
        {
          "internalType": "uint256",
          "name": "",
          "type": "uint256"
        }
      ],
      "name": "teamList",
      "outputs": [
        {
          "internalType": "address",
          "name": "",
          "type": "address"
        }
      ],
      "stateMutability": "view",
      "type": "function"
    },
    {
      "inputs": [],
      "name": "todayProduce",
      "outputs": [
        {
          "internalType": "uint256",
          "name": "",
          "type": "uint256"
        }
      ],
      "stateMutability": "view",
      "type": "function"
    },
    {
      "inputs": [],
      "name": "totalAdminWeight",
      "outputs": [
        {
          "internalType": "uint256",
          "name": "",
          "type": "uint256"
        }
      ],
      "stateMutability": "view",
      "type": "function"
    },
    {
      "inputs": [],
      "name": "totalT500",
      "outputs": [
        {
          "internalType": "uint256",
          "name": "",
          "type": "uint256"
        }
      ],
      "stateMutability": "view",
      "type": "function"
    },
    {
      "inputs": [
        {
          "internalType": "address",
          "name": "newOwner",
          "type": "address"
        }
      ],
      "name": "transferOwnership",
      "outputs": [],
      "stateMutability": "nonpayable",
      "type": "function"
    },
    {
      "inputs": [
        {
          "internalType": "address",
          "name": "_target",
          "type": "address"
        }
      ],
      "name": "updateT",
      "outputs": [],
      "stateMutability": "nonpayable",
      "type": "function"
    },
    {
      "inputs": [
        {
          "internalType": "address",
          "name": "newImplementation",
          "type": "address"
        },
        {
          "internalType": "bytes",
          "name": "data",
          "type": "bytes"
        }
      ],
      "name": "upgradeToAndCall",
      "outputs": [],
      "stateMutability": "payable",
      "type": "function"
    },
    {
      "inputs": [
        {
          "internalType": "uint256",
          "name": "",
          "type": "uint256"
        },
        {
          "internalType": "uint256",
          "name": "",
          "type": "uint256"
        }
      ],
      "name": "weekRankAddress",
      "outputs": [
        {
          "internalType": "address",
          "name": "user",
          "type": "address"
        },
        {
          "internalType": "uint256",
          "name": "reward",
          "type": "uint256"
        }
      ],
      "stateMutability": "view",
      "type": "function"
    },
    {
      "inputs": [
        {
          "internalType": "uint256",
          "name": "",
          "type": "uint256"
        },
        {
          "internalType": "address",
          "name": "",
          "type": "address"
        }
      ],
      "name": "weekReward",
      "outputs": [
        {
          "internalType": "uint256",
          "name": "",
          "type": "uint256"
        }
      ],
      "stateMutability": "view",
      "type": "function"
    },
    {
      "inputs": [
        {
          "internalType": "uint256",
          "name": "",
          "type": "uint256"
        }
      ],
      "name": "weekTotal",
      "outputs": [
        {
          "internalType": "uint256",
          "name": "",
          "type": "uint256"
        }
      ],
      "stateMutability": "view",
      "type": "function"
    },
    {
      "inputs": [
        {
          "internalType": "uint256",
          "name": "",
          "type": "uint256"
        },
        {
          "internalType": "uint256",
          "name": "",
          "type": "uint256"
        }
      ],
      "name": "weekUsers",
      "outputs": [
        {
          "internalType": "address",
          "name": "",
          "type": "address"
        }
      ],
      "stateMutability": "view",
      "type": "function"
    }
  ],
  "bytecode": "0x60a0604052306080526000600b819055600c819055600d5534801561002357600080fd5b5061002c610031565b6100e3565b7ff0c57e16840df040f15088dc2f81fe391c3923bec73e23a9662efc9c229c6a00805468010000000000000000900460ff16156100815760405163f92ee8a960e01b815260040160405180910390fd5b80546001600160401b03908116146100e05780546001600160401b0319166001600160401b0390811782556040519081527fc7f505b2f371ae2175ee4913f4499e1f2633a7b5936321eed1cdaeb6115181d29060200160405180910390a15b50565b6080516161d861010c600039600081816151620152818161518b015261530901526161d86000f3fe6080604052600436106106865760003560e01c806381ca6d0811610359578063c4dcad1d116101c6578063d88be3c011610102578063e5194d51116100a0578063efbe1c1c1161007a578063efbe1c1c146117c5578063f23a6e61146117db578063f2fde38b14611821578063f56e9c661461184157600080fd5b8063e5194d5114611736578063ecd0c0c31461176f578063ed87ecaf1461178f57600080fd5b8063dbd2a07e116100dc578063dbd2a07e14611657578063e01fe64d1461166c578063e31e0d14146116a4578063e44e1d2e146116c457600080fd5b8063d88be3c0146115c6578063d9b86484146115fc578063daef40791461161c57600080fd5b8063d09f13441161016f578063d34f730a11610149578063d34f730a1461154e578063d49d518114611570578063d4f3ddcd14611586578063d85cd275146115a657600080fd5b8063d09f1344146114e1578063d1ec9f1414611501578063d2557be01461152157600080fd5b8063ca7b942a116101a0578063ca7b942a1461145a578063cc90f5cd1461146f578063cefb762d1461149c57600080fd5b8063c4dcad1d146113fa578063c8898a6d1461141a578063c8e31d171461143a57600080fd5b8063a0ab0d7211610295578063b370e9ac1161023e578063bde6ac2111610218578063bde6ac2114611377578063be43be02146113a4578063be9a6555146113c4578063bf4b4198146113da57600080fd5b8063b370e9ac146112b4578063b633e4cd146112f6578063bc197c811461131657600080fd5b8063ad3cb1cc1161026f578063ad3cb1cc1461121e578063b0e59cf514611274578063b34d30ca1461129457600080fd5b8063a0ab0d721461117a578063a5a6c64f146111dc578063a72db85d146111f157600080fd5b806391d19dd31161030257806396a1d75e116102dc57806396a1d75e146110d757806398300e181461110457806399c133b7146111245780639c6a642a1461114457600080fd5b806391d19dd31461100d57806392dfc90c146110ac578063949d225d146110c157600080fd5b80638c4d1904116103335780638c4d190414610fa55780638da5cb5b14610fba5780638f04f31014610ff757600080fd5b806381ca6d0814610f4557806382fba86f14610f6557806387c3df1c14610f8557600080fd5b8063472c00a9116104f7578063608f8cc61161043357806375dff622116103dc57806379aeccd2116103b657806379aeccd214610ee45780637b959a1314610efa578063810dfcb714610f1a5780638129fc1c14610f3057600080fd5b806375dff62214610e845780637759db2e14610eb95780637775ccd714610ece57600080fd5b80636dafe92b1161040d5780636dafe92b14610e2f5780636faaf22314610e4f578063715018a614610e6f57600080fd5b8063608f8cc614610d5857806361d7c17114610d785780636ca7f0a614610e0f57600080fd5b806351d65da9116104a0578063557ed1ba1161047a578063557ed1ba14610c58578063574e2f1814610c6d578063593439cd14610c8d5780635e91164314610cc957600080fd5b806351d65da914610c0e57806352d1902d14610c235780635441833d14610c3857600080fd5b80634e7c914a116104d15780634e7c914a14610ba35780634f1ef28614610bc3578063509e7b5414610bd657600080fd5b8063472c00a914610b40578063479c4a2f14610b6d5780634b374c9014610b8357600080fd5b80631fe6bbcd116105c6578063374082ab1161056f578063445ad75011610549578063445ad75014610a9f57806344ab55e614610ade57806344c0cfb414610b0b5780634651843e14610b2b57600080fd5b8063374082ab14610a3a578063393a377714610a5c5780633e7ce72314610a7257600080fd5b806329b35e43116105a057806329b35e43146109cd5780632ad15386146109fa57806332a1fab814610a1a57600080fd5b80631fe6bbcd14610945578063206c17bb1461098057806325a90417146109a057600080fd5b80630aa7afb011610633578063122f0c941161060d578063122f0c94146108d0578063125bfb66146108f0578063144fa6d7146109105780631e6198291461093057600080fd5b80630aa7afb01461086c5780630c495f0f1461089057806310e3b149146108b057600080fd5b80630615be2e116106645780630615be2e1461073d5780630a32bf36146107525780630a47dcc01461083457600080fd5b806301449b4f1461068b57806301890b65146106c157806301ffc9a7146106e3575b600080fd5b34801561069757600080fd5b506106ab6106a6366004615966565b611861565b6040516106b89190615981565b60405180910390f35b3480156106cd57600080fd5b506106e16106dc366004615966565b6118d7565b005b3480156106ef57600080fd5b5061072d6106fe3660046159ce565b6001600160e01b0319167f01ffc9a7000000000000000000000000000000000000000000000000000000001490565b60405190151581526020016106b8565b34801561074957600080fd5b506106e1611e44565b34801561075e57600080fd5b5061080261076d366004615966565b6001600160a01b039081166000908152600f60209081526040808320546011835292819020815161010081018352815460ff16151581526001820154938101849052600282015492810183905260038201546060820181905260048301546080830152600583015460a08301819052600684015460c084015260079093015460e0909201919091529390941694909391929190565b604080516001600160a01b0390961686526020860194909452928401919091526060830152608082015260a0016106b8565b34801561084057600080fd5b5061085461084f3660046159f8565b612560565b6040516001600160a01b0390911681526020016106b8565b34801561087857600080fd5b5061088260075481565b6040519081526020016106b8565b34801561089c57600080fd5b506106e16108ab3660046159f8565b612598565b3480156108bc57600080fd5b506108826108cb3660046159f8565b6125b2565b3480156108dc57600080fd5b506108546108eb366004615a1a565b6125e4565b3480156108fc57600080fd5b506106e161090b366004615a33565b61260f565b34801561091c57600080fd5b506106e161092b366004615966565b612690565b34801561093c57600080fd5b506108826126ba565b34801561095157600080fd5b50610965610960366004615a6f565b6126d0565b604080519384526020840192909252908201526060016106b8565b34801561098c57600080fd5b50602454610854906001600160a01b031681565b3480156109ac57600080fd5b506108826109bb366004615a1a565b6000908152601b602052604090205490565b3480156109d957600080fd5b506108826109e8366004615966565b60196020526000908152604090205481565b348015610a0657600080fd5b506106e1610a15366004615966565b612711565b348015610a2657600080fd5b50610882610a35366004615a6f565b61273b565b348015610a4657600080fd5b50610a4f6127c2565b6040516106b89190615a99565b348015610a6857600080fd5b5061088260055481565b348015610a7e57600080fd5b50610a92610a8d366004615966565b6128cb565b6040516106b89190615afb565b348015610aab57600080fd5b50610abf610aba366004615a1a565b61295c565b604080516001600160a01b0390931683526020830191909152016106b8565b348015610aea57600080fd5b50610afe610af9366004615966565b612994565b6040516106b89190615b47565b348015610b1757600080fd5b50610abf610b26366004615a1a565b612a12565b348015610b3757600080fd5b506106e1612a74565b348015610b4c57600080fd5b50610882610b5b366004615a1a565b601c6020526000908152604090205481565b348015610b7957600080fd5b50610882600a5481565b348015610b8f57600080fd5b506106e1610b9e366004615b89565b612bcc565b348015610baf57600080fd5b50610882610bbe366004615966565b612c8e565b6106e1610bd1366004615c12565b612d15565b348015610be257600080fd5b50610882610bf1366004615cb8565b601660209081526000928352604080842090915290825290205481565b348015610c1a57600080fd5b506106ab612d34565b348015610c2f57600080fd5b50610882612d97565b348015610c4457600080fd5b506106e1610c53366004615966565b612dc6565b348015610c6457600080fd5b50600e54610882565b348015610c7957600080fd5b506106e1610c88366004615a6f565b612df0565b348015610c9957600080fd5b50610965610ca8366004615a1a565b60106020526000908152604090208054600182015460029092015490919083565b348015610cd557600080fd5b50610d38610ce4366004615966565b6001600160a01b031660009081526012602090815260409182902082516080810184528154808252600183015493820184905260028301549482018590526003909201546060909101819052919390929190565b6040805194855260208501939093529183015260608201526080016106b8565b348015610d6457600080fd5b506106e1610d73366004615966565b612ea9565b348015610d8457600080fd5b50610882610d93366004615966565b6001600160a01b0316600090815260116020908152604091829020825161010081018452815460ff161515815260018201549281018390526002820154938101939093526003810154606084015260048101546080840152600581015460a0840152600681015460c08401526007015460e09092019190915290565b348015610e1b57600080fd5b50600354610854906001600160a01b031681565b348015610e3b57600080fd5b50610882610e4a366004615966565b612f8b565b348015610e5b57600080fd5b506106e1610e6a366004615966565b61306c565b348015610e7b57600080fd5b506106e1613096565b348015610e9057600080fd5b50610ea4610e9f366004615a6f565b6130aa565b604080519283526020830191909152016106b8565b348015610ec557600080fd5b506106e16130e6565b348015610eda57600080fd5b50610882601a5481565b348015610ef057600080fd5b5061088260095481565b348015610f0657600080fd5b50610882610f15366004615966565b6135b5565b348015610f2657600080fd5b5061088260065481565b348015610f3c57600080fd5b506106e16136e8565b348015610f5157600080fd5b50610abf610f603660046159f8565b613c1a565b348015610f7157600080fd5b506106ab610f80366004615a1a565b613c60565b348015610f9157600080fd5b50610854610fa0366004615a6f565b613cca565b348015610fb157600080fd5b50602254610882565b348015610fc657600080fd5b507f9016d09d72d40fdae2fd8ceac6b6234c7706214fd39c1cd1e609a0528c199300546001600160a01b0316610854565b34801561100357600080fd5b5061088260085481565b34801561101957600080fd5b5061106f611028366004615966565b6011602052600090815260409020805460018201546002830154600384015460048501546005860154600687015460079097015460ff909616969495939492939192909188565b6040805198151589526020890197909752958701949094526060860192909252608085015260a084015260c083015260e0820152610100016106b8565b3480156110b857600080fd5b50601a54610882565b3480156110cd57600080fd5b50610882600d5481565b3480156110e357600080fd5b506108826110f2366004615a1a565b6000908152601c602052604090205490565b34801561111057600080fd5b50600254610854906001600160a01b031681565b34801561113057600080fd5b506106e161113f366004615a1a565b613ce6565b34801561115057600080fd5b5061088261115f366004615966565b6001600160a01b031660009081526018602052604090205490565b34801561118657600080fd5b5061119a611195366004615966565b613cf3565b6040516106b89190600060a082019050825182526020830151602083015260408301516040830152606083015160608301526080830151608083015292915050565b3480156111e857600080fd5b50610882613d7d565b3480156111fd57600080fd5b5061121161120c366004615a1a565b613d95565b6040516106b89190615ce4565b34801561122a57600080fd5b506112676040518060400160405280600581526020017f352e302e3000000000000000000000000000000000000000000000000000000081525081565b6040516106b89190615d5b565b34801561128057600080fd5b5061088261128f366004615a1a565b613e12565b3480156112a057600080fd5b506106e16112af366004615a6f565b613e9e565b3480156112c057600080fd5b50610d386112cf366004615966565b60126020526000908152604090208054600182015460028301546003909301549192909184565b34801561130257600080fd5b506106e1611311366004615966565b613fbb565b34801561132257600080fd5b5061135e611331366004615e1c565b7fbc197c810000000000000000000000000000000000000000000000000000000098975050505050505050565b6040516001600160e01b031990911681526020016106b8565b34801561138357600080fd5b50610882611392366004615966565b60176020526000908152604090205481565b3480156113b057600080fd5b50610abf6113bf366004615a1a565b613ff8565b3480156113d057600080fd5b50610882600b5481565b3480156113e657600080fd5b50600454610854906001600160a01b031681565b34801561140657600080fd5b506106e1611415366004615a6f565b614009565b34801561142657600080fd5b506106e1611435366004615ed7565b6141bb565b34801561144657600080fd5b506106e1611455366004615a6f565b6142ba565b34801561146657600080fd5b50610a4f6143aa565b34801561147b57600080fd5b5061088261148a366004615a1a565b601b6020526000908152604090205481565b3480156114a857600080fd5b506114bc6114b7366004615a1a565b6144a0565b604080516001600160a01b0390941684526020840192909252908201526060016106b8565b3480156114ed57600080fd5b50610ea46114fc366004615a6f565b6144d2565b34801561150d57600080fd5b506106e161151c366004615f96565b6144ee565b34801561152d57600080fd5b5061088261153c366004615966565b60186020526000908152604090205481565b34801561155a57600080fd5b506115636145c0565b6040516106b89190615fc0565b34801561157c57600080fd5b5061088260001981565b34801561159257600080fd5b506108826115a1366004615a1a565b614636565b3480156115b257600080fd5b506112116115c13660046159f8565b6146b9565b3480156115d257600080fd5b506108546115e1366004615966565b600f602052600090815260409020546001600160a01b031681565b34801561160857600080fd5b50610882611617366004615966565b6147df565b34801561162857600080fd5b5061072d611637366004615cb8565b601d60209081526000928352604080842090915290825290205460ff1681565b34801561166357600080fd5b50600954610882565b34801561167857600080fd5b50610882611687366004615cb8565b601560209081526000928352604080842090915290825290205481565b3480156116b057600080fd5b50610afe6116bf366004615966565b6149a0565b3480156116d057600080fd5b5061170e6116df366004615966565b601360205260009081526040902080546001820154600283015460038401546004909401549293919290919085565b604080519586526020860194909452928401919091526060830152608082015260a0016106b8565b34801561174257600080fd5b50610854611751366004615966565b6001600160a01b039081166000908152600f60205260409020541690565b34801561177b57600080fd5b50600154610854906001600160a01b031681565b34801561179b57600080fd5b506108826117aa366004615966565b6001600160a01b031660009081526019602052604090205490565b3480156117d157600080fd5b50610882600c5481565b3480156117e757600080fd5b5061135e6117f6366004616013565b7ff23a6e61000000000000000000000000000000000000000000000000000000009695505050505050565b34801561182d57600080fd5b506106e161183c366004615966565b614a1b565b34801561184d57600080fd5b506106e161185c366004615966565b614a6f565b6001600160a01b0381166000908152601460209081526040918290208054835181840281018401909452808452606093928301828280156118cb57602002820191906000526020600020905b81546001600160a01b031681526001909101906020018083116118ad575b50505050509050919050565b6001600160a01b038116600090815260116020526040902060038101546119455760405162461bcd60e51b815260206004820152600960248201527f6e6f20726577617264000000000000000000000000000000000000000000000060448201526064015b60405180910390fd5b805460ff166119965760405162461bcd60e51b815260206004820152600c60248201527f737461747573206572726f720000000000000000000000000000000000000000604482015260640161193c565b600e548160040154106119eb5760405162461bcd60e51b815260206004820152600e60248201527f6e6f207265776172642074696d65000000000000000000000000000000000000604482015260640161193c565b60006119fb838360030154614a99565b905081600301548111611a0e5780611a14565b81600301545b905080826003016000828254611a2a91906160a1565b90915550506003820154611a4157815460ff191682555b6001546003546001600160a01b039182169163a9059cbb9116611a656005856160ca565b6040516001600160e01b031960e085901b1681526001600160a01b03909216600483015260248201526044016020604051808303816000875af1158015611ab0573d6000803e3d6000fd5b505050506040513d601f19601f82011682018060405250810190611ad491906160de565b506001546004546001600160a01b039182169163a9059cbb9116611af96014856160ca565b6040516001600160e01b031960e085901b1681526001600160a01b03909216600483015260248201526044016020604051808303816000875af1158015611b44573d6000803e3d6000fd5b505050506040513d601f19601f82011682018060405250810190611b6891906160de565b506001600160a01b0383166000908152601260205260409020805415611c0757600154815460405163a9059cbb60e01b81526001600160a01b038781166004830152602482019290925291169063a9059cbb906044016020604051808303816000875af1158015611bdd573d6000803e3d6000fd5b505050506040513d601f19601f82011682018060405250810190611c0191906160de565b50600081555b600181015415611c9657600180549082015460405163a9059cbb60e01b81526001600160a01b038781166004830152602482019290925291169063a9059cbb906044016020604051808303816000875af1158015611c69573d6000803e3d6000fd5b505050506040513d601f19601f82011682018060405250810190611c8d91906160de565b50600060018201555b600281015415611d2557600154600282015460405163a9059cbb60e01b81526001600160a01b038781166004830152602482019290925291169063a9059cbb906044016020604051808303816000875af1158015611cf8573d6000803e3d6000fd5b505050506040513d601f19601f82011682018060405250810190611d1c91906160de565b50600060028201555b600381015415611e0457600154600382015460405163a9059cbb60e01b81526001600160a01b038781166004830152602482019290925291169063a9059cbb906044016020604051808303816000875af1158015611d87573d6000803e3d6000fd5b505050506040513d601f19601f82011682018060405250810190611dab91906160de565b506001600160a01b03841660009081526021602090815260408083208151808301909252600385018054835242838501908152825460018181018555938752948620935160029095029093019384559151920191909155555b5050600e80546000908152601d602090815260408083206001600160a01b03909616835294905292909220805460ff191660011790559054600490910155565b6106975460008167ffffffffffffffff811115611e6357611e63615bcb565b604051908082528060200260200182016040528015611ea857816020015b6040805180820190915260008082526020820152815260200190600190039081611e815790505b50905060005b82811015611f2e5760006106978281548110611ecc57611ecc616100565b60009182526020808320909101546040805180820182526001600160a01b039092168083528085526017845293205491810191909152845191925090849084908110611f1a57611f1a616100565b602090810291909101015250600101611eae565b5060005b815181101561203b5760005b60018351611f4c91906160a1565b8110156120325782611f5f826001616116565b81518110611f6f57611f6f616100565b602002602001015160200151838281518110611f8d57611f8d616100565b602002602001015160200151101561202a576000838281518110611fb357611fb3616100565b6020026020010151905083826001611fcb9190616116565b81518110611fdb57611fdb616100565b6020026020010151848381518110611ff557611ff5616100565b6020908102919091010152808461200d846001616116565b8151811061201d5761201d616100565b6020026020010181905250505b600101611f3e565b50600101611f32565b506000600781905561204f90602290615904565b60006101f4825111612062578151612066565b6101f45b905060005b8181101561216957602283828151811061208757612087616100565b602090810291909101810151825460018082018555600094855293839020825160029092020180546001600160a01b0319166001600160a01b0390921691909117815591015191015582518390829081106120e4576120e4616100565b602002602001015160200151600760008282546121019190616116565b9250508190555060006011600085848151811061212057612120616100565b6020026020010151600001516001600160a01b03166001600160a01b03168152602001908152602001600020905081600161215b9190616116565b60059091015560010161206b565b506022541580159061217d57506000600754115b1561255b5769943b1377290cbd8000006000805b6022548110156122195760126000602283815481106121b2576121b2616100565b600091825260208083206002909202909101546001600160a01b031683528201929092526040019020602254909250601490600a6121f1866003616129565b6121fb91906160ca565b61220591906160ca565b61220f91906160ca565b8255600101612191565b5060075415612558576000612230600060316146b9565b905060005b81518110156123375760006001600160a01b031682828151811061225b5761225b616100565b6020026020010151600001516001600160a01b03161461232f576012600083838151811061228b5761228b616100565b6020026020010151600001516001600160a01b03166001600160a01b03168152602001908152602001600020925060075460646014600a878686815181106122d5576122d5616100565b6020026020010151602001516122eb9190616129565b6122f690602d616129565b612301906007616129565b61230b91906160ca565b61231591906160ca565b61231f91906160ca565b61232991906160ca565b60018401555b600101612235565b50612344603260c76146b9565b905060005b815181101561244b5760006001600160a01b031682828151811061236f5761236f616100565b6020026020010151600001516001600160a01b031614612443576012600083838151811061239f5761239f616100565b6020026020010151600001516001600160a01b03166001600160a01b03168152602001908152602001600020925060075460646014600a878686815181106123e9576123e9616100565b6020026020010151602001516123ff9190616129565b61240a906023616129565b612415906007616129565b61241f91906160ca565b61242991906160ca565b61243391906160ca565b61243d91906160ca565b60018401555b600101612349565b5061245960c86101f36146b9565b905060005b81518110156125555760006001600160a01b031682828151811061248457612484616100565b6020026020010151600001516001600160a01b03161461254d57601260008383815181106124b4576124b4616100565b6020026020010151600001516001600160a01b03166001600160a01b03168152602001908152602001600020925060075460056014600a878686815181106124fe576124fe616100565b6020026020010151602001516125149190616129565b61251f906007616129565b61252991906160ca565b61253391906160ca565b61253d91906160ca565b61254791906160ca565b60018401555b60010161245e565b50505b50505b505050565b6023602052816000526040600020818154811061257c57600080fd5b6000918252602090912001546001600160a01b03169150829050565b6125a0614dad565b6000918252601c602052604090912055565b6000806125bf84846160a1565b90506000846125cf836064616129565b6125d991906160ca565b925050505b92915050565b61069781815481106125f557600080fd5b6000918252602090912001546001600160a01b0316905081565b612617614dad565b60405163a9059cbb60e01b81526001600160a01b0384811660048301526024820183905283169063a9059cbb906044016020604051808303816000875af1158015612666573d6000803e3d6000fd5b505050506040513d601f19601f8201168201806040525081019061268a91906160de565b50505050565b612698614dad565b600180546001600160a01b0319166001600160a01b0392909216919091179055565b60006007600e546126cb91906160ca565b905090565b6020805281600052604060002081815481106126eb57600080fd5b600091825260209091206003909102018054600182015460029092015490935090915083565b612719614dad565b600380546001600160a01b0319166001600160a01b0392909216919091179055565b600080612747846135b5565b9050809150600061275785612f8b565b9050600080601a5411156127af57601a546103e8906127768785616129565b612781906007616129565b61278c906023616129565b61279691906160ca565b6127a091906160ca565b90506127ac8185616116565b93505b6127b884614636565b9695505050505050565b604080516101f4808252613ea082019092526060916102269181816020015b61280e604051806060016040528060006001600160a01b0316815260200160008152602001600081525090565b8152602001906001900390816127e157905050925060005b818110156128c55760256103e882600b5460326128439190616116565b61284d9190616116565b6128579190616140565b610226811061286857612868616100565b604080516060810182526003929092029290920180546001600160a01b0316825260018101546020830152600201549181019190915284518590839081106128b2576128b2616100565b6020908102919091010152600101612826565b50505090565b6001600160a01b038116600090815260208080526040808320805482518185028101850190935280835260609492939192909184015b828210156129515783829060005260206000209060030201604051806060016040529081600082015481526020016001820154815260200160028201548152505081526020019060010190612901565b505050509050919050565b6022818154811061296c57600080fd5b6000918252602090912060029091020180546001909101546001600160a01b03909116915082565b6001600160a01b0381166000908152601f60209081526040808320805482518185028101850190935280835260609492939192909184015b82821015612951578382906000526020600020906002020160405180604001604052908160008201548152602001600182015481525050815260200190600101906129cc565b60008060228381548110612a2857612a28616100565b6000918252602090912060029091020154602280546001600160a01b039092169185908110612a5957612a59616100565b90600052602060002090600202016001015491509150915091565b6002600e541115612b8057601c60006002600e54612a9291906160a1565b815260200190815260200160002054600681905550601c60006001600e54612aba91906160a1565b8152602081019190915260400160002054600581905560065411801590612ae2575060065415155b8015612aef575060055415155b15612b80576000612b046006546005546125b2565b9050603c8110612b7e57600a612b1b603c836160a1565b612b2591906160ca565b612b30906001616116565b612b449069043c33c1937564800000616129565b600a54612b519190616116565b600a8190556969e10de76676d080000010612b6e57600a54612b7a565b6969e10de76676d08000005b600a555b505b600e8054906000612b9083616154565b9190505550601c60006001600e54612ba891906160a1565b81526020808201929092526040908101600090812054600e548252601c9093522055565b612bd4614dad565b612bde84846144ee565b60006040518060600160405280848152602001838152602001600a8152509050612c088582614e21565b6001600160a01b038086166000908152600f6020526040902054168015612c3757612c378183600001516150fa565b505060408051808201825260008082524260208084019182526001600160a01b039098168252601f885292812080546001818101835591835297909120915160029097029091019586559051940193909355505050565b6001600160a01b0381166000908152601160205260408120600e54600482015410612cbc5750600092915050565b6007810154601a5460009015612d0d576103e8601a54600a5484612ce09190616129565b612ceb906007616129565b612cf6906023616129565b612d0091906160ca565b612d0a91906160ca565b90505b949350505050565b612d1d615157565b612d268261520e565b612d308282615216565b5050565b6060610697805480602002602001604051908101604052809291908181526020018280548015612d8d57602002820191906000526020600020905b81546001600160a01b03168152600190910190602001808311612d6f575b5050505050905090565b6000612da16152fe565b507f360894a13ba1a3210667c828492db98dca3e2076cc3735a920a3ca505d382bbc90565b612dce614dad565b600480546001600160a01b0319166001600160a01b0392909216919091179055565b612df8614dad565b604080518082019091526001600160a01b038381168252602082018381526106988054600181018255600091825293517f38ab5f11fea4ac1f4814c55c438d84fd4dec22a03ca29a7e3c711ce90ff8e68c600290950294850180546001600160a01b0319169190941617909255517f38ab5f11fea4ac1f4814c55c438d84fd4dec22a03ca29a7e3c711ce90ff8e68d9092019190915560098054839290612ea0908490616116565b90915550505050565b6001600160a01b03811615612f88576000612ec382612f8b565b90506000612ed0836147df565b90508115612f64576001600160a01b038316600090815260116020908152604080832060078101869055600681018590556018909252822054601a805492939192909190612f1f9084906160a1565b9250508190555082601a6000828254612f389190616116565b90915550506001600160a01b0384166000908152601860205260409020839055612f628484615347565b505b6001600160a01b038084166000908152600f602052604090205461255b9116612ea9565b50565b6001600160a01b0381166000908152601160209081526040808320815161010081018352815460ff161515815260018201549381018490526002820154928101929092526003810154606083015260048101546080830152600581015460a0830152600681015460c08301526007015460e090910152600061300c846147df565b90506130188183616116565b600003613029575060009392505050565b6127106130368284616116565b61304284612710616129565b61304c91906160ca565b61305890612710616116565b6130629083616129565b612d0d91906160ca565b613074614dad565b600080546001600160a01b0319166001600160a01b0392909216919091179055565b61309e614dad565b6130a86000615411565b565b602160205281600052604060002081815481106130c657600080fd5b600091825260209091206002909102018054600190910154909250905082565b60006007600e546130f791906160ca565b6000818152602360205260408120549192508167ffffffffffffffff81111561312257613122615bcb565b60405190808252806020026020018201604052801561316757816020015b60408051808201909152600080825260208201528152602001906001900390816131405790505b50905060005b828110156131ff57600084815260236020526040812080548390811061319557613195616100565b60009182526020808320909101546040805180820182526001600160a01b03909216808352898552601684528185208186528452932054918101919091528451919250908490849081106131eb576131eb616100565b60209081029190910101525060010161316d565b5060005b815181101561330c5760005b6001835161321d91906160a1565b8110156133035782613230826001616116565b8151811061324057613240616100565b60200260200101516020015183828151811061325e5761325e616100565b60200260200101516020015110156132fb57600083828151811061328457613284616100565b602002602001015190508382600161329c9190616116565b815181106132ac576132ac616100565b60200260200101518483815181106132c6576132c6616100565b602090810291909101015280846132de846001616116565b815181106132ee576132ee616100565b6020026020010181905250505b60010161320f565b50600101613203565b5060005b81518110156133a8576022546014106133a057601e60006007600e5461333691906160ca565b815260200190815260200160002082828151811061335657613356616100565b602090810291909101810151825460018082018555600094855293839020825160029092020180546001600160a01b0319166001600160a01b039092169190911781559101519101555b600101613310565b5060008069031ce37b140fe230000090506000601e60006007600e546133ce91906160ca565b8152602001908152602001600020805480602002602001604051908101604052809291908181526020016000905b82821015613444576000848152602090819020604080518082019091526002850290910180546001600160a01b031682526001908101548284015290835290920191016133fc565b50505050905060005b81518110156134fc576012600083838151811061346c5761346c616100565b6020026020010151600001516001600160a01b03166001600160a01b031681526020019081526020016000209350601b60006007600e546134ad91906160ca565b815260200190815260200160002054838383815181106134cf576134cf616100565b6020026020010151602001516134e59190616129565b6134ef91906160ca565b600285015560010161344d565b5069021342520d5fec20000060005b610698548110156135ab57600060095483610698848154811061353057613530616100565b90600052602060002090600202016001015461354c9190616129565b61355691906160ca565b9050600060126000610698858154811061357257613572616100565b600091825260208083206002909202909101546001600160a01b031683528201929092526040019020600301919091555060010161350b565b5050505050505050565b6001600160a01b0381166000908152601160205260408120600e5460048201541015806136035750601c60006001600e546135f091906160a1565b8152602001908152602001600020546000145b156136115750600092915050565b601c60006001600e5461362491906160a1565b8152602001908152602001600020546064600a546136b8866001600160a01b0316600090815260116020908152604091829020825161010081018452815460ff161515815260018201549281018390526002820154938101939093526003810154606084015260048101546080840152600581015460a0840152600681015460c08401526007015460e09092019190915290565b6136c29190616129565b6136cd90602a616129565b6136d791906160ca565b6136e191906160ca565b9392505050565b7ff0c57e16840df040f15088dc2f81fe391c3923bec73e23a9662efc9c229c6a00805468010000000000000000810460ff16159067ffffffffffffffff166000811580156137335750825b905060008267ffffffffffffffff1660011480156137505750303b155b90508115801561375e575080155b15613795576040517ff92ee8a900000000000000000000000000000000000000000000000000000000815260040160405180910390fd5b845467ffffffffffffffff1916600117855583156137c957845468ff00000000000000001916680100000000000000001785555b69152d02c7e14af6800000600a556064600855600180546001600160a01b0319908116733e81ae5448ed9fd785467fde13ac3127775e8d0017825560028054821673aafda90ae7c6b084216872e6950eef5dafe48bd917815560038054831673a1fa5d2f89e40e442fbd65dd358c062966e30593178155600480548416732b676458b0cf2dd910f1b332105b55b010bf832b1781556000805485167363390f615d290324c81271fd9ac48e5422aed80a178155602480549095167310ed43c718714eb63d5aa57b78b54704e256024e9081179095556040805160608082018352680ad78ebc5ac6200000808352602080840191825260148486019081528b8752601080835294517f8c6065603763fec3f5742441d3833f3f43b982453612d76adb39a885e3006b5f5591517f8c6065603763fec3f5742441d3833f3f43b982453612d76adb39a885e3006b605590517f8c6065603763fec3f5742441d3833f3f43b982453612d76adb39a885e3006b615583518083018552682086ac35105260000081526828a857425466f80000818301908152601982870190815299875284835290517f853b2fefe141400fef543280f93d98bd49996069f632d0d20236afeeed8e46a255517f853b2fefe141400fef543280f93d98bd49996069f632d0d20236afeeed8e46a35596517f853b2fefe141400fef543280f93d98bd49996069f632d0d20236afeeed8e46a45582518082018452686194049f30f7200000815268925e06eec972b00000818901908152601e82860190815297865283895290517fb3edd0d534d647cffdae9f1294f11ad21f3fcf2814bea44c92bbb8d384a57d9e55517fb3edd0d534d647cffdae9f1294f11ad21f3fcf2814bea44c92bbb8d384a57d9f5594517fb3edd0d534d647cffdae9f1294f11ad21f3fcf2814bea44c92bbb8d384a57da05581518086018352690124bc0ddd92e56000008152690200491843c111680000818801908152602382850190815295855282885290517f1588ac671d87f82adc0e6ae8ab009c0de98f92a20243897597e566bc59b9c12655517f1588ac671d87f82adc0e6ae8ab009c0de98f92a20243897597e566bc59b9c1275592517f1588ac671d87f82adc0e6ae8ab009c0de98f92a20243897597e566bc59b9c128558051938401815269036e342998b8b020000084526906dc6853317160400000848601908152602891850191825260059092529190935290517f61a7346ab5ebdac457db2a901eaf1b805239b6049a1b2f34bab85e2e274f39cb5590517f61a7346ab5ebdac457db2a901eaf1b805239b6049a1b2f34bab85e2e274f39cc55517f61a7346ab5ebdac457db2a901eaf1b805239b6049a1b2f34bab85e2e274f39cd55600e91909155613bc033615482565b613bc8615493565b50831561255857845468ff000000000000000019168555604051600181527fc7f505b2f371ae2175ee4913f4499e1f2633a7b5936321eed1cdaeb6115181d29060200160405180910390a15050505050565b601e6020528160005260406000208181548110613c3657600080fd5b6000918252602090912060029091020180546001909101546001600160a01b039091169250905082565b6000818152602360209081526040918290208054835181840281018401909452808452606093928301828280156118cb576020028201919060005260206000209081546001600160a01b031681526001909101906020018083116118ad5750505050509050919050565b6014602052816000526040600020818154811061257c57600080fd5b613cee614dad565b600855565b613d256040518060a0016040528060008152602001600081526020016000815260200160008152602001600081525090565b506001600160a01b0316600090815260136020908152604091829020825160a0810184528154815260018201549281019290925260028101549282019290925260038201546060820152600490910154608082015290565b6000670de0b6b3a7640000600a546126cb91906160ca565b6060601e6000838152602001908152602001600020805480602002602001604051908101604052809291908181526020016000905b82821015612951576000848152602090819020604080518082019091526002850290910180546001600160a01b03168252600190810154828401529083529092019101613dca565b6000805460408051634c6afee560e11b8152905183926001600160a01b0316916398d5fdca9160048083019260209291908290030181865afa158015613e5c573d6000803e3d6000fd5b505050506040513d601f19601f82011682018060405250810190613e80919061616d565b9050613e8c81846160ca565b6136e190670de0b6b3a7640000616129565b6000546001600160a01b03163314613ef85760405162461bcd60e51b815260206004820152601260248201527f50726f6869626974206f7065726174696f6e0000000000000000000000000000604482015260640161193c565b6001600e541115613f43576127106008546001600e54613f1891906160a1565b613f229084616129565b613f2c9190616129565b613f3691906160ca565b613f409082616116565b90505b6001600160a01b038216600090815260116020526040812060018101805491928492613f70908490616116565b9250508190555081816003016000828254613f8b9190616116565b9091555050600e546000908152601c602052604081208054849290613fb1908490616116565b9091555050505050565b613fc3614dad565b6040516001600160a01b038216904780156108fc02916000818181858888f19350505050158015612d30573d6000803e3d6000fd5b610698818154811061296c57600080fd5b3332146140585760405162461bcd60e51b815260206004820152600b60248201527f6e6f20636f6e7472616374000000000000000000000000000000000000000000604482015260640161193c565b6002546040517ff242432a0000000000000000000000000000000000000000000000000000000081526001600160a01b038481166004830152306024830152604482018490526001606483015260a06084830152600060a483015290911690819063f242432a9060c401600060405180830381600087803b1580156140dc57600080fd5b505af11580156140f0573d6000803e3d6000fd5b505050600083815260106020908152604091829020825160608101845281548152600182015492810192909252600201549181019190915290506141348482614e21565b6001600160a01b038085166000908152600f6020526040902054168015614163576141638183600001516150fa565b50506040805180820182529283524260208085019182526001600160a01b039095166000908152601f865291822080546001818101835591845295909220935160029095029093019384559151929091019190915550565b6141c3614dad565b60005b82518110156142ae5781600f60008584815181106141e6576141e6616100565b60200260200101516001600160a01b03166001600160a01b0316815260200190815260200160002060006101000a8154816001600160a01b0302191690836001600160a01b0316021790555060146000836001600160a01b03166001600160a01b0316815260200190815260200160002083828151811061426957614269616100565b60209081029190910181015182546001808201855560009485529290932090920180546001600160a01b0319166001600160a01b0390931692909217909155016141c6565b50612d3081600161549b565b60006040518060600160405280846001600160a01b03168152602001838152602001428152509050806025600c5461022681106142f9576142f9616100565b6003020160008201518160000160006101000a8154816001600160a01b0302191690836001600160a01b031602179055506020820151816001015560408201518160020155905050610226600c5460016143539190616116565b61435d9190616140565b600c55600d54610226111561438657600d805490600061437c83616154565b9190505550505050565b6103e8600b5460016143989190616116565b6143a29190616140565b600b55505050565b60408051603280825261066082019092526060916102269181816020015b6143f5604051806060016040528060006001600160a01b0316815260200160008152602001600081525090565b8152602001906001900390816143c857905050925060005b818110156128c55760256103e882600b546144289190616116565b6144329190616140565b610226811061444357614443616100565b604080516060810182526003929092029290920180546001600160a01b03168252600181015460208301526002015491810191909152845185908390811061448d5761448d616100565b602090810291909101015260010161440d565b60258161022681106144b157600080fd5b60030201805460018201546002909201546001600160a01b03909116925083565b601f60205281600052604060002081815481106130c657600080fd5b336001600160a01b038316146145465760405162461bcd60e51b815260206004820152600960248201527f6d7367206572726f720000000000000000000000000000000000000000000000604482015260640161193c565b6001600160a01b038281166000908152600f6020526040902080546001600160a01b03191691831691909117905561457f81600161549b565b6001600160a01b0390811660009081526014602090815260408220805460018101825590835291200180546001600160a01b03191692909116919091179055565b6060610698805480602002602001604051908101604052809291908181526020016000905b8282101561462d576000848152602090819020604080518082019091526002850290910180546001600160a01b031682526001908101548284015290835290920191016145e5565b50505050905090565b6000805460408051634c6afee560e11b8152905183926001600160a01b0316916398d5fdca9160048083019260209291908290030181865afa158015614680573d6000803e3d6000fd5b505050506040513d601f19601f820116820180604052508101906146a4919061616d565b9050670de0b6b3a76400006136d78285616129565b606060006146c784846160a1565b6146d2906001616116565b905060008167ffffffffffffffff8111156146ef576146ef615bcb565b60405190808252806020026020018201604052801561473457816020015b604080518082019091526000808252602082015281526020019060019003908161470d5790505b50602254909150821015614748578161474c565b6022545b9150848210612d0d5760005b828110156147d657602261476c8288616116565b8154811061477c5761477c616100565b60009182526020918290206040805180820190915260029092020180546001600160a01b03168252600101549181019190915282518390839081106147c3576147c3616100565b6020908102919091010152600101614758565b50949350505050565b6001600160a01b03811660009081526014602090815260408083208054825181850281018501909352808352849383018282801561484657602002820191906000526020600020905b81546001600160a01b03168152600190910190602001808311614828575b505050505090506000614899604051806101000160405280600015158152602001600081526020016000815260200160008152602001600081526020016000815260200160008152602001600081525090565b60005b835181101561499657601160008583815181106148bb576148bb616100565b6020908102919091018101516001600160a01b03168252818101929092526040908101600020815161010081018352815460ff1615158152600182015493810193909352600281015491830191909152600380820154606084015260048201546080840152600582015460a0840152600682015460c0840181905260079092015460e0840152919350600a916149519190616129565b61495b91906160ca565b600a8360200151600361496e9190616129565b61497891906160ca565b6149829085616116565b61498c9190616116565b925060010161489c565b5090949350505050565b6001600160a01b0381166000908152602160209081526040808320805482518185028101850190935280835260609492939192909184018215612951578382906000526020600020906002020160405180604001604052908160008201548152602001600182015481525050815260200190600101906129cc565b614a23614dad565b6001600160a01b038116614a66576040517f1e4fbdf70000000000000000000000000000000000000000000000000000000081526000600482015260240161193c565b612f8881615411565b614a77614dad565b600280546001600160a01b0319166001600160a01b0392909216919091179055565b600080614aa5846135b5565b60015460405163a9059cbb60e01b81526001600160a01b0387811660048301526024820184905292935091169063a9059cbb906044016020604051808303816000875af1158015614afa573d6000803e3d6000fd5b505050506040513d601f19601f82011682018060405250810190614b1e91906160de565b50614b2881614636565b831115614b3d57614b3881614636565b614b3f565b825b9050614b4b81846160a1565b6001600160a01b038516600090815260196020526040812080549295508392909190614b78908490616116565b925050819055508091506000614b8d856147df565b600e5460009081526015602090815260408083206001600160a01b038a1684529091528120829055909150614bc186612f8b565b6001600160a01b038716600090815260116020908152604080832060078101859055600681018790556018909252822054601a80549495509193909290614c099084906160a1565b9250508190555081601a6000828254614c229190616116565b90915550506001600160a01b03871660009081526018602052604081208390558615614d3157614c5188612c8e565b90508015614d315760015460405163a9059cbb60e01b81526001600160a01b038a81166004830152602482018490529091169063a9059cbb906044016020604051808303816000875af1158015614cac573d6000803e3d6000fd5b505050506040513d601f19601f82011682018060405250810190614cd091906160de565b50614cda81614636565b871115614cef57614cea81614636565b614cf1565b865b6001600160a01b038916600090815260196020526040812080549293508392909190614d1e908490616116565b90915550614d2e90508187616116565b95505b600060405180606001604052808781526020018381526020018388614d569190616116565b90526001600160a01b038a1660009081526020808052604080832080546001818101835591855293839020855160039095020193845591840151918301919091559091015160029091015550505050505092915050565b33614ddf7f9016d09d72d40fdae2fd8ceac6b6234c7706214fd39c1cd1e609a0528c199300546001600160a01b031690565b6001600160a01b0316146130a8576040517f118cdaa700000000000000000000000000000000000000000000000000000000815233600482015260240161193c565b6001600160a01b0382166000908152601160205260409020600e5460011015614e91576127106008546001600e54614e5991906160a1565b8460200151614e689190616129565b614e729190616129565b614e7c91906160ca565b8260200151614e8b9190616116565b60208301525b805460ff1615614f0e578160200151816001016000828254614eb39190616116565b909155505060408201518251600a91614ecb91616129565b614ed591906160ca565b816003016000828254614ee89190616116565b90915550508151600282018054600090614f03908490616116565b90915550614fdc9050565b604080516101008101825260018152602084810151908201528351818301529083015183516060830191600a91614f459190616129565b614f4f91906160ca565b8152600e5460208083019190915260006040808401829052606080850183905260809485018390526001600160a01b038916835260118452918190208551815460ff19169015151781559285015160018401558401516002830155830151600382015590820151600482015560a0820151600582015560c0820151600682015560e0909101516007909101555b6001600160a01b038084166000908152600f60205260408120548451600e54919093169291601691615010906007906160ca565b81526020019081526020016000206000836001600160a01b03166001600160a01b0316815260200190815260200160002060008282546150509190616116565b90915550508251600e54601b9060009061506c906007906160ca565b815260200190815260200160002060008282546150899190616116565b925050819055508260200151601c6000600e54815260200190815260200160002060008282546150b99190616116565b909155505082516150cb9085906142ba565b6150e66007600e546150dd91906160ca565b84518390615510565b6150f18160016155e9565b61268a84612ea9565b6001600160a01b038216600090815260136020526040812060048101805491928492615127908490616116565b90915550506001600160a01b038084166000908152600f602052604090205416801561268a5761268a81846150fa565b306001600160a01b037f00000000000000000000000000000000000000000000000000000000000000001614806151f057507f00000000000000000000000000000000000000000000000000000000000000006001600160a01b03166151e47f360894a13ba1a3210667c828492db98dca3e2076cc3735a920a3ca505d382bbc546001600160a01b031690565b6001600160a01b031614155b156130a85760405163703e46dd60e11b815260040160405180910390fd5b612f88614dad565b816001600160a01b03166352d1902d6040518163ffffffff1660e01b8152600401602060405180830381865afa925050508015615270575060408051601f3d908101601f1916820190925261526d9181019061616d565b60015b61529857604051634c9c8ce360e01b81526001600160a01b038316600482015260240161193c565b7f360894a13ba1a3210667c828492db98dca3e2076cc3735a920a3ca505d382bbc81146152f4576040517faa1d49a40000000000000000000000000000000000000000000000000000000081526004810182905260240161193c565b61255b838361566c565b306001600160a01b037f000000000000000000000000000000000000000000000000000000000000000016146130a85760405163703e46dd60e11b815260040160405180910390fd5b6001600160a01b0382166000908152601760205260408120829055805b610697548110156153b857836001600160a01b0316610697828154811061538d5761538d616100565b6000918252602090912001546001600160a01b0316036153b057600191506153b8565b600101615364565b508061255b5761069780546001810182556000919091527f275f90b8c6ac1b5a1f2a85482be6852bdff56884b41f8b476c085d6142c478f60180546001600160a01b0385166001600160a01b0319909116179055505050565b7f9016d09d72d40fdae2fd8ceac6b6234c7706214fd39c1cd1e609a0528c19930080546001600160a01b031981166001600160a01b03848116918217845560405192169182907f8be0079c531659141344cd1fd0a4f28419497f9722a3daafe3b4186f6b6457e090600090a3505050565b61548a6156c2565b612f8881615729565b6130a86156c2565b6001600160a01b038216600090815260136020526040902081156154cd5780548160006154c783616154565b91905055505b6002810180549060006154df83616154565b90915550506001600160a01b038084166000908152600f602052604090205416801561268a5761268a81600061549b565b60008381526016602090815260408083206001600160a01b03861684529091528120829055805b6000858152602360205260409020548110156155a457600085815260236020526040902080546001600160a01b03861691908390811061557957615579616100565b6000918252602090912001546001600160a01b03160361559c57600191506155a4565b600101615537565b508061268a5760008481526023602090815260408220805460018101825590835291200180546001600160a01b0385166001600160a01b031990911617905550505050565b6001600160a01b03821615612d30576001600160a01b0382166000908152601360205260408120600181018054919261562183616154565b9190505550816156435760038101805490600061563d83616154565b91905055505b6001600160a01b039283166000908152600f60205260408120549093169261255b9084906155e9565b61567582615731565b6040516001600160a01b038316907fbc7cd75a20ee27fd9adebab32041f755214dbc6bffa90cc0225b39da2e5c2d3b90600090a28051156156ba5761255b82826157a8565b612d30615815565b7ff0c57e16840df040f15088dc2f81fe391c3923bec73e23a9662efc9c229c6a005468010000000000000000900460ff166130a8576040517fd7e6bcf800000000000000000000000000000000000000000000000000000000815260040160405180910390fd5b614a236156c2565b806001600160a01b03163b60000361576757604051634c9c8ce360e01b81526001600160a01b038216600482015260240161193c565b7f360894a13ba1a3210667c828492db98dca3e2076cc3735a920a3ca505d382bbc80546001600160a01b0319166001600160a01b0392909216919091179055565b6060600080846001600160a01b0316846040516157c59190616186565b600060405180830381855af49150503d8060008114615800576040519150601f19603f3d011682016040523d82523d6000602084013e615805565b606091505b50915091506125d985838361584d565b34156130a8576040517fb398979f00000000000000000000000000000000000000000000000000000000815260040160405180910390fd5b6060826158625761585d826158c2565b6136e1565b815115801561587957506001600160a01b0384163b155b156158bb576040517f9996b3150000000000000000000000000000000000000000000000000000000081526001600160a01b038516600482015260240161193c565b5092915050565b8051156158d25780518082602001fd5b6040517fd6bda27500000000000000000000000000000000000000000000000000000000815260040160405180910390fd5b5080546000825560020290600052602060002090810190612f8891905b808211156159465780546001600160a01b031916815560006001820155600201615921565b5090565b80356001600160a01b038116811461596157600080fd5b919050565b60006020828403121561597857600080fd5b6136e18261594a565b6020808252825182820181905260009190848201906040850190845b818110156159c25783516001600160a01b03168352928401929184019160010161599d565b50909695505050505050565b6000602082840312156159e057600080fd5b81356001600160e01b0319811681146136e157600080fd5b60008060408385031215615a0b57600080fd5b50508035926020909101359150565b600060208284031215615a2c57600080fd5b5035919050565b600080600060608486031215615a4857600080fd5b615a518461594a565b9250615a5f6020850161594a565b9150604084013590509250925092565b60008060408385031215615a8257600080fd5b615a8b8361594a565b946020939093013593505050565b602080825282518282018190526000919060409081850190868401855b82811015615aee57815180516001600160a01b0316855286810151878601528501518585015260609093019290850190600101615ab6565b5091979650505050505050565b602080825282518282018190526000919060409081850190868401855b82811015615aee5781518051855286810151878601528501518585015260609093019290850190600101615b18565b602080825282518282018190526000919060409081850190868401855b82811015615aee57815180518552860151868501529284019290850190600101615b64565b60008060008060808587031215615b9f57600080fd5b615ba88561594a565b9350615bb66020860161594a565b93969395505050506040820135916060013590565b634e487b7160e01b600052604160045260246000fd5b604051601f8201601f1916810167ffffffffffffffff81118282101715615c0a57615c0a615bcb565b604052919050565b60008060408385031215615c2557600080fd5b615c2e8361594a565b915060208084013567ffffffffffffffff80821115615c4c57600080fd5b818601915086601f830112615c6057600080fd5b813581811115615c7257615c72615bcb565b615c84601f8201601f19168501615be1565b91508082528784828501011115615c9a57600080fd5b80848401858401376000848284010152508093505050509250929050565b60008060408385031215615ccb57600080fd5b82359150615cdb6020840161594a565b90509250929050565b602080825282518282018190526000919060409081850190868401855b82811015615aee57615d2784835180516001600160a01b03168252602090810151910152565b9284019290850190600101615d01565b60005b83811015615d52578181015183820152602001615d3a565b50506000910152565b6020815260008251806020840152615d7a816040850160208701615d37565b601f01601f19169190910160400192915050565b60008083601f840112615da057600080fd5b50813567ffffffffffffffff811115615db857600080fd5b6020830191508360208260051b8501011115615dd357600080fd5b9250929050565b60008083601f840112615dec57600080fd5b50813567ffffffffffffffff811115615e0457600080fd5b602083019150836020828501011115615dd357600080fd5b60008060008060008060008060a0898b031215615e3857600080fd5b615e418961594a565b9750615e4f60208a0161594a565b9650604089013567ffffffffffffffff80821115615e6c57600080fd5b615e788c838d01615d8e565b909850965060608b0135915080821115615e9157600080fd5b615e9d8c838d01615d8e565b909650945060808b0135915080821115615eb657600080fd5b50615ec38b828c01615dda565b999c989b5096995094979396929594505050565b60008060408385031215615eea57600080fd5b823567ffffffffffffffff80821115615f0257600080fd5b818501915085601f830112615f1657600080fd5b8135602082821115615f2a57615f2a615bcb565b8160051b9250615f3b818401615be1565b8281529284018101928181019089851115615f5557600080fd5b948201945b84861015615f7a57615f6b8661594a565b82529482019490820190615f5a565b9650615f89905087820161594a565b9450505050509250929050565b60008060408385031215615fa957600080fd5b615fb28361594a565b9150615cdb6020840161594a565b602080825282518282018190526000919060409081850190868401855b82811015615aee5761600384835180516001600160a01b03168252602090810151910152565b9284019290850190600101615fdd565b60008060008060008060a0878903121561602c57600080fd5b6160358761594a565b95506160436020880161594a565b94506040870135935060608701359250608087013567ffffffffffffffff81111561606d57600080fd5b61607989828a01615dda565b979a9699509497509295939492505050565b634e487b7160e01b600052601160045260246000fd5b818103818111156125de576125de61608b565b634e487b7160e01b600052601260045260246000fd5b6000826160d9576160d96160b4565b500490565b6000602082840312156160f057600080fd5b815180151581146136e157600080fd5b634e487b7160e01b600052603260045260246000fd5b808201808211156125de576125de61608b565b80820281158282048414176125de576125de61608b565b60008261614f5761614f6160b4565b500690565b6000600182016161665761616661608b565b5060010190565b60006020828403121561617f57600080fd5b5051919050565b60008251616198818460208701615d37565b919091019291505056fea26469706673582212202de803b345b90bdc2d5136bd87ab3e8ac91211c302e68f42127c07a6f7064f7c64736f6c63430008190033",
  "linkReferences": {},
  "deployedLinkReferences": {}
}