{"contracts/pizzaspace_nft_new.sol":{"PizzaSpaceClub":{"abi":[{"inputs":[],"stateMutability":"nonpayable","type":"constructor"},{"inputs":[{"internalType":"address","name":"target","type":"address"}],"name":"AddressEmptyCode","type":"error"},{"inputs":[{"internalType":"address","name":"implementation","type":"address"}],"name":"ERC1967InvalidImplementation","type":"error"},{"inputs":[],"name":"ERC1967NonPayable","type":"error"},{"inputs":[{"internalType":"address","name":"sender","type":"address"},{"internalType":"uint256","name":"tokenId","type":"uint256"},{"internalType":"address","name":"owner","type":"address"}],"name":"ERC721IncorrectOwner","type":"error"},{"inputs":[{"internalType":"address","name":"operator","type":"address"},{"internalType":"uint256","name":"tokenId","type":"uint256"}],"name":"ERC721InsufficientApproval","type":"error"},{"inputs":[{"internalType":"address","name":"approver","type":"address"}],"name":"ERC721InvalidApprover","type":"error"},{"inputs":[{"internalType":"address","name":"operator","type":"address"}],"name":"ERC721InvalidOperator","type":"error"},{"inputs":[{"internalType":"address","name":"owner","type":"address"}],"name":"ERC721InvalidOwner","type":"error"},{"inputs":[{"internalType":"address","name":"receiver","type":"address"}],"name":"ERC721InvalidReceiver","type":"error"},{"inputs":[{"internalType":"address","name":"sender","type":"address"}],"name":"ERC721InvalidSender","type":"error"},{"inputs":[{"internalType":"uint256","name":"tokenId","type":"uint256"}],"name":"ERC721NonexistentToken","type":"error"},{"inputs":[],"name":"FailedInnerCall","type":"error"},{"inputs":[],"name":"InvalidInitialization","type":"error"},{"inputs":[],"name":"NotInitializing","type":"error"},{"inputs":[{"internalType":"address","name":"owner","type":"address"}],"name":"OwnableInvalidOwner","type":"error"},{"inputs":[{"internalType":"address","name":"account","type":"address"}],"name":"OwnableUnauthorizedAccount","type":"error"},{"inputs":[],"name":"UUPSUnauthorizedCallContext","type":"error"},{"inputs":[{"internalType":"bytes32","name":"slot","type":"bytes32"}],"name":"UUPSUnsupportedProxiableUUID","type":"error"},{"anonymous":false,"inputs":[{"indexed":true,"internalType":"address","name":"owner","type":"address"},{"indexed":true,"internalType":"address","name":"approved","type":"address"},{"indexed":true,"internalType":"uint256","name":"tokenId","type":"uint256"}],"name":"Approval","type":"event"},{"anonymous":false,"inputs":[{"indexed":true,"internalType":"address","name":"owner","type":"address"},{"indexed":true,"internalType":"address","name":"operator","type":"address"},{"indexed":false,"internalType":"bool","name":"approved","type":"bool"}],"name":"ApprovalForAll","type":"event"},{"anonymous":false,"inputs":[{"indexed":false,"internalType":"uint64","name":"version","type":"uint64"}],"name":"Initialized","type":"event"},{"anonymous":false,"inputs":[{"indexed":true,"internalType":"address","name":"previousOwner","type":"address"},{"indexed":true,"internalType":"address","name":"newOwner","type":"address"}],"name":"OwnershipTransferred","type":"event"},{"anonymous":false,"inputs":[{"indexed":true,"internalType":"address","name":"from","type":"address"},{"indexed":true,"internalType":"address","name":"to","type":"address"},{"indexed":true,"internalType":"uint256","name":"tokenId","type":"uint256"}],"name":"Transfer","type":"event"},{"anonymous":false,"inputs":[{"indexed":true,"internalType":"address","name":"implementation","type":"address"}],"name":"Upgraded","type":"event"},{"inputs":[],"name":"UPGRADE_INTERFACE_VERSION","outputs":[{"internalType":"string","name":"","type":"string"}],"stateMutability":"view","type":"function"},{"inputs":[{"internalType":"address","name":"to","type":"address"},{"internalType":"uint256","name":"tokenId","type":"uint256"}],"name":"approve","outputs":[],"stateMutability":"nonpayable","type":"function"},{"inputs":[{"internalType":"address","name":"owner","type":"address"}],"name":"balanceOf","outputs":[{"internalType":"uint256","name":"","type":"uint256"}],"stateMutability":"view","type":"function"},{"inputs":[{"internalType":"uint256","name":"tokenId","type":"uint256"}],"name":"burn","outputs":[],"stateMutability":"nonpayable","type":"function"},{"inputs":[{"internalType":"uint256","name":"tokenId","type":"uint256"}],"name":"getApproved","outputs":[{"internalType":"address","name":"","type":"address"}],"stateMutability":"view","type":"function"},{"inputs":[],"name":"initialize","outputs":[],"stateMutability":"nonpayable","type":"function"},{"inputs":[{"internalType":"address","name":"owner","type":"address"},{"internalType":"address","name":"operator","type":"address"}],"name":"isApprovedForAll","outputs":[{"internalType":"bool","name":"","type":"bool"}],"stateMutability":"view","type":"function"},{"inputs":[],"name":"name","outputs":[{"internalType":"string","name":"","type":"string"}],"stateMutability":"view","type":"function"},{"inputs":[],"name":"owner","outputs":[{"internalType":"address","name":"","type":"address"}],"stateMutability":"view","type":"function"},{"inputs":[{"internalType":"uint256","name":"tokenId","type":"uint256"}],"name":"ownerOf","outputs":[{"internalType":"address","name":"","type":"address"}],"stateMutability":"view","type":"function"},{"inputs":[],"name":"proxiableUUID","outputs":[{"internalType":"bytes32","name":"","type":"bytes32"}],"stateMutability":"view","type":"function"},{"inputs":[],"name":"renounceOwnership","outputs":[],"stateMutability":"nonpayable","type":"function"},{"inputs":[{"internalType":"address","name":"to","type":"address"}],"name":"safeMint","outputs":[],"stateMutability":"nonpayable","type":"function"},{"inputs":[{"internalType":"uint256","name":"_count","type":"uint256"}],"name":"safeMintBatch","outputs":[],"stateMutability":"nonpayable","type":"function"},{"inputs":[{"internalType":"address","name":"from","type":"address"},{"internalType":"address","name":"to","type":"address"},{"internalType":"uint256","name":"tokenId","type":"uint256"}],"name":"safeTransferFrom","outputs":[],"stateMutability":"nonpayable","type":"function"},{"inputs":[{"internalType":"address","name":"from","type":"address"},{"internalType":"address","name":"to","type":"address"},{"internalType":"uint256","name":"tokenId","type":"uint256"},{"internalType":"bytes","name":"data","type":"bytes"}],"name":"safeTransferFrom","outputs":[],"stateMutability":"nonpayable","type":"function"},{"inputs":[{"internalType":"address","name":"operator","type":"address"},{"internalType":"bool","name":"approved","type":"bool"}],"name":"setApprovalForAll","outputs":[],"stateMutability":"nonpayable","type":"function"},{"inputs":[{"internalType":"string","name":"uri","type":"string"}],"name":"setBaseURI","outputs":[],"stateMutability":"nonpayable","type":"function"},{"inputs":[{"internalType":"uint256","name":"_id","type":"uint256"}],"name":"setNextId","outputs":[],"stateMutability":"nonpayable","type":"function"},{"inputs":[{"internalType":"address","name":"addr","type":"address"},{"internalType":"bool","name":"flag","type":"bool"}],"name":"setSenderAllowlist","outputs":[],"stateMutability":"nonpayable","type":"function"},{"inputs":[{"internalType":"bytes4","name":"interfaceId","type":"bytes4"}],"name":"supportsInterface","outputs":[{"internalType":"bool","name":"","type":"bool"}],"stateMutability":"view","type":"function"},{"inputs":[],"name":"symbol","outputs":[{"internalType":"string","name":"","type":"string"}],"stateMutability":"view","type":"function"},{"inputs":[{"internalType":"uint256","name":"tokenId","type":"uint256"}],"name":"tokenURI","outputs":[{"internalType":"string","name":"","type":"string"}],"stateMutability":"view","type":"function"},{"inputs":[{"internalType":"address","name":"from","type":"address"},{"internalType":"address","name":"to","type":"address"},{"internalType":"uint256","name":"tokenId","type":"uint256"}],"name":"transferFrom","outputs":[],"stateMutability":"nonpayable","type":"function"},{"inputs":[{"internalType":"address","name":"newOwner","type":"address"}],"name":"transferOwnership","outputs":[],"stateMutability":"nonpayable","type":"function"},{"inputs":[{"internalType":"address","name":"newImplementation","type":"address"},{"internalType":"bytes","name":"data","type":"bytes"}],"name":"upgradeToAndCall","outputs":[],"stateMutability":"payable","type":"function"}],"evm":{"bytecode":{"linkReferences":{},"object":"60a06040523060805234801561001457600080fd5b5061001d610022565b6100d4565b7ff0c57e16840df040f15088dc2f81fe391c3923bec73e23a9662efc9c229c6a00805468010000000000000000900460ff16156100725760405163f92ee8a960e01b815260040160405180910390fd5b80546001600160401b03908116146100d15780546001600160401b0319166001600160401b0390811782556040519081527fc7f505b2f371ae2175ee4913f4499e1f2633a7b5936321eed1cdaeb6115181d29060200160405180910390a15b50565b6080516122f6620000fe60003960008181610fe20152818161100b015261118901526122f66000f3fe6080604052600436106101a15760003560e01c806355f804b3116100e157806395d89b411161008a578063b88d4fde11610064578063b88d4fde146104b2578063c87b56dd146104d2578063e985e9c5146104f2578063f2fde38b1461055a57600080fd5b806395d89b4114610434578063a22cb46514610449578063ad3cb1cc1461046957600080fd5b8063715018a6116100bb578063715018a6146103cd5780638129fc1c146103e25780638da5cb5b146103f757600080fd5b806355f804b31461036d5780636352211e1461038d57806370a08231146103ad57600080fd5b806336a6b8281161014e57806342966c681161012857806342966c68146102f75780634ce885fb146103175780634f1ef2861461033757806352d1902d1461034a57600080fd5b806336a6b8281461029757806340d097c3146102b757806342842e0e146102d757600080fd5b8063081812fc1161017f578063081812fc1461021f578063095ea7b31461025757806323b872dd1461027757600080fd5b8063019e9251146101a657806301ffc9a7146101c857806306fdde03146101fd575b600080fd5b3480156101b257600080fd5b506101c66101c1366004611c43565b61057a565b005b3480156101d457600080fd5b506101e86101e3366004611c72565b610587565b60405190151581526020015b60405180910390f35b34801561020957600080fd5b50610212610598565b6040516101f49190611cdf565b34801561022b57600080fd5b5061023f61023a366004611c43565b61064e565b6040516001600160a01b0390911681526020016101f4565b34801561026357600080fd5b506101c6610272366004611d0e565b610696565b34801561028357600080fd5b506101c6610292366004611d38565b6106a5565b3480156102a357600080fd5b506101c66102b2366004611c43565b6107ce565b3480156102c357600080fd5b506101c66102d2366004611d74565b610808565b3480156102e357600080fd5b506101c66102f2366004611d38565b610831565b34801561030357600080fd5b506101c6610312366004611c43565b610851565b34801561032357600080fd5b506101c6610332366004611d8f565b61085d565b6101c6610345366004611e77565b610890565b34801561035657600080fd5b5061035f6108ab565b6040519081526020016101f4565b34801561037957600080fd5b506101c6610388366004611ec5565b6108da565b34801561039957600080fd5b5061023f6103a8366004611c43565b6108ee565b3480156103b957600080fd5b5061035f6103c8366004611d74565b6108f9565b3480156103d957600080fd5b506101c6610980565b3480156103ee57600080fd5b506101c6610994565b34801561040357600080fd5b507f9016d09d72d40fdae2fd8ceac6b6234c7706214fd39c1cd1e609a0528c199300546001600160a01b031661023f565b34801561044057600080fd5b50610212610bce565b34801561045557600080fd5b506101c6610464366004611d8f565b610c1f565b34801561047557600080fd5b506102126040518060400160405280600581526020017f352e302e3000000000000000000000000000000000000000000000000000000081525081565b3480156104be57600080fd5b506101c66104cd366004611f0e565b610c2a565b3480156104de57600080fd5b506102126104ed366004611c43565b610c41565b3480156104fe57600080fd5b506101e861050d366004611f76565b6001600160a01b0391821660009081527f80bb2b638cc20bc4d0a60d66940f3ab4a00c1d7b313497ca82fb0b4ab00793056020908152604080832093909416825291909152205460ff1690565b34801561056657600080fd5b506101c6610575366004611d74565b610ca2565b610582610cf9565b600255565b600061059282610d6d565b92915050565b7f80bb2b638cc20bc4d0a60d66940f3ab4a00c1d7b313497ca82fb0b4ab007930080546060919081906105ca90611fa9565b80601f01602080910402602001604051908101604052809291908181526020018280546105f690611fa9565b80156106435780601f1061061857610100808354040283529160200191610643565b820191906000526020600020905b81548152906001019060200180831161062657829003601f168201915b505050505091505090565b600061065982610e08565b5060008281527f80bb2b638cc20bc4d0a60d66940f3ab4a00c1d7b313497ca82fb0b4ab007930460205260409020546001600160a01b0316610592565b6106a1828233610e60565b5050565b32330361072a573360009081526001602052604090205460ff1661072a576040517f08c379a000000000000000000000000000000000000000000000000000000000815260206004820152601760248201527f53656e646572206e6f7420696e20416c6c6f776c69737400000000000000000060448201526064015b60405180910390fd5b6001600160a01b03821661075457604051633250574960e11b815260006004820152602401610721565b6000610761838333610e6d565b9050836001600160a01b0316816001600160a01b0316146107c8576040517f64283d7b0000000000000000000000000000000000000000000000000000000081526001600160a01b0380861660048301526024820184905282166044820152606401610721565b50505050565b6107d6610cf9565b60005b818110156106a157600280546108009133919060006107f783611fe3565b91905055610fbd565b6001016107d9565b610810610cf9565b600280546000918261082183611fe3565b9190505590506106a18282610fbd565b61084c83838360405180602001604052806000815250610c2a565b505050565b6106a160008233610e6d565b610865610cf9565b6001600160a01b03919091166000908152600160205260409020805460ff1916911515919091179055565b610898610fd7565b6108a18261108e565b6106a18282611096565b60006108b561117e565b507f360894a13ba1a3210667c828492db98dca3e2076cc3735a920a3ca505d382bbc90565b6108e2610cf9565b60006106a1828261205a565b600061059282610e08565b60007f80bb2b638cc20bc4d0a60d66940f3ab4a00c1d7b313497ca82fb0b4ab00793006001600160a01b03831661095f576040517f89c62b6400000000000000000000000000000000000000000000000000000000815260006004820152602401610721565b6001600160a01b039092166000908152600390920160205250604090205490565b610988610cf9565b61099260006111c7565b565b7ff0c57e16840df040f15088dc2f81fe391c3923bec73e23a9662efc9c229c6a00805468010000000000000000810460ff16159067ffffffffffffffff166000811580156109df5750825b905060008267ffffffffffffffff1660011480156109fc5750303b155b905081158015610a0a575080155b15610a41576040517ff92ee8a900000000000000000000000000000000000000000000000000000000815260040160405180910390fd5b845467ffffffffffffffff191660011785558315610a7557845468ff00000000000000001916680100000000000000001785555b610ae96040518060400160405280601081526020017f50697a7a6120537061636520436c7562000000000000000000000000000000008152506040518060400160405280601081526020017f50697a7a6120537061636520436c756200000000000000000000000000000000815250611245565b610af233611257565b610afa611268565b6040518060600160405280602e8152602001612293602e9139600090610b20908261205a565b50620a279c600255610b3133610808565b73dc8b1f859bd9afd93159decf75eadd5f871ae6ee600052600160208190527fe7c879eab4cd6274e4ae5f0e9b10aa4e52b66695e0155065357592c7a4dc9dfb805460ff191690911790558315610bc757845468ff000000000000000019168555604051600181527fc7f505b2f371ae2175ee4913f4499e1f2633a7b5936321eed1cdaeb6115181d29060200160405180910390a15b5050505050565b7f80bb2b638cc20bc4d0a60d66940f3ab4a00c1d7b313497ca82fb0b4ab007930180546060917f80bb2b638cc20bc4d0a60d66940f3ab4a00c1d7b313497ca82fb0b4ab0079300916105ca90611fa9565b6106a1338383611270565b610c358484846106a5565b6107c88484848461134c565b60606000610c5060058461211a565b90506000610c5d8261146e565b604051602001610c6d919061213c565b60408051601f1981840301815290829052610c8b929160200161217d565b604051602081830303815290604052915050919050565b610caa610cf9565b6001600160a01b038116610ced576040517f1e4fbdf700000000000000000000000000000000000000000000000000000000815260006004820152602401610721565b610cf6816111c7565b50565b33610d2b7f9016d09d72d40fdae2fd8ceac6b6234c7706214fd39c1cd1e609a0528c199300546001600160a01b031690565b6001600160a01b031614610992576040517f118cdaa7000000000000000000000000000000000000000000000000000000008152336004820152602401610721565b60006001600160e01b031982167f80ac58cd000000000000000000000000000000000000000000000000000000001480610dd057506001600160e01b031982167f5b5e139f00000000000000000000000000000000000000000000000000000000145b8061059257507f01ffc9a7000000000000000000000000000000000000000000000000000000006001600160e01b0319831614610592565b60008181527f80bb2b638cc20bc4d0a60d66940f3ab4a00c1d7b313497ca82fb0b4ab007930260205260408120546001600160a01b03168061059257604051637e27328960e01b815260048101849052602401610721565b61084c838383600161150e565b60008281527f80bb2b638cc20bc4d0a60d66940f3ab4a00c1d7b313497ca82fb0b4ab007930260205260408120547f80bb2b638cc20bc4d0a60d66940f3ab4a00c1d7b313497ca82fb0b4ab0079300906001600160a01b0390811690841615610edb57610edb81858761169a565b6001600160a01b03811615610f1b57610ef860008660008061150e565b6001600160a01b0381166000908152600383016020526040902080546000190190555b6001600160a01b03861615610f4c576001600160a01b03861660009081526003830160205260409020805460010190555b6000858152600283016020526040808220805473ffffffffffffffffffffffffffffffffffffffff19166001600160a01b038a811691821790925591518893918516917fddf252ad1be2c89b69c2b068fc378daa952ba7f163c4a11628f55a4df523b3ef91a49150505b9392505050565b6106a1828260405180602001604052806000815250611717565b306001600160a01b037f000000000000000000000000000000000000000000000000000000000000000016148061107057507f00000000000000000000000000000000000000000000000000000000000000006001600160a01b03166110647f360894a13ba1a3210667c828492db98dca3e2076cc3735a920a3ca505d382bbc546001600160a01b031690565b6001600160a01b031614155b156109925760405163703e46dd60e11b815260040160405180910390fd5b610cf6610cf9565b816001600160a01b03166352d1902d6040518163ffffffff1660e01b8152600401602060405180830381865afa9250505080156110f0575060408051601f3d908101601f191682019092526110ed91810190612204565b60015b61111857604051634c9c8ce360e01b81526001600160a01b0383166004820152602401610721565b7f360894a13ba1a3210667c828492db98dca3e2076cc3735a920a3ca505d382bbc8114611174576040517faa1d49a400000000000000000000000000000000000000000000000000000000815260048101829052602401610721565b61084c838361172e565b306001600160a01b037f000000000000000000000000000000000000000000000000000000000000000016146109925760405163703e46dd60e11b815260040160405180910390fd5b7f9016d09d72d40fdae2fd8ceac6b6234c7706214fd39c1cd1e609a0528c199300805473ffffffffffffffffffffffffffffffffffffffff1981166001600160a01b03848116918217845560405192169182907f8be0079c531659141344cd1fd0a4f28419497f9722a3daafe3b4186f6b6457e090600090a3505050565b61124d611784565b6106a182826117eb565b61125f611784565b610cf68161182e565b610992611784565b7f80bb2b638cc20bc4d0a60d66940f3ab4a00c1d7b313497ca82fb0b4ab00793006001600160a01b0383166112dc576040517f5b08ba180000000000000000000000000000000000000000000000000000000081526001600160a01b0384166004820152602401610721565b6001600160a01b038481166000818152600584016020908152604080832094881680845294825291829020805460ff191687151590811790915591519182527f17307eab39ab6107e8899845ad3d59bd9653f200f220920489ca2b5937696c31910160405180910390a350505050565b6001600160a01b0383163b156107c857604051630a85bd0160e11b81526001600160a01b0384169063150b7a029061138e90339088908790879060040161221d565b6020604051808303816000875af19250505080156113c9575060408051601f3d908101601f191682019092526113c691810190612259565b60015b611432573d8080156113f7576040519150601f19603f3d011682016040523d82523d6000602084013e6113fc565b606091505b50805160000361142a57604051633250574960e11b81526001600160a01b0385166004820152602401610721565b805181602001fd5b6001600160e01b03198116630a85bd0160e11b14610bc757604051633250574960e11b81526001600160a01b0385166004820152602401610721565b6060600061147b83611836565b600101905060008167ffffffffffffffff81111561149b5761149b611dcb565b6040519080825280601f01601f1916602001820160405280156114c5576020820181803683370190505b5090508181016020015b600019017f3031323334353637383961626364656600000000000000000000000000000000600a86061a8153600a85049450846114cf57509392505050565b7f80bb2b638cc20bc4d0a60d66940f3ab4a00c1d7b313497ca82fb0b4ab0079300818061154357506001600160a01b03831615155b1561165c57600061155385610e08565b90506001600160a01b0384161580159061157f5750836001600160a01b0316816001600160a01b031614155b80156115d057506001600160a01b0380821660009081527f80bb2b638cc20bc4d0a60d66940f3ab4a00c1d7b313497ca82fb0b4ab0079305602090815260408083209388168352929052205460ff16155b15611612576040517fa9fbf51f0000000000000000000000000000000000000000000000000000000081526001600160a01b0385166004820152602401610721565b821561165a5784866001600160a01b0316826001600160a01b03167f8c5be1e5ebec7d5bd14f71427d1e84f3dd0314c0f7b2291e5b200ac8c7c3b92560405160405180910390a45b505b6000938452600401602052505060409020805473ffffffffffffffffffffffffffffffffffffffff19166001600160a01b0392909216919091179055565b6116a5838383611918565b61084c576001600160a01b0383166116d357604051637e27328960e01b815260048101829052602401610721565b6040517f177e802f0000000000000000000000000000000000000000000000000000000081526001600160a01b038316600482015260248101829052604401610721565b61172183836119dc565b61084c600084848461134c565b61173782611a5a565b6040516001600160a01b038316907fbc7cd75a20ee27fd9adebab32041f755214dbc6bffa90cc0225b39da2e5c2d3b90600090a280511561177c5761084c8282611ade565b6106a1611b54565b7ff0c57e16840df040f15088dc2f81fe391c3923bec73e23a9662efc9c229c6a005468010000000000000000900460ff16610992576040517fd7e6bcf800000000000000000000000000000000000000000000000000000000815260040160405180910390fd5b6117f3611784565b7f80bb2b638cc20bc4d0a60d66940f3ab4a00c1d7b313497ca82fb0b4ab00793008061181f848261205a565b50600181016107c8838261205a565b610caa611784565b6000807a184f03e93ff9f4daa797ed6e38ed64bf6a1f010000000000000000831061187f577a184f03e93ff9f4daa797ed6e38ed64bf6a1f010000000000000000830492506040015b6d04ee2d6d415b85acef810000000083106118ab576d04ee2d6d415b85acef8100000000830492506020015b662386f26fc1000083106118c957662386f26fc10000830492506010015b6305f5e10083106118e1576305f5e100830492506008015b61271083106118f557612710830492506004015b60648310611907576064830492506002015b600a83106105925760010192915050565b60006001600160a01b038316158015906119d45750826001600160a01b0316846001600160a01b0316148061199157506001600160a01b0380851660009081527f80bb2b638cc20bc4d0a60d66940f3ab4a00c1d7b313497ca82fb0b4ab0079305602090815260408083209387168352929052205460ff165b806119d4575060008281527f80bb2b638cc20bc4d0a60d66940f3ab4a00c1d7b313497ca82fb0b4ab007930460205260409020546001600160a01b038481169116145b949350505050565b6001600160a01b038216611a0657604051633250574960e11b815260006004820152602401610721565b6000611a1483836000610e6d565b90506001600160a01b0381161561084c576040517f73c6ac6e00000000000000000000000000000000000000000000000000000000815260006004820152602401610721565b806001600160a01b03163b600003611a9057604051634c9c8ce360e01b81526001600160a01b0382166004820152602401610721565b7f360894a13ba1a3210667c828492db98dca3e2076cc3735a920a3ca505d382bbc805473ffffffffffffffffffffffffffffffffffffffff19166001600160a01b0392909216919091179055565b6060600080846001600160a01b031684604051611afb9190612276565b600060405180830381855af49150503d8060008114611b36576040519150601f19603f3d011682016040523d82523d6000602084013e611b3b565b606091505b5091509150611b4b858383611b8c565b95945050505050565b3415610992576040517fb398979f00000000000000000000000000000000000000000000000000000000815260040160405180910390fd5b606082611ba157611b9c82611c01565b610fb6565b8151158015611bb857506001600160a01b0384163b155b15611bfa576040517f9996b3150000000000000000000000000000000000000000000000000000000081526001600160a01b0385166004820152602401610721565b5080610fb6565b805115611c115780518082602001fd5b6040517f1425ea4200000000000000000000000000000000000000000000000000000000815260040160405180910390fd5b600060208284031215611c5557600080fd5b5035919050565b6001600160e01b031981168114610cf657600080fd5b600060208284031215611c8457600080fd5b8135610fb681611c5c565b60005b83811015611caa578181015183820152602001611c92565b50506000910152565b60008151808452611ccb816020860160208601611c8f565b601f01601f19169290920160200192915050565b602081526000610fb66020830184611cb3565b80356001600160a01b0381168114611d0957600080fd5b919050565b60008060408385031215611d2157600080fd5b611d2a83611cf2565b946020939093013593505050565b600080600060608486031215611d4d57600080fd5b611d5684611cf2565b9250611d6460208501611cf2565b9150604084013590509250925092565b600060208284031215611d8657600080fd5b610fb682611cf2565b60008060408385031215611da257600080fd5b611dab83611cf2565b915060208301358015158114611dc057600080fd5b809150509250929050565b634e487b7160e01b600052604160045260246000fd5b600067ffffffffffffffff80841115611dfc57611dfc611dcb565b604051601f8501601f19908116603f01168101908282118183101715611e2457611e24611dcb565b81604052809350858152868686011115611e3d57600080fd5b858560208301376000602087830101525050509392505050565b600082601f830112611e6857600080fd5b610fb683833560208501611de1565b60008060408385031215611e8a57600080fd5b611e9383611cf2565b9150602083013567ffffffffffffffff811115611eaf57600080fd5b611ebb85828601611e57565b9150509250929050565b600060208284031215611ed757600080fd5b813567ffffffffffffffff811115611eee57600080fd5b8201601f81018413611eff57600080fd5b6119d484823560208401611de1565b60008060008060808587031215611f2457600080fd5b611f2d85611cf2565b9350611f3b60208601611cf2565b925060408501359150606085013567ffffffffffffffff811115611f5e57600080fd5b611f6a87828801611e57565b91505092959194509250565b60008060408385031215611f8957600080fd5b611f9283611cf2565b9150611fa060208401611cf2565b90509250929050565b600181811c90821680611fbd57607f821691505b602082108103611fdd57634e487b7160e01b600052602260045260246000fd5b50919050565b60006001820161200357634e487b7160e01b600052601160045260246000fd5b5060010190565b601f82111561084c576000816000526020600020601f850160051c810160208610156120335750805b601f850160051c820191505b818110156120525782815560010161203f565b505050505050565b815167ffffffffffffffff81111561207457612074611dcb565b612088816120828454611fa9565b8461200a565b602080601f8311600181146120bd57600084156120a55750858301515b600019600386901b1c1916600185901b178555612052565b600085815260208120601f198616915b828110156120ec578886015182559484019460019091019084016120cd565b508582101561210a5787850151600019600388901b60f8161c191681555b5050505050600190811b01905550565b60008261213757634e487b7160e01b600052601260045260246000fd5b500690565b6000825161214e818460208701611c8f565b7f2e6a736f6e000000000000000000000000000000000000000000000000000000920191825250600501919050565b600080845461218b81611fa9565b600182811680156121a357600181146121b8576121e7565b60ff19841687528215158302870194506121e7565b8860005260208060002060005b858110156121de5781548a8201529084019082016121c5565b50505082870194505b5050505083516121fb818360208801611c8f565b01949350505050565b60006020828403121561221657600080fd5b5051919050565b60006001600160a01b0380871683528086166020840152508360408301526080606083015261224f6080830184611cb3565b9695505050505050565b60006020828403121561226b57600080fd5b8151610fb681611c5c565b60008251612288818460208701611c8f565b919091019291505056fe68747470733a2f2f62747767737761702e6769746875622e696f2f6e66742f70697a7a617370616365636c75622fa2646970667358221220fe4cb5c8457cfa8fc1428166cfc11758ab0e7bc8fd9c93f590e74ef89d97c2eb64736f6c63430008180033","opcodes":"PUSH1 0xA0 PUSH1 0x40 MSTORE ADDRESS PUSH1 0x80 MSTORE CALLVALUE DUP1 ISZERO PUSH2 0x14 JUMPI PUSH1 0x0 DUP1 REVERT JUMPDEST POP PUSH2 0x1D PUSH2 0x22 JUMP JUMPDEST PUSH2 0xD4 JUMP JUMPDEST PUSH32 0xF0C57E16840DF040F15088DC2F81FE391C3923BEC73E23A9662EFC9C229C6A00 DUP1 SLOAD PUSH9 0x10000000000000000 SWAP1 DIV PUSH1 0xFF AND ISZERO PUSH2 0x72 JUMPI PUSH1 0x40 MLOAD PUSH4 0xF92EE8A9 PUSH1 0xE0 SHL DUP2 MSTORE PUSH1 0x4 ADD PUSH1 0x40 MLOAD DUP1 SWAP2 SUB SWAP1 REVERT JUMPDEST DUP1 SLOAD PUSH1 0x1 PUSH1 0x1 PUSH1 0x40 SHL SUB SWAP1 DUP2 AND EQ PUSH2 0xD1 JUMPI DUP1 SLOAD PUSH1 0x1 PUSH1 0x1 PUSH1 0x40 SHL SUB NOT AND PUSH1 0x1 PUSH1 0x1 PUSH1 0x40 SHL SUB SWAP1 DUP2 OR DUP3 SSTORE PUSH1 0x40 MLOAD SWAP1 DUP2 MSTORE PUSH32 0xC7F505B2F371AE2175EE4913F4499E1F2633A7B5936321EED1CDAEB6115181D2 SWAP1 PUSH1 0x20 ADD PUSH1 0x40 MLOAD DUP1 SWAP2 SUB SWAP1 LOG1 JUMPDEST POP JUMP JUMPDEST PUSH1 0x80 MLOAD PUSH2 0x22F6 PUSH3 0xFE PUSH1 0x0 CODECOPY PUSH1 0x0 DUP2 DUP2 PUSH2 0xFE2 ADD MSTORE DUP2 DUP2 PUSH2 0x100B ADD MSTORE PUSH2 0x1189 ADD MSTORE PUSH2 0x22F6 PUSH1 0x0 RETURN INVALID PUSH1 0x80 PUSH1 0x40 MSTORE PUSH1 0x4 CALLDATASIZE LT PUSH2 0x1A1 JUMPI PUSH1 0x0 CALLDATALOAD PUSH1 0xE0 SHR DUP1 PUSH4 0x55F804B3 GT PUSH2 0xE1 JUMPI DUP1 PUSH4 0x95D89B41 GT PUSH2 0x8A JUMPI DUP1 PUSH4 0xB88D4FDE GT PUSH2 0x64 JUMPI DUP1 PUSH4 0xB88D4FDE EQ PUSH2 0x4B2 JUMPI DUP1 PUSH4 0xC87B56DD EQ PUSH2 0x4D2 JUMPI DUP1 PUSH4 0xE985E9C5 EQ PUSH2 0x4F2 JUMPI DUP1 PUSH4 0xF2FDE38B EQ PUSH2 0x55A JUMPI PUSH1 0x0 DUP1 REVERT JUMPDEST DUP1 PUSH4 0x95D89B41 EQ PUSH2 0x434 JUMPI DUP1 PUSH4 0xA22CB465 EQ PUSH2 0x449 JUMPI DUP1 PUSH4 0xAD3CB1CC EQ PUSH2 0x469 JUMPI PUSH1 0x0 DUP1 REVERT JUMPDEST DUP1 PUSH4 0x715018A6 GT PUSH2 0xBB JUMPI DUP1 PUSH4 0x715018A6 EQ PUSH2 0x3CD JUMPI DUP1 PUSH4 0x8129FC1C EQ PUSH2 0x3E2 JUMPI DUP1 PUSH4 0x8DA5CB5B EQ PUSH2 0x3F7 JUMPI PUSH1 0x0 DUP1 REVERT JUMPDEST DUP1 PUSH4 0x55F804B3 EQ PUSH2 0x36D JUMPI DUP1 PUSH4 0x6352211E EQ PUSH2 0x38D JUMPI DUP1 PUSH4 0x70A08231 EQ PUSH2 0x3AD JUMPI PUSH1 0x0 DUP1 REVERT JUMPDEST DUP1 PUSH4 0x36A6B828 GT PUSH2 0x14E JUMPI DUP1 PUSH4 0x42966C68 GT PUSH2 0x128 JUMPI DUP1 PUSH4 0x42966C68 EQ PUSH2 0x2F7 JUMPI DUP1 PUSH4 0x4CE885FB EQ PUSH2 0x317 JUMPI DUP1 PUSH4 0x4F1EF286 EQ PUSH2 0x337 JUMPI DUP1 PUSH4 0x52D1902D EQ PUSH2 0x34A JUMPI PUSH1 0x0 DUP1 REVERT JUMPDEST DUP1 PUSH4 0x36A6B828 EQ PUSH2 0x297 JUMPI DUP1 PUSH4 0x40D097C3 EQ PUSH2 0x2B7 JUMPI DUP1 PUSH4 0x42842E0E EQ PUSH2 0x2D7 JUMPI PUSH1 0x0 DUP1 REVERT JUMPDEST DUP1 PUSH4 0x81812FC GT PUSH2 0x17F JUMPI DUP1 PUSH4 0x81812FC EQ PUSH2 0x21F JUMPI DUP1 PUSH4 0x95EA7B3 EQ PUSH2 0x257 JUMPI DUP1 PUSH4 0x23B872DD EQ PUSH2 0x277 JUMPI PUSH1 0x0 DUP1 REVERT JUMPDEST DUP1 PUSH4 0x19E9251 EQ PUSH2 0x1A6 JUMPI DUP1 PUSH4 0x1FFC9A7 EQ PUSH2 0x1C8 JUMPI DUP1 PUSH4 0x6FDDE03 EQ PUSH2 0x1FD JUMPI JUMPDEST PUSH1 0x0 DUP1 REVERT JUMPDEST CALLVALUE DUP1 ISZERO PUSH2 0x1B2 JUMPI PUSH1 0x0 DUP1 REVERT JUMPDEST POP PUSH2 0x1C6 PUSH2 0x1C1 CALLDATASIZE PUSH1 0x4 PUSH2 0x1C43 JUMP JUMPDEST PUSH2 0x57A JUMP JUMPDEST STOP JUMPDEST CALLVALUE DUP1 ISZERO PUSH2 0x1D4 JUMPI PUSH1 0x0 DUP1 REVERT JUMPDEST POP PUSH2 0x1E8 PUSH2 0x1E3 CALLDATASIZE PUSH1 0x4 PUSH2 0x1C72 JUMP JUMPDEST PUSH2 0x587 JUMP JUMPDEST PUSH1 0x40 MLOAD SWAP1 ISZERO ISZERO DUP2 MSTORE PUSH1 0x20 ADD JUMPDEST PUSH1 0x40 MLOAD DUP1 SWAP2 SUB SWAP1 RETURN JUMPDEST CALLVALUE DUP1 ISZERO PUSH2 0x209 JUMPI PUSH1 0x0 DUP1 REVERT JUMPDEST POP PUSH2 0x212 PUSH2 0x598 JUMP JUMPDEST PUSH1 0x40 MLOAD PUSH2 0x1F4 SWAP2 SWAP1 PUSH2 0x1CDF JUMP JUMPDEST CALLVALUE DUP1 ISZERO PUSH2 0x22B JUMPI PUSH1 0x0 DUP1 REVERT JUMPDEST POP PUSH2 0x23F PUSH2 0x23A CALLDATASIZE PUSH1 0x4 PUSH2 0x1C43 JUMP JUMPDEST PUSH2 0x64E JUMP JUMPDEST PUSH1 0x40 MLOAD PUSH1 0x1 PUSH1 0x1 PUSH1 0xA0 SHL SUB SWAP1 SWAP2 AND DUP2 MSTORE PUSH1 0x20 ADD PUSH2 0x1F4 JUMP JUMPDEST CALLVALUE DUP1 ISZERO PUSH2 0x263 JUMPI PUSH1 0x0 DUP1 REVERT JUMPDEST POP PUSH2 0x1C6 PUSH2 0x272 CALLDATASIZE PUSH1 0x4 PUSH2 0x1D0E JUMP JUMPDEST PUSH2 0x696 JUMP JUMPDEST CALLVALUE DUP1 ISZERO PUSH2 0x283 JUMPI PUSH1 0x0 DUP1 REVERT JUMPDEST POP PUSH2 0x1C6 PUSH2 0x292 CALLDATASIZE PUSH1 0x4 PUSH2 0x1D38 JUMP JUMPDEST PUSH2 0x6A5 JUMP JUMPDEST CALLVALUE DUP1 ISZERO PUSH2 0x2A3 JUMPI PUSH1 0x0 DUP1 REVERT JUMPDEST POP PUSH2 0x1C6 PUSH2 0x2B2 CALLDATASIZE PUSH1 0x4 PUSH2 0x1C43 JUMP JUMPDEST PUSH2 0x7CE JUMP JUMPDEST CALLVALUE DUP1 ISZERO PUSH2 0x2C3 JUMPI PUSH1 0x0 DUP1 REVERT JUMPDEST POP PUSH2 0x1C6 PUSH2 0x2D2 CALLDATASIZE PUSH1 0x4 PUSH2 0x1D74 JUMP JUMPDEST PUSH2 0x808 JUMP JUMPDEST CALLVALUE DUP1 ISZERO PUSH2 0x2E3 JUMPI PUSH1 0x0 DUP1 REVERT JUMPDEST POP PUSH2 0x1C6 PUSH2 0x2F2 CALLDATASIZE PUSH1 0x4 PUSH2 0x1D38 JUMP JUMPDEST PUSH2 0x831 JUMP JUMPDEST CALLVALUE DUP1 ISZERO PUSH2 0x303 JUMPI PUSH1 0x0 DUP1 REVERT JUMPDEST POP PUSH2 0x1C6 PUSH2 0x312 CALLDATASIZE PUSH1 0x4 PUSH2 0x1C43 JUMP JUMPDEST PUSH2 0x851 JUMP JUMPDEST CALLVALUE DUP1 ISZERO PUSH2 0x323 JUMPI PUSH1 0x0 DUP1 REVERT JUMPDEST POP PUSH2 0x1C6 PUSH2 0x332 CALLDATASIZE PUSH1 0x4 PUSH2 0x1D8F JUMP JUMPDEST PUSH2 0x85D JUMP JUMPDEST PUSH2 0x1C6 PUSH2 0x345 CALLDATASIZE PUSH1 0x4 PUSH2 0x1E77 JUMP JUMPDEST PUSH2 0x890 JUMP JUMPDEST CALLVALUE DUP1 ISZERO PUSH2 0x356 JUMPI PUSH1 0x0 DUP1 REVERT JUMPDEST POP PUSH2 0x35F PUSH2 0x8AB JUMP JUMPDEST PUSH1 0x40 MLOAD SWAP1 DUP2 MSTORE PUSH1 0x20 ADD PUSH2 0x1F4 JUMP JUMPDEST CALLVALUE DUP1 ISZERO PUSH2 0x379 JUMPI PUSH1 0x0 DUP1 REVERT JUMPDEST POP PUSH2 0x1C6 PUSH2 0x388 CALLDATASIZE PUSH1 0x4 PUSH2 0x1EC5 JUMP JUMPDEST PUSH2 0x8DA JUMP JUMPDEST CALLVALUE DUP1 ISZERO PUSH2 0x399 JUMPI PUSH1 0x0 DUP1 REVERT JUMPDEST POP PUSH2 0x23F PUSH2 0x3A8 CALLDATASIZE PUSH1 0x4 PUSH2 0x1C43 JUMP JUMPDEST PUSH2 0x8EE JUMP JUMPDEST CALLVALUE DUP1 ISZERO PUSH2 0x3B9 JUMPI PUSH1 0x0 DUP1 REVERT JUMPDEST POP PUSH2 0x35F PUSH2 0x3C8 CALLDATASIZE PUSH1 0x4 PUSH2 0x1D74 JUMP JUMPDEST PUSH2 0x8F9 JUMP JUMPDEST CALLVALUE DUP1 ISZERO PUSH2 0x3D9 JUMPI PUSH1 0x0 DUP1 REVERT JUMPDEST POP PUSH2 0x1C6 PUSH2 0x980 JUMP JUMPDEST CALLVALUE DUP1 ISZERO PUSH2 0x3EE JUMPI PUSH1 0x0 DUP1 REVERT JUMPDEST POP PUSH2 0x1C6 PUSH2 0x994 JUMP JUMPDEST CALLVALUE DUP1 ISZERO PUSH2 0x403 JUMPI PUSH1 0x0 DUP1 REVERT JUMPDEST POP PUSH32 0x9016D09D72D40FDAE2FD8CEAC6B6234C7706214FD39C1CD1E609A0528C199300 SLOAD PUSH1 0x1 PUSH1 0x1 PUSH1 0xA0 SHL SUB AND PUSH2 0x23F JUMP JUMPDEST CALLVALUE DUP1 ISZERO PUSH2 0x440 JUMPI PUSH1 0x0 DUP1 REVERT JUMPDEST POP PUSH2 0x212 PUSH2 0xBCE JUMP JUMPDEST CALLVALUE DUP1 ISZERO PUSH2 0x455 JUMPI PUSH1 0x0 DUP1 REVERT JUMPDEST POP PUSH2 0x1C6 PUSH2 0x464 CALLDATASIZE PUSH1 0x4 PUSH2 0x1D8F JUMP JUMPDEST PUSH2 0xC1F JUMP JUMPDEST CALLVALUE DUP1 ISZERO PUSH2 0x475 JUMPI PUSH1 0x0 DUP1 REVERT JUMPDEST POP PUSH2 0x212 PUSH1 0x40 MLOAD DUP1 PUSH1 0x40 ADD PUSH1 0x40 MSTORE DUP1 PUSH1 0x5 DUP2 MSTORE PUSH1 0x20 ADD PUSH32 0x352E302E30000000000000000000000000000000000000000000000000000000 DUP2 MSTORE POP DUP2 JUMP JUMPDEST CALLVALUE DUP1 ISZERO PUSH2 0x4BE JUMPI PUSH1 0x0 DUP1 REVERT JUMPDEST POP PUSH2 0x1C6 PUSH2 0x4CD CALLDATASIZE PUSH1 0x4 PUSH2 0x1F0E JUMP JUMPDEST PUSH2 0xC2A JUMP JUMPDEST CALLVALUE DUP1 ISZERO PUSH2 0x4DE JUMPI PUSH1 0x0 DUP1 REVERT JUMPDEST POP PUSH2 0x212 PUSH2 0x4ED CALLDATASIZE PUSH1 0x4 PUSH2 0x1C43 JUMP JUMPDEST PUSH2 0xC41 JUMP JUMPDEST CALLVALUE DUP1 ISZERO PUSH2 0x4FE JUMPI PUSH1 0x0 DUP1 REVERT JUMPDEST POP PUSH2 0x1E8 PUSH2 0x50D CALLDATASIZE PUSH1 0x4 PUSH2 0x1F76 JUMP JUMPDEST PUSH1 0x1 PUSH1 0x1 PUSH1 0xA0 SHL SUB SWAP2 DUP3 AND PUSH1 0x0 SWAP1 DUP2 MSTORE PUSH32 0x80BB2B638CC20BC4D0A60D66940F3AB4A00C1D7B313497CA82FB0B4AB0079305 PUSH1 0x20 SWAP1 DUP2 MSTORE PUSH1 0x40 DUP1 DUP4 KECCAK256 SWAP4 SWAP1 SWAP5 AND DUP3 MSTORE SWAP2 SWAP1 SWAP2 MSTORE KECCAK256 SLOAD PUSH1 0xFF AND SWAP1 JUMP JUMPDEST CALLVALUE DUP1 ISZERO PUSH2 0x566 JUMPI PUSH1 0x0 DUP1 REVERT JUMPDEST POP PUSH2 0x1C6 PUSH2 0x575 CALLDATASIZE PUSH1 0x4 PUSH2 0x1D74 JUMP JUMPDEST PUSH2 0xCA2 JUMP JUMPDEST PUSH2 0x582 PUSH2 0xCF9 JUMP JUMPDEST PUSH1 0x2 SSTORE JUMP JUMPDEST PUSH1 0x0 PUSH2 0x592 DUP3 PUSH2 0xD6D JUMP JUMPDEST SWAP3 SWAP2 POP POP JUMP JUMPDEST PUSH32 0x80BB2B638CC20BC4D0A60D66940F3AB4A00C1D7B313497CA82FB0B4AB0079300 DUP1 SLOAD PUSH1 0x60 SWAP2 SWAP1 DUP2 SWAP1 PUSH2 0x5CA SWAP1 PUSH2 0x1FA9 JUMP JUMPDEST DUP1 PUSH1 0x1F ADD PUSH1 0x20 DUP1 SWAP2 DIV MUL PUSH1 0x20 ADD PUSH1 0x40 MLOAD SWAP1 DUP2 ADD PUSH1 0x40 MSTORE DUP1 SWAP3 SWAP2 SWAP1 DUP2 DUP2 MSTORE PUSH1 0x20 ADD DUP3 DUP1 SLOAD PUSH2 0x5F6 SWAP1 PUSH2 0x1FA9 JUMP JUMPDEST DUP1 ISZERO PUSH2 0x643 JUMPI DUP1 PUSH1 0x1F LT PUSH2 0x618 JUMPI PUSH2 0x100 DUP1 DUP4 SLOAD DIV MUL DUP4 MSTORE SWAP2 PUSH1 0x20 ADD SWAP2 PUSH2 0x643 JUMP JUMPDEST DUP3 ADD SWAP2 SWAP1 PUSH1 0x0 MSTORE PUSH1 0x20 PUSH1 0x0 KECCAK256 SWAP1 JUMPDEST DUP2 SLOAD DUP2 MSTORE SWAP1 PUSH1 0x1 ADD SWAP1 PUSH1 0x20 ADD DUP1 DUP4 GT PUSH2 0x626 JUMPI DUP3 SWAP1 SUB PUSH1 0x1F AND DUP3 ADD SWAP2 JUMPDEST POP POP POP POP POP SWAP2 POP POP SWAP1 JUMP JUMPDEST PUSH1 0x0 PUSH2 0x659 DUP3 PUSH2 0xE08 JUMP JUMPDEST POP PUSH1 0x0 DUP3 DUP2 MSTORE PUSH32 0x80BB2B638CC20BC4D0A60D66940F3AB4A00C1D7B313497CA82FB0B4AB0079304 PUSH1 0x20 MSTORE PUSH1 0x40 SWAP1 KECCAK256 SLOAD PUSH1 0x1 PUSH1 0x1 PUSH1 0xA0 SHL SUB AND PUSH2 0x592 JUMP JUMPDEST PUSH2 0x6A1 DUP3 DUP3 CALLER PUSH2 0xE60 JUMP JUMPDEST POP POP JUMP JUMPDEST ORIGIN CALLER SUB PUSH2 0x72A JUMPI CALLER PUSH1 0x0 SWAP1 DUP2 MSTORE PUSH1 0x1 PUSH1 0x20 MSTORE PUSH1 0x40 SWAP1 KECCAK256 SLOAD PUSH1 0xFF AND PUSH2 0x72A JUMPI PUSH1 0x40 MLOAD PUSH32 0x8C379A000000000000000000000000000000000000000000000000000000000 DUP2 MSTORE PUSH1 0x20 PUSH1 0x4 DUP3 ADD MSTORE PUSH1 0x17 PUSH1 0x24 DUP3 ADD MSTORE PUSH32 0x53656E646572206E6F7420696E20416C6C6F776C697374000000000000000000 PUSH1 0x44 DUP3 ADD MSTORE PUSH1 0x64 ADD JUMPDEST PUSH1 0x40 MLOAD DUP1 SWAP2 SUB SWAP1 REVERT JUMPDEST PUSH1 0x1 PUSH1 0x1 PUSH1 0xA0 SHL SUB DUP3 AND PUSH2 0x754 JUMPI PUSH1 0x40 MLOAD PUSH4 0x32505749 PUSH1 0xE1 SHL DUP2 MSTORE PUSH1 0x0 PUSH1 0x4 DUP3 ADD MSTORE PUSH1 0x24 ADD PUSH2 0x721 JUMP JUMPDEST PUSH1 0x0 PUSH2 0x761 DUP4 DUP4 CALLER PUSH2 0xE6D JUMP JUMPDEST SWAP1 POP DUP4 PUSH1 0x1 PUSH1 0x1 PUSH1 0xA0 SHL SUB AND DUP2 PUSH1 0x1 PUSH1 0x1 PUSH1 0xA0 SHL SUB AND EQ PUSH2 0x7C8 JUMPI PUSH1 0x40 MLOAD PUSH32 0x64283D7B00000000000000000000000000000000000000000000000000000000 DUP2 MSTORE PUSH1 0x1 PUSH1 0x1 PUSH1 0xA0 SHL SUB DUP1 DUP7 AND PUSH1 0x4 DUP4 ADD MSTORE PUSH1 0x24 DUP3 ADD DUP5 SWAP1 MSTORE DUP3 AND PUSH1 0x44 DUP3 ADD MSTORE PUSH1 0x64 ADD PUSH2 0x721 JUMP JUMPDEST POP POP POP POP JUMP JUMPDEST PUSH2 0x7D6 PUSH2 0xCF9 JUMP JUMPDEST PUSH1 0x0 JUMPDEST DUP2 DUP2 LT ISZERO PUSH2 0x6A1 JUMPI PUSH1 0x2 DUP1 SLOAD PUSH2 0x800 SWAP2 CALLER SWAP2 SWAP1 PUSH1 0x0 PUSH2 0x7F7 DUP4 PUSH2 0x1FE3 JUMP JUMPDEST SWAP2 SWAP1 POP SSTORE PUSH2 0xFBD JUMP JUMPDEST PUSH1 0x1 ADD PUSH2 0x7D9 JUMP JUMPDEST PUSH2 0x810 PUSH2 0xCF9 JUMP JUMPDEST PUSH1 0x2 DUP1 SLOAD PUSH1 0x0 SWAP2 DUP3 PUSH2 0x821 DUP4 PUSH2 0x1FE3 JUMP JUMPDEST SWAP2 SWAP1 POP SSTORE SWAP1 POP PUSH2 0x6A1 DUP3 DUP3 PUSH2 0xFBD JUMP JUMPDEST PUSH2 0x84C DUP4 DUP4 DUP4 PUSH1 0x40 MLOAD DUP1 PUSH1 0x20 ADD PUSH1 0x40 MSTORE DUP1 PUSH1 0x0 DUP2 MSTORE POP PUSH2 0xC2A JUMP JUMPDEST POP POP POP JUMP JUMPDEST PUSH2 0x6A1 PUSH1 0x0 DUP3 CALLER PUSH2 0xE6D JUMP JUMPDEST PUSH2 0x865 PUSH2 0xCF9 JUMP JUMPDEST PUSH1 0x1 PUSH1 0x1 PUSH1 0xA0 SHL SUB SWAP2 SWAP1 SWAP2 AND PUSH1 0x0 SWAP1 DUP2 MSTORE PUSH1 0x1 PUSH1 0x20 MSTORE PUSH1 0x40 SWAP1 KECCAK256 DUP1 SLOAD PUSH1 0xFF NOT AND SWAP2 ISZERO ISZERO SWAP2 SWAP1 SWAP2 OR SWAP1 SSTORE JUMP JUMPDEST PUSH2 0x898 PUSH2 0xFD7 JUMP JUMPDEST PUSH2 0x8A1 DUP3 PUSH2 0x108E JUMP JUMPDEST PUSH2 0x6A1 DUP3 DUP3 PUSH2 0x1096 JUMP JUMPDEST PUSH1 0x0 PUSH2 0x8B5 PUSH2 0x117E JUMP JUMPDEST POP PUSH32 0x360894A13BA1A3210667C828492DB98DCA3E2076CC3735A920A3CA505D382BBC SWAP1 JUMP JUMPDEST PUSH2 0x8E2 PUSH2 0xCF9 JUMP JUMPDEST PUSH1 0x0 PUSH2 0x6A1 DUP3 DUP3 PUSH2 0x205A JUMP JUMPDEST PUSH1 0x0 PUSH2 0x592 DUP3 PUSH2 0xE08 JUMP JUMPDEST PUSH1 0x0 PUSH32 0x80BB2B638CC20BC4D0A60D66940F3AB4A00C1D7B313497CA82FB0B4AB0079300 PUSH1 0x1 PUSH1 0x1 PUSH1 0xA0 SHL SUB DUP4 AND PUSH2 0x95F JUMPI PUSH1 0x40 MLOAD PUSH32 0x89C62B6400000000000000000000000000000000000000000000000000000000 DUP2 MSTORE PUSH1 0x0 PUSH1 0x4 DUP3 ADD MSTORE PUSH1 0x24 ADD PUSH2 0x721 JUMP JUMPDEST PUSH1 0x1 PUSH1 0x1 PUSH1 0xA0 SHL SUB SWAP1 SWAP3 AND PUSH1 0x0 SWAP1 DUP2 MSTORE PUSH1 0x3 SWAP1 SWAP3 ADD PUSH1 0x20 MSTORE POP PUSH1 0x40 SWAP1 KECCAK256 SLOAD SWAP1 JUMP JUMPDEST PUSH2 0x988 PUSH2 0xCF9 JUMP JUMPDEST PUSH2 0x992 PUSH1 0x0 PUSH2 0x11C7 JUMP JUMPDEST JUMP JUMPDEST PUSH32 0xF0C57E16840DF040F15088DC2F81FE391C3923BEC73E23A9662EFC9C229C6A00 DUP1 SLOAD PUSH9 0x10000000000000000 DUP2 DIV PUSH1 0xFF AND ISZERO SWAP1 PUSH8 0xFFFFFFFFFFFFFFFF AND PUSH1 0x0 DUP2 ISZERO DUP1 ISZERO PUSH2 0x9DF JUMPI POP DUP3 JUMPDEST SWAP1 POP PUSH1 0x0 DUP3 PUSH8 0xFFFFFFFFFFFFFFFF AND PUSH1 0x1 EQ DUP1 ISZERO PUSH2 0x9FC JUMPI POP ADDRESS EXTCODESIZE ISZERO JUMPDEST SWAP1 POP DUP2 ISZERO DUP1 ISZERO PUSH2 0xA0A JUMPI POP DUP1 ISZERO JUMPDEST ISZERO PUSH2 0xA41 JUMPI PUSH1 0x40 MLOAD PUSH32 0xF92EE8A900000000000000000000000000000000000000000000000000000000 DUP2 MSTORE PUSH1 0x4 ADD PUSH1 0x40 MLOAD DUP1 SWAP2 SUB SWAP1 REVERT JUMPDEST DUP5 SLOAD PUSH8 0xFFFFFFFFFFFFFFFF NOT AND PUSH1 0x1 OR DUP6 SSTORE DUP4 ISZERO PUSH2 0xA75 JUMPI DUP5 SLOAD PUSH9 0xFF0000000000000000 NOT AND PUSH9 0x10000000000000000 OR DUP6 SSTORE JUMPDEST PUSH2 0xAE9 PUSH1 0x40 MLOAD DUP1 PUSH1 0x40 ADD PUSH1 0x40 MSTORE DUP1 PUSH1 0x10 DUP2 MSTORE PUSH1 0x20 ADD PUSH32 0x50697A7A6120537061636520436C756200000000000000000000000000000000 DUP2 MSTORE POP PUSH1 0x40 MLOAD DUP1 PUSH1 0x40 ADD PUSH1 0x40 MSTORE DUP1 PUSH1 0x10 DUP2 MSTORE PUSH1 0x20 ADD PUSH32 0x50697A7A6120537061636520436C756200000000000000000000000000000000 DUP2 MSTORE POP PUSH2 0x1245 JUMP JUMPDEST PUSH2 0xAF2 CALLER PUSH2 0x1257 JUMP JUMPDEST PUSH2 0xAFA PUSH2 0x1268 JUMP JUMPDEST PUSH1 0x40 MLOAD DUP1 PUSH1 0x60 ADD PUSH1 0x40 MSTORE DUP1 PUSH1 0x2E DUP2 MSTORE PUSH1 0x20 ADD PUSH2 0x2293 PUSH1 0x2E SWAP2 CODECOPY PUSH1 0x0 SWAP1 PUSH2 0xB20 SWAP1 DUP3 PUSH2 0x205A JUMP JUMPDEST POP PUSH3 0xA279C PUSH1 0x2 SSTORE PUSH2 0xB31 CALLER PUSH2 0x808 JUMP JUMPDEST PUSH20 0xDC8B1F859BD9AFD93159DECF75EADD5F871AE6EE PUSH1 0x0 MSTORE PUSH1 0x1 PUSH1 0x20 DUP2 SWAP1 MSTORE PUSH32 0xE7C879EAB4CD6274E4AE5F0E9B10AA4E52B66695E0155065357592C7A4DC9DFB DUP1 SLOAD PUSH1 0xFF NOT AND SWAP1 SWAP2 OR SWAP1 SSTORE DUP4 ISZERO PUSH2 0xBC7 JUMPI DUP5 SLOAD PUSH9 0xFF0000000000000000 NOT AND DUP6 SSTORE PUSH1 0x40 MLOAD PUSH1 0x1 DUP2 MSTORE PUSH32 0xC7F505B2F371AE2175EE4913F4499E1F2633A7B5936321EED1CDAEB6115181D2 SWAP1 PUSH1 0x20 ADD PUSH1 0x40 MLOAD DUP1 SWAP2 SUB SWAP1 LOG1 JUMPDEST POP POP POP POP POP JUMP JUMPDEST PUSH32 0x80BB2B638CC20BC4D0A60D66940F3AB4A00C1D7B313497CA82FB0B4AB0079301 DUP1 SLOAD PUSH1 0x60 SWAP2 PUSH32 0x80BB2B638CC20BC4D0A60D66940F3AB4A00C1D7B313497CA82FB0B4AB0079300 SWAP2 PUSH2 0x5CA SWAP1 PUSH2 0x1FA9 JUMP JUMPDEST PUSH2 0x6A1 CALLER DUP4 DUP4 PUSH2 0x1270 JUMP JUMPDEST PUSH2 0xC35 DUP5 DUP5 DUP5 PUSH2 0x6A5 JUMP JUMPDEST PUSH2 0x7C8 DUP5 DUP5 DUP5 DUP5 PUSH2 0x134C JUMP JUMPDEST PUSH1 0x60 PUSH1 0x0 PUSH2 0xC50 PUSH1 0x5 DUP5 PUSH2 0x211A JUMP JUMPDEST SWAP1 POP PUSH1 0x0 PUSH2 0xC5D DUP3 PUSH2 0x146E JUMP JUMPDEST PUSH1 0x40 MLOAD PUSH1 0x20 ADD PUSH2 0xC6D SWAP2 SWAP1 PUSH2 0x213C JUMP JUMPDEST PUSH1 0x40 DUP1 MLOAD PUSH1 0x1F NOT DUP2 DUP5 SUB ADD DUP2 MSTORE SWAP1 DUP3 SWAP1 MSTORE PUSH2 0xC8B SWAP3 SWAP2 PUSH1 0x20 ADD PUSH2 0x217D JUMP JUMPDEST PUSH1 0x40 MLOAD PUSH1 0x20 DUP2 DUP4 SUB SUB DUP2 MSTORE SWAP1 PUSH1 0x40 MSTORE SWAP2 POP POP SWAP2 SWAP1 POP JUMP JUMPDEST PUSH2 0xCAA PUSH2 0xCF9 JUMP JUMPDEST PUSH1 0x1 PUSH1 0x1 PUSH1 0xA0 SHL SUB DUP2 AND PUSH2 0xCED JUMPI PUSH1 0x40 MLOAD PUSH32 0x1E4FBDF700000000000000000000000000000000000000000000000000000000 DUP2 MSTORE PUSH1 0x0 PUSH1 0x4 DUP3 ADD MSTORE PUSH1 0x24 ADD PUSH2 0x721 JUMP JUMPDEST PUSH2 0xCF6 DUP2 PUSH2 0x11C7 JUMP JUMPDEST POP JUMP JUMPDEST CALLER PUSH2 0xD2B PUSH32 0x9016D09D72D40FDAE2FD8CEAC6B6234C7706214FD39C1CD1E609A0528C199300 SLOAD PUSH1 0x1 PUSH1 0x1 PUSH1 0xA0 SHL SUB AND SWAP1 JUMP JUMPDEST PUSH1 0x1 PUSH1 0x1 PUSH1 0xA0 SHL SUB AND EQ PUSH2 0x992 JUMPI PUSH1 0x40 MLOAD PUSH32 0x118CDAA700000000000000000000000000000000000000000000000000000000 DUP2 MSTORE CALLER PUSH1 0x4 DUP3 ADD MSTORE PUSH1 0x24 ADD PUSH2 0x721 JUMP JUMPDEST PUSH1 0x0 PUSH1 0x1 PUSH1 0x1 PUSH1 0xE0 SHL SUB NOT DUP3 AND PUSH32 0x80AC58CD00000000000000000000000000000000000000000000000000000000 EQ DUP1 PUSH2 0xDD0 JUMPI POP PUSH1 0x1 PUSH1 0x1 PUSH1 0xE0 SHL SUB NOT DUP3 AND PUSH32 0x5B5E139F00000000000000000000000000000000000000000000000000000000 EQ JUMPDEST DUP1 PUSH2 0x592 JUMPI POP PUSH32 0x1FFC9A700000000000000000000000000000000000000000000000000000000 PUSH1 0x1 PUSH1 0x1 PUSH1 0xE0 SHL SUB NOT DUP4 AND EQ PUSH2 0x592 JUMP JUMPDEST PUSH1 0x0 DUP2 DUP2 MSTORE PUSH32 0x80BB2B638CC20BC4D0A60D66940F3AB4A00C1D7B313497CA82FB0B4AB0079302 PUSH1 0x20 MSTORE PUSH1 0x40 DUP2 KECCAK256 SLOAD PUSH1 0x1 PUSH1 0x1 PUSH1 0xA0 SHL SUB AND DUP1 PUSH2 0x592 JUMPI PUSH1 0x40 MLOAD PUSH4 0x7E273289 PUSH1 0xE0 SHL DUP2 MSTORE PUSH1 0x4 DUP2 ADD DUP5 SWAP1 MSTORE PUSH1 0x24 ADD PUSH2 0x721 JUMP JUMPDEST PUSH2 0x84C DUP4 DUP4 DUP4 PUSH1 0x1 PUSH2 0x150E JUMP JUMPDEST PUSH1 0x0 DUP3 DUP2 MSTORE PUSH32 0x80BB2B638CC20BC4D0A60D66940F3AB4A00C1D7B313497CA82FB0B4AB0079302 PUSH1 0x20 MSTORE PUSH1 0x40 DUP2 KECCAK256 SLOAD PUSH32 0x80BB2B638CC20BC4D0A60D66940F3AB4A00C1D7B313497CA82FB0B4AB0079300 SWAP1 PUSH1 0x1 PUSH1 0x1 PUSH1 0xA0 SHL SUB SWAP1 DUP2 AND SWAP1 DUP5 AND ISZERO PUSH2 0xEDB JUMPI PUSH2 0xEDB DUP2 DUP6 DUP8 PUSH2 0x169A JUMP JUMPDEST PUSH1 0x1 PUSH1 0x1 PUSH1 0xA0 SHL SUB DUP2 AND ISZERO PUSH2 0xF1B JUMPI PUSH2 0xEF8 PUSH1 0x0 DUP7 PUSH1 0x0 DUP1 PUSH2 0x150E JUMP JUMPDEST PUSH1 0x1 PUSH1 0x1 PUSH1 0xA0 SHL SUB DUP2 AND PUSH1 0x0 SWAP1 DUP2 MSTORE PUSH1 0x3 DUP4 ADD PUSH1 0x20 MSTORE PUSH1 0x40 SWAP1 KECCAK256 DUP1 SLOAD PUSH1 0x0 NOT ADD SWAP1 SSTORE JUMPDEST PUSH1 0x1 PUSH1 0x1 PUSH1 0xA0 SHL SUB DUP7 AND ISZERO PUSH2 0xF4C JUMPI PUSH1 0x1 PUSH1 0x1 PUSH1 0xA0 SHL SUB DUP7 AND PUSH1 0x0 SWAP1 DUP2 MSTORE PUSH1 0x3 DUP4 ADD PUSH1 0x20 MSTORE PUSH1 0x40 SWAP1 KECCAK256 DUP1 SLOAD PUSH1 0x1 ADD SWAP1 SSTORE JUMPDEST PUSH1 0x0 DUP6 DUP2 MSTORE PUSH1 0x2 DUP4 ADD PUSH1 0x20 MSTORE PUSH1 0x40 DUP1 DUP3 KECCAK256 DUP1 SLOAD PUSH20 0xFFFFFFFFFFFFFFFFFFFFFFFFFFFFFFFFFFFFFFFF NOT AND PUSH1 0x1 PUSH1 0x1 PUSH1 0xA0 SHL SUB DUP11 DUP2 AND SWAP2 DUP3 OR SWAP1 SWAP3 SSTORE SWAP2 MLOAD DUP9 SWAP4 SWAP2 DUP6 AND SWAP2 PUSH32 0xDDF252AD1BE2C89B69C2B068FC378DAA952BA7F163C4A11628F55A4DF523B3EF SWAP2 LOG4 SWAP2 POP POP JUMPDEST SWAP4 SWAP3 POP POP POP JUMP JUMPDEST PUSH2 0x6A1 DUP3 DUP3 PUSH1 0x40 MLOAD DUP1 PUSH1 0x20 ADD PUSH1 0x40 MSTORE DUP1 PUSH1 0x0 DUP2 MSTORE POP PUSH2 0x1717 JUMP JUMPDEST ADDRESS PUSH1 0x1 PUSH1 0x1 PUSH1 0xA0 SHL SUB PUSH32 0x0 AND EQ DUP1 PUSH2 0x1070 JUMPI POP PUSH32 0x0 PUSH1 0x1 PUSH1 0x1 PUSH1 0xA0 SHL SUB AND PUSH2 0x1064 PUSH32 0x360894A13BA1A3210667C828492DB98DCA3E2076CC3735A920A3CA505D382BBC SLOAD PUSH1 0x1 PUSH1 0x1 PUSH1 0xA0 SHL SUB AND SWAP1 JUMP JUMPDEST PUSH1 0x1 PUSH1 0x1 PUSH1 0xA0 SHL SUB AND EQ ISZERO JUMPDEST ISZERO PUSH2 0x992 JUMPI PUSH1 0x40 MLOAD PUSH4 0x703E46DD PUSH1 0xE1 SHL DUP2 MSTORE PUSH1 0x4 ADD PUSH1 0x40 MLOAD DUP1 SWAP2 SUB SWAP1 REVERT JUMPDEST PUSH2 0xCF6 PUSH2 0xCF9 JUMP JUMPDEST DUP2 PUSH1 0x1 PUSH1 0x1 PUSH1 0xA0 SHL SUB AND PUSH4 0x52D1902D PUSH1 0x40 MLOAD DUP2 PUSH4 0xFFFFFFFF AND PUSH1 0xE0 SHL DUP2 MSTORE PUSH1 0x4 ADD PUSH1 0x20 PUSH1 0x40 MLOAD DUP1 DUP4 SUB DUP2 DUP7 GAS STATICCALL SWAP3 POP POP POP DUP1 ISZERO PUSH2 0x10F0 JUMPI POP PUSH1 0x40 DUP1 MLOAD PUSH1 0x1F RETURNDATASIZE SWAP1 DUP2 ADD PUSH1 0x1F NOT AND DUP3 ADD SWAP1 SWAP3 MSTORE PUSH2 0x10ED SWAP2 DUP2 ADD SWAP1 PUSH2 0x2204 JUMP JUMPDEST PUSH1 0x1 JUMPDEST PUSH2 0x1118 JUMPI PUSH1 0x40 MLOAD PUSH4 0x4C9C8CE3 PUSH1 0xE0 SHL DUP2 MSTORE PUSH1 0x1 PUSH1 0x1 PUSH1 0xA0 SHL SUB DUP4 AND PUSH1 0x4 DUP3 ADD MSTORE PUSH1 0x24 ADD PUSH2 0x721 JUMP JUMPDEST PUSH32 0x360894A13BA1A3210667C828492DB98DCA3E2076CC3735A920A3CA505D382BBC DUP2 EQ PUSH2 0x1174 JUMPI PUSH1 0x40 MLOAD PUSH32 0xAA1D49A400000000000000000000000000000000000000000000000000000000 DUP2 MSTORE PUSH1 0x4 DUP2 ADD DUP3 SWAP1 MSTORE PUSH1 0x24 ADD PUSH2 0x721 JUMP JUMPDEST PUSH2 0x84C DUP4 DUP4 PUSH2 0x172E JUMP JUMPDEST ADDRESS PUSH1 0x1 PUSH1 0x1 PUSH1 0xA0 SHL SUB PUSH32 0x0 AND EQ PUSH2 0x992 JUMPI PUSH1 0x40 MLOAD PUSH4 0x703E46DD PUSH1 0xE1 SHL DUP2 MSTORE PUSH1 0x4 ADD PUSH1 0x40 MLOAD DUP1 SWAP2 SUB SWAP1 REVERT JUMPDEST PUSH32 0x9016D09D72D40FDAE2FD8CEAC6B6234C7706214FD39C1CD1E609A0528C199300 DUP1 SLOAD PUSH20 0xFFFFFFFFFFFFFFFFFFFFFFFFFFFFFFFFFFFFFFFF NOT DUP2 AND PUSH1 0x1 PUSH1 0x1 PUSH1 0xA0 SHL SUB DUP5 DUP2 AND SWAP2 DUP3 OR DUP5 SSTORE PUSH1 0x40 MLOAD SWAP3 AND SWAP2 DUP3 SWAP1 PUSH32 0x8BE0079C531659141344CD1FD0A4F28419497F9722A3DAAFE3B4186F6B6457E0 SWAP1 PUSH1 0x0 SWAP1 LOG3 POP POP POP JUMP JUMPDEST PUSH2 0x124D PUSH2 0x1784 JUMP JUMPDEST PUSH2 0x6A1 DUP3 DUP3 PUSH2 0x17EB JUMP JUMPDEST PUSH2 0x125F PUSH2 0x1784 JUMP JUMPDEST PUSH2 0xCF6 DUP2 PUSH2 0x182E JUMP JUMPDEST PUSH2 0x992 PUSH2 0x1784 JUMP JUMPDEST PUSH32 0x80BB2B638CC20BC4D0A60D66940F3AB4A00C1D7B313497CA82FB0B4AB0079300 PUSH1 0x1 PUSH1 0x1 PUSH1 0xA0 SHL SUB DUP4 AND PUSH2 0x12DC JUMPI PUSH1 0x40 MLOAD PUSH32 0x5B08BA1800000000000000000000000000000000000000000000000000000000 DUP2 MSTORE PUSH1 0x1 PUSH1 0x1 PUSH1 0xA0 SHL SUB DUP5 AND PUSH1 0x4 DUP3 ADD MSTORE PUSH1 0x24 ADD PUSH2 0x721 JUMP JUMPDEST PUSH1 0x1 PUSH1 0x1 PUSH1 0xA0 SHL SUB DUP5 DUP2 AND PUSH1 0x0 DUP2 DUP2 MSTORE PUSH1 0x5 DUP5 ADD PUSH1 0x20 SWAP1 DUP2 MSTORE PUSH1 0x40 DUP1 DUP4 KECCAK256 SWAP5 DUP9 AND DUP1 DUP5 MSTORE SWAP5 DUP3 MSTORE SWAP2 DUP3 SWAP1 KECCAK256 DUP1 SLOAD PUSH1 0xFF NOT AND DUP8 ISZERO ISZERO SWAP1 DUP2 OR SWAP1 SWAP2 SSTORE SWAP2 MLOAD SWAP2 DUP3 MSTORE PUSH32 0x17307EAB39AB6107E8899845AD3D59BD9653F200F220920489CA2B5937696C31 SWAP2 ADD PUSH1 0x40 MLOAD DUP1 SWAP2 SUB SWAP1 LOG3 POP POP POP POP JUMP JUMPDEST PUSH1 0x1 PUSH1 0x1 PUSH1 0xA0 SHL SUB DUP4 AND EXTCODESIZE ISZERO PUSH2 0x7C8 JUMPI PUSH1 0x40 MLOAD PUSH4 0xA85BD01 PUSH1 0xE1 SHL DUP2 MSTORE PUSH1 0x1 PUSH1 0x1 PUSH1 0xA0 SHL SUB DUP5 AND SWAP1 PUSH4 0x150B7A02 SWAP1 PUSH2 0x138E SWAP1 CALLER SWAP1 DUP9 SWAP1 DUP8 SWAP1 DUP8 SWAP1 PUSH1 0x4 ADD PUSH2 0x221D JUMP JUMPDEST PUSH1 0x20 PUSH1 0x40 MLOAD DUP1 DUP4 SUB DUP2 PUSH1 0x0 DUP8 GAS CALL SWAP3 POP POP POP DUP1 ISZERO PUSH2 0x13C9 JUMPI POP PUSH1 0x40 DUP1 MLOAD PUSH1 0x1F RETURNDATASIZE SWAP1 DUP2 ADD PUSH1 0x1F NOT AND DUP3 ADD SWAP1 SWAP3 MSTORE PUSH2 0x13C6 SWAP2 DUP2 ADD SWAP1 PUSH2 0x2259 JUMP JUMPDEST PUSH1 0x1 JUMPDEST PUSH2 0x1432 JUMPI RETURNDATASIZE DUP1 DUP1 ISZERO PUSH2 0x13F7 JUMPI PUSH1 0x40 MLOAD SWAP2 POP PUSH1 0x1F NOT PUSH1 0x3F RETURNDATASIZE ADD AND DUP3 ADD PUSH1 0x40 MSTORE RETURNDATASIZE DUP3 MSTORE RETURNDATASIZE PUSH1 0x0 PUSH1 0x20 DUP5 ADD RETURNDATACOPY PUSH2 0x13FC JUMP JUMPDEST PUSH1 0x60 SWAP2 POP JUMPDEST POP DUP1 MLOAD PUSH1 0x0 SUB PUSH2 0x142A JUMPI PUSH1 0x40 MLOAD PUSH4 0x32505749 PUSH1 0xE1 SHL DUP2 MSTORE PUSH1 0x1 PUSH1 0x1 PUSH1 0xA0 SHL SUB DUP6 AND PUSH1 0x4 DUP3 ADD MSTORE PUSH1 0x24 ADD PUSH2 0x721 JUMP JUMPDEST DUP1 MLOAD DUP2 PUSH1 0x20 ADD REVERT JUMPDEST PUSH1 0x1 PUSH1 0x1 PUSH1 0xE0 SHL SUB NOT DUP2 AND PUSH4 0xA85BD01 PUSH1 0xE1 SHL EQ PUSH2 0xBC7 JUMPI PUSH1 0x40 MLOAD PUSH4 0x32505749 PUSH1 0xE1 SHL DUP2 MSTORE PUSH1 0x1 PUSH1 0x1 PUSH1 0xA0 SHL SUB DUP6 AND PUSH1 0x4 DUP3 ADD MSTORE PUSH1 0x24 ADD PUSH2 0x721 JUMP JUMPDEST PUSH1 0x60 PUSH1 0x0 PUSH2 0x147B DUP4 PUSH2 0x1836 JUMP JUMPDEST PUSH1 0x1 ADD SWAP1 POP PUSH1 0x0 DUP2 PUSH8 0xFFFFFFFFFFFFFFFF DUP2 GT ISZERO PUSH2 0x149B JUMPI PUSH2 0x149B PUSH2 0x1DCB JUMP JUMPDEST PUSH1 0x40 MLOAD SWAP1 DUP1 DUP3 MSTORE DUP1 PUSH1 0x1F ADD PUSH1 0x1F NOT AND PUSH1 0x20 ADD DUP3 ADD PUSH1 0x40 MSTORE DUP1 ISZERO PUSH2 0x14C5 JUMPI PUSH1 0x20 DUP3 ADD DUP2 DUP1 CALLDATASIZE DUP4 CALLDATACOPY ADD SWAP1 POP JUMPDEST POP SWAP1 POP DUP2 DUP2 ADD PUSH1 0x20 ADD JUMPDEST PUSH1 0x0 NOT ADD PUSH32 0x3031323334353637383961626364656600000000000000000000000000000000 PUSH1 0xA DUP7 MOD BYTE DUP2 MSTORE8 PUSH1 0xA DUP6 DIV SWAP5 POP DUP5 PUSH2 0x14CF JUMPI POP SWAP4 SWAP3 POP POP POP JUMP JUMPDEST PUSH32 0x80BB2B638CC20BC4D0A60D66940F3AB4A00C1D7B313497CA82FB0B4AB0079300 DUP2 DUP1 PUSH2 0x1543 JUMPI POP PUSH1 0x1 PUSH1 0x1 PUSH1 0xA0 SHL SUB DUP4 AND ISZERO ISZERO JUMPDEST ISZERO PUSH2 0x165C JUMPI PUSH1 0x0 PUSH2 0x1553 DUP6 PUSH2 0xE08 JUMP JUMPDEST SWAP1 POP PUSH1 0x1 PUSH1 0x1 PUSH1 0xA0 SHL SUB DUP5 AND ISZERO DUP1 ISZERO SWAP1 PUSH2 0x157F JUMPI POP DUP4 PUSH1 0x1 PUSH1 0x1 PUSH1 0xA0 SHL SUB AND DUP2 PUSH1 0x1 PUSH1 0x1 PUSH1 0xA0 SHL SUB AND EQ ISZERO JUMPDEST DUP1 ISZERO PUSH2 0x15D0 JUMPI POP PUSH1 0x1 PUSH1 0x1 PUSH1 0xA0 SHL SUB DUP1 DUP3 AND PUSH1 0x0 SWAP1 DUP2 MSTORE PUSH32 0x80BB2B638CC20BC4D0A60D66940F3AB4A00C1D7B313497CA82FB0B4AB0079305 PUSH1 0x20 SWAP1 DUP2 MSTORE PUSH1 0x40 DUP1 DUP4 KECCAK256 SWAP4 DUP9 AND DUP4 MSTORE SWAP3 SWAP1 MSTORE KECCAK256 SLOAD PUSH1 0xFF AND ISZERO JUMPDEST ISZERO PUSH2 0x1612 JUMPI PUSH1 0x40 MLOAD PUSH32 0xA9FBF51F00000000000000000000000000000000000000000000000000000000 DUP2 MSTORE PUSH1 0x1 PUSH1 0x1 PUSH1 0xA0 SHL SUB DUP6 AND PUSH1 0x4 DUP3 ADD MSTORE PUSH1 0x24 ADD PUSH2 0x721 JUMP JUMPDEST DUP3 ISZERO PUSH2 0x165A JUMPI DUP5 DUP7 PUSH1 0x1 PUSH1 0x1 PUSH1 0xA0 SHL SUB AND DUP3 PUSH1 0x1 PUSH1 0x1 PUSH1 0xA0 SHL SUB AND PUSH32 0x8C5BE1E5EBEC7D5BD14F71427D1E84F3DD0314C0F7B2291E5B200AC8C7C3B925 PUSH1 0x40 MLOAD PUSH1 0x40 MLOAD DUP1 SWAP2 SUB SWAP1 LOG4 JUMPDEST POP JUMPDEST PUSH1 0x0 SWAP4 DUP5 MSTORE PUSH1 0x4 ADD PUSH1 0x20 MSTORE POP POP PUSH1 0x40 SWAP1 KECCAK256 DUP1 SLOAD PUSH20 0xFFFFFFFFFFFFFFFFFFFFFFFFFFFFFFFFFFFFFFFF NOT AND PUSH1 0x1 PUSH1 0x1 PUSH1 0xA0 SHL SUB SWAP3 SWAP1 SWAP3 AND SWAP2 SWAP1 SWAP2 OR SWAP1 SSTORE JUMP JUMPDEST PUSH2 0x16A5 DUP4 DUP4 DUP4 PUSH2 0x1918 JUMP JUMPDEST PUSH2 0x84C JUMPI PUSH1 0x1 PUSH1 0x1 PUSH1 0xA0 SHL SUB DUP4 AND PUSH2 0x16D3 JUMPI PUSH1 0x40 MLOAD PUSH4 0x7E273289 PUSH1 0xE0 SHL DUP2 MSTORE PUSH1 0x4 DUP2 ADD DUP3 SWAP1 MSTORE PUSH1 0x24 ADD PUSH2 0x721 JUMP JUMPDEST PUSH1 0x40 MLOAD PUSH32 0x177E802F00000000000000000000000000000000000000000000000000000000 DUP2 MSTORE PUSH1 0x1 PUSH1 0x1 PUSH1 0xA0 SHL SUB DUP4 AND PUSH1 0x4 DUP3 ADD MSTORE PUSH1 0x24 DUP2 ADD DUP3 SWAP1 MSTORE PUSH1 0x44 ADD PUSH2 0x721 JUMP JUMPDEST PUSH2 0x1721 DUP4 DUP4 PUSH2 0x19DC JUMP JUMPDEST PUSH2 0x84C PUSH1 0x0 DUP5 DUP5 DUP5 PUSH2 0x134C JUMP JUMPDEST PUSH2 0x1737 DUP3 PUSH2 0x1A5A JUMP JUMPDEST PUSH1 0x40 MLOAD PUSH1 0x1 PUSH1 0x1 PUSH1 0xA0 SHL SUB DUP4 AND SWAP1 PUSH32 0xBC7CD75A20EE27FD9ADEBAB32041F755214DBC6BFFA90CC0225B39DA2E5C2D3B SWAP1 PUSH1 0x0 SWAP1 LOG2 DUP1 MLOAD ISZERO PUSH2 0x177C JUMPI PUSH2 0x84C DUP3 DUP3 PUSH2 0x1ADE JUMP JUMPDEST PUSH2 0x6A1 PUSH2 0x1B54 JUMP JUMPDEST PUSH32 0xF0C57E16840DF040F15088DC2F81FE391C3923BEC73E23A9662EFC9C229C6A00 SLOAD PUSH9 0x10000000000000000 SWAP1 DIV PUSH1 0xFF AND PUSH2 0x992 JUMPI PUSH1 0x40 MLOAD PUSH32 0xD7E6BCF800000000000000000000000000000000000000000000000000000000 DUP2 MSTORE PUSH1 0x4 ADD PUSH1 0x40 MLOAD DUP1 SWAP2 SUB SWAP1 REVERT JUMPDEST PUSH2 0x17F3 PUSH2 0x1784 JUMP JUMPDEST PUSH32 0x80BB2B638CC20BC4D0A60D66940F3AB4A00C1D7B313497CA82FB0B4AB0079300 DUP1 PUSH2 0x181F DUP5 DUP3 PUSH2 0x205A JUMP JUMPDEST POP PUSH1 0x1 DUP2 ADD PUSH2 0x7C8 DUP4 DUP3 PUSH2 0x205A JUMP JUMPDEST PUSH2 0xCAA PUSH2 0x1784 JUMP JUMPDEST PUSH1 0x0 DUP1 PUSH27 0x184F03E93FF9F4DAA797ED6E38ED64BF6A1F010000000000000000 DUP4 LT PUSH2 0x187F JUMPI PUSH27 0x184F03E93FF9F4DAA797ED6E38ED64BF6A1F010000000000000000 DUP4 DIV SWAP3 POP PUSH1 0x40 ADD JUMPDEST PUSH14 0x4EE2D6D415B85ACEF8100000000 DUP4 LT PUSH2 0x18AB JUMPI PUSH14 0x4EE2D6D415B85ACEF8100000000 DUP4 DIV SWAP3 POP PUSH1 0x20 ADD JUMPDEST PUSH7 0x2386F26FC10000 DUP4 LT PUSH2 0x18C9 JUMPI PUSH7 0x2386F26FC10000 DUP4 DIV SWAP3 POP PUSH1 0x10 ADD JUMPDEST PUSH4 0x5F5E100 DUP4 LT PUSH2 0x18E1 JUMPI PUSH4 0x5F5E100 DUP4 DIV SWAP3 POP PUSH1 0x8 ADD JUMPDEST PUSH2 0x2710 DUP4 LT PUSH2 0x18F5 JUMPI PUSH2 0x2710 DUP4 DIV SWAP3 POP PUSH1 0x4 ADD JUMPDEST PUSH1 0x64 DUP4 LT PUSH2 0x1907 JUMPI PUSH1 0x64 DUP4 DIV SWAP3 POP PUSH1 0x2 ADD JUMPDEST PUSH1 0xA DUP4 LT PUSH2 0x592 JUMPI PUSH1 0x1 ADD SWAP3 SWAP2 POP POP JUMP JUMPDEST PUSH1 0x0 PUSH1 0x1 PUSH1 0x1 PUSH1 0xA0 SHL SUB DUP4 AND ISZERO DUP1 ISZERO SWAP1 PUSH2 0x19D4 JUMPI POP DUP3 PUSH1 0x1 PUSH1 0x1 PUSH1 0xA0 SHL SUB AND DUP5 PUSH1 0x1 PUSH1 0x1 PUSH1 0xA0 SHL SUB AND EQ DUP1 PUSH2 0x1991 JUMPI POP PUSH1 0x1 PUSH1 0x1 PUSH1 0xA0 SHL SUB DUP1 DUP6 AND PUSH1 0x0 SWAP1 DUP2 MSTORE PUSH32 0x80BB2B638CC20BC4D0A60D66940F3AB4A00C1D7B313497CA82FB0B4AB0079305 PUSH1 0x20 SWAP1 DUP2 MSTORE PUSH1 0x40 DUP1 DUP4 KECCAK256 SWAP4 DUP8 AND DUP4 MSTORE SWAP3 SWAP1 MSTORE KECCAK256 SLOAD PUSH1 0xFF AND JUMPDEST DUP1 PUSH2 0x19D4 JUMPI POP PUSH1 0x0 DUP3 DUP2 MSTORE PUSH32 0x80BB2B638CC20BC4D0A60D66940F3AB4A00C1D7B313497CA82FB0B4AB0079304 PUSH1 0x20 MSTORE PUSH1 0x40 SWAP1 KECCAK256 SLOAD PUSH1 0x1 PUSH1 0x1 PUSH1 0xA0 SHL SUB DUP5 DUP2 AND SWAP2 AND EQ JUMPDEST SWAP5 SWAP4 POP POP POP POP JUMP JUMPDEST PUSH1 0x1 PUSH1 0x1 PUSH1 0xA0 SHL SUB DUP3 AND PUSH2 0x1A06 JUMPI PUSH1 0x40 MLOAD PUSH4 0x32505749 PUSH1 0xE1 SHL DUP2 MSTORE PUSH1 0x0 PUSH1 0x4 DUP3 ADD MSTORE PUSH1 0x24 ADD PUSH2 0x721 JUMP JUMPDEST PUSH1 0x0 PUSH2 0x1A14 DUP4 DUP4 PUSH1 0x0 PUSH2 0xE6D JUMP JUMPDEST SWAP1 POP PUSH1 0x1 PUSH1 0x1 PUSH1 0xA0 SHL SUB DUP2 AND ISZERO PUSH2 0x84C JUMPI PUSH1 0x40 MLOAD PUSH32 0x73C6AC6E00000000000000000000000000000000000000000000000000000000 DUP2 MSTORE PUSH1 0x0 PUSH1 0x4 DUP3 ADD MSTORE PUSH1 0x24 ADD PUSH2 0x721 JUMP JUMPDEST DUP1 PUSH1 0x1 PUSH1 0x1 PUSH1 0xA0 SHL SUB AND EXTCODESIZE PUSH1 0x0 SUB PUSH2 0x1A90 JUMPI PUSH1 0x40 MLOAD PUSH4 0x4C9C8CE3 PUSH1 0xE0 SHL DUP2 MSTORE PUSH1 0x1 PUSH1 0x1 PUSH1 0xA0 SHL SUB DUP3 AND PUSH1 0x4 DUP3 ADD MSTORE PUSH1 0x24 ADD PUSH2 0x721 JUMP JUMPDEST PUSH32 0x360894A13BA1A3210667C828492DB98DCA3E2076CC3735A920A3CA505D382BBC DUP1 SLOAD PUSH20 0xFFFFFFFFFFFFFFFFFFFFFFFFFFFFFFFFFFFFFFFF NOT AND PUSH1 0x1 PUSH1 0x1 PUSH1 0xA0 SHL SUB SWAP3 SWAP1 SWAP3 AND SWAP2 SWAP1 SWAP2 OR SWAP1 SSTORE JUMP JUMPDEST PUSH1 0x60 PUSH1 0x0 DUP1 DUP5 PUSH1 0x1 PUSH1 0x1 PUSH1 0xA0 SHL SUB AND DUP5 PUSH1 0x40 MLOAD PUSH2 0x1AFB SWAP2 SWAP1 PUSH2 0x2276 JUMP JUMPDEST PUSH1 0x0 PUSH1 0x40 MLOAD DUP1 DUP4 SUB DUP2 DUP6 GAS DELEGATECALL SWAP2 POP POP RETURNDATASIZE DUP1 PUSH1 0x0 DUP2 EQ PUSH2 0x1B36 JUMPI PUSH1 0x40 MLOAD SWAP2 POP PUSH1 0x1F NOT PUSH1 0x3F RETURNDATASIZE ADD AND DUP3 ADD PUSH1 0x40 MSTORE RETURNDATASIZE DUP3 MSTORE RETURNDATASIZE PUSH1 0x0 PUSH1 0x20 DUP5 ADD RETURNDATACOPY PUSH2 0x1B3B JUMP JUMPDEST PUSH1 0x60 SWAP2 POP JUMPDEST POP SWAP2 POP SWAP2 POP PUSH2 0x1B4B DUP6 DUP4 DUP4 PUSH2 0x1B8C JUMP JUMPDEST SWAP6 SWAP5 POP POP POP POP POP JUMP JUMPDEST CALLVALUE ISZERO PUSH2 0x992 JUMPI PUSH1 0x40 MLOAD PUSH32 0xB398979F00000000000000000000000000000000000000000000000000000000 DUP2 MSTORE PUSH1 0x4 ADD PUSH1 0x40 MLOAD DUP1 SWAP2 SUB SWAP1 REVERT JUMPDEST PUSH1 0x60 DUP3 PUSH2 0x1BA1 JUMPI PUSH2 0x1B9C DUP3 PUSH2 0x1C01 JUMP JUMPDEST PUSH2 0xFB6 JUMP JUMPDEST DUP2 MLOAD ISZERO DUP1 ISZERO PUSH2 0x1BB8 JUMPI POP PUSH1 0x1 PUSH1 0x1 PUSH1 0xA0 SHL SUB DUP5 AND EXTCODESIZE ISZERO JUMPDEST ISZERO PUSH2 0x1BFA JUMPI PUSH1 0x40 MLOAD PUSH32 0x9996B31500000000000000000000000000000000000000000000000000000000 DUP2 MSTORE PUSH1 0x1 PUSH1 0x1 PUSH1 0xA0 SHL SUB DUP6 AND PUSH1 0x4 DUP3 ADD MSTORE PUSH1 0x24 ADD PUSH2 0x721 JUMP JUMPDEST POP DUP1 PUSH2 0xFB6 JUMP JUMPDEST DUP1 MLOAD ISZERO PUSH2 0x1C11 JUMPI DUP1 MLOAD DUP1 DUP3 PUSH1 0x20 ADD REVERT JUMPDEST PUSH1 0x40 MLOAD PUSH32 0x1425EA4200000000000000000000000000000000000000000000000000000000 DUP2 MSTORE PUSH1 0x4 ADD PUSH1 0x40 MLOAD DUP1 SWAP2 SUB SWAP1 REVERT JUMPDEST PUSH1 0x0 PUSH1 0x20 DUP3 DUP5 SUB SLT ISZERO PUSH2 0x1C55 JUMPI PUSH1 0x0 DUP1 REVERT JUMPDEST POP CALLDATALOAD SWAP2 SWAP1 POP JUMP JUMPDEST PUSH1 0x1 PUSH1 0x1 PUSH1 0xE0 SHL SUB NOT DUP2 AND DUP2 EQ PUSH2 0xCF6 JUMPI PUSH1 0x0 DUP1 REVERT JUMPDEST PUSH1 0x0 PUSH1 0x20 DUP3 DUP5 SUB SLT ISZERO PUSH2 0x1C84 JUMPI PUSH1 0x0 DUP1 REVERT JUMPDEST DUP2 CALLDATALOAD PUSH2 0xFB6 DUP2 PUSH2 0x1C5C JUMP JUMPDEST PUSH1 0x0 JUMPDEST DUP4 DUP2 LT ISZERO PUSH2 0x1CAA JUMPI DUP2 DUP2 ADD MLOAD DUP4 DUP3 ADD MSTORE PUSH1 0x20 ADD PUSH2 0x1C92 JUMP JUMPDEST POP POP PUSH1 0x0 SWAP2 ADD MSTORE JUMP JUMPDEST PUSH1 0x0 DUP2 MLOAD DUP1 DUP5 MSTORE PUSH2 0x1CCB DUP2 PUSH1 0x20 DUP7 ADD PUSH1 0x20 DUP7 ADD PUSH2 0x1C8F JUMP JUMPDEST PUSH1 0x1F ADD PUSH1 0x1F NOT AND SWAP3 SWAP1 SWAP3 ADD PUSH1 0x20 ADD SWAP3 SWAP2 POP POP JUMP JUMPDEST PUSH1 0x20 DUP2 MSTORE PUSH1 0x0 PUSH2 0xFB6 PUSH1 0x20 DUP4 ADD DUP5 PUSH2 0x1CB3 JUMP JUMPDEST DUP1 CALLDATALOAD PUSH1 0x1 PUSH1 0x1 PUSH1 0xA0 SHL SUB DUP2 AND DUP2 EQ PUSH2 0x1D09 JUMPI PUSH1 0x0 DUP1 REVERT JUMPDEST SWAP2 SWAP1 POP JUMP JUMPDEST PUSH1 0x0 DUP1 PUSH1 0x40 DUP4 DUP6 SUB SLT ISZERO PUSH2 0x1D21 JUMPI PUSH1 0x0 DUP1 REVERT JUMPDEST PUSH2 0x1D2A DUP4 PUSH2 0x1CF2 JUMP JUMPDEST SWAP5 PUSH1 0x20 SWAP4 SWAP1 SWAP4 ADD CALLDATALOAD SWAP4 POP POP POP JUMP JUMPDEST PUSH1 0x0 DUP1 PUSH1 0x0 PUSH1 0x60 DUP5 DUP7 SUB SLT ISZERO PUSH2 0x1D4D JUMPI PUSH1 0x0 DUP1 REVERT JUMPDEST PUSH2 0x1D56 DUP5 PUSH2 0x1CF2 JUMP JUMPDEST SWAP3 POP PUSH2 0x1D64 PUSH1 0x20 DUP6 ADD PUSH2 0x1CF2 JUMP JUMPDEST SWAP2 POP PUSH1 0x40 DUP5 ADD CALLDATALOAD SWAP1 POP SWAP3 POP SWAP3 POP SWAP3 JUMP JUMPDEST PUSH1 0x0 PUSH1 0x20 DUP3 DUP5 SUB SLT ISZERO PUSH2 0x1D86 JUMPI PUSH1 0x0 DUP1 REVERT JUMPDEST PUSH2 0xFB6 DUP3 PUSH2 0x1CF2 JUMP JUMPDEST PUSH1 0x0 DUP1 PUSH1 0x40 DUP4 DUP6 SUB SLT ISZERO PUSH2 0x1DA2 JUMPI PUSH1 0x0 DUP1 REVERT JUMPDEST PUSH2 0x1DAB DUP4 PUSH2 0x1CF2 JUMP JUMPDEST SWAP2 POP PUSH1 0x20 DUP4 ADD CALLDATALOAD DUP1 ISZERO ISZERO DUP2 EQ PUSH2 0x1DC0 JUMPI PUSH1 0x0 DUP1 REVERT JUMPDEST DUP1 SWAP2 POP POP SWAP3 POP SWAP3 SWAP1 POP JUMP JUMPDEST PUSH4 0x4E487B71 PUSH1 0xE0 SHL PUSH1 0x0 MSTORE PUSH1 0x41 PUSH1 0x4 MSTORE PUSH1 0x24 PUSH1 0x0 REVERT JUMPDEST PUSH1 0x0 PUSH8 0xFFFFFFFFFFFFFFFF DUP1 DUP5 GT ISZERO PUSH2 0x1DFC JUMPI PUSH2 0x1DFC PUSH2 0x1DCB JUMP JUMPDEST PUSH1 0x40 MLOAD PUSH1 0x1F DUP6 ADD PUSH1 0x1F NOT SWAP1 DUP2 AND PUSH1 0x3F ADD AND DUP2 ADD SWAP1 DUP3 DUP3 GT DUP2 DUP4 LT OR ISZERO PUSH2 0x1E24 JUMPI PUSH2 0x1E24 PUSH2 0x1DCB JUMP JUMPDEST DUP2 PUSH1 0x40 MSTORE DUP1 SWAP4 POP DUP6 DUP2 MSTORE DUP7 DUP7 DUP7 ADD GT ISZERO PUSH2 0x1E3D JUMPI PUSH1 0x0 DUP1 REVERT JUMPDEST DUP6 DUP6 PUSH1 0x20 DUP4 ADD CALLDATACOPY PUSH1 0x0 PUSH1 0x20 DUP8 DUP4 ADD ADD MSTORE POP POP POP SWAP4 SWAP3 POP POP POP JUMP JUMPDEST PUSH1 0x0 DUP3 PUSH1 0x1F DUP4 ADD SLT PUSH2 0x1E68 JUMPI PUSH1 0x0 DUP1 REVERT JUMPDEST PUSH2 0xFB6 DUP4 DUP4 CALLDATALOAD PUSH1 0x20 DUP6 ADD PUSH2 0x1DE1 JUMP JUMPDEST PUSH1 0x0 DUP1 PUSH1 0x40 DUP4 DUP6 SUB SLT ISZERO PUSH2 0x1E8A JUMPI PUSH1 0x0 DUP1 REVERT JUMPDEST PUSH2 0x1E93 DUP4 PUSH2 0x1CF2 JUMP JUMPDEST SWAP2 POP PUSH1 0x20 DUP4 ADD CALLDATALOAD PUSH8 0xFFFFFFFFFFFFFFFF DUP2 GT ISZERO PUSH2 0x1EAF JUMPI PUSH1 0x0 DUP1 REVERT JUMPDEST PUSH2 0x1EBB DUP6 DUP3 DUP7 ADD PUSH2 0x1E57 JUMP JUMPDEST SWAP2 POP POP SWAP3 POP SWAP3 SWAP1 POP JUMP JUMPDEST PUSH1 0x0 PUSH1 0x20 DUP3 DUP5 SUB SLT ISZERO PUSH2 0x1ED7 JUMPI PUSH1 0x0 DUP1 REVERT JUMPDEST DUP2 CALLDATALOAD PUSH8 0xFFFFFFFFFFFFFFFF DUP2 GT ISZERO PUSH2 0x1EEE JUMPI PUSH1 0x0 DUP1 REVERT JUMPDEST DUP3 ADD PUSH1 0x1F DUP2 ADD DUP5 SGT PUSH2 0x1EFF JUMPI PUSH1 0x0 DUP1 REVERT JUMPDEST PUSH2 0x19D4 DUP5 DUP3 CALLDATALOAD PUSH1 0x20 DUP5 ADD PUSH2 0x1DE1 JUMP JUMPDEST PUSH1 0x0 DUP1 PUSH1 0x0 DUP1 PUSH1 0x80 DUP6 DUP8 SUB SLT ISZERO PUSH2 0x1F24 JUMPI PUSH1 0x0 DUP1 REVERT JUMPDEST PUSH2 0x1F2D DUP6 PUSH2 0x1CF2 JUMP JUMPDEST SWAP4 POP PUSH2 0x1F3B PUSH1 0x20 DUP7 ADD PUSH2 0x1CF2 JUMP JUMPDEST SWAP3 POP PUSH1 0x40 DUP6 ADD CALLDATALOAD SWAP2 POP PUSH1 0x60 DUP6 ADD CALLDATALOAD PUSH8 0xFFFFFFFFFFFFFFFF DUP2 GT ISZERO PUSH2 0x1F5E JUMPI PUSH1 0x0 DUP1 REVERT JUMPDEST PUSH2 0x1F6A DUP8 DUP3 DUP9 ADD PUSH2 0x1E57 JUMP JUMPDEST SWAP2 POP POP SWAP3 SWAP6 SWAP2 SWAP5 POP SWAP3 POP JUMP JUMPDEST PUSH1 0x0 DUP1 PUSH1 0x40 DUP4 DUP6 SUB SLT ISZERO PUSH2 0x1F89 JUMPI PUSH1 0x0 DUP1 REVERT JUMPDEST PUSH2 0x1F92 DUP4 PUSH2 0x1CF2 JUMP JUMPDEST SWAP2 POP PUSH2 0x1FA0 PUSH1 0x20 DUP5 ADD PUSH2 0x1CF2 JUMP JUMPDEST SWAP1 POP SWAP3 POP SWAP3 SWAP1 POP JUMP JUMPDEST PUSH1 0x1 DUP2 DUP2 SHR SWAP1 DUP3 AND DUP1 PUSH2 0x1FBD JUMPI PUSH1 0x7F DUP3 AND SWAP2 POP JUMPDEST PUSH1 0x20 DUP3 LT DUP2 SUB PUSH2 0x1FDD JUMPI PUSH4 0x4E487B71 PUSH1 0xE0 SHL PUSH1 0x0 MSTORE PUSH1 0x22 PUSH1 0x4 MSTORE PUSH1 0x24 PUSH1 0x0 REVERT JUMPDEST POP SWAP2 SWAP1 POP JUMP JUMPDEST PUSH1 0x0 PUSH1 0x1 DUP3 ADD PUSH2 0x2003 JUMPI PUSH4 0x4E487B71 PUSH1 0xE0 SHL PUSH1 0x0 MSTORE PUSH1 0x11 PUSH1 0x4 MSTORE PUSH1 0x24 PUSH1 0x0 REVERT JUMPDEST POP PUSH1 0x1 ADD SWAP1 JUMP JUMPDEST PUSH1 0x1F DUP3 GT ISZERO PUSH2 0x84C JUMPI PUSH1 0x0 DUP2 PUSH1 0x0 MSTORE PUSH1 0x20 PUSH1 0x0 KECCAK256 PUSH1 0x1F DUP6 ADD PUSH1 0x5 SHR DUP2 ADD PUSH1 0x20 DUP7 LT ISZERO PUSH2 0x2033 JUMPI POP DUP1 JUMPDEST PUSH1 0x1F DUP6 ADD PUSH1 0x5 SHR DUP3 ADD SWAP2 POP JUMPDEST DUP2 DUP2 LT ISZERO PUSH2 0x2052 JUMPI DUP3 DUP2 SSTORE PUSH1 0x1 ADD PUSH2 0x203F JUMP JUMPDEST POP POP POP POP POP POP JUMP JUMPDEST DUP2 MLOAD PUSH8 0xFFFFFFFFFFFFFFFF DUP2 GT ISZERO PUSH2 0x2074 JUMPI PUSH2 0x2074 PUSH2 0x1DCB JUMP JUMPDEST PUSH2 0x2088 DUP2 PUSH2 0x2082 DUP5 SLOAD PUSH2 0x1FA9 JUMP JUMPDEST DUP5 PUSH2 0x200A JUMP JUMPDEST PUSH1 0x20 DUP1 PUSH1 0x1F DUP4 GT PUSH1 0x1 DUP2 EQ PUSH2 0x20BD JUMPI PUSH1 0x0 DUP5 ISZERO PUSH2 0x20A5 JUMPI POP DUP6 DUP4 ADD MLOAD JUMPDEST PUSH1 0x0 NOT PUSH1 0x3 DUP7 SWAP1 SHL SHR NOT AND PUSH1 0x1 DUP6 SWAP1 SHL OR DUP6 SSTORE PUSH2 0x2052 JUMP JUMPDEST PUSH1 0x0 DUP6 DUP2 MSTORE PUSH1 0x20 DUP2 KECCAK256 PUSH1 0x1F NOT DUP7 AND SWAP2 JUMPDEST DUP3 DUP2 LT ISZERO PUSH2 0x20EC JUMPI DUP9 DUP7 ADD MLOAD DUP3 SSTORE SWAP5 DUP5 ADD SWAP5 PUSH1 0x1 SWAP1 SWAP2 ADD SWAP1 DUP5 ADD PUSH2 0x20CD JUMP JUMPDEST POP DUP6 DUP3 LT ISZERO PUSH2 0x210A JUMPI DUP8 DUP6 ADD MLOAD PUSH1 0x0 NOT PUSH1 0x3 DUP9 SWAP1 SHL PUSH1 0xF8 AND SHR NOT AND DUP2 SSTORE JUMPDEST POP POP POP POP POP PUSH1 0x1 SWAP1 DUP2 SHL ADD SWAP1 SSTORE POP JUMP JUMPDEST PUSH1 0x0 DUP3 PUSH2 0x2137 JUMPI PUSH4 0x4E487B71 PUSH1 0xE0 SHL PUSH1 0x0 MSTORE PUSH1 0x12 PUSH1 0x4 MSTORE PUSH1 0x24 PUSH1 0x0 REVERT JUMPDEST POP MOD SWAP1 JUMP JUMPDEST PUSH1 0x0 DUP3 MLOAD PUSH2 0x214E DUP2 DUP5 PUSH1 0x20 DUP8 ADD PUSH2 0x1C8F JUMP JUMPDEST PUSH32 0x2E6A736F6E000000000000000000000000000000000000000000000000000000 SWAP3 ADD SWAP2 DUP3 MSTORE POP PUSH1 0x5 ADD SWAP2 SWAP1 POP JUMP JUMPDEST PUSH1 0x0 DUP1 DUP5 SLOAD PUSH2 0x218B DUP2 PUSH2 0x1FA9 JUMP JUMPDEST PUSH1 0x1 DUP3 DUP2 AND DUP1 ISZERO PUSH2 0x21A3 JUMPI PUSH1 0x1 DUP2 EQ PUSH2 0x21B8 JUMPI PUSH2 0x21E7 JUMP JUMPDEST PUSH1 0xFF NOT DUP5 AND DUP8 MSTORE DUP3 ISZERO ISZERO DUP4 MUL DUP8 ADD SWAP5 POP PUSH2 0x21E7 JUMP JUMPDEST DUP9 PUSH1 0x0 MSTORE PUSH1 0x20 DUP1 PUSH1 0x0 KECCAK256 PUSH1 0x0 JUMPDEST DUP6 DUP2 LT ISZERO PUSH2 0x21DE JUMPI DUP2 SLOAD DUP11 DUP3 ADD MSTORE SWAP1 DUP5 ADD SWAP1 DUP3 ADD PUSH2 0x21C5 JUMP JUMPDEST POP POP POP DUP3 DUP8 ADD SWAP5 POP JUMPDEST POP POP POP POP DUP4 MLOAD PUSH2 0x21FB DUP2 DUP4 PUSH1 0x20 DUP9 ADD PUSH2 0x1C8F JUMP JUMPDEST ADD SWAP5 SWAP4 POP POP POP POP JUMP JUMPDEST PUSH1 0x0 PUSH1 0x20 DUP3 DUP5 SUB SLT ISZERO PUSH2 0x2216 JUMPI PUSH1 0x0 DUP1 REVERT JUMPDEST POP MLOAD SWAP2 SWAP1 POP JUMP JUMPDEST PUSH1 0x0 PUSH1 0x1 PUSH1 0x1 PUSH1 0xA0 SHL SUB DUP1 DUP8 AND DUP4 MSTORE DUP1 DUP7 AND PUSH1 0x20 DUP5 ADD MSTORE POP DUP4 PUSH1 0x40 DUP4 ADD MSTORE PUSH1 0x80 PUSH1 0x60 DUP4 ADD MSTORE PUSH2 0x224F PUSH1 0x80 DUP4 ADD DUP5 PUSH2 0x1CB3 JUMP JUMPDEST SWAP7 SWAP6 POP POP POP POP POP POP JUMP JUMPDEST PUSH1 0x0 PUSH1 0x20 DUP3 DUP5 SUB SLT ISZERO PUSH2 0x226B JUMPI PUSH1 0x0 DUP1 REVERT JUMPDEST DUP2 MLOAD PUSH2 0xFB6 DUP2 PUSH2 0x1C5C JUMP JUMPDEST PUSH1 0x0 DUP3 MLOAD PUSH2 0x2288 DUP2 DUP5 PUSH1 0x20 DUP8 ADD PUSH2 0x1C8F JUMP JUMPDEST SWAP2 SWAP1 SWAP2 ADD SWAP3 SWAP2 POP POP JUMP INVALID PUSH9 0x747470733A2F2F6274 PUSH24 0x67737761702E6769746875622E696F2F6E66742F70697A7A PUSH2 0x7370 PUSH2 0x6365 PUSH4 0x6C75622F LOG2 PUSH5 0x6970667358 0x22 SLT KECCAK256 INVALID 0x4C 0xB5 0xC8 GASLIMIT PUSH29 0xFA8FC1428166CFC11758AB0E7BC8FD9C93F590E74EF89D97C2EB64736F PUSH13 0x63430008180033000000000000 "},"methodIdentifiers":{"UPGRADE_INTERFACE_VERSION()":"ad3cb1cc","approve(address,uint256)":"095ea7b3","balanceOf(address)":"70a08231","burn(uint256)":"42966c68","getApproved(uint256)":"081812fc","initialize()":"8129fc1c","isApprovedForAll(address,address)":"e985e9c5","name()":"06fdde03","owner()":"8da5cb5b","ownerOf(uint256)":"6352211e","proxiableUUID()":"52d1902d","renounceOwnership()":"715018a6","safeMint(address)":"40d097c3","safeMintBatch(uint256)":"36a6b828","safeTransferFrom(address,address,uint256)":"42842e0e","safeTransferFrom(address,address,uint256,bytes)":"b88d4fde","setApprovalForAll(address,bool)":"a22cb465","setBaseURI(string)":"55f804b3","setNextId(uint256)":"019e9251","setSenderAllowlist(address,bool)":"4ce885fb","supportsInterface(bytes4)":"01ffc9a7","symbol()":"95d89b41","tokenURI(uint256)":"c87b56dd","transferFrom(address,address,uint256)":"23b872dd","transferOwnership(address)":"f2fde38b","upgradeToAndCall(address,bytes)":"4f1ef286"}},"storageLayout":{"storage":[{"astId":6968,"contract":"contracts/pizzaspace_nft_new.sol:PizzaSpaceClub","label":"NFTBaseURI","offset":0,"slot":"0","type":"t_string_storage"},{"astId":6972,"contract":"contracts/pizzaspace_nft_new.sol:PizzaSpaceClub","label":"senderAllowlist","offset":0,"slot":"1","type":"t_mapping(t_address,t_bool)"},{"astId":6974,"contract":"contracts/pizzaspace_nft_new.sol:PizzaSpaceClub","label":"_nextTokenId","offset":0,"slot":"2","type":"t_uint256"}],"types":{"t_address":{"encoding":"inplace","label":"address","numberOfBytes":"20"},"t_bool":{"encoding":"inplace","label":"bool","numberOfBytes":"1"},"t_mapping(t_address,t_bool)":{"encoding":"mapping","key":"t_address","label":"mapping(address => bool)","numberOfBytes":"32","value":"t_bool"},"t_string_storage":{"encoding":"bytes","label":"string","numberOfBytes":"32"},"t_uint256":{"encoding":"inplace","label":"uint256","numberOfBytes":"32"}}}}}}