{"contracts/BT2.sol":{"BT2":{"abi":[{"inputs":[],"stateMutability":"nonpayable","type":"constructor"},{"inputs":[{"internalType":"address","name":"target","type":"address"}],"name":"AddressEmptyCode","type":"error"},{"inputs":[{"internalType":"address","name":"implementation","type":"address"}],"name":"ERC1967InvalidImplementation","type":"error"},{"inputs":[],"name":"ERC1967NonPayable","type":"error"},{"inputs":[{"internalType":"address","name":"spender","type":"address"},{"internalType":"uint256","name":"allowance","type":"uint256"},{"internalType":"uint256","name":"needed","type":"uint256"}],"name":"ERC20InsufficientAllowance","type":"error"},{"inputs":[{"internalType":"address","name":"sender","type":"address"},{"internalType":"uint256","name":"balance","type":"uint256"},{"internalType":"uint256","name":"needed","type":"uint256"}],"name":"ERC20InsufficientBalance","type":"error"},{"inputs":[{"internalType":"address","name":"approver","type":"address"}],"name":"ERC20InvalidApprover","type":"error"},{"inputs":[{"internalType":"address","name":"receiver","type":"address"}],"name":"ERC20InvalidReceiver","type":"error"},{"inputs":[{"internalType":"address","name":"sender","type":"address"}],"name":"ERC20InvalidSender","type":"error"},{"inputs":[{"internalType":"address","name":"spender","type":"address"}],"name":"ERC20InvalidSpender","type":"error"},{"inputs":[],"name":"FailedInnerCall","type":"error"},{"inputs":[],"name":"InvalidInitialization","type":"error"},{"inputs":[],"name":"NotInitializing","type":"error"},{"inputs":[{"internalType":"address","name":"owner","type":"address"}],"name":"OwnableInvalidOwner","type":"error"},{"inputs":[{"internalType":"address","name":"account","type":"address"}],"name":"OwnableUnauthorizedAccount","type":"error"},{"inputs":[],"name":"UUPSUnauthorizedCallContext","type":"error"},{"inputs":[{"internalType":"bytes32","name":"slot","type":"bytes32"}],"name":"UUPSUnsupportedProxiableUUID","type":"error"},{"anonymous":false,"inputs":[{"indexed":false,"internalType":"uint32","name":"_blockToUnlockLiquidity","type":"uint32"},{"indexed":false,"internalType":"uint256","name":"value","type":"uint256"}],"name":"AddLiquidity","type":"event"},{"anonymous":false,"inputs":[{"indexed":true,"internalType":"address","name":"owner","type":"address"},{"indexed":true,"internalType":"address","name":"spender","type":"address"},{"indexed":false,"internalType":"uint256","name":"value","type":"uint256"}],"name":"Approval","type":"event"},{"anonymous":false,"inputs":[{"indexed":false,"internalType":"uint64","name":"version","type":"uint64"}],"name":"Initialized","type":"event"},{"anonymous":false,"inputs":[{"indexed":true,"internalType":"address","name":"previousOwner","type":"address"},{"indexed":true,"internalType":"address","name":"newOwner","type":"address"}],"name":"OwnershipTransferred","type":"event"},{"anonymous":false,"inputs":[{"indexed":true,"internalType":"address","name":"sender","type":"address"},{"indexed":false,"internalType":"uint256","name":"value","type":"uint256"}],"name":"Pledge","type":"event"},{"anonymous":false,"inputs":[{"indexed":false,"internalType":"uint256","name":"value","type":"uint256"}],"name":"RemoveLiquidity","type":"event"},{"anonymous":false,"inputs":[{"indexed":true,"internalType":"address","name":"sender","type":"address"},{"indexed":false,"internalType":"uint256","name":"value","type":"uint256"}],"name":"RemovePledge","type":"event"},{"anonymous":false,"inputs":[{"indexed":true,"internalType":"address","name":"sender","type":"address"},{"indexed":false,"internalType":"uint256","name":"amount0In","type":"uint256"},{"indexed":false,"internalType":"uint256","name":"amount1In","type":"uint256"},{"indexed":false,"internalType":"uint256","name":"amount0Out","type":"uint256"},{"indexed":false,"internalType":"uint256","name":"amount1Out","type":"uint256"}],"name":"Swap","type":"event"},{"anonymous":false,"inputs":[{"indexed":true,"internalType":"address","name":"from","type":"address"},{"indexed":true,"internalType":"address","name":"to","type":"address"},{"indexed":false,"internalType":"uint256","name":"value","type":"uint256"}],"name":"Transfer","type":"event"},{"anonymous":false,"inputs":[{"indexed":true,"internalType":"address","name":"implementation","type":"address"}],"name":"Upgraded","type":"event"},{"inputs":[],"name":"UPGRADE_INTERFACE_VERSION","outputs":[{"internalType":"string","name":"","type":"string"}],"stateMutability":"view","type":"function"},{"inputs":[],"name":"_fireStopAmount","outputs":[{"internalType":"uint256","name":"","type":"uint256"}],"stateMutability":"view","type":"function"},{"inputs":[],"name":"_maxSellAmount","outputs":[{"internalType":"uint256","name":"","type":"uint256"}],"stateMutability":"view","type":"function"},{"inputs":[],"name":"_maxWallet","outputs":[{"internalType":"uint256","name":"","type":"uint256"}],"stateMutability":"view","type":"function"},{"inputs":[],"name":"_nodeLimitAmount","outputs":[{"internalType":"uint256","name":"","type":"uint256"}],"stateMutability":"view","type":"function"},{"inputs":[{"internalType":"address","name":"owner","type":"address"},{"internalType":"address","name":"spender","type":"address"}],"name":"allowance","outputs":[{"internalType":"uint256","name":"","type":"uint256"}],"stateMutability":"view","type":"function"},{"inputs":[{"internalType":"address","name":"spender","type":"address"},{"internalType":"uint256","name":"value","type":"uint256"}],"name":"approve","outputs":[{"internalType":"bool","name":"","type":"bool"}],"stateMutability":"nonpayable","type":"function"},{"inputs":[{"internalType":"address","name":"account","type":"address"}],"name":"balanceOf","outputs":[{"internalType":"uint256","name":"","type":"uint256"}],"stateMutability":"view","type":"function"},{"inputs":[{"internalType":"uint256","name":"","type":"uint256"}],"name":"communityAddress","outputs":[{"internalType":"address","name":"","type":"address"}],"stateMutability":"view","type":"function"},{"inputs":[],"name":"communityBonus","outputs":[{"internalType":"uint256","name":"","type":"uint256"}],"stateMutability":"view","type":"function"},{"inputs":[{"internalType":"address","name":"","type":"address"}],"name":"communityCount","outputs":[{"internalType":"uint256","name":"","type":"uint256"}],"stateMutability":"view","type":"function"},{"inputs":[],"name":"decimals","outputs":[{"internalType":"uint8","name":"","type":"uint8"}],"stateMutability":"view","type":"function"},{"inputs":[],"name":"ecoAddress","outputs":[{"internalType":"address","name":"","type":"address"}],"stateMutability":"view","type":"function"},{"inputs":[{"internalType":"bool","name":"_maxWalletEnable","type":"bool"}],"name":"enableMaxWallet","outputs":[],"stateMutability":"nonpayable","type":"function"},{"inputs":[],"name":"feeAddress","outputs":[{"internalType":"address","name":"","type":"address"}],"stateMutability":"view","type":"function"},{"inputs":[{"internalType":"uint256","name":"value","type":"uint256"},{"internalType":"bool","name":"_buy","type":"bool"}],"name":"getAmountOut","outputs":[{"internalType":"uint256","name":"","type":"uint256"}],"stateMutability":"view","type":"function"},{"inputs":[],"name":"getNodeAddress","outputs":[{"internalType":"address[]","name":"","type":"address[]"}],"stateMutability":"view","type":"function"},{"inputs":[{"internalType":"address","name":"addr","type":"address"}],"name":"getPledgeReceiptRelation","outputs":[{"internalType":"uint256","name":"","type":"uint256"}],"stateMutability":"view","type":"function"},{"inputs":[],"name":"getReserves","outputs":[{"internalType":"uint256","name":"","type":"uint256"},{"internalType":"uint256","name":"","type":"uint256"}],"stateMutability":"view","type":"function"},{"inputs":[],"name":"initialize","outputs":[],"stateMutability":"nonpayable","type":"function"},{"inputs":[],"name":"lastRewardAt","outputs":[{"internalType":"uint256","name":"","type":"uint256"}],"stateMutability":"view","type":"function"},{"inputs":[],"name":"liquidityProvider","outputs":[{"internalType":"address","name":"","type":"address"}],"stateMutability":"view","type":"function"},{"inputs":[],"name":"marketAddress","outputs":[{"internalType":"address","name":"","type":"address"}],"stateMutability":"view","type":"function"},{"inputs":[],"name":"maxWalletEnable","outputs":[{"internalType":"bool","name":"","type":"bool"}],"stateMutability":"view","type":"function"},{"inputs":[],"name":"name","outputs":[{"internalType":"string","name":"","type":"string"}],"stateMutability":"view","type":"function"},{"inputs":[{"internalType":"uint256","name":"","type":"uint256"}],"name":"nodeAddress","outputs":[{"internalType":"address","name":"","type":"address"}],"stateMutability":"view","type":"function"},{"inputs":[],"name":"owner","outputs":[{"internalType":"address","name":"","type":"address"}],"stateMutability":"view","type":"function"},{"inputs":[{"internalType":"address","name":"","type":"address"}],"name":"pledgeReceiptRelation","outputs":[{"internalType":"uint256","name":"","type":"uint256"}],"stateMutability":"view","type":"function"},{"inputs":[],"name":"proxiableUUID","outputs":[{"internalType":"bytes32","name":"","type":"bytes32"}],"stateMutability":"view","type":"function"},{"inputs":[{"internalType":"address","name":"","type":"address"}],"name":"relation","outputs":[{"internalType":"address","name":"","type":"address"}],"stateMutability":"view","type":"function"},{"inputs":[{"internalType":"uint256","name":"index","type":"uint256"}],"name":"removeNodeAddress","outputs":[],"stateMutability":"nonpayable","type":"function"},{"inputs":[{"internalType":"address","name":"addr","type":"address"}],"name":"removePledgeReceiptRelation","outputs":[],"stateMutability":"nonpayable","type":"function"},{"inputs":[],"name":"renounceOwnership","outputs":[],"stateMutability":"nonpayable","type":"function"},{"inputs":[{"internalType":"uint256","name":"sell_amount","type":"uint256"}],"name":"sell","outputs":[],"stateMutability":"nonpayable","type":"function"},{"inputs":[{"internalType":"uint256","name":"_maxWallet_","type":"uint256"}],"name":"setMaxWallet","outputs":[],"stateMutability":"nonpayable","type":"function"},{"inputs":[{"internalType":"address","name":"addr","type":"address"},{"internalType":"bool","name":"flag","type":"bool"}],"name":"setWhiteAddress","outputs":[],"stateMutability":"nonpayable","type":"function"},{"inputs":[{"internalType":"address","name":"addr","type":"address"}],"name":"setZToken","outputs":[],"stateMutability":"nonpayable","type":"function"},{"inputs":[],"name":"symbol","outputs":[{"internalType":"string","name":"","type":"string"}],"stateMutability":"view","type":"function"},{"inputs":[],"name":"totalSupply","outputs":[{"internalType":"uint256","name":"","type":"uint256"}],"stateMutability":"view","type":"function"},{"inputs":[{"internalType":"address","name":"to","type":"address"},{"internalType":"uint256","name":"value","type":"uint256"}],"name":"transfer","outputs":[{"internalType":"bool","name":"","type":"bool"}],"stateMutability":"nonpayable","type":"function"},{"inputs":[{"internalType":"address[]","name":"_address","type":"address[]"},{"internalType":"uint256[]","name":"_amounts","type":"uint256[]"}],"name":"transferBNBBatch","outputs":[],"stateMutability":"nonpayable","type":"function"},{"inputs":[{"internalType":"address","name":"from","type":"address"},{"internalType":"address","name":"to","type":"address"},{"internalType":"uint256","name":"value","type":"uint256"}],"name":"transferFrom","outputs":[{"internalType":"bool","name":"","type":"bool"}],"stateMutability":"nonpayable","type":"function"},{"inputs":[{"internalType":"address","name":"newOwner","type":"address"}],"name":"transferOwnership","outputs":[],"stateMutability":"nonpayable","type":"function"},{"inputs":[{"internalType":"address","name":"newImplementation","type":"address"},{"internalType":"bytes","name":"data","type":"bytes"}],"name":"upgradeToAndCall","outputs":[],"stateMutability":"payable","type":"function"},{"stateMutability":"payable","type":"receive"}],"evm":{"bytecode":{"linkReferences":{},"object":"60a0604052306080523480156200001557600080fd5b506200002062000026565b620000da565b7ff0c57e16840df040f15088dc2f81fe391c3923bec73e23a9662efc9c229c6a00805468010000000000000000900460ff1615620000775760405163f92ee8a960e01b815260040160405180910390fd5b80546001600160401b0390811614620000d75780546001600160401b0319166001600160401b0390811782556040519081527fc7f505b2f371ae2175ee4913f4499e1f2633a7b5936321eed1cdaeb6115181d29060200160405180910390a15b50565b608051612ff3620001046000396000818161212a0152818161215301526122d10152612ff36000f3fe6080604052600436106102eb5760003560e01c80637cca52fe11610184578063c363c3ac116100d6578063dd62ed3e1161008a578063f2e1562811610064578063f2e156281461091e578063f2fde38b14610934578063f3e019421461095457600080fd5b8063dd62ed3e14610879578063e4849b32146108de578063e98533b8146108fe57600080fd5b8063d7a05f05116100bb578063d7a05f0514610800578063dbcdf03214610836578063dc5415041461086357600080fd5b8063c363c3ac146107c0578063d0943e17146107e057600080fd5b806395d89b4111610138578063ad3cb1cc11610112578063ad3cb1cc14610741578063ae19139e1461078a578063b74de591146107aa57600080fd5b806395d89b41146106ec5780639e1e171314610701578063a9059cbb1461072157600080fd5b806382247ec01161016957806382247ec0146106795780638da5cb5b1461068f57806395623641146106cc57600080fd5b80637cca52fe1461064e5780638129fc1c1461066457600080fd5b8063412753581161023d57806368961ecb116101f1578063715018a6116101cb578063715018a6146105d657806378554a4f146105eb5780637b49827a1461061857600080fd5b806368961ecb1461055157806370a082311461057157806370dabc9e146105b457600080fd5b806352d1902d1161022257806352d1902d146104fc5780635b8bec55146105115780635d0044ca1461053157600080fd5b806341275358146104b15780634f1ef286146104e957600080fd5b806312a54b621161029f578063313ce56711610279578063313ce5671461045f5780633a5fe70b1461047b5780633cd691d51461049b57600080fd5b806312a54b62146103ea57806318160ddd1461040b57806323b872dd1461043f57600080fd5b80630902f1ac116102d05780630902f1ac1461034a578063095ea7b31461038c57806311106ee2146103bc57600080fd5b806306fdde03146102ff57806307c621511461032a57600080fd5b366102fa576102f8610974565b005b600080fd5b34801561030b57600080fd5b50610314610bd0565b60405161032191906128e3565b60405180910390f35b34801561033657600080fd5b506102f8610345366004612940565b610c93565b34801561035657600080fd5b50600154306000908152600080516020612f9e833981519152602052604090205460408051928352602083019190915201610321565b34801561039857600080fd5b506103ac6103a7366004612977565b610cc6565b6040519015158152602001610321565b3480156103c857600080fd5b506103dc6103d73660046129a1565b610ce0565b604051908152602001610321565b3480156103f657600080fd5b506007546103ac90600160a01b900460ff1681565b34801561041757600080fd5b507f52c63247e1f47db19d5ce0460030c497f067ca4cebf71ba98eeadabe20bace02546103dc565b34801561044b57600080fd5b506103ac61045a3660046129c6565b610d51565b34801561046b57600080fd5b5060405160128152602001610321565b34801561048757600080fd5b506102f8610496366004612a4e565b610d77565b3480156104a757600080fd5b506103dc600e5481565b3480156104bd57600080fd5b50600a546104d1906001600160a01b031681565b6040516001600160a01b039091168152602001610321565b6102f86104f7366004612ad0565b610e39565b34801561050857600080fd5b506103dc610e58565b34801561051d57600080fd5b506007546104d1906001600160a01b031681565b34801561053d57600080fd5b506102f861054c366004612b92565b610e87565b34801561055d57600080fd5b506009546104d1906001600160a01b031681565b34801561057d57600080fd5b506103dc61058c366004612bab565b6001600160a01b03166000908152600080516020612f9e833981519152602052604090205490565b3480156105c057600080fd5b506105c9610e94565b6040516103219190612bc6565b3480156105e257600080fd5b506102f8610ef6565b3480156105f757600080fd5b506103dc610606366004612bab565b60106020526000908152604090205481565b34801561062457600080fd5b506103dc610633366004612bab565b6001600160a01b031660009081526011602052604090205490565b34801561065a57600080fd5b506103dc60035481565b34801561067057600080fd5b506102f8610f0a565b34801561068557600080fd5b506103dc60025481565b34801561069b57600080fd5b507f9016d09d72d40fdae2fd8ceac6b6234c7706214fd39c1cd1e609a0528c199300546001600160a01b03166104d1565b3480156106d857600080fd5b506008546104d1906001600160a01b031681565b3480156106f857600080fd5b50610314611222565b34801561070d57600080fd5b506102f861071c366004612bab565b611261565b34801561072d57600080fd5b506103ac61073c366004612977565b61128b565b34801561074d57600080fd5b506103146040518060400160405280600581526020017f352e302e3000000000000000000000000000000000000000000000000000000081525081565b34801561079657600080fd5b506102f86107a5366004612c13565b6115b8565b3480156107b657600080fd5b506103dc60045481565b3480156107cc57600080fd5b506102f86107db366004612bab565b6115de565b3480156107ec57600080fd5b506104d16107fb366004612b92565b611707565b34801561080c57600080fd5b506104d161081b366004612bab565b600f602052600090815260409020546001600160a01b031681565b34801561084257600080fd5b506103dc610851366004612bab565b60116020526000908152604090205481565b34801561086f57600080fd5b506103dc600d5481565b34801561088557600080fd5b506103dc610894366004612c30565b6001600160a01b0391821660009081527f52c63247e1f47db19d5ce0460030c497f067ca4cebf71ba98eeadabe20bace016020908152604080832093909416825291909152205490565b3480156108ea57600080fd5b506102f86108f9366004612b92565b611731565b34801561090a57600080fd5b506104d1610919366004612b92565b611a0b565b34801561092a57600080fd5b506103dc60135481565b34801561094057600080fd5b506102f861094f366004612bab565b611a1b565b34801561096057600080fd5b506102f861096f366004612b92565b611a72565b336000908152601560205260409020544363ffffffff90911603610a055760405162461bcd60e51b815260206004820152603160248201527f596f752063616e2774206d616b652074776f207472616e73616374696f6e732060448201527f696e207468652073616d6520626c6f636b00000000000000000000000000000060648201526084015b60405180910390fd5b336000908152601560205260408120805463ffffffff19164363ffffffff16179055600154349190610a38908390612c79565b306000908152600080516020612f9e8339815191526020526040902054610a5f9084612c8c565b610a699190612ca3565b600754909150600160a01b900460ff1615610af657600254336000908152600080516020612f9e8339815191526020526040902054610aa89083612c79565b1115610af65760405162461bcd60e51b815260206004820152601360248201527f4d61782077616c6c65742065786365656465640000000000000000000000000060448201526064016109fc565b610b1730336064610b0885605f612c8c565b610b129190612ca3565b611b22565b6103e8610b26836103d9612c8c565b610b309190612ca3565b60016000828254610b419190612c79565b90915550610b50905034611c79565b610b5981611cc8565b610b633382611dfc565b610b6c81611e42565b610b7533611e76565b610b7e81611ef4565b60408051348152600060208201819052918101919091526060810182905233907f49926bbebe8474393f434dfa4f78694c0923efa07d19f2284518bfabd06eb737906080015b60405180910390a25050565b7f52c63247e1f47db19d5ce0460030c497f067ca4cebf71ba98eeadabe20bace038054606091600080516020612f9e83398151915291610c0f90612cc5565b80601f0160208091040260200160405190810160405280929190818152602001828054610c3b90612cc5565b8015610c885780601f10610c5d57610100808354040283529160200191610c88565b820191906000526020600020905b815481529060010190602001808311610c6b57829003601f168201915b505050505091505090565b610c9b611f76565b6001600160a01b03919091166000908152601260205260409020805460ff1916911515919091179055565b600033610cd4818585611fea565b60019150505b92915050565b6000806000610d0c600154306000908152600080516020612f9e83398151915260205260409020549091565b915091508315610d3d57610d208583612c79565b610d2a8287612c8c565b610d349190612ca3565b92505050610cda565b610d478582612c79565b610d2a8387612c8c565b600033610d5f858285611ff7565b610d6a8585856120a7565b60019150505b9392505050565b3360009081526012602052604090205460ff16610dd65760405162461bcd60e51b815260206004820152601f60248201527f63616c6c6572206973206e6f742074686520776869746520616464726573730060448201526064016109fc565b60005b83811015610e3257610e2a30868684818110610df757610df7612cff565b9050602002016020810190610e0c9190612bab565b858585818110610e1e57610e1e612cff565b90506020020135611b22565b600101610dd9565b5050505050565b610e4161211f565b610e4a826121d6565b610e5482826121de565b5050565b6000610e626122c6565b507f360894a13ba1a3210667c828492db98dca3e2076cc3735a920a3ca505d382bbc90565b610e8f611f76565b600255565b6060600b805480602002602001604051908101604052809291908181526020018280548015610eec57602002820191906000526020600020905b81546001600160a01b03168152600190910190602001808311610ece575b5050505050905090565b610efe611f76565b610f08600061230f565b565b7ff0c57e16840df040f15088dc2f81fe391c3923bec73e23a9662efc9c229c6a00805468010000000000000000810460ff16159067ffffffffffffffff16600081158015610f555750825b905060008267ffffffffffffffff166001148015610f725750303b155b905081158015610f80575080155b15610fb7576040517ff92ee8a900000000000000000000000000000000000000000000000000000000815260040160405180910390fd5b845467ffffffffffffffff191660011785558315610feb57845468ff00000000000000001916680100000000000000001785555b61105f6040518060400160405280600781526020017f4d79546f6b656e000000000000000000000000000000000000000000000000008152506040518060400160405280600381526020017f4d544b0000000000000000000000000000000000000000000000000000000000815250612380565b61106b6012600a612dea565b61107990633b023380612c8c565b6000556110886012600a612dea565b611094906104b0612c8c565b6001556110a36012600a612dea565b6110b09062989680612c8c565b6004556110bf6012600a612dea565b6110cc906207a120612c8c565b6002556110db6012600a612dea565b6110e8906207a120612c8c565b600e556110f76012600a612dea565b6111039061c350612c8c565b600355600980546001600160a01b03199081167398a8790028c6476b740be640627a62496e5d616b179091556007805460ff60a01b1916600160a01b179055600880548216737a6ca6a66b7ca223ecd10ef837895f7a32e902d4179055600a805490911673bedddae2062f0b573ec72562f88da141a67b70b217905561118833612392565b6111906123a3565b6111b3306111a06012600a612dea565b6111ae90631a39de00612c8c565b6123ab565b6111d1336111c36012600a612dea565b6111ae906320c85580612c8c565b8315610e3257845468ff000000000000000019168555604051600181527fc7f505b2f371ae2175ee4913f4499e1f2633a7b5936321eed1cdaeb6115181d29060200160405180910390a15050505050565b7f52c63247e1f47db19d5ce0460030c497f067ca4cebf71ba98eeadabe20bace048054606091600080516020612f9e83398151915291610c0f90612cc5565b611269611f76565b601480546001600160a01b0319166001600160a01b0392909216919091179055565b6000306001600160a01b038416036112ab576112a682611731565b6115af565b6014546001600160a01b03908116908416036114e8576112cd6012600a612dea565b6112d990617530612c8c565b8214806112fd57506112ed6012600a612dea565b6112fa90620186a0612c8c565b82145b8061131f575061130f6012600a612dea565b61131c90620493e0612c8c565b82145b8061134157506113316012600a612dea565b61133e906207a120612c8c565b82145b61138d5760405162461bcd60e51b815260206004820152600e60248201527f33772f3130772f3330772f35307700000000000000000000000000000000000060448201526064016109fc565b33600090815260116020526040902054156113ea5760405162461bcd60e51b815260206004820152600f60248201527f416c726561647920706c6564676564000000000000000000000000000000000060448201526064016109fc565b6113f53384846120a7565b3360008181526011602052604090208390556014546001600160a01b03169063a9059cbb9061142661138886612ca3565b6040517fffffffff0000000000000000000000000000000000000000000000000000000060e085901b1681526001600160a01b03909216600483015260248201526044016020604051808303816000875af1158015611489573d6000803e3d6000fd5b505050506040513d601f19601f820116820180604052508101906114ad9190612df9565b5060405182815233907f5e91ea8ea1c46300eb761859be01d7b16d44389ef91e03a163a87413cbf55b959060200160405180910390a26115af565b60006114f660066012612e16565b61150190600a612dea565b61150c906001612c8c565b336000908152600080516020612f9e8339815191526020526040902054909150830361158f57336000908152600080516020612f9e833981519152602052604090205481101561158557336000908152600080516020612f9e833981519152602052604090205461157e908290612e2f565b925061158f565b6001915050610cda565b61159a338585611b22565b6115a384611e76565b6115ad33856123e1565b505b50600192915050565b6115c0611f76565b60078054911515600160a01b0260ff60a01b19909216919091179055565b3360009081526012602052604090205460ff1661163d5760405162461bcd60e51b815260206004820152601f60248201527f63616c6c6572206973206e6f742074686520776869746520616464726573730060448201526064016109fc565b6001600160a01b038116600090815260116020526040902054806116a35760405162461bcd60e51b815260206004820152600960248201527f6e6f20706c65646765000000000000000000000000000000000000000000000060448201526064016109fc565b6014546116ba906001600160a01b031683836120a7565b6001600160a01b03821660008181526011602052604080822091909155517f7c1499da310db315606891cff45c8999e67bc58b9fa507440dd5c02506d64de090610bc49084815260200190565b600c818154811061171757600080fd5b6000918252602090912001546001600160a01b0316905081565b336000908152601560205260409020544363ffffffff909116036117bd5760405162461bcd60e51b815260206004820152603160248201527f596f752063616e2774206d616b652074776f207472616e73616374696f6e732060448201527f696e207468652073616d6520626c6f636b00000000000000000000000000000060648201526084016109fc565b336000908152601560205260409020805463ffffffff19164363ffffffff161790556003548111156118315760405162461bcd60e51b815260206004820152600e60248201527f4d6178204c696d69742053656c6c00000000000000000000000000000000000060448201526064016109fc565b306000908152600080516020612f9e8339815191526020526040812054611859908390612c79565b6001546118669084612c8c565b6118709190612ca3565b9050600081116118c25760405162461bcd60e51b815260206004820152601360248201527f53656c6c20616d6f756e7420746f6f206c6f770000000000000000000000000060448201526064016109fc565b8060015410156119145760405162461bcd60e51b815260206004820152601c60248201527f496e73756666696369656e7420424e4220696e2072657365727665730000000060448201526064016109fc565b61191f333084611b22565b6103e861192e826103c5612c8c565b6119389190612ca3565b600160008282546119499190612e2f565b90915550611958905081611c79565b61196182611cc8565b61196b3383611dfc565b61197482611e42565b61197d82611ef4565b336108fc606461198e84605f612c8c565b6119989190612ca3565b6040518115909202916000818181858888f193505050501580156119c0573d6000803e3d6000fd5b5060408051600080825260208201859052918101839052606081019190915233907f49926bbebe8474393f434dfa4f78694c0923efa07d19f2284518bfabd06eb73790608001610bc4565b600b818154811061171757600080fd5b611a23611f76565b6001600160a01b038116611a66576040517f1e4fbdf7000000000000000000000000000000000000000000000000000000008152600060048201526024016109fc565b611a6f8161230f565b50565b600b8054611a8290600190612e2f565b81548110611a9257611a92612cff565b600091825260209091200154600b80546001600160a01b039092169183908110611abe57611abe612cff565b9060005260206000200160006101000a8154816001600160a01b0302191690836001600160a01b03160217905550600b805480611afd57611afd612e42565b600082815260209020810160001990810180546001600160a01b031916905501905550565b600080516020612f9e8339815191526001600160a01b038416611b5e5781816002016000828254611b539190612c79565b90915550611be99050565b6001600160a01b03841660009081526020829052604090205482811015611bca576040517fe450d38c0000000000000000000000000000000000000000000000000000000081526001600160a01b038616600482015260248101829052604481018490526064016109fc565b6001600160a01b03851660009081526020839052604090209083900390555b6001600160a01b038316611c07576002810180548390039055611c26565b6001600160a01b03831660009081526020829052604090208054830190555b826001600160a01b0316846001600160a01b03167fddf252ad1be2c89b69c2b068fc378daa952ba7f163c4a11628f55a4df523b3ef84604051611c6b91815260200190565b60405180910390a350505050565b6008546001600160a01b03166108fc6103e8611c9684600f612c8c565b611ca09190612ca3565b6040518115909202916000818181858888f19350505050158015610e54573d6000803e3d6000fd5b60006103e8611cd883600f612c8c565b611ce29190612ca3565b600b54909150600003611d0757600a54610e549030906001600160a01b031683611b22565b600b54600090611d179083612ca3565b905060005b600b54811015611df65760006001600160a01b0316600b8281548110611d4457611d44612cff565b6000918252602090912001546001600160a01b031614611dee57600e54611da9600b8381548110611d7757611d77612cff565b60009182526020808320909101546001600160a01b03168252600080516020612f9e8339815191529052604090205490565b10611de557611de030600b8381548110611dc557611dc5612cff565b6000918252602090912001546001600160a01b031684611b22565b611dee565b611dee81611a72565b600101611d1c565b50505050565b6001600160a01b038083166000908152600f60205260409020541680611e2a5750600a546001600160a01b03165b611e3d30826103e8610b0886600a612c8c565b505050565b60006064611e51836005612c8c565b611e5b9190612ca3565b600954909150610e549030906001600160a01b031683611b22565b600e546001600160a01b0382166000908152600080516020612f9e833981519152602052604090205410611a6f57600b80546001810182556000919091527f0175b7a638427703f0dbe7bb9bbf987a2551717b34e79f33b5b1008d1fa01db90180546001600160a01b0383166001600160a01b031990911617905550565b60006103e8611f0483600a612c8c565b611f0e9190612ca3565b905060045481600054611f219190612e2f565b1015611f3a57600454600054611f379190612e2f565b90505b600081118015611f655750306000908152600080516020612f9e833981519152602052604090205481105b15610e5457610e5430600083611b22565b33611fa87f9016d09d72d40fdae2fd8ceac6b6234c7706214fd39c1cd1e609a0528c199300546001600160a01b031690565b6001600160a01b031614610f08576040517f118cdaa70000000000000000000000000000000000000000000000000000000081523360048201526024016109fc565b611e3d83838360016124b4565b6001600160a01b0383811660009081527f52c63247e1f47db19d5ce0460030c497f067ca4cebf71ba98eeadabe20bace0160209081526040808320938616835292905220546000198114611df65781811015612098576040517ffb8f41b20000000000000000000000000000000000000000000000000000000081526001600160a01b038416600482015260248101829052604481018390526064016109fc565b611df6848484840360006124b4565b6001600160a01b0383166120ea576040517f96c6fd1e000000000000000000000000000000000000000000000000000000008152600060048201526024016109fc565b6001600160a01b0382166121145760405163ec442f0560e01b8152600060048201526024016109fc565b611e3d838383611b22565b306001600160a01b037f00000000000000000000000000000000000000000000000000000000000000001614806121b857507f00000000000000000000000000000000000000000000000000000000000000006001600160a01b03166121ac7f360894a13ba1a3210667c828492db98dca3e2076cc3735a920a3ca505d382bbc546001600160a01b031690565b6001600160a01b031614155b15610f085760405163703e46dd60e11b815260040160405180910390fd5b611a6f611f76565b816001600160a01b03166352d1902d6040518163ffffffff1660e01b8152600401602060405180830381865afa925050508015612238575060408051601f3d908101601f1916820190925261223591810190612e58565b60015b61226057604051634c9c8ce360e01b81526001600160a01b03831660048201526024016109fc565b7f360894a13ba1a3210667c828492db98dca3e2076cc3735a920a3ca505d382bbc81146122bc576040517faa1d49a4000000000000000000000000000000000000000000000000000000008152600481018290526024016109fc565b611e3d83836125cd565b306001600160a01b037f00000000000000000000000000000000000000000000000000000000000000001614610f085760405163703e46dd60e11b815260040160405180910390fd5b7f9016d09d72d40fdae2fd8ceac6b6234c7706214fd39c1cd1e609a0528c19930080546001600160a01b031981166001600160a01b03848116918217845560405192169182907f8be0079c531659141344cd1fd0a4f28419497f9722a3daafe3b4186f6b6457e090600090a3505050565b612388612623565b610e54828261268a565b61239a612623565b611a6f816126db565b610f08612623565b6001600160a01b0382166123d55760405163ec442f0560e01b8152600060048201526024016109fc565b610e5460008383611b22565b6001600160a01b038181166000908152600f60205260409020541615801561241b5750806001600160a01b0316826001600160a01b031614155b801561243057506001600160a01b0381163014155b801561244a57506008546001600160a01b03828116911614155b801561246457506009546001600160a01b03828116911614155b801561247e5750600a546001600160a01b03828116911614155b15610e54576001600160a01b039081166000908152600f6020526040902080546001600160a01b03191692909116919091179055565b600080516020612f9e8339815191526001600160a01b038516612506576040517fe602df05000000000000000000000000000000000000000000000000000000008152600060048201526024016109fc565b6001600160a01b038416612549576040517f94280d62000000000000000000000000000000000000000000000000000000008152600060048201526024016109fc565b6001600160a01b03808616600090815260018301602090815260408083209388168352929052208390558115610e3257836001600160a01b0316856001600160a01b03167f8c5be1e5ebec7d5bd14f71427d1e84f3dd0314c0f7b2291e5b200ac8c7c3b925856040516125be91815260200190565b60405180910390a35050505050565b6125d6826126e3565b6040516001600160a01b038316907fbc7cd75a20ee27fd9adebab32041f755214dbc6bffa90cc0225b39da2e5c2d3b90600090a280511561261b57611e3d828261275a565b610e546127d0565b7ff0c57e16840df040f15088dc2f81fe391c3923bec73e23a9662efc9c229c6a005468010000000000000000900460ff16610f08576040517fd7e6bcf800000000000000000000000000000000000000000000000000000000815260040160405180910390fd5b612692612623565b600080516020612f9e8339815191527f52c63247e1f47db19d5ce0460030c497f067ca4cebf71ba98eeadabe20bace036126cc8482612ec1565b5060048101611df68382612ec1565b611a23612623565b806001600160a01b03163b60000361271957604051634c9c8ce360e01b81526001600160a01b03821660048201526024016109fc565b7f360894a13ba1a3210667c828492db98dca3e2076cc3735a920a3ca505d382bbc80546001600160a01b0319166001600160a01b0392909216919091179055565b6060600080846001600160a01b0316846040516127779190612f81565b600060405180830381855af49150503d80600081146127b2576040519150601f19603f3d011682016040523d82523d6000602084013e6127b7565b606091505b50915091506127c7858383612808565b95945050505050565b3415610f08576040517fb398979f00000000000000000000000000000000000000000000000000000000815260040160405180910390fd5b60608261281d576128188261287d565b610d70565b815115801561283457506001600160a01b0384163b155b15612876576040517f9996b3150000000000000000000000000000000000000000000000000000000081526001600160a01b03851660048201526024016109fc565b5080610d70565b80511561288d5780518082602001fd5b6040517f1425ea4200000000000000000000000000000000000000000000000000000000815260040160405180910390fd5b60005b838110156128da5781810151838201526020016128c2565b50506000910152565b60208152600082518060208401526129028160408501602087016128bf565b601f01601f19169190910160400192915050565b80356001600160a01b038116811461292d57600080fd5b919050565b8015158114611a6f57600080fd5b6000806040838503121561295357600080fd5b61295c83612916565b9150602083013561296c81612932565b809150509250929050565b6000806040838503121561298a57600080fd5b61299383612916565b946020939093013593505050565b600080604083850312156129b457600080fd5b82359150602083013561296c81612932565b6000806000606084860312156129db57600080fd5b6129e484612916565b92506129f260208501612916565b9150604084013590509250925092565b60008083601f840112612a1457600080fd5b50813567ffffffffffffffff811115612a2c57600080fd5b6020830191508360208260051b8501011115612a4757600080fd5b9250929050565b60008060008060408587031215612a6457600080fd5b843567ffffffffffffffff80821115612a7c57600080fd5b612a8888838901612a02565b90965094506020870135915080821115612aa157600080fd5b50612aae87828801612a02565b95989497509550505050565b634e487b7160e01b600052604160045260246000fd5b60008060408385031215612ae357600080fd5b612aec83612916565b9150602083013567ffffffffffffffff80821115612b0957600080fd5b818501915085601f830112612b1d57600080fd5b813581811115612b2f57612b2f612aba565b604051601f8201601f19908116603f01168101908382118183101715612b5757612b57612aba565b81604052828152886020848701011115612b7057600080fd5b8260208601602083013760006020848301015280955050505050509250929050565b600060208284031215612ba457600080fd5b5035919050565b600060208284031215612bbd57600080fd5b610d7082612916565b6020808252825182820181905260009190848201906040850190845b81811015612c075783516001600160a01b031683529284019291840191600101612be2565b50909695505050505050565b600060208284031215612c2557600080fd5b8135610d7081612932565b60008060408385031215612c4357600080fd5b612c4c83612916565b9150612c5a60208401612916565b90509250929050565b634e487b7160e01b600052601160045260246000fd5b80820180821115610cda57610cda612c63565b8082028115828204841417610cda57610cda612c63565b600082612cc057634e487b7160e01b600052601260045260246000fd5b500490565b600181811c90821680612cd957607f821691505b602082108103612cf957634e487b7160e01b600052602260045260246000fd5b50919050565b634e487b7160e01b600052603260045260246000fd5b600181815b80851115612d50578160001904821115612d3657612d36612c63565b80851615612d4357918102915b93841c9390800290612d1a565b509250929050565b600082612d6757506001610cda565b81612d7457506000610cda565b81600181146115855760028103612da15760ff841115612d9657612d96612c63565b50506001821b610cda565b5060208310610133831016604e8410600b8410161715612dc4575081810a610cda565b612dce8383612d15565b8060001904821115612de257612de2612c63565b029392505050565b6000610d7060ff841683612d58565b600060208284031215612e0b57600080fd5b8151610d7081612932565b60ff8281168282160390811115610cda57610cda612c63565b81810381811115610cda57610cda612c63565b634e487b7160e01b600052603160045260246000fd5b600060208284031215612e6a57600080fd5b5051919050565b601f821115611e3d576000816000526020600020601f850160051c81016020861015612e9a5750805b601f850160051c820191505b81811015612eb957828155600101612ea6565b505050505050565b815167ffffffffffffffff811115612edb57612edb612aba565b612eef81612ee98454612cc5565b84612e71565b602080601f831160018114612f245760008415612f0c5750858301515b600019600386901b1c1916600185901b178555612eb9565b600085815260208120601f198616915b82811015612f5357888601518255948401946001909101908401612f34565b5085821015612f715787850151600019600388901b60f8161c191681555b5050505050600190811b01905550565b60008251612f938184602087016128bf565b919091019291505056fe52c63247e1f47db19d5ce0460030c497f067ca4cebf71ba98eeadabe20bace00a2646970667358221220272505844869297dce04219bbac108e4b0fca32cd351661082681379b2638dd164736f6c63430008180033","opcodes":"PUSH1 0xA0 PUSH1 0x40 MSTORE ADDRESS PUSH1 0x80 MSTORE CALLVALUE DUP1 ISZERO PUSH3 0x15 JUMPI PUSH1 0x0 DUP1 REVERT JUMPDEST POP PUSH3 0x20 PUSH3 0x26 JUMP JUMPDEST PUSH3 0xDA JUMP JUMPDEST PUSH32 0xF0C57E16840DF040F15088DC2F81FE391C3923BEC73E23A9662EFC9C229C6A00 DUP1 SLOAD PUSH9 0x10000000000000000 SWAP1 DIV PUSH1 0xFF AND ISZERO PUSH3 0x77 JUMPI PUSH1 0x40 MLOAD PUSH4 0xF92EE8A9 PUSH1 0xE0 SHL DUP2 MSTORE PUSH1 0x4 ADD PUSH1 0x40 MLOAD DUP1 SWAP2 SUB SWAP1 REVERT JUMPDEST DUP1 SLOAD PUSH1 0x1 PUSH1 0x1 PUSH1 0x40 SHL SUB SWAP1 DUP2 AND EQ PUSH3 0xD7 JUMPI DUP1 SLOAD PUSH1 0x1 PUSH1 0x1 PUSH1 0x40 SHL SUB NOT AND PUSH1 0x1 PUSH1 0x1 PUSH1 0x40 SHL SUB SWAP1 DUP2 OR DUP3 SSTORE PUSH1 0x40 MLOAD SWAP1 DUP2 MSTORE PUSH32 0xC7F505B2F371AE2175EE4913F4499E1F2633A7B5936321EED1CDAEB6115181D2 SWAP1 PUSH1 0x20 ADD PUSH1 0x40 MLOAD DUP1 SWAP2 SUB SWAP1 LOG1 JUMPDEST POP JUMP JUMPDEST PUSH1 0x80 MLOAD PUSH2 0x2FF3 PUSH3 0x104 PUSH1 0x0 CODECOPY PUSH1 0x0 DUP2 DUP2 PUSH2 0x212A ADD MSTORE DUP2 DUP2 PUSH2 0x2153 ADD MSTORE PUSH2 0x22D1 ADD MSTORE PUSH2 0x2FF3 PUSH1 0x0 RETURN INVALID PUSH1 0x80 PUSH1 0x40 MSTORE PUSH1 0x4 CALLDATASIZE LT PUSH2 0x2EB JUMPI PUSH1 0x0 CALLDATALOAD PUSH1 0xE0 SHR DUP1 PUSH4 0x7CCA52FE GT PUSH2 0x184 JUMPI DUP1 PUSH4 0xC363C3AC GT PUSH2 0xD6 JUMPI DUP1 PUSH4 0xDD62ED3E GT PUSH2 0x8A JUMPI DUP1 PUSH4 0xF2E15628 GT PUSH2 0x64 JUMPI DUP1 PUSH4 0xF2E15628 EQ PUSH2 0x91E JUMPI DUP1 PUSH4 0xF2FDE38B EQ PUSH2 0x934 JUMPI DUP1 PUSH4 0xF3E01942 EQ PUSH2 0x954 JUMPI PUSH1 0x0 DUP1 REVERT JUMPDEST DUP1 PUSH4 0xDD62ED3E EQ PUSH2 0x879 JUMPI DUP1 PUSH4 0xE4849B32 EQ PUSH2 0x8DE JUMPI DUP1 PUSH4 0xE98533B8 EQ PUSH2 0x8FE JUMPI PUSH1 0x0 DUP1 REVERT JUMPDEST DUP1 PUSH4 0xD7A05F05 GT PUSH2 0xBB JUMPI DUP1 PUSH4 0xD7A05F05 EQ PUSH2 0x800 JUMPI DUP1 PUSH4 0xDBCDF032 EQ PUSH2 0x836 JUMPI DUP1 PUSH4 0xDC541504 EQ PUSH2 0x863 JUMPI PUSH1 0x0 DUP1 REVERT JUMPDEST DUP1 PUSH4 0xC363C3AC EQ PUSH2 0x7C0 JUMPI DUP1 PUSH4 0xD0943E17 EQ PUSH2 0x7E0 JUMPI PUSH1 0x0 DUP1 REVERT JUMPDEST DUP1 PUSH4 0x95D89B41 GT PUSH2 0x138 JUMPI DUP1 PUSH4 0xAD3CB1CC GT PUSH2 0x112 JUMPI DUP1 PUSH4 0xAD3CB1CC EQ PUSH2 0x741 JUMPI DUP1 PUSH4 0xAE19139E EQ PUSH2 0x78A JUMPI DUP1 PUSH4 0xB74DE591 EQ PUSH2 0x7AA JUMPI PUSH1 0x0 DUP1 REVERT JUMPDEST DUP1 PUSH4 0x95D89B41 EQ PUSH2 0x6EC JUMPI DUP1 PUSH4 0x9E1E1713 EQ PUSH2 0x701 JUMPI DUP1 PUSH4 0xA9059CBB EQ PUSH2 0x721 JUMPI PUSH1 0x0 DUP1 REVERT JUMPDEST DUP1 PUSH4 0x82247EC0 GT PUSH2 0x169 JUMPI DUP1 PUSH4 0x82247EC0 EQ PUSH2 0x679 JUMPI DUP1 PUSH4 0x8DA5CB5B EQ PUSH2 0x68F JUMPI DUP1 PUSH4 0x95623641 EQ PUSH2 0x6CC JUMPI PUSH1 0x0 DUP1 REVERT JUMPDEST DUP1 PUSH4 0x7CCA52FE EQ PUSH2 0x64E JUMPI DUP1 PUSH4 0x8129FC1C EQ PUSH2 0x664 JUMPI PUSH1 0x0 DUP1 REVERT JUMPDEST DUP1 PUSH4 0x41275358 GT PUSH2 0x23D JUMPI DUP1 PUSH4 0x68961ECB GT PUSH2 0x1F1 JUMPI DUP1 PUSH4 0x715018A6 GT PUSH2 0x1CB JUMPI DUP1 PUSH4 0x715018A6 EQ PUSH2 0x5D6 JUMPI DUP1 PUSH4 0x78554A4F EQ PUSH2 0x5EB JUMPI DUP1 PUSH4 0x7B49827A EQ PUSH2 0x618 JUMPI PUSH1 0x0 DUP1 REVERT JUMPDEST DUP1 PUSH4 0x68961ECB EQ PUSH2 0x551 JUMPI DUP1 PUSH4 0x70A08231 EQ PUSH2 0x571 JUMPI DUP1 PUSH4 0x70DABC9E EQ PUSH2 0x5B4 JUMPI PUSH1 0x0 DUP1 REVERT JUMPDEST DUP1 PUSH4 0x52D1902D GT PUSH2 0x222 JUMPI DUP1 PUSH4 0x52D1902D EQ PUSH2 0x4FC JUMPI DUP1 PUSH4 0x5B8BEC55 EQ PUSH2 0x511 JUMPI DUP1 PUSH4 0x5D0044CA EQ PUSH2 0x531 JUMPI PUSH1 0x0 DUP1 REVERT JUMPDEST DUP1 PUSH4 0x41275358 EQ PUSH2 0x4B1 JUMPI DUP1 PUSH4 0x4F1EF286 EQ PUSH2 0x4E9 JUMPI PUSH1 0x0 DUP1 REVERT JUMPDEST DUP1 PUSH4 0x12A54B62 GT PUSH2 0x29F JUMPI DUP1 PUSH4 0x313CE567 GT PUSH2 0x279 JUMPI DUP1 PUSH4 0x313CE567 EQ PUSH2 0x45F JUMPI DUP1 PUSH4 0x3A5FE70B EQ PUSH2 0x47B JUMPI DUP1 PUSH4 0x3CD691D5 EQ PUSH2 0x49B JUMPI PUSH1 0x0 DUP1 REVERT JUMPDEST DUP1 PUSH4 0x12A54B62 EQ PUSH2 0x3EA JUMPI DUP1 PUSH4 0x18160DDD EQ PUSH2 0x40B JUMPI DUP1 PUSH4 0x23B872DD EQ PUSH2 0x43F JUMPI PUSH1 0x0 DUP1 REVERT JUMPDEST DUP1 PUSH4 0x902F1AC GT PUSH2 0x2D0 JUMPI DUP1 PUSH4 0x902F1AC EQ PUSH2 0x34A JUMPI DUP1 PUSH4 0x95EA7B3 EQ PUSH2 0x38C JUMPI DUP1 PUSH4 0x11106EE2 EQ PUSH2 0x3BC JUMPI PUSH1 0x0 DUP1 REVERT JUMPDEST DUP1 PUSH4 0x6FDDE03 EQ PUSH2 0x2FF JUMPI DUP1 PUSH4 0x7C62151 EQ PUSH2 0x32A JUMPI PUSH1 0x0 DUP1 REVERT JUMPDEST CALLDATASIZE PUSH2 0x2FA JUMPI PUSH2 0x2F8 PUSH2 0x974 JUMP JUMPDEST STOP JUMPDEST PUSH1 0x0 DUP1 REVERT JUMPDEST CALLVALUE DUP1 ISZERO PUSH2 0x30B JUMPI PUSH1 0x0 DUP1 REVERT JUMPDEST POP PUSH2 0x314 PUSH2 0xBD0 JUMP JUMPDEST PUSH1 0x40 MLOAD PUSH2 0x321 SWAP2 SWAP1 PUSH2 0x28E3 JUMP JUMPDEST PUSH1 0x40 MLOAD DUP1 SWAP2 SUB SWAP1 RETURN JUMPDEST CALLVALUE DUP1 ISZERO PUSH2 0x336 JUMPI PUSH1 0x0 DUP1 REVERT JUMPDEST POP PUSH2 0x2F8 PUSH2 0x345 CALLDATASIZE PUSH1 0x4 PUSH2 0x2940 JUMP JUMPDEST PUSH2 0xC93 JUMP JUMPDEST CALLVALUE DUP1 ISZERO PUSH2 0x356 JUMPI PUSH1 0x0 DUP1 REVERT JUMPDEST POP PUSH1 0x1 SLOAD ADDRESS PUSH1 0x0 SWAP1 DUP2 MSTORE PUSH1 0x0 DUP1 MLOAD PUSH1 0x20 PUSH2 0x2F9E DUP4 CODECOPY DUP2 MLOAD SWAP2 MSTORE PUSH1 0x20 MSTORE PUSH1 0x40 SWAP1 KECCAK256 SLOAD PUSH1 0x40 DUP1 MLOAD SWAP3 DUP4 MSTORE PUSH1 0x20 DUP4 ADD SWAP2 SWAP1 SWAP2 MSTORE ADD PUSH2 0x321 JUMP JUMPDEST CALLVALUE DUP1 ISZERO PUSH2 0x398 JUMPI PUSH1 0x0 DUP1 REVERT JUMPDEST POP PUSH2 0x3AC PUSH2 0x3A7 CALLDATASIZE PUSH1 0x4 PUSH2 0x2977 JUMP JUMPDEST PUSH2 0xCC6 JUMP JUMPDEST PUSH1 0x40 MLOAD SWAP1 ISZERO ISZERO DUP2 MSTORE PUSH1 0x20 ADD PUSH2 0x321 JUMP JUMPDEST CALLVALUE DUP1 ISZERO PUSH2 0x3C8 JUMPI PUSH1 0x0 DUP1 REVERT JUMPDEST POP PUSH2 0x3DC PUSH2 0x3D7 CALLDATASIZE PUSH1 0x4 PUSH2 0x29A1 JUMP JUMPDEST PUSH2 0xCE0 JUMP JUMPDEST PUSH1 0x40 MLOAD SWAP1 DUP2 MSTORE PUSH1 0x20 ADD PUSH2 0x321 JUMP JUMPDEST CALLVALUE DUP1 ISZERO PUSH2 0x3F6 JUMPI PUSH1 0x0 DUP1 REVERT JUMPDEST POP PUSH1 0x7 SLOAD PUSH2 0x3AC SWAP1 PUSH1 0x1 PUSH1 0xA0 SHL SWAP1 DIV PUSH1 0xFF AND DUP2 JUMP JUMPDEST CALLVALUE DUP1 ISZERO PUSH2 0x417 JUMPI PUSH1 0x0 DUP1 REVERT JUMPDEST POP PUSH32 0x52C63247E1F47DB19D5CE0460030C497F067CA4CEBF71BA98EEADABE20BACE02 SLOAD PUSH2 0x3DC JUMP JUMPDEST CALLVALUE DUP1 ISZERO PUSH2 0x44B JUMPI PUSH1 0x0 DUP1 REVERT JUMPDEST POP PUSH2 0x3AC PUSH2 0x45A CALLDATASIZE PUSH1 0x4 PUSH2 0x29C6 JUMP JUMPDEST PUSH2 0xD51 JUMP JUMPDEST CALLVALUE DUP1 ISZERO PUSH2 0x46B JUMPI PUSH1 0x0 DUP1 REVERT JUMPDEST POP PUSH1 0x40 MLOAD PUSH1 0x12 DUP2 MSTORE PUSH1 0x20 ADD PUSH2 0x321 JUMP JUMPDEST CALLVALUE DUP1 ISZERO PUSH2 0x487 JUMPI PUSH1 0x0 DUP1 REVERT JUMPDEST POP PUSH2 0x2F8 PUSH2 0x496 CALLDATASIZE PUSH1 0x4 PUSH2 0x2A4E JUMP JUMPDEST PUSH2 0xD77 JUMP JUMPDEST CALLVALUE DUP1 ISZERO PUSH2 0x4A7 JUMPI PUSH1 0x0 DUP1 REVERT JUMPDEST POP PUSH2 0x3DC PUSH1 0xE SLOAD DUP2 JUMP JUMPDEST CALLVALUE DUP1 ISZERO PUSH2 0x4BD JUMPI PUSH1 0x0 DUP1 REVERT JUMPDEST POP PUSH1 0xA SLOAD PUSH2 0x4D1 SWAP1 PUSH1 0x1 PUSH1 0x1 PUSH1 0xA0 SHL SUB AND DUP2 JUMP JUMPDEST PUSH1 0x40 MLOAD PUSH1 0x1 PUSH1 0x1 PUSH1 0xA0 SHL SUB SWAP1 SWAP2 AND DUP2 MSTORE PUSH1 0x20 ADD PUSH2 0x321 JUMP JUMPDEST PUSH2 0x2F8 PUSH2 0x4F7 CALLDATASIZE PUSH1 0x4 PUSH2 0x2AD0 JUMP JUMPDEST PUSH2 0xE39 JUMP JUMPDEST CALLVALUE DUP1 ISZERO PUSH2 0x508 JUMPI PUSH1 0x0 DUP1 REVERT JUMPDEST POP PUSH2 0x3DC PUSH2 0xE58 JUMP JUMPDEST CALLVALUE DUP1 ISZERO PUSH2 0x51D JUMPI PUSH1 0x0 DUP1 REVERT JUMPDEST POP PUSH1 0x7 SLOAD PUSH2 0x4D1 SWAP1 PUSH1 0x1 PUSH1 0x1 PUSH1 0xA0 SHL SUB AND DUP2 JUMP JUMPDEST CALLVALUE DUP1 ISZERO PUSH2 0x53D JUMPI PUSH1 0x0 DUP1 REVERT JUMPDEST POP PUSH2 0x2F8 PUSH2 0x54C CALLDATASIZE PUSH1 0x4 PUSH2 0x2B92 JUMP JUMPDEST PUSH2 0xE87 JUMP JUMPDEST CALLVALUE DUP1 ISZERO PUSH2 0x55D JUMPI PUSH1 0x0 DUP1 REVERT JUMPDEST POP PUSH1 0x9 SLOAD PUSH2 0x4D1 SWAP1 PUSH1 0x1 PUSH1 0x1 PUSH1 0xA0 SHL SUB AND DUP2 JUMP JUMPDEST CALLVALUE DUP1 ISZERO PUSH2 0x57D JUMPI PUSH1 0x0 DUP1 REVERT JUMPDEST POP PUSH2 0x3DC PUSH2 0x58C CALLDATASIZE PUSH1 0x4 PUSH2 0x2BAB JUMP JUMPDEST PUSH1 0x1 PUSH1 0x1 PUSH1 0xA0 SHL SUB AND PUSH1 0x0 SWAP1 DUP2 MSTORE PUSH1 0x0 DUP1 MLOAD PUSH1 0x20 PUSH2 0x2F9E DUP4 CODECOPY DUP2 MLOAD SWAP2 MSTORE PUSH1 0x20 MSTORE PUSH1 0x40 SWAP1 KECCAK256 SLOAD SWAP1 JUMP JUMPDEST CALLVALUE DUP1 ISZERO PUSH2 0x5C0 JUMPI PUSH1 0x0 DUP1 REVERT JUMPDEST POP PUSH2 0x5C9 PUSH2 0xE94 JUMP JUMPDEST PUSH1 0x40 MLOAD PUSH2 0x321 SWAP2 SWAP1 PUSH2 0x2BC6 JUMP JUMPDEST CALLVALUE DUP1 ISZERO PUSH2 0x5E2 JUMPI PUSH1 0x0 DUP1 REVERT JUMPDEST POP PUSH2 0x2F8 PUSH2 0xEF6 JUMP JUMPDEST CALLVALUE DUP1 ISZERO PUSH2 0x5F7 JUMPI PUSH1 0x0 DUP1 REVERT JUMPDEST POP PUSH2 0x3DC PUSH2 0x606 CALLDATASIZE PUSH1 0x4 PUSH2 0x2BAB JUMP JUMPDEST PUSH1 0x10 PUSH1 0x20 MSTORE PUSH1 0x0 SWAP1 DUP2 MSTORE PUSH1 0x40 SWAP1 KECCAK256 SLOAD DUP2 JUMP JUMPDEST CALLVALUE DUP1 ISZERO PUSH2 0x624 JUMPI PUSH1 0x0 DUP1 REVERT JUMPDEST POP PUSH2 0x3DC PUSH2 0x633 CALLDATASIZE PUSH1 0x4 PUSH2 0x2BAB JUMP JUMPDEST PUSH1 0x1 PUSH1 0x1 PUSH1 0xA0 SHL SUB AND PUSH1 0x0 SWAP1 DUP2 MSTORE PUSH1 0x11 PUSH1 0x20 MSTORE PUSH1 0x40 SWAP1 KECCAK256 SLOAD SWAP1 JUMP JUMPDEST CALLVALUE DUP1 ISZERO PUSH2 0x65A JUMPI PUSH1 0x0 DUP1 REVERT JUMPDEST POP PUSH2 0x3DC PUSH1 0x3 SLOAD DUP2 JUMP JUMPDEST CALLVALUE DUP1 ISZERO PUSH2 0x670 JUMPI PUSH1 0x0 DUP1 REVERT JUMPDEST POP PUSH2 0x2F8 PUSH2 0xF0A JUMP JUMPDEST CALLVALUE DUP1 ISZERO PUSH2 0x685 JUMPI PUSH1 0x0 DUP1 REVERT JUMPDEST POP PUSH2 0x3DC PUSH1 0x2 SLOAD DUP2 JUMP JUMPDEST CALLVALUE DUP1 ISZERO PUSH2 0x69B JUMPI PUSH1 0x0 DUP1 REVERT JUMPDEST POP PUSH32 0x9016D09D72D40FDAE2FD8CEAC6B6234C7706214FD39C1CD1E609A0528C199300 SLOAD PUSH1 0x1 PUSH1 0x1 PUSH1 0xA0 SHL SUB AND PUSH2 0x4D1 JUMP JUMPDEST CALLVALUE DUP1 ISZERO PUSH2 0x6D8 JUMPI PUSH1 0x0 DUP1 REVERT JUMPDEST POP PUSH1 0x8 SLOAD PUSH2 0x4D1 SWAP1 PUSH1 0x1 PUSH1 0x1 PUSH1 0xA0 SHL SUB AND DUP2 JUMP JUMPDEST CALLVALUE DUP1 ISZERO PUSH2 0x6F8 JUMPI PUSH1 0x0 DUP1 REVERT JUMPDEST POP PUSH2 0x314 PUSH2 0x1222 JUMP JUMPDEST CALLVALUE DUP1 ISZERO PUSH2 0x70D JUMPI PUSH1 0x0 DUP1 REVERT JUMPDEST POP PUSH2 0x2F8 PUSH2 0x71C CALLDATASIZE PUSH1 0x4 PUSH2 0x2BAB JUMP JUMPDEST PUSH2 0x1261 JUMP JUMPDEST CALLVALUE DUP1 ISZERO PUSH2 0x72D JUMPI PUSH1 0x0 DUP1 REVERT JUMPDEST POP PUSH2 0x3AC PUSH2 0x73C CALLDATASIZE PUSH1 0x4 PUSH2 0x2977 JUMP JUMPDEST PUSH2 0x128B JUMP JUMPDEST CALLVALUE DUP1 ISZERO PUSH2 0x74D JUMPI PUSH1 0x0 DUP1 REVERT JUMPDEST POP PUSH2 0x314 PUSH1 0x40 MLOAD DUP1 PUSH1 0x40 ADD PUSH1 0x40 MSTORE DUP1 PUSH1 0x5 DUP2 MSTORE PUSH1 0x20 ADD PUSH32 0x352E302E30000000000000000000000000000000000000000000000000000000 DUP2 MSTORE POP DUP2 JUMP JUMPDEST CALLVALUE DUP1 ISZERO PUSH2 0x796 JUMPI PUSH1 0x0 DUP1 REVERT JUMPDEST POP PUSH2 0x2F8 PUSH2 0x7A5 CALLDATASIZE PUSH1 0x4 PUSH2 0x2C13 JUMP JUMPDEST PUSH2 0x15B8 JUMP JUMPDEST CALLVALUE DUP1 ISZERO PUSH2 0x7B6 JUMPI PUSH1 0x0 DUP1 REVERT JUMPDEST POP PUSH2 0x3DC PUSH1 0x4 SLOAD DUP2 JUMP JUMPDEST CALLVALUE DUP1 ISZERO PUSH2 0x7CC JUMPI PUSH1 0x0 DUP1 REVERT JUMPDEST POP PUSH2 0x2F8 PUSH2 0x7DB CALLDATASIZE PUSH1 0x4 PUSH2 0x2BAB JUMP JUMPDEST PUSH2 0x15DE JUMP JUMPDEST CALLVALUE DUP1 ISZERO PUSH2 0x7EC JUMPI PUSH1 0x0 DUP1 REVERT JUMPDEST POP PUSH2 0x4D1 PUSH2 0x7FB CALLDATASIZE PUSH1 0x4 PUSH2 0x2B92 JUMP JUMPDEST PUSH2 0x1707 JUMP JUMPDEST CALLVALUE DUP1 ISZERO PUSH2 0x80C JUMPI PUSH1 0x0 DUP1 REVERT JUMPDEST POP PUSH2 0x4D1 PUSH2 0x81B CALLDATASIZE PUSH1 0x4 PUSH2 0x2BAB JUMP JUMPDEST PUSH1 0xF PUSH1 0x20 MSTORE PUSH1 0x0 SWAP1 DUP2 MSTORE PUSH1 0x40 SWAP1 KECCAK256 SLOAD PUSH1 0x1 PUSH1 0x1 PUSH1 0xA0 SHL SUB AND DUP2 JUMP JUMPDEST CALLVALUE DUP1 ISZERO PUSH2 0x842 JUMPI PUSH1 0x0 DUP1 REVERT JUMPDEST POP PUSH2 0x3DC PUSH2 0x851 CALLDATASIZE PUSH1 0x4 PUSH2 0x2BAB JUMP JUMPDEST PUSH1 0x11 PUSH1 0x20 MSTORE PUSH1 0x0 SWAP1 DUP2 MSTORE PUSH1 0x40 SWAP1 KECCAK256 SLOAD DUP2 JUMP JUMPDEST CALLVALUE DUP1 ISZERO PUSH2 0x86F JUMPI PUSH1 0x0 DUP1 REVERT JUMPDEST POP PUSH2 0x3DC PUSH1 0xD SLOAD DUP2 JUMP JUMPDEST CALLVALUE DUP1 ISZERO PUSH2 0x885 JUMPI PUSH1 0x0 DUP1 REVERT JUMPDEST POP PUSH2 0x3DC PUSH2 0x894 CALLDATASIZE PUSH1 0x4 PUSH2 0x2C30 JUMP JUMPDEST PUSH1 0x1 PUSH1 0x1 PUSH1 0xA0 SHL SUB SWAP2 DUP3 AND PUSH1 0x0 SWAP1 DUP2 MSTORE PUSH32 0x52C63247E1F47DB19D5CE0460030C497F067CA4CEBF71BA98EEADABE20BACE01 PUSH1 0x20 SWAP1 DUP2 MSTORE PUSH1 0x40 DUP1 DUP4 KECCAK256 SWAP4 SWAP1 SWAP5 AND DUP3 MSTORE SWAP2 SWAP1 SWAP2 MSTORE KECCAK256 SLOAD SWAP1 JUMP JUMPDEST CALLVALUE DUP1 ISZERO PUSH2 0x8EA JUMPI PUSH1 0x0 DUP1 REVERT JUMPDEST POP PUSH2 0x2F8 PUSH2 0x8F9 CALLDATASIZE PUSH1 0x4 PUSH2 0x2B92 JUMP JUMPDEST PUSH2 0x1731 JUMP JUMPDEST CALLVALUE DUP1 ISZERO PUSH2 0x90A JUMPI PUSH1 0x0 DUP1 REVERT JUMPDEST POP PUSH2 0x4D1 PUSH2 0x919 CALLDATASIZE PUSH1 0x4 PUSH2 0x2B92 JUMP JUMPDEST PUSH2 0x1A0B JUMP JUMPDEST CALLVALUE DUP1 ISZERO PUSH2 0x92A JUMPI PUSH1 0x0 DUP1 REVERT JUMPDEST POP PUSH2 0x3DC PUSH1 0x13 SLOAD DUP2 JUMP JUMPDEST CALLVALUE DUP1 ISZERO PUSH2 0x940 JUMPI PUSH1 0x0 DUP1 REVERT JUMPDEST POP PUSH2 0x2F8 PUSH2 0x94F CALLDATASIZE PUSH1 0x4 PUSH2 0x2BAB JUMP JUMPDEST PUSH2 0x1A1B JUMP JUMPDEST CALLVALUE DUP1 ISZERO PUSH2 0x960 JUMPI PUSH1 0x0 DUP1 REVERT JUMPDEST POP PUSH2 0x2F8 PUSH2 0x96F CALLDATASIZE PUSH1 0x4 PUSH2 0x2B92 JUMP JUMPDEST PUSH2 0x1A72 JUMP JUMPDEST CALLER PUSH1 0x0 SWAP1 DUP2 MSTORE PUSH1 0x15 PUSH1 0x20 MSTORE PUSH1 0x40 SWAP1 KECCAK256 SLOAD NUMBER PUSH4 0xFFFFFFFF SWAP1 SWAP2 AND SUB PUSH2 0xA05 JUMPI PUSH1 0x40 MLOAD PUSH3 0x461BCD PUSH1 0xE5 SHL DUP2 MSTORE PUSH1 0x20 PUSH1 0x4 DUP3 ADD MSTORE PUSH1 0x31 PUSH1 0x24 DUP3 ADD MSTORE PUSH32 0x596F752063616E2774206D616B652074776F207472616E73616374696F6E7320 PUSH1 0x44 DUP3 ADD MSTORE PUSH32 0x696E207468652073616D6520626C6F636B000000000000000000000000000000 PUSH1 0x64 DUP3 ADD MSTORE PUSH1 0x84 ADD JUMPDEST PUSH1 0x40 MLOAD DUP1 SWAP2 SUB SWAP1 REVERT JUMPDEST CALLER PUSH1 0x0 SWAP1 DUP2 MSTORE PUSH1 0x15 PUSH1 0x20 MSTORE PUSH1 0x40 DUP2 KECCAK256 DUP1 SLOAD PUSH4 0xFFFFFFFF NOT AND NUMBER PUSH4 0xFFFFFFFF AND OR SWAP1 SSTORE PUSH1 0x1 SLOAD CALLVALUE SWAP2 SWAP1 PUSH2 0xA38 SWAP1 DUP4 SWAP1 PUSH2 0x2C79 JUMP JUMPDEST ADDRESS PUSH1 0x0 SWAP1 DUP2 MSTORE PUSH1 0x0 DUP1 MLOAD PUSH1 0x20 PUSH2 0x2F9E DUP4 CODECOPY DUP2 MLOAD SWAP2 MSTORE PUSH1 0x20 MSTORE PUSH1 0x40 SWAP1 KECCAK256 SLOAD PUSH2 0xA5F SWAP1 DUP5 PUSH2 0x2C8C JUMP JUMPDEST PUSH2 0xA69 SWAP2 SWAP1 PUSH2 0x2CA3 JUMP JUMPDEST PUSH1 0x7 SLOAD SWAP1 SWAP2 POP PUSH1 0x1 PUSH1 0xA0 SHL SWAP1 DIV PUSH1 0xFF AND ISZERO PUSH2 0xAF6 JUMPI PUSH1 0x2 SLOAD CALLER PUSH1 0x0 SWAP1 DUP2 MSTORE PUSH1 0x0 DUP1 MLOAD PUSH1 0x20 PUSH2 0x2F9E DUP4 CODECOPY DUP2 MLOAD SWAP2 MSTORE PUSH1 0x20 MSTORE PUSH1 0x40 SWAP1 KECCAK256 SLOAD PUSH2 0xAA8 SWAP1 DUP4 PUSH2 0x2C79 JUMP JUMPDEST GT ISZERO PUSH2 0xAF6 JUMPI PUSH1 0x40 MLOAD PUSH3 0x461BCD PUSH1 0xE5 SHL DUP2 MSTORE PUSH1 0x20 PUSH1 0x4 DUP3 ADD MSTORE PUSH1 0x13 PUSH1 0x24 DUP3 ADD MSTORE PUSH32 0x4D61782077616C6C657420657863656564656400000000000000000000000000 PUSH1 0x44 DUP3 ADD MSTORE PUSH1 0x64 ADD PUSH2 0x9FC JUMP JUMPDEST PUSH2 0xB17 ADDRESS CALLER PUSH1 0x64 PUSH2 0xB08 DUP6 PUSH1 0x5F PUSH2 0x2C8C JUMP JUMPDEST PUSH2 0xB12 SWAP2 SWAP1 PUSH2 0x2CA3 JUMP JUMPDEST PUSH2 0x1B22 JUMP JUMPDEST PUSH2 0x3E8 PUSH2 0xB26 DUP4 PUSH2 0x3D9 PUSH2 0x2C8C JUMP JUMPDEST PUSH2 0xB30 SWAP2 SWAP1 PUSH2 0x2CA3 JUMP JUMPDEST PUSH1 0x1 PUSH1 0x0 DUP3 DUP3 SLOAD PUSH2 0xB41 SWAP2 SWAP1 PUSH2 0x2C79 JUMP JUMPDEST SWAP1 SWAP2 SSTORE POP PUSH2 0xB50 SWAP1 POP CALLVALUE PUSH2 0x1C79 JUMP JUMPDEST PUSH2 0xB59 DUP2 PUSH2 0x1CC8 JUMP JUMPDEST PUSH2 0xB63 CALLER DUP3 PUSH2 0x1DFC JUMP JUMPDEST PUSH2 0xB6C DUP2 PUSH2 0x1E42 JUMP JUMPDEST PUSH2 0xB75 CALLER PUSH2 0x1E76 JUMP JUMPDEST PUSH2 0xB7E DUP2 PUSH2 0x1EF4 JUMP JUMPDEST PUSH1 0x40 DUP1 MLOAD CALLVALUE DUP2 MSTORE PUSH1 0x0 PUSH1 0x20 DUP3 ADD DUP2 SWAP1 MSTORE SWAP2 DUP2 ADD SWAP2 SWAP1 SWAP2 MSTORE PUSH1 0x60 DUP2 ADD DUP3 SWAP1 MSTORE CALLER SWAP1 PUSH32 0x49926BBEBE8474393F434DFA4F78694C0923EFA07D19F2284518BFABD06EB737 SWAP1 PUSH1 0x80 ADD JUMPDEST PUSH1 0x40 MLOAD DUP1 SWAP2 SUB SWAP1 LOG2 POP POP JUMP JUMPDEST PUSH32 0x52C63247E1F47DB19D5CE0460030C497F067CA4CEBF71BA98EEADABE20BACE03 DUP1 SLOAD PUSH1 0x60 SWAP2 PUSH1 0x0 DUP1 MLOAD PUSH1 0x20 PUSH2 0x2F9E DUP4 CODECOPY DUP2 MLOAD SWAP2 MSTORE SWAP2 PUSH2 0xC0F SWAP1 PUSH2 0x2CC5 JUMP JUMPDEST DUP1 PUSH1 0x1F ADD PUSH1 0x20 DUP1 SWAP2 DIV MUL PUSH1 0x20 ADD PUSH1 0x40 MLOAD SWAP1 DUP2 ADD PUSH1 0x40 MSTORE DUP1 SWAP3 SWAP2 SWAP1 DUP2 DUP2 MSTORE PUSH1 0x20 ADD DUP3 DUP1 SLOAD PUSH2 0xC3B SWAP1 PUSH2 0x2CC5 JUMP JUMPDEST DUP1 ISZERO PUSH2 0xC88 JUMPI DUP1 PUSH1 0x1F LT PUSH2 0xC5D JUMPI PUSH2 0x100 DUP1 DUP4 SLOAD DIV MUL DUP4 MSTORE SWAP2 PUSH1 0x20 ADD SWAP2 PUSH2 0xC88 JUMP JUMPDEST DUP3 ADD SWAP2 SWAP1 PUSH1 0x0 MSTORE PUSH1 0x20 PUSH1 0x0 KECCAK256 SWAP1 JUMPDEST DUP2 SLOAD DUP2 MSTORE SWAP1 PUSH1 0x1 ADD SWAP1 PUSH1 0x20 ADD DUP1 DUP4 GT PUSH2 0xC6B JUMPI DUP3 SWAP1 SUB PUSH1 0x1F AND DUP3 ADD SWAP2 JUMPDEST POP POP POP POP POP SWAP2 POP POP SWAP1 JUMP JUMPDEST PUSH2 0xC9B PUSH2 0x1F76 JUMP JUMPDEST PUSH1 0x1 PUSH1 0x1 PUSH1 0xA0 SHL SUB SWAP2 SWAP1 SWAP2 AND PUSH1 0x0 SWAP1 DUP2 MSTORE PUSH1 0x12 PUSH1 0x20 MSTORE PUSH1 0x40 SWAP1 KECCAK256 DUP1 SLOAD PUSH1 0xFF NOT AND SWAP2 ISZERO ISZERO SWAP2 SWAP1 SWAP2 OR SWAP1 SSTORE JUMP JUMPDEST PUSH1 0x0 CALLER PUSH2 0xCD4 DUP2 DUP6 DUP6 PUSH2 0x1FEA JUMP JUMPDEST PUSH1 0x1 SWAP2 POP POP JUMPDEST SWAP3 SWAP2 POP POP JUMP JUMPDEST PUSH1 0x0 DUP1 PUSH1 0x0 PUSH2 0xD0C PUSH1 0x1 SLOAD ADDRESS PUSH1 0x0 SWAP1 DUP2 MSTORE PUSH1 0x0 DUP1 MLOAD PUSH1 0x20 PUSH2 0x2F9E DUP4 CODECOPY DUP2 MLOAD SWAP2 MSTORE PUSH1 0x20 MSTORE PUSH1 0x40 SWAP1 KECCAK256 SLOAD SWAP1 SWAP2 JUMP JUMPDEST SWAP2 POP SWAP2 POP DUP4 ISZERO PUSH2 0xD3D JUMPI PUSH2 0xD20 DUP6 DUP4 PUSH2 0x2C79 JUMP JUMPDEST PUSH2 0xD2A DUP3 DUP8 PUSH2 0x2C8C JUMP JUMPDEST PUSH2 0xD34 SWAP2 SWAP1 PUSH2 0x2CA3 JUMP JUMPDEST SWAP3 POP POP POP PUSH2 0xCDA JUMP JUMPDEST PUSH2 0xD47 DUP6 DUP3 PUSH2 0x2C79 JUMP JUMPDEST PUSH2 0xD2A DUP4 DUP8 PUSH2 0x2C8C JUMP JUMPDEST PUSH1 0x0 CALLER PUSH2 0xD5F DUP6 DUP3 DUP6 PUSH2 0x1FF7 JUMP JUMPDEST PUSH2 0xD6A DUP6 DUP6 DUP6 PUSH2 0x20A7 JUMP JUMPDEST PUSH1 0x1 SWAP2 POP POP JUMPDEST SWAP4 SWAP3 POP POP POP JUMP JUMPDEST CALLER PUSH1 0x0 SWAP1 DUP2 MSTORE PUSH1 0x12 PUSH1 0x20 MSTORE PUSH1 0x40 SWAP1 KECCAK256 SLOAD PUSH1 0xFF AND PUSH2 0xDD6 JUMPI PUSH1 0x40 MLOAD PUSH3 0x461BCD PUSH1 0xE5 SHL DUP2 MSTORE PUSH1 0x20 PUSH1 0x4 DUP3 ADD MSTORE PUSH1 0x1F PUSH1 0x24 DUP3 ADD MSTORE PUSH32 0x63616C6C6572206973206E6F7420746865207768697465206164647265737300 PUSH1 0x44 DUP3 ADD MSTORE PUSH1 0x64 ADD PUSH2 0x9FC JUMP JUMPDEST PUSH1 0x0 JUMPDEST DUP4 DUP2 LT ISZERO PUSH2 0xE32 JUMPI PUSH2 0xE2A ADDRESS DUP7 DUP7 DUP5 DUP2 DUP2 LT PUSH2 0xDF7 JUMPI PUSH2 0xDF7 PUSH2 0x2CFF JUMP JUMPDEST SWAP1 POP PUSH1 0x20 MUL ADD PUSH1 0x20 DUP2 ADD SWAP1 PUSH2 0xE0C SWAP2 SWAP1 PUSH2 0x2BAB JUMP JUMPDEST DUP6 DUP6 DUP6 DUP2 DUP2 LT PUSH2 0xE1E JUMPI PUSH2 0xE1E PUSH2 0x2CFF JUMP JUMPDEST SWAP1 POP PUSH1 0x20 MUL ADD CALLDATALOAD PUSH2 0x1B22 JUMP JUMPDEST PUSH1 0x1 ADD PUSH2 0xDD9 JUMP JUMPDEST POP POP POP POP POP JUMP JUMPDEST PUSH2 0xE41 PUSH2 0x211F JUMP JUMPDEST PUSH2 0xE4A DUP3 PUSH2 0x21D6 JUMP JUMPDEST PUSH2 0xE54 DUP3 DUP3 PUSH2 0x21DE JUMP JUMPDEST POP POP JUMP JUMPDEST PUSH1 0x0 PUSH2 0xE62 PUSH2 0x22C6 JUMP JUMPDEST POP PUSH32 0x360894A13BA1A3210667C828492DB98DCA3E2076CC3735A920A3CA505D382BBC SWAP1 JUMP JUMPDEST PUSH2 0xE8F PUSH2 0x1F76 JUMP JUMPDEST PUSH1 0x2 SSTORE JUMP JUMPDEST PUSH1 0x60 PUSH1 0xB DUP1 SLOAD DUP1 PUSH1 0x20 MUL PUSH1 0x20 ADD PUSH1 0x40 MLOAD SWAP1 DUP2 ADD PUSH1 0x40 MSTORE DUP1 SWAP3 SWAP2 SWAP1 DUP2 DUP2 MSTORE PUSH1 0x20 ADD DUP3 DUP1 SLOAD DUP1 ISZERO PUSH2 0xEEC JUMPI PUSH1 0x20 MUL DUP3 ADD SWAP2 SWAP1 PUSH1 0x0 MSTORE PUSH1 0x20 PUSH1 0x0 KECCAK256 SWAP1 JUMPDEST DUP2 SLOAD PUSH1 0x1 PUSH1 0x1 PUSH1 0xA0 SHL SUB AND DUP2 MSTORE PUSH1 0x1 SWAP1 SWAP2 ADD SWAP1 PUSH1 0x20 ADD DUP1 DUP4 GT PUSH2 0xECE JUMPI JUMPDEST POP POP POP POP POP SWAP1 POP SWAP1 JUMP JUMPDEST PUSH2 0xEFE PUSH2 0x1F76 JUMP JUMPDEST PUSH2 0xF08 PUSH1 0x0 PUSH2 0x230F JUMP JUMPDEST JUMP JUMPDEST PUSH32 0xF0C57E16840DF040F15088DC2F81FE391C3923BEC73E23A9662EFC9C229C6A00 DUP1 SLOAD PUSH9 0x10000000000000000 DUP2 DIV PUSH1 0xFF AND ISZERO SWAP1 PUSH8 0xFFFFFFFFFFFFFFFF AND PUSH1 0x0 DUP2 ISZERO DUP1 ISZERO PUSH2 0xF55 JUMPI POP DUP3 JUMPDEST SWAP1 POP PUSH1 0x0 DUP3 PUSH8 0xFFFFFFFFFFFFFFFF AND PUSH1 0x1 EQ DUP1 ISZERO PUSH2 0xF72 JUMPI POP ADDRESS EXTCODESIZE ISZERO JUMPDEST SWAP1 POP DUP2 ISZERO DUP1 ISZERO PUSH2 0xF80 JUMPI POP DUP1 ISZERO JUMPDEST ISZERO PUSH2 0xFB7 JUMPI PUSH1 0x40 MLOAD PUSH32 0xF92EE8A900000000000000000000000000000000000000000000000000000000 DUP2 MSTORE PUSH1 0x4 ADD PUSH1 0x40 MLOAD DUP1 SWAP2 SUB SWAP1 REVERT JUMPDEST DUP5 SLOAD PUSH8 0xFFFFFFFFFFFFFFFF NOT AND PUSH1 0x1 OR DUP6 SSTORE DUP4 ISZERO PUSH2 0xFEB JUMPI DUP5 SLOAD PUSH9 0xFF0000000000000000 NOT AND PUSH9 0x10000000000000000 OR DUP6 SSTORE JUMPDEST PUSH2 0x105F PUSH1 0x40 MLOAD DUP1 PUSH1 0x40 ADD PUSH1 0x40 MSTORE DUP1 PUSH1 0x7 DUP2 MSTORE PUSH1 0x20 ADD PUSH32 0x4D79546F6B656E00000000000000000000000000000000000000000000000000 DUP2 MSTORE POP PUSH1 0x40 MLOAD DUP1 PUSH1 0x40 ADD PUSH1 0x40 MSTORE DUP1 PUSH1 0x3 DUP2 MSTORE PUSH1 0x20 ADD PUSH32 0x4D544B0000000000000000000000000000000000000000000000000000000000 DUP2 MSTORE POP PUSH2 0x2380 JUMP JUMPDEST PUSH2 0x106B PUSH1 0x12 PUSH1 0xA PUSH2 0x2DEA JUMP JUMPDEST PUSH2 0x1079 SWAP1 PUSH4 0x3B023380 PUSH2 0x2C8C JUMP JUMPDEST PUSH1 0x0 SSTORE PUSH2 0x1088 PUSH1 0x12 PUSH1 0xA PUSH2 0x2DEA JUMP JUMPDEST PUSH2 0x1094 SWAP1 PUSH2 0x4B0 PUSH2 0x2C8C JUMP JUMPDEST PUSH1 0x1 SSTORE PUSH2 0x10A3 PUSH1 0x12 PUSH1 0xA PUSH2 0x2DEA JUMP JUMPDEST PUSH2 0x10B0 SWAP1 PUSH3 0x989680 PUSH2 0x2C8C JUMP JUMPDEST PUSH1 0x4 SSTORE PUSH2 0x10BF PUSH1 0x12 PUSH1 0xA PUSH2 0x2DEA JUMP JUMPDEST PUSH2 0x10CC SWAP1 PUSH3 0x7A120 PUSH2 0x2C8C JUMP JUMPDEST PUSH1 0x2 SSTORE PUSH2 0x10DB PUSH1 0x12 PUSH1 0xA PUSH2 0x2DEA JUMP JUMPDEST PUSH2 0x10E8 SWAP1 PUSH3 0x7A120 PUSH2 0x2C8C JUMP JUMPDEST PUSH1 0xE SSTORE PUSH2 0x10F7 PUSH1 0x12 PUSH1 0xA PUSH2 0x2DEA JUMP JUMPDEST PUSH2 0x1103 SWAP1 PUSH2 0xC350 PUSH2 0x2C8C JUMP JUMPDEST PUSH1 0x3 SSTORE PUSH1 0x9 DUP1 SLOAD PUSH1 0x1 PUSH1 0x1 PUSH1 0xA0 SHL SUB NOT SWAP1 DUP2 AND PUSH20 0x98A8790028C6476B740BE640627A62496E5D616B OR SWAP1 SWAP2 SSTORE PUSH1 0x7 DUP1 SLOAD PUSH1 0xFF PUSH1 0xA0 SHL NOT AND PUSH1 0x1 PUSH1 0xA0 SHL OR SWAP1 SSTORE PUSH1 0x8 DUP1 SLOAD DUP3 AND PUSH20 0x7A6CA6A66B7CA223ECD10EF837895F7A32E902D4 OR SWAP1 SSTORE PUSH1 0xA DUP1 SLOAD SWAP1 SWAP2 AND PUSH20 0xBEDDDAE2062F0B573EC72562F88DA141A67B70B2 OR SWAP1 SSTORE PUSH2 0x1188 CALLER PUSH2 0x2392 JUMP JUMPDEST PUSH2 0x1190 PUSH2 0x23A3 JUMP JUMPDEST PUSH2 0x11B3 ADDRESS PUSH2 0x11A0 PUSH1 0x12 PUSH1 0xA PUSH2 0x2DEA JUMP JUMPDEST PUSH2 0x11AE SWAP1 PUSH4 0x1A39DE00 PUSH2 0x2C8C JUMP JUMPDEST PUSH2 0x23AB JUMP JUMPDEST PUSH2 0x11D1 CALLER PUSH2 0x11C3 PUSH1 0x12 PUSH1 0xA PUSH2 0x2DEA JUMP JUMPDEST PUSH2 0x11AE SWAP1 PUSH4 0x20C85580 PUSH2 0x2C8C JUMP JUMPDEST DUP4 ISZERO PUSH2 0xE32 JUMPI DUP5 SLOAD PUSH9 0xFF0000000000000000 NOT AND DUP6 SSTORE PUSH1 0x40 MLOAD PUSH1 0x1 DUP2 MSTORE PUSH32 0xC7F505B2F371AE2175EE4913F4499E1F2633A7B5936321EED1CDAEB6115181D2 SWAP1 PUSH1 0x20 ADD PUSH1 0x40 MLOAD DUP1 SWAP2 SUB SWAP1 LOG1 POP POP POP POP POP JUMP JUMPDEST PUSH32 0x52C63247E1F47DB19D5CE0460030C497F067CA4CEBF71BA98EEADABE20BACE04 DUP1 SLOAD PUSH1 0x60 SWAP2 PUSH1 0x0 DUP1 MLOAD PUSH1 0x20 PUSH2 0x2F9E DUP4 CODECOPY DUP2 MLOAD SWAP2 MSTORE SWAP2 PUSH2 0xC0F SWAP1 PUSH2 0x2CC5 JUMP JUMPDEST PUSH2 0x1269 PUSH2 0x1F76 JUMP JUMPDEST PUSH1 0x14 DUP1 SLOAD PUSH1 0x1 PUSH1 0x1 PUSH1 0xA0 SHL SUB NOT AND PUSH1 0x1 PUSH1 0x1 PUSH1 0xA0 SHL SUB SWAP3 SWAP1 SWAP3 AND SWAP2 SWAP1 SWAP2 OR SWAP1 SSTORE JUMP JUMPDEST PUSH1 0x0 ADDRESS PUSH1 0x1 PUSH1 0x1 PUSH1 0xA0 SHL SUB DUP5 AND SUB PUSH2 0x12AB JUMPI PUSH2 0x12A6 DUP3 PUSH2 0x1731 JUMP JUMPDEST PUSH2 0x15AF JUMP JUMPDEST PUSH1 0x14 SLOAD PUSH1 0x1 PUSH1 0x1 PUSH1 0xA0 SHL SUB SWAP1 DUP2 AND SWAP1 DUP5 AND SUB PUSH2 0x14E8 JUMPI PUSH2 0x12CD PUSH1 0x12 PUSH1 0xA PUSH2 0x2DEA JUMP JUMPDEST PUSH2 0x12D9 SWAP1 PUSH2 0x7530 PUSH2 0x2C8C JUMP JUMPDEST DUP3 EQ DUP1 PUSH2 0x12FD JUMPI POP PUSH2 0x12ED PUSH1 0x12 PUSH1 0xA PUSH2 0x2DEA JUMP JUMPDEST PUSH2 0x12FA SWAP1 PUSH3 0x186A0 PUSH2 0x2C8C JUMP JUMPDEST DUP3 EQ JUMPDEST DUP1 PUSH2 0x131F JUMPI POP PUSH2 0x130F PUSH1 0x12 PUSH1 0xA PUSH2 0x2DEA JUMP JUMPDEST PUSH2 0x131C SWAP1 PUSH3 0x493E0 PUSH2 0x2C8C JUMP JUMPDEST DUP3 EQ JUMPDEST DUP1 PUSH2 0x1341 JUMPI POP PUSH2 0x1331 PUSH1 0x12 PUSH1 0xA PUSH2 0x2DEA JUMP JUMPDEST PUSH2 0x133E SWAP1 PUSH3 0x7A120 PUSH2 0x2C8C JUMP JUMPDEST DUP3 EQ JUMPDEST PUSH2 0x138D JUMPI PUSH1 0x40 MLOAD PUSH3 0x461BCD PUSH1 0xE5 SHL DUP2 MSTORE PUSH1 0x20 PUSH1 0x4 DUP3 ADD MSTORE PUSH1 0xE PUSH1 0x24 DUP3 ADD MSTORE PUSH32 0x33772F3130772F3330772F353077000000000000000000000000000000000000 PUSH1 0x44 DUP3 ADD MSTORE PUSH1 0x64 ADD PUSH2 0x9FC JUMP JUMPDEST CALLER PUSH1 0x0 SWAP1 DUP2 MSTORE PUSH1 0x11 PUSH1 0x20 MSTORE PUSH1 0x40 SWAP1 KECCAK256 SLOAD ISZERO PUSH2 0x13EA JUMPI PUSH1 0x40 MLOAD PUSH3 0x461BCD PUSH1 0xE5 SHL DUP2 MSTORE PUSH1 0x20 PUSH1 0x4 DUP3 ADD MSTORE PUSH1 0xF PUSH1 0x24 DUP3 ADD MSTORE PUSH32 0x416C726561647920706C65646765640000000000000000000000000000000000 PUSH1 0x44 DUP3 ADD MSTORE PUSH1 0x64 ADD PUSH2 0x9FC JUMP JUMPDEST PUSH2 0x13F5 CALLER DUP5 DUP5 PUSH2 0x20A7 JUMP JUMPDEST CALLER PUSH1 0x0 DUP2 DUP2 MSTORE PUSH1 0x11 PUSH1 0x20 MSTORE PUSH1 0x40 SWAP1 KECCAK256 DUP4 SWAP1 SSTORE PUSH1 0x14 SLOAD PUSH1 0x1 PUSH1 0x1 PUSH1 0xA0 SHL SUB AND SWAP1 PUSH4 0xA9059CBB SWAP1 PUSH2 0x1426 PUSH2 0x1388 DUP7 PUSH2 0x2CA3 JUMP JUMPDEST PUSH1 0x40 MLOAD PUSH32 0xFFFFFFFF00000000000000000000000000000000000000000000000000000000 PUSH1 0xE0 DUP6 SWAP1 SHL AND DUP2 MSTORE PUSH1 0x1 PUSH1 0x1 PUSH1 0xA0 SHL SUB SWAP1 SWAP3 AND PUSH1 0x4 DUP4 ADD MSTORE PUSH1 0x24 DUP3 ADD MSTORE PUSH1 0x44 ADD PUSH1 0x20 PUSH1 0x40 MLOAD DUP1 DUP4 SUB DUP2 PUSH1 0x0 DUP8 GAS CALL ISZERO DUP1 ISZERO PUSH2 0x1489 JUMPI RETURNDATASIZE PUSH1 0x0 DUP1 RETURNDATACOPY RETURNDATASIZE PUSH1 0x0 REVERT JUMPDEST POP POP POP POP PUSH1 0x40 MLOAD RETURNDATASIZE PUSH1 0x1F NOT PUSH1 0x1F DUP3 ADD AND DUP3 ADD DUP1 PUSH1 0x40 MSTORE POP DUP2 ADD SWAP1 PUSH2 0x14AD SWAP2 SWAP1 PUSH2 0x2DF9 JUMP JUMPDEST POP PUSH1 0x40 MLOAD DUP3 DUP2 MSTORE CALLER SWAP1 PUSH32 0x5E91EA8EA1C46300EB761859BE01D7B16D44389EF91E03A163A87413CBF55B95 SWAP1 PUSH1 0x20 ADD PUSH1 0x40 MLOAD DUP1 SWAP2 SUB SWAP1 LOG2 PUSH2 0x15AF JUMP JUMPDEST PUSH1 0x0 PUSH2 0x14F6 PUSH1 0x6 PUSH1 0x12 PUSH2 0x2E16 JUMP JUMPDEST PUSH2 0x1501 SWAP1 PUSH1 0xA PUSH2 0x2DEA JUMP JUMPDEST PUSH2 0x150C SWAP1 PUSH1 0x1 PUSH2 0x2C8C JUMP JUMPDEST CALLER PUSH1 0x0 SWAP1 DUP2 MSTORE PUSH1 0x0 DUP1 MLOAD PUSH1 0x20 PUSH2 0x2F9E DUP4 CODECOPY DUP2 MLOAD SWAP2 MSTORE PUSH1 0x20 MSTORE PUSH1 0x40 SWAP1 KECCAK256 SLOAD SWAP1 SWAP2 POP DUP4 SUB PUSH2 0x158F JUMPI CALLER PUSH1 0x0 SWAP1 DUP2 MSTORE PUSH1 0x0 DUP1 MLOAD PUSH1 0x20 PUSH2 0x2F9E DUP4 CODECOPY DUP2 MLOAD SWAP2 MSTORE PUSH1 0x20 MSTORE PUSH1 0x40 SWAP1 KECCAK256 SLOAD DUP2 LT ISZERO PUSH2 0x1585 JUMPI CALLER PUSH1 0x0 SWAP1 DUP2 MSTORE PUSH1 0x0 DUP1 MLOAD PUSH1 0x20 PUSH2 0x2F9E DUP4 CODECOPY DUP2 MLOAD SWAP2 MSTORE PUSH1 0x20 MSTORE PUSH1 0x40 SWAP1 KECCAK256 SLOAD PUSH2 0x157E SWAP1 DUP3 SWAP1 PUSH2 0x2E2F JUMP JUMPDEST SWAP3 POP PUSH2 0x158F JUMP JUMPDEST PUSH1 0x1 SWAP2 POP POP PUSH2 0xCDA JUMP JUMPDEST PUSH2 0x159A CALLER DUP6 DUP6 PUSH2 0x1B22 JUMP JUMPDEST PUSH2 0x15A3 DUP5 PUSH2 0x1E76 JUMP JUMPDEST PUSH2 0x15AD CALLER DUP6 PUSH2 0x23E1 JUMP JUMPDEST POP JUMPDEST POP PUSH1 0x1 SWAP3 SWAP2 POP POP JUMP JUMPDEST PUSH2 0x15C0 PUSH2 0x1F76 JUMP JUMPDEST PUSH1 0x7 DUP1 SLOAD SWAP2 ISZERO ISZERO PUSH1 0x1 PUSH1 0xA0 SHL MUL PUSH1 0xFF PUSH1 0xA0 SHL NOT SWAP1 SWAP3 AND SWAP2 SWAP1 SWAP2 OR SWAP1 SSTORE JUMP JUMPDEST CALLER PUSH1 0x0 SWAP1 DUP2 MSTORE PUSH1 0x12 PUSH1 0x20 MSTORE PUSH1 0x40 SWAP1 KECCAK256 SLOAD PUSH1 0xFF AND PUSH2 0x163D JUMPI PUSH1 0x40 MLOAD PUSH3 0x461BCD PUSH1 0xE5 SHL DUP2 MSTORE PUSH1 0x20 PUSH1 0x4 DUP3 ADD MSTORE PUSH1 0x1F PUSH1 0x24 DUP3 ADD MSTORE PUSH32 0x63616C6C6572206973206E6F7420746865207768697465206164647265737300 PUSH1 0x44 DUP3 ADD MSTORE PUSH1 0x64 ADD PUSH2 0x9FC JUMP JUMPDEST PUSH1 0x1 PUSH1 0x1 PUSH1 0xA0 SHL SUB DUP2 AND PUSH1 0x0 SWAP1 DUP2 MSTORE PUSH1 0x11 PUSH1 0x20 MSTORE PUSH1 0x40 SWAP1 KECCAK256 SLOAD DUP1 PUSH2 0x16A3 JUMPI PUSH1 0x40 MLOAD PUSH3 0x461BCD PUSH1 0xE5 SHL DUP2 MSTORE PUSH1 0x20 PUSH1 0x4 DUP3 ADD MSTORE PUSH1 0x9 PUSH1 0x24 DUP3 ADD MSTORE PUSH32 0x6E6F20706C656467650000000000000000000000000000000000000000000000 PUSH1 0x44 DUP3 ADD MSTORE PUSH1 0x64 ADD PUSH2 0x9FC JUMP JUMPDEST PUSH1 0x14 SLOAD PUSH2 0x16BA SWAP1 PUSH1 0x1 PUSH1 0x1 PUSH1 0xA0 SHL SUB AND DUP4 DUP4 PUSH2 0x20A7 JUMP JUMPDEST PUSH1 0x1 PUSH1 0x1 PUSH1 0xA0 SHL SUB DUP3 AND PUSH1 0x0 DUP2 DUP2 MSTORE PUSH1 0x11 PUSH1 0x20 MSTORE PUSH1 0x40 DUP1 DUP3 KECCAK256 SWAP2 SWAP1 SWAP2 SSTORE MLOAD PUSH32 0x7C1499DA310DB315606891CFF45C8999E67BC58B9FA507440DD5C02506D64DE0 SWAP1 PUSH2 0xBC4 SWAP1 DUP5 DUP2 MSTORE PUSH1 0x20 ADD SWAP1 JUMP JUMPDEST PUSH1 0xC DUP2 DUP2 SLOAD DUP2 LT PUSH2 0x1717 JUMPI PUSH1 0x0 DUP1 REVERT JUMPDEST PUSH1 0x0 SWAP2 DUP3 MSTORE PUSH1 0x20 SWAP1 SWAP2 KECCAK256 ADD SLOAD PUSH1 0x1 PUSH1 0x1 PUSH1 0xA0 SHL SUB AND SWAP1 POP DUP2 JUMP JUMPDEST CALLER PUSH1 0x0 SWAP1 DUP2 MSTORE PUSH1 0x15 PUSH1 0x20 MSTORE PUSH1 0x40 SWAP1 KECCAK256 SLOAD NUMBER PUSH4 0xFFFFFFFF SWAP1 SWAP2 AND SUB PUSH2 0x17BD JUMPI PUSH1 0x40 MLOAD PUSH3 0x461BCD PUSH1 0xE5 SHL DUP2 MSTORE PUSH1 0x20 PUSH1 0x4 DUP3 ADD MSTORE PUSH1 0x31 PUSH1 0x24 DUP3 ADD MSTORE PUSH32 0x596F752063616E2774206D616B652074776F207472616E73616374696F6E7320 PUSH1 0x44 DUP3 ADD MSTORE PUSH32 0x696E207468652073616D6520626C6F636B000000000000000000000000000000 PUSH1 0x64 DUP3 ADD MSTORE PUSH1 0x84 ADD PUSH2 0x9FC JUMP JUMPDEST CALLER PUSH1 0x0 SWAP1 DUP2 MSTORE PUSH1 0x15 PUSH1 0x20 MSTORE PUSH1 0x40 SWAP1 KECCAK256 DUP1 SLOAD PUSH4 0xFFFFFFFF NOT AND NUMBER PUSH4 0xFFFFFFFF AND OR SWAP1 SSTORE PUSH1 0x3 SLOAD DUP2 GT ISZERO PUSH2 0x1831 JUMPI PUSH1 0x40 MLOAD PUSH3 0x461BCD PUSH1 0xE5 SHL DUP2 MSTORE PUSH1 0x20 PUSH1 0x4 DUP3 ADD MSTORE PUSH1 0xE PUSH1 0x24 DUP3 ADD MSTORE PUSH32 0x4D6178204C696D69742053656C6C000000000000000000000000000000000000 PUSH1 0x44 DUP3 ADD MSTORE PUSH1 0x64 ADD PUSH2 0x9FC JUMP JUMPDEST ADDRESS PUSH1 0x0 SWAP1 DUP2 MSTORE PUSH1 0x0 DUP1 MLOAD PUSH1 0x20 PUSH2 0x2F9E DUP4 CODECOPY DUP2 MLOAD SWAP2 MSTORE PUSH1 0x20 MSTORE PUSH1 0x40 DUP2 KECCAK256 SLOAD PUSH2 0x1859 SWAP1 DUP4 SWAP1 PUSH2 0x2C79 JUMP JUMPDEST PUSH1 0x1 SLOAD PUSH2 0x1866 SWAP1 DUP5 PUSH2 0x2C8C JUMP JUMPDEST PUSH2 0x1870 SWAP2 SWAP1 PUSH2 0x2CA3 JUMP JUMPDEST SWAP1 POP PUSH1 0x0 DUP2 GT PUSH2 0x18C2 JUMPI PUSH1 0x40 MLOAD PUSH3 0x461BCD PUSH1 0xE5 SHL DUP2 MSTORE PUSH1 0x20 PUSH1 0x4 DUP3 ADD MSTORE PUSH1 0x13 PUSH1 0x24 DUP3 ADD MSTORE PUSH32 0x53656C6C20616D6F756E7420746F6F206C6F7700000000000000000000000000 PUSH1 0x44 DUP3 ADD MSTORE PUSH1 0x64 ADD PUSH2 0x9FC JUMP JUMPDEST DUP1 PUSH1 0x1 SLOAD LT ISZERO PUSH2 0x1914 JUMPI PUSH1 0x40 MLOAD PUSH3 0x461BCD PUSH1 0xE5 SHL DUP2 MSTORE PUSH1 0x20 PUSH1 0x4 DUP3 ADD MSTORE PUSH1 0x1C PUSH1 0x24 DUP3 ADD MSTORE PUSH32 0x496E73756666696369656E7420424E4220696E20726573657276657300000000 PUSH1 0x44 DUP3 ADD MSTORE PUSH1 0x64 ADD PUSH2 0x9FC JUMP JUMPDEST PUSH2 0x191F CALLER ADDRESS DUP5 PUSH2 0x1B22 JUMP JUMPDEST PUSH2 0x3E8 PUSH2 0x192E DUP3 PUSH2 0x3C5 PUSH2 0x2C8C JUMP JUMPDEST PUSH2 0x1938 SWAP2 SWAP1 PUSH2 0x2CA3 JUMP JUMPDEST PUSH1 0x1 PUSH1 0x0 DUP3 DUP3 SLOAD PUSH2 0x1949 SWAP2 SWAP1 PUSH2 0x2E2F JUMP JUMPDEST SWAP1 SWAP2 SSTORE POP PUSH2 0x1958 SWAP1 POP DUP2 PUSH2 0x1C79 JUMP JUMPDEST PUSH2 0x1961 DUP3 PUSH2 0x1CC8 JUMP JUMPDEST PUSH2 0x196B CALLER DUP4 PUSH2 0x1DFC JUMP JUMPDEST PUSH2 0x1974 DUP3 PUSH2 0x1E42 JUMP JUMPDEST PUSH2 0x197D DUP3 PUSH2 0x1EF4 JUMP JUMPDEST CALLER PUSH2 0x8FC PUSH1 0x64 PUSH2 0x198E DUP5 PUSH1 0x5F PUSH2 0x2C8C JUMP JUMPDEST PUSH2 0x1998 SWAP2 SWAP1 PUSH2 0x2CA3 JUMP JUMPDEST PUSH1 0x40 MLOAD DUP2 ISZERO SWAP1 SWAP3 MUL SWAP2 PUSH1 0x0 DUP2 DUP2 DUP2 DUP6 DUP9 DUP9 CALL SWAP4 POP POP POP POP ISZERO DUP1 ISZERO PUSH2 0x19C0 JUMPI RETURNDATASIZE PUSH1 0x0 DUP1 RETURNDATACOPY RETURNDATASIZE PUSH1 0x0 REVERT JUMPDEST POP PUSH1 0x40 DUP1 MLOAD PUSH1 0x0 DUP1 DUP3 MSTORE PUSH1 0x20 DUP3 ADD DUP6 SWAP1 MSTORE SWAP2 DUP2 ADD DUP4 SWAP1 MSTORE PUSH1 0x60 DUP2 ADD SWAP2 SWAP1 SWAP2 MSTORE CALLER SWAP1 PUSH32 0x49926BBEBE8474393F434DFA4F78694C0923EFA07D19F2284518BFABD06EB737 SWAP1 PUSH1 0x80 ADD PUSH2 0xBC4 JUMP JUMPDEST PUSH1 0xB DUP2 DUP2 SLOAD DUP2 LT PUSH2 0x1717 JUMPI PUSH1 0x0 DUP1 REVERT JUMPDEST PUSH2 0x1A23 PUSH2 0x1F76 JUMP JUMPDEST PUSH1 0x1 PUSH1 0x1 PUSH1 0xA0 SHL SUB DUP2 AND PUSH2 0x1A66 JUMPI PUSH1 0x40 MLOAD PUSH32 0x1E4FBDF700000000000000000000000000000000000000000000000000000000 DUP2 MSTORE PUSH1 0x0 PUSH1 0x4 DUP3 ADD MSTORE PUSH1 0x24 ADD PUSH2 0x9FC JUMP JUMPDEST PUSH2 0x1A6F DUP2 PUSH2 0x230F JUMP JUMPDEST POP JUMP JUMPDEST PUSH1 0xB DUP1 SLOAD PUSH2 0x1A82 SWAP1 PUSH1 0x1 SWAP1 PUSH2 0x2E2F JUMP JUMPDEST DUP2 SLOAD DUP2 LT PUSH2 0x1A92 JUMPI PUSH2 0x1A92 PUSH2 0x2CFF JUMP JUMPDEST PUSH1 0x0 SWAP2 DUP3 MSTORE PUSH1 0x20 SWAP1 SWAP2 KECCAK256 ADD SLOAD PUSH1 0xB DUP1 SLOAD PUSH1 0x1 PUSH1 0x1 PUSH1 0xA0 SHL SUB SWAP1 SWAP3 AND SWAP2 DUP4 SWAP1 DUP2 LT PUSH2 0x1ABE JUMPI PUSH2 0x1ABE PUSH2 0x2CFF JUMP JUMPDEST SWAP1 PUSH1 0x0 MSTORE PUSH1 0x20 PUSH1 0x0 KECCAK256 ADD PUSH1 0x0 PUSH2 0x100 EXP DUP2 SLOAD DUP2 PUSH1 0x1 PUSH1 0x1 PUSH1 0xA0 SHL SUB MUL NOT AND SWAP1 DUP4 PUSH1 0x1 PUSH1 0x1 PUSH1 0xA0 SHL SUB AND MUL OR SWAP1 SSTORE POP PUSH1 0xB DUP1 SLOAD DUP1 PUSH2 0x1AFD JUMPI PUSH2 0x1AFD PUSH2 0x2E42 JUMP JUMPDEST PUSH1 0x0 DUP3 DUP2 MSTORE PUSH1 0x20 SWAP1 KECCAK256 DUP2 ADD PUSH1 0x0 NOT SWAP1 DUP2 ADD DUP1 SLOAD PUSH1 0x1 PUSH1 0x1 PUSH1 0xA0 SHL SUB NOT AND SWAP1 SSTORE ADD SWAP1 SSTORE POP JUMP JUMPDEST PUSH1 0x0 DUP1 MLOAD PUSH1 0x20 PUSH2 0x2F9E DUP4 CODECOPY DUP2 MLOAD SWAP2 MSTORE PUSH1 0x1 PUSH1 0x1 PUSH1 0xA0 SHL SUB DUP5 AND PUSH2 0x1B5E JUMPI DUP2 DUP2 PUSH1 0x2 ADD PUSH1 0x0 DUP3 DUP3 SLOAD PUSH2 0x1B53 SWAP2 SWAP1 PUSH2 0x2C79 JUMP JUMPDEST SWAP1 SWAP2 SSTORE POP PUSH2 0x1BE9 SWAP1 POP JUMP JUMPDEST PUSH1 0x1 PUSH1 0x1 PUSH1 0xA0 SHL SUB DUP5 AND PUSH1 0x0 SWAP1 DUP2 MSTORE PUSH1 0x20 DUP3 SWAP1 MSTORE PUSH1 0x40 SWAP1 KECCAK256 SLOAD DUP3 DUP2 LT ISZERO PUSH2 0x1BCA JUMPI PUSH1 0x40 MLOAD PUSH32 0xE450D38C00000000000000000000000000000000000000000000000000000000 DUP2 MSTORE PUSH1 0x1 PUSH1 0x1 PUSH1 0xA0 SHL SUB DUP7 AND PUSH1 0x4 DUP3 ADD MSTORE PUSH1 0x24 DUP2 ADD DUP3 SWAP1 MSTORE PUSH1 0x44 DUP2 ADD DUP5 SWAP1 MSTORE PUSH1 0x64 ADD PUSH2 0x9FC JUMP JUMPDEST PUSH1 0x1 PUSH1 0x1 PUSH1 0xA0 SHL SUB DUP6 AND PUSH1 0x0 SWAP1 DUP2 MSTORE PUSH1 0x20 DUP4 SWAP1 MSTORE PUSH1 0x40 SWAP1 KECCAK256 SWAP1 DUP4 SWAP1 SUB SWAP1 SSTORE JUMPDEST PUSH1 0x1 PUSH1 0x1 PUSH1 0xA0 SHL SUB DUP4 AND PUSH2 0x1C07 JUMPI PUSH1 0x2 DUP2 ADD DUP1 SLOAD DUP4 SWAP1 SUB SWAP1 SSTORE PUSH2 0x1C26 JUMP JUMPDEST PUSH1 0x1 PUSH1 0x1 PUSH1 0xA0 SHL SUB DUP4 AND PUSH1 0x0 SWAP1 DUP2 MSTORE PUSH1 0x20 DUP3 SWAP1 MSTORE PUSH1 0x40 SWAP1 KECCAK256 DUP1 SLOAD DUP4 ADD SWAP1 SSTORE JUMPDEST DUP3 PUSH1 0x1 PUSH1 0x1 PUSH1 0xA0 SHL SUB AND DUP5 PUSH1 0x1 PUSH1 0x1 PUSH1 0xA0 SHL SUB AND PUSH32 0xDDF252AD1BE2C89B69C2B068FC378DAA952BA7F163C4A11628F55A4DF523B3EF DUP5 PUSH1 0x40 MLOAD PUSH2 0x1C6B SWAP2 DUP2 MSTORE PUSH1 0x20 ADD SWAP1 JUMP JUMPDEST PUSH1 0x40 MLOAD DUP1 SWAP2 SUB SWAP1 LOG3 POP POP POP POP JUMP JUMPDEST PUSH1 0x8 SLOAD PUSH1 0x1 PUSH1 0x1 PUSH1 0xA0 SHL SUB AND PUSH2 0x8FC PUSH2 0x3E8 PUSH2 0x1C96 DUP5 PUSH1 0xF PUSH2 0x2C8C JUMP JUMPDEST PUSH2 0x1CA0 SWAP2 SWAP1 PUSH2 0x2CA3 JUMP JUMPDEST PUSH1 0x40 MLOAD DUP2 ISZERO SWAP1 SWAP3 MUL SWAP2 PUSH1 0x0 DUP2 DUP2 DUP2 DUP6 DUP9 DUP9 CALL SWAP4 POP POP POP POP ISZERO DUP1 ISZERO PUSH2 0xE54 JUMPI RETURNDATASIZE PUSH1 0x0 DUP1 RETURNDATACOPY RETURNDATASIZE PUSH1 0x0 REVERT JUMPDEST PUSH1 0x0 PUSH2 0x3E8 PUSH2 0x1CD8 DUP4 PUSH1 0xF PUSH2 0x2C8C JUMP JUMPDEST PUSH2 0x1CE2 SWAP2 SWAP1 PUSH2 0x2CA3 JUMP JUMPDEST PUSH1 0xB SLOAD SWAP1 SWAP2 POP PUSH1 0x0 SUB PUSH2 0x1D07 JUMPI PUSH1 0xA SLOAD PUSH2 0xE54 SWAP1 ADDRESS SWAP1 PUSH1 0x1 PUSH1 0x1 PUSH1 0xA0 SHL SUB AND DUP4 PUSH2 0x1B22 JUMP JUMPDEST PUSH1 0xB SLOAD PUSH1 0x0 SWAP1 PUSH2 0x1D17 SWAP1 DUP4 PUSH2 0x2CA3 JUMP JUMPDEST SWAP1 POP PUSH1 0x0 JUMPDEST PUSH1 0xB SLOAD DUP2 LT ISZERO PUSH2 0x1DF6 JUMPI PUSH1 0x0 PUSH1 0x1 PUSH1 0x1 PUSH1 0xA0 SHL SUB AND PUSH1 0xB DUP3 DUP2 SLOAD DUP2 LT PUSH2 0x1D44 JUMPI PUSH2 0x1D44 PUSH2 0x2CFF JUMP JUMPDEST PUSH1 0x0 SWAP2 DUP3 MSTORE PUSH1 0x20 SWAP1 SWAP2 KECCAK256 ADD SLOAD PUSH1 0x1 PUSH1 0x1 PUSH1 0xA0 SHL SUB AND EQ PUSH2 0x1DEE JUMPI PUSH1 0xE SLOAD PUSH2 0x1DA9 PUSH1 0xB DUP4 DUP2 SLOAD DUP2 LT PUSH2 0x1D77 JUMPI PUSH2 0x1D77 PUSH2 0x2CFF JUMP JUMPDEST PUSH1 0x0 SWAP2 DUP3 MSTORE PUSH1 0x20 DUP1 DUP4 KECCAK256 SWAP1 SWAP2 ADD SLOAD PUSH1 0x1 PUSH1 0x1 PUSH1 0xA0 SHL SUB AND DUP3 MSTORE PUSH1 0x0 DUP1 MLOAD PUSH1 0x20 PUSH2 0x2F9E DUP4 CODECOPY DUP2 MLOAD SWAP2 MSTORE SWAP1 MSTORE PUSH1 0x40 SWAP1 KECCAK256 SLOAD SWAP1 JUMP JUMPDEST LT PUSH2 0x1DE5 JUMPI PUSH2 0x1DE0 ADDRESS PUSH1 0xB DUP4 DUP2 SLOAD DUP2 LT PUSH2 0x1DC5 JUMPI PUSH2 0x1DC5 PUSH2 0x2CFF JUMP JUMPDEST PUSH1 0x0 SWAP2 DUP3 MSTORE PUSH1 0x20 SWAP1 SWAP2 KECCAK256 ADD SLOAD PUSH1 0x1 PUSH1 0x1 PUSH1 0xA0 SHL SUB AND DUP5 PUSH2 0x1B22 JUMP JUMPDEST PUSH2 0x1DEE JUMP JUMPDEST PUSH2 0x1DEE DUP2 PUSH2 0x1A72 JUMP JUMPDEST PUSH1 0x1 ADD PUSH2 0x1D1C JUMP JUMPDEST POP POP POP POP JUMP JUMPDEST PUSH1 0x1 PUSH1 0x1 PUSH1 0xA0 SHL SUB DUP1 DUP4 AND PUSH1 0x0 SWAP1 DUP2 MSTORE PUSH1 0xF PUSH1 0x20 MSTORE PUSH1 0x40 SWAP1 KECCAK256 SLOAD AND DUP1 PUSH2 0x1E2A JUMPI POP PUSH1 0xA SLOAD PUSH1 0x1 PUSH1 0x1 PUSH1 0xA0 SHL SUB AND JUMPDEST PUSH2 0x1E3D ADDRESS DUP3 PUSH2 0x3E8 PUSH2 0xB08 DUP7 PUSH1 0xA PUSH2 0x2C8C JUMP JUMPDEST POP POP POP JUMP JUMPDEST PUSH1 0x0 PUSH1 0x64 PUSH2 0x1E51 DUP4 PUSH1 0x5 PUSH2 0x2C8C JUMP JUMPDEST PUSH2 0x1E5B SWAP2 SWAP1 PUSH2 0x2CA3 JUMP JUMPDEST PUSH1 0x9 SLOAD SWAP1 SWAP2 POP PUSH2 0xE54 SWAP1 ADDRESS SWAP1 PUSH1 0x1 PUSH1 0x1 PUSH1 0xA0 SHL SUB AND DUP4 PUSH2 0x1B22 JUMP JUMPDEST PUSH1 0xE SLOAD PUSH1 0x1 PUSH1 0x1 PUSH1 0xA0 SHL SUB DUP3 AND PUSH1 0x0 SWAP1 DUP2 MSTORE PUSH1 0x0 DUP1 MLOAD PUSH1 0x20 PUSH2 0x2F9E DUP4 CODECOPY DUP2 MLOAD SWAP2 MSTORE PUSH1 0x20 MSTORE PUSH1 0x40 SWAP1 KECCAK256 SLOAD LT PUSH2 0x1A6F JUMPI PUSH1 0xB DUP1 SLOAD PUSH1 0x1 DUP2 ADD DUP3 SSTORE PUSH1 0x0 SWAP2 SWAP1 SWAP2 MSTORE PUSH32 0x175B7A638427703F0DBE7BB9BBF987A2551717B34E79F33B5B1008D1FA01DB9 ADD DUP1 SLOAD PUSH1 0x1 PUSH1 0x1 PUSH1 0xA0 SHL SUB DUP4 AND PUSH1 0x1 PUSH1 0x1 PUSH1 0xA0 SHL SUB NOT SWAP1 SWAP2 AND OR SWAP1 SSTORE POP JUMP JUMPDEST PUSH1 0x0 PUSH2 0x3E8 PUSH2 0x1F04 DUP4 PUSH1 0xA PUSH2 0x2C8C JUMP JUMPDEST PUSH2 0x1F0E SWAP2 SWAP1 PUSH2 0x2CA3 JUMP JUMPDEST SWAP1 POP PUSH1 0x4 SLOAD DUP2 PUSH1 0x0 SLOAD PUSH2 0x1F21 SWAP2 SWAP1 PUSH2 0x2E2F JUMP JUMPDEST LT ISZERO PUSH2 0x1F3A JUMPI PUSH1 0x4 SLOAD PUSH1 0x0 SLOAD PUSH2 0x1F37 SWAP2 SWAP1 PUSH2 0x2E2F JUMP JUMPDEST SWAP1 POP JUMPDEST PUSH1 0x0 DUP2 GT DUP1 ISZERO PUSH2 0x1F65 JUMPI POP ADDRESS PUSH1 0x0 SWAP1 DUP2 MSTORE PUSH1 0x0 DUP1 MLOAD PUSH1 0x20 PUSH2 0x2F9E DUP4 CODECOPY DUP2 MLOAD SWAP2 MSTORE PUSH1 0x20 MSTORE PUSH1 0x40 SWAP1 KECCAK256 SLOAD DUP2 LT JUMPDEST ISZERO PUSH2 0xE54 JUMPI PUSH2 0xE54 ADDRESS PUSH1 0x0 DUP4 PUSH2 0x1B22 JUMP JUMPDEST CALLER PUSH2 0x1FA8 PUSH32 0x9016D09D72D40FDAE2FD8CEAC6B6234C7706214FD39C1CD1E609A0528C199300 SLOAD PUSH1 0x1 PUSH1 0x1 PUSH1 0xA0 SHL SUB AND SWAP1 JUMP JUMPDEST PUSH1 0x1 PUSH1 0x1 PUSH1 0xA0 SHL SUB AND EQ PUSH2 0xF08 JUMPI PUSH1 0x40 MLOAD PUSH32 0x118CDAA700000000000000000000000000000000000000000000000000000000 DUP2 MSTORE CALLER PUSH1 0x4 DUP3 ADD MSTORE PUSH1 0x24 ADD PUSH2 0x9FC JUMP JUMPDEST PUSH2 0x1E3D DUP4 DUP4 DUP4 PUSH1 0x1 PUSH2 0x24B4 JUMP JUMPDEST PUSH1 0x1 PUSH1 0x1 PUSH1 0xA0 SHL SUB DUP4 DUP2 AND PUSH1 0x0 SWAP1 DUP2 MSTORE PUSH32 0x52C63247E1F47DB19D5CE0460030C497F067CA4CEBF71BA98EEADABE20BACE01 PUSH1 0x20 SWAP1 DUP2 MSTORE PUSH1 0x40 DUP1 DUP4 KECCAK256 SWAP4 DUP7 AND DUP4 MSTORE SWAP3 SWAP1 MSTORE KECCAK256 SLOAD PUSH1 0x0 NOT DUP2 EQ PUSH2 0x1DF6 JUMPI DUP2 DUP2 LT ISZERO PUSH2 0x2098 JUMPI PUSH1 0x40 MLOAD PUSH32 0xFB8F41B200000000000000000000000000000000000000000000000000000000 DUP2 MSTORE PUSH1 0x1 PUSH1 0x1 PUSH1 0xA0 SHL SUB DUP5 AND PUSH1 0x4 DUP3 ADD MSTORE PUSH1 0x24 DUP2 ADD DUP3 SWAP1 MSTORE PUSH1 0x44 DUP2 ADD DUP4 SWAP1 MSTORE PUSH1 0x64 ADD PUSH2 0x9FC JUMP JUMPDEST PUSH2 0x1DF6 DUP5 DUP5 DUP5 DUP5 SUB PUSH1 0x0 PUSH2 0x24B4 JUMP JUMPDEST PUSH1 0x1 PUSH1 0x1 PUSH1 0xA0 SHL SUB DUP4 AND PUSH2 0x20EA JUMPI PUSH1 0x40 MLOAD PUSH32 0x96C6FD1E00000000000000000000000000000000000000000000000000000000 DUP2 MSTORE PUSH1 0x0 PUSH1 0x4 DUP3 ADD MSTORE PUSH1 0x24 ADD PUSH2 0x9FC JUMP JUMPDEST PUSH1 0x1 PUSH1 0x1 PUSH1 0xA0 SHL SUB DUP3 AND PUSH2 0x2114 JUMPI PUSH1 0x40 MLOAD PUSH4 0xEC442F05 PUSH1 0xE0 SHL DUP2 MSTORE PUSH1 0x0 PUSH1 0x4 DUP3 ADD MSTORE PUSH1 0x24 ADD PUSH2 0x9FC JUMP JUMPDEST PUSH2 0x1E3D DUP4 DUP4 DUP4 PUSH2 0x1B22 JUMP JUMPDEST ADDRESS PUSH1 0x1 PUSH1 0x1 PUSH1 0xA0 SHL SUB PUSH32 0x0 AND EQ DUP1 PUSH2 0x21B8 JUMPI POP PUSH32 0x0 PUSH1 0x1 PUSH1 0x1 PUSH1 0xA0 SHL SUB AND PUSH2 0x21AC PUSH32 0x360894A13BA1A3210667C828492DB98DCA3E2076CC3735A920A3CA505D382BBC SLOAD PUSH1 0x1 PUSH1 0x1 PUSH1 0xA0 SHL SUB AND SWAP1 JUMP JUMPDEST PUSH1 0x1 PUSH1 0x1 PUSH1 0xA0 SHL SUB AND EQ ISZERO JUMPDEST ISZERO PUSH2 0xF08 JUMPI PUSH1 0x40 MLOAD PUSH4 0x703E46DD PUSH1 0xE1 SHL DUP2 MSTORE PUSH1 0x4 ADD PUSH1 0x40 MLOAD DUP1 SWAP2 SUB SWAP1 REVERT JUMPDEST PUSH2 0x1A6F PUSH2 0x1F76 JUMP JUMPDEST DUP2 PUSH1 0x1 PUSH1 0x1 PUSH1 0xA0 SHL SUB AND PUSH4 0x52D1902D PUSH1 0x40 MLOAD DUP2 PUSH4 0xFFFFFFFF AND PUSH1 0xE0 SHL DUP2 MSTORE PUSH1 0x4 ADD PUSH1 0x20 PUSH1 0x40 MLOAD DUP1 DUP4 SUB DUP2 DUP7 GAS STATICCALL SWAP3 POP POP POP DUP1 ISZERO PUSH2 0x2238 JUMPI POP PUSH1 0x40 DUP1 MLOAD PUSH1 0x1F RETURNDATASIZE SWAP1 DUP2 ADD PUSH1 0x1F NOT AND DUP3 ADD SWAP1 SWAP3 MSTORE PUSH2 0x2235 SWAP2 DUP2 ADD SWAP1 PUSH2 0x2E58 JUMP JUMPDEST PUSH1 0x1 JUMPDEST PUSH2 0x2260 JUMPI PUSH1 0x40 MLOAD PUSH4 0x4C9C8CE3 PUSH1 0xE0 SHL DUP2 MSTORE PUSH1 0x1 PUSH1 0x1 PUSH1 0xA0 SHL SUB DUP4 AND PUSH1 0x4 DUP3 ADD MSTORE PUSH1 0x24 ADD PUSH2 0x9FC JUMP JUMPDEST PUSH32 0x360894A13BA1A3210667C828492DB98DCA3E2076CC3735A920A3CA505D382BBC DUP2 EQ PUSH2 0x22BC JUMPI PUSH1 0x40 MLOAD PUSH32 0xAA1D49A400000000000000000000000000000000000000000000000000000000 DUP2 MSTORE PUSH1 0x4 DUP2 ADD DUP3 SWAP1 MSTORE PUSH1 0x24 ADD PUSH2 0x9FC JUMP JUMPDEST PUSH2 0x1E3D DUP4 DUP4 PUSH2 0x25CD JUMP JUMPDEST ADDRESS PUSH1 0x1 PUSH1 0x1 PUSH1 0xA0 SHL SUB PUSH32 0x0 AND EQ PUSH2 0xF08 JUMPI PUSH1 0x40 MLOAD PUSH4 0x703E46DD PUSH1 0xE1 SHL DUP2 MSTORE PUSH1 0x4 ADD PUSH1 0x40 MLOAD DUP1 SWAP2 SUB SWAP1 REVERT JUMPDEST PUSH32 0x9016D09D72D40FDAE2FD8CEAC6B6234C7706214FD39C1CD1E609A0528C199300 DUP1 SLOAD PUSH1 0x1 PUSH1 0x1 PUSH1 0xA0 SHL SUB NOT DUP2 AND PUSH1 0x1 PUSH1 0x1 PUSH1 0xA0 SHL SUB DUP5 DUP2 AND SWAP2 DUP3 OR DUP5 SSTORE PUSH1 0x40 MLOAD SWAP3 AND SWAP2 DUP3 SWAP1 PUSH32 0x8BE0079C531659141344CD1FD0A4F28419497F9722A3DAAFE3B4186F6B6457E0 SWAP1 PUSH1 0x0 SWAP1 LOG3 POP POP POP JUMP JUMPDEST PUSH2 0x2388 PUSH2 0x2623 JUMP JUMPDEST PUSH2 0xE54 DUP3 DUP3 PUSH2 0x268A JUMP JUMPDEST PUSH2 0x239A PUSH2 0x2623 JUMP JUMPDEST PUSH2 0x1A6F DUP2 PUSH2 0x26DB JUMP JUMPDEST PUSH2 0xF08 PUSH2 0x2623 JUMP JUMPDEST PUSH1 0x1 PUSH1 0x1 PUSH1 0xA0 SHL SUB DUP3 AND PUSH2 0x23D5 JUMPI PUSH1 0x40 MLOAD PUSH4 0xEC442F05 PUSH1 0xE0 SHL DUP2 MSTORE PUSH1 0x0 PUSH1 0x4 DUP3 ADD MSTORE PUSH1 0x24 ADD PUSH2 0x9FC JUMP JUMPDEST PUSH2 0xE54 PUSH1 0x0 DUP4 DUP4 PUSH2 0x1B22 JUMP JUMPDEST PUSH1 0x1 PUSH1 0x1 PUSH1 0xA0 SHL SUB DUP2 DUP2 AND PUSH1 0x0 SWAP1 DUP2 MSTORE PUSH1 0xF PUSH1 0x20 MSTORE PUSH1 0x40 SWAP1 KECCAK256 SLOAD AND ISZERO DUP1 ISZERO PUSH2 0x241B JUMPI POP DUP1 PUSH1 0x1 PUSH1 0x1 PUSH1 0xA0 SHL SUB AND DUP3 PUSH1 0x1 PUSH1 0x1 PUSH1 0xA0 SHL SUB AND EQ ISZERO JUMPDEST DUP1 ISZERO PUSH2 0x2430 JUMPI POP PUSH1 0x1 PUSH1 0x1 PUSH1 0xA0 SHL SUB DUP2 AND ADDRESS EQ ISZERO JUMPDEST DUP1 ISZERO PUSH2 0x244A JUMPI POP PUSH1 0x8 SLOAD PUSH1 0x1 PUSH1 0x1 PUSH1 0xA0 SHL SUB DUP3 DUP2 AND SWAP2 AND EQ ISZERO JUMPDEST DUP1 ISZERO PUSH2 0x2464 JUMPI POP PUSH1 0x9 SLOAD PUSH1 0x1 PUSH1 0x1 PUSH1 0xA0 SHL SUB DUP3 DUP2 AND SWAP2 AND EQ ISZERO JUMPDEST DUP1 ISZERO PUSH2 0x247E JUMPI POP PUSH1 0xA SLOAD PUSH1 0x1 PUSH1 0x1 PUSH1 0xA0 SHL SUB DUP3 DUP2 AND SWAP2 AND EQ ISZERO JUMPDEST ISZERO PUSH2 0xE54 JUMPI PUSH1 0x1 PUSH1 0x1 PUSH1 0xA0 SHL SUB SWAP1 DUP2 AND PUSH1 0x0 SWAP1 DUP2 MSTORE PUSH1 0xF PUSH1 0x20 MSTORE PUSH1 0x40 SWAP1 KECCAK256 DUP1 SLOAD PUSH1 0x1 PUSH1 0x1 PUSH1 0xA0 SHL SUB NOT AND SWAP3 SWAP1 SWAP2 AND SWAP2 SWAP1 SWAP2 OR SWAP1 SSTORE JUMP JUMPDEST PUSH1 0x0 DUP1 MLOAD PUSH1 0x20 PUSH2 0x2F9E DUP4 CODECOPY DUP2 MLOAD SWAP2 MSTORE PUSH1 0x1 PUSH1 0x1 PUSH1 0xA0 SHL SUB DUP6 AND PUSH2 0x2506 JUMPI PUSH1 0x40 MLOAD PUSH32 0xE602DF0500000000000000000000000000000000000000000000000000000000 DUP2 MSTORE PUSH1 0x0 PUSH1 0x4 DUP3 ADD MSTORE PUSH1 0x24 ADD PUSH2 0x9FC JUMP JUMPDEST PUSH1 0x1 PUSH1 0x1 PUSH1 0xA0 SHL SUB DUP5 AND PUSH2 0x2549 JUMPI PUSH1 0x40 MLOAD PUSH32 0x94280D6200000000000000000000000000000000000000000000000000000000 DUP2 MSTORE PUSH1 0x0 PUSH1 0x4 DUP3 ADD MSTORE PUSH1 0x24 ADD PUSH2 0x9FC JUMP JUMPDEST PUSH1 0x1 PUSH1 0x1 PUSH1 0xA0 SHL SUB DUP1 DUP7 AND PUSH1 0x0 SWAP1 DUP2 MSTORE PUSH1 0x1 DUP4 ADD PUSH1 0x20 SWAP1 DUP2 MSTORE PUSH1 0x40 DUP1 DUP4 KECCAK256 SWAP4 DUP9 AND DUP4 MSTORE SWAP3 SWAP1 MSTORE KECCAK256 DUP4 SWAP1 SSTORE DUP2 ISZERO PUSH2 0xE32 JUMPI DUP4 PUSH1 0x1 PUSH1 0x1 PUSH1 0xA0 SHL SUB AND DUP6 PUSH1 0x1 PUSH1 0x1 PUSH1 0xA0 SHL SUB AND PUSH32 0x8C5BE1E5EBEC7D5BD14F71427D1E84F3DD0314C0F7B2291E5B200AC8C7C3B925 DUP6 PUSH1 0x40 MLOAD PUSH2 0x25BE SWAP2 DUP2 MSTORE PUSH1 0x20 ADD SWAP1 JUMP JUMPDEST PUSH1 0x40 MLOAD DUP1 SWAP2 SUB SWAP1 LOG3 POP POP POP POP POP JUMP JUMPDEST PUSH2 0x25D6 DUP3 PUSH2 0x26E3 JUMP JUMPDEST PUSH1 0x40 MLOAD PUSH1 0x1 PUSH1 0x1 PUSH1 0xA0 SHL SUB DUP4 AND SWAP1 PUSH32 0xBC7CD75A20EE27FD9ADEBAB32041F755214DBC6BFFA90CC0225B39DA2E5C2D3B SWAP1 PUSH1 0x0 SWAP1 LOG2 DUP1 MLOAD ISZERO PUSH2 0x261B JUMPI PUSH2 0x1E3D DUP3 DUP3 PUSH2 0x275A JUMP JUMPDEST PUSH2 0xE54 PUSH2 0x27D0 JUMP JUMPDEST PUSH32 0xF0C57E16840DF040F15088DC2F81FE391C3923BEC73E23A9662EFC9C229C6A00 SLOAD PUSH9 0x10000000000000000 SWAP1 DIV PUSH1 0xFF AND PUSH2 0xF08 JUMPI PUSH1 0x40 MLOAD PUSH32 0xD7E6BCF800000000000000000000000000000000000000000000000000000000 DUP2 MSTORE PUSH1 0x4 ADD PUSH1 0x40 MLOAD DUP1 SWAP2 SUB SWAP1 REVERT JUMPDEST PUSH2 0x2692 PUSH2 0x2623 JUMP JUMPDEST PUSH1 0x0 DUP1 MLOAD PUSH1 0x20 PUSH2 0x2F9E DUP4 CODECOPY DUP2 MLOAD SWAP2 MSTORE PUSH32 0x52C63247E1F47DB19D5CE0460030C497F067CA4CEBF71BA98EEADABE20BACE03 PUSH2 0x26CC DUP5 DUP3 PUSH2 0x2EC1 JUMP JUMPDEST POP PUSH1 0x4 DUP2 ADD PUSH2 0x1DF6 DUP4 DUP3 PUSH2 0x2EC1 JUMP JUMPDEST PUSH2 0x1A23 PUSH2 0x2623 JUMP JUMPDEST DUP1 PUSH1 0x1 PUSH1 0x1 PUSH1 0xA0 SHL SUB AND EXTCODESIZE PUSH1 0x0 SUB PUSH2 0x2719 JUMPI PUSH1 0x40 MLOAD PUSH4 0x4C9C8CE3 PUSH1 0xE0 SHL DUP2 MSTORE PUSH1 0x1 PUSH1 0x1 PUSH1 0xA0 SHL SUB DUP3 AND PUSH1 0x4 DUP3 ADD MSTORE PUSH1 0x24 ADD PUSH2 0x9FC JUMP JUMPDEST PUSH32 0x360894A13BA1A3210667C828492DB98DCA3E2076CC3735A920A3CA505D382BBC DUP1 SLOAD PUSH1 0x1 PUSH1 0x1 PUSH1 0xA0 SHL SUB NOT AND PUSH1 0x1 PUSH1 0x1 PUSH1 0xA0 SHL SUB SWAP3 SWAP1 SWAP3 AND SWAP2 SWAP1 SWAP2 OR SWAP1 SSTORE JUMP JUMPDEST PUSH1 0x60 PUSH1 0x0 DUP1 DUP5 PUSH1 0x1 PUSH1 0x1 PUSH1 0xA0 SHL SUB AND DUP5 PUSH1 0x40 MLOAD PUSH2 0x2777 SWAP2 SWAP1 PUSH2 0x2F81 JUMP JUMPDEST PUSH1 0x0 PUSH1 0x40 MLOAD DUP1 DUP4 SUB DUP2 DUP6 GAS DELEGATECALL SWAP2 POP POP RETURNDATASIZE DUP1 PUSH1 0x0 DUP2 EQ PUSH2 0x27B2 JUMPI PUSH1 0x40 MLOAD SWAP2 POP PUSH1 0x1F NOT PUSH1 0x3F RETURNDATASIZE ADD AND DUP3 ADD PUSH1 0x40 MSTORE RETURNDATASIZE DUP3 MSTORE RETURNDATASIZE PUSH1 0x0 PUSH1 0x20 DUP5 ADD RETURNDATACOPY PUSH2 0x27B7 JUMP JUMPDEST PUSH1 0x60 SWAP2 POP JUMPDEST POP SWAP2 POP SWAP2 POP PUSH2 0x27C7 DUP6 DUP4 DUP4 PUSH2 0x2808 JUMP JUMPDEST SWAP6 SWAP5 POP POP POP POP POP JUMP JUMPDEST CALLVALUE ISZERO PUSH2 0xF08 JUMPI PUSH1 0x40 MLOAD PUSH32 0xB398979F00000000000000000000000000000000000000000000000000000000 DUP2 MSTORE PUSH1 0x4 ADD PUSH1 0x40 MLOAD DUP1 SWAP2 SUB SWAP1 REVERT JUMPDEST PUSH1 0x60 DUP3 PUSH2 0x281D JUMPI PUSH2 0x2818 DUP3 PUSH2 0x287D JUMP JUMPDEST PUSH2 0xD70 JUMP JUMPDEST DUP2 MLOAD ISZERO DUP1 ISZERO PUSH2 0x2834 JUMPI POP PUSH1 0x1 PUSH1 0x1 PUSH1 0xA0 SHL SUB DUP5 AND EXTCODESIZE ISZERO JUMPDEST ISZERO PUSH2 0x2876 JUMPI PUSH1 0x40 MLOAD PUSH32 0x9996B31500000000000000000000000000000000000000000000000000000000 DUP2 MSTORE PUSH1 0x1 PUSH1 0x1 PUSH1 0xA0 SHL SUB DUP6 AND PUSH1 0x4 DUP3 ADD MSTORE PUSH1 0x24 ADD PUSH2 0x9FC JUMP JUMPDEST POP DUP1 PUSH2 0xD70 JUMP JUMPDEST DUP1 MLOAD ISZERO PUSH2 0x288D JUMPI DUP1 MLOAD DUP1 DUP3 PUSH1 0x20 ADD REVERT JUMPDEST PUSH1 0x40 MLOAD PUSH32 0x1425EA4200000000000000000000000000000000000000000000000000000000 DUP2 MSTORE PUSH1 0x4 ADD PUSH1 0x40 MLOAD DUP1 SWAP2 SUB SWAP1 REVERT JUMPDEST PUSH1 0x0 JUMPDEST DUP4 DUP2 LT ISZERO PUSH2 0x28DA JUMPI DUP2 DUP2 ADD MLOAD DUP4 DUP3 ADD MSTORE PUSH1 0x20 ADD PUSH2 0x28C2 JUMP JUMPDEST POP POP PUSH1 0x0 SWAP2 ADD MSTORE JUMP JUMPDEST PUSH1 0x20 DUP2 MSTORE PUSH1 0x0 DUP3 MLOAD DUP1 PUSH1 0x20 DUP5 ADD MSTORE PUSH2 0x2902 DUP2 PUSH1 0x40 DUP6 ADD PUSH1 0x20 DUP8 ADD PUSH2 0x28BF JUMP JUMPDEST PUSH1 0x1F ADD PUSH1 0x1F NOT AND SWAP2 SWAP1 SWAP2 ADD PUSH1 0x40 ADD SWAP3 SWAP2 POP POP JUMP JUMPDEST DUP1 CALLDATALOAD PUSH1 0x1 PUSH1 0x1 PUSH1 0xA0 SHL SUB DUP2 AND DUP2 EQ PUSH2 0x292D JUMPI PUSH1 0x0 DUP1 REVERT JUMPDEST SWAP2 SWAP1 POP JUMP JUMPDEST DUP1 ISZERO ISZERO DUP2 EQ PUSH2 0x1A6F JUMPI PUSH1 0x0 DUP1 REVERT JUMPDEST PUSH1 0x0 DUP1 PUSH1 0x40 DUP4 DUP6 SUB SLT ISZERO PUSH2 0x2953 JUMPI PUSH1 0x0 DUP1 REVERT JUMPDEST PUSH2 0x295C DUP4 PUSH2 0x2916 JUMP JUMPDEST SWAP2 POP PUSH1 0x20 DUP4 ADD CALLDATALOAD PUSH2 0x296C DUP2 PUSH2 0x2932 JUMP JUMPDEST DUP1 SWAP2 POP POP SWAP3 POP SWAP3 SWAP1 POP JUMP JUMPDEST PUSH1 0x0 DUP1 PUSH1 0x40 DUP4 DUP6 SUB SLT ISZERO PUSH2 0x298A JUMPI PUSH1 0x0 DUP1 REVERT JUMPDEST PUSH2 0x2993 DUP4 PUSH2 0x2916 JUMP JUMPDEST SWAP5 PUSH1 0x20 SWAP4 SWAP1 SWAP4 ADD CALLDATALOAD SWAP4 POP POP POP JUMP JUMPDEST PUSH1 0x0 DUP1 PUSH1 0x40 DUP4 DUP6 SUB SLT ISZERO PUSH2 0x29B4 JUMPI PUSH1 0x0 DUP1 REVERT JUMPDEST DUP3 CALLDATALOAD SWAP2 POP PUSH1 0x20 DUP4 ADD CALLDATALOAD PUSH2 0x296C DUP2 PUSH2 0x2932 JUMP JUMPDEST PUSH1 0x0 DUP1 PUSH1 0x0 PUSH1 0x60 DUP5 DUP7 SUB SLT ISZERO PUSH2 0x29DB JUMPI PUSH1 0x0 DUP1 REVERT JUMPDEST PUSH2 0x29E4 DUP5 PUSH2 0x2916 JUMP JUMPDEST SWAP3 POP PUSH2 0x29F2 PUSH1 0x20 DUP6 ADD PUSH2 0x2916 JUMP JUMPDEST SWAP2 POP PUSH1 0x40 DUP5 ADD CALLDATALOAD SWAP1 POP SWAP3 POP SWAP3 POP SWAP3 JUMP JUMPDEST PUSH1 0x0 DUP1 DUP4 PUSH1 0x1F DUP5 ADD SLT PUSH2 0x2A14 JUMPI PUSH1 0x0 DUP1 REVERT JUMPDEST POP DUP2 CALLDATALOAD PUSH8 0xFFFFFFFFFFFFFFFF DUP2 GT ISZERO PUSH2 0x2A2C JUMPI PUSH1 0x0 DUP1 REVERT JUMPDEST PUSH1 0x20 DUP4 ADD SWAP2 POP DUP4 PUSH1 0x20 DUP3 PUSH1 0x5 SHL DUP6 ADD ADD GT ISZERO PUSH2 0x2A47 JUMPI PUSH1 0x0 DUP1 REVERT JUMPDEST SWAP3 POP SWAP3 SWAP1 POP JUMP JUMPDEST PUSH1 0x0 DUP1 PUSH1 0x0 DUP1 PUSH1 0x40 DUP6 DUP8 SUB SLT ISZERO PUSH2 0x2A64 JUMPI PUSH1 0x0 DUP1 REVERT JUMPDEST DUP5 CALLDATALOAD PUSH8 0xFFFFFFFFFFFFFFFF DUP1 DUP3 GT ISZERO PUSH2 0x2A7C JUMPI PUSH1 0x0 DUP1 REVERT JUMPDEST PUSH2 0x2A88 DUP9 DUP4 DUP10 ADD PUSH2 0x2A02 JUMP JUMPDEST SWAP1 SWAP7 POP SWAP5 POP PUSH1 0x20 DUP8 ADD CALLDATALOAD SWAP2 POP DUP1 DUP3 GT ISZERO PUSH2 0x2AA1 JUMPI PUSH1 0x0 DUP1 REVERT JUMPDEST POP PUSH2 0x2AAE DUP8 DUP3 DUP9 ADD PUSH2 0x2A02 JUMP JUMPDEST SWAP6 SWAP9 SWAP5 SWAP8 POP SWAP6 POP POP POP POP JUMP JUMPDEST PUSH4 0x4E487B71 PUSH1 0xE0 SHL PUSH1 0x0 MSTORE PUSH1 0x41 PUSH1 0x4 MSTORE PUSH1 0x24 PUSH1 0x0 REVERT JUMPDEST PUSH1 0x0 DUP1 PUSH1 0x40 DUP4 DUP6 SUB SLT ISZERO PUSH2 0x2AE3 JUMPI PUSH1 0x0 DUP1 REVERT JUMPDEST PUSH2 0x2AEC DUP4 PUSH2 0x2916 JUMP JUMPDEST SWAP2 POP PUSH1 0x20 DUP4 ADD CALLDATALOAD PUSH8 0xFFFFFFFFFFFFFFFF DUP1 DUP3 GT ISZERO PUSH2 0x2B09 JUMPI PUSH1 0x0 DUP1 REVERT JUMPDEST DUP2 DUP6 ADD SWAP2 POP DUP6 PUSH1 0x1F DUP4 ADD SLT PUSH2 0x2B1D JUMPI PUSH1 0x0 DUP1 REVERT JUMPDEST DUP2 CALLDATALOAD DUP2 DUP2 GT ISZERO PUSH2 0x2B2F JUMPI PUSH2 0x2B2F PUSH2 0x2ABA JUMP JUMPDEST PUSH1 0x40 MLOAD PUSH1 0x1F DUP3 ADD PUSH1 0x1F NOT SWAP1 DUP2 AND PUSH1 0x3F ADD AND DUP2 ADD SWAP1 DUP4 DUP3 GT DUP2 DUP4 LT OR ISZERO PUSH2 0x2B57 JUMPI PUSH2 0x2B57 PUSH2 0x2ABA JUMP JUMPDEST DUP2 PUSH1 0x40 MSTORE DUP3 DUP2 MSTORE DUP9 PUSH1 0x20 DUP5 DUP8 ADD ADD GT ISZERO PUSH2 0x2B70 JUMPI PUSH1 0x0 DUP1 REVERT JUMPDEST DUP3 PUSH1 0x20 DUP7 ADD PUSH1 0x20 DUP4 ADD CALLDATACOPY PUSH1 0x0 PUSH1 0x20 DUP5 DUP4 ADD ADD MSTORE DUP1 SWAP6 POP POP POP POP POP POP SWAP3 POP SWAP3 SWAP1 POP JUMP JUMPDEST PUSH1 0x0 PUSH1 0x20 DUP3 DUP5 SUB SLT ISZERO PUSH2 0x2BA4 JUMPI PUSH1 0x0 DUP1 REVERT JUMPDEST POP CALLDATALOAD SWAP2 SWAP1 POP JUMP JUMPDEST PUSH1 0x0 PUSH1 0x20 DUP3 DUP5 SUB SLT ISZERO PUSH2 0x2BBD JUMPI PUSH1 0x0 DUP1 REVERT JUMPDEST PUSH2 0xD70 DUP3 PUSH2 0x2916 JUMP JUMPDEST PUSH1 0x20 DUP1 DUP3 MSTORE DUP3 MLOAD DUP3 DUP3 ADD DUP2 SWAP1 MSTORE PUSH1 0x0 SWAP2 SWAP1 DUP5 DUP3 ADD SWAP1 PUSH1 0x40 DUP6 ADD SWAP1 DUP5 JUMPDEST DUP2 DUP2 LT ISZERO PUSH2 0x2C07 JUMPI DUP4 MLOAD PUSH1 0x1 PUSH1 0x1 PUSH1 0xA0 SHL SUB AND DUP4 MSTORE SWAP3 DUP5 ADD SWAP3 SWAP2 DUP5 ADD SWAP2 PUSH1 0x1 ADD PUSH2 0x2BE2 JUMP JUMPDEST POP SWAP1 SWAP7 SWAP6 POP POP POP POP POP POP JUMP JUMPDEST PUSH1 0x0 PUSH1 0x20 DUP3 DUP5 SUB SLT ISZERO PUSH2 0x2C25 JUMPI PUSH1 0x0 DUP1 REVERT JUMPDEST DUP2 CALLDATALOAD PUSH2 0xD70 DUP2 PUSH2 0x2932 JUMP JUMPDEST PUSH1 0x0 DUP1 PUSH1 0x40 DUP4 DUP6 SUB SLT ISZERO PUSH2 0x2C43 JUMPI PUSH1 0x0 DUP1 REVERT JUMPDEST PUSH2 0x2C4C DUP4 PUSH2 0x2916 JUMP JUMPDEST SWAP2 POP PUSH2 0x2C5A PUSH1 0x20 DUP5 ADD PUSH2 0x2916 JUMP JUMPDEST SWAP1 POP SWAP3 POP SWAP3 SWAP1 POP JUMP JUMPDEST PUSH4 0x4E487B71 PUSH1 0xE0 SHL PUSH1 0x0 MSTORE PUSH1 0x11 PUSH1 0x4 MSTORE PUSH1 0x24 PUSH1 0x0 REVERT JUMPDEST DUP1 DUP3 ADD DUP1 DUP3 GT ISZERO PUSH2 0xCDA JUMPI PUSH2 0xCDA PUSH2 0x2C63 JUMP JUMPDEST DUP1 DUP3 MUL DUP2 ISZERO DUP3 DUP3 DIV DUP5 EQ OR PUSH2 0xCDA JUMPI PUSH2 0xCDA PUSH2 0x2C63 JUMP JUMPDEST PUSH1 0x0 DUP3 PUSH2 0x2CC0 JUMPI PUSH4 0x4E487B71 PUSH1 0xE0 SHL PUSH1 0x0 MSTORE PUSH1 0x12 PUSH1 0x4 MSTORE PUSH1 0x24 PUSH1 0x0 REVERT JUMPDEST POP DIV SWAP1 JUMP JUMPDEST PUSH1 0x1 DUP2 DUP2 SHR SWAP1 DUP3 AND DUP1 PUSH2 0x2CD9 JUMPI PUSH1 0x7F DUP3 AND SWAP2 POP JUMPDEST PUSH1 0x20 DUP3 LT DUP2 SUB PUSH2 0x2CF9 JUMPI PUSH4 0x4E487B71 PUSH1 0xE0 SHL PUSH1 0x0 MSTORE PUSH1 0x22 PUSH1 0x4 MSTORE PUSH1 0x24 PUSH1 0x0 REVERT JUMPDEST POP SWAP2 SWAP1 POP JUMP JUMPDEST PUSH4 0x4E487B71 PUSH1 0xE0 SHL PUSH1 0x0 MSTORE PUSH1 0x32 PUSH1 0x4 MSTORE PUSH1 0x24 PUSH1 0x0 REVERT JUMPDEST PUSH1 0x1 DUP2 DUP2 JUMPDEST DUP1 DUP6 GT ISZERO PUSH2 0x2D50 JUMPI DUP2 PUSH1 0x0 NOT DIV DUP3 GT ISZERO PUSH2 0x2D36 JUMPI PUSH2 0x2D36 PUSH2 0x2C63 JUMP JUMPDEST DUP1 DUP6 AND ISZERO PUSH2 0x2D43 JUMPI SWAP2 DUP2 MUL SWAP2 JUMPDEST SWAP4 DUP5 SHR SWAP4 SWAP1 DUP1 MUL SWAP1 PUSH2 0x2D1A JUMP JUMPDEST POP SWAP3 POP SWAP3 SWAP1 POP JUMP JUMPDEST PUSH1 0x0 DUP3 PUSH2 0x2D67 JUMPI POP PUSH1 0x1 PUSH2 0xCDA JUMP JUMPDEST DUP2 PUSH2 0x2D74 JUMPI POP PUSH1 0x0 PUSH2 0xCDA JUMP JUMPDEST DUP2 PUSH1 0x1 DUP2 EQ PUSH2 0x1585 JUMPI PUSH1 0x2 DUP2 SUB PUSH2 0x2DA1 JUMPI PUSH1 0xFF DUP5 GT ISZERO PUSH2 0x2D96 JUMPI PUSH2 0x2D96 PUSH2 0x2C63 JUMP JUMPDEST POP POP PUSH1 0x1 DUP3 SHL PUSH2 0xCDA JUMP JUMPDEST POP PUSH1 0x20 DUP4 LT PUSH2 0x133 DUP4 LT AND PUSH1 0x4E DUP5 LT PUSH1 0xB DUP5 LT AND OR ISZERO PUSH2 0x2DC4 JUMPI POP DUP2 DUP2 EXP PUSH2 0xCDA JUMP JUMPDEST PUSH2 0x2DCE DUP4 DUP4 PUSH2 0x2D15 JUMP JUMPDEST DUP1 PUSH1 0x0 NOT DIV DUP3 GT ISZERO PUSH2 0x2DE2 JUMPI PUSH2 0x2DE2 PUSH2 0x2C63 JUMP JUMPDEST MUL SWAP4 SWAP3 POP POP POP JUMP JUMPDEST PUSH1 0x0 PUSH2 0xD70 PUSH1 0xFF DUP5 AND DUP4 PUSH2 0x2D58 JUMP JUMPDEST PUSH1 0x0 PUSH1 0x20 DUP3 DUP5 SUB SLT ISZERO PUSH2 0x2E0B JUMPI PUSH1 0x0 DUP1 REVERT JUMPDEST DUP2 MLOAD PUSH2 0xD70 DUP2 PUSH2 0x2932 JUMP JUMPDEST PUSH1 0xFF DUP3 DUP2 AND DUP3 DUP3 AND SUB SWAP1 DUP2 GT ISZERO PUSH2 0xCDA JUMPI PUSH2 0xCDA PUSH2 0x2C63 JUMP JUMPDEST DUP2 DUP2 SUB DUP2 DUP2 GT ISZERO PUSH2 0xCDA JUMPI PUSH2 0xCDA PUSH2 0x2C63 JUMP JUMPDEST PUSH4 0x4E487B71 PUSH1 0xE0 SHL PUSH1 0x0 MSTORE PUSH1 0x31 PUSH1 0x4 MSTORE PUSH1 0x24 PUSH1 0x0 REVERT JUMPDEST PUSH1 0x0 PUSH1 0x20 DUP3 DUP5 SUB SLT ISZERO PUSH2 0x2E6A JUMPI PUSH1 0x0 DUP1 REVERT JUMPDEST POP MLOAD SWAP2 SWAP1 POP JUMP JUMPDEST PUSH1 0x1F DUP3 GT ISZERO PUSH2 0x1E3D JUMPI PUSH1 0x0 DUP2 PUSH1 0x0 MSTORE PUSH1 0x20 PUSH1 0x0 KECCAK256 PUSH1 0x1F DUP6 ADD PUSH1 0x5 SHR DUP2 ADD PUSH1 0x20 DUP7 LT ISZERO PUSH2 0x2E9A JUMPI POP DUP1 JUMPDEST PUSH1 0x1F DUP6 ADD PUSH1 0x5 SHR DUP3 ADD SWAP2 POP JUMPDEST DUP2 DUP2 LT ISZERO PUSH2 0x2EB9 JUMPI DUP3 DUP2 SSTORE PUSH1 0x1 ADD PUSH2 0x2EA6 JUMP JUMPDEST POP POP POP POP POP POP JUMP JUMPDEST DUP2 MLOAD PUSH8 0xFFFFFFFFFFFFFFFF DUP2 GT ISZERO PUSH2 0x2EDB JUMPI PUSH2 0x2EDB PUSH2 0x2ABA JUMP JUMPDEST PUSH2 0x2EEF DUP2 PUSH2 0x2EE9 DUP5 SLOAD PUSH2 0x2CC5 JUMP JUMPDEST DUP5 PUSH2 0x2E71 JUMP JUMPDEST PUSH1 0x20 DUP1 PUSH1 0x1F DUP4 GT PUSH1 0x1 DUP2 EQ PUSH2 0x2F24 JUMPI PUSH1 0x0 DUP5 ISZERO PUSH2 0x2F0C JUMPI POP DUP6 DUP4 ADD MLOAD JUMPDEST PUSH1 0x0 NOT PUSH1 0x3 DUP7 SWAP1 SHL SHR NOT AND PUSH1 0x1 DUP6 SWAP1 SHL OR DUP6 SSTORE PUSH2 0x2EB9 JUMP JUMPDEST PUSH1 0x0 DUP6 DUP2 MSTORE PUSH1 0x20 DUP2 KECCAK256 PUSH1 0x1F NOT DUP7 AND SWAP2 JUMPDEST DUP3 DUP2 LT ISZERO PUSH2 0x2F53 JUMPI DUP9 DUP7 ADD MLOAD DUP3 SSTORE SWAP5 DUP5 ADD SWAP5 PUSH1 0x1 SWAP1 SWAP2 ADD SWAP1 DUP5 ADD PUSH2 0x2F34 JUMP JUMPDEST POP DUP6 DUP3 LT ISZERO PUSH2 0x2F71 JUMPI DUP8 DUP6 ADD MLOAD PUSH1 0x0 NOT PUSH1 0x3 DUP9 SWAP1 SHL PUSH1 0xF8 AND SHR NOT AND DUP2 SSTORE JUMPDEST POP POP POP POP POP PUSH1 0x1 SWAP1 DUP2 SHL ADD SWAP1 SSTORE POP JUMP JUMPDEST PUSH1 0x0 DUP3 MLOAD PUSH2 0x2F93 DUP2 DUP5 PUSH1 0x20 DUP8 ADD PUSH2 0x28BF JUMP JUMPDEST SWAP2 SWAP1 SWAP2 ADD SWAP3 SWAP2 POP POP JUMP INVALID MSTORE 0xC6 ORIGIN SELFBALANCE 0xE1 DELEGATECALL PUSH30 0xB19D5CE0460030C497F067CA4CEBF71BA98EEADABE20BACE00A264697066 PUSH20 0x58221220272505844869297DCE04219BBAC108E4 0xB0 0xFC LOG3 0x2C 0xD3 MLOAD PUSH7 0x1082681379B263 DUP14 0xD1 PUSH5 0x736F6C6343 STOP ADDMOD XOR STOP CALLER "},"methodIdentifiers":{"UPGRADE_INTERFACE_VERSION()":"ad3cb1cc","_fireStopAmount()":"b74de591","_maxSellAmount()":"7cca52fe","_maxWallet()":"82247ec0","_nodeLimitAmount()":"3cd691d5","allowance(address,address)":"dd62ed3e","approve(address,uint256)":"095ea7b3","balanceOf(address)":"70a08231","communityAddress(uint256)":"d0943e17","communityBonus()":"dc541504","communityCount(address)":"78554a4f","decimals()":"313ce567","ecoAddress()":"68961ecb","enableMaxWallet(bool)":"ae19139e","feeAddress()":"41275358","getAmountOut(uint256,bool)":"11106ee2","getNodeAddress()":"70dabc9e","getPledgeReceiptRelation(address)":"7b49827a","getReserves()":"0902f1ac","initialize()":"8129fc1c","lastRewardAt()":"f2e15628","liquidityProvider()":"5b8bec55","marketAddress()":"95623641","maxWalletEnable()":"12a54b62","name()":"06fdde03","nodeAddress(uint256)":"e98533b8","owner()":"8da5cb5b","pledgeReceiptRelation(address)":"dbcdf032","proxiableUUID()":"52d1902d","relation(address)":"d7a05f05","removeNodeAddress(uint256)":"f3e01942","removePledgeReceiptRelation(address)":"c363c3ac","renounceOwnership()":"715018a6","sell(uint256)":"e4849b32","setMaxWallet(uint256)":"5d0044ca","setWhiteAddress(address,bool)":"07c62151","setZToken(address)":"9e1e1713","symbol()":"95d89b41","totalSupply()":"18160ddd","transfer(address,uint256)":"a9059cbb","transferBNBBatch(address[],uint256[])":"3a5fe70b","transferFrom(address,address,uint256)":"23b872dd","transferOwnership(address)":"f2fde38b","upgradeToAndCall(address,bytes)":"4f1ef286"}},"storageLayout":{"storage":[{"astId":2274,"contract":"contracts/BT2.sol:BT2","label":"_totalSupply","offset":0,"slot":"0","type":"t_uint256"},{"astId":2276,"contract":"contracts/BT2.sol:BT2","label":"_bnbTotalSupply","offset":0,"slot":"1","type":"t_uint256"},{"astId":2278,"contract":"contracts/BT2.sol:BT2","label":"_maxWallet","offset":0,"slot":"2","type":"t_uint256"},{"astId":2280,"contract":"contracts/BT2.sol:BT2","label":"_maxSellAmount","offset":0,"slot":"3","type":"t_uint256"},{"astId":2282,"contract":"contracts/BT2.sol:BT2","label":"_fireStopAmount","offset":0,"slot":"4","type":"t_uint256"},{"astId":2284,"contract":"contracts/BT2.sol:BT2","label":"_name","offset":0,"slot":"5","type":"t_string_storage"},{"astId":2286,"contract":"contracts/BT2.sol:BT2","label":"_symbol","offset":0,"slot":"6","type":"t_string_storage"},{"astId":2288,"contract":"contracts/BT2.sol:BT2","label":"liquidityProvider","offset":0,"slot":"7","type":"t_address"},{"astId":2290,"contract":"contracts/BT2.sol:BT2","label":"maxWalletEnable","offset":20,"slot":"7","type":"t_bool"},{"astId":2292,"contract":"contracts/BT2.sol:BT2","label":"marketAddress","offset":0,"slot":"8","type":"t_address"},{"astId":2294,"contract":"contracts/BT2.sol:BT2","label":"ecoAddress","offset":0,"slot":"9","type":"t_address"},{"astId":2296,"contract":"contracts/BT2.sol:BT2","label":"feeAddress","offset":0,"slot":"10","type":"t_address"},{"astId":2299,"contract":"contracts/BT2.sol:BT2","label":"nodeAddress","offset":0,"slot":"11","type":"t_array(t_address)dyn_storage"},{"astId":2302,"contract":"contracts/BT2.sol:BT2","label":"communityAddress","offset":0,"slot":"12","type":"t_array(t_address)dyn_storage"},{"astId":2304,"contract":"contracts/BT2.sol:BT2","label":"communityBonus","offset":0,"slot":"13","type":"t_uint256"},{"astId":2306,"contract":"contracts/BT2.sol:BT2","label":"_nodeLimitAmount","offset":0,"slot":"14","type":"t_uint256"},{"astId":2310,"contract":"contracts/BT2.sol:BT2","label":"relation","offset":0,"slot":"15","type":"t_mapping(t_address,t_address)"},{"astId":2314,"contract":"contracts/BT2.sol:BT2","label":"communityCount","offset":0,"slot":"16","type":"t_mapping(t_address,t_uint256)"},{"astId":2318,"contract":"contracts/BT2.sol:BT2","label":"pledgeReceiptRelation","offset":0,"slot":"17","type":"t_mapping(t_address,t_uint256)"},{"astId":2322,"contract":"contracts/BT2.sol:BT2","label":"whiteAddress","offset":0,"slot":"18","type":"t_mapping(t_address,t_bool)"},{"astId":2324,"contract":"contracts/BT2.sol:BT2","label":"lastRewardAt","offset":0,"slot":"19","type":"t_uint256"},{"astId":2327,"contract":"contracts/BT2.sol:BT2","label":"zToken","offset":0,"slot":"20","type":"t_contract(ERC20Upgradeable)1247"},{"astId":2331,"contract":"contracts/BT2.sol:BT2","label":"lastTransaction","offset":0,"slot":"21","type":"t_mapping(t_address,t_uint32)"}],"types":{"t_address":{"encoding":"inplace","label":"address","numberOfBytes":"20"},"t_array(t_address)dyn_storage":{"base":"t_address","encoding":"dynamic_array","label":"address[]","numberOfBytes":"32"},"t_bool":{"encoding":"inplace","label":"bool","numberOfBytes":"1"},"t_contract(ERC20Upgradeable)1247":{"encoding":"inplace","label":"contract ERC20Upgradeable","numberOfBytes":"20"},"t_mapping(t_address,t_address)":{"encoding":"mapping","key":"t_address","label":"mapping(address => address)","numberOfBytes":"32","value":"t_address"},"t_mapping(t_address,t_bool)":{"encoding":"mapping","key":"t_address","label":"mapping(address => bool)","numberOfBytes":"32","value":"t_bool"},"t_mapping(t_address,t_uint256)":{"encoding":"mapping","key":"t_address","label":"mapping(address => uint256)","numberOfBytes":"32","value":"t_uint256"},"t_mapping(t_address,t_uint32)":{"encoding":"mapping","key":"t_address","label":"mapping(address => uint32)","numberOfBytes":"32","value":"t_uint32"},"t_string_storage":{"encoding":"bytes","label":"string","numberOfBytes":"32"},"t_uint256":{"encoding":"inplace","label":"uint256","numberOfBytes":"32"},"t_uint32":{"encoding":"inplace","label":"uint32","numberOfBytes":"4"}}}}}}