{"contracts/BT2.sol":{"BT2":{"abi":[{"inputs":[],"stateMutability":"nonpayable","type":"constructor"},{"inputs":[{"internalType":"address","name":"target","type":"address"}],"name":"AddressEmptyCode","type":"error"},{"inputs":[{"internalType":"address","name":"implementation","type":"address"}],"name":"ERC1967InvalidImplementation","type":"error"},{"inputs":[],"name":"ERC1967NonPayable","type":"error"},{"inputs":[{"internalType":"address","name":"spender","type":"address"},{"internalType":"uint256","name":"allowance","type":"uint256"},{"internalType":"uint256","name":"needed","type":"uint256"}],"name":"ERC20InsufficientAllowance","type":"error"},{"inputs":[{"internalType":"address","name":"sender","type":"address"},{"internalType":"uint256","name":"balance","type":"uint256"},{"internalType":"uint256","name":"needed","type":"uint256"}],"name":"ERC20InsufficientBalance","type":"error"},{"inputs":[{"internalType":"address","name":"approver","type":"address"}],"name":"ERC20InvalidApprover","type":"error"},{"inputs":[{"internalType":"address","name":"receiver","type":"address"}],"name":"ERC20InvalidReceiver","type":"error"},{"inputs":[{"internalType":"address","name":"sender","type":"address"}],"name":"ERC20InvalidSender","type":"error"},{"inputs":[{"internalType":"address","name":"spender","type":"address"}],"name":"ERC20InvalidSpender","type":"error"},{"inputs":[],"name":"FailedInnerCall","type":"error"},{"inputs":[],"name":"InvalidInitialization","type":"error"},{"inputs":[],"name":"NotInitializing","type":"error"},{"inputs":[{"internalType":"address","name":"owner","type":"address"}],"name":"OwnableInvalidOwner","type":"error"},{"inputs":[{"internalType":"address","name":"account","type":"address"}],"name":"OwnableUnauthorizedAccount","type":"error"},{"inputs":[],"name":"UUPSUnauthorizedCallContext","type":"error"},{"inputs":[{"internalType":"bytes32","name":"slot","type":"bytes32"}],"name":"UUPSUnsupportedProxiableUUID","type":"error"},{"anonymous":false,"inputs":[{"indexed":false,"internalType":"uint32","name":"_blockToUnlockLiquidity","type":"uint32"},{"indexed":false,"internalType":"uint256","name":"value","type":"uint256"}],"name":"AddLiquidity","type":"event"},{"anonymous":false,"inputs":[{"indexed":true,"internalType":"address","name":"owner","type":"address"},{"indexed":true,"internalType":"address","name":"spender","type":"address"},{"indexed":false,"internalType":"uint256","name":"value","type":"uint256"}],"name":"Approval","type":"event"},{"anonymous":false,"inputs":[{"indexed":false,"internalType":"uint64","name":"version","type":"uint64"}],"name":"Initialized","type":"event"},{"anonymous":false,"inputs":[{"indexed":true,"internalType":"address","name":"previousOwner","type":"address"},{"indexed":true,"internalType":"address","name":"newOwner","type":"address"}],"name":"OwnershipTransferred","type":"event"},{"anonymous":false,"inputs":[{"indexed":true,"internalType":"address","name":"sender","type":"address"},{"indexed":false,"internalType":"uint256","name":"value","type":"uint256"}],"name":"Pledge","type":"event"},{"anonymous":false,"inputs":[{"indexed":false,"internalType":"uint256","name":"value","type":"uint256"}],"name":"RemoveLiquidity","type":"event"},{"anonymous":false,"inputs":[{"indexed":true,"internalType":"address","name":"sender","type":"address"},{"indexed":false,"internalType":"uint256","name":"value","type":"uint256"}],"name":"RemovePledge","type":"event"},{"anonymous":false,"inputs":[{"indexed":true,"internalType":"address","name":"sender","type":"address"},{"indexed":false,"internalType":"uint256","name":"amount0In","type":"uint256"},{"indexed":false,"internalType":"uint256","name":"amount1In","type":"uint256"},{"indexed":false,"internalType":"uint256","name":"amount0Out","type":"uint256"},{"indexed":false,"internalType":"uint256","name":"amount1Out","type":"uint256"}],"name":"Swap","type":"event"},{"anonymous":false,"inputs":[{"indexed":true,"internalType":"address","name":"from","type":"address"},{"indexed":true,"internalType":"address","name":"to","type":"address"},{"indexed":false,"internalType":"uint256","name":"value","type":"uint256"}],"name":"Transfer","type":"event"},{"anonymous":false,"inputs":[{"indexed":true,"internalType":"address","name":"implementation","type":"address"}],"name":"Upgraded","type":"event"},{"inputs":[],"name":"UPGRADE_INTERFACE_VERSION","outputs":[{"internalType":"string","name":"","type":"string"}],"stateMutability":"view","type":"function"},{"inputs":[],"name":"_fireStopAmount","outputs":[{"internalType":"uint256","name":"","type":"uint256"}],"stateMutability":"view","type":"function"},{"inputs":[],"name":"_maxSellAmount","outputs":[{"internalType":"uint256","name":"","type":"uint256"}],"stateMutability":"view","type":"function"},{"inputs":[],"name":"_maxWallet","outputs":[{"internalType":"uint256","name":"","type":"uint256"}],"stateMutability":"view","type":"function"},{"inputs":[],"name":"_nodeLimitAmount","outputs":[{"internalType":"uint256","name":"","type":"uint256"}],"stateMutability":"view","type":"function"},{"inputs":[{"internalType":"address","name":"owner","type":"address"},{"internalType":"address","name":"spender","type":"address"}],"name":"allowance","outputs":[{"internalType":"uint256","name":"","type":"uint256"}],"stateMutability":"view","type":"function"},{"inputs":[{"internalType":"address","name":"spender","type":"address"},{"internalType":"uint256","name":"value","type":"uint256"}],"name":"approve","outputs":[{"internalType":"bool","name":"","type":"bool"}],"stateMutability":"nonpayable","type":"function"},{"inputs":[{"internalType":"address","name":"account","type":"address"}],"name":"balanceOf","outputs":[{"internalType":"uint256","name":"","type":"uint256"}],"stateMutability":"view","type":"function"},{"inputs":[{"internalType":"uint256","name":"","type":"uint256"}],"name":"communityAddress","outputs":[{"internalType":"address","name":"","type":"address"}],"stateMutability":"view","type":"function"},{"inputs":[],"name":"communityBonus","outputs":[{"internalType":"uint256","name":"","type":"uint256"}],"stateMutability":"view","type":"function"},{"inputs":[{"internalType":"address","name":"","type":"address"}],"name":"communityCount","outputs":[{"internalType":"uint256","name":"","type":"uint256"}],"stateMutability":"view","type":"function"},{"inputs":[],"name":"decimals","outputs":[{"internalType":"uint8","name":"","type":"uint8"}],"stateMutability":"view","type":"function"},{"inputs":[],"name":"ecoAddress","outputs":[{"internalType":"address","name":"","type":"address"}],"stateMutability":"view","type":"function"},{"inputs":[{"internalType":"bool","name":"_maxWalletEnable","type":"bool"}],"name":"enableMaxWallet","outputs":[],"stateMutability":"nonpayable","type":"function"},{"inputs":[],"name":"feeAddress","outputs":[{"internalType":"address","name":"","type":"address"}],"stateMutability":"view","type":"function"},{"inputs":[{"internalType":"uint256","name":"value","type":"uint256"},{"internalType":"bool","name":"_buy","type":"bool"}],"name":"getAmountOut","outputs":[{"internalType":"uint256","name":"","type":"uint256"}],"stateMutability":"view","type":"function"},{"inputs":[{"internalType":"address","name":"addr","type":"address"}],"name":"getPledgeReceiptRelation","outputs":[{"internalType":"uint256","name":"","type":"uint256"}],"stateMutability":"view","type":"function"},{"inputs":[],"name":"getReserves","outputs":[{"internalType":"uint256","name":"","type":"uint256"},{"internalType":"uint256","name":"","type":"uint256"}],"stateMutability":"view","type":"function"},{"inputs":[{"internalType":"address","name":"initialOwner","type":"address"}],"name":"initialize","outputs":[],"stateMutability":"nonpayable","type":"function"},{"inputs":[],"name":"lastRewardAt","outputs":[{"internalType":"uint256","name":"","type":"uint256"}],"stateMutability":"view","type":"function"},{"inputs":[],"name":"liquidityProvider","outputs":[{"internalType":"address","name":"","type":"address"}],"stateMutability":"view","type":"function"},{"inputs":[],"name":"marketAddress","outputs":[{"internalType":"address","name":"","type":"address"}],"stateMutability":"view","type":"function"},{"inputs":[],"name":"maxWalletEnable","outputs":[{"internalType":"bool","name":"","type":"bool"}],"stateMutability":"view","type":"function"},{"inputs":[],"name":"name","outputs":[{"internalType":"string","name":"","type":"string"}],"stateMutability":"view","type":"function"},{"inputs":[{"internalType":"uint256","name":"","type":"uint256"}],"name":"nodeAddress","outputs":[{"internalType":"address","name":"","type":"address"}],"stateMutability":"view","type":"function"},{"inputs":[],"name":"owner","outputs":[{"internalType":"address","name":"","type":"address"}],"stateMutability":"view","type":"function"},{"inputs":[{"internalType":"address","name":"","type":"address"}],"name":"pledgeReceiptRelation","outputs":[{"internalType":"uint256","name":"","type":"uint256"}],"stateMutability":"view","type":"function"},{"inputs":[],"name":"presaleEnable","outputs":[{"internalType":"bool","name":"","type":"bool"}],"stateMutability":"view","type":"function"},{"inputs":[],"name":"proxiableUUID","outputs":[{"internalType":"bytes32","name":"","type":"bytes32"}],"stateMutability":"view","type":"function"},{"inputs":[{"internalType":"address","name":"","type":"address"}],"name":"relation","outputs":[{"internalType":"address","name":"","type":"address"}],"stateMutability":"view","type":"function"},{"inputs":[{"internalType":"uint256","name":"index","type":"uint256"}],"name":"removeNodeAddress","outputs":[],"stateMutability":"nonpayable","type":"function"},{"inputs":[{"internalType":"address","name":"addr","type":"address"}],"name":"removePledgeReceiptRelation","outputs":[],"stateMutability":"nonpayable","type":"function"},{"inputs":[],"name":"renounceOwnership","outputs":[],"stateMutability":"nonpayable","type":"function"},{"inputs":[{"internalType":"uint256","name":"_maxWallet_","type":"uint256"}],"name":"setMaxWallet","outputs":[],"stateMutability":"nonpayable","type":"function"},{"inputs":[{"internalType":"address","name":"addr","type":"address"},{"internalType":"bool","name":"flag","type":"bool"}],"name":"setWhiteAddress","outputs":[],"stateMutability":"nonpayable","type":"function"},{"inputs":[{"internalType":"address","name":"addr","type":"address"}],"name":"setZToken","outputs":[],"stateMutability":"nonpayable","type":"function"},{"inputs":[],"name":"symbol","outputs":[{"internalType":"string","name":"","type":"string"}],"stateMutability":"view","type":"function"},{"inputs":[],"name":"totalSupply","outputs":[{"internalType":"uint256","name":"","type":"uint256"}],"stateMutability":"view","type":"function"},{"inputs":[{"internalType":"address","name":"to","type":"address"},{"internalType":"uint256","name":"value","type":"uint256"}],"name":"transfer","outputs":[{"internalType":"bool","name":"","type":"bool"}],"stateMutability":"nonpayable","type":"function"},{"inputs":[{"internalType":"address","name":"from","type":"address"},{"internalType":"address","name":"to","type":"address"},{"internalType":"uint256","name":"value","type":"uint256"}],"name":"transferFrom","outputs":[{"internalType":"bool","name":"","type":"bool"}],"stateMutability":"nonpayable","type":"function"},{"inputs":[{"internalType":"address","name":"newOwner","type":"address"}],"name":"transferOwnership","outputs":[],"stateMutability":"nonpayable","type":"function"},{"inputs":[{"internalType":"address","name":"newImplementation","type":"address"},{"internalType":"bytes","name":"data","type":"bytes"}],"name":"upgradeToAndCall","outputs":[],"stateMutability":"payable","type":"function"},{"stateMutability":"payable","type":"receive"}],"evm":{"bytecode":{"linkReferences":{},"object":"60a0604052306080526014805460ff60a01b191690553480156200002257600080fd5b506200002d62000033565b620000e7565b7ff0c57e16840df040f15088dc2f81fe391c3923bec73e23a9662efc9c229c6a00805468010000000000000000900460ff1615620000845760405163f92ee8a960e01b815260040160405180910390fd5b80546001600160401b0390811614620000e45780546001600160401b0319166001600160401b0390811782556040519081527fc7f505b2f371ae2175ee4913f4499e1f2633a7b5936321eed1cdaeb6115181d29060200160405180910390a15b50565b608051612d306200011160003960008181611c9901528181611cc20152611e400152612d306000f3fe6080604052600436106102d55760003560e01c80637ec18cf611610179578063c363c3ac116100d6578063dc5415041161008a578063f2e1562811610064578063f2e15628146108d2578063f2fde38b146108e8578063f3e019421461090857600080fd5b8063dc54150414610837578063dd62ed3e1461084d578063e98533b8146108b257600080fd5b8063d0943e17116100bb578063d0943e17146107b4578063d7a05f05146107d4578063dbcdf0321461080a57600080fd5b8063c363c3ac14610774578063c4d66de81461079457600080fd5b80639e1e17131161012d578063ad3cb1cc11610112578063ad3cb1cc146106f5578063ae19139e1461073e578063b74de5911461075e57600080fd5b80639e1e1713146106b5578063a9059cbb146106d557600080fd5b80638da5cb5b1161015e5780638da5cb5b14610643578063956236411461068057806395d89b41146106a057600080fd5b80637ec18cf61461060c57806382247ec01461062d57600080fd5b8063412753581161023257806368961ecb116101e657806378554a4f116101c057806378554a4f146105935780637b49827a146105c05780637cca52fe146105f657600080fd5b806368961ecb1461051b57806370a082311461053b578063715018a61461057e57600080fd5b806352d1902d1161021757806352d1902d146104c65780635b8bec55146104db5780635d0044ca146104fb57600080fd5b8063412753581461047b5780634f1ef286146104b357600080fd5b806312a54b621161028957806323b872dd1161026e57806323b872dd14610429578063313ce567146104495780633cd691d51461046557600080fd5b806312a54b62146103d457806318160ddd146103f557600080fd5b80630902f1ac116102ba5780630902f1ac14610334578063095ea7b31461037657806311106ee2146103a657600080fd5b806306fdde03146102e957806307c621511461031457600080fd5b366102e4576102e2610928565b005b600080fd5b3480156102f557600080fd5b506102fe610b84565b60405161030b919061272d565b60405180910390f35b34801561032057600080fd5b506102e261032f36600461278a565b610c47565b34801561034057600080fd5b50600154306000908152600080516020612cdb83398151915260205260409020546040805192835260208301919091520161030b565b34801561038257600080fd5b506103966103913660046127c1565b610c7a565b604051901515815260200161030b565b3480156103b257600080fd5b506103c66103c13660046127eb565b610c94565b60405190815260200161030b565b3480156103e057600080fd5b5060075461039690600160a01b900460ff1681565b34801561040157600080fd5b507f52c63247e1f47db19d5ce0460030c497f067ca4cebf71ba98eeadabe20bace02546103c6565b34801561043557600080fd5b50610396610444366004612810565b610d05565b34801561045557600080fd5b506040516012815260200161030b565b34801561047157600080fd5b506103c6600e5481565b34801561048757600080fd5b50600a5461049b906001600160a01b031681565b6040516001600160a01b03909116815260200161030b565b6102e26104c1366004612862565b610d2b565b3480156104d257600080fd5b506103c6610d4a565b3480156104e757600080fd5b5060075461049b906001600160a01b031681565b34801561050757600080fd5b506102e2610516366004612924565b610d79565b34801561052757600080fd5b5060095461049b906001600160a01b031681565b34801561054757600080fd5b506103c661055636600461293d565b6001600160a01b03166000908152600080516020612cdb833981519152602052604090205490565b34801561058a57600080fd5b506102e2610d86565b34801561059f57600080fd5b506103c66105ae36600461293d565b60106020526000908152604090205481565b3480156105cc57600080fd5b506103c66105db36600461293d565b6001600160a01b031660009081526011602052604090205490565b34801561060257600080fd5b506103c660035481565b34801561061857600080fd5b5060145461039690600160a01b900460ff1681565b34801561063957600080fd5b506103c660025481565b34801561064f57600080fd5b507f9016d09d72d40fdae2fd8ceac6b6234c7706214fd39c1cd1e609a0528c199300546001600160a01b031661049b565b34801561068c57600080fd5b5060085461049b906001600160a01b031681565b3480156106ac57600080fd5b506102fe610d9a565b3480156106c157600080fd5b506102e26106d036600461293d565b610dd9565b3480156106e157600080fd5b506103966106f03660046127c1565b610e03565b34801561070157600080fd5b506102fe6040518060400160405280600581526020017f352e302e3000000000000000000000000000000000000000000000000000000081525081565b34801561074a57600080fd5b506102e2610759366004612958565b61112f565b34801561076a57600080fd5b506103c660045481565b34801561078057600080fd5b506102e261078f36600461293d565b611155565b3480156107a057600080fd5b506102e26107af36600461293d565b611272565b3480156107c057600080fd5b5061049b6107cf366004612924565b611550565b3480156107e057600080fd5b5061049b6107ef36600461293d565b600f602052600090815260409020546001600160a01b031681565b34801561081657600080fd5b506103c661082536600461293d565b60116020526000908152604090205481565b34801561084357600080fd5b506103c6600d5481565b34801561085957600080fd5b506103c6610868366004612975565b6001600160a01b0391821660009081527f52c63247e1f47db19d5ce0460030c497f067ca4cebf71ba98eeadabe20bace016020908152604080832093909416825291909152205490565b3480156108be57600080fd5b5061049b6108cd366004612924565b61157a565b3480156108de57600080fd5b506103c660135481565b3480156108f457600080fd5b506102e261090336600461293d565b61158a565b34801561091457600080fd5b506102e2610923366004612924565b6115e1565b336000908152601560205260409020544363ffffffff909116036109b95760405162461bcd60e51b815260206004820152603160248201527f596f752063616e2774206d616b652074776f207472616e73616374696f6e732060448201527f696e207468652073616d6520626c6f636b00000000000000000000000000000060648201526084015b60405180910390fd5b336000908152601560205260408120805463ffffffff19164363ffffffff161790556001543491906109ec9083906129be565b306000908152600080516020612cdb8339815191526020526040902054610a1390846129d1565b610a1d91906129e8565b600754909150600160a01b900460ff1615610aaa57600254336000908152600080516020612cdb8339815191526020526040902054610a5c90836129be565b1115610aaa5760405162461bcd60e51b815260206004820152601360248201527f4d61782077616c6c65742065786365656465640000000000000000000000000060448201526064016109b0565b610acb30336064610abc85605f6129d1565b610ac691906129e8565b611691565b6103e8610ada836103d96129d1565b610ae491906129e8565b60016000828254610af591906129be565b90915550610b049050346117e8565b610b0d81611837565b610b17338261196b565b610b20816119b1565b610b29336119e5565b610b3281611a63565b60408051348152600060208201819052918101919091526060810182905233907f49926bbebe8474393f434dfa4f78694c0923efa07d19f2284518bfabd06eb737906080015b60405180910390a25050565b7f52c63247e1f47db19d5ce0460030c497f067ca4cebf71ba98eeadabe20bace038054606091600080516020612cdb83398151915291610bc390612a0a565b80601f0160208091040260200160405190810160405280929190818152602001828054610bef90612a0a565b8015610c3c5780601f10610c1157610100808354040283529160200191610c3c565b820191906000526020600020905b815481529060010190602001808311610c1f57829003601f168201915b505050505091505090565b610c4f611ae5565b6001600160a01b03919091166000908152601260205260409020805460ff1916911515919091179055565b600033610c88818585611b59565b60019150505b92915050565b6000806000610cc0600154306000908152600080516020612cdb83398151915260205260409020549091565b915091508315610cf157610cd485836129be565b610cde82876129d1565b610ce891906129e8565b92505050610c8e565b610cfb85826129be565b610cde83876129d1565b600033610d13858285611b66565b610d1e858585611c16565b60019150505b9392505050565b610d33611c8e565b610d3c82611d45565b610d468282611d4d565b5050565b6000610d54611e35565b507f360894a13ba1a3210667c828492db98dca3e2076cc3735a920a3ca505d382bbc90565b610d81611ae5565b600255565b610d8e611ae5565b610d986000611e7e565b565b7f52c63247e1f47db19d5ce0460030c497f067ca4cebf71ba98eeadabe20bace048054606091600080516020612cdb83398151915291610bc390612a0a565b610de1611ae5565b601480546001600160a01b0319166001600160a01b0392909216919091179055565b6000306001600160a01b03841603610e2357610e1e82611eef565b611126565b6014546001600160a01b039081169084160361105f57610e456012600a612b19565b610e51906175306129d1565b821480610e755750610e656012600a612b19565b610e7290620186a06129d1565b82145b80610e975750610e876012600a612b19565b610e9490620493e06129d1565b82145b80610eb95750610ea96012600a612b19565b610eb6906207a1206129d1565b82145b610f055760405162461bcd60e51b815260206004820152600e60248201527f33772f3130772f3330772f35307700000000000000000000000000000000000060448201526064016109b0565b33600090815260116020526040902054610f615760405162461bcd60e51b815260206004820152600f60248201527f416c726561647920706c6564676564000000000000000000000000000000000060448201526064016109b0565b610f6c338484611c16565b3360008181526011602052604090208390556014546001600160a01b03169063a9059cbb90610f9d611388866129e8565b6040517fffffffff0000000000000000000000000000000000000000000000000000000060e085901b1681526001600160a01b03909216600483015260248201526044016020604051808303816000875af1158015611000573d6000803e3d6000fd5b505050506040513d601f19601f820116820180604052508101906110249190612b28565b5060405182815233907f5e91ea8ea1c46300eb761859be01d7b16d44389ef91e03a163a87413cbf55b959060200160405180910390a2611126565b600061106d60066012612b45565b61107890600a612b19565b6110839060016129d1565b336000908152600080516020612cdb8339815191526020526040902054909150830361110657336000908152600080516020612cdb83398151915260205260409020548110156110fc57336000908152600080516020612cdb83398151915260205260409020546110f5908290612b5e565b9250611106565b6001915050610c8e565b611111338585611691565b61111a846119e5565b61112433856121c9565b505b50600192915050565b611137611ae5565b60078054911515600160a01b0260ff60a01b19909216919091179055565b3360009081526012602052604090205460ff166111b45760405162461bcd60e51b815260206004820152601f60248201527f63616c6c6572206973206e6f742074686520776869746520616464726573730060448201526064016109b0565b6001600160a01b0381166000908152601160205260409020548061121a5760405162461bcd60e51b815260206004820152600960248201527f6e6f20706c65646765000000000000000000000000000000000000000000000060448201526064016109b0565b611225338383611c16565b6001600160a01b03821660008181526011602052604080822091909155517f7c1499da310db315606891cff45c8999e67bc58b9fa507440dd5c02506d64de090610b789084815260200190565b7ff0c57e16840df040f15088dc2f81fe391c3923bec73e23a9662efc9c229c6a00805468010000000000000000810460ff16159067ffffffffffffffff166000811580156112bd5750825b905060008267ffffffffffffffff1660011480156112da5750303b155b9050811580156112e8575080155b1561131f576040517ff92ee8a900000000000000000000000000000000000000000000000000000000815260040160405180910390fd5b845467ffffffffffffffff19166001178555831561135357845468ff00000000000000001916680100000000000000001785555b6113c76040518060400160405280600781526020017f4d79546f6b656e000000000000000000000000000000000000000000000000008152506040518060400160405280600381526020017f4d544b000000000000000000000000000000000000000000000000000000000081525061229c565b6113d36012600a612b19565b6113e190633b0233806129d1565b600055681043561a88293000006001556113fd6012600a612b19565b61140a90629896806129d1565b600455652d79883d20006002819055600e5565048c27395000600355600980546001600160a01b03199081167398a8790028c6476b740be640627a62496e5d616b179091556007805460ff60a01b1916600160a01b179055600880548216737a6ca6a66b7ca223ecd10ef837895f7a32e902d4179055600a805490911673bedddae2062f0b573ec72562f88da141a67b70b21790556114a8866122ae565b6114b06122bf565b6114d3306114c06012600a612b19565b6114ce9063068e77806129d1565b6122c7565b6009546114fd906001600160a01b03166114ef6012600a612b19565b6114ce90633473bc006129d1565b831561154857845468ff000000000000000019168555604051600181527fc7f505b2f371ae2175ee4913f4499e1f2633a7b5936321eed1cdaeb6115181d29060200160405180910390a15b505050505050565b600c818154811061156057600080fd5b6000918252602090912001546001600160a01b0316905081565b600b818154811061156057600080fd5b611592611ae5565b6001600160a01b0381166115d5576040517f1e4fbdf7000000000000000000000000000000000000000000000000000000008152600060048201526024016109b0565b6115de81611e7e565b50565b600b80546115f190600190612b5e565b8154811061160157611601612b71565b600091825260209091200154600b80546001600160a01b03909216918390811061162d5761162d612b71565b9060005260206000200160006101000a8154816001600160a01b0302191690836001600160a01b03160217905550600b80548061166c5761166c612b87565b600082815260209020810160001990810180546001600160a01b031916905501905550565b600080516020612cdb8339815191526001600160a01b0384166116cd57818160020160008282546116c291906129be565b909155506117589050565b6001600160a01b03841660009081526020829052604090205482811015611739576040517fe450d38c0000000000000000000000000000000000000000000000000000000081526001600160a01b038616600482015260248101829052604481018490526064016109b0565b6001600160a01b03851660009081526020839052604090209083900390555b6001600160a01b038316611776576002810180548390039055611795565b6001600160a01b03831660009081526020829052604090208054830190555b826001600160a01b0316846001600160a01b03167fddf252ad1be2c89b69c2b068fc378daa952ba7f163c4a11628f55a4df523b3ef846040516117da91815260200190565b60405180910390a350505050565b6008546001600160a01b03166108fc6103e861180584600f6129d1565b61180f91906129e8565b6040518115909202916000818181858888f19350505050158015610d46573d6000803e3d6000fd5b60006103e861184783600f6129d1565b61185191906129e8565b600b5490915060000361187657600a54610d469030906001600160a01b031683611691565b600b5460009061188690836129e8565b905060005b600b548110156119655760006001600160a01b0316600b82815481106118b3576118b3612b71565b6000918252602090912001546001600160a01b03161461195d57600e54611918600b83815481106118e6576118e6612b71565b60009182526020808320909101546001600160a01b03168252600080516020612cdb8339815191529052604090205490565b106119545761194f30600b838154811061193457611934612b71565b6000918252602090912001546001600160a01b031684611691565b61195d565b61195d816115e1565b60010161188b565b50505050565b6001600160a01b038083166000908152600f602052604090205416806119995750600a546001600160a01b03165b6119ac30826103e8610abc86600a6129d1565b505050565b600060646119c08360056129d1565b6119ca91906129e8565b600954909150610d469030906001600160a01b031683611691565b600e546001600160a01b0382166000908152600080516020612cdb8339815191526020526040902054106115de57600b80546001810182556000919091527f0175b7a638427703f0dbe7bb9bbf987a2551717b34e79f33b5b1008d1fa01db90180546001600160a01b0383166001600160a01b031990911617905550565b60006103e8611a7383600a6129d1565b611a7d91906129e8565b905060045481600054611a909190612b5e565b1015611aa957600454600054611aa69190612b5e565b90505b600081118015611ad45750306000908152600080516020612cdb833981519152602052604090205481105b15610d4657610d4630600083611691565b33611b177f9016d09d72d40fdae2fd8ceac6b6234c7706214fd39c1cd1e609a0528c199300546001600160a01b031690565b6001600160a01b031614610d98576040517f118cdaa70000000000000000000000000000000000000000000000000000000081523360048201526024016109b0565b6119ac83838360016122fd565b6001600160a01b0383811660009081527f52c63247e1f47db19d5ce0460030c497f067ca4cebf71ba98eeadabe20bace01602090815260408083209386168352929052205460001981146119655781811015611c07576040517ffb8f41b20000000000000000000000000000000000000000000000000000000081526001600160a01b038416600482015260248101829052604481018390526064016109b0565b611965848484840360006122fd565b6001600160a01b038316611c59576040517f96c6fd1e000000000000000000000000000000000000000000000000000000008152600060048201526024016109b0565b6001600160a01b038216611c835760405163ec442f0560e01b8152600060048201526024016109b0565b6119ac838383611691565b306001600160a01b037f0000000000000000000000000000000000000000000000000000000000000000161480611d2757507f00000000000000000000000000000000000000000000000000000000000000006001600160a01b0316611d1b7f360894a13ba1a3210667c828492db98dca3e2076cc3735a920a3ca505d382bbc546001600160a01b031690565b6001600160a01b031614155b15610d985760405163703e46dd60e11b815260040160405180910390fd5b6115de611ae5565b816001600160a01b03166352d1902d6040518163ffffffff1660e01b8152600401602060405180830381865afa925050508015611da7575060408051601f3d908101601f19168201909252611da491810190612b9d565b60015b611dcf57604051634c9c8ce360e01b81526001600160a01b03831660048201526024016109b0565b7f360894a13ba1a3210667c828492db98dca3e2076cc3735a920a3ca505d382bbc8114611e2b576040517faa1d49a4000000000000000000000000000000000000000000000000000000008152600481018290526024016109b0565b6119ac8383612417565b306001600160a01b037f00000000000000000000000000000000000000000000000000000000000000001614610d985760405163703e46dd60e11b815260040160405180910390fd5b7f9016d09d72d40fdae2fd8ceac6b6234c7706214fd39c1cd1e609a0528c19930080546001600160a01b031981166001600160a01b03848116918217845560405192169182907f8be0079c531659141344cd1fd0a4f28419497f9722a3daafe3b4186f6b6457e090600090a3505050565b336000908152601560205260409020544363ffffffff90911603611f7b5760405162461bcd60e51b815260206004820152603160248201527f596f752063616e2774206d616b652074776f207472616e73616374696f6e732060448201527f696e207468652073616d6520626c6f636b00000000000000000000000000000060648201526084016109b0565b336000908152601560205260409020805463ffffffff19164363ffffffff16179055600354811115611fef5760405162461bcd60e51b815260206004820152600e60248201527f4d6178204c696d69742053656c6c00000000000000000000000000000000000060448201526064016109b0565b306000908152600080516020612cdb83398151915260205260408120546120179083906129be565b60015461202490846129d1565b61202e91906129e8565b9050600081116120805760405162461bcd60e51b815260206004820152601360248201527f53656c6c20616d6f756e7420746f6f206c6f770000000000000000000000000060448201526064016109b0565b8060015410156120d25760405162461bcd60e51b815260206004820152601c60248201527f496e73756666696369656e7420424e4220696e2072657365727665730000000060448201526064016109b0565b6120dd333084611691565b6103e86120ec826103c56129d1565b6120f691906129e8565b600160008282546121079190612b5e565b909155506121169050816117e8565b61211f82611837565b612129338361196b565b612132826119b1565b61213b82611a63565b336108fc606461214c84605f6129d1565b61215691906129e8565b6040518115909202916000818181858888f1935050505015801561217e573d6000803e3d6000fd5b5060408051600080825260208201859052918101839052606081019190915233907f49926bbebe8474393f434dfa4f78694c0923efa07d19f2284518bfabd06eb73790608001610b78565b6001600160a01b038181166000908152600f6020526040902054161580156122035750806001600160a01b0316826001600160a01b031614155b801561221857506001600160a01b0381163014155b801561223257506008546001600160a01b03828116911614155b801561224c57506009546001600160a01b03828116911614155b80156122665750600a546001600160a01b03828116911614155b15610d46576001600160a01b039081166000908152600f6020526040902080546001600160a01b03191692909116919091179055565b6122a461246d565b610d4682826124d4565b6122b661246d565b6115de81612525565b610d9861246d565b6001600160a01b0382166122f15760405163ec442f0560e01b8152600060048201526024016109b0565b610d4660008383611691565b600080516020612cdb8339815191526001600160a01b03851661234f576040517fe602df05000000000000000000000000000000000000000000000000000000008152600060048201526024016109b0565b6001600160a01b038416612392576040517f94280d62000000000000000000000000000000000000000000000000000000008152600060048201526024016109b0565b6001600160a01b0380861660009081526001830160209081526040808320938816835292905220839055811561241057836001600160a01b0316856001600160a01b03167f8c5be1e5ebec7d5bd14f71427d1e84f3dd0314c0f7b2291e5b200ac8c7c3b9258560405161240791815260200190565b60405180910390a35b5050505050565b6124208261252d565b6040516001600160a01b038316907fbc7cd75a20ee27fd9adebab32041f755214dbc6bffa90cc0225b39da2e5c2d3b90600090a2805115612465576119ac82826125a4565b610d4661261a565b7ff0c57e16840df040f15088dc2f81fe391c3923bec73e23a9662efc9c229c6a005468010000000000000000900460ff16610d98576040517fd7e6bcf800000000000000000000000000000000000000000000000000000000815260040160405180910390fd5b6124dc61246d565b600080516020612cdb8339815191527f52c63247e1f47db19d5ce0460030c497f067ca4cebf71ba98eeadabe20bace036125168482612bfe565b50600481016119658382612bfe565b61159261246d565b806001600160a01b03163b60000361256357604051634c9c8ce360e01b81526001600160a01b03821660048201526024016109b0565b7f360894a13ba1a3210667c828492db98dca3e2076cc3735a920a3ca505d382bbc80546001600160a01b0319166001600160a01b0392909216919091179055565b6060600080846001600160a01b0316846040516125c19190612cbe565b600060405180830381855af49150503d80600081146125fc576040519150601f19603f3d011682016040523d82523d6000602084013e612601565b606091505b5091509150612611858383612652565b95945050505050565b3415610d98576040517fb398979f00000000000000000000000000000000000000000000000000000000815260040160405180910390fd5b60608261266757612662826126c7565b610d24565b815115801561267e57506001600160a01b0384163b155b156126c0576040517f9996b3150000000000000000000000000000000000000000000000000000000081526001600160a01b03851660048201526024016109b0565b5080610d24565b8051156126d75780518082602001fd5b6040517f1425ea4200000000000000000000000000000000000000000000000000000000815260040160405180910390fd5b60005b8381101561272457818101518382015260200161270c565b50506000910152565b602081526000825180602084015261274c816040850160208701612709565b601f01601f19169190910160400192915050565b80356001600160a01b038116811461277757600080fd5b919050565b80151581146115de57600080fd5b6000806040838503121561279d57600080fd5b6127a683612760565b915060208301356127b68161277c565b809150509250929050565b600080604083850312156127d457600080fd5b6127dd83612760565b946020939093013593505050565b600080604083850312156127fe57600080fd5b8235915060208301356127b68161277c565b60008060006060848603121561282557600080fd5b61282e84612760565b925061283c60208501612760565b9150604084013590509250925092565b634e487b7160e01b600052604160045260246000fd5b6000806040838503121561287557600080fd5b61287e83612760565b9150602083013567ffffffffffffffff8082111561289b57600080fd5b818501915085601f8301126128af57600080fd5b8135818111156128c1576128c161284c565b604051601f8201601f19908116603f011681019083821181831017156128e9576128e961284c565b8160405282815288602084870101111561290257600080fd5b8260208601602083013760006020848301015280955050505050509250929050565b60006020828403121561293657600080fd5b5035919050565b60006020828403121561294f57600080fd5b610d2482612760565b60006020828403121561296a57600080fd5b8135610d248161277c565b6000806040838503121561298857600080fd5b61299183612760565b915061299f60208401612760565b90509250929050565b634e487b7160e01b600052601160045260246000fd5b80820180821115610c8e57610c8e6129a8565b8082028115828204841417610c8e57610c8e6129a8565b600082612a0557634e487b7160e01b600052601260045260246000fd5b500490565b600181811c90821680612a1e57607f821691505b602082108103612a3e57634e487b7160e01b600052602260045260246000fd5b50919050565b600181815b80851115612a7f578160001904821115612a6557612a656129a8565b80851615612a7257918102915b93841c9390800290612a49565b509250929050565b600082612a9657506001610c8e565b81612aa357506000610c8e565b81600181146110fc5760028103612ad05760ff841115612ac557612ac56129a8565b50506001821b610c8e565b5060208310610133831016604e8410600b8410161715612af3575081810a610c8e565b612afd8383612a44565b8060001904821115612b1157612b116129a8565b029392505050565b6000610d2460ff841683612a87565b600060208284031215612b3a57600080fd5b8151610d248161277c565b60ff8281168282160390811115610c8e57610c8e6129a8565b81810381811115610c8e57610c8e6129a8565b634e487b7160e01b600052603260045260246000fd5b634e487b7160e01b600052603160045260246000fd5b600060208284031215612baf57600080fd5b5051919050565b601f8211156119ac576000816000526020600020601f850160051c81016020861015612bdf5750805b601f850160051c820191505b8181101561154857828155600101612beb565b815167ffffffffffffffff811115612c1857612c1861284c565b612c2c81612c268454612a0a565b84612bb6565b602080601f831160018114612c615760008415612c495750858301515b600019600386901b1c1916600185901b178555611548565b600085815260208120601f198616915b82811015612c9057888601518255948401946001909101908401612c71565b5085821015612cae5787850151600019600388901b60f8161c191681555b5050505050600190811b01905550565b60008251612cd0818460208701612709565b919091019291505056fe52c63247e1f47db19d5ce0460030c497f067ca4cebf71ba98eeadabe20bace00a2646970667358221220499f730d86c32c4a14dacec9becb1281ea8c86ad5af74bb06b8b9e85678b979464736f6c63430008180033","opcodes":"PUSH1 0xA0 PUSH1 0x40 MSTORE ADDRESS PUSH1 0x80 MSTORE PUSH1 0x14 DUP1 SLOAD PUSH1 0xFF PUSH1 0xA0 SHL NOT AND SWAP1 SSTORE CALLVALUE DUP1 ISZERO PUSH3 0x22 JUMPI PUSH1 0x0 DUP1 REVERT JUMPDEST POP PUSH3 0x2D PUSH3 0x33 JUMP JUMPDEST PUSH3 0xE7 JUMP JUMPDEST PUSH32 0xF0C57E16840DF040F15088DC2F81FE391C3923BEC73E23A9662EFC9C229C6A00 DUP1 SLOAD PUSH9 0x10000000000000000 SWAP1 DIV PUSH1 0xFF AND ISZERO PUSH3 0x84 JUMPI PUSH1 0x40 MLOAD PUSH4 0xF92EE8A9 PUSH1 0xE0 SHL DUP2 MSTORE PUSH1 0x4 ADD PUSH1 0x40 MLOAD DUP1 SWAP2 SUB SWAP1 REVERT JUMPDEST DUP1 SLOAD PUSH1 0x1 PUSH1 0x1 PUSH1 0x40 SHL SUB SWAP1 DUP2 AND EQ PUSH3 0xE4 JUMPI DUP1 SLOAD PUSH1 0x1 PUSH1 0x1 PUSH1 0x40 SHL SUB NOT AND PUSH1 0x1 PUSH1 0x1 PUSH1 0x40 SHL SUB SWAP1 DUP2 OR DUP3 SSTORE PUSH1 0x40 MLOAD SWAP1 DUP2 MSTORE PUSH32 0xC7F505B2F371AE2175EE4913F4499E1F2633A7B5936321EED1CDAEB6115181D2 SWAP1 PUSH1 0x20 ADD PUSH1 0x40 MLOAD DUP1 SWAP2 SUB SWAP1 LOG1 JUMPDEST POP JUMP JUMPDEST PUSH1 0x80 MLOAD PUSH2 0x2D30 PUSH3 0x111 PUSH1 0x0 CODECOPY PUSH1 0x0 DUP2 DUP2 PUSH2 0x1C99 ADD MSTORE DUP2 DUP2 PUSH2 0x1CC2 ADD MSTORE PUSH2 0x1E40 ADD MSTORE PUSH2 0x2D30 PUSH1 0x0 RETURN INVALID PUSH1 0x80 PUSH1 0x40 MSTORE PUSH1 0x4 CALLDATASIZE LT PUSH2 0x2D5 JUMPI PUSH1 0x0 CALLDATALOAD PUSH1 0xE0 SHR DUP1 PUSH4 0x7EC18CF6 GT PUSH2 0x179 JUMPI DUP1 PUSH4 0xC363C3AC GT PUSH2 0xD6 JUMPI DUP1 PUSH4 0xDC541504 GT PUSH2 0x8A JUMPI DUP1 PUSH4 0xF2E15628 GT PUSH2 0x64 JUMPI DUP1 PUSH4 0xF2E15628 EQ PUSH2 0x8D2 JUMPI DUP1 PUSH4 0xF2FDE38B EQ PUSH2 0x8E8 JUMPI DUP1 PUSH4 0xF3E01942 EQ PUSH2 0x908 JUMPI PUSH1 0x0 DUP1 REVERT JUMPDEST DUP1 PUSH4 0xDC541504 EQ PUSH2 0x837 JUMPI DUP1 PUSH4 0xDD62ED3E EQ PUSH2 0x84D JUMPI DUP1 PUSH4 0xE98533B8 EQ PUSH2 0x8B2 JUMPI PUSH1 0x0 DUP1 REVERT JUMPDEST DUP1 PUSH4 0xD0943E17 GT PUSH2 0xBB JUMPI DUP1 PUSH4 0xD0943E17 EQ PUSH2 0x7B4 JUMPI DUP1 PUSH4 0xD7A05F05 EQ PUSH2 0x7D4 JUMPI DUP1 PUSH4 0xDBCDF032 EQ PUSH2 0x80A JUMPI PUSH1 0x0 DUP1 REVERT JUMPDEST DUP1 PUSH4 0xC363C3AC EQ PUSH2 0x774 JUMPI DUP1 PUSH4 0xC4D66DE8 EQ PUSH2 0x794 JUMPI PUSH1 0x0 DUP1 REVERT JUMPDEST DUP1 PUSH4 0x9E1E1713 GT PUSH2 0x12D JUMPI DUP1 PUSH4 0xAD3CB1CC GT PUSH2 0x112 JUMPI DUP1 PUSH4 0xAD3CB1CC EQ PUSH2 0x6F5 JUMPI DUP1 PUSH4 0xAE19139E EQ PUSH2 0x73E JUMPI DUP1 PUSH4 0xB74DE591 EQ PUSH2 0x75E JUMPI PUSH1 0x0 DUP1 REVERT JUMPDEST DUP1 PUSH4 0x9E1E1713 EQ PUSH2 0x6B5 JUMPI DUP1 PUSH4 0xA9059CBB EQ PUSH2 0x6D5 JUMPI PUSH1 0x0 DUP1 REVERT JUMPDEST DUP1 PUSH4 0x8DA5CB5B GT PUSH2 0x15E JUMPI DUP1 PUSH4 0x8DA5CB5B EQ PUSH2 0x643 JUMPI DUP1 PUSH4 0x95623641 EQ PUSH2 0x680 JUMPI DUP1 PUSH4 0x95D89B41 EQ PUSH2 0x6A0 JUMPI PUSH1 0x0 DUP1 REVERT JUMPDEST DUP1 PUSH4 0x7EC18CF6 EQ PUSH2 0x60C JUMPI DUP1 PUSH4 0x82247EC0 EQ PUSH2 0x62D JUMPI PUSH1 0x0 DUP1 REVERT JUMPDEST DUP1 PUSH4 0x41275358 GT PUSH2 0x232 JUMPI DUP1 PUSH4 0x68961ECB GT PUSH2 0x1E6 JUMPI DUP1 PUSH4 0x78554A4F GT PUSH2 0x1C0 JUMPI DUP1 PUSH4 0x78554A4F EQ PUSH2 0x593 JUMPI DUP1 PUSH4 0x7B49827A EQ PUSH2 0x5C0 JUMPI DUP1 PUSH4 0x7CCA52FE EQ PUSH2 0x5F6 JUMPI PUSH1 0x0 DUP1 REVERT JUMPDEST DUP1 PUSH4 0x68961ECB EQ PUSH2 0x51B JUMPI DUP1 PUSH4 0x70A08231 EQ PUSH2 0x53B JUMPI DUP1 PUSH4 0x715018A6 EQ PUSH2 0x57E JUMPI PUSH1 0x0 DUP1 REVERT JUMPDEST DUP1 PUSH4 0x52D1902D GT PUSH2 0x217 JUMPI DUP1 PUSH4 0x52D1902D EQ PUSH2 0x4C6 JUMPI DUP1 PUSH4 0x5B8BEC55 EQ PUSH2 0x4DB JUMPI DUP1 PUSH4 0x5D0044CA EQ PUSH2 0x4FB JUMPI PUSH1 0x0 DUP1 REVERT JUMPDEST DUP1 PUSH4 0x41275358 EQ PUSH2 0x47B JUMPI DUP1 PUSH4 0x4F1EF286 EQ PUSH2 0x4B3 JUMPI PUSH1 0x0 DUP1 REVERT JUMPDEST DUP1 PUSH4 0x12A54B62 GT PUSH2 0x289 JUMPI DUP1 PUSH4 0x23B872DD GT PUSH2 0x26E JUMPI DUP1 PUSH4 0x23B872DD EQ PUSH2 0x429 JUMPI DUP1 PUSH4 0x313CE567 EQ PUSH2 0x449 JUMPI DUP1 PUSH4 0x3CD691D5 EQ PUSH2 0x465 JUMPI PUSH1 0x0 DUP1 REVERT JUMPDEST DUP1 PUSH4 0x12A54B62 EQ PUSH2 0x3D4 JUMPI DUP1 PUSH4 0x18160DDD EQ PUSH2 0x3F5 JUMPI PUSH1 0x0 DUP1 REVERT JUMPDEST DUP1 PUSH4 0x902F1AC GT PUSH2 0x2BA JUMPI DUP1 PUSH4 0x902F1AC EQ PUSH2 0x334 JUMPI DUP1 PUSH4 0x95EA7B3 EQ PUSH2 0x376 JUMPI DUP1 PUSH4 0x11106EE2 EQ PUSH2 0x3A6 JUMPI PUSH1 0x0 DUP1 REVERT JUMPDEST DUP1 PUSH4 0x6FDDE03 EQ PUSH2 0x2E9 JUMPI DUP1 PUSH4 0x7C62151 EQ PUSH2 0x314 JUMPI PUSH1 0x0 DUP1 REVERT JUMPDEST CALLDATASIZE PUSH2 0x2E4 JUMPI PUSH2 0x2E2 PUSH2 0x928 JUMP JUMPDEST STOP JUMPDEST PUSH1 0x0 DUP1 REVERT JUMPDEST CALLVALUE DUP1 ISZERO PUSH2 0x2F5 JUMPI PUSH1 0x0 DUP1 REVERT JUMPDEST POP PUSH2 0x2FE PUSH2 0xB84 JUMP JUMPDEST PUSH1 0x40 MLOAD PUSH2 0x30B SWAP2 SWAP1 PUSH2 0x272D JUMP JUMPDEST PUSH1 0x40 MLOAD DUP1 SWAP2 SUB SWAP1 RETURN JUMPDEST CALLVALUE DUP1 ISZERO PUSH2 0x320 JUMPI PUSH1 0x0 DUP1 REVERT JUMPDEST POP PUSH2 0x2E2 PUSH2 0x32F CALLDATASIZE PUSH1 0x4 PUSH2 0x278A JUMP JUMPDEST PUSH2 0xC47 JUMP JUMPDEST CALLVALUE DUP1 ISZERO PUSH2 0x340 JUMPI PUSH1 0x0 DUP1 REVERT JUMPDEST POP PUSH1 0x1 SLOAD ADDRESS PUSH1 0x0 SWAP1 DUP2 MSTORE PUSH1 0x0 DUP1 MLOAD PUSH1 0x20 PUSH2 0x2CDB DUP4 CODECOPY DUP2 MLOAD SWAP2 MSTORE PUSH1 0x20 MSTORE PUSH1 0x40 SWAP1 KECCAK256 SLOAD PUSH1 0x40 DUP1 MLOAD SWAP3 DUP4 MSTORE PUSH1 0x20 DUP4 ADD SWAP2 SWAP1 SWAP2 MSTORE ADD PUSH2 0x30B JUMP JUMPDEST CALLVALUE DUP1 ISZERO PUSH2 0x382 JUMPI PUSH1 0x0 DUP1 REVERT JUMPDEST POP PUSH2 0x396 PUSH2 0x391 CALLDATASIZE PUSH1 0x4 PUSH2 0x27C1 JUMP JUMPDEST PUSH2 0xC7A JUMP JUMPDEST PUSH1 0x40 MLOAD SWAP1 ISZERO ISZERO DUP2 MSTORE PUSH1 0x20 ADD PUSH2 0x30B JUMP JUMPDEST CALLVALUE DUP1 ISZERO PUSH2 0x3B2 JUMPI PUSH1 0x0 DUP1 REVERT JUMPDEST POP PUSH2 0x3C6 PUSH2 0x3C1 CALLDATASIZE PUSH1 0x4 PUSH2 0x27EB JUMP JUMPDEST PUSH2 0xC94 JUMP JUMPDEST PUSH1 0x40 MLOAD SWAP1 DUP2 MSTORE PUSH1 0x20 ADD PUSH2 0x30B JUMP JUMPDEST CALLVALUE DUP1 ISZERO PUSH2 0x3E0 JUMPI PUSH1 0x0 DUP1 REVERT JUMPDEST POP PUSH1 0x7 SLOAD PUSH2 0x396 SWAP1 PUSH1 0x1 PUSH1 0xA0 SHL SWAP1 DIV PUSH1 0xFF AND DUP2 JUMP JUMPDEST CALLVALUE DUP1 ISZERO PUSH2 0x401 JUMPI PUSH1 0x0 DUP1 REVERT JUMPDEST POP PUSH32 0x52C63247E1F47DB19D5CE0460030C497F067CA4CEBF71BA98EEADABE20BACE02 SLOAD PUSH2 0x3C6 JUMP JUMPDEST CALLVALUE DUP1 ISZERO PUSH2 0x435 JUMPI PUSH1 0x0 DUP1 REVERT JUMPDEST POP PUSH2 0x396 PUSH2 0x444 CALLDATASIZE PUSH1 0x4 PUSH2 0x2810 JUMP JUMPDEST PUSH2 0xD05 JUMP JUMPDEST CALLVALUE DUP1 ISZERO PUSH2 0x455 JUMPI PUSH1 0x0 DUP1 REVERT JUMPDEST POP PUSH1 0x40 MLOAD PUSH1 0x12 DUP2 MSTORE PUSH1 0x20 ADD PUSH2 0x30B JUMP JUMPDEST CALLVALUE DUP1 ISZERO PUSH2 0x471 JUMPI PUSH1 0x0 DUP1 REVERT JUMPDEST POP PUSH2 0x3C6 PUSH1 0xE SLOAD DUP2 JUMP JUMPDEST CALLVALUE DUP1 ISZERO PUSH2 0x487 JUMPI PUSH1 0x0 DUP1 REVERT JUMPDEST POP PUSH1 0xA SLOAD PUSH2 0x49B SWAP1 PUSH1 0x1 PUSH1 0x1 PUSH1 0xA0 SHL SUB AND DUP2 JUMP JUMPDEST PUSH1 0x40 MLOAD PUSH1 0x1 PUSH1 0x1 PUSH1 0xA0 SHL SUB SWAP1 SWAP2 AND DUP2 MSTORE PUSH1 0x20 ADD PUSH2 0x30B JUMP JUMPDEST PUSH2 0x2E2 PUSH2 0x4C1 CALLDATASIZE PUSH1 0x4 PUSH2 0x2862 JUMP JUMPDEST PUSH2 0xD2B JUMP JUMPDEST CALLVALUE DUP1 ISZERO PUSH2 0x4D2 JUMPI PUSH1 0x0 DUP1 REVERT JUMPDEST POP PUSH2 0x3C6 PUSH2 0xD4A JUMP JUMPDEST CALLVALUE DUP1 ISZERO PUSH2 0x4E7 JUMPI PUSH1 0x0 DUP1 REVERT JUMPDEST POP PUSH1 0x7 SLOAD PUSH2 0x49B SWAP1 PUSH1 0x1 PUSH1 0x1 PUSH1 0xA0 SHL SUB AND DUP2 JUMP JUMPDEST CALLVALUE DUP1 ISZERO PUSH2 0x507 JUMPI PUSH1 0x0 DUP1 REVERT JUMPDEST POP PUSH2 0x2E2 PUSH2 0x516 CALLDATASIZE PUSH1 0x4 PUSH2 0x2924 JUMP JUMPDEST PUSH2 0xD79 JUMP JUMPDEST CALLVALUE DUP1 ISZERO PUSH2 0x527 JUMPI PUSH1 0x0 DUP1 REVERT JUMPDEST POP PUSH1 0x9 SLOAD PUSH2 0x49B SWAP1 PUSH1 0x1 PUSH1 0x1 PUSH1 0xA0 SHL SUB AND DUP2 JUMP JUMPDEST CALLVALUE DUP1 ISZERO PUSH2 0x547 JUMPI PUSH1 0x0 DUP1 REVERT JUMPDEST POP PUSH2 0x3C6 PUSH2 0x556 CALLDATASIZE PUSH1 0x4 PUSH2 0x293D JUMP JUMPDEST PUSH1 0x1 PUSH1 0x1 PUSH1 0xA0 SHL SUB AND PUSH1 0x0 SWAP1 DUP2 MSTORE PUSH1 0x0 DUP1 MLOAD PUSH1 0x20 PUSH2 0x2CDB DUP4 CODECOPY DUP2 MLOAD SWAP2 MSTORE PUSH1 0x20 MSTORE PUSH1 0x40 SWAP1 KECCAK256 SLOAD SWAP1 JUMP JUMPDEST CALLVALUE DUP1 ISZERO PUSH2 0x58A JUMPI PUSH1 0x0 DUP1 REVERT JUMPDEST POP PUSH2 0x2E2 PUSH2 0xD86 JUMP JUMPDEST CALLVALUE DUP1 ISZERO PUSH2 0x59F JUMPI PUSH1 0x0 DUP1 REVERT JUMPDEST POP PUSH2 0x3C6 PUSH2 0x5AE CALLDATASIZE PUSH1 0x4 PUSH2 0x293D JUMP JUMPDEST PUSH1 0x10 PUSH1 0x20 MSTORE PUSH1 0x0 SWAP1 DUP2 MSTORE PUSH1 0x40 SWAP1 KECCAK256 SLOAD DUP2 JUMP JUMPDEST CALLVALUE DUP1 ISZERO PUSH2 0x5CC JUMPI PUSH1 0x0 DUP1 REVERT JUMPDEST POP PUSH2 0x3C6 PUSH2 0x5DB CALLDATASIZE PUSH1 0x4 PUSH2 0x293D JUMP JUMPDEST PUSH1 0x1 PUSH1 0x1 PUSH1 0xA0 SHL SUB AND PUSH1 0x0 SWAP1 DUP2 MSTORE PUSH1 0x11 PUSH1 0x20 MSTORE PUSH1 0x40 SWAP1 KECCAK256 SLOAD SWAP1 JUMP JUMPDEST CALLVALUE DUP1 ISZERO PUSH2 0x602 JUMPI PUSH1 0x0 DUP1 REVERT JUMPDEST POP PUSH2 0x3C6 PUSH1 0x3 SLOAD DUP2 JUMP JUMPDEST CALLVALUE DUP1 ISZERO PUSH2 0x618 JUMPI PUSH1 0x0 DUP1 REVERT JUMPDEST POP PUSH1 0x14 SLOAD PUSH2 0x396 SWAP1 PUSH1 0x1 PUSH1 0xA0 SHL SWAP1 DIV PUSH1 0xFF AND DUP2 JUMP JUMPDEST CALLVALUE DUP1 ISZERO PUSH2 0x639 JUMPI PUSH1 0x0 DUP1 REVERT JUMPDEST POP PUSH2 0x3C6 PUSH1 0x2 SLOAD DUP2 JUMP JUMPDEST CALLVALUE DUP1 ISZERO PUSH2 0x64F JUMPI PUSH1 0x0 DUP1 REVERT JUMPDEST POP PUSH32 0x9016D09D72D40FDAE2FD8CEAC6B6234C7706214FD39C1CD1E609A0528C199300 SLOAD PUSH1 0x1 PUSH1 0x1 PUSH1 0xA0 SHL SUB AND PUSH2 0x49B JUMP JUMPDEST CALLVALUE DUP1 ISZERO PUSH2 0x68C JUMPI PUSH1 0x0 DUP1 REVERT JUMPDEST POP PUSH1 0x8 SLOAD PUSH2 0x49B SWAP1 PUSH1 0x1 PUSH1 0x1 PUSH1 0xA0 SHL SUB AND DUP2 JUMP JUMPDEST CALLVALUE DUP1 ISZERO PUSH2 0x6AC JUMPI PUSH1 0x0 DUP1 REVERT JUMPDEST POP PUSH2 0x2FE PUSH2 0xD9A JUMP JUMPDEST CALLVALUE DUP1 ISZERO PUSH2 0x6C1 JUMPI PUSH1 0x0 DUP1 REVERT JUMPDEST POP PUSH2 0x2E2 PUSH2 0x6D0 CALLDATASIZE PUSH1 0x4 PUSH2 0x293D JUMP JUMPDEST PUSH2 0xDD9 JUMP JUMPDEST CALLVALUE DUP1 ISZERO PUSH2 0x6E1 JUMPI PUSH1 0x0 DUP1 REVERT JUMPDEST POP PUSH2 0x396 PUSH2 0x6F0 CALLDATASIZE PUSH1 0x4 PUSH2 0x27C1 JUMP JUMPDEST PUSH2 0xE03 JUMP JUMPDEST CALLVALUE DUP1 ISZERO PUSH2 0x701 JUMPI PUSH1 0x0 DUP1 REVERT JUMPDEST POP PUSH2 0x2FE PUSH1 0x40 MLOAD DUP1 PUSH1 0x40 ADD PUSH1 0x40 MSTORE DUP1 PUSH1 0x5 DUP2 MSTORE PUSH1 0x20 ADD PUSH32 0x352E302E30000000000000000000000000000000000000000000000000000000 DUP2 MSTORE POP DUP2 JUMP JUMPDEST CALLVALUE DUP1 ISZERO PUSH2 0x74A JUMPI PUSH1 0x0 DUP1 REVERT JUMPDEST POP PUSH2 0x2E2 PUSH2 0x759 CALLDATASIZE PUSH1 0x4 PUSH2 0x2958 JUMP JUMPDEST PUSH2 0x112F JUMP JUMPDEST CALLVALUE DUP1 ISZERO PUSH2 0x76A JUMPI PUSH1 0x0 DUP1 REVERT JUMPDEST POP PUSH2 0x3C6 PUSH1 0x4 SLOAD DUP2 JUMP JUMPDEST CALLVALUE DUP1 ISZERO PUSH2 0x780 JUMPI PUSH1 0x0 DUP1 REVERT JUMPDEST POP PUSH2 0x2E2 PUSH2 0x78F CALLDATASIZE PUSH1 0x4 PUSH2 0x293D JUMP JUMPDEST PUSH2 0x1155 JUMP JUMPDEST CALLVALUE DUP1 ISZERO PUSH2 0x7A0 JUMPI PUSH1 0x0 DUP1 REVERT JUMPDEST POP PUSH2 0x2E2 PUSH2 0x7AF CALLDATASIZE PUSH1 0x4 PUSH2 0x293D JUMP JUMPDEST PUSH2 0x1272 JUMP JUMPDEST CALLVALUE DUP1 ISZERO PUSH2 0x7C0 JUMPI PUSH1 0x0 DUP1 REVERT JUMPDEST POP PUSH2 0x49B PUSH2 0x7CF CALLDATASIZE PUSH1 0x4 PUSH2 0x2924 JUMP JUMPDEST PUSH2 0x1550 JUMP JUMPDEST CALLVALUE DUP1 ISZERO PUSH2 0x7E0 JUMPI PUSH1 0x0 DUP1 REVERT JUMPDEST POP PUSH2 0x49B PUSH2 0x7EF CALLDATASIZE PUSH1 0x4 PUSH2 0x293D JUMP JUMPDEST PUSH1 0xF PUSH1 0x20 MSTORE PUSH1 0x0 SWAP1 DUP2 MSTORE PUSH1 0x40 SWAP1 KECCAK256 SLOAD PUSH1 0x1 PUSH1 0x1 PUSH1 0xA0 SHL SUB AND DUP2 JUMP JUMPDEST CALLVALUE DUP1 ISZERO PUSH2 0x816 JUMPI PUSH1 0x0 DUP1 REVERT JUMPDEST POP PUSH2 0x3C6 PUSH2 0x825 CALLDATASIZE PUSH1 0x4 PUSH2 0x293D JUMP JUMPDEST PUSH1 0x11 PUSH1 0x20 MSTORE PUSH1 0x0 SWAP1 DUP2 MSTORE PUSH1 0x40 SWAP1 KECCAK256 SLOAD DUP2 JUMP JUMPDEST CALLVALUE DUP1 ISZERO PUSH2 0x843 JUMPI PUSH1 0x0 DUP1 REVERT JUMPDEST POP PUSH2 0x3C6 PUSH1 0xD SLOAD DUP2 JUMP JUMPDEST CALLVALUE DUP1 ISZERO PUSH2 0x859 JUMPI PUSH1 0x0 DUP1 REVERT JUMPDEST POP PUSH2 0x3C6 PUSH2 0x868 CALLDATASIZE PUSH1 0x4 PUSH2 0x2975 JUMP JUMPDEST PUSH1 0x1 PUSH1 0x1 PUSH1 0xA0 SHL SUB SWAP2 DUP3 AND PUSH1 0x0 SWAP1 DUP2 MSTORE PUSH32 0x52C63247E1F47DB19D5CE0460030C497F067CA4CEBF71BA98EEADABE20BACE01 PUSH1 0x20 SWAP1 DUP2 MSTORE PUSH1 0x40 DUP1 DUP4 KECCAK256 SWAP4 SWAP1 SWAP5 AND DUP3 MSTORE SWAP2 SWAP1 SWAP2 MSTORE KECCAK256 SLOAD SWAP1 JUMP JUMPDEST CALLVALUE DUP1 ISZERO PUSH2 0x8BE JUMPI PUSH1 0x0 DUP1 REVERT JUMPDEST POP PUSH2 0x49B PUSH2 0x8CD CALLDATASIZE PUSH1 0x4 PUSH2 0x2924 JUMP JUMPDEST PUSH2 0x157A JUMP JUMPDEST CALLVALUE DUP1 ISZERO PUSH2 0x8DE JUMPI PUSH1 0x0 DUP1 REVERT JUMPDEST POP PUSH2 0x3C6 PUSH1 0x13 SLOAD DUP2 JUMP JUMPDEST CALLVALUE DUP1 ISZERO PUSH2 0x8F4 JUMPI PUSH1 0x0 DUP1 REVERT JUMPDEST POP PUSH2 0x2E2 PUSH2 0x903 CALLDATASIZE PUSH1 0x4 PUSH2 0x293D JUMP JUMPDEST PUSH2 0x158A JUMP JUMPDEST CALLVALUE DUP1 ISZERO PUSH2 0x914 JUMPI PUSH1 0x0 DUP1 REVERT JUMPDEST POP PUSH2 0x2E2 PUSH2 0x923 CALLDATASIZE PUSH1 0x4 PUSH2 0x2924 JUMP JUMPDEST PUSH2 0x15E1 JUMP JUMPDEST CALLER PUSH1 0x0 SWAP1 DUP2 MSTORE PUSH1 0x15 PUSH1 0x20 MSTORE PUSH1 0x40 SWAP1 KECCAK256 SLOAD NUMBER PUSH4 0xFFFFFFFF SWAP1 SWAP2 AND SUB PUSH2 0x9B9 JUMPI PUSH1 0x40 MLOAD PUSH3 0x461BCD PUSH1 0xE5 SHL DUP2 MSTORE PUSH1 0x20 PUSH1 0x4 DUP3 ADD MSTORE PUSH1 0x31 PUSH1 0x24 DUP3 ADD MSTORE PUSH32 0x596F752063616E2774206D616B652074776F207472616E73616374696F6E7320 PUSH1 0x44 DUP3 ADD MSTORE PUSH32 0x696E207468652073616D6520626C6F636B000000000000000000000000000000 PUSH1 0x64 DUP3 ADD MSTORE PUSH1 0x84 ADD JUMPDEST PUSH1 0x40 MLOAD DUP1 SWAP2 SUB SWAP1 REVERT JUMPDEST CALLER PUSH1 0x0 SWAP1 DUP2 MSTORE PUSH1 0x15 PUSH1 0x20 MSTORE PUSH1 0x40 DUP2 KECCAK256 DUP1 SLOAD PUSH4 0xFFFFFFFF NOT AND NUMBER PUSH4 0xFFFFFFFF AND OR SWAP1 SSTORE PUSH1 0x1 SLOAD CALLVALUE SWAP2 SWAP1 PUSH2 0x9EC SWAP1 DUP4 SWAP1 PUSH2 0x29BE JUMP JUMPDEST ADDRESS PUSH1 0x0 SWAP1 DUP2 MSTORE PUSH1 0x0 DUP1 MLOAD PUSH1 0x20 PUSH2 0x2CDB DUP4 CODECOPY DUP2 MLOAD SWAP2 MSTORE PUSH1 0x20 MSTORE PUSH1 0x40 SWAP1 KECCAK256 SLOAD PUSH2 0xA13 SWAP1 DUP5 PUSH2 0x29D1 JUMP JUMPDEST PUSH2 0xA1D SWAP2 SWAP1 PUSH2 0x29E8 JUMP JUMPDEST PUSH1 0x7 SLOAD SWAP1 SWAP2 POP PUSH1 0x1 PUSH1 0xA0 SHL SWAP1 DIV PUSH1 0xFF AND ISZERO PUSH2 0xAAA JUMPI PUSH1 0x2 SLOAD CALLER PUSH1 0x0 SWAP1 DUP2 MSTORE PUSH1 0x0 DUP1 MLOAD PUSH1 0x20 PUSH2 0x2CDB DUP4 CODECOPY DUP2 MLOAD SWAP2 MSTORE PUSH1 0x20 MSTORE PUSH1 0x40 SWAP1 KECCAK256 SLOAD PUSH2 0xA5C SWAP1 DUP4 PUSH2 0x29BE JUMP JUMPDEST GT ISZERO PUSH2 0xAAA JUMPI PUSH1 0x40 MLOAD PUSH3 0x461BCD PUSH1 0xE5 SHL DUP2 MSTORE PUSH1 0x20 PUSH1 0x4 DUP3 ADD MSTORE PUSH1 0x13 PUSH1 0x24 DUP3 ADD MSTORE PUSH32 0x4D61782077616C6C657420657863656564656400000000000000000000000000 PUSH1 0x44 DUP3 ADD MSTORE PUSH1 0x64 ADD PUSH2 0x9B0 JUMP JUMPDEST PUSH2 0xACB ADDRESS CALLER PUSH1 0x64 PUSH2 0xABC DUP6 PUSH1 0x5F PUSH2 0x29D1 JUMP JUMPDEST PUSH2 0xAC6 SWAP2 SWAP1 PUSH2 0x29E8 JUMP JUMPDEST PUSH2 0x1691 JUMP JUMPDEST PUSH2 0x3E8 PUSH2 0xADA DUP4 PUSH2 0x3D9 PUSH2 0x29D1 JUMP JUMPDEST PUSH2 0xAE4 SWAP2 SWAP1 PUSH2 0x29E8 JUMP JUMPDEST PUSH1 0x1 PUSH1 0x0 DUP3 DUP3 SLOAD PUSH2 0xAF5 SWAP2 SWAP1 PUSH2 0x29BE JUMP JUMPDEST SWAP1 SWAP2 SSTORE POP PUSH2 0xB04 SWAP1 POP CALLVALUE PUSH2 0x17E8 JUMP JUMPDEST PUSH2 0xB0D DUP2 PUSH2 0x1837 JUMP JUMPDEST PUSH2 0xB17 CALLER DUP3 PUSH2 0x196B JUMP JUMPDEST PUSH2 0xB20 DUP2 PUSH2 0x19B1 JUMP JUMPDEST PUSH2 0xB29 CALLER PUSH2 0x19E5 JUMP JUMPDEST PUSH2 0xB32 DUP2 PUSH2 0x1A63 JUMP JUMPDEST PUSH1 0x40 DUP1 MLOAD CALLVALUE DUP2 MSTORE PUSH1 0x0 PUSH1 0x20 DUP3 ADD DUP2 SWAP1 MSTORE SWAP2 DUP2 ADD SWAP2 SWAP1 SWAP2 MSTORE PUSH1 0x60 DUP2 ADD DUP3 SWAP1 MSTORE CALLER SWAP1 PUSH32 0x49926BBEBE8474393F434DFA4F78694C0923EFA07D19F2284518BFABD06EB737 SWAP1 PUSH1 0x80 ADD JUMPDEST PUSH1 0x40 MLOAD DUP1 SWAP2 SUB SWAP1 LOG2 POP POP JUMP JUMPDEST PUSH32 0x52C63247E1F47DB19D5CE0460030C497F067CA4CEBF71BA98EEADABE20BACE03 DUP1 SLOAD PUSH1 0x60 SWAP2 PUSH1 0x0 DUP1 MLOAD PUSH1 0x20 PUSH2 0x2CDB DUP4 CODECOPY DUP2 MLOAD SWAP2 MSTORE SWAP2 PUSH2 0xBC3 SWAP1 PUSH2 0x2A0A JUMP JUMPDEST DUP1 PUSH1 0x1F ADD PUSH1 0x20 DUP1 SWAP2 DIV MUL PUSH1 0x20 ADD PUSH1 0x40 MLOAD SWAP1 DUP2 ADD PUSH1 0x40 MSTORE DUP1 SWAP3 SWAP2 SWAP1 DUP2 DUP2 MSTORE PUSH1 0x20 ADD DUP3 DUP1 SLOAD PUSH2 0xBEF SWAP1 PUSH2 0x2A0A JUMP JUMPDEST DUP1 ISZERO PUSH2 0xC3C JUMPI DUP1 PUSH1 0x1F LT PUSH2 0xC11 JUMPI PUSH2 0x100 DUP1 DUP4 SLOAD DIV MUL DUP4 MSTORE SWAP2 PUSH1 0x20 ADD SWAP2 PUSH2 0xC3C JUMP JUMPDEST DUP3 ADD SWAP2 SWAP1 PUSH1 0x0 MSTORE PUSH1 0x20 PUSH1 0x0 KECCAK256 SWAP1 JUMPDEST DUP2 SLOAD DUP2 MSTORE SWAP1 PUSH1 0x1 ADD SWAP1 PUSH1 0x20 ADD DUP1 DUP4 GT PUSH2 0xC1F JUMPI DUP3 SWAP1 SUB PUSH1 0x1F AND DUP3 ADD SWAP2 JUMPDEST POP POP POP POP POP SWAP2 POP POP SWAP1 JUMP JUMPDEST PUSH2 0xC4F PUSH2 0x1AE5 JUMP JUMPDEST PUSH1 0x1 PUSH1 0x1 PUSH1 0xA0 SHL SUB SWAP2 SWAP1 SWAP2 AND PUSH1 0x0 SWAP1 DUP2 MSTORE PUSH1 0x12 PUSH1 0x20 MSTORE PUSH1 0x40 SWAP1 KECCAK256 DUP1 SLOAD PUSH1 0xFF NOT AND SWAP2 ISZERO ISZERO SWAP2 SWAP1 SWAP2 OR SWAP1 SSTORE JUMP JUMPDEST PUSH1 0x0 CALLER PUSH2 0xC88 DUP2 DUP6 DUP6 PUSH2 0x1B59 JUMP JUMPDEST PUSH1 0x1 SWAP2 POP POP JUMPDEST SWAP3 SWAP2 POP POP JUMP JUMPDEST PUSH1 0x0 DUP1 PUSH1 0x0 PUSH2 0xCC0 PUSH1 0x1 SLOAD ADDRESS PUSH1 0x0 SWAP1 DUP2 MSTORE PUSH1 0x0 DUP1 MLOAD PUSH1 0x20 PUSH2 0x2CDB DUP4 CODECOPY DUP2 MLOAD SWAP2 MSTORE PUSH1 0x20 MSTORE PUSH1 0x40 SWAP1 KECCAK256 SLOAD SWAP1 SWAP2 JUMP JUMPDEST SWAP2 POP SWAP2 POP DUP4 ISZERO PUSH2 0xCF1 JUMPI PUSH2 0xCD4 DUP6 DUP4 PUSH2 0x29BE JUMP JUMPDEST PUSH2 0xCDE DUP3 DUP8 PUSH2 0x29D1 JUMP JUMPDEST PUSH2 0xCE8 SWAP2 SWAP1 PUSH2 0x29E8 JUMP JUMPDEST SWAP3 POP POP POP PUSH2 0xC8E JUMP JUMPDEST PUSH2 0xCFB DUP6 DUP3 PUSH2 0x29BE JUMP JUMPDEST PUSH2 0xCDE DUP4 DUP8 PUSH2 0x29D1 JUMP JUMPDEST PUSH1 0x0 CALLER PUSH2 0xD13 DUP6 DUP3 DUP6 PUSH2 0x1B66 JUMP JUMPDEST PUSH2 0xD1E DUP6 DUP6 DUP6 PUSH2 0x1C16 JUMP JUMPDEST PUSH1 0x1 SWAP2 POP POP JUMPDEST SWAP4 SWAP3 POP POP POP JUMP JUMPDEST PUSH2 0xD33 PUSH2 0x1C8E JUMP JUMPDEST PUSH2 0xD3C DUP3 PUSH2 0x1D45 JUMP JUMPDEST PUSH2 0xD46 DUP3 DUP3 PUSH2 0x1D4D JUMP JUMPDEST POP POP JUMP JUMPDEST PUSH1 0x0 PUSH2 0xD54 PUSH2 0x1E35 JUMP JUMPDEST POP PUSH32 0x360894A13BA1A3210667C828492DB98DCA3E2076CC3735A920A3CA505D382BBC SWAP1 JUMP JUMPDEST PUSH2 0xD81 PUSH2 0x1AE5 JUMP JUMPDEST PUSH1 0x2 SSTORE JUMP JUMPDEST PUSH2 0xD8E PUSH2 0x1AE5 JUMP JUMPDEST PUSH2 0xD98 PUSH1 0x0 PUSH2 0x1E7E JUMP JUMPDEST JUMP JUMPDEST PUSH32 0x52C63247E1F47DB19D5CE0460030C497F067CA4CEBF71BA98EEADABE20BACE04 DUP1 SLOAD PUSH1 0x60 SWAP2 PUSH1 0x0 DUP1 MLOAD PUSH1 0x20 PUSH2 0x2CDB DUP4 CODECOPY DUP2 MLOAD SWAP2 MSTORE SWAP2 PUSH2 0xBC3 SWAP1 PUSH2 0x2A0A JUMP JUMPDEST PUSH2 0xDE1 PUSH2 0x1AE5 JUMP JUMPDEST PUSH1 0x14 DUP1 SLOAD PUSH1 0x1 PUSH1 0x1 PUSH1 0xA0 SHL SUB NOT AND PUSH1 0x1 PUSH1 0x1 PUSH1 0xA0 SHL SUB SWAP3 SWAP1 SWAP3 AND SWAP2 SWAP1 SWAP2 OR SWAP1 SSTORE JUMP JUMPDEST PUSH1 0x0 ADDRESS PUSH1 0x1 PUSH1 0x1 PUSH1 0xA0 SHL SUB DUP5 AND SUB PUSH2 0xE23 JUMPI PUSH2 0xE1E DUP3 PUSH2 0x1EEF JUMP JUMPDEST PUSH2 0x1126 JUMP JUMPDEST PUSH1 0x14 SLOAD PUSH1 0x1 PUSH1 0x1 PUSH1 0xA0 SHL SUB SWAP1 DUP2 AND SWAP1 DUP5 AND SUB PUSH2 0x105F JUMPI PUSH2 0xE45 PUSH1 0x12 PUSH1 0xA PUSH2 0x2B19 JUMP JUMPDEST PUSH2 0xE51 SWAP1 PUSH2 0x7530 PUSH2 0x29D1 JUMP JUMPDEST DUP3 EQ DUP1 PUSH2 0xE75 JUMPI POP PUSH2 0xE65 PUSH1 0x12 PUSH1 0xA PUSH2 0x2B19 JUMP JUMPDEST PUSH2 0xE72 SWAP1 PUSH3 0x186A0 PUSH2 0x29D1 JUMP JUMPDEST DUP3 EQ JUMPDEST DUP1 PUSH2 0xE97 JUMPI POP PUSH2 0xE87 PUSH1 0x12 PUSH1 0xA PUSH2 0x2B19 JUMP JUMPDEST PUSH2 0xE94 SWAP1 PUSH3 0x493E0 PUSH2 0x29D1 JUMP JUMPDEST DUP3 EQ JUMPDEST DUP1 PUSH2 0xEB9 JUMPI POP PUSH2 0xEA9 PUSH1 0x12 PUSH1 0xA PUSH2 0x2B19 JUMP JUMPDEST PUSH2 0xEB6 SWAP1 PUSH3 0x7A120 PUSH2 0x29D1 JUMP JUMPDEST DUP3 EQ JUMPDEST PUSH2 0xF05 JUMPI PUSH1 0x40 MLOAD PUSH3 0x461BCD PUSH1 0xE5 SHL DUP2 MSTORE PUSH1 0x20 PUSH1 0x4 DUP3 ADD MSTORE PUSH1 0xE PUSH1 0x24 DUP3 ADD MSTORE PUSH32 0x33772F3130772F3330772F353077000000000000000000000000000000000000 PUSH1 0x44 DUP3 ADD MSTORE PUSH1 0x64 ADD PUSH2 0x9B0 JUMP JUMPDEST CALLER PUSH1 0x0 SWAP1 DUP2 MSTORE PUSH1 0x11 PUSH1 0x20 MSTORE PUSH1 0x40 SWAP1 KECCAK256 SLOAD PUSH2 0xF61 JUMPI PUSH1 0x40 MLOAD PUSH3 0x461BCD PUSH1 0xE5 SHL DUP2 MSTORE PUSH1 0x20 PUSH1 0x4 DUP3 ADD MSTORE PUSH1 0xF PUSH1 0x24 DUP3 ADD MSTORE PUSH32 0x416C726561647920706C65646765640000000000000000000000000000000000 PUSH1 0x44 DUP3 ADD MSTORE PUSH1 0x64 ADD PUSH2 0x9B0 JUMP JUMPDEST PUSH2 0xF6C CALLER DUP5 DUP5 PUSH2 0x1C16 JUMP JUMPDEST CALLER PUSH1 0x0 DUP2 DUP2 MSTORE PUSH1 0x11 PUSH1 0x20 MSTORE PUSH1 0x40 SWAP1 KECCAK256 DUP4 SWAP1 SSTORE PUSH1 0x14 SLOAD PUSH1 0x1 PUSH1 0x1 PUSH1 0xA0 SHL SUB AND SWAP1 PUSH4 0xA9059CBB SWAP1 PUSH2 0xF9D PUSH2 0x1388 DUP7 PUSH2 0x29E8 JUMP JUMPDEST PUSH1 0x40 MLOAD PUSH32 0xFFFFFFFF00000000000000000000000000000000000000000000000000000000 PUSH1 0xE0 DUP6 SWAP1 SHL AND DUP2 MSTORE PUSH1 0x1 PUSH1 0x1 PUSH1 0xA0 SHL SUB SWAP1 SWAP3 AND PUSH1 0x4 DUP4 ADD MSTORE PUSH1 0x24 DUP3 ADD MSTORE PUSH1 0x44 ADD PUSH1 0x20 PUSH1 0x40 MLOAD DUP1 DUP4 SUB DUP2 PUSH1 0x0 DUP8 GAS CALL ISZERO DUP1 ISZERO PUSH2 0x1000 JUMPI RETURNDATASIZE PUSH1 0x0 DUP1 RETURNDATACOPY RETURNDATASIZE PUSH1 0x0 REVERT JUMPDEST POP POP POP POP PUSH1 0x40 MLOAD RETURNDATASIZE PUSH1 0x1F NOT PUSH1 0x1F DUP3 ADD AND DUP3 ADD DUP1 PUSH1 0x40 MSTORE POP DUP2 ADD SWAP1 PUSH2 0x1024 SWAP2 SWAP1 PUSH2 0x2B28 JUMP JUMPDEST POP PUSH1 0x40 MLOAD DUP3 DUP2 MSTORE CALLER SWAP1 PUSH32 0x5E91EA8EA1C46300EB761859BE01D7B16D44389EF91E03A163A87413CBF55B95 SWAP1 PUSH1 0x20 ADD PUSH1 0x40 MLOAD DUP1 SWAP2 SUB SWAP1 LOG2 PUSH2 0x1126 JUMP JUMPDEST PUSH1 0x0 PUSH2 0x106D PUSH1 0x6 PUSH1 0x12 PUSH2 0x2B45 JUMP JUMPDEST PUSH2 0x1078 SWAP1 PUSH1 0xA PUSH2 0x2B19 JUMP JUMPDEST PUSH2 0x1083 SWAP1 PUSH1 0x1 PUSH2 0x29D1 JUMP JUMPDEST CALLER PUSH1 0x0 SWAP1 DUP2 MSTORE PUSH1 0x0 DUP1 MLOAD PUSH1 0x20 PUSH2 0x2CDB DUP4 CODECOPY DUP2 MLOAD SWAP2 MSTORE PUSH1 0x20 MSTORE PUSH1 0x40 SWAP1 KECCAK256 SLOAD SWAP1 SWAP2 POP DUP4 SUB PUSH2 0x1106 JUMPI CALLER PUSH1 0x0 SWAP1 DUP2 MSTORE PUSH1 0x0 DUP1 MLOAD PUSH1 0x20 PUSH2 0x2CDB DUP4 CODECOPY DUP2 MLOAD SWAP2 MSTORE PUSH1 0x20 MSTORE PUSH1 0x40 SWAP1 KECCAK256 SLOAD DUP2 LT ISZERO PUSH2 0x10FC JUMPI CALLER PUSH1 0x0 SWAP1 DUP2 MSTORE PUSH1 0x0 DUP1 MLOAD PUSH1 0x20 PUSH2 0x2CDB DUP4 CODECOPY DUP2 MLOAD SWAP2 MSTORE PUSH1 0x20 MSTORE PUSH1 0x40 SWAP1 KECCAK256 SLOAD PUSH2 0x10F5 SWAP1 DUP3 SWAP1 PUSH2 0x2B5E JUMP JUMPDEST SWAP3 POP PUSH2 0x1106 JUMP JUMPDEST PUSH1 0x1 SWAP2 POP POP PUSH2 0xC8E JUMP JUMPDEST PUSH2 0x1111 CALLER DUP6 DUP6 PUSH2 0x1691 JUMP JUMPDEST PUSH2 0x111A DUP5 PUSH2 0x19E5 JUMP JUMPDEST PUSH2 0x1124 CALLER DUP6 PUSH2 0x21C9 JUMP JUMPDEST POP JUMPDEST POP PUSH1 0x1 SWAP3 SWAP2 POP POP JUMP JUMPDEST PUSH2 0x1137 PUSH2 0x1AE5 JUMP JUMPDEST PUSH1 0x7 DUP1 SLOAD SWAP2 ISZERO ISZERO PUSH1 0x1 PUSH1 0xA0 SHL MUL PUSH1 0xFF PUSH1 0xA0 SHL NOT SWAP1 SWAP3 AND SWAP2 SWAP1 SWAP2 OR SWAP1 SSTORE JUMP JUMPDEST CALLER PUSH1 0x0 SWAP1 DUP2 MSTORE PUSH1 0x12 PUSH1 0x20 MSTORE PUSH1 0x40 SWAP1 KECCAK256 SLOAD PUSH1 0xFF AND PUSH2 0x11B4 JUMPI PUSH1 0x40 MLOAD PUSH3 0x461BCD PUSH1 0xE5 SHL DUP2 MSTORE PUSH1 0x20 PUSH1 0x4 DUP3 ADD MSTORE PUSH1 0x1F PUSH1 0x24 DUP3 ADD MSTORE PUSH32 0x63616C6C6572206973206E6F7420746865207768697465206164647265737300 PUSH1 0x44 DUP3 ADD MSTORE PUSH1 0x64 ADD PUSH2 0x9B0 JUMP JUMPDEST PUSH1 0x1 PUSH1 0x1 PUSH1 0xA0 SHL SUB DUP2 AND PUSH1 0x0 SWAP1 DUP2 MSTORE PUSH1 0x11 PUSH1 0x20 MSTORE PUSH1 0x40 SWAP1 KECCAK256 SLOAD DUP1 PUSH2 0x121A JUMPI PUSH1 0x40 MLOAD PUSH3 0x461BCD PUSH1 0xE5 SHL DUP2 MSTORE PUSH1 0x20 PUSH1 0x4 DUP3 ADD MSTORE PUSH1 0x9 PUSH1 0x24 DUP3 ADD MSTORE PUSH32 0x6E6F20706C656467650000000000000000000000000000000000000000000000 PUSH1 0x44 DUP3 ADD MSTORE PUSH1 0x64 ADD PUSH2 0x9B0 JUMP JUMPDEST PUSH2 0x1225 CALLER DUP4 DUP4 PUSH2 0x1C16 JUMP JUMPDEST PUSH1 0x1 PUSH1 0x1 PUSH1 0xA0 SHL SUB DUP3 AND PUSH1 0x0 DUP2 DUP2 MSTORE PUSH1 0x11 PUSH1 0x20 MSTORE PUSH1 0x40 DUP1 DUP3 KECCAK256 SWAP2 SWAP1 SWAP2 SSTORE MLOAD PUSH32 0x7C1499DA310DB315606891CFF45C8999E67BC58B9FA507440DD5C02506D64DE0 SWAP1 PUSH2 0xB78 SWAP1 DUP5 DUP2 MSTORE PUSH1 0x20 ADD SWAP1 JUMP JUMPDEST PUSH32 0xF0C57E16840DF040F15088DC2F81FE391C3923BEC73E23A9662EFC9C229C6A00 DUP1 SLOAD PUSH9 0x10000000000000000 DUP2 DIV PUSH1 0xFF AND ISZERO SWAP1 PUSH8 0xFFFFFFFFFFFFFFFF AND PUSH1 0x0 DUP2 ISZERO DUP1 ISZERO PUSH2 0x12BD JUMPI POP DUP3 JUMPDEST SWAP1 POP PUSH1 0x0 DUP3 PUSH8 0xFFFFFFFFFFFFFFFF AND PUSH1 0x1 EQ DUP1 ISZERO PUSH2 0x12DA JUMPI POP ADDRESS EXTCODESIZE ISZERO JUMPDEST SWAP1 POP DUP2 ISZERO DUP1 ISZERO PUSH2 0x12E8 JUMPI POP DUP1 ISZERO JUMPDEST ISZERO PUSH2 0x131F JUMPI PUSH1 0x40 MLOAD PUSH32 0xF92EE8A900000000000000000000000000000000000000000000000000000000 DUP2 MSTORE PUSH1 0x4 ADD PUSH1 0x40 MLOAD DUP1 SWAP2 SUB SWAP1 REVERT JUMPDEST DUP5 SLOAD PUSH8 0xFFFFFFFFFFFFFFFF NOT AND PUSH1 0x1 OR DUP6 SSTORE DUP4 ISZERO PUSH2 0x1353 JUMPI DUP5 SLOAD PUSH9 0xFF0000000000000000 NOT AND PUSH9 0x10000000000000000 OR DUP6 SSTORE JUMPDEST PUSH2 0x13C7 PUSH1 0x40 MLOAD DUP1 PUSH1 0x40 ADD PUSH1 0x40 MSTORE DUP1 PUSH1 0x7 DUP2 MSTORE PUSH1 0x20 ADD PUSH32 0x4D79546F6B656E00000000000000000000000000000000000000000000000000 DUP2 MSTORE POP PUSH1 0x40 MLOAD DUP1 PUSH1 0x40 ADD PUSH1 0x40 MSTORE DUP1 PUSH1 0x3 DUP2 MSTORE PUSH1 0x20 ADD PUSH32 0x4D544B0000000000000000000000000000000000000000000000000000000000 DUP2 MSTORE POP PUSH2 0x229C JUMP JUMPDEST PUSH2 0x13D3 PUSH1 0x12 PUSH1 0xA PUSH2 0x2B19 JUMP JUMPDEST PUSH2 0x13E1 SWAP1 PUSH4 0x3B023380 PUSH2 0x29D1 JUMP JUMPDEST PUSH1 0x0 SSTORE PUSH9 0x1043561A8829300000 PUSH1 0x1 SSTORE PUSH2 0x13FD PUSH1 0x12 PUSH1 0xA PUSH2 0x2B19 JUMP JUMPDEST PUSH2 0x140A SWAP1 PUSH3 0x989680 PUSH2 0x29D1 JUMP JUMPDEST PUSH1 0x4 SSTORE PUSH6 0x2D79883D2000 PUSH1 0x2 DUP2 SWAP1 SSTORE PUSH1 0xE SSTORE PUSH6 0x48C27395000 PUSH1 0x3 SSTORE PUSH1 0x9 DUP1 SLOAD PUSH1 0x1 PUSH1 0x1 PUSH1 0xA0 SHL SUB NOT SWAP1 DUP2 AND PUSH20 0x98A8790028C6476B740BE640627A62496E5D616B OR SWAP1 SWAP2 SSTORE PUSH1 0x7 DUP1 SLOAD PUSH1 0xFF PUSH1 0xA0 SHL NOT AND PUSH1 0x1 PUSH1 0xA0 SHL OR SWAP1 SSTORE PUSH1 0x8 DUP1 SLOAD DUP3 AND PUSH20 0x7A6CA6A66B7CA223ECD10EF837895F7A32E902D4 OR SWAP1 SSTORE PUSH1 0xA DUP1 SLOAD SWAP1 SWAP2 AND PUSH20 0xBEDDDAE2062F0B573EC72562F88DA141A67B70B2 OR SWAP1 SSTORE PUSH2 0x14A8 DUP7 PUSH2 0x22AE JUMP JUMPDEST PUSH2 0x14B0 PUSH2 0x22BF JUMP JUMPDEST PUSH2 0x14D3 ADDRESS PUSH2 0x14C0 PUSH1 0x12 PUSH1 0xA PUSH2 0x2B19 JUMP JUMPDEST PUSH2 0x14CE SWAP1 PUSH4 0x68E7780 PUSH2 0x29D1 JUMP JUMPDEST PUSH2 0x22C7 JUMP JUMPDEST PUSH1 0x9 SLOAD PUSH2 0x14FD SWAP1 PUSH1 0x1 PUSH1 0x1 PUSH1 0xA0 SHL SUB AND PUSH2 0x14EF PUSH1 0x12 PUSH1 0xA PUSH2 0x2B19 JUMP JUMPDEST PUSH2 0x14CE SWAP1 PUSH4 0x3473BC00 PUSH2 0x29D1 JUMP JUMPDEST DUP4 ISZERO PUSH2 0x1548 JUMPI DUP5 SLOAD PUSH9 0xFF0000000000000000 NOT AND DUP6 SSTORE PUSH1 0x40 MLOAD PUSH1 0x1 DUP2 MSTORE PUSH32 0xC7F505B2F371AE2175EE4913F4499E1F2633A7B5936321EED1CDAEB6115181D2 SWAP1 PUSH1 0x20 ADD PUSH1 0x40 MLOAD DUP1 SWAP2 SUB SWAP1 LOG1 JUMPDEST POP POP POP POP POP POP JUMP JUMPDEST PUSH1 0xC DUP2 DUP2 SLOAD DUP2 LT PUSH2 0x1560 JUMPI PUSH1 0x0 DUP1 REVERT JUMPDEST PUSH1 0x0 SWAP2 DUP3 MSTORE PUSH1 0x20 SWAP1 SWAP2 KECCAK256 ADD SLOAD PUSH1 0x1 PUSH1 0x1 PUSH1 0xA0 SHL SUB AND SWAP1 POP DUP2 JUMP JUMPDEST PUSH1 0xB DUP2 DUP2 SLOAD DUP2 LT PUSH2 0x1560 JUMPI PUSH1 0x0 DUP1 REVERT JUMPDEST PUSH2 0x1592 PUSH2 0x1AE5 JUMP JUMPDEST PUSH1 0x1 PUSH1 0x1 PUSH1 0xA0 SHL SUB DUP2 AND PUSH2 0x15D5 JUMPI PUSH1 0x40 MLOAD PUSH32 0x1E4FBDF700000000000000000000000000000000000000000000000000000000 DUP2 MSTORE PUSH1 0x0 PUSH1 0x4 DUP3 ADD MSTORE PUSH1 0x24 ADD PUSH2 0x9B0 JUMP JUMPDEST PUSH2 0x15DE DUP2 PUSH2 0x1E7E JUMP JUMPDEST POP JUMP JUMPDEST PUSH1 0xB DUP1 SLOAD PUSH2 0x15F1 SWAP1 PUSH1 0x1 SWAP1 PUSH2 0x2B5E JUMP JUMPDEST DUP2 SLOAD DUP2 LT PUSH2 0x1601 JUMPI PUSH2 0x1601 PUSH2 0x2B71 JUMP JUMPDEST PUSH1 0x0 SWAP2 DUP3 MSTORE PUSH1 0x20 SWAP1 SWAP2 KECCAK256 ADD SLOAD PUSH1 0xB DUP1 SLOAD PUSH1 0x1 PUSH1 0x1 PUSH1 0xA0 SHL SUB SWAP1 SWAP3 AND SWAP2 DUP4 SWAP1 DUP2 LT PUSH2 0x162D JUMPI PUSH2 0x162D PUSH2 0x2B71 JUMP JUMPDEST SWAP1 PUSH1 0x0 MSTORE PUSH1 0x20 PUSH1 0x0 KECCAK256 ADD PUSH1 0x0 PUSH2 0x100 EXP DUP2 SLOAD DUP2 PUSH1 0x1 PUSH1 0x1 PUSH1 0xA0 SHL SUB MUL NOT AND SWAP1 DUP4 PUSH1 0x1 PUSH1 0x1 PUSH1 0xA0 SHL SUB AND MUL OR SWAP1 SSTORE POP PUSH1 0xB DUP1 SLOAD DUP1 PUSH2 0x166C JUMPI PUSH2 0x166C PUSH2 0x2B87 JUMP JUMPDEST PUSH1 0x0 DUP3 DUP2 MSTORE PUSH1 0x20 SWAP1 KECCAK256 DUP2 ADD PUSH1 0x0 NOT SWAP1 DUP2 ADD DUP1 SLOAD PUSH1 0x1 PUSH1 0x1 PUSH1 0xA0 SHL SUB NOT AND SWAP1 SSTORE ADD SWAP1 SSTORE POP JUMP JUMPDEST PUSH1 0x0 DUP1 MLOAD PUSH1 0x20 PUSH2 0x2CDB DUP4 CODECOPY DUP2 MLOAD SWAP2 MSTORE PUSH1 0x1 PUSH1 0x1 PUSH1 0xA0 SHL SUB DUP5 AND PUSH2 0x16CD JUMPI DUP2 DUP2 PUSH1 0x2 ADD PUSH1 0x0 DUP3 DUP3 SLOAD PUSH2 0x16C2 SWAP2 SWAP1 PUSH2 0x29BE JUMP JUMPDEST SWAP1 SWAP2 SSTORE POP PUSH2 0x1758 SWAP1 POP JUMP JUMPDEST PUSH1 0x1 PUSH1 0x1 PUSH1 0xA0 SHL SUB DUP5 AND PUSH1 0x0 SWAP1 DUP2 MSTORE PUSH1 0x20 DUP3 SWAP1 MSTORE PUSH1 0x40 SWAP1 KECCAK256 SLOAD DUP3 DUP2 LT ISZERO PUSH2 0x1739 JUMPI PUSH1 0x40 MLOAD PUSH32 0xE450D38C00000000000000000000000000000000000000000000000000000000 DUP2 MSTORE PUSH1 0x1 PUSH1 0x1 PUSH1 0xA0 SHL SUB DUP7 AND PUSH1 0x4 DUP3 ADD MSTORE PUSH1 0x24 DUP2 ADD DUP3 SWAP1 MSTORE PUSH1 0x44 DUP2 ADD DUP5 SWAP1 MSTORE PUSH1 0x64 ADD PUSH2 0x9B0 JUMP JUMPDEST PUSH1 0x1 PUSH1 0x1 PUSH1 0xA0 SHL SUB DUP6 AND PUSH1 0x0 SWAP1 DUP2 MSTORE PUSH1 0x20 DUP4 SWAP1 MSTORE PUSH1 0x40 SWAP1 KECCAK256 SWAP1 DUP4 SWAP1 SUB SWAP1 SSTORE JUMPDEST PUSH1 0x1 PUSH1 0x1 PUSH1 0xA0 SHL SUB DUP4 AND PUSH2 0x1776 JUMPI PUSH1 0x2 DUP2 ADD DUP1 SLOAD DUP4 SWAP1 SUB SWAP1 SSTORE PUSH2 0x1795 JUMP JUMPDEST PUSH1 0x1 PUSH1 0x1 PUSH1 0xA0 SHL SUB DUP4 AND PUSH1 0x0 SWAP1 DUP2 MSTORE PUSH1 0x20 DUP3 SWAP1 MSTORE PUSH1 0x40 SWAP1 KECCAK256 DUP1 SLOAD DUP4 ADD SWAP1 SSTORE JUMPDEST DUP3 PUSH1 0x1 PUSH1 0x1 PUSH1 0xA0 SHL SUB AND DUP5 PUSH1 0x1 PUSH1 0x1 PUSH1 0xA0 SHL SUB AND PUSH32 0xDDF252AD1BE2C89B69C2B068FC378DAA952BA7F163C4A11628F55A4DF523B3EF DUP5 PUSH1 0x40 MLOAD PUSH2 0x17DA SWAP2 DUP2 MSTORE PUSH1 0x20 ADD SWAP1 JUMP JUMPDEST PUSH1 0x40 MLOAD DUP1 SWAP2 SUB SWAP1 LOG3 POP POP POP POP JUMP JUMPDEST PUSH1 0x8 SLOAD PUSH1 0x1 PUSH1 0x1 PUSH1 0xA0 SHL SUB AND PUSH2 0x8FC PUSH2 0x3E8 PUSH2 0x1805 DUP5 PUSH1 0xF PUSH2 0x29D1 JUMP JUMPDEST PUSH2 0x180F SWAP2 SWAP1 PUSH2 0x29E8 JUMP JUMPDEST PUSH1 0x40 MLOAD DUP2 ISZERO SWAP1 SWAP3 MUL SWAP2 PUSH1 0x0 DUP2 DUP2 DUP2 DUP6 DUP9 DUP9 CALL SWAP4 POP POP POP POP ISZERO DUP1 ISZERO PUSH2 0xD46 JUMPI RETURNDATASIZE PUSH1 0x0 DUP1 RETURNDATACOPY RETURNDATASIZE PUSH1 0x0 REVERT JUMPDEST PUSH1 0x0 PUSH2 0x3E8 PUSH2 0x1847 DUP4 PUSH1 0xF PUSH2 0x29D1 JUMP JUMPDEST PUSH2 0x1851 SWAP2 SWAP1 PUSH2 0x29E8 JUMP JUMPDEST PUSH1 0xB SLOAD SWAP1 SWAP2 POP PUSH1 0x0 SUB PUSH2 0x1876 JUMPI PUSH1 0xA SLOAD PUSH2 0xD46 SWAP1 ADDRESS SWAP1 PUSH1 0x1 PUSH1 0x1 PUSH1 0xA0 SHL SUB AND DUP4 PUSH2 0x1691 JUMP JUMPDEST PUSH1 0xB SLOAD PUSH1 0x0 SWAP1 PUSH2 0x1886 SWAP1 DUP4 PUSH2 0x29E8 JUMP JUMPDEST SWAP1 POP PUSH1 0x0 JUMPDEST PUSH1 0xB SLOAD DUP2 LT ISZERO PUSH2 0x1965 JUMPI PUSH1 0x0 PUSH1 0x1 PUSH1 0x1 PUSH1 0xA0 SHL SUB AND PUSH1 0xB DUP3 DUP2 SLOAD DUP2 LT PUSH2 0x18B3 JUMPI PUSH2 0x18B3 PUSH2 0x2B71 JUMP JUMPDEST PUSH1 0x0 SWAP2 DUP3 MSTORE PUSH1 0x20 SWAP1 SWAP2 KECCAK256 ADD SLOAD PUSH1 0x1 PUSH1 0x1 PUSH1 0xA0 SHL SUB AND EQ PUSH2 0x195D JUMPI PUSH1 0xE SLOAD PUSH2 0x1918 PUSH1 0xB DUP4 DUP2 SLOAD DUP2 LT PUSH2 0x18E6 JUMPI PUSH2 0x18E6 PUSH2 0x2B71 JUMP JUMPDEST PUSH1 0x0 SWAP2 DUP3 MSTORE PUSH1 0x20 DUP1 DUP4 KECCAK256 SWAP1 SWAP2 ADD SLOAD PUSH1 0x1 PUSH1 0x1 PUSH1 0xA0 SHL SUB AND DUP3 MSTORE PUSH1 0x0 DUP1 MLOAD PUSH1 0x20 PUSH2 0x2CDB DUP4 CODECOPY DUP2 MLOAD SWAP2 MSTORE SWAP1 MSTORE PUSH1 0x40 SWAP1 KECCAK256 SLOAD SWAP1 JUMP JUMPDEST LT PUSH2 0x1954 JUMPI PUSH2 0x194F ADDRESS PUSH1 0xB DUP4 DUP2 SLOAD DUP2 LT PUSH2 0x1934 JUMPI PUSH2 0x1934 PUSH2 0x2B71 JUMP JUMPDEST PUSH1 0x0 SWAP2 DUP3 MSTORE PUSH1 0x20 SWAP1 SWAP2 KECCAK256 ADD SLOAD PUSH1 0x1 PUSH1 0x1 PUSH1 0xA0 SHL SUB AND DUP5 PUSH2 0x1691 JUMP JUMPDEST PUSH2 0x195D JUMP JUMPDEST PUSH2 0x195D DUP2 PUSH2 0x15E1 JUMP JUMPDEST PUSH1 0x1 ADD PUSH2 0x188B JUMP JUMPDEST POP POP POP POP JUMP JUMPDEST PUSH1 0x1 PUSH1 0x1 PUSH1 0xA0 SHL SUB DUP1 DUP4 AND PUSH1 0x0 SWAP1 DUP2 MSTORE PUSH1 0xF PUSH1 0x20 MSTORE PUSH1 0x40 SWAP1 KECCAK256 SLOAD AND DUP1 PUSH2 0x1999 JUMPI POP PUSH1 0xA SLOAD PUSH1 0x1 PUSH1 0x1 PUSH1 0xA0 SHL SUB AND JUMPDEST PUSH2 0x19AC ADDRESS DUP3 PUSH2 0x3E8 PUSH2 0xABC DUP7 PUSH1 0xA PUSH2 0x29D1 JUMP JUMPDEST POP POP POP JUMP JUMPDEST PUSH1 0x0 PUSH1 0x64 PUSH2 0x19C0 DUP4 PUSH1 0x5 PUSH2 0x29D1 JUMP JUMPDEST PUSH2 0x19CA SWAP2 SWAP1 PUSH2 0x29E8 JUMP JUMPDEST PUSH1 0x9 SLOAD SWAP1 SWAP2 POP PUSH2 0xD46 SWAP1 ADDRESS SWAP1 PUSH1 0x1 PUSH1 0x1 PUSH1 0xA0 SHL SUB AND DUP4 PUSH2 0x1691 JUMP JUMPDEST PUSH1 0xE SLOAD PUSH1 0x1 PUSH1 0x1 PUSH1 0xA0 SHL SUB DUP3 AND PUSH1 0x0 SWAP1 DUP2 MSTORE PUSH1 0x0 DUP1 MLOAD PUSH1 0x20 PUSH2 0x2CDB DUP4 CODECOPY DUP2 MLOAD SWAP2 MSTORE PUSH1 0x20 MSTORE PUSH1 0x40 SWAP1 KECCAK256 SLOAD LT PUSH2 0x15DE JUMPI PUSH1 0xB DUP1 SLOAD PUSH1 0x1 DUP2 ADD DUP3 SSTORE PUSH1 0x0 SWAP2 SWAP1 SWAP2 MSTORE PUSH32 0x175B7A638427703F0DBE7BB9BBF987A2551717B34E79F33B5B1008D1FA01DB9 ADD DUP1 SLOAD PUSH1 0x1 PUSH1 0x1 PUSH1 0xA0 SHL SUB DUP4 AND PUSH1 0x1 PUSH1 0x1 PUSH1 0xA0 SHL SUB NOT SWAP1 SWAP2 AND OR SWAP1 SSTORE POP JUMP JUMPDEST PUSH1 0x0 PUSH2 0x3E8 PUSH2 0x1A73 DUP4 PUSH1 0xA PUSH2 0x29D1 JUMP JUMPDEST PUSH2 0x1A7D SWAP2 SWAP1 PUSH2 0x29E8 JUMP JUMPDEST SWAP1 POP PUSH1 0x4 SLOAD DUP2 PUSH1 0x0 SLOAD PUSH2 0x1A90 SWAP2 SWAP1 PUSH2 0x2B5E JUMP JUMPDEST LT ISZERO PUSH2 0x1AA9 JUMPI PUSH1 0x4 SLOAD PUSH1 0x0 SLOAD PUSH2 0x1AA6 SWAP2 SWAP1 PUSH2 0x2B5E JUMP JUMPDEST SWAP1 POP JUMPDEST PUSH1 0x0 DUP2 GT DUP1 ISZERO PUSH2 0x1AD4 JUMPI POP ADDRESS PUSH1 0x0 SWAP1 DUP2 MSTORE PUSH1 0x0 DUP1 MLOAD PUSH1 0x20 PUSH2 0x2CDB DUP4 CODECOPY DUP2 MLOAD SWAP2 MSTORE PUSH1 0x20 MSTORE PUSH1 0x40 SWAP1 KECCAK256 SLOAD DUP2 LT JUMPDEST ISZERO PUSH2 0xD46 JUMPI PUSH2 0xD46 ADDRESS PUSH1 0x0 DUP4 PUSH2 0x1691 JUMP JUMPDEST CALLER PUSH2 0x1B17 PUSH32 0x9016D09D72D40FDAE2FD8CEAC6B6234C7706214FD39C1CD1E609A0528C199300 SLOAD PUSH1 0x1 PUSH1 0x1 PUSH1 0xA0 SHL SUB AND SWAP1 JUMP JUMPDEST PUSH1 0x1 PUSH1 0x1 PUSH1 0xA0 SHL SUB AND EQ PUSH2 0xD98 JUMPI PUSH1 0x40 MLOAD PUSH32 0x118CDAA700000000000000000000000000000000000000000000000000000000 DUP2 MSTORE CALLER PUSH1 0x4 DUP3 ADD MSTORE PUSH1 0x24 ADD PUSH2 0x9B0 JUMP JUMPDEST PUSH2 0x19AC DUP4 DUP4 DUP4 PUSH1 0x1 PUSH2 0x22FD JUMP JUMPDEST PUSH1 0x1 PUSH1 0x1 PUSH1 0xA0 SHL SUB DUP4 DUP2 AND PUSH1 0x0 SWAP1 DUP2 MSTORE PUSH32 0x52C63247E1F47DB19D5CE0460030C497F067CA4CEBF71BA98EEADABE20BACE01 PUSH1 0x20 SWAP1 DUP2 MSTORE PUSH1 0x40 DUP1 DUP4 KECCAK256 SWAP4 DUP7 AND DUP4 MSTORE SWAP3 SWAP1 MSTORE KECCAK256 SLOAD PUSH1 0x0 NOT DUP2 EQ PUSH2 0x1965 JUMPI DUP2 DUP2 LT ISZERO PUSH2 0x1C07 JUMPI PUSH1 0x40 MLOAD PUSH32 0xFB8F41B200000000000000000000000000000000000000000000000000000000 DUP2 MSTORE PUSH1 0x1 PUSH1 0x1 PUSH1 0xA0 SHL SUB DUP5 AND PUSH1 0x4 DUP3 ADD MSTORE PUSH1 0x24 DUP2 ADD DUP3 SWAP1 MSTORE PUSH1 0x44 DUP2 ADD DUP4 SWAP1 MSTORE PUSH1 0x64 ADD PUSH2 0x9B0 JUMP JUMPDEST PUSH2 0x1965 DUP5 DUP5 DUP5 DUP5 SUB PUSH1 0x0 PUSH2 0x22FD JUMP JUMPDEST PUSH1 0x1 PUSH1 0x1 PUSH1 0xA0 SHL SUB DUP4 AND PUSH2 0x1C59 JUMPI PUSH1 0x40 MLOAD PUSH32 0x96C6FD1E00000000000000000000000000000000000000000000000000000000 DUP2 MSTORE PUSH1 0x0 PUSH1 0x4 DUP3 ADD MSTORE PUSH1 0x24 ADD PUSH2 0x9B0 JUMP JUMPDEST PUSH1 0x1 PUSH1 0x1 PUSH1 0xA0 SHL SUB DUP3 AND PUSH2 0x1C83 JUMPI PUSH1 0x40 MLOAD PUSH4 0xEC442F05 PUSH1 0xE0 SHL DUP2 MSTORE PUSH1 0x0 PUSH1 0x4 DUP3 ADD MSTORE PUSH1 0x24 ADD PUSH2 0x9B0 JUMP JUMPDEST PUSH2 0x19AC DUP4 DUP4 DUP4 PUSH2 0x1691 JUMP JUMPDEST ADDRESS PUSH1 0x1 PUSH1 0x1 PUSH1 0xA0 SHL SUB PUSH32 0x0 AND EQ DUP1 PUSH2 0x1D27 JUMPI POP PUSH32 0x0 PUSH1 0x1 PUSH1 0x1 PUSH1 0xA0 SHL SUB AND PUSH2 0x1D1B PUSH32 0x360894A13BA1A3210667C828492DB98DCA3E2076CC3735A920A3CA505D382BBC SLOAD PUSH1 0x1 PUSH1 0x1 PUSH1 0xA0 SHL SUB AND SWAP1 JUMP JUMPDEST PUSH1 0x1 PUSH1 0x1 PUSH1 0xA0 SHL SUB AND EQ ISZERO JUMPDEST ISZERO PUSH2 0xD98 JUMPI PUSH1 0x40 MLOAD PUSH4 0x703E46DD PUSH1 0xE1 SHL DUP2 MSTORE PUSH1 0x4 ADD PUSH1 0x40 MLOAD DUP1 SWAP2 SUB SWAP1 REVERT JUMPDEST PUSH2 0x15DE PUSH2 0x1AE5 JUMP JUMPDEST DUP2 PUSH1 0x1 PUSH1 0x1 PUSH1 0xA0 SHL SUB AND PUSH4 0x52D1902D PUSH1 0x40 MLOAD DUP2 PUSH4 0xFFFFFFFF AND PUSH1 0xE0 SHL DUP2 MSTORE PUSH1 0x4 ADD PUSH1 0x20 PUSH1 0x40 MLOAD DUP1 DUP4 SUB DUP2 DUP7 GAS STATICCALL SWAP3 POP POP POP DUP1 ISZERO PUSH2 0x1DA7 JUMPI POP PUSH1 0x40 DUP1 MLOAD PUSH1 0x1F RETURNDATASIZE SWAP1 DUP2 ADD PUSH1 0x1F NOT AND DUP3 ADD SWAP1 SWAP3 MSTORE PUSH2 0x1DA4 SWAP2 DUP2 ADD SWAP1 PUSH2 0x2B9D JUMP JUMPDEST PUSH1 0x1 JUMPDEST PUSH2 0x1DCF JUMPI PUSH1 0x40 MLOAD PUSH4 0x4C9C8CE3 PUSH1 0xE0 SHL DUP2 MSTORE PUSH1 0x1 PUSH1 0x1 PUSH1 0xA0 SHL SUB DUP4 AND PUSH1 0x4 DUP3 ADD MSTORE PUSH1 0x24 ADD PUSH2 0x9B0 JUMP JUMPDEST PUSH32 0x360894A13BA1A3210667C828492DB98DCA3E2076CC3735A920A3CA505D382BBC DUP2 EQ PUSH2 0x1E2B JUMPI PUSH1 0x40 MLOAD PUSH32 0xAA1D49A400000000000000000000000000000000000000000000000000000000 DUP2 MSTORE PUSH1 0x4 DUP2 ADD DUP3 SWAP1 MSTORE PUSH1 0x24 ADD PUSH2 0x9B0 JUMP JUMPDEST PUSH2 0x19AC DUP4 DUP4 PUSH2 0x2417 JUMP JUMPDEST ADDRESS PUSH1 0x1 PUSH1 0x1 PUSH1 0xA0 SHL SUB PUSH32 0x0 AND EQ PUSH2 0xD98 JUMPI PUSH1 0x40 MLOAD PUSH4 0x703E46DD PUSH1 0xE1 SHL DUP2 MSTORE PUSH1 0x4 ADD PUSH1 0x40 MLOAD DUP1 SWAP2 SUB SWAP1 REVERT JUMPDEST PUSH32 0x9016D09D72D40FDAE2FD8CEAC6B6234C7706214FD39C1CD1E609A0528C199300 DUP1 SLOAD PUSH1 0x1 PUSH1 0x1 PUSH1 0xA0 SHL SUB NOT DUP2 AND PUSH1 0x1 PUSH1 0x1 PUSH1 0xA0 SHL SUB DUP5 DUP2 AND SWAP2 DUP3 OR DUP5 SSTORE PUSH1 0x40 MLOAD SWAP3 AND SWAP2 DUP3 SWAP1 PUSH32 0x8BE0079C531659141344CD1FD0A4F28419497F9722A3DAAFE3B4186F6B6457E0 SWAP1 PUSH1 0x0 SWAP1 LOG3 POP POP POP JUMP JUMPDEST CALLER PUSH1 0x0 SWAP1 DUP2 MSTORE PUSH1 0x15 PUSH1 0x20 MSTORE PUSH1 0x40 SWAP1 KECCAK256 SLOAD NUMBER PUSH4 0xFFFFFFFF SWAP1 SWAP2 AND SUB PUSH2 0x1F7B JUMPI PUSH1 0x40 MLOAD PUSH3 0x461BCD PUSH1 0xE5 SHL DUP2 MSTORE PUSH1 0x20 PUSH1 0x4 DUP3 ADD MSTORE PUSH1 0x31 PUSH1 0x24 DUP3 ADD MSTORE PUSH32 0x596F752063616E2774206D616B652074776F207472616E73616374696F6E7320 PUSH1 0x44 DUP3 ADD MSTORE PUSH32 0x696E207468652073616D6520626C6F636B000000000000000000000000000000 PUSH1 0x64 DUP3 ADD MSTORE PUSH1 0x84 ADD PUSH2 0x9B0 JUMP JUMPDEST CALLER PUSH1 0x0 SWAP1 DUP2 MSTORE PUSH1 0x15 PUSH1 0x20 MSTORE PUSH1 0x40 SWAP1 KECCAK256 DUP1 SLOAD PUSH4 0xFFFFFFFF NOT AND NUMBER PUSH4 0xFFFFFFFF AND OR SWAP1 SSTORE PUSH1 0x3 SLOAD DUP2 GT ISZERO PUSH2 0x1FEF JUMPI PUSH1 0x40 MLOAD PUSH3 0x461BCD PUSH1 0xE5 SHL DUP2 MSTORE PUSH1 0x20 PUSH1 0x4 DUP3 ADD MSTORE PUSH1 0xE PUSH1 0x24 DUP3 ADD MSTORE PUSH32 0x4D6178204C696D69742053656C6C000000000000000000000000000000000000 PUSH1 0x44 DUP3 ADD MSTORE PUSH1 0x64 ADD PUSH2 0x9B0 JUMP JUMPDEST ADDRESS PUSH1 0x0 SWAP1 DUP2 MSTORE PUSH1 0x0 DUP1 MLOAD PUSH1 0x20 PUSH2 0x2CDB DUP4 CODECOPY DUP2 MLOAD SWAP2 MSTORE PUSH1 0x20 MSTORE PUSH1 0x40 DUP2 KECCAK256 SLOAD PUSH2 0x2017 SWAP1 DUP4 SWAP1 PUSH2 0x29BE JUMP JUMPDEST PUSH1 0x1 SLOAD PUSH2 0x2024 SWAP1 DUP5 PUSH2 0x29D1 JUMP JUMPDEST PUSH2 0x202E SWAP2 SWAP1 PUSH2 0x29E8 JUMP JUMPDEST SWAP1 POP PUSH1 0x0 DUP2 GT PUSH2 0x2080 JUMPI PUSH1 0x40 MLOAD PUSH3 0x461BCD PUSH1 0xE5 SHL DUP2 MSTORE PUSH1 0x20 PUSH1 0x4 DUP3 ADD MSTORE PUSH1 0x13 PUSH1 0x24 DUP3 ADD MSTORE PUSH32 0x53656C6C20616D6F756E7420746F6F206C6F7700000000000000000000000000 PUSH1 0x44 DUP3 ADD MSTORE PUSH1 0x64 ADD PUSH2 0x9B0 JUMP JUMPDEST DUP1 PUSH1 0x1 SLOAD LT ISZERO PUSH2 0x20D2 JUMPI PUSH1 0x40 MLOAD PUSH3 0x461BCD PUSH1 0xE5 SHL DUP2 MSTORE PUSH1 0x20 PUSH1 0x4 DUP3 ADD MSTORE PUSH1 0x1C PUSH1 0x24 DUP3 ADD MSTORE PUSH32 0x496E73756666696369656E7420424E4220696E20726573657276657300000000 PUSH1 0x44 DUP3 ADD MSTORE PUSH1 0x64 ADD PUSH2 0x9B0 JUMP JUMPDEST PUSH2 0x20DD CALLER ADDRESS DUP5 PUSH2 0x1691 JUMP JUMPDEST PUSH2 0x3E8 PUSH2 0x20EC DUP3 PUSH2 0x3C5 PUSH2 0x29D1 JUMP JUMPDEST PUSH2 0x20F6 SWAP2 SWAP1 PUSH2 0x29E8 JUMP JUMPDEST PUSH1 0x1 PUSH1 0x0 DUP3 DUP3 SLOAD PUSH2 0x2107 SWAP2 SWAP1 PUSH2 0x2B5E JUMP JUMPDEST SWAP1 SWAP2 SSTORE POP PUSH2 0x2116 SWAP1 POP DUP2 PUSH2 0x17E8 JUMP JUMPDEST PUSH2 0x211F DUP3 PUSH2 0x1837 JUMP JUMPDEST PUSH2 0x2129 CALLER DUP4 PUSH2 0x196B JUMP JUMPDEST PUSH2 0x2132 DUP3 PUSH2 0x19B1 JUMP JUMPDEST PUSH2 0x213B DUP3 PUSH2 0x1A63 JUMP JUMPDEST CALLER PUSH2 0x8FC PUSH1 0x64 PUSH2 0x214C DUP5 PUSH1 0x5F PUSH2 0x29D1 JUMP JUMPDEST PUSH2 0x2156 SWAP2 SWAP1 PUSH2 0x29E8 JUMP JUMPDEST PUSH1 0x40 MLOAD DUP2 ISZERO SWAP1 SWAP3 MUL SWAP2 PUSH1 0x0 DUP2 DUP2 DUP2 DUP6 DUP9 DUP9 CALL SWAP4 POP POP POP POP ISZERO DUP1 ISZERO PUSH2 0x217E JUMPI RETURNDATASIZE PUSH1 0x0 DUP1 RETURNDATACOPY RETURNDATASIZE PUSH1 0x0 REVERT JUMPDEST POP PUSH1 0x40 DUP1 MLOAD PUSH1 0x0 DUP1 DUP3 MSTORE PUSH1 0x20 DUP3 ADD DUP6 SWAP1 MSTORE SWAP2 DUP2 ADD DUP4 SWAP1 MSTORE PUSH1 0x60 DUP2 ADD SWAP2 SWAP1 SWAP2 MSTORE CALLER SWAP1 PUSH32 0x49926BBEBE8474393F434DFA4F78694C0923EFA07D19F2284518BFABD06EB737 SWAP1 PUSH1 0x80 ADD PUSH2 0xB78 JUMP JUMPDEST PUSH1 0x1 PUSH1 0x1 PUSH1 0xA0 SHL SUB DUP2 DUP2 AND PUSH1 0x0 SWAP1 DUP2 MSTORE PUSH1 0xF PUSH1 0x20 MSTORE PUSH1 0x40 SWAP1 KECCAK256 SLOAD AND ISZERO DUP1 ISZERO PUSH2 0x2203 JUMPI POP DUP1 PUSH1 0x1 PUSH1 0x1 PUSH1 0xA0 SHL SUB AND DUP3 PUSH1 0x1 PUSH1 0x1 PUSH1 0xA0 SHL SUB AND EQ ISZERO JUMPDEST DUP1 ISZERO PUSH2 0x2218 JUMPI POP PUSH1 0x1 PUSH1 0x1 PUSH1 0xA0 SHL SUB DUP2 AND ADDRESS EQ ISZERO JUMPDEST DUP1 ISZERO PUSH2 0x2232 JUMPI POP PUSH1 0x8 SLOAD PUSH1 0x1 PUSH1 0x1 PUSH1 0xA0 SHL SUB DUP3 DUP2 AND SWAP2 AND EQ ISZERO JUMPDEST DUP1 ISZERO PUSH2 0x224C JUMPI POP PUSH1 0x9 SLOAD PUSH1 0x1 PUSH1 0x1 PUSH1 0xA0 SHL SUB DUP3 DUP2 AND SWAP2 AND EQ ISZERO JUMPDEST DUP1 ISZERO PUSH2 0x2266 JUMPI POP PUSH1 0xA SLOAD PUSH1 0x1 PUSH1 0x1 PUSH1 0xA0 SHL SUB DUP3 DUP2 AND SWAP2 AND EQ ISZERO JUMPDEST ISZERO PUSH2 0xD46 JUMPI PUSH1 0x1 PUSH1 0x1 PUSH1 0xA0 SHL SUB SWAP1 DUP2 AND PUSH1 0x0 SWAP1 DUP2 MSTORE PUSH1 0xF PUSH1 0x20 MSTORE PUSH1 0x40 SWAP1 KECCAK256 DUP1 SLOAD PUSH1 0x1 PUSH1 0x1 PUSH1 0xA0 SHL SUB NOT AND SWAP3 SWAP1 SWAP2 AND SWAP2 SWAP1 SWAP2 OR SWAP1 SSTORE JUMP JUMPDEST PUSH2 0x22A4 PUSH2 0x246D JUMP JUMPDEST PUSH2 0xD46 DUP3 DUP3 PUSH2 0x24D4 JUMP JUMPDEST PUSH2 0x22B6 PUSH2 0x246D JUMP JUMPDEST PUSH2 0x15DE DUP2 PUSH2 0x2525 JUMP JUMPDEST PUSH2 0xD98 PUSH2 0x246D JUMP JUMPDEST PUSH1 0x1 PUSH1 0x1 PUSH1 0xA0 SHL SUB DUP3 AND PUSH2 0x22F1 JUMPI PUSH1 0x40 MLOAD PUSH4 0xEC442F05 PUSH1 0xE0 SHL DUP2 MSTORE PUSH1 0x0 PUSH1 0x4 DUP3 ADD MSTORE PUSH1 0x24 ADD PUSH2 0x9B0 JUMP JUMPDEST PUSH2 0xD46 PUSH1 0x0 DUP4 DUP4 PUSH2 0x1691 JUMP JUMPDEST PUSH1 0x0 DUP1 MLOAD PUSH1 0x20 PUSH2 0x2CDB DUP4 CODECOPY DUP2 MLOAD SWAP2 MSTORE PUSH1 0x1 PUSH1 0x1 PUSH1 0xA0 SHL SUB DUP6 AND PUSH2 0x234F JUMPI PUSH1 0x40 MLOAD PUSH32 0xE602DF0500000000000000000000000000000000000000000000000000000000 DUP2 MSTORE PUSH1 0x0 PUSH1 0x4 DUP3 ADD MSTORE PUSH1 0x24 ADD PUSH2 0x9B0 JUMP JUMPDEST PUSH1 0x1 PUSH1 0x1 PUSH1 0xA0 SHL SUB DUP5 AND PUSH2 0x2392 JUMPI PUSH1 0x40 MLOAD PUSH32 0x94280D6200000000000000000000000000000000000000000000000000000000 DUP2 MSTORE PUSH1 0x0 PUSH1 0x4 DUP3 ADD MSTORE PUSH1 0x24 ADD PUSH2 0x9B0 JUMP JUMPDEST PUSH1 0x1 PUSH1 0x1 PUSH1 0xA0 SHL SUB DUP1 DUP7 AND PUSH1 0x0 SWAP1 DUP2 MSTORE PUSH1 0x1 DUP4 ADD PUSH1 0x20 SWAP1 DUP2 MSTORE PUSH1 0x40 DUP1 DUP4 KECCAK256 SWAP4 DUP9 AND DUP4 MSTORE SWAP3 SWAP1 MSTORE KECCAK256 DUP4 SWAP1 SSTORE DUP2 ISZERO PUSH2 0x2410 JUMPI DUP4 PUSH1 0x1 PUSH1 0x1 PUSH1 0xA0 SHL SUB AND DUP6 PUSH1 0x1 PUSH1 0x1 PUSH1 0xA0 SHL SUB AND PUSH32 0x8C5BE1E5EBEC7D5BD14F71427D1E84F3DD0314C0F7B2291E5B200AC8C7C3B925 DUP6 PUSH1 0x40 MLOAD PUSH2 0x2407 SWAP2 DUP2 MSTORE PUSH1 0x20 ADD SWAP1 JUMP JUMPDEST PUSH1 0x40 MLOAD DUP1 SWAP2 SUB SWAP1 LOG3 JUMPDEST POP POP POP POP POP JUMP JUMPDEST PUSH2 0x2420 DUP3 PUSH2 0x252D JUMP JUMPDEST PUSH1 0x40 MLOAD PUSH1 0x1 PUSH1 0x1 PUSH1 0xA0 SHL SUB DUP4 AND SWAP1 PUSH32 0xBC7CD75A20EE27FD9ADEBAB32041F755214DBC6BFFA90CC0225B39DA2E5C2D3B SWAP1 PUSH1 0x0 SWAP1 LOG2 DUP1 MLOAD ISZERO PUSH2 0x2465 JUMPI PUSH2 0x19AC DUP3 DUP3 PUSH2 0x25A4 JUMP JUMPDEST PUSH2 0xD46 PUSH2 0x261A JUMP JUMPDEST PUSH32 0xF0C57E16840DF040F15088DC2F81FE391C3923BEC73E23A9662EFC9C229C6A00 SLOAD PUSH9 0x10000000000000000 SWAP1 DIV PUSH1 0xFF AND PUSH2 0xD98 JUMPI PUSH1 0x40 MLOAD PUSH32 0xD7E6BCF800000000000000000000000000000000000000000000000000000000 DUP2 MSTORE PUSH1 0x4 ADD PUSH1 0x40 MLOAD DUP1 SWAP2 SUB SWAP1 REVERT JUMPDEST PUSH2 0x24DC PUSH2 0x246D JUMP JUMPDEST PUSH1 0x0 DUP1 MLOAD PUSH1 0x20 PUSH2 0x2CDB DUP4 CODECOPY DUP2 MLOAD SWAP2 MSTORE PUSH32 0x52C63247E1F47DB19D5CE0460030C497F067CA4CEBF71BA98EEADABE20BACE03 PUSH2 0x2516 DUP5 DUP3 PUSH2 0x2BFE JUMP JUMPDEST POP PUSH1 0x4 DUP2 ADD PUSH2 0x1965 DUP4 DUP3 PUSH2 0x2BFE JUMP JUMPDEST PUSH2 0x1592 PUSH2 0x246D JUMP JUMPDEST DUP1 PUSH1 0x1 PUSH1 0x1 PUSH1 0xA0 SHL SUB AND EXTCODESIZE PUSH1 0x0 SUB PUSH2 0x2563 JUMPI PUSH1 0x40 MLOAD PUSH4 0x4C9C8CE3 PUSH1 0xE0 SHL DUP2 MSTORE PUSH1 0x1 PUSH1 0x1 PUSH1 0xA0 SHL SUB DUP3 AND PUSH1 0x4 DUP3 ADD MSTORE PUSH1 0x24 ADD PUSH2 0x9B0 JUMP JUMPDEST PUSH32 0x360894A13BA1A3210667C828492DB98DCA3E2076CC3735A920A3CA505D382BBC DUP1 SLOAD PUSH1 0x1 PUSH1 0x1 PUSH1 0xA0 SHL SUB NOT AND PUSH1 0x1 PUSH1 0x1 PUSH1 0xA0 SHL SUB SWAP3 SWAP1 SWAP3 AND SWAP2 SWAP1 SWAP2 OR SWAP1 SSTORE JUMP JUMPDEST PUSH1 0x60 PUSH1 0x0 DUP1 DUP5 PUSH1 0x1 PUSH1 0x1 PUSH1 0xA0 SHL SUB AND DUP5 PUSH1 0x40 MLOAD PUSH2 0x25C1 SWAP2 SWAP1 PUSH2 0x2CBE JUMP JUMPDEST PUSH1 0x0 PUSH1 0x40 MLOAD DUP1 DUP4 SUB DUP2 DUP6 GAS DELEGATECALL SWAP2 POP POP RETURNDATASIZE DUP1 PUSH1 0x0 DUP2 EQ PUSH2 0x25FC JUMPI PUSH1 0x40 MLOAD SWAP2 POP PUSH1 0x1F NOT PUSH1 0x3F RETURNDATASIZE ADD AND DUP3 ADD PUSH1 0x40 MSTORE RETURNDATASIZE DUP3 MSTORE RETURNDATASIZE PUSH1 0x0 PUSH1 0x20 DUP5 ADD RETURNDATACOPY PUSH2 0x2601 JUMP JUMPDEST PUSH1 0x60 SWAP2 POP JUMPDEST POP SWAP2 POP SWAP2 POP PUSH2 0x2611 DUP6 DUP4 DUP4 PUSH2 0x2652 JUMP JUMPDEST SWAP6 SWAP5 POP POP POP POP POP JUMP JUMPDEST CALLVALUE ISZERO PUSH2 0xD98 JUMPI PUSH1 0x40 MLOAD PUSH32 0xB398979F00000000000000000000000000000000000000000000000000000000 DUP2 MSTORE PUSH1 0x4 ADD PUSH1 0x40 MLOAD DUP1 SWAP2 SUB SWAP1 REVERT JUMPDEST PUSH1 0x60 DUP3 PUSH2 0x2667 JUMPI PUSH2 0x2662 DUP3 PUSH2 0x26C7 JUMP JUMPDEST PUSH2 0xD24 JUMP JUMPDEST DUP2 MLOAD ISZERO DUP1 ISZERO PUSH2 0x267E JUMPI POP PUSH1 0x1 PUSH1 0x1 PUSH1 0xA0 SHL SUB DUP5 AND EXTCODESIZE ISZERO JUMPDEST ISZERO PUSH2 0x26C0 JUMPI PUSH1 0x40 MLOAD PUSH32 0x9996B31500000000000000000000000000000000000000000000000000000000 DUP2 MSTORE PUSH1 0x1 PUSH1 0x1 PUSH1 0xA0 SHL SUB DUP6 AND PUSH1 0x4 DUP3 ADD MSTORE PUSH1 0x24 ADD PUSH2 0x9B0 JUMP JUMPDEST POP DUP1 PUSH2 0xD24 JUMP JUMPDEST DUP1 MLOAD ISZERO PUSH2 0x26D7 JUMPI DUP1 MLOAD DUP1 DUP3 PUSH1 0x20 ADD REVERT JUMPDEST PUSH1 0x40 MLOAD PUSH32 0x1425EA4200000000000000000000000000000000000000000000000000000000 DUP2 MSTORE PUSH1 0x4 ADD PUSH1 0x40 MLOAD DUP1 SWAP2 SUB SWAP1 REVERT JUMPDEST PUSH1 0x0 JUMPDEST DUP4 DUP2 LT ISZERO PUSH2 0x2724 JUMPI DUP2 DUP2 ADD MLOAD DUP4 DUP3 ADD MSTORE PUSH1 0x20 ADD PUSH2 0x270C JUMP JUMPDEST POP POP PUSH1 0x0 SWAP2 ADD MSTORE JUMP JUMPDEST PUSH1 0x20 DUP2 MSTORE PUSH1 0x0 DUP3 MLOAD DUP1 PUSH1 0x20 DUP5 ADD MSTORE PUSH2 0x274C DUP2 PUSH1 0x40 DUP6 ADD PUSH1 0x20 DUP8 ADD PUSH2 0x2709 JUMP JUMPDEST PUSH1 0x1F ADD PUSH1 0x1F NOT AND SWAP2 SWAP1 SWAP2 ADD PUSH1 0x40 ADD SWAP3 SWAP2 POP POP JUMP JUMPDEST DUP1 CALLDATALOAD PUSH1 0x1 PUSH1 0x1 PUSH1 0xA0 SHL SUB DUP2 AND DUP2 EQ PUSH2 0x2777 JUMPI PUSH1 0x0 DUP1 REVERT JUMPDEST SWAP2 SWAP1 POP JUMP JUMPDEST DUP1 ISZERO ISZERO DUP2 EQ PUSH2 0x15DE JUMPI PUSH1 0x0 DUP1 REVERT JUMPDEST PUSH1 0x0 DUP1 PUSH1 0x40 DUP4 DUP6 SUB SLT ISZERO PUSH2 0x279D JUMPI PUSH1 0x0 DUP1 REVERT JUMPDEST PUSH2 0x27A6 DUP4 PUSH2 0x2760 JUMP JUMPDEST SWAP2 POP PUSH1 0x20 DUP4 ADD CALLDATALOAD PUSH2 0x27B6 DUP2 PUSH2 0x277C JUMP JUMPDEST DUP1 SWAP2 POP POP SWAP3 POP SWAP3 SWAP1 POP JUMP JUMPDEST PUSH1 0x0 DUP1 PUSH1 0x40 DUP4 DUP6 SUB SLT ISZERO PUSH2 0x27D4 JUMPI PUSH1 0x0 DUP1 REVERT JUMPDEST PUSH2 0x27DD DUP4 PUSH2 0x2760 JUMP JUMPDEST SWAP5 PUSH1 0x20 SWAP4 SWAP1 SWAP4 ADD CALLDATALOAD SWAP4 POP POP POP JUMP JUMPDEST PUSH1 0x0 DUP1 PUSH1 0x40 DUP4 DUP6 SUB SLT ISZERO PUSH2 0x27FE JUMPI PUSH1 0x0 DUP1 REVERT JUMPDEST DUP3 CALLDATALOAD SWAP2 POP PUSH1 0x20 DUP4 ADD CALLDATALOAD PUSH2 0x27B6 DUP2 PUSH2 0x277C JUMP JUMPDEST PUSH1 0x0 DUP1 PUSH1 0x0 PUSH1 0x60 DUP5 DUP7 SUB SLT ISZERO PUSH2 0x2825 JUMPI PUSH1 0x0 DUP1 REVERT JUMPDEST PUSH2 0x282E DUP5 PUSH2 0x2760 JUMP JUMPDEST SWAP3 POP PUSH2 0x283C PUSH1 0x20 DUP6 ADD PUSH2 0x2760 JUMP JUMPDEST SWAP2 POP PUSH1 0x40 DUP5 ADD CALLDATALOAD SWAP1 POP SWAP3 POP SWAP3 POP SWAP3 JUMP JUMPDEST PUSH4 0x4E487B71 PUSH1 0xE0 SHL PUSH1 0x0 MSTORE PUSH1 0x41 PUSH1 0x4 MSTORE PUSH1 0x24 PUSH1 0x0 REVERT JUMPDEST PUSH1 0x0 DUP1 PUSH1 0x40 DUP4 DUP6 SUB SLT ISZERO PUSH2 0x2875 JUMPI PUSH1 0x0 DUP1 REVERT JUMPDEST PUSH2 0x287E DUP4 PUSH2 0x2760 JUMP JUMPDEST SWAP2 POP PUSH1 0x20 DUP4 ADD CALLDATALOAD PUSH8 0xFFFFFFFFFFFFFFFF DUP1 DUP3 GT ISZERO PUSH2 0x289B JUMPI PUSH1 0x0 DUP1 REVERT JUMPDEST DUP2 DUP6 ADD SWAP2 POP DUP6 PUSH1 0x1F DUP4 ADD SLT PUSH2 0x28AF JUMPI PUSH1 0x0 DUP1 REVERT JUMPDEST DUP2 CALLDATALOAD DUP2 DUP2 GT ISZERO PUSH2 0x28C1 JUMPI PUSH2 0x28C1 PUSH2 0x284C JUMP JUMPDEST PUSH1 0x40 MLOAD PUSH1 0x1F DUP3 ADD PUSH1 0x1F NOT SWAP1 DUP2 AND PUSH1 0x3F ADD AND DUP2 ADD SWAP1 DUP4 DUP3 GT DUP2 DUP4 LT OR ISZERO PUSH2 0x28E9 JUMPI PUSH2 0x28E9 PUSH2 0x284C JUMP JUMPDEST DUP2 PUSH1 0x40 MSTORE DUP3 DUP2 MSTORE DUP9 PUSH1 0x20 DUP5 DUP8 ADD ADD GT ISZERO PUSH2 0x2902 JUMPI PUSH1 0x0 DUP1 REVERT JUMPDEST DUP3 PUSH1 0x20 DUP7 ADD PUSH1 0x20 DUP4 ADD CALLDATACOPY PUSH1 0x0 PUSH1 0x20 DUP5 DUP4 ADD ADD MSTORE DUP1 SWAP6 POP POP POP POP POP POP SWAP3 POP SWAP3 SWAP1 POP JUMP JUMPDEST PUSH1 0x0 PUSH1 0x20 DUP3 DUP5 SUB SLT ISZERO PUSH2 0x2936 JUMPI PUSH1 0x0 DUP1 REVERT JUMPDEST POP CALLDATALOAD SWAP2 SWAP1 POP JUMP JUMPDEST PUSH1 0x0 PUSH1 0x20 DUP3 DUP5 SUB SLT ISZERO PUSH2 0x294F JUMPI PUSH1 0x0 DUP1 REVERT JUMPDEST PUSH2 0xD24 DUP3 PUSH2 0x2760 JUMP JUMPDEST PUSH1 0x0 PUSH1 0x20 DUP3 DUP5 SUB SLT ISZERO PUSH2 0x296A JUMPI PUSH1 0x0 DUP1 REVERT JUMPDEST DUP2 CALLDATALOAD PUSH2 0xD24 DUP2 PUSH2 0x277C JUMP JUMPDEST PUSH1 0x0 DUP1 PUSH1 0x40 DUP4 DUP6 SUB SLT ISZERO PUSH2 0x2988 JUMPI PUSH1 0x0 DUP1 REVERT JUMPDEST PUSH2 0x2991 DUP4 PUSH2 0x2760 JUMP JUMPDEST SWAP2 POP PUSH2 0x299F PUSH1 0x20 DUP5 ADD PUSH2 0x2760 JUMP JUMPDEST SWAP1 POP SWAP3 POP SWAP3 SWAP1 POP JUMP JUMPDEST PUSH4 0x4E487B71 PUSH1 0xE0 SHL PUSH1 0x0 MSTORE PUSH1 0x11 PUSH1 0x4 MSTORE PUSH1 0x24 PUSH1 0x0 REVERT JUMPDEST DUP1 DUP3 ADD DUP1 DUP3 GT ISZERO PUSH2 0xC8E JUMPI PUSH2 0xC8E PUSH2 0x29A8 JUMP JUMPDEST DUP1 DUP3 MUL DUP2 ISZERO DUP3 DUP3 DIV DUP5 EQ OR PUSH2 0xC8E JUMPI PUSH2 0xC8E PUSH2 0x29A8 JUMP JUMPDEST PUSH1 0x0 DUP3 PUSH2 0x2A05 JUMPI PUSH4 0x4E487B71 PUSH1 0xE0 SHL PUSH1 0x0 MSTORE PUSH1 0x12 PUSH1 0x4 MSTORE PUSH1 0x24 PUSH1 0x0 REVERT JUMPDEST POP DIV SWAP1 JUMP JUMPDEST PUSH1 0x1 DUP2 DUP2 SHR SWAP1 DUP3 AND DUP1 PUSH2 0x2A1E JUMPI PUSH1 0x7F DUP3 AND SWAP2 POP JUMPDEST PUSH1 0x20 DUP3 LT DUP2 SUB PUSH2 0x2A3E JUMPI PUSH4 0x4E487B71 PUSH1 0xE0 SHL PUSH1 0x0 MSTORE PUSH1 0x22 PUSH1 0x4 MSTORE PUSH1 0x24 PUSH1 0x0 REVERT JUMPDEST POP SWAP2 SWAP1 POP JUMP JUMPDEST PUSH1 0x1 DUP2 DUP2 JUMPDEST DUP1 DUP6 GT ISZERO PUSH2 0x2A7F JUMPI DUP2 PUSH1 0x0 NOT DIV DUP3 GT ISZERO PUSH2 0x2A65 JUMPI PUSH2 0x2A65 PUSH2 0x29A8 JUMP JUMPDEST DUP1 DUP6 AND ISZERO PUSH2 0x2A72 JUMPI SWAP2 DUP2 MUL SWAP2 JUMPDEST SWAP4 DUP5 SHR SWAP4 SWAP1 DUP1 MUL SWAP1 PUSH2 0x2A49 JUMP JUMPDEST POP SWAP3 POP SWAP3 SWAP1 POP JUMP JUMPDEST PUSH1 0x0 DUP3 PUSH2 0x2A96 JUMPI POP PUSH1 0x1 PUSH2 0xC8E JUMP JUMPDEST DUP2 PUSH2 0x2AA3 JUMPI POP PUSH1 0x0 PUSH2 0xC8E JUMP JUMPDEST DUP2 PUSH1 0x1 DUP2 EQ PUSH2 0x10FC JUMPI PUSH1 0x2 DUP2 SUB PUSH2 0x2AD0 JUMPI PUSH1 0xFF DUP5 GT ISZERO PUSH2 0x2AC5 JUMPI PUSH2 0x2AC5 PUSH2 0x29A8 JUMP JUMPDEST POP POP PUSH1 0x1 DUP3 SHL PUSH2 0xC8E JUMP JUMPDEST POP PUSH1 0x20 DUP4 LT PUSH2 0x133 DUP4 LT AND PUSH1 0x4E DUP5 LT PUSH1 0xB DUP5 LT AND OR ISZERO PUSH2 0x2AF3 JUMPI POP DUP2 DUP2 EXP PUSH2 0xC8E JUMP JUMPDEST PUSH2 0x2AFD DUP4 DUP4 PUSH2 0x2A44 JUMP JUMPDEST DUP1 PUSH1 0x0 NOT DIV DUP3 GT ISZERO PUSH2 0x2B11 JUMPI PUSH2 0x2B11 PUSH2 0x29A8 JUMP JUMPDEST MUL SWAP4 SWAP3 POP POP POP JUMP JUMPDEST PUSH1 0x0 PUSH2 0xD24 PUSH1 0xFF DUP5 AND DUP4 PUSH2 0x2A87 JUMP JUMPDEST PUSH1 0x0 PUSH1 0x20 DUP3 DUP5 SUB SLT ISZERO PUSH2 0x2B3A JUMPI PUSH1 0x0 DUP1 REVERT JUMPDEST DUP2 MLOAD PUSH2 0xD24 DUP2 PUSH2 0x277C JUMP JUMPDEST PUSH1 0xFF DUP3 DUP2 AND DUP3 DUP3 AND SUB SWAP1 DUP2 GT ISZERO PUSH2 0xC8E JUMPI PUSH2 0xC8E PUSH2 0x29A8 JUMP JUMPDEST DUP2 DUP2 SUB DUP2 DUP2 GT ISZERO PUSH2 0xC8E JUMPI PUSH2 0xC8E PUSH2 0x29A8 JUMP JUMPDEST PUSH4 0x4E487B71 PUSH1 0xE0 SHL PUSH1 0x0 MSTORE PUSH1 0x32 PUSH1 0x4 MSTORE PUSH1 0x24 PUSH1 0x0 REVERT JUMPDEST PUSH4 0x4E487B71 PUSH1 0xE0 SHL PUSH1 0x0 MSTORE PUSH1 0x31 PUSH1 0x4 MSTORE PUSH1 0x24 PUSH1 0x0 REVERT JUMPDEST PUSH1 0x0 PUSH1 0x20 DUP3 DUP5 SUB SLT ISZERO PUSH2 0x2BAF JUMPI PUSH1 0x0 DUP1 REVERT JUMPDEST POP MLOAD SWAP2 SWAP1 POP JUMP JUMPDEST PUSH1 0x1F DUP3 GT ISZERO PUSH2 0x19AC JUMPI PUSH1 0x0 DUP2 PUSH1 0x0 MSTORE PUSH1 0x20 PUSH1 0x0 KECCAK256 PUSH1 0x1F DUP6 ADD PUSH1 0x5 SHR DUP2 ADD PUSH1 0x20 DUP7 LT ISZERO PUSH2 0x2BDF JUMPI POP DUP1 JUMPDEST PUSH1 0x1F DUP6 ADD PUSH1 0x5 SHR DUP3 ADD SWAP2 POP JUMPDEST DUP2 DUP2 LT ISZERO PUSH2 0x1548 JUMPI DUP3 DUP2 SSTORE PUSH1 0x1 ADD PUSH2 0x2BEB JUMP JUMPDEST DUP2 MLOAD PUSH8 0xFFFFFFFFFFFFFFFF DUP2 GT ISZERO PUSH2 0x2C18 JUMPI PUSH2 0x2C18 PUSH2 0x284C JUMP JUMPDEST PUSH2 0x2C2C DUP2 PUSH2 0x2C26 DUP5 SLOAD PUSH2 0x2A0A JUMP JUMPDEST DUP5 PUSH2 0x2BB6 JUMP JUMPDEST PUSH1 0x20 DUP1 PUSH1 0x1F DUP4 GT PUSH1 0x1 DUP2 EQ PUSH2 0x2C61 JUMPI PUSH1 0x0 DUP5 ISZERO PUSH2 0x2C49 JUMPI POP DUP6 DUP4 ADD MLOAD JUMPDEST PUSH1 0x0 NOT PUSH1 0x3 DUP7 SWAP1 SHL SHR NOT AND PUSH1 0x1 DUP6 SWAP1 SHL OR DUP6 SSTORE PUSH2 0x1548 JUMP JUMPDEST PUSH1 0x0 DUP6 DUP2 MSTORE PUSH1 0x20 DUP2 KECCAK256 PUSH1 0x1F NOT DUP7 AND SWAP2 JUMPDEST DUP3 DUP2 LT ISZERO PUSH2 0x2C90 JUMPI DUP9 DUP7 ADD MLOAD DUP3 SSTORE SWAP5 DUP5 ADD SWAP5 PUSH1 0x1 SWAP1 SWAP2 ADD SWAP1 DUP5 ADD PUSH2 0x2C71 JUMP JUMPDEST POP DUP6 DUP3 LT ISZERO PUSH2 0x2CAE JUMPI DUP8 DUP6 ADD MLOAD PUSH1 0x0 NOT PUSH1 0x3 DUP9 SWAP1 SHL PUSH1 0xF8 AND SHR NOT AND DUP2 SSTORE JUMPDEST POP POP POP POP POP PUSH1 0x1 SWAP1 DUP2 SHL ADD SWAP1 SSTORE POP JUMP JUMPDEST PUSH1 0x0 DUP3 MLOAD PUSH2 0x2CD0 DUP2 DUP5 PUSH1 0x20 DUP8 ADD PUSH2 0x2709 JUMP JUMPDEST SWAP2 SWAP1 SWAP2 ADD SWAP3 SWAP2 POP POP JUMP INVALID MSTORE 0xC6 ORIGIN SELFBALANCE 0xE1 DELEGATECALL PUSH30 0xB19D5CE0460030C497F067CA4CEBF71BA98EEADABE20BACE00A264697066 PUSH20 0x58221220499F730D86C32C4A14DACEC9BECB1281 0xEA DUP13 DUP7 0xAD GAS 0xF7 0x4B 0xB0 PUSH12 0x8B9E85678B979464736F6C63 NUMBER STOP ADDMOD XOR STOP CALLER "},"methodIdentifiers":{"UPGRADE_INTERFACE_VERSION()":"ad3cb1cc","_fireStopAmount()":"b74de591","_maxSellAmount()":"7cca52fe","_maxWallet()":"82247ec0","_nodeLimitAmount()":"3cd691d5","allowance(address,address)":"dd62ed3e","approve(address,uint256)":"095ea7b3","balanceOf(address)":"70a08231","communityAddress(uint256)":"d0943e17","communityBonus()":"dc541504","communityCount(address)":"78554a4f","decimals()":"313ce567","ecoAddress()":"68961ecb","enableMaxWallet(bool)":"ae19139e","feeAddress()":"41275358","getAmountOut(uint256,bool)":"11106ee2","getPledgeReceiptRelation(address)":"7b49827a","getReserves()":"0902f1ac","initialize(address)":"c4d66de8","lastRewardAt()":"f2e15628","liquidityProvider()":"5b8bec55","marketAddress()":"95623641","maxWalletEnable()":"12a54b62","name()":"06fdde03","nodeAddress(uint256)":"e98533b8","owner()":"8da5cb5b","pledgeReceiptRelation(address)":"dbcdf032","presaleEnable()":"7ec18cf6","proxiableUUID()":"52d1902d","relation(address)":"d7a05f05","removeNodeAddress(uint256)":"f3e01942","removePledgeReceiptRelation(address)":"c363c3ac","renounceOwnership()":"715018a6","setMaxWallet(uint256)":"5d0044ca","setWhiteAddress(address,bool)":"07c62151","setZToken(address)":"9e1e1713","symbol()":"95d89b41","totalSupply()":"18160ddd","transfer(address,uint256)":"a9059cbb","transferFrom(address,address,uint256)":"23b872dd","transferOwnership(address)":"f2fde38b","upgradeToAndCall(address,bytes)":"4f1ef286"}},"storageLayout":{"storage":[{"astId":6404,"contract":"contracts/BT2.sol:BT2","label":"_totalSupply","offset":0,"slot":"0","type":"t_uint256"},{"astId":6406,"contract":"contracts/BT2.sol:BT2","label":"_bnbTotalSupply","offset":0,"slot":"1","type":"t_uint256"},{"astId":6408,"contract":"contracts/BT2.sol:BT2","label":"_maxWallet","offset":0,"slot":"2","type":"t_uint256"},{"astId":6410,"contract":"contracts/BT2.sol:BT2","label":"_maxSellAmount","offset":0,"slot":"3","type":"t_uint256"},{"astId":6412,"contract":"contracts/BT2.sol:BT2","label":"_fireStopAmount","offset":0,"slot":"4","type":"t_uint256"},{"astId":6414,"contract":"contracts/BT2.sol:BT2","label":"_name","offset":0,"slot":"5","type":"t_string_storage"},{"astId":6416,"contract":"contracts/BT2.sol:BT2","label":"_symbol","offset":0,"slot":"6","type":"t_string_storage"},{"astId":6418,"contract":"contracts/BT2.sol:BT2","label":"liquidityProvider","offset":0,"slot":"7","type":"t_address"},{"astId":6420,"contract":"contracts/BT2.sol:BT2","label":"maxWalletEnable","offset":20,"slot":"7","type":"t_bool"},{"astId":6422,"contract":"contracts/BT2.sol:BT2","label":"marketAddress","offset":0,"slot":"8","type":"t_address"},{"astId":6424,"contract":"contracts/BT2.sol:BT2","label":"ecoAddress","offset":0,"slot":"9","type":"t_address"},{"astId":6426,"contract":"contracts/BT2.sol:BT2","label":"feeAddress","offset":0,"slot":"10","type":"t_address"},{"astId":6429,"contract":"contracts/BT2.sol:BT2","label":"nodeAddress","offset":0,"slot":"11","type":"t_array(t_address)dyn_storage"},{"astId":6432,"contract":"contracts/BT2.sol:BT2","label":"communityAddress","offset":0,"slot":"12","type":"t_array(t_address)dyn_storage"},{"astId":6434,"contract":"contracts/BT2.sol:BT2","label":"communityBonus","offset":0,"slot":"13","type":"t_uint256"},{"astId":6436,"contract":"contracts/BT2.sol:BT2","label":"_nodeLimitAmount","offset":0,"slot":"14","type":"t_uint256"},{"astId":6440,"contract":"contracts/BT2.sol:BT2","label":"relation","offset":0,"slot":"15","type":"t_mapping(t_address,t_address)"},{"astId":6444,"contract":"contracts/BT2.sol:BT2","label":"communityCount","offset":0,"slot":"16","type":"t_mapping(t_address,t_uint256)"},{"astId":6448,"contract":"contracts/BT2.sol:BT2","label":"pledgeReceiptRelation","offset":0,"slot":"17","type":"t_mapping(t_address,t_uint256)"},{"astId":6452,"contract":"contracts/BT2.sol:BT2","label":"whiteAddress","offset":0,"slot":"18","type":"t_mapping(t_address,t_bool)"},{"astId":6454,"contract":"contracts/BT2.sol:BT2","label":"lastRewardAt","offset":0,"slot":"19","type":"t_uint256"},{"astId":6457,"contract":"contracts/BT2.sol:BT2","label":"zToken","offset":0,"slot":"20","type":"t_contract(ERC20Upgradeable)1247"},{"astId":6460,"contract":"contracts/BT2.sol:BT2","label":"presaleEnable","offset":20,"slot":"20","type":"t_bool"},{"astId":6464,"contract":"contracts/BT2.sol:BT2","label":"lastTransaction","offset":0,"slot":"21","type":"t_mapping(t_address,t_uint32)"}],"types":{"t_address":{"encoding":"inplace","label":"address","numberOfBytes":"20"},"t_array(t_address)dyn_storage":{"base":"t_address","encoding":"dynamic_array","label":"address[]","numberOfBytes":"32"},"t_bool":{"encoding":"inplace","label":"bool","numberOfBytes":"1"},"t_contract(ERC20Upgradeable)1247":{"encoding":"inplace","label":"contract ERC20Upgradeable","numberOfBytes":"20"},"t_mapping(t_address,t_address)":{"encoding":"mapping","key":"t_address","label":"mapping(address => address)","numberOfBytes":"32","value":"t_address"},"t_mapping(t_address,t_bool)":{"encoding":"mapping","key":"t_address","label":"mapping(address => bool)","numberOfBytes":"32","value":"t_bool"},"t_mapping(t_address,t_uint256)":{"encoding":"mapping","key":"t_address","label":"mapping(address => uint256)","numberOfBytes":"32","value":"t_uint256"},"t_mapping(t_address,t_uint32)":{"encoding":"mapping","key":"t_address","label":"mapping(address => uint32)","numberOfBytes":"32","value":"t_uint32"},"t_string_storage":{"encoding":"bytes","label":"string","numberOfBytes":"32"},"t_uint256":{"encoding":"inplace","label":"uint256","numberOfBytes":"32"},"t_uint32":{"encoding":"inplace","label":"uint32","numberOfBytes":"4"}}}}}}