{"contracts/nft_auction/aud.sol":{"MultiNFTAuction":{"abi":[{"inputs":[{"internalType":"address","name":"target","type":"address"}],"name":"AddressEmptyCode","type":"error"},{"inputs":[{"internalType":"address","name":"implementation","type":"address"}],"name":"ERC1967InvalidImplementation","type":"error"},{"inputs":[],"name":"ERC1967NonPayable","type":"error"},{"inputs":[{"internalType":"address","name":"sender","type":"address"},{"internalType":"uint256","name":"tokenId","type":"uint256"},{"internalType":"address","name":"owner","type":"address"}],"name":"ERC721IncorrectOwner","type":"error"},{"inputs":[{"internalType":"address","name":"operator","type":"address"},{"internalType":"uint256","name":"tokenId","type":"uint256"}],"name":"ERC721InsufficientApproval","type":"error"},{"inputs":[{"internalType":"address","name":"approver","type":"address"}],"name":"ERC721InvalidApprover","type":"error"},{"inputs":[{"internalType":"address","name":"operator","type":"address"}],"name":"ERC721InvalidOperator","type":"error"},{"inputs":[{"internalType":"address","name":"owner","type":"address"}],"name":"ERC721InvalidOwner","type":"error"},{"inputs":[{"internalType":"address","name":"receiver","type":"address"}],"name":"ERC721InvalidReceiver","type":"error"},{"inputs":[{"internalType":"address","name":"sender","type":"address"}],"name":"ERC721InvalidSender","type":"error"},{"inputs":[{"internalType":"uint256","name":"tokenId","type":"uint256"}],"name":"ERC721NonexistentToken","type":"error"},{"inputs":[],"name":"FailedCall","type":"error"},{"inputs":[],"name":"InvalidInitialization","type":"error"},{"inputs":[],"name":"NotInitializing","type":"error"},{"inputs":[{"internalType":"address","name":"owner","type":"address"}],"name":"OwnableInvalidOwner","type":"error"},{"inputs":[{"internalType":"address","name":"account","type":"address"}],"name":"OwnableUnauthorizedAccount","type":"error"},{"inputs":[],"name":"UUPSUnauthorizedCallContext","type":"error"},{"inputs":[{"internalType":"bytes32","name":"slot","type":"bytes32"}],"name":"UUPSUnsupportedProxiableUUID","type":"error"},{"anonymous":false,"inputs":[{"indexed":true,"internalType":"address","name":"owner","type":"address"},{"indexed":true,"internalType":"address","name":"approved","type":"address"},{"indexed":true,"internalType":"uint256","name":"tokenId","type":"uint256"}],"name":"Approval","type":"event"},{"anonymous":false,"inputs":[{"indexed":true,"internalType":"address","name":"owner","type":"address"},{"indexed":true,"internalType":"address","name":"operator","type":"address"},{"indexed":false,"internalType":"bool","name":"approved","type":"bool"}],"name":"ApprovalForAll","type":"event"},{"anonymous":false,"inputs":[{"indexed":false,"internalType":"uint256","name":"auctionId","type":"uint256"},{"indexed":false,"internalType":"address","name":"nft","type":"address"},{"indexed":false,"internalType":"uint256","name":"nftId","type":"uint256"}],"name":"AuctionCreated","type":"event"},{"anonymous":false,"inputs":[{"indexed":false,"internalType":"uint256","name":"auctionId","type":"uint256"},{"indexed":true,"internalType":"address","name":"bidder","type":"address"},{"indexed":false,"internalType":"uint256","name":"amount","type":"uint256"}],"name":"BidPlaced","type":"event"},{"anonymous":false,"inputs":[{"indexed":false,"internalType":"uint64","name":"version","type":"uint64"}],"name":"Initialized","type":"event"},{"anonymous":false,"inputs":[{"indexed":false,"internalType":"uint256","name":"day","type":"uint256"},{"indexed":false,"internalType":"uint256","name":"totalAmount","type":"uint256"}],"name":"LuckyPoolDistributed","type":"event"},{"anonymous":false,"inputs":[{"indexed":true,"internalType":"address","name":"previousOwner","type":"address"},{"indexed":true,"internalType":"address","name":"newOwner","type":"address"}],"name":"OwnershipTransferred","type":"event"},{"anonymous":false,"inputs":[{"indexed":true,"internalType":"address","name":"from","type":"address"},{"indexed":true,"internalType":"address","name":"to","type":"address"},{"indexed":true,"internalType":"uint256","name":"tokenId","type":"uint256"}],"name":"Transfer","type":"event"},{"anonymous":false,"inputs":[{"indexed":true,"internalType":"address","name":"implementation","type":"address"}],"name":"Upgraded","type":"event"},{"anonymous":false,"inputs":[{"indexed":false,"internalType":"address","name":"user","type":"address"},{"indexed":false,"internalType":"address","name":"referrer","type":"address"}],"name":"UserBound","type":"event"},{"inputs":[],"name":"FOUNDATION_FEE_PERCENT","outputs":[{"internalType":"uint256","name":"","type":"uint256"}],"stateMutability":"view","type":"function"},{"inputs":[],"name":"FOUNDATION_RECEIVE_ADDRESS","outputs":[{"internalType":"address","name":"","type":"address"}],"stateMutability":"view","type":"function"},{"inputs":[],"name":"LAST_PERCENT","outputs":[{"internalType":"uint256","name":"","type":"uint256"}],"stateMutability":"view","type":"function"},{"inputs":[],"name":"LUCKY_POOL_RECEIVE_ADDRESS","outputs":[{"internalType":"address","name":"","type":"address"}],"stateMutability":"view","type":"function"},{"inputs":[],"name":"NFT_EXPIRED_TIME","outputs":[{"internalType":"uint256","name":"","type":"uint256"}],"stateMutability":"view","type":"function"},{"inputs":[],"name":"NFT_PRICE_INCR","outputs":[{"internalType":"uint256","name":"","type":"uint256"}],"stateMutability":"view","type":"function"},{"inputs":[],"name":"REFERRER_FEE_PERCENT","outputs":[{"internalType":"uint256","name":"","type":"uint256"}],"stateMutability":"view","type":"function"},{"inputs":[],"name":"TEAM_FEE_PERCENT","outputs":[{"internalType":"uint256","name":"","type":"uint256"}],"stateMutability":"view","type":"function"},{"inputs":[],"name":"TEAM_RECEIVE_ADDRESS","outputs":[{"internalType":"address","name":"","type":"address"}],"stateMutability":"view","type":"function"},{"inputs":[],"name":"TOP10_FEE_PERCENT","outputs":[{"internalType":"uint256","name":"","type":"uint256"}],"stateMutability":"view","type":"function"},{"inputs":[],"name":"TOP10_RECEIVE_ADDRESS","outputs":[{"internalType":"address","name":"","type":"address"}],"stateMutability":"view","type":"function"},{"inputs":[],"name":"UPGRADE_INTERFACE_VERSION","outputs":[{"internalType":"string","name":"","type":"string"}],"stateMutability":"view","type":"function"},{"inputs":[{"internalType":"address","name":"to","type":"address"},{"internalType":"uint256","name":"tokenId","type":"uint256"}],"name":"approve","outputs":[],"stateMutability":"nonpayable","type":"function"},{"inputs":[],"name":"auctionCounter","outputs":[{"internalType":"uint256","name":"","type":"uint256"}],"stateMutability":"view","type":"function"},{"inputs":[{"internalType":"uint256","name":"","type":"uint256"}],"name":"auctions","outputs":[{"internalType":"contract ERC721Upgradeable","name":"nft","type":"address"},{"internalType":"uint256","name":"nftId","type":"uint256"},{"internalType":"uint256","name":"lastPrice","type":"uint256"},{"internalType":"address","name":"lastBidder","type":"address"},{"internalType":"uint256","name":"expiredTime","type":"uint256"}],"stateMutability":"view","type":"function"},{"inputs":[{"internalType":"address","name":"owner","type":"address"}],"name":"balanceOf","outputs":[{"internalType":"uint256","name":"","type":"uint256"}],"stateMutability":"view","type":"function"},{"inputs":[{"internalType":"address","name":"_referrer","type":"address"}],"name":"bindUser","outputs":[],"stateMutability":"nonpayable","type":"function"},{"inputs":[{"internalType":"address","name":"_nft","type":"address"},{"internalType":"uint256","name":"_nftId","type":"uint256"},{"internalType":"uint256","name":"_price","type":"uint256"}],"name":"createAuction","outputs":[],"stateMutability":"nonpayable","type":"function"},{"inputs":[{"internalType":"uint256","name":"tokenId","type":"uint256"}],"name":"getApproved","outputs":[{"internalType":"address","name":"","type":"address"}],"stateMutability":"view","type":"function"},{"inputs":[],"name":"getDayStart","outputs":[{"internalType":"uint256","name":"","type":"uint256"}],"stateMutability":"view","type":"function"},{"inputs":[{"internalType":"address","name":"initialOwner","type":"address"}],"name":"initialize","outputs":[],"stateMutability":"nonpayable","type":"function"},{"inputs":[{"internalType":"address","name":"owner","type":"address"},{"internalType":"address","name":"operator","type":"address"}],"name":"isApprovedForAll","outputs":[{"internalType":"bool","name":"","type":"bool"}],"stateMutability":"view","type":"function"},{"inputs":[{"internalType":"address","name":"","type":"address"}],"name":"lastParticipationDay","outputs":[{"internalType":"uint256","name":"","type":"uint256"}],"stateMutability":"view","type":"function"},{"inputs":[],"name":"name","outputs":[{"internalType":"string","name":"","type":"string"}],"stateMutability":"view","type":"function"},{"inputs":[],"name":"owner","outputs":[{"internalType":"address","name":"","type":"address"}],"stateMutability":"view","type":"function"},{"inputs":[{"internalType":"uint256","name":"tokenId","type":"uint256"}],"name":"ownerOf","outputs":[{"internalType":"address","name":"","type":"address"}],"stateMutability":"view","type":"function"},{"inputs":[{"internalType":"uint256","name":"auctionId","type":"uint256"}],"name":"placeBid","outputs":[],"stateMutability":"payable","type":"function"},{"inputs":[],"name":"proxiableUUID","outputs":[{"internalType":"bytes32","name":"","type":"bytes32"}],"stateMutability":"view","type":"function"},{"inputs":[],"name":"renounceOwnership","outputs":[],"stateMutability":"nonpayable","type":"function"},{"inputs":[{"internalType":"address","name":"to","type":"address"},{"internalType":"uint256","name":"tokenId","type":"uint256"}],"name":"safeMint","outputs":[],"stateMutability":"nonpayable","type":"function"},{"inputs":[{"internalType":"address","name":"from","type":"address"},{"internalType":"address","name":"to","type":"address"},{"internalType":"uint256","name":"tokenId","type":"uint256"}],"name":"safeTransferFrom","outputs":[],"stateMutability":"nonpayable","type":"function"},{"inputs":[{"internalType":"address","name":"from","type":"address"},{"internalType":"address","name":"to","type":"address"},{"internalType":"uint256","name":"tokenId","type":"uint256"},{"internalType":"bytes","name":"data","type":"bytes"}],"name":"safeTransferFrom","outputs":[],"stateMutability":"nonpayable","type":"function"},{"inputs":[{"internalType":"address","name":"operator","type":"address"},{"internalType":"bool","name":"approved","type":"bool"}],"name":"setApprovalForAll","outputs":[],"stateMutability":"nonpayable","type":"function"},{"inputs":[{"internalType":"bytes4","name":"interfaceId","type":"bytes4"}],"name":"supportsInterface","outputs":[{"internalType":"bool","name":"","type":"bool"}],"stateMutability":"view","type":"function"},{"inputs":[],"name":"symbol","outputs":[{"internalType":"string","name":"","type":"string"}],"stateMutability":"view","type":"function"},{"inputs":[{"internalType":"uint256","name":"tokenId","type":"uint256"}],"name":"tokenURI","outputs":[{"internalType":"string","name":"","type":"string"}],"stateMutability":"view","type":"function"},{"inputs":[{"internalType":"address","name":"from","type":"address"},{"internalType":"address","name":"to","type":"address"},{"internalType":"uint256","name":"tokenId","type":"uint256"}],"name":"transferFrom","outputs":[],"stateMutability":"nonpayable","type":"function"},{"inputs":[{"internalType":"address","name":"newOwner","type":"address"}],"name":"transferOwnership","outputs":[],"stateMutability":"nonpayable","type":"function"},{"inputs":[{"internalType":"address","name":"newImplementation","type":"address"},{"internalType":"bytes","name":"data","type":"bytes"}],"name":"upgradeToAndCall","outputs":[],"stateMutability":"payable","type":"function"},{"inputs":[{"internalType":"address","name":"","type":"address"},{"internalType":"uint256","name":"","type":"uint256"}],"name":"userReferrals","outputs":[{"internalType":"address","name":"","type":"address"}],"stateMutability":"view","type":"function"},{"inputs":[{"internalType":"address","name":"","type":"address"}],"name":"userReferrer","outputs":[{"internalType":"address","name":"","type":"address"}],"stateMutability":"view","type":"function"}],"evm":{"bytecode":{"linkReferences":{},"object":"60a06040523060805260038054731cde2d7d9d160b2299a87a3b335dd74d87b9f9486001600160a01b031991821681179092556004805482168317905560058054821683179055600680549091169091179055606e600755348015606257600080fd5b50608051612b0061008c6000396000818161180b0152818161183401526119b20152612b006000f3fe6080604052600436106102c65760003560e01c806395d89b4111610179578063c87b56dd116100d6578063e985e9c51161008a578063ef29a3cc11610064578063ef29a3cc14610850578063f2fde38b1461087d578063f3d428ae1461081b57600080fd5b8063e985e9c5146107b3578063ed2d75191461081b578063eeb20b711461083057600080fd5b8063d9753930116100bb578063d975393014610768578063dee0da621461077e578063e0c858ad1461079e57600080fd5b8063c87b56dd14610728578063d3ed5ec61461074857600080fd5b8063a7e766441161012d578063ad3cb1cc11610112578063ad3cb1cc1461069f578063b88d4fde146106e8578063c4d66de81461070857600080fd5b8063a7e7664414610669578063abb940511461067f57600080fd5b80639979ef451161015e5780639979ef4514610616578063a144819414610629578063a22cb4651461064957600080fd5b806395d89b41146105e1578063989baf69146105f657600080fd5b80634697e2f5116102275780636352211e116101db578063715018a6116101c0578063715018a6146105595780637c3fcc381461056e5780638da5cb5b146105a457600080fd5b80636352211e1461051957806370a082311461053957600080fd5b806352d1902d1161020c57806352d1902d14610454578063571a26a0146104695780635aaf2c10146104f957600080fd5b80634697e2f5146104215780634f1ef2861461044157600080fd5b806312c980421161027e57806323b872dd1161026357806323b872dd146103cb57806338ecd620146103eb57806342842e0e1461040157600080fd5b806312c980421461039f5780631b8d2068146103b557600080fd5b806307e0d93c116102af57806307e0d93c14610322578063081812fc14610345578063095ea7b31461037d57600080fd5b806301ffc9a7146102cb57806306fdde0314610300575b600080fd5b3480156102d757600080fd5b506102eb6102e63660046124f0565b61089d565b60405190151581526020015b60405180910390f35b34801561030c57600080fd5b5061031561093a565b6040516102f7919061255d565b34801561032e57600080fd5b50610337603281565b6040519081526020016102f7565b34801561035157600080fd5b50610365610360366004612570565b6109f0565b6040516001600160a01b0390911681526020016102f7565b34801561038957600080fd5b5061039d6103983660046125a5565b610a38565b005b3480156103ab57600080fd5b5061033761708081565b3480156103c157600080fd5b5061033760075481565b3480156103d757600080fd5b5061039d6103e63660046125cf565b610a47565b3480156103f757600080fd5b5061033761012c81565b34801561040d57600080fd5b5061039d61041c3660046125cf565b610af0565b34801561042d57600080fd5b5061039d61043c36600461260b565b610b10565b61039d61044f3660046126c9565b610c88565b34801561046057600080fd5b50610337610ca3565b34801561047557600080fd5b506104c2610484366004612570565b6001602081905260009182526040909120805491810154600282015460038301546004909301546001600160a01b0394851694929391929091169085565b604080516001600160a01b03968716815260208101959095528401929092529092166060820152608081019190915260a0016102f7565b34801561050557600080fd5b50600654610365906001600160a01b031681565b34801561052557600080fd5b50610365610534366004612570565b610cd2565b34801561054557600080fd5b5061033761055436600461260b565b610cdd565b34801561056557600080fd5b5061039d610d64565b34801561057a57600080fd5b5061036561058936600461260b565b6000602081905290815260409020546001600160a01b031681565b3480156105b057600080fd5b507f9016d09d72d40fdae2fd8ceac6b6234c7706214fd39c1cd1e609a0528c199300546001600160a01b0316610365565b3480156105ed57600080fd5b50610315610d78565b34801561060257600080fd5b506103656106113660046125a5565b610dc9565b61039d610624366004612570565b610e01565b34801561063557600080fd5b5061039d6106443660046125a5565b611286565b34801561065557600080fd5b5061039d610664366004612717565b611298565b34801561067557600080fd5b5061033760025481565b34801561068b57600080fd5b5061039d61069a366004612753565b6112a3565b3480156106ab57600080fd5b506103156040518060400160405280600581526020017f352e302e3000000000000000000000000000000000000000000000000000000081525081565b3480156106f457600080fd5b5061039d610703366004612786565b61137b565b34801561071457600080fd5b5061039d61072336600461260b565b611392565b34801561073457600080fd5b50610315610743366004612570565b61154b565b34801561075457600080fd5b50600554610365906001600160a01b031681565b34801561077457600080fd5b506103376103b181565b34801561078a57600080fd5b50600354610365906001600160a01b031681565b3480156107aa57600080fd5b506103376115e5565b3480156107bf57600080fd5b506102eb6107ce3660046127ee565b6001600160a01b0391821660009081527f80bb2b638cc20bc4d0a60d66940f3ab4a00c1d7b313497ca82fb0b4ab00793056020908152604080832093909416825291909152205460ff1690565b34801561082757600080fd5b50610337606481565b34801561083c57600080fd5b50600454610365906001600160a01b031681565b34801561085c57600080fd5b5061033761086b36600461260b565b60096020526000908152604090205481565b34801561088957600080fd5b5061039d61089836600461260b565b611603565b60006001600160e01b031982167f80ac58cd00000000000000000000000000000000000000000000000000000000148061090057506001600160e01b031982167f5b5e139f00000000000000000000000000000000000000000000000000000000145b8061093457507f01ffc9a7000000000000000000000000000000000000000000000000000000006001600160e01b03198316145b92915050565b7f80bb2b638cc20bc4d0a60d66940f3ab4a00c1d7b313497ca82fb0b4ab0079300805460609190819061096c90612821565b80601f016020809104026020016040519081016040528092919081815260200182805461099890612821565b80156109e55780601f106109ba576101008083540402835291602001916109e5565b820191906000526020600020905b8154815290600101906020018083116109c857829003601f168201915b505050505091505090565b60006109fb8261165a565b5060008281527f80bb2b638cc20bc4d0a60d66940f3ab4a00c1d7b313497ca82fb0b4ab007930460205260409020546001600160a01b0316610934565b610a438282336116b2565b5050565b6001600160a01b038216610a7657604051633250574960e11b8152600060048201526024015b60405180910390fd5b6000610a838383336116bf565b9050836001600160a01b0316816001600160a01b031614610aea576040517f64283d7b0000000000000000000000000000000000000000000000000000000081526001600160a01b0380861660048301526024820184905282166044820152606401610a6d565b50505050565b610b0b8383836040518060200160405280600081525061137b565b505050565b336001600160a01b03821603610b685760405162461bcd60e51b815260206004820152601560248201527f43616e6e6f7420726566657220796f757273656c6600000000000000000000006044820152606401610a6d565b336000908152602081905260409020546001600160a01b031615610bce5760405162461bcd60e51b815260206004820152601460248201527f526566657272657220616c7265616479207365740000000000000000000000006044820152606401610a6d565b6001600160a01b038116610c245760405162461bcd60e51b815260206004820152601f60248201527f526566657272657220616464726573732063616e6e6f74206265207a65726f006044820152606401610a6d565b336000818152602081815260409182902080546001600160a01b0319166001600160a01b0386169081179091558251938452908301527f8a68d2e6f304cf168bbe42336c9c1d160c10033f73e7d85b53222e812b239145910160405180910390a150565b610c90611800565b610c99826118b7565b610a4382826118bf565b6000610cad6119a7565b507f360894a13ba1a3210667c828492db98dca3e2076cc3735a920a3ca505d382bbc90565b60006109348261165a565b60007f80bb2b638cc20bc4d0a60d66940f3ab4a00c1d7b313497ca82fb0b4ab00793006001600160a01b038316610d43576040517f89c62b6400000000000000000000000000000000000000000000000000000000815260006004820152602401610a6d565b6001600160a01b039092166000908152600390920160205250604090205490565b610d6c6119f0565b610d766000611a64565b565b7f80bb2b638cc20bc4d0a60d66940f3ab4a00c1d7b313497ca82fb0b4ab007930180546060917f80bb2b638cc20bc4d0a60d66940f3ab4a00c1d7b313497ca82fb0b4ab00793009161096c90612821565b60086020528160005260406000208181548110610de557600080fd5b6000918252602090912001546001600160a01b03169150829050565b60008181526001602052604090206002810154610e605760405162461bcd60e51b815260206004820152601360248201527f6e6674207072696365206d7573742067742030000000000000000000000000006044820152606401610a6d565b60038101546001600160a01b0316610eba5760405162461bcd60e51b815260206004820152601960248201527f6e66742061646472657373206d757374206e6f74206e756c6c000000000000006044820152606401610a6d565b4281600401541015610f0e5760405162461bcd60e51b815260206004820152600b60248201527f6e66742068617320656e640000000000000000000000000000000000000000006044820152606401610a6d565b60646007548260020154610f229190612871565b610f2c919061289e565b6002820181905560038201546001600160a01b0316906108fc906103e890610f57906103b190612871565b610f61919061289e565b6040518115909202916000818181858888f19350505050158015610f89573d6000803e3d6000fd5b5060055460028201546001600160a01b03909116906108fc906103e890610fb290606490612871565b610fbc919061289e565b6040518115909202916000818181858888f19350505050158015610fe4573d6000803e3d6000fd5b5060035460028201546001600160a01b03909116906108fc906103e89061100e9061012c90612871565b611018919061289e565b6040518115909202916000818181858888f19350505050158015611040573d6000803e3d6000fd5b5060065460028201546001600160a01b03909116906108fc906103e89061106990603290612871565b611073919061289e565b6040518115909202916000818181858888f1935050505015801561109b573d6000803e3d6000fd5b50336000908152602081905260409020546001600160a01b0316158015906110ed57506110c66115e5565b33600090815260208181526040808320546001600160a01b03168352600990915290205410155b1561115b573360009081526020819052604090205460028201546001600160a01b03909116906108fc906103e89061112790606490612871565b611131919061289e565b6040518115909202916000818181858888f19350505050158015611159573d6000803e3d6000fd5b505b6003810180546001600160a01b031916339081179091556002820154600091825260058301602052604082208054919290916111989084906128b2565b90915550508054600382015460018301546040517f23b872dd0000000000000000000000000000000000000000000000000000000081526001600160a01b03928316600482015233602482015260448101919091529116906323b872dd90606401600060405180830381600087803b15801561121357600080fd5b505af1158015611227573d6000803e3d6000fd5b50503360008181526009602052604090819020429055519092507f0e54eff26401bf69b81b26f60bd85ef47f5d85275c1d268d84f68d6897431c47915061127a9085903490918252602082015260400190565b60405180910390a25050565b61128e6119f0565b610a438282611ad5565b610a43338383611aef565b6112ab6119f0565b600280546000916001918391826112c1836128c5565b909155508152602081019190915260400160002080546001600160a01b0386166001600160a01b03199182161782556001820185905560028201849055600382018054909116331790559050611319617080426128b2565b60048201556002547f6ff530872708bbb51bad8ea341564e4ea039807ad1331f61ab4c906a66875daf9061134f906001906128de565b604080519182526001600160a01b0387166020830152810185905260600160405180910390a150505050565b611386848484610a47565b610aea84848484611bcb565b7ff0c57e16840df040f15088dc2f81fe391c3923bec73e23a9662efc9c229c6a00805468010000000000000000810460ff16159067ffffffffffffffff166000811580156113dd5750825b905060008267ffffffffffffffff1660011480156113fa5750303b155b905081158015611408575080155b1561143f576040517ff92ee8a900000000000000000000000000000000000000000000000000000000815260040160405180910390fd5b845467ffffffffffffffff19166001178555831561147357845468ff00000000000000001916680100000000000000001785555b6114e76040518060400160405280600781526020017f4d79546f6b656e000000000000000000000000000000000000000000000000008152506040518060400160405280600381526020017f4d544b0000000000000000000000000000000000000000000000000000000000815250611cf4565b6114f086611d06565b6114f8611d17565b831561154357845468ff000000000000000019168555604051600181527fc7f505b2f371ae2175ee4913f4499e1f2633a7b5936321eed1cdaeb6115181d29060200160405180910390a15b505050505050565b60606115568261165a565b50600061159360408051808201909152600d81527f7777772e62616964752e636f6d00000000000000000000000000000000000000602082015290565b905060008151116115b357604051806020016040528060008152506115de565b806115bd84611d1f565b6040516020016115ce9291906128f1565b6040516020818303038152906040525b9392505050565b60006115f46201518042612920565b6115fe90426128de565b905090565b61160b6119f0565b6001600160a01b03811661164e576040517f1e4fbdf700000000000000000000000000000000000000000000000000000000815260006004820152602401610a6d565b61165781611a64565b50565b60008181527f80bb2b638cc20bc4d0a60d66940f3ab4a00c1d7b313497ca82fb0b4ab007930260205260408120546001600160a01b03168061093457604051637e27328960e01b815260048101849052602401610a6d565b610b0b8383836001611dbf565b60008281527f80bb2b638cc20bc4d0a60d66940f3ab4a00c1d7b313497ca82fb0b4ab007930260205260408120547f80bb2b638cc20bc4d0a60d66940f3ab4a00c1d7b313497ca82fb0b4ab0079300906001600160a01b039081169084161561172d5761172d818587611f3e565b6001600160a01b0381161561176d5761174a600086600080611dbf565b6001600160a01b0381166000908152600383016020526040902080546000190190555b6001600160a01b0386161561179e576001600160a01b03861660009081526003830160205260409020805460010190555b600085815260028301602052604080822080546001600160a01b0319166001600160a01b038a811691821790925591518893918516917fddf252ad1be2c89b69c2b068fc378daa952ba7f163c4a11628f55a4df523b3ef91a495945050505050565b306001600160a01b037f000000000000000000000000000000000000000000000000000000000000000016148061189957507f00000000000000000000000000000000000000000000000000000000000000006001600160a01b031661188d7f360894a13ba1a3210667c828492db98dca3e2076cc3735a920a3ca505d382bbc546001600160a01b031690565b6001600160a01b031614155b15610d765760405163703e46dd60e11b815260040160405180910390fd5b6116576119f0565b816001600160a01b03166352d1902d6040518163ffffffff1660e01b8152600401602060405180830381865afa925050508015611919575060408051601f3d908101601f1916820190925261191691810190612934565b60015b61194157604051634c9c8ce360e01b81526001600160a01b0383166004820152602401610a6d565b7f360894a13ba1a3210667c828492db98dca3e2076cc3735a920a3ca505d382bbc811461199d576040517faa1d49a400000000000000000000000000000000000000000000000000000000815260048101829052602401610a6d565b610b0b8383611fbb565b306001600160a01b037f00000000000000000000000000000000000000000000000000000000000000001614610d765760405163703e46dd60e11b815260040160405180910390fd5b33611a227f9016d09d72d40fdae2fd8ceac6b6234c7706214fd39c1cd1e609a0528c199300546001600160a01b031690565b6001600160a01b031614610d76576040517f118cdaa7000000000000000000000000000000000000000000000000000000008152336004820152602401610a6d565b7f9016d09d72d40fdae2fd8ceac6b6234c7706214fd39c1cd1e609a0528c19930080546001600160a01b031981166001600160a01b03848116918217845560405192169182907f8be0079c531659141344cd1fd0a4f28419497f9722a3daafe3b4186f6b6457e090600090a3505050565b610a43828260405180602001604052806000815250612011565b7f80bb2b638cc20bc4d0a60d66940f3ab4a00c1d7b313497ca82fb0b4ab00793006001600160a01b038316611b5b576040517f5b08ba180000000000000000000000000000000000000000000000000000000081526001600160a01b0384166004820152602401610a6d565b6001600160a01b038481166000818152600584016020908152604080832094881680845294825291829020805460ff191687151590811790915591519182527f17307eab39ab6107e8899845ad3d59bd9653f200f220920489ca2b5937696c31910160405180910390a350505050565b6001600160a01b0383163b15610aea57604051630a85bd0160e11b81526001600160a01b0384169063150b7a0290611c0d90339088908790879060040161294d565b6020604051808303816000875af1925050508015611c48575060408051601f3d908101601f19168201909252611c4591810190612989565b60015b611cb1573d808015611c76576040519150601f19603f3d011682016040523d82523d6000602084013e611c7b565b606091505b508051600003611ca957604051633250574960e11b81526001600160a01b0385166004820152602401610a6d565b805181602001fd5b6001600160e01b03198116630a85bd0160e11b14611ced57604051633250574960e11b81526001600160a01b0385166004820152602401610a6d565b5050505050565b611cfc612028565b610a43828261208f565b611d0e612028565b611657816120d2565b610d76612028565b60606000611d2c836120da565b600101905060008167ffffffffffffffff811115611d4c57611d4c612626565b6040519080825280601f01601f191660200182016040528015611d76576020820181803683370190505b5090508181016020015b600019017f3031323334353637383961626364656600000000000000000000000000000000600a86061a8153600a8504945084611d8057509392505050565b7f80bb2b638cc20bc4d0a60d66940f3ab4a00c1d7b313497ca82fb0b4ab00793008180611df457506001600160a01b03831615155b15611f0d576000611e048561165a565b90506001600160a01b03841615801590611e305750836001600160a01b0316816001600160a01b031614155b8015611e8157506001600160a01b0380821660009081527f80bb2b638cc20bc4d0a60d66940f3ab4a00c1d7b313497ca82fb0b4ab0079305602090815260408083209388168352929052205460ff16155b15611ec3576040517fa9fbf51f0000000000000000000000000000000000000000000000000000000081526001600160a01b0385166004820152602401610a6d565b8215611f0b5784866001600160a01b0316826001600160a01b03167f8c5be1e5ebec7d5bd14f71427d1e84f3dd0314c0f7b2291e5b200ac8c7c3b92560405160405180910390a45b505b600093845260040160205250506040902080546001600160a01b0319166001600160a01b0392909216919091179055565b611f498383836121bc565b610b0b576001600160a01b038316611f7757604051637e27328960e01b815260048101829052602401610a6d565b6040517f177e802f0000000000000000000000000000000000000000000000000000000081526001600160a01b038316600482015260248101829052604401610a6d565b611fc482612280565b6040516001600160a01b038316907fbc7cd75a20ee27fd9adebab32041f755214dbc6bffa90cc0225b39da2e5c2d3b90600090a280511561200957610b0b82826122f7565b610a4361236d565b61201b83836123a5565b610b0b6000848484611bcb565b7ff0c57e16840df040f15088dc2f81fe391c3923bec73e23a9662efc9c229c6a005468010000000000000000900460ff16610d76576040517fd7e6bcf800000000000000000000000000000000000000000000000000000000815260040160405180910390fd5b612097612028565b7f80bb2b638cc20bc4d0a60d66940f3ab4a00c1d7b313497ca82fb0b4ab0079300806120c384826129ee565b5060018101610aea83826129ee565b61160b612028565b6000807a184f03e93ff9f4daa797ed6e38ed64bf6a1f0100000000000000008310612123577a184f03e93ff9f4daa797ed6e38ed64bf6a1f010000000000000000830492506040015b6d04ee2d6d415b85acef8100000000831061214f576d04ee2d6d415b85acef8100000000830492506020015b662386f26fc10000831061216d57662386f26fc10000830492506010015b6305f5e1008310612185576305f5e100830492506008015b612710831061219957612710830492506004015b606483106121ab576064830492506002015b600a83106109345760010192915050565b60006001600160a01b038316158015906122785750826001600160a01b0316846001600160a01b0316148061223557506001600160a01b0380851660009081527f80bb2b638cc20bc4d0a60d66940f3ab4a00c1d7b313497ca82fb0b4ab0079305602090815260408083209387168352929052205460ff165b80612278575060008281527f80bb2b638cc20bc4d0a60d66940f3ab4a00c1d7b313497ca82fb0b4ab007930460205260409020546001600160a01b038481169116145b949350505050565b806001600160a01b03163b6000036122b657604051634c9c8ce360e01b81526001600160a01b0382166004820152602401610a6d565b7f360894a13ba1a3210667c828492db98dca3e2076cc3735a920a3ca505d382bbc80546001600160a01b0319166001600160a01b0392909216919091179055565b6060600080846001600160a01b0316846040516123149190612aae565b600060405180830381855af49150503d806000811461234f576040519150601f19603f3d011682016040523d82523d6000602084013e612354565b606091505b5091509150612364858383612423565b95945050505050565b3415610d76576040517fb398979f00000000000000000000000000000000000000000000000000000000815260040160405180910390fd5b6001600160a01b0382166123cf57604051633250574960e11b815260006004820152602401610a6d565b60006123dd838360006116bf565b90506001600160a01b03811615610b0b576040517f73c6ac6e00000000000000000000000000000000000000000000000000000000815260006004820152602401610a6d565b6060826124385761243382612498565b6115de565b815115801561244f57506001600160a01b0384163b155b15612491576040517f9996b3150000000000000000000000000000000000000000000000000000000081526001600160a01b0385166004820152602401610a6d565b50806115de565b8051156124a85780518082602001fd5b6040517fd6bda27500000000000000000000000000000000000000000000000000000000815260040160405180910390fd5b6001600160e01b03198116811461165757600080fd5b60006020828403121561250257600080fd5b81356115de816124da565b60005b83811015612528578181015183820152602001612510565b50506000910152565b6000815180845261254981602086016020860161250d565b601f01601f19169290920160200192915050565b6020815260006115de6020830184612531565b60006020828403121561258257600080fd5b5035919050565b80356001600160a01b03811681146125a057600080fd5b919050565b600080604083850312156125b857600080fd5b6125c183612589565b946020939093013593505050565b6000806000606084860312156125e457600080fd5b6125ed84612589565b92506125fb60208501612589565b9150604084013590509250925092565b60006020828403121561261d57600080fd5b6115de82612589565b634e487b7160e01b600052604160045260246000fd5b600082601f83011261264d57600080fd5b813567ffffffffffffffff8082111561266857612668612626565b604051601f8301601f19908116603f0116810190828211818310171561269057612690612626565b816040528381528660208588010111156126a957600080fd5b836020870160208301376000602085830101528094505050505092915050565b600080604083850312156126dc57600080fd5b6126e583612589565b9150602083013567ffffffffffffffff81111561270157600080fd5b61270d8582860161263c565b9150509250929050565b6000806040838503121561272a57600080fd5b61273383612589565b91506020830135801515811461274857600080fd5b809150509250929050565b60008060006060848603121561276857600080fd5b61277184612589565b95602085013595506040909401359392505050565b6000806000806080858703121561279c57600080fd5b6127a585612589565b93506127b360208601612589565b925060408501359150606085013567ffffffffffffffff8111156127d657600080fd5b6127e28782880161263c565b91505092959194509250565b6000806040838503121561280157600080fd5b61280a83612589565b915061281860208401612589565b90509250929050565b600181811c9082168061283557607f821691505b60208210810361285557634e487b7160e01b600052602260045260246000fd5b50919050565b634e487b7160e01b600052601160045260246000fd5b80820281158282048414176109345761093461285b565b634e487b7160e01b600052601260045260246000fd5b6000826128ad576128ad612888565b500490565b808201808211156109345761093461285b565b6000600182016128d7576128d761285b565b5060010190565b818103818111156109345761093461285b565b6000835161290381846020880161250d565b83519083019061291781836020880161250d565b01949350505050565b60008261292f5761292f612888565b500690565b60006020828403121561294657600080fd5b5051919050565b60006001600160a01b0380871683528086166020840152508360408301526080606083015261297f6080830184612531565b9695505050505050565b60006020828403121561299b57600080fd5b81516115de816124da565b601f821115610b0b576000816000526020600020601f850160051c810160208610156129cf5750805b601f850160051c820191505b81811015611543578281556001016129db565b815167ffffffffffffffff811115612a0857612a08612626565b612a1c81612a168454612821565b846129a6565b602080601f831160018114612a515760008415612a395750858301515b600019600386901b1c1916600185901b178555611543565b600085815260208120601f198616915b82811015612a8057888601518255948401946001909101908401612a61565b5085821015612a9e5787850151600019600388901b60f8161c191681555b5050505050600190811b01905550565b60008251612ac081846020870161250d565b919091019291505056fea2646970667358221220d956b47b2160ec303ca310e55798ae2a81a21db5aaa6e7d49b7aa896a7fb42fe64736f6c63430008190033","opcodes":"PUSH1 0xA0 PUSH1 0x40 MSTORE ADDRESS PUSH1 0x80 MSTORE PUSH1 0x3 DUP1 SLOAD PUSH20 0x1CDE2D7D9D160B2299A87A3B335DD74D87B9F948 PUSH1 0x1 PUSH1 0x1 PUSH1 0xA0 SHL SUB NOT SWAP2 DUP3 AND DUP2 OR SWAP1 SWAP3 SSTORE PUSH1 0x4 DUP1 SLOAD DUP3 AND DUP4 OR SWAP1 SSTORE PUSH1 0x5 DUP1 SLOAD DUP3 AND DUP4 OR SWAP1 SSTORE PUSH1 0x6 DUP1 SLOAD SWAP1 SWAP2 AND SWAP1 SWAP2 OR SWAP1 SSTORE PUSH1 0x6E PUSH1 0x7 SSTORE CALLVALUE DUP1 ISZERO PUSH1 0x62 JUMPI PUSH1 0x0 DUP1 REVERT JUMPDEST POP PUSH1 0x80 MLOAD PUSH2 0x2B00 PUSH2 0x8C PUSH1 0x0 CODECOPY PUSH1 0x0 DUP2 DUP2 PUSH2 0x180B ADD MSTORE DUP2 DUP2 PUSH2 0x1834 ADD MSTORE PUSH2 0x19B2 ADD MSTORE PUSH2 0x2B00 PUSH1 0x0 RETURN INVALID PUSH1 0x80 PUSH1 0x40 MSTORE PUSH1 0x4 CALLDATASIZE LT PUSH2 0x2C6 JUMPI PUSH1 0x0 CALLDATALOAD PUSH1 0xE0 SHR DUP1 PUSH4 0x95D89B41 GT PUSH2 0x179 JUMPI DUP1 PUSH4 0xC87B56DD GT PUSH2 0xD6 JUMPI DUP1 PUSH4 0xE985E9C5 GT PUSH2 0x8A JUMPI DUP1 PUSH4 0xEF29A3CC GT PUSH2 0x64 JUMPI DUP1 PUSH4 0xEF29A3CC EQ PUSH2 0x850 JUMPI DUP1 PUSH4 0xF2FDE38B EQ PUSH2 0x87D JUMPI DUP1 PUSH4 0xF3D428AE EQ PUSH2 0x81B JUMPI PUSH1 0x0 DUP1 REVERT JUMPDEST DUP1 PUSH4 0xE985E9C5 EQ PUSH2 0x7B3 JUMPI DUP1 PUSH4 0xED2D7519 EQ PUSH2 0x81B JUMPI DUP1 PUSH4 0xEEB20B71 EQ PUSH2 0x830 JUMPI PUSH1 0x0 DUP1 REVERT JUMPDEST DUP1 PUSH4 0xD9753930 GT PUSH2 0xBB JUMPI DUP1 PUSH4 0xD9753930 EQ PUSH2 0x768 JUMPI DUP1 PUSH4 0xDEE0DA62 EQ PUSH2 0x77E JUMPI DUP1 PUSH4 0xE0C858AD EQ PUSH2 0x79E JUMPI PUSH1 0x0 DUP1 REVERT JUMPDEST DUP1 PUSH4 0xC87B56DD EQ PUSH2 0x728 JUMPI DUP1 PUSH4 0xD3ED5EC6 EQ PUSH2 0x748 JUMPI PUSH1 0x0 DUP1 REVERT JUMPDEST DUP1 PUSH4 0xA7E76644 GT PUSH2 0x12D JUMPI DUP1 PUSH4 0xAD3CB1CC GT PUSH2 0x112 JUMPI DUP1 PUSH4 0xAD3CB1CC EQ PUSH2 0x69F JUMPI DUP1 PUSH4 0xB88D4FDE EQ PUSH2 0x6E8 JUMPI DUP1 PUSH4 0xC4D66DE8 EQ PUSH2 0x708 JUMPI PUSH1 0x0 DUP1 REVERT JUMPDEST DUP1 PUSH4 0xA7E76644 EQ PUSH2 0x669 JUMPI DUP1 PUSH4 0xABB94051 EQ PUSH2 0x67F JUMPI PUSH1 0x0 DUP1 REVERT JUMPDEST DUP1 PUSH4 0x9979EF45 GT PUSH2 0x15E JUMPI DUP1 PUSH4 0x9979EF45 EQ PUSH2 0x616 JUMPI DUP1 PUSH4 0xA1448194 EQ PUSH2 0x629 JUMPI DUP1 PUSH4 0xA22CB465 EQ PUSH2 0x649 JUMPI PUSH1 0x0 DUP1 REVERT JUMPDEST DUP1 PUSH4 0x95D89B41 EQ PUSH2 0x5E1 JUMPI DUP1 PUSH4 0x989BAF69 EQ PUSH2 0x5F6 JUMPI PUSH1 0x0 DUP1 REVERT JUMPDEST DUP1 PUSH4 0x4697E2F5 GT PUSH2 0x227 JUMPI DUP1 PUSH4 0x6352211E GT PUSH2 0x1DB JUMPI DUP1 PUSH4 0x715018A6 GT PUSH2 0x1C0 JUMPI DUP1 PUSH4 0x715018A6 EQ PUSH2 0x559 JUMPI DUP1 PUSH4 0x7C3FCC38 EQ PUSH2 0x56E JUMPI DUP1 PUSH4 0x8DA5CB5B EQ PUSH2 0x5A4 JUMPI PUSH1 0x0 DUP1 REVERT JUMPDEST DUP1 PUSH4 0x6352211E EQ PUSH2 0x519 JUMPI DUP1 PUSH4 0x70A08231 EQ PUSH2 0x539 JUMPI PUSH1 0x0 DUP1 REVERT JUMPDEST DUP1 PUSH4 0x52D1902D GT PUSH2 0x20C JUMPI DUP1 PUSH4 0x52D1902D EQ PUSH2 0x454 JUMPI DUP1 PUSH4 0x571A26A0 EQ PUSH2 0x469 JUMPI DUP1 PUSH4 0x5AAF2C10 EQ PUSH2 0x4F9 JUMPI PUSH1 0x0 DUP1 REVERT JUMPDEST DUP1 PUSH4 0x4697E2F5 EQ PUSH2 0x421 JUMPI DUP1 PUSH4 0x4F1EF286 EQ PUSH2 0x441 JUMPI PUSH1 0x0 DUP1 REVERT JUMPDEST DUP1 PUSH4 0x12C98042 GT PUSH2 0x27E JUMPI DUP1 PUSH4 0x23B872DD GT PUSH2 0x263 JUMPI DUP1 PUSH4 0x23B872DD EQ PUSH2 0x3CB JUMPI DUP1 PUSH4 0x38ECD620 EQ PUSH2 0x3EB JUMPI DUP1 PUSH4 0x42842E0E EQ PUSH2 0x401 JUMPI PUSH1 0x0 DUP1 REVERT JUMPDEST DUP1 PUSH4 0x12C98042 EQ PUSH2 0x39F JUMPI DUP1 PUSH4 0x1B8D2068 EQ PUSH2 0x3B5 JUMPI PUSH1 0x0 DUP1 REVERT JUMPDEST DUP1 PUSH4 0x7E0D93C GT PUSH2 0x2AF JUMPI DUP1 PUSH4 0x7E0D93C EQ PUSH2 0x322 JUMPI DUP1 PUSH4 0x81812FC EQ PUSH2 0x345 JUMPI DUP1 PUSH4 0x95EA7B3 EQ PUSH2 0x37D JUMPI PUSH1 0x0 DUP1 REVERT JUMPDEST DUP1 PUSH4 0x1FFC9A7 EQ PUSH2 0x2CB JUMPI DUP1 PUSH4 0x6FDDE03 EQ PUSH2 0x300 JUMPI JUMPDEST PUSH1 0x0 DUP1 REVERT JUMPDEST CALLVALUE DUP1 ISZERO PUSH2 0x2D7 JUMPI PUSH1 0x0 DUP1 REVERT JUMPDEST POP PUSH2 0x2EB PUSH2 0x2E6 CALLDATASIZE PUSH1 0x4 PUSH2 0x24F0 JUMP JUMPDEST PUSH2 0x89D JUMP JUMPDEST PUSH1 0x40 MLOAD SWAP1 ISZERO ISZERO DUP2 MSTORE PUSH1 0x20 ADD JUMPDEST PUSH1 0x40 MLOAD DUP1 SWAP2 SUB SWAP1 RETURN JUMPDEST CALLVALUE DUP1 ISZERO PUSH2 0x30C JUMPI PUSH1 0x0 DUP1 REVERT JUMPDEST POP PUSH2 0x315 PUSH2 0x93A JUMP JUMPDEST PUSH1 0x40 MLOAD PUSH2 0x2F7 SWAP2 SWAP1 PUSH2 0x255D JUMP JUMPDEST CALLVALUE DUP1 ISZERO PUSH2 0x32E JUMPI PUSH1 0x0 DUP1 REVERT JUMPDEST POP PUSH2 0x337 PUSH1 0x32 DUP2 JUMP JUMPDEST PUSH1 0x40 MLOAD SWAP1 DUP2 MSTORE PUSH1 0x20 ADD PUSH2 0x2F7 JUMP JUMPDEST CALLVALUE DUP1 ISZERO PUSH2 0x351 JUMPI PUSH1 0x0 DUP1 REVERT JUMPDEST POP PUSH2 0x365 PUSH2 0x360 CALLDATASIZE PUSH1 0x4 PUSH2 0x2570 JUMP JUMPDEST PUSH2 0x9F0 JUMP JUMPDEST PUSH1 0x40 MLOAD PUSH1 0x1 PUSH1 0x1 PUSH1 0xA0 SHL SUB SWAP1 SWAP2 AND DUP2 MSTORE PUSH1 0x20 ADD PUSH2 0x2F7 JUMP JUMPDEST CALLVALUE DUP1 ISZERO PUSH2 0x389 JUMPI PUSH1 0x0 DUP1 REVERT JUMPDEST POP PUSH2 0x39D PUSH2 0x398 CALLDATASIZE PUSH1 0x4 PUSH2 0x25A5 JUMP JUMPDEST PUSH2 0xA38 JUMP JUMPDEST STOP JUMPDEST CALLVALUE DUP1 ISZERO PUSH2 0x3AB JUMPI PUSH1 0x0 DUP1 REVERT JUMPDEST POP PUSH2 0x337 PUSH2 0x7080 DUP2 JUMP JUMPDEST CALLVALUE DUP1 ISZERO PUSH2 0x3C1 JUMPI PUSH1 0x0 DUP1 REVERT JUMPDEST POP PUSH2 0x337 PUSH1 0x7 SLOAD DUP2 JUMP JUMPDEST CALLVALUE DUP1 ISZERO PUSH2 0x3D7 JUMPI PUSH1 0x0 DUP1 REVERT JUMPDEST POP PUSH2 0x39D PUSH2 0x3E6 CALLDATASIZE PUSH1 0x4 PUSH2 0x25CF JUMP JUMPDEST PUSH2 0xA47 JUMP JUMPDEST CALLVALUE DUP1 ISZERO PUSH2 0x3F7 JUMPI PUSH1 0x0 DUP1 REVERT JUMPDEST POP PUSH2 0x337 PUSH2 0x12C DUP2 JUMP JUMPDEST CALLVALUE DUP1 ISZERO PUSH2 0x40D JUMPI PUSH1 0x0 DUP1 REVERT JUMPDEST POP PUSH2 0x39D PUSH2 0x41C CALLDATASIZE PUSH1 0x4 PUSH2 0x25CF JUMP JUMPDEST PUSH2 0xAF0 JUMP JUMPDEST CALLVALUE DUP1 ISZERO PUSH2 0x42D JUMPI PUSH1 0x0 DUP1 REVERT JUMPDEST POP PUSH2 0x39D PUSH2 0x43C CALLDATASIZE PUSH1 0x4 PUSH2 0x260B JUMP JUMPDEST PUSH2 0xB10 JUMP JUMPDEST PUSH2 0x39D PUSH2 0x44F CALLDATASIZE PUSH1 0x4 PUSH2 0x26C9 JUMP JUMPDEST PUSH2 0xC88 JUMP JUMPDEST CALLVALUE DUP1 ISZERO PUSH2 0x460 JUMPI PUSH1 0x0 DUP1 REVERT JUMPDEST POP PUSH2 0x337 PUSH2 0xCA3 JUMP JUMPDEST CALLVALUE DUP1 ISZERO PUSH2 0x475 JUMPI PUSH1 0x0 DUP1 REVERT JUMPDEST POP PUSH2 0x4C2 PUSH2 0x484 CALLDATASIZE PUSH1 0x4 PUSH2 0x2570 JUMP JUMPDEST PUSH1 0x1 PUSH1 0x20 DUP2 SWAP1 MSTORE PUSH1 0x0 SWAP2 DUP3 MSTORE PUSH1 0x40 SWAP1 SWAP2 KECCAK256 DUP1 SLOAD SWAP2 DUP2 ADD SLOAD PUSH1 0x2 DUP3 ADD SLOAD PUSH1 0x3 DUP4 ADD SLOAD PUSH1 0x4 SWAP1 SWAP4 ADD SLOAD PUSH1 0x1 PUSH1 0x1 PUSH1 0xA0 SHL SUB SWAP5 DUP6 AND SWAP5 SWAP3 SWAP4 SWAP2 SWAP3 SWAP1 SWAP2 AND SWAP1 DUP6 JUMP JUMPDEST PUSH1 0x40 DUP1 MLOAD PUSH1 0x1 PUSH1 0x1 PUSH1 0xA0 SHL SUB SWAP7 DUP8 AND DUP2 MSTORE PUSH1 0x20 DUP2 ADD SWAP6 SWAP1 SWAP6 MSTORE DUP5 ADD SWAP3 SWAP1 SWAP3 MSTORE SWAP1 SWAP3 AND PUSH1 0x60 DUP3 ADD MSTORE PUSH1 0x80 DUP2 ADD SWAP2 SWAP1 SWAP2 MSTORE PUSH1 0xA0 ADD PUSH2 0x2F7 JUMP JUMPDEST CALLVALUE DUP1 ISZERO PUSH2 0x505 JUMPI PUSH1 0x0 DUP1 REVERT JUMPDEST POP PUSH1 0x6 SLOAD PUSH2 0x365 SWAP1 PUSH1 0x1 PUSH1 0x1 PUSH1 0xA0 SHL SUB AND DUP2 JUMP JUMPDEST CALLVALUE DUP1 ISZERO PUSH2 0x525 JUMPI PUSH1 0x0 DUP1 REVERT JUMPDEST POP PUSH2 0x365 PUSH2 0x534 CALLDATASIZE PUSH1 0x4 PUSH2 0x2570 JUMP JUMPDEST PUSH2 0xCD2 JUMP JUMPDEST CALLVALUE DUP1 ISZERO PUSH2 0x545 JUMPI PUSH1 0x0 DUP1 REVERT JUMPDEST POP PUSH2 0x337 PUSH2 0x554 CALLDATASIZE PUSH1 0x4 PUSH2 0x260B JUMP JUMPDEST PUSH2 0xCDD JUMP JUMPDEST CALLVALUE DUP1 ISZERO PUSH2 0x565 JUMPI PUSH1 0x0 DUP1 REVERT JUMPDEST POP PUSH2 0x39D PUSH2 0xD64 JUMP JUMPDEST CALLVALUE DUP1 ISZERO PUSH2 0x57A JUMPI PUSH1 0x0 DUP1 REVERT JUMPDEST POP PUSH2 0x365 PUSH2 0x589 CALLDATASIZE PUSH1 0x4 PUSH2 0x260B JUMP JUMPDEST PUSH1 0x0 PUSH1 0x20 DUP2 SWAP1 MSTORE SWAP1 DUP2 MSTORE PUSH1 0x40 SWAP1 KECCAK256 SLOAD PUSH1 0x1 PUSH1 0x1 PUSH1 0xA0 SHL SUB AND DUP2 JUMP JUMPDEST CALLVALUE DUP1 ISZERO PUSH2 0x5B0 JUMPI PUSH1 0x0 DUP1 REVERT JUMPDEST POP PUSH32 0x9016D09D72D40FDAE2FD8CEAC6B6234C7706214FD39C1CD1E609A0528C199300 SLOAD PUSH1 0x1 PUSH1 0x1 PUSH1 0xA0 SHL SUB AND PUSH2 0x365 JUMP JUMPDEST CALLVALUE DUP1 ISZERO PUSH2 0x5ED JUMPI PUSH1 0x0 DUP1 REVERT JUMPDEST POP PUSH2 0x315 PUSH2 0xD78 JUMP JUMPDEST CALLVALUE DUP1 ISZERO PUSH2 0x602 JUMPI PUSH1 0x0 DUP1 REVERT JUMPDEST POP PUSH2 0x365 PUSH2 0x611 CALLDATASIZE PUSH1 0x4 PUSH2 0x25A5 JUMP JUMPDEST PUSH2 0xDC9 JUMP JUMPDEST PUSH2 0x39D PUSH2 0x624 CALLDATASIZE PUSH1 0x4 PUSH2 0x2570 JUMP JUMPDEST PUSH2 0xE01 JUMP JUMPDEST CALLVALUE DUP1 ISZERO PUSH2 0x635 JUMPI PUSH1 0x0 DUP1 REVERT JUMPDEST POP PUSH2 0x39D PUSH2 0x644 CALLDATASIZE PUSH1 0x4 PUSH2 0x25A5 JUMP JUMPDEST PUSH2 0x1286 JUMP JUMPDEST CALLVALUE DUP1 ISZERO PUSH2 0x655 JUMPI PUSH1 0x0 DUP1 REVERT JUMPDEST POP PUSH2 0x39D PUSH2 0x664 CALLDATASIZE PUSH1 0x4 PUSH2 0x2717 JUMP JUMPDEST PUSH2 0x1298 JUMP JUMPDEST CALLVALUE DUP1 ISZERO PUSH2 0x675 JUMPI PUSH1 0x0 DUP1 REVERT JUMPDEST POP PUSH2 0x337 PUSH1 0x2 SLOAD DUP2 JUMP JUMPDEST CALLVALUE DUP1 ISZERO PUSH2 0x68B JUMPI PUSH1 0x0 DUP1 REVERT JUMPDEST POP PUSH2 0x39D PUSH2 0x69A CALLDATASIZE PUSH1 0x4 PUSH2 0x2753 JUMP JUMPDEST PUSH2 0x12A3 JUMP JUMPDEST CALLVALUE DUP1 ISZERO PUSH2 0x6AB JUMPI PUSH1 0x0 DUP1 REVERT JUMPDEST POP PUSH2 0x315 PUSH1 0x40 MLOAD DUP1 PUSH1 0x40 ADD PUSH1 0x40 MSTORE DUP1 PUSH1 0x5 DUP2 MSTORE PUSH1 0x20 ADD PUSH32 0x352E302E30000000000000000000000000000000000000000000000000000000 DUP2 MSTORE POP DUP2 JUMP JUMPDEST CALLVALUE DUP1 ISZERO PUSH2 0x6F4 JUMPI PUSH1 0x0 DUP1 REVERT JUMPDEST POP PUSH2 0x39D PUSH2 0x703 CALLDATASIZE PUSH1 0x4 PUSH2 0x2786 JUMP JUMPDEST PUSH2 0x137B JUMP JUMPDEST CALLVALUE DUP1 ISZERO PUSH2 0x714 JUMPI PUSH1 0x0 DUP1 REVERT JUMPDEST POP PUSH2 0x39D PUSH2 0x723 CALLDATASIZE PUSH1 0x4 PUSH2 0x260B JUMP JUMPDEST PUSH2 0x1392 JUMP JUMPDEST CALLVALUE DUP1 ISZERO PUSH2 0x734 JUMPI PUSH1 0x0 DUP1 REVERT JUMPDEST POP PUSH2 0x315 PUSH2 0x743 CALLDATASIZE PUSH1 0x4 PUSH2 0x2570 JUMP JUMPDEST PUSH2 0x154B JUMP JUMPDEST CALLVALUE DUP1 ISZERO PUSH2 0x754 JUMPI PUSH1 0x0 DUP1 REVERT JUMPDEST POP PUSH1 0x5 SLOAD PUSH2 0x365 SWAP1 PUSH1 0x1 PUSH1 0x1 PUSH1 0xA0 SHL SUB AND DUP2 JUMP JUMPDEST CALLVALUE DUP1 ISZERO PUSH2 0x774 JUMPI PUSH1 0x0 DUP1 REVERT JUMPDEST POP PUSH2 0x337 PUSH2 0x3B1 DUP2 JUMP JUMPDEST CALLVALUE DUP1 ISZERO PUSH2 0x78A JUMPI PUSH1 0x0 DUP1 REVERT JUMPDEST POP PUSH1 0x3 SLOAD PUSH2 0x365 SWAP1 PUSH1 0x1 PUSH1 0x1 PUSH1 0xA0 SHL SUB AND DUP2 JUMP JUMPDEST CALLVALUE DUP1 ISZERO PUSH2 0x7AA JUMPI PUSH1 0x0 DUP1 REVERT JUMPDEST POP PUSH2 0x337 PUSH2 0x15E5 JUMP JUMPDEST CALLVALUE DUP1 ISZERO PUSH2 0x7BF JUMPI PUSH1 0x0 DUP1 REVERT JUMPDEST POP PUSH2 0x2EB PUSH2 0x7CE CALLDATASIZE PUSH1 0x4 PUSH2 0x27EE JUMP JUMPDEST PUSH1 0x1 PUSH1 0x1 PUSH1 0xA0 SHL SUB SWAP2 DUP3 AND PUSH1 0x0 SWAP1 DUP2 MSTORE PUSH32 0x80BB2B638CC20BC4D0A60D66940F3AB4A00C1D7B313497CA82FB0B4AB0079305 PUSH1 0x20 SWAP1 DUP2 MSTORE PUSH1 0x40 DUP1 DUP4 KECCAK256 SWAP4 SWAP1 SWAP5 AND DUP3 MSTORE SWAP2 SWAP1 SWAP2 MSTORE KECCAK256 SLOAD PUSH1 0xFF AND SWAP1 JUMP JUMPDEST CALLVALUE DUP1 ISZERO PUSH2 0x827 JUMPI PUSH1 0x0 DUP1 REVERT JUMPDEST POP PUSH2 0x337 PUSH1 0x64 DUP2 JUMP JUMPDEST CALLVALUE DUP1 ISZERO PUSH2 0x83C JUMPI PUSH1 0x0 DUP1 REVERT JUMPDEST POP PUSH1 0x4 SLOAD PUSH2 0x365 SWAP1 PUSH1 0x1 PUSH1 0x1 PUSH1 0xA0 SHL SUB AND DUP2 JUMP JUMPDEST CALLVALUE DUP1 ISZERO PUSH2 0x85C JUMPI PUSH1 0x0 DUP1 REVERT JUMPDEST POP PUSH2 0x337 PUSH2 0x86B CALLDATASIZE PUSH1 0x4 PUSH2 0x260B JUMP JUMPDEST PUSH1 0x9 PUSH1 0x20 MSTORE PUSH1 0x0 SWAP1 DUP2 MSTORE PUSH1 0x40 SWAP1 KECCAK256 SLOAD DUP2 JUMP JUMPDEST CALLVALUE DUP1 ISZERO PUSH2 0x889 JUMPI PUSH1 0x0 DUP1 REVERT JUMPDEST POP PUSH2 0x39D PUSH2 0x898 CALLDATASIZE PUSH1 0x4 PUSH2 0x260B JUMP JUMPDEST PUSH2 0x1603 JUMP JUMPDEST PUSH1 0x0 PUSH1 0x1 PUSH1 0x1 PUSH1 0xE0 SHL SUB NOT DUP3 AND PUSH32 0x80AC58CD00000000000000000000000000000000000000000000000000000000 EQ DUP1 PUSH2 0x900 JUMPI POP PUSH1 0x1 PUSH1 0x1 PUSH1 0xE0 SHL SUB NOT DUP3 AND PUSH32 0x5B5E139F00000000000000000000000000000000000000000000000000000000 EQ JUMPDEST DUP1 PUSH2 0x934 JUMPI POP PUSH32 0x1FFC9A700000000000000000000000000000000000000000000000000000000 PUSH1 0x1 PUSH1 0x1 PUSH1 0xE0 SHL SUB NOT DUP4 AND EQ JUMPDEST SWAP3 SWAP2 POP POP JUMP JUMPDEST PUSH32 0x80BB2B638CC20BC4D0A60D66940F3AB4A00C1D7B313497CA82FB0B4AB0079300 DUP1 SLOAD PUSH1 0x60 SWAP2 SWAP1 DUP2 SWAP1 PUSH2 0x96C SWAP1 PUSH2 0x2821 JUMP JUMPDEST DUP1 PUSH1 0x1F ADD PUSH1 0x20 DUP1 SWAP2 DIV MUL PUSH1 0x20 ADD PUSH1 0x40 MLOAD SWAP1 DUP2 ADD PUSH1 0x40 MSTORE DUP1 SWAP3 SWAP2 SWAP1 DUP2 DUP2 MSTORE PUSH1 0x20 ADD DUP3 DUP1 SLOAD PUSH2 0x998 SWAP1 PUSH2 0x2821 JUMP JUMPDEST DUP1 ISZERO PUSH2 0x9E5 JUMPI DUP1 PUSH1 0x1F LT PUSH2 0x9BA JUMPI PUSH2 0x100 DUP1 DUP4 SLOAD DIV MUL DUP4 MSTORE SWAP2 PUSH1 0x20 ADD SWAP2 PUSH2 0x9E5 JUMP JUMPDEST DUP3 ADD SWAP2 SWAP1 PUSH1 0x0 MSTORE PUSH1 0x20 PUSH1 0x0 KECCAK256 SWAP1 JUMPDEST DUP2 SLOAD DUP2 MSTORE SWAP1 PUSH1 0x1 ADD SWAP1 PUSH1 0x20 ADD DUP1 DUP4 GT PUSH2 0x9C8 JUMPI DUP3 SWAP1 SUB PUSH1 0x1F AND DUP3 ADD SWAP2 JUMPDEST POP POP POP POP POP SWAP2 POP POP SWAP1 JUMP JUMPDEST PUSH1 0x0 PUSH2 0x9FB DUP3 PUSH2 0x165A JUMP JUMPDEST POP PUSH1 0x0 DUP3 DUP2 MSTORE PUSH32 0x80BB2B638CC20BC4D0A60D66940F3AB4A00C1D7B313497CA82FB0B4AB0079304 PUSH1 0x20 MSTORE PUSH1 0x40 SWAP1 KECCAK256 SLOAD PUSH1 0x1 PUSH1 0x1 PUSH1 0xA0 SHL SUB AND PUSH2 0x934 JUMP JUMPDEST PUSH2 0xA43 DUP3 DUP3 CALLER PUSH2 0x16B2 JUMP JUMPDEST POP POP JUMP JUMPDEST PUSH1 0x1 PUSH1 0x1 PUSH1 0xA0 SHL SUB DUP3 AND PUSH2 0xA76 JUMPI PUSH1 0x40 MLOAD PUSH4 0x32505749 PUSH1 0xE1 SHL DUP2 MSTORE PUSH1 0x0 PUSH1 0x4 DUP3 ADD MSTORE PUSH1 0x24 ADD JUMPDEST PUSH1 0x40 MLOAD DUP1 SWAP2 SUB SWAP1 REVERT JUMPDEST PUSH1 0x0 PUSH2 0xA83 DUP4 DUP4 CALLER PUSH2 0x16BF JUMP JUMPDEST SWAP1 POP DUP4 PUSH1 0x1 PUSH1 0x1 PUSH1 0xA0 SHL SUB AND DUP2 PUSH1 0x1 PUSH1 0x1 PUSH1 0xA0 SHL SUB AND EQ PUSH2 0xAEA JUMPI PUSH1 0x40 MLOAD PUSH32 0x64283D7B00000000000000000000000000000000000000000000000000000000 DUP2 MSTORE PUSH1 0x1 PUSH1 0x1 PUSH1 0xA0 SHL SUB DUP1 DUP7 AND PUSH1 0x4 DUP4 ADD MSTORE PUSH1 0x24 DUP3 ADD DUP5 SWAP1 MSTORE DUP3 AND PUSH1 0x44 DUP3 ADD MSTORE PUSH1 0x64 ADD PUSH2 0xA6D JUMP JUMPDEST POP POP POP POP JUMP JUMPDEST PUSH2 0xB0B DUP4 DUP4 DUP4 PUSH1 0x40 MLOAD DUP1 PUSH1 0x20 ADD PUSH1 0x40 MSTORE DUP1 PUSH1 0x0 DUP2 MSTORE POP PUSH2 0x137B JUMP JUMPDEST POP POP POP JUMP JUMPDEST CALLER PUSH1 0x1 PUSH1 0x1 PUSH1 0xA0 SHL SUB DUP3 AND SUB PUSH2 0xB68 JUMPI PUSH1 0x40 MLOAD PUSH3 0x461BCD PUSH1 0xE5 SHL DUP2 MSTORE PUSH1 0x20 PUSH1 0x4 DUP3 ADD MSTORE PUSH1 0x15 PUSH1 0x24 DUP3 ADD MSTORE PUSH32 0x43616E6E6F7420726566657220796F757273656C660000000000000000000000 PUSH1 0x44 DUP3 ADD MSTORE PUSH1 0x64 ADD PUSH2 0xA6D JUMP JUMPDEST CALLER PUSH1 0x0 SWAP1 DUP2 MSTORE PUSH1 0x20 DUP2 SWAP1 MSTORE PUSH1 0x40 SWAP1 KECCAK256 SLOAD PUSH1 0x1 PUSH1 0x1 PUSH1 0xA0 SHL SUB AND ISZERO PUSH2 0xBCE JUMPI PUSH1 0x40 MLOAD PUSH3 0x461BCD PUSH1 0xE5 SHL DUP2 MSTORE PUSH1 0x20 PUSH1 0x4 DUP3 ADD MSTORE PUSH1 0x14 PUSH1 0x24 DUP3 ADD MSTORE PUSH32 0x526566657272657220616C726561647920736574000000000000000000000000 PUSH1 0x44 DUP3 ADD MSTORE PUSH1 0x64 ADD PUSH2 0xA6D JUMP JUMPDEST PUSH1 0x1 PUSH1 0x1 PUSH1 0xA0 SHL SUB DUP2 AND PUSH2 0xC24 JUMPI PUSH1 0x40 MLOAD PUSH3 0x461BCD PUSH1 0xE5 SHL DUP2 MSTORE PUSH1 0x20 PUSH1 0x4 DUP3 ADD MSTORE PUSH1 0x1F PUSH1 0x24 DUP3 ADD MSTORE PUSH32 0x526566657272657220616464726573732063616E6E6F74206265207A65726F00 PUSH1 0x44 DUP3 ADD MSTORE PUSH1 0x64 ADD PUSH2 0xA6D JUMP JUMPDEST CALLER PUSH1 0x0 DUP2 DUP2 MSTORE PUSH1 0x20 DUP2 DUP2 MSTORE PUSH1 0x40 SWAP2 DUP3 SWAP1 KECCAK256 DUP1 SLOAD PUSH1 0x1 PUSH1 0x1 PUSH1 0xA0 SHL SUB NOT AND PUSH1 0x1 PUSH1 0x1 PUSH1 0xA0 SHL SUB DUP7 AND SWAP1 DUP2 OR SWAP1 SWAP2 SSTORE DUP3 MLOAD SWAP4 DUP5 MSTORE SWAP1 DUP4 ADD MSTORE PUSH32 0x8A68D2E6F304CF168BBE42336C9C1D160C10033F73E7D85B53222E812B239145 SWAP2 ADD PUSH1 0x40 MLOAD DUP1 SWAP2 SUB SWAP1 LOG1 POP JUMP JUMPDEST PUSH2 0xC90 PUSH2 0x1800 JUMP JUMPDEST PUSH2 0xC99 DUP3 PUSH2 0x18B7 JUMP JUMPDEST PUSH2 0xA43 DUP3 DUP3 PUSH2 0x18BF JUMP JUMPDEST PUSH1 0x0 PUSH2 0xCAD PUSH2 0x19A7 JUMP JUMPDEST POP PUSH32 0x360894A13BA1A3210667C828492DB98DCA3E2076CC3735A920A3CA505D382BBC SWAP1 JUMP JUMPDEST PUSH1 0x0 PUSH2 0x934 DUP3 PUSH2 0x165A JUMP JUMPDEST PUSH1 0x0 PUSH32 0x80BB2B638CC20BC4D0A60D66940F3AB4A00C1D7B313497CA82FB0B4AB0079300 PUSH1 0x1 PUSH1 0x1 PUSH1 0xA0 SHL SUB DUP4 AND PUSH2 0xD43 JUMPI PUSH1 0x40 MLOAD PUSH32 0x89C62B6400000000000000000000000000000000000000000000000000000000 DUP2 MSTORE PUSH1 0x0 PUSH1 0x4 DUP3 ADD MSTORE PUSH1 0x24 ADD PUSH2 0xA6D JUMP JUMPDEST PUSH1 0x1 PUSH1 0x1 PUSH1 0xA0 SHL SUB SWAP1 SWAP3 AND PUSH1 0x0 SWAP1 DUP2 MSTORE PUSH1 0x3 SWAP1 SWAP3 ADD PUSH1 0x20 MSTORE POP PUSH1 0x40 SWAP1 KECCAK256 SLOAD SWAP1 JUMP JUMPDEST PUSH2 0xD6C PUSH2 0x19F0 JUMP JUMPDEST PUSH2 0xD76 PUSH1 0x0 PUSH2 0x1A64 JUMP JUMPDEST JUMP JUMPDEST PUSH32 0x80BB2B638CC20BC4D0A60D66940F3AB4A00C1D7B313497CA82FB0B4AB0079301 DUP1 SLOAD PUSH1 0x60 SWAP2 PUSH32 0x80BB2B638CC20BC4D0A60D66940F3AB4A00C1D7B313497CA82FB0B4AB0079300 SWAP2 PUSH2 0x96C SWAP1 PUSH2 0x2821 JUMP JUMPDEST PUSH1 0x8 PUSH1 0x20 MSTORE DUP2 PUSH1 0x0 MSTORE PUSH1 0x40 PUSH1 0x0 KECCAK256 DUP2 DUP2 SLOAD DUP2 LT PUSH2 0xDE5 JUMPI PUSH1 0x0 DUP1 REVERT JUMPDEST PUSH1 0x0 SWAP2 DUP3 MSTORE PUSH1 0x20 SWAP1 SWAP2 KECCAK256 ADD SLOAD PUSH1 0x1 PUSH1 0x1 PUSH1 0xA0 SHL SUB AND SWAP2 POP DUP3 SWAP1 POP JUMP JUMPDEST PUSH1 0x0 DUP2 DUP2 MSTORE PUSH1 0x1 PUSH1 0x20 MSTORE PUSH1 0x40 SWAP1 KECCAK256 PUSH1 0x2 DUP2 ADD SLOAD PUSH2 0xE60 JUMPI PUSH1 0x40 MLOAD PUSH3 0x461BCD PUSH1 0xE5 SHL DUP2 MSTORE PUSH1 0x20 PUSH1 0x4 DUP3 ADD MSTORE PUSH1 0x13 PUSH1 0x24 DUP3 ADD MSTORE PUSH32 0x6E6674207072696365206D757374206774203000000000000000000000000000 PUSH1 0x44 DUP3 ADD MSTORE PUSH1 0x64 ADD PUSH2 0xA6D JUMP JUMPDEST PUSH1 0x3 DUP2 ADD SLOAD PUSH1 0x1 PUSH1 0x1 PUSH1 0xA0 SHL SUB AND PUSH2 0xEBA JUMPI PUSH1 0x40 MLOAD PUSH3 0x461BCD PUSH1 0xE5 SHL DUP2 MSTORE PUSH1 0x20 PUSH1 0x4 DUP3 ADD MSTORE PUSH1 0x19 PUSH1 0x24 DUP3 ADD MSTORE PUSH32 0x6E66742061646472657373206D757374206E6F74206E756C6C00000000000000 PUSH1 0x44 DUP3 ADD MSTORE PUSH1 0x64 ADD PUSH2 0xA6D JUMP JUMPDEST TIMESTAMP DUP2 PUSH1 0x4 ADD SLOAD LT ISZERO PUSH2 0xF0E JUMPI PUSH1 0x40 MLOAD PUSH3 0x461BCD PUSH1 0xE5 SHL DUP2 MSTORE PUSH1 0x20 PUSH1 0x4 DUP3 ADD MSTORE PUSH1 0xB PUSH1 0x24 DUP3 ADD MSTORE PUSH32 0x6E66742068617320656E64000000000000000000000000000000000000000000 PUSH1 0x44 DUP3 ADD MSTORE PUSH1 0x64 ADD PUSH2 0xA6D JUMP JUMPDEST PUSH1 0x64 PUSH1 0x7 SLOAD DUP3 PUSH1 0x2 ADD SLOAD PUSH2 0xF22 SWAP2 SWAP1 PUSH2 0x2871 JUMP JUMPDEST PUSH2 0xF2C SWAP2 SWAP1 PUSH2 0x289E JUMP JUMPDEST PUSH1 0x2 DUP3 ADD DUP2 SWAP1 SSTORE PUSH1 0x3 DUP3 ADD SLOAD PUSH1 0x1 PUSH1 0x1 PUSH1 0xA0 SHL SUB AND SWAP1 PUSH2 0x8FC SWAP1 PUSH2 0x3E8 SWAP1 PUSH2 0xF57 SWAP1 PUSH2 0x3B1 SWAP1 PUSH2 0x2871 JUMP JUMPDEST PUSH2 0xF61 SWAP2 SWAP1 PUSH2 0x289E JUMP JUMPDEST PUSH1 0x40 MLOAD DUP2 ISZERO SWAP1 SWAP3 MUL SWAP2 PUSH1 0x0 DUP2 DUP2 DUP2 DUP6 DUP9 DUP9 CALL SWAP4 POP POP POP POP ISZERO DUP1 ISZERO PUSH2 0xF89 JUMPI RETURNDATASIZE PUSH1 0x0 DUP1 RETURNDATACOPY RETURNDATASIZE PUSH1 0x0 REVERT JUMPDEST POP PUSH1 0x5 SLOAD PUSH1 0x2 DUP3 ADD SLOAD PUSH1 0x1 PUSH1 0x1 PUSH1 0xA0 SHL SUB SWAP1 SWAP2 AND SWAP1 PUSH2 0x8FC SWAP1 PUSH2 0x3E8 SWAP1 PUSH2 0xFB2 SWAP1 PUSH1 0x64 SWAP1 PUSH2 0x2871 JUMP JUMPDEST PUSH2 0xFBC SWAP2 SWAP1 PUSH2 0x289E JUMP JUMPDEST PUSH1 0x40 MLOAD DUP2 ISZERO SWAP1 SWAP3 MUL SWAP2 PUSH1 0x0 DUP2 DUP2 DUP2 DUP6 DUP9 DUP9 CALL SWAP4 POP POP POP POP ISZERO DUP1 ISZERO PUSH2 0xFE4 JUMPI RETURNDATASIZE PUSH1 0x0 DUP1 RETURNDATACOPY RETURNDATASIZE PUSH1 0x0 REVERT JUMPDEST POP PUSH1 0x3 SLOAD PUSH1 0x2 DUP3 ADD SLOAD PUSH1 0x1 PUSH1 0x1 PUSH1 0xA0 SHL SUB SWAP1 SWAP2 AND SWAP1 PUSH2 0x8FC SWAP1 PUSH2 0x3E8 SWAP1 PUSH2 0x100E SWAP1 PUSH2 0x12C SWAP1 PUSH2 0x2871 JUMP JUMPDEST PUSH2 0x1018 SWAP2 SWAP1 PUSH2 0x289E JUMP JUMPDEST PUSH1 0x40 MLOAD DUP2 ISZERO SWAP1 SWAP3 MUL SWAP2 PUSH1 0x0 DUP2 DUP2 DUP2 DUP6 DUP9 DUP9 CALL SWAP4 POP POP POP POP ISZERO DUP1 ISZERO PUSH2 0x1040 JUMPI RETURNDATASIZE PUSH1 0x0 DUP1 RETURNDATACOPY RETURNDATASIZE PUSH1 0x0 REVERT JUMPDEST POP PUSH1 0x6 SLOAD PUSH1 0x2 DUP3 ADD SLOAD PUSH1 0x1 PUSH1 0x1 PUSH1 0xA0 SHL SUB SWAP1 SWAP2 AND SWAP1 PUSH2 0x8FC SWAP1 PUSH2 0x3E8 SWAP1 PUSH2 0x1069 SWAP1 PUSH1 0x32 SWAP1 PUSH2 0x2871 JUMP JUMPDEST PUSH2 0x1073 SWAP2 SWAP1 PUSH2 0x289E JUMP JUMPDEST PUSH1 0x40 MLOAD DUP2 ISZERO SWAP1 SWAP3 MUL SWAP2 PUSH1 0x0 DUP2 DUP2 DUP2 DUP6 DUP9 DUP9 CALL SWAP4 POP POP POP POP ISZERO DUP1 ISZERO PUSH2 0x109B JUMPI RETURNDATASIZE PUSH1 0x0 DUP1 RETURNDATACOPY RETURNDATASIZE PUSH1 0x0 REVERT JUMPDEST POP CALLER PUSH1 0x0 SWAP1 DUP2 MSTORE PUSH1 0x20 DUP2 SWAP1 MSTORE PUSH1 0x40 SWAP1 KECCAK256 SLOAD PUSH1 0x1 PUSH1 0x1 PUSH1 0xA0 SHL SUB AND ISZERO DUP1 ISZERO SWAP1 PUSH2 0x10ED JUMPI POP PUSH2 0x10C6 PUSH2 0x15E5 JUMP JUMPDEST CALLER PUSH1 0x0 SWAP1 DUP2 MSTORE PUSH1 0x20 DUP2 DUP2 MSTORE PUSH1 0x40 DUP1 DUP4 KECCAK256 SLOAD PUSH1 0x1 PUSH1 0x1 PUSH1 0xA0 SHL SUB AND DUP4 MSTORE PUSH1 0x9 SWAP1 SWAP2 MSTORE SWAP1 KECCAK256 SLOAD LT ISZERO JUMPDEST ISZERO PUSH2 0x115B JUMPI CALLER PUSH1 0x0 SWAP1 DUP2 MSTORE PUSH1 0x20 DUP2 SWAP1 MSTORE PUSH1 0x40 SWAP1 KECCAK256 SLOAD PUSH1 0x2 DUP3 ADD SLOAD PUSH1 0x1 PUSH1 0x1 PUSH1 0xA0 SHL SUB SWAP1 SWAP2 AND SWAP1 PUSH2 0x8FC SWAP1 PUSH2 0x3E8 SWAP1 PUSH2 0x1127 SWAP1 PUSH1 0x64 SWAP1 PUSH2 0x2871 JUMP JUMPDEST PUSH2 0x1131 SWAP2 SWAP1 PUSH2 0x289E JUMP JUMPDEST PUSH1 0x40 MLOAD DUP2 ISZERO SWAP1 SWAP3 MUL SWAP2 PUSH1 0x0 DUP2 DUP2 DUP2 DUP6 DUP9 DUP9 CALL SWAP4 POP POP POP POP ISZERO DUP1 ISZERO PUSH2 0x1159 JUMPI RETURNDATASIZE PUSH1 0x0 DUP1 RETURNDATACOPY RETURNDATASIZE PUSH1 0x0 REVERT JUMPDEST POP JUMPDEST PUSH1 0x3 DUP2 ADD DUP1 SLOAD PUSH1 0x1 PUSH1 0x1 PUSH1 0xA0 SHL SUB NOT AND CALLER SWAP1 DUP2 OR SWAP1 SWAP2 SSTORE PUSH1 0x2 DUP3 ADD SLOAD PUSH1 0x0 SWAP2 DUP3 MSTORE PUSH1 0x5 DUP4 ADD PUSH1 0x20 MSTORE PUSH1 0x40 DUP3 KECCAK256 DUP1 SLOAD SWAP2 SWAP3 SWAP1 SWAP2 PUSH2 0x1198 SWAP1 DUP5 SWAP1 PUSH2 0x28B2 JUMP JUMPDEST SWAP1 SWAP2 SSTORE POP POP DUP1 SLOAD PUSH1 0x3 DUP3 ADD SLOAD PUSH1 0x1 DUP4 ADD SLOAD PUSH1 0x40 MLOAD PUSH32 0x23B872DD00000000000000000000000000000000000000000000000000000000 DUP2 MSTORE PUSH1 0x1 PUSH1 0x1 PUSH1 0xA0 SHL SUB SWAP3 DUP4 AND PUSH1 0x4 DUP3 ADD MSTORE CALLER PUSH1 0x24 DUP3 ADD MSTORE PUSH1 0x44 DUP2 ADD SWAP2 SWAP1 SWAP2 MSTORE SWAP2 AND SWAP1 PUSH4 0x23B872DD SWAP1 PUSH1 0x64 ADD PUSH1 0x0 PUSH1 0x40 MLOAD DUP1 DUP4 SUB DUP2 PUSH1 0x0 DUP8 DUP1 EXTCODESIZE ISZERO DUP1 ISZERO PUSH2 0x1213 JUMPI PUSH1 0x0 DUP1 REVERT JUMPDEST POP GAS CALL ISZERO DUP1 ISZERO PUSH2 0x1227 JUMPI RETURNDATASIZE PUSH1 0x0 DUP1 RETURNDATACOPY RETURNDATASIZE PUSH1 0x0 REVERT JUMPDEST POP POP CALLER PUSH1 0x0 DUP2 DUP2 MSTORE PUSH1 0x9 PUSH1 0x20 MSTORE PUSH1 0x40 SWAP1 DUP2 SWAP1 KECCAK256 TIMESTAMP SWAP1 SSTORE MLOAD SWAP1 SWAP3 POP PUSH32 0xE54EFF26401BF69B81B26F60BD85EF47F5D85275C1D268D84F68D6897431C47 SWAP2 POP PUSH2 0x127A SWAP1 DUP6 SWAP1 CALLVALUE SWAP1 SWAP2 DUP3 MSTORE PUSH1 0x20 DUP3 ADD MSTORE PUSH1 0x40 ADD SWAP1 JUMP JUMPDEST PUSH1 0x40 MLOAD DUP1 SWAP2 SUB SWAP1 LOG2 POP POP JUMP JUMPDEST PUSH2 0x128E PUSH2 0x19F0 JUMP JUMPDEST PUSH2 0xA43 DUP3 DUP3 PUSH2 0x1AD5 JUMP JUMPDEST PUSH2 0xA43 CALLER DUP4 DUP4 PUSH2 0x1AEF JUMP JUMPDEST PUSH2 0x12AB PUSH2 0x19F0 JUMP JUMPDEST PUSH1 0x2 DUP1 SLOAD PUSH1 0x0 SWAP2 PUSH1 0x1 SWAP2 DUP4 SWAP2 DUP3 PUSH2 0x12C1 DUP4 PUSH2 0x28C5 JUMP JUMPDEST SWAP1 SWAP2 SSTORE POP DUP2 MSTORE PUSH1 0x20 DUP2 ADD SWAP2 SWAP1 SWAP2 MSTORE PUSH1 0x40 ADD PUSH1 0x0 KECCAK256 DUP1 SLOAD PUSH1 0x1 PUSH1 0x1 PUSH1 0xA0 SHL SUB DUP7 AND PUSH1 0x1 PUSH1 0x1 PUSH1 0xA0 SHL SUB NOT SWAP2 DUP3 AND OR DUP3 SSTORE PUSH1 0x1 DUP3 ADD DUP6 SWAP1 SSTORE PUSH1 0x2 DUP3 ADD DUP5 SWAP1 SSTORE PUSH1 0x3 DUP3 ADD DUP1 SLOAD SWAP1 SWAP2 AND CALLER OR SWAP1 SSTORE SWAP1 POP PUSH2 0x1319 PUSH2 0x7080 TIMESTAMP PUSH2 0x28B2 JUMP JUMPDEST PUSH1 0x4 DUP3 ADD SSTORE PUSH1 0x2 SLOAD PUSH32 0x6FF530872708BBB51BAD8EA341564E4EA039807AD1331F61AB4C906A66875DAF SWAP1 PUSH2 0x134F SWAP1 PUSH1 0x1 SWAP1 PUSH2 0x28DE JUMP JUMPDEST PUSH1 0x40 DUP1 MLOAD SWAP2 DUP3 MSTORE PUSH1 0x1 PUSH1 0x1 PUSH1 0xA0 SHL SUB DUP8 AND PUSH1 0x20 DUP4 ADD MSTORE DUP2 ADD DUP6 SWAP1 MSTORE PUSH1 0x60 ADD PUSH1 0x40 MLOAD DUP1 SWAP2 SUB SWAP1 LOG1 POP POP POP POP JUMP JUMPDEST PUSH2 0x1386 DUP5 DUP5 DUP5 PUSH2 0xA47 JUMP JUMPDEST PUSH2 0xAEA DUP5 DUP5 DUP5 DUP5 PUSH2 0x1BCB JUMP JUMPDEST PUSH32 0xF0C57E16840DF040F15088DC2F81FE391C3923BEC73E23A9662EFC9C229C6A00 DUP1 SLOAD PUSH9 0x10000000000000000 DUP2 DIV PUSH1 0xFF AND ISZERO SWAP1 PUSH8 0xFFFFFFFFFFFFFFFF AND PUSH1 0x0 DUP2 ISZERO DUP1 ISZERO PUSH2 0x13DD JUMPI POP DUP3 JUMPDEST SWAP1 POP PUSH1 0x0 DUP3 PUSH8 0xFFFFFFFFFFFFFFFF AND PUSH1 0x1 EQ DUP1 ISZERO PUSH2 0x13FA JUMPI POP ADDRESS EXTCODESIZE ISZERO JUMPDEST SWAP1 POP DUP2 ISZERO DUP1 ISZERO PUSH2 0x1408 JUMPI POP DUP1 ISZERO JUMPDEST ISZERO PUSH2 0x143F JUMPI PUSH1 0x40 MLOAD PUSH32 0xF92EE8A900000000000000000000000000000000000000000000000000000000 DUP2 MSTORE PUSH1 0x4 ADD PUSH1 0x40 MLOAD DUP1 SWAP2 SUB SWAP1 REVERT JUMPDEST DUP5 SLOAD PUSH8 0xFFFFFFFFFFFFFFFF NOT AND PUSH1 0x1 OR DUP6 SSTORE DUP4 ISZERO PUSH2 0x1473 JUMPI DUP5 SLOAD PUSH9 0xFF0000000000000000 NOT AND PUSH9 0x10000000000000000 OR DUP6 SSTORE JUMPDEST PUSH2 0x14E7 PUSH1 0x40 MLOAD DUP1 PUSH1 0x40 ADD PUSH1 0x40 MSTORE DUP1 PUSH1 0x7 DUP2 MSTORE PUSH1 0x20 ADD PUSH32 0x4D79546F6B656E00000000000000000000000000000000000000000000000000 DUP2 MSTORE POP PUSH1 0x40 MLOAD DUP1 PUSH1 0x40 ADD PUSH1 0x40 MSTORE DUP1 PUSH1 0x3 DUP2 MSTORE PUSH1 0x20 ADD PUSH32 0x4D544B0000000000000000000000000000000000000000000000000000000000 DUP2 MSTORE POP PUSH2 0x1CF4 JUMP JUMPDEST PUSH2 0x14F0 DUP7 PUSH2 0x1D06 JUMP JUMPDEST PUSH2 0x14F8 PUSH2 0x1D17 JUMP JUMPDEST DUP4 ISZERO PUSH2 0x1543 JUMPI DUP5 SLOAD PUSH9 0xFF0000000000000000 NOT AND DUP6 SSTORE PUSH1 0x40 MLOAD PUSH1 0x1 DUP2 MSTORE PUSH32 0xC7F505B2F371AE2175EE4913F4499E1F2633A7B5936321EED1CDAEB6115181D2 SWAP1 PUSH1 0x20 ADD PUSH1 0x40 MLOAD DUP1 SWAP2 SUB SWAP1 LOG1 JUMPDEST POP POP POP POP POP POP JUMP JUMPDEST PUSH1 0x60 PUSH2 0x1556 DUP3 PUSH2 0x165A JUMP JUMPDEST POP PUSH1 0x0 PUSH2 0x1593 PUSH1 0x40 DUP1 MLOAD DUP1 DUP3 ADD SWAP1 SWAP2 MSTORE PUSH1 0xD DUP2 MSTORE PUSH32 0x7777772E62616964752E636F6D00000000000000000000000000000000000000 PUSH1 0x20 DUP3 ADD MSTORE SWAP1 JUMP JUMPDEST SWAP1 POP PUSH1 0x0 DUP2 MLOAD GT PUSH2 0x15B3 JUMPI PUSH1 0x40 MLOAD DUP1 PUSH1 0x20 ADD PUSH1 0x40 MSTORE DUP1 PUSH1 0x0 DUP2 MSTORE POP PUSH2 0x15DE JUMP JUMPDEST DUP1 PUSH2 0x15BD DUP5 PUSH2 0x1D1F JUMP JUMPDEST PUSH1 0x40 MLOAD PUSH1 0x20 ADD PUSH2 0x15CE SWAP3 SWAP2 SWAP1 PUSH2 0x28F1 JUMP JUMPDEST PUSH1 0x40 MLOAD PUSH1 0x20 DUP2 DUP4 SUB SUB DUP2 MSTORE SWAP1 PUSH1 0x40 MSTORE JUMPDEST SWAP4 SWAP3 POP POP POP JUMP JUMPDEST PUSH1 0x0 PUSH2 0x15F4 PUSH3 0x15180 TIMESTAMP PUSH2 0x2920 JUMP JUMPDEST PUSH2 0x15FE SWAP1 TIMESTAMP PUSH2 0x28DE JUMP JUMPDEST SWAP1 POP SWAP1 JUMP JUMPDEST PUSH2 0x160B PUSH2 0x19F0 JUMP JUMPDEST PUSH1 0x1 PUSH1 0x1 PUSH1 0xA0 SHL SUB DUP2 AND PUSH2 0x164E JUMPI PUSH1 0x40 MLOAD PUSH32 0x1E4FBDF700000000000000000000000000000000000000000000000000000000 DUP2 MSTORE PUSH1 0x0 PUSH1 0x4 DUP3 ADD MSTORE PUSH1 0x24 ADD PUSH2 0xA6D JUMP JUMPDEST PUSH2 0x1657 DUP2 PUSH2 0x1A64 JUMP JUMPDEST POP JUMP JUMPDEST PUSH1 0x0 DUP2 DUP2 MSTORE PUSH32 0x80BB2B638CC20BC4D0A60D66940F3AB4A00C1D7B313497CA82FB0B4AB0079302 PUSH1 0x20 MSTORE PUSH1 0x40 DUP2 KECCAK256 SLOAD PUSH1 0x1 PUSH1 0x1 PUSH1 0xA0 SHL SUB AND DUP1 PUSH2 0x934 JUMPI PUSH1 0x40 MLOAD PUSH4 0x7E273289 PUSH1 0xE0 SHL DUP2 MSTORE PUSH1 0x4 DUP2 ADD DUP5 SWAP1 MSTORE PUSH1 0x24 ADD PUSH2 0xA6D JUMP JUMPDEST PUSH2 0xB0B DUP4 DUP4 DUP4 PUSH1 0x1 PUSH2 0x1DBF JUMP JUMPDEST PUSH1 0x0 DUP3 DUP2 MSTORE PUSH32 0x80BB2B638CC20BC4D0A60D66940F3AB4A00C1D7B313497CA82FB0B4AB0079302 PUSH1 0x20 MSTORE PUSH1 0x40 DUP2 KECCAK256 SLOAD PUSH32 0x80BB2B638CC20BC4D0A60D66940F3AB4A00C1D7B313497CA82FB0B4AB0079300 SWAP1 PUSH1 0x1 PUSH1 0x1 PUSH1 0xA0 SHL SUB SWAP1 DUP2 AND SWAP1 DUP5 AND ISZERO PUSH2 0x172D JUMPI PUSH2 0x172D DUP2 DUP6 DUP8 PUSH2 0x1F3E JUMP JUMPDEST PUSH1 0x1 PUSH1 0x1 PUSH1 0xA0 SHL SUB DUP2 AND ISZERO PUSH2 0x176D JUMPI PUSH2 0x174A PUSH1 0x0 DUP7 PUSH1 0x0 DUP1 PUSH2 0x1DBF JUMP JUMPDEST PUSH1 0x1 PUSH1 0x1 PUSH1 0xA0 SHL SUB DUP2 AND PUSH1 0x0 SWAP1 DUP2 MSTORE PUSH1 0x3 DUP4 ADD PUSH1 0x20 MSTORE PUSH1 0x40 SWAP1 KECCAK256 DUP1 SLOAD PUSH1 0x0 NOT ADD SWAP1 SSTORE JUMPDEST PUSH1 0x1 PUSH1 0x1 PUSH1 0xA0 SHL SUB DUP7 AND ISZERO PUSH2 0x179E JUMPI PUSH1 0x1 PUSH1 0x1 PUSH1 0xA0 SHL SUB DUP7 AND PUSH1 0x0 SWAP1 DUP2 MSTORE PUSH1 0x3 DUP4 ADD PUSH1 0x20 MSTORE PUSH1 0x40 SWAP1 KECCAK256 DUP1 SLOAD PUSH1 0x1 ADD SWAP1 SSTORE JUMPDEST PUSH1 0x0 DUP6 DUP2 MSTORE PUSH1 0x2 DUP4 ADD PUSH1 0x20 MSTORE PUSH1 0x40 DUP1 DUP3 KECCAK256 DUP1 SLOAD PUSH1 0x1 PUSH1 0x1 PUSH1 0xA0 SHL SUB NOT AND PUSH1 0x1 PUSH1 0x1 PUSH1 0xA0 SHL SUB DUP11 DUP2 AND SWAP2 DUP3 OR SWAP1 SWAP3 SSTORE SWAP2 MLOAD DUP9 SWAP4 SWAP2 DUP6 AND SWAP2 PUSH32 0xDDF252AD1BE2C89B69C2B068FC378DAA952BA7F163C4A11628F55A4DF523B3EF SWAP2 LOG4 SWAP6 SWAP5 POP POP POP POP POP JUMP JUMPDEST ADDRESS PUSH1 0x1 PUSH1 0x1 PUSH1 0xA0 SHL SUB PUSH32 0x0 AND EQ DUP1 PUSH2 0x1899 JUMPI POP PUSH32 0x0 PUSH1 0x1 PUSH1 0x1 PUSH1 0xA0 SHL SUB AND PUSH2 0x188D PUSH32 0x360894A13BA1A3210667C828492DB98DCA3E2076CC3735A920A3CA505D382BBC SLOAD PUSH1 0x1 PUSH1 0x1 PUSH1 0xA0 SHL SUB AND SWAP1 JUMP JUMPDEST PUSH1 0x1 PUSH1 0x1 PUSH1 0xA0 SHL SUB AND EQ ISZERO JUMPDEST ISZERO PUSH2 0xD76 JUMPI PUSH1 0x40 MLOAD PUSH4 0x703E46DD PUSH1 0xE1 SHL DUP2 MSTORE PUSH1 0x4 ADD PUSH1 0x40 MLOAD DUP1 SWAP2 SUB SWAP1 REVERT JUMPDEST PUSH2 0x1657 PUSH2 0x19F0 JUMP JUMPDEST DUP2 PUSH1 0x1 PUSH1 0x1 PUSH1 0xA0 SHL SUB AND PUSH4 0x52D1902D PUSH1 0x40 MLOAD DUP2 PUSH4 0xFFFFFFFF AND PUSH1 0xE0 SHL DUP2 MSTORE PUSH1 0x4 ADD PUSH1 0x20 PUSH1 0x40 MLOAD DUP1 DUP4 SUB DUP2 DUP7 GAS STATICCALL SWAP3 POP POP POP DUP1 ISZERO PUSH2 0x1919 JUMPI POP PUSH1 0x40 DUP1 MLOAD PUSH1 0x1F RETURNDATASIZE SWAP1 DUP2 ADD PUSH1 0x1F NOT AND DUP3 ADD SWAP1 SWAP3 MSTORE PUSH2 0x1916 SWAP2 DUP2 ADD SWAP1 PUSH2 0x2934 JUMP JUMPDEST PUSH1 0x1 JUMPDEST PUSH2 0x1941 JUMPI PUSH1 0x40 MLOAD PUSH4 0x4C9C8CE3 PUSH1 0xE0 SHL DUP2 MSTORE PUSH1 0x1 PUSH1 0x1 PUSH1 0xA0 SHL SUB DUP4 AND PUSH1 0x4 DUP3 ADD MSTORE PUSH1 0x24 ADD PUSH2 0xA6D JUMP JUMPDEST PUSH32 0x360894A13BA1A3210667C828492DB98DCA3E2076CC3735A920A3CA505D382BBC DUP2 EQ PUSH2 0x199D JUMPI PUSH1 0x40 MLOAD PUSH32 0xAA1D49A400000000000000000000000000000000000000000000000000000000 DUP2 MSTORE PUSH1 0x4 DUP2 ADD DUP3 SWAP1 MSTORE PUSH1 0x24 ADD PUSH2 0xA6D JUMP JUMPDEST PUSH2 0xB0B DUP4 DUP4 PUSH2 0x1FBB JUMP JUMPDEST ADDRESS PUSH1 0x1 PUSH1 0x1 PUSH1 0xA0 SHL SUB PUSH32 0x0 AND EQ PUSH2 0xD76 JUMPI PUSH1 0x40 MLOAD PUSH4 0x703E46DD PUSH1 0xE1 SHL DUP2 MSTORE PUSH1 0x4 ADD PUSH1 0x40 MLOAD DUP1 SWAP2 SUB SWAP1 REVERT JUMPDEST CALLER PUSH2 0x1A22 PUSH32 0x9016D09D72D40FDAE2FD8CEAC6B6234C7706214FD39C1CD1E609A0528C199300 SLOAD PUSH1 0x1 PUSH1 0x1 PUSH1 0xA0 SHL SUB AND SWAP1 JUMP JUMPDEST PUSH1 0x1 PUSH1 0x1 PUSH1 0xA0 SHL SUB AND EQ PUSH2 0xD76 JUMPI PUSH1 0x40 MLOAD PUSH32 0x118CDAA700000000000000000000000000000000000000000000000000000000 DUP2 MSTORE CALLER PUSH1 0x4 DUP3 ADD MSTORE PUSH1 0x24 ADD PUSH2 0xA6D JUMP JUMPDEST PUSH32 0x9016D09D72D40FDAE2FD8CEAC6B6234C7706214FD39C1CD1E609A0528C199300 DUP1 SLOAD PUSH1 0x1 PUSH1 0x1 PUSH1 0xA0 SHL SUB NOT DUP2 AND PUSH1 0x1 PUSH1 0x1 PUSH1 0xA0 SHL SUB DUP5 DUP2 AND SWAP2 DUP3 OR DUP5 SSTORE PUSH1 0x40 MLOAD SWAP3 AND SWAP2 DUP3 SWAP1 PUSH32 0x8BE0079C531659141344CD1FD0A4F28419497F9722A3DAAFE3B4186F6B6457E0 SWAP1 PUSH1 0x0 SWAP1 LOG3 POP POP POP JUMP JUMPDEST PUSH2 0xA43 DUP3 DUP3 PUSH1 0x40 MLOAD DUP1 PUSH1 0x20 ADD PUSH1 0x40 MSTORE DUP1 PUSH1 0x0 DUP2 MSTORE POP PUSH2 0x2011 JUMP JUMPDEST PUSH32 0x80BB2B638CC20BC4D0A60D66940F3AB4A00C1D7B313497CA82FB0B4AB0079300 PUSH1 0x1 PUSH1 0x1 PUSH1 0xA0 SHL SUB DUP4 AND PUSH2 0x1B5B JUMPI PUSH1 0x40 MLOAD PUSH32 0x5B08BA1800000000000000000000000000000000000000000000000000000000 DUP2 MSTORE PUSH1 0x1 PUSH1 0x1 PUSH1 0xA0 SHL SUB DUP5 AND PUSH1 0x4 DUP3 ADD MSTORE PUSH1 0x24 ADD PUSH2 0xA6D JUMP JUMPDEST PUSH1 0x1 PUSH1 0x1 PUSH1 0xA0 SHL SUB DUP5 DUP2 AND PUSH1 0x0 DUP2 DUP2 MSTORE PUSH1 0x5 DUP5 ADD PUSH1 0x20 SWAP1 DUP2 MSTORE PUSH1 0x40 DUP1 DUP4 KECCAK256 SWAP5 DUP9 AND DUP1 DUP5 MSTORE SWAP5 DUP3 MSTORE SWAP2 DUP3 SWAP1 KECCAK256 DUP1 SLOAD PUSH1 0xFF NOT AND DUP8 ISZERO ISZERO SWAP1 DUP2 OR SWAP1 SWAP2 SSTORE SWAP2 MLOAD SWAP2 DUP3 MSTORE PUSH32 0x17307EAB39AB6107E8899845AD3D59BD9653F200F220920489CA2B5937696C31 SWAP2 ADD PUSH1 0x40 MLOAD DUP1 SWAP2 SUB SWAP1 LOG3 POP POP POP POP JUMP JUMPDEST PUSH1 0x1 PUSH1 0x1 PUSH1 0xA0 SHL SUB DUP4 AND EXTCODESIZE ISZERO PUSH2 0xAEA JUMPI PUSH1 0x40 MLOAD PUSH4 0xA85BD01 PUSH1 0xE1 SHL DUP2 MSTORE PUSH1 0x1 PUSH1 0x1 PUSH1 0xA0 SHL SUB DUP5 AND SWAP1 PUSH4 0x150B7A02 SWAP1 PUSH2 0x1C0D SWAP1 CALLER SWAP1 DUP9 SWAP1 DUP8 SWAP1 DUP8 SWAP1 PUSH1 0x4 ADD PUSH2 0x294D JUMP JUMPDEST PUSH1 0x20 PUSH1 0x40 MLOAD DUP1 DUP4 SUB DUP2 PUSH1 0x0 DUP8 GAS CALL SWAP3 POP POP POP DUP1 ISZERO PUSH2 0x1C48 JUMPI POP PUSH1 0x40 DUP1 MLOAD PUSH1 0x1F RETURNDATASIZE SWAP1 DUP2 ADD PUSH1 0x1F NOT AND DUP3 ADD SWAP1 SWAP3 MSTORE PUSH2 0x1C45 SWAP2 DUP2 ADD SWAP1 PUSH2 0x2989 JUMP JUMPDEST PUSH1 0x1 JUMPDEST PUSH2 0x1CB1 JUMPI RETURNDATASIZE DUP1 DUP1 ISZERO PUSH2 0x1C76 JUMPI PUSH1 0x40 MLOAD SWAP2 POP PUSH1 0x1F NOT PUSH1 0x3F RETURNDATASIZE ADD AND DUP3 ADD PUSH1 0x40 MSTORE RETURNDATASIZE DUP3 MSTORE RETURNDATASIZE PUSH1 0x0 PUSH1 0x20 DUP5 ADD RETURNDATACOPY PUSH2 0x1C7B JUMP JUMPDEST PUSH1 0x60 SWAP2 POP JUMPDEST POP DUP1 MLOAD PUSH1 0x0 SUB PUSH2 0x1CA9 JUMPI PUSH1 0x40 MLOAD PUSH4 0x32505749 PUSH1 0xE1 SHL DUP2 MSTORE PUSH1 0x1 PUSH1 0x1 PUSH1 0xA0 SHL SUB DUP6 AND PUSH1 0x4 DUP3 ADD MSTORE PUSH1 0x24 ADD PUSH2 0xA6D JUMP JUMPDEST DUP1 MLOAD DUP2 PUSH1 0x20 ADD REVERT JUMPDEST PUSH1 0x1 PUSH1 0x1 PUSH1 0xE0 SHL SUB NOT DUP2 AND PUSH4 0xA85BD01 PUSH1 0xE1 SHL EQ PUSH2 0x1CED JUMPI PUSH1 0x40 MLOAD PUSH4 0x32505749 PUSH1 0xE1 SHL DUP2 MSTORE PUSH1 0x1 PUSH1 0x1 PUSH1 0xA0 SHL SUB DUP6 AND PUSH1 0x4 DUP3 ADD MSTORE PUSH1 0x24 ADD PUSH2 0xA6D JUMP JUMPDEST POP POP POP POP POP JUMP JUMPDEST PUSH2 0x1CFC PUSH2 0x2028 JUMP JUMPDEST PUSH2 0xA43 DUP3 DUP3 PUSH2 0x208F JUMP JUMPDEST PUSH2 0x1D0E PUSH2 0x2028 JUMP JUMPDEST PUSH2 0x1657 DUP2 PUSH2 0x20D2 JUMP JUMPDEST PUSH2 0xD76 PUSH2 0x2028 JUMP JUMPDEST PUSH1 0x60 PUSH1 0x0 PUSH2 0x1D2C DUP4 PUSH2 0x20DA JUMP JUMPDEST PUSH1 0x1 ADD SWAP1 POP PUSH1 0x0 DUP2 PUSH8 0xFFFFFFFFFFFFFFFF DUP2 GT ISZERO PUSH2 0x1D4C JUMPI PUSH2 0x1D4C PUSH2 0x2626 JUMP JUMPDEST PUSH1 0x40 MLOAD SWAP1 DUP1 DUP3 MSTORE DUP1 PUSH1 0x1F ADD PUSH1 0x1F NOT AND PUSH1 0x20 ADD DUP3 ADD PUSH1 0x40 MSTORE DUP1 ISZERO PUSH2 0x1D76 JUMPI PUSH1 0x20 DUP3 ADD DUP2 DUP1 CALLDATASIZE DUP4 CALLDATACOPY ADD SWAP1 POP JUMPDEST POP SWAP1 POP DUP2 DUP2 ADD PUSH1 0x20 ADD JUMPDEST PUSH1 0x0 NOT ADD PUSH32 0x3031323334353637383961626364656600000000000000000000000000000000 PUSH1 0xA DUP7 MOD BYTE DUP2 MSTORE8 PUSH1 0xA DUP6 DIV SWAP5 POP DUP5 PUSH2 0x1D80 JUMPI POP SWAP4 SWAP3 POP POP POP JUMP JUMPDEST PUSH32 0x80BB2B638CC20BC4D0A60D66940F3AB4A00C1D7B313497CA82FB0B4AB0079300 DUP2 DUP1 PUSH2 0x1DF4 JUMPI POP PUSH1 0x1 PUSH1 0x1 PUSH1 0xA0 SHL SUB DUP4 AND ISZERO ISZERO JUMPDEST ISZERO PUSH2 0x1F0D JUMPI PUSH1 0x0 PUSH2 0x1E04 DUP6 PUSH2 0x165A JUMP JUMPDEST SWAP1 POP PUSH1 0x1 PUSH1 0x1 PUSH1 0xA0 SHL SUB DUP5 AND ISZERO DUP1 ISZERO SWAP1 PUSH2 0x1E30 JUMPI POP DUP4 PUSH1 0x1 PUSH1 0x1 PUSH1 0xA0 SHL SUB AND DUP2 PUSH1 0x1 PUSH1 0x1 PUSH1 0xA0 SHL SUB AND EQ ISZERO JUMPDEST DUP1 ISZERO PUSH2 0x1E81 JUMPI POP PUSH1 0x1 PUSH1 0x1 PUSH1 0xA0 SHL SUB DUP1 DUP3 AND PUSH1 0x0 SWAP1 DUP2 MSTORE PUSH32 0x80BB2B638CC20BC4D0A60D66940F3AB4A00C1D7B313497CA82FB0B4AB0079305 PUSH1 0x20 SWAP1 DUP2 MSTORE PUSH1 0x40 DUP1 DUP4 KECCAK256 SWAP4 DUP9 AND DUP4 MSTORE SWAP3 SWAP1 MSTORE KECCAK256 SLOAD PUSH1 0xFF AND ISZERO JUMPDEST ISZERO PUSH2 0x1EC3 JUMPI PUSH1 0x40 MLOAD PUSH32 0xA9FBF51F00000000000000000000000000000000000000000000000000000000 DUP2 MSTORE PUSH1 0x1 PUSH1 0x1 PUSH1 0xA0 SHL SUB DUP6 AND PUSH1 0x4 DUP3 ADD MSTORE PUSH1 0x24 ADD PUSH2 0xA6D JUMP JUMPDEST DUP3 ISZERO PUSH2 0x1F0B JUMPI DUP5 DUP7 PUSH1 0x1 PUSH1 0x1 PUSH1 0xA0 SHL SUB AND DUP3 PUSH1 0x1 PUSH1 0x1 PUSH1 0xA0 SHL SUB AND PUSH32 0x8C5BE1E5EBEC7D5BD14F71427D1E84F3DD0314C0F7B2291E5B200AC8C7C3B925 PUSH1 0x40 MLOAD PUSH1 0x40 MLOAD DUP1 SWAP2 SUB SWAP1 LOG4 JUMPDEST POP JUMPDEST PUSH1 0x0 SWAP4 DUP5 MSTORE PUSH1 0x4 ADD PUSH1 0x20 MSTORE POP POP PUSH1 0x40 SWAP1 KECCAK256 DUP1 SLOAD PUSH1 0x1 PUSH1 0x1 PUSH1 0xA0 SHL SUB NOT AND PUSH1 0x1 PUSH1 0x1 PUSH1 0xA0 SHL SUB SWAP3 SWAP1 SWAP3 AND SWAP2 SWAP1 SWAP2 OR SWAP1 SSTORE JUMP JUMPDEST PUSH2 0x1F49 DUP4 DUP4 DUP4 PUSH2 0x21BC JUMP JUMPDEST PUSH2 0xB0B JUMPI PUSH1 0x1 PUSH1 0x1 PUSH1 0xA0 SHL SUB DUP4 AND PUSH2 0x1F77 JUMPI PUSH1 0x40 MLOAD PUSH4 0x7E273289 PUSH1 0xE0 SHL DUP2 MSTORE PUSH1 0x4 DUP2 ADD DUP3 SWAP1 MSTORE PUSH1 0x24 ADD PUSH2 0xA6D JUMP JUMPDEST PUSH1 0x40 MLOAD PUSH32 0x177E802F00000000000000000000000000000000000000000000000000000000 DUP2 MSTORE PUSH1 0x1 PUSH1 0x1 PUSH1 0xA0 SHL SUB DUP4 AND PUSH1 0x4 DUP3 ADD MSTORE PUSH1 0x24 DUP2 ADD DUP3 SWAP1 MSTORE PUSH1 0x44 ADD PUSH2 0xA6D JUMP JUMPDEST PUSH2 0x1FC4 DUP3 PUSH2 0x2280 JUMP JUMPDEST PUSH1 0x40 MLOAD PUSH1 0x1 PUSH1 0x1 PUSH1 0xA0 SHL SUB DUP4 AND SWAP1 PUSH32 0xBC7CD75A20EE27FD9ADEBAB32041F755214DBC6BFFA90CC0225B39DA2E5C2D3B SWAP1 PUSH1 0x0 SWAP1 LOG2 DUP1 MLOAD ISZERO PUSH2 0x2009 JUMPI PUSH2 0xB0B DUP3 DUP3 PUSH2 0x22F7 JUMP JUMPDEST PUSH2 0xA43 PUSH2 0x236D JUMP JUMPDEST PUSH2 0x201B DUP4 DUP4 PUSH2 0x23A5 JUMP JUMPDEST PUSH2 0xB0B PUSH1 0x0 DUP5 DUP5 DUP5 PUSH2 0x1BCB JUMP JUMPDEST PUSH32 0xF0C57E16840DF040F15088DC2F81FE391C3923BEC73E23A9662EFC9C229C6A00 SLOAD PUSH9 0x10000000000000000 SWAP1 DIV PUSH1 0xFF AND PUSH2 0xD76 JUMPI PUSH1 0x40 MLOAD PUSH32 0xD7E6BCF800000000000000000000000000000000000000000000000000000000 DUP2 MSTORE PUSH1 0x4 ADD PUSH1 0x40 MLOAD DUP1 SWAP2 SUB SWAP1 REVERT JUMPDEST PUSH2 0x2097 PUSH2 0x2028 JUMP JUMPDEST PUSH32 0x80BB2B638CC20BC4D0A60D66940F3AB4A00C1D7B313497CA82FB0B4AB0079300 DUP1 PUSH2 0x20C3 DUP5 DUP3 PUSH2 0x29EE JUMP JUMPDEST POP PUSH1 0x1 DUP2 ADD PUSH2 0xAEA DUP4 DUP3 PUSH2 0x29EE JUMP JUMPDEST PUSH2 0x160B PUSH2 0x2028 JUMP JUMPDEST PUSH1 0x0 DUP1 PUSH27 0x184F03E93FF9F4DAA797ED6E38ED64BF6A1F010000000000000000 DUP4 LT PUSH2 0x2123 JUMPI PUSH27 0x184F03E93FF9F4DAA797ED6E38ED64BF6A1F010000000000000000 DUP4 DIV SWAP3 POP PUSH1 0x40 ADD JUMPDEST PUSH14 0x4EE2D6D415B85ACEF8100000000 DUP4 LT PUSH2 0x214F JUMPI PUSH14 0x4EE2D6D415B85ACEF8100000000 DUP4 DIV SWAP3 POP PUSH1 0x20 ADD JUMPDEST PUSH7 0x2386F26FC10000 DUP4 LT PUSH2 0x216D JUMPI PUSH7 0x2386F26FC10000 DUP4 DIV SWAP3 POP PUSH1 0x10 ADD JUMPDEST PUSH4 0x5F5E100 DUP4 LT PUSH2 0x2185 JUMPI PUSH4 0x5F5E100 DUP4 DIV SWAP3 POP PUSH1 0x8 ADD JUMPDEST PUSH2 0x2710 DUP4 LT PUSH2 0x2199 JUMPI PUSH2 0x2710 DUP4 DIV SWAP3 POP PUSH1 0x4 ADD JUMPDEST PUSH1 0x64 DUP4 LT PUSH2 0x21AB JUMPI PUSH1 0x64 DUP4 DIV SWAP3 POP PUSH1 0x2 ADD JUMPDEST PUSH1 0xA DUP4 LT PUSH2 0x934 JUMPI PUSH1 0x1 ADD SWAP3 SWAP2 POP POP JUMP JUMPDEST PUSH1 0x0 PUSH1 0x1 PUSH1 0x1 PUSH1 0xA0 SHL SUB DUP4 AND ISZERO DUP1 ISZERO SWAP1 PUSH2 0x2278 JUMPI POP DUP3 PUSH1 0x1 PUSH1 0x1 PUSH1 0xA0 SHL SUB AND DUP5 PUSH1 0x1 PUSH1 0x1 PUSH1 0xA0 SHL SUB AND EQ DUP1 PUSH2 0x2235 JUMPI POP PUSH1 0x1 PUSH1 0x1 PUSH1 0xA0 SHL SUB DUP1 DUP6 AND PUSH1 0x0 SWAP1 DUP2 MSTORE PUSH32 0x80BB2B638CC20BC4D0A60D66940F3AB4A00C1D7B313497CA82FB0B4AB0079305 PUSH1 0x20 SWAP1 DUP2 MSTORE PUSH1 0x40 DUP1 DUP4 KECCAK256 SWAP4 DUP8 AND DUP4 MSTORE SWAP3 SWAP1 MSTORE KECCAK256 SLOAD PUSH1 0xFF AND JUMPDEST DUP1 PUSH2 0x2278 JUMPI POP PUSH1 0x0 DUP3 DUP2 MSTORE PUSH32 0x80BB2B638CC20BC4D0A60D66940F3AB4A00C1D7B313497CA82FB0B4AB0079304 PUSH1 0x20 MSTORE PUSH1 0x40 SWAP1 KECCAK256 SLOAD PUSH1 0x1 PUSH1 0x1 PUSH1 0xA0 SHL SUB DUP5 DUP2 AND SWAP2 AND EQ JUMPDEST SWAP5 SWAP4 POP POP POP POP JUMP JUMPDEST DUP1 PUSH1 0x1 PUSH1 0x1 PUSH1 0xA0 SHL SUB AND EXTCODESIZE PUSH1 0x0 SUB PUSH2 0x22B6 JUMPI PUSH1 0x40 MLOAD PUSH4 0x4C9C8CE3 PUSH1 0xE0 SHL DUP2 MSTORE PUSH1 0x1 PUSH1 0x1 PUSH1 0xA0 SHL SUB DUP3 AND PUSH1 0x4 DUP3 ADD MSTORE PUSH1 0x24 ADD PUSH2 0xA6D JUMP JUMPDEST PUSH32 0x360894A13BA1A3210667C828492DB98DCA3E2076CC3735A920A3CA505D382BBC DUP1 SLOAD PUSH1 0x1 PUSH1 0x1 PUSH1 0xA0 SHL SUB NOT AND PUSH1 0x1 PUSH1 0x1 PUSH1 0xA0 SHL SUB SWAP3 SWAP1 SWAP3 AND SWAP2 SWAP1 SWAP2 OR SWAP1 SSTORE JUMP JUMPDEST PUSH1 0x60 PUSH1 0x0 DUP1 DUP5 PUSH1 0x1 PUSH1 0x1 PUSH1 0xA0 SHL SUB AND DUP5 PUSH1 0x40 MLOAD PUSH2 0x2314 SWAP2 SWAP1 PUSH2 0x2AAE JUMP JUMPDEST PUSH1 0x0 PUSH1 0x40 MLOAD DUP1 DUP4 SUB DUP2 DUP6 GAS DELEGATECALL SWAP2 POP POP RETURNDATASIZE DUP1 PUSH1 0x0 DUP2 EQ PUSH2 0x234F JUMPI PUSH1 0x40 MLOAD SWAP2 POP PUSH1 0x1F NOT PUSH1 0x3F RETURNDATASIZE ADD AND DUP3 ADD PUSH1 0x40 MSTORE RETURNDATASIZE DUP3 MSTORE RETURNDATASIZE PUSH1 0x0 PUSH1 0x20 DUP5 ADD RETURNDATACOPY PUSH2 0x2354 JUMP JUMPDEST PUSH1 0x60 SWAP2 POP JUMPDEST POP SWAP2 POP SWAP2 POP PUSH2 0x2364 DUP6 DUP4 DUP4 PUSH2 0x2423 JUMP JUMPDEST SWAP6 SWAP5 POP POP POP POP POP JUMP JUMPDEST CALLVALUE ISZERO PUSH2 0xD76 JUMPI PUSH1 0x40 MLOAD PUSH32 0xB398979F00000000000000000000000000000000000000000000000000000000 DUP2 MSTORE PUSH1 0x4 ADD PUSH1 0x40 MLOAD DUP1 SWAP2 SUB SWAP1 REVERT JUMPDEST PUSH1 0x1 PUSH1 0x1 PUSH1 0xA0 SHL SUB DUP3 AND PUSH2 0x23CF JUMPI PUSH1 0x40 MLOAD PUSH4 0x32505749 PUSH1 0xE1 SHL DUP2 MSTORE PUSH1 0x0 PUSH1 0x4 DUP3 ADD MSTORE PUSH1 0x24 ADD PUSH2 0xA6D JUMP JUMPDEST PUSH1 0x0 PUSH2 0x23DD DUP4 DUP4 PUSH1 0x0 PUSH2 0x16BF JUMP JUMPDEST SWAP1 POP PUSH1 0x1 PUSH1 0x1 PUSH1 0xA0 SHL SUB DUP2 AND ISZERO PUSH2 0xB0B JUMPI PUSH1 0x40 MLOAD PUSH32 0x73C6AC6E00000000000000000000000000000000000000000000000000000000 DUP2 MSTORE PUSH1 0x0 PUSH1 0x4 DUP3 ADD MSTORE PUSH1 0x24 ADD PUSH2 0xA6D JUMP JUMPDEST PUSH1 0x60 DUP3 PUSH2 0x2438 JUMPI PUSH2 0x2433 DUP3 PUSH2 0x2498 JUMP JUMPDEST PUSH2 0x15DE JUMP JUMPDEST DUP2 MLOAD ISZERO DUP1 ISZERO PUSH2 0x244F JUMPI POP PUSH1 0x1 PUSH1 0x1 PUSH1 0xA0 SHL SUB DUP5 AND EXTCODESIZE ISZERO JUMPDEST ISZERO PUSH2 0x2491 JUMPI PUSH1 0x40 MLOAD PUSH32 0x9996B31500000000000000000000000000000000000000000000000000000000 DUP2 MSTORE PUSH1 0x1 PUSH1 0x1 PUSH1 0xA0 SHL SUB DUP6 AND PUSH1 0x4 DUP3 ADD MSTORE PUSH1 0x24 ADD PUSH2 0xA6D JUMP JUMPDEST POP DUP1 PUSH2 0x15DE JUMP JUMPDEST DUP1 MLOAD ISZERO PUSH2 0x24A8 JUMPI DUP1 MLOAD DUP1 DUP3 PUSH1 0x20 ADD REVERT JUMPDEST PUSH1 0x40 MLOAD PUSH32 0xD6BDA27500000000000000000000000000000000000000000000000000000000 DUP2 MSTORE PUSH1 0x4 ADD PUSH1 0x40 MLOAD DUP1 SWAP2 SUB SWAP1 REVERT JUMPDEST PUSH1 0x1 PUSH1 0x1 PUSH1 0xE0 SHL SUB NOT DUP2 AND DUP2 EQ PUSH2 0x1657 JUMPI PUSH1 0x0 DUP1 REVERT JUMPDEST PUSH1 0x0 PUSH1 0x20 DUP3 DUP5 SUB SLT ISZERO PUSH2 0x2502 JUMPI PUSH1 0x0 DUP1 REVERT JUMPDEST DUP2 CALLDATALOAD PUSH2 0x15DE DUP2 PUSH2 0x24DA JUMP JUMPDEST PUSH1 0x0 JUMPDEST DUP4 DUP2 LT ISZERO PUSH2 0x2528 JUMPI DUP2 DUP2 ADD MLOAD DUP4 DUP3 ADD MSTORE PUSH1 0x20 ADD PUSH2 0x2510 JUMP JUMPDEST POP POP PUSH1 0x0 SWAP2 ADD MSTORE JUMP JUMPDEST PUSH1 0x0 DUP2 MLOAD DUP1 DUP5 MSTORE PUSH2 0x2549 DUP2 PUSH1 0x20 DUP7 ADD PUSH1 0x20 DUP7 ADD PUSH2 0x250D JUMP JUMPDEST PUSH1 0x1F ADD PUSH1 0x1F NOT AND SWAP3 SWAP1 SWAP3 ADD PUSH1 0x20 ADD SWAP3 SWAP2 POP POP JUMP JUMPDEST PUSH1 0x20 DUP2 MSTORE PUSH1 0x0 PUSH2 0x15DE PUSH1 0x20 DUP4 ADD DUP5 PUSH2 0x2531 JUMP JUMPDEST PUSH1 0x0 PUSH1 0x20 DUP3 DUP5 SUB SLT ISZERO PUSH2 0x2582 JUMPI PUSH1 0x0 DUP1 REVERT JUMPDEST POP CALLDATALOAD SWAP2 SWAP1 POP JUMP JUMPDEST DUP1 CALLDATALOAD PUSH1 0x1 PUSH1 0x1 PUSH1 0xA0 SHL SUB DUP2 AND DUP2 EQ PUSH2 0x25A0 JUMPI PUSH1 0x0 DUP1 REVERT JUMPDEST SWAP2 SWAP1 POP JUMP JUMPDEST PUSH1 0x0 DUP1 PUSH1 0x40 DUP4 DUP6 SUB SLT ISZERO PUSH2 0x25B8 JUMPI PUSH1 0x0 DUP1 REVERT JUMPDEST PUSH2 0x25C1 DUP4 PUSH2 0x2589 JUMP JUMPDEST SWAP5 PUSH1 0x20 SWAP4 SWAP1 SWAP4 ADD CALLDATALOAD SWAP4 POP POP POP JUMP JUMPDEST PUSH1 0x0 DUP1 PUSH1 0x0 PUSH1 0x60 DUP5 DUP7 SUB SLT ISZERO PUSH2 0x25E4 JUMPI PUSH1 0x0 DUP1 REVERT JUMPDEST PUSH2 0x25ED DUP5 PUSH2 0x2589 JUMP JUMPDEST SWAP3 POP PUSH2 0x25FB PUSH1 0x20 DUP6 ADD PUSH2 0x2589 JUMP JUMPDEST SWAP2 POP PUSH1 0x40 DUP5 ADD CALLDATALOAD SWAP1 POP SWAP3 POP SWAP3 POP SWAP3 JUMP JUMPDEST PUSH1 0x0 PUSH1 0x20 DUP3 DUP5 SUB SLT ISZERO PUSH2 0x261D JUMPI PUSH1 0x0 DUP1 REVERT JUMPDEST PUSH2 0x15DE DUP3 PUSH2 0x2589 JUMP JUMPDEST PUSH4 0x4E487B71 PUSH1 0xE0 SHL PUSH1 0x0 MSTORE PUSH1 0x41 PUSH1 0x4 MSTORE PUSH1 0x24 PUSH1 0x0 REVERT JUMPDEST PUSH1 0x0 DUP3 PUSH1 0x1F DUP4 ADD SLT PUSH2 0x264D JUMPI PUSH1 0x0 DUP1 REVERT JUMPDEST DUP2 CALLDATALOAD PUSH8 0xFFFFFFFFFFFFFFFF DUP1 DUP3 GT ISZERO PUSH2 0x2668 JUMPI PUSH2 0x2668 PUSH2 0x2626 JUMP JUMPDEST PUSH1 0x40 MLOAD PUSH1 0x1F DUP4 ADD PUSH1 0x1F NOT SWAP1 DUP2 AND PUSH1 0x3F ADD AND DUP2 ADD SWAP1 DUP3 DUP3 GT DUP2 DUP4 LT OR ISZERO PUSH2 0x2690 JUMPI PUSH2 0x2690 PUSH2 0x2626 JUMP JUMPDEST DUP2 PUSH1 0x40 MSTORE DUP4 DUP2 MSTORE DUP7 PUSH1 0x20 DUP6 DUP9 ADD ADD GT ISZERO PUSH2 0x26A9 JUMPI PUSH1 0x0 DUP1 REVERT JUMPDEST DUP4 PUSH1 0x20 DUP8 ADD PUSH1 0x20 DUP4 ADD CALLDATACOPY PUSH1 0x0 PUSH1 0x20 DUP6 DUP4 ADD ADD MSTORE DUP1 SWAP5 POP POP POP POP POP SWAP3 SWAP2 POP POP JUMP JUMPDEST PUSH1 0x0 DUP1 PUSH1 0x40 DUP4 DUP6 SUB SLT ISZERO PUSH2 0x26DC JUMPI PUSH1 0x0 DUP1 REVERT JUMPDEST PUSH2 0x26E5 DUP4 PUSH2 0x2589 JUMP JUMPDEST SWAP2 POP PUSH1 0x20 DUP4 ADD CALLDATALOAD PUSH8 0xFFFFFFFFFFFFFFFF DUP2 GT ISZERO PUSH2 0x2701 JUMPI PUSH1 0x0 DUP1 REVERT JUMPDEST PUSH2 0x270D DUP6 DUP3 DUP7 ADD PUSH2 0x263C JUMP JUMPDEST SWAP2 POP POP SWAP3 POP SWAP3 SWAP1 POP JUMP JUMPDEST PUSH1 0x0 DUP1 PUSH1 0x40 DUP4 DUP6 SUB SLT ISZERO PUSH2 0x272A JUMPI PUSH1 0x0 DUP1 REVERT JUMPDEST PUSH2 0x2733 DUP4 PUSH2 0x2589 JUMP JUMPDEST SWAP2 POP PUSH1 0x20 DUP4 ADD CALLDATALOAD DUP1 ISZERO ISZERO DUP2 EQ PUSH2 0x2748 JUMPI PUSH1 0x0 DUP1 REVERT JUMPDEST DUP1 SWAP2 POP POP SWAP3 POP SWAP3 SWAP1 POP JUMP JUMPDEST PUSH1 0x0 DUP1 PUSH1 0x0 PUSH1 0x60 DUP5 DUP7 SUB SLT ISZERO PUSH2 0x2768 JUMPI PUSH1 0x0 DUP1 REVERT JUMPDEST PUSH2 0x2771 DUP5 PUSH2 0x2589 JUMP JUMPDEST SWAP6 PUSH1 0x20 DUP6 ADD CALLDATALOAD SWAP6 POP PUSH1 0x40 SWAP1 SWAP5 ADD CALLDATALOAD SWAP4 SWAP3 POP POP POP JUMP JUMPDEST PUSH1 0x0 DUP1 PUSH1 0x0 DUP1 PUSH1 0x80 DUP6 DUP8 SUB SLT ISZERO PUSH2 0x279C JUMPI PUSH1 0x0 DUP1 REVERT JUMPDEST PUSH2 0x27A5 DUP6 PUSH2 0x2589 JUMP JUMPDEST SWAP4 POP PUSH2 0x27B3 PUSH1 0x20 DUP7 ADD PUSH2 0x2589 JUMP JUMPDEST SWAP3 POP PUSH1 0x40 DUP6 ADD CALLDATALOAD SWAP2 POP PUSH1 0x60 DUP6 ADD CALLDATALOAD PUSH8 0xFFFFFFFFFFFFFFFF DUP2 GT ISZERO PUSH2 0x27D6 JUMPI PUSH1 0x0 DUP1 REVERT JUMPDEST PUSH2 0x27E2 DUP8 DUP3 DUP9 ADD PUSH2 0x263C JUMP JUMPDEST SWAP2 POP POP SWAP3 SWAP6 SWAP2 SWAP5 POP SWAP3 POP JUMP JUMPDEST PUSH1 0x0 DUP1 PUSH1 0x40 DUP4 DUP6 SUB SLT ISZERO PUSH2 0x2801 JUMPI PUSH1 0x0 DUP1 REVERT JUMPDEST PUSH2 0x280A DUP4 PUSH2 0x2589 JUMP JUMPDEST SWAP2 POP PUSH2 0x2818 PUSH1 0x20 DUP5 ADD PUSH2 0x2589 JUMP JUMPDEST SWAP1 POP SWAP3 POP SWAP3 SWAP1 POP JUMP JUMPDEST PUSH1 0x1 DUP2 DUP2 SHR SWAP1 DUP3 AND DUP1 PUSH2 0x2835 JUMPI PUSH1 0x7F DUP3 AND SWAP2 POP JUMPDEST PUSH1 0x20 DUP3 LT DUP2 SUB PUSH2 0x2855 JUMPI PUSH4 0x4E487B71 PUSH1 0xE0 SHL PUSH1 0x0 MSTORE PUSH1 0x22 PUSH1 0x4 MSTORE PUSH1 0x24 PUSH1 0x0 REVERT JUMPDEST POP SWAP2 SWAP1 POP JUMP JUMPDEST PUSH4 0x4E487B71 PUSH1 0xE0 SHL PUSH1 0x0 MSTORE PUSH1 0x11 PUSH1 0x4 MSTORE PUSH1 0x24 PUSH1 0x0 REVERT JUMPDEST DUP1 DUP3 MUL DUP2 ISZERO DUP3 DUP3 DIV DUP5 EQ OR PUSH2 0x934 JUMPI PUSH2 0x934 PUSH2 0x285B JUMP JUMPDEST PUSH4 0x4E487B71 PUSH1 0xE0 SHL PUSH1 0x0 MSTORE PUSH1 0x12 PUSH1 0x4 MSTORE PUSH1 0x24 PUSH1 0x0 REVERT JUMPDEST PUSH1 0x0 DUP3 PUSH2 0x28AD JUMPI PUSH2 0x28AD PUSH2 0x2888 JUMP JUMPDEST POP DIV SWAP1 JUMP JUMPDEST DUP1 DUP3 ADD DUP1 DUP3 GT ISZERO PUSH2 0x934 JUMPI PUSH2 0x934 PUSH2 0x285B JUMP JUMPDEST PUSH1 0x0 PUSH1 0x1 DUP3 ADD PUSH2 0x28D7 JUMPI PUSH2 0x28D7 PUSH2 0x285B JUMP JUMPDEST POP PUSH1 0x1 ADD SWAP1 JUMP JUMPDEST DUP2 DUP2 SUB DUP2 DUP2 GT ISZERO PUSH2 0x934 JUMPI PUSH2 0x934 PUSH2 0x285B JUMP JUMPDEST PUSH1 0x0 DUP4 MLOAD PUSH2 0x2903 DUP2 DUP5 PUSH1 0x20 DUP9 ADD PUSH2 0x250D JUMP JUMPDEST DUP4 MLOAD SWAP1 DUP4 ADD SWAP1 PUSH2 0x2917 DUP2 DUP4 PUSH1 0x20 DUP9 ADD PUSH2 0x250D JUMP JUMPDEST ADD SWAP5 SWAP4 POP POP POP POP JUMP JUMPDEST PUSH1 0x0 DUP3 PUSH2 0x292F JUMPI PUSH2 0x292F PUSH2 0x2888 JUMP JUMPDEST POP MOD SWAP1 JUMP JUMPDEST PUSH1 0x0 PUSH1 0x20 DUP3 DUP5 SUB SLT ISZERO PUSH2 0x2946 JUMPI PUSH1 0x0 DUP1 REVERT JUMPDEST POP MLOAD SWAP2 SWAP1 POP JUMP JUMPDEST PUSH1 0x0 PUSH1 0x1 PUSH1 0x1 PUSH1 0xA0 SHL SUB DUP1 DUP8 AND DUP4 MSTORE DUP1 DUP7 AND PUSH1 0x20 DUP5 ADD MSTORE POP DUP4 PUSH1 0x40 DUP4 ADD MSTORE PUSH1 0x80 PUSH1 0x60 DUP4 ADD MSTORE PUSH2 0x297F PUSH1 0x80 DUP4 ADD DUP5 PUSH2 0x2531 JUMP JUMPDEST SWAP7 SWAP6 POP POP POP POP POP POP JUMP JUMPDEST PUSH1 0x0 PUSH1 0x20 DUP3 DUP5 SUB SLT ISZERO PUSH2 0x299B JUMPI PUSH1 0x0 DUP1 REVERT JUMPDEST DUP2 MLOAD PUSH2 0x15DE DUP2 PUSH2 0x24DA JUMP JUMPDEST PUSH1 0x1F DUP3 GT ISZERO PUSH2 0xB0B JUMPI PUSH1 0x0 DUP2 PUSH1 0x0 MSTORE PUSH1 0x20 PUSH1 0x0 KECCAK256 PUSH1 0x1F DUP6 ADD PUSH1 0x5 SHR DUP2 ADD PUSH1 0x20 DUP7 LT ISZERO PUSH2 0x29CF JUMPI POP DUP1 JUMPDEST PUSH1 0x1F DUP6 ADD PUSH1 0x5 SHR DUP3 ADD SWAP2 POP JUMPDEST DUP2 DUP2 LT ISZERO PUSH2 0x1543 JUMPI DUP3 DUP2 SSTORE PUSH1 0x1 ADD PUSH2 0x29DB JUMP JUMPDEST DUP2 MLOAD PUSH8 0xFFFFFFFFFFFFFFFF DUP2 GT ISZERO PUSH2 0x2A08 JUMPI PUSH2 0x2A08 PUSH2 0x2626 JUMP JUMPDEST PUSH2 0x2A1C DUP2 PUSH2 0x2A16 DUP5 SLOAD PUSH2 0x2821 JUMP JUMPDEST DUP5 PUSH2 0x29A6 JUMP JUMPDEST PUSH1 0x20 DUP1 PUSH1 0x1F DUP4 GT PUSH1 0x1 DUP2 EQ PUSH2 0x2A51 JUMPI PUSH1 0x0 DUP5 ISZERO PUSH2 0x2A39 JUMPI POP DUP6 DUP4 ADD MLOAD JUMPDEST PUSH1 0x0 NOT PUSH1 0x3 DUP7 SWAP1 SHL SHR NOT AND PUSH1 0x1 DUP6 SWAP1 SHL OR DUP6 SSTORE PUSH2 0x1543 JUMP JUMPDEST PUSH1 0x0 DUP6 DUP2 MSTORE PUSH1 0x20 DUP2 KECCAK256 PUSH1 0x1F NOT DUP7 AND SWAP2 JUMPDEST DUP3 DUP2 LT ISZERO PUSH2 0x2A80 JUMPI DUP9 DUP7 ADD MLOAD DUP3 SSTORE SWAP5 DUP5 ADD SWAP5 PUSH1 0x1 SWAP1 SWAP2 ADD SWAP1 DUP5 ADD PUSH2 0x2A61 JUMP JUMPDEST POP DUP6 DUP3 LT ISZERO PUSH2 0x2A9E JUMPI DUP8 DUP6 ADD MLOAD PUSH1 0x0 NOT PUSH1 0x3 DUP9 SWAP1 SHL PUSH1 0xF8 AND SHR NOT AND DUP2 SSTORE JUMPDEST POP POP POP POP POP PUSH1 0x1 SWAP1 DUP2 SHL ADD SWAP1 SSTORE POP JUMP JUMPDEST PUSH1 0x0 DUP3 MLOAD PUSH2 0x2AC0 DUP2 DUP5 PUSH1 0x20 DUP8 ADD PUSH2 0x250D JUMP JUMPDEST SWAP2 SWAP1 SWAP2 ADD SWAP3 SWAP2 POP POP JUMP INVALID LOG2 PUSH5 0x6970667358 0x22 SLT KECCAK256 0xD9 JUMP 0xB4 PUSH28 0x2160EC303CA310E55798AE2A81A21DB5AAA6E7D49B7AA896A7FB42FE PUSH5 0x736F6C6343 STOP ADDMOD NOT STOP CALLER "},"methodIdentifiers":{"FOUNDATION_FEE_PERCENT()":"38ecd620","FOUNDATION_RECEIVE_ADDRESS()":"dee0da62","LAST_PERCENT()":"d9753930","LUCKY_POOL_RECEIVE_ADDRESS()":"5aaf2c10","NFT_EXPIRED_TIME()":"12c98042","NFT_PRICE_INCR()":"1b8d2068","REFERRER_FEE_PERCENT()":"f3d428ae","TEAM_FEE_PERCENT()":"07e0d93c","TEAM_RECEIVE_ADDRESS()":"eeb20b71","TOP10_FEE_PERCENT()":"ed2d7519","TOP10_RECEIVE_ADDRESS()":"d3ed5ec6","UPGRADE_INTERFACE_VERSION()":"ad3cb1cc","approve(address,uint256)":"095ea7b3","auctionCounter()":"a7e76644","auctions(uint256)":"571a26a0","balanceOf(address)":"70a08231","bindUser(address)":"4697e2f5","createAuction(address,uint256,uint256)":"abb94051","getApproved(uint256)":"081812fc","getDayStart()":"e0c858ad","initialize(address)":"c4d66de8","isApprovedForAll(address,address)":"e985e9c5","lastParticipationDay(address)":"ef29a3cc","name()":"06fdde03","owner()":"8da5cb5b","ownerOf(uint256)":"6352211e","placeBid(uint256)":"9979ef45","proxiableUUID()":"52d1902d","renounceOwnership()":"715018a6","safeMint(address,uint256)":"a1448194","safeTransferFrom(address,address,uint256)":"42842e0e","safeTransferFrom(address,address,uint256,bytes)":"b88d4fde","setApprovalForAll(address,bool)":"a22cb465","supportsInterface(bytes4)":"01ffc9a7","symbol()":"95d89b41","tokenURI(uint256)":"c87b56dd","transferFrom(address,address,uint256)":"23b872dd","transferOwnership(address)":"f2fde38b","upgradeToAndCall(address,bytes)":"4f1ef286","userReferrals(address,uint256)":"989baf69","userReferrer(address)":"7c3fcc38"}},"storageLayout":{"storage":[{"astId":6825,"contract":"contracts/nft_auction/aud.sol:MultiNFTAuction","label":"userReferrer","offset":0,"slot":"0","type":"t_mapping(t_address,t_address)"},{"astId":6830,"contract":"contracts/nft_auction/aud.sol:MultiNFTAuction","label":"auctions","offset":0,"slot":"1","type":"t_mapping(t_uint256,t_struct(Auction)6821_storage)"},{"astId":6832,"contract":"contracts/nft_auction/aud.sol:MultiNFTAuction","label":"auctionCounter","offset":0,"slot":"2","type":"t_uint256"},{"astId":6835,"contract":"contracts/nft_auction/aud.sol:MultiNFTAuction","label":"FOUNDATION_RECEIVE_ADDRESS","offset":0,"slot":"3","type":"t_address"},{"astId":6838,"contract":"contracts/nft_auction/aud.sol:MultiNFTAuction","label":"TEAM_RECEIVE_ADDRESS","offset":0,"slot":"4","type":"t_address"},{"astId":6841,"contract":"contracts/nft_auction/aud.sol:MultiNFTAuction","label":"TOP10_RECEIVE_ADDRESS","offset":0,"slot":"5","type":"t_address"},{"astId":6844,"contract":"contracts/nft_auction/aud.sol:MultiNFTAuction","label":"LUCKY_POOL_RECEIVE_ADDRESS","offset":0,"slot":"6","type":"t_address"},{"astId":6847,"contract":"contracts/nft_auction/aud.sol:MultiNFTAuction","label":"NFT_PRICE_INCR","offset":0,"slot":"7","type":"t_uint256"},{"astId":6874,"contract":"contracts/nft_auction/aud.sol:MultiNFTAuction","label":"userReferrals","offset":0,"slot":"8","type":"t_mapping(t_address,t_array(t_address)dyn_storage)"},{"astId":6878,"contract":"contracts/nft_auction/aud.sol:MultiNFTAuction","label":"lastParticipationDay","offset":0,"slot":"9","type":"t_mapping(t_address,t_uint256)"}],"types":{"t_address":{"encoding":"inplace","label":"address","numberOfBytes":"20"},"t_array(t_address)dyn_storage":{"base":"t_address","encoding":"dynamic_array","label":"address[]","numberOfBytes":"32"},"t_contract(ERC721Upgradeable)1762":{"encoding":"inplace","label":"contract ERC721Upgradeable","numberOfBytes":"20"},"t_mapping(t_address,t_address)":{"encoding":"mapping","key":"t_address","label":"mapping(address => address)","numberOfBytes":"32","value":"t_address"},"t_mapping(t_address,t_array(t_address)dyn_storage)":{"encoding":"mapping","key":"t_address","label":"mapping(address => address[])","numberOfBytes":"32","value":"t_array(t_address)dyn_storage"},"t_mapping(t_address,t_uint256)":{"encoding":"mapping","key":"t_address","label":"mapping(address => uint256)","numberOfBytes":"32","value":"t_uint256"},"t_mapping(t_uint256,t_struct(Auction)6821_storage)":{"encoding":"mapping","key":"t_uint256","label":"mapping(uint256 => struct MultiNFTAuction.Auction)","numberOfBytes":"32","value":"t_struct(Auction)6821_storage"},"t_struct(Auction)6821_storage":{"encoding":"inplace","label":"struct MultiNFTAuction.Auction","members":[{"astId":6808,"contract":"contracts/nft_auction/aud.sol:MultiNFTAuction","label":"nft","offset":0,"slot":"0","type":"t_contract(ERC721Upgradeable)1762"},{"astId":6810,"contract":"contracts/nft_auction/aud.sol:MultiNFTAuction","label":"nftId","offset":0,"slot":"1","type":"t_uint256"},{"astId":6812,"contract":"contracts/nft_auction/aud.sol:MultiNFTAuction","label":"lastPrice","offset":0,"slot":"2","type":"t_uint256"},{"astId":6814,"contract":"contracts/nft_auction/aud.sol:MultiNFTAuction","label":"lastBidder","offset":0,"slot":"3","type":"t_address"},{"astId":6816,"contract":"contracts/nft_auction/aud.sol:MultiNFTAuction","label":"expiredTime","offset":0,"slot":"4","type":"t_uint256"},{"astId":6820,"contract":"contracts/nft_auction/aud.sol:MultiNFTAuction","label":"bids","offset":0,"slot":"5","type":"t_mapping(t_address,t_uint256)"}],"numberOfBytes":"192"},"t_uint256":{"encoding":"inplace","label":"uint256","numberOfBytes":"32"}}}}}}