{"contracts/BT2.sol":{"BT2":{"abi":[{"inputs":[],"stateMutability":"nonpayable","type":"constructor"},{"anonymous":false,"inputs":[{"indexed":false,"internalType":"uint32","name":"_blockToUnlockLiquidity","type":"uint32"},{"indexed":false,"internalType":"uint256","name":"value","type":"uint256"}],"name":"AddLiquidity","type":"event"},{"anonymous":false,"inputs":[{"indexed":false,"internalType":"uint256","name":"value","type":"uint256"}],"name":"RemoveLiquidity","type":"event"},{"anonymous":false,"inputs":[{"indexed":true,"internalType":"address","name":"sender","type":"address"},{"indexed":false,"internalType":"uint256","name":"amount0In","type":"uint256"},{"indexed":false,"internalType":"uint256","name":"amount1In","type":"uint256"},{"indexed":false,"internalType":"uint256","name":"amount0Out","type":"uint256"},{"indexed":false,"internalType":"uint256","name":"amount1Out","type":"uint256"}],"name":"Swap","type":"event"},{"anonymous":false,"inputs":[{"indexed":true,"internalType":"address","name":"from","type":"address"},{"indexed":true,"internalType":"address","name":"to","type":"address"},{"indexed":false,"internalType":"uint256","name":"value","type":"uint256"}],"name":"Transfer","type":"event"},{"inputs":[],"name":"_fireStopAmount","outputs":[{"internalType":"uint256","name":"","type":"uint256"}],"stateMutability":"view","type":"function"},{"inputs":[],"name":"_maxSellAmount","outputs":[{"internalType":"uint256","name":"","type":"uint256"}],"stateMutability":"view","type":"function"},{"inputs":[],"name":"_maxWallet","outputs":[{"internalType":"uint256","name":"","type":"uint256"}],"stateMutability":"view","type":"function"},{"inputs":[],"name":"_nodeLimitAmount","outputs":[{"internalType":"uint256","name":"","type":"uint256"}],"stateMutability":"view","type":"function"},{"inputs":[{"internalType":"address","name":"account","type":"address"}],"name":"balanceOf","outputs":[{"internalType":"uint256","name":"","type":"uint256"}],"stateMutability":"view","type":"function"},{"inputs":[{"internalType":"uint256","name":"","type":"uint256"}],"name":"communityAddress","outputs":[{"internalType":"address","name":"","type":"address"}],"stateMutability":"view","type":"function"},{"inputs":[],"name":"communityBonus","outputs":[{"internalType":"uint256","name":"","type":"uint256"}],"stateMutability":"view","type":"function"},{"inputs":[{"internalType":"address","name":"","type":"address"}],"name":"communityCount","outputs":[{"internalType":"uint256","name":"","type":"uint256"}],"stateMutability":"view","type":"function"},{"inputs":[],"name":"decimals","outputs":[{"internalType":"uint8","name":"","type":"uint8"}],"stateMutability":"view","type":"function"},{"inputs":[],"name":"ecoAddress","outputs":[{"internalType":"address","name":"","type":"address"}],"stateMutability":"view","type":"function"},{"inputs":[{"internalType":"bool","name":"_maxWalletEnable","type":"bool"}],"name":"enableMaxWallet","outputs":[],"stateMutability":"nonpayable","type":"function"},{"inputs":[],"name":"feeAddress","outputs":[{"internalType":"address","name":"","type":"address"}],"stateMutability":"view","type":"function"},{"inputs":[{"internalType":"uint256","name":"value","type":"uint256"},{"internalType":"bool","name":"_buy","type":"bool"}],"name":"getAmountOut","outputs":[{"internalType":"uint256","name":"","type":"uint256"}],"stateMutability":"view","type":"function"},{"inputs":[],"name":"getReserves","outputs":[{"internalType":"uint256","name":"","type":"uint256"},{"internalType":"uint256","name":"","type":"uint256"}],"stateMutability":"view","type":"function"},{"inputs":[],"name":"lastRewardAt","outputs":[{"internalType":"uint256","name":"","type":"uint256"}],"stateMutability":"view","type":"function"},{"inputs":[],"name":"liquidityProvider","outputs":[{"internalType":"address","name":"","type":"address"}],"stateMutability":"view","type":"function"},{"inputs":[],"name":"marketAddress","outputs":[{"internalType":"address","name":"","type":"address"}],"stateMutability":"view","type":"function"},{"inputs":[],"name":"maxWalletEnable","outputs":[{"internalType":"bool","name":"","type":"bool"}],"stateMutability":"view","type":"function"},{"inputs":[],"name":"name","outputs":[{"internalType":"string","name":"","type":"string"}],"stateMutability":"view","type":"function"},{"inputs":[{"internalType":"uint256","name":"","type":"uint256"}],"name":"nodeAddress","outputs":[{"internalType":"address","name":"","type":"address"}],"stateMutability":"view","type":"function"},{"inputs":[],"name":"owner","outputs":[{"internalType":"address","name":"","type":"address"}],"stateMutability":"view","type":"function"},{"inputs":[],"name":"presaleEnable","outputs":[{"internalType":"bool","name":"","type":"bool"}],"stateMutability":"view","type":"function"},{"inputs":[{"internalType":"address","name":"","type":"address"}],"name":"relation","outputs":[{"internalType":"address","name":"","type":"address"}],"stateMutability":"view","type":"function"},{"inputs":[{"internalType":"uint256","name":"index","type":"uint256"}],"name":"removeNodeAddress","outputs":[],"stateMutability":"nonpayable","type":"function"},{"inputs":[],"name":"renounceOwnership","outputs":[],"stateMutability":"nonpayable","type":"function"},{"inputs":[{"internalType":"uint256","name":"_maxWallet_","type":"uint256"}],"name":"setMaxWallet","outputs":[],"stateMutability":"nonpayable","type":"function"},{"inputs":[],"name":"symbol","outputs":[{"internalType":"string","name":"","type":"string"}],"stateMutability":"view","type":"function"},{"inputs":[],"name":"totalSupply","outputs":[{"internalType":"uint256","name":"","type":"uint256"}],"stateMutability":"view","type":"function"},{"inputs":[{"internalType":"address","name":"to","type":"address"},{"internalType":"uint256","name":"value","type":"uint256"}],"name":"transfer","outputs":[{"internalType":"bool","name":"","type":"bool"}],"stateMutability":"nonpayable","type":"function"},{"stateMutability":"payable","type":"receive"}],"evm":{"bytecode":{"linkReferences":{},"object":"60806040526014805460ff191690553480156200001b57600080fd5b50604080518082019091526004815263151154d560e21b602082015260069062000046908262000212565b50604080518082019091526004815263151154d560e21b602082015260079062000071908262000212565b5067015fb7f9b8c38000600155681043561a882930000060025566038d7ea4c68000600555652d79883d2000600381905560105565048c27395000600455600880546001600160a01b03199081163317909155600b805482167398a8790028c6476b740be640627a62496e5d616b1781556009805460ff60a01b1916600160a01b179055306000908152602081905260408082206627147114878000905591546001600160a01b0316815220670138a388a43c00009055600a80548216737a6ca6a66b7ca223ecd10ef837895f7a32e902d4179055600c805490911673bedddae2062f0b573ec72562f88da141a67b70b2179055620002de565b634e487b7160e01b600052604160045260246000fd5b600181811c908216806200019657607f821691505b602082108103620001b757634e487b7160e01b600052602260045260246000fd5b50919050565b601f8211156200020d576000816000526020600020601f850160051c81016020861015620001e85750805b601f850160051c820191505b818110156200020957828155600101620001f4565b5050505b505050565b81516001600160401b038111156200022e576200022e6200016b565b62000246816200023f845462000181565b84620001bd565b602080601f8311600181146200027e5760008415620002655750858301515b600019600386901b1c1916600185901b17855562000209565b600085815260208120601f198616915b82811015620002af578886015182559484019460019091019084016200028e565b5085821015620002ce5787850151600019600388901b60f8161c191681555b5050505050600190811b01905550565b61171280620002ee6000396000f3fe6080604052600436106101c65760003560e01c80637cca52fe116100f7578063ae19139e11610095578063dc54150411610064578063dc54150414610533578063e98533b814610549578063f2e1562814610569578063f3e019421461057f57600080fd5b8063ae19139e146104a7578063b74de591146104c7578063d0943e17146104dd578063d7a05f05146104fd57600080fd5b80638da5cb5b116100d15780638da5cb5b14610432578063956236411461045257806395d89b4114610472578063a9059cbb1461048757600080fd5b80637cca52fe146103ec5780637ec18cf61461040257806382247ec01461041c57600080fd5b8063412753581161016457806368961ecb1161013e57806368961ecb1461035457806370a0823114610374578063715018a6146103aa57806378554a4f146103bf57600080fd5b806341275358146102dc5780635b8bec55146103145780635d0044ca1461033457600080fd5b806312a54b62116101a057806312a54b621461026457806318160ddd14610295578063313ce567146102aa5780633cd691d5146102c657600080fd5b806306fdde03146101da5780630902f1ac1461020557806311106ee21461023657600080fd5b366101d5576101d361059f565b005b600080fd5b3480156101e657600080fd5b506101ef6107e1565b6040516101fc91906113dd565b60405180910390f35b34801561021157600080fd5b50600254306000908152602081815260409182902054825193845290830152016101fc565b34801561024257600080fd5b50610256610251366004611441565b610873565b6040519081526020016101fc565b34801561027057600080fd5b5060095461028590600160a01b900460ff1681565b60405190151581526020016101fc565b3480156102a157600080fd5b50600154610256565b3480156102b657600080fd5b50604051600881526020016101fc565b3480156102d257600080fd5b5061025660105481565b3480156102e857600080fd5b50600c546102fc906001600160a01b031681565b6040516001600160a01b0390911681526020016101fc565b34801561032057600080fd5b506009546102fc906001600160a01b031681565b34801561034057600080fd5b506101d361034f36600461146d565b6108dd565b34801561036057600080fd5b50600b546102fc906001600160a01b031681565b34801561038057600080fd5b5061025661038f36600461149d565b6001600160a01b031660009081526020819052604090205490565b3480156103b657600080fd5b506101d361093c565b3480156103cb57600080fd5b506102566103da36600461149d565b60126020526000908152604090205481565b3480156103f857600080fd5b5061025660045481565b34801561040e57600080fd5b506014546102859060ff1681565b34801561042857600080fd5b5061025660035481565b34801561043e57600080fd5b506008546102fc906001600160a01b031681565b34801561045e57600080fd5b50600a546102fc906001600160a01b031681565b34801561047e57600080fd5b506101ef6109b5565b34801561049357600080fd5b506102856104a23660046114bf565b6109c4565b3480156104b357600080fd5b506101d36104c23660046114e9565b610a8d565b3480156104d357600080fd5b5061025660055481565b3480156104e957600080fd5b506102fc6104f836600461146d565b610b20565b34801561050957600080fd5b506102fc61051836600461149d565b6011602052600090815260409020546001600160a01b031681565b34801561053f57600080fd5b50610256600f5481565b34801561055557600080fd5b506102fc61056436600461146d565b610b4a565b34801561057557600080fd5b5061025660135481565b34801561058b57600080fd5b506101d361059a36600461146d565b610b5a565b336000908152601560205260409020544363ffffffff909116036106305760405162461bcd60e51b815260206004820152603160248201527f596f752063616e2774206d616b652074776f207472616e73616374696f6e732060448201527f696e207468652073616d6520626c6f636b00000000000000000000000000000060648201526084015b60405180910390fd5b336000908152601560205260408120805463ffffffff19164363ffffffff1617905560025434919061066390839061151a565b3060009081526020819052604090205461067d908461152d565b6106879190611544565b600954909150600160a01b900460ff161561070757600354336000908152602081905260409020546106b9908361151a565b11156107075760405162461bcd60e51b815260206004820152601360248201527f4d61782077616c6c6574206578636565646564000000000000000000000000006044820152606401610627565b6107283033606461071985605f61152d565b6107239190611544565b610c17565b6103e8610737836103d961152d565b6107419190611544565b60026000828254610752919061151a565b90915550610761905034610d4a565b61076a81610d9d565b6107743382610ec4565b61077d81610f0a565b61078633610f3e565b61078f81610fbb565b60408051348152600060208201819052918101919091526060810182905233907f49926bbebe8474393f434dfa4f78694c0923efa07d19f2284518bfabd06eb737906080015b60405180910390a25050565b6060600680546107f090611566565b80601f016020809104026020016040519081016040528092919081815260200182805461081c90611566565b80156108695780601f1061083e57610100808354040283529160200191610869565b820191906000526020600020905b81548152906001019060200180831161084c57829003601f168201915b5050505050905090565b6000806000610892600254306000908152602081905260409020549091565b9150915083156108c3576108a6858361151a565b6108b0828761152d565b6108ba9190611544565b925050506108d7565b6108cd858261151a565b6108b0838761152d565b92915050565b6008546001600160a01b031633146109375760405162461bcd60e51b815260206004820181905260248201527f4f776e61626c653a2063616c6c6572206973206e6f7420746865206f776e65726044820152606401610627565b600355565b6008546001600160a01b031633146109965760405162461bcd60e51b815260206004820181905260248201527f4f776e61626c653a2063616c6c6572206973206e6f7420746865206f776e65726044820152606401610627565b6008805473ffffffffffffffffffffffffffffffffffffffff19169055565b6060600780546107f090611566565b6000306001600160a01b038416036109e4576109df82611030565b610a84565b60006109f2600660086115a0565b6109fd90600a61168e565b610a0890600161152d565b336000908152602081905260409020549091508303610a645733600090815260208190526040902054811015610a5a5733600090815260208190526040902054610a5390829061169d565b9250610a64565b60019150506108d7565b610a6f338585610c17565b610a7884610f3e565b610a8233856112fd565b505b50600192915050565b6008546001600160a01b03163314610ae75760405162461bcd60e51b815260206004820181905260248201527f4f776e61626c653a2063616c6c6572206973206e6f7420746865206f776e65726044820152606401610627565b60098054911515600160a01b027fffffffffffffffffffffff00ffffffffffffffffffffffffffffffffffffffff909216919091179055565b600e8181548110610b3057600080fd5b6000918252602090912001546001600160a01b0316905081565b600d8181548110610b3057600080fd5b600d8054610b6a9060019061169d565b81548110610b7a57610b7a6116b0565b600091825260209091200154600d80546001600160a01b039092169183908110610ba657610ba66116b0565b9060005260206000200160006101000a8154816001600160a01b0302191690836001600160a01b03160217905550600d805480610be557610be56116c6565b6000828152602090208101600019908101805473ffffffffffffffffffffffffffffffffffffffff1916905501905550565b6001600160a01b038316600090815260208190526040902054811115610ca55760405162461bcd60e51b815260206004820152602660248201527f45524332303a207472616e7366657220616d6f756e742065786365656473206260448201527f616c616e636500000000000000000000000000000000000000000000000000006064820152608401610627565b6001600160a01b038084166000908152602081905260409020805483900390558216610cd957600180548290039055610cf8565b6001600160a01b03821660009081526020819052604090208054820190555b816001600160a01b0316836001600160a01b03167fddf252ad1be2c89b69c2b068fc378daa952ba7f163c4a11628f55a4df523b3ef83604051610d3d91815260200190565b60405180910390a3505050565b600a546001600160a01b03166108fc6103e8610d6784600f61152d565b610d719190611544565b6040518115909202916000818181858888f19350505050158015610d99573d6000803e3d6000fd5b5050565b60006103e8610dad83600f61152d565b610db79190611544565b600d54909150600003610ddc57600c54610d999030906001600160a01b031683610c17565b600d54600090610dec9083611544565b905060005b600d54811015610ebe5760006001600160a01b0316600d8281548110610e1957610e196116b0565b6000918252602090912001546001600160a01b031614610eb657601054600080600d8481548110610e4c57610e4c6116b0565b60009182526020808320909101546001600160a01b0316835282019290925260400190205410610ead57610ea830600d8381548110610e8d57610e8d6116b0565b6000918252602090912001546001600160a01b031684610c17565b610eb6565b610eb681610b5a565b600101610df1565b50505050565b6001600160a01b038083166000908152601160205260409020541680610ef25750600c546001600160a01b03165b610f0530826103e861071986600a61152d565b505050565b60006064610f1983600561152d565b610f239190611544565b600b54909150610d999030906001600160a01b031683610c17565b6010546001600160a01b03821660009081526020819052604090205410610fb857600d80546001810182556000919091527fd7b6990105719101dabeb77144f2a3385c8033acd3af97e9423a695e81ad1eb501805473ffffffffffffffffffffffffffffffffffffffff19166001600160a01b0383161790555b50565b60006103e8610fcb83600a61152d565b610fd59190611544565b905060055481600154610fe8919061169d565b101561100157600554600154610ffe919061169d565b90505b60008111801561101f57503060009081526020819052604090205481105b15610d9957610d9930600083610c17565b336000908152601560205260409020544363ffffffff909116036110bc5760405162461bcd60e51b815260206004820152603160248201527f596f752063616e2774206d616b652074776f207472616e73616374696f6e732060448201527f696e207468652073616d6520626c6f636b0000000000000000000000000000006064820152608401610627565b336000908152601560205260409020805463ffffffff19164363ffffffff161790556004548111156111305760405162461bcd60e51b815260206004820152600e60248201527f4d6178204c696d69742053656c6c0000000000000000000000000000000000006044820152606401610627565b3060009081526020819052604081205461114b90839061151a565b600254611158908461152d565b6111629190611544565b9050600081116111b45760405162461bcd60e51b815260206004820152601360248201527f53656c6c20616d6f756e7420746f6f206c6f77000000000000000000000000006044820152606401610627565b8060025410156112065760405162461bcd60e51b815260206004820152601c60248201527f496e73756666696369656e7420424e4220696e207265736572766573000000006044820152606401610627565b611211333084610c17565b336108fc606461122284605f61152d565b61122c9190611544565b6040518115909202916000818181858888f19350505050158015611254573d6000803e3d6000fd5b506103e8611264826103c561152d565b61126e9190611544565b6002600082825461127f919061169d565b9091555061128e905081610d4a565b61129782610d9d565b6112a13383610ec4565b6112aa82610f0a565b6112b382610fbb565b60408051600080825260208201859052918101839052606081019190915233907f49926bbebe8474393f434dfa4f78694c0923efa07d19f2284518bfabd06eb737906080016107d5565b6001600160a01b03818116600090815260116020526040902054161580156113375750806001600160a01b0316826001600160a01b031614155b801561134c57506001600160a01b0381163014155b80156113665750600a546001600160a01b03828116911614155b80156113805750600b546001600160a01b03828116911614155b801561139a5750600c546001600160a01b03828116911614155b15610d99576001600160a01b039081166000908152601160205260409020805473ffffffffffffffffffffffffffffffffffffffff191692909116919091179055565b60006020808352835180602085015260005b8181101561140b578581018301518582016040015282016113ef565b506000604082860101526040601f19601f8301168501019250505092915050565b8035801515811461143c57600080fd5b919050565b6000806040838503121561145457600080fd5b823591506114646020840161142c565b90509250929050565b60006020828403121561147f57600080fd5b5035919050565b80356001600160a01b038116811461143c57600080fd5b6000602082840312156114af57600080fd5b6114b882611486565b9392505050565b600080604083850312156114d257600080fd5b6114db83611486565b946020939093013593505050565b6000602082840312156114fb57600080fd5b6114b88261142c565b634e487b7160e01b600052601160045260246000fd5b808201808211156108d7576108d7611504565b80820281158282048414176108d7576108d7611504565b60008261156157634e487b7160e01b600052601260045260246000fd5b500490565b600181811c9082168061157a57607f821691505b60208210810361159a57634e487b7160e01b600052602260045260246000fd5b50919050565b60ff82811682821603908111156108d7576108d7611504565b600181815b808511156115f45781600019048211156115da576115da611504565b808516156115e757918102915b93841c93908002906115be565b509250929050565b60008261160b575060016108d7565b81611618575060006108d7565b8160018114610a5a57600281036116455760ff84111561163a5761163a611504565b50506001821b6108d7565b5060208310610133831016604e8410600b8410161715611668575081810a6108d7565b61167283836115b9565b806000190482111561168657611686611504565b029392505050565b60006114b860ff8416836115fc565b818103818111156108d7576108d7611504565b634e487b7160e01b600052603260045260246000fd5b634e487b7160e01b600052603160045260246000fdfea2646970667358221220639d22d7d56e26c07b7b8b39c6cdb60c600de53411fb99a11e98b50c53a3da0864736f6c63430008180033","opcodes":"PUSH1 0x80 PUSH1 0x40 MSTORE PUSH1 0x14 DUP1 SLOAD PUSH1 0xFF NOT AND SWAP1 SSTORE CALLVALUE DUP1 ISZERO PUSH3 0x1B JUMPI PUSH1 0x0 DUP1 REVERT JUMPDEST POP PUSH1 0x40 DUP1 MLOAD DUP1 DUP3 ADD SWAP1 SWAP2 MSTORE PUSH1 0x4 DUP2 MSTORE PUSH4 0x151154D5 PUSH1 0xE2 SHL PUSH1 0x20 DUP3 ADD MSTORE PUSH1 0x6 SWAP1 PUSH3 0x46 SWAP1 DUP3 PUSH3 0x212 JUMP JUMPDEST POP PUSH1 0x40 DUP1 MLOAD DUP1 DUP3 ADD SWAP1 SWAP2 MSTORE PUSH1 0x4 DUP2 MSTORE PUSH4 0x151154D5 PUSH1 0xE2 SHL PUSH1 0x20 DUP3 ADD MSTORE PUSH1 0x7 SWAP1 PUSH3 0x71 SWAP1 DUP3 PUSH3 0x212 JUMP JUMPDEST POP PUSH8 0x15FB7F9B8C38000 PUSH1 0x1 SSTORE PUSH9 0x1043561A8829300000 PUSH1 0x2 SSTORE PUSH7 0x38D7EA4C68000 PUSH1 0x5 SSTORE PUSH6 0x2D79883D2000 PUSH1 0x3 DUP2 SWAP1 SSTORE PUSH1 0x10 SSTORE PUSH6 0x48C27395000 PUSH1 0x4 SSTORE PUSH1 0x8 DUP1 SLOAD PUSH1 0x1 PUSH1 0x1 PUSH1 0xA0 SHL SUB NOT SWAP1 DUP2 AND CALLER OR SWAP1 SWAP2 SSTORE PUSH1 0xB DUP1 SLOAD DUP3 AND PUSH20 0x98A8790028C6476B740BE640627A62496E5D616B OR DUP2 SSTORE PUSH1 0x9 DUP1 SLOAD PUSH1 0xFF PUSH1 0xA0 SHL NOT AND PUSH1 0x1 PUSH1 0xA0 SHL OR SWAP1 SSTORE ADDRESS PUSH1 0x0 SWAP1 DUP2 MSTORE PUSH1 0x20 DUP2 SWAP1 MSTORE PUSH1 0x40 DUP1 DUP3 KECCAK256 PUSH7 0x27147114878000 SWAP1 SSTORE SWAP2 SLOAD PUSH1 0x1 PUSH1 0x1 PUSH1 0xA0 SHL SUB AND DUP2 MSTORE KECCAK256 PUSH8 0x138A388A43C0000 SWAP1 SSTORE PUSH1 0xA DUP1 SLOAD DUP3 AND PUSH20 0x7A6CA6A66B7CA223ECD10EF837895F7A32E902D4 OR SWAP1 SSTORE PUSH1 0xC DUP1 SLOAD SWAP1 SWAP2 AND PUSH20 0xBEDDDAE2062F0B573EC72562F88DA141A67B70B2 OR SWAP1 SSTORE PUSH3 0x2DE JUMP JUMPDEST PUSH4 0x4E487B71 PUSH1 0xE0 SHL PUSH1 0x0 MSTORE PUSH1 0x41 PUSH1 0x4 MSTORE PUSH1 0x24 PUSH1 0x0 REVERT JUMPDEST PUSH1 0x1 DUP2 DUP2 SHR SWAP1 DUP3 AND DUP1 PUSH3 0x196 JUMPI PUSH1 0x7F DUP3 AND SWAP2 POP JUMPDEST PUSH1 0x20 DUP3 LT DUP2 SUB PUSH3 0x1B7 JUMPI PUSH4 0x4E487B71 PUSH1 0xE0 SHL PUSH1 0x0 MSTORE PUSH1 0x22 PUSH1 0x4 MSTORE PUSH1 0x24 PUSH1 0x0 REVERT JUMPDEST POP SWAP2 SWAP1 POP JUMP JUMPDEST PUSH1 0x1F DUP3 GT ISZERO PUSH3 0x20D JUMPI PUSH1 0x0 DUP2 PUSH1 0x0 MSTORE PUSH1 0x20 PUSH1 0x0 KECCAK256 PUSH1 0x1F DUP6 ADD PUSH1 0x5 SHR DUP2 ADD PUSH1 0x20 DUP7 LT ISZERO PUSH3 0x1E8 JUMPI POP DUP1 JUMPDEST PUSH1 0x1F DUP6 ADD PUSH1 0x5 SHR DUP3 ADD SWAP2 POP JUMPDEST DUP2 DUP2 LT ISZERO PUSH3 0x209 JUMPI DUP3 DUP2 SSTORE PUSH1 0x1 ADD PUSH3 0x1F4 JUMP JUMPDEST POP POP POP JUMPDEST POP POP POP JUMP JUMPDEST DUP2 MLOAD PUSH1 0x1 PUSH1 0x1 PUSH1 0x40 SHL SUB DUP2 GT ISZERO PUSH3 0x22E JUMPI PUSH3 0x22E PUSH3 0x16B JUMP JUMPDEST PUSH3 0x246 DUP2 PUSH3 0x23F DUP5 SLOAD PUSH3 0x181 JUMP JUMPDEST DUP5 PUSH3 0x1BD JUMP JUMPDEST PUSH1 0x20 DUP1 PUSH1 0x1F DUP4 GT PUSH1 0x1 DUP2 EQ PUSH3 0x27E JUMPI PUSH1 0x0 DUP5 ISZERO PUSH3 0x265 JUMPI POP DUP6 DUP4 ADD MLOAD JUMPDEST PUSH1 0x0 NOT PUSH1 0x3 DUP7 SWAP1 SHL SHR NOT AND PUSH1 0x1 DUP6 SWAP1 SHL OR DUP6 SSTORE PUSH3 0x209 JUMP JUMPDEST PUSH1 0x0 DUP6 DUP2 MSTORE PUSH1 0x20 DUP2 KECCAK256 PUSH1 0x1F NOT DUP7 AND SWAP2 JUMPDEST DUP3 DUP2 LT ISZERO PUSH3 0x2AF JUMPI DUP9 DUP7 ADD MLOAD DUP3 SSTORE SWAP5 DUP5 ADD SWAP5 PUSH1 0x1 SWAP1 SWAP2 ADD SWAP1 DUP5 ADD PUSH3 0x28E JUMP JUMPDEST POP DUP6 DUP3 LT ISZERO PUSH3 0x2CE JUMPI DUP8 DUP6 ADD MLOAD PUSH1 0x0 NOT PUSH1 0x3 DUP9 SWAP1 SHL PUSH1 0xF8 AND SHR NOT AND DUP2 SSTORE JUMPDEST POP POP POP POP POP PUSH1 0x1 SWAP1 DUP2 SHL ADD SWAP1 SSTORE POP JUMP JUMPDEST PUSH2 0x1712 DUP1 PUSH3 0x2EE PUSH1 0x0 CODECOPY PUSH1 0x0 RETURN INVALID PUSH1 0x80 PUSH1 0x40 MSTORE PUSH1 0x4 CALLDATASIZE LT PUSH2 0x1C6 JUMPI PUSH1 0x0 CALLDATALOAD PUSH1 0xE0 SHR DUP1 PUSH4 0x7CCA52FE GT PUSH2 0xF7 JUMPI DUP1 PUSH4 0xAE19139E GT PUSH2 0x95 JUMPI DUP1 PUSH4 0xDC541504 GT PUSH2 0x64 JUMPI DUP1 PUSH4 0xDC541504 EQ PUSH2 0x533 JUMPI DUP1 PUSH4 0xE98533B8 EQ PUSH2 0x549 JUMPI DUP1 PUSH4 0xF2E15628 EQ PUSH2 0x569 JUMPI DUP1 PUSH4 0xF3E01942 EQ PUSH2 0x57F JUMPI PUSH1 0x0 DUP1 REVERT JUMPDEST DUP1 PUSH4 0xAE19139E EQ PUSH2 0x4A7 JUMPI DUP1 PUSH4 0xB74DE591 EQ PUSH2 0x4C7 JUMPI DUP1 PUSH4 0xD0943E17 EQ PUSH2 0x4DD JUMPI DUP1 PUSH4 0xD7A05F05 EQ PUSH2 0x4FD JUMPI PUSH1 0x0 DUP1 REVERT JUMPDEST DUP1 PUSH4 0x8DA5CB5B GT PUSH2 0xD1 JUMPI DUP1 PUSH4 0x8DA5CB5B EQ PUSH2 0x432 JUMPI DUP1 PUSH4 0x95623641 EQ PUSH2 0x452 JUMPI DUP1 PUSH4 0x95D89B41 EQ PUSH2 0x472 JUMPI DUP1 PUSH4 0xA9059CBB EQ PUSH2 0x487 JUMPI PUSH1 0x0 DUP1 REVERT JUMPDEST DUP1 PUSH4 0x7CCA52FE EQ PUSH2 0x3EC JUMPI DUP1 PUSH4 0x7EC18CF6 EQ PUSH2 0x402 JUMPI DUP1 PUSH4 0x82247EC0 EQ PUSH2 0x41C JUMPI PUSH1 0x0 DUP1 REVERT JUMPDEST DUP1 PUSH4 0x41275358 GT PUSH2 0x164 JUMPI DUP1 PUSH4 0x68961ECB GT PUSH2 0x13E JUMPI DUP1 PUSH4 0x68961ECB EQ PUSH2 0x354 JUMPI DUP1 PUSH4 0x70A08231 EQ PUSH2 0x374 JUMPI DUP1 PUSH4 0x715018A6 EQ PUSH2 0x3AA JUMPI DUP1 PUSH4 0x78554A4F EQ PUSH2 0x3BF JUMPI PUSH1 0x0 DUP1 REVERT JUMPDEST DUP1 PUSH4 0x41275358 EQ PUSH2 0x2DC JUMPI DUP1 PUSH4 0x5B8BEC55 EQ PUSH2 0x314 JUMPI DUP1 PUSH4 0x5D0044CA EQ PUSH2 0x334 JUMPI PUSH1 0x0 DUP1 REVERT JUMPDEST DUP1 PUSH4 0x12A54B62 GT PUSH2 0x1A0 JUMPI DUP1 PUSH4 0x12A54B62 EQ PUSH2 0x264 JUMPI DUP1 PUSH4 0x18160DDD EQ PUSH2 0x295 JUMPI DUP1 PUSH4 0x313CE567 EQ PUSH2 0x2AA JUMPI DUP1 PUSH4 0x3CD691D5 EQ PUSH2 0x2C6 JUMPI PUSH1 0x0 DUP1 REVERT JUMPDEST DUP1 PUSH4 0x6FDDE03 EQ PUSH2 0x1DA JUMPI DUP1 PUSH4 0x902F1AC EQ PUSH2 0x205 JUMPI DUP1 PUSH4 0x11106EE2 EQ PUSH2 0x236 JUMPI PUSH1 0x0 DUP1 REVERT JUMPDEST CALLDATASIZE PUSH2 0x1D5 JUMPI PUSH2 0x1D3 PUSH2 0x59F JUMP JUMPDEST STOP JUMPDEST PUSH1 0x0 DUP1 REVERT JUMPDEST CALLVALUE DUP1 ISZERO PUSH2 0x1E6 JUMPI PUSH1 0x0 DUP1 REVERT JUMPDEST POP PUSH2 0x1EF PUSH2 0x7E1 JUMP JUMPDEST PUSH1 0x40 MLOAD PUSH2 0x1FC SWAP2 SWAP1 PUSH2 0x13DD JUMP JUMPDEST PUSH1 0x40 MLOAD DUP1 SWAP2 SUB SWAP1 RETURN JUMPDEST CALLVALUE DUP1 ISZERO PUSH2 0x211 JUMPI PUSH1 0x0 DUP1 REVERT JUMPDEST POP PUSH1 0x2 SLOAD ADDRESS PUSH1 0x0 SWAP1 DUP2 MSTORE PUSH1 0x20 DUP2 DUP2 MSTORE PUSH1 0x40 SWAP2 DUP3 SWAP1 KECCAK256 SLOAD DUP3 MLOAD SWAP4 DUP5 MSTORE SWAP1 DUP4 ADD MSTORE ADD PUSH2 0x1FC JUMP JUMPDEST CALLVALUE DUP1 ISZERO PUSH2 0x242 JUMPI PUSH1 0x0 DUP1 REVERT JUMPDEST POP PUSH2 0x256 PUSH2 0x251 CALLDATASIZE PUSH1 0x4 PUSH2 0x1441 JUMP JUMPDEST PUSH2 0x873 JUMP JUMPDEST PUSH1 0x40 MLOAD SWAP1 DUP2 MSTORE PUSH1 0x20 ADD PUSH2 0x1FC JUMP JUMPDEST CALLVALUE DUP1 ISZERO PUSH2 0x270 JUMPI PUSH1 0x0 DUP1 REVERT JUMPDEST POP PUSH1 0x9 SLOAD PUSH2 0x285 SWAP1 PUSH1 0x1 PUSH1 0xA0 SHL SWAP1 DIV PUSH1 0xFF AND DUP2 JUMP JUMPDEST PUSH1 0x40 MLOAD SWAP1 ISZERO ISZERO DUP2 MSTORE PUSH1 0x20 ADD PUSH2 0x1FC JUMP JUMPDEST CALLVALUE DUP1 ISZERO PUSH2 0x2A1 JUMPI PUSH1 0x0 DUP1 REVERT JUMPDEST POP PUSH1 0x1 SLOAD PUSH2 0x256 JUMP JUMPDEST CALLVALUE DUP1 ISZERO PUSH2 0x2B6 JUMPI PUSH1 0x0 DUP1 REVERT JUMPDEST POP PUSH1 0x40 MLOAD PUSH1 0x8 DUP2 MSTORE PUSH1 0x20 ADD PUSH2 0x1FC JUMP JUMPDEST CALLVALUE DUP1 ISZERO PUSH2 0x2D2 JUMPI PUSH1 0x0 DUP1 REVERT JUMPDEST POP PUSH2 0x256 PUSH1 0x10 SLOAD DUP2 JUMP JUMPDEST CALLVALUE DUP1 ISZERO PUSH2 0x2E8 JUMPI PUSH1 0x0 DUP1 REVERT JUMPDEST POP PUSH1 0xC SLOAD PUSH2 0x2FC SWAP1 PUSH1 0x1 PUSH1 0x1 PUSH1 0xA0 SHL SUB AND DUP2 JUMP JUMPDEST PUSH1 0x40 MLOAD PUSH1 0x1 PUSH1 0x1 PUSH1 0xA0 SHL SUB SWAP1 SWAP2 AND DUP2 MSTORE PUSH1 0x20 ADD PUSH2 0x1FC JUMP JUMPDEST CALLVALUE DUP1 ISZERO PUSH2 0x320 JUMPI PUSH1 0x0 DUP1 REVERT JUMPDEST POP PUSH1 0x9 SLOAD PUSH2 0x2FC SWAP1 PUSH1 0x1 PUSH1 0x1 PUSH1 0xA0 SHL SUB AND DUP2 JUMP JUMPDEST CALLVALUE DUP1 ISZERO PUSH2 0x340 JUMPI PUSH1 0x0 DUP1 REVERT JUMPDEST POP PUSH2 0x1D3 PUSH2 0x34F CALLDATASIZE PUSH1 0x4 PUSH2 0x146D JUMP JUMPDEST PUSH2 0x8DD JUMP JUMPDEST CALLVALUE DUP1 ISZERO PUSH2 0x360 JUMPI PUSH1 0x0 DUP1 REVERT JUMPDEST POP PUSH1 0xB SLOAD PUSH2 0x2FC SWAP1 PUSH1 0x1 PUSH1 0x1 PUSH1 0xA0 SHL SUB AND DUP2 JUMP JUMPDEST CALLVALUE DUP1 ISZERO PUSH2 0x380 JUMPI PUSH1 0x0 DUP1 REVERT JUMPDEST POP PUSH2 0x256 PUSH2 0x38F CALLDATASIZE PUSH1 0x4 PUSH2 0x149D JUMP JUMPDEST PUSH1 0x1 PUSH1 0x1 PUSH1 0xA0 SHL SUB AND PUSH1 0x0 SWAP1 DUP2 MSTORE PUSH1 0x20 DUP2 SWAP1 MSTORE PUSH1 0x40 SWAP1 KECCAK256 SLOAD SWAP1 JUMP JUMPDEST CALLVALUE DUP1 ISZERO PUSH2 0x3B6 JUMPI PUSH1 0x0 DUP1 REVERT JUMPDEST POP PUSH2 0x1D3 PUSH2 0x93C JUMP JUMPDEST CALLVALUE DUP1 ISZERO PUSH2 0x3CB JUMPI PUSH1 0x0 DUP1 REVERT JUMPDEST POP PUSH2 0x256 PUSH2 0x3DA CALLDATASIZE PUSH1 0x4 PUSH2 0x149D JUMP JUMPDEST PUSH1 0x12 PUSH1 0x20 MSTORE PUSH1 0x0 SWAP1 DUP2 MSTORE PUSH1 0x40 SWAP1 KECCAK256 SLOAD DUP2 JUMP JUMPDEST CALLVALUE DUP1 ISZERO PUSH2 0x3F8 JUMPI PUSH1 0x0 DUP1 REVERT JUMPDEST POP PUSH2 0x256 PUSH1 0x4 SLOAD DUP2 JUMP JUMPDEST CALLVALUE DUP1 ISZERO PUSH2 0x40E JUMPI PUSH1 0x0 DUP1 REVERT JUMPDEST POP PUSH1 0x14 SLOAD PUSH2 0x285 SWAP1 PUSH1 0xFF AND DUP2 JUMP JUMPDEST CALLVALUE DUP1 ISZERO PUSH2 0x428 JUMPI PUSH1 0x0 DUP1 REVERT JUMPDEST POP PUSH2 0x256 PUSH1 0x3 SLOAD DUP2 JUMP JUMPDEST CALLVALUE DUP1 ISZERO PUSH2 0x43E JUMPI PUSH1 0x0 DUP1 REVERT JUMPDEST POP PUSH1 0x8 SLOAD PUSH2 0x2FC SWAP1 PUSH1 0x1 PUSH1 0x1 PUSH1 0xA0 SHL SUB AND DUP2 JUMP JUMPDEST CALLVALUE DUP1 ISZERO PUSH2 0x45E JUMPI PUSH1 0x0 DUP1 REVERT JUMPDEST POP PUSH1 0xA SLOAD PUSH2 0x2FC SWAP1 PUSH1 0x1 PUSH1 0x1 PUSH1 0xA0 SHL SUB AND DUP2 JUMP JUMPDEST CALLVALUE DUP1 ISZERO PUSH2 0x47E JUMPI PUSH1 0x0 DUP1 REVERT JUMPDEST POP PUSH2 0x1EF PUSH2 0x9B5 JUMP JUMPDEST CALLVALUE DUP1 ISZERO PUSH2 0x493 JUMPI PUSH1 0x0 DUP1 REVERT JUMPDEST POP PUSH2 0x285 PUSH2 0x4A2 CALLDATASIZE PUSH1 0x4 PUSH2 0x14BF JUMP JUMPDEST PUSH2 0x9C4 JUMP JUMPDEST CALLVALUE DUP1 ISZERO PUSH2 0x4B3 JUMPI PUSH1 0x0 DUP1 REVERT JUMPDEST POP PUSH2 0x1D3 PUSH2 0x4C2 CALLDATASIZE PUSH1 0x4 PUSH2 0x14E9 JUMP JUMPDEST PUSH2 0xA8D JUMP JUMPDEST CALLVALUE DUP1 ISZERO PUSH2 0x4D3 JUMPI PUSH1 0x0 DUP1 REVERT JUMPDEST POP PUSH2 0x256 PUSH1 0x5 SLOAD DUP2 JUMP JUMPDEST CALLVALUE DUP1 ISZERO PUSH2 0x4E9 JUMPI PUSH1 0x0 DUP1 REVERT JUMPDEST POP PUSH2 0x2FC PUSH2 0x4F8 CALLDATASIZE PUSH1 0x4 PUSH2 0x146D JUMP JUMPDEST PUSH2 0xB20 JUMP JUMPDEST CALLVALUE DUP1 ISZERO PUSH2 0x509 JUMPI PUSH1 0x0 DUP1 REVERT JUMPDEST POP PUSH2 0x2FC PUSH2 0x518 CALLDATASIZE PUSH1 0x4 PUSH2 0x149D JUMP JUMPDEST PUSH1 0x11 PUSH1 0x20 MSTORE PUSH1 0x0 SWAP1 DUP2 MSTORE PUSH1 0x40 SWAP1 KECCAK256 SLOAD PUSH1 0x1 PUSH1 0x1 PUSH1 0xA0 SHL SUB AND DUP2 JUMP JUMPDEST CALLVALUE DUP1 ISZERO PUSH2 0x53F JUMPI PUSH1 0x0 DUP1 REVERT JUMPDEST POP PUSH2 0x256 PUSH1 0xF SLOAD DUP2 JUMP JUMPDEST CALLVALUE DUP1 ISZERO PUSH2 0x555 JUMPI PUSH1 0x0 DUP1 REVERT JUMPDEST POP PUSH2 0x2FC PUSH2 0x564 CALLDATASIZE PUSH1 0x4 PUSH2 0x146D JUMP JUMPDEST PUSH2 0xB4A JUMP JUMPDEST CALLVALUE DUP1 ISZERO PUSH2 0x575 JUMPI PUSH1 0x0 DUP1 REVERT JUMPDEST POP PUSH2 0x256 PUSH1 0x13 SLOAD DUP2 JUMP JUMPDEST CALLVALUE DUP1 ISZERO PUSH2 0x58B JUMPI PUSH1 0x0 DUP1 REVERT JUMPDEST POP PUSH2 0x1D3 PUSH2 0x59A CALLDATASIZE PUSH1 0x4 PUSH2 0x146D JUMP JUMPDEST PUSH2 0xB5A JUMP JUMPDEST CALLER PUSH1 0x0 SWAP1 DUP2 MSTORE PUSH1 0x15 PUSH1 0x20 MSTORE PUSH1 0x40 SWAP1 KECCAK256 SLOAD NUMBER PUSH4 0xFFFFFFFF SWAP1 SWAP2 AND SUB PUSH2 0x630 JUMPI PUSH1 0x40 MLOAD PUSH3 0x461BCD PUSH1 0xE5 SHL DUP2 MSTORE PUSH1 0x20 PUSH1 0x4 DUP3 ADD MSTORE PUSH1 0x31 PUSH1 0x24 DUP3 ADD MSTORE PUSH32 0x596F752063616E2774206D616B652074776F207472616E73616374696F6E7320 PUSH1 0x44 DUP3 ADD MSTORE PUSH32 0x696E207468652073616D6520626C6F636B000000000000000000000000000000 PUSH1 0x64 DUP3 ADD MSTORE PUSH1 0x84 ADD JUMPDEST PUSH1 0x40 MLOAD DUP1 SWAP2 SUB SWAP1 REVERT JUMPDEST CALLER PUSH1 0x0 SWAP1 DUP2 MSTORE PUSH1 0x15 PUSH1 0x20 MSTORE PUSH1 0x40 DUP2 KECCAK256 DUP1 SLOAD PUSH4 0xFFFFFFFF NOT AND NUMBER PUSH4 0xFFFFFFFF AND OR SWAP1 SSTORE PUSH1 0x2 SLOAD CALLVALUE SWAP2 SWAP1 PUSH2 0x663 SWAP1 DUP4 SWAP1 PUSH2 0x151A JUMP JUMPDEST ADDRESS PUSH1 0x0 SWAP1 DUP2 MSTORE PUSH1 0x20 DUP2 SWAP1 MSTORE PUSH1 0x40 SWAP1 KECCAK256 SLOAD PUSH2 0x67D SWAP1 DUP5 PUSH2 0x152D JUMP JUMPDEST PUSH2 0x687 SWAP2 SWAP1 PUSH2 0x1544 JUMP JUMPDEST PUSH1 0x9 SLOAD SWAP1 SWAP2 POP PUSH1 0x1 PUSH1 0xA0 SHL SWAP1 DIV PUSH1 0xFF AND ISZERO PUSH2 0x707 JUMPI PUSH1 0x3 SLOAD CALLER PUSH1 0x0 SWAP1 DUP2 MSTORE PUSH1 0x20 DUP2 SWAP1 MSTORE PUSH1 0x40 SWAP1 KECCAK256 SLOAD PUSH2 0x6B9 SWAP1 DUP4 PUSH2 0x151A JUMP JUMPDEST GT ISZERO PUSH2 0x707 JUMPI PUSH1 0x40 MLOAD PUSH3 0x461BCD PUSH1 0xE5 SHL DUP2 MSTORE PUSH1 0x20 PUSH1 0x4 DUP3 ADD MSTORE PUSH1 0x13 PUSH1 0x24 DUP3 ADD MSTORE PUSH32 0x4D61782077616C6C657420657863656564656400000000000000000000000000 PUSH1 0x44 DUP3 ADD MSTORE PUSH1 0x64 ADD PUSH2 0x627 JUMP JUMPDEST PUSH2 0x728 ADDRESS CALLER PUSH1 0x64 PUSH2 0x719 DUP6 PUSH1 0x5F PUSH2 0x152D JUMP JUMPDEST PUSH2 0x723 SWAP2 SWAP1 PUSH2 0x1544 JUMP JUMPDEST PUSH2 0xC17 JUMP JUMPDEST PUSH2 0x3E8 PUSH2 0x737 DUP4 PUSH2 0x3D9 PUSH2 0x152D JUMP JUMPDEST PUSH2 0x741 SWAP2 SWAP1 PUSH2 0x1544 JUMP JUMPDEST PUSH1 0x2 PUSH1 0x0 DUP3 DUP3 SLOAD PUSH2 0x752 SWAP2 SWAP1 PUSH2 0x151A JUMP JUMPDEST SWAP1 SWAP2 SSTORE POP PUSH2 0x761 SWAP1 POP CALLVALUE PUSH2 0xD4A JUMP JUMPDEST PUSH2 0x76A DUP2 PUSH2 0xD9D JUMP JUMPDEST PUSH2 0x774 CALLER DUP3 PUSH2 0xEC4 JUMP JUMPDEST PUSH2 0x77D DUP2 PUSH2 0xF0A JUMP JUMPDEST PUSH2 0x786 CALLER PUSH2 0xF3E JUMP JUMPDEST PUSH2 0x78F DUP2 PUSH2 0xFBB JUMP JUMPDEST PUSH1 0x40 DUP1 MLOAD CALLVALUE DUP2 MSTORE PUSH1 0x0 PUSH1 0x20 DUP3 ADD DUP2 SWAP1 MSTORE SWAP2 DUP2 ADD SWAP2 SWAP1 SWAP2 MSTORE PUSH1 0x60 DUP2 ADD DUP3 SWAP1 MSTORE CALLER SWAP1 PUSH32 0x49926BBEBE8474393F434DFA4F78694C0923EFA07D19F2284518BFABD06EB737 SWAP1 PUSH1 0x80 ADD JUMPDEST PUSH1 0x40 MLOAD DUP1 SWAP2 SUB SWAP1 LOG2 POP POP JUMP JUMPDEST PUSH1 0x60 PUSH1 0x6 DUP1 SLOAD PUSH2 0x7F0 SWAP1 PUSH2 0x1566 JUMP JUMPDEST DUP1 PUSH1 0x1F ADD PUSH1 0x20 DUP1 SWAP2 DIV MUL PUSH1 0x20 ADD PUSH1 0x40 MLOAD SWAP1 DUP2 ADD PUSH1 0x40 MSTORE DUP1 SWAP3 SWAP2 SWAP1 DUP2 DUP2 MSTORE PUSH1 0x20 ADD DUP3 DUP1 SLOAD PUSH2 0x81C SWAP1 PUSH2 0x1566 JUMP JUMPDEST DUP1 ISZERO PUSH2 0x869 JUMPI DUP1 PUSH1 0x1F LT PUSH2 0x83E JUMPI PUSH2 0x100 DUP1 DUP4 SLOAD DIV MUL DUP4 MSTORE SWAP2 PUSH1 0x20 ADD SWAP2 PUSH2 0x869 JUMP JUMPDEST DUP3 ADD SWAP2 SWAP1 PUSH1 0x0 MSTORE PUSH1 0x20 PUSH1 0x0 KECCAK256 SWAP1 JUMPDEST DUP2 SLOAD DUP2 MSTORE SWAP1 PUSH1 0x1 ADD SWAP1 PUSH1 0x20 ADD DUP1 DUP4 GT PUSH2 0x84C JUMPI DUP3 SWAP1 SUB PUSH1 0x1F AND DUP3 ADD SWAP2 JUMPDEST POP POP POP POP POP SWAP1 POP SWAP1 JUMP JUMPDEST PUSH1 0x0 DUP1 PUSH1 0x0 PUSH2 0x892 PUSH1 0x2 SLOAD ADDRESS PUSH1 0x0 SWAP1 DUP2 MSTORE PUSH1 0x20 DUP2 SWAP1 MSTORE PUSH1 0x40 SWAP1 KECCAK256 SLOAD SWAP1 SWAP2 JUMP JUMPDEST SWAP2 POP SWAP2 POP DUP4 ISZERO PUSH2 0x8C3 JUMPI PUSH2 0x8A6 DUP6 DUP4 PUSH2 0x151A JUMP JUMPDEST PUSH2 0x8B0 DUP3 DUP8 PUSH2 0x152D JUMP JUMPDEST PUSH2 0x8BA SWAP2 SWAP1 PUSH2 0x1544 JUMP JUMPDEST SWAP3 POP POP POP PUSH2 0x8D7 JUMP JUMPDEST PUSH2 0x8CD DUP6 DUP3 PUSH2 0x151A JUMP JUMPDEST PUSH2 0x8B0 DUP4 DUP8 PUSH2 0x152D JUMP JUMPDEST SWAP3 SWAP2 POP POP JUMP JUMPDEST PUSH1 0x8 SLOAD PUSH1 0x1 PUSH1 0x1 PUSH1 0xA0 SHL SUB AND CALLER EQ PUSH2 0x937 JUMPI PUSH1 0x40 MLOAD PUSH3 0x461BCD PUSH1 0xE5 SHL DUP2 MSTORE PUSH1 0x20 PUSH1 0x4 DUP3 ADD DUP2 SWAP1 MSTORE PUSH1 0x24 DUP3 ADD MSTORE PUSH32 0x4F776E61626C653A2063616C6C6572206973206E6F7420746865206F776E6572 PUSH1 0x44 DUP3 ADD MSTORE PUSH1 0x64 ADD PUSH2 0x627 JUMP JUMPDEST PUSH1 0x3 SSTORE JUMP JUMPDEST PUSH1 0x8 SLOAD PUSH1 0x1 PUSH1 0x1 PUSH1 0xA0 SHL SUB AND CALLER EQ PUSH2 0x996 JUMPI PUSH1 0x40 MLOAD PUSH3 0x461BCD PUSH1 0xE5 SHL DUP2 MSTORE PUSH1 0x20 PUSH1 0x4 DUP3 ADD DUP2 SWAP1 MSTORE PUSH1 0x24 DUP3 ADD MSTORE PUSH32 0x4F776E61626C653A2063616C6C6572206973206E6F7420746865206F776E6572 PUSH1 0x44 DUP3 ADD MSTORE PUSH1 0x64 ADD PUSH2 0x627 JUMP JUMPDEST PUSH1 0x8 DUP1 SLOAD PUSH20 0xFFFFFFFFFFFFFFFFFFFFFFFFFFFFFFFFFFFFFFFF NOT AND SWAP1 SSTORE JUMP JUMPDEST PUSH1 0x60 PUSH1 0x7 DUP1 SLOAD PUSH2 0x7F0 SWAP1 PUSH2 0x1566 JUMP JUMPDEST PUSH1 0x0 ADDRESS PUSH1 0x1 PUSH1 0x1 PUSH1 0xA0 SHL SUB DUP5 AND SUB PUSH2 0x9E4 JUMPI PUSH2 0x9DF DUP3 PUSH2 0x1030 JUMP JUMPDEST PUSH2 0xA84 JUMP JUMPDEST PUSH1 0x0 PUSH2 0x9F2 PUSH1 0x6 PUSH1 0x8 PUSH2 0x15A0 JUMP JUMPDEST PUSH2 0x9FD SWAP1 PUSH1 0xA PUSH2 0x168E JUMP JUMPDEST PUSH2 0xA08 SWAP1 PUSH1 0x1 PUSH2 0x152D JUMP JUMPDEST CALLER PUSH1 0x0 SWAP1 DUP2 MSTORE PUSH1 0x20 DUP2 SWAP1 MSTORE PUSH1 0x40 SWAP1 KECCAK256 SLOAD SWAP1 SWAP2 POP DUP4 SUB PUSH2 0xA64 JUMPI CALLER PUSH1 0x0 SWAP1 DUP2 MSTORE PUSH1 0x20 DUP2 SWAP1 MSTORE PUSH1 0x40 SWAP1 KECCAK256 SLOAD DUP2 LT ISZERO PUSH2 0xA5A JUMPI CALLER PUSH1 0x0 SWAP1 DUP2 MSTORE PUSH1 0x20 DUP2 SWAP1 MSTORE PUSH1 0x40 SWAP1 KECCAK256 SLOAD PUSH2 0xA53 SWAP1 DUP3 SWAP1 PUSH2 0x169D JUMP JUMPDEST SWAP3 POP PUSH2 0xA64 JUMP JUMPDEST PUSH1 0x1 SWAP2 POP POP PUSH2 0x8D7 JUMP JUMPDEST PUSH2 0xA6F CALLER DUP6 DUP6 PUSH2 0xC17 JUMP JUMPDEST PUSH2 0xA78 DUP5 PUSH2 0xF3E JUMP JUMPDEST PUSH2 0xA82 CALLER DUP6 PUSH2 0x12FD JUMP JUMPDEST POP JUMPDEST POP PUSH1 0x1 SWAP3 SWAP2 POP POP JUMP JUMPDEST PUSH1 0x8 SLOAD PUSH1 0x1 PUSH1 0x1 PUSH1 0xA0 SHL SUB AND CALLER EQ PUSH2 0xAE7 JUMPI PUSH1 0x40 MLOAD PUSH3 0x461BCD PUSH1 0xE5 SHL DUP2 MSTORE PUSH1 0x20 PUSH1 0x4 DUP3 ADD DUP2 SWAP1 MSTORE PUSH1 0x24 DUP3 ADD MSTORE PUSH32 0x4F776E61626C653A2063616C6C6572206973206E6F7420746865206F776E6572 PUSH1 0x44 DUP3 ADD MSTORE PUSH1 0x64 ADD PUSH2 0x627 JUMP JUMPDEST PUSH1 0x9 DUP1 SLOAD SWAP2 ISZERO ISZERO PUSH1 0x1 PUSH1 0xA0 SHL MUL PUSH32 0xFFFFFFFFFFFFFFFFFFFFFF00FFFFFFFFFFFFFFFFFFFFFFFFFFFFFFFFFFFFFFFF SWAP1 SWAP3 AND SWAP2 SWAP1 SWAP2 OR SWAP1 SSTORE JUMP JUMPDEST PUSH1 0xE DUP2 DUP2 SLOAD DUP2 LT PUSH2 0xB30 JUMPI PUSH1 0x0 DUP1 REVERT JUMPDEST PUSH1 0x0 SWAP2 DUP3 MSTORE PUSH1 0x20 SWAP1 SWAP2 KECCAK256 ADD SLOAD PUSH1 0x1 PUSH1 0x1 PUSH1 0xA0 SHL SUB AND SWAP1 POP DUP2 JUMP JUMPDEST PUSH1 0xD DUP2 DUP2 SLOAD DUP2 LT PUSH2 0xB30 JUMPI PUSH1 0x0 DUP1 REVERT JUMPDEST PUSH1 0xD DUP1 SLOAD PUSH2 0xB6A SWAP1 PUSH1 0x1 SWAP1 PUSH2 0x169D JUMP JUMPDEST DUP2 SLOAD DUP2 LT PUSH2 0xB7A JUMPI PUSH2 0xB7A PUSH2 0x16B0 JUMP JUMPDEST PUSH1 0x0 SWAP2 DUP3 MSTORE PUSH1 0x20 SWAP1 SWAP2 KECCAK256 ADD SLOAD PUSH1 0xD DUP1 SLOAD PUSH1 0x1 PUSH1 0x1 PUSH1 0xA0 SHL SUB SWAP1 SWAP3 AND SWAP2 DUP4 SWAP1 DUP2 LT PUSH2 0xBA6 JUMPI PUSH2 0xBA6 PUSH2 0x16B0 JUMP JUMPDEST SWAP1 PUSH1 0x0 MSTORE PUSH1 0x20 PUSH1 0x0 KECCAK256 ADD PUSH1 0x0 PUSH2 0x100 EXP DUP2 SLOAD DUP2 PUSH1 0x1 PUSH1 0x1 PUSH1 0xA0 SHL SUB MUL NOT AND SWAP1 DUP4 PUSH1 0x1 PUSH1 0x1 PUSH1 0xA0 SHL SUB AND MUL OR SWAP1 SSTORE POP PUSH1 0xD DUP1 SLOAD DUP1 PUSH2 0xBE5 JUMPI PUSH2 0xBE5 PUSH2 0x16C6 JUMP JUMPDEST PUSH1 0x0 DUP3 DUP2 MSTORE PUSH1 0x20 SWAP1 KECCAK256 DUP2 ADD PUSH1 0x0 NOT SWAP1 DUP2 ADD DUP1 SLOAD PUSH20 0xFFFFFFFFFFFFFFFFFFFFFFFFFFFFFFFFFFFFFFFF NOT AND SWAP1 SSTORE ADD SWAP1 SSTORE POP JUMP JUMPDEST PUSH1 0x1 PUSH1 0x1 PUSH1 0xA0 SHL SUB DUP4 AND PUSH1 0x0 SWAP1 DUP2 MSTORE PUSH1 0x20 DUP2 SWAP1 MSTORE PUSH1 0x40 SWAP1 KECCAK256 SLOAD DUP2 GT ISZERO PUSH2 0xCA5 JUMPI PUSH1 0x40 MLOAD PUSH3 0x461BCD PUSH1 0xE5 SHL DUP2 MSTORE PUSH1 0x20 PUSH1 0x4 DUP3 ADD MSTORE PUSH1 0x26 PUSH1 0x24 DUP3 ADD MSTORE PUSH32 0x45524332303A207472616E7366657220616D6F756E7420657863656564732062 PUSH1 0x44 DUP3 ADD MSTORE PUSH32 0x616C616E63650000000000000000000000000000000000000000000000000000 PUSH1 0x64 DUP3 ADD MSTORE PUSH1 0x84 ADD PUSH2 0x627 JUMP JUMPDEST PUSH1 0x1 PUSH1 0x1 PUSH1 0xA0 SHL SUB DUP1 DUP5 AND PUSH1 0x0 SWAP1 DUP2 MSTORE PUSH1 0x20 DUP2 SWAP1 MSTORE PUSH1 0x40 SWAP1 KECCAK256 DUP1 SLOAD DUP4 SWAP1 SUB SWAP1 SSTORE DUP3 AND PUSH2 0xCD9 JUMPI PUSH1 0x1 DUP1 SLOAD DUP3 SWAP1 SUB SWAP1 SSTORE PUSH2 0xCF8 JUMP JUMPDEST PUSH1 0x1 PUSH1 0x1 PUSH1 0xA0 SHL SUB DUP3 AND PUSH1 0x0 SWAP1 DUP2 MSTORE PUSH1 0x20 DUP2 SWAP1 MSTORE PUSH1 0x40 SWAP1 KECCAK256 DUP1 SLOAD DUP3 ADD SWAP1 SSTORE JUMPDEST DUP2 PUSH1 0x1 PUSH1 0x1 PUSH1 0xA0 SHL SUB AND DUP4 PUSH1 0x1 PUSH1 0x1 PUSH1 0xA0 SHL SUB AND PUSH32 0xDDF252AD1BE2C89B69C2B068FC378DAA952BA7F163C4A11628F55A4DF523B3EF DUP4 PUSH1 0x40 MLOAD PUSH2 0xD3D SWAP2 DUP2 MSTORE PUSH1 0x20 ADD SWAP1 JUMP JUMPDEST PUSH1 0x40 MLOAD DUP1 SWAP2 SUB SWAP1 LOG3 POP POP POP JUMP JUMPDEST PUSH1 0xA SLOAD PUSH1 0x1 PUSH1 0x1 PUSH1 0xA0 SHL SUB AND PUSH2 0x8FC PUSH2 0x3E8 PUSH2 0xD67 DUP5 PUSH1 0xF PUSH2 0x152D JUMP JUMPDEST PUSH2 0xD71 SWAP2 SWAP1 PUSH2 0x1544 JUMP JUMPDEST PUSH1 0x40 MLOAD DUP2 ISZERO SWAP1 SWAP3 MUL SWAP2 PUSH1 0x0 DUP2 DUP2 DUP2 DUP6 DUP9 DUP9 CALL SWAP4 POP POP POP POP ISZERO DUP1 ISZERO PUSH2 0xD99 JUMPI RETURNDATASIZE PUSH1 0x0 DUP1 RETURNDATACOPY RETURNDATASIZE PUSH1 0x0 REVERT JUMPDEST POP POP JUMP JUMPDEST PUSH1 0x0 PUSH2 0x3E8 PUSH2 0xDAD DUP4 PUSH1 0xF PUSH2 0x152D JUMP JUMPDEST PUSH2 0xDB7 SWAP2 SWAP1 PUSH2 0x1544 JUMP JUMPDEST PUSH1 0xD SLOAD SWAP1 SWAP2 POP PUSH1 0x0 SUB PUSH2 0xDDC JUMPI PUSH1 0xC SLOAD PUSH2 0xD99 SWAP1 ADDRESS SWAP1 PUSH1 0x1 PUSH1 0x1 PUSH1 0xA0 SHL SUB AND DUP4 PUSH2 0xC17 JUMP JUMPDEST PUSH1 0xD SLOAD PUSH1 0x0 SWAP1 PUSH2 0xDEC SWAP1 DUP4 PUSH2 0x1544 JUMP JUMPDEST SWAP1 POP PUSH1 0x0 JUMPDEST PUSH1 0xD SLOAD DUP2 LT ISZERO PUSH2 0xEBE JUMPI PUSH1 0x0 PUSH1 0x1 PUSH1 0x1 PUSH1 0xA0 SHL SUB AND PUSH1 0xD DUP3 DUP2 SLOAD DUP2 LT PUSH2 0xE19 JUMPI PUSH2 0xE19 PUSH2 0x16B0 JUMP JUMPDEST PUSH1 0x0 SWAP2 DUP3 MSTORE PUSH1 0x20 SWAP1 SWAP2 KECCAK256 ADD SLOAD PUSH1 0x1 PUSH1 0x1 PUSH1 0xA0 SHL SUB AND EQ PUSH2 0xEB6 JUMPI PUSH1 0x10 SLOAD PUSH1 0x0 DUP1 PUSH1 0xD DUP5 DUP2 SLOAD DUP2 LT PUSH2 0xE4C JUMPI PUSH2 0xE4C PUSH2 0x16B0 JUMP JUMPDEST PUSH1 0x0 SWAP2 DUP3 MSTORE PUSH1 0x20 DUP1 DUP4 KECCAK256 SWAP1 SWAP2 ADD SLOAD PUSH1 0x1 PUSH1 0x1 PUSH1 0xA0 SHL SUB AND DUP4 MSTORE DUP3 ADD SWAP3 SWAP1 SWAP3 MSTORE PUSH1 0x40 ADD SWAP1 KECCAK256 SLOAD LT PUSH2 0xEAD JUMPI PUSH2 0xEA8 ADDRESS PUSH1 0xD DUP4 DUP2 SLOAD DUP2 LT PUSH2 0xE8D JUMPI PUSH2 0xE8D PUSH2 0x16B0 JUMP JUMPDEST PUSH1 0x0 SWAP2 DUP3 MSTORE PUSH1 0x20 SWAP1 SWAP2 KECCAK256 ADD SLOAD PUSH1 0x1 PUSH1 0x1 PUSH1 0xA0 SHL SUB AND DUP5 PUSH2 0xC17 JUMP JUMPDEST PUSH2 0xEB6 JUMP JUMPDEST PUSH2 0xEB6 DUP2 PUSH2 0xB5A JUMP JUMPDEST PUSH1 0x1 ADD PUSH2 0xDF1 JUMP JUMPDEST POP POP POP POP JUMP JUMPDEST PUSH1 0x1 PUSH1 0x1 PUSH1 0xA0 SHL SUB DUP1 DUP4 AND PUSH1 0x0 SWAP1 DUP2 MSTORE PUSH1 0x11 PUSH1 0x20 MSTORE PUSH1 0x40 SWAP1 KECCAK256 SLOAD AND DUP1 PUSH2 0xEF2 JUMPI POP PUSH1 0xC SLOAD PUSH1 0x1 PUSH1 0x1 PUSH1 0xA0 SHL SUB AND JUMPDEST PUSH2 0xF05 ADDRESS DUP3 PUSH2 0x3E8 PUSH2 0x719 DUP7 PUSH1 0xA PUSH2 0x152D JUMP JUMPDEST POP POP POP JUMP JUMPDEST PUSH1 0x0 PUSH1 0x64 PUSH2 0xF19 DUP4 PUSH1 0x5 PUSH2 0x152D JUMP JUMPDEST PUSH2 0xF23 SWAP2 SWAP1 PUSH2 0x1544 JUMP JUMPDEST PUSH1 0xB SLOAD SWAP1 SWAP2 POP PUSH2 0xD99 SWAP1 ADDRESS SWAP1 PUSH1 0x1 PUSH1 0x1 PUSH1 0xA0 SHL SUB AND DUP4 PUSH2 0xC17 JUMP JUMPDEST PUSH1 0x10 SLOAD PUSH1 0x1 PUSH1 0x1 PUSH1 0xA0 SHL SUB DUP3 AND PUSH1 0x0 SWAP1 DUP2 MSTORE PUSH1 0x20 DUP2 SWAP1 MSTORE PUSH1 0x40 SWAP1 KECCAK256 SLOAD LT PUSH2 0xFB8 JUMPI PUSH1 0xD DUP1 SLOAD PUSH1 0x1 DUP2 ADD DUP3 SSTORE PUSH1 0x0 SWAP2 SWAP1 SWAP2 MSTORE PUSH32 0xD7B6990105719101DABEB77144F2A3385C8033ACD3AF97E9423A695E81AD1EB5 ADD DUP1 SLOAD PUSH20 0xFFFFFFFFFFFFFFFFFFFFFFFFFFFFFFFFFFFFFFFF NOT AND PUSH1 0x1 PUSH1 0x1 PUSH1 0xA0 SHL SUB DUP4 AND OR SWAP1 SSTORE JUMPDEST POP JUMP JUMPDEST PUSH1 0x0 PUSH2 0x3E8 PUSH2 0xFCB DUP4 PUSH1 0xA PUSH2 0x152D JUMP JUMPDEST PUSH2 0xFD5 SWAP2 SWAP1 PUSH2 0x1544 JUMP JUMPDEST SWAP1 POP PUSH1 0x5 SLOAD DUP2 PUSH1 0x1 SLOAD PUSH2 0xFE8 SWAP2 SWAP1 PUSH2 0x169D JUMP JUMPDEST LT ISZERO PUSH2 0x1001 JUMPI PUSH1 0x5 SLOAD PUSH1 0x1 SLOAD PUSH2 0xFFE SWAP2 SWAP1 PUSH2 0x169D JUMP JUMPDEST SWAP1 POP JUMPDEST PUSH1 0x0 DUP2 GT DUP1 ISZERO PUSH2 0x101F JUMPI POP ADDRESS PUSH1 0x0 SWAP1 DUP2 MSTORE PUSH1 0x20 DUP2 SWAP1 MSTORE PUSH1 0x40 SWAP1 KECCAK256 SLOAD DUP2 LT JUMPDEST ISZERO PUSH2 0xD99 JUMPI PUSH2 0xD99 ADDRESS PUSH1 0x0 DUP4 PUSH2 0xC17 JUMP JUMPDEST CALLER PUSH1 0x0 SWAP1 DUP2 MSTORE PUSH1 0x15 PUSH1 0x20 MSTORE PUSH1 0x40 SWAP1 KECCAK256 SLOAD NUMBER PUSH4 0xFFFFFFFF SWAP1 SWAP2 AND SUB PUSH2 0x10BC JUMPI PUSH1 0x40 MLOAD PUSH3 0x461BCD PUSH1 0xE5 SHL DUP2 MSTORE PUSH1 0x20 PUSH1 0x4 DUP3 ADD MSTORE PUSH1 0x31 PUSH1 0x24 DUP3 ADD MSTORE PUSH32 0x596F752063616E2774206D616B652074776F207472616E73616374696F6E7320 PUSH1 0x44 DUP3 ADD MSTORE PUSH32 0x696E207468652073616D6520626C6F636B000000000000000000000000000000 PUSH1 0x64 DUP3 ADD MSTORE PUSH1 0x84 ADD PUSH2 0x627 JUMP JUMPDEST CALLER PUSH1 0x0 SWAP1 DUP2 MSTORE PUSH1 0x15 PUSH1 0x20 MSTORE PUSH1 0x40 SWAP1 KECCAK256 DUP1 SLOAD PUSH4 0xFFFFFFFF NOT AND NUMBER PUSH4 0xFFFFFFFF AND OR SWAP1 SSTORE PUSH1 0x4 SLOAD DUP2 GT ISZERO PUSH2 0x1130 JUMPI PUSH1 0x40 MLOAD PUSH3 0x461BCD PUSH1 0xE5 SHL DUP2 MSTORE PUSH1 0x20 PUSH1 0x4 DUP3 ADD MSTORE PUSH1 0xE PUSH1 0x24 DUP3 ADD MSTORE PUSH32 0x4D6178204C696D69742053656C6C000000000000000000000000000000000000 PUSH1 0x44 DUP3 ADD MSTORE PUSH1 0x64 ADD PUSH2 0x627 JUMP JUMPDEST ADDRESS PUSH1 0x0 SWAP1 DUP2 MSTORE PUSH1 0x20 DUP2 SWAP1 MSTORE PUSH1 0x40 DUP2 KECCAK256 SLOAD PUSH2 0x114B SWAP1 DUP4 SWAP1 PUSH2 0x151A JUMP JUMPDEST PUSH1 0x2 SLOAD PUSH2 0x1158 SWAP1 DUP5 PUSH2 0x152D JUMP JUMPDEST PUSH2 0x1162 SWAP2 SWAP1 PUSH2 0x1544 JUMP JUMPDEST SWAP1 POP PUSH1 0x0 DUP2 GT PUSH2 0x11B4 JUMPI PUSH1 0x40 MLOAD PUSH3 0x461BCD PUSH1 0xE5 SHL DUP2 MSTORE PUSH1 0x20 PUSH1 0x4 DUP3 ADD MSTORE PUSH1 0x13 PUSH1 0x24 DUP3 ADD MSTORE PUSH32 0x53656C6C20616D6F756E7420746F6F206C6F7700000000000000000000000000 PUSH1 0x44 DUP3 ADD MSTORE PUSH1 0x64 ADD PUSH2 0x627 JUMP JUMPDEST DUP1 PUSH1 0x2 SLOAD LT ISZERO PUSH2 0x1206 JUMPI PUSH1 0x40 MLOAD PUSH3 0x461BCD PUSH1 0xE5 SHL DUP2 MSTORE PUSH1 0x20 PUSH1 0x4 DUP3 ADD MSTORE PUSH1 0x1C PUSH1 0x24 DUP3 ADD MSTORE PUSH32 0x496E73756666696369656E7420424E4220696E20726573657276657300000000 PUSH1 0x44 DUP3 ADD MSTORE PUSH1 0x64 ADD PUSH2 0x627 JUMP JUMPDEST PUSH2 0x1211 CALLER ADDRESS DUP5 PUSH2 0xC17 JUMP JUMPDEST CALLER PUSH2 0x8FC PUSH1 0x64 PUSH2 0x1222 DUP5 PUSH1 0x5F PUSH2 0x152D JUMP JUMPDEST PUSH2 0x122C SWAP2 SWAP1 PUSH2 0x1544 JUMP JUMPDEST PUSH1 0x40 MLOAD DUP2 ISZERO SWAP1 SWAP3 MUL SWAP2 PUSH1 0x0 DUP2 DUP2 DUP2 DUP6 DUP9 DUP9 CALL SWAP4 POP POP POP POP ISZERO DUP1 ISZERO PUSH2 0x1254 JUMPI RETURNDATASIZE PUSH1 0x0 DUP1 RETURNDATACOPY RETURNDATASIZE PUSH1 0x0 REVERT JUMPDEST POP PUSH2 0x3E8 PUSH2 0x1264 DUP3 PUSH2 0x3C5 PUSH2 0x152D JUMP JUMPDEST PUSH2 0x126E SWAP2 SWAP1 PUSH2 0x1544 JUMP JUMPDEST PUSH1 0x2 PUSH1 0x0 DUP3 DUP3 SLOAD PUSH2 0x127F SWAP2 SWAP1 PUSH2 0x169D JUMP JUMPDEST SWAP1 SWAP2 SSTORE POP PUSH2 0x128E SWAP1 POP DUP2 PUSH2 0xD4A JUMP JUMPDEST PUSH2 0x1297 DUP3 PUSH2 0xD9D JUMP JUMPDEST PUSH2 0x12A1 CALLER DUP4 PUSH2 0xEC4 JUMP JUMPDEST PUSH2 0x12AA DUP3 PUSH2 0xF0A JUMP JUMPDEST PUSH2 0x12B3 DUP3 PUSH2 0xFBB JUMP JUMPDEST PUSH1 0x40 DUP1 MLOAD PUSH1 0x0 DUP1 DUP3 MSTORE PUSH1 0x20 DUP3 ADD DUP6 SWAP1 MSTORE SWAP2 DUP2 ADD DUP4 SWAP1 MSTORE PUSH1 0x60 DUP2 ADD SWAP2 SWAP1 SWAP2 MSTORE CALLER SWAP1 PUSH32 0x49926BBEBE8474393F434DFA4F78694C0923EFA07D19F2284518BFABD06EB737 SWAP1 PUSH1 0x80 ADD PUSH2 0x7D5 JUMP JUMPDEST PUSH1 0x1 PUSH1 0x1 PUSH1 0xA0 SHL SUB DUP2 DUP2 AND PUSH1 0x0 SWAP1 DUP2 MSTORE PUSH1 0x11 PUSH1 0x20 MSTORE PUSH1 0x40 SWAP1 KECCAK256 SLOAD AND ISZERO DUP1 ISZERO PUSH2 0x1337 JUMPI POP DUP1 PUSH1 0x1 PUSH1 0x1 PUSH1 0xA0 SHL SUB AND DUP3 PUSH1 0x1 PUSH1 0x1 PUSH1 0xA0 SHL SUB AND EQ ISZERO JUMPDEST DUP1 ISZERO PUSH2 0x134C JUMPI POP PUSH1 0x1 PUSH1 0x1 PUSH1 0xA0 SHL SUB DUP2 AND ADDRESS EQ ISZERO JUMPDEST DUP1 ISZERO PUSH2 0x1366 JUMPI POP PUSH1 0xA SLOAD PUSH1 0x1 PUSH1 0x1 PUSH1 0xA0 SHL SUB DUP3 DUP2 AND SWAP2 AND EQ ISZERO JUMPDEST DUP1 ISZERO PUSH2 0x1380 JUMPI POP PUSH1 0xB SLOAD PUSH1 0x1 PUSH1 0x1 PUSH1 0xA0 SHL SUB DUP3 DUP2 AND SWAP2 AND EQ ISZERO JUMPDEST DUP1 ISZERO PUSH2 0x139A JUMPI POP PUSH1 0xC SLOAD PUSH1 0x1 PUSH1 0x1 PUSH1 0xA0 SHL SUB DUP3 DUP2 AND SWAP2 AND EQ ISZERO JUMPDEST ISZERO PUSH2 0xD99 JUMPI PUSH1 0x1 PUSH1 0x1 PUSH1 0xA0 SHL SUB SWAP1 DUP2 AND PUSH1 0x0 SWAP1 DUP2 MSTORE PUSH1 0x11 PUSH1 0x20 MSTORE PUSH1 0x40 SWAP1 KECCAK256 DUP1 SLOAD PUSH20 0xFFFFFFFFFFFFFFFFFFFFFFFFFFFFFFFFFFFFFFFF NOT AND SWAP3 SWAP1 SWAP2 AND SWAP2 SWAP1 SWAP2 OR SWAP1 SSTORE JUMP JUMPDEST PUSH1 0x0 PUSH1 0x20 DUP1 DUP4 MSTORE DUP4 MLOAD DUP1 PUSH1 0x20 DUP6 ADD MSTORE PUSH1 0x0 JUMPDEST DUP2 DUP2 LT ISZERO PUSH2 0x140B JUMPI DUP6 DUP2 ADD DUP4 ADD MLOAD DUP6 DUP3 ADD PUSH1 0x40 ADD MSTORE DUP3 ADD PUSH2 0x13EF JUMP JUMPDEST POP PUSH1 0x0 PUSH1 0x40 DUP3 DUP7 ADD ADD MSTORE PUSH1 0x40 PUSH1 0x1F NOT PUSH1 0x1F DUP4 ADD AND DUP6 ADD ADD SWAP3 POP POP POP SWAP3 SWAP2 POP POP JUMP JUMPDEST DUP1 CALLDATALOAD DUP1 ISZERO ISZERO DUP2 EQ PUSH2 0x143C JUMPI PUSH1 0x0 DUP1 REVERT JUMPDEST SWAP2 SWAP1 POP JUMP JUMPDEST PUSH1 0x0 DUP1 PUSH1 0x40 DUP4 DUP6 SUB SLT ISZERO PUSH2 0x1454 JUMPI PUSH1 0x0 DUP1 REVERT JUMPDEST DUP3 CALLDATALOAD SWAP2 POP PUSH2 0x1464 PUSH1 0x20 DUP5 ADD PUSH2 0x142C JUMP JUMPDEST SWAP1 POP SWAP3 POP SWAP3 SWAP1 POP JUMP JUMPDEST PUSH1 0x0 PUSH1 0x20 DUP3 DUP5 SUB SLT ISZERO PUSH2 0x147F JUMPI PUSH1 0x0 DUP1 REVERT JUMPDEST POP CALLDATALOAD SWAP2 SWAP1 POP JUMP JUMPDEST DUP1 CALLDATALOAD PUSH1 0x1 PUSH1 0x1 PUSH1 0xA0 SHL SUB DUP2 AND DUP2 EQ PUSH2 0x143C JUMPI PUSH1 0x0 DUP1 REVERT JUMPDEST PUSH1 0x0 PUSH1 0x20 DUP3 DUP5 SUB SLT ISZERO PUSH2 0x14AF JUMPI PUSH1 0x0 DUP1 REVERT JUMPDEST PUSH2 0x14B8 DUP3 PUSH2 0x1486 JUMP JUMPDEST SWAP4 SWAP3 POP POP POP JUMP JUMPDEST PUSH1 0x0 DUP1 PUSH1 0x40 DUP4 DUP6 SUB SLT ISZERO PUSH2 0x14D2 JUMPI PUSH1 0x0 DUP1 REVERT JUMPDEST PUSH2 0x14DB DUP4 PUSH2 0x1486 JUMP JUMPDEST SWAP5 PUSH1 0x20 SWAP4 SWAP1 SWAP4 ADD CALLDATALOAD SWAP4 POP POP POP JUMP JUMPDEST PUSH1 0x0 PUSH1 0x20 DUP3 DUP5 SUB SLT ISZERO PUSH2 0x14FB JUMPI PUSH1 0x0 DUP1 REVERT JUMPDEST PUSH2 0x14B8 DUP3 PUSH2 0x142C JUMP JUMPDEST PUSH4 0x4E487B71 PUSH1 0xE0 SHL PUSH1 0x0 MSTORE PUSH1 0x11 PUSH1 0x4 MSTORE PUSH1 0x24 PUSH1 0x0 REVERT JUMPDEST DUP1 DUP3 ADD DUP1 DUP3 GT ISZERO PUSH2 0x8D7 JUMPI PUSH2 0x8D7 PUSH2 0x1504 JUMP JUMPDEST DUP1 DUP3 MUL DUP2 ISZERO DUP3 DUP3 DIV DUP5 EQ OR PUSH2 0x8D7 JUMPI PUSH2 0x8D7 PUSH2 0x1504 JUMP JUMPDEST PUSH1 0x0 DUP3 PUSH2 0x1561 JUMPI PUSH4 0x4E487B71 PUSH1 0xE0 SHL PUSH1 0x0 MSTORE PUSH1 0x12 PUSH1 0x4 MSTORE PUSH1 0x24 PUSH1 0x0 REVERT JUMPDEST POP DIV SWAP1 JUMP JUMPDEST PUSH1 0x1 DUP2 DUP2 SHR SWAP1 DUP3 AND DUP1 PUSH2 0x157A JUMPI PUSH1 0x7F DUP3 AND SWAP2 POP JUMPDEST PUSH1 0x20 DUP3 LT DUP2 SUB PUSH2 0x159A JUMPI PUSH4 0x4E487B71 PUSH1 0xE0 SHL PUSH1 0x0 MSTORE PUSH1 0x22 PUSH1 0x4 MSTORE PUSH1 0x24 PUSH1 0x0 REVERT JUMPDEST POP SWAP2 SWAP1 POP JUMP JUMPDEST PUSH1 0xFF DUP3 DUP2 AND DUP3 DUP3 AND SUB SWAP1 DUP2 GT ISZERO PUSH2 0x8D7 JUMPI PUSH2 0x8D7 PUSH2 0x1504 JUMP JUMPDEST PUSH1 0x1 DUP2 DUP2 JUMPDEST DUP1 DUP6 GT ISZERO PUSH2 0x15F4 JUMPI DUP2 PUSH1 0x0 NOT DIV DUP3 GT ISZERO PUSH2 0x15DA JUMPI PUSH2 0x15DA PUSH2 0x1504 JUMP JUMPDEST DUP1 DUP6 AND ISZERO PUSH2 0x15E7 JUMPI SWAP2 DUP2 MUL SWAP2 JUMPDEST SWAP4 DUP5 SHR SWAP4 SWAP1 DUP1 MUL SWAP1 PUSH2 0x15BE JUMP JUMPDEST POP SWAP3 POP SWAP3 SWAP1 POP JUMP JUMPDEST PUSH1 0x0 DUP3 PUSH2 0x160B JUMPI POP PUSH1 0x1 PUSH2 0x8D7 JUMP JUMPDEST DUP2 PUSH2 0x1618 JUMPI POP PUSH1 0x0 PUSH2 0x8D7 JUMP JUMPDEST DUP2 PUSH1 0x1 DUP2 EQ PUSH2 0xA5A JUMPI PUSH1 0x2 DUP2 SUB PUSH2 0x1645 JUMPI PUSH1 0xFF DUP5 GT ISZERO PUSH2 0x163A JUMPI PUSH2 0x163A PUSH2 0x1504 JUMP JUMPDEST POP POP PUSH1 0x1 DUP3 SHL PUSH2 0x8D7 JUMP JUMPDEST POP PUSH1 0x20 DUP4 LT PUSH2 0x133 DUP4 LT AND PUSH1 0x4E DUP5 LT PUSH1 0xB DUP5 LT AND OR ISZERO PUSH2 0x1668 JUMPI POP DUP2 DUP2 EXP PUSH2 0x8D7 JUMP JUMPDEST PUSH2 0x1672 DUP4 DUP4 PUSH2 0x15B9 JUMP JUMPDEST DUP1 PUSH1 0x0 NOT DIV DUP3 GT ISZERO PUSH2 0x1686 JUMPI PUSH2 0x1686 PUSH2 0x1504 JUMP JUMPDEST MUL SWAP4 SWAP3 POP POP POP JUMP JUMPDEST PUSH1 0x0 PUSH2 0x14B8 PUSH1 0xFF DUP5 AND DUP4 PUSH2 0x15FC JUMP JUMPDEST DUP2 DUP2 SUB DUP2 DUP2 GT ISZERO PUSH2 0x8D7 JUMPI PUSH2 0x8D7 PUSH2 0x1504 JUMP JUMPDEST PUSH4 0x4E487B71 PUSH1 0xE0 SHL PUSH1 0x0 MSTORE PUSH1 0x32 PUSH1 0x4 MSTORE PUSH1 0x24 PUSH1 0x0 REVERT JUMPDEST PUSH4 0x4E487B71 PUSH1 0xE0 SHL PUSH1 0x0 MSTORE PUSH1 0x31 PUSH1 0x4 MSTORE PUSH1 0x24 PUSH1 0x0 REVERT INVALID LOG2 PUSH5 0x6970667358 0x22 SLT KECCAK256 PUSH4 0x9D22D7D5 PUSH15 0x26C07B7B8B39C6CDB60C600DE53411 0xFB SWAP10 LOG1 0x1E SWAP9 0xB5 0xC MSTORE8 LOG3 0xDA ADDMOD PUSH5 0x736F6C6343 STOP ADDMOD XOR STOP CALLER "},"methodIdentifiers":{"_fireStopAmount()":"b74de591","_maxSellAmount()":"7cca52fe","_maxWallet()":"82247ec0","_nodeLimitAmount()":"3cd691d5","balanceOf(address)":"70a08231","communityAddress(uint256)":"d0943e17","communityBonus()":"dc541504","communityCount(address)":"78554a4f","decimals()":"313ce567","ecoAddress()":"68961ecb","enableMaxWallet(bool)":"ae19139e","feeAddress()":"41275358","getAmountOut(uint256,bool)":"11106ee2","getReserves()":"0902f1ac","lastRewardAt()":"f2e15628","liquidityProvider()":"5b8bec55","marketAddress()":"95623641","maxWalletEnable()":"12a54b62","name()":"06fdde03","nodeAddress(uint256)":"e98533b8","owner()":"8da5cb5b","presaleEnable()":"7ec18cf6","relation(address)":"d7a05f05","removeNodeAddress(uint256)":"f3e01942","renounceOwnership()":"715018a6","setMaxWallet(uint256)":"5d0044ca","symbol()":"95d89b41","totalSupply()":"18160ddd","transfer(address,uint256)":"a9059cbb"}}}}}