{"contracts/BT2.sol":{"BT2":{"abi":[{"inputs":[],"stateMutability":"nonpayable","type":"constructor"},{"inputs":[{"internalType":"address","name":"target","type":"address"}],"name":"AddressEmptyCode","type":"error"},{"inputs":[{"internalType":"address","name":"implementation","type":"address"}],"name":"ERC1967InvalidImplementation","type":"error"},{"inputs":[],"name":"ERC1967NonPayable","type":"error"},{"inputs":[{"internalType":"address","name":"spender","type":"address"},{"internalType":"uint256","name":"allowance","type":"uint256"},{"internalType":"uint256","name":"needed","type":"uint256"}],"name":"ERC20InsufficientAllowance","type":"error"},{"inputs":[{"internalType":"address","name":"sender","type":"address"},{"internalType":"uint256","name":"balance","type":"uint256"},{"internalType":"uint256","name":"needed","type":"uint256"}],"name":"ERC20InsufficientBalance","type":"error"},{"inputs":[{"internalType":"address","name":"approver","type":"address"}],"name":"ERC20InvalidApprover","type":"error"},{"inputs":[{"internalType":"address","name":"receiver","type":"address"}],"name":"ERC20InvalidReceiver","type":"error"},{"inputs":[{"internalType":"address","name":"sender","type":"address"}],"name":"ERC20InvalidSender","type":"error"},{"inputs":[{"internalType":"address","name":"spender","type":"address"}],"name":"ERC20InvalidSpender","type":"error"},{"inputs":[],"name":"FailedInnerCall","type":"error"},{"inputs":[],"name":"InvalidInitialization","type":"error"},{"inputs":[],"name":"NotInitializing","type":"error"},{"inputs":[{"internalType":"address","name":"owner","type":"address"}],"name":"OwnableInvalidOwner","type":"error"},{"inputs":[{"internalType":"address","name":"account","type":"address"}],"name":"OwnableUnauthorizedAccount","type":"error"},{"inputs":[],"name":"UUPSUnauthorizedCallContext","type":"error"},{"inputs":[{"internalType":"bytes32","name":"slot","type":"bytes32"}],"name":"UUPSUnsupportedProxiableUUID","type":"error"},{"anonymous":false,"inputs":[{"indexed":false,"internalType":"uint32","name":"_blockToUnlockLiquidity","type":"uint32"},{"indexed":false,"internalType":"uint256","name":"value","type":"uint256"}],"name":"AddLiquidity","type":"event"},{"anonymous":false,"inputs":[{"indexed":true,"internalType":"address","name":"owner","type":"address"},{"indexed":true,"internalType":"address","name":"spender","type":"address"},{"indexed":false,"internalType":"uint256","name":"value","type":"uint256"}],"name":"Approval","type":"event"},{"anonymous":false,"inputs":[{"indexed":false,"internalType":"uint64","name":"version","type":"uint64"}],"name":"Initialized","type":"event"},{"anonymous":false,"inputs":[{"indexed":true,"internalType":"address","name":"previousOwner","type":"address"},{"indexed":true,"internalType":"address","name":"newOwner","type":"address"}],"name":"OwnershipTransferred","type":"event"},{"anonymous":false,"inputs":[{"indexed":true,"internalType":"address","name":"sender","type":"address"},{"indexed":false,"internalType":"uint256","name":"value","type":"uint256"}],"name":"Pledge","type":"event"},{"anonymous":false,"inputs":[{"indexed":false,"internalType":"uint256","name":"value","type":"uint256"}],"name":"RemoveLiquidity","type":"event"},{"anonymous":false,"inputs":[{"indexed":true,"internalType":"address","name":"sender","type":"address"},{"indexed":false,"internalType":"uint256","name":"value","type":"uint256"}],"name":"RemovePledge","type":"event"},{"anonymous":false,"inputs":[{"indexed":true,"internalType":"address","name":"sender","type":"address"},{"indexed":false,"internalType":"uint256","name":"amount0In","type":"uint256"},{"indexed":false,"internalType":"uint256","name":"amount1In","type":"uint256"},{"indexed":false,"internalType":"uint256","name":"amount0Out","type":"uint256"},{"indexed":false,"internalType":"uint256","name":"amount1Out","type":"uint256"}],"name":"Swap","type":"event"},{"anonymous":false,"inputs":[{"indexed":true,"internalType":"address","name":"from","type":"address"},{"indexed":true,"internalType":"address","name":"to","type":"address"},{"indexed":false,"internalType":"uint256","name":"value","type":"uint256"}],"name":"Transfer","type":"event"},{"anonymous":false,"inputs":[{"indexed":true,"internalType":"address","name":"implementation","type":"address"}],"name":"Upgraded","type":"event"},{"inputs":[],"name":"UPGRADE_INTERFACE_VERSION","outputs":[{"internalType":"string","name":"","type":"string"}],"stateMutability":"view","type":"function"},{"inputs":[],"name":"_fireStopAmount","outputs":[{"internalType":"uint256","name":"","type":"uint256"}],"stateMutability":"view","type":"function"},{"inputs":[],"name":"_maxBuyAmount","outputs":[{"internalType":"uint256","name":"","type":"uint256"}],"stateMutability":"view","type":"function"},{"inputs":[],"name":"_maxSellAmount","outputs":[{"internalType":"uint256","name":"","type":"uint256"}],"stateMutability":"view","type":"function"},{"inputs":[{"internalType":"address","name":"_addr","type":"address"}],"name":"_nodeCheck","outputs":[],"stateMutability":"nonpayable","type":"function"},{"inputs":[],"name":"_nodeLimitAmount","outputs":[{"internalType":"uint256","name":"","type":"uint256"}],"stateMutability":"view","type":"function"},{"inputs":[{"internalType":"address","name":"owner","type":"address"},{"internalType":"address","name":"spender","type":"address"}],"name":"allowance","outputs":[{"internalType":"uint256","name":"","type":"uint256"}],"stateMutability":"view","type":"function"},{"inputs":[{"internalType":"address","name":"spender","type":"address"},{"internalType":"uint256","name":"value","type":"uint256"}],"name":"approve","outputs":[{"internalType":"bool","name":"","type":"bool"}],"stateMutability":"nonpayable","type":"function"},{"inputs":[{"internalType":"address","name":"account","type":"address"}],"name":"balanceOf","outputs":[{"internalType":"uint256","name":"","type":"uint256"}],"stateMutability":"view","type":"function"},{"inputs":[{"internalType":"uint256","name":"","type":"uint256"}],"name":"communityAddress","outputs":[{"internalType":"address","name":"","type":"address"}],"stateMutability":"view","type":"function"},{"inputs":[],"name":"communityBonus","outputs":[{"internalType":"uint256","name":"","type":"uint256"}],"stateMutability":"view","type":"function"},{"inputs":[{"internalType":"address","name":"","type":"address"}],"name":"communityCount","outputs":[{"internalType":"uint256","name":"","type":"uint256"}],"stateMutability":"view","type":"function"},{"inputs":[],"name":"decimals","outputs":[{"internalType":"uint8","name":"","type":"uint8"}],"stateMutability":"view","type":"function"},{"inputs":[],"name":"ecoAddress","outputs":[{"internalType":"address","name":"","type":"address"}],"stateMutability":"view","type":"function"},{"inputs":[],"name":"feeAddress","outputs":[{"internalType":"address","name":"","type":"address"}],"stateMutability":"view","type":"function"},{"inputs":[{"internalType":"uint256","name":"value","type":"uint256"},{"internalType":"bool","name":"_buy","type":"bool"}],"name":"getAmountOut","outputs":[{"internalType":"uint256","name":"","type":"uint256"}],"stateMutability":"view","type":"function"},{"inputs":[],"name":"getNodeAddress","outputs":[{"internalType":"address[]","name":"","type":"address[]"}],"stateMutability":"view","type":"function"},{"inputs":[{"internalType":"address","name":"addr","type":"address"}],"name":"getPledgeReceiptRelation","outputs":[{"internalType":"uint256","name":"","type":"uint256"}],"stateMutability":"view","type":"function"},{"inputs":[],"name":"getReserves","outputs":[{"internalType":"uint256","name":"","type":"uint256"},{"internalType":"uint256","name":"","type":"uint256"}],"stateMutability":"view","type":"function"},{"inputs":[],"name":"initialize","outputs":[],"stateMutability":"nonpayable","type":"function"},{"inputs":[],"name":"lastRewardAt","outputs":[{"internalType":"uint256","name":"","type":"uint256"}],"stateMutability":"view","type":"function"},{"inputs":[],"name":"liquidityProvider","outputs":[{"internalType":"address","name":"","type":"address"}],"stateMutability":"view","type":"function"},{"inputs":[],"name":"marketAddress","outputs":[{"internalType":"address","name":"","type":"address"}],"stateMutability":"view","type":"function"},{"inputs":[],"name":"maxWalletEnable","outputs":[{"internalType":"bool","name":"","type":"bool"}],"stateMutability":"view","type":"function"},{"inputs":[],"name":"name","outputs":[{"internalType":"string","name":"","type":"string"}],"stateMutability":"view","type":"function"},{"inputs":[{"internalType":"uint256","name":"","type":"uint256"}],"name":"nodeAddress","outputs":[{"internalType":"address","name":"","type":"address"}],"stateMutability":"view","type":"function"},{"inputs":[{"internalType":"address","name":"","type":"address"}],"name":"nodeAddressRelation","outputs":[{"internalType":"uint256","name":"","type":"uint256"}],"stateMutability":"view","type":"function"},{"inputs":[],"name":"owner","outputs":[{"internalType":"address","name":"","type":"address"}],"stateMutability":"view","type":"function"},{"inputs":[{"internalType":"address","name":"","type":"address"}],"name":"pledgeReceiptRelation","outputs":[{"internalType":"uint256","name":"","type":"uint256"}],"stateMutability":"view","type":"function"},{"inputs":[],"name":"proxiableUUID","outputs":[{"internalType":"bytes32","name":"","type":"bytes32"}],"stateMutability":"view","type":"function"},{"inputs":[{"internalType":"address","name":"","type":"address"}],"name":"relation","outputs":[{"internalType":"address","name":"","type":"address"}],"stateMutability":"view","type":"function"},{"inputs":[{"internalType":"address","name":"addr","type":"address"}],"name":"removePledgeReceiptRelation","outputs":[],"stateMutability":"nonpayable","type":"function"},{"inputs":[],"name":"renounceOwnership","outputs":[],"stateMutability":"nonpayable","type":"function"},{"inputs":[{"internalType":"uint256","name":"_t","type":"uint256"}],"name":"setOpenTradeAt","outputs":[],"stateMutability":"nonpayable","type":"function"},{"inputs":[{"internalType":"contract ERC20Upgradeable","name":"_token","type":"address"}],"name":"setZToken","outputs":[],"stateMutability":"nonpayable","type":"function"},{"inputs":[],"name":"symbol","outputs":[{"internalType":"string","name":"","type":"string"}],"stateMutability":"view","type":"function"},{"inputs":[],"name":"totalSupply","outputs":[{"internalType":"uint256","name":"","type":"uint256"}],"stateMutability":"view","type":"function"},{"inputs":[],"name":"tradeFeeAmount","outputs":[{"internalType":"uint256","name":"","type":"uint256"}],"stateMutability":"view","type":"function"},{"inputs":[{"internalType":"address","name":"to","type":"address"},{"internalType":"uint256","name":"value","type":"uint256"}],"name":"transfer","outputs":[{"internalType":"bool","name":"","type":"bool"}],"stateMutability":"nonpayable","type":"function"},{"inputs":[{"internalType":"address[]","name":"_address","type":"address[]"},{"internalType":"uint256[]","name":"_amounts","type":"uint256[]"}],"name":"transferBatch","outputs":[],"stateMutability":"nonpayable","type":"function"},{"inputs":[{"internalType":"address","name":"from","type":"address"},{"internalType":"address","name":"to","type":"address"},{"internalType":"uint256","name":"value","type":"uint256"}],"name":"transferFrom","outputs":[{"internalType":"bool","name":"","type":"bool"}],"stateMutability":"nonpayable","type":"function"},{"inputs":[{"internalType":"address","name":"newOwner","type":"address"}],"name":"transferOwnership","outputs":[],"stateMutability":"nonpayable","type":"function"},{"inputs":[{"internalType":"address","name":"newImplementation","type":"address"},{"internalType":"bytes","name":"data","type":"bytes"}],"name":"upgradeToAndCall","outputs":[],"stateMutability":"payable","type":"function"},{"stateMutability":"payable","type":"receive"}],"evm":{"bytecode":{"linkReferences":{},"object":"60a0604052306080523480156200001557600080fd5b506200002062000026565b620000da565b7ff0c57e16840df040f15088dc2f81fe391c3923bec73e23a9662efc9c229c6a00805468010000000000000000900460ff1615620000775760405163f92ee8a960e01b815260040160405180910390fd5b80546001600160401b0390811614620000d75780546001600160401b0319166001600160401b0390811782556040519081527fc7f505b2f371ae2175ee4913f4499e1f2633a7b5936321eed1cdaeb6115181d29060200160405180910390a15b50565b60805161306f6200010460003960008181611eb701528181611ee0015261205e015261306f6000f3fe6080604052600436106102e05760003560e01c8063715018a611610184578063b28645a0116100d6578063dbcdf0321161008a578063e98533b811610064578063e98533b814610903578063f2e1562814610923578063f2fde38b1461093957600080fd5b8063dbcdf0321461085b578063dc54150414610888578063dd62ed3e1461089e57600080fd5b8063c363c3ac116100bb578063c363c3ac146107e5578063d0943e1714610805578063d7a05f051461082557600080fd5b8063b28645a0146107a2578063b74de591146107cf57600080fd5b80638da5cb5b116101385780639e1e1713116101125780639e1e171314610719578063a9059cbb14610739578063ad3cb1cc1461075957600080fd5b80638da5cb5b146106a757806395623641146106e457806395d89b411461070457600080fd5b80637b49827a116101695780637b49827a146106465780637cca52fe1461067c5780638129fc1c1461069257600080fd5b8063715018a61461060457806378554a4f1461061957600080fd5b80633b3e672f1161023d5780634f1ef286116101f157806368961ecb116101cb57806368961ecb1461057f57806370a082311461059f57806370dabc9e146105e257600080fd5b80634f1ef2861461053757806352d1902d1461054a5780635b8bec551461055f57600080fd5b80633b8e8b97116102225780633b8e8b97146104c95780633cd691d5146104e957806341275358146104ff57600080fd5b80633b3e672f146104895780633b71d549146104a957600080fd5b806311106ee21161029457806318160ddd1161027957806318160ddd1461041957806323b872dd1461044d578063313ce5671461046d57600080fd5b806311106ee2146103c757806312a54b62146103e757600080fd5b806306fdde03116102c557806306fdde03146103335780630902f1ac14610355578063095ea7b31461039757600080fd5b80630492f055146102f457806304f60cd71461031d57600080fd5b366102ef576102ed610959565b005b600080fd5b34801561030057600080fd5b5061030a60025481565b6040519081526020015b60405180910390f35b34801561032957600080fd5b5061030a60105481565b34801561033f57600080fd5b50610348610bcd565b604051610314919061299a565b34801561036157600080fd5b5060015430600090815260008051602061301a833981519152602052604090205460408051928352602083019190915201610314565b3480156103a357600080fd5b506103b76103b23660046129e2565b610c90565b6040519015158152602001610314565b3480156103d357600080fd5b5061030a6103e2366004612a1c565b610caa565b3480156103f357600080fd5b506007546103b79074010000000000000000000000000000000000000000900460ff1681565b34801561042557600080fd5b507f52c63247e1f47db19d5ce0460030c497f067ca4cebf71ba98eeadabe20bace025461030a565b34801561045957600080fd5b506103b7610468366004612a4c565b610d1b565b34801561047957600080fd5b5060405160128152602001610314565b34801561049557600080fd5b506102ed6104a4366004612ad9565b610d41565b3480156104b557600080fd5b506102ed6104c4366004612b45565b610da4565b3480156104d557600080fd5b506102ed6104e4366004612b62565b610ed2565b3480156104f557600080fd5b5061030a600f5481565b34801561050b57600080fd5b50600a5461051f906001600160a01b031681565b6040516001600160a01b039091168152602001610314565b6102ed610545366004612b91565b610edf565b34801561055657600080fd5b5061030a610efa565b34801561056b57600080fd5b5060075461051f906001600160a01b031681565b34801561058b57600080fd5b5060095461051f906001600160a01b031681565b3480156105ab57600080fd5b5061030a6105ba366004612b45565b6001600160a01b0316600090815260008051602061301a833981519152602052604090205490565b3480156105ee57600080fd5b506105f7610f29565b6040516103149190612c55565b34801561061057600080fd5b506102ed610f8b565b34801561062557600080fd5b5061030a610634366004612b45565b60126020526000908152604090205481565b34801561065257600080fd5b5061030a610661366004612b45565b6001600160a01b031660009081526013602052604090205490565b34801561068857600080fd5b5061030a60035481565b34801561069e57600080fd5b506102ed610f9f565b3480156106b357600080fd5b507f9016d09d72d40fdae2fd8ceac6b6234c7706214fd39c1cd1e609a0528c199300546001600160a01b031661051f565b3480156106f057600080fd5b5060085461051f906001600160a01b031681565b34801561071057600080fd5b50610348611284565b34801561072557600080fd5b506102ed610734366004612b45565b6112c3565b34801561074557600080fd5b506103b76107543660046129e2565b6112ed565b34801561076557600080fd5b506103486040518060400160405280600581526020017f352e302e3000000000000000000000000000000000000000000000000000000081525081565b3480156107ae57600080fd5b5061030a6107bd366004612b45565b600c6020526000908152604090205481565b3480156107db57600080fd5b5061030a60045481565b3480156107f157600080fd5b506102ed610800366004612b45565b611660565b34801561081157600080fd5b5061051f610820366004612b62565b61178d565b34801561083157600080fd5b5061051f610840366004612b45565b6011602052600090815260409020546001600160a01b031681565b34801561086757600080fd5b5061030a610876366004612b45565b60136020526000908152604090205481565b34801561089457600080fd5b5061030a600e5481565b3480156108aa57600080fd5b5061030a6108b9366004612ca2565b6001600160a01b0391821660009081527f52c63247e1f47db19d5ce0460030c497f067ca4cebf71ba98eeadabe20bace016020908152604080832093909416825291909152205490565b34801561090f57600080fd5b5061051f61091e366004612b62565b6117b7565b34801561092f57600080fd5b5061030a60145481565b34801561094557600080fd5b506102ed610954366004612b45565b6117c7565b336000908152601760205260409020544363ffffffff909116036109ea5760405162461bcd60e51b815260206004820152603160248201527f596f752063616e2774206d616b652074776f207472616e73616374696f6e732060448201527f696e207468652073616d6520626c6f636b00000000000000000000000000000060648201526084015b60405180910390fd5b6016544211610a3b5760405162461bcd60e51b815260206004820152600a60248201527f6e6f74206f70656e65640000000000000000000000000000000000000000000060448201526064016109e1565b336000908152601760205260408120805463ffffffff19164363ffffffff16179055600154349190610a6e908390612ce6565b30600090815260008051602061301a8339815191526020526040902054610a959084612cf9565b610a9f9190612d10565b9050600254811115610af35760405162461bcd60e51b815260206004820152600d60248201527f4d6178204c696d6974204275790000000000000000000000000000000000000060448201526064016109e1565b610b1430336064610b0585605f612cf9565b610b0f9190612d10565b61181e565b6103e8610b23836103d9612cf9565b610b2d9190612d10565b60016000828254610b3e9190612ce6565b90915550610b4d905034611975565b610b56816119c4565b610b603382611b20565b610b6981611b66565b610b7233610da4565b610b7b81611bb5565b60408051348152600060208201819052918101919091526060810182905233907f49926bbebe8474393f434dfa4f78694c0923efa07d19f2284518bfabd06eb737906080015b60405180910390a25050565b7f52c63247e1f47db19d5ce0460030c497f067ca4cebf71ba98eeadabe20bace03805460609160008051602061301a83398151915291610c0c90612d32565b80601f0160208091040260200160405190810160405280929190818152602001828054610c3890612d32565b8015610c855780601f10610c5a57610100808354040283529160200191610c85565b820191906000526020600020905b815481529060010190602001808311610c6857829003601f168201915b505050505091505090565b600033610c9e818585611c37565b60019150505b92915050565b6000806000610cd660015430600090815260008051602061301a83398151915260205260409020549091565b915091508315610d0757610cea8583612ce6565b610cf48287612cf9565b610cfe9190612d10565b92505050610ca4565b610d118582612ce6565b610cf48387612cf9565b600033610d29858285611c44565b610d34858585611cf4565b60019150505b9392505050565b60005b83811015610d9d57610d9533868684818110610d6257610d62612d6c565b9050602002016020810190610d779190612b45565b858585818110610d8957610d89612d6c565b9050602002013561181e565b600101610d44565b5050505050565b6009546001600160a01b0382811691161480610dc857506001600160a01b03811630145b15610dd05750565b6001600160a01b0381166000908152600c60205260409020548015801590610e1e5750600f546001600160a01b038316600090815260008051602061301a8339815191526020526040902054105b15610e3b57610e37610e31600183612d82565b83611d6c565b5050565b80158015610e705750600f546001600160a01b038316600090815260008051602061301a833981519152602052604090205410155b15610e375750600b80546001810182557f0175b7a638427703f0dbe7bb9bbf987a2551717b34e79f33b5b1008d1fa01db90180546001600160a01b039093166001600160a01b031990931683179055546000918252600c602052604090912055565b610eda611e38565b601655565b610ee7611eac565b610ef082611f63565b610e378282611f6b565b6000610f04612053565b507f360894a13ba1a3210667c828492db98dca3e2076cc3735a920a3ca505d382bbc90565b6060600b805480602002602001604051908101604052809291908181526020018280548015610f8157602002820191906000526020600020905b81546001600160a01b03168152600190910190602001808311610f63575b5050505050905090565b610f93611e38565b610f9d600061209c565b565b7ff0c57e16840df040f15088dc2f81fe391c3923bec73e23a9662efc9c229c6a00805468010000000000000000810460ff16159067ffffffffffffffff16600081158015610fea5750825b905060008267ffffffffffffffff1660011480156110075750303b155b905081158015611015575080155b1561104c576040517ff92ee8a900000000000000000000000000000000000000000000000000000000815260040160405180910390fd5b845467ffffffffffffffff19166001178555831561108057845468ff00000000000000001916680100000000000000001785555b6110c060405180604001604052806003815260200162212a1960e91b81525060405180604001604052806003815260200162212a1960e91b81525061210d565b6110cc6012600a612e79565b6110da90633b023380612cf9565b6000556110e96012600a612e79565b6110f5906104b0612cf9565b6001556111046012600a612e79565b6111119062989680612cf9565b6004556111206012600a612e79565b61112d906207a120612cf9565b600f5561113c6012600a612e79565b6111489061c350612cf9565b6003556111576012600a612e79565b6111649062030d40612cf9565b600255600980546001600160a01b03199081167398a8790028c6476b740be640627a62496e5d616b17909155600880548216737a6ca6a66b7ca223ecd10ef837895f7a32e902d4179055600a805490911673bedddae2062f0b573ec72562f88da141a67b70b21790556111d63361211f565b6111de612130565b611201306111ee6012600a612e79565b6111fc90631a39de00612cf9565b612138565b60095461122b906001600160a01b031661121d6012600a612e79565b6111fc906320c85580612cf9565b63664995606016558315610d9d57845468ff000000000000000019168555604051600181527fc7f505b2f371ae2175ee4913f4499e1f2633a7b5936321eed1cdaeb6115181d29060200160405180910390a15050505050565b7f52c63247e1f47db19d5ce0460030c497f067ca4cebf71ba98eeadabe20bace04805460609160008051602061301a83398151915291610c0c90612d32565b6112cb611e38565b601580546001600160a01b0319166001600160a01b0392909216919091179055565b600033306001600160a01b0385160361130e576113098361216e565b611657565b6015546001600160a01b0390811690851603611563576113306012600a612e79565b61133c90617530612cf9565b83148061136057506113506012600a612e79565b61135d90620186a0612cf9565b83145b8061138257506113726012600a612e79565b61137f90620493e0612cf9565b83145b806113a457506113946012600a612e79565b6113a1906207a120612cf9565b83145b6113f05760405162461bcd60e51b815260206004820152600e60248201527f33772f3130772f3330772f35307700000000000000000000000000000000000060448201526064016109e1565b6001600160a01b038116600090815260136020526040902054156114565760405162461bcd60e51b815260206004820152600f60248201527f416c726561647920706c6564676564000000000000000000000000000000000060448201526064016109e1565b611461818585611cf4565b6001600160a01b0380821660009081526013602052604090208490556015541663a9059cbb8261149361138887612d10565b6040517fffffffff0000000000000000000000000000000000000000000000000000000060e085901b1681526001600160a01b03909216600483015260248201526044016020604051808303816000875af11580156114f6573d6000803e3d6000fd5b505050506040513d601f19601f8201168201806040525081019061151a9190612e88565b50806001600160a01b03167f5e91ea8ea1c46300eb761859be01d7b16d44389ef91e03a163a87413cbf55b958460405161155691815260200190565b60405180910390a2611657565b600061157160066012612ea5565b61157c90600a612e79565b611587906001612cf9565b90506115b5826001600160a01b0316600090815260008051602061301a833981519152602052604090205490565b840361163757806115e8836001600160a01b0316600090815260008051602061301a833981519152602052604090205490565b111561162c578061161b836001600160a01b0316600090815260008051602061301a833981519152602052604090205490565b6116259190612d82565b9350611637565b600192505050610ca4565b61164282868661181e565b61164c8286612498565b61165585610da4565b505b610c9e81610da4565b6015546001600160a01b031633146116ba5760405162461bcd60e51b815260206004820152600d60248201527f4e6f207065726d697373696f6e0000000000000000000000000000000000000060448201526064016109e1565b6001600160a01b038116600090815260136020526040902054806117205760405162461bcd60e51b815260206004820152600960248201527f6e6f20706c65646765000000000000000000000000000000000000000000000060448201526064016109e1565b601554611737906001600160a01b03168383611cf4565b61174082610da4565b6001600160a01b03821660008181526013602052604080822091909155517f7c1499da310db315606891cff45c8999e67bc58b9fa507440dd5c02506d64de090610bc19084815260200190565b600d818154811061179d57600080fd5b6000918252602090912001546001600160a01b0316905081565b600b818154811061179d57600080fd5b6117cf611e38565b6001600160a01b038116611812576040517f1e4fbdf7000000000000000000000000000000000000000000000000000000008152600060048201526024016109e1565b61181b8161209c565b50565b60008051602061301a8339815191526001600160a01b03841661185a578181600201600082825461184f9190612ce6565b909155506118e59050565b6001600160a01b038416600090815260208290526040902054828110156118c6576040517fe450d38c0000000000000000000000000000000000000000000000000000000081526001600160a01b038616600482015260248101829052604481018490526064016109e1565b6001600160a01b03851660009081526020839052604090209083900390555b6001600160a01b038316611903576002810180548390039055611922565b6001600160a01b03831660009081526020829052604090208054830190555b826001600160a01b0316846001600160a01b03167fddf252ad1be2c89b69c2b068fc378daa952ba7f163c4a11628f55a4df523b3ef8460405161196791815260200190565b60405180910390a350505050565b6008546001600160a01b03166108fc6103e861199284600f612cf9565b61199c9190612d10565b6040518115909202916000818181858888f19350505050158015610e37573d6000803e3d6000fd5b60006103e86119d483600f612cf9565b6119de9190612d10565b600b54909150600003611a0357600a54610e379030906001600160a01b03168361181e565b600b54600090611a139083612d10565b905060005b600b54811015611b1a5760006001600160a01b0316600b8281548110611a4057611a40612d6c565b6000918252602090912001546001600160a01b031614611b1257600f54611aa5600b8381548110611a7357611a73612d6c565b60009182526020808320909101546001600160a01b0316825260008051602061301a8339815191529052604090205490565b10611ae157611adc30600b8381548110611ac157611ac1612d6c565b6000918252602090912001546001600160a01b03168461181e565b611b12565b611b1281600b8381548110611af857611af8612d6c565b6000918252602090912001546001600160a01b0316611d6c565b600101611a18565b50505050565b6001600160a01b038083166000908152601160205260409020541680611b4e5750600a546001600160a01b03165b611b6130826103e8610b0586600a612cf9565b505050565b60006064611b75836005612cf9565b611b7f9190612d10565b600954909150611b9a9030906001600160a01b03168361181e565b8060106000828254611bac9190612ce6565b90915550505050565b60006103e8611bc583600a612cf9565b611bcf9190612d10565b905060045481600054611be29190612d82565b1015611bfb57600454600054611bf89190612d82565b90505b600081118015611c26575030600090815260008051602061301a833981519152602052604090205481105b15610e3757610e373060008361181e565b611b61838383600161256b565b6001600160a01b0383811660009081527f52c63247e1f47db19d5ce0460030c497f067ca4cebf71ba98eeadabe20bace0160209081526040808320938616835292905220546000198114611b1a5781811015611ce5576040517ffb8f41b20000000000000000000000000000000000000000000000000000000081526001600160a01b038416600482015260248101829052604481018390526064016109e1565b611b1a8484848403600061256b565b6001600160a01b038316611d37576040517f96c6fd1e000000000000000000000000000000000000000000000000000000008152600060048201526024016109e1565b6001600160a01b038216611d615760405163ec442f0560e01b8152600060048201526024016109e1565b611b6183838361181e565b600b8054611d7c90600190612d82565b81548110611d8c57611d8c612d6c565b600091825260209091200154600b80546001600160a01b039092169184908110611db857611db8612d6c565b9060005260206000200160006101000a8154816001600160a01b0302191690836001600160a01b03160217905550600b805480611df757611df7612ebe565b60008281526020808220830160001990810180546001600160a01b03191690559092019092556001600160a01b03929092168152600c909152604081205550565b33611e6a7f9016d09d72d40fdae2fd8ceac6b6234c7706214fd39c1cd1e609a0528c199300546001600160a01b031690565b6001600160a01b031614610f9d576040517f118cdaa70000000000000000000000000000000000000000000000000000000081523360048201526024016109e1565b306001600160a01b037f0000000000000000000000000000000000000000000000000000000000000000161480611f4557507f00000000000000000000000000000000000000000000000000000000000000006001600160a01b0316611f397f360894a13ba1a3210667c828492db98dca3e2076cc3735a920a3ca505d382bbc546001600160a01b031690565b6001600160a01b031614155b15610f9d5760405163703e46dd60e11b815260040160405180910390fd5b61181b611e38565b816001600160a01b03166352d1902d6040518163ffffffff1660e01b8152600401602060405180830381865afa925050508015611fc5575060408051601f3d908101601f19168201909252611fc291810190612ed4565b60015b611fed57604051634c9c8ce360e01b81526001600160a01b03831660048201526024016109e1565b7f360894a13ba1a3210667c828492db98dca3e2076cc3735a920a3ca505d382bbc8114612049576040517faa1d49a4000000000000000000000000000000000000000000000000000000008152600481018290526024016109e1565b611b618383612684565b306001600160a01b037f00000000000000000000000000000000000000000000000000000000000000001614610f9d5760405163703e46dd60e11b815260040160405180910390fd5b7f9016d09d72d40fdae2fd8ceac6b6234c7706214fd39c1cd1e609a0528c19930080546001600160a01b031981166001600160a01b03848116918217845560405192169182907f8be0079c531659141344cd1fd0a4f28419497f9722a3daafe3b4186f6b6457e090600090a3505050565b6121156126da565b610e378282612741565b6121276126da565b61181b81612792565b610f9d6126da565b6001600160a01b0382166121625760405163ec442f0560e01b8152600060048201526024016109e1565b610e376000838361181e565b336000908152601760205260409020544363ffffffff909116036121fa5760405162461bcd60e51b815260206004820152603160248201527f596f752063616e2774206d616b652074776f207472616e73616374696f6e732060448201527f696e207468652073616d6520626c6f636b00000000000000000000000000000060648201526084016109e1565b336000908152601760205260409020805463ffffffff19164363ffffffff1617905560035481111561226e5760405162461bcd60e51b815260206004820152600e60248201527f4d6178204c696d69742053656c6c00000000000000000000000000000000000060448201526064016109e1565b30600090815260008051602061301a8339815191526020526040812054612296908390612ce6565b6001546122a39084612cf9565b6122ad9190612d10565b9050600081116122ff5760405162461bcd60e51b815260206004820152601360248201527f53656c6c20616d6f756e7420746f6f206c6f770000000000000000000000000060448201526064016109e1565b8060015410156123515760405162461bcd60e51b815260206004820152601c60248201527f496e73756666696369656e7420424e4220696e2072657365727665730000000060448201526064016109e1565b804710156123a15760405162461bcd60e51b815260206004820152601b60248201527f496e73756666696369656e7420424e4220696e2062616c616e6365000000000060448201526064016109e1565b6123ac33308461181e565b6103e86123bb826103c5612cf9565b6123c59190612d10565b600160008282546123d69190612d82565b909155506123e5905081611975565b6123ee826119c4565b6123f83383611b20565b61240182611b66565b61240a82611bb5565b336108fc606461241b84605f612cf9565b6124259190612d10565b6040518115909202916000818181858888f1935050505015801561244d573d6000803e3d6000fd5b5060408051600080825260208201859052918101839052606081019190915233907f49926bbebe8474393f434dfa4f78694c0923efa07d19f2284518bfabd06eb73790608001610bc1565b6001600160a01b03818116600090815260116020526040902054161580156124d25750806001600160a01b0316826001600160a01b031614155b80156124e757506001600160a01b0381163014155b801561250157506008546001600160a01b03828116911614155b801561251b57506009546001600160a01b03828116911614155b80156125355750600a546001600160a01b03828116911614155b15610e37576001600160a01b03908116600090815260116020526040902080546001600160a01b03191692909116919091179055565b60008051602061301a8339815191526001600160a01b0385166125bd576040517fe602df05000000000000000000000000000000000000000000000000000000008152600060048201526024016109e1565b6001600160a01b038416612600576040517f94280d62000000000000000000000000000000000000000000000000000000008152600060048201526024016109e1565b6001600160a01b03808616600090815260018301602090815260408083209388168352929052208390558115610d9d57836001600160a01b0316856001600160a01b03167f8c5be1e5ebec7d5bd14f71427d1e84f3dd0314c0f7b2291e5b200ac8c7c3b9258560405161267591815260200190565b60405180910390a35050505050565b61268d8261279a565b6040516001600160a01b038316907fbc7cd75a20ee27fd9adebab32041f755214dbc6bffa90cc0225b39da2e5c2d3b90600090a28051156126d257611b618282612811565b610e37612887565b7ff0c57e16840df040f15088dc2f81fe391c3923bec73e23a9662efc9c229c6a005468010000000000000000900460ff16610f9d576040517fd7e6bcf800000000000000000000000000000000000000000000000000000000815260040160405180910390fd5b6127496126da565b60008051602061301a8339815191527f52c63247e1f47db19d5ce0460030c497f067ca4cebf71ba98eeadabe20bace036127838482612f3d565b5060048101611b1a8382612f3d565b6117cf6126da565b806001600160a01b03163b6000036127d057604051634c9c8ce360e01b81526001600160a01b03821660048201526024016109e1565b7f360894a13ba1a3210667c828492db98dca3e2076cc3735a920a3ca505d382bbc80546001600160a01b0319166001600160a01b0392909216919091179055565b6060600080846001600160a01b03168460405161282e9190612ffd565b600060405180830381855af49150503d8060008114612869576040519150601f19603f3d011682016040523d82523d6000602084013e61286e565b606091505b509150915061287e8583836128bf565b95945050505050565b3415610f9d576040517fb398979f00000000000000000000000000000000000000000000000000000000815260040160405180910390fd5b6060826128d4576128cf82612934565b610d3a565b81511580156128eb57506001600160a01b0384163b155b1561292d576040517f9996b3150000000000000000000000000000000000000000000000000000000081526001600160a01b03851660048201526024016109e1565b5080610d3a565b8051156129445780518082602001fd5b6040517f1425ea4200000000000000000000000000000000000000000000000000000000815260040160405180910390fd5b60005b83811015612991578181015183820152602001612979565b50506000910152565b60208152600082518060208401526129b9816040850160208701612976565b601f01601f19169190910160400192915050565b6001600160a01b038116811461181b57600080fd5b600080604083850312156129f557600080fd5b8235612a00816129cd565b946020939093013593505050565b801515811461181b57600080fd5b60008060408385031215612a2f57600080fd5b823591506020830135612a4181612a0e565b809150509250929050565b600080600060608486031215612a6157600080fd5b8335612a6c816129cd565b92506020840135612a7c816129cd565b929592945050506040919091013590565b60008083601f840112612a9f57600080fd5b50813567ffffffffffffffff811115612ab757600080fd5b6020830191508360208260051b8501011115612ad257600080fd5b9250929050565b60008060008060408587031215612aef57600080fd5b843567ffffffffffffffff80821115612b0757600080fd5b612b1388838901612a8d565b90965094506020870135915080821115612b2c57600080fd5b50612b3987828801612a8d565b95989497509550505050565b600060208284031215612b5757600080fd5b8135610d3a816129cd565b600060208284031215612b7457600080fd5b5035919050565b634e487b7160e01b600052604160045260246000fd5b60008060408385031215612ba457600080fd5b8235612baf816129cd565b9150602083013567ffffffffffffffff80821115612bcc57600080fd5b818501915085601f830112612be057600080fd5b813581811115612bf257612bf2612b7b565b604051601f8201601f19908116603f01168101908382118183101715612c1a57612c1a612b7b565b81604052828152886020848701011115612c3357600080fd5b8260208601602083013760006020848301015280955050505050509250929050565b6020808252825182820181905260009190848201906040850190845b81811015612c965783516001600160a01b031683529284019291840191600101612c71565b50909695505050505050565b60008060408385031215612cb557600080fd5b8235612cc0816129cd565b91506020830135612a41816129cd565b634e487b7160e01b600052601160045260246000fd5b80820180821115610ca457610ca4612cd0565b8082028115828204841417610ca457610ca4612cd0565b600082612d2d57634e487b7160e01b600052601260045260246000fd5b500490565b600181811c90821680612d4657607f821691505b602082108103612d6657634e487b7160e01b600052602260045260246000fd5b50919050565b634e487b7160e01b600052603260045260246000fd5b81810381811115610ca457610ca4612cd0565b600181815b80851115612dd0578160001904821115612db657612db6612cd0565b80851615612dc357918102915b93841c9390800290612d9a565b509250929050565b600082612de757506001610ca4565b81612df457506000610ca4565b8160018114612e0a5760028114612e1457612e30565b6001915050610ca4565b60ff841115612e2557612e25612cd0565b50506001821b610ca4565b5060208310610133831016604e8410600b8410161715612e53575081810a610ca4565b612e5d8383612d95565b8060001904821115612e7157612e71612cd0565b029392505050565b6000610d3a60ff841683612dd8565b600060208284031215612e9a57600080fd5b8151610d3a81612a0e565b60ff8281168282160390811115610ca457610ca4612cd0565b634e487b7160e01b600052603160045260246000fd5b600060208284031215612ee657600080fd5b5051919050565b601f821115611b61576000816000526020600020601f850160051c81016020861015612f165750805b601f850160051c820191505b81811015612f3557828155600101612f22565b505050505050565b815167ffffffffffffffff811115612f5757612f57612b7b565b612f6b81612f658454612d32565b84612eed565b602080601f831160018114612fa05760008415612f885750858301515b600019600386901b1c1916600185901b178555612f35565b600085815260208120601f198616915b82811015612fcf57888601518255948401946001909101908401612fb0565b5085821015612fed5787850151600019600388901b60f8161c191681555b5050505050600190811b01905550565b6000825161300f818460208701612976565b919091019291505056fe52c63247e1f47db19d5ce0460030c497f067ca4cebf71ba98eeadabe20bace00a264697066735822122023fbb1f461b47a9b7b075a1940625664b955c457af91e8ce07267e1d975118b064736f6c63430008180033","opcodes":"PUSH1 0xA0 PUSH1 0x40 MSTORE ADDRESS PUSH1 0x80 MSTORE CALLVALUE DUP1 ISZERO PUSH3 0x15 JUMPI PUSH1 0x0 DUP1 REVERT JUMPDEST POP PUSH3 0x20 PUSH3 0x26 JUMP JUMPDEST PUSH3 0xDA JUMP JUMPDEST PUSH32 0xF0C57E16840DF040F15088DC2F81FE391C3923BEC73E23A9662EFC9C229C6A00 DUP1 SLOAD PUSH9 0x10000000000000000 SWAP1 DIV PUSH1 0xFF AND ISZERO PUSH3 0x77 JUMPI PUSH1 0x40 MLOAD PUSH4 0xF92EE8A9 PUSH1 0xE0 SHL DUP2 MSTORE PUSH1 0x4 ADD PUSH1 0x40 MLOAD DUP1 SWAP2 SUB SWAP1 REVERT JUMPDEST DUP1 SLOAD PUSH1 0x1 PUSH1 0x1 PUSH1 0x40 SHL SUB SWAP1 DUP2 AND EQ PUSH3 0xD7 JUMPI DUP1 SLOAD PUSH1 0x1 PUSH1 0x1 PUSH1 0x40 SHL SUB NOT AND PUSH1 0x1 PUSH1 0x1 PUSH1 0x40 SHL SUB SWAP1 DUP2 OR DUP3 SSTORE PUSH1 0x40 MLOAD SWAP1 DUP2 MSTORE PUSH32 0xC7F505B2F371AE2175EE4913F4499E1F2633A7B5936321EED1CDAEB6115181D2 SWAP1 PUSH1 0x20 ADD PUSH1 0x40 MLOAD DUP1 SWAP2 SUB SWAP1 LOG1 JUMPDEST POP JUMP JUMPDEST PUSH1 0x80 MLOAD PUSH2 0x306F PUSH3 0x104 PUSH1 0x0 CODECOPY PUSH1 0x0 DUP2 DUP2 PUSH2 0x1EB7 ADD MSTORE DUP2 DUP2 PUSH2 0x1EE0 ADD MSTORE PUSH2 0x205E ADD MSTORE PUSH2 0x306F PUSH1 0x0 RETURN INVALID PUSH1 0x80 PUSH1 0x40 MSTORE PUSH1 0x4 CALLDATASIZE LT PUSH2 0x2E0 JUMPI PUSH1 0x0 CALLDATALOAD PUSH1 0xE0 SHR DUP1 PUSH4 0x715018A6 GT PUSH2 0x184 JUMPI DUP1 PUSH4 0xB28645A0 GT PUSH2 0xD6 JUMPI DUP1 PUSH4 0xDBCDF032 GT PUSH2 0x8A JUMPI DUP1 PUSH4 0xE98533B8 GT PUSH2 0x64 JUMPI DUP1 PUSH4 0xE98533B8 EQ PUSH2 0x903 JUMPI DUP1 PUSH4 0xF2E15628 EQ PUSH2 0x923 JUMPI DUP1 PUSH4 0xF2FDE38B EQ PUSH2 0x939 JUMPI PUSH1 0x0 DUP1 REVERT JUMPDEST DUP1 PUSH4 0xDBCDF032 EQ PUSH2 0x85B JUMPI DUP1 PUSH4 0xDC541504 EQ PUSH2 0x888 JUMPI DUP1 PUSH4 0xDD62ED3E EQ PUSH2 0x89E JUMPI PUSH1 0x0 DUP1 REVERT JUMPDEST DUP1 PUSH4 0xC363C3AC GT PUSH2 0xBB JUMPI DUP1 PUSH4 0xC363C3AC EQ PUSH2 0x7E5 JUMPI DUP1 PUSH4 0xD0943E17 EQ PUSH2 0x805 JUMPI DUP1 PUSH4 0xD7A05F05 EQ PUSH2 0x825 JUMPI PUSH1 0x0 DUP1 REVERT JUMPDEST DUP1 PUSH4 0xB28645A0 EQ PUSH2 0x7A2 JUMPI DUP1 PUSH4 0xB74DE591 EQ PUSH2 0x7CF JUMPI PUSH1 0x0 DUP1 REVERT JUMPDEST DUP1 PUSH4 0x8DA5CB5B GT PUSH2 0x138 JUMPI DUP1 PUSH4 0x9E1E1713 GT PUSH2 0x112 JUMPI DUP1 PUSH4 0x9E1E1713 EQ PUSH2 0x719 JUMPI DUP1 PUSH4 0xA9059CBB EQ PUSH2 0x739 JUMPI DUP1 PUSH4 0xAD3CB1CC EQ PUSH2 0x759 JUMPI PUSH1 0x0 DUP1 REVERT JUMPDEST DUP1 PUSH4 0x8DA5CB5B EQ PUSH2 0x6A7 JUMPI DUP1 PUSH4 0x95623641 EQ PUSH2 0x6E4 JUMPI DUP1 PUSH4 0x95D89B41 EQ PUSH2 0x704 JUMPI PUSH1 0x0 DUP1 REVERT JUMPDEST DUP1 PUSH4 0x7B49827A GT PUSH2 0x169 JUMPI DUP1 PUSH4 0x7B49827A EQ PUSH2 0x646 JUMPI DUP1 PUSH4 0x7CCA52FE EQ PUSH2 0x67C JUMPI DUP1 PUSH4 0x8129FC1C EQ PUSH2 0x692 JUMPI PUSH1 0x0 DUP1 REVERT JUMPDEST DUP1 PUSH4 0x715018A6 EQ PUSH2 0x604 JUMPI DUP1 PUSH4 0x78554A4F EQ PUSH2 0x619 JUMPI PUSH1 0x0 DUP1 REVERT JUMPDEST DUP1 PUSH4 0x3B3E672F GT PUSH2 0x23D JUMPI DUP1 PUSH4 0x4F1EF286 GT PUSH2 0x1F1 JUMPI DUP1 PUSH4 0x68961ECB GT PUSH2 0x1CB JUMPI DUP1 PUSH4 0x68961ECB EQ PUSH2 0x57F JUMPI DUP1 PUSH4 0x70A08231 EQ PUSH2 0x59F JUMPI DUP1 PUSH4 0x70DABC9E EQ PUSH2 0x5E2 JUMPI PUSH1 0x0 DUP1 REVERT JUMPDEST DUP1 PUSH4 0x4F1EF286 EQ PUSH2 0x537 JUMPI DUP1 PUSH4 0x52D1902D EQ PUSH2 0x54A JUMPI DUP1 PUSH4 0x5B8BEC55 EQ PUSH2 0x55F JUMPI PUSH1 0x0 DUP1 REVERT JUMPDEST DUP1 PUSH4 0x3B8E8B97 GT PUSH2 0x222 JUMPI DUP1 PUSH4 0x3B8E8B97 EQ PUSH2 0x4C9 JUMPI DUP1 PUSH4 0x3CD691D5 EQ PUSH2 0x4E9 JUMPI DUP1 PUSH4 0x41275358 EQ PUSH2 0x4FF JUMPI PUSH1 0x0 DUP1 REVERT JUMPDEST DUP1 PUSH4 0x3B3E672F EQ PUSH2 0x489 JUMPI DUP1 PUSH4 0x3B71D549 EQ PUSH2 0x4A9 JUMPI PUSH1 0x0 DUP1 REVERT JUMPDEST DUP1 PUSH4 0x11106EE2 GT PUSH2 0x294 JUMPI DUP1 PUSH4 0x18160DDD GT PUSH2 0x279 JUMPI DUP1 PUSH4 0x18160DDD EQ PUSH2 0x419 JUMPI DUP1 PUSH4 0x23B872DD EQ PUSH2 0x44D JUMPI DUP1 PUSH4 0x313CE567 EQ PUSH2 0x46D JUMPI PUSH1 0x0 DUP1 REVERT JUMPDEST DUP1 PUSH4 0x11106EE2 EQ PUSH2 0x3C7 JUMPI DUP1 PUSH4 0x12A54B62 EQ PUSH2 0x3E7 JUMPI PUSH1 0x0 DUP1 REVERT JUMPDEST DUP1 PUSH4 0x6FDDE03 GT PUSH2 0x2C5 JUMPI DUP1 PUSH4 0x6FDDE03 EQ PUSH2 0x333 JUMPI DUP1 PUSH4 0x902F1AC EQ PUSH2 0x355 JUMPI DUP1 PUSH4 0x95EA7B3 EQ PUSH2 0x397 JUMPI PUSH1 0x0 DUP1 REVERT JUMPDEST DUP1 PUSH4 0x492F055 EQ PUSH2 0x2F4 JUMPI DUP1 PUSH4 0x4F60CD7 EQ PUSH2 0x31D JUMPI PUSH1 0x0 DUP1 REVERT JUMPDEST CALLDATASIZE PUSH2 0x2EF JUMPI PUSH2 0x2ED PUSH2 0x959 JUMP JUMPDEST STOP JUMPDEST PUSH1 0x0 DUP1 REVERT JUMPDEST CALLVALUE DUP1 ISZERO PUSH2 0x300 JUMPI PUSH1 0x0 DUP1 REVERT JUMPDEST POP PUSH2 0x30A PUSH1 0x2 SLOAD DUP2 JUMP JUMPDEST PUSH1 0x40 MLOAD SWAP1 DUP2 MSTORE PUSH1 0x20 ADD JUMPDEST PUSH1 0x40 MLOAD DUP1 SWAP2 SUB SWAP1 RETURN JUMPDEST CALLVALUE DUP1 ISZERO PUSH2 0x329 JUMPI PUSH1 0x0 DUP1 REVERT JUMPDEST POP PUSH2 0x30A PUSH1 0x10 SLOAD DUP2 JUMP JUMPDEST CALLVALUE DUP1 ISZERO PUSH2 0x33F JUMPI PUSH1 0x0 DUP1 REVERT JUMPDEST POP PUSH2 0x348 PUSH2 0xBCD JUMP JUMPDEST PUSH1 0x40 MLOAD PUSH2 0x314 SWAP2 SWAP1 PUSH2 0x299A JUMP JUMPDEST CALLVALUE DUP1 ISZERO PUSH2 0x361 JUMPI PUSH1 0x0 DUP1 REVERT JUMPDEST POP PUSH1 0x1 SLOAD ADDRESS PUSH1 0x0 SWAP1 DUP2 MSTORE PUSH1 0x0 DUP1 MLOAD PUSH1 0x20 PUSH2 0x301A DUP4 CODECOPY DUP2 MLOAD SWAP2 MSTORE PUSH1 0x20 MSTORE PUSH1 0x40 SWAP1 KECCAK256 SLOAD PUSH1 0x40 DUP1 MLOAD SWAP3 DUP4 MSTORE PUSH1 0x20 DUP4 ADD SWAP2 SWAP1 SWAP2 MSTORE ADD PUSH2 0x314 JUMP JUMPDEST CALLVALUE DUP1 ISZERO PUSH2 0x3A3 JUMPI PUSH1 0x0 DUP1 REVERT JUMPDEST POP PUSH2 0x3B7 PUSH2 0x3B2 CALLDATASIZE PUSH1 0x4 PUSH2 0x29E2 JUMP JUMPDEST PUSH2 0xC90 JUMP JUMPDEST PUSH1 0x40 MLOAD SWAP1 ISZERO ISZERO DUP2 MSTORE PUSH1 0x20 ADD PUSH2 0x314 JUMP JUMPDEST CALLVALUE DUP1 ISZERO PUSH2 0x3D3 JUMPI PUSH1 0x0 DUP1 REVERT JUMPDEST POP PUSH2 0x30A PUSH2 0x3E2 CALLDATASIZE PUSH1 0x4 PUSH2 0x2A1C JUMP JUMPDEST PUSH2 0xCAA JUMP JUMPDEST CALLVALUE DUP1 ISZERO PUSH2 0x3F3 JUMPI PUSH1 0x0 DUP1 REVERT JUMPDEST POP PUSH1 0x7 SLOAD PUSH2 0x3B7 SWAP1 PUSH21 0x10000000000000000000000000000000000000000 SWAP1 DIV PUSH1 0xFF AND DUP2 JUMP JUMPDEST CALLVALUE DUP1 ISZERO PUSH2 0x425 JUMPI PUSH1 0x0 DUP1 REVERT JUMPDEST POP PUSH32 0x52C63247E1F47DB19D5CE0460030C497F067CA4CEBF71BA98EEADABE20BACE02 SLOAD PUSH2 0x30A JUMP JUMPDEST CALLVALUE DUP1 ISZERO PUSH2 0x459 JUMPI PUSH1 0x0 DUP1 REVERT JUMPDEST POP PUSH2 0x3B7 PUSH2 0x468 CALLDATASIZE PUSH1 0x4 PUSH2 0x2A4C JUMP JUMPDEST PUSH2 0xD1B JUMP JUMPDEST CALLVALUE DUP1 ISZERO PUSH2 0x479 JUMPI PUSH1 0x0 DUP1 REVERT JUMPDEST POP PUSH1 0x40 MLOAD PUSH1 0x12 DUP2 MSTORE PUSH1 0x20 ADD PUSH2 0x314 JUMP JUMPDEST CALLVALUE DUP1 ISZERO PUSH2 0x495 JUMPI PUSH1 0x0 DUP1 REVERT JUMPDEST POP PUSH2 0x2ED PUSH2 0x4A4 CALLDATASIZE PUSH1 0x4 PUSH2 0x2AD9 JUMP JUMPDEST PUSH2 0xD41 JUMP JUMPDEST CALLVALUE DUP1 ISZERO PUSH2 0x4B5 JUMPI PUSH1 0x0 DUP1 REVERT JUMPDEST POP PUSH2 0x2ED PUSH2 0x4C4 CALLDATASIZE PUSH1 0x4 PUSH2 0x2B45 JUMP JUMPDEST PUSH2 0xDA4 JUMP JUMPDEST CALLVALUE DUP1 ISZERO PUSH2 0x4D5 JUMPI PUSH1 0x0 DUP1 REVERT JUMPDEST POP PUSH2 0x2ED PUSH2 0x4E4 CALLDATASIZE PUSH1 0x4 PUSH2 0x2B62 JUMP JUMPDEST PUSH2 0xED2 JUMP JUMPDEST CALLVALUE DUP1 ISZERO PUSH2 0x4F5 JUMPI PUSH1 0x0 DUP1 REVERT JUMPDEST POP PUSH2 0x30A PUSH1 0xF SLOAD DUP2 JUMP JUMPDEST CALLVALUE DUP1 ISZERO PUSH2 0x50B JUMPI PUSH1 0x0 DUP1 REVERT JUMPDEST POP PUSH1 0xA SLOAD PUSH2 0x51F SWAP1 PUSH1 0x1 PUSH1 0x1 PUSH1 0xA0 SHL SUB AND DUP2 JUMP JUMPDEST PUSH1 0x40 MLOAD PUSH1 0x1 PUSH1 0x1 PUSH1 0xA0 SHL SUB SWAP1 SWAP2 AND DUP2 MSTORE PUSH1 0x20 ADD PUSH2 0x314 JUMP JUMPDEST PUSH2 0x2ED PUSH2 0x545 CALLDATASIZE PUSH1 0x4 PUSH2 0x2B91 JUMP JUMPDEST PUSH2 0xEDF JUMP JUMPDEST CALLVALUE DUP1 ISZERO PUSH2 0x556 JUMPI PUSH1 0x0 DUP1 REVERT JUMPDEST POP PUSH2 0x30A PUSH2 0xEFA JUMP JUMPDEST CALLVALUE DUP1 ISZERO PUSH2 0x56B JUMPI PUSH1 0x0 DUP1 REVERT JUMPDEST POP PUSH1 0x7 SLOAD PUSH2 0x51F SWAP1 PUSH1 0x1 PUSH1 0x1 PUSH1 0xA0 SHL SUB AND DUP2 JUMP JUMPDEST CALLVALUE DUP1 ISZERO PUSH2 0x58B JUMPI PUSH1 0x0 DUP1 REVERT JUMPDEST POP PUSH1 0x9 SLOAD PUSH2 0x51F SWAP1 PUSH1 0x1 PUSH1 0x1 PUSH1 0xA0 SHL SUB AND DUP2 JUMP JUMPDEST CALLVALUE DUP1 ISZERO PUSH2 0x5AB JUMPI PUSH1 0x0 DUP1 REVERT JUMPDEST POP PUSH2 0x30A PUSH2 0x5BA CALLDATASIZE PUSH1 0x4 PUSH2 0x2B45 JUMP JUMPDEST PUSH1 0x1 PUSH1 0x1 PUSH1 0xA0 SHL SUB AND PUSH1 0x0 SWAP1 DUP2 MSTORE PUSH1 0x0 DUP1 MLOAD PUSH1 0x20 PUSH2 0x301A DUP4 CODECOPY DUP2 MLOAD SWAP2 MSTORE PUSH1 0x20 MSTORE PUSH1 0x40 SWAP1 KECCAK256 SLOAD SWAP1 JUMP JUMPDEST CALLVALUE DUP1 ISZERO PUSH2 0x5EE JUMPI PUSH1 0x0 DUP1 REVERT JUMPDEST POP PUSH2 0x5F7 PUSH2 0xF29 JUMP JUMPDEST PUSH1 0x40 MLOAD PUSH2 0x314 SWAP2 SWAP1 PUSH2 0x2C55 JUMP JUMPDEST CALLVALUE DUP1 ISZERO PUSH2 0x610 JUMPI PUSH1 0x0 DUP1 REVERT JUMPDEST POP PUSH2 0x2ED PUSH2 0xF8B JUMP JUMPDEST CALLVALUE DUP1 ISZERO PUSH2 0x625 JUMPI PUSH1 0x0 DUP1 REVERT JUMPDEST POP PUSH2 0x30A PUSH2 0x634 CALLDATASIZE PUSH1 0x4 PUSH2 0x2B45 JUMP JUMPDEST PUSH1 0x12 PUSH1 0x20 MSTORE PUSH1 0x0 SWAP1 DUP2 MSTORE PUSH1 0x40 SWAP1 KECCAK256 SLOAD DUP2 JUMP JUMPDEST CALLVALUE DUP1 ISZERO PUSH2 0x652 JUMPI PUSH1 0x0 DUP1 REVERT JUMPDEST POP PUSH2 0x30A PUSH2 0x661 CALLDATASIZE PUSH1 0x4 PUSH2 0x2B45 JUMP JUMPDEST PUSH1 0x1 PUSH1 0x1 PUSH1 0xA0 SHL SUB AND PUSH1 0x0 SWAP1 DUP2 MSTORE PUSH1 0x13 PUSH1 0x20 MSTORE PUSH1 0x40 SWAP1 KECCAK256 SLOAD SWAP1 JUMP JUMPDEST CALLVALUE DUP1 ISZERO PUSH2 0x688 JUMPI PUSH1 0x0 DUP1 REVERT JUMPDEST POP PUSH2 0x30A PUSH1 0x3 SLOAD DUP2 JUMP JUMPDEST CALLVALUE DUP1 ISZERO PUSH2 0x69E JUMPI PUSH1 0x0 DUP1 REVERT JUMPDEST POP PUSH2 0x2ED PUSH2 0xF9F JUMP JUMPDEST CALLVALUE DUP1 ISZERO PUSH2 0x6B3 JUMPI PUSH1 0x0 DUP1 REVERT JUMPDEST POP PUSH32 0x9016D09D72D40FDAE2FD8CEAC6B6234C7706214FD39C1CD1E609A0528C199300 SLOAD PUSH1 0x1 PUSH1 0x1 PUSH1 0xA0 SHL SUB AND PUSH2 0x51F JUMP JUMPDEST CALLVALUE DUP1 ISZERO PUSH2 0x6F0 JUMPI PUSH1 0x0 DUP1 REVERT JUMPDEST POP PUSH1 0x8 SLOAD PUSH2 0x51F SWAP1 PUSH1 0x1 PUSH1 0x1 PUSH1 0xA0 SHL SUB AND DUP2 JUMP JUMPDEST CALLVALUE DUP1 ISZERO PUSH2 0x710 JUMPI PUSH1 0x0 DUP1 REVERT JUMPDEST POP PUSH2 0x348 PUSH2 0x1284 JUMP JUMPDEST CALLVALUE DUP1 ISZERO PUSH2 0x725 JUMPI PUSH1 0x0 DUP1 REVERT JUMPDEST POP PUSH2 0x2ED PUSH2 0x734 CALLDATASIZE PUSH1 0x4 PUSH2 0x2B45 JUMP JUMPDEST PUSH2 0x12C3 JUMP JUMPDEST CALLVALUE DUP1 ISZERO PUSH2 0x745 JUMPI PUSH1 0x0 DUP1 REVERT JUMPDEST POP PUSH2 0x3B7 PUSH2 0x754 CALLDATASIZE PUSH1 0x4 PUSH2 0x29E2 JUMP JUMPDEST PUSH2 0x12ED JUMP JUMPDEST CALLVALUE DUP1 ISZERO PUSH2 0x765 JUMPI PUSH1 0x0 DUP1 REVERT JUMPDEST POP PUSH2 0x348 PUSH1 0x40 MLOAD DUP1 PUSH1 0x40 ADD PUSH1 0x40 MSTORE DUP1 PUSH1 0x5 DUP2 MSTORE PUSH1 0x20 ADD PUSH32 0x352E302E30000000000000000000000000000000000000000000000000000000 DUP2 MSTORE POP DUP2 JUMP JUMPDEST CALLVALUE DUP1 ISZERO PUSH2 0x7AE JUMPI PUSH1 0x0 DUP1 REVERT JUMPDEST POP PUSH2 0x30A PUSH2 0x7BD CALLDATASIZE PUSH1 0x4 PUSH2 0x2B45 JUMP JUMPDEST PUSH1 0xC PUSH1 0x20 MSTORE PUSH1 0x0 SWAP1 DUP2 MSTORE PUSH1 0x40 SWAP1 KECCAK256 SLOAD DUP2 JUMP JUMPDEST CALLVALUE DUP1 ISZERO PUSH2 0x7DB JUMPI PUSH1 0x0 DUP1 REVERT JUMPDEST POP PUSH2 0x30A PUSH1 0x4 SLOAD DUP2 JUMP JUMPDEST CALLVALUE DUP1 ISZERO PUSH2 0x7F1 JUMPI PUSH1 0x0 DUP1 REVERT JUMPDEST POP PUSH2 0x2ED PUSH2 0x800 CALLDATASIZE PUSH1 0x4 PUSH2 0x2B45 JUMP JUMPDEST PUSH2 0x1660 JUMP JUMPDEST CALLVALUE DUP1 ISZERO PUSH2 0x811 JUMPI PUSH1 0x0 DUP1 REVERT JUMPDEST POP PUSH2 0x51F PUSH2 0x820 CALLDATASIZE PUSH1 0x4 PUSH2 0x2B62 JUMP JUMPDEST PUSH2 0x178D JUMP JUMPDEST CALLVALUE DUP1 ISZERO PUSH2 0x831 JUMPI PUSH1 0x0 DUP1 REVERT JUMPDEST POP PUSH2 0x51F PUSH2 0x840 CALLDATASIZE PUSH1 0x4 PUSH2 0x2B45 JUMP JUMPDEST PUSH1 0x11 PUSH1 0x20 MSTORE PUSH1 0x0 SWAP1 DUP2 MSTORE PUSH1 0x40 SWAP1 KECCAK256 SLOAD PUSH1 0x1 PUSH1 0x1 PUSH1 0xA0 SHL SUB AND DUP2 JUMP JUMPDEST CALLVALUE DUP1 ISZERO PUSH2 0x867 JUMPI PUSH1 0x0 DUP1 REVERT JUMPDEST POP PUSH2 0x30A PUSH2 0x876 CALLDATASIZE PUSH1 0x4 PUSH2 0x2B45 JUMP JUMPDEST PUSH1 0x13 PUSH1 0x20 MSTORE PUSH1 0x0 SWAP1 DUP2 MSTORE PUSH1 0x40 SWAP1 KECCAK256 SLOAD DUP2 JUMP JUMPDEST CALLVALUE DUP1 ISZERO PUSH2 0x894 JUMPI PUSH1 0x0 DUP1 REVERT JUMPDEST POP PUSH2 0x30A PUSH1 0xE SLOAD DUP2 JUMP JUMPDEST CALLVALUE DUP1 ISZERO PUSH2 0x8AA JUMPI PUSH1 0x0 DUP1 REVERT JUMPDEST POP PUSH2 0x30A PUSH2 0x8B9 CALLDATASIZE PUSH1 0x4 PUSH2 0x2CA2 JUMP JUMPDEST PUSH1 0x1 PUSH1 0x1 PUSH1 0xA0 SHL SUB SWAP2 DUP3 AND PUSH1 0x0 SWAP1 DUP2 MSTORE PUSH32 0x52C63247E1F47DB19D5CE0460030C497F067CA4CEBF71BA98EEADABE20BACE01 PUSH1 0x20 SWAP1 DUP2 MSTORE PUSH1 0x40 DUP1 DUP4 KECCAK256 SWAP4 SWAP1 SWAP5 AND DUP3 MSTORE SWAP2 SWAP1 SWAP2 MSTORE KECCAK256 SLOAD SWAP1 JUMP JUMPDEST CALLVALUE DUP1 ISZERO PUSH2 0x90F JUMPI PUSH1 0x0 DUP1 REVERT JUMPDEST POP PUSH2 0x51F PUSH2 0x91E CALLDATASIZE PUSH1 0x4 PUSH2 0x2B62 JUMP JUMPDEST PUSH2 0x17B7 JUMP JUMPDEST CALLVALUE DUP1 ISZERO PUSH2 0x92F JUMPI PUSH1 0x0 DUP1 REVERT JUMPDEST POP PUSH2 0x30A PUSH1 0x14 SLOAD DUP2 JUMP JUMPDEST CALLVALUE DUP1 ISZERO PUSH2 0x945 JUMPI PUSH1 0x0 DUP1 REVERT JUMPDEST POP PUSH2 0x2ED PUSH2 0x954 CALLDATASIZE PUSH1 0x4 PUSH2 0x2B45 JUMP JUMPDEST PUSH2 0x17C7 JUMP JUMPDEST CALLER PUSH1 0x0 SWAP1 DUP2 MSTORE PUSH1 0x17 PUSH1 0x20 MSTORE PUSH1 0x40 SWAP1 KECCAK256 SLOAD NUMBER PUSH4 0xFFFFFFFF SWAP1 SWAP2 AND SUB PUSH2 0x9EA JUMPI PUSH1 0x40 MLOAD PUSH3 0x461BCD PUSH1 0xE5 SHL DUP2 MSTORE PUSH1 0x20 PUSH1 0x4 DUP3 ADD MSTORE PUSH1 0x31 PUSH1 0x24 DUP3 ADD MSTORE PUSH32 0x596F752063616E2774206D616B652074776F207472616E73616374696F6E7320 PUSH1 0x44 DUP3 ADD MSTORE PUSH32 0x696E207468652073616D6520626C6F636B000000000000000000000000000000 PUSH1 0x64 DUP3 ADD MSTORE PUSH1 0x84 ADD JUMPDEST PUSH1 0x40 MLOAD DUP1 SWAP2 SUB SWAP1 REVERT JUMPDEST PUSH1 0x16 SLOAD TIMESTAMP GT PUSH2 0xA3B JUMPI PUSH1 0x40 MLOAD PUSH3 0x461BCD PUSH1 0xE5 SHL DUP2 MSTORE PUSH1 0x20 PUSH1 0x4 DUP3 ADD MSTORE PUSH1 0xA PUSH1 0x24 DUP3 ADD MSTORE PUSH32 0x6E6F74206F70656E656400000000000000000000000000000000000000000000 PUSH1 0x44 DUP3 ADD MSTORE PUSH1 0x64 ADD PUSH2 0x9E1 JUMP JUMPDEST CALLER PUSH1 0x0 SWAP1 DUP2 MSTORE PUSH1 0x17 PUSH1 0x20 MSTORE PUSH1 0x40 DUP2 KECCAK256 DUP1 SLOAD PUSH4 0xFFFFFFFF NOT AND NUMBER PUSH4 0xFFFFFFFF AND OR SWAP1 SSTORE PUSH1 0x1 SLOAD CALLVALUE SWAP2 SWAP1 PUSH2 0xA6E SWAP1 DUP4 SWAP1 PUSH2 0x2CE6 JUMP JUMPDEST ADDRESS PUSH1 0x0 SWAP1 DUP2 MSTORE PUSH1 0x0 DUP1 MLOAD PUSH1 0x20 PUSH2 0x301A DUP4 CODECOPY DUP2 MLOAD SWAP2 MSTORE PUSH1 0x20 MSTORE PUSH1 0x40 SWAP1 KECCAK256 SLOAD PUSH2 0xA95 SWAP1 DUP5 PUSH2 0x2CF9 JUMP JUMPDEST PUSH2 0xA9F SWAP2 SWAP1 PUSH2 0x2D10 JUMP JUMPDEST SWAP1 POP PUSH1 0x2 SLOAD DUP2 GT ISZERO PUSH2 0xAF3 JUMPI PUSH1 0x40 MLOAD PUSH3 0x461BCD PUSH1 0xE5 SHL DUP2 MSTORE PUSH1 0x20 PUSH1 0x4 DUP3 ADD MSTORE PUSH1 0xD PUSH1 0x24 DUP3 ADD MSTORE PUSH32 0x4D6178204C696D69742042757900000000000000000000000000000000000000 PUSH1 0x44 DUP3 ADD MSTORE PUSH1 0x64 ADD PUSH2 0x9E1 JUMP JUMPDEST PUSH2 0xB14 ADDRESS CALLER PUSH1 0x64 PUSH2 0xB05 DUP6 PUSH1 0x5F PUSH2 0x2CF9 JUMP JUMPDEST PUSH2 0xB0F SWAP2 SWAP1 PUSH2 0x2D10 JUMP JUMPDEST PUSH2 0x181E JUMP JUMPDEST PUSH2 0x3E8 PUSH2 0xB23 DUP4 PUSH2 0x3D9 PUSH2 0x2CF9 JUMP JUMPDEST PUSH2 0xB2D SWAP2 SWAP1 PUSH2 0x2D10 JUMP JUMPDEST PUSH1 0x1 PUSH1 0x0 DUP3 DUP3 SLOAD PUSH2 0xB3E SWAP2 SWAP1 PUSH2 0x2CE6 JUMP JUMPDEST SWAP1 SWAP2 SSTORE POP PUSH2 0xB4D SWAP1 POP CALLVALUE PUSH2 0x1975 JUMP JUMPDEST PUSH2 0xB56 DUP2 PUSH2 0x19C4 JUMP JUMPDEST PUSH2 0xB60 CALLER DUP3 PUSH2 0x1B20 JUMP JUMPDEST PUSH2 0xB69 DUP2 PUSH2 0x1B66 JUMP JUMPDEST PUSH2 0xB72 CALLER PUSH2 0xDA4 JUMP JUMPDEST PUSH2 0xB7B DUP2 PUSH2 0x1BB5 JUMP JUMPDEST PUSH1 0x40 DUP1 MLOAD CALLVALUE DUP2 MSTORE PUSH1 0x0 PUSH1 0x20 DUP3 ADD DUP2 SWAP1 MSTORE SWAP2 DUP2 ADD SWAP2 SWAP1 SWAP2 MSTORE PUSH1 0x60 DUP2 ADD DUP3 SWAP1 MSTORE CALLER SWAP1 PUSH32 0x49926BBEBE8474393F434DFA4F78694C0923EFA07D19F2284518BFABD06EB737 SWAP1 PUSH1 0x80 ADD JUMPDEST PUSH1 0x40 MLOAD DUP1 SWAP2 SUB SWAP1 LOG2 POP POP JUMP JUMPDEST PUSH32 0x52C63247E1F47DB19D5CE0460030C497F067CA4CEBF71BA98EEADABE20BACE03 DUP1 SLOAD PUSH1 0x60 SWAP2 PUSH1 0x0 DUP1 MLOAD PUSH1 0x20 PUSH2 0x301A DUP4 CODECOPY DUP2 MLOAD SWAP2 MSTORE SWAP2 PUSH2 0xC0C SWAP1 PUSH2 0x2D32 JUMP JUMPDEST DUP1 PUSH1 0x1F ADD PUSH1 0x20 DUP1 SWAP2 DIV MUL PUSH1 0x20 ADD PUSH1 0x40 MLOAD SWAP1 DUP2 ADD PUSH1 0x40 MSTORE DUP1 SWAP3 SWAP2 SWAP1 DUP2 DUP2 MSTORE PUSH1 0x20 ADD DUP3 DUP1 SLOAD PUSH2 0xC38 SWAP1 PUSH2 0x2D32 JUMP JUMPDEST DUP1 ISZERO PUSH2 0xC85 JUMPI DUP1 PUSH1 0x1F LT PUSH2 0xC5A JUMPI PUSH2 0x100 DUP1 DUP4 SLOAD DIV MUL DUP4 MSTORE SWAP2 PUSH1 0x20 ADD SWAP2 PUSH2 0xC85 JUMP JUMPDEST DUP3 ADD SWAP2 SWAP1 PUSH1 0x0 MSTORE PUSH1 0x20 PUSH1 0x0 KECCAK256 SWAP1 JUMPDEST DUP2 SLOAD DUP2 MSTORE SWAP1 PUSH1 0x1 ADD SWAP1 PUSH1 0x20 ADD DUP1 DUP4 GT PUSH2 0xC68 JUMPI DUP3 SWAP1 SUB PUSH1 0x1F AND DUP3 ADD SWAP2 JUMPDEST POP POP POP POP POP SWAP2 POP POP SWAP1 JUMP JUMPDEST PUSH1 0x0 CALLER PUSH2 0xC9E DUP2 DUP6 DUP6 PUSH2 0x1C37 JUMP JUMPDEST PUSH1 0x1 SWAP2 POP POP JUMPDEST SWAP3 SWAP2 POP POP JUMP JUMPDEST PUSH1 0x0 DUP1 PUSH1 0x0 PUSH2 0xCD6 PUSH1 0x1 SLOAD ADDRESS PUSH1 0x0 SWAP1 DUP2 MSTORE PUSH1 0x0 DUP1 MLOAD PUSH1 0x20 PUSH2 0x301A DUP4 CODECOPY DUP2 MLOAD SWAP2 MSTORE PUSH1 0x20 MSTORE PUSH1 0x40 SWAP1 KECCAK256 SLOAD SWAP1 SWAP2 JUMP JUMPDEST SWAP2 POP SWAP2 POP DUP4 ISZERO PUSH2 0xD07 JUMPI PUSH2 0xCEA DUP6 DUP4 PUSH2 0x2CE6 JUMP JUMPDEST PUSH2 0xCF4 DUP3 DUP8 PUSH2 0x2CF9 JUMP JUMPDEST PUSH2 0xCFE SWAP2 SWAP1 PUSH2 0x2D10 JUMP JUMPDEST SWAP3 POP POP POP PUSH2 0xCA4 JUMP JUMPDEST PUSH2 0xD11 DUP6 DUP3 PUSH2 0x2CE6 JUMP JUMPDEST PUSH2 0xCF4 DUP4 DUP8 PUSH2 0x2CF9 JUMP JUMPDEST PUSH1 0x0 CALLER PUSH2 0xD29 DUP6 DUP3 DUP6 PUSH2 0x1C44 JUMP JUMPDEST PUSH2 0xD34 DUP6 DUP6 DUP6 PUSH2 0x1CF4 JUMP JUMPDEST PUSH1 0x1 SWAP2 POP POP JUMPDEST SWAP4 SWAP3 POP POP POP JUMP JUMPDEST PUSH1 0x0 JUMPDEST DUP4 DUP2 LT ISZERO PUSH2 0xD9D JUMPI PUSH2 0xD95 CALLER DUP7 DUP7 DUP5 DUP2 DUP2 LT PUSH2 0xD62 JUMPI PUSH2 0xD62 PUSH2 0x2D6C JUMP JUMPDEST SWAP1 POP PUSH1 0x20 MUL ADD PUSH1 0x20 DUP2 ADD SWAP1 PUSH2 0xD77 SWAP2 SWAP1 PUSH2 0x2B45 JUMP JUMPDEST DUP6 DUP6 DUP6 DUP2 DUP2 LT PUSH2 0xD89 JUMPI PUSH2 0xD89 PUSH2 0x2D6C JUMP JUMPDEST SWAP1 POP PUSH1 0x20 MUL ADD CALLDATALOAD PUSH2 0x181E JUMP JUMPDEST PUSH1 0x1 ADD PUSH2 0xD44 JUMP JUMPDEST POP POP POP POP POP JUMP JUMPDEST PUSH1 0x9 SLOAD PUSH1 0x1 PUSH1 0x1 PUSH1 0xA0 SHL SUB DUP3 DUP2 AND SWAP2 AND EQ DUP1 PUSH2 0xDC8 JUMPI POP PUSH1 0x1 PUSH1 0x1 PUSH1 0xA0 SHL SUB DUP2 AND ADDRESS EQ JUMPDEST ISZERO PUSH2 0xDD0 JUMPI POP JUMP JUMPDEST PUSH1 0x1 PUSH1 0x1 PUSH1 0xA0 SHL SUB DUP2 AND PUSH1 0x0 SWAP1 DUP2 MSTORE PUSH1 0xC PUSH1 0x20 MSTORE PUSH1 0x40 SWAP1 KECCAK256 SLOAD DUP1 ISZERO DUP1 ISZERO SWAP1 PUSH2 0xE1E JUMPI POP PUSH1 0xF SLOAD PUSH1 0x1 PUSH1 0x1 PUSH1 0xA0 SHL SUB DUP4 AND PUSH1 0x0 SWAP1 DUP2 MSTORE PUSH1 0x0 DUP1 MLOAD PUSH1 0x20 PUSH2 0x301A DUP4 CODECOPY DUP2 MLOAD SWAP2 MSTORE PUSH1 0x20 MSTORE PUSH1 0x40 SWAP1 KECCAK256 SLOAD LT JUMPDEST ISZERO PUSH2 0xE3B JUMPI PUSH2 0xE37 PUSH2 0xE31 PUSH1 0x1 DUP4 PUSH2 0x2D82 JUMP JUMPDEST DUP4 PUSH2 0x1D6C JUMP JUMPDEST POP POP JUMP JUMPDEST DUP1 ISZERO DUP1 ISZERO PUSH2 0xE70 JUMPI POP PUSH1 0xF SLOAD PUSH1 0x1 PUSH1 0x1 PUSH1 0xA0 SHL SUB DUP4 AND PUSH1 0x0 SWAP1 DUP2 MSTORE PUSH1 0x0 DUP1 MLOAD PUSH1 0x20 PUSH2 0x301A DUP4 CODECOPY DUP2 MLOAD SWAP2 MSTORE PUSH1 0x20 MSTORE PUSH1 0x40 SWAP1 KECCAK256 SLOAD LT ISZERO JUMPDEST ISZERO PUSH2 0xE37 JUMPI POP PUSH1 0xB DUP1 SLOAD PUSH1 0x1 DUP2 ADD DUP3 SSTORE PUSH32 0x175B7A638427703F0DBE7BB9BBF987A2551717B34E79F33B5B1008D1FA01DB9 ADD DUP1 SLOAD PUSH1 0x1 PUSH1 0x1 PUSH1 0xA0 SHL SUB SWAP1 SWAP4 AND PUSH1 0x1 PUSH1 0x1 PUSH1 0xA0 SHL SUB NOT SWAP1 SWAP4 AND DUP4 OR SWAP1 SSTORE SLOAD PUSH1 0x0 SWAP2 DUP3 MSTORE PUSH1 0xC PUSH1 0x20 MSTORE PUSH1 0x40 SWAP1 SWAP2 KECCAK256 SSTORE JUMP JUMPDEST PUSH2 0xEDA PUSH2 0x1E38 JUMP JUMPDEST PUSH1 0x16 SSTORE JUMP JUMPDEST PUSH2 0xEE7 PUSH2 0x1EAC JUMP JUMPDEST PUSH2 0xEF0 DUP3 PUSH2 0x1F63 JUMP JUMPDEST PUSH2 0xE37 DUP3 DUP3 PUSH2 0x1F6B JUMP JUMPDEST PUSH1 0x0 PUSH2 0xF04 PUSH2 0x2053 JUMP JUMPDEST POP PUSH32 0x360894A13BA1A3210667C828492DB98DCA3E2076CC3735A920A3CA505D382BBC SWAP1 JUMP JUMPDEST PUSH1 0x60 PUSH1 0xB DUP1 SLOAD DUP1 PUSH1 0x20 MUL PUSH1 0x20 ADD PUSH1 0x40 MLOAD SWAP1 DUP2 ADD PUSH1 0x40 MSTORE DUP1 SWAP3 SWAP2 SWAP1 DUP2 DUP2 MSTORE PUSH1 0x20 ADD DUP3 DUP1 SLOAD DUP1 ISZERO PUSH2 0xF81 JUMPI PUSH1 0x20 MUL DUP3 ADD SWAP2 SWAP1 PUSH1 0x0 MSTORE PUSH1 0x20 PUSH1 0x0 KECCAK256 SWAP1 JUMPDEST DUP2 SLOAD PUSH1 0x1 PUSH1 0x1 PUSH1 0xA0 SHL SUB AND DUP2 MSTORE PUSH1 0x1 SWAP1 SWAP2 ADD SWAP1 PUSH1 0x20 ADD DUP1 DUP4 GT PUSH2 0xF63 JUMPI JUMPDEST POP POP POP POP POP SWAP1 POP SWAP1 JUMP JUMPDEST PUSH2 0xF93 PUSH2 0x1E38 JUMP JUMPDEST PUSH2 0xF9D PUSH1 0x0 PUSH2 0x209C JUMP JUMPDEST JUMP JUMPDEST PUSH32 0xF0C57E16840DF040F15088DC2F81FE391C3923BEC73E23A9662EFC9C229C6A00 DUP1 SLOAD PUSH9 0x10000000000000000 DUP2 DIV PUSH1 0xFF AND ISZERO SWAP1 PUSH8 0xFFFFFFFFFFFFFFFF AND PUSH1 0x0 DUP2 ISZERO DUP1 ISZERO PUSH2 0xFEA JUMPI POP DUP3 JUMPDEST SWAP1 POP PUSH1 0x0 DUP3 PUSH8 0xFFFFFFFFFFFFFFFF AND PUSH1 0x1 EQ DUP1 ISZERO PUSH2 0x1007 JUMPI POP ADDRESS EXTCODESIZE ISZERO JUMPDEST SWAP1 POP DUP2 ISZERO DUP1 ISZERO PUSH2 0x1015 JUMPI POP DUP1 ISZERO JUMPDEST ISZERO PUSH2 0x104C JUMPI PUSH1 0x40 MLOAD PUSH32 0xF92EE8A900000000000000000000000000000000000000000000000000000000 DUP2 MSTORE PUSH1 0x4 ADD PUSH1 0x40 MLOAD DUP1 SWAP2 SUB SWAP1 REVERT JUMPDEST DUP5 SLOAD PUSH8 0xFFFFFFFFFFFFFFFF NOT AND PUSH1 0x1 OR DUP6 SSTORE DUP4 ISZERO PUSH2 0x1080 JUMPI DUP5 SLOAD PUSH9 0xFF0000000000000000 NOT AND PUSH9 0x10000000000000000 OR DUP6 SSTORE JUMPDEST PUSH2 0x10C0 PUSH1 0x40 MLOAD DUP1 PUSH1 0x40 ADD PUSH1 0x40 MSTORE DUP1 PUSH1 0x3 DUP2 MSTORE PUSH1 0x20 ADD PUSH3 0x212A19 PUSH1 0xE9 SHL DUP2 MSTORE POP PUSH1 0x40 MLOAD DUP1 PUSH1 0x40 ADD PUSH1 0x40 MSTORE DUP1 PUSH1 0x3 DUP2 MSTORE PUSH1 0x20 ADD PUSH3 0x212A19 PUSH1 0xE9 SHL DUP2 MSTORE POP PUSH2 0x210D JUMP JUMPDEST PUSH2 0x10CC PUSH1 0x12 PUSH1 0xA PUSH2 0x2E79 JUMP JUMPDEST PUSH2 0x10DA SWAP1 PUSH4 0x3B023380 PUSH2 0x2CF9 JUMP JUMPDEST PUSH1 0x0 SSTORE PUSH2 0x10E9 PUSH1 0x12 PUSH1 0xA PUSH2 0x2E79 JUMP JUMPDEST PUSH2 0x10F5 SWAP1 PUSH2 0x4B0 PUSH2 0x2CF9 JUMP JUMPDEST PUSH1 0x1 SSTORE PUSH2 0x1104 PUSH1 0x12 PUSH1 0xA PUSH2 0x2E79 JUMP JUMPDEST PUSH2 0x1111 SWAP1 PUSH3 0x989680 PUSH2 0x2CF9 JUMP JUMPDEST PUSH1 0x4 SSTORE PUSH2 0x1120 PUSH1 0x12 PUSH1 0xA PUSH2 0x2E79 JUMP JUMPDEST PUSH2 0x112D SWAP1 PUSH3 0x7A120 PUSH2 0x2CF9 JUMP JUMPDEST PUSH1 0xF SSTORE PUSH2 0x113C PUSH1 0x12 PUSH1 0xA PUSH2 0x2E79 JUMP JUMPDEST PUSH2 0x1148 SWAP1 PUSH2 0xC350 PUSH2 0x2CF9 JUMP JUMPDEST PUSH1 0x3 SSTORE PUSH2 0x1157 PUSH1 0x12 PUSH1 0xA PUSH2 0x2E79 JUMP JUMPDEST PUSH2 0x1164 SWAP1 PUSH3 0x30D40 PUSH2 0x2CF9 JUMP JUMPDEST PUSH1 0x2 SSTORE PUSH1 0x9 DUP1 SLOAD PUSH1 0x1 PUSH1 0x1 PUSH1 0xA0 SHL SUB NOT SWAP1 DUP2 AND PUSH20 0x98A8790028C6476B740BE640627A62496E5D616B OR SWAP1 SWAP2 SSTORE PUSH1 0x8 DUP1 SLOAD DUP3 AND PUSH20 0x7A6CA6A66B7CA223ECD10EF837895F7A32E902D4 OR SWAP1 SSTORE PUSH1 0xA DUP1 SLOAD SWAP1 SWAP2 AND PUSH20 0xBEDDDAE2062F0B573EC72562F88DA141A67B70B2 OR SWAP1 SSTORE PUSH2 0x11D6 CALLER PUSH2 0x211F JUMP JUMPDEST PUSH2 0x11DE PUSH2 0x2130 JUMP JUMPDEST PUSH2 0x1201 ADDRESS PUSH2 0x11EE PUSH1 0x12 PUSH1 0xA PUSH2 0x2E79 JUMP JUMPDEST PUSH2 0x11FC SWAP1 PUSH4 0x1A39DE00 PUSH2 0x2CF9 JUMP JUMPDEST PUSH2 0x2138 JUMP JUMPDEST PUSH1 0x9 SLOAD PUSH2 0x122B SWAP1 PUSH1 0x1 PUSH1 0x1 PUSH1 0xA0 SHL SUB AND PUSH2 0x121D PUSH1 0x12 PUSH1 0xA PUSH2 0x2E79 JUMP JUMPDEST PUSH2 0x11FC SWAP1 PUSH4 0x20C85580 PUSH2 0x2CF9 JUMP JUMPDEST PUSH4 0x66499560 PUSH1 0x16 SSTORE DUP4 ISZERO PUSH2 0xD9D JUMPI DUP5 SLOAD PUSH9 0xFF0000000000000000 NOT AND DUP6 SSTORE PUSH1 0x40 MLOAD PUSH1 0x1 DUP2 MSTORE PUSH32 0xC7F505B2F371AE2175EE4913F4499E1F2633A7B5936321EED1CDAEB6115181D2 SWAP1 PUSH1 0x20 ADD PUSH1 0x40 MLOAD DUP1 SWAP2 SUB SWAP1 LOG1 POP POP POP POP POP JUMP JUMPDEST PUSH32 0x52C63247E1F47DB19D5CE0460030C497F067CA4CEBF71BA98EEADABE20BACE04 DUP1 SLOAD PUSH1 0x60 SWAP2 PUSH1 0x0 DUP1 MLOAD PUSH1 0x20 PUSH2 0x301A DUP4 CODECOPY DUP2 MLOAD SWAP2 MSTORE SWAP2 PUSH2 0xC0C SWAP1 PUSH2 0x2D32 JUMP JUMPDEST PUSH2 0x12CB PUSH2 0x1E38 JUMP JUMPDEST PUSH1 0x15 DUP1 SLOAD PUSH1 0x1 PUSH1 0x1 PUSH1 0xA0 SHL SUB NOT AND PUSH1 0x1 PUSH1 0x1 PUSH1 0xA0 SHL SUB SWAP3 SWAP1 SWAP3 AND SWAP2 SWAP1 SWAP2 OR SWAP1 SSTORE JUMP JUMPDEST PUSH1 0x0 CALLER ADDRESS PUSH1 0x1 PUSH1 0x1 PUSH1 0xA0 SHL SUB DUP6 AND SUB PUSH2 0x130E JUMPI PUSH2 0x1309 DUP4 PUSH2 0x216E JUMP JUMPDEST PUSH2 0x1657 JUMP JUMPDEST PUSH1 0x15 SLOAD PUSH1 0x1 PUSH1 0x1 PUSH1 0xA0 SHL SUB SWAP1 DUP2 AND SWAP1 DUP6 AND SUB PUSH2 0x1563 JUMPI PUSH2 0x1330 PUSH1 0x12 PUSH1 0xA PUSH2 0x2E79 JUMP JUMPDEST PUSH2 0x133C SWAP1 PUSH2 0x7530 PUSH2 0x2CF9 JUMP JUMPDEST DUP4 EQ DUP1 PUSH2 0x1360 JUMPI POP PUSH2 0x1350 PUSH1 0x12 PUSH1 0xA PUSH2 0x2E79 JUMP JUMPDEST PUSH2 0x135D SWAP1 PUSH3 0x186A0 PUSH2 0x2CF9 JUMP JUMPDEST DUP4 EQ JUMPDEST DUP1 PUSH2 0x1382 JUMPI POP PUSH2 0x1372 PUSH1 0x12 PUSH1 0xA PUSH2 0x2E79 JUMP JUMPDEST PUSH2 0x137F SWAP1 PUSH3 0x493E0 PUSH2 0x2CF9 JUMP JUMPDEST DUP4 EQ JUMPDEST DUP1 PUSH2 0x13A4 JUMPI POP PUSH2 0x1394 PUSH1 0x12 PUSH1 0xA PUSH2 0x2E79 JUMP JUMPDEST PUSH2 0x13A1 SWAP1 PUSH3 0x7A120 PUSH2 0x2CF9 JUMP JUMPDEST DUP4 EQ JUMPDEST PUSH2 0x13F0 JUMPI PUSH1 0x40 MLOAD PUSH3 0x461BCD PUSH1 0xE5 SHL DUP2 MSTORE PUSH1 0x20 PUSH1 0x4 DUP3 ADD MSTORE PUSH1 0xE PUSH1 0x24 DUP3 ADD MSTORE PUSH32 0x33772F3130772F3330772F353077000000000000000000000000000000000000 PUSH1 0x44 DUP3 ADD MSTORE PUSH1 0x64 ADD PUSH2 0x9E1 JUMP JUMPDEST PUSH1 0x1 PUSH1 0x1 PUSH1 0xA0 SHL SUB DUP2 AND PUSH1 0x0 SWAP1 DUP2 MSTORE PUSH1 0x13 PUSH1 0x20 MSTORE PUSH1 0x40 SWAP1 KECCAK256 SLOAD ISZERO PUSH2 0x1456 JUMPI PUSH1 0x40 MLOAD PUSH3 0x461BCD PUSH1 0xE5 SHL DUP2 MSTORE PUSH1 0x20 PUSH1 0x4 DUP3 ADD MSTORE PUSH1 0xF PUSH1 0x24 DUP3 ADD MSTORE PUSH32 0x416C726561647920706C65646765640000000000000000000000000000000000 PUSH1 0x44 DUP3 ADD MSTORE PUSH1 0x64 ADD PUSH2 0x9E1 JUMP JUMPDEST PUSH2 0x1461 DUP2 DUP6 DUP6 PUSH2 0x1CF4 JUMP JUMPDEST PUSH1 0x1 PUSH1 0x1 PUSH1 0xA0 SHL SUB DUP1 DUP3 AND PUSH1 0x0 SWAP1 DUP2 MSTORE PUSH1 0x13 PUSH1 0x20 MSTORE PUSH1 0x40 SWAP1 KECCAK256 DUP5 SWAP1 SSTORE PUSH1 0x15 SLOAD AND PUSH4 0xA9059CBB DUP3 PUSH2 0x1493 PUSH2 0x1388 DUP8 PUSH2 0x2D10 JUMP JUMPDEST PUSH1 0x40 MLOAD PUSH32 0xFFFFFFFF00000000000000000000000000000000000000000000000000000000 PUSH1 0xE0 DUP6 SWAP1 SHL AND DUP2 MSTORE PUSH1 0x1 PUSH1 0x1 PUSH1 0xA0 SHL SUB SWAP1 SWAP3 AND PUSH1 0x4 DUP4 ADD MSTORE PUSH1 0x24 DUP3 ADD MSTORE PUSH1 0x44 ADD PUSH1 0x20 PUSH1 0x40 MLOAD DUP1 DUP4 SUB DUP2 PUSH1 0x0 DUP8 GAS CALL ISZERO DUP1 ISZERO PUSH2 0x14F6 JUMPI RETURNDATASIZE PUSH1 0x0 DUP1 RETURNDATACOPY RETURNDATASIZE PUSH1 0x0 REVERT JUMPDEST POP POP POP POP PUSH1 0x40 MLOAD RETURNDATASIZE PUSH1 0x1F NOT PUSH1 0x1F DUP3 ADD AND DUP3 ADD DUP1 PUSH1 0x40 MSTORE POP DUP2 ADD SWAP1 PUSH2 0x151A SWAP2 SWAP1 PUSH2 0x2E88 JUMP JUMPDEST POP DUP1 PUSH1 0x1 PUSH1 0x1 PUSH1 0xA0 SHL SUB AND PUSH32 0x5E91EA8EA1C46300EB761859BE01D7B16D44389EF91E03A163A87413CBF55B95 DUP5 PUSH1 0x40 MLOAD PUSH2 0x1556 SWAP2 DUP2 MSTORE PUSH1 0x20 ADD SWAP1 JUMP JUMPDEST PUSH1 0x40 MLOAD DUP1 SWAP2 SUB SWAP1 LOG2 PUSH2 0x1657 JUMP JUMPDEST PUSH1 0x0 PUSH2 0x1571 PUSH1 0x6 PUSH1 0x12 PUSH2 0x2EA5 JUMP JUMPDEST PUSH2 0x157C SWAP1 PUSH1 0xA PUSH2 0x2E79 JUMP JUMPDEST PUSH2 0x1587 SWAP1 PUSH1 0x1 PUSH2 0x2CF9 JUMP JUMPDEST SWAP1 POP PUSH2 0x15B5 DUP3 PUSH1 0x1 PUSH1 0x1 PUSH1 0xA0 SHL SUB AND PUSH1 0x0 SWAP1 DUP2 MSTORE PUSH1 0x0 DUP1 MLOAD PUSH1 0x20 PUSH2 0x301A DUP4 CODECOPY DUP2 MLOAD SWAP2 MSTORE PUSH1 0x20 MSTORE PUSH1 0x40 SWAP1 KECCAK256 SLOAD SWAP1 JUMP JUMPDEST DUP5 SUB PUSH2 0x1637 JUMPI DUP1 PUSH2 0x15E8 DUP4 PUSH1 0x1 PUSH1 0x1 PUSH1 0xA0 SHL SUB AND PUSH1 0x0 SWAP1 DUP2 MSTORE PUSH1 0x0 DUP1 MLOAD PUSH1 0x20 PUSH2 0x301A DUP4 CODECOPY DUP2 MLOAD SWAP2 MSTORE PUSH1 0x20 MSTORE PUSH1 0x40 SWAP1 KECCAK256 SLOAD SWAP1 JUMP JUMPDEST GT ISZERO PUSH2 0x162C JUMPI DUP1 PUSH2 0x161B DUP4 PUSH1 0x1 PUSH1 0x1 PUSH1 0xA0 SHL SUB AND PUSH1 0x0 SWAP1 DUP2 MSTORE PUSH1 0x0 DUP1 MLOAD PUSH1 0x20 PUSH2 0x301A DUP4 CODECOPY DUP2 MLOAD SWAP2 MSTORE PUSH1 0x20 MSTORE PUSH1 0x40 SWAP1 KECCAK256 SLOAD SWAP1 JUMP JUMPDEST PUSH2 0x1625 SWAP2 SWAP1 PUSH2 0x2D82 JUMP JUMPDEST SWAP4 POP PUSH2 0x1637 JUMP JUMPDEST PUSH1 0x1 SWAP3 POP POP POP PUSH2 0xCA4 JUMP JUMPDEST PUSH2 0x1642 DUP3 DUP7 DUP7 PUSH2 0x181E JUMP JUMPDEST PUSH2 0x164C DUP3 DUP7 PUSH2 0x2498 JUMP JUMPDEST PUSH2 0x1655 DUP6 PUSH2 0xDA4 JUMP JUMPDEST POP JUMPDEST PUSH2 0xC9E DUP2 PUSH2 0xDA4 JUMP JUMPDEST PUSH1 0x15 SLOAD PUSH1 0x1 PUSH1 0x1 PUSH1 0xA0 SHL SUB AND CALLER EQ PUSH2 0x16BA JUMPI PUSH1 0x40 MLOAD PUSH3 0x461BCD PUSH1 0xE5 SHL DUP2 MSTORE PUSH1 0x20 PUSH1 0x4 DUP3 ADD MSTORE PUSH1 0xD PUSH1 0x24 DUP3 ADD MSTORE PUSH32 0x4E6F207065726D697373696F6E00000000000000000000000000000000000000 PUSH1 0x44 DUP3 ADD MSTORE PUSH1 0x64 ADD PUSH2 0x9E1 JUMP JUMPDEST PUSH1 0x1 PUSH1 0x1 PUSH1 0xA0 SHL SUB DUP2 AND PUSH1 0x0 SWAP1 DUP2 MSTORE PUSH1 0x13 PUSH1 0x20 MSTORE PUSH1 0x40 SWAP1 KECCAK256 SLOAD DUP1 PUSH2 0x1720 JUMPI PUSH1 0x40 MLOAD PUSH3 0x461BCD PUSH1 0xE5 SHL DUP2 MSTORE PUSH1 0x20 PUSH1 0x4 DUP3 ADD MSTORE PUSH1 0x9 PUSH1 0x24 DUP3 ADD MSTORE PUSH32 0x6E6F20706C656467650000000000000000000000000000000000000000000000 PUSH1 0x44 DUP3 ADD MSTORE PUSH1 0x64 ADD PUSH2 0x9E1 JUMP JUMPDEST PUSH1 0x15 SLOAD PUSH2 0x1737 SWAP1 PUSH1 0x1 PUSH1 0x1 PUSH1 0xA0 SHL SUB AND DUP4 DUP4 PUSH2 0x1CF4 JUMP JUMPDEST PUSH2 0x1740 DUP3 PUSH2 0xDA4 JUMP JUMPDEST PUSH1 0x1 PUSH1 0x1 PUSH1 0xA0 SHL SUB DUP3 AND PUSH1 0x0 DUP2 DUP2 MSTORE PUSH1 0x13 PUSH1 0x20 MSTORE PUSH1 0x40 DUP1 DUP3 KECCAK256 SWAP2 SWAP1 SWAP2 SSTORE MLOAD PUSH32 0x7C1499DA310DB315606891CFF45C8999E67BC58B9FA507440DD5C02506D64DE0 SWAP1 PUSH2 0xBC1 SWAP1 DUP5 DUP2 MSTORE PUSH1 0x20 ADD SWAP1 JUMP JUMPDEST PUSH1 0xD DUP2 DUP2 SLOAD DUP2 LT PUSH2 0x179D JUMPI PUSH1 0x0 DUP1 REVERT JUMPDEST PUSH1 0x0 SWAP2 DUP3 MSTORE PUSH1 0x20 SWAP1 SWAP2 KECCAK256 ADD SLOAD PUSH1 0x1 PUSH1 0x1 PUSH1 0xA0 SHL SUB AND SWAP1 POP DUP2 JUMP JUMPDEST PUSH1 0xB DUP2 DUP2 SLOAD DUP2 LT PUSH2 0x179D JUMPI PUSH1 0x0 DUP1 REVERT JUMPDEST PUSH2 0x17CF PUSH2 0x1E38 JUMP JUMPDEST PUSH1 0x1 PUSH1 0x1 PUSH1 0xA0 SHL SUB DUP2 AND PUSH2 0x1812 JUMPI PUSH1 0x40 MLOAD PUSH32 0x1E4FBDF700000000000000000000000000000000000000000000000000000000 DUP2 MSTORE PUSH1 0x0 PUSH1 0x4 DUP3 ADD MSTORE PUSH1 0x24 ADD PUSH2 0x9E1 JUMP JUMPDEST PUSH2 0x181B DUP2 PUSH2 0x209C JUMP JUMPDEST POP JUMP JUMPDEST PUSH1 0x0 DUP1 MLOAD PUSH1 0x20 PUSH2 0x301A DUP4 CODECOPY DUP2 MLOAD SWAP2 MSTORE PUSH1 0x1 PUSH1 0x1 PUSH1 0xA0 SHL SUB DUP5 AND PUSH2 0x185A JUMPI DUP2 DUP2 PUSH1 0x2 ADD PUSH1 0x0 DUP3 DUP3 SLOAD PUSH2 0x184F SWAP2 SWAP1 PUSH2 0x2CE6 JUMP JUMPDEST SWAP1 SWAP2 SSTORE POP PUSH2 0x18E5 SWAP1 POP JUMP JUMPDEST PUSH1 0x1 PUSH1 0x1 PUSH1 0xA0 SHL SUB DUP5 AND PUSH1 0x0 SWAP1 DUP2 MSTORE PUSH1 0x20 DUP3 SWAP1 MSTORE PUSH1 0x40 SWAP1 KECCAK256 SLOAD DUP3 DUP2 LT ISZERO PUSH2 0x18C6 JUMPI PUSH1 0x40 MLOAD PUSH32 0xE450D38C00000000000000000000000000000000000000000000000000000000 DUP2 MSTORE PUSH1 0x1 PUSH1 0x1 PUSH1 0xA0 SHL SUB DUP7 AND PUSH1 0x4 DUP3 ADD MSTORE PUSH1 0x24 DUP2 ADD DUP3 SWAP1 MSTORE PUSH1 0x44 DUP2 ADD DUP5 SWAP1 MSTORE PUSH1 0x64 ADD PUSH2 0x9E1 JUMP JUMPDEST PUSH1 0x1 PUSH1 0x1 PUSH1 0xA0 SHL SUB DUP6 AND PUSH1 0x0 SWAP1 DUP2 MSTORE PUSH1 0x20 DUP4 SWAP1 MSTORE PUSH1 0x40 SWAP1 KECCAK256 SWAP1 DUP4 SWAP1 SUB SWAP1 SSTORE JUMPDEST PUSH1 0x1 PUSH1 0x1 PUSH1 0xA0 SHL SUB DUP4 AND PUSH2 0x1903 JUMPI PUSH1 0x2 DUP2 ADD DUP1 SLOAD DUP4 SWAP1 SUB SWAP1 SSTORE PUSH2 0x1922 JUMP JUMPDEST PUSH1 0x1 PUSH1 0x1 PUSH1 0xA0 SHL SUB DUP4 AND PUSH1 0x0 SWAP1 DUP2 MSTORE PUSH1 0x20 DUP3 SWAP1 MSTORE PUSH1 0x40 SWAP1 KECCAK256 DUP1 SLOAD DUP4 ADD SWAP1 SSTORE JUMPDEST DUP3 PUSH1 0x1 PUSH1 0x1 PUSH1 0xA0 SHL SUB AND DUP5 PUSH1 0x1 PUSH1 0x1 PUSH1 0xA0 SHL SUB AND PUSH32 0xDDF252AD1BE2C89B69C2B068FC378DAA952BA7F163C4A11628F55A4DF523B3EF DUP5 PUSH1 0x40 MLOAD PUSH2 0x1967 SWAP2 DUP2 MSTORE PUSH1 0x20 ADD SWAP1 JUMP JUMPDEST PUSH1 0x40 MLOAD DUP1 SWAP2 SUB SWAP1 LOG3 POP POP POP POP JUMP JUMPDEST PUSH1 0x8 SLOAD PUSH1 0x1 PUSH1 0x1 PUSH1 0xA0 SHL SUB AND PUSH2 0x8FC PUSH2 0x3E8 PUSH2 0x1992 DUP5 PUSH1 0xF PUSH2 0x2CF9 JUMP JUMPDEST PUSH2 0x199C SWAP2 SWAP1 PUSH2 0x2D10 JUMP JUMPDEST PUSH1 0x40 MLOAD DUP2 ISZERO SWAP1 SWAP3 MUL SWAP2 PUSH1 0x0 DUP2 DUP2 DUP2 DUP6 DUP9 DUP9 CALL SWAP4 POP POP POP POP ISZERO DUP1 ISZERO PUSH2 0xE37 JUMPI RETURNDATASIZE PUSH1 0x0 DUP1 RETURNDATACOPY RETURNDATASIZE PUSH1 0x0 REVERT JUMPDEST PUSH1 0x0 PUSH2 0x3E8 PUSH2 0x19D4 DUP4 PUSH1 0xF PUSH2 0x2CF9 JUMP JUMPDEST PUSH2 0x19DE SWAP2 SWAP1 PUSH2 0x2D10 JUMP JUMPDEST PUSH1 0xB SLOAD SWAP1 SWAP2 POP PUSH1 0x0 SUB PUSH2 0x1A03 JUMPI PUSH1 0xA SLOAD PUSH2 0xE37 SWAP1 ADDRESS SWAP1 PUSH1 0x1 PUSH1 0x1 PUSH1 0xA0 SHL SUB AND DUP4 PUSH2 0x181E JUMP JUMPDEST PUSH1 0xB SLOAD PUSH1 0x0 SWAP1 PUSH2 0x1A13 SWAP1 DUP4 PUSH2 0x2D10 JUMP JUMPDEST SWAP1 POP PUSH1 0x0 JUMPDEST PUSH1 0xB SLOAD DUP2 LT ISZERO PUSH2 0x1B1A JUMPI PUSH1 0x0 PUSH1 0x1 PUSH1 0x1 PUSH1 0xA0 SHL SUB AND PUSH1 0xB DUP3 DUP2 SLOAD DUP2 LT PUSH2 0x1A40 JUMPI PUSH2 0x1A40 PUSH2 0x2D6C JUMP JUMPDEST PUSH1 0x0 SWAP2 DUP3 MSTORE PUSH1 0x20 SWAP1 SWAP2 KECCAK256 ADD SLOAD PUSH1 0x1 PUSH1 0x1 PUSH1 0xA0 SHL SUB AND EQ PUSH2 0x1B12 JUMPI PUSH1 0xF SLOAD PUSH2 0x1AA5 PUSH1 0xB DUP4 DUP2 SLOAD DUP2 LT PUSH2 0x1A73 JUMPI PUSH2 0x1A73 PUSH2 0x2D6C JUMP JUMPDEST PUSH1 0x0 SWAP2 DUP3 MSTORE PUSH1 0x20 DUP1 DUP4 KECCAK256 SWAP1 SWAP2 ADD SLOAD PUSH1 0x1 PUSH1 0x1 PUSH1 0xA0 SHL SUB AND DUP3 MSTORE PUSH1 0x0 DUP1 MLOAD PUSH1 0x20 PUSH2 0x301A DUP4 CODECOPY DUP2 MLOAD SWAP2 MSTORE SWAP1 MSTORE PUSH1 0x40 SWAP1 KECCAK256 SLOAD SWAP1 JUMP JUMPDEST LT PUSH2 0x1AE1 JUMPI PUSH2 0x1ADC ADDRESS PUSH1 0xB DUP4 DUP2 SLOAD DUP2 LT PUSH2 0x1AC1 JUMPI PUSH2 0x1AC1 PUSH2 0x2D6C JUMP JUMPDEST PUSH1 0x0 SWAP2 DUP3 MSTORE PUSH1 0x20 SWAP1 SWAP2 KECCAK256 ADD SLOAD PUSH1 0x1 PUSH1 0x1 PUSH1 0xA0 SHL SUB AND DUP5 PUSH2 0x181E JUMP JUMPDEST PUSH2 0x1B12 JUMP JUMPDEST PUSH2 0x1B12 DUP2 PUSH1 0xB DUP4 DUP2 SLOAD DUP2 LT PUSH2 0x1AF8 JUMPI PUSH2 0x1AF8 PUSH2 0x2D6C JUMP JUMPDEST PUSH1 0x0 SWAP2 DUP3 MSTORE PUSH1 0x20 SWAP1 SWAP2 KECCAK256 ADD SLOAD PUSH1 0x1 PUSH1 0x1 PUSH1 0xA0 SHL SUB AND PUSH2 0x1D6C JUMP JUMPDEST PUSH1 0x1 ADD PUSH2 0x1A18 JUMP JUMPDEST POP POP POP POP JUMP JUMPDEST PUSH1 0x1 PUSH1 0x1 PUSH1 0xA0 SHL SUB DUP1 DUP4 AND PUSH1 0x0 SWAP1 DUP2 MSTORE PUSH1 0x11 PUSH1 0x20 MSTORE PUSH1 0x40 SWAP1 KECCAK256 SLOAD AND DUP1 PUSH2 0x1B4E JUMPI POP PUSH1 0xA SLOAD PUSH1 0x1 PUSH1 0x1 PUSH1 0xA0 SHL SUB AND JUMPDEST PUSH2 0x1B61 ADDRESS DUP3 PUSH2 0x3E8 PUSH2 0xB05 DUP7 PUSH1 0xA PUSH2 0x2CF9 JUMP JUMPDEST POP POP POP JUMP JUMPDEST PUSH1 0x0 PUSH1 0x64 PUSH2 0x1B75 DUP4 PUSH1 0x5 PUSH2 0x2CF9 JUMP JUMPDEST PUSH2 0x1B7F SWAP2 SWAP1 PUSH2 0x2D10 JUMP JUMPDEST PUSH1 0x9 SLOAD SWAP1 SWAP2 POP PUSH2 0x1B9A SWAP1 ADDRESS SWAP1 PUSH1 0x1 PUSH1 0x1 PUSH1 0xA0 SHL SUB AND DUP4 PUSH2 0x181E JUMP JUMPDEST DUP1 PUSH1 0x10 PUSH1 0x0 DUP3 DUP3 SLOAD PUSH2 0x1BAC SWAP2 SWAP1 PUSH2 0x2CE6 JUMP JUMPDEST SWAP1 SWAP2 SSTORE POP POP POP POP JUMP JUMPDEST PUSH1 0x0 PUSH2 0x3E8 PUSH2 0x1BC5 DUP4 PUSH1 0xA PUSH2 0x2CF9 JUMP JUMPDEST PUSH2 0x1BCF SWAP2 SWAP1 PUSH2 0x2D10 JUMP JUMPDEST SWAP1 POP PUSH1 0x4 SLOAD DUP2 PUSH1 0x0 SLOAD PUSH2 0x1BE2 SWAP2 SWAP1 PUSH2 0x2D82 JUMP JUMPDEST LT ISZERO PUSH2 0x1BFB JUMPI PUSH1 0x4 SLOAD PUSH1 0x0 SLOAD PUSH2 0x1BF8 SWAP2 SWAP1 PUSH2 0x2D82 JUMP JUMPDEST SWAP1 POP JUMPDEST PUSH1 0x0 DUP2 GT DUP1 ISZERO PUSH2 0x1C26 JUMPI POP ADDRESS PUSH1 0x0 SWAP1 DUP2 MSTORE PUSH1 0x0 DUP1 MLOAD PUSH1 0x20 PUSH2 0x301A DUP4 CODECOPY DUP2 MLOAD SWAP2 MSTORE PUSH1 0x20 MSTORE PUSH1 0x40 SWAP1 KECCAK256 SLOAD DUP2 LT JUMPDEST ISZERO PUSH2 0xE37 JUMPI PUSH2 0xE37 ADDRESS PUSH1 0x0 DUP4 PUSH2 0x181E JUMP JUMPDEST PUSH2 0x1B61 DUP4 DUP4 DUP4 PUSH1 0x1 PUSH2 0x256B JUMP JUMPDEST PUSH1 0x1 PUSH1 0x1 PUSH1 0xA0 SHL SUB DUP4 DUP2 AND PUSH1 0x0 SWAP1 DUP2 MSTORE PUSH32 0x52C63247E1F47DB19D5CE0460030C497F067CA4CEBF71BA98EEADABE20BACE01 PUSH1 0x20 SWAP1 DUP2 MSTORE PUSH1 0x40 DUP1 DUP4 KECCAK256 SWAP4 DUP7 AND DUP4 MSTORE SWAP3 SWAP1 MSTORE KECCAK256 SLOAD PUSH1 0x0 NOT DUP2 EQ PUSH2 0x1B1A JUMPI DUP2 DUP2 LT ISZERO PUSH2 0x1CE5 JUMPI PUSH1 0x40 MLOAD PUSH32 0xFB8F41B200000000000000000000000000000000000000000000000000000000 DUP2 MSTORE PUSH1 0x1 PUSH1 0x1 PUSH1 0xA0 SHL SUB DUP5 AND PUSH1 0x4 DUP3 ADD MSTORE PUSH1 0x24 DUP2 ADD DUP3 SWAP1 MSTORE PUSH1 0x44 DUP2 ADD DUP4 SWAP1 MSTORE PUSH1 0x64 ADD PUSH2 0x9E1 JUMP JUMPDEST PUSH2 0x1B1A DUP5 DUP5 DUP5 DUP5 SUB PUSH1 0x0 PUSH2 0x256B JUMP JUMPDEST PUSH1 0x1 PUSH1 0x1 PUSH1 0xA0 SHL SUB DUP4 AND PUSH2 0x1D37 JUMPI PUSH1 0x40 MLOAD PUSH32 0x96C6FD1E00000000000000000000000000000000000000000000000000000000 DUP2 MSTORE PUSH1 0x0 PUSH1 0x4 DUP3 ADD MSTORE PUSH1 0x24 ADD PUSH2 0x9E1 JUMP JUMPDEST PUSH1 0x1 PUSH1 0x1 PUSH1 0xA0 SHL SUB DUP3 AND PUSH2 0x1D61 JUMPI PUSH1 0x40 MLOAD PUSH4 0xEC442F05 PUSH1 0xE0 SHL DUP2 MSTORE PUSH1 0x0 PUSH1 0x4 DUP3 ADD MSTORE PUSH1 0x24 ADD PUSH2 0x9E1 JUMP JUMPDEST PUSH2 0x1B61 DUP4 DUP4 DUP4 PUSH2 0x181E JUMP JUMPDEST PUSH1 0xB DUP1 SLOAD PUSH2 0x1D7C SWAP1 PUSH1 0x1 SWAP1 PUSH2 0x2D82 JUMP JUMPDEST DUP2 SLOAD DUP2 LT PUSH2 0x1D8C JUMPI PUSH2 0x1D8C PUSH2 0x2D6C JUMP JUMPDEST PUSH1 0x0 SWAP2 DUP3 MSTORE PUSH1 0x20 SWAP1 SWAP2 KECCAK256 ADD SLOAD PUSH1 0xB DUP1 SLOAD PUSH1 0x1 PUSH1 0x1 PUSH1 0xA0 SHL SUB SWAP1 SWAP3 AND SWAP2 DUP5 SWAP1 DUP2 LT PUSH2 0x1DB8 JUMPI PUSH2 0x1DB8 PUSH2 0x2D6C JUMP JUMPDEST SWAP1 PUSH1 0x0 MSTORE PUSH1 0x20 PUSH1 0x0 KECCAK256 ADD PUSH1 0x0 PUSH2 0x100 EXP DUP2 SLOAD DUP2 PUSH1 0x1 PUSH1 0x1 PUSH1 0xA0 SHL SUB MUL NOT AND SWAP1 DUP4 PUSH1 0x1 PUSH1 0x1 PUSH1 0xA0 SHL SUB AND MUL OR SWAP1 SSTORE POP PUSH1 0xB DUP1 SLOAD DUP1 PUSH2 0x1DF7 JUMPI PUSH2 0x1DF7 PUSH2 0x2EBE JUMP JUMPDEST PUSH1 0x0 DUP3 DUP2 MSTORE PUSH1 0x20 DUP1 DUP3 KECCAK256 DUP4 ADD PUSH1 0x0 NOT SWAP1 DUP2 ADD DUP1 SLOAD PUSH1 0x1 PUSH1 0x1 PUSH1 0xA0 SHL SUB NOT AND SWAP1 SSTORE SWAP1 SWAP3 ADD SWAP1 SWAP3 SSTORE PUSH1 0x1 PUSH1 0x1 PUSH1 0xA0 SHL SUB SWAP3 SWAP1 SWAP3 AND DUP2 MSTORE PUSH1 0xC SWAP1 SWAP2 MSTORE PUSH1 0x40 DUP2 KECCAK256 SSTORE POP JUMP JUMPDEST CALLER PUSH2 0x1E6A PUSH32 0x9016D09D72D40FDAE2FD8CEAC6B6234C7706214FD39C1CD1E609A0528C199300 SLOAD PUSH1 0x1 PUSH1 0x1 PUSH1 0xA0 SHL SUB AND SWAP1 JUMP JUMPDEST PUSH1 0x1 PUSH1 0x1 PUSH1 0xA0 SHL SUB AND EQ PUSH2 0xF9D JUMPI PUSH1 0x40 MLOAD PUSH32 0x118CDAA700000000000000000000000000000000000000000000000000000000 DUP2 MSTORE CALLER PUSH1 0x4 DUP3 ADD MSTORE PUSH1 0x24 ADD PUSH2 0x9E1 JUMP JUMPDEST ADDRESS PUSH1 0x1 PUSH1 0x1 PUSH1 0xA0 SHL SUB PUSH32 0x0 AND EQ DUP1 PUSH2 0x1F45 JUMPI POP PUSH32 0x0 PUSH1 0x1 PUSH1 0x1 PUSH1 0xA0 SHL SUB AND PUSH2 0x1F39 PUSH32 0x360894A13BA1A3210667C828492DB98DCA3E2076CC3735A920A3CA505D382BBC SLOAD PUSH1 0x1 PUSH1 0x1 PUSH1 0xA0 SHL SUB AND SWAP1 JUMP JUMPDEST PUSH1 0x1 PUSH1 0x1 PUSH1 0xA0 SHL SUB AND EQ ISZERO JUMPDEST ISZERO PUSH2 0xF9D JUMPI PUSH1 0x40 MLOAD PUSH4 0x703E46DD PUSH1 0xE1 SHL DUP2 MSTORE PUSH1 0x4 ADD PUSH1 0x40 MLOAD DUP1 SWAP2 SUB SWAP1 REVERT JUMPDEST PUSH2 0x181B PUSH2 0x1E38 JUMP JUMPDEST DUP2 PUSH1 0x1 PUSH1 0x1 PUSH1 0xA0 SHL SUB AND PUSH4 0x52D1902D PUSH1 0x40 MLOAD DUP2 PUSH4 0xFFFFFFFF AND PUSH1 0xE0 SHL DUP2 MSTORE PUSH1 0x4 ADD PUSH1 0x20 PUSH1 0x40 MLOAD DUP1 DUP4 SUB DUP2 DUP7 GAS STATICCALL SWAP3 POP POP POP DUP1 ISZERO PUSH2 0x1FC5 JUMPI POP PUSH1 0x40 DUP1 MLOAD PUSH1 0x1F RETURNDATASIZE SWAP1 DUP2 ADD PUSH1 0x1F NOT AND DUP3 ADD SWAP1 SWAP3 MSTORE PUSH2 0x1FC2 SWAP2 DUP2 ADD SWAP1 PUSH2 0x2ED4 JUMP JUMPDEST PUSH1 0x1 JUMPDEST PUSH2 0x1FED JUMPI PUSH1 0x40 MLOAD PUSH4 0x4C9C8CE3 PUSH1 0xE0 SHL DUP2 MSTORE PUSH1 0x1 PUSH1 0x1 PUSH1 0xA0 SHL SUB DUP4 AND PUSH1 0x4 DUP3 ADD MSTORE PUSH1 0x24 ADD PUSH2 0x9E1 JUMP JUMPDEST PUSH32 0x360894A13BA1A3210667C828492DB98DCA3E2076CC3735A920A3CA505D382BBC DUP2 EQ PUSH2 0x2049 JUMPI PUSH1 0x40 MLOAD PUSH32 0xAA1D49A400000000000000000000000000000000000000000000000000000000 DUP2 MSTORE PUSH1 0x4 DUP2 ADD DUP3 SWAP1 MSTORE PUSH1 0x24 ADD PUSH2 0x9E1 JUMP JUMPDEST PUSH2 0x1B61 DUP4 DUP4 PUSH2 0x2684 JUMP JUMPDEST ADDRESS PUSH1 0x1 PUSH1 0x1 PUSH1 0xA0 SHL SUB PUSH32 0x0 AND EQ PUSH2 0xF9D JUMPI PUSH1 0x40 MLOAD PUSH4 0x703E46DD PUSH1 0xE1 SHL DUP2 MSTORE PUSH1 0x4 ADD PUSH1 0x40 MLOAD DUP1 SWAP2 SUB SWAP1 REVERT JUMPDEST PUSH32 0x9016D09D72D40FDAE2FD8CEAC6B6234C7706214FD39C1CD1E609A0528C199300 DUP1 SLOAD PUSH1 0x1 PUSH1 0x1 PUSH1 0xA0 SHL SUB NOT DUP2 AND PUSH1 0x1 PUSH1 0x1 PUSH1 0xA0 SHL SUB DUP5 DUP2 AND SWAP2 DUP3 OR DUP5 SSTORE PUSH1 0x40 MLOAD SWAP3 AND SWAP2 DUP3 SWAP1 PUSH32 0x8BE0079C531659141344CD1FD0A4F28419497F9722A3DAAFE3B4186F6B6457E0 SWAP1 PUSH1 0x0 SWAP1 LOG3 POP POP POP JUMP JUMPDEST PUSH2 0x2115 PUSH2 0x26DA JUMP JUMPDEST PUSH2 0xE37 DUP3 DUP3 PUSH2 0x2741 JUMP JUMPDEST PUSH2 0x2127 PUSH2 0x26DA JUMP JUMPDEST PUSH2 0x181B DUP2 PUSH2 0x2792 JUMP JUMPDEST PUSH2 0xF9D PUSH2 0x26DA JUMP JUMPDEST PUSH1 0x1 PUSH1 0x1 PUSH1 0xA0 SHL SUB DUP3 AND PUSH2 0x2162 JUMPI PUSH1 0x40 MLOAD PUSH4 0xEC442F05 PUSH1 0xE0 SHL DUP2 MSTORE PUSH1 0x0 PUSH1 0x4 DUP3 ADD MSTORE PUSH1 0x24 ADD PUSH2 0x9E1 JUMP JUMPDEST PUSH2 0xE37 PUSH1 0x0 DUP4 DUP4 PUSH2 0x181E JUMP JUMPDEST CALLER PUSH1 0x0 SWAP1 DUP2 MSTORE PUSH1 0x17 PUSH1 0x20 MSTORE PUSH1 0x40 SWAP1 KECCAK256 SLOAD NUMBER PUSH4 0xFFFFFFFF SWAP1 SWAP2 AND SUB PUSH2 0x21FA JUMPI PUSH1 0x40 MLOAD PUSH3 0x461BCD PUSH1 0xE5 SHL DUP2 MSTORE PUSH1 0x20 PUSH1 0x4 DUP3 ADD MSTORE PUSH1 0x31 PUSH1 0x24 DUP3 ADD MSTORE PUSH32 0x596F752063616E2774206D616B652074776F207472616E73616374696F6E7320 PUSH1 0x44 DUP3 ADD MSTORE PUSH32 0x696E207468652073616D6520626C6F636B000000000000000000000000000000 PUSH1 0x64 DUP3 ADD MSTORE PUSH1 0x84 ADD PUSH2 0x9E1 JUMP JUMPDEST CALLER PUSH1 0x0 SWAP1 DUP2 MSTORE PUSH1 0x17 PUSH1 0x20 MSTORE PUSH1 0x40 SWAP1 KECCAK256 DUP1 SLOAD PUSH4 0xFFFFFFFF NOT AND NUMBER PUSH4 0xFFFFFFFF AND OR SWAP1 SSTORE PUSH1 0x3 SLOAD DUP2 GT ISZERO PUSH2 0x226E JUMPI PUSH1 0x40 MLOAD PUSH3 0x461BCD PUSH1 0xE5 SHL DUP2 MSTORE PUSH1 0x20 PUSH1 0x4 DUP3 ADD MSTORE PUSH1 0xE PUSH1 0x24 DUP3 ADD MSTORE PUSH32 0x4D6178204C696D69742053656C6C000000000000000000000000000000000000 PUSH1 0x44 DUP3 ADD MSTORE PUSH1 0x64 ADD PUSH2 0x9E1 JUMP JUMPDEST ADDRESS PUSH1 0x0 SWAP1 DUP2 MSTORE PUSH1 0x0 DUP1 MLOAD PUSH1 0x20 PUSH2 0x301A DUP4 CODECOPY DUP2 MLOAD SWAP2 MSTORE PUSH1 0x20 MSTORE PUSH1 0x40 DUP2 KECCAK256 SLOAD PUSH2 0x2296 SWAP1 DUP4 SWAP1 PUSH2 0x2CE6 JUMP JUMPDEST PUSH1 0x1 SLOAD PUSH2 0x22A3 SWAP1 DUP5 PUSH2 0x2CF9 JUMP JUMPDEST PUSH2 0x22AD SWAP2 SWAP1 PUSH2 0x2D10 JUMP JUMPDEST SWAP1 POP PUSH1 0x0 DUP2 GT PUSH2 0x22FF JUMPI PUSH1 0x40 MLOAD PUSH3 0x461BCD PUSH1 0xE5 SHL DUP2 MSTORE PUSH1 0x20 PUSH1 0x4 DUP3 ADD MSTORE PUSH1 0x13 PUSH1 0x24 DUP3 ADD MSTORE PUSH32 0x53656C6C20616D6F756E7420746F6F206C6F7700000000000000000000000000 PUSH1 0x44 DUP3 ADD MSTORE PUSH1 0x64 ADD PUSH2 0x9E1 JUMP JUMPDEST DUP1 PUSH1 0x1 SLOAD LT ISZERO PUSH2 0x2351 JUMPI PUSH1 0x40 MLOAD PUSH3 0x461BCD PUSH1 0xE5 SHL DUP2 MSTORE PUSH1 0x20 PUSH1 0x4 DUP3 ADD MSTORE PUSH1 0x1C PUSH1 0x24 DUP3 ADD MSTORE PUSH32 0x496E73756666696369656E7420424E4220696E20726573657276657300000000 PUSH1 0x44 DUP3 ADD MSTORE PUSH1 0x64 ADD PUSH2 0x9E1 JUMP JUMPDEST DUP1 SELFBALANCE LT ISZERO PUSH2 0x23A1 JUMPI PUSH1 0x40 MLOAD PUSH3 0x461BCD PUSH1 0xE5 SHL DUP2 MSTORE PUSH1 0x20 PUSH1 0x4 DUP3 ADD MSTORE PUSH1 0x1B PUSH1 0x24 DUP3 ADD MSTORE PUSH32 0x496E73756666696369656E7420424E4220696E2062616C616E63650000000000 PUSH1 0x44 DUP3 ADD MSTORE PUSH1 0x64 ADD PUSH2 0x9E1 JUMP JUMPDEST PUSH2 0x23AC CALLER ADDRESS DUP5 PUSH2 0x181E JUMP JUMPDEST PUSH2 0x3E8 PUSH2 0x23BB DUP3 PUSH2 0x3C5 PUSH2 0x2CF9 JUMP JUMPDEST PUSH2 0x23C5 SWAP2 SWAP1 PUSH2 0x2D10 JUMP JUMPDEST PUSH1 0x1 PUSH1 0x0 DUP3 DUP3 SLOAD PUSH2 0x23D6 SWAP2 SWAP1 PUSH2 0x2D82 JUMP JUMPDEST SWAP1 SWAP2 SSTORE POP PUSH2 0x23E5 SWAP1 POP DUP2 PUSH2 0x1975 JUMP JUMPDEST PUSH2 0x23EE DUP3 PUSH2 0x19C4 JUMP JUMPDEST PUSH2 0x23F8 CALLER DUP4 PUSH2 0x1B20 JUMP JUMPDEST PUSH2 0x2401 DUP3 PUSH2 0x1B66 JUMP JUMPDEST PUSH2 0x240A DUP3 PUSH2 0x1BB5 JUMP JUMPDEST CALLER PUSH2 0x8FC PUSH1 0x64 PUSH2 0x241B DUP5 PUSH1 0x5F PUSH2 0x2CF9 JUMP JUMPDEST PUSH2 0x2425 SWAP2 SWAP1 PUSH2 0x2D10 JUMP JUMPDEST PUSH1 0x40 MLOAD DUP2 ISZERO SWAP1 SWAP3 MUL SWAP2 PUSH1 0x0 DUP2 DUP2 DUP2 DUP6 DUP9 DUP9 CALL SWAP4 POP POP POP POP ISZERO DUP1 ISZERO PUSH2 0x244D JUMPI RETURNDATASIZE PUSH1 0x0 DUP1 RETURNDATACOPY RETURNDATASIZE PUSH1 0x0 REVERT JUMPDEST POP PUSH1 0x40 DUP1 MLOAD PUSH1 0x0 DUP1 DUP3 MSTORE PUSH1 0x20 DUP3 ADD DUP6 SWAP1 MSTORE SWAP2 DUP2 ADD DUP4 SWAP1 MSTORE PUSH1 0x60 DUP2 ADD SWAP2 SWAP1 SWAP2 MSTORE CALLER SWAP1 PUSH32 0x49926BBEBE8474393F434DFA4F78694C0923EFA07D19F2284518BFABD06EB737 SWAP1 PUSH1 0x80 ADD PUSH2 0xBC1 JUMP JUMPDEST PUSH1 0x1 PUSH1 0x1 PUSH1 0xA0 SHL SUB DUP2 DUP2 AND PUSH1 0x0 SWAP1 DUP2 MSTORE PUSH1 0x11 PUSH1 0x20 MSTORE PUSH1 0x40 SWAP1 KECCAK256 SLOAD AND ISZERO DUP1 ISZERO PUSH2 0x24D2 JUMPI POP DUP1 PUSH1 0x1 PUSH1 0x1 PUSH1 0xA0 SHL SUB AND DUP3 PUSH1 0x1 PUSH1 0x1 PUSH1 0xA0 SHL SUB AND EQ ISZERO JUMPDEST DUP1 ISZERO PUSH2 0x24E7 JUMPI POP PUSH1 0x1 PUSH1 0x1 PUSH1 0xA0 SHL SUB DUP2 AND ADDRESS EQ ISZERO JUMPDEST DUP1 ISZERO PUSH2 0x2501 JUMPI POP PUSH1 0x8 SLOAD PUSH1 0x1 PUSH1 0x1 PUSH1 0xA0 SHL SUB DUP3 DUP2 AND SWAP2 AND EQ ISZERO JUMPDEST DUP1 ISZERO PUSH2 0x251B JUMPI POP PUSH1 0x9 SLOAD PUSH1 0x1 PUSH1 0x1 PUSH1 0xA0 SHL SUB DUP3 DUP2 AND SWAP2 AND EQ ISZERO JUMPDEST DUP1 ISZERO PUSH2 0x2535 JUMPI POP PUSH1 0xA SLOAD PUSH1 0x1 PUSH1 0x1 PUSH1 0xA0 SHL SUB DUP3 DUP2 AND SWAP2 AND EQ ISZERO JUMPDEST ISZERO PUSH2 0xE37 JUMPI PUSH1 0x1 PUSH1 0x1 PUSH1 0xA0 SHL SUB SWAP1 DUP2 AND PUSH1 0x0 SWAP1 DUP2 MSTORE PUSH1 0x11 PUSH1 0x20 MSTORE PUSH1 0x40 SWAP1 KECCAK256 DUP1 SLOAD PUSH1 0x1 PUSH1 0x1 PUSH1 0xA0 SHL SUB NOT AND SWAP3 SWAP1 SWAP2 AND SWAP2 SWAP1 SWAP2 OR SWAP1 SSTORE JUMP JUMPDEST PUSH1 0x0 DUP1 MLOAD PUSH1 0x20 PUSH2 0x301A DUP4 CODECOPY DUP2 MLOAD SWAP2 MSTORE PUSH1 0x1 PUSH1 0x1 PUSH1 0xA0 SHL SUB DUP6 AND PUSH2 0x25BD JUMPI PUSH1 0x40 MLOAD PUSH32 0xE602DF0500000000000000000000000000000000000000000000000000000000 DUP2 MSTORE PUSH1 0x0 PUSH1 0x4 DUP3 ADD MSTORE PUSH1 0x24 ADD PUSH2 0x9E1 JUMP JUMPDEST PUSH1 0x1 PUSH1 0x1 PUSH1 0xA0 SHL SUB DUP5 AND PUSH2 0x2600 JUMPI PUSH1 0x40 MLOAD PUSH32 0x94280D6200000000000000000000000000000000000000000000000000000000 DUP2 MSTORE PUSH1 0x0 PUSH1 0x4 DUP3 ADD MSTORE PUSH1 0x24 ADD PUSH2 0x9E1 JUMP JUMPDEST PUSH1 0x1 PUSH1 0x1 PUSH1 0xA0 SHL SUB DUP1 DUP7 AND PUSH1 0x0 SWAP1 DUP2 MSTORE PUSH1 0x1 DUP4 ADD PUSH1 0x20 SWAP1 DUP2 MSTORE PUSH1 0x40 DUP1 DUP4 KECCAK256 SWAP4 DUP9 AND DUP4 MSTORE SWAP3 SWAP1 MSTORE KECCAK256 DUP4 SWAP1 SSTORE DUP2 ISZERO PUSH2 0xD9D JUMPI DUP4 PUSH1 0x1 PUSH1 0x1 PUSH1 0xA0 SHL SUB AND DUP6 PUSH1 0x1 PUSH1 0x1 PUSH1 0xA0 SHL SUB AND PUSH32 0x8C5BE1E5EBEC7D5BD14F71427D1E84F3DD0314C0F7B2291E5B200AC8C7C3B925 DUP6 PUSH1 0x40 MLOAD PUSH2 0x2675 SWAP2 DUP2 MSTORE PUSH1 0x20 ADD SWAP1 JUMP JUMPDEST PUSH1 0x40 MLOAD DUP1 SWAP2 SUB SWAP1 LOG3 POP POP POP POP POP JUMP JUMPDEST PUSH2 0x268D DUP3 PUSH2 0x279A JUMP JUMPDEST PUSH1 0x40 MLOAD PUSH1 0x1 PUSH1 0x1 PUSH1 0xA0 SHL SUB DUP4 AND SWAP1 PUSH32 0xBC7CD75A20EE27FD9ADEBAB32041F755214DBC6BFFA90CC0225B39DA2E5C2D3B SWAP1 PUSH1 0x0 SWAP1 LOG2 DUP1 MLOAD ISZERO PUSH2 0x26D2 JUMPI PUSH2 0x1B61 DUP3 DUP3 PUSH2 0x2811 JUMP JUMPDEST PUSH2 0xE37 PUSH2 0x2887 JUMP JUMPDEST PUSH32 0xF0C57E16840DF040F15088DC2F81FE391C3923BEC73E23A9662EFC9C229C6A00 SLOAD PUSH9 0x10000000000000000 SWAP1 DIV PUSH1 0xFF AND PUSH2 0xF9D JUMPI PUSH1 0x40 MLOAD PUSH32 0xD7E6BCF800000000000000000000000000000000000000000000000000000000 DUP2 MSTORE PUSH1 0x4 ADD PUSH1 0x40 MLOAD DUP1 SWAP2 SUB SWAP1 REVERT JUMPDEST PUSH2 0x2749 PUSH2 0x26DA JUMP JUMPDEST PUSH1 0x0 DUP1 MLOAD PUSH1 0x20 PUSH2 0x301A DUP4 CODECOPY DUP2 MLOAD SWAP2 MSTORE PUSH32 0x52C63247E1F47DB19D5CE0460030C497F067CA4CEBF71BA98EEADABE20BACE03 PUSH2 0x2783 DUP5 DUP3 PUSH2 0x2F3D JUMP JUMPDEST POP PUSH1 0x4 DUP2 ADD PUSH2 0x1B1A DUP4 DUP3 PUSH2 0x2F3D JUMP JUMPDEST PUSH2 0x17CF PUSH2 0x26DA JUMP JUMPDEST DUP1 PUSH1 0x1 PUSH1 0x1 PUSH1 0xA0 SHL SUB AND EXTCODESIZE PUSH1 0x0 SUB PUSH2 0x27D0 JUMPI PUSH1 0x40 MLOAD PUSH4 0x4C9C8CE3 PUSH1 0xE0 SHL DUP2 MSTORE PUSH1 0x1 PUSH1 0x1 PUSH1 0xA0 SHL SUB DUP3 AND PUSH1 0x4 DUP3 ADD MSTORE PUSH1 0x24 ADD PUSH2 0x9E1 JUMP JUMPDEST PUSH32 0x360894A13BA1A3210667C828492DB98DCA3E2076CC3735A920A3CA505D382BBC DUP1 SLOAD PUSH1 0x1 PUSH1 0x1 PUSH1 0xA0 SHL SUB NOT AND PUSH1 0x1 PUSH1 0x1 PUSH1 0xA0 SHL SUB SWAP3 SWAP1 SWAP3 AND SWAP2 SWAP1 SWAP2 OR SWAP1 SSTORE JUMP JUMPDEST PUSH1 0x60 PUSH1 0x0 DUP1 DUP5 PUSH1 0x1 PUSH1 0x1 PUSH1 0xA0 SHL SUB AND DUP5 PUSH1 0x40 MLOAD PUSH2 0x282E SWAP2 SWAP1 PUSH2 0x2FFD JUMP JUMPDEST PUSH1 0x0 PUSH1 0x40 MLOAD DUP1 DUP4 SUB DUP2 DUP6 GAS DELEGATECALL SWAP2 POP POP RETURNDATASIZE DUP1 PUSH1 0x0 DUP2 EQ PUSH2 0x2869 JUMPI PUSH1 0x40 MLOAD SWAP2 POP PUSH1 0x1F NOT PUSH1 0x3F RETURNDATASIZE ADD AND DUP3 ADD PUSH1 0x40 MSTORE RETURNDATASIZE DUP3 MSTORE RETURNDATASIZE PUSH1 0x0 PUSH1 0x20 DUP5 ADD RETURNDATACOPY PUSH2 0x286E JUMP JUMPDEST PUSH1 0x60 SWAP2 POP JUMPDEST POP SWAP2 POP SWAP2 POP PUSH2 0x287E DUP6 DUP4 DUP4 PUSH2 0x28BF JUMP JUMPDEST SWAP6 SWAP5 POP POP POP POP POP JUMP JUMPDEST CALLVALUE ISZERO PUSH2 0xF9D JUMPI PUSH1 0x40 MLOAD PUSH32 0xB398979F00000000000000000000000000000000000000000000000000000000 DUP2 MSTORE PUSH1 0x4 ADD PUSH1 0x40 MLOAD DUP1 SWAP2 SUB SWAP1 REVERT JUMPDEST PUSH1 0x60 DUP3 PUSH2 0x28D4 JUMPI PUSH2 0x28CF DUP3 PUSH2 0x2934 JUMP JUMPDEST PUSH2 0xD3A JUMP JUMPDEST DUP2 MLOAD ISZERO DUP1 ISZERO PUSH2 0x28EB JUMPI POP PUSH1 0x1 PUSH1 0x1 PUSH1 0xA0 SHL SUB DUP5 AND EXTCODESIZE ISZERO JUMPDEST ISZERO PUSH2 0x292D JUMPI PUSH1 0x40 MLOAD PUSH32 0x9996B31500000000000000000000000000000000000000000000000000000000 DUP2 MSTORE PUSH1 0x1 PUSH1 0x1 PUSH1 0xA0 SHL SUB DUP6 AND PUSH1 0x4 DUP3 ADD MSTORE PUSH1 0x24 ADD PUSH2 0x9E1 JUMP JUMPDEST POP DUP1 PUSH2 0xD3A JUMP JUMPDEST DUP1 MLOAD ISZERO PUSH2 0x2944 JUMPI DUP1 MLOAD DUP1 DUP3 PUSH1 0x20 ADD REVERT JUMPDEST PUSH1 0x40 MLOAD PUSH32 0x1425EA4200000000000000000000000000000000000000000000000000000000 DUP2 MSTORE PUSH1 0x4 ADD PUSH1 0x40 MLOAD DUP1 SWAP2 SUB SWAP1 REVERT JUMPDEST PUSH1 0x0 JUMPDEST DUP4 DUP2 LT ISZERO PUSH2 0x2991 JUMPI DUP2 DUP2 ADD MLOAD DUP4 DUP3 ADD MSTORE PUSH1 0x20 ADD PUSH2 0x2979 JUMP JUMPDEST POP POP PUSH1 0x0 SWAP2 ADD MSTORE JUMP JUMPDEST PUSH1 0x20 DUP2 MSTORE PUSH1 0x0 DUP3 MLOAD DUP1 PUSH1 0x20 DUP5 ADD MSTORE PUSH2 0x29B9 DUP2 PUSH1 0x40 DUP6 ADD PUSH1 0x20 DUP8 ADD PUSH2 0x2976 JUMP JUMPDEST PUSH1 0x1F ADD PUSH1 0x1F NOT AND SWAP2 SWAP1 SWAP2 ADD PUSH1 0x40 ADD SWAP3 SWAP2 POP POP JUMP JUMPDEST PUSH1 0x1 PUSH1 0x1 PUSH1 0xA0 SHL SUB DUP2 AND DUP2 EQ PUSH2 0x181B JUMPI PUSH1 0x0 DUP1 REVERT JUMPDEST PUSH1 0x0 DUP1 PUSH1 0x40 DUP4 DUP6 SUB SLT ISZERO PUSH2 0x29F5 JUMPI PUSH1 0x0 DUP1 REVERT JUMPDEST DUP3 CALLDATALOAD PUSH2 0x2A00 DUP2 PUSH2 0x29CD JUMP JUMPDEST SWAP5 PUSH1 0x20 SWAP4 SWAP1 SWAP4 ADD CALLDATALOAD SWAP4 POP POP POP JUMP JUMPDEST DUP1 ISZERO ISZERO DUP2 EQ PUSH2 0x181B JUMPI PUSH1 0x0 DUP1 REVERT JUMPDEST PUSH1 0x0 DUP1 PUSH1 0x40 DUP4 DUP6 SUB SLT ISZERO PUSH2 0x2A2F JUMPI PUSH1 0x0 DUP1 REVERT JUMPDEST DUP3 CALLDATALOAD SWAP2 POP PUSH1 0x20 DUP4 ADD CALLDATALOAD PUSH2 0x2A41 DUP2 PUSH2 0x2A0E JUMP JUMPDEST DUP1 SWAP2 POP POP SWAP3 POP SWAP3 SWAP1 POP JUMP JUMPDEST PUSH1 0x0 DUP1 PUSH1 0x0 PUSH1 0x60 DUP5 DUP7 SUB SLT ISZERO PUSH2 0x2A61 JUMPI PUSH1 0x0 DUP1 REVERT JUMPDEST DUP4 CALLDATALOAD PUSH2 0x2A6C DUP2 PUSH2 0x29CD JUMP JUMPDEST SWAP3 POP PUSH1 0x20 DUP5 ADD CALLDATALOAD PUSH2 0x2A7C DUP2 PUSH2 0x29CD JUMP JUMPDEST SWAP3 SWAP6 SWAP3 SWAP5 POP POP POP PUSH1 0x40 SWAP2 SWAP1 SWAP2 ADD CALLDATALOAD SWAP1 JUMP JUMPDEST PUSH1 0x0 DUP1 DUP4 PUSH1 0x1F DUP5 ADD SLT PUSH2 0x2A9F JUMPI PUSH1 0x0 DUP1 REVERT JUMPDEST POP DUP2 CALLDATALOAD PUSH8 0xFFFFFFFFFFFFFFFF DUP2 GT ISZERO PUSH2 0x2AB7 JUMPI PUSH1 0x0 DUP1 REVERT JUMPDEST PUSH1 0x20 DUP4 ADD SWAP2 POP DUP4 PUSH1 0x20 DUP3 PUSH1 0x5 SHL DUP6 ADD ADD GT ISZERO PUSH2 0x2AD2 JUMPI PUSH1 0x0 DUP1 REVERT JUMPDEST SWAP3 POP SWAP3 SWAP1 POP JUMP JUMPDEST PUSH1 0x0 DUP1 PUSH1 0x0 DUP1 PUSH1 0x40 DUP6 DUP8 SUB SLT ISZERO PUSH2 0x2AEF JUMPI PUSH1 0x0 DUP1 REVERT JUMPDEST DUP5 CALLDATALOAD PUSH8 0xFFFFFFFFFFFFFFFF DUP1 DUP3 GT ISZERO PUSH2 0x2B07 JUMPI PUSH1 0x0 DUP1 REVERT JUMPDEST PUSH2 0x2B13 DUP9 DUP4 DUP10 ADD PUSH2 0x2A8D JUMP JUMPDEST SWAP1 SWAP7 POP SWAP5 POP PUSH1 0x20 DUP8 ADD CALLDATALOAD SWAP2 POP DUP1 DUP3 GT ISZERO PUSH2 0x2B2C JUMPI PUSH1 0x0 DUP1 REVERT JUMPDEST POP PUSH2 0x2B39 DUP8 DUP3 DUP9 ADD PUSH2 0x2A8D JUMP JUMPDEST SWAP6 SWAP9 SWAP5 SWAP8 POP SWAP6 POP POP POP POP JUMP JUMPDEST PUSH1 0x0 PUSH1 0x20 DUP3 DUP5 SUB SLT ISZERO PUSH2 0x2B57 JUMPI PUSH1 0x0 DUP1 REVERT JUMPDEST DUP2 CALLDATALOAD PUSH2 0xD3A DUP2 PUSH2 0x29CD JUMP JUMPDEST PUSH1 0x0 PUSH1 0x20 DUP3 DUP5 SUB SLT ISZERO PUSH2 0x2B74 JUMPI PUSH1 0x0 DUP1 REVERT JUMPDEST POP CALLDATALOAD SWAP2 SWAP1 POP JUMP JUMPDEST PUSH4 0x4E487B71 PUSH1 0xE0 SHL PUSH1 0x0 MSTORE PUSH1 0x41 PUSH1 0x4 MSTORE PUSH1 0x24 PUSH1 0x0 REVERT JUMPDEST PUSH1 0x0 DUP1 PUSH1 0x40 DUP4 DUP6 SUB SLT ISZERO PUSH2 0x2BA4 JUMPI PUSH1 0x0 DUP1 REVERT JUMPDEST DUP3 CALLDATALOAD PUSH2 0x2BAF DUP2 PUSH2 0x29CD JUMP JUMPDEST SWAP2 POP PUSH1 0x20 DUP4 ADD CALLDATALOAD PUSH8 0xFFFFFFFFFFFFFFFF DUP1 DUP3 GT ISZERO PUSH2 0x2BCC JUMPI PUSH1 0x0 DUP1 REVERT JUMPDEST DUP2 DUP6 ADD SWAP2 POP DUP6 PUSH1 0x1F DUP4 ADD SLT PUSH2 0x2BE0 JUMPI PUSH1 0x0 DUP1 REVERT JUMPDEST DUP2 CALLDATALOAD DUP2 DUP2 GT ISZERO PUSH2 0x2BF2 JUMPI PUSH2 0x2BF2 PUSH2 0x2B7B JUMP JUMPDEST PUSH1 0x40 MLOAD PUSH1 0x1F DUP3 ADD PUSH1 0x1F NOT SWAP1 DUP2 AND PUSH1 0x3F ADD AND DUP2 ADD SWAP1 DUP4 DUP3 GT DUP2 DUP4 LT OR ISZERO PUSH2 0x2C1A JUMPI PUSH2 0x2C1A PUSH2 0x2B7B JUMP JUMPDEST DUP2 PUSH1 0x40 MSTORE DUP3 DUP2 MSTORE DUP9 PUSH1 0x20 DUP5 DUP8 ADD ADD GT ISZERO PUSH2 0x2C33 JUMPI PUSH1 0x0 DUP1 REVERT JUMPDEST DUP3 PUSH1 0x20 DUP7 ADD PUSH1 0x20 DUP4 ADD CALLDATACOPY PUSH1 0x0 PUSH1 0x20 DUP5 DUP4 ADD ADD MSTORE DUP1 SWAP6 POP POP POP POP POP POP SWAP3 POP SWAP3 SWAP1 POP JUMP JUMPDEST PUSH1 0x20 DUP1 DUP3 MSTORE DUP3 MLOAD DUP3 DUP3 ADD DUP2 SWAP1 MSTORE PUSH1 0x0 SWAP2 SWAP1 DUP5 DUP3 ADD SWAP1 PUSH1 0x40 DUP6 ADD SWAP1 DUP5 JUMPDEST DUP2 DUP2 LT ISZERO PUSH2 0x2C96 JUMPI DUP4 MLOAD PUSH1 0x1 PUSH1 0x1 PUSH1 0xA0 SHL SUB AND DUP4 MSTORE SWAP3 DUP5 ADD SWAP3 SWAP2 DUP5 ADD SWAP2 PUSH1 0x1 ADD PUSH2 0x2C71 JUMP JUMPDEST POP SWAP1 SWAP7 SWAP6 POP POP POP POP POP POP JUMP JUMPDEST PUSH1 0x0 DUP1 PUSH1 0x40 DUP4 DUP6 SUB SLT ISZERO PUSH2 0x2CB5 JUMPI PUSH1 0x0 DUP1 REVERT JUMPDEST DUP3 CALLDATALOAD PUSH2 0x2CC0 DUP2 PUSH2 0x29CD JUMP JUMPDEST SWAP2 POP PUSH1 0x20 DUP4 ADD CALLDATALOAD PUSH2 0x2A41 DUP2 PUSH2 0x29CD JUMP JUMPDEST PUSH4 0x4E487B71 PUSH1 0xE0 SHL PUSH1 0x0 MSTORE PUSH1 0x11 PUSH1 0x4 MSTORE PUSH1 0x24 PUSH1 0x0 REVERT JUMPDEST DUP1 DUP3 ADD DUP1 DUP3 GT ISZERO PUSH2 0xCA4 JUMPI PUSH2 0xCA4 PUSH2 0x2CD0 JUMP JUMPDEST DUP1 DUP3 MUL DUP2 ISZERO DUP3 DUP3 DIV DUP5 EQ OR PUSH2 0xCA4 JUMPI PUSH2 0xCA4 PUSH2 0x2CD0 JUMP JUMPDEST PUSH1 0x0 DUP3 PUSH2 0x2D2D JUMPI PUSH4 0x4E487B71 PUSH1 0xE0 SHL PUSH1 0x0 MSTORE PUSH1 0x12 PUSH1 0x4 MSTORE PUSH1 0x24 PUSH1 0x0 REVERT JUMPDEST POP DIV SWAP1 JUMP JUMPDEST PUSH1 0x1 DUP2 DUP2 SHR SWAP1 DUP3 AND DUP1 PUSH2 0x2D46 JUMPI PUSH1 0x7F DUP3 AND SWAP2 POP JUMPDEST PUSH1 0x20 DUP3 LT DUP2 SUB PUSH2 0x2D66 JUMPI PUSH4 0x4E487B71 PUSH1 0xE0 SHL PUSH1 0x0 MSTORE PUSH1 0x22 PUSH1 0x4 MSTORE PUSH1 0x24 PUSH1 0x0 REVERT JUMPDEST POP SWAP2 SWAP1 POP JUMP JUMPDEST PUSH4 0x4E487B71 PUSH1 0xE0 SHL PUSH1 0x0 MSTORE PUSH1 0x32 PUSH1 0x4 MSTORE PUSH1 0x24 PUSH1 0x0 REVERT JUMPDEST DUP2 DUP2 SUB DUP2 DUP2 GT ISZERO PUSH2 0xCA4 JUMPI PUSH2 0xCA4 PUSH2 0x2CD0 JUMP JUMPDEST PUSH1 0x1 DUP2 DUP2 JUMPDEST DUP1 DUP6 GT ISZERO PUSH2 0x2DD0 JUMPI DUP2 PUSH1 0x0 NOT DIV DUP3 GT ISZERO PUSH2 0x2DB6 JUMPI PUSH2 0x2DB6 PUSH2 0x2CD0 JUMP JUMPDEST DUP1 DUP6 AND ISZERO PUSH2 0x2DC3 JUMPI SWAP2 DUP2 MUL SWAP2 JUMPDEST SWAP4 DUP5 SHR SWAP4 SWAP1 DUP1 MUL SWAP1 PUSH2 0x2D9A JUMP JUMPDEST POP SWAP3 POP SWAP3 SWAP1 POP JUMP JUMPDEST PUSH1 0x0 DUP3 PUSH2 0x2DE7 JUMPI POP PUSH1 0x1 PUSH2 0xCA4 JUMP JUMPDEST DUP2 PUSH2 0x2DF4 JUMPI POP PUSH1 0x0 PUSH2 0xCA4 JUMP JUMPDEST DUP2 PUSH1 0x1 DUP2 EQ PUSH2 0x2E0A JUMPI PUSH1 0x2 DUP2 EQ PUSH2 0x2E14 JUMPI PUSH2 0x2E30 JUMP JUMPDEST PUSH1 0x1 SWAP2 POP POP PUSH2 0xCA4 JUMP JUMPDEST PUSH1 0xFF DUP5 GT ISZERO PUSH2 0x2E25 JUMPI PUSH2 0x2E25 PUSH2 0x2CD0 JUMP JUMPDEST POP POP PUSH1 0x1 DUP3 SHL PUSH2 0xCA4 JUMP JUMPDEST POP PUSH1 0x20 DUP4 LT PUSH2 0x133 DUP4 LT AND PUSH1 0x4E DUP5 LT PUSH1 0xB DUP5 LT AND OR ISZERO PUSH2 0x2E53 JUMPI POP DUP2 DUP2 EXP PUSH2 0xCA4 JUMP JUMPDEST PUSH2 0x2E5D DUP4 DUP4 PUSH2 0x2D95 JUMP JUMPDEST DUP1 PUSH1 0x0 NOT DIV DUP3 GT ISZERO PUSH2 0x2E71 JUMPI PUSH2 0x2E71 PUSH2 0x2CD0 JUMP JUMPDEST MUL SWAP4 SWAP3 POP POP POP JUMP JUMPDEST PUSH1 0x0 PUSH2 0xD3A PUSH1 0xFF DUP5 AND DUP4 PUSH2 0x2DD8 JUMP JUMPDEST PUSH1 0x0 PUSH1 0x20 DUP3 DUP5 SUB SLT ISZERO PUSH2 0x2E9A JUMPI PUSH1 0x0 DUP1 REVERT JUMPDEST DUP2 MLOAD PUSH2 0xD3A DUP2 PUSH2 0x2A0E JUMP JUMPDEST PUSH1 0xFF DUP3 DUP2 AND DUP3 DUP3 AND SUB SWAP1 DUP2 GT ISZERO PUSH2 0xCA4 JUMPI PUSH2 0xCA4 PUSH2 0x2CD0 JUMP JUMPDEST PUSH4 0x4E487B71 PUSH1 0xE0 SHL PUSH1 0x0 MSTORE PUSH1 0x31 PUSH1 0x4 MSTORE PUSH1 0x24 PUSH1 0x0 REVERT JUMPDEST PUSH1 0x0 PUSH1 0x20 DUP3 DUP5 SUB SLT ISZERO PUSH2 0x2EE6 JUMPI PUSH1 0x0 DUP1 REVERT JUMPDEST POP MLOAD SWAP2 SWAP1 POP JUMP JUMPDEST PUSH1 0x1F DUP3 GT ISZERO PUSH2 0x1B61 JUMPI PUSH1 0x0 DUP2 PUSH1 0x0 MSTORE PUSH1 0x20 PUSH1 0x0 KECCAK256 PUSH1 0x1F DUP6 ADD PUSH1 0x5 SHR DUP2 ADD PUSH1 0x20 DUP7 LT ISZERO PUSH2 0x2F16 JUMPI POP DUP1 JUMPDEST PUSH1 0x1F DUP6 ADD PUSH1 0x5 SHR DUP3 ADD SWAP2 POP JUMPDEST DUP2 DUP2 LT ISZERO PUSH2 0x2F35 JUMPI DUP3 DUP2 SSTORE PUSH1 0x1 ADD PUSH2 0x2F22 JUMP JUMPDEST POP POP POP POP POP POP JUMP JUMPDEST DUP2 MLOAD PUSH8 0xFFFFFFFFFFFFFFFF DUP2 GT ISZERO PUSH2 0x2F57 JUMPI PUSH2 0x2F57 PUSH2 0x2B7B JUMP JUMPDEST PUSH2 0x2F6B DUP2 PUSH2 0x2F65 DUP5 SLOAD PUSH2 0x2D32 JUMP JUMPDEST DUP5 PUSH2 0x2EED JUMP JUMPDEST PUSH1 0x20 DUP1 PUSH1 0x1F DUP4 GT PUSH1 0x1 DUP2 EQ PUSH2 0x2FA0 JUMPI PUSH1 0x0 DUP5 ISZERO PUSH2 0x2F88 JUMPI POP DUP6 DUP4 ADD MLOAD JUMPDEST PUSH1 0x0 NOT PUSH1 0x3 DUP7 SWAP1 SHL SHR NOT AND PUSH1 0x1 DUP6 SWAP1 SHL OR DUP6 SSTORE PUSH2 0x2F35 JUMP JUMPDEST PUSH1 0x0 DUP6 DUP2 MSTORE PUSH1 0x20 DUP2 KECCAK256 PUSH1 0x1F NOT DUP7 AND SWAP2 JUMPDEST DUP3 DUP2 LT ISZERO PUSH2 0x2FCF JUMPI DUP9 DUP7 ADD MLOAD DUP3 SSTORE SWAP5 DUP5 ADD SWAP5 PUSH1 0x1 SWAP1 SWAP2 ADD SWAP1 DUP5 ADD PUSH2 0x2FB0 JUMP JUMPDEST POP DUP6 DUP3 LT ISZERO PUSH2 0x2FED JUMPI DUP8 DUP6 ADD MLOAD PUSH1 0x0 NOT PUSH1 0x3 DUP9 SWAP1 SHL PUSH1 0xF8 AND SHR NOT AND DUP2 SSTORE JUMPDEST POP POP POP POP POP PUSH1 0x1 SWAP1 DUP2 SHL ADD SWAP1 SSTORE POP JUMP JUMPDEST PUSH1 0x0 DUP3 MLOAD PUSH2 0x300F DUP2 DUP5 PUSH1 0x20 DUP8 ADD PUSH2 0x2976 JUMP JUMPDEST SWAP2 SWAP1 SWAP2 ADD SWAP3 SWAP2 POP POP JUMP INVALID MSTORE 0xC6 ORIGIN SELFBALANCE 0xE1 DELEGATECALL PUSH30 0xB19D5CE0460030C497F067CA4CEBF71BA98EEADABE20BACE00A264697066 PUSH20 0x5822122023FBB1F461B47A9B7B075A1940625664 0xB9 SSTORE 0xC4 JUMPI 0xAF SWAP2 0xE8 0xCE SMOD 0x26 PUSH31 0x1D975118B064736F6C63430008180033000000000000000000000000000000 "},"methodIdentifiers":{"UPGRADE_INTERFACE_VERSION()":"ad3cb1cc","_fireStopAmount()":"b74de591","_maxBuyAmount()":"0492f055","_maxSellAmount()":"7cca52fe","_nodeCheck(address)":"3b71d549","_nodeLimitAmount()":"3cd691d5","allowance(address,address)":"dd62ed3e","approve(address,uint256)":"095ea7b3","balanceOf(address)":"70a08231","communityAddress(uint256)":"d0943e17","communityBonus()":"dc541504","communityCount(address)":"78554a4f","decimals()":"313ce567","ecoAddress()":"68961ecb","feeAddress()":"41275358","getAmountOut(uint256,bool)":"11106ee2","getNodeAddress()":"70dabc9e","getPledgeReceiptRelation(address)":"7b49827a","getReserves()":"0902f1ac","initialize()":"8129fc1c","lastRewardAt()":"f2e15628","liquidityProvider()":"5b8bec55","marketAddress()":"95623641","maxWalletEnable()":"12a54b62","name()":"06fdde03","nodeAddress(uint256)":"e98533b8","nodeAddressRelation(address)":"b28645a0","owner()":"8da5cb5b","pledgeReceiptRelation(address)":"dbcdf032","proxiableUUID()":"52d1902d","relation(address)":"d7a05f05","removePledgeReceiptRelation(address)":"c363c3ac","renounceOwnership()":"715018a6","setOpenTradeAt(uint256)":"3b8e8b97","setZToken(address)":"9e1e1713","symbol()":"95d89b41","totalSupply()":"18160ddd","tradeFeeAmount()":"04f60cd7","transfer(address,uint256)":"a9059cbb","transferBatch(address[],uint256[])":"3b3e672f","transferFrom(address,address,uint256)":"23b872dd","transferOwnership(address)":"f2fde38b","upgradeToAndCall(address,bytes)":"4f1ef286"}},"storageLayout":{"storage":[{"astId":2274,"contract":"contracts/BT2.sol:BT2","label":"_totalSupply","offset":0,"slot":"0","type":"t_uint256"},{"astId":2276,"contract":"contracts/BT2.sol:BT2","label":"_bnbTotalSupply","offset":0,"slot":"1","type":"t_uint256"},{"astId":2278,"contract":"contracts/BT2.sol:BT2","label":"_maxBuyAmount","offset":0,"slot":"2","type":"t_uint256"},{"astId":2280,"contract":"contracts/BT2.sol:BT2","label":"_maxSellAmount","offset":0,"slot":"3","type":"t_uint256"},{"astId":2282,"contract":"contracts/BT2.sol:BT2","label":"_fireStopAmount","offset":0,"slot":"4","type":"t_uint256"},{"astId":2284,"contract":"contracts/BT2.sol:BT2","label":"_name","offset":0,"slot":"5","type":"t_string_storage"},{"astId":2286,"contract":"contracts/BT2.sol:BT2","label":"_symbol","offset":0,"slot":"6","type":"t_string_storage"},{"astId":2288,"contract":"contracts/BT2.sol:BT2","label":"liquidityProvider","offset":0,"slot":"7","type":"t_address"},{"astId":2290,"contract":"contracts/BT2.sol:BT2","label":"maxWalletEnable","offset":20,"slot":"7","type":"t_bool"},{"astId":2292,"contract":"contracts/BT2.sol:BT2","label":"marketAddress","offset":0,"slot":"8","type":"t_address"},{"astId":2294,"contract":"contracts/BT2.sol:BT2","label":"ecoAddress","offset":0,"slot":"9","type":"t_address"},{"astId":2296,"contract":"contracts/BT2.sol:BT2","label":"feeAddress","offset":0,"slot":"10","type":"t_address"},{"astId":2299,"contract":"contracts/BT2.sol:BT2","label":"nodeAddress","offset":0,"slot":"11","type":"t_array(t_address)dyn_storage"},{"astId":2303,"contract":"contracts/BT2.sol:BT2","label":"nodeAddressRelation","offset":0,"slot":"12","type":"t_mapping(t_address,t_uint256)"},{"astId":2306,"contract":"contracts/BT2.sol:BT2","label":"communityAddress","offset":0,"slot":"13","type":"t_array(t_address)dyn_storage"},{"astId":2308,"contract":"contracts/BT2.sol:BT2","label":"communityBonus","offset":0,"slot":"14","type":"t_uint256"},{"astId":2310,"contract":"contracts/BT2.sol:BT2","label":"_nodeLimitAmount","offset":0,"slot":"15","type":"t_uint256"},{"astId":2312,"contract":"contracts/BT2.sol:BT2","label":"tradeFeeAmount","offset":0,"slot":"16","type":"t_uint256"},{"astId":2316,"contract":"contracts/BT2.sol:BT2","label":"relation","offset":0,"slot":"17","type":"t_mapping(t_address,t_address)"},{"astId":2320,"contract":"contracts/BT2.sol:BT2","label":"communityCount","offset":0,"slot":"18","type":"t_mapping(t_address,t_uint256)"},{"astId":2324,"contract":"contracts/BT2.sol:BT2","label":"pledgeReceiptRelation","offset":0,"slot":"19","type":"t_mapping(t_address,t_uint256)"},{"astId":2326,"contract":"contracts/BT2.sol:BT2","label":"lastRewardAt","offset":0,"slot":"20","type":"t_uint256"},{"astId":2329,"contract":"contracts/BT2.sol:BT2","label":"zToken","offset":0,"slot":"21","type":"t_contract(ERC20Upgradeable)1247"},{"astId":2331,"contract":"contracts/BT2.sol:BT2","label":"openTradeAt","offset":0,"slot":"22","type":"t_uint256"},{"astId":2335,"contract":"contracts/BT2.sol:BT2","label":"lastTransaction","offset":0,"slot":"23","type":"t_mapping(t_address,t_uint32)"}],"types":{"t_address":{"encoding":"inplace","label":"address","numberOfBytes":"20"},"t_array(t_address)dyn_storage":{"base":"t_address","encoding":"dynamic_array","label":"address[]","numberOfBytes":"32"},"t_bool":{"encoding":"inplace","label":"bool","numberOfBytes":"1"},"t_contract(ERC20Upgradeable)1247":{"encoding":"inplace","label":"contract ERC20Upgradeable","numberOfBytes":"20"},"t_mapping(t_address,t_address)":{"encoding":"mapping","key":"t_address","label":"mapping(address => address)","numberOfBytes":"32","value":"t_address"},"t_mapping(t_address,t_uint256)":{"encoding":"mapping","key":"t_address","label":"mapping(address => uint256)","numberOfBytes":"32","value":"t_uint256"},"t_mapping(t_address,t_uint32)":{"encoding":"mapping","key":"t_address","label":"mapping(address => uint32)","numberOfBytes":"32","value":"t_uint32"},"t_string_storage":{"encoding":"bytes","label":"string","numberOfBytes":"32"},"t_uint256":{"encoding":"inplace","label":"uint256","numberOfBytes":"32"},"t_uint32":{"encoding":"inplace","label":"uint32","numberOfBytes":"4"}}}}}}