{
  "_format": "hh-sol-artifact-1",
  "contractName": "PizzaSpace",
  "sourceName": "contracts/pizzaspace_nft.sol",
  "abi": [
    {
      "inputs": [
        {
          "internalType": "string",
          "name": "url",
          "type": "string"
        }
      ],
      "stateMutability": "nonpayable",
      "type": "constructor"
    },
    {
      "inputs": [
        {
          "internalType": "address",
          "name": "sender",
          "type": "address"
        },
        {
          "internalType": "uint256",
          "name": "tokenId",
          "type": "uint256"
        },
        {
          "internalType": "address",
          "name": "owner",
          "type": "address"
        }
      ],
      "name": "ERC721IncorrectOwner",
      "type": "error"
    },
    {
      "inputs": [
        {
          "internalType": "address",
          "name": "operator",
          "type": "address"
        },
        {
          "internalType": "uint256",
          "name": "tokenId",
          "type": "uint256"
        }
      ],
      "name": "ERC721InsufficientApproval",
      "type": "error"
    },
    {
      "inputs": [
        {
          "internalType": "address",
          "name": "approver",
          "type": "address"
        }
      ],
      "name": "ERC721InvalidApprover",
      "type": "error"
    },
    {
      "inputs": [
        {
          "internalType": "address",
          "name": "operator",
          "type": "address"
        }
      ],
      "name": "ERC721InvalidOperator",
      "type": "error"
    },
    {
      "inputs": [
        {
          "internalType": "address",
          "name": "owner",
          "type": "address"
        }
      ],
      "name": "ERC721InvalidOwner",
      "type": "error"
    },
    {
      "inputs": [
        {
          "internalType": "address",
          "name": "receiver",
          "type": "address"
        }
      ],
      "name": "ERC721InvalidReceiver",
      "type": "error"
    },
    {
      "inputs": [
        {
          "internalType": "address",
          "name": "sender",
          "type": "address"
        }
      ],
      "name": "ERC721InvalidSender",
      "type": "error"
    },
    {
      "inputs": [
        {
          "internalType": "uint256",
          "name": "tokenId",
          "type": "uint256"
        }
      ],
      "name": "ERC721NonexistentToken",
      "type": "error"
    },
    {
      "inputs": [
        {
          "internalType": "address",
          "name": "owner",
          "type": "address"
        }
      ],
      "name": "OwnableInvalidOwner",
      "type": "error"
    },
    {
      "inputs": [
        {
          "internalType": "address",
          "name": "account",
          "type": "address"
        }
      ],
      "name": "OwnableUnauthorizedAccount",
      "type": "error"
    },
    {
      "anonymous": false,
      "inputs": [
        {
          "indexed": true,
          "internalType": "address",
          "name": "owner",
          "type": "address"
        },
        {
          "indexed": true,
          "internalType": "address",
          "name": "approved",
          "type": "address"
        },
        {
          "indexed": true,
          "internalType": "uint256",
          "name": "tokenId",
          "type": "uint256"
        }
      ],
      "name": "Approval",
      "type": "event"
    },
    {
      "anonymous": false,
      "inputs": [
        {
          "indexed": true,
          "internalType": "address",
          "name": "owner",
          "type": "address"
        },
        {
          "indexed": true,
          "internalType": "address",
          "name": "operator",
          "type": "address"
        },
        {
          "indexed": false,
          "internalType": "bool",
          "name": "approved",
          "type": "bool"
        }
      ],
      "name": "ApprovalForAll",
      "type": "event"
    },
    {
      "anonymous": false,
      "inputs": [
        {
          "indexed": false,
          "internalType": "uint256",
          "name": "_fromTokenId",
          "type": "uint256"
        },
        {
          "indexed": false,
          "internalType": "uint256",
          "name": "_toTokenId",
          "type": "uint256"
        }
      ],
      "name": "BatchMetadataUpdate",
      "type": "event"
    },
    {
      "anonymous": false,
      "inputs": [
        {
          "indexed": false,
          "internalType": "uint256",
          "name": "_tokenId",
          "type": "uint256"
        }
      ],
      "name": "MetadataUpdate",
      "type": "event"
    },
    {
      "anonymous": false,
      "inputs": [
        {
          "indexed": true,
          "internalType": "address",
          "name": "previousOwner",
          "type": "address"
        },
        {
          "indexed": true,
          "internalType": "address",
          "name": "newOwner",
          "type": "address"
        }
      ],
      "name": "OwnershipTransferred",
      "type": "event"
    },
    {
      "anonymous": false,
      "inputs": [
        {
          "indexed": true,
          "internalType": "address",
          "name": "from",
          "type": "address"
        },
        {
          "indexed": true,
          "internalType": "address",
          "name": "to",
          "type": "address"
        },
        {
          "indexed": true,
          "internalType": "uint256",
          "name": "tokenId",
          "type": "uint256"
        }
      ],
      "name": "Transfer",
      "type": "event"
    },
    {
      "inputs": [
        {
          "internalType": "address",
          "name": "to",
          "type": "address"
        },
        {
          "internalType": "uint256",
          "name": "tokenId",
          "type": "uint256"
        }
      ],
      "name": "approve",
      "outputs": [],
      "stateMutability": "nonpayable",
      "type": "function"
    },
    {
      "inputs": [
        {
          "internalType": "address",
          "name": "owner",
          "type": "address"
        }
      ],
      "name": "balanceOf",
      "outputs": [
        {
          "internalType": "uint256",
          "name": "",
          "type": "uint256"
        }
      ],
      "stateMutability": "view",
      "type": "function"
    },
    {
      "inputs": [
        {
          "internalType": "uint256",
          "name": "tokenId",
          "type": "uint256"
        }
      ],
      "name": "getApproved",
      "outputs": [
        {
          "internalType": "address",
          "name": "",
          "type": "address"
        }
      ],
      "stateMutability": "view",
      "type": "function"
    },
    {
      "inputs": [
        {
          "internalType": "address",
          "name": "owner",
          "type": "address"
        },
        {
          "internalType": "address",
          "name": "operator",
          "type": "address"
        }
      ],
      "name": "isApprovedForAll",
      "outputs": [
        {
          "internalType": "bool",
          "name": "",
          "type": "bool"
        }
      ],
      "stateMutability": "view",
      "type": "function"
    },
    {
      "inputs": [],
      "name": "name",
      "outputs": [
        {
          "internalType": "string",
          "name": "",
          "type": "string"
        }
      ],
      "stateMutability": "view",
      "type": "function"
    },
    {
      "inputs": [],
      "name": "owner",
      "outputs": [
        {
          "internalType": "address",
          "name": "",
          "type": "address"
        }
      ],
      "stateMutability": "view",
      "type": "function"
    },
    {
      "inputs": [
        {
          "internalType": "uint256",
          "name": "tokenId",
          "type": "uint256"
        }
      ],
      "name": "ownerOf",
      "outputs": [
        {
          "internalType": "address",
          "name": "",
          "type": "address"
        }
      ],
      "stateMutability": "view",
      "type": "function"
    },
    {
      "inputs": [],
      "name": "renounceOwnership",
      "outputs": [],
      "stateMutability": "nonpayable",
      "type": "function"
    },
    {
      "inputs": [
        {
          "internalType": "address",
          "name": "to",
          "type": "address"
        }
      ],
      "name": "safeMint",
      "outputs": [],
      "stateMutability": "nonpayable",
      "type": "function"
    },
    {
      "inputs": [
        {
          "internalType": "uint256",
          "name": "_count",
          "type": "uint256"
        }
      ],
      "name": "safeMintBatch",
      "outputs": [],
      "stateMutability": "nonpayable",
      "type": "function"
    },
    {
      "inputs": [
        {
          "internalType": "address",
          "name": "from",
          "type": "address"
        },
        {
          "internalType": "address",
          "name": "to",
          "type": "address"
        },
        {
          "internalType": "uint256",
          "name": "tokenId",
          "type": "uint256"
        }
      ],
      "name": "safeTransferFrom",
      "outputs": [],
      "stateMutability": "nonpayable",
      "type": "function"
    },
    {
      "inputs": [
        {
          "internalType": "address",
          "name": "from",
          "type": "address"
        },
        {
          "internalType": "address",
          "name": "to",
          "type": "address"
        },
        {
          "internalType": "uint256",
          "name": "tokenId",
          "type": "uint256"
        },
        {
          "internalType": "bytes",
          "name": "data",
          "type": "bytes"
        }
      ],
      "name": "safeTransferFrom",
      "outputs": [],
      "stateMutability": "nonpayable",
      "type": "function"
    },
    {
      "inputs": [
        {
          "internalType": "address",
          "name": "operator",
          "type": "address"
        },
        {
          "internalType": "bool",
          "name": "approved",
          "type": "bool"
        }
      ],
      "name": "setApprovalForAll",
      "outputs": [],
      "stateMutability": "nonpayable",
      "type": "function"
    },
    {
      "inputs": [
        {
          "internalType": "string",
          "name": "uri",
          "type": "string"
        }
      ],
      "name": "setBaseURI",
      "outputs": [],
      "stateMutability": "nonpayable",
      "type": "function"
    },
    {
      "inputs": [
        {
          "internalType": "bytes4",
          "name": "interfaceId",
          "type": "bytes4"
        }
      ],
      "name": "supportsInterface",
      "outputs": [
        {
          "internalType": "bool",
          "name": "",
          "type": "bool"
        }
      ],
      "stateMutability": "view",
      "type": "function"
    },
    {
      "inputs": [],
      "name": "symbol",
      "outputs": [
        {
          "internalType": "string",
          "name": "",
          "type": "string"
        }
      ],
      "stateMutability": "view",
      "type": "function"
    },
    {
      "inputs": [
        {
          "internalType": "uint256",
          "name": "tokenId",
          "type": "uint256"
        }
      ],
      "name": "tokenURI",
      "outputs": [
        {
          "internalType": "string",
          "name": "",
          "type": "string"
        }
      ],
      "stateMutability": "view",
      "type": "function"
    },
    {
      "inputs": [
        {
          "internalType": "address",
          "name": "from",
          "type": "address"
        },
        {
          "internalType": "address",
          "name": "to",
          "type": "address"
        },
        {
          "internalType": "uint256",
          "name": "tokenId",
          "type": "uint256"
        }
      ],
      "name": "transferFrom",
      "outputs": [],
      "stateMutability": "nonpayable",
      "type": "function"
    },
    {
      "inputs": [
        {
          "internalType": "address",
          "name": "newOwner",
          "type": "address"
        }
      ],
      "name": "transferOwnership",
      "outputs": [],
      "stateMutability": "nonpayable",
      "type": "function"
    }
  ],
  "bytecode": "0x60806040523480156200001157600080fd5b5060405162001fab38038062001fab83398101604081905262000034916200071c565b604080518082018252600a8082526950697a7a61537061636560b01b60208084018290528451808601909552918452908301523391600062000077838262000864565b50600162000086828262000864565b5050506001600160a01b038116620000b957604051631e4fbdf760e01b8152600060048201526024015b60405180910390fd5b620000c481620000e6565b506009620000d3828262000864565b50620000df3362000138565b50620009e1565b600780546001600160a01b038381166001600160a01b0319831681179093556040519116919082907f8be0079c531659141344cd1fd0a4f28419497f9722a3daafe3b4186f6b6457e090600090a35050565b620001426200016b565b6008805460009182620001558362000930565b9091555090506200016782826200019c565b5050565b6007546001600160a01b031633146200019a5760405163118cdaa760e01b8152336004820152602401620000b0565b565b62000167828260405180602001604052806000815250620001be60201b60201c565b620001ca8383620001de565b620001d9600084848462000248565b505050565b6001600160a01b0382166200020a57604051633250574960e11b815260006004820152602401620000b0565b6000620002198383836200037f565b90506001600160a01b03811615620001d9576040516339e3563760e11b815260006004820152602401620000b0565b6001600160a01b0383163b156200037957604051630a85bd0160e11b81526001600160a01b0384169063150b7a02906200028d90339088908790879060040162000958565b6020604051808303816000875af1925050508015620002cb575060408051601f3d908101601f19168201909252620002c891810190620009ae565b60015b62000339573d808015620002fc576040519150601f19603f3d011682016040523d82523d6000602084013e62000301565b606091505b5080516000036200033157604051633250574960e11b81526001600160a01b0385166004820152602401620000b0565b805181602001fd5b6001600160e01b03198116630a85bd0160e11b146200037757604051633250574960e11b81526001600160a01b0385166004820152602401620000b0565b505b50505050565b6000828152600260205260408120546001600160a01b0390811690831615620003af57620003af8184866200047e565b6001600160a01b03811615620003ef57620003ce6000858180620004e8565b6001600160a01b038116600090815260036020526040902080546000190190555b6001600160a01b038516156200041f576001600160a01b0385166000908152600360205260409020805460010190555b60008481526002602052604080822080546001600160a01b0319166001600160a01b0389811691821790925591518793918516917fddf252ad1be2c89b69c2b068fc378daa952ba7f163c4a11628f55a4df523b3ef91a4949350505050565b6200048b83838362000616565b620001d9576001600160a01b038316620004bc57604051637e27328960e01b815260048101829052602401620000b0565b60405163177e802f60e01b81526001600160a01b038316600482015260248101829052604401620000b0565b8080620004fd57506001600160a01b03821615155b15620005e657600062000510846200069f565b90506001600160a01b038316158015906200053d5750826001600160a01b0316816001600160a01b031614155b80156200057057506001600160a01b0380821660009081526005602090815260408083209387168352929052205460ff16155b156200059b5760405163a9fbf51f60e01b81526001600160a01b0384166004820152602401620000b0565b8115620005e45783856001600160a01b0316826001600160a01b03167f8c5be1e5ebec7d5bd14f71427d1e84f3dd0314c0f7b2291e5b200ac8c7c3b92560405160405180910390a45b505b5050600090815260046020526040902080546001600160a01b0319166001600160a01b0392909216919091179055565b60006001600160a01b03831615801590620006975750826001600160a01b0316846001600160a01b031614806200067257506001600160a01b0380851660009081526005602090815260408083209387168352929052205460ff165b806200069757506000828152600460205260409020546001600160a01b038481169116145b949350505050565b6000818152600260205260408120546001600160a01b031680620006da57604051637e27328960e01b815260048101849052602401620000b0565b92915050565b634e487b7160e01b600052604160045260246000fd5b60005b8381101562000713578181015183820152602001620006f9565b50506000910152565b6000602082840312156200072f57600080fd5b81516001600160401b03808211156200074757600080fd5b818401915084601f8301126200075c57600080fd5b815181811115620007715762000771620006e0565b604051601f8201601f19908116603f011681019083821181831017156200079c576200079c620006e0565b81604052828152876020848701011115620007b657600080fd5b620007c9836020830160208801620006f6565b979650505050505050565b600181811c90821680620007e957607f821691505b6020821081036200080a57634e487b7160e01b600052602260045260246000fd5b50919050565b601f821115620001d9576000816000526020600020601f850160051c810160208610156200083b5750805b601f850160051c820191505b818110156200085c5782815560010162000847565b505050505050565b81516001600160401b03811115620008805762000880620006e0565b6200089881620008918454620007d4565b8462000810565b602080601f831160018114620008d05760008415620008b75750858301515b600019600386901b1c1916600185901b1785556200085c565b600085815260208120601f198616915b828110156200090157888601518255948401946001909101908401620008e0565b5085821015620009205787850151600019600388901b60f8161c191681555b5050505050600190811b01905550565b6000600182016200095157634e487b7160e01b600052601160045260246000fd5b5060010190565b600060018060a01b038087168352808616602084015250836040830152608060608301528251806080840152620009978160a0850160208701620006f6565b601f01601f19169190910160a00195945050505050565b600060208284031215620009c157600080fd5b81516001600160e01b031981168114620009da57600080fd5b9392505050565b6115ba80620009f16000396000f3fe608060405234801561001057600080fd5b50600436106101515760003560e01c80636352211e116100cd578063a22cb46511610081578063c87b56dd11610066578063c87b56dd146102ad578063e985e9c5146102c0578063f2fde38b146102fc57600080fd5b8063a22cb46514610287578063b88d4fde1461029a57600080fd5b8063715018a6116100b2578063715018a6146102665780638da5cb5b1461026e57806395d89b411461027f57600080fd5b80636352211e1461023257806370a082311461024557600080fd5b806323b872dd1161012457806340d097c31161010957806340d097c3146101f957806342842e0e1461020c57806355f804b31461021f57600080fd5b806323b872dd146101d357806336a6b828146101e657600080fd5b806301ffc9a71461015657806306fdde031461017e578063081812fc14610193578063095ea7b3146101be575b600080fd5b610169610164366004610fd3565b61030f565b60405190151581526020015b60405180910390f35b610186610320565b6040516101759190611047565b6101a66101a136600461105a565b6103b2565b6040516001600160a01b039091168152602001610175565b6101d16101cc36600461108f565b6103db565b005b6101d16101e13660046110b9565b6103ea565b6101d16101f436600461105a565b610493565b6101d16102073660046110f5565b6104cd565b6101d161021a3660046110b9565b6104f6565b6101d161022d36600461119c565b610516565b6101a661024036600461105a565b61052a565b6102586102533660046110f5565b610535565b604051908152602001610175565b6101d1610596565b6007546001600160a01b03166101a6565b6101866105aa565b6101d16102953660046111e5565b6105b9565b6101d16102a8366004611221565b6105c4565b6101866102bb36600461105a565b6105db565b6101696102ce36600461129d565b6001600160a01b03918216600090815260056020908152604080832093909416825291909152205460ff1690565b6101d161030a3660046110f5565b61063c565b600061031a82610693565b92915050565b60606000805461032f906112d0565b80601f016020809104026020016040519081016040528092919081815260200182805461035b906112d0565b80156103a85780601f1061037d576101008083540402835291602001916103a8565b820191906000526020600020905b81548152906001019060200180831161038b57829003601f168201915b5050505050905090565b60006103bd826106d1565b506000828152600460205260409020546001600160a01b031661031a565b6103e682823361070a565b5050565b6001600160a01b03821661041957604051633250574960e11b8152600060048201526024015b60405180910390fd5b6000610426838333610717565b9050836001600160a01b0316816001600160a01b03161461048d576040517f64283d7b0000000000000000000000000000000000000000000000000000000081526001600160a01b0380861660048301526024820184905282166044820152606401610410565b50505050565b61049b61081d565b60005b818110156103e657600880546104c59133919060006104bc8361130a565b91905055610863565b60010161049e565b6104d561081d565b60088054600091826104e68361130a565b9190505590506103e68282610863565b610511838383604051806020016040528060008152506105c4565b505050565b61051e61081d565b60096103e68282611381565b600061031a826106d1565b60006001600160a01b03821661057a576040517f89c62b6400000000000000000000000000000000000000000000000000000000815260006004820152602401610410565b506001600160a01b031660009081526003602052604090205490565b61059e61081d565b6105a8600061087d565b565b60606001805461032f906112d0565b6103e63383836108dc565b6105cf8484846103ea565b61048d84848484610994565b606060006105ea600a84611441565b905060096105f782610abd565b6040516020016106079190611463565b60408051601f198184030181529082905261062592916020016114a4565b604051602081830303815290604052915050919050565b61064461081d565b6001600160a01b038116610687576040517f1e4fbdf700000000000000000000000000000000000000000000000000000000815260006004820152602401610410565b6106908161087d565b50565b60006001600160e01b031982167f4906490600000000000000000000000000000000000000000000000000000000148061031a575061031a82610b5d565b6000818152600260205260408120546001600160a01b03168061031a57604051637e27328960e01b815260048101849052602401610410565b6105118383836001610bf8565b6000828152600260205260408120546001600160a01b039081169083161561074457610744818486610d43565b6001600160a01b0381161561078257610761600085600080610bf8565b6001600160a01b038116600090815260036020526040902080546000190190555b6001600160a01b038516156107b1576001600160a01b0385166000908152600360205260409020805460010190555b600084815260026020526040808220805473ffffffffffffffffffffffffffffffffffffffff19166001600160a01b0389811691821790925591518793918516917fddf252ad1be2c89b69c2b068fc378daa952ba7f163c4a11628f55a4df523b3ef91a4949350505050565b6007546001600160a01b031633146105a8576040517f118cdaa7000000000000000000000000000000000000000000000000000000008152336004820152602401610410565b6103e6828260405180602001604052806000815250610dc0565b600780546001600160a01b0383811673ffffffffffffffffffffffffffffffffffffffff19831681179093556040519116919082907f8be0079c531659141344cd1fd0a4f28419497f9722a3daafe3b4186f6b6457e090600090a35050565b6001600160a01b038216610927576040517f5b08ba180000000000000000000000000000000000000000000000000000000081526001600160a01b0383166004820152602401610410565b6001600160a01b03838116600081815260056020908152604080832094871680845294825291829020805460ff191686151590811790915591519182527f17307eab39ab6107e8899845ad3d59bd9653f200f220920489ca2b5937696c31910160405180910390a3505050565b6001600160a01b0383163b1561048d57604051630a85bd0160e11b81526001600160a01b0384169063150b7a02906109d690339088908790879060040161152b565b6020604051808303816000875af1925050508015610a11575060408051601f3d908101601f19168201909252610a0e91810190611567565b60015b610a7a573d808015610a3f576040519150601f19603f3d011682016040523d82523d6000602084013e610a44565b606091505b508051600003610a7257604051633250574960e11b81526001600160a01b0385166004820152602401610410565b805181602001fd5b6001600160e01b03198116630a85bd0160e11b14610ab657604051633250574960e11b81526001600160a01b0385166004820152602401610410565b5050505050565b60606000610aca83610dd7565b600101905060008167ffffffffffffffff811115610aea57610aea611110565b6040519080825280601f01601f191660200182016040528015610b14576020820181803683370190505b5090508181016020015b600019017f3031323334353637383961626364656600000000000000000000000000000000600a86061a8153600a8504945084610b1e57509392505050565b60006001600160e01b031982167f80ac58cd000000000000000000000000000000000000000000000000000000001480610bc057506001600160e01b031982167f5b5e139f00000000000000000000000000000000000000000000000000000000145b8061031a57507f01ffc9a7000000000000000000000000000000000000000000000000000000006001600160e01b031983161461031a565b8080610c0c57506001600160a01b03821615155b15610d06576000610c1c846106d1565b90506001600160a01b03831615801590610c485750826001600160a01b0316816001600160a01b031614155b8015610c7a57506001600160a01b0380821660009081526005602090815260408083209387168352929052205460ff16155b15610cbc576040517fa9fbf51f0000000000000000000000000000000000000000000000000000000081526001600160a01b0384166004820152602401610410565b8115610d045783856001600160a01b0316826001600160a01b03167f8c5be1e5ebec7d5bd14f71427d1e84f3dd0314c0f7b2291e5b200ac8c7c3b92560405160405180910390a45b505b50506000908152600460205260409020805473ffffffffffffffffffffffffffffffffffffffff19166001600160a01b0392909216919091179055565b610d4e838383610eb9565b610511576001600160a01b038316610d7c57604051637e27328960e01b815260048101829052602401610410565b6040517f177e802f0000000000000000000000000000000000000000000000000000000081526001600160a01b038316600482015260248101829052604401610410565b610dca8383610f3f565b6105116000848484610994565b6000807a184f03e93ff9f4daa797ed6e38ed64bf6a1f0100000000000000008310610e20577a184f03e93ff9f4daa797ed6e38ed64bf6a1f010000000000000000830492506040015b6d04ee2d6d415b85acef81000000008310610e4c576d04ee2d6d415b85acef8100000000830492506020015b662386f26fc100008310610e6a57662386f26fc10000830492506010015b6305f5e1008310610e82576305f5e100830492506008015b6127108310610e9657612710830492506004015b60648310610ea8576064830492506002015b600a831061031a5760010192915050565b60006001600160a01b03831615801590610f375750826001600160a01b0316846001600160a01b03161480610f1357506001600160a01b0380851660009081526005602090815260408083209387168352929052205460ff165b80610f3757506000828152600460205260409020546001600160a01b038481169116145b949350505050565b6001600160a01b038216610f6957604051633250574960e11b815260006004820152602401610410565b6000610f7783836000610717565b90506001600160a01b03811615610511576040517f73c6ac6e00000000000000000000000000000000000000000000000000000000815260006004820152602401610410565b6001600160e01b03198116811461069057600080fd5b600060208284031215610fe557600080fd5b8135610ff081610fbd565b9392505050565b60005b83811015611012578181015183820152602001610ffa565b50506000910152565b60008151808452611033816020860160208601610ff7565b601f01601f19169290920160200192915050565b602081526000610ff0602083018461101b565b60006020828403121561106c57600080fd5b5035919050565b80356001600160a01b038116811461108a57600080fd5b919050565b600080604083850312156110a257600080fd5b6110ab83611073565b946020939093013593505050565b6000806000606084860312156110ce57600080fd5b6110d784611073565b92506110e560208501611073565b9150604084013590509250925092565b60006020828403121561110757600080fd5b610ff082611073565b634e487b7160e01b600052604160045260246000fd5b600067ffffffffffffffff8084111561114157611141611110565b604051601f8501601f19908116603f0116810190828211818310171561116957611169611110565b8160405280935085815286868601111561118257600080fd5b858560208301376000602087830101525050509392505050565b6000602082840312156111ae57600080fd5b813567ffffffffffffffff8111156111c557600080fd5b8201601f810184136111d657600080fd5b610f3784823560208401611126565b600080604083850312156111f857600080fd5b61120183611073565b91506020830135801515811461121657600080fd5b809150509250929050565b6000806000806080858703121561123757600080fd5b61124085611073565b935061124e60208601611073565b925060408501359150606085013567ffffffffffffffff81111561127157600080fd5b8501601f8101871361128257600080fd5b61129187823560208401611126565b91505092959194509250565b600080604083850312156112b057600080fd5b6112b983611073565b91506112c760208401611073565b90509250929050565b600181811c908216806112e457607f821691505b60208210810361130457634e487b7160e01b600052602260045260246000fd5b50919050565b60006001820161132a57634e487b7160e01b600052601160045260246000fd5b5060010190565b601f821115610511576000816000526020600020601f850160051c8101602086101561135a5750805b601f850160051c820191505b8181101561137957828155600101611366565b505050505050565b815167ffffffffffffffff81111561139b5761139b611110565b6113af816113a984546112d0565b84611331565b602080601f8311600181146113e457600084156113cc5750858301515b600019600386901b1c1916600185901b178555611379565b600085815260208120601f198616915b82811015611413578886015182559484019460019091019084016113f4565b50858210156114315787850151600019600388901b60f8161c191681555b5050505050600190811b01905550565b60008261145e57634e487b7160e01b600052601260045260246000fd5b500690565b60008251611475818460208701610ff7565b7f2e6a736f6e000000000000000000000000000000000000000000000000000000920191825250600501919050565b60008084546114b2816112d0565b600182811680156114ca57600181146114df5761150e565b60ff198416875282151583028701945061150e565b8860005260208060002060005b858110156115055781548a8201529084019082016114ec565b50505082870194505b505050508351611522818360208801610ff7565b01949350505050565b60006001600160a01b0380871683528086166020840152508360408301526080606083015261155d608083018461101b565b9695505050505050565b60006020828403121561157957600080fd5b8151610ff081610fbd56fea26469706673582212203fbc44de3d27fae235f3f078b8cd868e25fcdc6a9a87cf9e377d45b641452b5d64736f6c63430008180033",
  "linkReferences": {},
  "deployedLinkReferences": {}
}