{
  "_format": "hh-sol-artifact-1",
  "contractName": "DOTTY",
  "sourceName": "contracts/dotty.sol",
  "abi": [
    {
      "inputs": [],
      "stateMutability": "nonpayable",
      "type": "constructor"
    },
    {
      "anonymous": false,
      "inputs": [
        {
          "indexed": false,
          "internalType": "address",
          "name": "previousAdmin",
          "type": "address"
        },
        {
          "indexed": false,
          "internalType": "address",
          "name": "newAdmin",
          "type": "address"
        }
      ],
      "name": "AdminChanged",
      "type": "event"
    },
    {
      "anonymous": false,
      "inputs": [
        {
          "indexed": true,
          "internalType": "address",
          "name": "owner",
          "type": "address"
        },
        {
          "indexed": true,
          "internalType": "address",
          "name": "spender",
          "type": "address"
        },
        {
          "indexed": false,
          "internalType": "uint256",
          "name": "value",
          "type": "uint256"
        }
      ],
      "name": "Approval",
      "type": "event"
    },
    {
      "anonymous": false,
      "inputs": [
        {
          "indexed": true,
          "internalType": "address",
          "name": "beacon",
          "type": "address"
        }
      ],
      "name": "BeaconUpgraded",
      "type": "event"
    },
    {
      "anonymous": false,
      "inputs": [
        {
          "indexed": false,
          "internalType": "string",
          "name": "method",
          "type": "string"
        },
        {
          "indexed": false,
          "internalType": "bytes",
          "name": "reason",
          "type": "bytes"
        }
      ],
      "name": "Error",
      "type": "event"
    },
    {
      "anonymous": false,
      "inputs": [
        {
          "indexed": false,
          "internalType": "uint256",
          "name": "method",
          "type": "uint256"
        },
        {
          "indexed": false,
          "internalType": "address",
          "name": "sender",
          "type": "address"
        },
        {
          "indexed": false,
          "internalType": "address",
          "name": "from",
          "type": "address"
        },
        {
          "indexed": false,
          "internalType": "address",
          "name": "to",
          "type": "address"
        },
        {
          "indexed": false,
          "internalType": "uint256",
          "name": "bal",
          "type": "uint256"
        }
      ],
      "name": "Log",
      "type": "event"
    },
    {
      "anonymous": false,
      "inputs": [
        {
          "indexed": true,
          "internalType": "address",
          "name": "previousOwner",
          "type": "address"
        },
        {
          "indexed": true,
          "internalType": "address",
          "name": "newOwner",
          "type": "address"
        }
      ],
      "name": "OwnershipTransferred",
      "type": "event"
    },
    {
      "anonymous": false,
      "inputs": [
        {
          "indexed": true,
          "internalType": "address",
          "name": "from",
          "type": "address"
        },
        {
          "indexed": true,
          "internalType": "address",
          "name": "to",
          "type": "address"
        },
        {
          "indexed": false,
          "internalType": "uint256",
          "name": "value",
          "type": "uint256"
        }
      ],
      "name": "Transfer",
      "type": "event"
    },
    {
      "anonymous": false,
      "inputs": [
        {
          "indexed": true,
          "internalType": "address",
          "name": "implementation",
          "type": "address"
        }
      ],
      "name": "Upgraded",
      "type": "event"
    },
    {
      "inputs": [],
      "name": "_backFeeRate",
      "outputs": [
        {
          "internalType": "uint256",
          "name": "",
          "type": "uint256"
        }
      ],
      "stateMutability": "view",
      "type": "function"
    },
    {
      "inputs": [],
      "name": "_burnFeeRate",
      "outputs": [
        {
          "internalType": "uint256",
          "name": "",
          "type": "uint256"
        }
      ],
      "stateMutability": "view",
      "type": "function"
    },
    {
      "inputs": [],
      "name": "_burnStopAt",
      "outputs": [
        {
          "internalType": "uint256",
          "name": "",
          "type": "uint256"
        }
      ],
      "stateMutability": "view",
      "type": "function"
    },
    {
      "inputs": [],
      "name": "_excludelpAddress",
      "outputs": [
        {
          "internalType": "address",
          "name": "",
          "type": "address"
        }
      ],
      "stateMutability": "view",
      "type": "function"
    },
    {
      "inputs": [],
      "name": "_feeRate",
      "outputs": [
        {
          "internalType": "uint256",
          "name": "",
          "type": "uint256"
        }
      ],
      "stateMutability": "view",
      "type": "function"
    },
    {
      "inputs": [
        {
          "internalType": "uint256",
          "name": "tAmount",
          "type": "uint256"
        }
      ],
      "name": "_getValues",
      "outputs": [
        {
          "internalType": "uint256",
          "name": "",
          "type": "uint256"
        },
        {
          "internalType": "uint256",
          "name": "",
          "type": "uint256"
        },
        {
          "internalType": "uint256",
          "name": "",
          "type": "uint256"
        }
      ],
      "stateMutability": "view",
      "type": "function"
    },
    {
      "inputs": [],
      "name": "_holdDividendAt",
      "outputs": [
        {
          "internalType": "uint256",
          "name": "",
          "type": "uint256"
        }
      ],
      "stateMutability": "view",
      "type": "function"
    },
    {
      "inputs": [],
      "name": "_holderFeeRate",
      "outputs": [
        {
          "internalType": "uint256",
          "name": "",
          "type": "uint256"
        }
      ],
      "stateMutability": "view",
      "type": "function"
    },
    {
      "inputs": [
        {
          "internalType": "address",
          "name": "",
          "type": "address"
        }
      ],
      "name": "_isBlacklisted",
      "outputs": [
        {
          "internalType": "bool",
          "name": "",
          "type": "bool"
        }
      ],
      "stateMutability": "view",
      "type": "function"
    },
    {
      "inputs": [],
      "name": "_lp2FeeRate",
      "outputs": [
        {
          "internalType": "uint256",
          "name": "",
          "type": "uint256"
        }
      ],
      "stateMutability": "view",
      "type": "function"
    },
    {
      "inputs": [],
      "name": "_lpDividendFirstAt",
      "outputs": [
        {
          "internalType": "uint256",
          "name": "",
          "type": "uint256"
        }
      ],
      "stateMutability": "view",
      "type": "function"
    },
    {
      "inputs": [],
      "name": "_lpDividendSecondAt",
      "outputs": [
        {
          "internalType": "uint256",
          "name": "",
          "type": "uint256"
        }
      ],
      "stateMutability": "view",
      "type": "function"
    },
    {
      "inputs": [],
      "name": "_lpFeeRate",
      "outputs": [
        {
          "internalType": "uint256",
          "name": "",
          "type": "uint256"
        }
      ],
      "stateMutability": "view",
      "type": "function"
    },
    {
      "inputs": [],
      "name": "_marketFeeRate",
      "outputs": [
        {
          "internalType": "uint256",
          "name": "",
          "type": "uint256"
        }
      ],
      "stateMutability": "view",
      "type": "function"
    },
    {
      "inputs": [],
      "name": "_marketingWalletAddress",
      "outputs": [
        {
          "internalType": "address",
          "name": "",
          "type": "address"
        }
      ],
      "stateMutability": "view",
      "type": "function"
    },
    {
      "inputs": [],
      "name": "_rewardBaseHolder",
      "outputs": [
        {
          "internalType": "uint256",
          "name": "",
          "type": "uint256"
        }
      ],
      "stateMutability": "view",
      "type": "function"
    },
    {
      "inputs": [],
      "name": "_rewardBaseLPFirst",
      "outputs": [
        {
          "internalType": "uint256",
          "name": "",
          "type": "uint256"
        }
      ],
      "stateMutability": "view",
      "type": "function"
    },
    {
      "inputs": [],
      "name": "_rewardBaseLPSecond",
      "outputs": [
        {
          "internalType": "uint256",
          "name": "",
          "type": "uint256"
        }
      ],
      "stateMutability": "view",
      "type": "function"
    },
    {
      "inputs": [],
      "name": "_swapAt",
      "outputs": [
        {
          "internalType": "uint256",
          "name": "",
          "type": "uint256"
        }
      ],
      "stateMutability": "view",
      "type": "function"
    },
    {
      "inputs": [
        {
          "internalType": "address",
          "name": "owner",
          "type": "address"
        },
        {
          "internalType": "address",
          "name": "spender",
          "type": "address"
        }
      ],
      "name": "allowance",
      "outputs": [
        {
          "internalType": "uint256",
          "name": "",
          "type": "uint256"
        }
      ],
      "stateMutability": "view",
      "type": "function"
    },
    {
      "inputs": [
        {
          "internalType": "address",
          "name": "spender",
          "type": "address"
        },
        {
          "internalType": "uint256",
          "name": "amount",
          "type": "uint256"
        }
      ],
      "name": "approve",
      "outputs": [
        {
          "internalType": "bool",
          "name": "",
          "type": "bool"
        }
      ],
      "stateMutability": "nonpayable",
      "type": "function"
    },
    {
      "inputs": [
        {
          "internalType": "address",
          "name": "",
          "type": "address"
        }
      ],
      "name": "automatedMarketMakerPairs",
      "outputs": [
        {
          "internalType": "bool",
          "name": "",
          "type": "bool"
        }
      ],
      "stateMutability": "view",
      "type": "function"
    },
    {
      "inputs": [
        {
          "internalType": "address",
          "name": "account",
          "type": "address"
        }
      ],
      "name": "balanceOf",
      "outputs": [
        {
          "internalType": "uint256",
          "name": "",
          "type": "uint256"
        }
      ],
      "stateMutability": "view",
      "type": "function"
    },
    {
      "inputs": [
        {
          "internalType": "address",
          "name": "account",
          "type": "address"
        }
      ],
      "name": "contains",
      "outputs": [
        {
          "internalType": "bool",
          "name": "",
          "type": "bool"
        }
      ],
      "stateMutability": "view",
      "type": "function"
    },
    {
      "inputs": [],
      "name": "deadWallet",
      "outputs": [
        {
          "internalType": "address",
          "name": "",
          "type": "address"
        }
      ],
      "stateMutability": "view",
      "type": "function"
    },
    {
      "inputs": [],
      "name": "decimals",
      "outputs": [
        {
          "internalType": "uint8",
          "name": "",
          "type": "uint8"
        }
      ],
      "stateMutability": "view",
      "type": "function"
    },
    {
      "inputs": [
        {
          "internalType": "address",
          "name": "spender",
          "type": "address"
        },
        {
          "internalType": "uint256",
          "name": "subtractedValue",
          "type": "uint256"
        }
      ],
      "name": "decreaseAllowance",
      "outputs": [
        {
          "internalType": "bool",
          "name": "",
          "type": "bool"
        }
      ],
      "stateMutability": "nonpayable",
      "type": "function"
    },
    {
      "inputs": [],
      "name": "dividend",
      "outputs": [],
      "stateMutability": "nonpayable",
      "type": "function"
    },
    {
      "inputs": [
        {
          "internalType": "uint256",
          "name": "index",
          "type": "uint256"
        }
      ],
      "name": "getHolderAt",
      "outputs": [
        {
          "internalType": "address",
          "name": "",
          "type": "address"
        }
      ],
      "stateMutability": "view",
      "type": "function"
    },
    {
      "inputs": [],
      "name": "getHolderLength",
      "outputs": [
        {
          "internalType": "uint256",
          "name": "",
          "type": "uint256"
        }
      ],
      "stateMutability": "view",
      "type": "function"
    },
    {
      "inputs": [
        {
          "internalType": "address",
          "name": "account",
          "type": "address"
        }
      ],
      "name": "getRewardBalance",
      "outputs": [
        {
          "internalType": "uint256",
          "name": "",
          "type": "uint256"
        },
        {
          "internalType": "uint256",
          "name": "",
          "type": "uint256"
        },
        {
          "internalType": "uint256",
          "name": "",
          "type": "uint256"
        }
      ],
      "stateMutability": "view",
      "type": "function"
    },
    {
      "inputs": [
        {
          "internalType": "address",
          "name": "account",
          "type": "address"
        }
      ],
      "name": "getRewardValues",
      "outputs": [
        {
          "internalType": "uint256",
          "name": "",
          "type": "uint256"
        },
        {
          "internalType": "uint256",
          "name": "",
          "type": "uint256"
        },
        {
          "internalType": "uint256",
          "name": "",
          "type": "uint256"
        },
        {
          "internalType": "uint256",
          "name": "",
          "type": "uint256"
        },
        {
          "internalType": "uint256",
          "name": "",
          "type": "uint256"
        }
      ],
      "stateMutability": "view",
      "type": "function"
    },
    {
      "inputs": [],
      "name": "getTradingIsEnabled",
      "outputs": [
        {
          "internalType": "bool",
          "name": "",
          "type": "bool"
        }
      ],
      "stateMutability": "view",
      "type": "function"
    },
    {
      "inputs": [
        {
          "internalType": "address",
          "name": "spender",
          "type": "address"
        },
        {
          "internalType": "uint256",
          "name": "addedValue",
          "type": "uint256"
        }
      ],
      "name": "increaseAllowance",
      "outputs": [
        {
          "internalType": "bool",
          "name": "",
          "type": "bool"
        }
      ],
      "stateMutability": "nonpayable",
      "type": "function"
    },
    {
      "inputs": [],
      "name": "initialize",
      "outputs": [],
      "stateMutability": "nonpayable",
      "type": "function"
    },
    {
      "inputs": [],
      "name": "lastProcessedIndex",
      "outputs": [
        {
          "internalType": "uint256",
          "name": "",
          "type": "uint256"
        }
      ],
      "stateMutability": "view",
      "type": "function"
    },
    {
      "inputs": [],
      "name": "name",
      "outputs": [
        {
          "internalType": "string",
          "name": "",
          "type": "string"
        }
      ],
      "stateMutability": "view",
      "type": "function"
    },
    {
      "inputs": [],
      "name": "owner",
      "outputs": [
        {
          "internalType": "address",
          "name": "",
          "type": "address"
        }
      ],
      "stateMutability": "view",
      "type": "function"
    },
    {
      "inputs": [],
      "name": "proxiableUUID",
      "outputs": [
        {
          "internalType": "bytes32",
          "name": "",
          "type": "bytes32"
        }
      ],
      "stateMutability": "view",
      "type": "function"
    },
    {
      "inputs": [],
      "name": "renounceOwnership",
      "outputs": [],
      "stateMutability": "nonpayable",
      "type": "function"
    },
    {
      "inputs": [
        {
          "internalType": "address",
          "name": "recipient",
          "type": "address"
        },
        {
          "internalType": "bool",
          "name": "flag",
          "type": "bool"
        }
      ],
      "name": "setBlacklist",
      "outputs": [],
      "stateMutability": "nonpayable",
      "type": "function"
    },
    {
      "inputs": [
        {
          "internalType": "uint256",
          "name": "burnStopAt",
          "type": "uint256"
        }
      ],
      "name": "setBurnStopAt",
      "outputs": [],
      "stateMutability": "nonpayable",
      "type": "function"
    },
    {
      "inputs": [
        {
          "internalType": "uint256",
          "name": "lpDividendFirstAt",
          "type": "uint256"
        },
        {
          "internalType": "uint256",
          "name": "lpDividendSecondAt",
          "type": "uint256"
        },
        {
          "internalType": "uint256",
          "name": "holdDividendAt",
          "type": "uint256"
        }
      ],
      "name": "setDividendAt",
      "outputs": [],
      "stateMutability": "nonpayable",
      "type": "function"
    },
    {
      "inputs": [
        {
          "internalType": "address",
          "name": "account",
          "type": "address"
        }
      ],
      "name": "setExcludelpAddress",
      "outputs": [],
      "stateMutability": "nonpayable",
      "type": "function"
    },
    {
      "inputs": [
        {
          "internalType": "uint256",
          "name": "lpFeeRate",
          "type": "uint256"
        },
        {
          "internalType": "uint256",
          "name": "lp2FeeRate",
          "type": "uint256"
        },
        {
          "internalType": "uint256",
          "name": "burnFeeRate",
          "type": "uint256"
        },
        {
          "internalType": "uint256",
          "name": "holderFeeRate",
          "type": "uint256"
        },
        {
          "internalType": "uint256",
          "name": "backFeeRate",
          "type": "uint256"
        },
        {
          "internalType": "uint256",
          "name": "marketFeeRate",
          "type": "uint256"
        }
      ],
      "name": "setFeeRate",
      "outputs": [],
      "stateMutability": "nonpayable",
      "type": "function"
    },
    {
      "inputs": [
        {
          "internalType": "address",
          "name": "account",
          "type": "address"
        }
      ],
      "name": "setMarketingWalletAddress",
      "outputs": [],
      "stateMutability": "nonpayable",
      "type": "function"
    },
    {
      "inputs": [
        {
          "internalType": "uint256",
          "name": "rewardBaseLPFirst",
          "type": "uint256"
        },
        {
          "internalType": "uint256",
          "name": "rewardBaseLPSecond",
          "type": "uint256"
        },
        {
          "internalType": "uint256",
          "name": "rewardBaseHolder",
          "type": "uint256"
        }
      ],
      "name": "setRewardBase",
      "outputs": [],
      "stateMutability": "nonpayable",
      "type": "function"
    },
    {
      "inputs": [
        {
          "internalType": "address",
          "name": "dot",
          "type": "address"
        },
        {
          "internalType": "address",
          "name": "shib",
          "type": "address"
        }
      ],
      "name": "setRewardToken",
      "outputs": [],
      "stateMutability": "nonpayable",
      "type": "function"
    },
    {
      "inputs": [
        {
          "internalType": "uint256",
          "name": "swapAt",
          "type": "uint256"
        }
      ],
      "name": "setSwapAt",
      "outputs": [],
      "stateMutability": "nonpayable",
      "type": "function"
    },
    {
      "inputs": [
        {
          "internalType": "bool",
          "name": "_enabled",
          "type": "bool"
        }
      ],
      "name": "setSwapEnabled",
      "outputs": [],
      "stateMutability": "nonpayable",
      "type": "function"
    },
    {
      "inputs": [
        {
          "internalType": "address",
          "name": "account",
          "type": "address"
        }
      ],
      "name": "setTakeFeeWallet",
      "outputs": [],
      "stateMutability": "nonpayable",
      "type": "function"
    },
    {
      "inputs": [
        {
          "internalType": "bool",
          "name": "flag",
          "type": "bool"
        }
      ],
      "name": "setTsDividendEnabled",
      "outputs": [],
      "stateMutability": "nonpayable",
      "type": "function"
    },
    {
      "inputs": [
        {
          "internalType": "address",
          "name": "addr",
          "type": "address"
        }
      ],
      "name": "setUniswapV2Pair",
      "outputs": [],
      "stateMutability": "nonpayable",
      "type": "function"
    },
    {
      "inputs": [],
      "name": "swapEnabled",
      "outputs": [
        {
          "internalType": "bool",
          "name": "",
          "type": "bool"
        }
      ],
      "stateMutability": "view",
      "type": "function"
    },
    {
      "inputs": [
        {
          "internalType": "uint256",
          "name": "tokenAmount",
          "type": "uint256"
        }
      ],
      "name": "swapTokensFor2ETH",
      "outputs": [],
      "stateMutability": "nonpayable",
      "type": "function"
    },
    {
      "inputs": [
        {
          "internalType": "uint256",
          "name": "tokenAmount",
          "type": "uint256"
        },
        {
          "internalType": "address",
          "name": "outToken",
          "type": "address"
        }
      ],
      "name": "swapTokensFor3Tokens",
      "outputs": [],
      "stateMutability": "nonpayable",
      "type": "function"
    },
    {
      "inputs": [],
      "name": "symbol",
      "outputs": [
        {
          "internalType": "string",
          "name": "",
          "type": "string"
        }
      ],
      "stateMutability": "view",
      "type": "function"
    },
    {
      "inputs": [],
      "name": "takeBackCtl",
      "outputs": [],
      "stateMutability": "nonpayable",
      "type": "function"
    },
    {
      "inputs": [],
      "name": "takeFee",
      "outputs": [],
      "stateMutability": "nonpayable",
      "type": "function"
    },
    {
      "inputs": [],
      "name": "totalSupply",
      "outputs": [
        {
          "internalType": "uint256",
          "name": "",
          "type": "uint256"
        }
      ],
      "stateMutability": "view",
      "type": "function"
    },
    {
      "inputs": [],
      "name": "tradingEnabledTimestamp",
      "outputs": [
        {
          "internalType": "uint256",
          "name": "",
          "type": "uint256"
        }
      ],
      "stateMutability": "view",
      "type": "function"
    },
    {
      "inputs": [
        {
          "internalType": "address",
          "name": "to",
          "type": "address"
        },
        {
          "internalType": "uint256",
          "name": "amount",
          "type": "uint256"
        }
      ],
      "name": "transfer",
      "outputs": [
        {
          "internalType": "bool",
          "name": "",
          "type": "bool"
        }
      ],
      "stateMutability": "nonpayable",
      "type": "function"
    },
    {
      "inputs": [
        {
          "internalType": "address",
          "name": "from",
          "type": "address"
        },
        {
          "internalType": "address",
          "name": "to",
          "type": "address"
        },
        {
          "internalType": "uint256",
          "name": "amount",
          "type": "uint256"
        }
      ],
      "name": "transferFrom",
      "outputs": [
        {
          "internalType": "bool",
          "name": "",
          "type": "bool"
        }
      ],
      "stateMutability": "nonpayable",
      "type": "function"
    },
    {
      "inputs": [
        {
          "internalType": "address",
          "name": "newOwner",
          "type": "address"
        }
      ],
      "name": "transferOwnership",
      "outputs": [],
      "stateMutability": "nonpayable",
      "type": "function"
    },
    {
      "inputs": [],
      "name": "tsDividendEnabled",
      "outputs": [
        {
          "internalType": "bool",
          "name": "",
          "type": "bool"
        }
      ],
      "stateMutability": "view",
      "type": "function"
    },
    {
      "inputs": [],
      "name": "uniswapV2Pair",
      "outputs": [
        {
          "internalType": "address",
          "name": "",
          "type": "address"
        }
      ],
      "stateMutability": "view",
      "type": "function"
    },
    {
      "inputs": [],
      "name": "uniswapV2Router",
      "outputs": [
        {
          "internalType": "contract IUniswapV2Router02",
          "name": "",
          "type": "address"
        }
      ],
      "stateMutability": "view",
      "type": "function"
    },
    {
      "inputs": [
        {
          "internalType": "uint256",
          "name": "newValue",
          "type": "uint256"
        }
      ],
      "name": "updateGasForProcessing",
      "outputs": [],
      "stateMutability": "nonpayable",
      "type": "function"
    },
    {
      "inputs": [
        {
          "internalType": "address",
          "name": "newImplementation",
          "type": "address"
        }
      ],
      "name": "upgradeTo",
      "outputs": [],
      "stateMutability": "nonpayable",
      "type": "function"
    },
    {
      "inputs": [
        {
          "internalType": "address",
          "name": "newImplementation",
          "type": "address"
        },
        {
          "internalType": "bytes",
          "name": "data",
          "type": "bytes"
        }
      ],
      "name": "upgradeToAndCall",
      "outputs": [],
      "stateMutability": "payable",
      "type": "function"
    },
    {
      "stateMutability": "payable",
      "type": "receive"
    }
  ],
  "bytecode": "0x60a06040523060601b6080523480156200001857600080fd5b50600054610100900460ff16620000365760005460ff161562000040565b62000040620000e5565b620000a85760405162461bcd60e51b815260206004820152602e60248201527f496e697469616c697a61626c653a20636f6e747261637420697320616c72656160448201526d191e481a5b9a5d1a585b1a5e995960921b606482015260840160405180910390fd5b600054610100900460ff16158015620000cb576000805461ffff19166101011790555b8015620000de576000805461ff00191690555b5062000112565b6000620000fd306200010360201b62002c061760201c565b15905090565b6001600160a01b03163b151590565b60805160601c6149486200014d6000396000818161168e015281816116ce015281816118d5015281816119150152611a2301526149486000f3fe6080604052600436106104095760003560e01c80636ddd171311610213578063baa856bc11610123578063dede5f45116100ab578063e5c8c5721161007a578063e5c8c57214610bfb578063eb7b70f114610c1b578063f2fde38b14610c31578063f60a515a14610c51578063fcfd826914610c7257610410565b8063dede5f4514610b8d578063e01af92c14610ba4578063e0fb2c0514610bc4578063e253f87b14610bdb57610410565b8063d1b5da87116100f2578063d1b5da8714610ac0578063d4780e3614610ad5578063d5a849e914610b10578063dad3719514610b30578063dd62ed3e14610b4757610410565b8063baa856bc14610a53578063bdde32d614610a69578063cc99498c14610a80578063ced0d31d14610aa057610410565b806394807628116101a6578063a9059cbb11610175578063a9059cbb146109b5578063ad37394c146109d5578063b2131f7d146109f4578063b471480214610a0b578063b62496f514610a2257610410565b8063948076281461094957806395d89b4114610960578063a29a608914610975578063a457c2d71461099557610410565b80638129fc1c116101e25780638129fc1c146108d557806385141a77146108ea578063871c128d1461090b5780638da5cb5b1461092b57610410565b80636ddd1713146108665780636eea6fa61461088057806370a08231146108a0578063715018a6146108c057610410565b806339509351116103195780634d33b1ef116102a157806350a71e7d1161027057806350a71e7d146107a957806352d1902d146107c95780635c04ac94146107de5780635dbe47e8146107fe5780635f4fe8791461081e57610410565b80634d33b1ef146107485780634f1ef286146107615780634f21869c146107745780634f3e01bc1461078957610410565b80634144d9e4116102e85780634144d9e4146106af578063443b4126146106d057806349bd5a5e146106f05780634c0a38b5146107115780634cb80fd51461072857610410565b806339509351146106415780633df6be61146106615780633e67d66b1461067857806340704b361461068f57610410565b8063181aa1fd1161039c5780633009a6091161036b5780633009a609146105b7578063313ce567146105ce57806333b3cd82146105ea5780633659cfe614610601578063392d26811461062157610410565b8063181aa1fd1461053a5780631cdd3be31461054f57806323b872dd1461058057806325b61703146105a057610410565b80630ff8cf9b116103d85780630ff8cf9b146104b7578063153b0d1e146104cc5780631694505e146104ec57806318160ddd1461052557610410565b806306fdde03146104155780630835a62514610440578063095ea7b3146104655780630b36ea461461049557610410565b3661041057005b600080fd5b34801561042157600080fd5b5061042a610c89565b6040516104379190614455565b60405180910390f35b34801561044c57600080fd5b506104576101055481565b604051908152602001610437565b34801561047157600080fd5b506104856104803660046142ba565b610d1b565b6040519015158152602001610437565b3480156104a157600080fd5b506104b56104b0366004614335565b610d35565b005b3480156104c357600080fd5b506104b5610ebd565b3480156104d857600080fd5b506104b56104e73660046141ce565b6113af565b3480156104f857600080fd5b506101155461050d906001600160a01b031681565b6040516001600160a01b039091168152602001610437565b34801561053157600080fd5b50603554610457565b34801561054657600080fd5b506104b561140e565b34801561055b57600080fd5b5061048561056a36600461411e565b6101166020526000908152604090205460ff1681565b34801561058c57600080fd5b5061048561059b36600461418e565b61165d565b3480156105ac57600080fd5b5061045761011a5481565b3480156105c357600080fd5b5061045761010d5481565b3480156105da57600080fd5b5060405160128152602001610437565b3480156105f657600080fd5b506104576101085481565b34801561060d57600080fd5b506104b561061c36600461411e565b611683565b34801561062d57600080fd5b506104b561063c36600461411e565b611760565b34801561064d57600080fd5b5061048561065c3660046142ba565b6117ad565b34801561066d57600080fd5b506104576101005481565b34801561068457600080fd5b506104576101045481565b34801561069b57600080fd5b506104b56106aa36600461411e565b6117ec565b3480156106bb57600080fd5b5061010f5461050d906001600160a01b031681565b3480156106dc57600080fd5b506104b56106eb3660046142e5565b611839565b3480156106fc57600080fd5b5061010e5461050d906001600160a01b031681565b34801561071d57600080fd5b506104576101095481565b34801561073457600080fd5b506104b561074336600461411e565b61187d565b34801561075457600080fd5b5061011a54421015610485565b6104b561076f3660046141fb565b6118ca565b34801561078057600080fd5b5061045761199b565b34801561079557600080fd5b506104b56107a4366004614335565b6119ac565b3480156107b557600080fd5b506104b56107c4366004614371565b6119db565b3480156107d557600080fd5b50610457611a16565b3480156107ea57600080fd5b506104b56107f9366004614335565b611ac9565b34801561080a57600080fd5b5061048561081936600461411e565b611af8565b34801561082a57600080fd5b5061083e61083936600461411e565b611b05565b604080519586526020860194909452928401919091526060830152608082015260a001610437565b34801561087257600080fd5b5060fd546104859060ff1681565b34801561088c57600080fd5b506104b561089b366004614371565b611d40565b3480156108ac57600080fd5b506104576108bb36600461411e565b611d7b565b3480156108cc57600080fd5b506104b5611d96565b3480156108e157600080fd5b506104b5611ddd565b3480156108f657600080fd5b506101145461050d906001600160a01b031681565b34801561091757600080fd5b506104b5610926366004614335565b61227b565b34801561093757600080fd5b5060c9546001600160a01b031661050d565b34801561095557600080fd5b506104576101025481565b34801561096c57600080fd5b5061042a6123ac565b34801561098157600080fd5b506104b561099036600461411e565b6123bb565b3480156109a157600080fd5b506104856109b03660046142ba565b612421565b3480156109c157600080fd5b506104856109d03660046142ba565b6124be565b3480156109e157600080fd5b5060fd5461048590610100900460ff1681565b348015610a0057600080fd5b506104576101065481565b348015610a1757600080fd5b506104576101015481565b348015610a2e57600080fd5b50610485610a3d36600461411e565b6101176020526000908152604090205460ff1681565b348015610a5f57600080fd5b5061045760fe5481565b348015610a7557600080fd5b506104576101035481565b348015610a8c57600080fd5b506104b5610a9b36600461434d565b6124cc565b348015610aac57600080fd5b506104b5610abb3660046143c9565b612699565b348015610acc57600080fd5b506104b56126e6565b348015610ae157600080fd5b50610af5610af0366004614335565b61271d565b60408051938452602084019290925290820152606001610437565b348015610b1c57600080fd5b50610af5610b2b36600461411e565b612768565b348015610b3c57600080fd5b5061045761010b5481565b348015610b5357600080fd5b50610457610b62366004614156565b6001600160a01b03918216600090815260346020908152604080832093909416825291909152205490565b348015610b9957600080fd5b506104576101075481565b348015610bb057600080fd5b506104b5610bbf3660046142e5565b61287d565b348015610bd057600080fd5b5061045761010a5481565b348015610be757600080fd5b5061050d610bf6366004614335565b6128ba565b348015610c0757600080fd5b506104b5610c16366004614156565b6128c7565b348015610c2757600080fd5b5061045760ff5481565b348015610c3d57600080fd5b506104b5610c4c36600461411e565b612b6e565b348015610c5d57600080fd5b506101105461050d906001600160a01b031681565b348015610c7e57600080fd5b5061045761010c5481565b606060368054610c9890614806565b80601f0160208091040260200160405190810160405280929190818152602001828054610cc490614806565b8015610d115780601f10610ce657610100808354040283529160200191610d11565b820191906000526020600020905b815481529060010190602001808311610cf457829003601f168201915b5050505050905090565b600033610d29818585612c15565b60019150505b92915050565b6040805160028082526060820183526000926020830190803683370190505090503081600081518110610d7857634e487b7160e01b600052603260045260246000fd5b6001600160a01b0392831660209182029290920181019190915261011554604080516315ab88c960e31b81529051919093169263ad5c4648926004808301939192829003018186803b158015610dcd57600080fd5b505afa158015610de1573d6000803e3d6000fd5b505050506040513d601f19601f82011682018060405250810190610e05919061413a565b81600181518110610e2657634e487b7160e01b600052603260045260246000fd5b6001600160a01b03928316602091820292909201015261011554610e4d9130911684612c15565b6101155460405163791ac94760e01b81526001600160a01b039091169063791ac94790610e879085906000908690309042906004016145e5565b600060405180830381600087803b158015610ea157600080fd5b505af1158015610eb5573d6000803e3d6000fd5b505050505050565b610113546000610ecd60fb612d39565b905080610edb5750506113ad565b61010d546000805a61010e54610110546040516370a0823160e01b81526001600160a01b039182166004820152929350600092839291909116906370a082319060240160206040518083038186803b158015610f3657600080fd5b505afa158015610f4a573d6000803e3d6000fd5b505050506040513d601f19601f82011682018060405250810190610f6e919061431d565b905060006110038261010e60009054906101000a90046001600160a01b03166001600160a01b03166318160ddd6040518163ffffffff1660e01b815260040160206040518083038186803b158015610fc557600080fd5b505afa158015610fd9573d6000803e3d6000fd5b505050506040513d601f19601f82011682018060405250810190610ffd919061431d565b90612d43565b90505b878510801561101457508683105b1561139e578261102381614841565b93505061103060fb612d39565b861061103b57600095505b600061104860fb88612d4f565b90506000806000806101095461105d86611d7b565b10611085576110828661107c61107288611d7b565b61010c5490612d5b565b90612d67565b92505b61108e85611b05565b61010754949850919650945092505084106110c0576110bd8661107c6110b388611d7b565b61010a5490612d5b565b91505b6101085484106110e7576110e48661107c6110da88611d7b565b61010b5490612d5b565b90505b610119546040516370a0823160e01b81523060048201526001600160a01b03909116906370a082319060240160206040518083038186803b15801561112b57600080fd5b505afa15801561113f573d6000803e3d6000fd5b505050506040513d601f19601f82011682018060405250810190611163919061431d565b83118061116f57504781115b806111f45750610118546040516370a0823160e01b81523060048201526001600160a01b03909116906370a082319060240160206040518083038186803b1580156111b957600080fd5b505afa1580156111cd573d6000803e3d6000fd5b505050506040513d601f19601f820116820180604052508101906111f1919061431d565b82115b1561120357505050505061139e565b8015611241576040516001600160a01b0386169082156108fc029083906000818181858888f1935050505015801561123f573d6000803e3d6000fd5b505b81156112d0576101185460405163a9059cbb60e01b81526001600160a01b038781166004830152602482018590529091169063a9059cbb90604401602060405180830381600087803b15801561129657600080fd5b505af11580156112aa573d6000803e3d6000fd5b505050506040513d601f19601f820116820180604052508101906112ce9190614301565b505b821561135f576101195460405163a9059cbb60e01b81526001600160a01b038781166004830152602482018690529091169063a9059cbb90604401602060405180830381600087803b15801561132557600080fd5b505af1158015611339573d6000803e3d6000fd5b505050506040513d601f19601f8201168201806040525081019061135d9190614301565b505b60005a9050808a1115611383576113806113798b83612d43565b8c90612d73565b9a505b9850888b61139081614841565b9c5050505050505050611006565b50505061010d92909255505050505b565b60c9546001600160a01b031633146113e25760405162461bcd60e51b81526004016113d990614520565b60405180910390fd5b6001600160a01b0391909116600090815261011660205260409020805460ff1916911515919091179055565b61011854610112546040516370a0823160e01b81523060048201526001600160a01b039283169263a9059cbb92169083906370a082319060240160206040518083038186803b15801561146057600080fd5b505afa158015611474573d6000803e3d6000fd5b505050506040513d601f19601f82011682018060405250810190611498919061431d565b6040516001600160e01b031960e085901b1681526001600160a01b0390921660048301526024820152604401602060405180830381600087803b1580156114de57600080fd5b505af11580156114f2573d6000803e3d6000fd5b505050506040513d601f19601f820116820180604052508101906115169190614301565b5061011954610112546040516370a0823160e01b81523060048201526001600160a01b039283169263a9059cbb92169083906370a082319060240160206040518083038186803b15801561156957600080fd5b505afa15801561157d573d6000803e3d6000fd5b505050506040513d601f19601f820116820180604052508101906115a1919061431d565b6040516001600160e01b031960e085901b1681526001600160a01b0390921660048301526024820152604401602060405180830381600087803b1580156115e757600080fd5b505af11580156115fb573d6000803e3d6000fd5b505050506040513d601f19601f8201168201806040525081019061161f9190614301565b50610112546040516001600160a01b03909116904780156108fc02916000818181858888f1935050505015801561165a573d6000803e3d6000fd5b50565b60003361166b858285612d7f565b611676858585612e11565b60019150505b9392505050565b306001600160a01b037f00000000000000000000000000000000000000000000000000000000000000001614156116cc5760405162461bcd60e51b81526004016113d990614488565b7f00000000000000000000000000000000000000000000000000000000000000006001600160a01b03166117156000805160206148ac833981519152546001600160a01b031690565b6001600160a01b03161461173b5760405162461bcd60e51b81526004016113d9906144d4565b61174481613593565b6040805160008082526020820190925261165a918391906135bd565b60c9546001600160a01b0316331461178a5760405162461bcd60e51b81526004016113d990614520565b61011280546001600160a01b0319166001600160a01b0392909216919091179055565b3360008181526034602090815260408083206001600160a01b0387168452909152812054909190610d2990829086906117e7908790614655565b612c15565b60c9546001600160a01b031633146118165760405162461bcd60e51b81526004016113d990614520565b61011080546001600160a01b0319166001600160a01b0392909216919091179055565b60c9546001600160a01b031633146118635760405162461bcd60e51b81526004016113d990614520565b60fd80549115156101000261ff0019909216919091179055565b60c9546001600160a01b031633146118a75760405162461bcd60e51b81526004016113d990614520565b61010f80546001600160a01b0319166001600160a01b0392909216919091179055565b306001600160a01b037f00000000000000000000000000000000000000000000000000000000000000001614156119135760405162461bcd60e51b81526004016113d990614488565b7f00000000000000000000000000000000000000000000000000000000000000006001600160a01b031661195c6000805160206148ac833981519152546001600160a01b031690565b6001600160a01b0316146119825760405162461bcd60e51b81526004016113d9906144d4565b61198b82613593565b611997828260016135bd565b5050565b60006119a760fb612d39565b905090565b60c9546001600160a01b031633146119d65760405162461bcd60e51b81526004016113d990614520565b60fe55565b60c9546001600160a01b03163314611a055760405162461bcd60e51b81526004016113d990614520565b610107929092556101085561010955565b6000306001600160a01b037f00000000000000000000000000000000000000000000000000000000000000001614611ab65760405162461bcd60e51b815260206004820152603860248201527f555550535570677261646561626c653a206d757374206e6f742062652063616c60448201527f6c6564207468726f7567682064656c656761746563616c6c000000000000000060648201526084016113d9565b506000805160206148ac83398151915290565b60c9546001600160a01b03163314611af35760405162461bcd60e51b81526004016113d990614520565b60ff55565b6000610d2f60fb83613737565b61010e54610110546040516370a0823160e01b81526001600160a01b039182166004820152600092839283928392839283929116906370a082319060240160206040518083038186803b158015611b5b57600080fd5b505afa158015611b6f573d6000803e3d6000fd5b505050506040513d601f19601f82011682018060405250810190611b93919061431d565b90506000611bea8261010e60009054906101000a90046001600160a01b03166001600160a01b03166318160ddd6040518163ffffffff1660e01b815260040160206040518083038186803b158015610fc557600080fd5b61010e546040516370a0823160e01b81526001600160a01b038b81166004830152929350600092909116906370a082319060240160206040518083038186803b158015611c3657600080fd5b505afa158015611c4a573d6000803e3d6000fd5b505050506040513d601f19601f82011682018060405250810190611c6e919061431d565b9050600080600080611c8b611c8260355490565b61107c8f611d7b565b905061010954611c9a8e611d7b565b10611cca576000611caa8e611d7b565b9050611cc6611cb860355490565b61010c5461107c9084612d5b565b9450505b6000611cdc8761107c88612710612d5b565b9050610107548110611d0557611d028761107c8861010a54612d5b90919063ffffffff16565b93505b610108548110611d2c57611d298761107c8861010b54612d5b90919063ffffffff16565b92505b9d909c50929a509098509650945050505050565b60c9546001600160a01b03163314611d6a5760405162461bcd60e51b81526004016113d990614520565b61010a9290925561010b5561010c55565b6001600160a01b031660009081526033602052604090205490565b60c9546001600160a01b03163314611dc05760405162461bcd60e51b81526004016113d990614520565b61011180546001600160a01b031916331790556113ad6000613759565b600054610100900460ff16611df85760005460ff1615611dfc565b303b155b611e5f5760405162461bcd60e51b815260206004820152602e60248201527f496e697469616c697a61626c653a20636f6e747261637420697320616c72656160448201526d191e481a5b9a5d1a585b1a5e995960921b60648201526084016113d9565b600054610100900460ff16158015611e81576000805461ffff19166101011790555b60fd805461ffff1916610101179055604080518082018252600a81526925bab0b33a9021b7b4b760b11b60208083019190915282518084019093526005835264444f54545960d81b90830152611ed6916137ab565b611ede6137dc565b611ee661380b565b611f0733611ef66012600a6146d3565b611f02906156ce6147a4565b613832565b611f136012600a6146d3565b611f1f906108ae6147a4565b60fe55610190610100819055606461010181905560326101028190556101038290556101048190556101058290556175306101135590918290611f63908290614655565b611f6d9190614655565b611f779190614655565b611f819190614655565b6101065561011580546001600160a01b03191673d99d1c33f9fc3444f8101754abc46c52416550d19081179091556040805163c45a015560e01b8152905163c45a015591600480820192602092909190829003018186803b158015611fe557600080fd5b505afa158015611ff9573d6000803e3d6000fd5b505050506040513d601f19601f8201168201806040525081019061201d919061413a565b6001600160a01b031663c9c653963061011560009054906101000a90046001600160a01b03166001600160a01b031663ad5c46486040518163ffffffff1660e01b815260040160206040518083038186803b15801561207b57600080fd5b505afa15801561208f573d6000803e3d6000fd5b505050506040513d601f19601f820116820180604052508101906120b3919061413a565b6040516001600160e01b031960e085901b1681526001600160a01b03928316600482015291166024820152604401602060405180830381600087803b1580156120fb57600080fd5b505af115801561210f573d6000803e3d6000fd5b505050506040513d601f19601f82011682018060405250810190612133919061413a565b61010e80546001600160a01b03929092166001600160a01b0319928316811790915560005261011760205261011880548216737ef95a0fee0dd31b22626fa2e10ee6a223f8a68417905561011980549091167378867bbeef44f2326bf8ddd1941a4439382ef2a71790556121a5601290565b6121b090600a6146d3565b6121bb9060056147a4565b60ff5560c95461011080546001600160a01b039092166001600160a01b031992831617905561011280548216905561010f80549091166001179055671bc16d674ec8000061010a55670de0b6b3a764000061010b556a084595161401484a00000061010c55606e610107556101f461010855601261223a90600a6146d3565b6122459060056147a4565b6101095561011480546001600160a01b03191661dead17905563610d406061011a55801561165a576000805461ff001916905550565b60c9546001600160a01b031633146122a55760405162461bcd60e51b81526004016113d990614520565b62030d4081101580156122bb57506207a1208111155b61232d5760405162461bcd60e51b815260206004820152603f60248201527f526564436865436f696e20676173466f7250726f63657373696e67206d75737460448201527f206265206265747765656e203230302c30303020616e64203530302c3030300060648201526084016113d9565b610113548114156123a65760405162461bcd60e51b815260206004820152603760248201527f526564436865436f696e2043616e6e6f742075706461746520676173466f725060448201527f726f63657373696e6720746f2073616d652076616c756500000000000000000060648201526084016113d9565b61011355565b606060378054610c9890614806565b60c9546001600160a01b031633146123e55760405162461bcd60e51b81526004016113d990614520565b61010e80546001600160a01b039092166001600160a01b031990921682179055600090815261011760205260409020805460ff19166001179055565b3360008181526034602090815260408083206001600160a01b0387168452909152812054909190838110156124a65760405162461bcd60e51b815260206004820152602560248201527f45524332303a2064656372656173656420616c6c6f77616e63652062656c6f77604482015264207a65726f60d81b60648201526084016113d9565b6124b38286868403612c15565b506001949350505050565b600033610d29818585612e11565b6040805160038082526080820190925260009160208201606080368337019050509050308160008151811061251157634e487b7160e01b600052603260045260246000fd5b6001600160a01b0392831660209182029290920181019190915261011554604080516315ab88c960e31b81529051919093169263ad5c4648926004808301939192829003018186803b15801561256657600080fd5b505afa15801561257a573d6000803e3d6000fd5b505050506040513d601f19601f8201168201806040525081019061259e919061413a565b816001815181106125bf57634e487b7160e01b600052603260045260246000fd5b60200260200101906001600160a01b031690816001600160a01b031681525050818160028151811061260157634e487b7160e01b600052603260045260246000fd5b6001600160a01b039283166020918202929092010152610115546126289130911685612c15565b61011554604051635c11d79560e01b81526001600160a01b0390911690635c11d795906126629086906000908690309042906004016145e5565b600060405180830381600087803b15801561267c57600080fd5b505af1158015612690573d6000803e3d6000fd5b50505050505050565b60c9546001600160a01b031633146126c35760405162461bcd60e51b81526004016113d990614520565b610100959095556101019390935561010291909155610103556101045561010555565b610111546001600160a01b0316336001600160a01b03161461270757600080fd5b610111546113ad906001600160a01b0316613759565b60008060008061273f61271061107c6101065488612d5b90919063ffffffff16565b9050600061274d8683612d43565b905061275d81610ffd8885612d43565b969195509350915050565b610118546040516370a0823160e01b81526001600160a01b038381166004830181905260009384938493923192909116906370a082319060240160206040518083038186803b1580156127ba57600080fd5b505afa1580156127ce573d6000803e3d6000fd5b505050506040513d601f19601f820116820180604052508101906127f2919061431d565b610119546040516370a0823160e01b81526001600160a01b038881166004830152909116906370a082319060240160206040518083038186803b15801561283857600080fd5b505afa15801561284c573d6000803e3d6000fd5b505050506040513d601f19601f82011682018060405250810190612870919061431d565b9250925092509193909250565b60c9546001600160a01b031633146128a75760405162461bcd60e51b81526004016113d990614520565b60fd805460ff1916911515919091179055565b6000610d2f60fb83612d4f565b60c9546001600160a01b031633146128f15760405162461bcd60e51b81526004016113d990614520565b61011854610112546040516370a0823160e01b81523060048201526001600160a01b039283169263a9059cbb92169083906370a082319060240160206040518083038186803b15801561294357600080fd5b505afa158015612957573d6000803e3d6000fd5b505050506040513d601f19601f8201168201806040525081019061297b919061431d565b6040516001600160e01b031960e085901b1681526001600160a01b0390921660048301526024820152604401602060405180830381600087803b1580156129c157600080fd5b505af11580156129d5573d6000803e3d6000fd5b505050506040513d601f19601f820116820180604052508101906129f99190614301565b5061011954610112546040516370a0823160e01b81523060048201526001600160a01b039283169263a9059cbb92169083906370a082319060240160206040518083038186803b158015612a4c57600080fd5b505afa158015612a60573d6000803e3d6000fd5b505050506040513d601f19601f82011682018060405250810190612a84919061431d565b6040516001600160e01b031960e085901b1681526001600160a01b0390921660048301526024820152604401602060405180830381600087803b158015612aca57600080fd5b505af1158015612ade573d6000803e3d6000fd5b505050506040513d601f19601f82011682018060405250810190612b029190614301565b50610112546040516001600160a01b03909116904780156108fc02916000818181858888f19350505050158015612b3d573d6000803e3d6000fd5b5061011880546001600160a01b039384166001600160a01b0319918216179091556101198054929093169116179055565b60c9546001600160a01b03163314612b985760405162461bcd60e51b81526004016113d990614520565b6001600160a01b038116612bfd5760405162461bcd60e51b815260206004820152602660248201527f4f776e61626c653a206e6577206f776e657220697320746865207a65726f206160448201526564647265737360d01b60648201526084016113d9565b61165a81613759565b6001600160a01b03163b151590565b6001600160a01b038316612c775760405162461bcd60e51b8152602060048201526024808201527f45524332303a20617070726f76652066726f6d20746865207a65726f206164646044820152637265737360e01b60648201526084016113d9565b6001600160a01b038216612cd85760405162461bcd60e51b815260206004820152602260248201527f45524332303a20617070726f766520746f20746865207a65726f206164647265604482015261737360f01b60648201526084016113d9565b6001600160a01b0383811660008181526034602090815260408083209487168084529482529182902085905590518481527f8c5be1e5ebec7d5bd14f71427d1e84f3dd0314c0f7b2291e5b200ac8c7c3b925910160405180910390a3505050565b6000610d2f825490565b600061167c82846147c3565b600061167c8383613912565b600061167c82846147a4565b600061167c828461466d565b600061167c8284614655565b6001600160a01b038381166000908152603460209081526040808320938616835292905220546000198114612e0b5781811015612dfe5760405162461bcd60e51b815260206004820152601d60248201527f45524332303a20696e73756666696369656e7420616c6c6f77616e636500000060448201526064016113d9565b612e0b8484848403612c15565b50505050565b6001600160a01b038316612e375760405162461bcd60e51b81526004016113d990614555565b6001600160a01b0383166000908152610116602052604090205460ff1615612e975760405162461bcd60e51b8152602060048201526013602482015272426c61636b6c6973746564206164647265737360681b60448201526064016113d9565b61011454600160a01b900460ff1615612eba57612eb583838361394a565b61358e565b6000612ec961011a5442101590565b9050808015612eee575061010e54600090612eec906001600160a01b0316611d7b565b115b8015612f1357506001600160a01b0384166000908152610117602052604090205460ff165b8015612f2d575060c9546001600160a01b03858116911614155b8015612f365750805b8015612f50575061011a54612f4c906009614655565b4211155b15612f5e57612f5e83613ada565b60fd5460ff168015612f7b575061011454600160a01b900460ff16155b8015612f91575060ff54612f8e30611d7b565b10155b8015612f9f575061010a5447105b8015612fc557506001600160a01b0384166000908152610117602052604090205460ff16155b8015612fdf575060c9546001600160a01b03858116911614155b8015612ff9575060c9546001600160a01b03848116911614155b15613353576000805160206148f3833981519152600133868686604051613024959493929190614427565b60405180910390a16000805160206148f3833981519152600033868660ff54604051613054959493929190614427565b60405180910390a1610114805460ff60a01b1916600160a01b179055610105546101005460009161308491614655565b6101065460fe549192509061309860355490565b116130d557610102546130ab9083614655565b915061010254816130bc9190614655565b905061010254610105546130d09190614655565b610105555b60006130f08261107c8560ff54612d5b90919063ffffffff16565b90506000805160206148f3833981519152600b33898985604051613118959493929190614427565b60405180910390a1610118546131389082906001600160a01b03166124cc565b60006131568361107c6101015460ff54612d5b90919063ffffffff16565b905061316181610d35565b6000805160206148f38339815191526016338a8a85604051613187959493929190614427565b60405180910390a160006131ad8461107c6101035460ff54612d5b90919063ffffffff16565b90506000805160206148f38339815191526021338b8b856040516131d5959493929190614427565b60405180910390a1610119546131f59082906001600160a01b03166124cc565b60006132138561107c6101045460ff54612d5b90919063ffffffff16565b905061321e81613b22565b61010554610118546040516370a0823160e01b81523060048201526000926132b0928a9261107c92916001600160a01b0316906370a082319060240160206040518083038186803b15801561327257600080fd5b505afa158015613286573d6000803e3d6000fd5b505050506040513d601f19601f820116820180604052508101906132aa919061431d565b90612d5b565b6101185461010f5460405163a9059cbb60e01b81526001600160a01b03918216600482015260248101849052929350169063a9059cbb90604401602060405180830381600087803b15801561330457600080fd5b505af1158015613318573d6000803e3d6000fd5b505050506040513d601f19601f8201168201806040525081019061333c9190614301565b5050610114805460ff60a01b191690555050505050505b60ff54613361906003612d5b565b61336a30611d7b565b106133d3576000805160206148f3833981519152600233868686604051613395959493929190614427565b60405180910390a16101125460ff546133d39130916001600160a01b03909116906133ce906133c5906002612d5b565b610ffd30611d7b565b61394a565b61011454600160a01b900460ff161580156133fc575060c9546001600160a01b03858116911614155b8015613416575060c9546001600160a01b03848116911614155b8015613430575061010e546001600160a01b038481169116145b1561353b57600061345361271061107c6101065486612d5b90919063ffffffff16565b9050600061347361271061107c6101025487612d5b90919063ffffffff16565b905060fe5461348160355490565b11156134a2576134918682613b68565b61349b8482612d43565b93506134af565b6134ac8282612d73565b91505b6134b98483612d43565b93506134c686308461394a565b61010e546001600160a01b038681169116148015906134ed57506134eb60fb86613737565b155b156134ff576134fd60fb86613cb6565b505b61010e546001600160a01b03878116911614801590613526575061352460fb87613737565b155b156135385761353660fb87613cb6565b505b50505b61354684848461394a565b61011454600160a01b900460ff16612e0b576000805160206148f383398151915260033386868660405161357e959493929190614427565b60405180910390a1612e0b610ebd565b505050565b60c9546001600160a01b0316331461165a5760405162461bcd60e51b81526004016113d990614520565b7f4910fdfa16fed3260ed0e7147f7cc6da11a60208b5b9406d12a635614ffd91435460ff16156135f057612eb583613ccb565b826001600160a01b03166352d1902d6040518163ffffffff1660e01b815260040160206040518083038186803b15801561362957600080fd5b505afa925050508015613659575060408051601f3d908101601f191682019092526136569181019061431d565b60015b6136bc5760405162461bcd60e51b815260206004820152602e60248201527f45524331393637557067726164653a206e657720696d706c656d656e7461746960448201526d6f6e206973206e6f74205555505360901b60648201526084016113d9565b6000805160206148ac833981519152811461372b5760405162461bcd60e51b815260206004820152602960248201527f45524331393637557067726164653a20756e737570706f727465642070726f786044820152681a58589b195555525160ba1b60648201526084016113d9565b5061358e838383613d67565b6001600160a01b0381166000908152600183016020526040812054151561167c565b60c980546001600160a01b038381166001600160a01b0319831681179093556040519116919082907f8be0079c531659141344cd1fd0a4f28419497f9722a3daafe3b4186f6b6457e090600090a35050565b600054610100900460ff166137d25760405162461bcd60e51b81526004016113d99061459a565b6119978282613d8c565b600054610100900460ff166138035760405162461bcd60e51b81526004016113d99061459a565b6113ad613dda565b600054610100900460ff166113ad5760405162461bcd60e51b81526004016113d99061459a565b6001600160a01b0382166138885760405162461bcd60e51b815260206004820152601f60248201527f45524332303a206d696e7420746f20746865207a65726f20616464726573730060448201526064016113d9565b806035600082825461389a9190614655565b90915550506001600160a01b038216600090815260336020526040812080548392906138c7908490614655565b90915550506040518181526001600160a01b038316906000907fddf252ad1be2c89b69c2b068fc378daa952ba7f163c4a11628f55a4df523b3ef9060200160405180910390a3611997565b600082600001828154811061393757634e487b7160e01b600052603260045260246000fd5b9060005260206000200154905092915050565b6001600160a01b0383166139705760405162461bcd60e51b81526004016113d990614555565b6001600160a01b0382166139d25760405162461bcd60e51b815260206004820152602360248201527f45524332303a207472616e7366657220746f20746865207a65726f206164647260448201526265737360e81b60648201526084016113d9565b6001600160a01b03831660009081526033602052604090205481811015613a4a5760405162461bcd60e51b815260206004820152602660248201527f45524332303a207472616e7366657220616d6f756e7420657863656564732062604482015265616c616e636560d01b60648201526084016113d9565b6001600160a01b03808516600090815260336020526040808220858503905591851681529081208054849290613a81908490614655565b92505081905550826001600160a01b0316846001600160a01b03167fddf252ad1be2c89b69c2b068fc378daa952ba7f163c4a11628f55a4df523b3ef84604051613acd91815260200190565b60405180910390a3612e0b565b6001600160a01b0381166000908152610116602052604090205460ff1661165a576001600160a01b038116600090815261011660205260409020805460ff1916600117905550565b6000613b2f826002612d67565b90506000613b3d8383612d43565b905047613b4983610d35565b6000613b554783612d43565b9050613b618382613e0a565b5050505050565b6001600160a01b038216613bc85760405162461bcd60e51b815260206004820152602160248201527f45524332303a206275726e2066726f6d20746865207a65726f206164647265736044820152607360f81b60648201526084016113d9565b6001600160a01b03821660009081526033602052604090205481811015613c3c5760405162461bcd60e51b815260206004820152602260248201527f45524332303a206275726e20616d6f756e7420657863656564732062616c616e604482015261636560f01b60648201526084016113d9565b6001600160a01b0383166000908152603360205260408120838303905560358054849290613c6b9084906147c3565b90915550506040518281526000906001600160a01b038516907fddf252ad1be2c89b69c2b068fc378daa952ba7f163c4a11628f55a4df523b3ef9060200160405180910390a361358e565b600061167c836001600160a01b038416613ec9565b6001600160a01b0381163b613d385760405162461bcd60e51b815260206004820152602d60248201527f455243313936373a206e657720696d706c656d656e746174696f6e206973206e60448201526c1bdd08184818dbdb9d1c9858dd609a1b60648201526084016113d9565b6000805160206148ac83398151915280546001600160a01b0319166001600160a01b0392909216919091179055565b613d7083613f18565b600082511180613d7d5750805b1561358e57612e0b8383613f58565b600054610100900460ff16613db35760405162461bcd60e51b81526004016113d99061459a565b8151613dc6906036906020850190614085565b50805161358e906037906020840190614085565b600054610100900460ff16613e015760405162461bcd60e51b81526004016113d99061459a565b6113ad33613759565b61011554613e239030906001600160a01b031684612c15565b610115546101145460405163f305d71960e01b81523060048201526024810185905260006044820181905260648201526001600160a01b0391821660848201524260a482015291169063f305d71990839060c4016060604051808303818588803b158015613e9057600080fd5b505af1158015613ea4573d6000803e3d6000fd5b50505050506040513d601f19601f82011682018060405250810190613b61919061439c565b6000818152600183016020526040812054613f1057508154600181810184556000848152602080822090930184905584548482528286019093526040902091909155610d2f565b506000610d2f565b613f2181613ccb565b6040516001600160a01b038216907fbc7cd75a20ee27fd9adebab32041f755214dbc6bffa90cc0225b39da2e5c2d3b90600090a250565b60606001600160a01b0383163b613fc05760405162461bcd60e51b815260206004820152602660248201527f416464726573733a2064656c65676174652063616c6c20746f206e6f6e2d636f6044820152651b9d1c9858dd60d21b60648201526084016113d9565b600080846001600160a01b031684604051613fdb919061440b565b600060405180830381855af49150503d8060008114614016576040519150601f19603f3d011682016040523d82523d6000602084013e61401b565b606091505b509150915061404382826040518060600160405280602781526020016148cc6027913961404c565b95945050505050565b6060831561405b57508161167c565b82511561406b5782518084602001fd5b8160405162461bcd60e51b81526004016113d99190614455565b82805461409190614806565b90600052602060002090601f0160209004810192826140b357600085556140f9565b82601f106140cc57805160ff19168380011785556140f9565b828001600101855582156140f9579182015b828111156140f95782518255916020019190600101906140de565b50614105929150614109565b5090565b5b80821115614105576000815560010161410a565b60006020828403121561412f578081fd5b813561167c81614888565b60006020828403121561414b578081fd5b815161167c81614888565b60008060408385031215614168578081fd5b823561417381614888565b9150602083013561418381614888565b809150509250929050565b6000806000606084860312156141a2578081fd5b83356141ad81614888565b925060208401356141bd81614888565b929592945050506040919091013590565b600080604083850312156141e0578182fd5b82356141eb81614888565b915060208301356141838161489d565b6000806040838503121561420d578182fd5b823561421881614888565b9150602083013567ffffffffffffffff80821115614234578283fd5b818501915085601f830112614247578283fd5b81358181111561425957614259614872565b604051601f8201601f19908116603f0116810190838211818310171561428157614281614872565b81604052828152886020848701011115614299578586fd5b82602086016020830137856020848301015280955050505050509250929050565b600080604083850312156142cc578182fd5b82356142d781614888565b946020939093013593505050565b6000602082840312156142f6578081fd5b813561167c8161489d565b600060208284031215614312578081fd5b815161167c8161489d565b60006020828403121561432e578081fd5b5051919050565b600060208284031215614346578081fd5b5035919050565b6000806040838503121561435f578182fd5b82359150602083013561418381614888565b600080600060608486031215614385578283fd5b505081359360208301359350604090920135919050565b6000806000606084860312156143b0578283fd5b8351925060208401519150604084015190509250925092565b60008060008060008060c087890312156143e1578384fd5b505084359660208601359650604086013595606081013595506080810135945060a0013592509050565b6000825161441d8184602087016147da565b9190910192915050565b9485526001600160a01b03938416602086015291831660408501529091166060830152608082015260a00190565b60006020825282518060208401526144748160408501602087016147da565b601f01601f19169190910160400192915050565b6020808252602c908201527f46756e6374696f6e206d7573742062652063616c6c6564207468726f7567682060408201526b19195b1959d85d1958d85b1b60a21b606082015260800190565b6020808252602c908201527f46756e6374696f6e206d7573742062652063616c6c6564207468726f7567682060408201526b6163746976652070726f787960a01b606082015260800190565b6020808252818101527f4f776e61626c653a2063616c6c6572206973206e6f7420746865206f776e6572604082015260600190565b60208082526025908201527f45524332303a207472616e736665722066726f6d20746865207a65726f206164604082015264647265737360d81b606082015260800190565b6020808252602b908201527f496e697469616c697a61626c653a20636f6e7472616374206973206e6f74206960408201526a6e697469616c697a696e6760a81b606082015260800190565b600060a082018783526020878185015260a0604085015281875180845260c0860191508289019350845b818110156146345784516001600160a01b03168352938301939183019160010161460f565b50506001600160a01b03969096166060850152505050608001529392505050565b600082198211156146685761466861485c565b500190565b60008261468857634e487b7160e01b81526012600452602481fd5b500490565b80825b600180861161469f57506146ca565b8187048211156146b1576146b161485c565b808616156146be57918102915b9490941c938002614690565b94509492505050565b600061167c60001960ff8516846000826146ef5750600161167c565b816146fc5750600061167c565b8160018114614712576002811461471c57614749565b600191505061167c565b60ff84111561472d5761472d61485c565b6001841b9150848211156147435761474361485c565b5061167c565b5060208310610133831016604e8410600b841016171561477c575081810a838111156147775761477761485c565b61167c565b614789848484600161468d565b80860482111561479b5761479b61485c565b02949350505050565b60008160001904831182151516156147be576147be61485c565b500290565b6000828210156147d5576147d561485c565b500390565b60005b838110156147f55781810151838201526020016147dd565b83811115612e0b5750506000910152565b600181811c9082168061481a57607f821691505b6020821081141561483b57634e487b7160e01b600052602260045260246000fd5b50919050565b60006000198214156148555761485561485c565b5060010190565b634e487b7160e01b600052601160045260246000fd5b634e487b7160e01b600052604160045260246000fd5b6001600160a01b038116811461165a57600080fd5b801515811461165a57600080fdfe360894a13ba1a3210667c828492db98dca3e2076cc3735a920a3ca505d382bbc416464726573733a206c6f772d6c6576656c2064656c65676174652063616c6c206661696c6564e89405beace6906fadfd6504de4b4906aa76048e3b9c0669d76e08c541115d5fa2646970667358221220eb1a7874c40ec71a72641e2860d76dc6814ccd7668ae74eb5da525b7c422553064736f6c63430008030033",
  "linkReferences": {},
  "deployedLinkReferences": {}
}