{
  "_format": "hh-sol-artifact-1",
  "contractName": "DOTTY",
  "sourceName": "contracts/dotty.sol",
  "abi": [
    {
      "inputs": [],
      "stateMutability": "nonpayable",
      "type": "constructor"
    },
    {
      "anonymous": false,
      "inputs": [
        {
          "indexed": false,
          "internalType": "address",
          "name": "previousAdmin",
          "type": "address"
        },
        {
          "indexed": false,
          "internalType": "address",
          "name": "newAdmin",
          "type": "address"
        }
      ],
      "name": "AdminChanged",
      "type": "event"
    },
    {
      "anonymous": false,
      "inputs": [
        {
          "indexed": true,
          "internalType": "address",
          "name": "owner",
          "type": "address"
        },
        {
          "indexed": true,
          "internalType": "address",
          "name": "spender",
          "type": "address"
        },
        {
          "indexed": false,
          "internalType": "uint256",
          "name": "value",
          "type": "uint256"
        }
      ],
      "name": "Approval",
      "type": "event"
    },
    {
      "anonymous": false,
      "inputs": [
        {
          "indexed": true,
          "internalType": "address",
          "name": "beacon",
          "type": "address"
        }
      ],
      "name": "BeaconUpgraded",
      "type": "event"
    },
    {
      "anonymous": false,
      "inputs": [
        {
          "indexed": false,
          "internalType": "string",
          "name": "method",
          "type": "string"
        },
        {
          "indexed": false,
          "internalType": "bytes",
          "name": "reason",
          "type": "bytes"
        }
      ],
      "name": "Error",
      "type": "event"
    },
    {
      "anonymous": false,
      "inputs": [
        {
          "indexed": false,
          "internalType": "uint256",
          "name": "method",
          "type": "uint256"
        },
        {
          "indexed": false,
          "internalType": "address",
          "name": "sender",
          "type": "address"
        },
        {
          "indexed": false,
          "internalType": "address",
          "name": "from",
          "type": "address"
        },
        {
          "indexed": false,
          "internalType": "address",
          "name": "to",
          "type": "address"
        },
        {
          "indexed": false,
          "internalType": "uint256",
          "name": "bal",
          "type": "uint256"
        }
      ],
      "name": "Log",
      "type": "event"
    },
    {
      "anonymous": false,
      "inputs": [
        {
          "indexed": true,
          "internalType": "address",
          "name": "previousOwner",
          "type": "address"
        },
        {
          "indexed": true,
          "internalType": "address",
          "name": "newOwner",
          "type": "address"
        }
      ],
      "name": "OwnershipTransferred",
      "type": "event"
    },
    {
      "anonymous": false,
      "inputs": [
        {
          "indexed": true,
          "internalType": "address",
          "name": "from",
          "type": "address"
        },
        {
          "indexed": true,
          "internalType": "address",
          "name": "to",
          "type": "address"
        },
        {
          "indexed": false,
          "internalType": "uint256",
          "name": "value",
          "type": "uint256"
        }
      ],
      "name": "Transfer",
      "type": "event"
    },
    {
      "anonymous": false,
      "inputs": [
        {
          "indexed": true,
          "internalType": "address",
          "name": "implementation",
          "type": "address"
        }
      ],
      "name": "Upgraded",
      "type": "event"
    },
    {
      "inputs": [],
      "name": "_backFeeRate",
      "outputs": [
        {
          "internalType": "uint256",
          "name": "",
          "type": "uint256"
        }
      ],
      "stateMutability": "view",
      "type": "function"
    },
    {
      "inputs": [],
      "name": "_burnFeeRate",
      "outputs": [
        {
          "internalType": "uint256",
          "name": "",
          "type": "uint256"
        }
      ],
      "stateMutability": "view",
      "type": "function"
    },
    {
      "inputs": [],
      "name": "_burnStopAt",
      "outputs": [
        {
          "internalType": "uint256",
          "name": "",
          "type": "uint256"
        }
      ],
      "stateMutability": "view",
      "type": "function"
    },
    {
      "inputs": [],
      "name": "_excludelpAddress",
      "outputs": [
        {
          "internalType": "address",
          "name": "",
          "type": "address"
        }
      ],
      "stateMutability": "view",
      "type": "function"
    },
    {
      "inputs": [],
      "name": "_feeRate",
      "outputs": [
        {
          "internalType": "uint256",
          "name": "",
          "type": "uint256"
        }
      ],
      "stateMutability": "view",
      "type": "function"
    },
    {
      "inputs": [
        {
          "internalType": "uint256",
          "name": "tAmount",
          "type": "uint256"
        }
      ],
      "name": "_getValues",
      "outputs": [
        {
          "internalType": "uint256",
          "name": "",
          "type": "uint256"
        },
        {
          "internalType": "uint256",
          "name": "",
          "type": "uint256"
        },
        {
          "internalType": "uint256",
          "name": "",
          "type": "uint256"
        }
      ],
      "stateMutability": "view",
      "type": "function"
    },
    {
      "inputs": [],
      "name": "_holdDividendAt",
      "outputs": [
        {
          "internalType": "uint256",
          "name": "",
          "type": "uint256"
        }
      ],
      "stateMutability": "view",
      "type": "function"
    },
    {
      "inputs": [],
      "name": "_holderFeeRate",
      "outputs": [
        {
          "internalType": "uint256",
          "name": "",
          "type": "uint256"
        }
      ],
      "stateMutability": "view",
      "type": "function"
    },
    {
      "inputs": [
        {
          "internalType": "address",
          "name": "",
          "type": "address"
        }
      ],
      "name": "_isBlacklisted",
      "outputs": [
        {
          "internalType": "bool",
          "name": "",
          "type": "bool"
        }
      ],
      "stateMutability": "view",
      "type": "function"
    },
    {
      "inputs": [],
      "name": "_lp2FeeRate",
      "outputs": [
        {
          "internalType": "uint256",
          "name": "",
          "type": "uint256"
        }
      ],
      "stateMutability": "view",
      "type": "function"
    },
    {
      "inputs": [],
      "name": "_lpDividendFirstAt",
      "outputs": [
        {
          "internalType": "uint256",
          "name": "",
          "type": "uint256"
        }
      ],
      "stateMutability": "view",
      "type": "function"
    },
    {
      "inputs": [],
      "name": "_lpDividendSecondAt",
      "outputs": [
        {
          "internalType": "uint256",
          "name": "",
          "type": "uint256"
        }
      ],
      "stateMutability": "view",
      "type": "function"
    },
    {
      "inputs": [],
      "name": "_lpFeeRate",
      "outputs": [
        {
          "internalType": "uint256",
          "name": "",
          "type": "uint256"
        }
      ],
      "stateMutability": "view",
      "type": "function"
    },
    {
      "inputs": [],
      "name": "_marketFeeRate",
      "outputs": [
        {
          "internalType": "uint256",
          "name": "",
          "type": "uint256"
        }
      ],
      "stateMutability": "view",
      "type": "function"
    },
    {
      "inputs": [],
      "name": "_marketingWalletAddress",
      "outputs": [
        {
          "internalType": "address",
          "name": "",
          "type": "address"
        }
      ],
      "stateMutability": "view",
      "type": "function"
    },
    {
      "inputs": [],
      "name": "_rewardBaseHolder",
      "outputs": [
        {
          "internalType": "uint256",
          "name": "",
          "type": "uint256"
        }
      ],
      "stateMutability": "view",
      "type": "function"
    },
    {
      "inputs": [],
      "name": "_rewardBaseLPFirst",
      "outputs": [
        {
          "internalType": "uint256",
          "name": "",
          "type": "uint256"
        }
      ],
      "stateMutability": "view",
      "type": "function"
    },
    {
      "inputs": [],
      "name": "_rewardBaseLPSecond",
      "outputs": [
        {
          "internalType": "uint256",
          "name": "",
          "type": "uint256"
        }
      ],
      "stateMutability": "view",
      "type": "function"
    },
    {
      "inputs": [],
      "name": "_swapAt",
      "outputs": [
        {
          "internalType": "uint256",
          "name": "",
          "type": "uint256"
        }
      ],
      "stateMutability": "view",
      "type": "function"
    },
    {
      "inputs": [
        {
          "internalType": "address",
          "name": "owner",
          "type": "address"
        },
        {
          "internalType": "address",
          "name": "spender",
          "type": "address"
        }
      ],
      "name": "allowance",
      "outputs": [
        {
          "internalType": "uint256",
          "name": "",
          "type": "uint256"
        }
      ],
      "stateMutability": "view",
      "type": "function"
    },
    {
      "inputs": [
        {
          "internalType": "address",
          "name": "spender",
          "type": "address"
        },
        {
          "internalType": "uint256",
          "name": "amount",
          "type": "uint256"
        }
      ],
      "name": "approve",
      "outputs": [
        {
          "internalType": "bool",
          "name": "",
          "type": "bool"
        }
      ],
      "stateMutability": "nonpayable",
      "type": "function"
    },
    {
      "inputs": [
        {
          "internalType": "address",
          "name": "",
          "type": "address"
        }
      ],
      "name": "automatedMarketMakerPairs",
      "outputs": [
        {
          "internalType": "bool",
          "name": "",
          "type": "bool"
        }
      ],
      "stateMutability": "view",
      "type": "function"
    },
    {
      "inputs": [
        {
          "internalType": "address",
          "name": "account",
          "type": "address"
        }
      ],
      "name": "balanceOf",
      "outputs": [
        {
          "internalType": "uint256",
          "name": "",
          "type": "uint256"
        }
      ],
      "stateMutability": "view",
      "type": "function"
    },
    {
      "inputs": [
        {
          "internalType": "address",
          "name": "account",
          "type": "address"
        }
      ],
      "name": "contains",
      "outputs": [
        {
          "internalType": "bool",
          "name": "",
          "type": "bool"
        }
      ],
      "stateMutability": "view",
      "type": "function"
    },
    {
      "inputs": [],
      "name": "deadWallet",
      "outputs": [
        {
          "internalType": "address",
          "name": "",
          "type": "address"
        }
      ],
      "stateMutability": "view",
      "type": "function"
    },
    {
      "inputs": [],
      "name": "decimals",
      "outputs": [
        {
          "internalType": "uint8",
          "name": "",
          "type": "uint8"
        }
      ],
      "stateMutability": "view",
      "type": "function"
    },
    {
      "inputs": [
        {
          "internalType": "address",
          "name": "spender",
          "type": "address"
        },
        {
          "internalType": "uint256",
          "name": "subtractedValue",
          "type": "uint256"
        }
      ],
      "name": "decreaseAllowance",
      "outputs": [
        {
          "internalType": "bool",
          "name": "",
          "type": "bool"
        }
      ],
      "stateMutability": "nonpayable",
      "type": "function"
    },
    {
      "inputs": [],
      "name": "dividend",
      "outputs": [],
      "stateMutability": "nonpayable",
      "type": "function"
    },
    {
      "inputs": [
        {
          "internalType": "uint256",
          "name": "index",
          "type": "uint256"
        }
      ],
      "name": "getHolderAt",
      "outputs": [
        {
          "internalType": "address",
          "name": "",
          "type": "address"
        }
      ],
      "stateMutability": "view",
      "type": "function"
    },
    {
      "inputs": [],
      "name": "getHolderLength",
      "outputs": [
        {
          "internalType": "uint256",
          "name": "",
          "type": "uint256"
        }
      ],
      "stateMutability": "view",
      "type": "function"
    },
    {
      "inputs": [
        {
          "internalType": "address",
          "name": "account",
          "type": "address"
        }
      ],
      "name": "getRewardBalance",
      "outputs": [
        {
          "internalType": "uint256",
          "name": "",
          "type": "uint256"
        },
        {
          "internalType": "uint256",
          "name": "",
          "type": "uint256"
        },
        {
          "internalType": "uint256",
          "name": "",
          "type": "uint256"
        }
      ],
      "stateMutability": "view",
      "type": "function"
    },
    {
      "inputs": [
        {
          "internalType": "address",
          "name": "account",
          "type": "address"
        }
      ],
      "name": "getRewardValues",
      "outputs": [
        {
          "internalType": "uint256",
          "name": "",
          "type": "uint256"
        },
        {
          "internalType": "uint256",
          "name": "",
          "type": "uint256"
        },
        {
          "internalType": "uint256",
          "name": "",
          "type": "uint256"
        },
        {
          "internalType": "uint256",
          "name": "",
          "type": "uint256"
        },
        {
          "internalType": "uint256",
          "name": "",
          "type": "uint256"
        }
      ],
      "stateMutability": "view",
      "type": "function"
    },
    {
      "inputs": [],
      "name": "getTradingIsEnabled",
      "outputs": [
        {
          "internalType": "bool",
          "name": "",
          "type": "bool"
        }
      ],
      "stateMutability": "view",
      "type": "function"
    },
    {
      "inputs": [
        {
          "internalType": "address",
          "name": "spender",
          "type": "address"
        },
        {
          "internalType": "uint256",
          "name": "addedValue",
          "type": "uint256"
        }
      ],
      "name": "increaseAllowance",
      "outputs": [
        {
          "internalType": "bool",
          "name": "",
          "type": "bool"
        }
      ],
      "stateMutability": "nonpayable",
      "type": "function"
    },
    {
      "inputs": [],
      "name": "initialize",
      "outputs": [],
      "stateMutability": "nonpayable",
      "type": "function"
    },
    {
      "inputs": [],
      "name": "lastProcessedIndex",
      "outputs": [
        {
          "internalType": "uint256",
          "name": "",
          "type": "uint256"
        }
      ],
      "stateMutability": "view",
      "type": "function"
    },
    {
      "inputs": [],
      "name": "name",
      "outputs": [
        {
          "internalType": "string",
          "name": "",
          "type": "string"
        }
      ],
      "stateMutability": "view",
      "type": "function"
    },
    {
      "inputs": [],
      "name": "owner",
      "outputs": [
        {
          "internalType": "address",
          "name": "",
          "type": "address"
        }
      ],
      "stateMutability": "view",
      "type": "function"
    },
    {
      "inputs": [],
      "name": "proxiableUUID",
      "outputs": [
        {
          "internalType": "bytes32",
          "name": "",
          "type": "bytes32"
        }
      ],
      "stateMutability": "view",
      "type": "function"
    },
    {
      "inputs": [
        {
          "internalType": "address",
          "name": "account",
          "type": "address"
        }
      ],
      "name": "removeHolder",
      "outputs": [],
      "stateMutability": "nonpayable",
      "type": "function"
    },
    {
      "inputs": [],
      "name": "renounceOwnership",
      "outputs": [],
      "stateMutability": "nonpayable",
      "type": "function"
    },
    {
      "inputs": [
        {
          "internalType": "address",
          "name": "recipient",
          "type": "address"
        },
        {
          "internalType": "bool",
          "name": "flag",
          "type": "bool"
        }
      ],
      "name": "setBlacklist",
      "outputs": [],
      "stateMutability": "nonpayable",
      "type": "function"
    },
    {
      "inputs": [
        {
          "internalType": "uint256",
          "name": "burnStopAt",
          "type": "uint256"
        }
      ],
      "name": "setBurnStopAt",
      "outputs": [],
      "stateMutability": "nonpayable",
      "type": "function"
    },
    {
      "inputs": [
        {
          "internalType": "uint256",
          "name": "lpDividendFirstAt",
          "type": "uint256"
        },
        {
          "internalType": "uint256",
          "name": "lpDividendSecondAt",
          "type": "uint256"
        },
        {
          "internalType": "uint256",
          "name": "holdDividendAt",
          "type": "uint256"
        }
      ],
      "name": "setDividendAt",
      "outputs": [],
      "stateMutability": "nonpayable",
      "type": "function"
    },
    {
      "inputs": [
        {
          "internalType": "address",
          "name": "account",
          "type": "address"
        }
      ],
      "name": "setExcludelpAddress",
      "outputs": [],
      "stateMutability": "nonpayable",
      "type": "function"
    },
    {
      "inputs": [
        {
          "internalType": "uint256",
          "name": "lpFeeRate",
          "type": "uint256"
        },
        {
          "internalType": "uint256",
          "name": "lp2FeeRate",
          "type": "uint256"
        },
        {
          "internalType": "uint256",
          "name": "burnFeeRate",
          "type": "uint256"
        },
        {
          "internalType": "uint256",
          "name": "holderFeeRate",
          "type": "uint256"
        },
        {
          "internalType": "uint256",
          "name": "backFeeRate",
          "type": "uint256"
        },
        {
          "internalType": "uint256",
          "name": "marketFeeRate",
          "type": "uint256"
        }
      ],
      "name": "setFeeRate",
      "outputs": [],
      "stateMutability": "nonpayable",
      "type": "function"
    },
    {
      "inputs": [
        {
          "internalType": "address",
          "name": "account",
          "type": "address"
        }
      ],
      "name": "setMarketingWalletAddress",
      "outputs": [],
      "stateMutability": "nonpayable",
      "type": "function"
    },
    {
      "inputs": [
        {
          "internalType": "uint256",
          "name": "rewardBaseLPFirst",
          "type": "uint256"
        },
        {
          "internalType": "uint256",
          "name": "rewardBaseLPSecond",
          "type": "uint256"
        },
        {
          "internalType": "uint256",
          "name": "rewardBaseHolder",
          "type": "uint256"
        }
      ],
      "name": "setRewardBase",
      "outputs": [],
      "stateMutability": "nonpayable",
      "type": "function"
    },
    {
      "inputs": [
        {
          "internalType": "address",
          "name": "dot",
          "type": "address"
        },
        {
          "internalType": "address",
          "name": "shib",
          "type": "address"
        }
      ],
      "name": "setRewardToken",
      "outputs": [],
      "stateMutability": "nonpayable",
      "type": "function"
    },
    {
      "inputs": [
        {
          "internalType": "uint256",
          "name": "swapAt",
          "type": "uint256"
        }
      ],
      "name": "setSwapAt",
      "outputs": [],
      "stateMutability": "nonpayable",
      "type": "function"
    },
    {
      "inputs": [
        {
          "internalType": "bool",
          "name": "_enabled",
          "type": "bool"
        }
      ],
      "name": "setSwapEnabled",
      "outputs": [],
      "stateMutability": "nonpayable",
      "type": "function"
    },
    {
      "inputs": [
        {
          "internalType": "address",
          "name": "account",
          "type": "address"
        }
      ],
      "name": "setTakeFeeWallet",
      "outputs": [],
      "stateMutability": "nonpayable",
      "type": "function"
    },
    {
      "inputs": [
        {
          "internalType": "bool",
          "name": "flag",
          "type": "bool"
        }
      ],
      "name": "setTsDividendEnabled",
      "outputs": [],
      "stateMutability": "nonpayable",
      "type": "function"
    },
    {
      "inputs": [
        {
          "internalType": "address",
          "name": "addr",
          "type": "address"
        }
      ],
      "name": "setUniswapV2Pair",
      "outputs": [],
      "stateMutability": "nonpayable",
      "type": "function"
    },
    {
      "inputs": [],
      "name": "swapEnabled",
      "outputs": [
        {
          "internalType": "bool",
          "name": "",
          "type": "bool"
        }
      ],
      "stateMutability": "view",
      "type": "function"
    },
    {
      "inputs": [
        {
          "internalType": "uint256",
          "name": "tokenAmount",
          "type": "uint256"
        }
      ],
      "name": "swapTokensFor2ETH",
      "outputs": [],
      "stateMutability": "nonpayable",
      "type": "function"
    },
    {
      "inputs": [
        {
          "internalType": "uint256",
          "name": "tokenAmount",
          "type": "uint256"
        },
        {
          "internalType": "address",
          "name": "outToken",
          "type": "address"
        }
      ],
      "name": "swapTokensFor3Tokens",
      "outputs": [],
      "stateMutability": "nonpayable",
      "type": "function"
    },
    {
      "inputs": [],
      "name": "symbol",
      "outputs": [
        {
          "internalType": "string",
          "name": "",
          "type": "string"
        }
      ],
      "stateMutability": "view",
      "type": "function"
    },
    {
      "inputs": [],
      "name": "takeBackCtl",
      "outputs": [],
      "stateMutability": "nonpayable",
      "type": "function"
    },
    {
      "inputs": [],
      "name": "takeFee",
      "outputs": [],
      "stateMutability": "nonpayable",
      "type": "function"
    },
    {
      "inputs": [],
      "name": "takeReward",
      "outputs": [],
      "stateMutability": "nonpayable",
      "type": "function"
    },
    {
      "inputs": [],
      "name": "totalSupply",
      "outputs": [
        {
          "internalType": "uint256",
          "name": "",
          "type": "uint256"
        }
      ],
      "stateMutability": "view",
      "type": "function"
    },
    {
      "inputs": [],
      "name": "tradingEnabledTimestamp",
      "outputs": [
        {
          "internalType": "uint256",
          "name": "",
          "type": "uint256"
        }
      ],
      "stateMutability": "view",
      "type": "function"
    },
    {
      "inputs": [
        {
          "internalType": "address",
          "name": "to",
          "type": "address"
        },
        {
          "internalType": "uint256",
          "name": "amount",
          "type": "uint256"
        }
      ],
      "name": "transfer",
      "outputs": [
        {
          "internalType": "bool",
          "name": "",
          "type": "bool"
        }
      ],
      "stateMutability": "nonpayable",
      "type": "function"
    },
    {
      "inputs": [
        {
          "internalType": "address",
          "name": "from",
          "type": "address"
        },
        {
          "internalType": "address",
          "name": "to",
          "type": "address"
        },
        {
          "internalType": "uint256",
          "name": "amount",
          "type": "uint256"
        }
      ],
      "name": "transferFrom",
      "outputs": [
        {
          "internalType": "bool",
          "name": "",
          "type": "bool"
        }
      ],
      "stateMutability": "nonpayable",
      "type": "function"
    },
    {
      "inputs": [
        {
          "internalType": "address",
          "name": "newOwner",
          "type": "address"
        }
      ],
      "name": "transferOwnership",
      "outputs": [],
      "stateMutability": "nonpayable",
      "type": "function"
    },
    {
      "inputs": [],
      "name": "tsDividendEnabled",
      "outputs": [
        {
          "internalType": "bool",
          "name": "",
          "type": "bool"
        }
      ],
      "stateMutability": "view",
      "type": "function"
    },
    {
      "inputs": [],
      "name": "uniswapV2Pair",
      "outputs": [
        {
          "internalType": "address",
          "name": "",
          "type": "address"
        }
      ],
      "stateMutability": "view",
      "type": "function"
    },
    {
      "inputs": [],
      "name": "uniswapV2Router",
      "outputs": [
        {
          "internalType": "contract IUniswapV2Router02",
          "name": "",
          "type": "address"
        }
      ],
      "stateMutability": "view",
      "type": "function"
    },
    {
      "inputs": [
        {
          "internalType": "uint256",
          "name": "newValue",
          "type": "uint256"
        }
      ],
      "name": "updateGasForProcessing",
      "outputs": [],
      "stateMutability": "nonpayable",
      "type": "function"
    },
    {
      "inputs": [
        {
          "internalType": "address",
          "name": "newImplementation",
          "type": "address"
        }
      ],
      "name": "upgradeTo",
      "outputs": [],
      "stateMutability": "nonpayable",
      "type": "function"
    },
    {
      "inputs": [
        {
          "internalType": "address",
          "name": "newImplementation",
          "type": "address"
        },
        {
          "internalType": "bytes",
          "name": "data",
          "type": "bytes"
        }
      ],
      "name": "upgradeToAndCall",
      "outputs": [],
      "stateMutability": "payable",
      "type": "function"
    },
    {
      "stateMutability": "payable",
      "type": "receive"
    }
  ],
  "bytecode": "0x60a06040523060601b6080523480156200001857600080fd5b50600054610100900460ff16620000365760005460ff161562000040565b62000040620000e5565b620000a85760405162461bcd60e51b815260206004820152602e60248201527f496e697469616c697a61626c653a20636f6e747261637420697320616c72656160448201526d191e481a5b9a5d1a585b1a5e995960921b606482015260840160405180910390fd5b600054610100900460ff16158015620000cb576000805461ffff19166101011790555b8015620000de576000805461ff00191690555b5062000112565b6000620000fd306200010360201b62002cb21760201c565b15905090565b6001600160a01b03163b151590565b60805160601c614b526200014d600039600081816114ab015281816114eb015281816116f50152818161173501526118430152614b526000f3fe60806040526004361061041f5760003560e01c80636eea6fa61161021e578063baa856bc11610123578063dede5f45116100ab578063e5c8c5721161007a578063e5c8c57214610c46578063eb7b70f114610c66578063f2fde38b14610c7c578063f60a515a14610c9c578063fcfd826914610cbd57610426565b8063dede5f4514610bd8578063e01af92c14610bef578063e0fb2c0514610c0f578063e253f87b14610c2657610426565b8063d1b5da87116100f2578063d1b5da8714610b0b578063d4780e3614610b20578063d5a849e914610b5b578063dad3719514610b7b578063dd62ed3e14610b9257610426565b8063baa856bc14610a9e578063bdde32d614610ab4578063cc99498c14610acb578063ced0d31d14610aeb57610426565b806394807628116101a6578063a9059cbb11610175578063a9059cbb14610a00578063ad37394c14610a20578063b2131f7d14610a3f578063b471480214610a56578063b62496f514610a6d57610426565b8063948076281461099457806395d89b41146109ab578063a29a6089146109c0578063a457c2d7146109e057610426565b80638129fc1c116101ed5780638129fc1c1461090057806385141a7714610915578063871c128d146109365780638da5cb5b146109565780638dd428081461097457610426565b80636eea6fa61461089657806370a08231146108b657806370eccd06146108d6578063715018a6146108eb57610426565b80633df6be61116103245780634f1ef286116102ac57806352d1902d1161027b57806352d1902d146107df5780635c04ac94146107f45780635dbe47e8146108145780635f4fe879146108345780636ddd17131461087c57610426565b80634f1ef286146107775780634f21869c1461078a5780634f3e01bc1461079f57806350a71e7d146107bf57610426565b8063443b4126116102f3578063443b4126146106e657806349bd5a5e146107065780634c0a38b5146107275780634cb80fd51461073e5780634d33b1ef1461075e57610426565b80633df6be61146106775780633e67d66b1461068e57806340704b36146106a55780634144d9e4146106c557610426565b80631cdd3be3116103a7578063313ce56711610376578063313ce567146105e457806333b3cd82146106005780633659cfe614610617578063392d268114610637578063395093511461065757610426565b80631cdd3be31461056557806323b872dd1461059657806325b61703146105b65780633009a609146105cd57610426565b80630ff8cf9b116103ee5780630ff8cf9b146104cd578063153b0d1e146104e25780631694505e1461050257806318160ddd1461053b578063181aa1fd1461055057610426565b806306fdde031461042b5780630835a62514610456578063095ea7b31461047b5780630b36ea46146104ab57610426565b3661042657005b600080fd5b34801561043757600080fd5b50610440610cd4565b60405161044d919061465f565b60405180910390f35b34801561046257600080fd5b5061046d6101055481565b60405190815260200161044d565b34801561048757600080fd5b5061049b6104963660046144c4565b610d66565b604051901515815260200161044d565b3480156104b757600080fd5b506104cb6104c636600461453f565b610d80565b005b3480156104d957600080fd5b506104cb610f08565b3480156104ee57600080fd5b506104cb6104fd3660046143d8565b6113fa565b34801561050e57600080fd5b5061011554610523906001600160a01b031681565b6040516001600160a01b03909116815260200161044d565b34801561054757600080fd5b5060355461046d565b34801561055c57600080fd5b506104cb611459565b34801561057157600080fd5b5061049b610580366004614328565b6101166020526000908152604090205460ff1681565b3480156105a257600080fd5b5061049b6105b1366004614398565b61147a565b3480156105c257600080fd5b5061046d61011a5481565b3480156105d957600080fd5b5061046d61010d5481565b3480156105f057600080fd5b506040516012815260200161044d565b34801561060c57600080fd5b5061046d6101085481565b34801561062357600080fd5b506104cb610632366004614328565b6114a0565b34801561064357600080fd5b506104cb610652366004614328565b611580565b34801561066357600080fd5b5061049b6106723660046144c4565b6115cd565b34801561068357600080fd5b5061046d6101005481565b34801561069a57600080fd5b5061046d6101045481565b3480156106b157600080fd5b506104cb6106c0366004614328565b61160c565b3480156106d157600080fd5b5061010f54610523906001600160a01b031681565b3480156106f257600080fd5b506104cb6107013660046144ef565b611659565b34801561071257600080fd5b5061010e54610523906001600160a01b031681565b34801561073357600080fd5b5061046d6101095481565b34801561074a57600080fd5b506104cb610759366004614328565b61169d565b34801561076a57600080fd5b5061011a5442101561049b565b6104cb610785366004614405565b6116ea565b34801561079657600080fd5b5061046d6117bb565b3480156107ab57600080fd5b506104cb6107ba36600461453f565b6117cc565b3480156107cb57600080fd5b506104cb6107da36600461457b565b6117fb565b3480156107eb57600080fd5b5061046d611836565b34801561080057600080fd5b506104cb61080f36600461453f565b6118e9565b34801561082057600080fd5b5061049b61082f366004614328565b611918565b34801561084057600080fd5b5061085461084f366004614328565b611925565b604080519586526020860194909452928401919091526060830152608082015260a00161044d565b34801561088857600080fd5b5060fd5461049b9060ff1681565b3480156108a257600080fd5b506104cb6108b136600461457b565b611b75565b3480156108c257600080fd5b5061046d6108d1366004614328565b611bb0565b3480156108e257600080fd5b506104cb611bcb565b3480156108f757600080fd5b506104cb611e17565b34801561090c57600080fd5b506104cb611e5e565b34801561092157600080fd5b5061011454610523906001600160a01b031681565b34801561094257600080fd5b506104cb61095136600461453f565b61230a565b34801561096257600080fd5b5060c9546001600160a01b0316610523565b34801561098057600080fd5b506104cb61098f366004614328565b612423565b3480156109a057600080fd5b5061046d6101025481565b3480156109b757600080fd5b50610440612458565b3480156109cc57600080fd5b506104cb6109db366004614328565b612467565b3480156109ec57600080fd5b5061049b6109fb3660046144c4565b6124cd565b348015610a0c57600080fd5b5061049b610a1b3660046144c4565b61256a565b348015610a2c57600080fd5b5060fd5461049b90610100900460ff1681565b348015610a4b57600080fd5b5061046d6101065481565b348015610a6257600080fd5b5061046d6101015481565b348015610a7957600080fd5b5061049b610a88366004614328565b6101176020526000908152604090205460ff1681565b348015610aaa57600080fd5b5061046d60fe5481565b348015610ac057600080fd5b5061046d6101035481565b348015610ad757600080fd5b506104cb610ae6366004614557565b612578565b348015610af757600080fd5b506104cb610b063660046145d3565b612745565b348015610b1757600080fd5b506104cb612792565b348015610b2c57600080fd5b50610b40610b3b36600461453f565b6127c9565b6040805193845260208401929092529082015260600161044d565b348015610b6757600080fd5b50610b40610b76366004614328565b612814565b348015610b8757600080fd5b5061046d61010b5481565b348015610b9e57600080fd5b5061046d610bad366004614360565b6001600160a01b03918216600090815260346020908152604080832093909416825291909152205490565b348015610be457600080fd5b5061046d6101075481565b348015610bfb57600080fd5b506104cb610c0a3660046144ef565b612929565b348015610c1b57600080fd5b5061046d61010a5481565b348015610c3257600080fd5b50610523610c4136600461453f565b612966565b348015610c5257600080fd5b506104cb610c61366004614360565b612973565b348015610c7257600080fd5b5061046d60ff5481565b348015610c8857600080fd5b506104cb610c97366004614328565b612c1a565b348015610ca857600080fd5b5061011054610523906001600160a01b031681565b348015610cc957600080fd5b5061046d61010c5481565b606060368054610ce390614a10565b80601f0160208091040260200160405190810160405280929190818152602001828054610d0f90614a10565b8015610d5c5780601f10610d3157610100808354040283529160200191610d5c565b820191906000526020600020905b815481529060010190602001808311610d3f57829003601f168201915b5050505050905090565b600033610d74818585612cc1565b60019150505b92915050565b6040805160028082526060820183526000926020830190803683370190505090503081600081518110610dc357634e487b7160e01b600052603260045260246000fd5b6001600160a01b0392831660209182029290920181019190915261011554604080516315ab88c960e31b81529051919093169263ad5c4648926004808301939192829003018186803b158015610e1857600080fd5b505afa158015610e2c573d6000803e3d6000fd5b505050506040513d601f19601f82011682018060405250810190610e509190614344565b81600181518110610e7157634e487b7160e01b600052603260045260246000fd5b6001600160a01b03928316602091820292909201015261011554610e989130911684612cc1565b6101155460405163791ac94760e01b81526001600160a01b039091169063791ac94790610ed29085906000908690309042906004016147ef565b600060405180830381600087803b158015610eec57600080fd5b505af1158015610f00573d6000803e3d6000fd5b505050505050565b610113546000610f1860fb612de5565b905080610f265750506113f8565b61010d546000805a61010e54610110546040516370a0823160e01b81526001600160a01b039182166004820152929350600092839291909116906370a082319060240160206040518083038186803b158015610f8157600080fd5b505afa158015610f95573d6000803e3d6000fd5b505050506040513d601f19601f82011682018060405250810190610fb99190614527565b9050600061104e8261010e60009054906101000a90046001600160a01b03166001600160a01b03166318160ddd6040518163ffffffff1660e01b815260040160206040518083038186803b15801561101057600080fd5b505afa158015611024573d6000803e3d6000fd5b505050506040513d601f19601f820116820180604052508101906110489190614527565b90612def565b90505b878510801561105f57508683105b156113e9578261106e81614a4b565b93505061107b60fb612de5565b861061108657600095505b600061109360fb88612dfb565b9050600080600080610109546110a886611bb0565b106110d0576110cd866110c76110bd88611bb0565b61010c5490612e07565b90612e13565b92505b6110d985611925565b610107549498509196509450925050841061110b57611108866110c76110fe88611bb0565b61010a5490612e07565b91505b6101085484106111325761112f866110c761112588611bb0565b61010b5490612e07565b90505b610119546040516370a0823160e01b81523060048201526001600160a01b03909116906370a082319060240160206040518083038186803b15801561117657600080fd5b505afa15801561118a573d6000803e3d6000fd5b505050506040513d601f19601f820116820180604052508101906111ae9190614527565b8311806111ba57504781115b8061123f5750610118546040516370a0823160e01b81523060048201526001600160a01b03909116906370a082319060240160206040518083038186803b15801561120457600080fd5b505afa158015611218573d6000803e3d6000fd5b505050506040513d601f19601f8201168201806040525081019061123c9190614527565b82115b1561124e5750505050506113e9565b801561128c576040516001600160a01b0386169082156108fc029083906000818181858888f1935050505015801561128a573d6000803e3d6000fd5b505b811561131b576101185460405163a9059cbb60e01b81526001600160a01b038781166004830152602482018590529091169063a9059cbb90604401602060405180830381600087803b1580156112e157600080fd5b505af11580156112f5573d6000803e3d6000fd5b505050506040513d601f19601f82011682018060405250810190611319919061450b565b505b82156113aa576101195460405163a9059cbb60e01b81526001600160a01b038781166004830152602482018690529091169063a9059cbb90604401602060405180830381600087803b15801561137057600080fd5b505af1158015611384573d6000803e3d6000fd5b505050506040513d601f19601f820116820180604052508101906113a8919061450b565b505b60005a9050808a11156113ce576113cb6113c48b83612def565b8c90612e1f565b9a505b9850888b6113db81614a4b565b9c5050505050505050611051565b50505061010d92909255505050505b565b60c9546001600160a01b0316331461142d5760405162461bcd60e51b81526004016114249061472a565b60405180910390fd5b6001600160a01b0391909116600090815261011660205260409020805460ff1916911515919091179055565b610112546113f89030906001600160a01b031661147581611bb0565b612e2b565b600033611488858285612fbd565b611493858585613049565b60019150505b9392505050565b306001600160a01b037f00000000000000000000000000000000000000000000000000000000000000001614156114e95760405162461bcd60e51b815260040161142490614692565b7f00000000000000000000000000000000000000000000000000000000000000006001600160a01b0316611532600080516020614ab6833981519152546001600160a01b031690565b6001600160a01b0316146115585760405162461bcd60e51b8152600401611424906146de565b611561816137fb565b6040805160008082526020820190925261157d91839190613825565b50565b60c9546001600160a01b031633146115aa5760405162461bcd60e51b81526004016114249061472a565b61011280546001600160a01b0319166001600160a01b0392909216919091179055565b3360008181526034602090815260408083206001600160a01b0387168452909152812054909190610d74908290869061160790879061485f565b612cc1565b60c9546001600160a01b031633146116365760405162461bcd60e51b81526004016114249061472a565b61011080546001600160a01b0319166001600160a01b0392909216919091179055565b60c9546001600160a01b031633146116835760405162461bcd60e51b81526004016114249061472a565b60fd80549115156101000261ff0019909216919091179055565b60c9546001600160a01b031633146116c75760405162461bcd60e51b81526004016114249061472a565b61010f80546001600160a01b0319166001600160a01b0392909216919091179055565b306001600160a01b037f00000000000000000000000000000000000000000000000000000000000000001614156117335760405162461bcd60e51b815260040161142490614692565b7f00000000000000000000000000000000000000000000000000000000000000006001600160a01b031661177c600080516020614ab6833981519152546001600160a01b031690565b6001600160a01b0316146117a25760405162461bcd60e51b8152600401611424906146de565b6117ab826137fb565b6117b782826001613825565b5050565b60006117c760fb612de5565b905090565b60c9546001600160a01b031633146117f65760405162461bcd60e51b81526004016114249061472a565b60fe55565b60c9546001600160a01b031633146118255760405162461bcd60e51b81526004016114249061472a565b610107929092556101085561010955565b6000306001600160a01b037f000000000000000000000000000000000000000000000000000000000000000016146118d65760405162461bcd60e51b815260206004820152603860248201527f555550535570677261646561626c653a206d757374206e6f742062652063616c60448201527f6c6564207468726f7567682064656c656761746563616c6c00000000000000006064820152608401611424565b50600080516020614ab683398151915290565b60c9546001600160a01b031633146119135760405162461bcd60e51b81526004016114249061472a565b60ff55565b6000610d7a60fb8361399f565b61010e54610110546040516370a0823160e01b81526001600160a01b039182166004820152600092839283928392839283929116906370a082319060240160206040518083038186803b15801561197b57600080fd5b505afa15801561198f573d6000803e3d6000fd5b505050506040513d601f19601f820116820180604052508101906119b39190614527565b90506000611a0a8261010e60009054906101000a90046001600160a01b03166001600160a01b03166318160ddd6040518163ffffffff1660e01b815260040160206040518083038186803b15801561101057600080fd5b61010e546040516370a0823160e01b81526001600160a01b038b81166004830152929350600092909116906370a082319060240160206040518083038186803b158015611a5657600080fd5b505afa158015611a6a573d6000803e3d6000fd5b505050506040513d601f19601f82011682018060405250810190611a8e9190614527565b9050600080600080611aab612710611aa58f611bb0565b90612e07565b9050611ac0611ab960355490565b8290612e13565b905061010954611acf8e611bb0565b10611aff576000611adf8e611bb0565b9050611afb611aed60355490565b61010c546110c79084612e07565b9450505b6000611b11876110c788612710612e07565b9050610107548110611b3a57611b37876110c78861010a54612e0790919063ffffffff16565b93505b610108548110611b6157611b5e876110c78861010b54612e0790919063ffffffff16565b92505b9d909c50929a509098509650945050505050565b60c9546001600160a01b03163314611b9f5760405162461bcd60e51b81526004016114249061472a565b61010a9290925561010b5561010c55565b6001600160a01b031660009081526033602052604090205490565b61011854610112546040516370a0823160e01b81523060048201526001600160a01b039283169263a9059cbb92169083906370a082319060240160206040518083038186803b158015611c1d57600080fd5b505afa158015611c31573d6000803e3d6000fd5b505050506040513d601f19601f82011682018060405250810190611c559190614527565b6040516001600160e01b031960e085901b1681526001600160a01b0390921660048301526024820152604401602060405180830381600087803b158015611c9b57600080fd5b505af1158015611caf573d6000803e3d6000fd5b505050506040513d601f19601f82011682018060405250810190611cd3919061450b565b5061011954610112546040516370a0823160e01b81523060048201526001600160a01b039283169263a9059cbb92169083906370a082319060240160206040518083038186803b158015611d2657600080fd5b505afa158015611d3a573d6000803e3d6000fd5b505050506040513d601f19601f82011682018060405250810190611d5e9190614527565b6040516001600160e01b031960e085901b1681526001600160a01b0390921660048301526024820152604401602060405180830381600087803b158015611da457600080fd5b505af1158015611db8573d6000803e3d6000fd5b505050506040513d601f19601f82011682018060405250810190611ddc919061450b565b50610112546040516001600160a01b03909116904780156108fc02916000818181858888f1935050505015801561157d573d6000803e3d6000fd5b60c9546001600160a01b03163314611e415760405162461bcd60e51b81526004016114249061472a565b61011180546001600160a01b031916331790556113f860006139c1565b600054610100900460ff16611e795760005460ff1615611e7d565b303b155b611ee05760405162461bcd60e51b815260206004820152602e60248201527f496e697469616c697a61626c653a20636f6e747261637420697320616c72656160448201526d191e481a5b9a5d1a585b1a5e995960921b6064820152608401611424565b600054610100900460ff16158015611f02576000805461ffff19166101011790555b60fd805461ffff1916610101179055604080518082018252600a81526925bab0b33a9021b7b4b760b11b60208083019190915282518084019093526005835264444f54545960d81b90830152611f5791613a13565b611f5f613a44565b611f67613a73565b611f8833611f776012600a6148dd565b611f83906156ce6149ae565b613a9a565b611f946012600a6148dd565b611fa0906108ae6149ae565b60fe55610190610100819055606461010181905560326101028190556101038290556101048190556101058290556175306101135590918290611fe490829061485f565b611fee919061485f565b611ff8919061485f565b612002919061485f565b6101065561011580546001600160a01b03191673d99d1c33f9fc3444f8101754abc46c52416550d19081179091556040805163c45a015560e01b8152905163c45a015591600480820192602092909190829003018186803b15801561206657600080fd5b505afa15801561207a573d6000803e3d6000fd5b505050506040513d601f19601f8201168201806040525081019061209e9190614344565b6001600160a01b031663c9c653963061011560009054906101000a90046001600160a01b03166001600160a01b031663ad5c46486040518163ffffffff1660e01b815260040160206040518083038186803b1580156120fc57600080fd5b505afa158015612110573d6000803e3d6000fd5b505050506040513d601f19601f820116820180604052508101906121349190614344565b6040516001600160e01b031960e085901b1681526001600160a01b03928316600482015291166024820152604401602060405180830381600087803b15801561217c57600080fd5b505af1158015612190573d6000803e3d6000fd5b505050506040513d601f19601f820116820180604052508101906121b49190614344565b61010e80546001600160a01b03929092166001600160a01b0319928316811790915560005261011760205261011880548216737ef95a0fee0dd31b22626fa2e10ee6a223f8a68417905561011980549091167378867bbeef44f2326bf8ddd1941a4439382ef2a7179055612226601290565b61223190600a6148dd565b61223c9060056149ae565b60ff5560c95461011080546001600160a01b039092166001600160a01b0319928316811790915561011180548316909117905561011280548216905561010f80549091166001179055671bc16d674ec8000061010a55670de0b6b3a764000061010b556a084595161401484a00000061010c55606e610107556101f46101085560126122c990600a6148dd565b6122d49060056149ae565b6101095561011480546001600160a01b03191661dead17905563610d406061011a55801561157d576000805461ff001916905550565b60c9546001600160a01b031633146123345760405162461bcd60e51b81526004016114249061472a565b62030d40811015801561234a57506207a1208111155b6123b45760405162461bcd60e51b815260206004820152603560248201527f20676173466f7250726f63657373696e67206d7573742062652062657477656560448201527406e203230302c30303020616e64203530302c30303605c1b6064820152608401611424565b6101135481141561241d5760405162461bcd60e51b815260206004820152602d60248201527f2043616e6e6f742075706461746520676173466f7250726f63657373696e672060448201526c746f2073616d652076616c756560981b6064820152608401611424565b61011355565b60c9546001600160a01b0316331461244d5760405162461bcd60e51b81526004016114249061472a565b6117b760fb82613b7a565b606060378054610ce390614a10565b60c9546001600160a01b031633146124915760405162461bcd60e51b81526004016114249061472a565b61010e80546001600160a01b039092166001600160a01b031990921682179055600090815261011760205260409020805460ff19166001179055565b3360008181526034602090815260408083206001600160a01b0387168452909152812054909190838110156125525760405162461bcd60e51b815260206004820152602560248201527f45524332303a2064656372656173656420616c6c6f77616e63652062656c6f77604482015264207a65726f60d81b6064820152608401611424565b61255f8286868403612cc1565b506001949350505050565b600033610d74818585613049565b604080516003808252608082019092526000916020820160608036833701905050905030816000815181106125bd57634e487b7160e01b600052603260045260246000fd5b6001600160a01b0392831660209182029290920181019190915261011554604080516315ab88c960e31b81529051919093169263ad5c4648926004808301939192829003018186803b15801561261257600080fd5b505afa158015612626573d6000803e3d6000fd5b505050506040513d601f19601f8201168201806040525081019061264a9190614344565b8160018151811061266b57634e487b7160e01b600052603260045260246000fd5b60200260200101906001600160a01b031690816001600160a01b03168152505081816002815181106126ad57634e487b7160e01b600052603260045260246000fd5b6001600160a01b039283166020918202929092010152610115546126d49130911685612cc1565b61011554604051635c11d79560e01b81526001600160a01b0390911690635c11d7959061270e9086906000908690309042906004016147ef565b600060405180830381600087803b15801561272857600080fd5b505af115801561273c573d6000803e3d6000fd5b50505050505050565b60c9546001600160a01b0316331461276f5760405162461bcd60e51b81526004016114249061472a565b610100959095556101019390935561010291909155610103556101045561010555565b610111546001600160a01b0316336001600160a01b0316146127b357600080fd5b610111546113f8906001600160a01b03166139c1565b6000806000806127eb6127106110c76101065488612e0790919063ffffffff16565b905060006127f98683612def565b9050612809816110488885612def565b969195509350915050565b610118546040516370a0823160e01b81526001600160a01b038381166004830181905260009384938493923192909116906370a082319060240160206040518083038186803b15801561286657600080fd5b505afa15801561287a573d6000803e3d6000fd5b505050506040513d601f19601f8201168201806040525081019061289e9190614527565b610119546040516370a0823160e01b81526001600160a01b038881166004830152909116906370a082319060240160206040518083038186803b1580156128e457600080fd5b505afa1580156128f8573d6000803e3d6000fd5b505050506040513d601f19601f8201168201806040525081019061291c9190614527565b9250925092509193909250565b60c9546001600160a01b031633146129535760405162461bcd60e51b81526004016114249061472a565b60fd805460ff1916911515919091179055565b6000610d7a60fb83612dfb565b60c9546001600160a01b0316331461299d5760405162461bcd60e51b81526004016114249061472a565b61011854610112546040516370a0823160e01b81523060048201526001600160a01b039283169263a9059cbb92169083906370a082319060240160206040518083038186803b1580156129ef57600080fd5b505afa158015612a03573d6000803e3d6000fd5b505050506040513d601f19601f82011682018060405250810190612a279190614527565b6040516001600160e01b031960e085901b1681526001600160a01b0390921660048301526024820152604401602060405180830381600087803b158015612a6d57600080fd5b505af1158015612a81573d6000803e3d6000fd5b505050506040513d601f19601f82011682018060405250810190612aa5919061450b565b5061011954610112546040516370a0823160e01b81523060048201526001600160a01b039283169263a9059cbb92169083906370a082319060240160206040518083038186803b158015612af857600080fd5b505afa158015612b0c573d6000803e3d6000fd5b505050506040513d601f19601f82011682018060405250810190612b309190614527565b6040516001600160e01b031960e085901b1681526001600160a01b0390921660048301526024820152604401602060405180830381600087803b158015612b7657600080fd5b505af1158015612b8a573d6000803e3d6000fd5b505050506040513d601f19601f82011682018060405250810190612bae919061450b565b50610112546040516001600160a01b03909116904780156108fc02916000818181858888f19350505050158015612be9573d6000803e3d6000fd5b5061011880546001600160a01b039384166001600160a01b0319918216179091556101198054929093169116179055565b60c9546001600160a01b03163314612c445760405162461bcd60e51b81526004016114249061472a565b6001600160a01b038116612ca95760405162461bcd60e51b815260206004820152602660248201527f4f776e61626c653a206e6577206f776e657220697320746865207a65726f206160448201526564647265737360d01b6064820152608401611424565b61157d816139c1565b6001600160a01b03163b151590565b6001600160a01b038316612d235760405162461bcd60e51b8152602060048201526024808201527f45524332303a20617070726f76652066726f6d20746865207a65726f206164646044820152637265737360e01b6064820152608401611424565b6001600160a01b038216612d845760405162461bcd60e51b815260206004820152602260248201527f45524332303a20617070726f766520746f20746865207a65726f206164647265604482015261737360f01b6064820152608401611424565b6001600160a01b0383811660008181526034602090815260408083209487168084529482529182902085905590518481527f8c5be1e5ebec7d5bd14f71427d1e84f3dd0314c0f7b2291e5b200ac8c7c3b925910160405180910390a3505050565b6000610d7a825490565b600061149982846149cd565b60006114998383613b8f565b600061149982846149ae565b60006114998284614877565b6000611499828461485f565b6001600160a01b038316612e515760405162461bcd60e51b81526004016114249061475f565b6001600160a01b038216612eb35760405162461bcd60e51b815260206004820152602360248201527f45524332303a207472616e7366657220746f20746865207a65726f206164647260448201526265737360e81b6064820152608401611424565b6001600160a01b03831660009081526033602052604090205481811015612f2b5760405162461bcd60e51b815260206004820152602660248201527f45524332303a207472616e7366657220616d6f756e7420657863656564732062604482015265616c616e636560d01b6064820152608401611424565b6001600160a01b03808516600090815260336020526040808220858503905591851681529081208054849290612f6290849061485f565b92505081905550826001600160a01b0316846001600160a01b03167fddf252ad1be2c89b69c2b068fc378daa952ba7f163c4a11628f55a4df523b3ef84604051612fae91815260200190565b60405180910390a35b50505050565b6001600160a01b038381166000908152603460209081526040808320938616835292905220546000198114612fb7578181101561303c5760405162461bcd60e51b815260206004820152601d60248201527f45524332303a20696e73756666696369656e7420616c6c6f77616e63650000006044820152606401611424565b612fb78484848403612cc1565b6001600160a01b03831661306f5760405162461bcd60e51b81526004016114249061475f565b6001600160a01b0383166000908152610116602052604090205460ff16156130cf5760405162461bcd60e51b8152602060048201526013602482015272426c61636b6c6973746564206164647265737360681b6044820152606401611424565b61011454600160a01b900460ff16156130f2576130ed838383612e2b565b6137f6565b600061310161011a5442101590565b9050808015613126575061010e54600090613124906001600160a01b0316611bb0565b115b801561314b57506001600160a01b0384166000908152610117602052604090205460ff165b80156131665750610111546001600160a01b03858116911614155b801561316f5750805b8015613189575061011a5461318590600961485f565b4211155b156131975761319783613bc7565b60fd5460ff1680156131b4575061011454600160a01b900460ff16155b80156131ca575060ff546131c730611bb0565b10155b80156131d8575061010a5447105b80156131fe57506001600160a01b0384166000908152610117602052604090205460ff16155b80156132195750610111546001600160a01b03858116911614155b80156132345750610111546001600160a01b03848116911614155b1561358857600080516020614afd83398151915260013386868660405161325f959493929190614631565b60405180910390a1600080516020614afd833981519152600033868660ff5460405161328f959493929190614631565b60405180910390a1610114805460ff60a01b1916600160a01b17905561010554610100546000916132bf9161485f565b6101065460fe54919250906132d360355490565b1161331057610102546132e6908361485f565b915061010254816132f7919061485f565b9050610102546101055461330b919061485f565b610105555b600061332b826110c78560ff54612e0790919063ffffffff16565b9050600080516020614afd833981519152600b33898985604051613353959493929190614631565b60405180910390a1610118546133739082906001600160a01b0316612578565b6000613391836110c76101015460ff54612e0790919063ffffffff16565b905061339c81610d80565b600080516020614afd8339815191526016338a8a856040516133c2959493929190614631565b60405180910390a160006133e8846110c76101035460ff54612e0790919063ffffffff16565b9050600080516020614afd8339815191526021338b8b85604051613410959493929190614631565b60405180910390a1610119546134309082906001600160a01b0316612578565b600061344e856110c76101045460ff54612e0790919063ffffffff16565b905061345981613c0f565b61010554610118546040516370a0823160e01b81523060048201526000926134e5928a926110c792916001600160a01b0316906370a082319060240160206040518083038186803b1580156134ad57600080fd5b505afa1580156134c1573d6000803e3d6000fd5b505050506040513d601f19601f82011682018060405250810190611aa59190614527565b6101185461010f5460405163a9059cbb60e01b81526001600160a01b03918216600482015260248101849052929350169063a9059cbb90604401602060405180830381600087803b15801561353957600080fd5b505af115801561354d573d6000803e3d6000fd5b505050506040513d601f19601f82011682018060405250810190613571919061450b565b5050610114805460ff60a01b191690555050505050505b60ff54613596906003612e07565b61359f30611bb0565b1061360357600080516020614afd8339815191526002338686866040516135ca959493929190614631565b60405180910390a16101125460ff546136039130916001600160a01b0390911690611475906135fa906002612e07565b61104830611bb0565b61011454600160a01b900460ff1615801561362d5750610111546001600160a01b03858116911614155b80156136485750610111546001600160a01b03848116911614155b8015613662575061010e546001600160a01b038481169116145b156137a35760006136856127106110c76101065486612e0790919063ffffffff16565b905060006136a56127106110c76101025487612e0790919063ffffffff16565b905060fe546136b360355490565b11156136d4576136c38682613c55565b6136cd8482612def565b93506136e1565b6136de8282612e1f565b91505b6136eb8483612def565b93506136f8863084612e2b565b61010e546001600160a01b038681169116148015906137265750610110546001600160a01b03878116911614155b801561373a575061373860fb8661399f565b155b1561374c5761374a60fb86613da3565b505b61010e546001600160a01b0387811691161480159061377a5750610110546001600160a01b03878116911614155b801561378e575061378c60fb8761399f565b155b156137a05761379e60fb87613da3565b505b50505b6137ae848484612e2b565b61011454600160a01b900460ff16612fb757600080516020614afd8339815191526003338686866040516137e6959493929190614631565b60405180910390a1612fb7610f08565b505050565b60c9546001600160a01b0316331461157d5760405162461bcd60e51b81526004016114249061472a565b7f4910fdfa16fed3260ed0e7147f7cc6da11a60208b5b9406d12a635614ffd91435460ff1615613858576130ed83613db8565b826001600160a01b03166352d1902d6040518163ffffffff1660e01b815260040160206040518083038186803b15801561389157600080fd5b505afa9250505080156138c1575060408051601f3d908101601f191682019092526138be91810190614527565b60015b6139245760405162461bcd60e51b815260206004820152602e60248201527f45524331393637557067726164653a206e657720696d706c656d656e7461746960448201526d6f6e206973206e6f74205555505360901b6064820152608401611424565b600080516020614ab683398151915281146139935760405162461bcd60e51b815260206004820152602960248201527f45524331393637557067726164653a20756e737570706f727465642070726f786044820152681a58589b195555525160ba1b6064820152608401611424565b506137f6838383613e54565b6001600160a01b03811660009081526001830160205260408120541515611499565b60c980546001600160a01b038381166001600160a01b0319831681179093556040519116919082907f8be0079c531659141344cd1fd0a4f28419497f9722a3daafe3b4186f6b6457e090600090a35050565b600054610100900460ff16613a3a5760405162461bcd60e51b8152600401611424906147a4565b6117b78282613e79565b600054610100900460ff16613a6b5760405162461bcd60e51b8152600401611424906147a4565b6113f8613ec7565b600054610100900460ff166113f85760405162461bcd60e51b8152600401611424906147a4565b6001600160a01b038216613af05760405162461bcd60e51b815260206004820152601f60248201527f45524332303a206d696e7420746f20746865207a65726f2061646472657373006044820152606401611424565b8060356000828254613b02919061485f565b90915550506001600160a01b03821660009081526033602052604081208054839290613b2f90849061485f565b90915550506040518181526001600160a01b038316906000907fddf252ad1be2c89b69c2b068fc378daa952ba7f163c4a11628f55a4df523b3ef9060200160405180910390a36117b7565b6000611499836001600160a01b038416613ef7565b6000826000018281548110613bb457634e487b7160e01b600052603260045260246000fd5b9060005260206000200154905092915050565b6001600160a01b0381166000908152610116602052604090205460ff1661157d576001600160a01b038116600090815261011660205260409020805460ff1916600117905550565b6000613c1c826002612e13565b90506000613c2a8383612def565b905047613c3683610d80565b6000613c424783612def565b9050613c4e8382614014565b5050505050565b6001600160a01b038216613cb55760405162461bcd60e51b815260206004820152602160248201527f45524332303a206275726e2066726f6d20746865207a65726f206164647265736044820152607360f81b6064820152608401611424565b6001600160a01b03821660009081526033602052604090205481811015613d295760405162461bcd60e51b815260206004820152602260248201527f45524332303a206275726e20616d6f756e7420657863656564732062616c616e604482015261636560f01b6064820152608401611424565b6001600160a01b0383166000908152603360205260408120838303905560358054849290613d589084906149cd565b90915550506040518281526000906001600160a01b038516907fddf252ad1be2c89b69c2b068fc378daa952ba7f163c4a11628f55a4df523b3ef9060200160405180910390a36137f6565b6000611499836001600160a01b0384166140d3565b6001600160a01b0381163b613e255760405162461bcd60e51b815260206004820152602d60248201527f455243313936373a206e657720696d706c656d656e746174696f6e206973206e60448201526c1bdd08184818dbdb9d1c9858dd609a1b6064820152608401611424565b600080516020614ab683398151915280546001600160a01b0319166001600160a01b0392909216919091179055565b613e5d83614122565b600082511180613e6a5750805b156137f657612fb78383614162565b600054610100900460ff16613ea05760405162461bcd60e51b8152600401611424906147a4565b8151613eb390603690602085019061428f565b5080516137f690603790602084019061428f565b600054610100900460ff16613eee5760405162461bcd60e51b8152600401611424906147a4565b6113f8336139c1565b6000818152600183016020526040812054801561400a576000613f1b6001836149cd565b8554909150600090613f2f906001906149cd565b9050818114613fb0576000866000018281548110613f5d57634e487b7160e01b600052603260045260246000fd5b9060005260206000200154905080876000018481548110613f8e57634e487b7160e01b600052603260045260246000fd5b6000918252602080832090910192909255918252600188019052604090208390555b8554869080613fcf57634e487b7160e01b600052603160045260246000fd5b600190038181906000526020600020016000905590558560010160008681526020019081526020016000206000905560019350505050610d7a565b6000915050610d7a565b6101155461402d9030906001600160a01b031684612cc1565b610115546101145460405163f305d71960e01b81523060048201526024810185905260006044820181905260648201526001600160a01b0391821660848201524260a482015291169063f305d71990839060c4016060604051808303818588803b15801561409a57600080fd5b505af11580156140ae573d6000803e3d6000fd5b50505050506040513d601f19601f82011682018060405250810190613c4e91906145a6565b600081815260018301602052604081205461411a57508154600181810184556000848152602080822090930184905584548482528286019093526040902091909155610d7a565b506000610d7a565b61412b81613db8565b6040516001600160a01b038216907fbc7cd75a20ee27fd9adebab32041f755214dbc6bffa90cc0225b39da2e5c2d3b90600090a250565b60606001600160a01b0383163b6141ca5760405162461bcd60e51b815260206004820152602660248201527f416464726573733a2064656c65676174652063616c6c20746f206e6f6e2d636f6044820152651b9d1c9858dd60d21b6064820152608401611424565b600080846001600160a01b0316846040516141e59190614615565b600060405180830381855af49150503d8060008114614220576040519150601f19603f3d011682016040523d82523d6000602084013e614225565b606091505b509150915061424d8282604051806060016040528060278152602001614ad660279139614256565b95945050505050565b60608315614265575081611499565b8251156142755782518084602001fd5b8160405162461bcd60e51b8152600401611424919061465f565b82805461429b90614a10565b90600052602060002090601f0160209004810192826142bd5760008555614303565b82601f106142d657805160ff1916838001178555614303565b82800160010185558215614303579182015b828111156143035782518255916020019190600101906142e8565b5061430f929150614313565b5090565b5b8082111561430f5760008155600101614314565b600060208284031215614339578081fd5b813561149981614a92565b600060208284031215614355578081fd5b815161149981614a92565b60008060408385031215614372578081fd5b823561437d81614a92565b9150602083013561438d81614a92565b809150509250929050565b6000806000606084860312156143ac578081fd5b83356143b781614a92565b925060208401356143c781614a92565b929592945050506040919091013590565b600080604083850312156143ea578182fd5b82356143f581614a92565b9150602083013561438d81614aa7565b60008060408385031215614417578182fd5b823561442281614a92565b9150602083013567ffffffffffffffff8082111561443e578283fd5b818501915085601f830112614451578283fd5b81358181111561446357614463614a7c565b604051601f8201601f19908116603f0116810190838211818310171561448b5761448b614a7c565b816040528281528860208487010111156144a3578586fd5b82602086016020830137856020848301015280955050505050509250929050565b600080604083850312156144d6578182fd5b82356144e181614a92565b946020939093013593505050565b600060208284031215614500578081fd5b813561149981614aa7565b60006020828403121561451c578081fd5b815161149981614aa7565b600060208284031215614538578081fd5b5051919050565b600060208284031215614550578081fd5b5035919050565b60008060408385031215614569578182fd5b82359150602083013561438d81614a92565b60008060006060848603121561458f578283fd5b505081359360208301359350604090920135919050565b6000806000606084860312156145ba578283fd5b8351925060208401519150604084015190509250925092565b60008060008060008060c087890312156145eb578384fd5b505084359660208601359650604086013595606081013595506080810135945060a0013592509050565b600082516146278184602087016149e4565b9190910192915050565b9485526001600160a01b03938416602086015291831660408501529091166060830152608082015260a00190565b600060208252825180602084015261467e8160408501602087016149e4565b601f01601f19169190910160400192915050565b6020808252602c908201527f46756e6374696f6e206d7573742062652063616c6c6564207468726f7567682060408201526b19195b1959d85d1958d85b1b60a21b606082015260800190565b6020808252602c908201527f46756e6374696f6e206d7573742062652063616c6c6564207468726f7567682060408201526b6163746976652070726f787960a01b606082015260800190565b6020808252818101527f4f776e61626c653a2063616c6c6572206973206e6f7420746865206f776e6572604082015260600190565b60208082526025908201527f45524332303a207472616e736665722066726f6d20746865207a65726f206164604082015264647265737360d81b606082015260800190565b6020808252602b908201527f496e697469616c697a61626c653a20636f6e7472616374206973206e6f74206960408201526a6e697469616c697a696e6760a81b606082015260800190565b600060a082018783526020878185015260a0604085015281875180845260c0860191508289019350845b8181101561483e5784516001600160a01b031683529383019391830191600101614819565b50506001600160a01b03969096166060850152505050608001529392505050565b6000821982111561487257614872614a66565b500190565b60008261489257634e487b7160e01b81526012600452602481fd5b500490565b80825b60018086116148a957506148d4565b8187048211156148bb576148bb614a66565b808616156148c857918102915b9490941c93800261489a565b94509492505050565b600061149960001960ff8516846000826148f957506001611499565b8161490657506000611499565b816001811461491c576002811461492657614953565b6001915050611499565b60ff84111561493757614937614a66565b6001841b91508482111561494d5761494d614a66565b50611499565b5060208310610133831016604e8410600b8410161715614986575081810a8381111561498157614981614a66565b611499565b6149938484846001614897565b8086048211156149a5576149a5614a66565b02949350505050565b60008160001904831182151516156149c8576149c8614a66565b500290565b6000828210156149df576149df614a66565b500390565b60005b838110156149ff5781810151838201526020016149e7565b83811115612fb75750506000910152565b600181811c90821680614a2457607f821691505b60208210811415614a4557634e487b7160e01b600052602260045260246000fd5b50919050565b6000600019821415614a5f57614a5f614a66565b5060010190565b634e487b7160e01b600052601160045260246000fd5b634e487b7160e01b600052604160045260246000fd5b6001600160a01b038116811461157d57600080fd5b801515811461157d57600080fdfe360894a13ba1a3210667c828492db98dca3e2076cc3735a920a3ca505d382bbc416464726573733a206c6f772d6c6576656c2064656c65676174652063616c6c206661696c6564e89405beace6906fadfd6504de4b4906aa76048e3b9c0669d76e08c541115d5fa2646970667358221220ab5e0ba418605ecfafb221aa27c28bad6fe9dc04fec0165c4a468afeb9f8ce4364736f6c63430008030033",
  "linkReferences": {},
  "deployedLinkReferences": {}
}