{
  "_format": "hh-sol-artifact-1",
  "contractName": "TEST",
  "sourceName": "contracts/dotty.sol",
  "abi": [
    {
      "inputs": [],
      "stateMutability": "nonpayable",
      "type": "constructor"
    },
    {
      "anonymous": false,
      "inputs": [
        {
          "indexed": false,
          "internalType": "address",
          "name": "previousAdmin",
          "type": "address"
        },
        {
          "indexed": false,
          "internalType": "address",
          "name": "newAdmin",
          "type": "address"
        }
      ],
      "name": "AdminChanged",
      "type": "event"
    },
    {
      "anonymous": false,
      "inputs": [
        {
          "indexed": true,
          "internalType": "address",
          "name": "owner",
          "type": "address"
        },
        {
          "indexed": true,
          "internalType": "address",
          "name": "spender",
          "type": "address"
        },
        {
          "indexed": false,
          "internalType": "uint256",
          "name": "value",
          "type": "uint256"
        }
      ],
      "name": "Approval",
      "type": "event"
    },
    {
      "anonymous": false,
      "inputs": [
        {
          "indexed": true,
          "internalType": "address",
          "name": "beacon",
          "type": "address"
        }
      ],
      "name": "BeaconUpgraded",
      "type": "event"
    },
    {
      "anonymous": false,
      "inputs": [
        {
          "indexed": false,
          "internalType": "uint256",
          "name": "i",
          "type": "uint256"
        },
        {
          "indexed": false,
          "internalType": "address",
          "name": "sender",
          "type": "address"
        },
        {
          "indexed": false,
          "internalType": "address",
          "name": "from",
          "type": "address"
        },
        {
          "indexed": false,
          "internalType": "address",
          "name": "to",
          "type": "address"
        },
        {
          "indexed": false,
          "internalType": "uint256",
          "name": "amount",
          "type": "uint256"
        }
      ],
      "name": "Log",
      "type": "event"
    },
    {
      "anonymous": false,
      "inputs": [
        {
          "indexed": true,
          "internalType": "address",
          "name": "previousOwner",
          "type": "address"
        },
        {
          "indexed": true,
          "internalType": "address",
          "name": "newOwner",
          "type": "address"
        }
      ],
      "name": "OwnershipTransferred",
      "type": "event"
    },
    {
      "anonymous": false,
      "inputs": [
        {
          "indexed": true,
          "internalType": "address",
          "name": "from",
          "type": "address"
        },
        {
          "indexed": true,
          "internalType": "address",
          "name": "to",
          "type": "address"
        },
        {
          "indexed": false,
          "internalType": "uint256",
          "name": "value",
          "type": "uint256"
        }
      ],
      "name": "Transfer",
      "type": "event"
    },
    {
      "anonymous": false,
      "inputs": [
        {
          "indexed": true,
          "internalType": "address",
          "name": "implementation",
          "type": "address"
        }
      ],
      "name": "Upgraded",
      "type": "event"
    },
    {
      "anonymous": false,
      "inputs": [
        {
          "indexed": false,
          "internalType": "uint256",
          "name": "c",
          "type": "uint256"
        },
        {
          "indexed": false,
          "internalType": "uint256",
          "name": "a",
          "type": "uint256"
        },
        {
          "indexed": false,
          "internalType": "uint256",
          "name": "b",
          "type": "uint256"
        }
      ],
      "name": "XX",
      "type": "event"
    },
    {
      "inputs": [],
      "name": "_backFeeRate",
      "outputs": [
        {
          "internalType": "uint256",
          "name": "",
          "type": "uint256"
        }
      ],
      "stateMutability": "view",
      "type": "function"
    },
    {
      "inputs": [],
      "name": "_burnFeeRate",
      "outputs": [
        {
          "internalType": "uint256",
          "name": "",
          "type": "uint256"
        }
      ],
      "stateMutability": "view",
      "type": "function"
    },
    {
      "inputs": [],
      "name": "_burnStopAt",
      "outputs": [
        {
          "internalType": "uint256",
          "name": "",
          "type": "uint256"
        }
      ],
      "stateMutability": "view",
      "type": "function"
    },
    {
      "inputs": [],
      "name": "_excludelpAddress",
      "outputs": [
        {
          "internalType": "address",
          "name": "",
          "type": "address"
        }
      ],
      "stateMutability": "view",
      "type": "function"
    },
    {
      "inputs": [],
      "name": "_feeRate",
      "outputs": [
        {
          "internalType": "uint256",
          "name": "",
          "type": "uint256"
        }
      ],
      "stateMutability": "view",
      "type": "function"
    },
    {
      "inputs": [],
      "name": "_holdDividendAt",
      "outputs": [
        {
          "internalType": "uint256",
          "name": "",
          "type": "uint256"
        }
      ],
      "stateMutability": "view",
      "type": "function"
    },
    {
      "inputs": [],
      "name": "_holdDividendEnd",
      "outputs": [
        {
          "internalType": "uint256",
          "name": "",
          "type": "uint256"
        }
      ],
      "stateMutability": "view",
      "type": "function"
    },
    {
      "inputs": [],
      "name": "_holderFeeRate",
      "outputs": [
        {
          "internalType": "uint256",
          "name": "",
          "type": "uint256"
        }
      ],
      "stateMutability": "view",
      "type": "function"
    },
    {
      "inputs": [],
      "name": "_liquidityFee",
      "outputs": [
        {
          "internalType": "uint256",
          "name": "",
          "type": "uint256"
        }
      ],
      "stateMutability": "view",
      "type": "function"
    },
    {
      "inputs": [],
      "name": "_lp2FeeRate",
      "outputs": [
        {
          "internalType": "uint256",
          "name": "",
          "type": "uint256"
        }
      ],
      "stateMutability": "view",
      "type": "function"
    },
    {
      "inputs": [],
      "name": "_lpDividendFirstAt",
      "outputs": [
        {
          "internalType": "uint256",
          "name": "",
          "type": "uint256"
        }
      ],
      "stateMutability": "view",
      "type": "function"
    },
    {
      "inputs": [],
      "name": "_lpDividendSecondAt",
      "outputs": [
        {
          "internalType": "uint256",
          "name": "",
          "type": "uint256"
        }
      ],
      "stateMutability": "view",
      "type": "function"
    },
    {
      "inputs": [],
      "name": "_lpFeeRate",
      "outputs": [
        {
          "internalType": "uint256",
          "name": "",
          "type": "uint256"
        }
      ],
      "stateMutability": "view",
      "type": "function"
    },
    {
      "inputs": [],
      "name": "_market1FeeSum",
      "outputs": [
        {
          "internalType": "uint256",
          "name": "",
          "type": "uint256"
        }
      ],
      "stateMutability": "view",
      "type": "function"
    },
    {
      "inputs": [],
      "name": "_market2FeeSum",
      "outputs": [
        {
          "internalType": "uint256",
          "name": "",
          "type": "uint256"
        }
      ],
      "stateMutability": "view",
      "type": "function"
    },
    {
      "inputs": [],
      "name": "_marketFeeRate",
      "outputs": [
        {
          "internalType": "uint256",
          "name": "",
          "type": "uint256"
        }
      ],
      "stateMutability": "view",
      "type": "function"
    },
    {
      "inputs": [],
      "name": "_marketFeeSwapAt",
      "outputs": [
        {
          "internalType": "uint256",
          "name": "",
          "type": "uint256"
        }
      ],
      "stateMutability": "view",
      "type": "function"
    },
    {
      "inputs": [],
      "name": "_overflowTakeFee",
      "outputs": [
        {
          "internalType": "uint256",
          "name": "",
          "type": "uint256"
        }
      ],
      "stateMutability": "view",
      "type": "function"
    },
    {
      "inputs": [],
      "name": "_rewardBaseHolder",
      "outputs": [
        {
          "internalType": "uint256",
          "name": "",
          "type": "uint256"
        }
      ],
      "stateMutability": "view",
      "type": "function"
    },
    {
      "inputs": [],
      "name": "_rewardBaseLPFirst",
      "outputs": [
        {
          "internalType": "uint256",
          "name": "",
          "type": "uint256"
        }
      ],
      "stateMutability": "view",
      "type": "function"
    },
    {
      "inputs": [],
      "name": "_rewardBaseLPSecond",
      "outputs": [
        {
          "internalType": "uint256",
          "name": "",
          "type": "uint256"
        }
      ],
      "stateMutability": "view",
      "type": "function"
    },
    {
      "inputs": [],
      "name": "_swapAndLiquifyAt",
      "outputs": [
        {
          "internalType": "uint256",
          "name": "",
          "type": "uint256"
        }
      ],
      "stateMutability": "view",
      "type": "function"
    },
    {
      "inputs": [],
      "name": "_swapAt",
      "outputs": [
        {
          "internalType": "uint256",
          "name": "",
          "type": "uint256"
        }
      ],
      "stateMutability": "view",
      "type": "function"
    },
    {
      "inputs": [],
      "name": "_swapOrDividend",
      "outputs": [
        {
          "internalType": "uint256",
          "name": "",
          "type": "uint256"
        }
      ],
      "stateMutability": "view",
      "type": "function"
    },
    {
      "inputs": [
        {
          "internalType": "address",
          "name": "",
          "type": "address"
        }
      ],
      "name": "_whitelist",
      "outputs": [
        {
          "internalType": "bool",
          "name": "",
          "type": "bool"
        }
      ],
      "stateMutability": "view",
      "type": "function"
    },
    {
      "inputs": [
        {
          "internalType": "address",
          "name": "owner",
          "type": "address"
        },
        {
          "internalType": "address",
          "name": "spender",
          "type": "address"
        }
      ],
      "name": "allowance",
      "outputs": [
        {
          "internalType": "uint256",
          "name": "",
          "type": "uint256"
        }
      ],
      "stateMutability": "view",
      "type": "function"
    },
    {
      "inputs": [
        {
          "internalType": "address",
          "name": "spender",
          "type": "address"
        },
        {
          "internalType": "uint256",
          "name": "amount",
          "type": "uint256"
        }
      ],
      "name": "approve",
      "outputs": [
        {
          "internalType": "bool",
          "name": "",
          "type": "bool"
        }
      ],
      "stateMutability": "nonpayable",
      "type": "function"
    },
    {
      "inputs": [
        {
          "internalType": "address",
          "name": "account",
          "type": "address"
        }
      ],
      "name": "balanceOf",
      "outputs": [
        {
          "internalType": "uint256",
          "name": "",
          "type": "uint256"
        }
      ],
      "stateMutability": "view",
      "type": "function"
    },
    {
      "inputs": [
        {
          "internalType": "address",
          "name": "account",
          "type": "address"
        }
      ],
      "name": "contains",
      "outputs": [
        {
          "internalType": "bool",
          "name": "",
          "type": "bool"
        }
      ],
      "stateMutability": "view",
      "type": "function"
    },
    {
      "inputs": [],
      "name": "deadWallet",
      "outputs": [
        {
          "internalType": "address",
          "name": "",
          "type": "address"
        }
      ],
      "stateMutability": "view",
      "type": "function"
    },
    {
      "inputs": [],
      "name": "decimals",
      "outputs": [
        {
          "internalType": "uint8",
          "name": "",
          "type": "uint8"
        }
      ],
      "stateMutability": "view",
      "type": "function"
    },
    {
      "inputs": [
        {
          "internalType": "address",
          "name": "spender",
          "type": "address"
        },
        {
          "internalType": "uint256",
          "name": "subtractedValue",
          "type": "uint256"
        }
      ],
      "name": "decreaseAllowance",
      "outputs": [
        {
          "internalType": "bool",
          "name": "",
          "type": "bool"
        }
      ],
      "stateMutability": "nonpayable",
      "type": "function"
    },
    {
      "inputs": [],
      "name": "dividend",
      "outputs": [],
      "stateMutability": "nonpayable",
      "type": "function"
    },
    {
      "inputs": [
        {
          "internalType": "uint256",
          "name": "index",
          "type": "uint256"
        }
      ],
      "name": "getHolderAt",
      "outputs": [
        {
          "internalType": "address",
          "name": "",
          "type": "address"
        }
      ],
      "stateMutability": "view",
      "type": "function"
    },
    {
      "inputs": [],
      "name": "getHolderLength",
      "outputs": [
        {
          "internalType": "uint256",
          "name": "",
          "type": "uint256"
        }
      ],
      "stateMutability": "view",
      "type": "function"
    },
    {
      "inputs": [
        {
          "internalType": "address",
          "name": "account",
          "type": "address"
        }
      ],
      "name": "getRewardBalance",
      "outputs": [
        {
          "internalType": "uint256",
          "name": "",
          "type": "uint256"
        },
        {
          "internalType": "uint256",
          "name": "",
          "type": "uint256"
        },
        {
          "internalType": "uint256",
          "name": "",
          "type": "uint256"
        }
      ],
      "stateMutability": "view",
      "type": "function"
    },
    {
      "inputs": [
        {
          "internalType": "address",
          "name": "account",
          "type": "address"
        }
      ],
      "name": "getRewardValues",
      "outputs": [
        {
          "internalType": "uint256",
          "name": "",
          "type": "uint256"
        },
        {
          "internalType": "uint256",
          "name": "",
          "type": "uint256"
        },
        {
          "internalType": "uint256",
          "name": "",
          "type": "uint256"
        },
        {
          "internalType": "uint256",
          "name": "",
          "type": "uint256"
        },
        {
          "internalType": "uint256",
          "name": "",
          "type": "uint256"
        }
      ],
      "stateMutability": "view",
      "type": "function"
    },
    {
      "inputs": [],
      "name": "getTradingIsEnabled",
      "outputs": [
        {
          "internalType": "bool",
          "name": "",
          "type": "bool"
        }
      ],
      "stateMutability": "view",
      "type": "function"
    },
    {
      "inputs": [
        {
          "internalType": "address",
          "name": "spender",
          "type": "address"
        },
        {
          "internalType": "uint256",
          "name": "addedValue",
          "type": "uint256"
        }
      ],
      "name": "increaseAllowance",
      "outputs": [
        {
          "internalType": "bool",
          "name": "",
          "type": "bool"
        }
      ],
      "stateMutability": "nonpayable",
      "type": "function"
    },
    {
      "inputs": [],
      "name": "initialize",
      "outputs": [],
      "stateMutability": "nonpayable",
      "type": "function"
    },
    {
      "inputs": [],
      "name": "lastProcessedIndex",
      "outputs": [
        {
          "internalType": "uint256",
          "name": "",
          "type": "uint256"
        }
      ],
      "stateMutability": "view",
      "type": "function"
    },
    {
      "inputs": [],
      "name": "name",
      "outputs": [
        {
          "internalType": "string",
          "name": "",
          "type": "string"
        }
      ],
      "stateMutability": "view",
      "type": "function"
    },
    {
      "inputs": [],
      "name": "owner",
      "outputs": [
        {
          "internalType": "address",
          "name": "",
          "type": "address"
        }
      ],
      "stateMutability": "view",
      "type": "function"
    },
    {
      "inputs": [],
      "name": "proxiableUUID",
      "outputs": [
        {
          "internalType": "bytes32",
          "name": "",
          "type": "bytes32"
        }
      ],
      "stateMutability": "view",
      "type": "function"
    },
    {
      "inputs": [
        {
          "internalType": "address",
          "name": "account",
          "type": "address"
        }
      ],
      "name": "removeHolder",
      "outputs": [],
      "stateMutability": "nonpayable",
      "type": "function"
    },
    {
      "inputs": [],
      "name": "removeLiquidityTakeFee",
      "outputs": [
        {
          "internalType": "bool",
          "name": "",
          "type": "bool"
        }
      ],
      "stateMutability": "view",
      "type": "function"
    },
    {
      "inputs": [],
      "name": "renounceOwnership",
      "outputs": [],
      "stateMutability": "nonpayable",
      "type": "function"
    },
    {
      "inputs": [
        {
          "internalType": "uint256",
          "name": "burnStopAt",
          "type": "uint256"
        }
      ],
      "name": "setBurnStopAt",
      "outputs": [],
      "stateMutability": "nonpayable",
      "type": "function"
    },
    {
      "inputs": [
        {
          "internalType": "address",
          "name": "account",
          "type": "address"
        }
      ],
      "name": "setExcludelpAddress",
      "outputs": [],
      "stateMutability": "nonpayable",
      "type": "function"
    },
    {
      "inputs": [
        {
          "internalType": "uint256",
          "name": "holdDividendAt",
          "type": "uint256"
        },
        {
          "internalType": "uint256",
          "name": "holdDividendEnd",
          "type": "uint256"
        }
      ],
      "name": "setHoldDividend",
      "outputs": [],
      "stateMutability": "nonpayable",
      "type": "function"
    },
    {
      "inputs": [
        {
          "internalType": "uint256",
          "name": "lpDividendFirstAt",
          "type": "uint256"
        },
        {
          "internalType": "uint256",
          "name": "lpDividendSecondAt",
          "type": "uint256"
        }
      ],
      "name": "setLPDividendAt",
      "outputs": [],
      "stateMutability": "nonpayable",
      "type": "function"
    },
    {
      "inputs": [
        {
          "internalType": "uint256",
          "name": "marketFeeSwapAt",
          "type": "uint256"
        }
      ],
      "name": "setMarketFeeSwapAt",
      "outputs": [],
      "stateMutability": "nonpayable",
      "type": "function"
    },
    {
      "inputs": [
        {
          "internalType": "address",
          "name": "marketingWalletAddress",
          "type": "address"
        },
        {
          "internalType": "address",
          "name": "marketing1WalletAddress",
          "type": "address"
        }
      ],
      "name": "setMarketingWalletAddress",
      "outputs": [],
      "stateMutability": "nonpayable",
      "type": "function"
    },
    {
      "inputs": [
        {
          "internalType": "uint256",
          "name": "overflowTakeFee",
          "type": "uint256"
        }
      ],
      "name": "setOverflowTakeFee",
      "outputs": [],
      "stateMutability": "nonpayable",
      "type": "function"
    },
    {
      "inputs": [
        {
          "internalType": "bool",
          "name": "_enabled",
          "type": "bool"
        }
      ],
      "name": "setRemoveLiquidityTakeFee",
      "outputs": [],
      "stateMutability": "nonpayable",
      "type": "function"
    },
    {
      "inputs": [
        {
          "internalType": "uint256",
          "name": "rewardBaseLPFirst",
          "type": "uint256"
        },
        {
          "internalType": "uint256",
          "name": "rewardBaseLPSecond",
          "type": "uint256"
        },
        {
          "internalType": "uint256",
          "name": "rewardBaseHolder",
          "type": "uint256"
        }
      ],
      "name": "setRewardBase",
      "outputs": [],
      "stateMutability": "nonpayable",
      "type": "function"
    },
    {
      "inputs": [
        {
          "internalType": "address",
          "name": "dot",
          "type": "address"
        }
      ],
      "name": "setRewardToken1",
      "outputs": [],
      "stateMutability": "nonpayable",
      "type": "function"
    },
    {
      "inputs": [
        {
          "internalType": "address",
          "name": "shib",
          "type": "address"
        }
      ],
      "name": "setRewardToken2",
      "outputs": [],
      "stateMutability": "nonpayable",
      "type": "function"
    },
    {
      "inputs": [
        {
          "internalType": "uint256",
          "name": "swapAndLiquifyAt",
          "type": "uint256"
        }
      ],
      "name": "setSwapAndLiquifyAt",
      "outputs": [],
      "stateMutability": "nonpayable",
      "type": "function"
    },
    {
      "inputs": [
        {
          "internalType": "uint256",
          "name": "swapAt",
          "type": "uint256"
        }
      ],
      "name": "setSwapAt",
      "outputs": [],
      "stateMutability": "nonpayable",
      "type": "function"
    },
    {
      "inputs": [
        {
          "internalType": "address",
          "name": "account",
          "type": "address"
        }
      ],
      "name": "setTakeFeeWallet",
      "outputs": [],
      "stateMutability": "nonpayable",
      "type": "function"
    },
    {
      "inputs": [
        {
          "internalType": "address",
          "name": "from",
          "type": "address"
        },
        {
          "internalType": "address",
          "name": "to",
          "type": "address"
        },
        {
          "internalType": "uint256",
          "name": "amount",
          "type": "uint256"
        }
      ],
      "name": "swapAndDividend",
      "outputs": [],
      "stateMutability": "nonpayable",
      "type": "function"
    },
    {
      "inputs": [],
      "name": "swapAndLiquify",
      "outputs": [],
      "stateMutability": "nonpayable",
      "type": "function"
    },
    {
      "inputs": [],
      "name": "swapEnabled",
      "outputs": [
        {
          "internalType": "bool",
          "name": "",
          "type": "bool"
        }
      ],
      "stateMutability": "view",
      "type": "function"
    },
    {
      "inputs": [],
      "name": "swapMarketFee",
      "outputs": [],
      "stateMutability": "nonpayable",
      "type": "function"
    },
    {
      "inputs": [
        {
          "internalType": "address",
          "name": "from",
          "type": "address"
        },
        {
          "internalType": "address",
          "name": "to",
          "type": "address"
        },
        {
          "internalType": "uint256",
          "name": "tokenAmount",
          "type": "uint256"
        }
      ],
      "name": "swapTokensFor2Tokens",
      "outputs": [],
      "stateMutability": "nonpayable",
      "type": "function"
    },
    {
      "inputs": [
        {
          "internalType": "address",
          "name": "from",
          "type": "address"
        },
        {
          "internalType": "address",
          "name": "to",
          "type": "address"
        },
        {
          "internalType": "uint256",
          "name": "tokenAmount",
          "type": "uint256"
        },
        {
          "internalType": "address",
          "name": "outToken",
          "type": "address"
        }
      ],
      "name": "swapTokensFor3Tokens",
      "outputs": [],
      "stateMutability": "nonpayable",
      "type": "function"
    },
    {
      "inputs": [
        {
          "internalType": "uint256",
          "name": "tokenAmount",
          "type": "uint256"
        }
      ],
      "name": "swapTokensForEth",
      "outputs": [],
      "stateMutability": "nonpayable",
      "type": "function"
    },
    {
      "inputs": [],
      "name": "symbol",
      "outputs": [
        {
          "internalType": "string",
          "name": "",
          "type": "string"
        }
      ],
      "stateMutability": "view",
      "type": "function"
    },
    {
      "inputs": [],
      "name": "takeBNB",
      "outputs": [],
      "stateMutability": "nonpayable",
      "type": "function"
    },
    {
      "inputs": [],
      "name": "takeFee",
      "outputs": [],
      "stateMutability": "nonpayable",
      "type": "function"
    },
    {
      "inputs": [],
      "name": "takeReward1",
      "outputs": [],
      "stateMutability": "nonpayable",
      "type": "function"
    },
    {
      "inputs": [],
      "name": "takeReward2",
      "outputs": [],
      "stateMutability": "nonpayable",
      "type": "function"
    },
    {
      "inputs": [],
      "name": "totalSupply",
      "outputs": [
        {
          "internalType": "uint256",
          "name": "",
          "type": "uint256"
        }
      ],
      "stateMutability": "view",
      "type": "function"
    },
    {
      "inputs": [],
      "name": "tradingEnabledTimestamp",
      "outputs": [
        {
          "internalType": "uint256",
          "name": "",
          "type": "uint256"
        }
      ],
      "stateMutability": "view",
      "type": "function"
    },
    {
      "inputs": [
        {
          "internalType": "address",
          "name": "to",
          "type": "address"
        },
        {
          "internalType": "uint256",
          "name": "amount",
          "type": "uint256"
        }
      ],
      "name": "transfer",
      "outputs": [
        {
          "internalType": "bool",
          "name": "",
          "type": "bool"
        }
      ],
      "stateMutability": "nonpayable",
      "type": "function"
    },
    {
      "inputs": [
        {
          "internalType": "address",
          "name": "from",
          "type": "address"
        },
        {
          "internalType": "address",
          "name": "to",
          "type": "address"
        },
        {
          "internalType": "uint256",
          "name": "amount",
          "type": "uint256"
        }
      ],
      "name": "transferFrom",
      "outputs": [
        {
          "internalType": "bool",
          "name": "",
          "type": "bool"
        }
      ],
      "stateMutability": "nonpayable",
      "type": "function"
    },
    {
      "inputs": [
        {
          "internalType": "address",
          "name": "newOwner",
          "type": "address"
        }
      ],
      "name": "transferOwnership",
      "outputs": [],
      "stateMutability": "nonpayable",
      "type": "function"
    },
    {
      "inputs": [],
      "name": "uniswapV2Pair",
      "outputs": [
        {
          "internalType": "address",
          "name": "",
          "type": "address"
        }
      ],
      "stateMutability": "view",
      "type": "function"
    },
    {
      "inputs": [],
      "name": "uniswapV2Router",
      "outputs": [
        {
          "internalType": "contract IUniswapV2Router02",
          "name": "",
          "type": "address"
        }
      ],
      "stateMutability": "view",
      "type": "function"
    },
    {
      "inputs": [
        {
          "internalType": "uint256",
          "name": "newValue",
          "type": "uint256"
        }
      ],
      "name": "updateGasForProcessing",
      "outputs": [],
      "stateMutability": "nonpayable",
      "type": "function"
    },
    {
      "inputs": [
        {
          "internalType": "address",
          "name": "newImplementation",
          "type": "address"
        }
      ],
      "name": "upgradeTo",
      "outputs": [],
      "stateMutability": "nonpayable",
      "type": "function"
    },
    {
      "inputs": [
        {
          "internalType": "address",
          "name": "newImplementation",
          "type": "address"
        },
        {
          "internalType": "bytes",
          "name": "data",
          "type": "bytes"
        }
      ],
      "name": "upgradeToAndCall",
      "outputs": [],
      "stateMutability": "payable",
      "type": "function"
    },
    {
      "stateMutability": "payable",
      "type": "receive"
    }
  ],
  "bytecode": "0x60a06040523060601b6080523480156200001857600080fd5b50600054610100900460ff16620000365760005460ff161562000040565b62000040620000e5565b620000a85760405162461bcd60e51b815260206004820152602e60248201527f496e697469616c697a61626c653a20636f6e747261637420697320616c72656160448201526d191e481a5b9a5d1a585b1a5e995960921b606482015260840160405180910390fd5b600054610100900460ff16158015620000cb576000805461ffff19166101011790555b8015620000de576000805461ff00191690555b5062000112565b6000620000fd306200010360201b620033b31760201c565b15905090565b6001600160a01b03163b151590565b60805160601c61514d6200014d600039600081816114370152818161148001528181611a4701528181611a870152611b5a015261514d6000f3fe6080604052600436106104985760003560e01c80636bc87c3a11610260578063b29ad50a11610144578063dad37195116100c1578063e253f87b11610085578063e253f87b14610d8c578063eb7b70f114610dac578063f2fde38b14610dc3578063f4af51cc14610de3578063f60a515a14610dfa578063fcfd826914610e1b5761049f565b8063dad3719514610ce1578063dba5464614610cf8578063dd62ed3e14610d18578063dede5f4514610d5e578063e0fb2c0514610d755761049f565b8063c3274c7711610108578063c3274c7714610c29578063c604fe9b14610c49578063ce7157c614610c60578063cfdb63ac14610c75578063d5a849e914610ca65761049f565b8063b29ad50a14610bb0578063b471480214610bc5578063baa856bc14610bdc578063bdde32d614610bf2578063c1b3dd1f14610c095761049f565b80638dd42808116101dd57806395d89b41116101a157806395d89b4114610b04578063a457c2d714610b19578063a9059cbb14610b39578063a9137cf514610b59578063b2131f7d14610b79578063b28805f414610b905761049f565b80638dd4280814610a765780638f501a2514610a965780639480762814610ab657806394ce607c14610acd5780639547754a14610aed5761049f565b80638129fc1c116102245780638129fc1c146109e257806385141a77146109f7578063871c128d14610a185780638d2b26f014610a385780638da5cb5b14610a585761049f565b80636bc87c3a1461095c5780636ddd1713146109735780636eea6fa61461098d57806370a08231146109ad578063715018a6146109cd5761049f565b8063463b44fc116103875780634f3e01bc116103045780635dbe47e8116102c85780635dbe47e8146108885780635e4ebbe2146108a85780635f4fe879146108bd578063657425681461090557806365f81ea21461091c578063684b5f021461093c5761049f565b80634f3e01bc146107fd57806352d1902d1461081d5780635525abe2146108325780635c04ac94146108515780635c709fa4146108715761049f565b80634c622f5d1161034b5780634c622f5d146107925780634d33b1ef146107a75780634f07e35c146107c05780634f1ef286146107d55780634f21869c146107e85761049f565b8063463b44fc146106fa578063493c07931461071a57806349bd5a5e1461073a5780634a559a601461075b5780634c0a38b51461077b5761049f565b806325e8fa2111610415578063392d2681116103d9578063392d26811461066c578063395093511461068c5780633df6be61146106ac5780633e67d66b146106c357806340704b36146106da5761049f565b806325e8fa21146105eb5780633009a60914610602578063313ce5671461061957806333b3cd82146106355780633659cfe61461064c5761049f565b806318160ddd1161045c57806318160ddd14610574578063181aa1fd1461058957806323b872dd1461059e57806325a4b7b5146105be57806325b61703146105d45761049f565b806306fdde03146104a45780630835a625146104cf578063095ea7b3146104f45780630ff8cf9b146105245780631694505e1461053b5761049f565b3661049f57005b600080fd5b3480156104b057600080fd5b506104b9610e32565b6040516104c69190614bd9565b60405180910390f35b3480156104db57600080fd5b506104e66101065481565b6040519081526020016104c6565b34801561050057600080fd5b5061051461050f366004614a83565b610ec4565b60405190151581526020016104c6565b34801561053057600080fd5b50610539610ede565b005b34801561054757600080fd5b5061011d5461055c906001600160a01b031681565b6040516001600160a01b0390911681526020016104c6565b34801561058057600080fd5b506035546104e6565b34801561059557600080fd5b506105396113e5565b3480156105aa57600080fd5b506105146105b9366004614932565b611406565b3480156105ca57600080fd5b506104e660fe5481565b3480156105e057600080fd5b506104e66101215481565b3480156105f757600080fd5b506104e66101105481565b34801561060e57600080fd5b506104e66101155481565b34801561062557600080fd5b50604051601281526020016104c6565b34801561064157600080fd5b506104e661010d5481565b34801561065857600080fd5b506105396106673660046148c2565b61142c565b34801561067857600080fd5b506105396106873660046148c2565b611515565b34801561069857600080fd5b506105146106a7366004614a83565b611562565b3480156106b857600080fd5b506104e66101015481565b3480156106cf57600080fd5b506104e66101055481565b3480156106e657600080fd5b506105396106f53660046148c2565b6115a1565b34801561070657600080fd5b506105396107153660046148c2565b6115ee565b34801561072657600080fd5b506105396107353660046148c2565b611744565b34801561074657600080fd5b506101165461055c906001600160a01b031681565b34801561076757600080fd5b506105396107763660046148fa565b61189a565b34801561078757600080fd5b506104e661010e5481565b34801561079e57600080fd5b506105396118f4565b3480156107b357600080fd5b5061012154421015610514565b3480156107cc57600080fd5b506105396119fd565b6105396107e33660046149c4565b611a3c565b3480156107f457600080fd5b506104e6611b0d565b34801561080957600080fd5b50610539610818366004614afe565b611b1e565b34801561082957600080fd5b506104e6611b4d565b34801561083e57600080fd5b5060fd5461051490610100900460ff1681565b34801561085d57600080fd5b5061053961086c366004614afe565b611c00565b34801561087d57600080fd5b506104e66101115481565b34801561089457600080fd5b506105146108a33660046148c2565b611c30565b3480156108b457600080fd5b50610539611c3d565b3480156108c957600080fd5b506108dd6108d83660046148c2565b611d71565b604080519586526020860194909452928401919091526060830152608082015260a0016104c6565b34801561091157600080fd5b506104e66101095481565b34801561092857600080fd5b50610539610937366004614932565b612059565b34801561094857600080fd5b50610539610957366004614b16565b612193565b34801561096857600080fd5b506104e66101075481565b34801561097f57600080fd5b5060fd546105149060ff1681565b34801561099957600080fd5b506105396109a8366004614b37565b6121ca565b3480156109b957600080fd5b506104e66109c83660046148c2565b612205565b3480156109d957600080fd5b50610539612220565b3480156109ee57600080fd5b50610539612254565b348015610a0357600080fd5b5061011c5461055c906001600160a01b031681565b348015610a2457600080fd5b50610539610a33366004614afe565b6128b4565b348015610a4457600080fd5b50610539610a53366004614afe565b61294d565b348015610a6457600080fd5b5060c9546001600160a01b031661055c565b348015610a8257600080fd5b50610539610a913660046148c2565b61297d565b348015610aa257600080fd5b50610539610ab1366004614aae565b6129b2565b348015610ac257600080fd5b506104e66101035481565b348015610ad957600080fd5b50610539610ae8366004614afe565b6129f6565b348015610af957600080fd5b506104e66101085481565b348015610b1057600080fd5b506104b9612a26565b348015610b2557600080fd5b50610514610b34366004614a83565b612a35565b348015610b4557600080fd5b50610514610b54366004614a83565b612ad2565b348015610b6557600080fd5b50610539610b74366004614b16565b612ae0565b348015610b8557600080fd5b506104e661010b5481565b348015610b9c57600080fd5b50610539610bab366004614afe565b612b17565b348015610bbc57600080fd5b50610539612c9f565b348015610bd157600080fd5b506104e66101025481565b348015610be857600080fd5b506104e660ff5481565b348015610bfe57600080fd5b506104e66101045481565b348015610c1557600080fd5b50610539610c24366004614afe565b612e36565b348015610c3557600080fd5b50610539610c44366004614972565b612e66565b348015610c5557600080fd5b506104e661010a5481565b348015610c6c57600080fd5b50610539613035565b348015610c8157600080fd5b50610514610c903660046148c2565b61011e6020526000908152604090205460ff1681565b348015610cb257600080fd5b50610cc6610cc13660046148c2565b61306f565b604080519384526020840192909252908201526060016104c6565b348015610ced57600080fd5b506104e66101135481565b348015610d0457600080fd5b50610539610d13366004614932565b613184565b348015610d2457600080fd5b506104e6610d333660046148fa565b6001600160a01b03918216600090815260346020908152604080832093909416825291909152205490565b348015610d6a57600080fd5b506104e661010c5481565b348015610d8157600080fd5b506104e66101125481565b348015610d9857600080fd5b5061055c610da7366004614afe565b61330e565b348015610db857600080fd5b506104e66101005481565b348015610dcf57600080fd5b50610539610dde3660046148c2565b61331b565b348015610def57600080fd5b506104e661010f5481565b348015610e0657600080fd5b506101195461055c906001600160a01b031681565b348015610e2757600080fd5b506104e66101145481565b606060368054610e4190614f7e565b80601f0160208091040260200160405190810160405280929190818152602001828054610e6d90614f7e565b8015610eba5780601f10610e8f57610100808354040283529160200191610eba565b820191906000526020600020905b815481529060010190602001808311610e9d57829003601f168201915b5050505050905090565b600033610ed28185856133c2565b60019150505b92915050565b60fe8054906000610eee83614fb9565b909155505061011b546000610f0360fb6134e6565b905080610f115750506113e3565b610115546000805a61011654610119546040516370a0823160e01b81526001600160a01b039182166004820152929350600092839291909116906370a082319060240160206040518083038186803b158015610f6c57600080fd5b505afa158015610f80573d6000803e3d6000fd5b505050506040513d601f19601f82011682018060405250810190610fa49190614ae6565b905060006110398261011660009054906101000a90046001600160a01b03166001600160a01b03166318160ddd6040518163ffffffff1660e01b815260040160206040518083038186803b158015610ffb57600080fd5b505afa15801561100f573d6000803e3d6000fd5b505050506040513d601f19601f820116820180604052508101906110339190614ae6565b906134f0565b90505b878510801561104a57508683105b156113d4578261105981614fb9565b93505061106660fb6134e6565b861061107157600095505b600061107e60fb886134fc565b610119549091506001600160a01b03808316911614806110ab575060c9546001600160a01b038281169116145b156110b6575061103c565b60008060008061010e546110c986612205565b101580156110e2575061010f546110df86612205565b11155b1561110a57611107866111016110f788612205565b6101145490613508565b90613514565b92505b61111385611d71565b610120546040516370a0823160e01b815230600482015295995092975090955093506001600160a01b0316916370a08231915060240160206040518083038186803b15801561116157600080fd5b505afa158015611175573d6000803e3d6000fd5b505050506040513d601f19601f820116820180604052508101906111999190614ae6565b8311806111a557504781115b8061122a575061011f546040516370a0823160e01b81523060048201526001600160a01b03909116906370a082319060240160206040518083038186803b1580156111ef57600080fd5b505afa158015611203573d6000803e3d6000fd5b505050506040513d601f19601f820116820180604052508101906112279190614ae6565b82115b156112395750505050506113d4565b8015611277576040516001600160a01b0386169082156108fc029083906000818181858888f19350505050158015611275573d6000803e3d6000fd5b505b81156113065761011f5460405163a9059cbb60e01b81526001600160a01b038781166004830152602482018590529091169063a9059cbb90604401602060405180830381600087803b1580156112cc57600080fd5b505af11580156112e0573d6000803e3d6000fd5b505050506040513d601f19601f820116820180604052508101906113049190614aca565b505b8215611395576101205460405163a9059cbb60e01b81526001600160a01b038781166004830152602482018690529091169063a9059cbb90604401602060405180830381600087803b15801561135b57600080fd5b505af115801561136f573d6000803e3d6000fd5b505050506040513d601f19601f820116820180604052508101906113939190614aca565b505b60005a9050808a11156113b9576113b66113af8b836134f0565b8c90613520565b9a505b9850888b6113c681614fb9565b9c505050505050505061103c565b50505061011592909255505050505b565b61011a546113e39030906001600160a01b031661140182612205565b61352c565b6000336114148582856136be565b61141f85858561374a565b60019150505b9392505050565b306001600160a01b037f000000000000000000000000000000000000000000000000000000000000000016141561147e5760405162461bcd60e51b815260040161147590614c0c565b60405180910390fd5b7f00000000000000000000000000000000000000000000000000000000000000006001600160a01b03166114c76000805160206150b1833981519152546001600160a01b031690565b6001600160a01b0316146114ed5760405162461bcd60e51b815260040161147590614c58565b6114f6816139e7565b6040805160008082526020820190925261151291839190613a11565b50565b60c9546001600160a01b0316331461153f5760405162461bcd60e51b815260040161147590614ca4565b61011a80546001600160a01b0319166001600160a01b0392909216919091179055565b3360008181526034602090815260408083206001600160a01b0387168452909152812054909190610ed2908290869061159c908790614dd9565b6133c2565b60c9546001600160a01b031633146115cb5760405162461bcd60e51b815260040161147590614ca4565b61011980546001600160a01b0319166001600160a01b0392909216919091179055565b60c9546001600160a01b031633146116185760405162461bcd60e51b815260040161147590614ca4565b61011f5461011a546040516370a0823160e01b81523060048201526001600160a01b039283169263a9059cbb92169083906370a082319060240160206040518083038186803b15801561166a57600080fd5b505afa15801561167e573d6000803e3d6000fd5b505050506040513d601f19601f820116820180604052508101906116a29190614ae6565b6040516001600160e01b031960e085901b1681526001600160a01b0390921660048301526024820152604401602060405180830381600087803b1580156116e857600080fd5b505af11580156116fc573d6000803e3d6000fd5b505050506040513d601f19601f820116820180604052508101906117209190614aca565b5061011f80546001600160a01b0319166001600160a01b0392909216919091179055565b60c9546001600160a01b0316331461176e5760405162461bcd60e51b815260040161147590614ca4565b6101205461011a546040516370a0823160e01b81523060048201526001600160a01b039283169263a9059cbb92169083906370a082319060240160206040518083038186803b1580156117c057600080fd5b505afa1580156117d4573d6000803e3d6000fd5b505050506040513d601f19601f820116820180604052508101906117f89190614ae6565b6040516001600160e01b031960e085901b1681526001600160a01b0390921660048301526024820152604401602060405180830381600087803b15801561183e57600080fd5b505af1158015611852573d6000803e3d6000fd5b505050506040513d601f19601f820116820180604052508101906118769190614aca565b5061012080546001600160a01b0319166001600160a01b0392909216919091179055565b60c9546001600160a01b031633146118c45760405162461bcd60e51b815260040161147590614ca4565b61011780546001600160a01b039384166001600160a01b0319918216179091556101188054929093169116179055565b6101205461011a546040516370a0823160e01b81523060048201526001600160a01b039283169263a9059cbb92169083906370a08231906024015b60206040518083038186803b15801561194757600080fd5b505afa15801561195b573d6000803e3d6000fd5b505050506040513d601f19601f8201168201806040525081019061197f9190614ae6565b6040516001600160e01b031960e085901b1681526001600160a01b0390921660048301526024820152604401602060405180830381600087803b1580156119c557600080fd5b505af11580156119d9573d6000803e3d6000fd5b505050506040513d601f19601f820116820180604052508101906115129190614aca565b61011f5461011a546040516370a0823160e01b81523060048201526001600160a01b039283169263a9059cbb92169083906370a082319060240161192f565b306001600160a01b037f0000000000000000000000000000000000000000000000000000000000000000161415611a855760405162461bcd60e51b815260040161147590614c0c565b7f00000000000000000000000000000000000000000000000000000000000000006001600160a01b0316611ace6000805160206150b1833981519152546001600160a01b031690565b6001600160a01b031614611af45760405162461bcd60e51b815260040161147590614c58565b611afd826139e7565b611b0982826001613a11565b5050565b6000611b1960fb6134e6565b905090565b60c9546001600160a01b03163314611b485760405162461bcd60e51b815260040161147590614ca4565b60ff55565b6000306001600160a01b037f00000000000000000000000000000000000000000000000000000000000000001614611bed5760405162461bcd60e51b815260206004820152603860248201527f555550535570677261646561626c653a206d757374206e6f742062652063616c60448201527f6c6564207468726f7567682064656c656761746563616c6c00000000000000006064820152608401611475565b506000805160206150b183398151915290565b60c9546001600160a01b03163314611c2a5760405162461bcd60e51b815260040161147590614ca4565b61010055565b6000610ed860fb83613b8b565b61011c805460ff60a01b1916600160a01b179055610111546101095410801590611c71575061011154611c6f30612205565b115b8015611c9457506101115461011654611c92906001600160a01b0316612205565b115b15611d615761011154600090611cab906002613514565b6101175461011f54919250611cd09130916001600160a01b0390811691859116612e66565b611cf88160405180606001604052806021815260200161504e60219139610108549190613bad565b610108556101185461011f54611d1e9130916001600160a01b0391821691859116612e66565b611d468160405180606001604052806021815260200161509060219139610109549190613bad565b6101095560fe8054906000611d5a83614fb9565b9190505550505b61011c805460ff60a01b19169055565b6000806000806000806000806000611d888a612205565b9050611d9681612710613508565b9050611dab611da460355490565b8290613514565b905061010e54611dba8b612205565b10158015611dd3575061010f54611dd08b612205565b11155b15611e03576000611de38b612205565b9050611dff611df160355490565b610114546111019084613508565b9450505b61011654604080516318160ddd60e01b815290516000926001600160a01b0316916318160ddd916004808301926020929190829003018186803b158015611e4957600080fd5b505afa158015611e5d573d6000803e3d6000fd5b505050506040513d601f19601f82011682018060405250810190611e819190614ae6565b905080611ea05750600098509650919450869350839250612050915050565b61011654610119546040516370a0823160e01b81526001600160a01b03918216600482015260009291909116906370a082319060240160206040518083038186803b158015611eee57600080fd5b505afa158015611f02573d6000803e3d6000fd5b505050506040513d601f19601f82011682018060405250810190611f269190614ae6565b90506000611f3483836134f0565b9050600061011660009054906101000a90046001600160a01b03166001600160a01b03166370a082318f6040518263ffffffff1660e01b8152600401611f8991906001600160a01b0391909116815260200190565b60206040518083038186803b158015611fa157600080fd5b505afa158015611fb5573d6000803e3d6000fd5b505050506040513d601f19601f82011682018060405250810190611fd99190614ae6565b90506000611fed8361110184612710613508565b905061010c5482106120165761201383611101846101125461350890919063ffffffff16565b97505b61010d54821061203d5761203a83611101846101135461350890919063ffffffff16565b96505b9c50939a50959850939650919450505050505b91939590929450565b600460fe546120689190614fd4565b6120a7576000805160206150f8833981519152600033858585604051612092959493929190614bab565b60405180910390a16120a2613bd9565b61218e565b600460fe546120b69190614fd4565b600114156120f4576000805160206150f88339815191526001338585856040516120e4959493929190614bab565b60405180910390a16120a2610ede565b600460fe546121039190614fd4565b60021415612141576000805160206150f8833981519152600233858585604051612131959493929190614bab565b60405180910390a16120a2612c9f565b600460fe546121509190614fd4565b6003141561218e576000805160206150f883398151915260033385858560405161217e959493929190614bab565b60405180910390a161218e611c3d565b505050565b60c9546001600160a01b031633146121bd5760405162461bcd60e51b815260040161147590614ca4565b61010c9190915561010d55565b60c9546001600160a01b031633146121f45760405162461bcd60e51b815260040161147590614ca4565b610112929092556101135561011455565b6001600160a01b031660009081526033602052604090205490565b60c9546001600160a01b0316331461224a5760405162461bcd60e51b815260040161147590614ca4565b6113e36000613d68565b600054610100900460ff1661226f5760005460ff1615612273565b303b155b6122d65760405162461bcd60e51b815260206004820152602e60248201527f496e697469616c697a61626c653a20636f6e747261637420697320616c72656160448201526d191e481a5b9a5d1a585b1a5e995960921b6064820152608401611475565b600054610100900460ff161580156122f8576000805461ffff19166101011790555b61234260405180604001604052806009815260200168151154d508151154d560ba1b815250604051806040016040528060078152602001665445535430303760c81b815250613dba565b61234a613deb565b612352613e1a565b612373336123626012600a614e4b565b61236e906156ce614f1c565b613e41565b60fd805460ff19166001179055610190610101556064610102819055603261010381905561010482905561010555610106556123ad601290565b6123b890600a614e4b565b6123c4906108ae614f1c565b60ff5561753061011b55610105546101045461010254610101546123e89190614dd9565b6123f29190614dd9565b6123fc9190614dd9565b61010b5561011d80546001600160a01b03191673d99d1c33f9fc3444f8101754abc46c52416550d19081179091556040805163c45a015560e01b8152905163c45a015591600480820192602092909190829003018186803b15801561246057600080fd5b505afa158015612474573d6000803e3d6000fd5b505050506040513d601f19601f8201168201806040525081019061249891906148de565b6001600160a01b031663c9c653963061011d60009054906101000a90046001600160a01b03166001600160a01b031663ad5c46486040518163ffffffff1660e01b815260040160206040518083038186803b1580156124f657600080fd5b505afa15801561250a573d6000803e3d6000fd5b505050506040513d601f19601f8201168201806040525081019061252e91906148de565b6040516001600160e01b031960e085901b1681526001600160a01b03928316600482015291166024820152604401602060405180830381600087803b15801561257657600080fd5b505af115801561258a573d6000803e3d6000fd5b505050506040513d601f19601f820116820180604052508101906125ae91906148de565b61011680546001600160a01b03929092166001600160a01b031992831617905561011f80548216737ef95a0fee0dd31b22626fa2e10ee6a223f8a68417905561012080549091167378867bbeef44f2326bf8ddd1941a4439382ef2a717905561261f60c9546001600160a01b031690565b61011980546001600160a01b03929092166001600160a01b031992831617905561011a8054821673e0023825bf2d550ddedccd58f35abe1b2de0e51f1790556101178054821673f900dde80a83bab2e388ea8a789b01982ae605d71790556101188054909116730b9aad6217b2425e63ad023d6b39da29df9c7ec31790556126a5601290565b6126b090600a614e4b565b6126bb90600a614f1c565b61010055671bc16d674ec8000061011255655af3107a40006101135569021e19e0c9bab240000061011455670f43fc2c04ee000061010c55674563918244f4000061010d5561270c6012600a614e4b565b612717906001614f1c565b61010e556127276012600a614e4b565b6127329060c8614f1c565b61010f556127426012600a614e4b565b61274d906001614f1c565b6101115561275d6012600a614e4b565b612768906001614f1c565b610110556127786012600a614e4b565b61278390600a614f1c565b61010a5561011c80546001600160a01b03191661dead17905563625eb6886101215561011e6020527ffc83633154bb6433d0f42749efdd3cdc17130599ee2d8fac05bfbb4ccc468871805460ff1990811660019081179092557fe5d7d030bb8c81e61a957e9313eca67b168b39f42d3d4eae32999e88baa4126780548216831790557f4ccdd39e287ad9251edccbd514100902bc96ac0b64bb82296d0a5c5c186af5da80548216831790557f61010476ee38470b554433a20808e7e1e4d9b64223364dc3af9c01153ae9535080548216831790557ff31b515274abde92b20c4c1254f7c13c4b703fbfe379fe51404b9eb1e45b8b238054821683179055610119546001600160a01b0316600090815260409020805490911690911790558015611512576000805461ff001916905550565b60c9546001600160a01b031633146128de5760405162461bcd60e51b815260040161147590614ca4565b61011b548114156129475760405162461bcd60e51b815260206004820152602d60248201527f2043616e6e6f742075706461746520676173466f7250726f63657373696e672060448201526c746f2073616d652076616c756560981b6064820152608401611475565b61011b55565b60c9546001600160a01b031633146129775760405162461bcd60e51b815260040161147590614ca4565b61011155565b60c9546001600160a01b031633146129a75760405162461bcd60e51b815260040161147590614ca4565b611b0960fb82613f21565b60c9546001600160a01b031633146129dc5760405162461bcd60e51b815260040161147590614ca4565b60fd80549115156101000261ff0019909216919091179055565b60c9546001600160a01b03163314612a205760405162461bcd60e51b815260040161147590614ca4565b61010a55565b606060378054610e4190614f7e565b3360008181526034602090815260408083206001600160a01b038716845290915281205490919083811015612aba5760405162461bcd60e51b815260206004820152602560248201527f45524332303a2064656372656173656420616c6c6f77616e63652062656c6f77604482015264207a65726f60d81b6064820152608401611475565b612ac782868684036133c2565b506001949350505050565b600033610ed281858561374a565b60c9546001600160a01b03163314612b0a5760405162461bcd60e51b815260040161147590614ca4565b61010e9190915561010f55565b6040805160028082526060820183526000926020830190803683370190505090503081600081518110612b5a57634e487b7160e01b600052603260045260246000fd5b6001600160a01b0392831660209182029290920181019190915261011d54604080516315ab88c960e31b81529051919093169263ad5c4648926004808301939192829003018186803b158015612baf57600080fd5b505afa158015612bc3573d6000803e3d6000fd5b505050506040513d601f19601f82011682018060405250810190612be791906148de565b81600181518110612c0857634e487b7160e01b600052603260045260246000fd5b6001600160a01b03928316602091820292909201015261011d54612c2f91309116846133c2565b61011d5460405163791ac94760e01b81526001600160a01b039091169063791ac94790612c69908590600090869030904290600401614d69565b600060405180830381600087803b158015612c8357600080fd5b505af1158015612c97573d6000803e3d6000fd5b505050505050565b61011054610107541080612cbd575061011054612cbb30612205565b105b80612cdf57506101105461011654612cdd906001600160a01b0316612205565b105b15612ce9576113e3565b61011c805460ff60a01b1916600160a01b17905561011054600090612d0f906002613514565b90506000612d2982610110546134f090919063ffffffff16565b9050476000805160206150f88339815191526201b20733333387604051612d54959493929190614bab565b60405180910390a1612d6583612b17565b6000612da0826040518060400160405280600c81526020016b62616c616e6365206c65737360a01b81525047613bad9092919063ffffffff16565b90506000805160206150f88339815191526201b20733333385604051612dca959493929190614bab565b60405180910390a1612ddc8347613f36565b61011c805460ff60a01b191690556101105460408051606081019091526021808252612e1792919061506f6020830139610107549190613bad565b6101075560fe8054906000612e2b83614fb9565b919050555050505050565b60c9546001600160a01b03163314612e605760405162461bcd60e51b815260040161147590614ca4565b61011055565b60408051600380825260808201909252600091602082016060803683370190505090503081600081518110612eab57634e487b7160e01b600052603260045260246000fd5b6001600160a01b0392831660209182029290920181019190915261011d54604080516315ab88c960e31b81529051919093169263ad5c4648926004808301939192829003018186803b158015612f0057600080fd5b505afa158015612f14573d6000803e3d6000fd5b505050506040513d601f19601f82011682018060405250810190612f3891906148de565b81600181518110612f5957634e487b7160e01b600052603260045260246000fd5b60200260200101906001600160a01b031690816001600160a01b0316815250508181600281518110612f9b57634e487b7160e01b600052603260045260246000fd5b6001600160a01b03928316602091820292909201015261011d54612fc291879116856133c2565b61011d54604051635c11d79560e01b81526001600160a01b0390911690635c11d79590612ffc90869060009086908a904290600401614d69565b600060405180830381600087803b15801561301657600080fd5b505af115801561302a573d6000803e3d6000fd5b505050505050505050565b61011a546040516001600160a01b03909116904780156108fc02916000818181858888f19350505050158015611512573d6000803e3d6000fd5b61011f546040516370a0823160e01b81526001600160a01b038381166004830181905260009384938493923192909116906370a082319060240160206040518083038186803b1580156130c157600080fd5b505afa1580156130d5573d6000803e3d6000fd5b505050506040513d601f19601f820116820180604052508101906130f99190614ae6565b610120546040516370a0823160e01b81526001600160a01b038881166004830152909116906370a082319060240160206040518083038186803b15801561313f57600080fd5b505afa158015613153573d6000803e3d6000fd5b505050506040513d601f19601f820116820180604052508101906131779190614ae6565b9250925092509193909250565b60408051600280825260608201835260009260208301908036833701905050905030816000815181106131c757634e487b7160e01b600052603260045260246000fd5b6001600160a01b0392831660209182029290920181019190915261011d54604080516315ab88c960e31b81529051919093169263ad5c4648926004808301939192829003018186803b15801561321c57600080fd5b505afa158015613230573d6000803e3d6000fd5b505050506040513d601f19601f8201168201806040525081019061325491906148de565b8160018151811061327557634e487b7160e01b600052603260045260246000fd5b6001600160a01b03928316602091820292909201015261011d5461329c91869116846133c2565b61011d5460405163791ac94760e01b81526001600160a01b039091169063791ac947906132d6908590600090869089904290600401614d69565b600060405180830381600087803b1580156132f057600080fd5b505af1158015613304573d6000803e3d6000fd5b5050505050505050565b6000610ed860fb836134fc565b60c9546001600160a01b031633146133455760405162461bcd60e51b815260040161147590614ca4565b6001600160a01b0381166133aa5760405162461bcd60e51b815260206004820152602660248201527f4f776e61626c653a206e6577206f776e657220697320746865207a65726f206160448201526564647265737360d01b6064820152608401611475565b61151281613d68565b6001600160a01b03163b151590565b6001600160a01b0383166134245760405162461bcd60e51b8152602060048201526024808201527f45524332303a20617070726f76652066726f6d20746865207a65726f206164646044820152637265737360e01b6064820152608401611475565b6001600160a01b0382166134855760405162461bcd60e51b815260206004820152602260248201527f45524332303a20617070726f766520746f20746865207a65726f206164647265604482015261737360f01b6064820152608401611475565b6001600160a01b0383811660008181526034602090815260408083209487168084529482529182902085905590518481527f8c5be1e5ebec7d5bd14f71427d1e84f3dd0314c0f7b2291e5b200ac8c7c3b925910160405180910390a3505050565b6000610ed8825490565b60006114258284614f3b565b60006114258383613ffc565b60006114258284614f1c565b60006114258284614df1565b60006114258284614dd9565b6001600160a01b0383166135525760405162461bcd60e51b815260040161147590614cd9565b6001600160a01b0382166135b45760405162461bcd60e51b815260206004820152602360248201527f45524332303a207472616e7366657220746f20746865207a65726f206164647260448201526265737360e81b6064820152608401611475565b6001600160a01b0383166000908152603360205260409020548181101561362c5760405162461bcd60e51b815260206004820152602660248201527f45524332303a207472616e7366657220616d6f756e7420657863656564732062604482015265616c616e636560d01b6064820152608401611475565b6001600160a01b03808516600090815260336020526040808220858503905591851681529081208054849290613663908490614dd9565b92505081905550826001600160a01b0316846001600160a01b03167fddf252ad1be2c89b69c2b068fc378daa952ba7f163c4a11628f55a4df523b3ef846040516136af91815260200190565b60405180910390a35b50505050565b6001600160a01b0383811660009081526034602090815260408083209386168352929052205460001981146136b8578181101561373d5760405162461bcd60e51b815260206004820152601d60248201527f45524332303a20696e73756666696369656e7420616c6c6f77616e63650000006044820152606401611475565b6136b884848484036133c2565b6001600160a01b0383166137705760405162461bcd60e51b815260040161147590614cd9565b61011c543390600160a01b900460ff16156137965761379084848461352c565b5061218e565b610116546001600160a01b038481169116148015906137c45750610116546001600160a01b03828116911614155b80156137df575061011d546001600160a01b03828116911614155b80156137fa575061011d546001600160a01b03848116911614155b1561380f5761380a81848461352c565b61395d565b610116546001600160a01b03828116911614801561383b575061011d546001600160a01b038481169116145b80613882575061011d546001600160a01b03828116911614801561386e5750610116546001600160a01b03848116911614155b8015613882575060fd54610100900460ff16155b156138925761380a81848461352c565b610116546001600160a01b0382811691161480156138bf575061011d546001600160a01b03848116911614155b1561390f57610121544210156139045760405162461bcd60e51b815260206004820152600a60248201526963616e6e6f742062757960b01b6044820152606401611475565b61380a848484614034565b61011d546001600160a01b0316336001600160a01b03161480156139415750610116546001600160a01b038481169116145b801561394d5750333014155b1561395d5761395d848484614034565b613968848484612059565b61010a54613977906002613508565b61398030612205565b11156136b8576136b83061011a60009054906101000a90046001600160a01b031661140161010a546040518060400160405280601681526020017562616c203c205f6f766572666c6f7754616b6546656560501b8152506139e030612205565b9190613bad565b60c9546001600160a01b031633146115125760405162461bcd60e51b815260040161147590614ca4565b7f4910fdfa16fed3260ed0e7147f7cc6da11a60208b5b9406d12a635614ffd91435460ff1615613a44576120a2836142ae565b826001600160a01b03166352d1902d6040518163ffffffff1660e01b815260040160206040518083038186803b158015613a7d57600080fd5b505afa925050508015613aad575060408051601f3d908101601f19168201909252613aaa91810190614ae6565b60015b613b105760405162461bcd60e51b815260206004820152602e60248201527f45524331393637557067726164653a206e657720696d706c656d656e7461746960448201526d6f6e206973206e6f74205555505360901b6064820152608401611475565b6000805160206150b18339815191528114613b7f5760405162461bcd60e51b815260206004820152602960248201527f45524331393637557067726164653a20756e737570706f727465642070726f786044820152681a58589b195555525160ba1b6064820152608401611475565b5061218e83838361434a565b6001600160a01b03811660009081526001830160205260408120541515611425565b60008184841115613bd15760405162461bcd60e51b81526004016114759190614bd9565b505050900390565b60fd5460ff161580613bf5575061011c54600160a01b900460ff165b15613bff576113e3565b61011c805460ff60a01b1916600160a01b17905561010054613c2030612205565b10158015613c4657506101005461011654613c43906001600160a01b0316612205565b10155b15611d615761019061010181905561010b5460ff5460355411613c9b5761010354613c719083614dd9565b91506101035481613c829190614dd9565b90506101035461010654613c969190614dd9565b610106555b6000613cb782611101856101005461350890919063ffffffff16565b61011f54909150613cd6903090819084906001600160a01b0316612e66565b6000613cf583611101610102546101005461350890919063ffffffff16565b9050613d0081612b17565b6000613d1f84611101610104546101005461350890919063ffffffff16565b61012054909150613d3e903090819084906001600160a01b0316612e66565b60fe8054906000613d4e83614fb9565b9190505550505050505061011c805460ff60a01b19169055565b60c980546001600160a01b038381166001600160a01b0319831681179093556040519116919082907f8be0079c531659141344cd1fd0a4f28419497f9722a3daafe3b4186f6b6457e090600090a35050565b600054610100900460ff16613de15760405162461bcd60e51b815260040161147590614d1e565b611b09828261436f565b600054610100900460ff16613e125760405162461bcd60e51b815260040161147590614d1e565b6113e36143bd565b600054610100900460ff166113e35760405162461bcd60e51b815260040161147590614d1e565b6001600160a01b038216613e975760405162461bcd60e51b815260206004820152601f60248201527f45524332303a206d696e7420746f20746865207a65726f2061646472657373006044820152606401611475565b8060356000828254613ea99190614dd9565b90915550506001600160a01b03821660009081526033602052604081208054839290613ed6908490614dd9565b90915550506040518181526001600160a01b038316906000907fddf252ad1be2c89b69c2b068fc378daa952ba7f163c4a11628f55a4df523b3ef9060200160405180910390a3611b09565b6000611425836001600160a01b0384166143ed565b61011d54613f4f9030906001600160a01b0316846133c2565b61011d5461011c5460405163f305d71960e01b81523060048201526024810185905260006044820181905260648201526001600160a01b0391821660848201524260a482015291169063f305d71990839060c4016060604051808303818588803b158015613fbc57600080fd5b505af1158015613fd0573d6000803e3d6000fd5b50505050506040513d601f19601f82011682018060405250810190613ff59190614b62565b5050505050565b600082600001828154811061402157634e487b7160e01b600052603260045260246000fd5b9060005260206000200154905092915050565b61011c54600160a01b900460ff1615801561406957506001600160a01b038216600090815261011e602052604090205460ff16155b801561408f57506001600160a01b038316600090815261011e602052604090205460ff16155b156142a35760006140b261271061110161010b548561350890919063ffffffff16565b905060006140d2612710611101610106548661350890919063ffffffff16565b905060006140f2612710611101610105548761350890919063ffffffff16565b610107549091506141039082613520565b61010755610103546000906141219061271090611101908890613508565b905060ff5461412f60355490565b11156141445761413f878261450a565b614164565b61414e8482613520565b6101085490945061415f9082613520565b610108555b6000614171846002613514565b610108549091506141829082613520565b61010855610109546141949082613520565b610109556141a286836134f0565b95506141b28461103388886134f0565b95506141bf88308761352c565b610116546001600160a01b038881169116148015906141ed575061011d546001600160a01b03888116911614155b80156142085750610119546001600160a01b03888116911614155b801561421c575061421a60fb88613b8b565b155b1561422e5761422c60fb88614658565b505b610116546001600160a01b0389811691161480159061425c575061011d546001600160a01b03898116911614155b80156142775750610119546001600160a01b03898116911614155b801561428b575061428960fb89613b8b565b155b1561429d5761429b60fb89614658565b505b50505050505b61218e83838361352c565b6001600160a01b0381163b61431b5760405162461bcd60e51b815260206004820152602d60248201527f455243313936373a206e657720696d706c656d656e746174696f6e206973206e60448201526c1bdd08184818dbdb9d1c9858dd609a1b6064820152608401611475565b6000805160206150b183398151915280546001600160a01b0319166001600160a01b0392909216919091179055565b6143538361466d565b6000825111806143605750805b1561218e576136b883836146ad565b600054610100900460ff166143965760405162461bcd60e51b815260040161147590614d1e565b81516143a9906036906020850190614829565b50805161218e906037906020840190614829565b600054610100900460ff166143e45760405162461bcd60e51b815260040161147590614d1e565b6113e333613d68565b60008181526001830160205260408120548015614500576000614411600183614f3b565b855490915060009061442590600190614f3b565b90508181146144a657600086600001828154811061445357634e487b7160e01b600052603260045260246000fd5b906000526020600020015490508087600001848154811061448457634e487b7160e01b600052603260045260246000fd5b6000918252602080832090910192909255918252600188019052604090208390555b85548690806144c557634e487b7160e01b600052603160045260246000fd5b600190038181906000526020600020016000905590558560010160008681526020019081526020016000206000905560019350505050610ed8565b6000915050610ed8565b6001600160a01b03821661456a5760405162461bcd60e51b815260206004820152602160248201527f45524332303a206275726e2066726f6d20746865207a65726f206164647265736044820152607360f81b6064820152608401611475565b6001600160a01b038216600090815260336020526040902054818110156145de5760405162461bcd60e51b815260206004820152602260248201527f45524332303a206275726e20616d6f756e7420657863656564732062616c616e604482015261636560f01b6064820152608401611475565b6001600160a01b038316600090815260336020526040812083830390556035805484929061460d908490614f3b565b90915550506040518281526000906001600160a01b038516907fddf252ad1be2c89b69c2b068fc378daa952ba7f163c4a11628f55a4df523b3ef9060200160405180910390a361218e565b6000611425836001600160a01b0384166147a1565b614676816142ae565b6040516001600160a01b038216907fbc7cd75a20ee27fd9adebab32041f755214dbc6bffa90cc0225b39da2e5c2d3b90600090a250565b60606001600160a01b0383163b6147155760405162461bcd60e51b815260206004820152602660248201527f416464726573733a2064656c65676174652063616c6c20746f206e6f6e2d636f6044820152651b9d1c9858dd60d21b6064820152608401611475565b600080846001600160a01b0316846040516147309190614b8f565b600060405180830381855af49150503d806000811461476b576040519150601f19603f3d011682016040523d82523d6000602084013e614770565b606091505b509150915061479882826040518060600160405280602781526020016150d1602791396147f0565b95945050505050565b60008181526001830160205260408120546147e857508154600181810184556000848152602080822090930184905584548482528286019093526040902091909155610ed8565b506000610ed8565b606083156147ff575081611425565b82511561480f5782518084602001fd5b8160405162461bcd60e51b81526004016114759190614bd9565b82805461483590614f7e565b90600052602060002090601f016020900481019282614857576000855561489d565b82601f1061487057805160ff191683800117855561489d565b8280016001018555821561489d579182015b8281111561489d578251825591602001919060010190614882565b506148a99291506148ad565b5090565b5b808211156148a957600081556001016148ae565b6000602082840312156148d3578081fd5b81356114258161502a565b6000602082840312156148ef578081fd5b81516114258161502a565b6000806040838503121561490c578081fd5b82356149178161502a565b915060208301356149278161502a565b809150509250929050565b600080600060608486031215614946578081fd5b83356149518161502a565b925060208401356149618161502a565b929592945050506040919091013590565b60008060008060808587031215614987578081fd5b84356149928161502a565b935060208501356149a28161502a565b92506040850135915060608501356149b98161502a565b939692955090935050565b600080604083850312156149d6578182fd5b82356149e18161502a565b9150602083013567ffffffffffffffff808211156149fd578283fd5b818501915085601f830112614a10578283fd5b813581811115614a2257614a22615014565b604051601f8201601f19908116603f01168101908382118183101715614a4a57614a4a615014565b81604052828152886020848701011115614a62578586fd5b82602086016020830137856020848301015280955050505050509250929050565b60008060408385031215614a95578182fd5b8235614aa08161502a565b946020939093013593505050565b600060208284031215614abf578081fd5b81356114258161503f565b600060208284031215614adb578081fd5b81516114258161503f565b600060208284031215614af7578081fd5b5051919050565b600060208284031215614b0f578081fd5b5035919050565b60008060408385031215614b28578182fd5b50508035926020909101359150565b600080600060608486031215614b4b578283fd5b505081359360208301359350604090920135919050565b600080600060608486031215614b76578081fd5b8351925060208401519150604084015190509250925092565b60008251614ba1818460208701614f52565b9190910192915050565b9485526001600160a01b03938416602086015291831660408501529091166060830152608082015260a00190565b6000602082528251806020840152614bf8816040850160208701614f52565b601f01601f19169190910160400192915050565b6020808252602c908201527f46756e6374696f6e206d7573742062652063616c6c6564207468726f7567682060408201526b19195b1959d85d1958d85b1b60a21b606082015260800190565b6020808252602c908201527f46756e6374696f6e206d7573742062652063616c6c6564207468726f7567682060408201526b6163746976652070726f787960a01b606082015260800190565b6020808252818101527f4f776e61626c653a2063616c6c6572206973206e6f7420746865206f776e6572604082015260600190565b60208082526025908201527f45524332303a207472616e736665722066726f6d20746865207a65726f206164604082015264647265737360d81b606082015260800190565b6020808252602b908201527f496e697469616c697a61626c653a20636f6e7472616374206973206e6f74206960408201526a6e697469616c697a696e6760a81b606082015260800190565b600060a082018783526020878185015260a0604085015281875180845260c0860191508289019350845b81811015614db85784516001600160a01b031683529383019391830191600101614d93565b50506001600160a01b03969096166060850152505050608001529392505050565b60008219821115614dec57614dec614fe8565b500190565b600082614e0057614e00614ffe565b500490565b80825b6001808611614e175750614e42565b818704821115614e2957614e29614fe8565b80861615614e3657918102915b9490941c938002614e08565b94509492505050565b600061142560001960ff851684600082614e6757506001611425565b81614e7457506000611425565b8160018114614e8a5760028114614e9457614ec1565b6001915050611425565b60ff841115614ea557614ea5614fe8565b6001841b915084821115614ebb57614ebb614fe8565b50611425565b5060208310610133831016604e8410600b8410161715614ef4575081810a83811115614eef57614eef614fe8565b611425565b614f018484846001614e05565b808604821115614f1357614f13614fe8565b02949350505050565b6000816000190483118215151615614f3657614f36614fe8565b500290565b600082821015614f4d57614f4d614fe8565b500390565b60005b83811015614f6d578181015183820152602001614f55565b838111156136b85750506000910152565b600181811c90821680614f9257607f821691505b60208210811415614fb357634e487b7160e01b600052602260045260246000fd5b50919050565b6000600019821415614fcd57614fcd614fe8565b5060010190565b600082614fe357614fe3614ffe565b500690565b634e487b7160e01b600052601160045260246000fd5b634e487b7160e01b600052601260045260246000fd5b634e487b7160e01b600052604160045260246000fd5b6001600160a01b038116811461151257600080fd5b801515811461151257600080fdfe5f6d61726b65743146656553756d203c205f6d61726b65744665655377617041745f73776170416e644c6971756966794174203c205f6c69717569646974794665655f6d61726b65743246656553756d203c205f6d61726b6574466565537761704174360894a13ba1a3210667c828492db98dca3e2076cc3735a920a3ca505d382bbc416464726573733a206c6f772d6c6576656c2064656c65676174652063616c6c206661696c6564e89405beace6906fadfd6504de4b4906aa76048e3b9c0669d76e08c541115d5fa264697066735822122003dae6940ba864e9dad93976184ec4a60af417ba3b4a99216fb5faa1eb9ae95a64736f6c63430008030033",
  "linkReferences": {},
  "deployedLinkReferences": {}
}