{
  "_format": "hh-sol-artifact-1",
  "contractName": "TEST",
  "sourceName": "contracts/dotty.sol",
  "abi": [
    {
      "anonymous": false,
      "inputs": [
        {
          "indexed": false,
          "internalType": "address",
          "name": "previousAdmin",
          "type": "address"
        },
        {
          "indexed": false,
          "internalType": "address",
          "name": "newAdmin",
          "type": "address"
        }
      ],
      "name": "AdminChanged",
      "type": "event"
    },
    {
      "anonymous": false,
      "inputs": [
        {
          "indexed": true,
          "internalType": "address",
          "name": "owner",
          "type": "address"
        },
        {
          "indexed": true,
          "internalType": "address",
          "name": "spender",
          "type": "address"
        },
        {
          "indexed": false,
          "internalType": "uint256",
          "name": "value",
          "type": "uint256"
        }
      ],
      "name": "Approval",
      "type": "event"
    },
    {
      "anonymous": false,
      "inputs": [
        {
          "indexed": true,
          "internalType": "address",
          "name": "beacon",
          "type": "address"
        }
      ],
      "name": "BeaconUpgraded",
      "type": "event"
    },
    {
      "anonymous": false,
      "inputs": [
        {
          "indexed": false,
          "internalType": "uint256",
          "name": "i",
          "type": "uint256"
        },
        {
          "indexed": false,
          "internalType": "address",
          "name": "sender",
          "type": "address"
        },
        {
          "indexed": false,
          "internalType": "address",
          "name": "from",
          "type": "address"
        },
        {
          "indexed": false,
          "internalType": "address",
          "name": "to",
          "type": "address"
        },
        {
          "indexed": false,
          "internalType": "uint256",
          "name": "amount",
          "type": "uint256"
        }
      ],
      "name": "Log",
      "type": "event"
    },
    {
      "anonymous": false,
      "inputs": [
        {
          "indexed": true,
          "internalType": "address",
          "name": "previousOwner",
          "type": "address"
        },
        {
          "indexed": true,
          "internalType": "address",
          "name": "newOwner",
          "type": "address"
        }
      ],
      "name": "OwnershipTransferred",
      "type": "event"
    },
    {
      "anonymous": false,
      "inputs": [
        {
          "indexed": true,
          "internalType": "address",
          "name": "from",
          "type": "address"
        },
        {
          "indexed": true,
          "internalType": "address",
          "name": "to",
          "type": "address"
        },
        {
          "indexed": false,
          "internalType": "uint256",
          "name": "value",
          "type": "uint256"
        }
      ],
      "name": "Transfer",
      "type": "event"
    },
    {
      "anonymous": false,
      "inputs": [
        {
          "indexed": true,
          "internalType": "address",
          "name": "implementation",
          "type": "address"
        }
      ],
      "name": "Upgraded",
      "type": "event"
    },
    {
      "inputs": [],
      "name": "_backFeeRate",
      "outputs": [
        {
          "internalType": "uint256",
          "name": "",
          "type": "uint256"
        }
      ],
      "stateMutability": "view",
      "type": "function"
    },
    {
      "inputs": [],
      "name": "_burnFeeRate",
      "outputs": [
        {
          "internalType": "uint256",
          "name": "",
          "type": "uint256"
        }
      ],
      "stateMutability": "view",
      "type": "function"
    },
    {
      "inputs": [],
      "name": "_burnStopAt",
      "outputs": [
        {
          "internalType": "uint256",
          "name": "",
          "type": "uint256"
        }
      ],
      "stateMutability": "view",
      "type": "function"
    },
    {
      "inputs": [],
      "name": "_excludelpAddress",
      "outputs": [
        {
          "internalType": "address",
          "name": "",
          "type": "address"
        }
      ],
      "stateMutability": "view",
      "type": "function"
    },
    {
      "inputs": [],
      "name": "_feeRate",
      "outputs": [
        {
          "internalType": "uint256",
          "name": "",
          "type": "uint256"
        }
      ],
      "stateMutability": "view",
      "type": "function"
    },
    {
      "inputs": [],
      "name": "_holdDividendAt",
      "outputs": [
        {
          "internalType": "uint256",
          "name": "",
          "type": "uint256"
        }
      ],
      "stateMutability": "view",
      "type": "function"
    },
    {
      "inputs": [],
      "name": "_holdDividendEnd",
      "outputs": [
        {
          "internalType": "uint256",
          "name": "",
          "type": "uint256"
        }
      ],
      "stateMutability": "view",
      "type": "function"
    },
    {
      "inputs": [],
      "name": "_holderFeeRate",
      "outputs": [
        {
          "internalType": "uint256",
          "name": "",
          "type": "uint256"
        }
      ],
      "stateMutability": "view",
      "type": "function"
    },
    {
      "inputs": [],
      "name": "_liquidityFee",
      "outputs": [
        {
          "internalType": "uint256",
          "name": "",
          "type": "uint256"
        }
      ],
      "stateMutability": "view",
      "type": "function"
    },
    {
      "inputs": [],
      "name": "_lp2FeeRate",
      "outputs": [
        {
          "internalType": "uint256",
          "name": "",
          "type": "uint256"
        }
      ],
      "stateMutability": "view",
      "type": "function"
    },
    {
      "inputs": [],
      "name": "_lpDividendFirstAt",
      "outputs": [
        {
          "internalType": "uint256",
          "name": "",
          "type": "uint256"
        }
      ],
      "stateMutability": "view",
      "type": "function"
    },
    {
      "inputs": [],
      "name": "_lpDividendSecondAt",
      "outputs": [
        {
          "internalType": "uint256",
          "name": "",
          "type": "uint256"
        }
      ],
      "stateMutability": "view",
      "type": "function"
    },
    {
      "inputs": [],
      "name": "_lpFeeRate",
      "outputs": [
        {
          "internalType": "uint256",
          "name": "",
          "type": "uint256"
        }
      ],
      "stateMutability": "view",
      "type": "function"
    },
    {
      "inputs": [],
      "name": "_market1FeeSum",
      "outputs": [
        {
          "internalType": "uint256",
          "name": "",
          "type": "uint256"
        }
      ],
      "stateMutability": "view",
      "type": "function"
    },
    {
      "inputs": [],
      "name": "_market2FeeSum",
      "outputs": [
        {
          "internalType": "uint256",
          "name": "",
          "type": "uint256"
        }
      ],
      "stateMutability": "view",
      "type": "function"
    },
    {
      "inputs": [],
      "name": "_marketFeeRate",
      "outputs": [
        {
          "internalType": "uint256",
          "name": "",
          "type": "uint256"
        }
      ],
      "stateMutability": "view",
      "type": "function"
    },
    {
      "inputs": [],
      "name": "_marketFeeSwapAt",
      "outputs": [
        {
          "internalType": "uint256",
          "name": "",
          "type": "uint256"
        }
      ],
      "stateMutability": "view",
      "type": "function"
    },
    {
      "inputs": [],
      "name": "_rewardBaseHolder",
      "outputs": [
        {
          "internalType": "uint256",
          "name": "",
          "type": "uint256"
        }
      ],
      "stateMutability": "view",
      "type": "function"
    },
    {
      "inputs": [],
      "name": "_rewardBaseLPFirst",
      "outputs": [
        {
          "internalType": "uint256",
          "name": "",
          "type": "uint256"
        }
      ],
      "stateMutability": "view",
      "type": "function"
    },
    {
      "inputs": [],
      "name": "_rewardBaseLPSecond",
      "outputs": [
        {
          "internalType": "uint256",
          "name": "",
          "type": "uint256"
        }
      ],
      "stateMutability": "view",
      "type": "function"
    },
    {
      "inputs": [],
      "name": "_swapAndLiquifyAt",
      "outputs": [
        {
          "internalType": "uint256",
          "name": "",
          "type": "uint256"
        }
      ],
      "stateMutability": "view",
      "type": "function"
    },
    {
      "inputs": [],
      "name": "_swapAt",
      "outputs": [
        {
          "internalType": "uint256",
          "name": "",
          "type": "uint256"
        }
      ],
      "stateMutability": "view",
      "type": "function"
    },
    {
      "inputs": [],
      "name": "_swapOrDividend",
      "outputs": [
        {
          "internalType": "uint256",
          "name": "",
          "type": "uint256"
        }
      ],
      "stateMutability": "view",
      "type": "function"
    },
    {
      "inputs": [
        {
          "internalType": "address",
          "name": "",
          "type": "address"
        }
      ],
      "name": "_whitelist",
      "outputs": [
        {
          "internalType": "bool",
          "name": "",
          "type": "bool"
        }
      ],
      "stateMutability": "view",
      "type": "function"
    },
    {
      "inputs": [
        {
          "internalType": "address",
          "name": "owner",
          "type": "address"
        },
        {
          "internalType": "address",
          "name": "spender",
          "type": "address"
        }
      ],
      "name": "allowance",
      "outputs": [
        {
          "internalType": "uint256",
          "name": "",
          "type": "uint256"
        }
      ],
      "stateMutability": "view",
      "type": "function"
    },
    {
      "inputs": [
        {
          "internalType": "address",
          "name": "spender",
          "type": "address"
        },
        {
          "internalType": "uint256",
          "name": "amount",
          "type": "uint256"
        }
      ],
      "name": "approve",
      "outputs": [
        {
          "internalType": "bool",
          "name": "",
          "type": "bool"
        }
      ],
      "stateMutability": "nonpayable",
      "type": "function"
    },
    {
      "inputs": [
        {
          "internalType": "address",
          "name": "account",
          "type": "address"
        }
      ],
      "name": "balanceOf",
      "outputs": [
        {
          "internalType": "uint256",
          "name": "",
          "type": "uint256"
        }
      ],
      "stateMutability": "view",
      "type": "function"
    },
    {
      "inputs": [
        {
          "internalType": "address",
          "name": "account",
          "type": "address"
        }
      ],
      "name": "contains",
      "outputs": [
        {
          "internalType": "bool",
          "name": "",
          "type": "bool"
        }
      ],
      "stateMutability": "view",
      "type": "function"
    },
    {
      "inputs": [],
      "name": "deadWallet",
      "outputs": [
        {
          "internalType": "address",
          "name": "",
          "type": "address"
        }
      ],
      "stateMutability": "view",
      "type": "function"
    },
    {
      "inputs": [],
      "name": "decimals",
      "outputs": [
        {
          "internalType": "uint8",
          "name": "",
          "type": "uint8"
        }
      ],
      "stateMutability": "view",
      "type": "function"
    },
    {
      "inputs": [
        {
          "internalType": "address",
          "name": "spender",
          "type": "address"
        },
        {
          "internalType": "uint256",
          "name": "subtractedValue",
          "type": "uint256"
        }
      ],
      "name": "decreaseAllowance",
      "outputs": [
        {
          "internalType": "bool",
          "name": "",
          "type": "bool"
        }
      ],
      "stateMutability": "nonpayable",
      "type": "function"
    },
    {
      "inputs": [],
      "name": "dividend",
      "outputs": [],
      "stateMutability": "nonpayable",
      "type": "function"
    },
    {
      "inputs": [
        {
          "internalType": "uint256",
          "name": "index",
          "type": "uint256"
        }
      ],
      "name": "getHolderAt",
      "outputs": [
        {
          "internalType": "address",
          "name": "",
          "type": "address"
        }
      ],
      "stateMutability": "view",
      "type": "function"
    },
    {
      "inputs": [],
      "name": "getHolderLength",
      "outputs": [
        {
          "internalType": "uint256",
          "name": "",
          "type": "uint256"
        }
      ],
      "stateMutability": "view",
      "type": "function"
    },
    {
      "inputs": [
        {
          "internalType": "address",
          "name": "account",
          "type": "address"
        }
      ],
      "name": "getRewardBalance",
      "outputs": [
        {
          "internalType": "uint256",
          "name": "",
          "type": "uint256"
        },
        {
          "internalType": "uint256",
          "name": "",
          "type": "uint256"
        },
        {
          "internalType": "uint256",
          "name": "",
          "type": "uint256"
        }
      ],
      "stateMutability": "view",
      "type": "function"
    },
    {
      "inputs": [
        {
          "internalType": "address",
          "name": "account",
          "type": "address"
        }
      ],
      "name": "getRewardValues",
      "outputs": [
        {
          "internalType": "uint256",
          "name": "",
          "type": "uint256"
        },
        {
          "internalType": "uint256",
          "name": "",
          "type": "uint256"
        },
        {
          "internalType": "uint256",
          "name": "",
          "type": "uint256"
        },
        {
          "internalType": "uint256",
          "name": "",
          "type": "uint256"
        },
        {
          "internalType": "uint256",
          "name": "",
          "type": "uint256"
        }
      ],
      "stateMutability": "view",
      "type": "function"
    },
    {
      "inputs": [],
      "name": "getTradingIsEnabled",
      "outputs": [
        {
          "internalType": "bool",
          "name": "",
          "type": "bool"
        }
      ],
      "stateMutability": "view",
      "type": "function"
    },
    {
      "inputs": [
        {
          "internalType": "address",
          "name": "spender",
          "type": "address"
        },
        {
          "internalType": "uint256",
          "name": "addedValue",
          "type": "uint256"
        }
      ],
      "name": "increaseAllowance",
      "outputs": [
        {
          "internalType": "bool",
          "name": "",
          "type": "bool"
        }
      ],
      "stateMutability": "nonpayable",
      "type": "function"
    },
    {
      "inputs": [],
      "name": "initialize",
      "outputs": [],
      "stateMutability": "nonpayable",
      "type": "function"
    },
    {
      "inputs": [],
      "name": "lastProcessedIndex",
      "outputs": [
        {
          "internalType": "uint256",
          "name": "",
          "type": "uint256"
        }
      ],
      "stateMutability": "view",
      "type": "function"
    },
    {
      "inputs": [],
      "name": "name",
      "outputs": [
        {
          "internalType": "string",
          "name": "",
          "type": "string"
        }
      ],
      "stateMutability": "view",
      "type": "function"
    },
    {
      "inputs": [],
      "name": "owner",
      "outputs": [
        {
          "internalType": "address",
          "name": "",
          "type": "address"
        }
      ],
      "stateMutability": "view",
      "type": "function"
    },
    {
      "inputs": [],
      "name": "proxiableUUID",
      "outputs": [
        {
          "internalType": "bytes32",
          "name": "",
          "type": "bytes32"
        }
      ],
      "stateMutability": "view",
      "type": "function"
    },
    {
      "inputs": [
        {
          "internalType": "address",
          "name": "account",
          "type": "address"
        }
      ],
      "name": "removeHolder",
      "outputs": [],
      "stateMutability": "nonpayable",
      "type": "function"
    },
    {
      "inputs": [],
      "name": "removeLiquidityTakeFee",
      "outputs": [
        {
          "internalType": "bool",
          "name": "",
          "type": "bool"
        }
      ],
      "stateMutability": "view",
      "type": "function"
    },
    {
      "inputs": [],
      "name": "renounceOwnership",
      "outputs": [],
      "stateMutability": "nonpayable",
      "type": "function"
    },
    {
      "inputs": [
        {
          "internalType": "uint256",
          "name": "burnStopAt",
          "type": "uint256"
        }
      ],
      "name": "setBurnStopAt",
      "outputs": [],
      "stateMutability": "nonpayable",
      "type": "function"
    },
    {
      "inputs": [
        {
          "internalType": "address",
          "name": "account",
          "type": "address"
        }
      ],
      "name": "setExcludelpAddress",
      "outputs": [],
      "stateMutability": "nonpayable",
      "type": "function"
    },
    {
      "inputs": [
        {
          "internalType": "uint256",
          "name": "holdDividendAt",
          "type": "uint256"
        },
        {
          "internalType": "uint256",
          "name": "holdDividendEnd",
          "type": "uint256"
        }
      ],
      "name": "setHoldDividend",
      "outputs": [],
      "stateMutability": "nonpayable",
      "type": "function"
    },
    {
      "inputs": [
        {
          "internalType": "uint256",
          "name": "lpDividendFirstAt",
          "type": "uint256"
        },
        {
          "internalType": "uint256",
          "name": "lpDividendSecondAt",
          "type": "uint256"
        }
      ],
      "name": "setLPDividendAt",
      "outputs": [],
      "stateMutability": "nonpayable",
      "type": "function"
    },
    {
      "inputs": [
        {
          "internalType": "uint256",
          "name": "marketFeeSwapAt",
          "type": "uint256"
        }
      ],
      "name": "setMarketFeeSwapAt",
      "outputs": [],
      "stateMutability": "nonpayable",
      "type": "function"
    },
    {
      "inputs": [
        {
          "internalType": "address",
          "name": "marketingWalletAddress",
          "type": "address"
        },
        {
          "internalType": "address",
          "name": "marketing1WalletAddress",
          "type": "address"
        }
      ],
      "name": "setMarketingWalletAddress",
      "outputs": [],
      "stateMutability": "nonpayable",
      "type": "function"
    },
    {
      "inputs": [
        {
          "internalType": "bool",
          "name": "_enabled",
          "type": "bool"
        }
      ],
      "name": "setRemoveLiquidityTakeFee",
      "outputs": [],
      "stateMutability": "nonpayable",
      "type": "function"
    },
    {
      "inputs": [
        {
          "internalType": "uint256",
          "name": "rewardBaseLPFirst",
          "type": "uint256"
        },
        {
          "internalType": "uint256",
          "name": "rewardBaseLPSecond",
          "type": "uint256"
        },
        {
          "internalType": "uint256",
          "name": "rewardBaseHolder",
          "type": "uint256"
        }
      ],
      "name": "setRewardBase",
      "outputs": [],
      "stateMutability": "nonpayable",
      "type": "function"
    },
    {
      "inputs": [
        {
          "internalType": "address",
          "name": "dot",
          "type": "address"
        }
      ],
      "name": "setRewardToken1",
      "outputs": [],
      "stateMutability": "nonpayable",
      "type": "function"
    },
    {
      "inputs": [
        {
          "internalType": "address",
          "name": "shib",
          "type": "address"
        }
      ],
      "name": "setRewardToken2",
      "outputs": [],
      "stateMutability": "nonpayable",
      "type": "function"
    },
    {
      "inputs": [
        {
          "internalType": "uint256",
          "name": "swapAndLiquifyAt",
          "type": "uint256"
        }
      ],
      "name": "setSwapAndLiquifyAt",
      "outputs": [],
      "stateMutability": "nonpayable",
      "type": "function"
    },
    {
      "inputs": [
        {
          "internalType": "uint256",
          "name": "swapAt",
          "type": "uint256"
        }
      ],
      "name": "setSwapAt",
      "outputs": [],
      "stateMutability": "nonpayable",
      "type": "function"
    },
    {
      "inputs": [
        {
          "internalType": "address",
          "name": "account",
          "type": "address"
        }
      ],
      "name": "setTakeFeeWallet",
      "outputs": [],
      "stateMutability": "nonpayable",
      "type": "function"
    },
    {
      "inputs": [],
      "name": "swapEnabled",
      "outputs": [
        {
          "internalType": "bool",
          "name": "",
          "type": "bool"
        }
      ],
      "stateMutability": "view",
      "type": "function"
    },
    {
      "inputs": [],
      "name": "swapMarketFee",
      "outputs": [],
      "stateMutability": "nonpayable",
      "type": "function"
    },
    {
      "inputs": [
        {
          "internalType": "address",
          "name": "from",
          "type": "address"
        },
        {
          "internalType": "address",
          "name": "to",
          "type": "address"
        },
        {
          "internalType": "uint256",
          "name": "tokenAmount",
          "type": "uint256"
        }
      ],
      "name": "swapTokensFor2Tokens",
      "outputs": [],
      "stateMutability": "nonpayable",
      "type": "function"
    },
    {
      "inputs": [
        {
          "internalType": "address",
          "name": "from",
          "type": "address"
        },
        {
          "internalType": "address",
          "name": "to",
          "type": "address"
        },
        {
          "internalType": "uint256",
          "name": "tokenAmount",
          "type": "uint256"
        },
        {
          "internalType": "address",
          "name": "outToken",
          "type": "address"
        }
      ],
      "name": "swapTokensFor3Tokens",
      "outputs": [],
      "stateMutability": "nonpayable",
      "type": "function"
    },
    {
      "inputs": [
        {
          "internalType": "uint256",
          "name": "tokenAmount",
          "type": "uint256"
        }
      ],
      "name": "swapTokensForEth",
      "outputs": [],
      "stateMutability": "nonpayable",
      "type": "function"
    },
    {
      "inputs": [],
      "name": "symbol",
      "outputs": [
        {
          "internalType": "string",
          "name": "",
          "type": "string"
        }
      ],
      "stateMutability": "view",
      "type": "function"
    },
    {
      "inputs": [],
      "name": "takeBNB",
      "outputs": [],
      "stateMutability": "nonpayable",
      "type": "function"
    },
    {
      "inputs": [],
      "name": "takeFee",
      "outputs": [],
      "stateMutability": "nonpayable",
      "type": "function"
    },
    {
      "inputs": [],
      "name": "takeReward1",
      "outputs": [],
      "stateMutability": "nonpayable",
      "type": "function"
    },
    {
      "inputs": [],
      "name": "takeReward2",
      "outputs": [],
      "stateMutability": "nonpayable",
      "type": "function"
    },
    {
      "inputs": [],
      "name": "totalSupply",
      "outputs": [
        {
          "internalType": "uint256",
          "name": "",
          "type": "uint256"
        }
      ],
      "stateMutability": "view",
      "type": "function"
    },
    {
      "inputs": [],
      "name": "tradingEnabledTimestamp",
      "outputs": [
        {
          "internalType": "uint256",
          "name": "",
          "type": "uint256"
        }
      ],
      "stateMutability": "view",
      "type": "function"
    },
    {
      "inputs": [
        {
          "internalType": "address",
          "name": "to",
          "type": "address"
        },
        {
          "internalType": "uint256",
          "name": "amount",
          "type": "uint256"
        }
      ],
      "name": "transfer",
      "outputs": [
        {
          "internalType": "bool",
          "name": "",
          "type": "bool"
        }
      ],
      "stateMutability": "nonpayable",
      "type": "function"
    },
    {
      "inputs": [
        {
          "internalType": "address",
          "name": "from",
          "type": "address"
        },
        {
          "internalType": "address",
          "name": "to",
          "type": "address"
        },
        {
          "internalType": "uint256",
          "name": "amount",
          "type": "uint256"
        }
      ],
      "name": "transferFrom",
      "outputs": [
        {
          "internalType": "bool",
          "name": "",
          "type": "bool"
        }
      ],
      "stateMutability": "nonpayable",
      "type": "function"
    },
    {
      "inputs": [
        {
          "internalType": "address",
          "name": "newOwner",
          "type": "address"
        }
      ],
      "name": "transferOwnership",
      "outputs": [],
      "stateMutability": "nonpayable",
      "type": "function"
    },
    {
      "inputs": [],
      "name": "uniswapV2Pair",
      "outputs": [
        {
          "internalType": "address",
          "name": "",
          "type": "address"
        }
      ],
      "stateMutability": "view",
      "type": "function"
    },
    {
      "inputs": [],
      "name": "uniswapV2Router",
      "outputs": [
        {
          "internalType": "contract IUniswapV2Router02",
          "name": "",
          "type": "address"
        }
      ],
      "stateMutability": "view",
      "type": "function"
    },
    {
      "inputs": [
        {
          "internalType": "uint256",
          "name": "newValue",
          "type": "uint256"
        }
      ],
      "name": "updateGasForProcessing",
      "outputs": [],
      "stateMutability": "nonpayable",
      "type": "function"
    },
    {
      "inputs": [
        {
          "internalType": "address",
          "name": "newImplementation",
          "type": "address"
        }
      ],
      "name": "upgradeTo",
      "outputs": [],
      "stateMutability": "nonpayable",
      "type": "function"
    },
    {
      "inputs": [
        {
          "internalType": "address",
          "name": "newImplementation",
          "type": "address"
        },
        {
          "internalType": "bytes",
          "name": "data",
          "type": "bytes"
        }
      ],
      "name": "upgradeToAndCall",
      "outputs": [],
      "stateMutability": "payable",
      "type": "function"
    },
    {
      "stateMutability": "payable",
      "type": "receive"
    }
  ],
  "bytecode": "0x60a06040523060601b60805234801561001757600080fd5b5060805160601c614dc76100526000396000818161138a015281816113d30152818161199a015281816119da0152611aad0152614dc76000f3fe60806040526004361061046c5760003560e01c8063684b5f021161024a578063b28805f411610139578063dba54646116100b6578063eb7b70f11161007a578063eb7b70f114610d14578063f2fde38b14610d2b578063f4af51cc14610d4b578063f60a515a14610d62578063fcfd826914610d8357610473565b8063dba5464614610c60578063dd62ed3e14610c80578063dede5f4514610cc6578063e0fb2c0514610cdd578063e253f87b14610cf457610473565b8063c3274c77116100fd578063c3274c7714610ba8578063ce7157c614610bc8578063cfdb63ac14610bdd578063d5a849e914610c0e578063dad3719514610c4957610473565b8063b28805f414610b24578063b471480214610b44578063baa856bc14610b5b578063bdde32d614610b71578063c1b3dd1f14610b8857610473565b80638da5cb5b116101c757806395d89b411161018b57806395d89b4114610a98578063a457c2d714610aad578063a9059cbb14610acd578063a9137cf514610aed578063b2131f7d14610b0d57610473565b80638da5cb5b14610a0c5780638dd4280814610a2a5780638f501a2514610a4a5780639480762814610a6a5780639547754a14610a8157610473565b8063715018a61161020e578063715018a6146109815780638129fc1c1461099657806385141a77146109ab578063871c128d146109cc5780638d2b26f0146109ec57610473565b8063684b5f02146108f05780636bc87c3a146109105780636ddd1713146109275780636eea6fa61461094157806370a082311461096157610473565b806340704b36116103665780634f21869c116102e35780635c709fa4116102a75780635c709fa4146108455780635dbe47e81461085c5780635e4ebbe21461087c5780635f4fe8791461089157806365742568146108d957610473565b80634f21869c146107bc5780634f3e01bc146107d157806352d1902d146107f15780635525abe2146108065780635c04ac941461082557610473565b80634c0a38b51161032a5780634c0a38b51461074f5780634c622f5d146107665780634d33b1ef1461077b5780634f07e35c146107945780634f1ef286146107a957610473565b806340704b36146106ae578063463b44fc146106ce578063493c0793146106ee57806349bd5a5e1461070e5780634a559a601461072f57610473565b806325b61703116103f45780633659cfe6116103b85780633659cfe614610620578063392d26811461064057806339509351146106605780633df6be61146106805780633e67d66b1461069757610473565b806325b61703146105a857806325e8fa21146105bf5780633009a609146105d6578063313ce567146105ed57806333b3cd821461060957610473565b80631694505e1161043b5780631694505e1461050f57806318160ddd14610548578063181aa1fd1461055d57806323b872dd1461057257806325a4b7b51461059257610473565b806306fdde03146104785780630835a625146104a3578063095ea7b3146104c85780630ff8cf9b146104f857610473565b3661047357005b600080fd5b34801561048457600080fd5b5061048d610d9a565b60405161049a9190614874565b60405180910390f35b3480156104af57600080fd5b506104ba6101065481565b60405190815260200161049a565b3480156104d457600080fd5b506104e86104e336600461471e565b610e2c565b604051901515815260200161049a565b34801561050457600080fd5b5061050d610e46565b005b34801561051b57600080fd5b5061011c54610530906001600160a01b031681565b6040516001600160a01b03909116815260200161049a565b34801561055457600080fd5b506035546104ba565b34801561056957600080fd5b5061050d611338565b34801561057e57600080fd5b506104e861058d3660046145cd565b611359565b34801561059e57600080fd5b506104ba60fe5481565b3480156105b457600080fd5b506104ba6101205481565b3480156105cb57600080fd5b506104ba61010f5481565b3480156105e257600080fd5b506104ba6101145481565b3480156105f957600080fd5b506040516012815260200161049a565b34801561061557600080fd5b506104ba61010c5481565b34801561062c57600080fd5b5061050d61063b36600461455d565b61137f565b34801561064c57600080fd5b5061050d61065b36600461455d565b611468565b34801561066c57600080fd5b506104e861067b36600461471e565b6114b5565b34801561068c57600080fd5b506104ba6101015481565b3480156106a357600080fd5b506104ba6101055481565b3480156106ba57600080fd5b5061050d6106c936600461455d565b6114f4565b3480156106da57600080fd5b5061050d6106e936600461455d565b611541565b3480156106fa57600080fd5b5061050d61070936600461455d565b611697565b34801561071a57600080fd5b5061011554610530906001600160a01b031681565b34801561073b57600080fd5b5061050d61074a366004614595565b6117ed565b34801561075b57600080fd5b506104ba61010d5481565b34801561077257600080fd5b5061050d611847565b34801561078757600080fd5b50610120544210156104e8565b3480156107a057600080fd5b5061050d611950565b61050d6107b736600461465f565b61198f565b3480156107c857600080fd5b506104ba611a60565b3480156107dd57600080fd5b5061050d6107ec366004614799565b611a71565b3480156107fd57600080fd5b506104ba611aa0565b34801561081257600080fd5b5060fd546104e890610100900460ff1681565b34801561083157600080fd5b5061050d610840366004614799565b611b53565b34801561085157600080fd5b506104ba6101105481565b34801561086857600080fd5b506104e861087736600461455d565b611b83565b34801561088857600080fd5b5061050d611b90565b34801561089d57600080fd5b506108b16108ac36600461455d565b611cdc565b604080519586526020860194909452928401919091526060830152608082015260a00161049a565b3480156108e557600080fd5b506104ba6101095481565b3480156108fc57600080fd5b5061050d61090b3660046147b1565b611fc4565b34801561091c57600080fd5b506104ba6101075481565b34801561093357600080fd5b5060fd546104e89060ff1681565b34801561094d57600080fd5b5061050d61095c3660046147d2565b611ffb565b34801561096d57600080fd5b506104ba61097c36600461455d565b612036565b34801561098d57600080fd5b5061050d612051565b3480156109a257600080fd5b5061050d612085565b3480156109b757600080fd5b5061011b54610530906001600160a01b031681565b3480156109d857600080fd5b5061050d6109e7366004614799565b6126c3565b3480156109f857600080fd5b5061050d610a07366004614799565b6127dc565b348015610a1857600080fd5b5060c9546001600160a01b0316610530565b348015610a3657600080fd5b5061050d610a4536600461455d565b61280c565b348015610a5657600080fd5b5061050d610a65366004614749565b612841565b348015610a7657600080fd5b506104ba6101035481565b348015610a8d57600080fd5b506104ba6101085481565b348015610aa457600080fd5b5061048d612885565b348015610ab957600080fd5b506104e8610ac836600461471e565b612894565b348015610ad957600080fd5b506104e8610ae836600461471e565b612931565b348015610af957600080fd5b5061050d610b083660046147b1565b612b40565b348015610b1957600080fd5b506104ba61010a5481565b348015610b3057600080fd5b5061050d610b3f366004614799565b612b77565b348015610b5057600080fd5b506104ba6101025481565b348015610b6757600080fd5b506104ba60ff5481565b348015610b7d57600080fd5b506104ba6101045481565b348015610b9457600080fd5b5061050d610ba3366004614799565b612cff565b348015610bb457600080fd5b5061050d610bc336600461460d565b612d2f565b348015610bd457600080fd5b5061050d612efe565b348015610be957600080fd5b506104e8610bf836600461455d565b61011d6020526000908152604090205460ff1681565b348015610c1a57600080fd5b50610c2e610c2936600461455d565b612f38565b6040805193845260208401929092529082015260600161049a565b348015610c5557600080fd5b506104ba6101125481565b348015610c6c57600080fd5b5061050d610c7b3660046145cd565b61304d565b348015610c8c57600080fd5b506104ba610c9b366004614595565b6001600160a01b03918216600090815260346020908152604080832093909416825291909152205490565b348015610cd257600080fd5b506104ba61010b5481565b348015610ce957600080fd5b506104ba6101115481565b348015610d0057600080fd5b50610530610d0f366004614799565b6131d7565b348015610d2057600080fd5b506104ba6101005481565b348015610d3757600080fd5b5061050d610d4636600461455d565b6131e4565b348015610d5757600080fd5b506104ba61010e5481565b348015610d6e57600080fd5b5061011854610530906001600160a01b031681565b348015610d8f57600080fd5b506104ba6101135481565b606060368054610da990614c19565b80601f0160208091040260200160405190810160405280929190818152602001828054610dd590614c19565b8015610e225780601f10610df757610100808354040283529160200191610e22565b820191906000526020600020905b815481529060010190602001808311610e0557829003601f168201915b5050505050905090565b600033610e3a81858561327c565b60019150505b92915050565b61011a546000610e5660fb6133a0565b905080610e64575050611336565b610114546000805a61011554610118546040516370a0823160e01b81526001600160a01b039182166004820152929350600092839291909116906370a082319060240160206040518083038186803b158015610ebf57600080fd5b505afa158015610ed3573d6000803e3d6000fd5b505050506040513d601f19601f82011682018060405250810190610ef79190614781565b90506000610f8c8261011560009054906101000a90046001600160a01b03166001600160a01b03166318160ddd6040518163ffffffff1660e01b815260040160206040518083038186803b158015610f4e57600080fd5b505afa158015610f62573d6000803e3d6000fd5b505050506040513d601f19601f82011682018060405250810190610f869190614781565b906133aa565b90505b8785108015610f9d57508683105b156113275782610fac81614c54565b935050610fb960fb6133a0565b8610610fc457600095505b6000610fd160fb886133b6565b610118549091506001600160a01b0380831691161480610ffe575060c9546001600160a01b038281169116145b156110095750610f8f565b60008060008061010d5461101c86612036565b10158015611035575061010e5461103286612036565b11155b1561105d5761105a8661105461104a88612036565b61011354906133c2565b906133ce565b92505b61106685611cdc565b61011f546040516370a0823160e01b815230600482015295995092975090955093506001600160a01b0316916370a08231915060240160206040518083038186803b1580156110b457600080fd5b505afa1580156110c8573d6000803e3d6000fd5b505050506040513d601f19601f820116820180604052508101906110ec9190614781565b8311806110f857504781115b8061117d575061011e546040516370a0823160e01b81523060048201526001600160a01b03909116906370a082319060240160206040518083038186803b15801561114257600080fd5b505afa158015611156573d6000803e3d6000fd5b505050506040513d601f19601f8201168201806040525081019061117a9190614781565b82115b1561118c575050505050611327565b80156111ca576040516001600160a01b0386169082156108fc029083906000818181858888f193505050501580156111c8573d6000803e3d6000fd5b505b81156112595761011e5460405163a9059cbb60e01b81526001600160a01b038781166004830152602482018590529091169063a9059cbb90604401602060405180830381600087803b15801561121f57600080fd5b505af1158015611233573d6000803e3d6000fd5b505050506040513d601f19601f820116820180604052508101906112579190614765565b505b82156112e85761011f5460405163a9059cbb60e01b81526001600160a01b038781166004830152602482018690529091169063a9059cbb90604401602060405180830381600087803b1580156112ae57600080fd5b505af11580156112c2573d6000803e3d6000fd5b505050506040513d601f19601f820116820180604052508101906112e69190614765565b505b60005a9050808a111561130c576113096113028b836133aa565b8c906133da565b9a505b9850888b61131981614c54565b9c5050505050505050610f8f565b50505061011492909255505050505b565b610119546113369030906001600160a01b031661135482612036565b6133e6565b600033611367858285613578565b611372858585613604565b60019150505b9392505050565b306001600160a01b037f00000000000000000000000000000000000000000000000000000000000000001614156113d15760405162461bcd60e51b81526004016113c8906148a7565b60405180910390fd5b7f00000000000000000000000000000000000000000000000000000000000000006001600160a01b031661141a600080516020614d2b833981519152546001600160a01b031690565b6001600160a01b0316146114405760405162461bcd60e51b81526004016113c8906148f3565b61144981613985565b60408051600080825260208201909252611465918391906139af565b50565b60c9546001600160a01b031633146114925760405162461bcd60e51b81526004016113c89061493f565b61011980546001600160a01b0319166001600160a01b0392909216919091179055565b3360008181526034602090815260408083206001600160a01b0387168452909152812054909190610e3a90829086906114ef908790614a74565b61327c565b60c9546001600160a01b0316331461151e5760405162461bcd60e51b81526004016113c89061493f565b61011880546001600160a01b0319166001600160a01b0392909216919091179055565b60c9546001600160a01b0316331461156b5760405162461bcd60e51b81526004016113c89061493f565b61011e54610119546040516370a0823160e01b81523060048201526001600160a01b039283169263a9059cbb92169083906370a082319060240160206040518083038186803b1580156115bd57600080fd5b505afa1580156115d1573d6000803e3d6000fd5b505050506040513d601f19601f820116820180604052508101906115f59190614781565b6040516001600160e01b031960e085901b1681526001600160a01b0390921660048301526024820152604401602060405180830381600087803b15801561163b57600080fd5b505af115801561164f573d6000803e3d6000fd5b505050506040513d601f19601f820116820180604052508101906116739190614765565b5061011e80546001600160a01b0319166001600160a01b0392909216919091179055565b60c9546001600160a01b031633146116c15760405162461bcd60e51b81526004016113c89061493f565b61011f54610119546040516370a0823160e01b81523060048201526001600160a01b039283169263a9059cbb92169083906370a082319060240160206040518083038186803b15801561171357600080fd5b505afa158015611727573d6000803e3d6000fd5b505050506040513d601f19601f8201168201806040525081019061174b9190614781565b6040516001600160e01b031960e085901b1681526001600160a01b0390921660048301526024820152604401602060405180830381600087803b15801561179157600080fd5b505af11580156117a5573d6000803e3d6000fd5b505050506040513d601f19601f820116820180604052508101906117c99190614765565b5061011f80546001600160a01b0319166001600160a01b0392909216919091179055565b60c9546001600160a01b031633146118175760405162461bcd60e51b81526004016113c89061493f565b61011680546001600160a01b039384166001600160a01b0319918216179091556101178054929093169116179055565b61011f54610119546040516370a0823160e01b81523060048201526001600160a01b039283169263a9059cbb92169083906370a08231906024015b60206040518083038186803b15801561189a57600080fd5b505afa1580156118ae573d6000803e3d6000fd5b505050506040513d601f19601f820116820180604052508101906118d29190614781565b6040516001600160e01b031960e085901b1681526001600160a01b0390921660048301526024820152604401602060405180830381600087803b15801561191857600080fd5b505af115801561192c573d6000803e3d6000fd5b505050506040513d601f19601f820116820180604052508101906114659190614765565b61011e54610119546040516370a0823160e01b81523060048201526001600160a01b039283169263a9059cbb92169083906370a0823190602401611882565b306001600160a01b037f00000000000000000000000000000000000000000000000000000000000000001614156119d85760405162461bcd60e51b81526004016113c8906148a7565b7f00000000000000000000000000000000000000000000000000000000000000006001600160a01b0316611a21600080516020614d2b833981519152546001600160a01b031690565b6001600160a01b031614611a475760405162461bcd60e51b81526004016113c8906148f3565b611a5082613985565b611a5c828260016139af565b5050565b6000611a6c60fb6133a0565b905090565b60c9546001600160a01b03163314611a9b5760405162461bcd60e51b81526004016113c89061493f565b60ff55565b6000306001600160a01b037f00000000000000000000000000000000000000000000000000000000000000001614611b405760405162461bcd60e51b815260206004820152603860248201527f555550535570677261646561626c653a206d757374206e6f742062652063616c60448201527f6c6564207468726f7567682064656c656761746563616c6c000000000000000060648201526084016113c8565b50600080516020614d2b83398151915290565b60c9546001600160a01b03163314611b7d5760405162461bcd60e51b81526004016113c89061493f565b61010055565b6000610e4060fb83613b29565b61011b805460ff60a01b1916600160a01b179055600080516020614d728339815191526007611bbc3390565b33336003604051611bd1959493929190614846565b60405180910390a1610116546101105461011e54611bff9230926001600160a01b0391821692909116612d2f565b611c2a61011054604051806060016040528060218152602001614ce960219139610108549190613b4b565b61010855610110546101095410158015611c4e575061011054611c4c30612036565b115b8015611c7157506101105461011554611c6f906001600160a01b0316612036565b115b15611ccc57610117546101105461011e54611c9c9230926001600160a01b0391821692909116612d2f565b611cc761011054604051806060016040528060218152602001614d0a60219139610109549190613b4b565b610109555b61011b805460ff60a01b19169055565b6000806000806000806000806000611cf38a612036565b9050611d01816127106133c2565b9050611d16611d0f60355490565b82906133ce565b905061010d54611d258b612036565b10158015611d3e575061010e54611d3b8b612036565b11155b15611d6e576000611d4e8b612036565b9050611d6a611d5c60355490565b6101135461105490846133c2565b9450505b61011554604080516318160ddd60e01b815290516000926001600160a01b0316916318160ddd916004808301926020929190829003018186803b158015611db457600080fd5b505afa158015611dc8573d6000803e3d6000fd5b505050506040513d601f19601f82011682018060405250810190611dec9190614781565b905080611e0b5750600098509650919450869350839250611fbb915050565b61011554610118546040516370a0823160e01b81526001600160a01b03918216600482015260009291909116906370a082319060240160206040518083038186803b158015611e5957600080fd5b505afa158015611e6d573d6000803e3d6000fd5b505050506040513d601f19601f82011682018060405250810190611e919190614781565b90506000611e9f83836133aa565b9050600061011560009054906101000a90046001600160a01b03166001600160a01b03166370a082318f6040518263ffffffff1660e01b8152600401611ef491906001600160a01b0391909116815260200190565b60206040518083038186803b158015611f0c57600080fd5b505afa158015611f20573d6000803e3d6000fd5b505050506040513d601f19601f82011682018060405250810190611f449190614781565b90506000611f5883611054846127106133c2565b905061010b548210611f8157611f7e8361105484610111546133c290919063ffffffff16565b97505b61010c548210611fa857611fa58361105484610112546133c290919063ffffffff16565b96505b9c50939a50959850939650919450505050505b91939590929450565b60c9546001600160a01b03163314611fee5760405162461bcd60e51b81526004016113c89061493f565b61010b9190915561010c55565b60c9546001600160a01b031633146120255760405162461bcd60e51b81526004016113c89061493f565b610111929092556101125561011355565b6001600160a01b031660009081526033602052604090205490565b60c9546001600160a01b0316331461207b5760405162461bcd60e51b81526004016113c89061493f565b6113366000613b77565b600054610100900460ff166120a05760005460ff16156120a4565b303b155b6121075760405162461bcd60e51b815260206004820152602e60248201527f496e697469616c697a61626c653a20636f6e747261637420697320616c72656160448201526d191e481a5b9a5d1a585b1a5e995960921b60648201526084016113c8565b600054610100900460ff16158015612129576000805461ffff19166101011790555b61217060405180604001604052806009815260200168151154d508151154d560ba1b81525060405180604001604052806004815260200163151154d560e21b815250613bc9565b612178613bfa565b612180613c29565b6121a1336121906012600a614ae6565b61219c906156ce614bb7565b613c50565b6121ad6012600a614ae6565b6121b9906108ae614bb7565b60ff5561753061011a5561019061010181905560646101028190556032610103819055610104829055610105819055610106829055600160fe81905560fd805460ff191690911790559161220e908290614a74565b6122189190614a74565b6122229190614a74565b61010a5561011c80546001600160a01b03191673d99d1c33f9fc3444f8101754abc46c52416550d19081179091556040805163c45a015560e01b8152905163c45a015591600480820192602092909190829003018186803b15801561228657600080fd5b505afa15801561229a573d6000803e3d6000fd5b505050506040513d601f19601f820116820180604052508101906122be9190614579565b6001600160a01b031663c9c653963061011c60009054906101000a90046001600160a01b03166001600160a01b031663ad5c46486040518163ffffffff1660e01b815260040160206040518083038186803b15801561231c57600080fd5b505afa158015612330573d6000803e3d6000fd5b505050506040513d601f19601f820116820180604052508101906123549190614579565b6040516001600160e01b031960e085901b1681526001600160a01b03928316600482015291166024820152604401602060405180830381600087803b15801561239c57600080fd5b505af11580156123b0573d6000803e3d6000fd5b505050506040513d601f19601f820116820180604052508101906123d49190614579565b61011580546001600160a01b03929092166001600160a01b031992831617905561011e80548216737ef95a0fee0dd31b22626fa2e10ee6a223f8a68417905561011f80549091167378867bbeef44f2326bf8ddd1941a4439382ef2a717905561244560c9546001600160a01b031690565b61011880546001600160a01b03929092166001600160a01b03199283161790556101198054821673e0023825bf2d550ddedccd58f35abe1b2de0e51f1790556101168054821673f900dde80a83bab2e388ea8a789b01982ae605d71790556101178054909116730b9aad6217b2425e63ad023d6b39da29df9c7ec31790556124cb601290565b6124d690600a614ae6565b6124e190600a614bb7565b610100556803782dace9d900000061011155670de0b6b3a7640000610112556a295be96e6406697200000061011355670f43fc2c04ee000061010b55674563918244f4000061010c556125366012600a614ae6565b612541906005614bb7565b61010d556125516012600a614ae6565b61255c9060c8614bb7565b61010e5561256c6012600a614ae6565b61257790600a614bb7565b610110556125876012600a614ae6565b612592906004614bb7565b61010f5561011b80546001600160a01b03191661dead17905563625cd3046101205561011d6020527fb8a7239f507817b1251938505383ec245692fae1810c91b837dc17532f9fa0b4805460ff1990811660019081179092557fd1c24020a5301de7fa8d1915c7e79a1ffcf92b557fc275eed6b321c0d3ecbd3480548216831790557ff946fcdba44c9bd4105034246d8dadb0c0b71ec513755c9d0826979bae7e563f80548216831790557fed7dfc6ef27726866bc360e429c9da0bd9106df18ee7bf5d1f96dc371cc0517480548216831790557ff87ec371731242bea0d51404cf9d36858c0b1cfdefcac9b78cd98821cd0223468054821683179055610118546001600160a01b0316600090815260409020805490911690911790558015611465576000805461ff001916905550565b60c9546001600160a01b031633146126ed5760405162461bcd60e51b81526004016113c89061493f565b62030d40811015801561270357506207a1208111155b61276d5760405162461bcd60e51b815260206004820152603560248201527f20676173466f7250726f63657373696e67206d7573742062652062657477656560448201527406e203230302c30303020616e64203530302c30303605c1b60648201526084016113c8565b61011a548114156127d65760405162461bcd60e51b815260206004820152602d60248201527f2043616e6e6f742075706461746520676173466f7250726f63657373696e672060448201526c746f2073616d652076616c756560981b60648201526084016113c8565b61011a55565b60c9546001600160a01b031633146128065760405162461bcd60e51b81526004016113c89061493f565b61011055565b60c9546001600160a01b031633146128365760405162461bcd60e51b81526004016113c89061493f565b611a5c60fb82613d30565b60c9546001600160a01b0316331461286b5760405162461bcd60e51b81526004016113c89061493f565b60fd80549115156101000261ff0019909216919091179055565b606060378054610da990614c19565b3360008181526034602090815260408083206001600160a01b0387168452909152812054909190838110156129195760405162461bcd60e51b815260206004820152602560248201527f45524332303a2064656372656173656420616c6c6f77616e63652062656c6f77604482015264207a65726f60d81b60648201526084016113c8565b612926828686840361327c565b506001949350505050565b6000600080516020614d728339815191528133338686604051612958959493929190614846565b60405180910390a161011b543390600160a01b900460ff1615612985576129808185856133e6565b610e3a565b610115546001600160a01b038581169116148015906129b35750610115546001600160a01b03828116911614155b80156129ce575061011c546001600160a01b03828116911614155b80156129e9575061011c546001600160a01b03858116911614155b15612a2857600080516020614d728339815191526001335b338787604051612a15959493929190614846565b60405180910390a16129808185856133e6565b610115546001600160a01b038281169116148015612a54575061011c546001600160a01b038581169116145b80612a9b575061011c546001600160a01b038281169116148015612a875750610115546001600160a01b03858116911614155b8015612a9b575060fd54610100900460ff16155b15612ab757600080516020614d72833981519152600233612a01565b600080516020614d72833981519152600333338787604051612add959493929190614846565b60405180910390a161012054421015612b255760405162461bcd60e51b815260206004820152600a60248201526963616e6e6f742062757960b01b60448201526064016113c8565b612b30818585613604565b612b38611b90565b610e3a613d45565b60c9546001600160a01b03163314612b6a5760405162461bcd60e51b81526004016113c89061493f565b61010d9190915561010e55565b6040805160028082526060820183526000926020830190803683370190505090503081600081518110612bba57634e487b7160e01b600052603260045260246000fd5b6001600160a01b0392831660209182029290920181019190915261011c54604080516315ab88c960e31b81529051919093169263ad5c4648926004808301939192829003018186803b158015612c0f57600080fd5b505afa158015612c23573d6000803e3d6000fd5b505050506040513d601f19601f82011682018060405250810190612c479190614579565b81600181518110612c6857634e487b7160e01b600052603260045260246000fd5b6001600160a01b03928316602091820292909201015261011c54612c8f913091168461327c565b61011c5460405163791ac94760e01b81526001600160a01b039091169063791ac94790612cc9908590600090869030904290600401614a04565b600060405180830381600087803b158015612ce357600080fd5b505af1158015612cf7573d6000803e3d6000fd5b505050505050565b60c9546001600160a01b03163314612d295760405162461bcd60e51b81526004016113c89061493f565b61010f55565b60408051600380825260808201909252600091602082016060803683370190505090503081600081518110612d7457634e487b7160e01b600052603260045260246000fd5b6001600160a01b0392831660209182029290920181019190915261011c54604080516315ab88c960e31b81529051919093169263ad5c4648926004808301939192829003018186803b158015612dc957600080fd5b505afa158015612ddd573d6000803e3d6000fd5b505050506040513d601f19601f82011682018060405250810190612e019190614579565b81600181518110612e2257634e487b7160e01b600052603260045260246000fd5b60200260200101906001600160a01b031690816001600160a01b0316815250508181600281518110612e6457634e487b7160e01b600052603260045260246000fd5b6001600160a01b03928316602091820292909201015261011c54612e8b918791168561327c565b61011c54604051635c11d79560e01b81526001600160a01b0390911690635c11d79590612ec590869060009086908a904290600401614a04565b600060405180830381600087803b158015612edf57600080fd5b505af1158015612ef3573d6000803e3d6000fd5b505050505050505050565b610119546040516001600160a01b03909116904780156108fc02916000818181858888f19350505050158015611465573d6000803e3d6000fd5b61011e546040516370a0823160e01b81526001600160a01b038381166004830181905260009384938493923192909116906370a082319060240160206040518083038186803b158015612f8a57600080fd5b505afa158015612f9e573d6000803e3d6000fd5b505050506040513d601f19601f82011682018060405250810190612fc29190614781565b61011f546040516370a0823160e01b81526001600160a01b038881166004830152909116906370a082319060240160206040518083038186803b15801561300857600080fd5b505afa15801561301c573d6000803e3d6000fd5b505050506040513d601f19601f820116820180604052508101906130409190614781565b9250925092509193909250565b604080516002808252606082018352600092602083019080368337019050509050308160008151811061309057634e487b7160e01b600052603260045260246000fd5b6001600160a01b0392831660209182029290920181019190915261011c54604080516315ab88c960e31b81529051919093169263ad5c4648926004808301939192829003018186803b1580156130e557600080fd5b505afa1580156130f9573d6000803e3d6000fd5b505050506040513d601f19601f8201168201806040525081019061311d9190614579565b8160018151811061313e57634e487b7160e01b600052603260045260246000fd5b6001600160a01b03928316602091820292909201015261011c54613165918691168461327c565b61011c5460405163791ac94760e01b81526001600160a01b039091169063791ac9479061319f908590600090869089904290600401614a04565b600060405180830381600087803b1580156131b957600080fd5b505af11580156131cd573d6000803e3d6000fd5b5050505050505050565b6000610e4060fb836133b6565b60c9546001600160a01b0316331461320e5760405162461bcd60e51b81526004016113c89061493f565b6001600160a01b0381166132735760405162461bcd60e51b815260206004820152602660248201527f4f776e61626c653a206e6577206f776e657220697320746865207a65726f206160448201526564647265737360d01b60648201526084016113c8565b61146581613b77565b6001600160a01b0383166132de5760405162461bcd60e51b8152602060048201526024808201527f45524332303a20617070726f76652066726f6d20746865207a65726f206164646044820152637265737360e01b60648201526084016113c8565b6001600160a01b03821661333f5760405162461bcd60e51b815260206004820152602260248201527f45524332303a20617070726f766520746f20746865207a65726f206164647265604482015261737360f01b60648201526084016113c8565b6001600160a01b0383811660008181526034602090815260408083209487168084529482529182902085905590518481527f8c5be1e5ebec7d5bd14f71427d1e84f3dd0314c0f7b2291e5b200ac8c7c3b925910160405180910390a3505050565b6000610e40825490565b60006113788284614bd6565b60006113788383613e4b565b60006113788284614bb7565b60006113788284614a8c565b60006113788284614a74565b6001600160a01b03831661340c5760405162461bcd60e51b81526004016113c890614974565b6001600160a01b03821661346e5760405162461bcd60e51b815260206004820152602360248201527f45524332303a207472616e7366657220746f20746865207a65726f206164647260448201526265737360e81b60648201526084016113c8565b6001600160a01b038316600090815260336020526040902054818110156134e65760405162461bcd60e51b815260206004820152602660248201527f45524332303a207472616e7366657220616d6f756e7420657863656564732062604482015265616c616e636560d01b60648201526084016113c8565b6001600160a01b0380851660009081526033602052604080822085850390559185168152908120805484929061351d908490614a74565b92505081905550826001600160a01b0316846001600160a01b03167fddf252ad1be2c89b69c2b068fc378daa952ba7f163c4a11628f55a4df523b3ef8460405161356991815260200190565b60405180910390a35b50505050565b6001600160a01b03838116600090815260346020908152604080832093861683529290522054600019811461357257818110156135f75760405162461bcd60e51b815260206004820152601d60248201527f45524332303a20696e73756666696369656e7420616c6c6f77616e636500000060448201526064016113c8565b613572848484840361327c565b6001600160a01b03831661362a5760405162461bcd60e51b81526004016113c890614974565b61011b54600160a01b900460ff161561364d576136488383836133e6565b613980565b600080516020614d72833981519152600433338585604051613673959493929190614846565b60405180910390a161011b54600160a01b900460ff161580156136b057506001600160a01b038216600090815261011d602052604090205460ff16155b80156136d657506001600160a01b038316600090815261011d602052604090205460ff16155b156138ea5760006136f961271061105461010a54856133c290919063ffffffff16565b9050600061371961271061105461010654866133c290919063ffffffff16565b9050600061373961271061105461010554876133c290919063ffffffff16565b6101075490915061374a90826133da565b610107556101035460009061376890612710906110549088906133c2565b905060ff5461377660355490565b111561378b576137868782613e83565b6137ab565b61379584826133da565b610108549094506137a690826133da565b610108555b60006137b88460026133ce565b610108549091506137c990826133da565b61010855610109546137db90826133da565b610109556137e986836133aa565b95506137f984610f8688886133aa565b95506138068830876133e6565b610115546001600160a01b03888116911614801590613834575061011c546001600160a01b03888116911614155b801561384f5750610118546001600160a01b03888116911614155b8015613863575061386160fb88613b29565b155b156138755761387360fb88613fd1565b505b610115546001600160a01b038981169116148015906138a3575061011c546001600160a01b03898116911614155b80156138be5750610118546001600160a01b03898116911614155b80156138d257506138d060fb89613b29565b155b156138e4576138e260fb89613fd1565b505b50505050505b610107546138f730612036565b1061394157600061390e61010754610f8630612036565b610100549091506139209060036133c2565b811061393f576101195461393f9030906001600160a01b0316836133e6565b505b61394c8383836133e6565b61011b54600160a01b900460ff161580156139735750600260fe546139719190614c6f565b155b1561398057613980610e46565b505050565b60c9546001600160a01b031633146114655760405162461bcd60e51b81526004016113c89061493f565b7f4910fdfa16fed3260ed0e7147f7cc6da11a60208b5b9406d12a635614ffd91435460ff16156139e25761364883613fe6565b826001600160a01b03166352d1902d6040518163ffffffff1660e01b815260040160206040518083038186803b158015613a1b57600080fd5b505afa925050508015613a4b575060408051601f3d908101601f19168201909252613a4891810190614781565b60015b613aae5760405162461bcd60e51b815260206004820152602e60248201527f45524331393637557067726164653a206e657720696d706c656d656e7461746960448201526d6f6e206973206e6f74205555505360901b60648201526084016113c8565b600080516020614d2b8339815191528114613b1d5760405162461bcd60e51b815260206004820152602960248201527f45524331393637557067726164653a20756e737570706f727465642070726f786044820152681a58589b195555525160ba1b60648201526084016113c8565b50613980838383614082565b6001600160a01b03811660009081526001830160205260408120541515611378565b60008184841115613b6f5760405162461bcd60e51b81526004016113c89190614874565b505050900390565b60c980546001600160a01b038381166001600160a01b0319831681179093556040519116919082907f8be0079c531659141344cd1fd0a4f28419497f9722a3daafe3b4186f6b6457e090600090a35050565b600054610100900460ff16613bf05760405162461bcd60e51b81526004016113c8906149b9565b611a5c82826140a7565b600054610100900460ff16613c215760405162461bcd60e51b81526004016113c8906149b9565b6113366140f5565b600054610100900460ff166113365760405162461bcd60e51b81526004016113c8906149b9565b6001600160a01b038216613ca65760405162461bcd60e51b815260206004820152601f60248201527f45524332303a206d696e7420746f20746865207a65726f20616464726573730060448201526064016113c8565b8060356000828254613cb89190614a74565b90915550506001600160a01b03821660009081526033602052604081208054839290613ce5908490614a74565b90915550506040518181526001600160a01b038316906000907fddf252ad1be2c89b69c2b068fc378daa952ba7f163c4a11628f55a4df523b3ef9060200160405180910390a3611a5c565b6000611378836001600160a01b038416614125565b600080516020614d7283398151915260063333336001604051613d6c959493929190614846565b60405180910390a161010f54610107541080613db4575061010f54613d9030612036565b108015613db4575061010f5461011554613db2906001600160a01b0316612036565b105b15613dbe57611336565b61011b805460ff60a01b1916600160a01b17905561010f54600090613de49060026133ce565b90506000613dfe8261010f546133aa90919063ffffffff16565b905047613e0a83612b77565b6000613e1647836133aa565b9050613e228382614242565b61010f5461010754613e33916133aa565b61010755505061011b805460ff60a01b191690555050565b6000826000018281548110613e7057634e487b7160e01b600052603260045260246000fd5b9060005260206000200154905092915050565b6001600160a01b038216613ee35760405162461bcd60e51b815260206004820152602160248201527f45524332303a206275726e2066726f6d20746865207a65726f206164647265736044820152607360f81b60648201526084016113c8565b6001600160a01b03821660009081526033602052604090205481811015613f575760405162461bcd60e51b815260206004820152602260248201527f45524332303a206275726e20616d6f756e7420657863656564732062616c616e604482015261636560f01b60648201526084016113c8565b6001600160a01b0383166000908152603360205260408120838303905560358054849290613f86908490614bd6565b90915550506040518281526000906001600160a01b038516907fddf252ad1be2c89b69c2b068fc378daa952ba7f163c4a11628f55a4df523b3ef9060200160405180910390a3613980565b6000611378836001600160a01b038416614308565b6001600160a01b0381163b6140535760405162461bcd60e51b815260206004820152602d60248201527f455243313936373a206e657720696d706c656d656e746174696f6e206973206e60448201526c1bdd08184818dbdb9d1c9858dd609a1b60648201526084016113c8565b600080516020614d2b83398151915280546001600160a01b0319166001600160a01b0392909216919091179055565b61408b83614357565b6000825111806140985750805b15613980576135728383614397565b600054610100900460ff166140ce5760405162461bcd60e51b81526004016113c8906149b9565b81516140e19060369060208501906144c4565b5080516139809060379060208401906144c4565b600054610100900460ff1661411c5760405162461bcd60e51b81526004016113c8906149b9565b61133633613b77565b60008181526001830160205260408120548015614238576000614149600183614bd6565b855490915060009061415d90600190614bd6565b90508181146141de57600086600001828154811061418b57634e487b7160e01b600052603260045260246000fd5b90600052602060002001549050808760000184815481106141bc57634e487b7160e01b600052603260045260246000fd5b6000918252602080832090910192909255918252600188019052604090208390555b85548690806141fd57634e487b7160e01b600052603160045260246000fd5b600190038181906000526020600020016000905590558560010160008681526020019081526020016000206000905560019350505050610e40565b6000915050610e40565b61011c5461425b9030906001600160a01b03168461327c565b61011c5461011b5460405163f305d71960e01b81523060048201526024810185905260006044820181905260648201526001600160a01b0391821660848201524260a482015291169063f305d71990839060c4016060604051808303818588803b1580156142c857600080fd5b505af11580156142dc573d6000803e3d6000fd5b50505050506040513d601f19601f8201168201806040525081019061430191906147fd565b5050505050565b600081815260018301602052604081205461434f57508154600181810184556000848152602080822090930184905584548482528286019093526040902091909155610e40565b506000610e40565b61436081613fe6565b6040516001600160a01b038216907fbc7cd75a20ee27fd9adebab32041f755214dbc6bffa90cc0225b39da2e5c2d3b90600090a250565b60606001600160a01b0383163b6143ff5760405162461bcd60e51b815260206004820152602660248201527f416464726573733a2064656c65676174652063616c6c20746f206e6f6e2d636f6044820152651b9d1c9858dd60d21b60648201526084016113c8565b600080846001600160a01b03168460405161441a919061482a565b600060405180830381855af49150503d8060008114614455576040519150601f19603f3d011682016040523d82523d6000602084013e61445a565b606091505b50915091506144828282604051806060016040528060278152602001614d4b6027913961448b565b95945050505050565b6060831561449a575081611378565b8251156144aa5782518084602001fd5b8160405162461bcd60e51b81526004016113c89190614874565b8280546144d090614c19565b90600052602060002090601f0160209004810192826144f25760008555614538565b82601f1061450b57805160ff1916838001178555614538565b82800160010185558215614538579182015b8281111561453857825182559160200191906001019061451d565b50614544929150614548565b5090565b5b808211156145445760008155600101614549565b60006020828403121561456e578081fd5b813561137881614cc5565b60006020828403121561458a578081fd5b815161137881614cc5565b600080604083850312156145a7578081fd5b82356145b281614cc5565b915060208301356145c281614cc5565b809150509250929050565b6000806000606084860312156145e1578081fd5b83356145ec81614cc5565b925060208401356145fc81614cc5565b929592945050506040919091013590565b60008060008060808587031215614622578081fd5b843561462d81614cc5565b9350602085013561463d81614cc5565b925060408501359150606085013561465481614cc5565b939692955090935050565b60008060408385031215614671578182fd5b823561467c81614cc5565b9150602083013567ffffffffffffffff80821115614698578283fd5b818501915085601f8301126146ab578283fd5b8135818111156146bd576146bd614caf565b604051601f8201601f19908116603f011681019083821181831017156146e5576146e5614caf565b816040528281528860208487010111156146fd578586fd5b82602086016020830137856020848301015280955050505050509250929050565b60008060408385031215614730578182fd5b823561473b81614cc5565b946020939093013593505050565b60006020828403121561475a578081fd5b813561137881614cda565b600060208284031215614776578081fd5b815161137881614cda565b600060208284031215614792578081fd5b5051919050565b6000602082840312156147aa578081fd5b5035919050565b600080604083850312156147c3578182fd5b50508035926020909101359150565b6000806000606084860312156147e6578283fd5b505081359360208301359350604090920135919050565b600080600060608486031215614811578081fd5b8351925060208401519150604084015190509250925092565b6000825161483c818460208701614bed565b9190910192915050565b9485526001600160a01b03938416602086015291831660408501529091166060830152608082015260a00190565b6000602082528251806020840152614893816040850160208701614bed565b601f01601f19169190910160400192915050565b6020808252602c908201527f46756e6374696f6e206d7573742062652063616c6c6564207468726f7567682060408201526b19195b1959d85d1958d85b1b60a21b606082015260800190565b6020808252602c908201527f46756e6374696f6e206d7573742062652063616c6c6564207468726f7567682060408201526b6163746976652070726f787960a01b606082015260800190565b6020808252818101527f4f776e61626c653a2063616c6c6572206973206e6f7420746865206f776e6572604082015260600190565b60208082526025908201527f45524332303a207472616e736665722066726f6d20746865207a65726f206164604082015264647265737360d81b606082015260800190565b6020808252602b908201527f496e697469616c697a61626c653a20636f6e7472616374206973206e6f74206960408201526a6e697469616c697a696e6760a81b606082015260800190565b600060a082018783526020878185015260a0604085015281875180845260c0860191508289019350845b81811015614a535784516001600160a01b031683529383019391830191600101614a2e565b50506001600160a01b03969096166060850152505050608001529392505050565b60008219821115614a8757614a87614c83565b500190565b600082614a9b57614a9b614c99565b500490565b80825b6001808611614ab25750614add565b818704821115614ac457614ac4614c83565b80861615614ad157918102915b9490941c938002614aa3565b94509492505050565b600061137860001960ff851684600082614b0257506001611378565b81614b0f57506000611378565b8160018114614b255760028114614b2f57614b5c565b6001915050611378565b60ff841115614b4057614b40614c83565b6001841b915084821115614b5657614b56614c83565b50611378565b5060208310610133831016604e8410600b8410161715614b8f575081810a83811115614b8a57614b8a614c83565b611378565b614b9c8484846001614aa0565b808604821115614bae57614bae614c83565b02949350505050565b6000816000190483118215151615614bd157614bd1614c83565b500290565b600082821015614be857614be8614c83565b500390565b60005b83811015614c08578181015183820152602001614bf0565b838111156135725750506000910152565b600181811c90821680614c2d57607f821691505b60208210811415614c4e57634e487b7160e01b600052602260045260246000fd5b50919050565b6000600019821415614c6857614c68614c83565b5060010190565b600082614c7e57614c7e614c99565b500690565b634e487b7160e01b600052601160045260246000fd5b634e487b7160e01b600052601260045260246000fd5b634e487b7160e01b600052604160045260246000fd5b6001600160a01b038116811461146557600080fd5b801515811461146557600080fdfe5f6d61726b65743146656553756d203c205f6d61726b65744665655377617041745f6d61726b65743246656553756d203c205f6d61726b6574466565537761704174360894a13ba1a3210667c828492db98dca3e2076cc3735a920a3ca505d382bbc416464726573733a206c6f772d6c6576656c2064656c65676174652063616c6c206661696c6564e89405beace6906fadfd6504de4b4906aa76048e3b9c0669d76e08c541115d5fa26469706673582212204bad3ac53863ddb1311340062ef15ab41e65062afc4ab954776bcb61ecd48ab664736f6c63430008030033",
  "linkReferences": {},
  "deployedLinkReferences": {}
}