{
  "_format": "hh-sol-artifact-1",
  "contractName": "TEST",
  "sourceName": "contracts/dotty.sol",
  "abi": [
    {
      "inputs": [],
      "stateMutability": "nonpayable",
      "type": "constructor"
    },
    {
      "anonymous": false,
      "inputs": [
        {
          "indexed": false,
          "internalType": "address",
          "name": "previousAdmin",
          "type": "address"
        },
        {
          "indexed": false,
          "internalType": "address",
          "name": "newAdmin",
          "type": "address"
        }
      ],
      "name": "AdminChanged",
      "type": "event"
    },
    {
      "anonymous": false,
      "inputs": [
        {
          "indexed": true,
          "internalType": "address",
          "name": "owner",
          "type": "address"
        },
        {
          "indexed": true,
          "internalType": "address",
          "name": "spender",
          "type": "address"
        },
        {
          "indexed": false,
          "internalType": "uint256",
          "name": "value",
          "type": "uint256"
        }
      ],
      "name": "Approval",
      "type": "event"
    },
    {
      "anonymous": false,
      "inputs": [
        {
          "indexed": true,
          "internalType": "address",
          "name": "beacon",
          "type": "address"
        }
      ],
      "name": "BeaconUpgraded",
      "type": "event"
    },
    {
      "anonymous": false,
      "inputs": [
        {
          "indexed": true,
          "internalType": "address",
          "name": "previousOwner",
          "type": "address"
        },
        {
          "indexed": true,
          "internalType": "address",
          "name": "newOwner",
          "type": "address"
        }
      ],
      "name": "OwnershipTransferred",
      "type": "event"
    },
    {
      "anonymous": false,
      "inputs": [
        {
          "indexed": true,
          "internalType": "address",
          "name": "from",
          "type": "address"
        },
        {
          "indexed": true,
          "internalType": "address",
          "name": "to",
          "type": "address"
        },
        {
          "indexed": false,
          "internalType": "uint256",
          "name": "value",
          "type": "uint256"
        }
      ],
      "name": "Transfer",
      "type": "event"
    },
    {
      "anonymous": false,
      "inputs": [
        {
          "indexed": true,
          "internalType": "address",
          "name": "implementation",
          "type": "address"
        }
      ],
      "name": "Upgraded",
      "type": "event"
    },
    {
      "inputs": [],
      "name": "_backFeeRate",
      "outputs": [
        {
          "internalType": "uint256",
          "name": "",
          "type": "uint256"
        }
      ],
      "stateMutability": "view",
      "type": "function"
    },
    {
      "inputs": [],
      "name": "_burnFeeRate",
      "outputs": [
        {
          "internalType": "uint256",
          "name": "",
          "type": "uint256"
        }
      ],
      "stateMutability": "view",
      "type": "function"
    },
    {
      "inputs": [],
      "name": "_burnStopAt",
      "outputs": [
        {
          "internalType": "uint256",
          "name": "",
          "type": "uint256"
        }
      ],
      "stateMutability": "view",
      "type": "function"
    },
    {
      "inputs": [],
      "name": "_excludelpAddress",
      "outputs": [
        {
          "internalType": "address",
          "name": "",
          "type": "address"
        }
      ],
      "stateMutability": "view",
      "type": "function"
    },
    {
      "inputs": [],
      "name": "_feeRate",
      "outputs": [
        {
          "internalType": "uint256",
          "name": "",
          "type": "uint256"
        }
      ],
      "stateMutability": "view",
      "type": "function"
    },
    {
      "inputs": [],
      "name": "_holdDividendAt",
      "outputs": [
        {
          "internalType": "uint256",
          "name": "",
          "type": "uint256"
        }
      ],
      "stateMutability": "view",
      "type": "function"
    },
    {
      "inputs": [],
      "name": "_holdDividendEnd",
      "outputs": [
        {
          "internalType": "uint256",
          "name": "",
          "type": "uint256"
        }
      ],
      "stateMutability": "view",
      "type": "function"
    },
    {
      "inputs": [],
      "name": "_holderFeeRate",
      "outputs": [
        {
          "internalType": "uint256",
          "name": "",
          "type": "uint256"
        }
      ],
      "stateMutability": "view",
      "type": "function"
    },
    {
      "inputs": [
        {
          "internalType": "address",
          "name": "",
          "type": "address"
        }
      ],
      "name": "_isBlacklisted",
      "outputs": [
        {
          "internalType": "bool",
          "name": "",
          "type": "bool"
        }
      ],
      "stateMutability": "view",
      "type": "function"
    },
    {
      "inputs": [],
      "name": "_liquidityFee",
      "outputs": [
        {
          "internalType": "uint256",
          "name": "",
          "type": "uint256"
        }
      ],
      "stateMutability": "view",
      "type": "function"
    },
    {
      "inputs": [],
      "name": "_lp2FeeRate",
      "outputs": [
        {
          "internalType": "uint256",
          "name": "",
          "type": "uint256"
        }
      ],
      "stateMutability": "view",
      "type": "function"
    },
    {
      "inputs": [],
      "name": "_lpDividendFirstAt",
      "outputs": [
        {
          "internalType": "uint256",
          "name": "",
          "type": "uint256"
        }
      ],
      "stateMutability": "view",
      "type": "function"
    },
    {
      "inputs": [],
      "name": "_lpDividendSecondAt",
      "outputs": [
        {
          "internalType": "uint256",
          "name": "",
          "type": "uint256"
        }
      ],
      "stateMutability": "view",
      "type": "function"
    },
    {
      "inputs": [],
      "name": "_lpFeeRate",
      "outputs": [
        {
          "internalType": "uint256",
          "name": "",
          "type": "uint256"
        }
      ],
      "stateMutability": "view",
      "type": "function"
    },
    {
      "inputs": [],
      "name": "_marketFeeRate",
      "outputs": [
        {
          "internalType": "uint256",
          "name": "",
          "type": "uint256"
        }
      ],
      "stateMutability": "view",
      "type": "function"
    },
    {
      "inputs": [],
      "name": "_marketFeeSwapAt",
      "outputs": [
        {
          "internalType": "uint256",
          "name": "",
          "type": "uint256"
        }
      ],
      "stateMutability": "view",
      "type": "function"
    },
    {
      "inputs": [],
      "name": "_marketing1WalletAddress",
      "outputs": [
        {
          "internalType": "address",
          "name": "",
          "type": "address"
        }
      ],
      "stateMutability": "view",
      "type": "function"
    },
    {
      "inputs": [],
      "name": "_marketingWalletAddress",
      "outputs": [
        {
          "internalType": "address",
          "name": "",
          "type": "address"
        }
      ],
      "stateMutability": "view",
      "type": "function"
    },
    {
      "inputs": [],
      "name": "_rewardBaseHolder",
      "outputs": [
        {
          "internalType": "uint256",
          "name": "",
          "type": "uint256"
        }
      ],
      "stateMutability": "view",
      "type": "function"
    },
    {
      "inputs": [],
      "name": "_rewardBaseLPFirst",
      "outputs": [
        {
          "internalType": "uint256",
          "name": "",
          "type": "uint256"
        }
      ],
      "stateMutability": "view",
      "type": "function"
    },
    {
      "inputs": [],
      "name": "_rewardBaseLPSecond",
      "outputs": [
        {
          "internalType": "uint256",
          "name": "",
          "type": "uint256"
        }
      ],
      "stateMutability": "view",
      "type": "function"
    },
    {
      "inputs": [],
      "name": "_swapAndLiquifyAt",
      "outputs": [
        {
          "internalType": "uint256",
          "name": "",
          "type": "uint256"
        }
      ],
      "stateMutability": "view",
      "type": "function"
    },
    {
      "inputs": [],
      "name": "_swapAt",
      "outputs": [
        {
          "internalType": "uint256",
          "name": "",
          "type": "uint256"
        }
      ],
      "stateMutability": "view",
      "type": "function"
    },
    {
      "inputs": [
        {
          "internalType": "address",
          "name": "",
          "type": "address"
        }
      ],
      "name": "_whitelist",
      "outputs": [
        {
          "internalType": "bool",
          "name": "",
          "type": "bool"
        }
      ],
      "stateMutability": "view",
      "type": "function"
    },
    {
      "inputs": [
        {
          "internalType": "address",
          "name": "owner",
          "type": "address"
        },
        {
          "internalType": "address",
          "name": "spender",
          "type": "address"
        }
      ],
      "name": "allowance",
      "outputs": [
        {
          "internalType": "uint256",
          "name": "",
          "type": "uint256"
        }
      ],
      "stateMutability": "view",
      "type": "function"
    },
    {
      "inputs": [
        {
          "internalType": "address",
          "name": "spender",
          "type": "address"
        },
        {
          "internalType": "uint256",
          "name": "amount",
          "type": "uint256"
        }
      ],
      "name": "approve",
      "outputs": [
        {
          "internalType": "bool",
          "name": "",
          "type": "bool"
        }
      ],
      "stateMutability": "nonpayable",
      "type": "function"
    },
    {
      "inputs": [
        {
          "internalType": "address",
          "name": "account",
          "type": "address"
        }
      ],
      "name": "balanceOf",
      "outputs": [
        {
          "internalType": "uint256",
          "name": "",
          "type": "uint256"
        }
      ],
      "stateMutability": "view",
      "type": "function"
    },
    {
      "inputs": [
        {
          "internalType": "address",
          "name": "account",
          "type": "address"
        }
      ],
      "name": "contains",
      "outputs": [
        {
          "internalType": "bool",
          "name": "",
          "type": "bool"
        }
      ],
      "stateMutability": "view",
      "type": "function"
    },
    {
      "inputs": [],
      "name": "deadWallet",
      "outputs": [
        {
          "internalType": "address",
          "name": "",
          "type": "address"
        }
      ],
      "stateMutability": "view",
      "type": "function"
    },
    {
      "inputs": [],
      "name": "decimals",
      "outputs": [
        {
          "internalType": "uint8",
          "name": "",
          "type": "uint8"
        }
      ],
      "stateMutability": "view",
      "type": "function"
    },
    {
      "inputs": [
        {
          "internalType": "address",
          "name": "spender",
          "type": "address"
        },
        {
          "internalType": "uint256",
          "name": "subtractedValue",
          "type": "uint256"
        }
      ],
      "name": "decreaseAllowance",
      "outputs": [
        {
          "internalType": "bool",
          "name": "",
          "type": "bool"
        }
      ],
      "stateMutability": "nonpayable",
      "type": "function"
    },
    {
      "inputs": [],
      "name": "dividend",
      "outputs": [],
      "stateMutability": "nonpayable",
      "type": "function"
    },
    {
      "inputs": [
        {
          "internalType": "uint256",
          "name": "index",
          "type": "uint256"
        }
      ],
      "name": "getHolderAt",
      "outputs": [
        {
          "internalType": "address",
          "name": "",
          "type": "address"
        }
      ],
      "stateMutability": "view",
      "type": "function"
    },
    {
      "inputs": [],
      "name": "getHolderLength",
      "outputs": [
        {
          "internalType": "uint256",
          "name": "",
          "type": "uint256"
        }
      ],
      "stateMutability": "view",
      "type": "function"
    },
    {
      "inputs": [
        {
          "internalType": "address",
          "name": "account",
          "type": "address"
        }
      ],
      "name": "getRewardBalance",
      "outputs": [
        {
          "internalType": "uint256",
          "name": "",
          "type": "uint256"
        },
        {
          "internalType": "uint256",
          "name": "",
          "type": "uint256"
        },
        {
          "internalType": "uint256",
          "name": "",
          "type": "uint256"
        }
      ],
      "stateMutability": "view",
      "type": "function"
    },
    {
      "inputs": [
        {
          "internalType": "address",
          "name": "account",
          "type": "address"
        }
      ],
      "name": "getRewardValues",
      "outputs": [
        {
          "internalType": "uint256",
          "name": "",
          "type": "uint256"
        },
        {
          "internalType": "uint256",
          "name": "",
          "type": "uint256"
        },
        {
          "internalType": "uint256",
          "name": "",
          "type": "uint256"
        },
        {
          "internalType": "uint256",
          "name": "",
          "type": "uint256"
        },
        {
          "internalType": "uint256",
          "name": "",
          "type": "uint256"
        }
      ],
      "stateMutability": "view",
      "type": "function"
    },
    {
      "inputs": [],
      "name": "getTradingIsEnabled",
      "outputs": [
        {
          "internalType": "bool",
          "name": "",
          "type": "bool"
        }
      ],
      "stateMutability": "view",
      "type": "function"
    },
    {
      "inputs": [
        {
          "internalType": "address",
          "name": "spender",
          "type": "address"
        },
        {
          "internalType": "uint256",
          "name": "addedValue",
          "type": "uint256"
        }
      ],
      "name": "increaseAllowance",
      "outputs": [
        {
          "internalType": "bool",
          "name": "",
          "type": "bool"
        }
      ],
      "stateMutability": "nonpayable",
      "type": "function"
    },
    {
      "inputs": [],
      "name": "initialize",
      "outputs": [],
      "stateMutability": "nonpayable",
      "type": "function"
    },
    {
      "inputs": [],
      "name": "lastProcessedIndex",
      "outputs": [
        {
          "internalType": "uint256",
          "name": "",
          "type": "uint256"
        }
      ],
      "stateMutability": "view",
      "type": "function"
    },
    {
      "inputs": [],
      "name": "name",
      "outputs": [
        {
          "internalType": "string",
          "name": "",
          "type": "string"
        }
      ],
      "stateMutability": "view",
      "type": "function"
    },
    {
      "inputs": [],
      "name": "owner",
      "outputs": [
        {
          "internalType": "address",
          "name": "",
          "type": "address"
        }
      ],
      "stateMutability": "view",
      "type": "function"
    },
    {
      "inputs": [],
      "name": "proxiableUUID",
      "outputs": [
        {
          "internalType": "bytes32",
          "name": "",
          "type": "bytes32"
        }
      ],
      "stateMutability": "view",
      "type": "function"
    },
    {
      "inputs": [
        {
          "internalType": "address",
          "name": "account",
          "type": "address"
        }
      ],
      "name": "removeHolder",
      "outputs": [],
      "stateMutability": "nonpayable",
      "type": "function"
    },
    {
      "inputs": [],
      "name": "removeLiquidityTakeFee",
      "outputs": [
        {
          "internalType": "bool",
          "name": "",
          "type": "bool"
        }
      ],
      "stateMutability": "view",
      "type": "function"
    },
    {
      "inputs": [],
      "name": "renounceOwnership",
      "outputs": [],
      "stateMutability": "nonpayable",
      "type": "function"
    },
    {
      "inputs": [
        {
          "internalType": "address",
          "name": "recipient",
          "type": "address"
        },
        {
          "internalType": "bool",
          "name": "flag",
          "type": "bool"
        }
      ],
      "name": "setBlacklist",
      "outputs": [],
      "stateMutability": "nonpayable",
      "type": "function"
    },
    {
      "inputs": [
        {
          "internalType": "uint256",
          "name": "burnStopAt",
          "type": "uint256"
        }
      ],
      "name": "setBurnStopAt",
      "outputs": [],
      "stateMutability": "nonpayable",
      "type": "function"
    },
    {
      "inputs": [
        {
          "internalType": "uint256",
          "name": "lpDividendFirstAt",
          "type": "uint256"
        },
        {
          "internalType": "uint256",
          "name": "lpDividendSecondAt",
          "type": "uint256"
        },
        {
          "internalType": "uint256",
          "name": "holdDividendAt",
          "type": "uint256"
        },
        {
          "internalType": "uint256",
          "name": "holdDividendEnd",
          "type": "uint256"
        },
        {
          "internalType": "uint256",
          "name": "swapAndLiquifyAt",
          "type": "uint256"
        },
        {
          "internalType": "uint256",
          "name": "marketFeeSwapAt",
          "type": "uint256"
        }
      ],
      "name": "setDividendAt",
      "outputs": [],
      "stateMutability": "nonpayable",
      "type": "function"
    },
    {
      "inputs": [
        {
          "internalType": "address",
          "name": "account",
          "type": "address"
        }
      ],
      "name": "setExcludelpAddress",
      "outputs": [],
      "stateMutability": "nonpayable",
      "type": "function"
    },
    {
      "inputs": [
        {
          "internalType": "uint256",
          "name": "lpFeeRate",
          "type": "uint256"
        },
        {
          "internalType": "uint256",
          "name": "lp2FeeRate",
          "type": "uint256"
        },
        {
          "internalType": "uint256",
          "name": "burnFeeRate",
          "type": "uint256"
        },
        {
          "internalType": "uint256",
          "name": "holderFeeRate",
          "type": "uint256"
        },
        {
          "internalType": "uint256",
          "name": "backFeeRate",
          "type": "uint256"
        },
        {
          "internalType": "uint256",
          "name": "marketFeeRate",
          "type": "uint256"
        }
      ],
      "name": "setFeeRate",
      "outputs": [],
      "stateMutability": "nonpayable",
      "type": "function"
    },
    {
      "inputs": [
        {
          "internalType": "address",
          "name": "marketingWalletAddress",
          "type": "address"
        },
        {
          "internalType": "address",
          "name": "marketing1WalletAddress",
          "type": "address"
        }
      ],
      "name": "setMarketingWalletAddress",
      "outputs": [],
      "stateMutability": "nonpayable",
      "type": "function"
    },
    {
      "inputs": [
        {
          "internalType": "bool",
          "name": "_enabled",
          "type": "bool"
        }
      ],
      "name": "setRemoveLiquidityTakeFee",
      "outputs": [],
      "stateMutability": "nonpayable",
      "type": "function"
    },
    {
      "inputs": [
        {
          "internalType": "uint256",
          "name": "rewardBaseLPFirst",
          "type": "uint256"
        },
        {
          "internalType": "uint256",
          "name": "rewardBaseLPSecond",
          "type": "uint256"
        },
        {
          "internalType": "uint256",
          "name": "rewardBaseHolder",
          "type": "uint256"
        }
      ],
      "name": "setRewardBase",
      "outputs": [],
      "stateMutability": "nonpayable",
      "type": "function"
    },
    {
      "inputs": [
        {
          "internalType": "address",
          "name": "dot",
          "type": "address"
        }
      ],
      "name": "setRewardToken1",
      "outputs": [],
      "stateMutability": "nonpayable",
      "type": "function"
    },
    {
      "inputs": [
        {
          "internalType": "address",
          "name": "shib",
          "type": "address"
        }
      ],
      "name": "setRewardToken2",
      "outputs": [],
      "stateMutability": "nonpayable",
      "type": "function"
    },
    {
      "inputs": [
        {
          "internalType": "uint256",
          "name": "swapAt",
          "type": "uint256"
        }
      ],
      "name": "setSwapAt",
      "outputs": [],
      "stateMutability": "nonpayable",
      "type": "function"
    },
    {
      "inputs": [
        {
          "internalType": "bool",
          "name": "_enabled",
          "type": "bool"
        }
      ],
      "name": "setSwapEnabled",
      "outputs": [],
      "stateMutability": "nonpayable",
      "type": "function"
    },
    {
      "inputs": [
        {
          "internalType": "address",
          "name": "account",
          "type": "address"
        }
      ],
      "name": "setTakeFeeWallet",
      "outputs": [],
      "stateMutability": "nonpayable",
      "type": "function"
    },
    {
      "inputs": [
        {
          "internalType": "address",
          "name": "recipient",
          "type": "address"
        },
        {
          "internalType": "bool",
          "name": "flag",
          "type": "bool"
        }
      ],
      "name": "setWhitelist",
      "outputs": [],
      "stateMutability": "nonpayable",
      "type": "function"
    },
    {
      "inputs": [],
      "name": "swapEnabled",
      "outputs": [
        {
          "internalType": "bool",
          "name": "",
          "type": "bool"
        }
      ],
      "stateMutability": "view",
      "type": "function"
    },
    {
      "inputs": [],
      "name": "swapMarketFee",
      "outputs": [],
      "stateMutability": "nonpayable",
      "type": "function"
    },
    {
      "inputs": [],
      "name": "swapOrDividend",
      "outputs": [
        {
          "internalType": "bool",
          "name": "",
          "type": "bool"
        }
      ],
      "stateMutability": "view",
      "type": "function"
    },
    {
      "inputs": [
        {
          "internalType": "address",
          "name": "from",
          "type": "address"
        },
        {
          "internalType": "address",
          "name": "to",
          "type": "address"
        },
        {
          "internalType": "uint256",
          "name": "tokenAmount",
          "type": "uint256"
        }
      ],
      "name": "swapTokensFor2Tokens",
      "outputs": [],
      "stateMutability": "nonpayable",
      "type": "function"
    },
    {
      "inputs": [
        {
          "internalType": "address",
          "name": "from",
          "type": "address"
        },
        {
          "internalType": "address",
          "name": "to",
          "type": "address"
        },
        {
          "internalType": "uint256",
          "name": "tokenAmount",
          "type": "uint256"
        },
        {
          "internalType": "address",
          "name": "outToken",
          "type": "address"
        }
      ],
      "name": "swapTokensFor3Tokens",
      "outputs": [],
      "stateMutability": "nonpayable",
      "type": "function"
    },
    {
      "inputs": [
        {
          "internalType": "uint256",
          "name": "tokenAmount",
          "type": "uint256"
        }
      ],
      "name": "swapTokensForEth",
      "outputs": [],
      "stateMutability": "nonpayable",
      "type": "function"
    },
    {
      "inputs": [],
      "name": "symbol",
      "outputs": [
        {
          "internalType": "string",
          "name": "",
          "type": "string"
        }
      ],
      "stateMutability": "view",
      "type": "function"
    },
    {
      "inputs": [],
      "name": "takeBNB",
      "outputs": [],
      "stateMutability": "nonpayable",
      "type": "function"
    },
    {
      "inputs": [],
      "name": "takeBackCtl",
      "outputs": [],
      "stateMutability": "nonpayable",
      "type": "function"
    },
    {
      "inputs": [],
      "name": "takeFee",
      "outputs": [],
      "stateMutability": "nonpayable",
      "type": "function"
    },
    {
      "inputs": [],
      "name": "takeReward1",
      "outputs": [],
      "stateMutability": "nonpayable",
      "type": "function"
    },
    {
      "inputs": [],
      "name": "takeReward2",
      "outputs": [],
      "stateMutability": "nonpayable",
      "type": "function"
    },
    {
      "inputs": [],
      "name": "totalSupply",
      "outputs": [
        {
          "internalType": "uint256",
          "name": "",
          "type": "uint256"
        }
      ],
      "stateMutability": "view",
      "type": "function"
    },
    {
      "inputs": [],
      "name": "tradingEnabledTimestamp",
      "outputs": [
        {
          "internalType": "uint256",
          "name": "",
          "type": "uint256"
        }
      ],
      "stateMutability": "view",
      "type": "function"
    },
    {
      "inputs": [
        {
          "internalType": "address",
          "name": "to",
          "type": "address"
        },
        {
          "internalType": "uint256",
          "name": "amount",
          "type": "uint256"
        }
      ],
      "name": "transfer",
      "outputs": [
        {
          "internalType": "bool",
          "name": "",
          "type": "bool"
        }
      ],
      "stateMutability": "nonpayable",
      "type": "function"
    },
    {
      "inputs": [
        {
          "internalType": "address",
          "name": "from",
          "type": "address"
        },
        {
          "internalType": "address",
          "name": "to",
          "type": "address"
        },
        {
          "internalType": "uint256",
          "name": "amount",
          "type": "uint256"
        }
      ],
      "name": "transferFrom",
      "outputs": [
        {
          "internalType": "bool",
          "name": "",
          "type": "bool"
        }
      ],
      "stateMutability": "nonpayable",
      "type": "function"
    },
    {
      "inputs": [
        {
          "internalType": "address",
          "name": "newOwner",
          "type": "address"
        }
      ],
      "name": "transferOwnership",
      "outputs": [],
      "stateMutability": "nonpayable",
      "type": "function"
    },
    {
      "inputs": [],
      "name": "uniswapV2Pair",
      "outputs": [
        {
          "internalType": "address",
          "name": "",
          "type": "address"
        }
      ],
      "stateMutability": "view",
      "type": "function"
    },
    {
      "inputs": [],
      "name": "uniswapV2Router",
      "outputs": [
        {
          "internalType": "contract IUniswapV2Router02",
          "name": "",
          "type": "address"
        }
      ],
      "stateMutability": "view",
      "type": "function"
    },
    {
      "inputs": [
        {
          "internalType": "uint256",
          "name": "newValue",
          "type": "uint256"
        }
      ],
      "name": "updateGasForProcessing",
      "outputs": [],
      "stateMutability": "nonpayable",
      "type": "function"
    },
    {
      "inputs": [
        {
          "internalType": "address",
          "name": "newImplementation",
          "type": "address"
        }
      ],
      "name": "upgradeTo",
      "outputs": [],
      "stateMutability": "nonpayable",
      "type": "function"
    },
    {
      "inputs": [
        {
          "internalType": "address",
          "name": "newImplementation",
          "type": "address"
        },
        {
          "internalType": "bytes",
          "name": "data",
          "type": "bytes"
        }
      ],
      "name": "upgradeToAndCall",
      "outputs": [],
      "stateMutability": "payable",
      "type": "function"
    },
    {
      "stateMutability": "payable",
      "type": "receive"
    }
  ],
  "bytecode": "0x60a06040523060601b6080523480156200001857600080fd5b50600054610100900460ff16620000365760005460ff161562000040565b62000040620000e5565b620000a85760405162461bcd60e51b815260206004820152602e60248201527f496e697469616c697a61626c653a20636f6e747261637420697320616c72656160448201526d191e481a5b9a5d1a585b1a5e995960921b606482015260840160405180910390fd5b600054610100900460ff16158015620000cb576000805461ffff19166101011790555b8015620000de576000805461ff00191690555b5062000112565b6000620000fd306200010360201b620032c11760201c565b15905090565b6001600160a01b03163b151590565b60805160601c614ff36200014d6000396000818161148e015281816114ce01528181611a9501528181611ad50152611ba80152614ff36000f3fe60806040526004361061048d5760003560e01c80635e4ebbe211610255578063b471480211610144578063dba54646116100c1578063e253f87b11610085578063e253f87b14610d99578063eb7b70f114610db9578063f2fde38b14610dcf578063f4af51cc14610def578063f60a515a14610e06578063fcfd826914610e2757610494565b8063dba5464614610ce5578063dd62ed3e14610d05578063dede5f4514610d4b578063e01af92c14610d62578063e0fb2c0514610d8257610494565b8063ced0d31d11610108578063ced0d31d14610c2d578063cfdb63ac14610c4d578063d1b5da8714610c7e578063d5a849e914610c93578063dad3719514610cce57610494565b8063b471480214610bb4578063baa856bc14610bcb578063bdde32d614610be1578063c3274c7714610bf8578063ce7157c614610c1857610494565b80638da5cb5b116101d2578063a457c2d711610196578063a457c2d714610b1d578063a9059cbb14610b3d578063b067167f14610b5d578063b2131f7d14610b7d578063b28805f414610b9457610494565b80638da5cb5b14610a935780638dd4280814610ab15780638f501a2514610ad15780639480762814610af157806395d89b4114610b0857610494565b806370a082311161021957806370a0823114610a08578063715018a614610a285780638129fc1c14610a3d57806385141a7714610a52578063871c128d14610a7357610494565b80635e4ebbe21461095a5780635f4fe8791461096f5780636bc87c3a146109b75780636ddd1713146109ce5780636eea6fa6146109e857610494565b80633e67d66b1161037c5780634d33b1ef116102f957806352d1902d116102bd57806352d1902d146108ae57806353d6fd59146108c35780635525abe2146108e35780635c04ac94146109035780635c709fa4146109235780635dbe47e81461093a57610494565b80634d33b1ef146108385780634f07e35c146108515780634f1ef286146108665780634f21869c146108795780634f3e01bc1461088e57610494565b8063493c079311610340578063493c0793146107ab57806349bd5a5e146107cb5780634a559a60146107ec5780634c0a38b51461080c5780634c622f5d1461082357610494565b80633e67d66b1461071457806340704b361461072b5780634144d9e41461074b578063450823701461076c578063463b44fc1461078b57610494565b806323b872dd1161040a57806333b3cd82116103ce57806333b3cd82146106865780633659cfe61461069d578063392d2681146106bd57806339509351146106dd5780633df6be61146106fd57610494565b806323b872dd1461060557806325b617031461062557806325e8fa211461063c5780633009a60914610653578063313ce5671461066a57610494565b80631694505e116104515780631694505e1461055057806318160ddd14610589578063181aa1fd1461059e5780631cdd3be3146105b35780631d248989146105e457610494565b806306fdde03146104995780630835a625146104c4578063095ea7b3146104e95780630ff8cf9b14610519578063153b0d1e1461053057610494565b3661049457005b600080fd5b3480156104a557600080fd5b506104ae610e3e565b6040516104bb9190614b20565b60405180910390f35b3480156104d057600080fd5b506104db6101055481565b6040519081526020016104bb565b3480156104f557600080fd5b506105096105043660046149d7565b610ed0565b60405190151581526020016104bb565b34801561052557600080fd5b5061052e610eea565b005b34801561053c57600080fd5b5061052e61054b3660046148eb565b6113dd565b34801561055c57600080fd5b5061011a54610571906001600160a01b031681565b6040516001600160a01b0390911681526020016104bb565b34801561059557600080fd5b506035546104db565b3480156105aa57600080fd5b5061052e61143c565b3480156105bf57600080fd5b506105096105ce3660046147e9565b61011b6020526000908152604090205460ff1681565b3480156105f057600080fd5b5061011454610571906001600160a01b031681565b34801561061157600080fd5b50610509610620366004614859565b61145d565b34801561063157600080fd5b506104db61011f5481565b34801561064857600080fd5b506104db61010c5481565b34801561065f57600080fd5b506104db6101115481565b34801561067657600080fd5b50604051601281526020016104bb565b34801561069257600080fd5b506104db6101095481565b3480156106a957600080fd5b5061052e6106b83660046147e9565b611483565b3480156106c957600080fd5b5061052e6106d83660046147e9565b611563565b3480156106e957600080fd5b506105096106f83660046149d7565b6115b0565b34801561070957600080fd5b506104db6101005481565b34801561072057600080fd5b506104db6101045481565b34801561073757600080fd5b5061052e6107463660046147e9565b6115ef565b34801561075757600080fd5b5061011354610571906001600160a01b031681565b34801561077857600080fd5b5060fd5461050990610100900460ff1681565b34801561079757600080fd5b5061052e6107a63660046147e9565b61163c565b3480156107b757600080fd5b5061052e6107c63660046147e9565b611792565b3480156107d757600080fd5b5061011254610571906001600160a01b031681565b3480156107f857600080fd5b5061052e610807366004614821565b6118e8565b34801561081857600080fd5b506104db61010a5481565b34801561082f57600080fd5b5061052e611942565b34801561084457600080fd5b5061011f54421015610509565b34801561085d57600080fd5b5061052e611a4b565b61052e610874366004614918565b611a8a565b34801561088557600080fd5b506104db611b5b565b34801561089a57600080fd5b5061052e6108a9366004614a52565b611b6c565b3480156108ba57600080fd5b506104db611b9b565b3480156108cf57600080fd5b5061052e6108de3660046148eb565b611c4e565b3480156108ef57600080fd5b5060fd546105099062010000900460ff1681565b34801561090f57600080fd5b5061052e61091e366004614a52565b611ca4565b34801561092f57600080fd5b506104db61010d5481565b34801561094657600080fd5b506105096109553660046147e9565b611cd3565b34801561096657600080fd5b5061052e611ce0565b34801561097b57600080fd5b5061098f61098a3660046147e9565b611d48565b604080519586526020860194909452928401919091526060830152608082015260a0016104bb565b3480156109c357600080fd5b506104db6101065481565b3480156109da57600080fd5b5060fd546105099060ff1681565b3480156109f457600080fd5b5061052e610a03366004614a6a565b612030565b348015610a1457600080fd5b506104db610a233660046147e9565b61206b565b348015610a3457600080fd5b5061052e612086565b348015610a4957600080fd5b5061052e6120cd565b348015610a5e57600080fd5b5061011954610571906001600160a01b031681565b348015610a7f57600080fd5b5061052e610a8e366004614a52565b612723565b348015610a9f57600080fd5b5060c9546001600160a01b0316610571565b348015610abd57600080fd5b5061052e610acc3660046147e9565b61283c565b348015610add57600080fd5b5061052e610aec366004614a02565b612871565b348015610afd57600080fd5b506104db6101025481565b348015610b1457600080fd5b506104ae6128b7565b348015610b2957600080fd5b50610509610b383660046149d7565b6128c6565b348015610b4957600080fd5b50610509610b583660046149d7565b612963565b348015610b6957600080fd5b5061052e610b78366004614ac2565b612adb565b348015610b8957600080fd5b506104db6101075481565b348015610ba057600080fd5b5061052e610baf366004614a52565b612b28565b348015610bc057600080fd5b506104db6101015481565b348015610bd757600080fd5b506104db60fe5481565b348015610bed57600080fd5b506104db6101035481565b348015610c0457600080fd5b5061052e610c13366004614899565b612cb0565b348015610c2457600080fd5b5061052e612e82565b348015610c3957600080fd5b5061052e610c48366004614ac2565b612ebc565b348015610c5957600080fd5b50610509610c683660046147e9565b61011c6020526000908152604090205460ff1681565b348015610c8a57600080fd5b5061052e612f09565b348015610c9f57600080fd5b50610cb3610cae3660046147e9565b612f40565b604080519384526020840192909252908201526060016104bb565b348015610cda57600080fd5b506104db61010f5481565b348015610cf157600080fd5b5061052e610d00366004614859565b613055565b348015610d1157600080fd5b506104db610d20366004614821565b6001600160a01b03918216600090815260346020908152604080832093909416825291909152205490565b348015610d5757600080fd5b506104db6101085481565b348015610d6e57600080fd5b5061052e610d7d366004614a02565b6131df565b348015610d8e57600080fd5b506104db61010e5481565b348015610da557600080fd5b50610571610db4366004614a52565b61321c565b348015610dc557600080fd5b506104db60ff5481565b348015610ddb57600080fd5b5061052e610dea3660046147e9565b613229565b348015610dfb57600080fd5b506104db61010b5481565b348015610e1257600080fd5b5061011554610571906001600160a01b031681565b348015610e3357600080fd5b506104db6101105481565b606060368054610e4d90614ed1565b80601f0160208091040260200160405190810160405280929190818152602001828054610e7990614ed1565b8015610ec65780601f10610e9b57610100808354040283529160200191610ec6565b820191906000526020600020905b815481529060010190602001808311610ea957829003601f168201915b5050505050905090565b600033610ede8185856132d0565b60019150505b92915050565b610118546000610efa60fb6133f4565b905080610f085750506113db565b610111546000805a61011254610115546040516370a0823160e01b81526001600160a01b039182166004820152929350600092839291909116906370a082319060240160206040518083038186803b158015610f6357600080fd5b505afa158015610f77573d6000803e3d6000fd5b505050506040513d601f19601f82011682018060405250810190610f9b9190614a3a565b905060006110308261011260009054906101000a90046001600160a01b03166001600160a01b03166318160ddd6040518163ffffffff1660e01b815260040160206040518083038186803b158015610ff257600080fd5b505afa158015611006573d6000803e3d6000fd5b505050506040513d601f19601f8201168201806040525081019061102a9190614a3a565b906133fe565b90505b878510801561104157508683105b156113cc578261105081614f0c565b93505061105d60fb6133f4565b861061106857600095505b600061107560fb8861340a565b610115549091506001600160a01b03808316911614806110a35750610116546001600160a01b038281169116145b156110ae5750611033565b60008060008061010a546110c18661206b565b101580156110da575061010b546110d78661206b565b11155b15611102576110ff866110f96110ef8861206b565b6101105490613416565b90613422565b92505b61110b85611d48565b61011e546040516370a0823160e01b815230600482015295995092975090955093506001600160a01b0316916370a08231915060240160206040518083038186803b15801561115957600080fd5b505afa15801561116d573d6000803e3d6000fd5b505050506040513d601f19601f820116820180604052508101906111919190614a3a565b83118061119d57504781115b80611222575061011d546040516370a0823160e01b81523060048201526001600160a01b03909116906370a082319060240160206040518083038186803b1580156111e757600080fd5b505afa1580156111fb573d6000803e3d6000fd5b505050506040513d601f19601f8201168201806040525081019061121f9190614a3a565b82115b156112315750505050506113cc565b801561126f576040516001600160a01b0386169082156108fc029083906000818181858888f1935050505015801561126d573d6000803e3d6000fd5b505b81156112fe5761011d5460405163a9059cbb60e01b81526001600160a01b038781166004830152602482018590529091169063a9059cbb90604401602060405180830381600087803b1580156112c457600080fd5b505af11580156112d8573d6000803e3d6000fd5b505050506040513d601f19601f820116820180604052508101906112fc9190614a1e565b505b821561138d5761011e5460405163a9059cbb60e01b81526001600160a01b038781166004830152602482018690529091169063a9059cbb90604401602060405180830381600087803b15801561135357600080fd5b505af1158015611367573d6000803e3d6000fd5b505050506040513d601f19601f8201168201806040525081019061138b9190614a1e565b505b60005a9050808a11156113b1576113ae6113a78b836133fe565b8c9061342e565b9a505b9850888b6113be81614f0c565b9c5050505050505050611033565b50505061011192909255505050505b565b60c9546001600160a01b031633146114105760405162461bcd60e51b815260040161140790614beb565b60405180910390fd5b6001600160a01b0391909116600090815261011b60205260409020805460ff1916911515919091179055565b610117546113db9030906001600160a01b03166114588261206b565b61343a565b60003361146b8582856135cc565b611476858585613658565b60019150505b9392505050565b306001600160a01b037f00000000000000000000000000000000000000000000000000000000000000001614156114cc5760405162461bcd60e51b815260040161140790614b53565b7f00000000000000000000000000000000000000000000000000000000000000006001600160a01b0316611515600080516020614f77833981519152546001600160a01b031690565b6001600160a01b03161461153b5760405162461bcd60e51b815260040161140790614b9f565b61154481613ad5565b6040805160008082526020820190925261156091839190613aff565b50565b60c9546001600160a01b0316331461158d5760405162461bcd60e51b815260040161140790614beb565b61011780546001600160a01b0319166001600160a01b0392909216919091179055565b3360008181526034602090815260408083206001600160a01b0387168452909152812054909190610ede90829086906115ea908790614d20565b6132d0565b60c9546001600160a01b031633146116195760405162461bcd60e51b815260040161140790614beb565b61011580546001600160a01b0319166001600160a01b0392909216919091179055565b60c9546001600160a01b031633146116665760405162461bcd60e51b815260040161140790614beb565b61011d54610117546040516370a0823160e01b81523060048201526001600160a01b039283169263a9059cbb92169083906370a082319060240160206040518083038186803b1580156116b857600080fd5b505afa1580156116cc573d6000803e3d6000fd5b505050506040513d601f19601f820116820180604052508101906116f09190614a3a565b6040516001600160e01b031960e085901b1681526001600160a01b0390921660048301526024820152604401602060405180830381600087803b15801561173657600080fd5b505af115801561174a573d6000803e3d6000fd5b505050506040513d601f19601f8201168201806040525081019061176e9190614a1e565b5061011d80546001600160a01b0319166001600160a01b0392909216919091179055565b60c9546001600160a01b031633146117bc5760405162461bcd60e51b815260040161140790614beb565b61011e54610117546040516370a0823160e01b81523060048201526001600160a01b039283169263a9059cbb92169083906370a082319060240160206040518083038186803b15801561180e57600080fd5b505afa158015611822573d6000803e3d6000fd5b505050506040513d601f19601f820116820180604052508101906118469190614a3a565b6040516001600160e01b031960e085901b1681526001600160a01b0390921660048301526024820152604401602060405180830381600087803b15801561188c57600080fd5b505af11580156118a0573d6000803e3d6000fd5b505050506040513d601f19601f820116820180604052508101906118c49190614a1e565b5061011e80546001600160a01b0319166001600160a01b0392909216919091179055565b60c9546001600160a01b031633146119125760405162461bcd60e51b815260040161140790614beb565b61011380546001600160a01b039384166001600160a01b0319918216179091556101148054929093169116179055565b61011e54610117546040516370a0823160e01b81523060048201526001600160a01b039283169263a9059cbb92169083906370a08231906024015b60206040518083038186803b15801561199557600080fd5b505afa1580156119a9573d6000803e3d6000fd5b505050506040513d601f19601f820116820180604052508101906119cd9190614a3a565b6040516001600160e01b031960e085901b1681526001600160a01b0390921660048301526024820152604401602060405180830381600087803b158015611a1357600080fd5b505af1158015611a27573d6000803e3d6000fd5b505050506040513d601f19601f820116820180604052508101906115609190614a1e565b61011d54610117546040516370a0823160e01b81523060048201526001600160a01b039283169263a9059cbb92169083906370a082319060240161197d565b306001600160a01b037f0000000000000000000000000000000000000000000000000000000000000000161415611ad35760405162461bcd60e51b815260040161140790614b53565b7f00000000000000000000000000000000000000000000000000000000000000006001600160a01b0316611b1c600080516020614f77833981519152546001600160a01b031690565b6001600160a01b031614611b425760405162461bcd60e51b815260040161140790614b9f565b611b4b82613ad5565b611b5782826001613aff565b5050565b6000611b6760fb6133f4565b905090565b60c9546001600160a01b03163314611b965760405162461bcd60e51b815260040161140790614beb565b60fe55565b6000306001600160a01b037f00000000000000000000000000000000000000000000000000000000000000001614611c3b5760405162461bcd60e51b815260206004820152603860248201527f555550535570677261646561626c653a206d757374206e6f742062652063616c60448201527f6c6564207468726f7567682064656c656761746563616c6c00000000000000006064820152608401611407565b50600080516020614f7783398151915290565b60c9546001600160a01b03163314611c785760405162461bcd60e51b815260040161140790614beb565b6001600160a01b0391909116600090815261011c60205260409020805460ff1916911515919091179055565b60c9546001600160a01b03163314611cce5760405162461bcd60e51b815260040161140790614beb565b60ff55565b6000610ee460fb83613c79565b61010d5461011354611cfa906001600160a01b031661206b565b11156113db5761011354611d2d906001600160a01b031680611d1b8161206b565b61011d546001600160a01b0316612cb0565b610114546113db906001600160a01b031680611d1b8161206b565b6000806000806000806000806000611d5f8a61206b565b9050611d6d81612710613416565b9050611d82611d7b60355490565b8290613422565b905061010a54611d918b61206b565b10158015611daa575061010b54611da78b61206b565b11155b15611dda576000611dba8b61206b565b9050611dd6611dc860355490565b610110546110f99084613416565b9450505b61011254604080516318160ddd60e01b815290516000926001600160a01b0316916318160ddd916004808301926020929190829003018186803b158015611e2057600080fd5b505afa158015611e34573d6000803e3d6000fd5b505050506040513d601f19601f82011682018060405250810190611e589190614a3a565b905080611e775750600098509650919450869350839250612027915050565b61011254610115546040516370a0823160e01b81526001600160a01b03918216600482015260009291909116906370a082319060240160206040518083038186803b158015611ec557600080fd5b505afa158015611ed9573d6000803e3d6000fd5b505050506040513d601f19601f82011682018060405250810190611efd9190614a3a565b90506000611f0b83836133fe565b9050600061011260009054906101000a90046001600160a01b03166001600160a01b03166370a082318f6040518263ffffffff1660e01b8152600401611f6091906001600160a01b0391909116815260200190565b60206040518083038186803b158015611f7857600080fd5b505afa158015611f8c573d6000803e3d6000fd5b505050506040513d601f19601f82011682018060405250810190611fb09190614a3a565b90506000611fc4836110f984612710613416565b9050610108548210611fed57611fea836110f98461010e5461341690919063ffffffff16565b97505b61010954821061201457612011836110f98461010f5461341690919063ffffffff16565b96505b9c50939a50959850939650919450505050505b91939590929450565b60c9546001600160a01b0316331461205a5760405162461bcd60e51b815260040161140790614beb565b61010e9290925561010f5561011055565b6001600160a01b031660009081526033602052604090205490565b60c9546001600160a01b031633146120b05760405162461bcd60e51b815260040161140790614beb565b61011680546001600160a01b031916331790556113db6000613c9b565b600054610100900460ff166120e85760005460ff16156120ec565b303b155b61214f5760405162461bcd60e51b815260206004820152602e60248201527f496e697469616c697a61626c653a20636f6e747261637420697320616c72656160448201526d191e481a5b9a5d1a585b1a5e995960921b6064820152608401611407565b600054610100900460ff16158015612171576000805461ffff19166101011790555b6121b860405180604001604052806009815260200168151154d508151154d560ba1b81525060405180604001604052806004815260200163151154d560e21b815250613ced565b6121c0613d1e565b6121c8613d4d565b6121e9336121d86012600a614d9e565b6121e4906156ce614e6f565b613d74565b6121f56012600a614d9e565b612201906108ae614e6f565b60fe55610190610100819055606461010181905560326101028190556101038290556101048190556101058290556175306101185591612242908290614d20565b61224c9190614d20565b6122569190614d20565b6101075561011a80546001600160a01b03191673d99d1c33f9fc3444f8101754abc46c52416550d19081179091556040805163c45a015560e01b8152905163c45a015591600480820192602092909190829003018186803b1580156122ba57600080fd5b505afa1580156122ce573d6000803e3d6000fd5b505050506040513d601f19601f820116820180604052508101906122f29190614805565b6001600160a01b031663c9c653963061011a60009054906101000a90046001600160a01b03166001600160a01b031663ad5c46486040518163ffffffff1660e01b815260040160206040518083038186803b15801561235057600080fd5b505afa158015612364573d6000803e3d6000fd5b505050506040513d601f19601f820116820180604052508101906123889190614805565b6040516001600160e01b031960e085901b1681526001600160a01b03928316600482015291166024820152604401602060405180830381600087803b1580156123d057600080fd5b505af11580156123e4573d6000803e3d6000fd5b505050506040513d601f19601f820116820180604052508101906124089190614805565b61011280546001600160a01b03929092166001600160a01b031992831617905561011d80548216737ef95a0fee0dd31b22626fa2e10ee6a223f8a68417905561011e80549091167378867bbeef44f2326bf8ddd1941a4439382ef2a717905561247960c9546001600160a01b031690565b61011580546001600160a01b0319166001600160a01b0392831617905560c9541661011680546001600160a01b03929092166001600160a01b03199283161790556101178054821673e0023825bf2d550ddedccd58f35abe1b2de0e51f1790556101138054821673f900dde80a83bab2e388ea8a789b01982ae605d71790556101148054909116730b9aad6217b2425e63ad023d6b39da29df9c7ec3179055612520601290565b61252b90600a614d9e565b612536906001614e6f565b60ff55670de0b6b3a764000061010e81905561010f556a084595161401484a0000006101105560fd805460ff19166001179055670f43fc2c04ee000061010855674563918244f400006101095561258b601290565b61259690600a614d9e565b6125a1906005614e6f565b61010a556125b16012600a614d9e565b6125bc9060c8614e6f565b61010b556125cc6012600a614d9e565b6125d7906005614e6f565b61010d556125e76012600a614d9e565b6125f2906005614e6f565b61010c5561011980546001600160a01b03191661dead17905563610d406061011f5561011c6020527f4c233592653bd981bc114b0c5fe6483a79e908d1eefbb8c8c44ed87ea81b4877805460ff1990811660019081179092557fbb7524da6703d64a070edc7ce8a8734d30e3cfd68631b1b21897541a5542e69680548216831790557f332cfc448e1cc5715e8140d60e0af849ea608497d12c1e74e3d9a6f7af1470b580548216831790557f81d87f252dc8f77417a5cbf52d8c7182d4bd5ac689871031b47365d71396acbc80548216831790557f79cefc9f88af458906416cfa35732893690c74d9842bc3cabe58c6e5860b7bcd8054821683179055610116546001600160a01b0316600090815260409020805490911690911790558015611560576000805461ff001916905550565b60c9546001600160a01b0316331461274d5760405162461bcd60e51b815260040161140790614beb565b62030d40811015801561276357506207a1208111155b6127cd5760405162461bcd60e51b815260206004820152603560248201527f20676173466f7250726f63657373696e67206d7573742062652062657477656560448201527406e203230302c30303020616e64203530302c30303605c1b6064820152608401611407565b610118548114156128365760405162461bcd60e51b815260206004820152602d60248201527f2043616e6e6f742075706461746520676173466f7250726f63657373696e672060448201526c746f2073616d652076616c756560981b6064820152608401611407565b61011855565b60c9546001600160a01b031633146128665760405162461bcd60e51b815260040161140790614beb565b611b5760fb82613e54565b60c9546001600160a01b0316331461289b5760405162461bcd60e51b815260040161140790614beb565b60fd8054911515620100000262ff000019909216919091179055565b606060378054610e4d90614ed1565b3360008181526034602090815260408083206001600160a01b03871684529091528120549091908381101561294b5760405162461bcd60e51b815260206004820152602560248201527f45524332303a2064656372656173656420616c6c6f77616e63652062656c6f77604482015264207a65726f60d81b6064820152608401611407565b61295882868684036132d0565b506001949350505050565b600061297261011f5442101590565b6129ab5760405162461bcd60e51b815260206004820152600a60248201526963616e6e6f742062757960b01b6044820152606401611407565b610119543390600160a01b900460ff16156129d0576129cb81858561343a565b610ede565b610112546001600160a01b038581169116148015906129fe5750610112546001600160a01b03828116911614155b8015612a19575061011a546001600160a01b03828116911614155b8015612a34575061011a546001600160a01b03858116911614155b15612a4c57612a4481858561343a565b6129cb613e69565b610112546001600160a01b038281169116148015612a78575061011a546001600160a01b038581169116145b80612ac0575061011a546001600160a01b038281169116148015612aab5750610112546001600160a01b03858116911614155b8015612ac0575060fd5462010000900460ff16155b15612ad0576129cb81858561343a565b610ede818585613658565b60c9546001600160a01b03163314612b055760405162461bcd60e51b815260040161140790614beb565b610108959095556101099390935561010a9190915561010b5561010c5561010d55565b6040805160028082526060820183526000926020830190803683370190505090503081600081518110612b6b57634e487b7160e01b600052603260045260246000fd5b6001600160a01b0392831660209182029290920181019190915261011a54604080516315ab88c960e31b81529051919093169263ad5c4648926004808301939192829003018186803b158015612bc057600080fd5b505afa158015612bd4573d6000803e3d6000fd5b505050506040513d601f19601f82011682018060405250810190612bf89190614805565b81600181518110612c1957634e487b7160e01b600052603260045260246000fd5b6001600160a01b03928316602091820292909201015261011a54612c4091309116846132d0565b61011a5460405163791ac94760e01b81526001600160a01b039091169063791ac94790612c7a908590600090869030904290600401614cb0565b600060405180830381600087803b158015612c9457600080fd5b505af1158015612ca8573d6000803e3d6000fd5b505050505050565b60408051600380825260808201909252600091602082016060803683370190505090503081600081518110612cf557634e487b7160e01b600052603260045260246000fd5b6001600160a01b0392831660209182029290920181019190915261011a54604080516315ab88c960e31b81529051919093169263ad5c4648926004808301939192829003018186803b158015612d4a57600080fd5b505afa158015612d5e573d6000803e3d6000fd5b505050506040513d601f19601f82011682018060405250810190612d829190614805565b81600181518110612da357634e487b7160e01b600052603260045260246000fd5b60200260200101906001600160a01b031690816001600160a01b0316815250508181600281518110612de557634e487b7160e01b600052603260045260246000fd5b6001600160a01b03928316602091820292909201015261011a5460ff54612e0f92889216906132d0565b61011a54604051635c11d79560e01b81526001600160a01b0390911690635c11d79590612e4990869060009086908a904290600401614cb0565b600060405180830381600087803b158015612e6357600080fd5b505af1158015612e77573d6000803e3d6000fd5b505050505050505050565b610117546040516001600160a01b03909116904780156108fc02916000818181858888f19350505050158015611560573d6000803e3d6000fd5b60c9546001600160a01b03163314612ee65760405162461bcd60e51b815260040161140790614beb565b610100959095556101019390935561010291909155610103556101045561010555565b610116546001600160a01b0316336001600160a01b031614612f2a57600080fd5b610116546113db906001600160a01b0316613c9b565b61011d546040516370a0823160e01b81526001600160a01b038381166004830181905260009384938493923192909116906370a082319060240160206040518083038186803b158015612f9257600080fd5b505afa158015612fa6573d6000803e3d6000fd5b505050506040513d601f19601f82011682018060405250810190612fca9190614a3a565b61011e546040516370a0823160e01b81526001600160a01b038881166004830152909116906370a082319060240160206040518083038186803b15801561301057600080fd5b505afa158015613024573d6000803e3d6000fd5b505050506040513d601f19601f820116820180604052508101906130489190614a3a565b9250925092509193909250565b604080516002808252606082018352600092602083019080368337019050509050308160008151811061309857634e487b7160e01b600052603260045260246000fd5b6001600160a01b0392831660209182029290920181019190915261011a54604080516315ab88c960e31b81529051919093169263ad5c4648926004808301939192829003018186803b1580156130ed57600080fd5b505afa158015613101573d6000803e3d6000fd5b505050506040513d601f19601f820116820180604052508101906131259190614805565b8160018151811061314657634e487b7160e01b600052603260045260246000fd5b6001600160a01b03928316602091820292909201015261011a5461316d91869116846132d0565b61011a5460405163791ac94760e01b81526001600160a01b039091169063791ac947906131a7908590600090869089904290600401614cb0565b600060405180830381600087803b1580156131c157600080fd5b505af11580156131d5573d6000803e3d6000fd5b5050505050505050565b60c9546001600160a01b031633146132095760405162461bcd60e51b815260040161140790614beb565b60fd805460ff1916911515919091179055565b6000610ee460fb8361340a565b60c9546001600160a01b031633146132535760405162461bcd60e51b815260040161140790614beb565b6001600160a01b0381166132b85760405162461bcd60e51b815260206004820152602660248201527f4f776e61626c653a206e6577206f776e657220697320746865207a65726f206160448201526564647265737360d01b6064820152608401611407565b61156081613c9b565b6001600160a01b03163b151590565b6001600160a01b0383166133325760405162461bcd60e51b8152602060048201526024808201527f45524332303a20617070726f76652066726f6d20746865207a65726f206164646044820152637265737360e01b6064820152608401611407565b6001600160a01b0382166133935760405162461bcd60e51b815260206004820152602260248201527f45524332303a20617070726f766520746f20746865207a65726f206164647265604482015261737360f01b6064820152608401611407565b6001600160a01b0383811660008181526034602090815260408083209487168084529482529182902085905590518481527f8c5be1e5ebec7d5bd14f71427d1e84f3dd0314c0f7b2291e5b200ac8c7c3b925910160405180910390a3505050565b6000610ee4825490565b600061147c8284614e8e565b600061147c8383613ffc565b600061147c8284614e6f565b600061147c8284614d38565b600061147c8284614d20565b6001600160a01b0383166134605760405162461bcd60e51b815260040161140790614c20565b6001600160a01b0382166134c25760405162461bcd60e51b815260206004820152602360248201527f45524332303a207472616e7366657220746f20746865207a65726f206164647260448201526265737360e81b6064820152608401611407565b6001600160a01b0383166000908152603360205260409020548181101561353a5760405162461bcd60e51b815260206004820152602660248201527f45524332303a207472616e7366657220616d6f756e7420657863656564732062604482015265616c616e636560d01b6064820152608401611407565b6001600160a01b03808516600090815260336020526040808220858503905591851681529081208054849290613571908490614d20565b92505081905550826001600160a01b0316846001600160a01b03167fddf252ad1be2c89b69c2b068fc378daa952ba7f163c4a11628f55a4df523b3ef846040516135bd91815260200190565b60405180910390a35b50505050565b6001600160a01b0383811660009081526034602090815260408083209386168352929052205460001981146135c6578181101561364b5760405162461bcd60e51b815260206004820152601d60248201527f45524332303a20696e73756666696369656e7420616c6c6f77616e63650000006044820152606401611407565b6135c684848484036132d0565b6001600160a01b03831661367e5760405162461bcd60e51b815260040161140790614c20565b6001600160a01b038316600090815261011b602052604090205460ff16156136de5760405162461bcd60e51b8152602060048201526013602482015272426c61636b6c6973746564206164647265737360681b6044820152606401611407565b61011954600160a01b900460ff1615613701576136fc83838361343a565b613ad0565b600061371061011f5442101590565b9050808015613735575061011254600090613733906001600160a01b031661206b565b115b801561374f5750610112546001600160a01b038581169116145b801561376a5750610116546001600160a01b03858116911614155b80156137735750805b801561378d575061011f54613789906009614d20565b4211155b1561379b5761379b83614034565b61011a546001600160a01b0316336001600160a01b03161480156137cd5750610112546001600160a01b038481169116145b80156137d95750333014155b156137e6576137e6613e69565b610106546137f33061206b565b1061383c57600061380a6101065461102a3061206b565b60ff5490915061381b906003613416565b811061383a576101175461383a9030906001600160a01b03168361343a565b505b61011954600160a01b900460ff1615801561387157506001600160a01b038316600090815261011c602052604090205460ff16155b801561389757506001600160a01b038416600090815261011c602052604090205460ff16155b15613aab5760006138ba6127106110f9610107548661341690919063ffffffff16565b905060006138da6127106110f9610105548761341690919063ffffffff16565b905060006138fa6127106110f9610104548861341690919063ffffffff16565b6101065490915061390b908261342e565b610106556101025460009061392990612710906110f9908990613416565b905060fe5461393760355490565b111561394c57613947888261407c565b613965565b610113546139659089906001600160a01b03168361343a565b61396f86826133fe565b955061397f8361102a88876133fe565b955061398c88308661343a565b610113546139aa9089906001600160a01b0316611458866002613422565b610114546139c89089906001600160a01b0316611458866002613422565b610112546001600160a01b038881169116148015906139f6575061011a546001600160a01b03888116911614155b8015613a115750610115546001600160a01b03888116911614155b8015613a255750613a2360fb88613c79565b155b15613a3757613a3560fb886141ca565b505b610112546001600160a01b03898116911614801590613a65575061011a546001600160a01b03898116911614155b8015613a805750610115546001600160a01b03898116911614155b8015613a945750613a9260fb89613c79565b155b15613aa657613aa460fb896141ca565b505b505050505b613ab684848461343a565b61011954600160a01b900460ff166135c6576135c6610eea565b505050565b60c9546001600160a01b031633146115605760405162461bcd60e51b815260040161140790614beb565b7f4910fdfa16fed3260ed0e7147f7cc6da11a60208b5b9406d12a635614ffd91435460ff1615613b32576136fc836141df565b826001600160a01b03166352d1902d6040518163ffffffff1660e01b815260040160206040518083038186803b158015613b6b57600080fd5b505afa925050508015613b9b575060408051601f3d908101601f19168201909252613b9891810190614a3a565b60015b613bfe5760405162461bcd60e51b815260206004820152602e60248201527f45524331393637557067726164653a206e657720696d706c656d656e7461746960448201526d6f6e206973206e6f74205555505360901b6064820152608401611407565b600080516020614f778339815191528114613c6d5760405162461bcd60e51b815260206004820152602960248201527f45524331393637557067726164653a20756e737570706f727465642070726f786044820152681a58589b195555525160ba1b6064820152608401611407565b50613ad083838361427b565b6001600160a01b0381166000908152600183016020526040812054151561147c565b60c980546001600160a01b038381166001600160a01b0319831681179093556040519116919082907f8be0079c531659141344cd1fd0a4f28419497f9722a3daafe3b4186f6b6457e090600090a35050565b600054610100900460ff16613d145760405162461bcd60e51b815260040161140790614c65565b611b5782826142a0565b600054610100900460ff16613d455760405162461bcd60e51b815260040161140790614c65565b6113db6142ee565b600054610100900460ff166113db5760405162461bcd60e51b815260040161140790614c65565b6001600160a01b038216613dca5760405162461bcd60e51b815260206004820152601f60248201527f45524332303a206d696e7420746f20746865207a65726f2061646472657373006044820152606401611407565b8060356000828254613ddc9190614d20565b90915550506001600160a01b03821660009081526033602052604081208054839290613e09908490614d20565b90915550506040518181526001600160a01b038316906000907fddf252ad1be2c89b69c2b068fc378daa952ba7f163c4a11628f55a4df523b3ef9060200160405180910390a3611b57565b600061147c836001600160a01b03841661431e565b60fd5460ff168015613e86575061011954600160a01b900460ff16155b8015613e9c575060ff54613e993061206b565b10155b8015613eaa575061010e5447105b8015613ecd575060ff5461011254613eca906001600160a01b031661206b565b10155b156113db57610119805460ff60a01b1916600160a01b179055610100546101075460fe54613efa60355490565b11613f375761010254613f0d9083614d20565b91506101025481613f1e9190614d20565b90506101025461010554613f329190614d20565b610105555b6000613f52826110f98560ff5461341690919063ffffffff16565b61011d54909150613f71903090819084906001600160a01b0316612cb0565b6000613f8f836110f96101015460ff5461341690919063ffffffff16565b9050613f9a81612b28565b6000613fb8846110f96101035460ff5461341690919063ffffffff16565b61011e54909150613fd7903090819084906001600160a01b0316612cb0565b613fdf61443b565b613fe7611ce0565b5050610119805460ff60a01b19169055505050565b600082600001828154811061402157634e487b7160e01b600052603260045260246000fd5b9060005260206000200154905092915050565b6001600160a01b038116600090815261011b602052604090205460ff16611560576001600160a01b038116600090815261011b60205260409020805460ff1916600117905550565b6001600160a01b0382166140dc5760405162461bcd60e51b815260206004820152602160248201527f45524332303a206275726e2066726f6d20746865207a65726f206164647265736044820152607360f81b6064820152608401611407565b6001600160a01b038216600090815260336020526040902054818110156141505760405162461bcd60e51b815260206004820152602260248201527f45524332303a206275726e20616d6f756e7420657863656564732062616c616e604482015261636560f01b6064820152608401611407565b6001600160a01b038316600090815260336020526040812083830390556035805484929061417f908490614e8e565b90915550506040518281526000906001600160a01b038516907fddf252ad1be2c89b69c2b068fc378daa952ba7f163c4a11628f55a4df523b3ef9060200160405180910390a3613ad0565b600061147c836001600160a01b0384166144ce565b6001600160a01b0381163b61424c5760405162461bcd60e51b815260206004820152602d60248201527f455243313936373a206e657720696d706c656d656e746174696f6e206973206e60448201526c1bdd08184818dbdb9d1c9858dd609a1b6064820152608401611407565b600080516020614f7783398151915280546001600160a01b0319166001600160a01b0392909216919091179055565b6142848361451d565b6000825111806142915750805b15613ad0576135c6838361455d565b600054610100900460ff166142c75760405162461bcd60e51b815260040161140790614c65565b81516142da906036906020850190614750565b508051613ad0906037906020840190614750565b600054610100900460ff166143155760405162461bcd60e51b815260040161140790614c65565b6113db33613c9b565b60008181526001830160205260408120548015614431576000614342600183614e8e565b855490915060009061435690600190614e8e565b90508181146143d757600086600001828154811061438457634e487b7160e01b600052603260045260246000fd5b90600052602060002001549050808760000184815481106143b557634e487b7160e01b600052603260045260246000fd5b6000918252602080832090910192909255918252600188019052604090208390555b85548690806143f657634e487b7160e01b600052603160045260246000fd5b600190038181906000526020600020016000905590558560010160008681526020019081526020016000206000905560019350505050610ee4565b6000915050610ee4565b61010c54610106541080614459575061010c546144573061206b565b105b15614463576113db565b61010c54600090614475906002613422565b9050600061448f8261010c546133fe90919063ffffffff16565b90504761449b83612b28565b60006144a747836133fe565b90506144b38382614651565b61010c54610106546144c4916133fe565b6101065550505050565b600081815260018301602052604081205461451557508154600181810184556000848152602080822090930184905584548482528286019093526040902091909155610ee4565b506000610ee4565b614526816141df565b6040516001600160a01b038216907fbc7cd75a20ee27fd9adebab32041f755214dbc6bffa90cc0225b39da2e5c2d3b90600090a250565b60606001600160a01b0383163b6145c55760405162461bcd60e51b815260206004820152602660248201527f416464726573733a2064656c65676174652063616c6c20746f206e6f6e2d636f6044820152651b9d1c9858dd60d21b6064820152608401611407565b600080846001600160a01b0316846040516145e09190614b04565b600060405180830381855af49150503d806000811461461b576040519150601f19603f3d011682016040523d82523d6000602084013e614620565b606091505b50915091506146488282604051806060016040528060278152602001614f9760279139614717565b95945050505050565b61011a5461466a9030906001600160a01b0316846132d0565b61011a546101195460405163f305d71960e01b81523060048201526024810185905260006044820181905260648201526001600160a01b0391821660848201524260a482015291169063f305d71990839060c4016060604051808303818588803b1580156146d757600080fd5b505af11580156146eb573d6000803e3d6000fd5b50505050506040513d601f19601f820116820180604052508101906147109190614a95565b5050505050565b6060831561472657508161147c565b8251156147365782518084602001fd5b8160405162461bcd60e51b81526004016114079190614b20565b82805461475c90614ed1565b90600052602060002090601f01602090048101928261477e57600085556147c4565b82601f1061479757805160ff19168380011785556147c4565b828001600101855582156147c4579182015b828111156147c45782518255916020019190600101906147a9565b506147d09291506147d4565b5090565b5b808211156147d057600081556001016147d5565b6000602082840312156147fa578081fd5b813561147c81614f53565b600060208284031215614816578081fd5b815161147c81614f53565b60008060408385031215614833578081fd5b823561483e81614f53565b9150602083013561484e81614f53565b809150509250929050565b60008060006060848603121561486d578081fd5b833561487881614f53565b9250602084013561488881614f53565b929592945050506040919091013590565b600080600080608085870312156148ae578081fd5b84356148b981614f53565b935060208501356148c981614f53565b92506040850135915060608501356148e081614f53565b939692955090935050565b600080604083850312156148fd578182fd5b823561490881614f53565b9150602083013561484e81614f68565b6000806040838503121561492a578182fd5b823561493581614f53565b9150602083013567ffffffffffffffff80821115614951578283fd5b818501915085601f830112614964578283fd5b81358181111561497657614976614f3d565b604051601f8201601f19908116603f0116810190838211818310171561499e5761499e614f3d565b816040528281528860208487010111156149b6578586fd5b82602086016020830137856020848301015280955050505050509250929050565b600080604083850312156149e9578182fd5b82356149f481614f53565b946020939093013593505050565b600060208284031215614a13578081fd5b813561147c81614f68565b600060208284031215614a2f578081fd5b815161147c81614f68565b600060208284031215614a4b578081fd5b5051919050565b600060208284031215614a63578081fd5b5035919050565b600080600060608486031215614a7e578283fd5b505081359360208301359350604090920135919050565b600080600060608486031215614aa9578081fd5b8351925060208401519150604084015190509250925092565b60008060008060008060c08789031215614ada578384fd5b505084359660208601359650604086013595606081013595506080810135945060a0013592509050565b60008251614b16818460208701614ea5565b9190910192915050565b6000602082528251806020840152614b3f816040850160208701614ea5565b601f01601f19169190910160400192915050565b6020808252602c908201527f46756e6374696f6e206d7573742062652063616c6c6564207468726f7567682060408201526b19195b1959d85d1958d85b1b60a21b606082015260800190565b6020808252602c908201527f46756e6374696f6e206d7573742062652063616c6c6564207468726f7567682060408201526b6163746976652070726f787960a01b606082015260800190565b6020808252818101527f4f776e61626c653a2063616c6c6572206973206e6f7420746865206f776e6572604082015260600190565b60208082526025908201527f45524332303a207472616e736665722066726f6d20746865207a65726f206164604082015264647265737360d81b606082015260800190565b6020808252602b908201527f496e697469616c697a61626c653a20636f6e7472616374206973206e6f74206960408201526a6e697469616c697a696e6760a81b606082015260800190565b600060a082018783526020878185015260a0604085015281875180845260c0860191508289019350845b81811015614cff5784516001600160a01b031683529383019391830191600101614cda565b50506001600160a01b03969096166060850152505050608001529392505050565b60008219821115614d3357614d33614f27565b500190565b600082614d5357634e487b7160e01b81526012600452602481fd5b500490565b80825b6001808611614d6a5750614d95565b818704821115614d7c57614d7c614f27565b80861615614d8957918102915b9490941c938002614d5b565b94509492505050565b600061147c60001960ff851684600082614dba5750600161147c565b81614dc75750600061147c565b8160018114614ddd5760028114614de757614e14565b600191505061147c565b60ff841115614df857614df8614f27565b6001841b915084821115614e0e57614e0e614f27565b5061147c565b5060208310610133831016604e8410600b8410161715614e47575081810a83811115614e4257614e42614f27565b61147c565b614e548484846001614d58565b808604821115614e6657614e66614f27565b02949350505050565b6000816000190483118215151615614e8957614e89614f27565b500290565b600082821015614ea057614ea0614f27565b500390565b60005b83811015614ec0578181015183820152602001614ea8565b838111156135c65750506000910152565b600181811c90821680614ee557607f821691505b60208210811415614f0657634e487b7160e01b600052602260045260246000fd5b50919050565b6000600019821415614f2057614f20614f27565b5060010190565b634e487b7160e01b600052601160045260246000fd5b634e487b7160e01b600052604160045260246000fd5b6001600160a01b038116811461156057600080fd5b801515811461156057600080fdfe360894a13ba1a3210667c828492db98dca3e2076cc3735a920a3ca505d382bbc416464726573733a206c6f772d6c6576656c2064656c65676174652063616c6c206661696c6564a26469706673582212209eda2c0fb6394a6c637babe7967f9af704b9dda1f5ac84b65eb52fe1b8737b4d64736f6c63430008030033",
  "linkReferences": {},
  "deployedLinkReferences": {}
}