{
    "contractName": "BT2",
    "abi": [
        {
            "inputs": [],
            "stateMutability": "nonpayable",
            "type": "constructor"
        },
        {
            "inputs": [
                {
                    "internalType": "address",
                    "name": "target",
                    "type": "address"
                }
            ],
            "name": "AddressEmptyCode",
            "type": "error"
        },
        {
            "inputs": [
                {
                    "internalType": "address",
                    "name": "implementation",
                    "type": "address"
                }
            ],
            "name": "ERC1967InvalidImplementation",
            "type": "error"
        },
        {
            "inputs": [],
            "name": "ERC1967NonPayable",
            "type": "error"
        },
        {
            "inputs": [
                {
                    "internalType": "address",
                    "name": "spender",
                    "type": "address"
                },
                {
                    "internalType": "uint256",
                    "name": "allowance",
                    "type": "uint256"
                },
                {
                    "internalType": "uint256",
                    "name": "needed",
                    "type": "uint256"
                }
            ],
            "name": "ERC20InsufficientAllowance",
            "type": "error"
        },
        {
            "inputs": [
                {
                    "internalType": "address",
                    "name": "sender",
                    "type": "address"
                },
                {
                    "internalType": "uint256",
                    "name": "balance",
                    "type": "uint256"
                },
                {
                    "internalType": "uint256",
                    "name": "needed",
                    "type": "uint256"
                }
            ],
            "name": "ERC20InsufficientBalance",
            "type": "error"
        },
        {
            "inputs": [
                {
                    "internalType": "address",
                    "name": "approver",
                    "type": "address"
                }
            ],
            "name": "ERC20InvalidApprover",
            "type": "error"
        },
        {
            "inputs": [
                {
                    "internalType": "address",
                    "name": "receiver",
                    "type": "address"
                }
            ],
            "name": "ERC20InvalidReceiver",
            "type": "error"
        },
        {
            "inputs": [
                {
                    "internalType": "address",
                    "name": "sender",
                    "type": "address"
                }
            ],
            "name": "ERC20InvalidSender",
            "type": "error"
        },
        {
            "inputs": [
                {
                    "internalType": "address",
                    "name": "spender",
                    "type": "address"
                }
            ],
            "name": "ERC20InvalidSpender",
            "type": "error"
        },
        {
            "inputs": [],
            "name": "FailedInnerCall",
            "type": "error"
        },
        {
            "inputs": [],
            "name": "InvalidInitialization",
            "type": "error"
        },
        {
            "inputs": [],
            "name": "NotInitializing",
            "type": "error"
        },
        {
            "inputs": [
                {
                    "internalType": "address",
                    "name": "owner",
                    "type": "address"
                }
            ],
            "name": "OwnableInvalidOwner",
            "type": "error"
        },
        {
            "inputs": [
                {
                    "internalType": "address",
                    "name": "account",
                    "type": "address"
                }
            ],
            "name": "OwnableUnauthorizedAccount",
            "type": "error"
        },
        {
            "inputs": [],
            "name": "UUPSUnauthorizedCallContext",
            "type": "error"
        },
        {
            "inputs": [
                {
                    "internalType": "bytes32",
                    "name": "slot",
                    "type": "bytes32"
                }
            ],
            "name": "UUPSUnsupportedProxiableUUID",
            "type": "error"
        },
        {
            "anonymous": false,
            "inputs": [
                {
                    "indexed": false,
                    "internalType": "uint32",
                    "name": "_blockToUnlockLiquidity",
                    "type": "uint32"
                },
                {
                    "indexed": false,
                    "internalType": "uint256",
                    "name": "value",
                    "type": "uint256"
                }
            ],
            "name": "AddLiquidity",
            "type": "event"
        },
        {
            "anonymous": false,
            "inputs": [
                {
                    "indexed": true,
                    "internalType": "address",
                    "name": "owner",
                    "type": "address"
                },
                {
                    "indexed": true,
                    "internalType": "address",
                    "name": "spender",
                    "type": "address"
                },
                {
                    "indexed": false,
                    "internalType": "uint256",
                    "name": "value",
                    "type": "uint256"
                }
            ],
            "name": "Approval",
            "type": "event"
        },
        {
            "anonymous": false,
            "inputs": [
                {
                    "indexed": false,
                    "internalType": "uint64",
                    "name": "version",
                    "type": "uint64"
                }
            ],
            "name": "Initialized",
            "type": "event"
        },
        {
            "anonymous": false,
            "inputs": [
                {
                    "indexed": true,
                    "internalType": "address",
                    "name": "previousOwner",
                    "type": "address"
                },
                {
                    "indexed": true,
                    "internalType": "address",
                    "name": "newOwner",
                    "type": "address"
                }
            ],
            "name": "OwnershipTransferred",
            "type": "event"
        },
        {
            "anonymous": false,
            "inputs": [
                {
                    "indexed": true,
                    "internalType": "address",
                    "name": "sender",
                    "type": "address"
                },
                {
                    "indexed": false,
                    "internalType": "uint256",
                    "name": "value",
                    "type": "uint256"
                }
            ],
            "name": "Pledge",
            "type": "event"
        },
        {
            "anonymous": false,
            "inputs": [
                {
                    "indexed": false,
                    "internalType": "uint256",
                    "name": "value",
                    "type": "uint256"
                }
            ],
            "name": "RemoveLiquidity",
            "type": "event"
        },
        {
            "anonymous": false,
            "inputs": [
                {
                    "indexed": true,
                    "internalType": "address",
                    "name": "sender",
                    "type": "address"
                },
                {
                    "indexed": false,
                    "internalType": "uint256",
                    "name": "value",
                    "type": "uint256"
                }
            ],
            "name": "RemovePledge",
            "type": "event"
        },
        {
            "anonymous": false,
            "inputs": [
                {
                    "indexed": true,
                    "internalType": "address",
                    "name": "sender",
                    "type": "address"
                },
                {
                    "indexed": false,
                    "internalType": "uint256",
                    "name": "amount0In",
                    "type": "uint256"
                },
                {
                    "indexed": false,
                    "internalType": "uint256",
                    "name": "amount1In",
                    "type": "uint256"
                },
                {
                    "indexed": false,
                    "internalType": "uint256",
                    "name": "amount0Out",
                    "type": "uint256"
                },
                {
                    "indexed": false,
                    "internalType": "uint256",
                    "name": "amount1Out",
                    "type": "uint256"
                }
            ],
            "name": "Swap",
            "type": "event"
        },
        {
            "anonymous": false,
            "inputs": [
                {
                    "indexed": true,
                    "internalType": "address",
                    "name": "from",
                    "type": "address"
                },
                {
                    "indexed": true,
                    "internalType": "address",
                    "name": "to",
                    "type": "address"
                },
                {
                    "indexed": false,
                    "internalType": "uint256",
                    "name": "value",
                    "type": "uint256"
                }
            ],
            "name": "Transfer",
            "type": "event"
        },
        {
            "anonymous": false,
            "inputs": [
                {
                    "indexed": true,
                    "internalType": "address",
                    "name": "implementation",
                    "type": "address"
                }
            ],
            "name": "Upgraded",
            "type": "event"
        },
        {
            "inputs": [],
            "name": "UPGRADE_INTERFACE_VERSION",
            "outputs": [
                {
                    "internalType": "string",
                    "name": "",
                    "type": "string"
                }
            ],
            "stateMutability": "view",
            "type": "function"
        },
        {
            "inputs": [],
            "name": "_fireStopAmount",
            "outputs": [
                {
                    "internalType": "uint256",
                    "name": "",
                    "type": "uint256"
                }
            ],
            "stateMutability": "view",
            "type": "function"
        },
        {
            "inputs": [],
            "name": "_maxSellAmount",
            "outputs": [
                {
                    "internalType": "uint256",
                    "name": "",
                    "type": "uint256"
                }
            ],
            "stateMutability": "view",
            "type": "function"
        },
        {
            "inputs": [],
            "name": "_maxWallet",
            "outputs": [
                {
                    "internalType": "uint256",
                    "name": "",
                    "type": "uint256"
                }
            ],
            "stateMutability": "view",
            "type": "function"
        },
        {
            "inputs": [],
            "name": "_nodeLimitAmount",
            "outputs": [
                {
                    "internalType": "uint256",
                    "name": "",
                    "type": "uint256"
                }
            ],
            "stateMutability": "view",
            "type": "function"
        },
        {
            "inputs": [
                {
                    "internalType": "address",
                    "name": "owner",
                    "type": "address"
                },
                {
                    "internalType": "address",
                    "name": "spender",
                    "type": "address"
                }
            ],
            "name": "allowance",
            "outputs": [
                {
                    "internalType": "uint256",
                    "name": "",
                    "type": "uint256"
                }
            ],
            "stateMutability": "view",
            "type": "function"
        },
        {
            "inputs": [
                {
                    "internalType": "address",
                    "name": "spender",
                    "type": "address"
                },
                {
                    "internalType": "uint256",
                    "name": "value",
                    "type": "uint256"
                }
            ],
            "name": "approve",
            "outputs": [
                {
                    "internalType": "bool",
                    "name": "",
                    "type": "bool"
                }
            ],
            "stateMutability": "nonpayable",
            "type": "function"
        },
        {
            "inputs": [
                {
                    "internalType": "address",
                    "name": "account",
                    "type": "address"
                }
            ],
            "name": "balanceOf",
            "outputs": [
                {
                    "internalType": "uint256",
                    "name": "",
                    "type": "uint256"
                }
            ],
            "stateMutability": "view",
            "type": "function"
        },
        {
            "inputs": [
                {
                    "internalType": "uint256",
                    "name": "",
                    "type": "uint256"
                }
            ],
            "name": "communityAddress",
            "outputs": [
                {
                    "internalType": "address",
                    "name": "",
                    "type": "address"
                }
            ],
            "stateMutability": "view",
            "type": "function"
        },
        {
            "inputs": [],
            "name": "communityBonus",
            "outputs": [
                {
                    "internalType": "uint256",
                    "name": "",
                    "type": "uint256"
                }
            ],
            "stateMutability": "view",
            "type": "function"
        },
        {
            "inputs": [
                {
                    "internalType": "address",
                    "name": "",
                    "type": "address"
                }
            ],
            "name": "communityCount",
            "outputs": [
                {
                    "internalType": "uint256",
                    "name": "",
                    "type": "uint256"
                }
            ],
            "stateMutability": "view",
            "type": "function"
        },
        {
            "inputs": [],
            "name": "decimals",
            "outputs": [
                {
                    "internalType": "uint8",
                    "name": "",
                    "type": "uint8"
                }
            ],
            "stateMutability": "view",
            "type": "function"
        },
        {
            "inputs": [],
            "name": "ecoAddress",
            "outputs": [
                {
                    "internalType": "address",
                    "name": "",
                    "type": "address"
                }
            ],
            "stateMutability": "view",
            "type": "function"
        },
        {
            "inputs": [
                {
                    "internalType": "bool",
                    "name": "_maxWalletEnable",
                    "type": "bool"
                }
            ],
            "name": "enableMaxWallet",
            "outputs": [],
            "stateMutability": "nonpayable",
            "type": "function"
        },
        {
            "inputs": [],
            "name": "feeAddress",
            "outputs": [
                {
                    "internalType": "address",
                    "name": "",
                    "type": "address"
                }
            ],
            "stateMutability": "view",
            "type": "function"
        },
        {
            "inputs": [
                {
                    "internalType": "uint256",
                    "name": "value",
                    "type": "uint256"
                },
                {
                    "internalType": "bool",
                    "name": "_buy",
                    "type": "bool"
                }
            ],
            "name": "getAmountOut",
            "outputs": [
                {
                    "internalType": "uint256",
                    "name": "",
                    "type": "uint256"
                }
            ],
            "stateMutability": "view",
            "type": "function"
        },
        {
            "inputs": [],
            "name": "getNodeAddress",
            "outputs": [
                {
                    "internalType": "address[]",
                    "name": "",
                    "type": "address[]"
                }
            ],
            "stateMutability": "view",
            "type": "function"
        },
        {
            "inputs": [
                {
                    "internalType": "address",
                    "name": "addr",
                    "type": "address"
                }
            ],
            "name": "getPledgeReceiptRelation",
            "outputs": [
                {
                    "internalType": "uint256",
                    "name": "",
                    "type": "uint256"
                }
            ],
            "stateMutability": "view",
            "type": "function"
        },
        {
            "inputs": [],
            "name": "getReserves",
            "outputs": [
                {
                    "internalType": "uint256",
                    "name": "",
                    "type": "uint256"
                },
                {
                    "internalType": "uint256",
                    "name": "",
                    "type": "uint256"
                }
            ],
            "stateMutability": "view",
            "type": "function"
        },
        {
            "inputs": [],
            "name": "initialize",
            "outputs": [],
            "stateMutability": "nonpayable",
            "type": "function"
        },
        {
            "inputs": [],
            "name": "lastRewardAt",
            "outputs": [
                {
                    "internalType": "uint256",
                    "name": "",
                    "type": "uint256"
                }
            ],
            "stateMutability": "view",
            "type": "function"
        },
        {
            "inputs": [],
            "name": "liquidityProvider",
            "outputs": [
                {
                    "internalType": "address",
                    "name": "",
                    "type": "address"
                }
            ],
            "stateMutability": "view",
            "type": "function"
        },
        {
            "inputs": [],
            "name": "marketAddress",
            "outputs": [
                {
                    "internalType": "address",
                    "name": "",
                    "type": "address"
                }
            ],
            "stateMutability": "view",
            "type": "function"
        },
        {
            "inputs": [],
            "name": "maxWalletEnable",
            "outputs": [
                {
                    "internalType": "bool",
                    "name": "",
                    "type": "bool"
                }
            ],
            "stateMutability": "view",
            "type": "function"
        },
        {
            "inputs": [],
            "name": "name",
            "outputs": [
                {
                    "internalType": "string",
                    "name": "",
                    "type": "string"
                }
            ],
            "stateMutability": "view",
            "type": "function"
        },
        {
            "inputs": [
                {
                    "internalType": "uint256",
                    "name": "",
                    "type": "uint256"
                }
            ],
            "name": "nodeAddress",
            "outputs": [
                {
                    "internalType": "address",
                    "name": "",
                    "type": "address"
                }
            ],
            "stateMutability": "view",
            "type": "function"
        },
        {
            "inputs": [],
            "name": "owner",
            "outputs": [
                {
                    "internalType": "address",
                    "name": "",
                    "type": "address"
                }
            ],
            "stateMutability": "view",
            "type": "function"
        },
        {
            "inputs": [
                {
                    "internalType": "address",
                    "name": "",
                    "type": "address"
                }
            ],
            "name": "pledgeReceiptRelation",
            "outputs": [
                {
                    "internalType": "uint256",
                    "name": "",
                    "type": "uint256"
                }
            ],
            "stateMutability": "view",
            "type": "function"
        },
        {
            "inputs": [],
            "name": "proxiableUUID",
            "outputs": [
                {
                    "internalType": "bytes32",
                    "name": "",
                    "type": "bytes32"
                }
            ],
            "stateMutability": "view",
            "type": "function"
        },
        {
            "inputs": [
                {
                    "internalType": "address",
                    "name": "",
                    "type": "address"
                }
            ],
            "name": "relation",
            "outputs": [
                {
                    "internalType": "address",
                    "name": "",
                    "type": "address"
                }
            ],
            "stateMutability": "view",
            "type": "function"
        },
        {
            "inputs": [
                {
                    "internalType": "uint256",
                    "name": "index",
                    "type": "uint256"
                }
            ],
            "name": "removeNodeAddress",
            "outputs": [],
            "stateMutability": "nonpayable",
            "type": "function"
        },
        {
            "inputs": [
                {
                    "internalType": "address",
                    "name": "addr",
                    "type": "address"
                }
            ],
            "name": "removePledgeReceiptRelation",
            "outputs": [],
            "stateMutability": "nonpayable",
            "type": "function"
        },
        {
            "inputs": [],
            "name": "renounceOwnership",
            "outputs": [],
            "stateMutability": "nonpayable",
            "type": "function"
        },
        {
            "inputs": [
                {
                    "internalType": "uint256",
                    "name": "sell_amount",
                    "type": "uint256"
                }
            ],
            "name": "sell",
            "outputs": [],
            "stateMutability": "nonpayable",
            "type": "function"
        },
        {
            "inputs": [
                {
                    "internalType": "uint256",
                    "name": "_maxWallet_",
                    "type": "uint256"
                }
            ],
            "name": "setMaxWallet",
            "outputs": [],
            "stateMutability": "nonpayable",
            "type": "function"
        },
        {
            "inputs": [],
            "name": "symbol",
            "outputs": [
                {
                    "internalType": "string",
                    "name": "",
                    "type": "string"
                }
            ],
            "stateMutability": "view",
            "type": "function"
        },
        {
            "inputs": [],
            "name": "totalSupply",
            "outputs": [
                {
                    "internalType": "uint256",
                    "name": "",
                    "type": "uint256"
                }
            ],
            "stateMutability": "view",
            "type": "function"
        },
        {
            "inputs": [],
            "name": "tradeFeeAmount",
            "outputs": [
                {
                    "internalType": "uint256",
                    "name": "",
                    "type": "uint256"
                }
            ],
            "stateMutability": "view",
            "type": "function"
        },
        {
            "inputs": [
                {
                    "internalType": "address",
                    "name": "to",
                    "type": "address"
                },
                {
                    "internalType": "uint256",
                    "name": "value",
                    "type": "uint256"
                }
            ],
            "name": "transfer",
            "outputs": [
                {
                    "internalType": "bool",
                    "name": "",
                    "type": "bool"
                }
            ],
            "stateMutability": "nonpayable",
            "type": "function"
        },
        {
            "inputs": [
                {
                    "internalType": "address[]",
                    "name": "_address",
                    "type": "address[]"
                },
                {
                    "internalType": "uint256[]",
                    "name": "_amounts",
                    "type": "uint256[]"
                }
            ],
            "name": "transferBatch",
            "outputs": [],
            "stateMutability": "nonpayable",
            "type": "function"
        },
        {
            "inputs": [
                {
                    "internalType": "address",
                    "name": "from",
                    "type": "address"
                },
                {
                    "internalType": "address",
                    "name": "to",
                    "type": "address"
                },
                {
                    "internalType": "uint256",
                    "name": "value",
                    "type": "uint256"
                }
            ],
            "name": "transferFrom",
            "outputs": [
                {
                    "internalType": "bool",
                    "name": "",
                    "type": "bool"
                }
            ],
            "stateMutability": "nonpayable",
            "type": "function"
        },
        {
            "inputs": [
                {
                    "internalType": "address",
                    "name": "newOwner",
                    "type": "address"
                }
            ],
            "name": "transferOwnership",
            "outputs": [],
            "stateMutability": "nonpayable",
            "type": "function"
        },
        {
            "inputs": [
                {
                    "internalType": "address",
                    "name": "newImplementation",
                    "type": "address"
                },
                {
                    "internalType": "bytes",
                    "name": "data",
                    "type": "bytes"
                }
            ],
            "name": "upgradeToAndCall",
            "outputs": [],
            "stateMutability": "payable",
            "type": "function"
        },
        {
            "stateMutability": "payable",
            "type": "receive"
        }
    ],
    "bytecode": "60a06040523060805234801562000014575f80fd5b506200001f62000025565b620000d9565b7ff0c57e16840df040f15088dc2f81fe391c3923bec73e23a9662efc9c229c6a00805468010000000000000000900460ff1615620000765760405163f92ee8a960e01b815260040160405180910390fd5b80546001600160401b0390811614620000d65780546001600160401b0319166001600160401b0390811782556040519081527fc7f505b2f371ae2175ee4913f4499e1f2633a7b5936321eed1cdaeb6115181d29060200160405180910390a15b50565b608051612a6f620001005f395f8181611c4a01528181611c730152611db20152612a6f5ff3fe608060405260043610610257575f3560e01c80637b49827a1161013f578063c363c3ac116100b3578063dd62ed3e11610078578063dd62ed3e1461073b578063e4849b321461075a578063e98533b814610779578063f2e1562814610798578063f2fde38b146107ad578063f3e01942146107cc575f80fd5b8063c363c3ac14610689578063d0943e17146106a8578063d7a05f05146106c7578063dbcdf032146106fb578063dc54150414610726575f80fd5b8063956236411161010457806395623641146105d357806395d89b41146105f2578063a9059cbb14610606578063ad3cb1cc14610625578063ae19139e14610655578063b74de59114610674575f80fd5b80637b49827a146105255780637cca52fe146105595780638129fc1c1461056e57806382247ec0146105825780638da5cb5b14610597575f80fd5b80633cd691d5116101d65780635d0044ca1161019b5780635d0044ca1461046857806368961ecb1461048757806370a08231146104a657806370dabc9e146104c5578063715018a6146104e657806378554a4f146104fa575f80fd5b80633cd691d5146103d657806341275358146103eb5780634f1ef2861461042257806352d1902d146104355780635b8bec5514610449575f80fd5b806312a54b621161021c57806312a54b621461032a57806318160ddd1461034a57806323b872dd1461037d578063313ce5671461039c5780633b3e672f146103b7575f80fd5b806304f60cd71461026a57806306fdde03146102925780630902f1ac146102b3578063095ea7b3146102dc57806311106ee21461030b575f80fd5b36610266576102646107eb565b005b5f80fd5b348015610275575f80fd5b5061027f600f5481565b6040519081526020015b60405180910390f35b34801561029d575f80fd5b506102a66109ff565b604051610289919061235f565b3480156102be575f80fd5b506102c7610abf565b60408051928352602083019190915201610289565b3480156102e7575f80fd5b506102fb6102f63660046123ac565b610ad5565b6040519015158152602001610289565b348015610316575f80fd5b5061027f6103253660046123e1565b610aee565b348015610335575f80fd5b506007546102fb90600160a01b900460ff1681565b348015610355575f80fd5b507f52c63247e1f47db19d5ce0460030c497f067ca4cebf71ba98eeadabe20bace025461027f565b348015610388575f80fd5b506102fb61039736600461240f565b610b3e565b3480156103a7575f80fd5b5060405160128152602001610289565b3480156103c2575f80fd5b506102646103d1366004612490565b610b63565b3480156103e1575f80fd5b5061027f600e5481565b3480156103f6575f80fd5b50600a5461040a906001600160a01b031681565b6040516001600160a01b039091168152602001610289565b61026461043036600461250b565b610bc5565b348015610440575f80fd5b5061027f610be4565b348015610454575f80fd5b5060075461040a906001600160a01b031681565b348015610473575f80fd5b506102646104823660046125c7565b610bff565b348015610492575f80fd5b5060095461040a906001600160a01b031681565b3480156104b1575f80fd5b5061027f6104c03660046125de565b610c0c565b3480156104d0575f80fd5b506104d9610c32565b60405161028991906125f7565b3480156104f1575f80fd5b50610264610c92565b348015610505575f80fd5b5061027f6105143660046125de565b60116020525f908152604090205481565b348015610530575f80fd5b5061027f61053f3660046125de565b6001600160a01b03165f9081526012602052604090205490565b348015610564575f80fd5b5061027f60035481565b348015610579575f80fd5b50610264610ca5565b34801561058d575f80fd5b5061027f60025481565b3480156105a2575f80fd5b507f9016d09d72d40fdae2fd8ceac6b6234c7706214fd39c1cd1e609a0528c199300546001600160a01b031661040a565b3480156105de575f80fd5b5060085461040a906001600160a01b031681565b3480156105fd575f80fd5b506102a6610f67565b348015610611575f80fd5b506102fb6106203660046123ac565b610fa5565b348015610630575f80fd5b506102a6604051806040016040528060058152602001640352e302e360dc1b81525081565b348015610660575f80fd5b5061026461066f366004612643565b611259565b34801561067f575f80fd5b5061027f60045481565b348015610694575f80fd5b506102646106a33660046125de565b61127f565b3480156106b3575f80fd5b5061040a6106c23660046125c7565b61137d565b3480156106d2575f80fd5b5061040a6106e13660046125de565b60106020525f90815260409020546001600160a01b031681565b348015610706575f80fd5b5061027f6107153660046125de565b60126020525f908152604090205481565b348015610731575f80fd5b5061027f600d5481565b348015610746575f80fd5b5061027f61075536600461265e565b6113a5565b348015610765575f80fd5b506102646107743660046125c7565b6113ee565b348015610784575f80fd5b5061040a6107933660046125c7565b61168e565b3480156107a3575f80fd5b5061027f60135481565b3480156107b8575f80fd5b506102646107c73660046125de565b61169d565b3480156107d7575f80fd5b506102646107e63660046125c7565b6116da565b335f908152601560205260409020544363ffffffff909116036108295760405162461bcd60e51b81526004016108209061268f565b60405180910390fd5b63682802b842116108695760405162461bcd60e51b815260206004820152600a6024820152691b9bdd081bdc195b995960b21b6044820152606401610820565b335f908152601560205260408120805463ffffffff19164363ffffffff1617905560015434919061089b9083906126f4565b6108a430610c0c565b6108ae9084612707565b6108b8919061271e565b600754909150600160a01b900460ff1615610927576002546108d933610c0c565b6108e390836126f4565b11156109275760405162461bcd60e51b815260206004820152601360248201527213585e081dd85b1b195d08195e18d959591959606a1b6044820152606401610820565b6109483033606461093985605f612707565b610943919061271e565b611784565b6103e8610957836103d9612707565b610961919061271e565b60015f82825461097191906126f4565b909155506109809050346118bd565b61098981611909565b6109933382611a1d565b61099c81611a62565b6109a533611aaf565b6109ae81611b0f565b604080513481525f60208201819052918101919091526060810182905233907f49926bbebe8474393f434dfa4f78694c0923efa07d19f2284518bfabd06eb737906080015b60405180910390a25050565b7f52c63247e1f47db19d5ce0460030c497f067ca4cebf71ba98eeadabe20bace0380546060915f805160206129fa83398151915291610a3d9061273d565b80601f0160208091040260200160405190810160405280929190818152602001828054610a699061273d565b8015610ab45780601f10610a8b57610100808354040283529160200191610ab4565b820191905f5260205f20905b815481529060010190602001808311610a9757829003601f168201915b505050505091505090565b5f80600154610acd30610c0c565b915091509091565b5f33610ae2818585611b78565b60019150505b92915050565b5f805f610af9610abf565b915091508315610b2a57610b0d85836126f4565b610b178287612707565b610b21919061271e565b92505050610ae8565b610b3485826126f4565b610b178387612707565b5f33610b4b858285611b85565b610b56858585611be2565b60019150505b9392505050565b5f5b83811015610bbe57610bb633868684818110610b8357610b83612775565b9050602002016020810190610b9891906125de565b858585818110610baa57610baa612775565b90506020020135611784565b600101610b65565b5050505050565b610bcd611c3f565b610bd682611ce3565b610be08282611ceb565b5050565b5f610bed611da7565b505f80516020612a1a83398151915290565b610c07611df0565b600255565b6001600160a01b03165f9081525f805160206129fa833981519152602052604090205490565b6060600b805480602002602001604051908101604052809291908181526020018280548015610c8857602002820191905f5260205f20905b81546001600160a01b03168152600190910190602001808311610c6a575b5050505050905090565b610c9a611df0565b610ca35f611e4b565b565b7ff0c57e16840df040f15088dc2f81fe391c3923bec73e23a9662efc9c229c6a008054600160401b810460ff16159067ffffffffffffffff165f81158015610cea5750825b90505f8267ffffffffffffffff166001148015610d065750303b155b905081158015610d14575080155b15610d325760405163f92ee8a960e01b815260040160405180910390fd5b845467ffffffffffffffff191660011785558315610d5c57845460ff60401b1916600160401b1785555b610d9e60405180604001604052806004815260200163784fc6dd60e11b81525060405180604001604052806004815260200163784fc6dd60e11b815250611ebb565b610daa6012600a61285a565b610db890633b023380612707565b5f55610dc66012600a61285a565b610dd2906104b0612707565b600155610de16012600a61285a565b610dee9062989680612707565b600455610dfd6012600a61285a565b610e0a906207a120612707565b600255610e196012600a61285a565b610e26906207a120612707565b600e55610e356012600a61285a565b610e419061c350612707565b600355600980546001600160a01b03199081167398a8790028c6476b740be640627a62496e5d616b179091556007805460ff60a01b1916600160a01b179055600880548216737a6ca6a66b7ca223ecd10ef837895f7a32e902d4179055600a805490911673bedddae2062f0b573ec72562f88da141a67b70b2179055610ec633611ecd565b610ece611ede565b610ef130610ede6012600a61285a565b610eec90631a39de00612707565b611ee6565b600954610f1b906001600160a01b0316610f0d6012600a61285a565b610eec906320c85580612707565b8315610bbe57845460ff60401b19168555604051600181527fc7f505b2f371ae2175ee4913f4499e1f2633a7b5936321eed1cdaeb6115181d29060200160405180910390a15050505050565b7f52c63247e1f47db19d5ce0460030c497f067ca4cebf71ba98eeadabe20bace0480546060915f805160206129fa83398151915291610a3d9061273d565b5f306001600160a01b03841603610fc457610fbf826113ee565b611250565b6014546001600160a01b03908116908416036111c757610fe66012600a61285a565b610ff290617530612707565b82148061101657506110066012600a61285a565b61101390620186a0612707565b82145b8061103857506110286012600a61285a565b61103590620493e0612707565b82145b8061105a575061104a6012600a61285a565b611057906207a120612707565b82145b6110975760405162461bcd60e51b815260206004820152600e60248201526d33772f3130772f3330772f35307760901b6044820152606401610820565b335f90815260126020526040902054156110e55760405162461bcd60e51b815260206004820152600f60248201526e105b1c9958591e481c1b195919d959608a1b6044820152606401610820565b6110f0338484611be2565b335f8181526012602052604090208390556014546001600160a01b03169063a9059cbb906111206113888661271e565b6040516001600160e01b031960e085901b1681526001600160a01b03909216600483015260248201526044016020604051808303815f875af1158015611168573d5f803e3d5ffd5b505050506040513d601f19601f8201168201806040525081019061118c9190612868565b5060405182815233907f5e91ea8ea1c46300eb761859be01d7b16d44389ef91e03a163a87413cbf55b959060200160405180910390a2611250565b5f6111d460066012612883565b6111df90600a61285a565b6111ea906001612707565b90506111f533610c0c565b8303611230578061120533610c0c565b1115611226578061121533610c0c565b61121f919061289c565b9250611230565b6001915050610ae8565b61123b338585611784565b61124484611aaf565b61124e3385611f1a565b505b50600192915050565b611261611df0565b60078054911515600160a01b0260ff60a01b19909216919091179055565b6014546001600160a01b031633146112c95760405162461bcd60e51b815260206004820152600d60248201526c2737903832b936b4b9b9b4b7b760991b6044820152606401610820565b6001600160a01b0381165f908152601260205260409020548061131a5760405162461bcd60e51b81526020600482015260096024820152686e6f20706c6564676560b81b6044820152606401610820565b601454611331906001600160a01b03168383611be2565b6001600160a01b0382165f8181526012602052604080822091909155517f7c1499da310db315606891cff45c8999e67bc58b9fa507440dd5c02506d64de0906109f39084815260200190565b600c818154811061138c575f80fd5b5f918252602090912001546001600160a01b0316905081565b6001600160a01b039182165f9081527f52c63247e1f47db19d5ce0460030c497f067ca4cebf71ba98eeadabe20bace016020908152604080832093909416825291909152205490565b335f908152601560205260409020544363ffffffff909116036114235760405162461bcd60e51b81526004016108209061268f565b335f908152601560205260409020805463ffffffff19164363ffffffff161790556003548111156114875760405162461bcd60e51b815260206004820152600e60248201526d13585e08131a5b5a5d0814d95b1b60921b6044820152606401610820565b5f8161149230610c0c565b61149c91906126f4565b6001546114a99084612707565b6114b3919061271e565b90505f81116114fa5760405162461bcd60e51b815260206004820152601360248201527253656c6c20616d6f756e7420746f6f206c6f7760681b6044820152606401610820565b80600154101561154c5760405162461bcd60e51b815260206004820152601c60248201527f496e73756666696369656e7420424e4220696e207265736572766573000000006044820152606401610820565b8047101561159c5760405162461bcd60e51b815260206004820152601b60248201527f496e73756666696369656e7420424e4220696e2062616c616e636500000000006044820152606401610820565b6115a7333084611784565b6103e86115b6826103c5612707565b6115c0919061271e565b60015f8282546115d0919061289c565b909155506115df9050816118bd565b6115e882611909565b6115f23383611a1d565b6115fb82611a62565b61160482611b0f565b336108fc606461161584605f612707565b61161f919061271e565b6040518115909202915f818181858888f19350505050158015611644573d5f803e3d5ffd5b50604080515f80825260208201859052918101839052606081019190915233907f49926bbebe8474393f434dfa4f78694c0923efa07d19f2284518bfabd06eb737906080016109f3565b600b818154811061138c575f80fd5b6116a5611df0565b6001600160a01b0381166116ce57604051631e4fbdf760e01b81525f6004820152602401610820565b6116d781611e4b565b50565b600b80546116ea9060019061289c565b815481106116fa576116fa612775565b5f91825260209091200154600b80546001600160a01b03909216918390811061172557611725612775565b905f5260205f20015f6101000a8154816001600160a01b0302191690836001600160a01b03160217905550600b805480611761576117616128af565b5f8281526020902081015f1990810180546001600160a01b031916905501905550565b5f805160206129fa8339815191526001600160a01b0384166117be5781816002015f8282546117b391906126f4565b9091555061182e9050565b6001600160a01b0384165f90815260208290526040902054828110156118105760405163391434e360e21b81526001600160a01b03861660048201526024810182905260448101849052606401610820565b6001600160a01b0385165f9081526020839052604090209083900390555b6001600160a01b03831661184c57600281018054839003905561186a565b6001600160a01b0383165f9081526020829052604090208054830190555b826001600160a01b0316846001600160a01b03167fddf252ad1be2c89b69c2b068fc378daa952ba7f163c4a11628f55a4df523b3ef846040516118af91815260200190565b60405180910390a350505050565b6008546001600160a01b03166108fc6103e86118da84600f612707565b6118e4919061271e565b6040518115909202915f818181858888f19350505050158015610be0573d5f803e3d5ffd5b5f6103e861191883600f612707565b611922919061271e565b600b549091505f0361194657600a54610be09030906001600160a01b031683611784565b600b545f90611955908361271e565b90505f5b600b54811015611a17575f6001600160a01b0316600b828154811061198057611980612775565b5f918252602090912001546001600160a01b031614611a0f57600e546119cb600b83815481106119b2576119b2612775565b5f918252602090912001546001600160a01b0316610c0c565b10611a0657611a0130600b83815481106119e7576119e7612775565b5f918252602090912001546001600160a01b031684611784565b611a0f565b611a0f816116da565b600101611959565b50505050565b6001600160a01b038083165f908152601060205260409020541680611a4a5750600a546001600160a01b03165b611a5d30826103e861093986600a612707565b505050565b5f6064611a70836005612707565b611a7a919061271e565b600954909150611a959030906001600160a01b031683611784565b80600f5f828254611aa691906126f4565b90915550505050565b600e54611abb82610c0c565b106116d757600b80546001810182555f919091527f0175b7a638427703f0dbe7bb9bbf987a2551717b34e79f33b5b1008d1fa01db90180546001600160a01b0383166001600160a01b031990911617905550565b5f6103e8611b1e83600a612707565b611b28919061271e565b9050600454815f54611b3a919061289c565b1015611b52576004545f54611b4f919061289c565b90505b5f81118015611b68575080611b6630610c0c565b115b15610be057610be0305f83611784565b611a5d8383836001611feb565b5f611b9084846113a5565b90505f198114611a175781811015611bd457604051637dc7a0d960e11b81526001600160a01b03841660048201526024810182905260448101839052606401610820565b611a1784848484035f611feb565b6001600160a01b038316611c0b57604051634b637e8f60e11b81525f6004820152602401610820565b6001600160a01b038216611c345760405163ec442f0560e01b81525f6004820152602401610820565b611a5d838383611784565b306001600160a01b037f0000000000000000000000000000000000000000000000000000000000000000161480611cc557507f00000000000000000000000000000000000000000000000000000000000000006001600160a01b0316611cb95f80516020612a1a833981519152546001600160a01b031690565b6001600160a01b031614155b15610ca35760405163703e46dd60e11b815260040160405180910390fd5b6116d7611df0565b816001600160a01b03166352d1902d6040518163ffffffff1660e01b8152600401602060405180830381865afa925050508015611d45575060408051601f3d908101601f19168201909252611d42918101906128c3565b60015b611d6d57604051634c9c8ce360e01b81526001600160a01b0383166004820152602401610820565b5f80516020612a1a8339815191528114611d9d57604051632a87526960e21b815260048101829052602401610820565b611a5d83836120ce565b306001600160a01b037f00000000000000000000000000000000000000000000000000000000000000001614610ca35760405163703e46dd60e11b815260040160405180910390fd5b33611e227f9016d09d72d40fdae2fd8ceac6b6234c7706214fd39c1cd1e609a0528c199300546001600160a01b031690565b6001600160a01b031614610ca35760405163118cdaa760e01b8152336004820152602401610820565b7f9016d09d72d40fdae2fd8ceac6b6234c7706214fd39c1cd1e609a0528c19930080546001600160a01b031981166001600160a01b03848116918217845560405192169182907f8be0079c531659141344cd1fd0a4f28419497f9722a3daafe3b4186f6b6457e0905f90a3505050565b611ec3612123565b610be0828261216c565b611ed5612123565b6116d7816121bc565b610ca3612123565b6001600160a01b038216611f0f5760405163ec442f0560e01b81525f6004820152602401610820565b610be05f8383611784565b6001600160a01b038181165f9081526010602052604090205416158015611f535750806001600160a01b0316826001600160a01b031614155b8015611f6857506001600160a01b0381163014155b8015611f8257506008546001600160a01b03828116911614155b8015611f9c57506009546001600160a01b03828116911614155b8015611fb65750600a546001600160a01b03828116911614155b15610be0576001600160a01b039081165f90815260106020526040902080546001600160a01b03191692909116919091179055565b5f805160206129fa8339815191526001600160a01b0385166120225760405163e602df0560e01b81525f6004820152602401610820565b6001600160a01b03841661204b57604051634a1406b160e11b81525f6004820152602401610820565b6001600160a01b038086165f90815260018301602090815260408083209388168352929052208390558115610bbe57836001600160a01b0316856001600160a01b03167f8c5be1e5ebec7d5bd14f71427d1e84f3dd0314c0f7b2291e5b200ac8c7c3b925856040516120bf91815260200190565b60405180910390a35050505050565b6120d7826121c4565b6040516001600160a01b038316907fbc7cd75a20ee27fd9adebab32041f755214dbc6bffa90cc0225b39da2e5c2d3b905f90a280511561211b57611a5d8282612227565b610be0612299565b7ff0c57e16840df040f15088dc2f81fe391c3923bec73e23a9662efc9c229c6a0054600160401b900460ff16610ca357604051631afcd79f60e31b815260040160405180910390fd5b612174612123565b5f805160206129fa8339815191527f52c63247e1f47db19d5ce0460030c497f067ca4cebf71ba98eeadabe20bace036121ad848261291e565b5060048101611a17838261291e565b6116a5612123565b806001600160a01b03163b5f036121f957604051634c9c8ce360e01b81526001600160a01b0382166004820152602401610820565b5f80516020612a1a83398151915280546001600160a01b0319166001600160a01b0392909216919091179055565b60605f80846001600160a01b03168460405161224391906129de565b5f60405180830381855af49150503d805f811461227b576040519150601f19603f3d011682016040523d82523d5f602084013e612280565b606091505b50915091506122908583836122b8565b95945050505050565b3415610ca35760405163b398979f60e01b815260040160405180910390fd5b6060826122cd576122c882612314565b610b5c565b81511580156122e457506001600160a01b0384163b155b1561230d57604051639996b31560e01b81526001600160a01b0385166004820152602401610820565b5080610b5c565b8051156123245780518082602001fd5b604051630a12f52160e11b815260040160405180910390fd5b5f5b8381101561235757818101518382015260200161233f565b50505f910152565b602081525f825180602084015261237d81604085016020870161233d565b601f01601f19169190910160400192915050565b80356001600160a01b03811681146123a7575f80fd5b919050565b5f80604083850312156123bd575f80fd5b6123c683612391565b946020939093013593505050565b80151581146116d7575f80fd5b5f80604083850312156123f2575f80fd5b823591506020830135612404816123d4565b809150509250929050565b5f805f60608486031215612421575f80fd5b61242a84612391565b925061243860208501612391565b9150604084013590509250925092565b5f8083601f840112612458575f80fd5b50813567ffffffffffffffff81111561246f575f80fd5b6020830191508360208260051b8501011115612489575f80fd5b9250929050565b5f805f80604085870312156124a3575f80fd5b843567ffffffffffffffff808211156124ba575f80fd5b6124c688838901612448565b909650945060208701359150808211156124de575f80fd5b506124eb87828801612448565b95989497509550505050565b634e487b7160e01b5f52604160045260245ffd5b5f806040838503121561251c575f80fd5b61252583612391565b9150602083013567ffffffffffffffff80821115612541575f80fd5b818501915085601f830112612554575f80fd5b813581811115612566576125666124f7565b604051601f8201601f19908116603f0116810190838211818310171561258e5761258e6124f7565b816040528281528860208487010111156125a6575f80fd5b826020860160208301375f6020848301015280955050505050509250929050565b5f602082840312156125d7575f80fd5b5035919050565b5f602082840312156125ee575f80fd5b610b5c82612391565b602080825282518282018190525f9190848201906040850190845b818110156126375783516001600160a01b031683529284019291840191600101612612565b50909695505050505050565b5f60208284031215612653575f80fd5b8135610b5c816123d4565b5f806040838503121561266f575f80fd5b61267883612391565b915061268660208401612391565b90509250929050565b60208082526031908201527f596f752063616e2774206d616b652074776f207472616e73616374696f6e7320604082015270696e207468652073616d6520626c6f636b60781b606082015260800190565b634e487b7160e01b5f52601160045260245ffd5b80820180821115610ae857610ae86126e0565b8082028115828204841417610ae857610ae86126e0565b5f8261273857634e487b7160e01b5f52601260045260245ffd5b500490565b600181811c9082168061275157607f821691505b60208210810361276f57634e487b7160e01b5f52602260045260245ffd5b50919050565b634e487b7160e01b5f52603260045260245ffd5b600181815b808511156127c357815f19048211156127a9576127a96126e0565b808516156127b657918102915b93841c939080029061278e565b509250929050565b5f826127d957506001610ae8565b816127e557505f610ae8565b816001811461122657600281036128125760ff841115612807576128076126e0565b50506001821b610ae8565b5060208310610133831016604e8410600b8410161715612835575081810a610ae8565b61283f8383612789565b805f1904821115612852576128526126e0565b029392505050565b5f610b5c60ff8416836127cb565b5f60208284031215612878575f80fd5b8151610b5c816123d4565b60ff8281168282160390811115610ae857610ae86126e0565b81810381811115610ae857610ae86126e0565b634e487b7160e01b5f52603160045260245ffd5b5f602082840312156128d3575f80fd5b5051919050565b601f821115611a5d57805f5260205f20601f840160051c810160208510156128ff5750805b601f840160051c820191505b81811015610bbe575f815560010161290b565b815167ffffffffffffffff811115612938576129386124f7565b61294c81612946845461273d565b846128da565b602080601f83116001811461297f575f84156129685750858301515b5f19600386901b1c1916600185901b1785556129d6565b5f85815260208120601f198616915b828110156129ad5788860151825594840194600190910190840161298e565b50858210156129ca57878501515f19600388901b60f8161c191681555b505060018460011b0185555b505050505050565b5f82516129ef81846020870161233d565b919091019291505056fe52c63247e1f47db19d5ce0460030c497f067ca4cebf71ba98eeadabe20bace00360894a13ba1a3210667c828492db98dca3e2076cc3735a920a3ca505d382bbca2646970667358221220ac1aa0b4b251b1f0f539e5200f7190ba72147eac779059269ad1a97215f92cab64736f6c63430008180033",
    "sourcePath": "/Users/janly/data/solidity/UUPSNew/contracts/BT2.sol",
    "compiler": {
        "name": "solc",
        "version": "0.8.24+commit.e11b9ed9"
    },
    "functionHashes": {
        "UPGRADE_INTERFACE_VERSION()": "ad3cb1cc",
        "_fireStopAmount()": "b74de591",
        "_maxSellAmount()": "7cca52fe",
        "_maxWallet()": "82247ec0",
        "_nodeLimitAmount()": "3cd691d5",
        "allowance(address,address)": "dd62ed3e",
        "approve(address,uint256)": "095ea7b3",
        "balanceOf(address)": "70a08231",
        "communityAddress(uint256)": "d0943e17",
        "communityBonus()": "dc541504",
        "communityCount(address)": "78554a4f",
        "decimals()": "313ce567",
        "ecoAddress()": "68961ecb",
        "enableMaxWallet(bool)": "ae19139e",
        "feeAddress()": "41275358",
        "getAmountOut(uint256,bool)": "11106ee2",
        "getNodeAddress()": "70dabc9e",
        "getPledgeReceiptRelation(address)": "7b49827a",
        "getReserves()": "0902f1ac",
        "initialize()": "8129fc1c",
        "lastRewardAt()": "f2e15628",
        "liquidityProvider()": "5b8bec55",
        "marketAddress()": "95623641",
        "maxWalletEnable()": "12a54b62",
        "name()": "06fdde03",
        "nodeAddress(uint256)": "e98533b8",
        "owner()": "8da5cb5b",
        "pledgeReceiptRelation(address)": "dbcdf032",
        "proxiableUUID()": "52d1902d",
        "relation(address)": "d7a05f05",
        "removeNodeAddress(uint256)": "f3e01942",
        "removePledgeReceiptRelation(address)": "c363c3ac",
        "renounceOwnership()": "715018a6",
        "sell(uint256)": "e4849b32",
        "setMaxWallet(uint256)": "5d0044ca",
        "symbol()": "95d89b41",
        "totalSupply()": "18160ddd",
        "tradeFeeAmount()": "04f60cd7",
        "transfer(address,uint256)": "a9059cbb",
        "transferBatch(address[],uint256[])": "3b3e672f",
        "transferFrom(address,address,uint256)": "23b872dd",
        "transferOwnership(address)": "f2fde38b",
        "upgradeToAndCall(address,bytes)": "4f1ef286"
    },
    "gasEstimates": {
        "creation": {
            "codeDepositCost": "2172600",
            "executionCost": "infinite",
            "totalCost": "infinite"
        },
        "external": {
            "UPGRADE_INTERFACE_VERSION()": "infinite",
            "_fireStopAmount()": "2438",
            "_maxSellAmount()": "2351",
            "_maxWallet()": "2395",
            "_nodeLimitAmount()": "2329",
            "allowance(address,address)": "infinite",
            "approve(address,uint256)": "infinite",
            "balanceOf(address)": "infinite",
            "communityAddress(uint256)": "4678",
            "communityBonus()": "2416",
            "communityCount(address)": "2660",
            "decimals()": "288",
            "ecoAddress()": "2403",
            "enableMaxWallet(bool)": "26877",
            "feeAddress()": "2404",
            "getAmountOut(uint256,bool)": "infinite",
            "getNodeAddress()": "infinite",
            "getPledgeReceiptRelation(address)": "2569",
            "getReserves()": "infinite",
            "initialize()": "infinite",
            "lastRewardAt()": "2393",
            "liquidityProvider()": "2470",
            "marketAddress()": "2381",
            "maxWalletEnable()": "2372",
            "name()": "infinite",
            "nodeAddress(uint256)": "4699",
            "owner()": "2464",
            "pledgeReceiptRelation(address)": "2616",
            "proxiableUUID()": "infinite",
            "relation(address)": "2644",
            "removeNodeAddress(uint256)": "81865",
            "removePledgeReceiptRelation(address)": "infinite",
            "renounceOwnership()": "infinite",
            "sell(uint256)": "infinite",
            "setMaxWallet(uint256)": "24564",
            "symbol()": "infinite",
            "totalSupply()": "2348",
            "tradeFeeAmount()": "2330",
            "transfer(address,uint256)": "infinite",
            "transferBatch(address[],uint256[])": "infinite",
            "transferFrom(address,address,uint256)": "infinite",
            "transferOwnership(address)": "28497",
            "upgradeToAndCall(address,bytes)": "infinite"
        },
        "internal": {
            "_authorizeUpgrade(address)": "infinite",
            "_bindRelation(address,address)": "33176",
            "_fireHandler(uint256)": "infinite",
            "_marketHandler(uint256)": "infinite",
            "_nodeAdd(address)": "52879",
            "_nodeHandler(uint256)": "infinite",
            "_relationHandler(address,uint256)": "infinite",
            "_tradeFee(uint256)": "infinite",
            "buy()": "infinite"
        }
    }
}