{
    "contractName": "BT2",
    "abi": [
        {
            "inputs": [],
            "stateMutability": "nonpayable",
            "type": "constructor"
        },
        {
            "inputs": [
                {
                    "internalType": "address",
                    "name": "target",
                    "type": "address"
                }
            ],
            "name": "AddressEmptyCode",
            "type": "error"
        },
        {
            "inputs": [
                {
                    "internalType": "address",
                    "name": "implementation",
                    "type": "address"
                }
            ],
            "name": "ERC1967InvalidImplementation",
            "type": "error"
        },
        {
            "inputs": [],
            "name": "ERC1967NonPayable",
            "type": "error"
        },
        {
            "inputs": [
                {
                    "internalType": "address",
                    "name": "spender",
                    "type": "address"
                },
                {
                    "internalType": "uint256",
                    "name": "allowance",
                    "type": "uint256"
                },
                {
                    "internalType": "uint256",
                    "name": "needed",
                    "type": "uint256"
                }
            ],
            "name": "ERC20InsufficientAllowance",
            "type": "error"
        },
        {
            "inputs": [
                {
                    "internalType": "address",
                    "name": "sender",
                    "type": "address"
                },
                {
                    "internalType": "uint256",
                    "name": "balance",
                    "type": "uint256"
                },
                {
                    "internalType": "uint256",
                    "name": "needed",
                    "type": "uint256"
                }
            ],
            "name": "ERC20InsufficientBalance",
            "type": "error"
        },
        {
            "inputs": [
                {
                    "internalType": "address",
                    "name": "approver",
                    "type": "address"
                }
            ],
            "name": "ERC20InvalidApprover",
            "type": "error"
        },
        {
            "inputs": [
                {
                    "internalType": "address",
                    "name": "receiver",
                    "type": "address"
                }
            ],
            "name": "ERC20InvalidReceiver",
            "type": "error"
        },
        {
            "inputs": [
                {
                    "internalType": "address",
                    "name": "sender",
                    "type": "address"
                }
            ],
            "name": "ERC20InvalidSender",
            "type": "error"
        },
        {
            "inputs": [
                {
                    "internalType": "address",
                    "name": "spender",
                    "type": "address"
                }
            ],
            "name": "ERC20InvalidSpender",
            "type": "error"
        },
        {
            "inputs": [],
            "name": "FailedInnerCall",
            "type": "error"
        },
        {
            "inputs": [],
            "name": "InvalidInitialization",
            "type": "error"
        },
        {
            "inputs": [],
            "name": "NotInitializing",
            "type": "error"
        },
        {
            "inputs": [
                {
                    "internalType": "address",
                    "name": "owner",
                    "type": "address"
                }
            ],
            "name": "OwnableInvalidOwner",
            "type": "error"
        },
        {
            "inputs": [
                {
                    "internalType": "address",
                    "name": "account",
                    "type": "address"
                }
            ],
            "name": "OwnableUnauthorizedAccount",
            "type": "error"
        },
        {
            "inputs": [],
            "name": "UUPSUnauthorizedCallContext",
            "type": "error"
        },
        {
            "inputs": [
                {
                    "internalType": "bytes32",
                    "name": "slot",
                    "type": "bytes32"
                }
            ],
            "name": "UUPSUnsupportedProxiableUUID",
            "type": "error"
        },
        {
            "anonymous": false,
            "inputs": [
                {
                    "indexed": false,
                    "internalType": "uint32",
                    "name": "_blockToUnlockLiquidity",
                    "type": "uint32"
                },
                {
                    "indexed": false,
                    "internalType": "uint256",
                    "name": "value",
                    "type": "uint256"
                }
            ],
            "name": "AddLiquidity",
            "type": "event"
        },
        {
            "anonymous": false,
            "inputs": [
                {
                    "indexed": true,
                    "internalType": "address",
                    "name": "owner",
                    "type": "address"
                },
                {
                    "indexed": true,
                    "internalType": "address",
                    "name": "spender",
                    "type": "address"
                },
                {
                    "indexed": false,
                    "internalType": "uint256",
                    "name": "value",
                    "type": "uint256"
                }
            ],
            "name": "Approval",
            "type": "event"
        },
        {
            "anonymous": false,
            "inputs": [
                {
                    "indexed": false,
                    "internalType": "uint64",
                    "name": "version",
                    "type": "uint64"
                }
            ],
            "name": "Initialized",
            "type": "event"
        },
        {
            "anonymous": false,
            "inputs": [
                {
                    "indexed": true,
                    "internalType": "address",
                    "name": "previousOwner",
                    "type": "address"
                },
                {
                    "indexed": true,
                    "internalType": "address",
                    "name": "newOwner",
                    "type": "address"
                }
            ],
            "name": "OwnershipTransferred",
            "type": "event"
        },
        {
            "anonymous": false,
            "inputs": [
                {
                    "indexed": true,
                    "internalType": "address",
                    "name": "sender",
                    "type": "address"
                },
                {
                    "indexed": false,
                    "internalType": "uint256",
                    "name": "value",
                    "type": "uint256"
                }
            ],
            "name": "Pledge",
            "type": "event"
        },
        {
            "anonymous": false,
            "inputs": [
                {
                    "indexed": false,
                    "internalType": "uint256",
                    "name": "value",
                    "type": "uint256"
                }
            ],
            "name": "RemoveLiquidity",
            "type": "event"
        },
        {
            "anonymous": false,
            "inputs": [
                {
                    "indexed": true,
                    "internalType": "address",
                    "name": "sender",
                    "type": "address"
                },
                {
                    "indexed": false,
                    "internalType": "uint256",
                    "name": "value",
                    "type": "uint256"
                }
            ],
            "name": "RemovePledge",
            "type": "event"
        },
        {
            "anonymous": false,
            "inputs": [
                {
                    "indexed": true,
                    "internalType": "address",
                    "name": "sender",
                    "type": "address"
                },
                {
                    "indexed": false,
                    "internalType": "uint256",
                    "name": "amount0In",
                    "type": "uint256"
                },
                {
                    "indexed": false,
                    "internalType": "uint256",
                    "name": "amount1In",
                    "type": "uint256"
                },
                {
                    "indexed": false,
                    "internalType": "uint256",
                    "name": "amount0Out",
                    "type": "uint256"
                },
                {
                    "indexed": false,
                    "internalType": "uint256",
                    "name": "amount1Out",
                    "type": "uint256"
                }
            ],
            "name": "Swap",
            "type": "event"
        },
        {
            "anonymous": false,
            "inputs": [
                {
                    "indexed": true,
                    "internalType": "address",
                    "name": "from",
                    "type": "address"
                },
                {
                    "indexed": true,
                    "internalType": "address",
                    "name": "to",
                    "type": "address"
                },
                {
                    "indexed": false,
                    "internalType": "uint256",
                    "name": "value",
                    "type": "uint256"
                }
            ],
            "name": "Transfer",
            "type": "event"
        },
        {
            "anonymous": false,
            "inputs": [
                {
                    "indexed": true,
                    "internalType": "address",
                    "name": "implementation",
                    "type": "address"
                }
            ],
            "name": "Upgraded",
            "type": "event"
        },
        {
            "inputs": [],
            "name": "UPGRADE_INTERFACE_VERSION",
            "outputs": [
                {
                    "internalType": "string",
                    "name": "",
                    "type": "string"
                }
            ],
            "stateMutability": "view",
            "type": "function"
        },
        {
            "inputs": [],
            "name": "_fireStopAmount",
            "outputs": [
                {
                    "internalType": "uint256",
                    "name": "",
                    "type": "uint256"
                }
            ],
            "stateMutability": "view",
            "type": "function"
        },
        {
            "inputs": [],
            "name": "_maxBuyAmount",
            "outputs": [
                {
                    "internalType": "uint256",
                    "name": "",
                    "type": "uint256"
                }
            ],
            "stateMutability": "view",
            "type": "function"
        },
        {
            "inputs": [],
            "name": "_maxSellAmount",
            "outputs": [
                {
                    "internalType": "uint256",
                    "name": "",
                    "type": "uint256"
                }
            ],
            "stateMutability": "view",
            "type": "function"
        },
        {
            "inputs": [
                {
                    "internalType": "address",
                    "name": "_addr",
                    "type": "address"
                }
            ],
            "name": "_nodeCheck",
            "outputs": [],
            "stateMutability": "nonpayable",
            "type": "function"
        },
        {
            "inputs": [],
            "name": "_nodeLimitAmount",
            "outputs": [
                {
                    "internalType": "uint256",
                    "name": "",
                    "type": "uint256"
                }
            ],
            "stateMutability": "view",
            "type": "function"
        },
        {
            "inputs": [
                {
                    "internalType": "address",
                    "name": "owner",
                    "type": "address"
                },
                {
                    "internalType": "address",
                    "name": "spender",
                    "type": "address"
                }
            ],
            "name": "allowance",
            "outputs": [
                {
                    "internalType": "uint256",
                    "name": "",
                    "type": "uint256"
                }
            ],
            "stateMutability": "view",
            "type": "function"
        },
        {
            "inputs": [
                {
                    "internalType": "address",
                    "name": "spender",
                    "type": "address"
                },
                {
                    "internalType": "uint256",
                    "name": "value",
                    "type": "uint256"
                }
            ],
            "name": "approve",
            "outputs": [
                {
                    "internalType": "bool",
                    "name": "",
                    "type": "bool"
                }
            ],
            "stateMutability": "nonpayable",
            "type": "function"
        },
        {
            "inputs": [
                {
                    "internalType": "address",
                    "name": "account",
                    "type": "address"
                }
            ],
            "name": "balanceOf",
            "outputs": [
                {
                    "internalType": "uint256",
                    "name": "",
                    "type": "uint256"
                }
            ],
            "stateMutability": "view",
            "type": "function"
        },
        {
            "inputs": [
                {
                    "internalType": "uint256",
                    "name": "",
                    "type": "uint256"
                }
            ],
            "name": "communityAddress",
            "outputs": [
                {
                    "internalType": "address",
                    "name": "",
                    "type": "address"
                }
            ],
            "stateMutability": "view",
            "type": "function"
        },
        {
            "inputs": [],
            "name": "communityBonus",
            "outputs": [
                {
                    "internalType": "uint256",
                    "name": "",
                    "type": "uint256"
                }
            ],
            "stateMutability": "view",
            "type": "function"
        },
        {
            "inputs": [
                {
                    "internalType": "address",
                    "name": "",
                    "type": "address"
                }
            ],
            "name": "communityCount",
            "outputs": [
                {
                    "internalType": "uint256",
                    "name": "",
                    "type": "uint256"
                }
            ],
            "stateMutability": "view",
            "type": "function"
        },
        {
            "inputs": [],
            "name": "decimals",
            "outputs": [
                {
                    "internalType": "uint8",
                    "name": "",
                    "type": "uint8"
                }
            ],
            "stateMutability": "view",
            "type": "function"
        },
        {
            "inputs": [],
            "name": "ecoAddress",
            "outputs": [
                {
                    "internalType": "address",
                    "name": "",
                    "type": "address"
                }
            ],
            "stateMutability": "view",
            "type": "function"
        },
        {
            "inputs": [],
            "name": "feeAddress",
            "outputs": [
                {
                    "internalType": "address",
                    "name": "",
                    "type": "address"
                }
            ],
            "stateMutability": "view",
            "type": "function"
        },
        {
            "inputs": [
                {
                    "internalType": "uint256",
                    "name": "value",
                    "type": "uint256"
                },
                {
                    "internalType": "bool",
                    "name": "_buy",
                    "type": "bool"
                }
            ],
            "name": "getAmountOut",
            "outputs": [
                {
                    "internalType": "uint256",
                    "name": "",
                    "type": "uint256"
                }
            ],
            "stateMutability": "view",
            "type": "function"
        },
        {
            "inputs": [],
            "name": "getNodeAddress",
            "outputs": [
                {
                    "internalType": "address[]",
                    "name": "",
                    "type": "address[]"
                }
            ],
            "stateMutability": "view",
            "type": "function"
        },
        {
            "inputs": [
                {
                    "internalType": "address",
                    "name": "addr",
                    "type": "address"
                }
            ],
            "name": "getPledgeReceiptRelation",
            "outputs": [
                {
                    "internalType": "uint256",
                    "name": "",
                    "type": "uint256"
                }
            ],
            "stateMutability": "view",
            "type": "function"
        },
        {
            "inputs": [],
            "name": "getReserves",
            "outputs": [
                {
                    "internalType": "uint256",
                    "name": "",
                    "type": "uint256"
                },
                {
                    "internalType": "uint256",
                    "name": "",
                    "type": "uint256"
                }
            ],
            "stateMutability": "view",
            "type": "function"
        },
        {
            "inputs": [],
            "name": "initialize",
            "outputs": [],
            "stateMutability": "nonpayable",
            "type": "function"
        },
        {
            "inputs": [],
            "name": "lastRewardAt",
            "outputs": [
                {
                    "internalType": "uint256",
                    "name": "",
                    "type": "uint256"
                }
            ],
            "stateMutability": "view",
            "type": "function"
        },
        {
            "inputs": [],
            "name": "liquidityProvider",
            "outputs": [
                {
                    "internalType": "address",
                    "name": "",
                    "type": "address"
                }
            ],
            "stateMutability": "view",
            "type": "function"
        },
        {
            "inputs": [],
            "name": "marketAddress",
            "outputs": [
                {
                    "internalType": "address",
                    "name": "",
                    "type": "address"
                }
            ],
            "stateMutability": "view",
            "type": "function"
        },
        {
            "inputs": [],
            "name": "maxWalletEnable",
            "outputs": [
                {
                    "internalType": "bool",
                    "name": "",
                    "type": "bool"
                }
            ],
            "stateMutability": "view",
            "type": "function"
        },
        {
            "inputs": [],
            "name": "name",
            "outputs": [
                {
                    "internalType": "string",
                    "name": "",
                    "type": "string"
                }
            ],
            "stateMutability": "view",
            "type": "function"
        },
        {
            "inputs": [
                {
                    "internalType": "uint256",
                    "name": "",
                    "type": "uint256"
                }
            ],
            "name": "nodeAddress",
            "outputs": [
                {
                    "internalType": "address",
                    "name": "",
                    "type": "address"
                }
            ],
            "stateMutability": "view",
            "type": "function"
        },
        {
            "inputs": [
                {
                    "internalType": "address",
                    "name": "",
                    "type": "address"
                }
            ],
            "name": "nodeAddressRelation",
            "outputs": [
                {
                    "internalType": "uint256",
                    "name": "",
                    "type": "uint256"
                }
            ],
            "stateMutability": "view",
            "type": "function"
        },
        {
            "inputs": [],
            "name": "owner",
            "outputs": [
                {
                    "internalType": "address",
                    "name": "",
                    "type": "address"
                }
            ],
            "stateMutability": "view",
            "type": "function"
        },
        {
            "inputs": [
                {
                    "internalType": "address",
                    "name": "",
                    "type": "address"
                }
            ],
            "name": "pledgeReceiptRelation",
            "outputs": [
                {
                    "internalType": "uint256",
                    "name": "",
                    "type": "uint256"
                }
            ],
            "stateMutability": "view",
            "type": "function"
        },
        {
            "inputs": [],
            "name": "proxiableUUID",
            "outputs": [
                {
                    "internalType": "bytes32",
                    "name": "",
                    "type": "bytes32"
                }
            ],
            "stateMutability": "view",
            "type": "function"
        },
        {
            "inputs": [
                {
                    "internalType": "address",
                    "name": "",
                    "type": "address"
                }
            ],
            "name": "relation",
            "outputs": [
                {
                    "internalType": "address",
                    "name": "",
                    "type": "address"
                }
            ],
            "stateMutability": "view",
            "type": "function"
        },
        {
            "inputs": [
                {
                    "internalType": "address",
                    "name": "addr",
                    "type": "address"
                }
            ],
            "name": "removePledgeReceiptRelation",
            "outputs": [],
            "stateMutability": "nonpayable",
            "type": "function"
        },
        {
            "inputs": [],
            "name": "renounceOwnership",
            "outputs": [],
            "stateMutability": "nonpayable",
            "type": "function"
        },
        {
            "inputs": [
                {
                    "internalType": "uint256",
                    "name": "_t",
                    "type": "uint256"
                }
            ],
            "name": "setOpenTradeAt",
            "outputs": [],
            "stateMutability": "nonpayable",
            "type": "function"
        },
        {
            "inputs": [
                {
                    "internalType": "contract ERC20Upgradeable",
                    "name": "_token",
                    "type": "address"
                }
            ],
            "name": "setZToken",
            "outputs": [],
            "stateMutability": "nonpayable",
            "type": "function"
        },
        {
            "inputs": [],
            "name": "symbol",
            "outputs": [
                {
                    "internalType": "string",
                    "name": "",
                    "type": "string"
                }
            ],
            "stateMutability": "view",
            "type": "function"
        },
        {
            "inputs": [],
            "name": "totalSupply",
            "outputs": [
                {
                    "internalType": "uint256",
                    "name": "",
                    "type": "uint256"
                }
            ],
            "stateMutability": "view",
            "type": "function"
        },
        {
            "inputs": [],
            "name": "tradeFeeAmount",
            "outputs": [
                {
                    "internalType": "uint256",
                    "name": "",
                    "type": "uint256"
                }
            ],
            "stateMutability": "view",
            "type": "function"
        },
        {
            "inputs": [
                {
                    "internalType": "address",
                    "name": "to",
                    "type": "address"
                },
                {
                    "internalType": "uint256",
                    "name": "value",
                    "type": "uint256"
                }
            ],
            "name": "transfer",
            "outputs": [
                {
                    "internalType": "bool",
                    "name": "",
                    "type": "bool"
                }
            ],
            "stateMutability": "nonpayable",
            "type": "function"
        },
        {
            "inputs": [
                {
                    "internalType": "address[]",
                    "name": "_address",
                    "type": "address[]"
                },
                {
                    "internalType": "uint256[]",
                    "name": "_amounts",
                    "type": "uint256[]"
                }
            ],
            "name": "transferBatch",
            "outputs": [],
            "stateMutability": "nonpayable",
            "type": "function"
        },
        {
            "inputs": [
                {
                    "internalType": "address",
                    "name": "from",
                    "type": "address"
                },
                {
                    "internalType": "address",
                    "name": "to",
                    "type": "address"
                },
                {
                    "internalType": "uint256",
                    "name": "value",
                    "type": "uint256"
                }
            ],
            "name": "transferFrom",
            "outputs": [
                {
                    "internalType": "bool",
                    "name": "",
                    "type": "bool"
                }
            ],
            "stateMutability": "nonpayable",
            "type": "function"
        },
        {
            "inputs": [
                {
                    "internalType": "address",
                    "name": "newOwner",
                    "type": "address"
                }
            ],
            "name": "transferOwnership",
            "outputs": [],
            "stateMutability": "nonpayable",
            "type": "function"
        },
        {
            "inputs": [
                {
                    "internalType": "address",
                    "name": "newImplementation",
                    "type": "address"
                },
                {
                    "internalType": "bytes",
                    "name": "data",
                    "type": "bytes"
                }
            ],
            "name": "upgradeToAndCall",
            "outputs": [],
            "stateMutability": "payable",
            "type": "function"
        },
        {
            "stateMutability": "payable",
            "type": "receive"
        }
    ],
    "bytecode": "60a06040523060805234801562000014575f80fd5b506200001f62000025565b620000d9565b7ff0c57e16840df040f15088dc2f81fe391c3923bec73e23a9662efc9c229c6a00805468010000000000000000900460ff1615620000765760405163f92ee8a960e01b815260040160405180910390fd5b80546001600160401b0390811614620000d65780546001600160401b0319166001600160401b0390811782556040519081527fc7f505b2f371ae2175ee4913f4499e1f2633a7b5936321eed1cdaeb6115181d29060200160405180910390a15b50565b608051612b25620001005f395f8181611ac801528181611af10152611c300152612b255ff3fe608060405260043610610257575f3560e01c8063715018a61161013f578063b28645a0116100b3578063dbcdf03211610078578063dbcdf03214610745578063dc54150414610770578063dd62ed3e14610785578063e98533b8146107a4578063f2e15628146107c3578063f2fde38b146107d8575f80fd5b8063b28645a014610693578063b74de591146106be578063c363c3ac146106d3578063d0943e17146106f2578063d7a05f0514610711575f80fd5b80638da5cb5b116101045780638da5cb5b146105b657806395623641146105f257806395d89b41146106115780639e1e171314610625578063a9059cbb14610644578063ad3cb1cc14610663575f80fd5b8063715018a61461051a57806378554a4f1461052e5780637b49827a146105595780637cca52fe1461058d5780638129fc1c146105a2575f80fd5b80633b3e672f116101d65780634f1ef2861161019b5780634f1ef2861461047557806352d1902d146104885780635b8bec551461049c57806368961ecb146104bb57806370a08231146104da57806370dabc9e146104f9575f80fd5b80633b3e672f146103cc5780633b71d549146103eb5780633b8e8b971461040a5780633cd691d514610429578063412753581461043e575f80fd5b806311106ee21161021c57806311106ee21461032057806312a54b621461033f57806318160ddd1461035f57806323b872dd14610392578063313ce567146103b1575f80fd5b80630492f0551461026a57806304f60cd71461029257806306fdde03146102a75780630902f1ac146102c8578063095ea7b3146102f1575f80fd5b36610266576102646107f7565b005b5f80fd5b348015610275575f80fd5b5061027f60025481565b6040519081526020015b60405180910390f35b34801561029d575f80fd5b5061027f60105481565b3480156102b2575f80fd5b506102bb6109de565b6040516102899190612422565b3480156102d3575f80fd5b506102dc610a9e565b60408051928352602083019190915201610289565b3480156102fc575f80fd5b5061031061030b366004612468565b610ab4565b6040519015158152602001610289565b34801561032b575f80fd5b5061027f61033a36600461249f565b610acd565b34801561034a575f80fd5b5060075461031090600160a01b900460ff1681565b34801561036a575f80fd5b507f52c63247e1f47db19d5ce0460030c497f067ca4cebf71ba98eeadabe20bace025461027f565b34801561039d575f80fd5b506103106103ac3660046124cd565b610b1d565b3480156103bc575f80fd5b5060405160128152602001610289565b3480156103d7575f80fd5b506102646103e6366004612553565b610b42565b3480156103f6575f80fd5b506102646104053660046125ba565b610ba4565b348015610415575f80fd5b506102646104243660046125d5565b610c96565b348015610434575f80fd5b5061027f600f5481565b348015610449575f80fd5b50600a5461045d906001600160a01b031681565b6040516001600160a01b039091168152602001610289565b610264610483366004612600565b610ca3565b348015610493575f80fd5b5061027f610cbe565b3480156104a7575f80fd5b5060075461045d906001600160a01b031681565b3480156104c6575f80fd5b5060095461045d906001600160a01b031681565b3480156104e5575f80fd5b5061027f6104f43660046125ba565b610cd9565b348015610504575f80fd5b5061050d610cff565b60405161028991906126be565b348015610525575f80fd5b50610264610d5f565b348015610539575f80fd5b5061027f6105483660046125ba565b60126020525f908152604090205481565b348015610564575f80fd5b5061027f6105733660046125ba565b6001600160a01b03165f9081526013602052604090205490565b348015610598575f80fd5b5061027f60035481565b3480156105ad575f80fd5b50610264610d72565b3480156105c1575f80fd5b507f9016d09d72d40fdae2fd8ceac6b6234c7706214fd39c1cd1e609a0528c199300546001600160a01b031661045d565b3480156105fd575f80fd5b5060085461045d906001600160a01b031681565b34801561061c575f80fd5b506102bb611029565b348015610630575f80fd5b5061026461063f3660046125ba565b611067565b34801561064f575f80fd5b5061031061065e366004612468565b611091565b34801561066e575f80fd5b506102bb604051806040016040528060058152602001640352e302e360dc1b81525081565b34801561069e575f80fd5b5061027f6106ad3660046125ba565b600c6020525f908152604090205481565b3480156106c9575f80fd5b5061027f60045481565b3480156106de575f80fd5b506102646106ed3660046125ba565b61135f565b3480156106fd575f80fd5b5061045d61070c3660046125d5565b61145d565b34801561071c575f80fd5b5061045d61072b3660046125ba565b60116020525f90815260409020546001600160a01b031681565b348015610750575f80fd5b5061027f61075f3660046125ba565b60136020525f908152604090205481565b34801561077b575f80fd5b5061027f600e5481565b348015610790575f80fd5b5061027f61079f36600461270a565b611485565b3480156107af575f80fd5b5061045d6107be3660046125d5565b6114ce565b3480156107ce575f80fd5b5061027f60145481565b3480156107e3575f80fd5b506102646107f23660046125ba565b6114dd565b335f908152601760205260409020544363ffffffff909116036108355760405162461bcd60e51b815260040161082c90612736565b60405180910390fd5b60165442116108735760405162461bcd60e51b815260206004820152600a6024820152691b9bdd081bdc195b995960b21b604482015260640161082c565b335f908152601760205260408120805463ffffffff19164363ffffffff161790556001543491906108a590839061279b565b6108ae30610cd9565b6108b890846127ae565b6108c291906127c5565b90506002548111156109065760405162461bcd60e51b815260206004820152600d60248201526c4d6178204c696d69742042757960981b604482015260640161082c565b6109273033606461091885605f6127ae565b61092291906127c5565b61151a565b6103e8610936836103d96127ae565b61094091906127c5565b60015f828254610950919061279b565b9091555061095f905034611653565b6109688161169f565b61097233826117da565b61097b8161181f565b61098433610ba4565b61098d8161186c565b604080513481525f60208201819052918101919091526060810182905233907f49926bbebe8474393f434dfa4f78694c0923efa07d19f2284518bfabd06eb737906080015b60405180910390a25050565b7f52c63247e1f47db19d5ce0460030c497f067ca4cebf71ba98eeadabe20bace0380546060915f80516020612ab083398151915291610a1c906127e4565b80601f0160208091040260200160405190810160405280929190818152602001828054610a48906127e4565b8015610a935780601f10610a6a57610100808354040283529160200191610a93565b820191905f5260205f20905b815481529060010190602001808311610a7657829003601f168201915b505050505091505090565b5f80600154610aac30610cd9565b915091509091565b5f33610ac18185856118d5565b60019150505b92915050565b5f805f610ad8610a9e565b915091508315610b0957610aec858361279b565b610af682876127ae565b610b0091906127c5565b92505050610ac7565b610b13858261279b565b610af683876127ae565b5f33610b2a8582856118e2565b610b3585858561193f565b60019150505b9392505050565b5f5b83811015610b9d57610b9533868684818110610b6257610b6261281c565b9050602002016020810190610b7791906125ba565b858585818110610b8957610b8961281c565b9050602002013561151a565b600101610b44565b5050505050565b6009546001600160a01b0382811691161480610bc857506001600160a01b03811630145b15610bd05750565b6001600160a01b0381165f908152600c60205260409020548015801590610c005750600f54610bfe83610cd9565b105b15610c1d57610c19610c13600183612830565b8361199c565b5050565b80158015610c355750600f54610c3283610cd9565b10155b15610c195750600b80546001810182557f0175b7a638427703f0dbe7bb9bbf987a2551717b34e79f33b5b1008d1fa01db90180546001600160a01b039093166001600160a01b031990931683179055545f918252600c602052604090912055565b610c9e611a62565b601655565b610cab611abd565b610cb482611b61565b610c198282611b69565b5f610cc7611c25565b505f80516020612ad083398151915290565b6001600160a01b03165f9081525f80516020612ab0833981519152602052604090205490565b6060600b805480602002602001604051908101604052809291908181526020018280548015610d5557602002820191905f5260205f20905b81546001600160a01b03168152600190910190602001808311610d37575b5050505050905090565b610d67611a62565b610d705f611c6e565b565b7ff0c57e16840df040f15088dc2f81fe391c3923bec73e23a9662efc9c229c6a008054600160401b810460ff16159067ffffffffffffffff165f81158015610db75750825b90505f8267ffffffffffffffff166001148015610dd35750303b155b905081158015610de1575080155b15610dff5760405163f92ee8a960e01b815260040160405180910390fd5b845467ffffffffffffffff191660011785558315610e2957845460ff60401b1916600160401b1785555b610e6b60405180604001604052806004815260200163784fc6dd60e11b81525060405180604001604052806004815260200163784fc6dd60e11b815250611cde565b610e776012600a612923565b610e8590633b0233806127ae565b5f55610e936012600a612923565b610e9f906104b06127ae565b600155610eae6012600a612923565b610ebb90629896806127ae565b600455610eca6012600a612923565b610ed7906207a1206127ae565b600f55610ee66012600a612923565b610ef29061c3506127ae565b600355610f016012600a612923565b610f0e9062030d406127ae565b600255600980546001600160a01b03199081167398a8790028c6476b740be640627a62496e5d616b17909155600880548216737a6ca6a66b7ca223ecd10ef837895f7a32e902d4179055600a805490911673bedddae2062f0b573ec72562f88da141a67b70b2179055610f8033611cf0565b610f88611d01565b610fab30610f986012600a612923565b610fa690631a39de006127ae565b611d09565b600954610fd5906001600160a01b0316610fc76012600a612923565b610fa6906320c855806127ae565b63664995606016558315610b9d57845460ff60401b19168555604051600181527fc7f505b2f371ae2175ee4913f4499e1f2633a7b5936321eed1cdaeb6115181d29060200160405180910390a15050505050565b7f52c63247e1f47db19d5ce0460030c497f067ca4cebf71ba98eeadabe20bace0480546060915f80516020612ab083398151915291610a1c906127e4565b61106f611a62565b601580546001600160a01b0319166001600160a01b0392909216919091179055565b5f33306001600160a01b038516036110b1576110ac83611d3d565b611356565b6015546001600160a01b03908116908516036112cc576110d36012600a612923565b6110df906175306127ae565b83148061110357506110f36012600a612923565b61110090620186a06127ae565b83145b8061112557506111156012600a612923565b61112290620493e06127ae565b83145b8061114757506111376012600a612923565b611144906207a1206127ae565b83145b6111845760405162461bcd60e51b815260206004820152600e60248201526d33772f3130772f3330772f35307760901b604482015260640161082c565b6001600160a01b0381165f90815260136020526040902054156111db5760405162461bcd60e51b815260206004820152600f60248201526e105b1c9958591e481c1b195919d959608a1b604482015260640161082c565b6111e681858561193f565b6001600160a01b038082165f9081526013602052604090208490556015541663a9059cbb82611217611388876127c5565b6040516001600160e01b031960e085901b1681526001600160a01b03909216600483015260248201526044016020604051808303815f875af115801561125f573d5f803e3d5ffd5b505050506040513d601f19601f820116820180604052508101906112839190612931565b50806001600160a01b03167f5e91ea8ea1c46300eb761859be01d7b16d44389ef91e03a163a87413cbf55b95846040516112bf91815260200190565b60405180910390a2611356565b5f6112d96006601261294c565b6112e490600a612923565b6112ef9060016127ae565b90506112fa82610cd9565b8403611336578061130a83610cd9565b111561132b578061131a83610cd9565b6113249190612830565b9350611336565b600192505050610ac7565b61134182868661151a565b61134b8286611fdd565b61135485610ba4565b505b610ac181610ba4565b6015546001600160a01b031633146113a95760405162461bcd60e51b815260206004820152600d60248201526c2737903832b936b4b9b9b4b7b760991b604482015260640161082c565b6001600160a01b0381165f90815260136020526040902054806113fa5760405162461bcd60e51b81526020600482015260096024820152686e6f20706c6564676560b81b604482015260640161082c565b601554611411906001600160a01b0316838361193f565b6001600160a01b0382165f8181526013602052604080822091909155517f7c1499da310db315606891cff45c8999e67bc58b9fa507440dd5c02506d64de0906109d29084815260200190565b600d818154811061146c575f80fd5b5f918252602090912001546001600160a01b0316905081565b6001600160a01b039182165f9081527f52c63247e1f47db19d5ce0460030c497f067ca4cebf71ba98eeadabe20bace016020908152604080832093909416825291909152205490565b600b818154811061146c575f80fd5b6114e5611a62565b6001600160a01b03811661150e57604051631e4fbdf760e01b81525f600482015260240161082c565b61151781611c6e565b50565b5f80516020612ab08339815191526001600160a01b0384166115545781816002015f828254611549919061279b565b909155506115c49050565b6001600160a01b0384165f90815260208290526040902054828110156115a65760405163391434e360e21b81526001600160a01b0386166004820152602481018290526044810184905260640161082c565b6001600160a01b0385165f9081526020839052604090209083900390555b6001600160a01b0383166115e2576002810180548390039055611600565b6001600160a01b0383165f9081526020829052604090208054830190555b826001600160a01b0316846001600160a01b03167fddf252ad1be2c89b69c2b068fc378daa952ba7f163c4a11628f55a4df523b3ef8460405161164591815260200190565b60405180910390a350505050565b6008546001600160a01b03166108fc6103e861167084600f6127ae565b61167a91906127c5565b6040518115909202915f818181858888f19350505050158015610c19573d5f803e3d5ffd5b5f6103e86116ae83600f6127ae565b6116b891906127c5565b600b549091505f036116dc57600a54610c199030906001600160a01b03168361151a565b600b545f906116eb90836127c5565b90505f5b600b548110156117d4575f6001600160a01b0316600b82815481106117165761171661281c565b5f918252602090912001546001600160a01b0316146117cc57600f54611761600b83815481106117485761174861281c565b5f918252602090912001546001600160a01b0316610cd9565b1061179c5761179730600b838154811061177d5761177d61281c565b5f918252602090912001546001600160a01b03168461151a565b6117cc565b6117cc81600b83815481106117b3576117b361281c565b5f918252602090912001546001600160a01b031661199c565b6001016116ef565b50505050565b6001600160a01b038083165f9081526011602052604090205416806118075750600a546001600160a01b03165b61181a30826103e861091886600a6127ae565b505050565b5f606461182d8360056127ae565b61183791906127c5565b6009549091506118529030906001600160a01b03168361151a565b8060105f828254611863919061279b565b90915550505050565b5f6103e861187b83600a6127ae565b61188591906127c5565b9050600454815f546118979190612830565b10156118af576004545f546118ac9190612830565b90505b5f811180156118c55750806118c330610cd9565b115b15610c1957610c19305f8361151a565b61181a83838360016120ae565b5f6118ed8484611485565b90505f1981146117d4578181101561193157604051637dc7a0d960e11b81526001600160a01b0384166004820152602481018290526044810183905260640161082c565b6117d484848484035f6120ae565b6001600160a01b03831661196857604051634b637e8f60e11b81525f600482015260240161082c565b6001600160a01b0382166119915760405163ec442f0560e01b81525f600482015260240161082c565b61181a83838361151a565b600b80546119ac90600190612830565b815481106119bc576119bc61281c565b5f91825260209091200154600b80546001600160a01b0390921691849081106119e7576119e761281c565b905f5260205f20015f6101000a8154816001600160a01b0302191690836001600160a01b03160217905550600b805480611a2357611a23612965565b5f828152602080822083015f1990810180546001600160a01b03191690559092019092556001600160a01b03929092168152600c909152604081205550565b33611a947f9016d09d72d40fdae2fd8ceac6b6234c7706214fd39c1cd1e609a0528c199300546001600160a01b031690565b6001600160a01b031614610d705760405163118cdaa760e01b815233600482015260240161082c565b306001600160a01b037f0000000000000000000000000000000000000000000000000000000000000000161480611b4357507f00000000000000000000000000000000000000000000000000000000000000006001600160a01b0316611b375f80516020612ad0833981519152546001600160a01b031690565b6001600160a01b031614155b15610d705760405163703e46dd60e11b815260040160405180910390fd5b611517611a62565b816001600160a01b03166352d1902d6040518163ffffffff1660e01b8152600401602060405180830381865afa925050508015611bc3575060408051601f3d908101601f19168201909252611bc091810190612979565b60015b611beb57604051634c9c8ce360e01b81526001600160a01b038316600482015260240161082c565b5f80516020612ad08339815191528114611c1b57604051632a87526960e21b81526004810182905260240161082c565b61181a8383612191565b306001600160a01b037f00000000000000000000000000000000000000000000000000000000000000001614610d705760405163703e46dd60e11b815260040160405180910390fd5b7f9016d09d72d40fdae2fd8ceac6b6234c7706214fd39c1cd1e609a0528c19930080546001600160a01b031981166001600160a01b03848116918217845560405192169182907f8be0079c531659141344cd1fd0a4f28419497f9722a3daafe3b4186f6b6457e0905f90a3505050565b611ce66121e6565b610c19828261222f565b611cf86121e6565b6115178161227f565b610d706121e6565b6001600160a01b038216611d325760405163ec442f0560e01b81525f600482015260240161082c565b610c195f838361151a565b335f908152601760205260409020544363ffffffff90911603611d725760405162461bcd60e51b815260040161082c90612736565b335f908152601760205260409020805463ffffffff19164363ffffffff16179055600354811115611dd65760405162461bcd60e51b815260206004820152600e60248201526d13585e08131a5b5a5d0814d95b1b60921b604482015260640161082c565b5f81611de130610cd9565b611deb919061279b565b600154611df890846127ae565b611e0291906127c5565b90505f8111611e495760405162461bcd60e51b815260206004820152601360248201527253656c6c20616d6f756e7420746f6f206c6f7760681b604482015260640161082c565b806001541015611e9b5760405162461bcd60e51b815260206004820152601c60248201527f496e73756666696369656e7420424e4220696e20726573657276657300000000604482015260640161082c565b80471015611eeb5760405162461bcd60e51b815260206004820152601b60248201527f496e73756666696369656e7420424e4220696e2062616c616e63650000000000604482015260640161082c565b611ef633308461151a565b6103e8611f05826103c56127ae565b611f0f91906127c5565b60015f828254611f1f9190612830565b90915550611f2e905081611653565b611f378261169f565b611f4133836117da565b611f4a8261181f565b611f538261186c565b336108fc6064611f6484605f6127ae565b611f6e91906127c5565b6040518115909202915f818181858888f19350505050158015611f93573d5f803e3d5ffd5b50604080515f80825260208201859052918101839052606081019190915233907f49926bbebe8474393f434dfa4f78694c0923efa07d19f2284518bfabd06eb737906080016109d2565b6001600160a01b038181165f90815260116020526040902054161580156120165750806001600160a01b0316826001600160a01b031614155b801561202b57506001600160a01b0381163014155b801561204557506008546001600160a01b03828116911614155b801561205f57506009546001600160a01b03828116911614155b80156120795750600a546001600160a01b03828116911614155b15610c19576001600160a01b039081165f90815260116020526040902080546001600160a01b03191692909116919091179055565b5f80516020612ab08339815191526001600160a01b0385166120e55760405163e602df0560e01b81525f600482015260240161082c565b6001600160a01b03841661210e57604051634a1406b160e11b81525f600482015260240161082c565b6001600160a01b038086165f90815260018301602090815260408083209388168352929052208390558115610b9d57836001600160a01b0316856001600160a01b03167f8c5be1e5ebec7d5bd14f71427d1e84f3dd0314c0f7b2291e5b200ac8c7c3b9258560405161218291815260200190565b60405180910390a35050505050565b61219a82612287565b6040516001600160a01b038316907fbc7cd75a20ee27fd9adebab32041f755214dbc6bffa90cc0225b39da2e5c2d3b905f90a28051156121de5761181a82826122ea565b610c1961235c565b7ff0c57e16840df040f15088dc2f81fe391c3923bec73e23a9662efc9c229c6a0054600160401b900460ff16610d7057604051631afcd79f60e31b815260040160405180910390fd5b6122376121e6565b5f80516020612ab08339815191527f52c63247e1f47db19d5ce0460030c497f067ca4cebf71ba98eeadabe20bace0361227084826129d4565b50600481016117d483826129d4565b6114e56121e6565b806001600160a01b03163b5f036122bc57604051634c9c8ce360e01b81526001600160a01b038216600482015260240161082c565b5f80516020612ad083398151915280546001600160a01b0319166001600160a01b0392909216919091179055565b60605f80846001600160a01b0316846040516123069190612a94565b5f60405180830381855af49150503d805f811461233e576040519150601f19603f3d011682016040523d82523d5f602084013e612343565b606091505b509150915061235385838361237b565b95945050505050565b3415610d705760405163b398979f60e01b815260040160405180910390fd5b6060826123905761238b826123d7565b610b3b565b81511580156123a757506001600160a01b0384163b155b156123d057604051639996b31560e01b81526001600160a01b038516600482015260240161082c565b5080610b3b565b8051156123e75780518082602001fd5b604051630a12f52160e11b815260040160405180910390fd5b5f5b8381101561241a578181015183820152602001612402565b50505f910152565b602081525f8251806020840152612440816040850160208701612400565b601f01601f19169190910160400192915050565b6001600160a01b0381168114611517575f80fd5b5f8060408385031215612479575f80fd5b823561248481612454565b946020939093013593505050565b8015158114611517575f80fd5b5f80604083850312156124b0575f80fd5b8235915060208301356124c281612492565b809150509250929050565b5f805f606084860312156124df575f80fd5b83356124ea81612454565b925060208401356124fa81612454565b929592945050506040919091013590565b5f8083601f84011261251b575f80fd5b50813567ffffffffffffffff811115612532575f80fd5b6020830191508360208260051b850101111561254c575f80fd5b9250929050565b5f805f8060408587031215612566575f80fd5b843567ffffffffffffffff8082111561257d575f80fd5b6125898883890161250b565b909650945060208701359150808211156125a1575f80fd5b506125ae8782880161250b565b95989497509550505050565b5f602082840312156125ca575f80fd5b8135610b3b81612454565b5f602082840312156125e5575f80fd5b5035919050565b634e487b7160e01b5f52604160045260245ffd5b5f8060408385031215612611575f80fd5b823561261c81612454565b9150602083013567ffffffffffffffff80821115612638575f80fd5b818501915085601f83011261264b575f80fd5b81358181111561265d5761265d6125ec565b604051601f8201601f19908116603f01168101908382118183101715612685576126856125ec565b8160405282815288602084870101111561269d575f80fd5b826020860160208301375f6020848301015280955050505050509250929050565b602080825282518282018190525f9190848201906040850190845b818110156126fe5783516001600160a01b0316835292840192918401916001016126d9565b50909695505050505050565b5f806040838503121561271b575f80fd5b823561272681612454565b915060208301356124c281612454565b60208082526031908201527f596f752063616e2774206d616b652074776f207472616e73616374696f6e7320604082015270696e207468652073616d6520626c6f636b60781b606082015260800190565b634e487b7160e01b5f52601160045260245ffd5b80820180821115610ac757610ac7612787565b8082028115828204841417610ac757610ac7612787565b5f826127df57634e487b7160e01b5f52601260045260245ffd5b500490565b600181811c908216806127f857607f821691505b60208210810361281657634e487b7160e01b5f52602260045260245ffd5b50919050565b634e487b7160e01b5f52603260045260245ffd5b81810381811115610ac757610ac7612787565b600181815b8085111561287d57815f190482111561286357612863612787565b8085161561287057918102915b93841c9390800290612848565b509250929050565b5f8261289357506001610ac7565b8161289f57505f610ac7565b81600181146128b557600281146128bf576128db565b6001915050610ac7565b60ff8411156128d0576128d0612787565b50506001821b610ac7565b5060208310610133831016604e8410600b84101617156128fe575081810a610ac7565b6129088383612843565b805f190482111561291b5761291b612787565b029392505050565b5f610b3b60ff841683612885565b5f60208284031215612941575f80fd5b8151610b3b81612492565b60ff8281168282160390811115610ac757610ac7612787565b634e487b7160e01b5f52603160045260245ffd5b5f60208284031215612989575f80fd5b5051919050565b601f82111561181a57805f5260205f20601f840160051c810160208510156129b55750805b601f840160051c820191505b81811015610b9d575f81556001016129c1565b815167ffffffffffffffff8111156129ee576129ee6125ec565b612a02816129fc84546127e4565b84612990565b602080601f831160018114612a35575f8415612a1e5750858301515b5f19600386901b1c1916600185901b178555612a8c565b5f85815260208120601f198616915b82811015612a6357888601518255948401946001909101908401612a44565b5085821015612a8057878501515f19600388901b60f8161c191681555b505060018460011b0185555b505050505050565b5f8251612aa5818460208701612400565b919091019291505056fe52c63247e1f47db19d5ce0460030c497f067ca4cebf71ba98eeadabe20bace00360894a13ba1a3210667c828492db98dca3e2076cc3735a920a3ca505d382bbca26469706673582212209999da8216b3a4329c18d3087d671bc77596ad09116a699d31d5508c194eb31164736f6c63430008180033",
    "sourcePath": "/Users/janly/data/solidity/UUPSNew/contracts/BT2.sol",
    "compiler": {
        "name": "solc",
        "version": "0.8.24+commit.e11b9ed9"
    },
    "functionHashes": {
        "UPGRADE_INTERFACE_VERSION()": "ad3cb1cc",
        "_fireStopAmount()": "b74de591",
        "_maxBuyAmount()": "0492f055",
        "_maxSellAmount()": "7cca52fe",
        "_nodeCheck(address)": "3b71d549",
        "_nodeLimitAmount()": "3cd691d5",
        "allowance(address,address)": "dd62ed3e",
        "approve(address,uint256)": "095ea7b3",
        "balanceOf(address)": "70a08231",
        "communityAddress(uint256)": "d0943e17",
        "communityBonus()": "dc541504",
        "communityCount(address)": "78554a4f",
        "decimals()": "313ce567",
        "ecoAddress()": "68961ecb",
        "feeAddress()": "41275358",
        "getAmountOut(uint256,bool)": "11106ee2",
        "getNodeAddress()": "70dabc9e",
        "getPledgeReceiptRelation(address)": "7b49827a",
        "getReserves()": "0902f1ac",
        "initialize()": "8129fc1c",
        "lastRewardAt()": "f2e15628",
        "liquidityProvider()": "5b8bec55",
        "marketAddress()": "95623641",
        "maxWalletEnable()": "12a54b62",
        "name()": "06fdde03",
        "nodeAddress(uint256)": "e98533b8",
        "nodeAddressRelation(address)": "b28645a0",
        "owner()": "8da5cb5b",
        "pledgeReceiptRelation(address)": "dbcdf032",
        "proxiableUUID()": "52d1902d",
        "relation(address)": "d7a05f05",
        "removePledgeReceiptRelation(address)": "c363c3ac",
        "renounceOwnership()": "715018a6",
        "setOpenTradeAt(uint256)": "3b8e8b97",
        "setZToken(address)": "9e1e1713",
        "symbol()": "95d89b41",
        "totalSupply()": "18160ddd",
        "tradeFeeAmount()": "04f60cd7",
        "transfer(address,uint256)": "a9059cbb",
        "transferBatch(address[],uint256[])": "3b3e672f",
        "transferFrom(address,address,uint256)": "23b872dd",
        "transferOwnership(address)": "f2fde38b",
        "upgradeToAndCall(address,bytes)": "4f1ef286"
    },
    "gasEstimates": {
        "creation": {
            "codeDepositCost": "2209000",
            "executionCost": "infinite",
            "totalCost": "infinite"
        },
        "external": {
            "UPGRADE_INTERFACE_VERSION()": "infinite",
            "_fireStopAmount()": "2350",
            "_maxBuyAmount()": "2330",
            "_maxSellAmount()": "2395",
            "_nodeCheck(address)": "infinite",
            "_nodeLimitAmount()": "2395",
            "allowance(address,address)": "infinite",
            "approve(address,uint256)": "infinite",
            "balanceOf(address)": "infinite",
            "communityAddress(uint256)": "4722",
            "communityBonus()": "2349",
            "communityCount(address)": "2567",
            "decimals()": "310",
            "ecoAddress()": "2447",
            "feeAddress()": "2470",
            "getAmountOut(uint256,bool)": "infinite",
            "getNodeAddress()": "infinite",
            "getPledgeReceiptRelation(address)": "2607",
            "getReserves()": "infinite",
            "initialize()": "infinite",
            "lastRewardAt()": "2415",
            "liquidityProvider()": "2425",
            "marketAddress()": "2403",
            "maxWalletEnable()": "2394",
            "name()": "infinite",
            "nodeAddress(uint256)": "4721",
            "nodeAddressRelation(address)": "2544",
            "owner()": "2375",
            "pledgeReceiptRelation(address)": "2543",
            "proxiableUUID()": "infinite",
            "relation(address)": "2682",
            "removePledgeReceiptRelation(address)": "infinite",
            "renounceOwnership()": "infinite",
            "setOpenTradeAt(uint256)": "24609",
            "setZToken(address)": "26871",
            "symbol()": "infinite",
            "totalSupply()": "2370",
            "tradeFeeAmount()": "2352",
            "transfer(address,uint256)": "infinite",
            "transferBatch(address[],uint256[])": "infinite",
            "transferFrom(address,address,uint256)": "infinite",
            "transferOwnership(address)": "infinite",
            "upgradeToAndCall(address,bytes)": "infinite"
        },
        "internal": {
            "_authorizeUpgrade(address)": "infinite",
            "_bindRelation(address,address)": "33176",
            "_fireHandler(uint256)": "infinite",
            "_marketHandler(uint256)": "infinite",
            "_nodeHandler(uint256)": "infinite",
            "_relationHandler(address,uint256)": "infinite",
            "_tradeFee(uint256)": "infinite",
            "buy()": "infinite",
            "removeNodeAddress(uint256,address)": "86612",
            "sell(uint256)": "infinite"
        }
    }
}