{
    "contractName": "BT2",
    "abi": [
        {
            "inputs": [],
            "stateMutability": "nonpayable",
            "type": "constructor"
        },
        {
            "inputs": [
                {
                    "internalType": "address",
                    "name": "target",
                    "type": "address"
                }
            ],
            "name": "AddressEmptyCode",
            "type": "error"
        },
        {
            "inputs": [],
            "name": "ECDSAInvalidSignature",
            "type": "error"
        },
        {
            "inputs": [
                {
                    "internalType": "uint256",
                    "name": "length",
                    "type": "uint256"
                }
            ],
            "name": "ECDSAInvalidSignatureLength",
            "type": "error"
        },
        {
            "inputs": [
                {
                    "internalType": "bytes32",
                    "name": "s",
                    "type": "bytes32"
                }
            ],
            "name": "ECDSAInvalidSignatureS",
            "type": "error"
        },
        {
            "inputs": [
                {
                    "internalType": "address",
                    "name": "implementation",
                    "type": "address"
                }
            ],
            "name": "ERC1967InvalidImplementation",
            "type": "error"
        },
        {
            "inputs": [],
            "name": "ERC1967NonPayable",
            "type": "error"
        },
        {
            "inputs": [
                {
                    "internalType": "address",
                    "name": "spender",
                    "type": "address"
                },
                {
                    "internalType": "uint256",
                    "name": "allowance",
                    "type": "uint256"
                },
                {
                    "internalType": "uint256",
                    "name": "needed",
                    "type": "uint256"
                }
            ],
            "name": "ERC20InsufficientAllowance",
            "type": "error"
        },
        {
            "inputs": [
                {
                    "internalType": "address",
                    "name": "sender",
                    "type": "address"
                },
                {
                    "internalType": "uint256",
                    "name": "balance",
                    "type": "uint256"
                },
                {
                    "internalType": "uint256",
                    "name": "needed",
                    "type": "uint256"
                }
            ],
            "name": "ERC20InsufficientBalance",
            "type": "error"
        },
        {
            "inputs": [
                {
                    "internalType": "address",
                    "name": "approver",
                    "type": "address"
                }
            ],
            "name": "ERC20InvalidApprover",
            "type": "error"
        },
        {
            "inputs": [
                {
                    "internalType": "address",
                    "name": "receiver",
                    "type": "address"
                }
            ],
            "name": "ERC20InvalidReceiver",
            "type": "error"
        },
        {
            "inputs": [
                {
                    "internalType": "address",
                    "name": "sender",
                    "type": "address"
                }
            ],
            "name": "ERC20InvalidSender",
            "type": "error"
        },
        {
            "inputs": [
                {
                    "internalType": "address",
                    "name": "spender",
                    "type": "address"
                }
            ],
            "name": "ERC20InvalidSpender",
            "type": "error"
        },
        {
            "inputs": [
                {
                    "internalType": "uint256",
                    "name": "deadline",
                    "type": "uint256"
                }
            ],
            "name": "ERC2612ExpiredSignature",
            "type": "error"
        },
        {
            "inputs": [
                {
                    "internalType": "address",
                    "name": "signer",
                    "type": "address"
                },
                {
                    "internalType": "address",
                    "name": "owner",
                    "type": "address"
                }
            ],
            "name": "ERC2612InvalidSigner",
            "type": "error"
        },
        {
            "inputs": [],
            "name": "FailedInnerCall",
            "type": "error"
        },
        {
            "inputs": [
                {
                    "internalType": "address",
                    "name": "account",
                    "type": "address"
                },
                {
                    "internalType": "uint256",
                    "name": "currentNonce",
                    "type": "uint256"
                }
            ],
            "name": "InvalidAccountNonce",
            "type": "error"
        },
        {
            "inputs": [],
            "name": "InvalidInitialization",
            "type": "error"
        },
        {
            "inputs": [],
            "name": "NotInitializing",
            "type": "error"
        },
        {
            "inputs": [
                {
                    "internalType": "address",
                    "name": "owner",
                    "type": "address"
                }
            ],
            "name": "OwnableInvalidOwner",
            "type": "error"
        },
        {
            "inputs": [
                {
                    "internalType": "address",
                    "name": "account",
                    "type": "address"
                }
            ],
            "name": "OwnableUnauthorizedAccount",
            "type": "error"
        },
        {
            "inputs": [],
            "name": "UUPSUnauthorizedCallContext",
            "type": "error"
        },
        {
            "inputs": [
                {
                    "internalType": "bytes32",
                    "name": "slot",
                    "type": "bytes32"
                }
            ],
            "name": "UUPSUnsupportedProxiableUUID",
            "type": "error"
        },
        {
            "anonymous": false,
            "inputs": [
                {
                    "indexed": false,
                    "internalType": "uint32",
                    "name": "_blockToUnlockLiquidity",
                    "type": "uint32"
                },
                {
                    "indexed": false,
                    "internalType": "uint256",
                    "name": "value",
                    "type": "uint256"
                }
            ],
            "name": "AddLiquidity",
            "type": "event"
        },
        {
            "anonymous": false,
            "inputs": [
                {
                    "indexed": true,
                    "internalType": "address",
                    "name": "owner",
                    "type": "address"
                },
                {
                    "indexed": true,
                    "internalType": "address",
                    "name": "spender",
                    "type": "address"
                },
                {
                    "indexed": false,
                    "internalType": "uint256",
                    "name": "value",
                    "type": "uint256"
                }
            ],
            "name": "Approval",
            "type": "event"
        },
        {
            "anonymous": false,
            "inputs": [],
            "name": "EIP712DomainChanged",
            "type": "event"
        },
        {
            "anonymous": false,
            "inputs": [
                {
                    "indexed": false,
                    "internalType": "uint64",
                    "name": "version",
                    "type": "uint64"
                }
            ],
            "name": "Initialized",
            "type": "event"
        },
        {
            "anonymous": false,
            "inputs": [
                {
                    "indexed": true,
                    "internalType": "address",
                    "name": "previousOwner",
                    "type": "address"
                },
                {
                    "indexed": true,
                    "internalType": "address",
                    "name": "newOwner",
                    "type": "address"
                }
            ],
            "name": "OwnershipTransferred",
            "type": "event"
        },
        {
            "anonymous": false,
            "inputs": [
                {
                    "indexed": false,
                    "internalType": "uint256",
                    "name": "value",
                    "type": "uint256"
                }
            ],
            "name": "RemoveLiquidity",
            "type": "event"
        },
        {
            "anonymous": false,
            "inputs": [
                {
                    "indexed": true,
                    "internalType": "address",
                    "name": "sender",
                    "type": "address"
                },
                {
                    "indexed": false,
                    "internalType": "uint256",
                    "name": "amount0In",
                    "type": "uint256"
                },
                {
                    "indexed": false,
                    "internalType": "uint256",
                    "name": "amount1In",
                    "type": "uint256"
                },
                {
                    "indexed": false,
                    "internalType": "uint256",
                    "name": "amount0Out",
                    "type": "uint256"
                },
                {
                    "indexed": false,
                    "internalType": "uint256",
                    "name": "amount1Out",
                    "type": "uint256"
                }
            ],
            "name": "Swap",
            "type": "event"
        },
        {
            "anonymous": false,
            "inputs": [
                {
                    "indexed": true,
                    "internalType": "address",
                    "name": "from",
                    "type": "address"
                },
                {
                    "indexed": true,
                    "internalType": "address",
                    "name": "to",
                    "type": "address"
                },
                {
                    "indexed": false,
                    "internalType": "uint256",
                    "name": "value",
                    "type": "uint256"
                }
            ],
            "name": "Transfer",
            "type": "event"
        },
        {
            "anonymous": false,
            "inputs": [
                {
                    "indexed": true,
                    "internalType": "address",
                    "name": "implementation",
                    "type": "address"
                }
            ],
            "name": "Upgraded",
            "type": "event"
        },
        {
            "inputs": [],
            "name": "DOMAIN_SEPARATOR",
            "outputs": [
                {
                    "internalType": "bytes32",
                    "name": "",
                    "type": "bytes32"
                }
            ],
            "stateMutability": "view",
            "type": "function"
        },
        {
            "inputs": [],
            "name": "UPGRADE_INTERFACE_VERSION",
            "outputs": [
                {
                    "internalType": "string",
                    "name": "",
                    "type": "string"
                }
            ],
            "stateMutability": "view",
            "type": "function"
        },
        {
            "inputs": [],
            "name": "_fireStopAmount",
            "outputs": [
                {
                    "internalType": "uint256",
                    "name": "",
                    "type": "uint256"
                }
            ],
            "stateMutability": "view",
            "type": "function"
        },
        {
            "inputs": [],
            "name": "_maxSellAmount",
            "outputs": [
                {
                    "internalType": "uint256",
                    "name": "",
                    "type": "uint256"
                }
            ],
            "stateMutability": "view",
            "type": "function"
        },
        {
            "inputs": [],
            "name": "_maxWallet",
            "outputs": [
                {
                    "internalType": "uint256",
                    "name": "",
                    "type": "uint256"
                }
            ],
            "stateMutability": "view",
            "type": "function"
        },
        {
            "inputs": [],
            "name": "_nodeLimitAmount",
            "outputs": [
                {
                    "internalType": "uint256",
                    "name": "",
                    "type": "uint256"
                }
            ],
            "stateMutability": "view",
            "type": "function"
        },
        {
            "inputs": [
                {
                    "internalType": "address",
                    "name": "owner",
                    "type": "address"
                },
                {
                    "internalType": "address",
                    "name": "spender",
                    "type": "address"
                }
            ],
            "name": "allowance",
            "outputs": [
                {
                    "internalType": "uint256",
                    "name": "",
                    "type": "uint256"
                }
            ],
            "stateMutability": "view",
            "type": "function"
        },
        {
            "inputs": [
                {
                    "internalType": "address",
                    "name": "spender",
                    "type": "address"
                },
                {
                    "internalType": "uint256",
                    "name": "value",
                    "type": "uint256"
                }
            ],
            "name": "approve",
            "outputs": [
                {
                    "internalType": "bool",
                    "name": "",
                    "type": "bool"
                }
            ],
            "stateMutability": "nonpayable",
            "type": "function"
        },
        {
            "inputs": [
                {
                    "internalType": "address",
                    "name": "account",
                    "type": "address"
                }
            ],
            "name": "balanceOf",
            "outputs": [
                {
                    "internalType": "uint256",
                    "name": "",
                    "type": "uint256"
                }
            ],
            "stateMutability": "view",
            "type": "function"
        },
        {
            "inputs": [
                {
                    "internalType": "uint256",
                    "name": "",
                    "type": "uint256"
                }
            ],
            "name": "communityAddress",
            "outputs": [
                {
                    "internalType": "address",
                    "name": "",
                    "type": "address"
                }
            ],
            "stateMutability": "view",
            "type": "function"
        },
        {
            "inputs": [],
            "name": "communityBonus",
            "outputs": [
                {
                    "internalType": "uint256",
                    "name": "",
                    "type": "uint256"
                }
            ],
            "stateMutability": "view",
            "type": "function"
        },
        {
            "inputs": [
                {
                    "internalType": "address",
                    "name": "",
                    "type": "address"
                }
            ],
            "name": "communityCount",
            "outputs": [
                {
                    "internalType": "uint256",
                    "name": "",
                    "type": "uint256"
                }
            ],
            "stateMutability": "view",
            "type": "function"
        },
        {
            "inputs": [],
            "name": "decimals",
            "outputs": [
                {
                    "internalType": "uint8",
                    "name": "",
                    "type": "uint8"
                }
            ],
            "stateMutability": "view",
            "type": "function"
        },
        {
            "inputs": [],
            "name": "ecoAddress",
            "outputs": [
                {
                    "internalType": "address",
                    "name": "",
                    "type": "address"
                }
            ],
            "stateMutability": "view",
            "type": "function"
        },
        {
            "inputs": [],
            "name": "eip712Domain",
            "outputs": [
                {
                    "internalType": "bytes1",
                    "name": "fields",
                    "type": "bytes1"
                },
                {
                    "internalType": "string",
                    "name": "name",
                    "type": "string"
                },
                {
                    "internalType": "string",
                    "name": "version",
                    "type": "string"
                },
                {
                    "internalType": "uint256",
                    "name": "chainId",
                    "type": "uint256"
                },
                {
                    "internalType": "address",
                    "name": "verifyingContract",
                    "type": "address"
                },
                {
                    "internalType": "bytes32",
                    "name": "salt",
                    "type": "bytes32"
                },
                {
                    "internalType": "uint256[]",
                    "name": "extensions",
                    "type": "uint256[]"
                }
            ],
            "stateMutability": "view",
            "type": "function"
        },
        {
            "inputs": [
                {
                    "internalType": "bool",
                    "name": "_maxWalletEnable",
                    "type": "bool"
                }
            ],
            "name": "enableMaxWallet",
            "outputs": [],
            "stateMutability": "nonpayable",
            "type": "function"
        },
        {
            "inputs": [],
            "name": "feeAddress",
            "outputs": [
                {
                    "internalType": "address",
                    "name": "",
                    "type": "address"
                }
            ],
            "stateMutability": "view",
            "type": "function"
        },
        {
            "inputs": [
                {
                    "internalType": "uint256",
                    "name": "value",
                    "type": "uint256"
                },
                {
                    "internalType": "bool",
                    "name": "_buy",
                    "type": "bool"
                }
            ],
            "name": "getAmountOut",
            "outputs": [
                {
                    "internalType": "uint256",
                    "name": "",
                    "type": "uint256"
                }
            ],
            "stateMutability": "view",
            "type": "function"
        },
        {
            "inputs": [],
            "name": "getReserves",
            "outputs": [
                {
                    "internalType": "uint256",
                    "name": "",
                    "type": "uint256"
                },
                {
                    "internalType": "uint256",
                    "name": "",
                    "type": "uint256"
                }
            ],
            "stateMutability": "view",
            "type": "function"
        },
        {
            "inputs": [
                {
                    "internalType": "address",
                    "name": "initialOwner",
                    "type": "address"
                }
            ],
            "name": "initialize",
            "outputs": [],
            "stateMutability": "nonpayable",
            "type": "function"
        },
        {
            "inputs": [],
            "name": "lastRewardAt",
            "outputs": [
                {
                    "internalType": "uint256",
                    "name": "",
                    "type": "uint256"
                }
            ],
            "stateMutability": "view",
            "type": "function"
        },
        {
            "inputs": [],
            "name": "liquidityProvider",
            "outputs": [
                {
                    "internalType": "address",
                    "name": "",
                    "type": "address"
                }
            ],
            "stateMutability": "view",
            "type": "function"
        },
        {
            "inputs": [],
            "name": "marketAddress",
            "outputs": [
                {
                    "internalType": "address",
                    "name": "",
                    "type": "address"
                }
            ],
            "stateMutability": "view",
            "type": "function"
        },
        {
            "inputs": [],
            "name": "maxWalletEnable",
            "outputs": [
                {
                    "internalType": "bool",
                    "name": "",
                    "type": "bool"
                }
            ],
            "stateMutability": "view",
            "type": "function"
        },
        {
            "inputs": [],
            "name": "name",
            "outputs": [
                {
                    "internalType": "string",
                    "name": "",
                    "type": "string"
                }
            ],
            "stateMutability": "view",
            "type": "function"
        },
        {
            "inputs": [
                {
                    "internalType": "uint256",
                    "name": "",
                    "type": "uint256"
                }
            ],
            "name": "nodeAddress",
            "outputs": [
                {
                    "internalType": "address",
                    "name": "",
                    "type": "address"
                }
            ],
            "stateMutability": "view",
            "type": "function"
        },
        {
            "inputs": [
                {
                    "internalType": "address",
                    "name": "owner",
                    "type": "address"
                }
            ],
            "name": "nonces",
            "outputs": [
                {
                    "internalType": "uint256",
                    "name": "",
                    "type": "uint256"
                }
            ],
            "stateMutability": "view",
            "type": "function"
        },
        {
            "inputs": [],
            "name": "owner",
            "outputs": [
                {
                    "internalType": "address",
                    "name": "",
                    "type": "address"
                }
            ],
            "stateMutability": "view",
            "type": "function"
        },
        {
            "inputs": [
                {
                    "internalType": "address",
                    "name": "owner",
                    "type": "address"
                },
                {
                    "internalType": "address",
                    "name": "spender",
                    "type": "address"
                },
                {
                    "internalType": "uint256",
                    "name": "value",
                    "type": "uint256"
                },
                {
                    "internalType": "uint256",
                    "name": "deadline",
                    "type": "uint256"
                },
                {
                    "internalType": "uint8",
                    "name": "v",
                    "type": "uint8"
                },
                {
                    "internalType": "bytes32",
                    "name": "r",
                    "type": "bytes32"
                },
                {
                    "internalType": "bytes32",
                    "name": "s",
                    "type": "bytes32"
                }
            ],
            "name": "permit",
            "outputs": [],
            "stateMutability": "nonpayable",
            "type": "function"
        },
        {
            "inputs": [],
            "name": "pledgeReceiptAddress",
            "outputs": [
                {
                    "internalType": "address",
                    "name": "",
                    "type": "address"
                }
            ],
            "stateMutability": "view",
            "type": "function"
        },
        {
            "inputs": [],
            "name": "presaleEnable",
            "outputs": [
                {
                    "internalType": "bool",
                    "name": "",
                    "type": "bool"
                }
            ],
            "stateMutability": "view",
            "type": "function"
        },
        {
            "inputs": [],
            "name": "proxiableUUID",
            "outputs": [
                {
                    "internalType": "bytes32",
                    "name": "",
                    "type": "bytes32"
                }
            ],
            "stateMutability": "view",
            "type": "function"
        },
        {
            "inputs": [
                {
                    "internalType": "address",
                    "name": "",
                    "type": "address"
                }
            ],
            "name": "relation",
            "outputs": [
                {
                    "internalType": "address",
                    "name": "",
                    "type": "address"
                }
            ],
            "stateMutability": "view",
            "type": "function"
        },
        {
            "inputs": [
                {
                    "internalType": "uint256",
                    "name": "index",
                    "type": "uint256"
                }
            ],
            "name": "removeNodeAddress",
            "outputs": [],
            "stateMutability": "nonpayable",
            "type": "function"
        },
        {
            "inputs": [],
            "name": "renounceOwnership",
            "outputs": [],
            "stateMutability": "nonpayable",
            "type": "function"
        },
        {
            "inputs": [
                {
                    "internalType": "uint256",
                    "name": "_maxWallet_",
                    "type": "uint256"
                }
            ],
            "name": "setMaxWallet",
            "outputs": [],
            "stateMutability": "nonpayable",
            "type": "function"
        },
        {
            "inputs": [],
            "name": "symbol",
            "outputs": [
                {
                    "internalType": "string",
                    "name": "",
                    "type": "string"
                }
            ],
            "stateMutability": "view",
            "type": "function"
        },
        {
            "inputs": [],
            "name": "totalSupply",
            "outputs": [
                {
                    "internalType": "uint256",
                    "name": "",
                    "type": "uint256"
                }
            ],
            "stateMutability": "view",
            "type": "function"
        },
        {
            "inputs": [
                {
                    "internalType": "address",
                    "name": "to",
                    "type": "address"
                },
                {
                    "internalType": "uint256",
                    "name": "value",
                    "type": "uint256"
                }
            ],
            "name": "transfer",
            "outputs": [
                {
                    "internalType": "bool",
                    "name": "",
                    "type": "bool"
                }
            ],
            "stateMutability": "nonpayable",
            "type": "function"
        },
        {
            "inputs": [
                {
                    "internalType": "address",
                    "name": "from",
                    "type": "address"
                },
                {
                    "internalType": "address",
                    "name": "to",
                    "type": "address"
                },
                {
                    "internalType": "uint256",
                    "name": "value",
                    "type": "uint256"
                }
            ],
            "name": "transferFrom",
            "outputs": [
                {
                    "internalType": "bool",
                    "name": "",
                    "type": "bool"
                }
            ],
            "stateMutability": "nonpayable",
            "type": "function"
        },
        {
            "inputs": [
                {
                    "internalType": "address",
                    "name": "newOwner",
                    "type": "address"
                }
            ],
            "name": "transferOwnership",
            "outputs": [],
            "stateMutability": "nonpayable",
            "type": "function"
        },
        {
            "inputs": [
                {
                    "internalType": "address",
                    "name": "newImplementation",
                    "type": "address"
                },
                {
                    "internalType": "bytes",
                    "name": "data",
                    "type": "bytes"
                }
            ],
            "name": "upgradeToAndCall",
            "outputs": [],
            "stateMutability": "payable",
            "type": "function"
        },
        {
            "stateMutability": "payable",
            "type": "receive"
        }
    ],
    "bytecode": "60a0604052306080526013805460ff191690553480156200001e575f80fd5b50620000296200002f565b620000e3565b7ff0c57e16840df040f15088dc2f81fe391c3923bec73e23a9662efc9c229c6a00805468010000000000000000900460ff1615620000805760405163f92ee8a960e01b815260040160405180910390fd5b80546001600160401b0390811614620000e05780546001600160401b0319166001600160401b0390811782556040519081527fc7f505b2f371ae2175ee4913f4499e1f2633a7b5936321eed1cdaeb6115181d29060200160405180910390a15b50565b608051612bb76200010a5f395f818161172a0152818161175301526118920152612bb75ff3fe60806040526004361061024c575f3560e01c80637ec18cf611610134578063b74de591116100b3578063dc54150411610078578063dc54150414610708578063dd62ed3e1461071d578063e98533b81461073c578063f2e156281461075b578063f2fde38b14610770578063f3e019421461078f575f80fd5b8063b74de59114610662578063c4d66de814610677578063d0943e1714610696578063d505accf146106b5578063d7a05f05146106d4575f80fd5b806395623641116100f957806395623641146105c157806395d89b41146105e0578063a9059cbb146105f4578063ad3cb1cc14610613578063ae19139e14610643575f80fd5b80637ec18cf6146105115780637ecebe001461052a57806382247ec01461054957806384b0196e1461055e5780638da5cb5b14610585575f80fd5b806341275358116101cb57806368961ecb1161019057806368961ecb1461046057806370a082311461047f578063715018a61461049e5780637181347a146104b257806378554a4f146104d15780637cca52fe146104fc575f80fd5b806341275358146103c45780634f1ef286146103fb57806352d1902d1461040e5780635b8bec55146104225780635d0044ca14610441575f80fd5b806318160ddd1161021157806318160ddd1461032e57806323b872dd14610361578063313ce567146103805780633644e5151461039b5780633cd691d5146103af575f80fd5b806306fdde031461025f5780630902f1ac14610289578063095ea7b3146102b257806311106ee2146102e157806312a54b621461030e575f80fd5b3661025b576102596107ae565b005b5f80fd5b34801561026a575f80fd5b50610273610982565b60405161028091906124b6565b60405180910390f35b348015610294575f80fd5b5061029d610a27565b60408051928352602083019190915201610280565b3480156102bd575f80fd5b506102d16102cc3660046124e3565b610a3d565b6040519015158152602001610280565b3480156102ec575f80fd5b506103006102fb36600461251a565b610a56565b604051908152602001610280565b348015610319575f80fd5b506007546102d190600160a01b900460ff1681565b348015610339575f80fd5b507f52c63247e1f47db19d5ce0460030c497f067ca4cebf71ba98eeadabe20bace0254610300565b34801561036c575f80fd5b506102d161037b366004612544565b610aa6565b34801561038b575f80fd5b5060405160128152602001610280565b3480156103a6575f80fd5b50610300610acb565b3480156103ba575f80fd5b50610300600f5481565b3480156103cf575f80fd5b50600a546103e3906001600160a01b031681565b6040516001600160a01b039091168152602001610280565b610259610409366004612591565b610ad9565b348015610419575f80fd5b50610300610af8565b34801561042d575f80fd5b506007546103e3906001600160a01b031681565b34801561044c575f80fd5b5061025961045b36600461264d565b610b13565b34801561046b575f80fd5b506009546103e3906001600160a01b031681565b34801561048a575f80fd5b50610300610499366004612664565b610b20565b3480156104a9575f80fd5b50610259610b50565b3480156104bd575f80fd5b50600b546103e3906001600160a01b031681565b3480156104dc575f80fd5b506103006104eb366004612664565b60116020525f908152604090205481565b348015610507575f80fd5b5061030060035481565b34801561051c575f80fd5b506013546102d19060ff1681565b348015610535575f80fd5b50610300610544366004612664565b610b63565b348015610554575f80fd5b5061030060025481565b348015610569575f80fd5b50610572610b6d565b604051610280979695949392919061267d565b348015610590575f80fd5b507f9016d09d72d40fdae2fd8ceac6b6234c7706214fd39c1cd1e609a0528c199300546001600160a01b03166103e3565b3480156105cc575f80fd5b506008546103e3906001600160a01b031681565b3480156105eb575f80fd5b50610273610c16565b3480156105ff575f80fd5b506102d161060e3660046124e3565b610c54565b34801561061e575f80fd5b50610273604051806040016040528060058152602001640352e302e360dc1b81525081565b34801561064e575f80fd5b5061025961065d366004612714565b610d05565b34801561066d575f80fd5b5061030060045481565b348015610682575f80fd5b50610259610691366004612664565b610d2b565b3480156106a1575f80fd5b506103e36106b036600461264d565b610fb9565b3480156106c0575f80fd5b506102596106cf36600461272d565b610fe1565b3480156106df575f80fd5b506103e36106ee366004612664565b60106020525f90815260409020546001600160a01b031681565b348015610713575f80fd5b50610300600e5481565b348015610728575f80fd5b5061030061073736600461279a565b611136565b348015610747575f80fd5b506103e361075636600461264d565b61117f565b348015610766575f80fd5b5061030060125481565b34801561077b575f80fd5b5061025961078a366004612664565b61118e565b34801561079a575f80fd5b506102596107a936600461264d565b6111cb565b335f908152601460205260409020544363ffffffff909116036107ec5760405162461bcd60e51b81526004016107e3906127c2565b60405180910390fd5b335f908152601460205260408120805463ffffffff19164363ffffffff1617905560015434919061081e908390612827565b61082730610b20565b610831908461283a565b61083b9190612851565b600754909150600160a01b900460ff16156108aa5760025461085c33610b20565b6108669083612827565b11156108aa5760405162461bcd60e51b815260206004820152601360248201527213585e081dd85b1b195d08195e18d959591959606a1b60448201526064016107e3565b6108cb303360646108bc85605f61283a565b6108c69190612851565b611275565b6103e86108da836103d961283a565b6108e49190612851565b60015f8282546108f49190612827565b909155506109039050346113ae565b61090c816113fa565b610916338261150e565b61091f81611553565b61092833611586565b610931816115e6565b604080513481525f60208201819052918101919091526060810182905233907f49926bbebe8474393f434dfa4f78694c0923efa07d19f2284518bfabd06eb737906080015b60405180910390a25050565b60605f5f80516020612b228339815191525b90508060030180546109a590612870565b80601f01602080910402602001604051908101604052809291908181526020018280546109d190612870565b8015610a1c5780601f106109f357610100808354040283529160200191610a1c565b820191905f5260205f20905b8154815290600101906020018083116109ff57829003601f168201915b505050505091505090565b5f80600154610a3530610b20565b915091509091565b5f33610a4a81858561164f565b60019150505b92915050565b5f805f610a61610a27565b915091508315610a9257610a758583612827565b610a7f828761283a565b610a899190612851565b92505050610a50565b610a9c8582612827565b610a7f838761283a565b5f33610ab385828561165c565b610abe8585856116b9565b60019150505b9392505050565b5f610ad4611716565b905090565b610ae161171f565b610aea826117c3565b610af482826117cb565b5050565b5f610b01611887565b505f80516020612b6283398151915290565b610b1b6118d0565b600255565b5f805f80516020612b228339815191525b6001600160a01b039093165f9081526020939093525050604090205490565b610b586118d0565b610b615f61192b565b565b5f610a508261199b565b5f60608082808083815f80516020612b428339815191528054909150158015610b9857506001810154155b610bdc5760405162461bcd60e51b81526020600482015260156024820152741152540dcc4c8e88155b9a5b9a5d1a585b1a5e9959605a1b60448201526064016107e3565b610be46119c3565b610bec611a01565b604080515f80825260208201909252600f60f81b9c939b5091995046985030975095509350915050565b7f52c63247e1f47db19d5ce0460030c497f067ca4cebf71ba98eeadabe20bace0480546060915f80516020612b22833981519152916109a590612870565b5f306001600160a01b03841603610c7357610c6e82611a17565b610cfc565b5f610c80600660126128a8565b610c8b90600a612992565b610c9690600161283a565b9050610ca133610b20565b8303610cdc5780610cb133610b20565b1115610cd25780610cc133610b20565b610ccb91906129a0565b9250610cdc565b6001915050610a50565b610ce7338585611275565b610cf084611586565b610cfa3385611c67565b505b50600192915050565b610d0d6118d0565b60078054911515600160a01b0260ff60a01b19909216919091179055565b7ff0c57e16840df040f15088dc2f81fe391c3923bec73e23a9662efc9c229c6a008054600160401b810460ff16159067ffffffffffffffff165f81158015610d705750825b90505f8267ffffffffffffffff166001148015610d8c5750303b155b905081158015610d9a575080155b15610db85760405163f92ee8a960e01b815260040160405180910390fd5b845467ffffffffffffffff191660011785558315610de257845460ff60401b1916600160401b1785555b610e266040518060400160405280600781526020016626bcaa37b5b2b760c91b815250604051806040016040528060038152602001624d544b60e81b815250611d38565b610e4e6040518060400160405280600781526020016626bcaa37b5b2b760c91b815250611d4a565b67015fb7f9b8c380005f55681043561a882930000060015566038d7ea4c68000600455652d79883d20006002819055600f5565048c27395000600355600980546001600160a01b03199081167398a8790028c6476b740be640627a62496e5d616b179091556007805460ff60a01b1916600160a01b179055600b8054821630179055600880548216737a6ca6a66b7ca223ecd10ef837895f7a32e902d4179055600a805490911673bedddae2062f0b573ec72562f88da141a67b70b2179055610f1686611d75565b610f1e611d86565b610f4130610f2e6012600a612992565b610f3c9063068e778061283a565b611d8e565b600954610f6b906001600160a01b0316610f5d6012600a612992565b610f3c90633473bc0061283a565b8315610fb157845460ff60401b19168555604051600181527fc7f505b2f371ae2175ee4913f4499e1f2633a7b5936321eed1cdaeb6115181d29060200160405180910390a15b505050505050565b600d8181548110610fc8575f80fd5b5f918252602090912001546001600160a01b0316905081565b834211156110055760405163313c898160e11b8152600481018590526024016107e3565b5f7f6e71edae12b1b97f4d1f60370fef10105fa2faae0126114a169c64845d6126c988888861106f8c6001600160a01b03165f9081527f5ab42ced628888259c08ac98db1eb0cf702fc1501344311d8b100cd1bfe4bb006020526040902080546001810190915590565b6040805160208101969096526001600160a01b0394851690860152929091166060840152608083015260a082015260c0810186905260e0016040516020818303038152906040528051906020012090505f6110c982611dc2565b90505f6110d882878787611dee565b9050896001600160a01b0316816001600160a01b03161461111f576040516325c0072360e11b81526001600160a01b0380831660048301528b1660248201526044016107e3565b61112a8a8a8a61164f565b50505050505050505050565b6001600160a01b039182165f9081527f52c63247e1f47db19d5ce0460030c497f067ca4cebf71ba98eeadabe20bace016020908152604080832093909416825291909152205490565b600c8181548110610fc8575f80fd5b6111966118d0565b6001600160a01b0381166111bf57604051631e4fbdf760e01b81525f60048201526024016107e3565b6111c88161192b565b50565b600c80546111db906001906129a0565b815481106111eb576111eb6129b3565b5f91825260209091200154600c80546001600160a01b039092169183908110611216576112166129b3565b905f5260205f20015f6101000a8154816001600160a01b0302191690836001600160a01b03160217905550600c805480611252576112526129c7565b5f8281526020902081015f1990810180546001600160a01b031916905501905550565b5f80516020612b228339815191526001600160a01b0384166112af5781816002015f8282546112a49190612827565b9091555061131f9050565b6001600160a01b0384165f90815260208290526040902054828110156113015760405163391434e360e21b81526001600160a01b038616600482015260248101829052604481018490526064016107e3565b6001600160a01b0385165f9081526020839052604090209083900390555b6001600160a01b03831661133d57600281018054839003905561135b565b6001600160a01b0383165f9081526020829052604090208054830190555b826001600160a01b0316846001600160a01b03167fddf252ad1be2c89b69c2b068fc378daa952ba7f163c4a11628f55a4df523b3ef846040516113a091815260200190565b60405180910390a350505050565b6008546001600160a01b03166108fc6103e86113cb84600f61283a565b6113d59190612851565b6040518115909202915f818181858888f19350505050158015610af4573d5f803e3d5ffd5b5f6103e861140983600f61283a565b6114139190612851565b600c549091505f0361143757600a54610af49030906001600160a01b031683611275565b600c545f906114469083612851565b90505f5b600c54811015611508575f6001600160a01b0316600c8281548110611471576114716129b3565b5f918252602090912001546001600160a01b03161461150057600f546114bc600c83815481106114a3576114a36129b3565b5f918252602090912001546001600160a01b0316610b20565b106114f7576114f230600c83815481106114d8576114d86129b3565b5f918252602090912001546001600160a01b031684611275565b611500565b611500816111cb565b60010161144a565b50505050565b6001600160a01b038083165f90815260106020526040902054168061153b5750600a546001600160a01b03165b61154e30826103e86108bc86600a61283a565b505050565b5f606461156183600561283a565b61156b9190612851565b600954909150610af49030906001600160a01b031683611275565b600f5461159282610b20565b106111c857600c80546001810182555f919091527fdf6966c971051c3d54ec59162606531493a51404a002842f56009d7e5cf4a8c70180546001600160a01b0383166001600160a01b031990911617905550565b5f6103e86115f583600a61283a565b6115ff9190612851565b9050600454815f5461161191906129a0565b1015611629576004545f5461162691906129a0565b90505b5f8111801561163f57508061163d30610b20565b115b15610af457610af4305f83611275565b61154e8383836001611e1a565b5f6116678484611136565b90505f19811461150857818110156116ab57604051637dc7a0d960e11b81526001600160a01b038416600482015260248101829052604481018390526064016107e3565b61150884848484035f611e1a565b6001600160a01b0383166116e257604051634b637e8f60e11b81525f60048201526024016107e3565b6001600160a01b03821661170b5760405163ec442f0560e01b81525f60048201526024016107e3565b61154e838383611275565b5f610ad4611efe565b306001600160a01b037f00000000000000000000000000000000000000000000000000000000000000001614806117a557507f00000000000000000000000000000000000000000000000000000000000000006001600160a01b03166117995f80516020612b62833981519152546001600160a01b031690565b6001600160a01b031614155b15610b615760405163703e46dd60e11b815260040160405180910390fd5b6111c86118d0565b816001600160a01b03166352d1902d6040518163ffffffff1660e01b8152600401602060405180830381865afa925050508015611825575060408051601f3d908101601f19168201909252611822918101906129db565b60015b61184d57604051634c9c8ce360e01b81526001600160a01b03831660048201526024016107e3565b5f80516020612b62833981519152811461187d57604051632a87526960e21b8152600481018290526024016107e3565b61154e8383611f71565b306001600160a01b037f00000000000000000000000000000000000000000000000000000000000000001614610b615760405163703e46dd60e11b815260040160405180910390fd5b336119027f9016d09d72d40fdae2fd8ceac6b6234c7706214fd39c1cd1e609a0528c199300546001600160a01b031690565b6001600160a01b031614610b615760405163118cdaa760e01b81523360048201526024016107e3565b7f9016d09d72d40fdae2fd8ceac6b6234c7706214fd39c1cd1e609a0528c19930080546001600160a01b031981166001600160a01b03848116918217845560405192169182907f8be0079c531659141344cd1fd0a4f28419497f9722a3daafe3b4186f6b6457e0905f90a3505050565b5f807f5ab42ced628888259c08ac98db1eb0cf702fc1501344311d8b100cd1bfe4bb00610b31565b7fa16a46d94261c7517cc8ff89f61c0ce93598e3c849801011dee649a6a557d10280546060915f80516020612b42833981519152916109a590612870565b60605f5f80516020612b42833981519152610994565b335f908152601460205260409020544363ffffffff90911603611a4c5760405162461bcd60e51b81526004016107e3906127c2565b335f908152601460205260409020805463ffffffff19164363ffffffff16179055600354811115611ab05760405162461bcd60e51b815260206004820152600e60248201526d13585e08131a5b5a5d0814d95b1b60921b60448201526064016107e3565b5f81611abb30610b20565b611ac59190612827565b600154611ad2908461283a565b611adc9190612851565b90505f8111611b235760405162461bcd60e51b815260206004820152601360248201527253656c6c20616d6f756e7420746f6f206c6f7760681b60448201526064016107e3565b806001541015611b755760405162461bcd60e51b815260206004820152601c60248201527f496e73756666696369656e7420424e4220696e2072657365727665730000000060448201526064016107e3565b611b80333084611275565b6103e8611b8f826103c561283a565b611b999190612851565b60015f828254611ba991906129a0565b90915550611bb89050816113ae565b611bc1826113fa565b611bcb338361150e565b611bd482611553565b611bdd826115e6565b336108fc6064611bee84605f61283a565b611bf89190612851565b6040518115909202915f818181858888f19350505050158015611c1d573d5f803e3d5ffd5b50604080515f80825260208201859052918101839052606081019190915233907f49926bbebe8474393f434dfa4f78694c0923efa07d19f2284518bfabd06eb73790608001610976565b6001600160a01b038181165f9081526010602052604090205416158015611ca05750806001600160a01b0316826001600160a01b031614155b8015611cb557506001600160a01b0381163014155b8015611ccf57506008546001600160a01b03828116911614155b8015611ce957506009546001600160a01b03828116911614155b8015611d035750600a546001600160a01b03828116911614155b15610af4576001600160a01b039081165f90815260106020526040902080546001600160a01b03191692909116919091179055565b611d40611fc6565b610af4828261200f565b611d52611fc6565b6111c881604051806040016040528060018152602001603160f81b81525061205f565b611d7d611fc6565b6111c8816120be565b610b61611fc6565b6001600160a01b038216611db75760405163ec442f0560e01b81525f60048201526024016107e3565b610af45f8383611275565b5f610a50611dce611716565b8360405161190160f01b8152600281019290925260228201526042902090565b5f805f80611dfe888888886120c6565b925092509250611e0e828261218e565b50909695505050505050565b5f80516020612b228339815191526001600160a01b038516611e515760405163e602df0560e01b81525f60048201526024016107e3565b6001600160a01b038416611e7a57604051634a1406b160e11b81525f60048201526024016107e3565b6001600160a01b038086165f90815260018301602090815260408083209388168352929052208390558115611ef757836001600160a01b0316856001600160a01b03167f8c5be1e5ebec7d5bd14f71427d1e84f3dd0314c0f7b2291e5b200ac8c7c3b92585604051611eee91815260200190565b60405180910390a35b5050505050565b5f7f8b73c3c69bb8fe3d512ecc4cf759cc79239f7b179b0ffacaa9a75d522b39400f611f28612246565b611f306122ae565b60408051602081019490945283019190915260608201524660808201523060a082015260c00160405160208183030381529060405280519060200120905090565b611f7a826122f0565b6040516001600160a01b038316907fbc7cd75a20ee27fd9adebab32041f755214dbc6bffa90cc0225b39da2e5c2d3b905f90a2805115611fbe5761154e8282612353565b610af46123c5565b7ff0c57e16840df040f15088dc2f81fe391c3923bec73e23a9662efc9c229c6a0054600160401b900460ff16610b6157604051631afcd79f60e31b815260040160405180910390fd5b612017611fc6565b5f80516020612b228339815191527f52c63247e1f47db19d5ce0460030c497f067ca4cebf71ba98eeadabe20bace036120508482612a36565b50600481016115088382612a36565b612067611fc6565b5f80516020612b428339815191527fa16a46d94261c7517cc8ff89f61c0ce93598e3c849801011dee649a6a557d1026120a08482612a36565b50600381016120af8382612a36565b505f8082556001909101555050565b611196611fc6565b5f80807f7fffffffffffffffffffffffffffffff5d576e7357a4501ddfe92f46681b20a08411156120ff57505f91506003905082612184565b604080515f808252602082018084528a905260ff891692820192909252606081018790526080810186905260019060a0016020604051602081039080840390855afa158015612150573d5f803e3d5ffd5b5050604051601f1901519150506001600160a01b03811661217b57505f925060019150829050612184565b92505f91508190505b9450945094915050565b5f8260038111156121a1576121a1612af2565b036121aa575050565b60018260038111156121be576121be612af2565b036121dc5760405163f645eedf60e01b815260040160405180910390fd5b60028260038111156121f0576121f0612af2565b036122115760405163fce698f760e01b8152600481018290526024016107e3565b600382600381111561222557612225612af2565b03610af4576040516335e2f38360e21b8152600481018290526024016107e3565b5f5f80516020612b428339815191528161225e6119c3565b80519091501561227657805160209091012092915050565b81548015612285579392505050565b7fc5d2460186f7233c927e7db2dcc703c0e500b653ca82273b7bfad8045d85a470935050505090565b5f5f80516020612b42833981519152816122c6611a01565b8051909150156122de57805160209091012092915050565b60018201548015612285579392505050565b806001600160a01b03163b5f0361232557604051634c9c8ce360e01b81526001600160a01b03821660048201526024016107e3565b5f80516020612b6283398151915280546001600160a01b0319166001600160a01b0392909216919091179055565b60605f80846001600160a01b03168460405161236f9190612b06565b5f60405180830381855af49150503d805f81146123a7576040519150601f19603f3d011682016040523d82523d5f602084013e6123ac565b606091505b50915091506123bc8583836123e4565b95945050505050565b3415610b615760405163b398979f60e01b815260040160405180910390fd5b6060826123f9576123f482612440565b610ac4565b815115801561241057506001600160a01b0384163b155b1561243957604051639996b31560e01b81526001600160a01b03851660048201526024016107e3565b5080610ac4565b8051156124505780518082602001fd5b604051630a12f52160e11b815260040160405180910390fd5b5f5b8381101561248357818101518382015260200161246b565b50505f910152565b5f81518084526124a2816020860160208601612469565b601f01601f19169290920160200192915050565b602081525f610ac4602083018461248b565b80356001600160a01b03811681146124de575f80fd5b919050565b5f80604083850312156124f4575f80fd5b6124fd836124c8565b946020939093013593505050565b803580151581146124de575f80fd5b5f806040838503121561252b575f80fd5b8235915061253b6020840161250b565b90509250929050565b5f805f60608486031215612556575f80fd5b61255f846124c8565b925061256d602085016124c8565b9150604084013590509250925092565b634e487b7160e01b5f52604160045260245ffd5b5f80604083850312156125a2575f80fd5b6125ab836124c8565b9150602083013567ffffffffffffffff808211156125c7575f80fd5b818501915085601f8301126125da575f80fd5b8135818111156125ec576125ec61257d565b604051601f8201601f19908116603f011681019083821181831017156126145761261461257d565b8160405282815288602084870101111561262c575f80fd5b826020860160208301375f6020848301015280955050505050509250929050565b5f6020828403121561265d575f80fd5b5035919050565b5f60208284031215612674575f80fd5b610ac4826124c8565b60ff60f81b881681525f602060e0602084015261269d60e084018a61248b565b83810360408501526126af818a61248b565b606085018990526001600160a01b038816608086015260a0850187905284810360c0860152855180825260208088019350909101905f5b81811015612702578351835292840192918401916001016126e6565b50909c9b505050505050505050505050565b5f60208284031215612724575f80fd5b610ac48261250b565b5f805f805f805f60e0888a031215612743575f80fd5b61274c886124c8565b965061275a602089016124c8565b95506040880135945060608801359350608088013560ff8116811461277d575f80fd5b9699959850939692959460a0840135945060c09093013592915050565b5f80604083850312156127ab575f80fd5b6127b4836124c8565b915061253b602084016124c8565b60208082526031908201527f596f752063616e2774206d616b652074776f207472616e73616374696f6e7320604082015270696e207468652073616d6520626c6f636b60781b606082015260800190565b634e487b7160e01b5f52601160045260245ffd5b80820180821115610a5057610a50612813565b8082028115828204841417610a5057610a50612813565b5f8261286b57634e487b7160e01b5f52601260045260245ffd5b500490565b600181811c9082168061288457607f821691505b6020821081036128a257634e487b7160e01b5f52602260045260245ffd5b50919050565b60ff8281168282160390811115610a5057610a50612813565b600181815b808511156128fb57815f19048211156128e1576128e1612813565b808516156128ee57918102915b93841c93908002906128c6565b509250929050565b5f8261291157506001610a50565b8161291d57505f610a50565b8160018114610cd2576002810361294a5760ff84111561293f5761293f612813565b50506001821b610a50565b5060208310610133831016604e8410600b841016171561296d575081810a610a50565b61297783836128c1565b805f190482111561298a5761298a612813565b029392505050565b5f610ac460ff841683612903565b81810381811115610a5057610a50612813565b634e487b7160e01b5f52603260045260245ffd5b634e487b7160e01b5f52603160045260245ffd5b5f602082840312156129eb575f80fd5b5051919050565b601f82111561154e57805f5260205f20601f840160051c81016020851015612a175750805b601f840160051c820191505b81811015611ef7575f8155600101612a23565b815167ffffffffffffffff811115612a5057612a5061257d565b612a6481612a5e8454612870565b846129f2565b602080601f831160018114612a97575f8415612a805750858301515b5f19600386901b1c1916600185901b178555610fb1565b5f85815260208120601f198616915b82811015612ac557888601518255948401946001909101908401612aa6565b5085821015612ae257878501515f19600388901b60f8161c191681555b5050505050600190811b01905550565b634e487b7160e01b5f52602160045260245ffd5b5f8251612b17818460208701612469565b919091019291505056fe52c63247e1f47db19d5ce0460030c497f067ca4cebf71ba98eeadabe20bace00a16a46d94261c7517cc8ff89f61c0ce93598e3c849801011dee649a6a557d100360894a13ba1a3210667c828492db98dca3e2076cc3735a920a3ca505d382bbca2646970667358221220be8cf18d42499c6e3721ce8dac862577c92ba6902ad9fce57d7a9e0d598f918964736f6c63430008180033",
    "sourcePath": "/Users/janly/data/solidity/UUPSNew/contracts/BT2.sol",
    "compiler": {
        "name": "solc",
        "version": "0.8.24+commit.e11b9ed9"
    },
    "functionHashes": {
        "DOMAIN_SEPARATOR()": "3644e515",
        "UPGRADE_INTERFACE_VERSION()": "ad3cb1cc",
        "_fireStopAmount()": "b74de591",
        "_maxSellAmount()": "7cca52fe",
        "_maxWallet()": "82247ec0",
        "_nodeLimitAmount()": "3cd691d5",
        "allowance(address,address)": "dd62ed3e",
        "approve(address,uint256)": "095ea7b3",
        "balanceOf(address)": "70a08231",
        "communityAddress(uint256)": "d0943e17",
        "communityBonus()": "dc541504",
        "communityCount(address)": "78554a4f",
        "decimals()": "313ce567",
        "ecoAddress()": "68961ecb",
        "eip712Domain()": "84b0196e",
        "enableMaxWallet(bool)": "ae19139e",
        "feeAddress()": "41275358",
        "getAmountOut(uint256,bool)": "11106ee2",
        "getReserves()": "0902f1ac",
        "initialize(address)": "c4d66de8",
        "lastRewardAt()": "f2e15628",
        "liquidityProvider()": "5b8bec55",
        "marketAddress()": "95623641",
        "maxWalletEnable()": "12a54b62",
        "name()": "06fdde03",
        "nodeAddress(uint256)": "e98533b8",
        "nonces(address)": "7ecebe00",
        "owner()": "8da5cb5b",
        "permit(address,address,uint256,uint256,uint8,bytes32,bytes32)": "d505accf",
        "pledgeReceiptAddress()": "7181347a",
        "presaleEnable()": "7ec18cf6",
        "proxiableUUID()": "52d1902d",
        "relation(address)": "d7a05f05",
        "removeNodeAddress(uint256)": "f3e01942",
        "renounceOwnership()": "715018a6",
        "setMaxWallet(uint256)": "5d0044ca",
        "symbol()": "95d89b41",
        "totalSupply()": "18160ddd",
        "transfer(address,uint256)": "a9059cbb",
        "transferFrom(address,address,uint256)": "23b872dd",
        "transferOwnership(address)": "f2fde38b",
        "upgradeToAndCall(address,bytes)": "4f1ef286"
    },
    "gasEstimates": {
        "creation": {
            "codeDepositCost": "2238200",
            "executionCost": "infinite",
            "totalCost": "infinite"
        },
        "external": {
            "DOMAIN_SEPARATOR()": "infinite",
            "UPGRADE_INTERFACE_VERSION()": "infinite",
            "_fireStopAmount()": "2339",
            "_maxSellAmount()": "2449",
            "_maxWallet()": "2384",
            "_nodeLimitAmount()": "2428",
            "allowance(address,address)": "infinite",
            "approve(address,uint256)": "infinite",
            "balanceOf(address)": "infinite",
            "communityAddress(uint256)": "4700",
            "communityBonus()": "2338",
            "communityCount(address)": "2649",
            "decimals()": "266",
            "ecoAddress()": "2381",
            "eip712Domain()": "infinite",
            "enableMaxWallet(bool)": "26883",
            "feeAddress()": "2382",
            "getAmountOut(uint256,bool)": "infinite",
            "getReserves()": "infinite",
            "initialize(address)": "infinite",
            "lastRewardAt()": "2404",
            "liquidityProvider()": "2448",
            "marketAddress()": "2381",
            "maxWalletEnable()": "2461",
            "name()": "infinite",
            "nodeAddress(uint256)": "4699",
            "nonces(address)": "2689",
            "owner()": "2464",
            "permit(address,address,uint256,uint256,uint8,bytes32,bytes32)": "infinite",
            "pledgeReceiptAddress()": "2447",
            "presaleEnable()": "2355",
            "proxiableUUID()": "infinite",
            "relation(address)": "2688",
            "removeNodeAddress(uint256)": "81865",
            "renounceOwnership()": "infinite",
            "setMaxWallet(uint256)": "24653",
            "symbol()": "infinite",
            "totalSupply()": "2337",
            "transfer(address,uint256)": "infinite",
            "transferFrom(address,address,uint256)": "infinite",
            "transferOwnership(address)": "28497",
            "upgradeToAndCall(address,bytes)": "infinite"
        },
        "internal": {
            "_authorizeUpgrade(address)": "infinite",
            "_bindRelation(address,address)": "33176",
            "_fireHandler(uint256)": "infinite",
            "_marketHandler(uint256)": "infinite",
            "_nodeAdd(address)": "52904",
            "_nodeHandler(uint256)": "infinite",
            "_relationHandler(address,uint256)": "infinite",
            "_tradeFee(uint256)": "infinite",
            "buy()": "infinite",
            "sell(uint256)": "infinite"
        }
    }
}