{
    "contractName": "BT2",
    "abi": [
        {
            "inputs": [],
            "stateMutability": "nonpayable",
            "type": "constructor"
        },
        {
            "inputs": [
                {
                    "internalType": "address",
                    "name": "target",
                    "type": "address"
                }
            ],
            "name": "AddressEmptyCode",
            "type": "error"
        },
        {
            "inputs": [
                {
                    "internalType": "address",
                    "name": "implementation",
                    "type": "address"
                }
            ],
            "name": "ERC1967InvalidImplementation",
            "type": "error"
        },
        {
            "inputs": [],
            "name": "ERC1967NonPayable",
            "type": "error"
        },
        {
            "inputs": [
                {
                    "internalType": "address",
                    "name": "spender",
                    "type": "address"
                },
                {
                    "internalType": "uint256",
                    "name": "allowance",
                    "type": "uint256"
                },
                {
                    "internalType": "uint256",
                    "name": "needed",
                    "type": "uint256"
                }
            ],
            "name": "ERC20InsufficientAllowance",
            "type": "error"
        },
        {
            "inputs": [
                {
                    "internalType": "address",
                    "name": "sender",
                    "type": "address"
                },
                {
                    "internalType": "uint256",
                    "name": "balance",
                    "type": "uint256"
                },
                {
                    "internalType": "uint256",
                    "name": "needed",
                    "type": "uint256"
                }
            ],
            "name": "ERC20InsufficientBalance",
            "type": "error"
        },
        {
            "inputs": [
                {
                    "internalType": "address",
                    "name": "approver",
                    "type": "address"
                }
            ],
            "name": "ERC20InvalidApprover",
            "type": "error"
        },
        {
            "inputs": [
                {
                    "internalType": "address",
                    "name": "receiver",
                    "type": "address"
                }
            ],
            "name": "ERC20InvalidReceiver",
            "type": "error"
        },
        {
            "inputs": [
                {
                    "internalType": "address",
                    "name": "sender",
                    "type": "address"
                }
            ],
            "name": "ERC20InvalidSender",
            "type": "error"
        },
        {
            "inputs": [
                {
                    "internalType": "address",
                    "name": "spender",
                    "type": "address"
                }
            ],
            "name": "ERC20InvalidSpender",
            "type": "error"
        },
        {
            "inputs": [],
            "name": "FailedInnerCall",
            "type": "error"
        },
        {
            "inputs": [],
            "name": "InvalidInitialization",
            "type": "error"
        },
        {
            "inputs": [],
            "name": "NotInitializing",
            "type": "error"
        },
        {
            "inputs": [
                {
                    "internalType": "address",
                    "name": "owner",
                    "type": "address"
                }
            ],
            "name": "OwnableInvalidOwner",
            "type": "error"
        },
        {
            "inputs": [
                {
                    "internalType": "address",
                    "name": "account",
                    "type": "address"
                }
            ],
            "name": "OwnableUnauthorizedAccount",
            "type": "error"
        },
        {
            "inputs": [],
            "name": "UUPSUnauthorizedCallContext",
            "type": "error"
        },
        {
            "inputs": [
                {
                    "internalType": "bytes32",
                    "name": "slot",
                    "type": "bytes32"
                }
            ],
            "name": "UUPSUnsupportedProxiableUUID",
            "type": "error"
        },
        {
            "anonymous": false,
            "inputs": [
                {
                    "indexed": false,
                    "internalType": "uint32",
                    "name": "_blockToUnlockLiquidity",
                    "type": "uint32"
                },
                {
                    "indexed": false,
                    "internalType": "uint256",
                    "name": "value",
                    "type": "uint256"
                }
            ],
            "name": "AddLiquidity",
            "type": "event"
        },
        {
            "anonymous": false,
            "inputs": [
                {
                    "indexed": true,
                    "internalType": "address",
                    "name": "owner",
                    "type": "address"
                },
                {
                    "indexed": true,
                    "internalType": "address",
                    "name": "spender",
                    "type": "address"
                },
                {
                    "indexed": false,
                    "internalType": "uint256",
                    "name": "value",
                    "type": "uint256"
                }
            ],
            "name": "Approval",
            "type": "event"
        },
        {
            "anonymous": false,
            "inputs": [
                {
                    "indexed": false,
                    "internalType": "uint64",
                    "name": "version",
                    "type": "uint64"
                }
            ],
            "name": "Initialized",
            "type": "event"
        },
        {
            "anonymous": false,
            "inputs": [
                {
                    "indexed": true,
                    "internalType": "address",
                    "name": "previousOwner",
                    "type": "address"
                },
                {
                    "indexed": true,
                    "internalType": "address",
                    "name": "newOwner",
                    "type": "address"
                }
            ],
            "name": "OwnershipTransferred",
            "type": "event"
        },
        {
            "anonymous": false,
            "inputs": [
                {
                    "indexed": true,
                    "internalType": "address",
                    "name": "sender",
                    "type": "address"
                },
                {
                    "indexed": false,
                    "internalType": "uint256",
                    "name": "value",
                    "type": "uint256"
                }
            ],
            "name": "Pledge",
            "type": "event"
        },
        {
            "anonymous": false,
            "inputs": [
                {
                    "indexed": true,
                    "internalType": "address",
                    "name": "sender",
                    "type": "address"
                },
                {
                    "indexed": false,
                    "internalType": "uint256",
                    "name": "value",
                    "type": "uint256"
                }
            ],
            "name": "PledgeNode",
            "type": "event"
        },
        {
            "anonymous": false,
            "inputs": [
                {
                    "indexed": false,
                    "internalType": "uint256",
                    "name": "value",
                    "type": "uint256"
                }
            ],
            "name": "RemoveLiquidity",
            "type": "event"
        },
        {
            "anonymous": false,
            "inputs": [
                {
                    "indexed": true,
                    "internalType": "address",
                    "name": "sender",
                    "type": "address"
                },
                {
                    "indexed": false,
                    "internalType": "uint256",
                    "name": "value",
                    "type": "uint256"
                }
            ],
            "name": "RemoveNodePledge",
            "type": "event"
        },
        {
            "anonymous": false,
            "inputs": [
                {
                    "indexed": true,
                    "internalType": "address",
                    "name": "sender",
                    "type": "address"
                },
                {
                    "indexed": false,
                    "internalType": "uint256",
                    "name": "value",
                    "type": "uint256"
                }
            ],
            "name": "RemovePledge",
            "type": "event"
        },
        {
            "anonymous": false,
            "inputs": [
                {
                    "indexed": true,
                    "internalType": "address",
                    "name": "sender",
                    "type": "address"
                },
                {
                    "indexed": false,
                    "internalType": "uint256",
                    "name": "amount0In",
                    "type": "uint256"
                },
                {
                    "indexed": false,
                    "internalType": "uint256",
                    "name": "amount1In",
                    "type": "uint256"
                },
                {
                    "indexed": false,
                    "internalType": "uint256",
                    "name": "amount0Out",
                    "type": "uint256"
                },
                {
                    "indexed": false,
                    "internalType": "uint256",
                    "name": "amount1Out",
                    "type": "uint256"
                }
            ],
            "name": "Swap",
            "type": "event"
        },
        {
            "anonymous": false,
            "inputs": [
                {
                    "indexed": true,
                    "internalType": "address",
                    "name": "from",
                    "type": "address"
                },
                {
                    "indexed": true,
                    "internalType": "address",
                    "name": "to",
                    "type": "address"
                },
                {
                    "indexed": false,
                    "internalType": "uint256",
                    "name": "value",
                    "type": "uint256"
                }
            ],
            "name": "Transfer",
            "type": "event"
        },
        {
            "anonymous": false,
            "inputs": [
                {
                    "indexed": true,
                    "internalType": "address",
                    "name": "implementation",
                    "type": "address"
                }
            ],
            "name": "Upgraded",
            "type": "event"
        },
        {
            "inputs": [],
            "name": "UPGRADE_INTERFACE_VERSION",
            "outputs": [
                {
                    "internalType": "string",
                    "name": "",
                    "type": "string"
                }
            ],
            "stateMutability": "view",
            "type": "function"
        },
        {
            "inputs": [],
            "name": "_fireStopAmount",
            "outputs": [
                {
                    "internalType": "uint256",
                    "name": "",
                    "type": "uint256"
                }
            ],
            "stateMutability": "view",
            "type": "function"
        },
        {
            "inputs": [],
            "name": "_lastNodeIndex",
            "outputs": [
                {
                    "internalType": "uint256",
                    "name": "",
                    "type": "uint256"
                }
            ],
            "stateMutability": "view",
            "type": "function"
        },
        {
            "inputs": [],
            "name": "_maxBuyAmount",
            "outputs": [
                {
                    "internalType": "uint256",
                    "name": "",
                    "type": "uint256"
                }
            ],
            "stateMutability": "view",
            "type": "function"
        },
        {
            "inputs": [],
            "name": "_maxSellAmount",
            "outputs": [
                {
                    "internalType": "uint256",
                    "name": "",
                    "type": "uint256"
                }
            ],
            "stateMutability": "view",
            "type": "function"
        },
        {
            "inputs": [],
            "name": "_nodeFeeTotalAmount",
            "outputs": [
                {
                    "internalType": "uint256",
                    "name": "",
                    "type": "uint256"
                }
            ],
            "stateMutability": "view",
            "type": "function"
        },
        {
            "inputs": [],
            "name": "_nodeLimitAmount",
            "outputs": [
                {
                    "internalType": "uint256",
                    "name": "",
                    "type": "uint256"
                }
            ],
            "stateMutability": "view",
            "type": "function"
        },
        {
            "inputs": [
                {
                    "internalType": "address",
                    "name": "owner",
                    "type": "address"
                },
                {
                    "internalType": "address",
                    "name": "spender",
                    "type": "address"
                }
            ],
            "name": "allowance",
            "outputs": [
                {
                    "internalType": "uint256",
                    "name": "",
                    "type": "uint256"
                }
            ],
            "stateMutability": "view",
            "type": "function"
        },
        {
            "inputs": [
                {
                    "internalType": "address",
                    "name": "spender",
                    "type": "address"
                },
                {
                    "internalType": "uint256",
                    "name": "value",
                    "type": "uint256"
                }
            ],
            "name": "approve",
            "outputs": [
                {
                    "internalType": "bool",
                    "name": "",
                    "type": "bool"
                }
            ],
            "stateMutability": "nonpayable",
            "type": "function"
        },
        {
            "inputs": [
                {
                    "internalType": "address",
                    "name": "account",
                    "type": "address"
                }
            ],
            "name": "balanceOf",
            "outputs": [
                {
                    "internalType": "uint256",
                    "name": "",
                    "type": "uint256"
                }
            ],
            "stateMutability": "view",
            "type": "function"
        },
        {
            "inputs": [],
            "name": "cleanNode",
            "outputs": [],
            "stateMutability": "nonpayable",
            "type": "function"
        },
        {
            "inputs": [
                {
                    "internalType": "uint256",
                    "name": "",
                    "type": "uint256"
                }
            ],
            "name": "communityAddress",
            "outputs": [
                {
                    "internalType": "address",
                    "name": "",
                    "type": "address"
                }
            ],
            "stateMutability": "view",
            "type": "function"
        },
        {
            "inputs": [],
            "name": "communityBonus",
            "outputs": [
                {
                    "internalType": "uint256",
                    "name": "",
                    "type": "uint256"
                }
            ],
            "stateMutability": "view",
            "type": "function"
        },
        {
            "inputs": [
                {
                    "internalType": "address",
                    "name": "",
                    "type": "address"
                }
            ],
            "name": "communityCount",
            "outputs": [
                {
                    "internalType": "uint256",
                    "name": "",
                    "type": "uint256"
                }
            ],
            "stateMutability": "view",
            "type": "function"
        },
        {
            "inputs": [],
            "name": "decimals",
            "outputs": [
                {
                    "internalType": "uint8",
                    "name": "",
                    "type": "uint8"
                }
            ],
            "stateMutability": "view",
            "type": "function"
        },
        {
            "inputs": [],
            "name": "ecoAddress",
            "outputs": [
                {
                    "internalType": "address",
                    "name": "",
                    "type": "address"
                }
            ],
            "stateMutability": "view",
            "type": "function"
        },
        {
            "inputs": [],
            "name": "feeAddress",
            "outputs": [
                {
                    "internalType": "address",
                    "name": "",
                    "type": "address"
                }
            ],
            "stateMutability": "view",
            "type": "function"
        },
        {
            "inputs": [],
            "name": "getNodeAddress",
            "outputs": [
                {
                    "internalType": "address[]",
                    "name": "",
                    "type": "address[]"
                }
            ],
            "stateMutability": "view",
            "type": "function"
        },
        {
            "inputs": [],
            "name": "getNodeFeeTotalAmount",
            "outputs": [
                {
                    "internalType": "uint256",
                    "name": "",
                    "type": "uint256"
                }
            ],
            "stateMutability": "view",
            "type": "function"
        },
        {
            "inputs": [
                {
                    "internalType": "address",
                    "name": "addr",
                    "type": "address"
                }
            ],
            "name": "getPledgeReceiptRelation",
            "outputs": [
                {
                    "internalType": "uint256",
                    "name": "",
                    "type": "uint256"
                }
            ],
            "stateMutability": "view",
            "type": "function"
        },
        {
            "inputs": [],
            "name": "getReserves",
            "outputs": [
                {
                    "internalType": "uint256",
                    "name": "",
                    "type": "uint256"
                },
                {
                    "internalType": "uint256",
                    "name": "",
                    "type": "uint256"
                }
            ],
            "stateMutability": "view",
            "type": "function"
        },
        {
            "inputs": [],
            "name": "initialize",
            "outputs": [],
            "stateMutability": "nonpayable",
            "type": "function"
        },
        {
            "inputs": [],
            "name": "lastRewardAt",
            "outputs": [
                {
                    "internalType": "uint256",
                    "name": "",
                    "type": "uint256"
                }
            ],
            "stateMutability": "view",
            "type": "function"
        },
        {
            "inputs": [],
            "name": "liquidityProvider",
            "outputs": [
                {
                    "internalType": "address",
                    "name": "",
                    "type": "address"
                }
            ],
            "stateMutability": "view",
            "type": "function"
        },
        {
            "inputs": [],
            "name": "marketAddress",
            "outputs": [
                {
                    "internalType": "address",
                    "name": "",
                    "type": "address"
                }
            ],
            "stateMutability": "view",
            "type": "function"
        },
        {
            "inputs": [],
            "name": "maxWalletEnable",
            "outputs": [
                {
                    "internalType": "bool",
                    "name": "",
                    "type": "bool"
                }
            ],
            "stateMutability": "view",
            "type": "function"
        },
        {
            "inputs": [],
            "name": "name",
            "outputs": [
                {
                    "internalType": "string",
                    "name": "",
                    "type": "string"
                }
            ],
            "stateMutability": "view",
            "type": "function"
        },
        {
            "inputs": [
                {
                    "internalType": "uint256",
                    "name": "",
                    "type": "uint256"
                }
            ],
            "name": "nodeAddress",
            "outputs": [
                {
                    "internalType": "address",
                    "name": "",
                    "type": "address"
                }
            ],
            "stateMutability": "view",
            "type": "function"
        },
        {
            "inputs": [
                {
                    "internalType": "address",
                    "name": "",
                    "type": "address"
                }
            ],
            "name": "nodeAddressRelation",
            "outputs": [
                {
                    "internalType": "uint256",
                    "name": "",
                    "type": "uint256"
                }
            ],
            "stateMutability": "view",
            "type": "function"
        },
        {
            "inputs": [
                {
                    "internalType": "address",
                    "name": "",
                    "type": "address"
                }
            ],
            "name": "nodePledgeRelation",
            "outputs": [
                {
                    "internalType": "uint256",
                    "name": "",
                    "type": "uint256"
                }
            ],
            "stateMutability": "view",
            "type": "function"
        },
        {
            "inputs": [],
            "name": "nodeToken",
            "outputs": [
                {
                    "internalType": "contract ERC20Upgradeable",
                    "name": "",
                    "type": "address"
                }
            ],
            "stateMutability": "view",
            "type": "function"
        },
        {
            "inputs": [],
            "name": "owner",
            "outputs": [
                {
                    "internalType": "address",
                    "name": "",
                    "type": "address"
                }
            ],
            "stateMutability": "view",
            "type": "function"
        },
        {
            "inputs": [
                {
                    "internalType": "address",
                    "name": "",
                    "type": "address"
                }
            ],
            "name": "pledgeReceiptRelation",
            "outputs": [
                {
                    "internalType": "uint256",
                    "name": "",
                    "type": "uint256"
                }
            ],
            "stateMutability": "view",
            "type": "function"
        },
        {
            "inputs": [],
            "name": "proxiableUUID",
            "outputs": [
                {
                    "internalType": "bytes32",
                    "name": "",
                    "type": "bytes32"
                }
            ],
            "stateMutability": "view",
            "type": "function"
        },
        {
            "inputs": [
                {
                    "internalType": "address",
                    "name": "",
                    "type": "address"
                }
            ],
            "name": "relation",
            "outputs": [
                {
                    "internalType": "address",
                    "name": "",
                    "type": "address"
                }
            ],
            "stateMutability": "view",
            "type": "function"
        },
        {
            "inputs": [
                {
                    "internalType": "address",
                    "name": "addr",
                    "type": "address"
                }
            ],
            "name": "removePledgeNode",
            "outputs": [],
            "stateMutability": "nonpayable",
            "type": "function"
        },
        {
            "inputs": [
                {
                    "internalType": "address",
                    "name": "addr",
                    "type": "address"
                }
            ],
            "name": "removePledgeReceiptRelation",
            "outputs": [],
            "stateMutability": "nonpayable",
            "type": "function"
        },
        {
            "inputs": [],
            "name": "renounceOwnership",
            "outputs": [],
            "stateMutability": "nonpayable",
            "type": "function"
        },
        {
            "inputs": [
                {
                    "internalType": "uint256",
                    "name": "_amount",
                    "type": "uint256"
                }
            ],
            "name": "setNodeLimitAmount",
            "outputs": [],
            "stateMutability": "nonpayable",
            "type": "function"
        },
        {
            "inputs": [
                {
                    "internalType": "contract ERC20Upgradeable",
                    "name": "_token",
                    "type": "address"
                }
            ],
            "name": "setNodeToken",
            "outputs": [],
            "stateMutability": "nonpayable",
            "type": "function"
        },
        {
            "inputs": [
                {
                    "internalType": "uint256",
                    "name": "_t",
                    "type": "uint256"
                }
            ],
            "name": "setOpenTradeAt",
            "outputs": [],
            "stateMutability": "nonpayable",
            "type": "function"
        },
        {
            "inputs": [
                {
                    "internalType": "contract ERC20Upgradeable",
                    "name": "_token",
                    "type": "address"
                }
            ],
            "name": "setZToken",
            "outputs": [],
            "stateMutability": "nonpayable",
            "type": "function"
        },
        {
            "inputs": [],
            "name": "symbol",
            "outputs": [
                {
                    "internalType": "string",
                    "name": "",
                    "type": "string"
                }
            ],
            "stateMutability": "view",
            "type": "function"
        },
        {
            "inputs": [],
            "name": "totalSupply",
            "outputs": [
                {
                    "internalType": "uint256",
                    "name": "",
                    "type": "uint256"
                }
            ],
            "stateMutability": "view",
            "type": "function"
        },
        {
            "inputs": [],
            "name": "tradeFeeAmount",
            "outputs": [
                {
                    "internalType": "uint256",
                    "name": "",
                    "type": "uint256"
                }
            ],
            "stateMutability": "view",
            "type": "function"
        },
        {
            "inputs": [
                {
                    "internalType": "address",
                    "name": "to",
                    "type": "address"
                },
                {
                    "internalType": "uint256",
                    "name": "value",
                    "type": "uint256"
                }
            ],
            "name": "transfer",
            "outputs": [
                {
                    "internalType": "bool",
                    "name": "",
                    "type": "bool"
                }
            ],
            "stateMutability": "nonpayable",
            "type": "function"
        },
        {
            "inputs": [
                {
                    "internalType": "address[]",
                    "name": "_address",
                    "type": "address[]"
                },
                {
                    "internalType": "uint256[]",
                    "name": "_amounts",
                    "type": "uint256[]"
                }
            ],
            "name": "transferBatch",
            "outputs": [],
            "stateMutability": "nonpayable",
            "type": "function"
        },
        {
            "inputs": [
                {
                    "internalType": "address",
                    "name": "from",
                    "type": "address"
                },
                {
                    "internalType": "address",
                    "name": "to",
                    "type": "address"
                },
                {
                    "internalType": "uint256",
                    "name": "value",
                    "type": "uint256"
                }
            ],
            "name": "transferFrom",
            "outputs": [
                {
                    "internalType": "bool",
                    "name": "",
                    "type": "bool"
                }
            ],
            "stateMutability": "nonpayable",
            "type": "function"
        },
        {
            "inputs": [
                {
                    "internalType": "address",
                    "name": "newOwner",
                    "type": "address"
                }
            ],
            "name": "transferOwnership",
            "outputs": [],
            "stateMutability": "nonpayable",
            "type": "function"
        },
        {
            "inputs": [
                {
                    "internalType": "address",
                    "name": "newImplementation",
                    "type": "address"
                },
                {
                    "internalType": "bytes",
                    "name": "data",
                    "type": "bytes"
                }
            ],
            "name": "upgradeToAndCall",
            "outputs": [],
            "stateMutability": "payable",
            "type": "function"
        },
        {
            "stateMutability": "payable",
            "type": "receive"
        }
    ],
    "bytecode": "60a06040523060805234801562000014575f80fd5b506200001f62000025565b620000d9565b7ff0c57e16840df040f15088dc2f81fe391c3923bec73e23a9662efc9c229c6a00805468010000000000000000900460ff1615620000765760405163f92ee8a960e01b815260040160405180910390fd5b80546001600160401b0390811614620000d65780546001600160401b0319166001600160401b0390811782556040519081527fc7f505b2f371ae2175ee4913f4499e1f2633a7b5936321eed1cdaeb6115181d29060200160405180910390a15b50565b608051612c8b620001005f395f8181611bfa01528181611c230152611d620152612c8b5ff3fe6080604052600436106102c2575f3560e01c806378554a4f1161016f578063b28645a0116100d8578063dbcdf03211610092578063e98533b81161006d578063e98533b8146108b5578063e9868a58146108d4578063f2e15628146108e9578063f2fde38b146108fe575f80fd5b8063dbcdf03214610856578063dc54150414610881578063dd62ed3e14610896575f80fd5b8063b28645a01461078f578063b74de591146107ba578063bdee8c3f146107cf578063c363c3ac146107e4578063d0943e1714610803578063d7a05f0514610822575f80fd5b806395d89b411161012957806395d89b41146106ce5780639e1e1713146106e25780639f53265814610701578063a9059cbb1461072c578063ad32d4461461074b578063ad3cb1cc1461075f575f80fd5b806378554a4f146105eb5780637b49827a146106165780637cca52fe1461064a5780638129fc1c1461065f5780638da5cb5b1461067357806395623641146106af575f80fd5b80633b3e672f1161022b57806354b76b02116101e557806368961ecb116101c057806368961ecb1461057857806370a082311461059757806370dabc9e146105b6578063715018a6146105d7575f80fd5b806354b76b021461051b5780635b8bec551461053a578063664983c814610559575f80fd5b80633b3e672f1461046a5780633b8e8b97146104895780633cd691d5146104a857806341275358146104bd5780634f1ef286146104f457806352d1902d14610507575f80fd5b8063109c5e9f1161027c578063109c5e9f146103aa57806312a54b62146103c957806318160ddd146103e9578063200e76211461041c57806323b872dd14610430578063313ce5671461044f575f80fd5b80630492f055146102d557806304f60cd7146102fd57806306fdde03146103125780630902f1ac14610333578063095ea7b31461035c5780630af0e4f51461038b575f80fd5b366102d1576102cf61091d565b005b5f80fd5b3480156102e0575f80fd5b506102ea60025481565b6040519081526020015b60405180910390f35b348015610308575f80fd5b506102ea60105481565b34801561031d575f80fd5b50610326610afb565b6040516102f491906125c8565b34801561033e575f80fd5b50610347610bbb565b604080519283526020830191909152016102f4565b348015610367575f80fd5b5061037b61037636600461260e565b610bd1565b60405190151581526020016102f4565b348015610396575f80fd5b506102cf6103a5366004612638565b610bea565b3480156103b5575f80fd5b506102cf6103c436600461264f565b610bf7565b3480156103d4575f80fd5b5060075461037b90600160a01b900460ff1681565b3480156103f4575f80fd5b507f52c63247e1f47db19d5ce0460030c497f067ca4cebf71ba98eeadabe20bace02546102ea565b348015610427575f80fd5b506102cf610c21565b34801561043b575f80fd5b5061037b61044a36600461266a565b610c85565b34801561045a575f80fd5b50604051601281526020016102f4565b348015610475575f80fd5b506102cf6104843660046126f0565b610caa565b348015610494575f80fd5b506102cf6104a3366004612638565b610d0c565b3480156104b3575f80fd5b506102ea600f5481565b3480156104c8575f80fd5b50600a546104dc906001600160a01b031681565b6040516001600160a01b0390911681526020016102f4565b6102cf61050236600461276b565b610d19565b348015610512575f80fd5b506102ea610d38565b348015610526575f80fd5b506102cf61053536600461264f565b610d53565b348015610545575f80fd5b506007546104dc906001600160a01b031681565b348015610564575f80fd5b50601a546104dc906001600160a01b031681565b348015610583575f80fd5b506009546104dc906001600160a01b031681565b3480156105a2575f80fd5b506102ea6105b136600461264f565b610e50565b3480156105c1575f80fd5b506105ca610e76565b6040516102f49190612829565b3480156105e2575f80fd5b506102cf610ed6565b3480156105f6575f80fd5b506102ea61060536600461264f565b60126020525f908152604090205481565b348015610621575f80fd5b506102ea61063036600461264f565b6001600160a01b03165f9081526013602052604090205490565b348015610655575f80fd5b506102ea60035481565b34801561066a575f80fd5b506102cf610ee7565b34801561067e575f80fd5b507f9016d09d72d40fdae2fd8ceac6b6234c7706214fd39c1cd1e609a0528c199300546001600160a01b03166104dc565b3480156106ba575f80fd5b506008546104dc906001600160a01b031681565b3480156106d9575f80fd5b5061032661119c565b3480156106ed575f80fd5b506102cf6106fc36600461264f565b6111da565b34801561070c575f80fd5b506102ea61071b36600461264f565b601c6020525f908152604090205481565b348015610737575f80fd5b5061037b61074636600461260e565b611204565b348015610756575f80fd5b506019546102ea565b34801561076a575f80fd5b50610326604051806040016040528060058152602001640352e302e360dc1b81525081565b34801561079a575f80fd5b506102ea6107a936600461264f565b600c6020525f908152604090205481565b3480156107c5575f80fd5b506102ea60045481565b3480156107da575f80fd5b506102ea60185481565b3480156107ef575f80fd5b506102cf6107fe36600461264f565b61163c565b34801561080e575f80fd5b506104dc61081d366004612638565b61173a565b34801561082d575f80fd5b506104dc61083c36600461264f565b60116020525f90815260409020546001600160a01b031681565b348015610861575f80fd5b506102ea61087036600461264f565b60136020525f908152604090205481565b34801561088c575f80fd5b506102ea600e5481565b3480156108a1575f80fd5b506102ea6108b0366004612875565b611762565b3480156108c0575f80fd5b506104dc6108cf366004612638565b6117ab565b3480156108df575f80fd5b506102ea60195481565b3480156108f4575f80fd5b506102ea60145481565b348015610909575f80fd5b506102cf61091836600461264f565b6117ba565b335f908152601760205260409020544363ffffffff9091160361095b5760405162461bcd60e51b8152600401610952906128ac565b60405180910390fd5b60165442116109995760405162461bcd60e51b815260206004820152600a6024820152691b9bdd081bdc195b995960b21b6044820152606401610952565b335f908152601760205260408120805463ffffffff19164363ffffffff161790556001543491906109cb908390612911565b6109d430610e50565b6109de9084612924565b6109e8919061293b565b9050600254811115610a2c5760405162461bcd60e51b815260206004820152600d60248201526c4d6178204c696d69742042757960981b6044820152606401610952565b610a4d30336064610a3e85605f612924565b610a48919061293b565b6117f7565b6103e8610a5c836103d9612924565b610a66919061293b565b60015f828254610a769190612911565b90915550610a85905034611930565b610a8e8161197c565b610a9833826119d3565b610aa181611a18565b610aaa81611a5c565b604080513481525f60208201819052918101919091526060810182905233907f49926bbebe8474393f434dfa4f78694c0923efa07d19f2284518bfabd06eb737906080015b60405180910390a25050565b7f52c63247e1f47db19d5ce0460030c497f067ca4cebf71ba98eeadabe20bace0380546060915f80516020612c1683398151915291610b399061295a565b80601f0160208091040260200160405190810160405280929190818152602001828054610b659061295a565b8015610bb05780601f10610b8757610100808354040283529160200191610bb0565b820191905f5260205f20905b815481529060010190602001808311610b9357829003601f168201915b505050505091505090565b5f80610bc630610e50565b600154915091509091565b5f33610bde818585611ac7565b60019150505b92915050565b610bf2611ad4565b601b55565b610bff611ad4565b601a80546001600160a01b0319166001600160a01b0392909216919091179055565b610c29611ad4565b5f5b600b54811015610c7757600c5f600b8381548110610c4b57610c4b612992565b5f9182526020808320909101546001600160a01b03168352820192909252604001812055600101610c2b565b50610c83600b5f612578565b565b5f33610c92858285611b2f565b610c9d858585611b92565b60019150505b9392505050565b5f5b83811015610d0557610cfd33868684818110610cca57610cca612992565b9050602002016020810190610cdf919061264f565b858585818110610cf157610cf1612992565b905060200201356117f7565b600101610cac565b5050505050565b610d14611ad4565b601655565b610d21611bef565b610d2a82611c93565b610d348282611c9b565b5050565b5f610d41611d57565b505f80516020612c3683398151915290565b601a546001600160a01b03163314610d9d5760405162461bcd60e51b815260206004820152600d60248201526c2737903832b936b4b9b9b4b7b760991b6044820152606401610952565b6001600160a01b0381165f908152601c602052604090205480610ded5760405162461bcd60e51b81526020600482015260086024820152676e6f74206e6f646560c01b6044820152606401610952565b601a54610e04906001600160a01b03168383611b92565b6001600160a01b0382165f818152601c602052604080822091909155517f149945b658abf4363ebf80372b6e1de817b54560d0ed54c8c93ee68165053a3290610aef9084815260200190565b6001600160a01b03165f9081525f80516020612c16833981519152602052604090205490565b6060600b805480602002602001604051908101604052809291908181526020018280548015610ecc57602002820191905f5260205f20905b81546001600160a01b03168152600190910190602001808311610eae575b5050505050905090565b610ede611ad4565b610c835f611da0565b7ff0c57e16840df040f15088dc2f81fe391c3923bec73e23a9662efc9c229c6a008054600160401b810460ff16159067ffffffffffffffff165f81158015610f2c5750825b90505f8267ffffffffffffffff166001148015610f485750303b155b905081158015610f56575080155b15610f745760405163f92ee8a960e01b815260040160405180910390fd5b845467ffffffffffffffff191660011785558315610f9e57845460ff60401b1916600160401b1785555b610fde60405180604001604052806003815260200162212a1960e91b81525060405180604001604052806003815260200162212a1960e91b815250611e10565b610fea6012600a612a86565b610ff890633b023380612924565b5f556110066012600a612a86565b611012906104b0612924565b6001556110216012600a612a86565b61102e9062989680612924565b60045561103d6012600a612a86565b61104a906207a120612924565b600f556110596012600a612a86565b6110659061c350612924565b6003556110746012600a612a86565b6110819062030d40612924565b600255600980546001600160a01b03199081167398a8790028c6476b740be640627a62496e5d616b17909155600880548216737a6ca6a66b7ca223ecd10ef837895f7a32e902d4179055600a805490911673bedddae2062f0b573ec72562f88da141a67b70b21790556110f333611e22565b6110fb611e33565b61111e3061110b6012600a612a86565b61111990631a39de00612924565b611e3b565b600954611148906001600160a01b031661113a6012600a612a86565b611119906320c85580612924565b63664995606016558315610d0557845460ff60401b19168555604051600181527fc7f505b2f371ae2175ee4913f4499e1f2633a7b5936321eed1cdaeb6115181d29060200160405180910390a15050505050565b7f52c63247e1f47db19d5ce0460030c497f067ca4cebf71ba98eeadabe20bace0480546060915f80516020612c1683398151915291610b399061295a565b6111e2611ad4565b601580546001600160a01b0319166001600160a01b0392909216919091179055565b5f33306001600160a01b038516036112245761121f83611e6f565b610bde565b6015546001600160a01b039081169085160361143f576112466012600a612a86565b61125290617530612924565b83148061127657506112666012600a612a86565b61127390620186a0612924565b83145b8061129857506112886012600a612a86565b61129590620493e0612924565b83145b806112ba57506112aa6012600a612a86565b6112b7906207a120612924565b83145b6112f75760405162461bcd60e51b815260206004820152600e60248201526d33772f3130772f3330772f35307760901b6044820152606401610952565b6001600160a01b0381165f908152601360205260409020541561134e5760405162461bcd60e51b815260206004820152600f60248201526e105b1c9958591e481c1b195919d959608a1b6044820152606401610952565b611359818585611b92565b6001600160a01b038082165f9081526013602052604090208490556015541663a9059cbb8261138a6113888761293b565b6040516001600160e01b031960e085901b1681526001600160a01b03909216600483015260248201526044016020604051808303815f875af11580156113d2573d5f803e3d5ffd5b505050506040513d601f19601f820116820180604052508101906113f69190612a94565b50806001600160a01b03167f5e91ea8ea1c46300eb761859be01d7b16d44389ef91e03a163a87413cbf55b958460405161143291815260200190565b60405180910390a2610bde565b601a546001600160a01b03908116908516036115b257601b54831461148c5760405162461bcd60e51b815260206004820152600360248201526235307760e81b6044820152606401610952565b6001600160a01b0381165f908152601c6020526040902054156114e35760405162461bcd60e51b815260206004820152600f60248201526e416c7265616479206973206e6f646560881b6044820152606401610952565b6114ee818585611b92565b6001600160a01b038181165f818152601c602052604090819020869055601a54905163a9059cbb60e01b81526004810192909252600160248301529091169063a9059cbb906044016020604051808303815f875af1158015611552573d5f803e3d5ffd5b505050506040513d601f19601f820116820180604052508101906115769190612a94565b50806001600160a01b03167fa844f2843ee10dd8932814ae91496b5da7126ba8aab2caf747d1c81060118f538460405161143291815260200190565b5f6115bf60066012612ab3565b6115ca90600a612a86565b6115d5906001612924565b90506115e082610e50565b840361161c57806115f083610e50565b1115611611578061160083610e50565b61160a9190612acc565b935061161c565b600192505050610be4565b6116278286866117f7565b6116318286612155565b506001949350505050565b6015546001600160a01b031633146116865760405162461bcd60e51b815260206004820152600d60248201526c2737903832b936b4b9b9b4b7b760991b6044820152606401610952565b6001600160a01b0381165f90815260136020526040902054806116d75760405162461bcd60e51b81526020600482015260096024820152686e6f20706c6564676560b81b6044820152606401610952565b6015546116ee906001600160a01b03168383611b92565b6001600160a01b0382165f8181526013602052604080822091909155517f7c1499da310db315606891cff45c8999e67bc58b9fa507440dd5c02506d64de090610aef9084815260200190565b600d8181548110611749575f80fd5b5f918252602090912001546001600160a01b0316905081565b6001600160a01b039182165f9081527f52c63247e1f47db19d5ce0460030c497f067ca4cebf71ba98eeadabe20bace016020908152604080832093909416825291909152205490565b600b8181548110611749575f80fd5b6117c2611ad4565b6001600160a01b0381166117eb57604051631e4fbdf760e01b81525f6004820152602401610952565b6117f481611da0565b50565b5f80516020612c168339815191526001600160a01b0384166118315781816002015f8282546118269190612911565b909155506118a19050565b6001600160a01b0384165f90815260208290526040902054828110156118835760405163391434e360e21b81526001600160a01b03861660048201526024810182905260448101849052606401610952565b6001600160a01b0385165f9081526020839052604090209083900390555b6001600160a01b0383166118bf5760028101805483900390556118dd565b6001600160a01b0383165f9081526020829052604090208054830190555b826001600160a01b0316846001600160a01b03167fddf252ad1be2c89b69c2b068fc378daa952ba7f163c4a11628f55a4df523b3ef8460405161192291815260200190565b60405180910390a350505050565b6008546001600160a01b03166108fc6103e861194d84600f612924565b611957919061293b565b6040518115909202915f818181858888f19350505050158015610d34573d5f803e3d5ffd5b5f6103e861198b83600f612924565b611995919061293b565b600b549091505f036119b957600a54610d349030906001600160a01b0316836117f7565b8060195f8282546119ca9190612911565b90915550505050565b6001600160a01b038083165f908152601160205260409020541680611a005750600a546001600160a01b03165b611a1330826103e8610a3e86600a612924565b505050565b5f6064611a26836005612924565b611a30919061293b565b600954909150611a4b9030906001600160a01b0316836117f7565b8060105f8282546119ca9190612911565b5f6103e8611a6b83600a612924565b611a75919061293b565b9050600454815f54611a879190612acc565b1015611a9f576004545f54611a9c9190612acc565b90505b5f81118015611ab5575080611ab330610e50565b115b15610d3457610d343061dead836117f7565b611a138383836001612226565b33611b067f9016d09d72d40fdae2fd8ceac6b6234c7706214fd39c1cd1e609a0528c199300546001600160a01b031690565b6001600160a01b031614610c835760405163118cdaa760e01b8152336004820152602401610952565b5f611b3a8484611762565b90505f198114611b8c5781811015611b7e57604051637dc7a0d960e11b81526001600160a01b03841660048201526024810182905260448101839052606401610952565b611b8c84848484035f612226565b50505050565b6001600160a01b038316611bbb57604051634b637e8f60e11b81525f6004820152602401610952565b6001600160a01b038216611be45760405163ec442f0560e01b81525f6004820152602401610952565b611a138383836117f7565b306001600160a01b037f0000000000000000000000000000000000000000000000000000000000000000161480611c7557507f00000000000000000000000000000000000000000000000000000000000000006001600160a01b0316611c695f80516020612c36833981519152546001600160a01b031690565b6001600160a01b031614155b15610c835760405163703e46dd60e11b815260040160405180910390fd5b6117f4611ad4565b816001600160a01b03166352d1902d6040518163ffffffff1660e01b8152600401602060405180830381865afa925050508015611cf5575060408051601f3d908101601f19168201909252611cf291810190612adf565b60015b611d1d57604051634c9c8ce360e01b81526001600160a01b0383166004820152602401610952565b5f80516020612c368339815191528114611d4d57604051632a87526960e21b815260048101829052602401610952565b611a138383612309565b306001600160a01b037f00000000000000000000000000000000000000000000000000000000000000001614610c835760405163703e46dd60e11b815260040160405180910390fd5b7f9016d09d72d40fdae2fd8ceac6b6234c7706214fd39c1cd1e609a0528c19930080546001600160a01b031981166001600160a01b03848116918217845560405192169182907f8be0079c531659141344cd1fd0a4f28419497f9722a3daafe3b4186f6b6457e0905f90a3505050565b611e1861235e565b610d3482826123a7565b611e2a61235e565b6117f4816123f7565b610c8361235e565b6001600160a01b038216611e645760405163ec442f0560e01b81525f6004820152602401610952565b610d345f83836117f7565b335f908152601760205260409020544363ffffffff90911603611ea45760405162461bcd60e51b8152600401610952906128ac565b335f908152601760205260409020805463ffffffff19164363ffffffff16179055600354811115611f085760405162461bcd60e51b815260206004820152600e60248201526d13585e08131a5b5a5d0814d95b1b60921b6044820152606401610952565b5f611f1560066012612ab3565b611f2090600a612a86565b611f2b906001612924565b9050611f3633610e50565b8203611f4957611f468183612acc565b91505b5f82611f5430610e50565b611f5e9190612911565b600154611f6b9085612924565b611f75919061293b565b90505f8111611fbc5760405162461bcd60e51b815260206004820152601360248201527253656c6c20616d6f756e7420746f6f206c6f7760681b6044820152606401610952565b80600154101561200e5760405162461bcd60e51b815260206004820152601c60248201527f496e73756666696369656e7420424e4220696e207265736572766573000000006044820152606401610952565b8047101561205e5760405162461bcd60e51b815260206004820152601b60248201527f496e73756666696369656e7420424e4220696e2062616c616e636500000000006044820152606401610952565b6120693330856117f7565b6103e8612078826103c5612924565b612082919061293b565b60015f8282546120929190612acc565b909155506120a1905081611930565b6120aa8361197c565b6120b433846119d3565b6120bd83611a18565b6120c683611a5c565b336108fc60646120d784605f612924565b6120e1919061293b565b6040518115909202915f818181858888f19350505050158015612106573d5f803e3d5ffd5b50604080515f808252602082018690528183018490526060820152905133917f49926bbebe8474393f434dfa4f78694c0923efa07d19f2284518bfabd06eb737919081900360800190a2505050565b6001600160a01b038181165f908152601160205260409020541615801561218e5750806001600160a01b0316826001600160a01b031614155b80156121a357506001600160a01b0381163014155b80156121bd57506008546001600160a01b03828116911614155b80156121d757506009546001600160a01b03828116911614155b80156121f15750600a546001600160a01b03828116911614155b15610d34576001600160a01b039081165f90815260116020526040902080546001600160a01b03191692909116919091179055565b5f80516020612c168339815191526001600160a01b03851661225d5760405163e602df0560e01b81525f6004820152602401610952565b6001600160a01b03841661228657604051634a1406b160e11b81525f6004820152602401610952565b6001600160a01b038086165f90815260018301602090815260408083209388168352929052208390558115610d0557836001600160a01b0316856001600160a01b03167f8c5be1e5ebec7d5bd14f71427d1e84f3dd0314c0f7b2291e5b200ac8c7c3b925856040516122fa91815260200190565b60405180910390a35050505050565b612312826123ff565b6040516001600160a01b038316907fbc7cd75a20ee27fd9adebab32041f755214dbc6bffa90cc0225b39da2e5c2d3b905f90a280511561235657611a138282612462565b610d346124d4565b7ff0c57e16840df040f15088dc2f81fe391c3923bec73e23a9662efc9c229c6a0054600160401b900460ff16610c8357604051631afcd79f60e31b815260040160405180910390fd5b6123af61235e565b5f80516020612c168339815191527f52c63247e1f47db19d5ce0460030c497f067ca4cebf71ba98eeadabe20bace036123e88482612b3a565b5060048101611b8c8382612b3a565b6117c261235e565b806001600160a01b03163b5f0361243457604051634c9c8ce360e01b81526001600160a01b0382166004820152602401610952565b5f80516020612c3683398151915280546001600160a01b0319166001600160a01b0392909216919091179055565b60605f80846001600160a01b03168460405161247e9190612bfa565b5f60405180830381855af49150503d805f81146124b6576040519150601f19603f3d011682016040523d82523d5f602084013e6124bb565b606091505b50915091506124cb8583836124f3565b95945050505050565b3415610c835760405163b398979f60e01b815260040160405180910390fd5b606082612508576125038261254f565b610ca3565b815115801561251f57506001600160a01b0384163b155b1561254857604051639996b31560e01b81526001600160a01b0385166004820152602401610952565b5080610ca3565b80511561255f5780518082602001fd5b604051630a12f52160e11b815260040160405180910390fd5b5080545f8255905f5260205f20908101906117f491905b808211156125a2575f815560010161258f565b5090565b5f5b838110156125c05781810151838201526020016125a8565b50505f910152565b602081525f82518060208401526125e68160408501602087016125a6565b601f01601f19169190910160400192915050565b6001600160a01b03811681146117f4575f80fd5b5f806040838503121561261f575f80fd5b823561262a816125fa565b946020939093013593505050565b5f60208284031215612648575f80fd5b5035919050565b5f6020828403121561265f575f80fd5b8135610ca3816125fa565b5f805f6060848603121561267c575f80fd5b8335612687816125fa565b92506020840135612697816125fa565b929592945050506040919091013590565b5f8083601f8401126126b8575f80fd5b50813567ffffffffffffffff8111156126cf575f80fd5b6020830191508360208260051b85010111156126e9575f80fd5b9250929050565b5f805f8060408587031215612703575f80fd5b843567ffffffffffffffff8082111561271a575f80fd5b612726888389016126a8565b9096509450602087013591508082111561273e575f80fd5b5061274b878288016126a8565b95989497509550505050565b634e487b7160e01b5f52604160045260245ffd5b5f806040838503121561277c575f80fd5b8235612787816125fa565b9150602083013567ffffffffffffffff808211156127a3575f80fd5b818501915085601f8301126127b6575f80fd5b8135818111156127c8576127c8612757565b604051601f8201601f19908116603f011681019083821181831017156127f0576127f0612757565b81604052828152886020848701011115612808575f80fd5b826020860160208301375f6020848301015280955050505050509250929050565b602080825282518282018190525f9190848201906040850190845b818110156128695783516001600160a01b031683529284019291840191600101612844565b50909695505050505050565b5f8060408385031215612886575f80fd5b8235612891816125fa565b915060208301356128a1816125fa565b809150509250929050565b60208082526031908201527f596f752063616e2774206d616b652074776f207472616e73616374696f6e7320604082015270696e207468652073616d6520626c6f636b60781b606082015260800190565b634e487b7160e01b5f52601160045260245ffd5b80820180821115610be457610be46128fd565b8082028115828204841417610be457610be46128fd565b5f8261295557634e487b7160e01b5f52601260045260245ffd5b500490565b600181811c9082168061296e57607f821691505b60208210810361298c57634e487b7160e01b5f52602260045260245ffd5b50919050565b634e487b7160e01b5f52603260045260245ffd5b600181815b808511156129e057815f19048211156129c6576129c66128fd565b808516156129d357918102915b93841c93908002906129ab565b509250929050565b5f826129f657506001610be4565b81612a0257505f610be4565b8160018114612a185760028114612a2257612a3e565b6001915050610be4565b60ff841115612a3357612a336128fd565b50506001821b610be4565b5060208310610133831016604e8410600b8410161715612a61575081810a610be4565b612a6b83836129a6565b805f1904821115612a7e57612a7e6128fd565b029392505050565b5f610ca360ff8416836129e8565b5f60208284031215612aa4575f80fd5b81518015158114610ca3575f80fd5b60ff8281168282160390811115610be457610be46128fd565b81810381811115610be457610be46128fd565b5f60208284031215612aef575f80fd5b5051919050565b601f821115611a1357805f5260205f20601f840160051c81016020851015612b1b5750805b601f840160051c820191505b81811015610d05575f8155600101612b27565b815167ffffffffffffffff811115612b5457612b54612757565b612b6881612b62845461295a565b84612af6565b602080601f831160018114612b9b575f8415612b845750858301515b5f19600386901b1c1916600185901b178555612bf2565b5f85815260208120601f198616915b82811015612bc957888601518255948401946001909101908401612baa565b5085821015612be657878501515f19600388901b60f8161c191681555b505060018460011b0185555b505050505050565b5f8251612c0b8184602087016125a6565b919091019291505056fe52c63247e1f47db19d5ce0460030c497f067ca4cebf71ba98eeadabe20bace00360894a13ba1a3210667c828492db98dca3e2076cc3735a920a3ca505d382bbca2646970667358221220b47b99c02931db13d3a23b2cfd4e53835ad60fd764e305d43b4912bf3c3aeb0364736f6c63430008180033",
    "sourcePath": "/Users/janly/data/solidity/UUPSNew/contracts/BT2.sol",
    "compiler": {
        "name": "solc",
        "version": "0.8.24+commit.e11b9ed9"
    },
    "functionHashes": {
        "UPGRADE_INTERFACE_VERSION()": "ad3cb1cc",
        "_fireStopAmount()": "b74de591",
        "_lastNodeIndex()": "bdee8c3f",
        "_maxBuyAmount()": "0492f055",
        "_maxSellAmount()": "7cca52fe",
        "_nodeFeeTotalAmount()": "e9868a58",
        "_nodeLimitAmount()": "3cd691d5",
        "allowance(address,address)": "dd62ed3e",
        "approve(address,uint256)": "095ea7b3",
        "balanceOf(address)": "70a08231",
        "cleanNode()": "200e7621",
        "communityAddress(uint256)": "d0943e17",
        "communityBonus()": "dc541504",
        "communityCount(address)": "78554a4f",
        "decimals()": "313ce567",
        "ecoAddress()": "68961ecb",
        "feeAddress()": "41275358",
        "getNodeAddress()": "70dabc9e",
        "getNodeFeeTotalAmount()": "ad32d446",
        "getPledgeReceiptRelation(address)": "7b49827a",
        "getReserves()": "0902f1ac",
        "initialize()": "8129fc1c",
        "lastRewardAt()": "f2e15628",
        "liquidityProvider()": "5b8bec55",
        "marketAddress()": "95623641",
        "maxWalletEnable()": "12a54b62",
        "name()": "06fdde03",
        "nodeAddress(uint256)": "e98533b8",
        "nodeAddressRelation(address)": "b28645a0",
        "nodePledgeRelation(address)": "9f532658",
        "nodeToken()": "664983c8",
        "owner()": "8da5cb5b",
        "pledgeReceiptRelation(address)": "dbcdf032",
        "proxiableUUID()": "52d1902d",
        "relation(address)": "d7a05f05",
        "removePledgeNode(address)": "54b76b02",
        "removePledgeReceiptRelation(address)": "c363c3ac",
        "renounceOwnership()": "715018a6",
        "setNodeLimitAmount(uint256)": "0af0e4f5",
        "setNodeToken(address)": "109c5e9f",
        "setOpenTradeAt(uint256)": "3b8e8b97",
        "setZToken(address)": "9e1e1713",
        "symbol()": "95d89b41",
        "totalSupply()": "18160ddd",
        "tradeFeeAmount()": "04f60cd7",
        "transfer(address,uint256)": "a9059cbb",
        "transferBatch(address[],uint256[])": "3b3e672f",
        "transferFrom(address,address,uint256)": "23b872dd",
        "transferOwnership(address)": "f2fde38b",
        "upgradeToAndCall(address,bytes)": "4f1ef286"
    },
    "gasEstimates": {
        "creation": {
            "codeDepositCost": "2280600",
            "executionCost": "infinite",
            "totalCost": "infinite"
        },
        "external": {
            "UPGRADE_INTERFACE_VERSION()": "infinite",
            "_fireStopAmount()": "2350",
            "_lastNodeIndex()": "2372",
            "_maxBuyAmount()": "2330",
            "_maxSellAmount()": "2373",
            "_nodeFeeTotalAmount()": "2371",
            "_nodeLimitAmount()": "2373",
            "allowance(address,address)": "infinite",
            "approve(address,uint256)": "infinite",
            "balanceOf(address)": "infinite",
            "cleanNode()": "infinite",
            "communityAddress(uint256)": "4744",
            "communityBonus()": "2372",
            "communityCount(address)": "2545",
            "decimals()": "332",
            "ecoAddress()": "2403",
            "feeAddress()": "2448",
            "getNodeAddress()": "infinite",
            "getNodeFeeTotalAmount()": "2413",
            "getPledgeReceiptRelation(address)": "2585",
            "getReserves()": "infinite",
            "initialize()": "infinite",
            "lastRewardAt()": "2393",
            "liquidityProvider()": "2426",
            "marketAddress()": "2492",
            "maxWalletEnable()": "2394",
            "name()": "infinite",
            "nodeAddress(uint256)": "4677",
            "nodeAddressRelation(address)": "2544",
            "nodePledgeRelation(address)": "2588",
            "nodeToken()": "2448",
            "owner()": "2464",
            "pledgeReceiptRelation(address)": "2566",
            "proxiableUUID()": "infinite",
            "relation(address)": "2704",
            "removePledgeNode(address)": "infinite",
            "removePledgeReceiptRelation(address)": "infinite",
            "renounceOwnership()": "infinite",
            "setNodeLimitAmount(uint256)": "24676",
            "setNodeToken(address)": "26806",
            "setOpenTradeAt(uint256)": "24587",
            "setZToken(address)": "26827",
            "symbol()": "infinite",
            "totalSupply()": "2370",
            "tradeFeeAmount()": "2352",
            "transfer(address,uint256)": "infinite",
            "transferBatch(address[],uint256[])": "infinite",
            "transferFrom(address,address,uint256)": "infinite",
            "transferOwnership(address)": "infinite",
            "upgradeToAndCall(address,bytes)": "infinite"
        },
        "internal": {
            "_authorizeUpgrade(address)": "infinite",
            "_bindRelation(address,address)": "33176",
            "_fireHandler(uint256)": "infinite",
            "_marketHandler(uint256)": "infinite",
            "_nodeHandler(uint256)": "infinite",
            "_relationHandler(address,uint256)": "infinite",
            "_tradeFee(uint256)": "infinite",
            "buy()": "infinite",
            "sell(uint256)": "infinite"
        }
    }
}