{
    "contractName": "BT2",
    "abi": [
        {
            "inputs": [],
            "stateMutability": "nonpayable",
            "type": "constructor"
        },
        {
            "inputs": [
                {
                    "internalType": "address",
                    "name": "target",
                    "type": "address"
                }
            ],
            "name": "AddressEmptyCode",
            "type": "error"
        },
        {
            "inputs": [
                {
                    "internalType": "address",
                    "name": "implementation",
                    "type": "address"
                }
            ],
            "name": "ERC1967InvalidImplementation",
            "type": "error"
        },
        {
            "inputs": [],
            "name": "ERC1967NonPayable",
            "type": "error"
        },
        {
            "inputs": [
                {
                    "internalType": "address",
                    "name": "spender",
                    "type": "address"
                },
                {
                    "internalType": "uint256",
                    "name": "allowance",
                    "type": "uint256"
                },
                {
                    "internalType": "uint256",
                    "name": "needed",
                    "type": "uint256"
                }
            ],
            "name": "ERC20InsufficientAllowance",
            "type": "error"
        },
        {
            "inputs": [
                {
                    "internalType": "address",
                    "name": "sender",
                    "type": "address"
                },
                {
                    "internalType": "uint256",
                    "name": "balance",
                    "type": "uint256"
                },
                {
                    "internalType": "uint256",
                    "name": "needed",
                    "type": "uint256"
                }
            ],
            "name": "ERC20InsufficientBalance",
            "type": "error"
        },
        {
            "inputs": [
                {
                    "internalType": "address",
                    "name": "approver",
                    "type": "address"
                }
            ],
            "name": "ERC20InvalidApprover",
            "type": "error"
        },
        {
            "inputs": [
                {
                    "internalType": "address",
                    "name": "receiver",
                    "type": "address"
                }
            ],
            "name": "ERC20InvalidReceiver",
            "type": "error"
        },
        {
            "inputs": [
                {
                    "internalType": "address",
                    "name": "sender",
                    "type": "address"
                }
            ],
            "name": "ERC20InvalidSender",
            "type": "error"
        },
        {
            "inputs": [
                {
                    "internalType": "address",
                    "name": "spender",
                    "type": "address"
                }
            ],
            "name": "ERC20InvalidSpender",
            "type": "error"
        },
        {
            "inputs": [],
            "name": "FailedInnerCall",
            "type": "error"
        },
        {
            "inputs": [],
            "name": "InvalidInitialization",
            "type": "error"
        },
        {
            "inputs": [],
            "name": "NotInitializing",
            "type": "error"
        },
        {
            "inputs": [
                {
                    "internalType": "address",
                    "name": "owner",
                    "type": "address"
                }
            ],
            "name": "OwnableInvalidOwner",
            "type": "error"
        },
        {
            "inputs": [
                {
                    "internalType": "address",
                    "name": "account",
                    "type": "address"
                }
            ],
            "name": "OwnableUnauthorizedAccount",
            "type": "error"
        },
        {
            "inputs": [],
            "name": "UUPSUnauthorizedCallContext",
            "type": "error"
        },
        {
            "inputs": [
                {
                    "internalType": "bytes32",
                    "name": "slot",
                    "type": "bytes32"
                }
            ],
            "name": "UUPSUnsupportedProxiableUUID",
            "type": "error"
        },
        {
            "anonymous": false,
            "inputs": [
                {
                    "indexed": false,
                    "internalType": "uint32",
                    "name": "_blockToUnlockLiquidity",
                    "type": "uint32"
                },
                {
                    "indexed": false,
                    "internalType": "uint256",
                    "name": "value",
                    "type": "uint256"
                }
            ],
            "name": "AddLiquidity",
            "type": "event"
        },
        {
            "anonymous": false,
            "inputs": [
                {
                    "indexed": true,
                    "internalType": "address",
                    "name": "owner",
                    "type": "address"
                },
                {
                    "indexed": true,
                    "internalType": "address",
                    "name": "spender",
                    "type": "address"
                },
                {
                    "indexed": false,
                    "internalType": "uint256",
                    "name": "value",
                    "type": "uint256"
                }
            ],
            "name": "Approval",
            "type": "event"
        },
        {
            "anonymous": false,
            "inputs": [
                {
                    "indexed": false,
                    "internalType": "uint64",
                    "name": "version",
                    "type": "uint64"
                }
            ],
            "name": "Initialized",
            "type": "event"
        },
        {
            "anonymous": false,
            "inputs": [
                {
                    "indexed": true,
                    "internalType": "address",
                    "name": "previousOwner",
                    "type": "address"
                },
                {
                    "indexed": true,
                    "internalType": "address",
                    "name": "newOwner",
                    "type": "address"
                }
            ],
            "name": "OwnershipTransferred",
            "type": "event"
        },
        {
            "anonymous": false,
            "inputs": [
                {
                    "indexed": true,
                    "internalType": "address",
                    "name": "sender",
                    "type": "address"
                },
                {
                    "indexed": false,
                    "internalType": "uint256",
                    "name": "value",
                    "type": "uint256"
                }
            ],
            "name": "Pledge",
            "type": "event"
        },
        {
            "anonymous": false,
            "inputs": [
                {
                    "indexed": false,
                    "internalType": "uint256",
                    "name": "value",
                    "type": "uint256"
                }
            ],
            "name": "RemoveLiquidity",
            "type": "event"
        },
        {
            "anonymous": false,
            "inputs": [
                {
                    "indexed": true,
                    "internalType": "address",
                    "name": "sender",
                    "type": "address"
                },
                {
                    "indexed": false,
                    "internalType": "uint256",
                    "name": "value",
                    "type": "uint256"
                }
            ],
            "name": "RemovePledge",
            "type": "event"
        },
        {
            "anonymous": false,
            "inputs": [
                {
                    "indexed": true,
                    "internalType": "address",
                    "name": "sender",
                    "type": "address"
                },
                {
                    "indexed": false,
                    "internalType": "uint256",
                    "name": "amount0In",
                    "type": "uint256"
                },
                {
                    "indexed": false,
                    "internalType": "uint256",
                    "name": "amount1In",
                    "type": "uint256"
                },
                {
                    "indexed": false,
                    "internalType": "uint256",
                    "name": "amount0Out",
                    "type": "uint256"
                },
                {
                    "indexed": false,
                    "internalType": "uint256",
                    "name": "amount1Out",
                    "type": "uint256"
                }
            ],
            "name": "Swap",
            "type": "event"
        },
        {
            "anonymous": false,
            "inputs": [
                {
                    "indexed": true,
                    "internalType": "address",
                    "name": "from",
                    "type": "address"
                },
                {
                    "indexed": true,
                    "internalType": "address",
                    "name": "to",
                    "type": "address"
                },
                {
                    "indexed": false,
                    "internalType": "uint256",
                    "name": "value",
                    "type": "uint256"
                }
            ],
            "name": "Transfer",
            "type": "event"
        },
        {
            "anonymous": false,
            "inputs": [
                {
                    "indexed": true,
                    "internalType": "address",
                    "name": "implementation",
                    "type": "address"
                }
            ],
            "name": "Upgraded",
            "type": "event"
        },
        {
            "inputs": [],
            "name": "UPGRADE_INTERFACE_VERSION",
            "outputs": [
                {
                    "internalType": "string",
                    "name": "",
                    "type": "string"
                }
            ],
            "stateMutability": "view",
            "type": "function"
        },
        {
            "inputs": [],
            "name": "_fireStopAmount",
            "outputs": [
                {
                    "internalType": "uint256",
                    "name": "",
                    "type": "uint256"
                }
            ],
            "stateMutability": "view",
            "type": "function"
        },
        {
            "inputs": [],
            "name": "_maxSellAmount",
            "outputs": [
                {
                    "internalType": "uint256",
                    "name": "",
                    "type": "uint256"
                }
            ],
            "stateMutability": "view",
            "type": "function"
        },
        {
            "inputs": [],
            "name": "_maxWallet",
            "outputs": [
                {
                    "internalType": "uint256",
                    "name": "",
                    "type": "uint256"
                }
            ],
            "stateMutability": "view",
            "type": "function"
        },
        {
            "inputs": [],
            "name": "_nodeLimitAmount",
            "outputs": [
                {
                    "internalType": "uint256",
                    "name": "",
                    "type": "uint256"
                }
            ],
            "stateMutability": "view",
            "type": "function"
        },
        {
            "inputs": [
                {
                    "internalType": "address",
                    "name": "owner",
                    "type": "address"
                },
                {
                    "internalType": "address",
                    "name": "spender",
                    "type": "address"
                }
            ],
            "name": "allowance",
            "outputs": [
                {
                    "internalType": "uint256",
                    "name": "",
                    "type": "uint256"
                }
            ],
            "stateMutability": "view",
            "type": "function"
        },
        {
            "inputs": [
                {
                    "internalType": "address",
                    "name": "spender",
                    "type": "address"
                },
                {
                    "internalType": "uint256",
                    "name": "value",
                    "type": "uint256"
                }
            ],
            "name": "approve",
            "outputs": [
                {
                    "internalType": "bool",
                    "name": "",
                    "type": "bool"
                }
            ],
            "stateMutability": "nonpayable",
            "type": "function"
        },
        {
            "inputs": [
                {
                    "internalType": "address",
                    "name": "account",
                    "type": "address"
                }
            ],
            "name": "balanceOf",
            "outputs": [
                {
                    "internalType": "uint256",
                    "name": "",
                    "type": "uint256"
                }
            ],
            "stateMutability": "view",
            "type": "function"
        },
        {
            "inputs": [
                {
                    "internalType": "uint256",
                    "name": "",
                    "type": "uint256"
                }
            ],
            "name": "communityAddress",
            "outputs": [
                {
                    "internalType": "address",
                    "name": "",
                    "type": "address"
                }
            ],
            "stateMutability": "view",
            "type": "function"
        },
        {
            "inputs": [],
            "name": "communityBonus",
            "outputs": [
                {
                    "internalType": "uint256",
                    "name": "",
                    "type": "uint256"
                }
            ],
            "stateMutability": "view",
            "type": "function"
        },
        {
            "inputs": [
                {
                    "internalType": "address",
                    "name": "",
                    "type": "address"
                }
            ],
            "name": "communityCount",
            "outputs": [
                {
                    "internalType": "uint256",
                    "name": "",
                    "type": "uint256"
                }
            ],
            "stateMutability": "view",
            "type": "function"
        },
        {
            "inputs": [],
            "name": "decimals",
            "outputs": [
                {
                    "internalType": "uint8",
                    "name": "",
                    "type": "uint8"
                }
            ],
            "stateMutability": "view",
            "type": "function"
        },
        {
            "inputs": [],
            "name": "ecoAddress",
            "outputs": [
                {
                    "internalType": "address",
                    "name": "",
                    "type": "address"
                }
            ],
            "stateMutability": "view",
            "type": "function"
        },
        {
            "inputs": [
                {
                    "internalType": "bool",
                    "name": "_maxWalletEnable",
                    "type": "bool"
                }
            ],
            "name": "enableMaxWallet",
            "outputs": [],
            "stateMutability": "nonpayable",
            "type": "function"
        },
        {
            "inputs": [],
            "name": "feeAddress",
            "outputs": [
                {
                    "internalType": "address",
                    "name": "",
                    "type": "address"
                }
            ],
            "stateMutability": "view",
            "type": "function"
        },
        {
            "inputs": [
                {
                    "internalType": "uint256",
                    "name": "value",
                    "type": "uint256"
                },
                {
                    "internalType": "bool",
                    "name": "_buy",
                    "type": "bool"
                }
            ],
            "name": "getAmountOut",
            "outputs": [
                {
                    "internalType": "uint256",
                    "name": "",
                    "type": "uint256"
                }
            ],
            "stateMutability": "view",
            "type": "function"
        },
        {
            "inputs": [],
            "name": "getNodeAddress",
            "outputs": [
                {
                    "internalType": "address[]",
                    "name": "",
                    "type": "address[]"
                }
            ],
            "stateMutability": "view",
            "type": "function"
        },
        {
            "inputs": [
                {
                    "internalType": "address",
                    "name": "addr",
                    "type": "address"
                }
            ],
            "name": "getPledgeReceiptRelation",
            "outputs": [
                {
                    "internalType": "uint256",
                    "name": "",
                    "type": "uint256"
                }
            ],
            "stateMutability": "view",
            "type": "function"
        },
        {
            "inputs": [],
            "name": "getReserves",
            "outputs": [
                {
                    "internalType": "uint256",
                    "name": "",
                    "type": "uint256"
                },
                {
                    "internalType": "uint256",
                    "name": "",
                    "type": "uint256"
                }
            ],
            "stateMutability": "view",
            "type": "function"
        },
        {
            "inputs": [],
            "name": "initialize",
            "outputs": [],
            "stateMutability": "nonpayable",
            "type": "function"
        },
        {
            "inputs": [],
            "name": "lastRewardAt",
            "outputs": [
                {
                    "internalType": "uint256",
                    "name": "",
                    "type": "uint256"
                }
            ],
            "stateMutability": "view",
            "type": "function"
        },
        {
            "inputs": [],
            "name": "liquidityProvider",
            "outputs": [
                {
                    "internalType": "address",
                    "name": "",
                    "type": "address"
                }
            ],
            "stateMutability": "view",
            "type": "function"
        },
        {
            "inputs": [],
            "name": "marketAddress",
            "outputs": [
                {
                    "internalType": "address",
                    "name": "",
                    "type": "address"
                }
            ],
            "stateMutability": "view",
            "type": "function"
        },
        {
            "inputs": [],
            "name": "maxWalletEnable",
            "outputs": [
                {
                    "internalType": "bool",
                    "name": "",
                    "type": "bool"
                }
            ],
            "stateMutability": "view",
            "type": "function"
        },
        {
            "inputs": [],
            "name": "name",
            "outputs": [
                {
                    "internalType": "string",
                    "name": "",
                    "type": "string"
                }
            ],
            "stateMutability": "view",
            "type": "function"
        },
        {
            "inputs": [
                {
                    "internalType": "uint256",
                    "name": "",
                    "type": "uint256"
                }
            ],
            "name": "nodeAddress",
            "outputs": [
                {
                    "internalType": "address",
                    "name": "",
                    "type": "address"
                }
            ],
            "stateMutability": "view",
            "type": "function"
        },
        {
            "inputs": [],
            "name": "owner",
            "outputs": [
                {
                    "internalType": "address",
                    "name": "",
                    "type": "address"
                }
            ],
            "stateMutability": "view",
            "type": "function"
        },
        {
            "inputs": [
                {
                    "internalType": "address",
                    "name": "",
                    "type": "address"
                }
            ],
            "name": "pledgeReceiptRelation",
            "outputs": [
                {
                    "internalType": "uint256",
                    "name": "",
                    "type": "uint256"
                }
            ],
            "stateMutability": "view",
            "type": "function"
        },
        {
            "inputs": [],
            "name": "proxiableUUID",
            "outputs": [
                {
                    "internalType": "bytes32",
                    "name": "",
                    "type": "bytes32"
                }
            ],
            "stateMutability": "view",
            "type": "function"
        },
        {
            "inputs": [
                {
                    "internalType": "address",
                    "name": "",
                    "type": "address"
                }
            ],
            "name": "relation",
            "outputs": [
                {
                    "internalType": "address",
                    "name": "",
                    "type": "address"
                }
            ],
            "stateMutability": "view",
            "type": "function"
        },
        {
            "inputs": [
                {
                    "internalType": "uint256",
                    "name": "index",
                    "type": "uint256"
                }
            ],
            "name": "removeNodeAddress",
            "outputs": [],
            "stateMutability": "nonpayable",
            "type": "function"
        },
        {
            "inputs": [
                {
                    "internalType": "address",
                    "name": "addr",
                    "type": "address"
                }
            ],
            "name": "removePledgeReceiptRelation",
            "outputs": [],
            "stateMutability": "nonpayable",
            "type": "function"
        },
        {
            "inputs": [],
            "name": "renounceOwnership",
            "outputs": [],
            "stateMutability": "nonpayable",
            "type": "function"
        },
        {
            "inputs": [
                {
                    "internalType": "uint256",
                    "name": "sell_amount",
                    "type": "uint256"
                }
            ],
            "name": "sell",
            "outputs": [],
            "stateMutability": "nonpayable",
            "type": "function"
        },
        {
            "inputs": [
                {
                    "internalType": "uint256",
                    "name": "_maxWallet_",
                    "type": "uint256"
                }
            ],
            "name": "setMaxWallet",
            "outputs": [],
            "stateMutability": "nonpayable",
            "type": "function"
        },
        {
            "inputs": [
                {
                    "internalType": "address",
                    "name": "addr",
                    "type": "address"
                },
                {
                    "internalType": "bool",
                    "name": "flag",
                    "type": "bool"
                }
            ],
            "name": "setWhiteAddress",
            "outputs": [],
            "stateMutability": "nonpayable",
            "type": "function"
        },
        {
            "inputs": [
                {
                    "internalType": "address",
                    "name": "addr",
                    "type": "address"
                }
            ],
            "name": "setZToken",
            "outputs": [],
            "stateMutability": "nonpayable",
            "type": "function"
        },
        {
            "inputs": [],
            "name": "symbol",
            "outputs": [
                {
                    "internalType": "string",
                    "name": "",
                    "type": "string"
                }
            ],
            "stateMutability": "view",
            "type": "function"
        },
        {
            "inputs": [],
            "name": "totalSupply",
            "outputs": [
                {
                    "internalType": "uint256",
                    "name": "",
                    "type": "uint256"
                }
            ],
            "stateMutability": "view",
            "type": "function"
        },
        {
            "inputs": [
                {
                    "internalType": "address",
                    "name": "to",
                    "type": "address"
                },
                {
                    "internalType": "uint256",
                    "name": "value",
                    "type": "uint256"
                }
            ],
            "name": "transfer",
            "outputs": [
                {
                    "internalType": "bool",
                    "name": "",
                    "type": "bool"
                }
            ],
            "stateMutability": "nonpayable",
            "type": "function"
        },
        {
            "inputs": [
                {
                    "internalType": "address[]",
                    "name": "_address",
                    "type": "address[]"
                },
                {
                    "internalType": "uint256[]",
                    "name": "_amounts",
                    "type": "uint256[]"
                }
            ],
            "name": "transferBNBBatch",
            "outputs": [],
            "stateMutability": "nonpayable",
            "type": "function"
        },
        {
            "inputs": [
                {
                    "internalType": "address",
                    "name": "from",
                    "type": "address"
                },
                {
                    "internalType": "address",
                    "name": "to",
                    "type": "address"
                },
                {
                    "internalType": "uint256",
                    "name": "value",
                    "type": "uint256"
                }
            ],
            "name": "transferFrom",
            "outputs": [
                {
                    "internalType": "bool",
                    "name": "",
                    "type": "bool"
                }
            ],
            "stateMutability": "nonpayable",
            "type": "function"
        },
        {
            "inputs": [
                {
                    "internalType": "address",
                    "name": "newOwner",
                    "type": "address"
                }
            ],
            "name": "transferOwnership",
            "outputs": [],
            "stateMutability": "nonpayable",
            "type": "function"
        },
        {
            "inputs": [
                {
                    "internalType": "address",
                    "name": "newImplementation",
                    "type": "address"
                },
                {
                    "internalType": "bytes",
                    "name": "data",
                    "type": "bytes"
                }
            ],
            "name": "upgradeToAndCall",
            "outputs": [],
            "stateMutability": "payable",
            "type": "function"
        },
        {
            "stateMutability": "payable",
            "type": "receive"
        }
    ],
    "bytecode": "60a06040523060805234801562000014575f80fd5b506200001f62000025565b620000d9565b7ff0c57e16840df040f15088dc2f81fe391c3923bec73e23a9662efc9c229c6a00805468010000000000000000900460ff1615620000765760405163f92ee8a960e01b815260040160405180910390fd5b80546001600160401b0390811614620000d65780546001600160401b0319166001600160401b0390811782556040519081527fc7f505b2f371ae2175ee4913f4499e1f2633a7b5936321eed1cdaeb6115181d29060200160405180910390a15b50565b608051612aeb620001005f395f8181611cf701528181611d200152611e5f0152612aeb5ff3fe608060405260043610610262575f3560e01c80637cca52fe1161013f578063c363c3ac116100b3578063dd62ed3e11610078578063dd62ed3e14610773578063e4849b3214610792578063e98533b8146107b1578063f2e15628146107d0578063f2fde38b146107e5578063f3e0194214610804575f80fd5b8063c363c3ac146106c1578063d0943e17146106e0578063d7a05f05146106ff578063dbcdf03214610733578063dc5415041461075e575f80fd5b806395d89b411161010457806395d89b411461060b5780639e1e17131461061f578063a9059cbb1461063e578063ad3cb1cc1461065d578063ae19139e1461068d578063b74de591146106ac575f80fd5b80637cca52fe146105725780638129fc1c1461058757806382247ec01461059b5780638da5cb5b146105b057806395623641146105ec575f80fd5b806341275358116101d657806368961ecb1161019b57806368961ecb146104a057806370a08231146104bf57806370dabc9e146104de578063715018a6146104ff57806378554a4f146105135780637b49827a1461053e575f80fd5b806341275358146104045780634f1ef2861461043b57806352d1902d1461044e5780635b8bec55146104625780635d0044ca14610481575f80fd5b806312a54b621161022757806312a54b621461034357806318160ddd1461036357806323b872dd14610396578063313ce567146103b55780633a5fe70b146103d05780633cd691d5146103ef575f80fd5b806306fdde031461027557806307c621511461029f5780630902f1ac146102be578063095ea7b3146102e757806311106ee214610316575f80fd5b366102715761026f610823565b005b5f80fd5b348015610280575f80fd5b506102896109f7565b60405161029691906123b1565b60405180910390f35b3480156102aa575f80fd5b5061026f6102b936600461240b565b610ab7565b3480156102c9575f80fd5b506102d2610ae9565b60408051928352602083019190915201610296565b3480156102f2575f80fd5b50610306610301366004612440565b610aff565b6040519015158152602001610296565b348015610321575f80fd5b50610335610330366004612468565b610b18565b604051908152602001610296565b34801561034e575f80fd5b5060075461030690600160a01b900460ff1681565b34801561036e575f80fd5b507f52c63247e1f47db19d5ce0460030c497f067ca4cebf71ba98eeadabe20bace0254610335565b3480156103a1575f80fd5b506103066103b036600461248b565b610b68565b3480156103c0575f80fd5b5060405160128152602001610296565b3480156103db575f80fd5b5061026f6103ea36600461250c565b610b8d565b3480156103fa575f80fd5b50610335600e5481565b34801561040f575f80fd5b50600a54610423906001600160a01b031681565b6040516001600160a01b039091168152602001610296565b61026f610449366004612587565b610c4d565b348015610459575f80fd5b50610335610c6c565b34801561046d575f80fd5b50600754610423906001600160a01b031681565b34801561048c575f80fd5b5061026f61049b366004612643565b610c87565b3480156104ab575f80fd5b50600954610423906001600160a01b031681565b3480156104ca575f80fd5b506103356104d936600461265a565b610c94565b3480156104e9575f80fd5b506104f2610cba565b6040516102969190612673565b34801561050a575f80fd5b5061026f610d1a565b34801561051e575f80fd5b5061033561052d36600461265a565b60106020525f908152604090205481565b348015610549575f80fd5b5061033561055836600461265a565b6001600160a01b03165f9081526011602052604090205490565b34801561057d575f80fd5b5061033560035481565b348015610592575f80fd5b5061026f610d2d565b3480156105a6575f80fd5b5061033560025481565b3480156105bb575f80fd5b507f9016d09d72d40fdae2fd8ceac6b6234c7706214fd39c1cd1e609a0528c199300546001600160a01b0316610423565b3480156105f7575f80fd5b50600854610423906001600160a01b031681565b348015610616575f80fd5b50610289610fe5565b34801561062a575f80fd5b5061026f61063936600461265a565b611023565b348015610649575f80fd5b50610306610658366004612440565b61104d565b348015610668575f80fd5b50610289604051806040016040528060058152602001640352e302e360dc1b81525081565b348015610698575f80fd5b5061026f6106a73660046126bf565b611301565b3480156106b7575f80fd5b5061033560045481565b3480156106cc575f80fd5b5061026f6106db36600461265a565b611327565b3480156106eb575f80fd5b506104236106fa366004612643565b611439565b34801561070a575f80fd5b5061042361071936600461265a565b600f6020525f90815260409020546001600160a01b031681565b34801561073e575f80fd5b5061033561074d36600461265a565b60116020525f908152604090205481565b348015610769575f80fd5b50610335600d5481565b34801561077e575f80fd5b5061033561078d3660046126da565b611461565b34801561079d575f80fd5b5061026f6107ac366004612643565b6114aa565b3480156107bc575f80fd5b506104236107cb366004612643565b6116fa565b3480156107db575f80fd5b5061033560135481565b3480156107f0575f80fd5b5061026f6107ff36600461265a565b611709565b34801561080f575f80fd5b5061026f61081e366004612643565b611746565b335f908152601560205260409020544363ffffffff909116036108615760405162461bcd60e51b81526004016108589061270b565b60405180910390fd5b335f908152601560205260408120805463ffffffff19164363ffffffff16179055600154349190610893908390612770565b61089c30610c94565b6108a69084612783565b6108b0919061279a565b600754909150600160a01b900460ff161561091f576002546108d133610c94565b6108db9083612770565b111561091f5760405162461bcd60e51b815260206004820152601360248201527213585e081dd85b1b195d08195e18d959591959606a1b6044820152606401610858565b6109403033606461093185605f612783565b61093b919061279a565b6117f0565b6103e861094f836103d9612783565b610959919061279a565b60015f8282546109699190612770565b90915550610978905034611929565b61098181611975565b61098b3382611a89565b61099481611ace565b61099d33611b01565b6109a681611b61565b604080513481525f60208201819052918101919091526060810182905233907f49926bbebe8474393f434dfa4f78694c0923efa07d19f2284518bfabd06eb737906080015b60405180910390a25050565b7f52c63247e1f47db19d5ce0460030c497f067ca4cebf71ba98eeadabe20bace0380546060915f80516020612a7683398151915291610a35906127b9565b80601f0160208091040260200160405190810160405280929190818152602001828054610a61906127b9565b8015610aac5780601f10610a8357610100808354040283529160200191610aac565b820191905f5260205f20905b815481529060010190602001808311610a8f57829003601f168201915b505050505091505090565b610abf611bca565b6001600160a01b03919091165f908152601260205260409020805460ff1916911515919091179055565b5f80600154610af730610c94565b915091509091565b5f33610b0c818585611c25565b60019150505b92915050565b5f805f610b23610ae9565b915091508315610b5457610b378583612770565b610b418287612783565b610b4b919061279a565b92505050610b12565b610b5e8582612770565b610b418387612783565b5f33610b75858285611c32565b610b80858585611c8f565b60019150505b9392505050565b335f9081526012602052604090205460ff16610beb5760405162461bcd60e51b815260206004820152601f60248201527f63616c6c6572206973206e6f74207468652077686974652061646472657373006044820152606401610858565b5f5b83811015610c4657610c3e30868684818110610c0b57610c0b6127f1565b9050602002016020810190610c20919061265a565b858585818110610c3257610c326127f1565b905060200201356117f0565b600101610bed565b5050505050565b610c55611cec565b610c5e82611d90565b610c688282611d98565b5050565b5f610c75611e54565b505f80516020612a9683398151915290565b610c8f611bca565b600255565b6001600160a01b03165f9081525f80516020612a76833981519152602052604090205490565b6060600b805480602002602001604051908101604052809291908181526020018280548015610d1057602002820191905f5260205f20905b81546001600160a01b03168152600190910190602001808311610cf2575b5050505050905090565b610d22611bca565b610d2b5f611e9d565b565b7ff0c57e16840df040f15088dc2f81fe391c3923bec73e23a9662efc9c229c6a008054600160401b810460ff16159067ffffffffffffffff165f81158015610d725750825b90505f8267ffffffffffffffff166001148015610d8e5750303b155b905081158015610d9c575080155b15610dba5760405163f92ee8a960e01b815260040160405180910390fd5b845467ffffffffffffffff191660011785558315610de457845460ff60401b1916600160401b1785555b610e286040518060400160405280600781526020016626bcaa37b5b2b760c91b815250604051806040016040528060038152602001624d544b60e81b815250611f0d565b610e346012600a6128d6565b610e4290633b023380612783565b5f55610e506012600a6128d6565b610e5c906104b0612783565b600155610e6b6012600a6128d6565b610e789062989680612783565b600455610e876012600a6128d6565b610e94906207a120612783565b600255610ea36012600a6128d6565b610eb0906207a120612783565b600e55610ebf6012600a6128d6565b610ecb9061c350612783565b600355600980546001600160a01b03199081167398a8790028c6476b740be640627a62496e5d616b179091556007805460ff60a01b1916600160a01b179055600880548216737a6ca6a66b7ca223ecd10ef837895f7a32e902d4179055600a805490911673bedddae2062f0b573ec72562f88da141a67b70b2179055610f5033611f1f565b610f58611f30565b610f7b30610f686012600a6128d6565b610f7690631a39de00612783565b611f38565b610f9933610f8b6012600a6128d6565b610f76906320c85580612783565b8315610c4657845460ff60401b19168555604051600181527fc7f505b2f371ae2175ee4913f4499e1f2633a7b5936321eed1cdaeb6115181d29060200160405180910390a15050505050565b7f52c63247e1f47db19d5ce0460030c497f067ca4cebf71ba98eeadabe20bace0480546060915f80516020612a7683398151915291610a35906127b9565b61102b611bca565b601480546001600160a01b0319166001600160a01b0392909216919091179055565b5f306001600160a01b0384160361106c57611067826114aa565b6112f8565b6014546001600160a01b039081169084160361126f5761108e6012600a6128d6565b61109a90617530612783565b8214806110be57506110ae6012600a6128d6565b6110bb90620186a0612783565b82145b806110e057506110d06012600a6128d6565b6110dd90620493e0612783565b82145b8061110257506110f26012600a6128d6565b6110ff906207a120612783565b82145b61113f5760405162461bcd60e51b815260206004820152600e60248201526d33772f3130772f3330772f35307760901b6044820152606401610858565b335f908152601160205260409020541561118d5760405162461bcd60e51b815260206004820152600f60248201526e105b1c9958591e481c1b195919d959608a1b6044820152606401610858565b611198338484611c8f565b335f8181526011602052604090208390556014546001600160a01b03169063a9059cbb906111c86113888661279a565b6040516001600160e01b031960e085901b1681526001600160a01b03909216600483015260248201526044016020604051808303815f875af1158015611210573d5f803e3d5ffd5b505050506040513d601f19601f8201168201806040525081019061123491906128e4565b5060405182815233907f5e91ea8ea1c46300eb761859be01d7b16d44389ef91e03a163a87413cbf55b959060200160405180910390a26112f8565b5f61127c600660126128ff565b61128790600a6128d6565b611292906001612783565b905061129d33610c94565b83036112d857806112ad33610c94565b11156112ce57806112bd33610c94565b6112c79190612918565b92506112d8565b6001915050610b12565b6112e33385856117f0565b6112ec84611b01565b6112f63385611f6c565b505b50600192915050565b611309611bca565b60078054911515600160a01b0260ff60a01b19909216919091179055565b335f9081526012602052604090205460ff166113855760405162461bcd60e51b815260206004820152601f60248201527f63616c6c6572206973206e6f74207468652077686974652061646472657373006044820152606401610858565b6001600160a01b0381165f90815260116020526040902054806113d65760405162461bcd60e51b81526020600482015260096024820152686e6f20706c6564676560b81b6044820152606401610858565b6014546113ed906001600160a01b03168383611c8f565b6001600160a01b0382165f8181526011602052604080822091909155517f7c1499da310db315606891cff45c8999e67bc58b9fa507440dd5c02506d64de0906109eb9084815260200190565b600c8181548110611448575f80fd5b5f918252602090912001546001600160a01b0316905081565b6001600160a01b039182165f9081527f52c63247e1f47db19d5ce0460030c497f067ca4cebf71ba98eeadabe20bace016020908152604080832093909416825291909152205490565b335f908152601560205260409020544363ffffffff909116036114df5760405162461bcd60e51b81526004016108589061270b565b335f908152601560205260409020805463ffffffff19164363ffffffff161790556003548111156115435760405162461bcd60e51b815260206004820152600e60248201526d13585e08131a5b5a5d0814d95b1b60921b6044820152606401610858565b5f8161154e30610c94565b6115589190612770565b6001546115659084612783565b61156f919061279a565b90505f81116115b65760405162461bcd60e51b815260206004820152601360248201527253656c6c20616d6f756e7420746f6f206c6f7760681b6044820152606401610858565b8060015410156116085760405162461bcd60e51b815260206004820152601c60248201527f496e73756666696369656e7420424e4220696e207265736572766573000000006044820152606401610858565b6116133330846117f0565b6103e8611622826103c5612783565b61162c919061279a565b60015f82825461163c9190612918565b9091555061164b905081611929565b61165482611975565b61165e3383611a89565b61166782611ace565b61167082611b61565b336108fc606461168184605f612783565b61168b919061279a565b6040518115909202915f818181858888f193505050501580156116b0573d5f803e3d5ffd5b50604080515f80825260208201859052918101839052606081019190915233907f49926bbebe8474393f434dfa4f78694c0923efa07d19f2284518bfabd06eb737906080016109eb565b600b8181548110611448575f80fd5b611711611bca565b6001600160a01b03811661173a57604051631e4fbdf760e01b81525f6004820152602401610858565b61174381611e9d565b50565b600b805461175690600190612918565b81548110611766576117666127f1565b5f91825260209091200154600b80546001600160a01b039092169183908110611791576117916127f1565b905f5260205f20015f6101000a8154816001600160a01b0302191690836001600160a01b03160217905550600b8054806117cd576117cd61292b565b5f8281526020902081015f1990810180546001600160a01b031916905501905550565b5f80516020612a768339815191526001600160a01b03841661182a5781816002015f82825461181f9190612770565b9091555061189a9050565b6001600160a01b0384165f908152602082905260409020548281101561187c5760405163391434e360e21b81526001600160a01b03861660048201526024810182905260448101849052606401610858565b6001600160a01b0385165f9081526020839052604090209083900390555b6001600160a01b0383166118b85760028101805483900390556118d6565b6001600160a01b0383165f9081526020829052604090208054830190555b826001600160a01b0316846001600160a01b03167fddf252ad1be2c89b69c2b068fc378daa952ba7f163c4a11628f55a4df523b3ef8460405161191b91815260200190565b60405180910390a350505050565b6008546001600160a01b03166108fc6103e861194684600f612783565b611950919061279a565b6040518115909202915f818181858888f19350505050158015610c68573d5f803e3d5ffd5b5f6103e861198483600f612783565b61198e919061279a565b600b549091505f036119b257600a54610c689030906001600160a01b0316836117f0565b600b545f906119c1908361279a565b90505f5b600b54811015611a83575f6001600160a01b0316600b82815481106119ec576119ec6127f1565b5f918252602090912001546001600160a01b031614611a7b57600e54611a37600b8381548110611a1e57611a1e6127f1565b5f918252602090912001546001600160a01b0316610c94565b10611a7257611a6d30600b8381548110611a5357611a536127f1565b5f918252602090912001546001600160a01b0316846117f0565b611a7b565b611a7b81611746565b6001016119c5565b50505050565b6001600160a01b038083165f908152600f60205260409020541680611ab65750600a546001600160a01b03165b611ac930826103e861093186600a612783565b505050565b5f6064611adc836005612783565b611ae6919061279a565b600954909150610c689030906001600160a01b0316836117f0565b600e54611b0d82610c94565b1061174357600b80546001810182555f919091527f0175b7a638427703f0dbe7bb9bbf987a2551717b34e79f33b5b1008d1fa01db90180546001600160a01b0383166001600160a01b031990911617905550565b5f6103e8611b7083600a612783565b611b7a919061279a565b9050600454815f54611b8c9190612918565b1015611ba4576004545f54611ba19190612918565b90505b5f81118015611bba575080611bb830610c94565b115b15610c6857610c68305f836117f0565b33611bfc7f9016d09d72d40fdae2fd8ceac6b6234c7706214fd39c1cd1e609a0528c199300546001600160a01b031690565b6001600160a01b031614610d2b5760405163118cdaa760e01b8152336004820152602401610858565b611ac9838383600161203d565b5f611c3d8484611461565b90505f198114611a835781811015611c8157604051637dc7a0d960e11b81526001600160a01b03841660048201526024810182905260448101839052606401610858565b611a8384848484035f61203d565b6001600160a01b038316611cb857604051634b637e8f60e11b81525f6004820152602401610858565b6001600160a01b038216611ce15760405163ec442f0560e01b81525f6004820152602401610858565b611ac98383836117f0565b306001600160a01b037f0000000000000000000000000000000000000000000000000000000000000000161480611d7257507f00000000000000000000000000000000000000000000000000000000000000006001600160a01b0316611d665f80516020612a96833981519152546001600160a01b031690565b6001600160a01b031614155b15610d2b5760405163703e46dd60e11b815260040160405180910390fd5b611743611bca565b816001600160a01b03166352d1902d6040518163ffffffff1660e01b8152600401602060405180830381865afa925050508015611df2575060408051601f3d908101601f19168201909252611def9181019061293f565b60015b611e1a57604051634c9c8ce360e01b81526001600160a01b0383166004820152602401610858565b5f80516020612a968339815191528114611e4a57604051632a87526960e21b815260048101829052602401610858565b611ac98383612120565b306001600160a01b037f00000000000000000000000000000000000000000000000000000000000000001614610d2b5760405163703e46dd60e11b815260040160405180910390fd5b7f9016d09d72d40fdae2fd8ceac6b6234c7706214fd39c1cd1e609a0528c19930080546001600160a01b031981166001600160a01b03848116918217845560405192169182907f8be0079c531659141344cd1fd0a4f28419497f9722a3daafe3b4186f6b6457e0905f90a3505050565b611f15612175565b610c6882826121be565b611f27612175565b6117438161220e565b610d2b612175565b6001600160a01b038216611f615760405163ec442f0560e01b81525f6004820152602401610858565b610c685f83836117f0565b6001600160a01b038181165f908152600f602052604090205416158015611fa55750806001600160a01b0316826001600160a01b031614155b8015611fba57506001600160a01b0381163014155b8015611fd457506008546001600160a01b03828116911614155b8015611fee57506009546001600160a01b03828116911614155b80156120085750600a546001600160a01b03828116911614155b15610c68576001600160a01b039081165f908152600f6020526040902080546001600160a01b03191692909116919091179055565b5f80516020612a768339815191526001600160a01b0385166120745760405163e602df0560e01b81525f6004820152602401610858565b6001600160a01b03841661209d57604051634a1406b160e11b81525f6004820152602401610858565b6001600160a01b038086165f90815260018301602090815260408083209388168352929052208390558115610c4657836001600160a01b0316856001600160a01b03167f8c5be1e5ebec7d5bd14f71427d1e84f3dd0314c0f7b2291e5b200ac8c7c3b9258560405161211191815260200190565b60405180910390a35050505050565b61212982612216565b6040516001600160a01b038316907fbc7cd75a20ee27fd9adebab32041f755214dbc6bffa90cc0225b39da2e5c2d3b905f90a280511561216d57611ac98282612279565b610c686122eb565b7ff0c57e16840df040f15088dc2f81fe391c3923bec73e23a9662efc9c229c6a0054600160401b900460ff16610d2b57604051631afcd79f60e31b815260040160405180910390fd5b6121c6612175565b5f80516020612a768339815191527f52c63247e1f47db19d5ce0460030c497f067ca4cebf71ba98eeadabe20bace036121ff848261299a565b5060048101611a83838261299a565b611711612175565b806001600160a01b03163b5f0361224b57604051634c9c8ce360e01b81526001600160a01b0382166004820152602401610858565b5f80516020612a9683398151915280546001600160a01b0319166001600160a01b0392909216919091179055565b60605f80846001600160a01b0316846040516122959190612a5a565b5f60405180830381855af49150503d805f81146122cd576040519150601f19603f3d011682016040523d82523d5f602084013e6122d2565b606091505b50915091506122e285838361230a565b95945050505050565b3415610d2b5760405163b398979f60e01b815260040160405180910390fd5b60608261231f5761231a82612366565b610b86565b815115801561233657506001600160a01b0384163b155b1561235f57604051639996b31560e01b81526001600160a01b0385166004820152602401610858565b5080610b86565b8051156123765780518082602001fd5b604051630a12f52160e11b815260040160405180910390fd5b5f5b838110156123a9578181015183820152602001612391565b50505f910152565b602081525f82518060208401526123cf81604085016020870161238f565b601f01601f19169190910160400192915050565b80356001600160a01b03811681146123f9575f80fd5b919050565b8015158114611743575f80fd5b5f806040838503121561241c575f80fd5b612425836123e3565b91506020830135612435816123fe565b809150509250929050565b5f8060408385031215612451575f80fd5b61245a836123e3565b946020939093013593505050565b5f8060408385031215612479575f80fd5b823591506020830135612435816123fe565b5f805f6060848603121561249d575f80fd5b6124a6846123e3565b92506124b4602085016123e3565b9150604084013590509250925092565b5f8083601f8401126124d4575f80fd5b50813567ffffffffffffffff8111156124eb575f80fd5b6020830191508360208260051b8501011115612505575f80fd5b9250929050565b5f805f806040858703121561251f575f80fd5b843567ffffffffffffffff80821115612536575f80fd5b612542888389016124c4565b9096509450602087013591508082111561255a575f80fd5b50612567878288016124c4565b95989497509550505050565b634e487b7160e01b5f52604160045260245ffd5b5f8060408385031215612598575f80fd5b6125a1836123e3565b9150602083013567ffffffffffffffff808211156125bd575f80fd5b818501915085601f8301126125d0575f80fd5b8135818111156125e2576125e2612573565b604051601f8201601f19908116603f0116810190838211818310171561260a5761260a612573565b81604052828152886020848701011115612622575f80fd5b826020860160208301375f6020848301015280955050505050509250929050565b5f60208284031215612653575f80fd5b5035919050565b5f6020828403121561266a575f80fd5b610b86826123e3565b602080825282518282018190525f9190848201906040850190845b818110156126b35783516001600160a01b03168352928401929184019160010161268e565b50909695505050505050565b5f602082840312156126cf575f80fd5b8135610b86816123fe565b5f80604083850312156126eb575f80fd5b6126f4836123e3565b9150612702602084016123e3565b90509250929050565b60208082526031908201527f596f752063616e2774206d616b652074776f207472616e73616374696f6e7320604082015270696e207468652073616d6520626c6f636b60781b606082015260800190565b634e487b7160e01b5f52601160045260245ffd5b80820180821115610b1257610b1261275c565b8082028115828204841417610b1257610b1261275c565b5f826127b457634e487b7160e01b5f52601260045260245ffd5b500490565b600181811c908216806127cd57607f821691505b6020821081036127eb57634e487b7160e01b5f52602260045260245ffd5b50919050565b634e487b7160e01b5f52603260045260245ffd5b600181815b8085111561283f57815f19048211156128255761282561275c565b8085161561283257918102915b93841c939080029061280a565b509250929050565b5f8261285557506001610b12565b8161286157505f610b12565b81600181146112ce576002810361288e5760ff8411156128835761288361275c565b50506001821b610b12565b5060208310610133831016604e8410600b84101617156128b1575081810a610b12565b6128bb8383612805565b805f19048211156128ce576128ce61275c565b029392505050565b5f610b8660ff841683612847565b5f602082840312156128f4575f80fd5b8151610b86816123fe565b60ff8281168282160390811115610b1257610b1261275c565b81810381811115610b1257610b1261275c565b634e487b7160e01b5f52603160045260245ffd5b5f6020828403121561294f575f80fd5b5051919050565b601f821115611ac957805f5260205f20601f840160051c8101602085101561297b5750805b601f840160051c820191505b81811015610c46575f8155600101612987565b815167ffffffffffffffff8111156129b4576129b4612573565b6129c8816129c284546127b9565b84612956565b602080601f8311600181146129fb575f84156129e45750858301515b5f19600386901b1c1916600185901b178555612a52565b5f85815260208120601f198616915b82811015612a2957888601518255948401946001909101908401612a0a565b5085821015612a4657878501515f19600388901b60f8161c191681555b505060018460011b0185555b505050505050565b5f8251612a6b81846020870161238f565b919091019291505056fe52c63247e1f47db19d5ce0460030c497f067ca4cebf71ba98eeadabe20bace00360894a13ba1a3210667c828492db98dca3e2076cc3735a920a3ca505d382bbca2646970667358221220f706677528c92262dba1b3d6038aa7139bf33cb2bb92e239f54aa8069fa12b4464736f6c63430008180033",
    "sourcePath": "/Users/janly/data/solidity/UUPSNew/contracts/BT2.sol",
    "compiler": {
        "name": "solc",
        "version": "0.8.24+commit.e11b9ed9"
    },
    "functionHashes": {
        "UPGRADE_INTERFACE_VERSION()": "ad3cb1cc",
        "_fireStopAmount()": "b74de591",
        "_maxSellAmount()": "7cca52fe",
        "_maxWallet()": "82247ec0",
        "_nodeLimitAmount()": "3cd691d5",
        "allowance(address,address)": "dd62ed3e",
        "approve(address,uint256)": "095ea7b3",
        "balanceOf(address)": "70a08231",
        "communityAddress(uint256)": "d0943e17",
        "communityBonus()": "dc541504",
        "communityCount(address)": "78554a4f",
        "decimals()": "313ce567",
        "ecoAddress()": "68961ecb",
        "enableMaxWallet(bool)": "ae19139e",
        "feeAddress()": "41275358",
        "getAmountOut(uint256,bool)": "11106ee2",
        "getNodeAddress()": "70dabc9e",
        "getPledgeReceiptRelation(address)": "7b49827a",
        "getReserves()": "0902f1ac",
        "initialize()": "8129fc1c",
        "lastRewardAt()": "f2e15628",
        "liquidityProvider()": "5b8bec55",
        "marketAddress()": "95623641",
        "maxWalletEnable()": "12a54b62",
        "name()": "06fdde03",
        "nodeAddress(uint256)": "e98533b8",
        "owner()": "8da5cb5b",
        "pledgeReceiptRelation(address)": "dbcdf032",
        "proxiableUUID()": "52d1902d",
        "relation(address)": "d7a05f05",
        "removeNodeAddress(uint256)": "f3e01942",
        "removePledgeReceiptRelation(address)": "c363c3ac",
        "renounceOwnership()": "715018a6",
        "sell(uint256)": "e4849b32",
        "setMaxWallet(uint256)": "5d0044ca",
        "setWhiteAddress(address,bool)": "07c62151",
        "setZToken(address)": "9e1e1713",
        "symbol()": "95d89b41",
        "totalSupply()": "18160ddd",
        "transfer(address,uint256)": "a9059cbb",
        "transferBNBBatch(address[],uint256[])": "3a5fe70b",
        "transferFrom(address,address,uint256)": "23b872dd",
        "transferOwnership(address)": "f2fde38b",
        "upgradeToAndCall(address,bytes)": "4f1ef286"
    },
    "gasEstimates": {
        "creation": {
            "codeDepositCost": "2197400",
            "executionCost": "infinite",
            "totalCost": "infinite"
        },
        "external": {
            "UPGRADE_INTERFACE_VERSION()": "infinite",
            "_fireStopAmount()": "2449",
            "_maxSellAmount()": "2340",
            "_maxWallet()": "2384",
            "_nodeLimitAmount()": "2450",
            "allowance(address,address)": "infinite",
            "approve(address,uint256)": "infinite",
            "balanceOf(address)": "infinite",
            "communityAddress(uint256)": "4678",
            "communityBonus()": "2427",
            "communityCount(address)": "2649",
            "decimals()": "288",
            "ecoAddress()": "2381",
            "enableMaxWallet(bool)": "26877",
            "feeAddress()": "2382",
            "getAmountOut(uint256,bool)": "infinite",
            "getNodeAddress()": "infinite",
            "getPledgeReceiptRelation(address)": "2689",
            "getReserves()": "infinite",
            "initialize()": "infinite",
            "lastRewardAt()": "2404",
            "liquidityProvider()": "2448",
            "marketAddress()": "2470",
            "maxWalletEnable()": "2372",
            "name()": "infinite",
            "nodeAddress(uint256)": "4699",
            "owner()": "2442",
            "pledgeReceiptRelation(address)": "2627",
            "proxiableUUID()": "infinite",
            "relation(address)": "2644",
            "removeNodeAddress(uint256)": "81865",
            "removePledgeReceiptRelation(address)": "infinite",
            "renounceOwnership()": "infinite",
            "sell(uint256)": "infinite",
            "setMaxWallet(uint256)": "24653",
            "setWhiteAddress(address,bool)": "26986",
            "setZToken(address)": "26833",
            "symbol()": "infinite",
            "totalSupply()": "2359",
            "transfer(address,uint256)": "infinite",
            "transferBNBBatch(address[],uint256[])": "infinite",
            "transferFrom(address,address,uint256)": "infinite",
            "transferOwnership(address)": "28497",
            "upgradeToAndCall(address,bytes)": "infinite"
        },
        "internal": {
            "_authorizeUpgrade(address)": "infinite",
            "_bindRelation(address,address)": "33176",
            "_fireHandler(uint256)": "infinite",
            "_marketHandler(uint256)": "infinite",
            "_nodeAdd(address)": "52879",
            "_nodeHandler(uint256)": "infinite",
            "_relationHandler(address,uint256)": "infinite",
            "_tradeFee(uint256)": "infinite",
            "buy()": "infinite"
        }
    }
}