{
    "contractName": "BT2",
    "abi": [
        {
            "inputs": [],
            "stateMutability": "nonpayable",
            "type": "constructor"
        },
        {
            "inputs": [
                {
                    "internalType": "address",
                    "name": "target",
                    "type": "address"
                }
            ],
            "name": "AddressEmptyCode",
            "type": "error"
        },
        {
            "inputs": [
                {
                    "internalType": "address",
                    "name": "implementation",
                    "type": "address"
                }
            ],
            "name": "ERC1967InvalidImplementation",
            "type": "error"
        },
        {
            "inputs": [],
            "name": "ERC1967NonPayable",
            "type": "error"
        },
        {
            "inputs": [
                {
                    "internalType": "address",
                    "name": "spender",
                    "type": "address"
                },
                {
                    "internalType": "uint256",
                    "name": "allowance",
                    "type": "uint256"
                },
                {
                    "internalType": "uint256",
                    "name": "needed",
                    "type": "uint256"
                }
            ],
            "name": "ERC20InsufficientAllowance",
            "type": "error"
        },
        {
            "inputs": [
                {
                    "internalType": "address",
                    "name": "sender",
                    "type": "address"
                },
                {
                    "internalType": "uint256",
                    "name": "balance",
                    "type": "uint256"
                },
                {
                    "internalType": "uint256",
                    "name": "needed",
                    "type": "uint256"
                }
            ],
            "name": "ERC20InsufficientBalance",
            "type": "error"
        },
        {
            "inputs": [
                {
                    "internalType": "address",
                    "name": "approver",
                    "type": "address"
                }
            ],
            "name": "ERC20InvalidApprover",
            "type": "error"
        },
        {
            "inputs": [
                {
                    "internalType": "address",
                    "name": "receiver",
                    "type": "address"
                }
            ],
            "name": "ERC20InvalidReceiver",
            "type": "error"
        },
        {
            "inputs": [
                {
                    "internalType": "address",
                    "name": "sender",
                    "type": "address"
                }
            ],
            "name": "ERC20InvalidSender",
            "type": "error"
        },
        {
            "inputs": [
                {
                    "internalType": "address",
                    "name": "spender",
                    "type": "address"
                }
            ],
            "name": "ERC20InvalidSpender",
            "type": "error"
        },
        {
            "inputs": [],
            "name": "FailedInnerCall",
            "type": "error"
        },
        {
            "inputs": [],
            "name": "InvalidInitialization",
            "type": "error"
        },
        {
            "inputs": [],
            "name": "NotInitializing",
            "type": "error"
        },
        {
            "inputs": [
                {
                    "internalType": "address",
                    "name": "owner",
                    "type": "address"
                }
            ],
            "name": "OwnableInvalidOwner",
            "type": "error"
        },
        {
            "inputs": [
                {
                    "internalType": "address",
                    "name": "account",
                    "type": "address"
                }
            ],
            "name": "OwnableUnauthorizedAccount",
            "type": "error"
        },
        {
            "inputs": [],
            "name": "UUPSUnauthorizedCallContext",
            "type": "error"
        },
        {
            "inputs": [
                {
                    "internalType": "bytes32",
                    "name": "slot",
                    "type": "bytes32"
                }
            ],
            "name": "UUPSUnsupportedProxiableUUID",
            "type": "error"
        },
        {
            "anonymous": false,
            "inputs": [
                {
                    "indexed": false,
                    "internalType": "uint32",
                    "name": "_blockToUnlockLiquidity",
                    "type": "uint32"
                },
                {
                    "indexed": false,
                    "internalType": "uint256",
                    "name": "value",
                    "type": "uint256"
                }
            ],
            "name": "AddLiquidity",
            "type": "event"
        },
        {
            "anonymous": false,
            "inputs": [
                {
                    "indexed": true,
                    "internalType": "address",
                    "name": "owner",
                    "type": "address"
                },
                {
                    "indexed": true,
                    "internalType": "address",
                    "name": "spender",
                    "type": "address"
                },
                {
                    "indexed": false,
                    "internalType": "uint256",
                    "name": "value",
                    "type": "uint256"
                }
            ],
            "name": "Approval",
            "type": "event"
        },
        {
            "anonymous": false,
            "inputs": [
                {
                    "indexed": false,
                    "internalType": "uint64",
                    "name": "version",
                    "type": "uint64"
                }
            ],
            "name": "Initialized",
            "type": "event"
        },
        {
            "anonymous": false,
            "inputs": [
                {
                    "indexed": true,
                    "internalType": "address",
                    "name": "previousOwner",
                    "type": "address"
                },
                {
                    "indexed": true,
                    "internalType": "address",
                    "name": "newOwner",
                    "type": "address"
                }
            ],
            "name": "OwnershipTransferred",
            "type": "event"
        },
        {
            "anonymous": false,
            "inputs": [
                {
                    "indexed": true,
                    "internalType": "address",
                    "name": "sender",
                    "type": "address"
                },
                {
                    "indexed": false,
                    "internalType": "uint256",
                    "name": "value",
                    "type": "uint256"
                }
            ],
            "name": "Pledge",
            "type": "event"
        },
        {
            "anonymous": false,
            "inputs": [
                {
                    "indexed": false,
                    "internalType": "uint256",
                    "name": "value",
                    "type": "uint256"
                }
            ],
            "name": "RemoveLiquidity",
            "type": "event"
        },
        {
            "anonymous": false,
            "inputs": [
                {
                    "indexed": true,
                    "internalType": "address",
                    "name": "sender",
                    "type": "address"
                },
                {
                    "indexed": false,
                    "internalType": "uint256",
                    "name": "value",
                    "type": "uint256"
                }
            ],
            "name": "RemovePledge",
            "type": "event"
        },
        {
            "anonymous": false,
            "inputs": [
                {
                    "indexed": true,
                    "internalType": "address",
                    "name": "sender",
                    "type": "address"
                },
                {
                    "indexed": false,
                    "internalType": "uint256",
                    "name": "amount0In",
                    "type": "uint256"
                },
                {
                    "indexed": false,
                    "internalType": "uint256",
                    "name": "amount1In",
                    "type": "uint256"
                },
                {
                    "indexed": false,
                    "internalType": "uint256",
                    "name": "amount0Out",
                    "type": "uint256"
                },
                {
                    "indexed": false,
                    "internalType": "uint256",
                    "name": "amount1Out",
                    "type": "uint256"
                }
            ],
            "name": "Swap",
            "type": "event"
        },
        {
            "anonymous": false,
            "inputs": [
                {
                    "indexed": true,
                    "internalType": "address",
                    "name": "from",
                    "type": "address"
                },
                {
                    "indexed": true,
                    "internalType": "address",
                    "name": "to",
                    "type": "address"
                },
                {
                    "indexed": false,
                    "internalType": "uint256",
                    "name": "value",
                    "type": "uint256"
                }
            ],
            "name": "Transfer",
            "type": "event"
        },
        {
            "anonymous": false,
            "inputs": [
                {
                    "indexed": true,
                    "internalType": "address",
                    "name": "implementation",
                    "type": "address"
                }
            ],
            "name": "Upgraded",
            "type": "event"
        },
        {
            "inputs": [],
            "name": "UPGRADE_INTERFACE_VERSION",
            "outputs": [
                {
                    "internalType": "string",
                    "name": "",
                    "type": "string"
                }
            ],
            "stateMutability": "view",
            "type": "function"
        },
        {
            "inputs": [],
            "name": "_fireStopAmount",
            "outputs": [
                {
                    "internalType": "uint256",
                    "name": "",
                    "type": "uint256"
                }
            ],
            "stateMutability": "view",
            "type": "function"
        },
        {
            "inputs": [],
            "name": "_maxSellAmount",
            "outputs": [
                {
                    "internalType": "uint256",
                    "name": "",
                    "type": "uint256"
                }
            ],
            "stateMutability": "view",
            "type": "function"
        },
        {
            "inputs": [],
            "name": "_maxWallet",
            "outputs": [
                {
                    "internalType": "uint256",
                    "name": "",
                    "type": "uint256"
                }
            ],
            "stateMutability": "view",
            "type": "function"
        },
        {
            "inputs": [],
            "name": "_nodeLimitAmount",
            "outputs": [
                {
                    "internalType": "uint256",
                    "name": "",
                    "type": "uint256"
                }
            ],
            "stateMutability": "view",
            "type": "function"
        },
        {
            "inputs": [
                {
                    "internalType": "address",
                    "name": "owner",
                    "type": "address"
                },
                {
                    "internalType": "address",
                    "name": "spender",
                    "type": "address"
                }
            ],
            "name": "allowance",
            "outputs": [
                {
                    "internalType": "uint256",
                    "name": "",
                    "type": "uint256"
                }
            ],
            "stateMutability": "view",
            "type": "function"
        },
        {
            "inputs": [
                {
                    "internalType": "address",
                    "name": "spender",
                    "type": "address"
                },
                {
                    "internalType": "uint256",
                    "name": "value",
                    "type": "uint256"
                }
            ],
            "name": "approve",
            "outputs": [
                {
                    "internalType": "bool",
                    "name": "",
                    "type": "bool"
                }
            ],
            "stateMutability": "nonpayable",
            "type": "function"
        },
        {
            "inputs": [
                {
                    "internalType": "address",
                    "name": "account",
                    "type": "address"
                }
            ],
            "name": "balanceOf",
            "outputs": [
                {
                    "internalType": "uint256",
                    "name": "",
                    "type": "uint256"
                }
            ],
            "stateMutability": "view",
            "type": "function"
        },
        {
            "inputs": [
                {
                    "internalType": "uint256",
                    "name": "",
                    "type": "uint256"
                }
            ],
            "name": "communityAddress",
            "outputs": [
                {
                    "internalType": "address",
                    "name": "",
                    "type": "address"
                }
            ],
            "stateMutability": "view",
            "type": "function"
        },
        {
            "inputs": [],
            "name": "communityBonus",
            "outputs": [
                {
                    "internalType": "uint256",
                    "name": "",
                    "type": "uint256"
                }
            ],
            "stateMutability": "view",
            "type": "function"
        },
        {
            "inputs": [
                {
                    "internalType": "address",
                    "name": "",
                    "type": "address"
                }
            ],
            "name": "communityCount",
            "outputs": [
                {
                    "internalType": "uint256",
                    "name": "",
                    "type": "uint256"
                }
            ],
            "stateMutability": "view",
            "type": "function"
        },
        {
            "inputs": [],
            "name": "decimals",
            "outputs": [
                {
                    "internalType": "uint8",
                    "name": "",
                    "type": "uint8"
                }
            ],
            "stateMutability": "view",
            "type": "function"
        },
        {
            "inputs": [],
            "name": "ecoAddress",
            "outputs": [
                {
                    "internalType": "address",
                    "name": "",
                    "type": "address"
                }
            ],
            "stateMutability": "view",
            "type": "function"
        },
        {
            "inputs": [
                {
                    "internalType": "bool",
                    "name": "_maxWalletEnable",
                    "type": "bool"
                }
            ],
            "name": "enableMaxWallet",
            "outputs": [],
            "stateMutability": "nonpayable",
            "type": "function"
        },
        {
            "inputs": [],
            "name": "feeAddress",
            "outputs": [
                {
                    "internalType": "address",
                    "name": "",
                    "type": "address"
                }
            ],
            "stateMutability": "view",
            "type": "function"
        },
        {
            "inputs": [
                {
                    "internalType": "uint256",
                    "name": "value",
                    "type": "uint256"
                },
                {
                    "internalType": "bool",
                    "name": "_buy",
                    "type": "bool"
                }
            ],
            "name": "getAmountOut",
            "outputs": [
                {
                    "internalType": "uint256",
                    "name": "",
                    "type": "uint256"
                }
            ],
            "stateMutability": "view",
            "type": "function"
        },
        {
            "inputs": [
                {
                    "internalType": "address",
                    "name": "addr",
                    "type": "address"
                }
            ],
            "name": "getPledgeReceiptRelation",
            "outputs": [
                {
                    "internalType": "uint256",
                    "name": "",
                    "type": "uint256"
                }
            ],
            "stateMutability": "view",
            "type": "function"
        },
        {
            "inputs": [],
            "name": "getReserves",
            "outputs": [
                {
                    "internalType": "uint256",
                    "name": "",
                    "type": "uint256"
                },
                {
                    "internalType": "uint256",
                    "name": "",
                    "type": "uint256"
                }
            ],
            "stateMutability": "view",
            "type": "function"
        },
        {
            "inputs": [
                {
                    "internalType": "address",
                    "name": "initialOwner",
                    "type": "address"
                }
            ],
            "name": "initialize",
            "outputs": [],
            "stateMutability": "nonpayable",
            "type": "function"
        },
        {
            "inputs": [],
            "name": "lastRewardAt",
            "outputs": [
                {
                    "internalType": "uint256",
                    "name": "",
                    "type": "uint256"
                }
            ],
            "stateMutability": "view",
            "type": "function"
        },
        {
            "inputs": [],
            "name": "liquidityProvider",
            "outputs": [
                {
                    "internalType": "address",
                    "name": "",
                    "type": "address"
                }
            ],
            "stateMutability": "view",
            "type": "function"
        },
        {
            "inputs": [],
            "name": "marketAddress",
            "outputs": [
                {
                    "internalType": "address",
                    "name": "",
                    "type": "address"
                }
            ],
            "stateMutability": "view",
            "type": "function"
        },
        {
            "inputs": [],
            "name": "maxWalletEnable",
            "outputs": [
                {
                    "internalType": "bool",
                    "name": "",
                    "type": "bool"
                }
            ],
            "stateMutability": "view",
            "type": "function"
        },
        {
            "inputs": [],
            "name": "name",
            "outputs": [
                {
                    "internalType": "string",
                    "name": "",
                    "type": "string"
                }
            ],
            "stateMutability": "view",
            "type": "function"
        },
        {
            "inputs": [
                {
                    "internalType": "uint256",
                    "name": "",
                    "type": "uint256"
                }
            ],
            "name": "nodeAddress",
            "outputs": [
                {
                    "internalType": "address",
                    "name": "",
                    "type": "address"
                }
            ],
            "stateMutability": "view",
            "type": "function"
        },
        {
            "inputs": [],
            "name": "owner",
            "outputs": [
                {
                    "internalType": "address",
                    "name": "",
                    "type": "address"
                }
            ],
            "stateMutability": "view",
            "type": "function"
        },
        {
            "inputs": [
                {
                    "internalType": "address",
                    "name": "",
                    "type": "address"
                }
            ],
            "name": "pledgeReceiptRelation",
            "outputs": [
                {
                    "internalType": "uint256",
                    "name": "",
                    "type": "uint256"
                }
            ],
            "stateMutability": "view",
            "type": "function"
        },
        {
            "inputs": [],
            "name": "presaleEnable",
            "outputs": [
                {
                    "internalType": "bool",
                    "name": "",
                    "type": "bool"
                }
            ],
            "stateMutability": "view",
            "type": "function"
        },
        {
            "inputs": [],
            "name": "proxiableUUID",
            "outputs": [
                {
                    "internalType": "bytes32",
                    "name": "",
                    "type": "bytes32"
                }
            ],
            "stateMutability": "view",
            "type": "function"
        },
        {
            "inputs": [
                {
                    "internalType": "address",
                    "name": "",
                    "type": "address"
                }
            ],
            "name": "relation",
            "outputs": [
                {
                    "internalType": "address",
                    "name": "",
                    "type": "address"
                }
            ],
            "stateMutability": "view",
            "type": "function"
        },
        {
            "inputs": [
                {
                    "internalType": "uint256",
                    "name": "index",
                    "type": "uint256"
                }
            ],
            "name": "removeNodeAddress",
            "outputs": [],
            "stateMutability": "nonpayable",
            "type": "function"
        },
        {
            "inputs": [
                {
                    "internalType": "address",
                    "name": "addr",
                    "type": "address"
                }
            ],
            "name": "removePledgeReceiptRelation",
            "outputs": [],
            "stateMutability": "nonpayable",
            "type": "function"
        },
        {
            "inputs": [],
            "name": "renounceOwnership",
            "outputs": [],
            "stateMutability": "nonpayable",
            "type": "function"
        },
        {
            "inputs": [
                {
                    "internalType": "uint256",
                    "name": "_maxWallet_",
                    "type": "uint256"
                }
            ],
            "name": "setMaxWallet",
            "outputs": [],
            "stateMutability": "nonpayable",
            "type": "function"
        },
        {
            "inputs": [
                {
                    "internalType": "address",
                    "name": "addr",
                    "type": "address"
                },
                {
                    "internalType": "bool",
                    "name": "flag",
                    "type": "bool"
                }
            ],
            "name": "setWhiteAddress",
            "outputs": [],
            "stateMutability": "nonpayable",
            "type": "function"
        },
        {
            "inputs": [
                {
                    "internalType": "address",
                    "name": "addr",
                    "type": "address"
                }
            ],
            "name": "setZToken",
            "outputs": [],
            "stateMutability": "nonpayable",
            "type": "function"
        },
        {
            "inputs": [],
            "name": "symbol",
            "outputs": [
                {
                    "internalType": "string",
                    "name": "",
                    "type": "string"
                }
            ],
            "stateMutability": "view",
            "type": "function"
        },
        {
            "inputs": [],
            "name": "totalSupply",
            "outputs": [
                {
                    "internalType": "uint256",
                    "name": "",
                    "type": "uint256"
                }
            ],
            "stateMutability": "view",
            "type": "function"
        },
        {
            "inputs": [
                {
                    "internalType": "address",
                    "name": "to",
                    "type": "address"
                },
                {
                    "internalType": "uint256",
                    "name": "value",
                    "type": "uint256"
                }
            ],
            "name": "transfer",
            "outputs": [
                {
                    "internalType": "bool",
                    "name": "",
                    "type": "bool"
                }
            ],
            "stateMutability": "nonpayable",
            "type": "function"
        },
        {
            "inputs": [
                {
                    "internalType": "address",
                    "name": "from",
                    "type": "address"
                },
                {
                    "internalType": "address",
                    "name": "to",
                    "type": "address"
                },
                {
                    "internalType": "uint256",
                    "name": "value",
                    "type": "uint256"
                }
            ],
            "name": "transferFrom",
            "outputs": [
                {
                    "internalType": "bool",
                    "name": "",
                    "type": "bool"
                }
            ],
            "stateMutability": "nonpayable",
            "type": "function"
        },
        {
            "inputs": [
                {
                    "internalType": "address",
                    "name": "newOwner",
                    "type": "address"
                }
            ],
            "name": "transferOwnership",
            "outputs": [],
            "stateMutability": "nonpayable",
            "type": "function"
        },
        {
            "inputs": [
                {
                    "internalType": "address",
                    "name": "newImplementation",
                    "type": "address"
                },
                {
                    "internalType": "bytes",
                    "name": "data",
                    "type": "bytes"
                }
            ],
            "name": "upgradeToAndCall",
            "outputs": [],
            "stateMutability": "payable",
            "type": "function"
        },
        {
            "stateMutability": "payable",
            "type": "receive"
        }
    ],
    "bytecode": "60a0604052306080526014805460ff60a01b1916905534801562000021575f80fd5b506200002c62000032565b620000e6565b7ff0c57e16840df040f15088dc2f81fe391c3923bec73e23a9662efc9c229c6a00805468010000000000000000900460ff1615620000835760405163f92ee8a960e01b815260040160405180910390fd5b80546001600160401b0390811614620000e35780546001600160401b0319166001600160401b0390811782556040519081527fc7f505b2f371ae2175ee4913f4499e1f2633a7b5936321eed1cdaeb6115181d29060200160405180910390a15b50565b6080516127806200010d5f395f81816118640152818161188d01526119cc01526127805ff3fe60806040526004361061024c575f3560e01c80637ec18cf611610134578063c363c3ac116100b3578063dc54150411610078578063dc54150414610733578063dd62ed3e14610748578063e98533b814610767578063f2e1562814610786578063f2fde38b1461079b578063f3e01942146107ba575f80fd5b8063c363c3ac14610677578063c4d66de814610696578063d0943e17146106b5578063d7a05f05146106d4578063dbcdf03214610708575f80fd5b80639e1e1713116100f95780639e1e1713146105d5578063a9059cbb146105f4578063ad3cb1cc14610613578063ae19139e14610643578063b74de59114610662575f80fd5b80637ec18cf61461053157806382247ec0146105515780638da5cb5b1461056657806395623641146105a257806395d89b41146105c1575f80fd5b806341275358116101cb57806368961ecb1161019057806368961ecb1461046b57806370a082311461048a578063715018a6146104a957806378554a4f146104bd5780637b49827a146104e85780637cca52fe1461051c575f80fd5b806341275358146103cf5780634f1ef2861461040657806352d1902d146104195780635b8bec551461042d5780635d0044ca1461044c575f80fd5b806312a54b621161021157806312a54b621461032d57806318160ddd1461034d57806323b872dd14610380578063313ce5671461039f5780633cd691d5146103ba575f80fd5b806306fdde031461025f57806307c62151146102895780630902f1ac146102a8578063095ea7b3146102d157806311106ee214610300575f80fd5b3661025b576102596107d9565b005b5f80fd5b34801561026a575f80fd5b506102736109ad565b604051610280919061216f565b60405180910390f35b348015610294575f80fd5b506102596102a33660046121cb565b610a6d565b3480156102b3575f80fd5b506102bc610a9f565b60408051928352602083019190915201610280565b3480156102dc575f80fd5b506102f06102eb3660046121fc565b610ab5565b6040519015158152602001610280565b34801561030b575f80fd5b5061031f61031a366004612224565b610ace565b604051908152602001610280565b348015610338575f80fd5b506007546102f090600160a01b900460ff1681565b348015610358575f80fd5b507f52c63247e1f47db19d5ce0460030c497f067ca4cebf71ba98eeadabe20bace025461031f565b34801561038b575f80fd5b506102f061039a366004612245565b610b1e565b3480156103aa575f80fd5b5060405160128152602001610280565b3480156103c5575f80fd5b5061031f600e5481565b3480156103da575f80fd5b50600a546103ee906001600160a01b031681565b6040516001600160a01b039091168152602001610280565b610259610414366004612292565b610b43565b348015610424575f80fd5b5061031f610b62565b348015610438575f80fd5b506007546103ee906001600160a01b031681565b348015610457575f80fd5b5061025961046636600461234e565b610b7d565b348015610476575f80fd5b506009546103ee906001600160a01b031681565b348015610495575f80fd5b5061031f6104a4366004612365565b610b8a565b3480156104b4575f80fd5b50610259610bb0565b3480156104c8575f80fd5b5061031f6104d7366004612365565b60106020525f908152604090205481565b3480156104f3575f80fd5b5061031f610502366004612365565b6001600160a01b03165f9081526011602052604090205490565b348015610527575f80fd5b5061031f60035481565b34801561053c575f80fd5b506014546102f090600160a01b900460ff1681565b34801561055c575f80fd5b5061031f60025481565b348015610571575f80fd5b507f9016d09d72d40fdae2fd8ceac6b6234c7706214fd39c1cd1e609a0528c199300546001600160a01b03166103ee565b3480156105ad575f80fd5b506008546103ee906001600160a01b031681565b3480156105cc575f80fd5b50610273610bc3565b3480156105e0575f80fd5b506102596105ef366004612365565b610c01565b3480156105ff575f80fd5b506102f061060e3660046121fc565b610c2b565b34801561061e575f80fd5b50610273604051806040016040528060058152602001640352e302e360dc1b81525081565b34801561064e575f80fd5b5061025961065d36600461237e565b610e57565b34801561066d575f80fd5b5061031f60045481565b348015610682575f80fd5b50610259610691366004612365565b610e7d565b3480156106a1575f80fd5b506102596106b0366004612365565b610f78565b3480156106c0575f80fd5b506103ee6106cf36600461234e565b6111f6565b3480156106df575f80fd5b506103ee6106ee366004612365565b600f6020525f90815260409020546001600160a01b031681565b348015610713575f80fd5b5061031f610722366004612365565b60116020525f908152604090205481565b34801561073e575f80fd5b5061031f600d5481565b348015610753575f80fd5b5061031f610762366004612397565b61121e565b348015610772575f80fd5b506103ee61078136600461234e565b611267565b348015610791575f80fd5b5061031f60135481565b3480156107a6575f80fd5b506102596107b5366004612365565b611276565b3480156107c5575f80fd5b506102596107d436600461234e565b6112b3565b335f908152601560205260409020544363ffffffff909116036108175760405162461bcd60e51b815260040161080e906123bf565b60405180910390fd5b335f908152601560205260408120805463ffffffff19164363ffffffff16179055600154349190610849908390612424565b61085230610b8a565b61085c9084612437565b610866919061244e565b600754909150600160a01b900460ff16156108d55760025461088733610b8a565b6108919083612424565b11156108d55760405162461bcd60e51b815260206004820152601360248201527213585e081dd85b1b195d08195e18d959591959606a1b604482015260640161080e565b6108f6303360646108e785605f612437565b6108f1919061244e565b61135d565b6103e8610905836103d9612437565b61090f919061244e565b60015f82825461091f9190612424565b9091555061092e905034611496565b610937816114e2565b61094133826115f6565b61094a8161163b565b6109533361166e565b61095c816116ce565b604080513481525f60208201819052918101919091526060810182905233907f49926bbebe8474393f434dfa4f78694c0923efa07d19f2284518bfabd06eb737906080015b60405180910390a25050565b7f52c63247e1f47db19d5ce0460030c497f067ca4cebf71ba98eeadabe20bace0380546060915f8051602061270b833981519152916109eb9061246d565b80601f0160208091040260200160405190810160405280929190818152602001828054610a179061246d565b8015610a625780601f10610a3957610100808354040283529160200191610a62565b820191905f5260205f20905b815481529060010190602001808311610a4557829003601f168201915b505050505091505090565b610a75611737565b6001600160a01b03919091165f908152601260205260409020805460ff1916911515919091179055565b5f80600154610aad30610b8a565b915091509091565b5f33610ac2818585611792565b60019150505b92915050565b5f805f610ad9610a9f565b915091508315610b0a57610aed8583612424565b610af78287612437565b610b01919061244e565b92505050610ac8565b610b148582612424565b610af78387612437565b5f33610b2b85828561179f565b610b368585856117fc565b60019150505b9392505050565b610b4b611859565b610b54826118fd565b610b5e8282611905565b5050565b5f610b6b6119c1565b505f8051602061272b83398151915290565b610b85611737565b600255565b6001600160a01b03165f9081525f8051602061270b833981519152602052604090205490565b610bb8611737565b610bc15f611a0a565b565b7f52c63247e1f47db19d5ce0460030c497f067ca4cebf71ba98eeadabe20bace0480546060915f8051602061270b833981519152916109eb9061246d565b610c09611737565b601480546001600160a01b0319166001600160a01b0392909216919091179055565b5f306001600160a01b03841603610c4a57610c4582611a7a565b610e4e565b6014546001600160a01b0390811690841603610dc557610c6c6012600a612576565b610c7890617530612437565b821480610c9c5750610c8c6012600a612576565b610c9990620186a0612437565b82145b80610cbe5750610cae6012600a612576565b610cbb90620493e0612437565b82145b80610ce05750610cd06012600a612576565b610cdd906207a120612437565b82145b610d1d5760405162461bcd60e51b815260206004820152600e60248201526d33772f3130772f3330772f35307760901b604482015260640161080e565b335f90815260116020526040902054610d6a5760405162461bcd60e51b815260206004820152600f60248201526e105b1c9958591e481c1b195919d959608a1b604482015260640161080e565b610d753384846117fc565b335f8181526011602052604090819020849055517f5e91ea8ea1c46300eb761859be01d7b16d44389ef91e03a163a87413cbf55b9590610db89085815260200190565b60405180910390a2610e4e565b5f610dd260066012612584565b610ddd90600a612576565b610de8906001612437565b9050610df333610b8a565b8303610e2e5780610e0333610b8a565b1115610e245780610e1333610b8a565b610e1d919061259d565b9250610e2e565b6001915050610ac8565b610e3933858561135d565b610e428461166e565b610e4c3385611cca565b505b50600192915050565b610e5f611737565b60078054911515600160a01b0260ff60a01b19909216919091179055565b335f9081526012602052604090205460ff16610edb5760405162461bcd60e51b815260206004820152601f60248201527f63616c6c6572206973206e6f7420746865207768697465206164647265737300604482015260640161080e565b6001600160a01b0381165f9081526011602052604090205480610f2c5760405162461bcd60e51b81526020600482015260096024820152686e6f20706c6564676560b81b604482015260640161080e565b6001600160a01b0382165f8181526011602052604080822091909155517f7c1499da310db315606891cff45c8999e67bc58b9fa507440dd5c02506d64de0906109a19084815260200190565b7ff0c57e16840df040f15088dc2f81fe391c3923bec73e23a9662efc9c229c6a008054600160401b810460ff16159067ffffffffffffffff165f81158015610fbd5750825b90505f8267ffffffffffffffff166001148015610fd95750303b155b905081158015610fe7575080155b156110055760405163f92ee8a960e01b815260040160405180910390fd5b845467ffffffffffffffff19166001178555831561102f57845460ff60401b1916600160401b1785555b6110736040518060400160405280600781526020016626bcaa37b5b2b760c91b815250604051806040016040528060038152602001624d544b60e81b815250611d9b565b61107f6012600a612576565b61108d90633b023380612437565b5f55681043561a88293000006001556110a86012600a612576565b6110b59062989680612437565b600455652d79883d20006002819055600e5565048c27395000600355600980546001600160a01b03199081167398a8790028c6476b740be640627a62496e5d616b179091556007805460ff60a01b1916600160a01b179055600880548216737a6ca6a66b7ca223ecd10ef837895f7a32e902d4179055600a805490911673bedddae2062f0b573ec72562f88da141a67b70b217905561115386611dad565b61115b611dbe565b61117e3061116b6012600a612576565b6111799063068e7780612437565b611dc6565b6009546111a8906001600160a01b031661119a6012600a612576565b61117990633473bc00612437565b83156111ee57845460ff60401b19168555604051600181527fc7f505b2f371ae2175ee4913f4499e1f2633a7b5936321eed1cdaeb6115181d29060200160405180910390a15b505050505050565b600c8181548110611205575f80fd5b5f918252602090912001546001600160a01b0316905081565b6001600160a01b039182165f9081527f52c63247e1f47db19d5ce0460030c497f067ca4cebf71ba98eeadabe20bace016020908152604080832093909416825291909152205490565b600b8181548110611205575f80fd5b61127e611737565b6001600160a01b0381166112a757604051631e4fbdf760e01b81525f600482015260240161080e565b6112b081611a0a565b50565b600b80546112c39060019061259d565b815481106112d3576112d36125b0565b5f91825260209091200154600b80546001600160a01b0390921691839081106112fe576112fe6125b0565b905f5260205f20015f6101000a8154816001600160a01b0302191690836001600160a01b03160217905550600b80548061133a5761133a6125c4565b5f8281526020902081015f1990810180546001600160a01b031916905501905550565b5f8051602061270b8339815191526001600160a01b0384166113975781816002015f82825461138c9190612424565b909155506114079050565b6001600160a01b0384165f90815260208290526040902054828110156113e95760405163391434e360e21b81526001600160a01b0386166004820152602481018290526044810184905260640161080e565b6001600160a01b0385165f9081526020839052604090209083900390555b6001600160a01b038316611425576002810180548390039055611443565b6001600160a01b0383165f9081526020829052604090208054830190555b826001600160a01b0316846001600160a01b03167fddf252ad1be2c89b69c2b068fc378daa952ba7f163c4a11628f55a4df523b3ef8460405161148891815260200190565b60405180910390a350505050565b6008546001600160a01b03166108fc6103e86114b384600f612437565b6114bd919061244e565b6040518115909202915f818181858888f19350505050158015610b5e573d5f803e3d5ffd5b5f6103e86114f183600f612437565b6114fb919061244e565b600b549091505f0361151f57600a54610b5e9030906001600160a01b03168361135d565b600b545f9061152e908361244e565b90505f5b600b548110156115f0575f6001600160a01b0316600b8281548110611559576115596125b0565b5f918252602090912001546001600160a01b0316146115e857600e546115a4600b838154811061158b5761158b6125b0565b5f918252602090912001546001600160a01b0316610b8a565b106115df576115da30600b83815481106115c0576115c06125b0565b5f918252602090912001546001600160a01b03168461135d565b6115e8565b6115e8816112b3565b600101611532565b50505050565b6001600160a01b038083165f908152600f602052604090205416806116235750600a546001600160a01b03165b61163630826103e86108e786600a612437565b505050565b5f6064611649836005612437565b611653919061244e565b600954909150610b5e9030906001600160a01b03168361135d565b600e5461167a82610b8a565b106112b057600b80546001810182555f919091527f0175b7a638427703f0dbe7bb9bbf987a2551717b34e79f33b5b1008d1fa01db90180546001600160a01b0383166001600160a01b031990911617905550565b5f6103e86116dd83600a612437565b6116e7919061244e565b9050600454815f546116f9919061259d565b1015611711576004545f5461170e919061259d565b90505b5f8111801561172757508061172530610b8a565b115b15610b5e57610b5e305f8361135d565b336117697f9016d09d72d40fdae2fd8ceac6b6234c7706214fd39c1cd1e609a0528c199300546001600160a01b031690565b6001600160a01b031614610bc15760405163118cdaa760e01b815233600482015260240161080e565b6116368383836001611dfa565b5f6117aa848461121e565b90505f1981146115f057818110156117ee57604051637dc7a0d960e11b81526001600160a01b0384166004820152602481018290526044810183905260640161080e565b6115f084848484035f611dfa565b6001600160a01b03831661182557604051634b637e8f60e11b81525f600482015260240161080e565b6001600160a01b03821661184e5760405163ec442f0560e01b81525f600482015260240161080e565b61163683838361135d565b306001600160a01b037f00000000000000000000000000000000000000000000000000000000000000001614806118df57507f00000000000000000000000000000000000000000000000000000000000000006001600160a01b03166118d35f8051602061272b833981519152546001600160a01b031690565b6001600160a01b031614155b15610bc15760405163703e46dd60e11b815260040160405180910390fd5b6112b0611737565b816001600160a01b03166352d1902d6040518163ffffffff1660e01b8152600401602060405180830381865afa92505050801561195f575060408051601f3d908101601f1916820190925261195c918101906125d8565b60015b61198757604051634c9c8ce360e01b81526001600160a01b038316600482015260240161080e565b5f8051602061272b83398151915281146119b757604051632a87526960e21b81526004810182905260240161080e565b6116368383611ede565b306001600160a01b037f00000000000000000000000000000000000000000000000000000000000000001614610bc15760405163703e46dd60e11b815260040160405180910390fd5b7f9016d09d72d40fdae2fd8ceac6b6234c7706214fd39c1cd1e609a0528c19930080546001600160a01b031981166001600160a01b03848116918217845560405192169182907f8be0079c531659141344cd1fd0a4f28419497f9722a3daafe3b4186f6b6457e0905f90a3505050565b335f908152601560205260409020544363ffffffff90911603611aaf5760405162461bcd60e51b815260040161080e906123bf565b335f908152601560205260409020805463ffffffff19164363ffffffff16179055600354811115611b135760405162461bcd60e51b815260206004820152600e60248201526d13585e08131a5b5a5d0814d95b1b60921b604482015260640161080e565b5f81611b1e30610b8a565b611b289190612424565b600154611b359084612437565b611b3f919061244e565b90505f8111611b865760405162461bcd60e51b815260206004820152601360248201527253656c6c20616d6f756e7420746f6f206c6f7760681b604482015260640161080e565b806001541015611bd85760405162461bcd60e51b815260206004820152601c60248201527f496e73756666696369656e7420424e4220696e20726573657276657300000000604482015260640161080e565b611be333308461135d565b6103e8611bf2826103c5612437565b611bfc919061244e565b60015f828254611c0c919061259d565b90915550611c1b905081611496565b611c24826114e2565b611c2e33836115f6565b611c378261163b565b611c40826116ce565b336108fc6064611c5184605f612437565b611c5b919061244e565b6040518115909202915f818181858888f19350505050158015611c80573d5f803e3d5ffd5b50604080515f80825260208201859052918101839052606081019190915233907f49926bbebe8474393f434dfa4f78694c0923efa07d19f2284518bfabd06eb737906080016109a1565b6001600160a01b038181165f908152600f602052604090205416158015611d035750806001600160a01b0316826001600160a01b031614155b8015611d1857506001600160a01b0381163014155b8015611d3257506008546001600160a01b03828116911614155b8015611d4c57506009546001600160a01b03828116911614155b8015611d665750600a546001600160a01b03828116911614155b15610b5e576001600160a01b039081165f908152600f6020526040902080546001600160a01b03191692909116919091179055565b611da3611f33565b610b5e8282611f7c565b611db5611f33565b6112b081611fcc565b610bc1611f33565b6001600160a01b038216611def5760405163ec442f0560e01b81525f600482015260240161080e565b610b5e5f838361135d565b5f8051602061270b8339815191526001600160a01b038516611e315760405163e602df0560e01b81525f600482015260240161080e565b6001600160a01b038416611e5a57604051634a1406b160e11b81525f600482015260240161080e565b6001600160a01b038086165f90815260018301602090815260408083209388168352929052208390558115611ed757836001600160a01b0316856001600160a01b03167f8c5be1e5ebec7d5bd14f71427d1e84f3dd0314c0f7b2291e5b200ac8c7c3b92585604051611ece91815260200190565b60405180910390a35b5050505050565b611ee782611fd4565b6040516001600160a01b038316907fbc7cd75a20ee27fd9adebab32041f755214dbc6bffa90cc0225b39da2e5c2d3b905f90a2805115611f2b576116368282612037565b610b5e6120a9565b7ff0c57e16840df040f15088dc2f81fe391c3923bec73e23a9662efc9c229c6a0054600160401b900460ff16610bc157604051631afcd79f60e31b815260040160405180910390fd5b611f84611f33565b5f8051602061270b8339815191527f52c63247e1f47db19d5ce0460030c497f067ca4cebf71ba98eeadabe20bace03611fbd8482612633565b50600481016115f08382612633565b61127e611f33565b806001600160a01b03163b5f0361200957604051634c9c8ce360e01b81526001600160a01b038216600482015260240161080e565b5f8051602061272b83398151915280546001600160a01b0319166001600160a01b0392909216919091179055565b60605f80846001600160a01b03168460405161205391906126ef565b5f60405180830381855af49150503d805f811461208b576040519150601f19603f3d011682016040523d82523d5f602084013e612090565b606091505b50915091506120a08583836120c8565b95945050505050565b3415610bc15760405163b398979f60e01b815260040160405180910390fd5b6060826120dd576120d882612124565b610b3c565b81511580156120f457506001600160a01b0384163b155b1561211d57604051639996b31560e01b81526001600160a01b038516600482015260240161080e565b5080610b3c565b8051156121345780518082602001fd5b604051630a12f52160e11b815260040160405180910390fd5b5f5b8381101561216757818101518382015260200161214f565b50505f910152565b602081525f825180602084015261218d81604085016020870161214d565b601f01601f19169190910160400192915050565b80356001600160a01b03811681146121b7575f80fd5b919050565b803580151581146121b7575f80fd5b5f80604083850312156121dc575f80fd5b6121e5836121a1565b91506121f3602084016121bc565b90509250929050565b5f806040838503121561220d575f80fd5b612216836121a1565b946020939093013593505050565b5f8060408385031215612235575f80fd5b823591506121f3602084016121bc565b5f805f60608486031215612257575f80fd5b612260846121a1565b925061226e602085016121a1565b9150604084013590509250925092565b634e487b7160e01b5f52604160045260245ffd5b5f80604083850312156122a3575f80fd5b6122ac836121a1565b9150602083013567ffffffffffffffff808211156122c8575f80fd5b818501915085601f8301126122db575f80fd5b8135818111156122ed576122ed61227e565b604051601f8201601f19908116603f011681019083821181831017156123155761231561227e565b8160405282815288602084870101111561232d575f80fd5b826020860160208301375f6020848301015280955050505050509250929050565b5f6020828403121561235e575f80fd5b5035919050565b5f60208284031215612375575f80fd5b610b3c826121a1565b5f6020828403121561238e575f80fd5b610b3c826121bc565b5f80604083850312156123a8575f80fd5b6123b1836121a1565b91506121f3602084016121a1565b60208082526031908201527f596f752063616e2774206d616b652074776f207472616e73616374696f6e7320604082015270696e207468652073616d6520626c6f636b60781b606082015260800190565b634e487b7160e01b5f52601160045260245ffd5b80820180821115610ac857610ac8612410565b8082028115828204841417610ac857610ac8612410565b5f8261246857634e487b7160e01b5f52601260045260245ffd5b500490565b600181811c9082168061248157607f821691505b60208210810361249f57634e487b7160e01b5f52602260045260245ffd5b50919050565b600181815b808511156124df57815f19048211156124c5576124c5612410565b808516156124d257918102915b93841c93908002906124aa565b509250929050565b5f826124f557506001610ac8565b8161250157505f610ac8565b8160018114610e24576002810361252e5760ff84111561252357612523612410565b50506001821b610ac8565b5060208310610133831016604e8410600b8410161715612551575081810a610ac8565b61255b83836124a5565b805f190482111561256e5761256e612410565b029392505050565b5f610b3c60ff8416836124e7565b60ff8281168282160390811115610ac857610ac8612410565b81810381811115610ac857610ac8612410565b634e487b7160e01b5f52603260045260245ffd5b634e487b7160e01b5f52603160045260245ffd5b5f602082840312156125e8575f80fd5b5051919050565b601f82111561163657805f5260205f20601f840160051c810160208510156126145750805b601f840160051c820191505b81811015611ed7575f8155600101612620565b815167ffffffffffffffff81111561264d5761264d61227e565b6126618161265b845461246d565b846125ef565b602080601f831160018114612694575f841561267d5750858301515b5f19600386901b1c1916600185901b1785556111ee565b5f85815260208120601f198616915b828110156126c2578886015182559484019460019091019084016126a3565b50858210156126df57878501515f19600388901b60f8161c191681555b5050505050600190811b01905550565b5f825161270081846020870161214d565b919091019291505056fe52c63247e1f47db19d5ce0460030c497f067ca4cebf71ba98eeadabe20bace00360894a13ba1a3210667c828492db98dca3e2076cc3735a920a3ca505d382bbca2646970667358221220a2e510688b36e99a325e149a0c2883107a98abe23ef42d570caf65eeb6ced6a564736f6c63430008180033",
    "sourcePath": "/Users/janly/data/solidity/UUPSNew/contracts/BT2.sol",
    "compiler": {
        "name": "solc",
        "version": "0.8.24+commit.e11b9ed9"
    },
    "functionHashes": {
        "UPGRADE_INTERFACE_VERSION()": "ad3cb1cc",
        "_fireStopAmount()": "b74de591",
        "_maxSellAmount()": "7cca52fe",
        "_maxWallet()": "82247ec0",
        "_nodeLimitAmount()": "3cd691d5",
        "allowance(address,address)": "dd62ed3e",
        "approve(address,uint256)": "095ea7b3",
        "balanceOf(address)": "70a08231",
        "communityAddress(uint256)": "d0943e17",
        "communityBonus()": "dc541504",
        "communityCount(address)": "78554a4f",
        "decimals()": "313ce567",
        "ecoAddress()": "68961ecb",
        "enableMaxWallet(bool)": "ae19139e",
        "feeAddress()": "41275358",
        "getAmountOut(uint256,bool)": "11106ee2",
        "getPledgeReceiptRelation(address)": "7b49827a",
        "getReserves()": "0902f1ac",
        "initialize(address)": "c4d66de8",
        "lastRewardAt()": "f2e15628",
        "liquidityProvider()": "5b8bec55",
        "marketAddress()": "95623641",
        "maxWalletEnable()": "12a54b62",
        "name()": "06fdde03",
        "nodeAddress(uint256)": "e98533b8",
        "owner()": "8da5cb5b",
        "pledgeReceiptRelation(address)": "dbcdf032",
        "presaleEnable()": "7ec18cf6",
        "proxiableUUID()": "52d1902d",
        "relation(address)": "d7a05f05",
        "removeNodeAddress(uint256)": "f3e01942",
        "removePledgeReceiptRelation(address)": "c363c3ac",
        "renounceOwnership()": "715018a6",
        "setMaxWallet(uint256)": "5d0044ca",
        "setWhiteAddress(address,bool)": "07c62151",
        "setZToken(address)": "9e1e1713",
        "symbol()": "95d89b41",
        "totalSupply()": "18160ddd",
        "transfer(address,uint256)": "a9059cbb",
        "transferFrom(address,address,uint256)": "23b872dd",
        "transferOwnership(address)": "f2fde38b",
        "upgradeToAndCall(address,bytes)": "4f1ef286"
    },
    "gasEstimates": {
        "creation": {
            "codeDepositCost": "2022400",
            "executionCost": "infinite",
            "totalCost": "infinite"
        },
        "external": {
            "UPGRADE_INTERFACE_VERSION()": "infinite",
            "_fireStopAmount()": "2427",
            "_maxSellAmount()": "2449",
            "_maxWallet()": "2362",
            "_nodeLimitAmount()": "2428",
            "allowance(address,address)": "infinite",
            "approve(address,uint256)": "infinite",
            "balanceOf(address)": "infinite",
            "communityAddress(uint256)": "4700",
            "communityBonus()": "2338",
            "communityCount(address)": "2627",
            "decimals()": "288",
            "ecoAddress()": "2381",
            "enableMaxWallet(bool)": "26861",
            "feeAddress()": "2382",
            "getAmountOut(uint256,bool)": "infinite",
            "getPledgeReceiptRelation(address)": "2667",
            "getReserves()": "infinite",
            "initialize(address)": "infinite",
            "lastRewardAt()": "2404",
            "liquidityProvider()": "2448",
            "marketAddress()": "2448",
            "maxWalletEnable()": "2372",
            "name()": "infinite",
            "nodeAddress(uint256)": "4699",
            "owner()": "2420",
            "pledgeReceiptRelation(address)": "2649",
            "presaleEnable()": "2372",
            "proxiableUUID()": "infinite",
            "relation(address)": "2666",
            "removeNodeAddress(uint256)": "81865",
            "removePledgeReceiptRelation(address)": "11293",
            "renounceOwnership()": "infinite",
            "setMaxWallet(uint256)": "24653",
            "setWhiteAddress(address,bool)": "infinite",
            "setZToken(address)": "26811",
            "symbol()": "infinite",
            "totalSupply()": "2359",
            "transfer(address,uint256)": "infinite",
            "transferFrom(address,address,uint256)": "infinite",
            "transferOwnership(address)": "28497",
            "upgradeToAndCall(address,bytes)": "infinite"
        },
        "internal": {
            "_authorizeUpgrade(address)": "infinite",
            "_bindRelation(address,address)": "33176",
            "_fireHandler(uint256)": "infinite",
            "_marketHandler(uint256)": "infinite",
            "_nodeAdd(address)": "52879",
            "_nodeHandler(uint256)": "infinite",
            "_relationHandler(address,uint256)": "infinite",
            "_tradeFee(uint256)": "infinite",
            "buy()": "infinite",
            "sell(uint256)": "infinite"
        }
    }
}