{
    "contractName": "ContractName",
    "abi": [
        {
            "inputs": [],
            "stateMutability": "nonpayable",
            "type": "constructor"
        },
        {
            "inputs": [
                {
                    "internalType": "address",
                    "name": "target",
                    "type": "address"
                }
            ],
            "name": "AddressEmptyCode",
            "type": "error"
        },
        {
            "inputs": [
                {
                    "internalType": "address",
                    "name": "implementation",
                    "type": "address"
                }
            ],
            "name": "ERC1967InvalidImplementation",
            "type": "error"
        },
        {
            "inputs": [],
            "name": "ERC1967NonPayable",
            "type": "error"
        },
        {
            "inputs": [],
            "name": "FailedCall",
            "type": "error"
        },
        {
            "inputs": [],
            "name": "InvalidInitialization",
            "type": "error"
        },
        {
            "inputs": [],
            "name": "NotInitializing",
            "type": "error"
        },
        {
            "inputs": [
                {
                    "internalType": "address",
                    "name": "owner",
                    "type": "address"
                }
            ],
            "name": "OwnableInvalidOwner",
            "type": "error"
        },
        {
            "inputs": [
                {
                    "internalType": "address",
                    "name": "account",
                    "type": "address"
                }
            ],
            "name": "OwnableUnauthorizedAccount",
            "type": "error"
        },
        {
            "inputs": [],
            "name": "UUPSUnauthorizedCallContext",
            "type": "error"
        },
        {
            "inputs": [
                {
                    "internalType": "bytes32",
                    "name": "slot",
                    "type": "bytes32"
                }
            ],
            "name": "UUPSUnsupportedProxiableUUID",
            "type": "error"
        },
        {
            "anonymous": false,
            "inputs": [
                {
                    "indexed": false,
                    "internalType": "uint64",
                    "name": "version",
                    "type": "uint64"
                }
            ],
            "name": "Initialized",
            "type": "event"
        },
        {
            "anonymous": false,
            "inputs": [
                {
                    "indexed": true,
                    "internalType": "address",
                    "name": "previousOwner",
                    "type": "address"
                },
                {
                    "indexed": true,
                    "internalType": "address",
                    "name": "newOwner",
                    "type": "address"
                }
            ],
            "name": "OwnershipTransferred",
            "type": "event"
        },
        {
            "anonymous": false,
            "inputs": [
                {
                    "indexed": true,
                    "internalType": "address",
                    "name": "implementation",
                    "type": "address"
                }
            ],
            "name": "Upgraded",
            "type": "event"
        },
        {
            "inputs": [],
            "name": "MAX",
            "outputs": [
                {
                    "internalType": "uint256",
                    "name": "",
                    "type": "uint256"
                }
            ],
            "stateMutability": "view",
            "type": "function"
        },
        {
            "inputs": [],
            "name": "UPGRADE_INTERFACE_VERSION",
            "outputs": [
                {
                    "internalType": "string",
                    "name": "",
                    "type": "string"
                }
            ],
            "stateMutability": "view",
            "type": "function"
        },
        {
            "inputs": [
                {
                    "internalType": "uint256",
                    "name": "",
                    "type": "uint256"
                }
            ],
            "name": "_buyRecord",
            "outputs": [
                {
                    "internalType": "address",
                    "name": "ads",
                    "type": "address"
                },
                {
                    "internalType": "uint256",
                    "name": "value",
                    "type": "uint256"
                },
                {
                    "internalType": "uint256",
                    "name": "time",
                    "type": "uint256"
                }
            ],
            "stateMutability": "view",
            "type": "function"
        },
        {
            "inputs": [
                {
                    "internalType": "uint256",
                    "name": "",
                    "type": "uint256"
                },
                {
                    "internalType": "address",
                    "name": "",
                    "type": "address"
                }
            ],
            "name": "_isReward",
            "outputs": [
                {
                    "internalType": "bool",
                    "name": "",
                    "type": "bool"
                }
            ],
            "stateMutability": "view",
            "type": "function"
        },
        {
            "inputs": [
                {
                    "internalType": "address",
                    "name": "",
                    "type": "address"
                }
            ],
            "name": "_lastT",
            "outputs": [
                {
                    "internalType": "uint256",
                    "name": "",
                    "type": "uint256"
                }
            ],
            "stateMutability": "view",
            "type": "function"
        },
        {
            "inputs": [
                {
                    "internalType": "uint256",
                    "name": "",
                    "type": "uint256"
                }
            ],
            "name": "_mintLevelInfo",
            "outputs": [
                {
                    "internalType": "uint256",
                    "name": "price",
                    "type": "uint256"
                },
                {
                    "internalType": "uint256",
                    "name": "power",
                    "type": "uint256"
                },
                {
                    "internalType": "uint256",
                    "name": "bei",
                    "type": "uint256"
                }
            ],
            "stateMutability": "view",
            "type": "function"
        },
        {
            "inputs": [],
            "name": "_nft",
            "outputs": [
                {
                    "internalType": "address",
                    "name": "",
                    "type": "address"
                }
            ],
            "stateMutability": "view",
            "type": "function"
        },
        {
            "inputs": [
                {
                    "internalType": "address",
                    "name": "",
                    "type": "address"
                }
            ],
            "name": "_orders",
            "outputs": [
                {
                    "internalType": "bool",
                    "name": "isExist",
                    "type": "bool"
                },
                {
                    "internalType": "uint256",
                    "name": "power",
                    "type": "uint256"
                },
                {
                    "internalType": "uint256",
                    "name": "totalU",
                    "type": "uint256"
                },
                {
                    "internalType": "uint256",
                    "name": "remain",
                    "type": "uint256"
                },
                {
                    "internalType": "uint256",
                    "name": "lastTime",
                    "type": "uint256"
                },
                {
                    "internalType": "uint256",
                    "name": "rank",
                    "type": "uint256"
                },
                {
                    "internalType": "uint256",
                    "name": "b",
                    "type": "uint256"
                },
                {
                    "internalType": "uint256",
                    "name": "t",
                    "type": "uint256"
                }
            ],
            "stateMutability": "view",
            "type": "function"
        },
        {
            "inputs": [
                {
                    "internalType": "address",
                    "name": "",
                    "type": "address"
                }
            ],
            "name": "_ordersReward",
            "outputs": [
                {
                    "internalType": "uint256",
                    "name": "zhiJunRankReward",
                    "type": "uint256"
                },
                {
                    "internalType": "uint256",
                    "name": "zhiRankReward",
                    "type": "uint256"
                },
                {
                    "internalType": "uint256",
                    "name": "weekRankReward",
                    "type": "uint256"
                },
                {
                    "internalType": "uint256",
                    "name": "admin2Reward",
                    "type": "uint256"
                }
            ],
            "stateMutability": "view",
            "type": "function"
        },
        {
            "inputs": [],
            "name": "_swapRouter",
            "outputs": [
                {
                    "internalType": "contract IPancakeRouter02",
                    "name": "",
                    "type": "address"
                }
            ],
            "stateMutability": "view",
            "type": "function"
        },
        {
            "inputs": [],
            "name": "_targetAddress20",
            "outputs": [
                {
                    "internalType": "address",
                    "name": "",
                    "type": "address"
                }
            ],
            "stateMutability": "view",
            "type": "function"
        },
        {
            "inputs": [],
            "name": "_targetAddress5",
            "outputs": [
                {
                    "internalType": "address",
                    "name": "",
                    "type": "address"
                }
            ],
            "stateMutability": "view",
            "type": "function"
        },
        {
            "inputs": [
                {
                    "internalType": "address",
                    "name": "",
                    "type": "address"
                }
            ],
            "name": "_teamInfo",
            "outputs": [
                {
                    "internalType": "uint256",
                    "name": "zhi",
                    "type": "uint256"
                },
                {
                    "internalType": "uint256",
                    "name": "tureZhi",
                    "type": "uint256"
                },
                {
                    "internalType": "uint256",
                    "name": "team",
                    "type": "uint256"
                },
                {
                    "internalType": "uint256",
                    "name": "trueTeam",
                    "type": "uint256"
                },
                {
                    "internalType": "uint256",
                    "name": "teamAmount",
                    "type": "uint256"
                }
            ],
            "stateMutability": "view",
            "type": "function"
        },
        {
            "inputs": [],
            "name": "_token",
            "outputs": [
                {
                    "internalType": "address",
                    "name": "",
                    "type": "address"
                }
            ],
            "stateMutability": "view",
            "type": "function"
        },
        {
            "inputs": [],
            "name": "_uri",
            "outputs": [
                {
                    "internalType": "string",
                    "name": "",
                    "type": "string"
                }
            ],
            "stateMutability": "view",
            "type": "function"
        },
        {
            "inputs": [
                {
                    "internalType": "address",
                    "name": "_target",
                    "type": "address"
                },
                {
                    "internalType": "uint256",
                    "name": "_weight",
                    "type": "uint256"
                }
            ],
            "name": "addAdminRewardUser",
            "outputs": [],
            "stateMutability": "nonpayable",
            "type": "function"
        },
        {
            "inputs": [
                {
                    "internalType": "address",
                    "name": "_ads",
                    "type": "address"
                },
                {
                    "internalType": "uint256",
                    "name": "value",
                    "type": "uint256"
                }
            ],
            "name": "addElement",
            "outputs": [],
            "stateMutability": "nonpayable",
            "type": "function"
        },
        {
            "inputs": [
                {
                    "internalType": "address",
                    "name": "_target",
                    "type": "address"
                },
                {
                    "internalType": "uint256",
                    "name": "_amount",
                    "type": "uint256"
                }
            ],
            "name": "addPower",
            "outputs": [],
            "stateMutability": "nonpayable",
            "type": "function"
        },
        {
            "inputs": [],
            "name": "addPowerFee",
            "outputs": [
                {
                    "internalType": "uint256",
                    "name": "",
                    "type": "uint256"
                }
            ],
            "stateMutability": "view",
            "type": "function"
        },
        {
            "inputs": [
                {
                    "internalType": "address[]",
                    "name": "_operAddress",
                    "type": "address[]"
                },
                {
                    "internalType": "address",
                    "name": "_target",
                    "type": "address"
                }
            ],
            "name": "adminBind",
            "outputs": [],
            "stateMutability": "nonpayable",
            "type": "function"
        },
        {
            "inputs": [
                {
                    "internalType": "uint256",
                    "name": "",
                    "type": "uint256"
                }
            ],
            "name": "adminRewardList",
            "outputs": [
                {
                    "internalType": "address",
                    "name": "user",
                    "type": "address"
                },
                {
                    "internalType": "uint256",
                    "name": "weight",
                    "type": "uint256"
                }
            ],
            "stateMutability": "view",
            "type": "function"
        },
        {
            "inputs": [
                {
                    "internalType": "address",
                    "name": "",
                    "type": "address"
                },
                {
                    "internalType": "uint256",
                    "name": "",
                    "type": "uint256"
                }
            ],
            "name": "adminRewardRecord",
            "outputs": [
                {
                    "internalType": "uint256",
                    "name": "id",
                    "type": "uint256"
                },
                {
                    "internalType": "uint256",
                    "name": "time",
                    "type": "uint256"
                }
            ],
            "stateMutability": "view",
            "type": "function"
        },
        {
            "inputs": [
                {
                    "internalType": "address",
                    "name": "_target",
                    "type": "address"
                },
                {
                    "internalType": "address",
                    "name": "_top",
                    "type": "address"
                },
                {
                    "internalType": "uint256",
                    "name": "price",
                    "type": "uint256"
                },
                {
                    "internalType": "uint256",
                    "name": "power",
                    "type": "uint256"
                }
            ],
            "name": "adminWrite",
            "outputs": [],
            "stateMutability": "nonpayable",
            "type": "function"
        },
        {
            "inputs": [
                {
                    "internalType": "address",
                    "name": "_operAddress",
                    "type": "address"
                },
                {
                    "internalType": "address",
                    "name": "_target",
                    "type": "address"
                }
            ],
            "name": "bind",
            "outputs": [],
            "stateMutability": "nonpayable",
            "type": "function"
        },
        {
            "inputs": [],
            "name": "calTodayProduce",
            "outputs": [],
            "stateMutability": "nonpayable",
            "type": "function"
        },
        {
            "inputs": [
                {
                    "internalType": "uint256",
                    "name": "a",
                    "type": "uint256"
                },
                {
                    "internalType": "uint256",
                    "name": "b",
                    "type": "uint256"
                }
            ],
            "name": "calculatePercentageDifference",
            "outputs": [
                {
                    "internalType": "uint256",
                    "name": "",
                    "type": "uint256"
                }
            ],
            "stateMutability": "pure",
            "type": "function"
        },
        {
            "inputs": [
                {
                    "internalType": "address",
                    "name": "fundAddress",
                    "type": "address"
                }
            ],
            "name": "claimBalance",
            "outputs": [],
            "stateMutability": "nonpayable",
            "type": "function"
        },
        {
            "inputs": [
                {
                    "internalType": "address",
                    "name": "fundAddress",
                    "type": "address"
                },
                {
                    "internalType": "address",
                    "name": "token",
                    "type": "address"
                },
                {
                    "internalType": "uint256",
                    "name": "amount",
                    "type": "uint256"
                }
            ],
            "name": "claimToken",
            "outputs": [],
            "stateMutability": "nonpayable",
            "type": "function"
        },
        {
            "inputs": [],
            "name": "end",
            "outputs": [
                {
                    "internalType": "uint256",
                    "name": "",
                    "type": "uint256"
                }
            ],
            "stateMutability": "view",
            "type": "function"
        },
        {
            "inputs": [],
            "name": "getAdminRewardList",
            "outputs": [
                {
                    "components": [
                        {
                            "internalType": "address",
                            "name": "user",
                            "type": "address"
                        },
                        {
                            "internalType": "uint256",
                            "name": "weight",
                            "type": "uint256"
                        }
                    ],
                    "internalType": "struct ContractName.Admin2RewardInfo[]",
                    "name": "",
                    "type": "tuple[]"
                }
            ],
            "stateMutability": "view",
            "type": "function"
        },
        {
            "inputs": [
                {
                    "internalType": "address",
                    "name": "_target",
                    "type": "address"
                }
            ],
            "name": "getAdminRewardList",
            "outputs": [
                {
                    "components": [
                        {
                            "internalType": "uint256",
                            "name": "id",
                            "type": "uint256"
                        },
                        {
                            "internalType": "uint256",
                            "name": "time",
                            "type": "uint256"
                        }
                    ],
                    "internalType": "struct ContractName.PladgeRecord[]",
                    "name": "",
                    "type": "tuple[]"
                }
            ],
            "stateMutability": "view",
            "type": "function"
        },
        {
            "inputs": [
                {
                    "internalType": "address",
                    "name": "_target",
                    "type": "address"
                }
            ],
            "name": "getAmountA",
            "outputs": [
                {
                    "internalType": "uint256",
                    "name": "",
                    "type": "uint256"
                }
            ],
            "stateMutability": "view",
            "type": "function"
        },
        {
            "inputs": [
                {
                    "internalType": "address",
                    "name": "_target",
                    "type": "address"
                }
            ],
            "name": "getAmountB",
            "outputs": [
                {
                    "internalType": "uint256",
                    "name": "",
                    "type": "uint256"
                }
            ],
            "stateMutability": "view",
            "type": "function"
        },
        {
            "inputs": [
                {
                    "internalType": "address",
                    "name": "_target",
                    "type": "address"
                }
            ],
            "name": "getAmountT",
            "outputs": [
                {
                    "internalType": "uint256",
                    "name": "",
                    "type": "uint256"
                }
            ],
            "stateMutability": "view",
            "type": "function"
        },
        {
            "inputs": [
                {
                    "internalType": "uint256",
                    "name": "_time",
                    "type": "uint256"
                }
            ],
            "name": "getDayPower",
            "outputs": [
                {
                    "internalType": "uint256",
                    "name": "",
                    "type": "uint256"
                }
            ],
            "stateMutability": "view",
            "type": "function"
        },
        {
            "inputs": [],
            "name": "getElements51to550",
            "outputs": [
                {
                    "components": [
                        {
                            "internalType": "address",
                            "name": "ads",
                            "type": "address"
                        },
                        {
                            "internalType": "uint256",
                            "name": "value",
                            "type": "uint256"
                        },
                        {
                            "internalType": "uint256",
                            "name": "time",
                            "type": "uint256"
                        }
                    ],
                    "internalType": "struct ContractName.BuyRecord[]",
                    "name": "result",
                    "type": "tuple[]"
                }
            ],
            "stateMutability": "view",
            "type": "function"
        },
        {
            "inputs": [],
            "name": "getFirst50Elements",
            "outputs": [
                {
                    "components": [
                        {
                            "internalType": "address",
                            "name": "ads",
                            "type": "address"
                        },
                        {
                            "internalType": "uint256",
                            "name": "value",
                            "type": "uint256"
                        },
                        {
                            "internalType": "uint256",
                            "name": "time",
                            "type": "uint256"
                        }
                    ],
                    "internalType": "struct ContractName.BuyRecord[]",
                    "name": "result",
                    "type": "tuple[]"
                }
            ],
            "stateMutability": "view",
            "type": "function"
        },
        {
            "inputs": [
                {
                    "internalType": "address",
                    "name": "_target",
                    "type": "address"
                }
            ],
            "name": "getLastTByUser",
            "outputs": [
                {
                    "internalType": "uint256",
                    "name": "",
                    "type": "uint256"
                }
            ],
            "stateMutability": "view",
            "type": "function"
        },
        {
            "inputs": [
                {
                    "internalType": "address",
                    "name": "_target",
                    "type": "address"
                }
            ],
            "name": "getMyInfo",
            "outputs": [
                {
                    "internalType": "address",
                    "name": "",
                    "type": "address"
                },
                {
                    "internalType": "uint256",
                    "name": "",
                    "type": "uint256"
                },
                {
                    "internalType": "uint256",
                    "name": "",
                    "type": "uint256"
                },
                {
                    "internalType": "uint256",
                    "name": "",
                    "type": "uint256"
                },
                {
                    "internalType": "uint256",
                    "name": "",
                    "type": "uint256"
                }
            ],
            "stateMutability": "view",
            "type": "function"
        },
        {
            "inputs": [
                {
                    "internalType": "address",
                    "name": "_target",
                    "type": "address"
                }
            ],
            "name": "getMyInfo2",
            "outputs": [
                {
                    "internalType": "uint256",
                    "name": "",
                    "type": "uint256"
                },
                {
                    "internalType": "uint256",
                    "name": "",
                    "type": "uint256"
                },
                {
                    "internalType": "uint256",
                    "name": "",
                    "type": "uint256"
                },
                {
                    "internalType": "uint256",
                    "name": "",
                    "type": "uint256"
                }
            ],
            "stateMutability": "view",
            "type": "function"
        },
        {
            "inputs": [
                {
                    "internalType": "address",
                    "name": "_target",
                    "type": "address"
                }
            ],
            "name": "getMyTeam",
            "outputs": [
                {
                    "components": [
                        {
                            "internalType": "uint256",
                            "name": "zhi",
                            "type": "uint256"
                        },
                        {
                            "internalType": "uint256",
                            "name": "tureZhi",
                            "type": "uint256"
                        },
                        {
                            "internalType": "uint256",
                            "name": "team",
                            "type": "uint256"
                        },
                        {
                            "internalType": "uint256",
                            "name": "trueTeam",
                            "type": "uint256"
                        },
                        {
                            "internalType": "uint256",
                            "name": "teamAmount",
                            "type": "uint256"
                        }
                    ],
                    "internalType": "struct ContractName.Team",
                    "name": "",
                    "type": "tuple"
                }
            ],
            "stateMutability": "view",
            "type": "function"
        },
        {
            "inputs": [
                {
                    "internalType": "address",
                    "name": "_target",
                    "type": "address"
                }
            ],
            "name": "getPladeList",
            "outputs": [
                {
                    "components": [
                        {
                            "internalType": "uint256",
                            "name": "id",
                            "type": "uint256"
                        },
                        {
                            "internalType": "uint256",
                            "name": "time",
                            "type": "uint256"
                        }
                    ],
                    "internalType": "struct ContractName.PladgeRecord[]",
                    "name": "",
                    "type": "tuple[]"
                }
            ],
            "stateMutability": "view",
            "type": "function"
        },
        {
            "inputs": [
                {
                    "internalType": "uint256",
                    "name": "startIndex",
                    "type": "uint256"
                },
                {
                    "internalType": "uint256",
                    "name": "endIndex",
                    "type": "uint256"
                }
            ],
            "name": "getRankedAddressesByRange",
            "outputs": [
                {
                    "components": [
                        {
                            "internalType": "address",
                            "name": "user",
                            "type": "address"
                        },
                        {
                            "internalType": "uint256",
                            "name": "reward",
                            "type": "uint256"
                        }
                    ],
                    "internalType": "struct ContractName.RewardInfo[]",
                    "name": "",
                    "type": "tuple[]"
                }
            ],
            "stateMutability": "view",
            "type": "function"
        },
        {
            "inputs": [
                {
                    "internalType": "address",
                    "name": "_target",
                    "type": "address"
                }
            ],
            "name": "getReawrd",
            "outputs": [],
            "stateMutability": "nonpayable",
            "type": "function"
        },
        {
            "inputs": [
                {
                    "internalType": "address",
                    "name": "_address",
                    "type": "address"
                }
            ],
            "name": "getRecommend",
            "outputs": [
                {
                    "internalType": "address",
                    "name": "",
                    "type": "address"
                }
            ],
            "stateMutability": "view",
            "type": "function"
        },
        {
            "inputs": [
                {
                    "internalType": "address",
                    "name": "_target",
                    "type": "address"
                }
            ],
            "name": "getRewardList",
            "outputs": [
                {
                    "components": [
                        {
                            "internalType": "uint256",
                            "name": "stat",
                            "type": "uint256"
                        },
                        {
                            "internalType": "uint256",
                            "name": "dyna",
                            "type": "uint256"
                        },
                        {
                            "internalType": "uint256",
                            "name": "total",
                            "type": "uint256"
                        }
                    ],
                    "internalType": "struct ContractName.RewardRecord[]",
                    "name": "",
                    "type": "tuple[]"
                }
            ],
            "stateMutability": "view",
            "type": "function"
        },
        {
            "inputs": [
                {
                    "internalType": "address",
                    "name": "_target",
                    "type": "address"
                }
            ],
            "name": "getRewardTotal",
            "outputs": [
                {
                    "internalType": "uint256",
                    "name": "",
                    "type": "uint256"
                }
            ],
            "stateMutability": "view",
            "type": "function"
        },
        {
            "inputs": [
                {
                    "internalType": "address",
                    "name": "_target",
                    "type": "address"
                }
            ],
            "name": "getStatic",
            "outputs": [
                {
                    "internalType": "uint256",
                    "name": "",
                    "type": "uint256"
                }
            ],
            "stateMutability": "view",
            "type": "function"
        },
        {
            "inputs": [
                {
                    "internalType": "address",
                    "name": "_target",
                    "type": "address"
                }
            ],
            "name": "getSync",
            "outputs": [
                {
                    "internalType": "uint256",
                    "name": "",
                    "type": "uint256"
                }
            ],
            "stateMutability": "view",
            "type": "function"
        },
        {
            "inputs": [],
            "name": "getTListList",
            "outputs": [
                {
                    "internalType": "address[]",
                    "name": "",
                    "type": "address[]"
                }
            ],
            "stateMutability": "view",
            "type": "function"
        },
        {
            "inputs": [
                {
                    "internalType": "uint256",
                    "name": "i",
                    "type": "uint256"
                }
            ],
            "name": "getTRankAddress",
            "outputs": [
                {
                    "internalType": "address",
                    "name": "user",
                    "type": "address"
                },
                {
                    "internalType": "uint256",
                    "name": "reward",
                    "type": "uint256"
                }
            ],
            "stateMutability": "view",
            "type": "function"
        },
        {
            "inputs": [],
            "name": "getTRankLength",
            "outputs": [
                {
                    "internalType": "uint256",
                    "name": "",
                    "type": "uint256"
                }
            ],
            "stateMutability": "view",
            "type": "function"
        },
        {
            "inputs": [
                {
                    "internalType": "address",
                    "name": "_target",
                    "type": "address"
                }
            ],
            "name": "getTeamList",
            "outputs": [
                {
                    "internalType": "address[]",
                    "name": "",
                    "type": "address[]"
                }
            ],
            "stateMutability": "view",
            "type": "function"
        },
        {
            "inputs": [],
            "name": "getTime",
            "outputs": [
                {
                    "internalType": "uint256",
                    "name": "",
                    "type": "uint256"
                }
            ],
            "stateMutability": "view",
            "type": "function"
        },
        {
            "inputs": [],
            "name": "getTimeWeek",
            "outputs": [
                {
                    "internalType": "uint256",
                    "name": "",
                    "type": "uint256"
                }
            ],
            "stateMutability": "view",
            "type": "function"
        },
        {
            "inputs": [],
            "name": "getTodayProduceNoDecimal",
            "outputs": [
                {
                    "internalType": "uint256",
                    "name": "",
                    "type": "uint256"
                }
            ],
            "stateMutability": "view",
            "type": "function"
        },
        {
            "inputs": [
                {
                    "internalType": "uint256",
                    "name": "total",
                    "type": "uint256"
                }
            ],
            "name": "getTokenPriceByU",
            "outputs": [
                {
                    "internalType": "uint256",
                    "name": "",
                    "type": "uint256"
                }
            ],
            "stateMutability": "view",
            "type": "function"
        },
        {
            "inputs": [],
            "name": "getTotalAdminWeight",
            "outputs": [
                {
                    "internalType": "uint256",
                    "name": "",
                    "type": "uint256"
                }
            ],
            "stateMutability": "view",
            "type": "function"
        },
        {
            "inputs": [],
            "name": "getTotalT",
            "outputs": [
                {
                    "internalType": "uint256",
                    "name": "",
                    "type": "uint256"
                }
            ],
            "stateMutability": "view",
            "type": "function"
        },
        {
            "inputs": [
                {
                    "internalType": "uint256",
                    "name": "total",
                    "type": "uint256"
                }
            ],
            "name": "getUPriceByToken",
            "outputs": [
                {
                    "internalType": "uint256",
                    "name": "",
                    "type": "uint256"
                }
            ],
            "stateMutability": "view",
            "type": "function"
        },
        {
            "inputs": [
                {
                    "internalType": "uint256",
                    "name": "weekId",
                    "type": "uint256"
                }
            ],
            "name": "getWeekRankUsers",
            "outputs": [
                {
                    "components": [
                        {
                            "internalType": "address",
                            "name": "user",
                            "type": "address"
                        },
                        {
                            "internalType": "uint256",
                            "name": "reward",
                            "type": "uint256"
                        }
                    ],
                    "internalType": "struct ContractName.RewardInfo[]",
                    "name": "",
                    "type": "tuple[]"
                }
            ],
            "stateMutability": "view",
            "type": "function"
        },
        {
            "inputs": [
                {
                    "internalType": "uint256",
                    "name": "_time",
                    "type": "uint256"
                }
            ],
            "name": "getWeekTotal",
            "outputs": [
                {
                    "internalType": "uint256",
                    "name": "",
                    "type": "uint256"
                }
            ],
            "stateMutability": "view",
            "type": "function"
        },
        {
            "inputs": [
                {
                    "internalType": "uint256",
                    "name": "weekId",
                    "type": "uint256"
                }
            ],
            "name": "getWeekUsers",
            "outputs": [
                {
                    "internalType": "address[]",
                    "name": "",
                    "type": "address[]"
                }
            ],
            "stateMutability": "view",
            "type": "function"
        },
        {
            "inputs": [],
            "name": "initialize",
            "outputs": [],
            "stateMutability": "nonpayable",
            "type": "function"
        },
        {
            "inputs": [
                {
                    "internalType": "uint256",
                    "name": "",
                    "type": "uint256"
                },
                {
                    "internalType": "address",
                    "name": "",
                    "type": "address"
                }
            ],
            "name": "lastReward",
            "outputs": [
                {
                    "internalType": "uint256",
                    "name": "",
                    "type": "uint256"
                }
            ],
            "stateMutability": "view",
            "type": "function"
        },
        {
            "inputs": [],
            "name": "lastTotalT",
            "outputs": [
                {
                    "internalType": "uint256",
                    "name": "",
                    "type": "uint256"
                }
            ],
            "stateMutability": "view",
            "type": "function"
        },
        {
            "inputs": [],
            "name": "lastdayPower",
            "outputs": [
                {
                    "internalType": "uint256",
                    "name": "",
                    "type": "uint256"
                }
            ],
            "stateMutability": "view",
            "type": "function"
        },
        {
            "inputs": [],
            "name": "lastdaydayPower",
            "outputs": [
                {
                    "internalType": "uint256",
                    "name": "",
                    "type": "uint256"
                }
            ],
            "stateMutability": "view",
            "type": "function"
        },
        {
            "inputs": [
                {
                    "internalType": "address",
                    "name": "_operAddress",
                    "type": "address"
                },
                {
                    "internalType": "uint256",
                    "name": "_id",
                    "type": "uint256"
                }
            ],
            "name": "mining",
            "outputs": [],
            "stateMutability": "nonpayable",
            "type": "function"
        },
        {
            "inputs": [
                {
                    "internalType": "address",
                    "name": "operator",
                    "type": "address"
                },
                {
                    "internalType": "address",
                    "name": "from",
                    "type": "address"
                },
                {
                    "internalType": "uint256[]",
                    "name": "ids",
                    "type": "uint256[]"
                },
                {
                    "internalType": "uint256[]",
                    "name": "values",
                    "type": "uint256[]"
                },
                {
                    "internalType": "bytes",
                    "name": "data",
                    "type": "bytes"
                }
            ],
            "name": "onERC1155BatchReceived",
            "outputs": [
                {
                    "internalType": "bytes4",
                    "name": "",
                    "type": "bytes4"
                }
            ],
            "stateMutability": "nonpayable",
            "type": "function"
        },
        {
            "inputs": [
                {
                    "internalType": "address",
                    "name": "operator",
                    "type": "address"
                },
                {
                    "internalType": "address",
                    "name": "from",
                    "type": "address"
                },
                {
                    "internalType": "uint256",
                    "name": "id",
                    "type": "uint256"
                },
                {
                    "internalType": "uint256",
                    "name": "value",
                    "type": "uint256"
                },
                {
                    "internalType": "bytes",
                    "name": "data",
                    "type": "bytes"
                }
            ],
            "name": "onERC1155Received",
            "outputs": [
                {
                    "internalType": "bytes4",
                    "name": "",
                    "type": "bytes4"
                }
            ],
            "stateMutability": "nonpayable",
            "type": "function"
        },
        {
            "inputs": [],
            "name": "owner",
            "outputs": [
                {
                    "internalType": "address",
                    "name": "",
                    "type": "address"
                }
            ],
            "stateMutability": "view",
            "type": "function"
        },
        {
            "inputs": [
                {
                    "internalType": "address",
                    "name": "",
                    "type": "address"
                },
                {
                    "internalType": "uint256",
                    "name": "",
                    "type": "uint256"
                }
            ],
            "name": "pladeList",
            "outputs": [
                {
                    "internalType": "uint256",
                    "name": "id",
                    "type": "uint256"
                },
                {
                    "internalType": "uint256",
                    "name": "time",
                    "type": "uint256"
                }
            ],
            "stateMutability": "view",
            "type": "function"
        },
        {
            "inputs": [
                {
                    "internalType": "uint256",
                    "name": "",
                    "type": "uint256"
                }
            ],
            "name": "powerInfo",
            "outputs": [
                {
                    "internalType": "uint256",
                    "name": "",
                    "type": "uint256"
                }
            ],
            "stateMutability": "view",
            "type": "function"
        },
        {
            "inputs": [],
            "name": "proxiableUUID",
            "outputs": [
                {
                    "internalType": "bytes32",
                    "name": "",
                    "type": "bytes32"
                }
            ],
            "stateMutability": "view",
            "type": "function"
        },
        {
            "inputs": [
                {
                    "internalType": "address",
                    "name": "_target",
                    "type": "address"
                },
                {
                    "internalType": "uint256",
                    "name": "_amount",
                    "type": "uint256"
                }
            ],
            "name": "queryReawrd70",
            "outputs": [
                {
                    "internalType": "uint256",
                    "name": "res",
                    "type": "uint256"
                }
            ],
            "stateMutability": "view",
            "type": "function"
        },
        {
            "inputs": [
                {
                    "internalType": "address",
                    "name": "",
                    "type": "address"
                }
            ],
            "name": "recommend",
            "outputs": [
                {
                    "internalType": "address",
                    "name": "",
                    "type": "address"
                }
            ],
            "stateMutability": "view",
            "type": "function"
        },
        {
            "inputs": [],
            "name": "renounceOwnership",
            "outputs": [],
            "stateMutability": "nonpayable",
            "type": "function"
        },
        {
            "inputs": [
                {
                    "internalType": "address",
                    "name": "",
                    "type": "address"
                },
                {
                    "internalType": "uint256",
                    "name": "",
                    "type": "uint256"
                }
            ],
            "name": "rewardList",
            "outputs": [
                {
                    "internalType": "uint256",
                    "name": "stat",
                    "type": "uint256"
                },
                {
                    "internalType": "uint256",
                    "name": "dyna",
                    "type": "uint256"
                },
                {
                    "internalType": "uint256",
                    "name": "total",
                    "type": "uint256"
                }
            ],
            "stateMutability": "view",
            "type": "function"
        },
        {
            "inputs": [
                {
                    "internalType": "address",
                    "name": "",
                    "type": "address"
                }
            ],
            "name": "rewardTotalAmount",
            "outputs": [
                {
                    "internalType": "uint256",
                    "name": "",
                    "type": "uint256"
                }
            ],
            "stateMutability": "view",
            "type": "function"
        },
        {
            "inputs": [
                {
                    "internalType": "address",
                    "name": "_target",
                    "type": "address"
                }
            ],
            "name": "setNFT",
            "outputs": [],
            "stateMutability": "nonpayable",
            "type": "function"
        },
        {
            "inputs": [
                {
                    "internalType": "uint256",
                    "name": "time",
                    "type": "uint256"
                },
                {
                    "internalType": "uint256",
                    "name": "amount",
                    "type": "uint256"
                }
            ],
            "name": "setPow",
            "outputs": [],
            "stateMutability": "nonpayable",
            "type": "function"
        },
        {
            "inputs": [
                {
                    "internalType": "uint256",
                    "name": "fee",
                    "type": "uint256"
                }
            ],
            "name": "setPowerFee",
            "outputs": [],
            "stateMutability": "nonpayable",
            "type": "function"
        },
        {
            "inputs": [
                {
                    "internalType": "address",
                    "name": "_target",
                    "type": "address"
                }
            ],
            "name": "setSwapContractAddress",
            "outputs": [],
            "stateMutability": "nonpayable",
            "type": "function"
        },
        {
            "inputs": [
                {
                    "internalType": "address",
                    "name": "_target",
                    "type": "address"
                }
            ],
            "name": "setTargetAddress20",
            "outputs": [],
            "stateMutability": "nonpayable",
            "type": "function"
        },
        {
            "inputs": [
                {
                    "internalType": "address",
                    "name": "_target",
                    "type": "address"
                }
            ],
            "name": "setTargetAddress5",
            "outputs": [],
            "stateMutability": "nonpayable",
            "type": "function"
        },
        {
            "inputs": [
                {
                    "internalType": "address",
                    "name": "_target",
                    "type": "address"
                }
            ],
            "name": "setToken",
            "outputs": [],
            "stateMutability": "nonpayable",
            "type": "function"
        },
        {
            "inputs": [],
            "name": "size",
            "outputs": [
                {
                    "internalType": "uint256",
                    "name": "",
                    "type": "uint256"
                }
            ],
            "stateMutability": "view",
            "type": "function"
        },
        {
            "inputs": [],
            "name": "sortTList",
            "outputs": [],
            "stateMutability": "nonpayable",
            "type": "function"
        },
        {
            "inputs": [],
            "name": "sortWeekReward",
            "outputs": [],
            "stateMutability": "nonpayable",
            "type": "function"
        },
        {
            "inputs": [],
            "name": "start",
            "outputs": [
                {
                    "internalType": "uint256",
                    "name": "",
                    "type": "uint256"
                }
            ],
            "stateMutability": "view",
            "type": "function"
        },
        {
            "inputs": [
                {
                    "internalType": "bytes4",
                    "name": "interfaceId",
                    "type": "bytes4"
                }
            ],
            "name": "supportsInterface",
            "outputs": [
                {
                    "internalType": "bool",
                    "name": "",
                    "type": "bool"
                }
            ],
            "stateMutability": "view",
            "type": "function"
        },
        {
            "inputs": [
                {
                    "internalType": "uint256",
                    "name": "",
                    "type": "uint256"
                }
            ],
            "name": "tList",
            "outputs": [
                {
                    "internalType": "address",
                    "name": "",
                    "type": "address"
                }
            ],
            "stateMutability": "view",
            "type": "function"
        },
        {
            "inputs": [
                {
                    "internalType": "uint256",
                    "name": "",
                    "type": "uint256"
                }
            ],
            "name": "tRankAddress",
            "outputs": [
                {
                    "internalType": "address",
                    "name": "user",
                    "type": "address"
                },
                {
                    "internalType": "uint256",
                    "name": "reward",
                    "type": "uint256"
                }
            ],
            "stateMutability": "view",
            "type": "function"
        },
        {
            "inputs": [
                {
                    "internalType": "address",
                    "name": "",
                    "type": "address"
                }
            ],
            "name": "tReward",
            "outputs": [
                {
                    "internalType": "uint256",
                    "name": "",
                    "type": "uint256"
                }
            ],
            "stateMutability": "view",
            "type": "function"
        },
        {
            "inputs": [
                {
                    "internalType": "address",
                    "name": "",
                    "type": "address"
                },
                {
                    "internalType": "uint256",
                    "name": "",
                    "type": "uint256"
                }
            ],
            "name": "teamList",
            "outputs": [
                {
                    "internalType": "address",
                    "name": "",
                    "type": "address"
                }
            ],
            "stateMutability": "view",
            "type": "function"
        },
        {
            "inputs": [],
            "name": "todayProduce",
            "outputs": [
                {
                    "internalType": "uint256",
                    "name": "",
                    "type": "uint256"
                }
            ],
            "stateMutability": "view",
            "type": "function"
        },
        {
            "inputs": [],
            "name": "totalAdminWeight",
            "outputs": [
                {
                    "internalType": "uint256",
                    "name": "",
                    "type": "uint256"
                }
            ],
            "stateMutability": "view",
            "type": "function"
        },
        {
            "inputs": [],
            "name": "totalT500",
            "outputs": [
                {
                    "internalType": "uint256",
                    "name": "",
                    "type": "uint256"
                }
            ],
            "stateMutability": "view",
            "type": "function"
        },
        {
            "inputs": [
                {
                    "internalType": "address",
                    "name": "newOwner",
                    "type": "address"
                }
            ],
            "name": "transferOwnership",
            "outputs": [],
            "stateMutability": "nonpayable",
            "type": "function"
        },
        {
            "inputs": [
                {
                    "internalType": "address",
                    "name": "_target",
                    "type": "address"
                }
            ],
            "name": "updateT",
            "outputs": [],
            "stateMutability": "nonpayable",
            "type": "function"
        },
        {
            "inputs": [
                {
                    "internalType": "address",
                    "name": "newImplementation",
                    "type": "address"
                },
                {
                    "internalType": "bytes",
                    "name": "data",
                    "type": "bytes"
                }
            ],
            "name": "upgradeToAndCall",
            "outputs": [],
            "stateMutability": "payable",
            "type": "function"
        },
        {
            "inputs": [
                {
                    "internalType": "uint256",
                    "name": "",
                    "type": "uint256"
                },
                {
                    "internalType": "uint256",
                    "name": "",
                    "type": "uint256"
                }
            ],
            "name": "weekRankAddress",
            "outputs": [
                {
                    "internalType": "address",
                    "name": "user",
                    "type": "address"
                },
                {
                    "internalType": "uint256",
                    "name": "reward",
                    "type": "uint256"
                }
            ],
            "stateMutability": "view",
            "type": "function"
        },
        {
            "inputs": [
                {
                    "internalType": "uint256",
                    "name": "",
                    "type": "uint256"
                },
                {
                    "internalType": "address",
                    "name": "",
                    "type": "address"
                }
            ],
            "name": "weekReward",
            "outputs": [
                {
                    "internalType": "uint256",
                    "name": "",
                    "type": "uint256"
                }
            ],
            "stateMutability": "view",
            "type": "function"
        },
        {
            "inputs": [
                {
                    "internalType": "uint256",
                    "name": "",
                    "type": "uint256"
                }
            ],
            "name": "weekTotal",
            "outputs": [
                {
                    "internalType": "uint256",
                    "name": "",
                    "type": "uint256"
                }
            ],
            "stateMutability": "view",
            "type": "function"
        },
        {
            "inputs": [
                {
                    "internalType": "uint256",
                    "name": "",
                    "type": "uint256"
                },
                {
                    "internalType": "uint256",
                    "name": "",
                    "type": "uint256"
                }
            ],
            "name": "weekUsers",
            "outputs": [
                {
                    "internalType": "address",
                    "name": "",
                    "type": "address"
                }
            ],
            "stateMutability": "view",
            "type": "function"
        }
    ],
    "bytecode": "60a080604052346102e157306080525f80546001600160a01b0319167363390f615d290324c81271fd9ac48e5422aed80a1790556001805480821c911680156102d7575b60208210146102c357601f8111610270575b5060ad60019081555f9081527f68747470733a2f2f6675747572652e6d7970696e6174612e636c6f75642f69705f5160206151ba5f395f51905f52557f66732f516d564c357a6a36664771474e6a68687639394b6b4d317476356341727fb10e2d527612073b26eecdfd717e6a320cf44b4afac2b0732d9fcbe2b7fa0cf7557f4c7a626a6778324841716866624a37617a2f7b69647d000000000000000000007fb10e2d527612073b26eecdfd717e6a320cf44b4afac2b0732d9fcbe2b7fa0cf855600280546001600160a01b0319908116734a7bc32cf20f95e11af16e30829e96dfd6d4f5591790915560038054821673771eaae0ced45e507e9c7c414b86c2e2cac6183e17905560048054821673c5c28b6a75bc2a9f79db96765e09c2b008035a111790556005805490911673a883e05db55ab2d483d9ed116c41eb5167cc9263179055606460095569152d02c7e14af6800000600b55600c819055600d819055600e555f5160206151da5f395f51905f5254604081901c60ff16610261576002600160401b03196001600160401b0382160161020e575b604051614ed490816102e6823960805181818161213601526122ca0152f35b6001600160401b0319166001600160401b039081175f5160206151da5f395f51905f525581527fc7f505b2f371ae2175ee4913f4499e1f2633a7b5936321eed1cdaeb6115181d290602090a15f806101ef565b63f92ee8a960e01b5f5260045ffd5b60015f52601f0160051c5f5160206151ba5f395f51905f52017fb10e2d527612073b26eecdfd717e6a320cf44b4afac2b0732d9fcbe2b7fa0cf95b8181106102b85750610055565b5f81556001016102ab565b634e487b7160e01b5f52602260045260245ffd5b90607f1690610043565b5f80fdfe6080806040526004361015610012575f80fd5b5f905f3560e01c90816301449b4f14613c315750806301890b651461356c57806301ffc9a7146135325780630615be2e14612e875780630a32bf3614612dc75780630a47dcc014612d955780630aa7afb014612d775780630c495f0f14612d505780630dccc9ad14612c4b57806310e3b14914612c31578063122f0c9414612c05578063125bfb6614612b5d578063144fa6d714612b1d5780631e61982914612afc5780631fe6bbcd14612a89578063206c17bb14612a6057806325a9041714610aee57806329b35e43146105945780632ad1538614612a2057806332a1fab81461298c578063374082ab146128ec578063393a3777146128ce5780633e7ce723146127f5578063445ad750146127cd57806344ab55e61461273557806344c0cfb4146126e25780634651843e14612596578063472c00a914611454578063479c4a2f146125785780634b374c90146124bc5780634e7c914a146124985780634f1ef2861461224f578063509e7b541461220a57806351d65da91461218a57806352d1902d146121235780635441833d146120e3578063557ed1ba146120c5578063574e2f1814612035578063593439cd14611fe95780635e91164314611f38578063608f8cc614611f1657806361d7c17114611ef25780636ca7f0a614611ec95780636dafe92b14611ea55780636faaf22314611e65578063715018a614611dfc57806375dff62214611db45780637759db2e14611a415780637775ccd71461149c57806379aeccd21461077f5780637b959a1314611a1d578063810dfcb7146119ff5780638129fc1c146116c357806381ca6d081461169157806382fba86f1461161857806387c3df1c146115b75780638c4d1904146115995780638da5cb5b146115645780638f04f3101461154657806391d19dd3146114ba57806392dfc90c1461149c578063949d225d1461147e57806396a1d75e1461145457806398300e181461142b57806399c133b7146114085780639c6a642a146109dd578063a0ab0d7214611353578063a5a6c64f1461132b578063a72db85d146112af578063ad3cb1cc1461126e578063b0e59cf5146111a4578063b34d30ca14611092578063b370e9ac1461102b578063b633e4cd14610fd1578063bc197c8114610f38578063bde6ac2114610eff578063be43be0214610eb1578063be9a655514610e93578063bf4b419814610e6a578063c4dcad1d14610cfc578063c8898a6d14610bd0578063c8e31d1714610baa578063ca7b942a14610b18578063cc90f5cd14610aee578063cefb762d14610a9c578063d09f134414610a41578063d1ec9f1414610a16578063d2557be0146109dd578063d34f730a14610903578063d49d5181146108e7578063d4f3ddcd146108c8578063d85cd27514610813578063d88be3c0146105f6578063d9b86484146107e7578063daef40791461079d578063dbd2a07e1461077f578063e01fe64d1461073a578063e31e0d141461069d578063e44e1d2e14610637578063e5194d51146105f6578063ecd0c0c3146105cd578063ed87ecaf14610594578063efbe1c1c14610576578063f23a6e611461051b578063f2fde38b146104ee5763f56e9c66146104ac575f80fd5b346104eb5760203660031901126104eb576104c5613ca7565b6104cd6149be565b60018060a01b03166001600160601b0360a01b600354161760035580f35b80fd5b50346104eb5760203660031901126104eb5761051861050b613ca7565b6105136149be565b61494d565b80f35b50346104eb5760a03660031901126104eb57610535613ca7565b5061053e613cbd565b506084356001600160401b0381116105725761055e903690600401613fd2565b505060405163f23a6e6160e01b8152602090f35b5080fd5b50346104eb57806003193601126104eb576020600d54604051908152f35b50346104eb5760203660031901126104eb576020906040906001600160a01b036105bc613ca7565b168152601a83522054604051908152f35b50346104eb57806003193601126104eb576002546040516001600160a01b039091168152602090f35b50346104eb5760203660031901126104eb576020906001600160a01b0361061b613ca7565b16815260108252604060018060a01b0391205416604051908152f35b50346104eb5760203660031901126104eb5760a0906040906001600160a01b0361065f613ca7565b168152601460205220805490600181015490600281015460046003830154920154926040519485526020850152604084015260608301526080820152f35b50346104eb5760203660031901126104eb576001600160a01b036106bf613ca7565b1681526022602052604081208054906106d782613fff565b926106e56040519485613ddb565b82845290815260208082209084015b83831061070d57604051806107098782613eed565b0390f35b6002602060019260405161072081613d89565b8554815284860154838201528152019201920191906106f4565b50346104eb5760403660031901126104eb576040610756613cbd565b9160043581526016602052209060018060a01b03165f52602052602060405f2054604051908152f35b50346104eb57806003193601126104eb576020600a54604051908152f35b50346104eb5760403660031901126104eb5760406107b9613cbd565b916004358152601e602052209060018060a01b03165f52602052602060ff60405f2054166040519015158152f35b50346104eb5760203660031901126104eb57602061080b610806613ca7565b6147ce565b604051908152f35b50346104eb5761082f9061082636613d15565b90809391614016565b91600183018093116108b45761084483614079565b60235490938181106108ac5750915b8183101561086a575b604051806107098682613f4d565b8281101561085c578061089061088a610885600194866140e8565b613e9a565b506144fe565b61089a82876140d4565b526108a581866140d4565b500161086a565b905091610853565b634e487b7160e01b82526011600452602482fd5b50346104eb5760203660031901126104eb57602061080b60043561474d565b50346104eb57806003193601126104eb5760206040515f198152f35b50346104eb57806003193601126104eb576106995461092181613fff565b61092e6040519182613ddb565b81815261069983526020810191837f5b3fadd7d25ab6b3ec31fe371523f15c3518f12e8b3e254ae2a243cdb512df59845b8383106109bf57868587604051928392602084019060208552518091526040840192915b818110610991575050500390f35b825180516001600160a01b031685526020908101518186015286955060409094019390920191600101610983565b600260206001926109cf856144fe565b81520192019201919061095f565b50346104eb5760203660031901126104eb576020906040906001600160a01b03610a05613ca7565b168152601983522054604051908152f35b50346104eb5760403660031901126104eb57610518610a33613ca7565b610a3b613cbd565b906146b8565b50346104eb5760403660031901126104eb57610a5b613ca7565b6001600160a01b031681526020805260408120805460243592908310156104eb576040610a888484613ed4565b506001815491015482519182526020820152f35b50346104eb5760203660031901126104eb5760043561022681101561057257600390606092500260018060a01b0381602601541690602860278201549101549060405192835260208301526040820152f35b50346104eb5760203660031901126104eb5760406020916004358152601c83522054604051908152f35b50346104eb57806003193601126104eb57610b336032614163565b9080600c54915b60328110610b5057604051806107098682613e3f565b6103e8610b5d82856140e8565b06610226811015610b965790610b7a6003600193026026016141c4565b610b8482876140d4565b52610b8f81866140d4565b5001610b3a565b634e487b7160e01b83526032600452602483fd5b50346104eb5760403660031901126104eb57610518610bc7613ca7565b602435906145fe565b50346104eb5760403660031901126104eb576004356001600160401b0381116105725736602382011215610572578060040135610c0c81613fff565b91610c1a6040519384613ddb565b8183526024602084019260051b82010190368211610cf857602401915b818310610cd457505050610c49613cbd565b90610c526149be565b6001600160a01b038216835b8251811015610cc8576001906001600160a01b03610c7c82866140d4565b51168652601060205260408620836001600160601b0360a01b8254161790558286526015602052610cc260408720838060a01b03610cba84886140d4565b5116906145bd565b01610c5e565b84610518600186614ce0565b82356001600160a01b0381168103610cf457815260209283019201610c37565b8580fd5b8480fd5b50346104eb5760403660031901126104eb57610d16613ca7565b602435323303610e37576003546001600160a01b0316803b15610e285783604051637921219560e11b8152818160c4818360018060a01b038a16978860048401523060248401528960448401526001606484015260a060848401528160a48401525af18015610e2c57610e10575b509261051893508285526011602052610dc6610da2604087206141f5565b91610dad83826149f1565b6001600160a01b03165f90815260106020526040902090565b546001600160a01b031680610dfe575b505060405191610de7604084613ddb565b825242602083015283526020805260408320614045565b610e09915190614c8e565b5f80610dd6565b90610e1a91613ddb565b835f12610e2857835f610d84565b8380fd5b6040513d84823e3d90fd5b60405162461bcd60e51b815260206004820152600b60248201526a1b9bc818dbdb9d1c9858dd60aa1b6044820152606490fd5b50346104eb57806003193601126104eb576005546040516001600160a01b039091168152602090f35b50346104eb57806003193601126104eb576020600c54604051908152f35b50346104eb5760203660031901126104eb576004356106995481101561057257610eda90613eb6565b508054600190910154604080516001600160a01b039093168352602083019190915290f35b50346104eb5760203660031901126104eb576020906040906001600160a01b03610f27613ca7565b168152601883522054604051908152f35b50346104eb5760a03660031901126104eb57610f52613ca7565b50610f5b613cbd565b506044356001600160401b03811161057257610f7b903690600401613fa2565b50506064356001600160401b03811161057257610f9c903690600401613fa2565b50506084356001600160401b03811161057257610fbd903690600401613fd2565b505060405163bc197c8160e01b8152602090f35b50346104eb5760203660031901126104eb5780808080610fef613ca7565b610ff76149be565b479082908215611021575b6001600160a01b031690f1156110155780f35b604051903d90823e3d90fd5b6108fc9150611002565b50346104eb5760203660031901126104eb576040906001600160a01b03611050613ca7565b16815260136020522080546107096001830154926003600282015491015490604051948594859094939260609260808301968352602083015260408201520152565b50346104eb5760403660031901126104eb576110ac613ca7565b8154602435906001600160a01b0316330361116a57600f5460018111611121575b509060018060a01b031682526012602052600360408320600181016110f38482546140e8565b9055016111018282546140e8565b9055600f548252601d60205261111c604083209182546140e8565b905580f35b5f198101908111611156579061271061114961114061115094846140f5565b600954906140f5565b04906140e8565b5f6110cd565b634e487b7160e01b84526011600452602484fd5b60405162461bcd60e51b8152602060048201526012602482015271283937b434b134ba1037b832b930ba34b7b760711b6044820152606490fd5b50346104eb5760203660031901126104eb578054604051634c6afee560e11b815290602090829060049082906001600160a01b03165afa8015610e2c578290611236575b6111f59150600435614023565b90670de0b6b3a7640000820291808304670de0b6b3a7640000149015171561122257602082604051908152f35b634e487b7160e01b81526011600452602490fd5b506020813d602011611266575b8161125060209383613ddb565b81010312611262576111f590516111e8565b5f80fd5b3d9150611243565b50346104eb57806003193601126104eb5750610709604051611291604082613ddb565b60058152640352e302e360dc1b602082015260405191829182613dfc565b50346104eb5760203660031901126104eb576004358152601f602052604081208054906112db82613fff565b926112e96040519485613ddb565b82845290815260208082209084015b83831061130d57604051806107098782613f4d565b6002602060019261131d856144fe565b8152019201920191906112f8565b50346104eb57806003193601126104eb576020670de0b6b3a7640000600b5404604051908152f35b50346104eb5760203660031901126104eb57604060a091611372613ca7565b816080845161138081613dc0565b82815282602082015282868201528260608201520152600180851b031681526014602052206040516113b181613dc0565b81549182825260018101546020830190815260028201549060408401918252608060046003850154946060870195865201549401938452604051948552516020850152516040840152516060830152516080820152f35b50346104eb5760203660031901126104eb576114226149be565b60043560095580f35b50346104eb57806003193601126104eb576003546040516001600160a01b039091168152602090f35b50346104eb5760203660031901126104eb5760406020916004358152601d83522054604051908152f35b50346104eb57806003193601126104eb576020600e54604051908152f35b50346104eb57806003193601126104eb576020601b54604051908152f35b50346104eb5760203660031901126104eb57610100906040906001600160a01b036114e3613ca7565b16815260126020522060ff815416906001810154906002810154600382015460048301549060058401549260076006860154950154956040519715158852602088015260408701526060860152608085015260a084015260c083015260e0820152f35b50346104eb57806003193601126104eb576020600954604051908152f35b50346104eb57806003193601126104eb575f516020614e3f5f395f51905f52546040516001600160a01b039091168152602090f35b50346104eb57806003193601126104eb576020602354604051908152f35b50346104eb5760403660031901126104eb576115d1613ca7565b6001600160a01b03168152601560205260408120805460243592908310156104eb5760206115ff8484613d59565b905460405160039290921b1c6001600160a01b03168152f35b50346104eb5760203660031901126104eb576004358152602460205260408120604051918260208354918281520192825260208220915b818110611672576107098561166681870382613ddb565b60405191829182613cd3565b82546001600160a01b031684526020909301926001928301920161164f565b50346104eb576116a036613d15565b908252601f6020526040822080548210156116bf57610eda9250613ed4565b8280fd5b50346104eb57806003193601126104eb575f516020614e7f5f395f51905f525460ff8160401c1615906001600160401b038116801590816119f7575b60011490816119ed575b1590816119e4575b506119d55767ffffffffffffffff1981166001175f516020614e7f5f395f51905f5255816119a9575b5073d99d1c33f9fc3444f8101754abc46c52416550d16001600160601b0360a01b60255416176025556117bc60405161177281613d6e565b680ad78ebc5ac62000008152680ad78ebc5ac62000006020820152601460408201526001845260116020526040842090604060029180518455602081015160018501550151910155565b6118156040516117cb81613d6e565b682086ac35105260000081526828a857425466f800006020820152601960408201526002845260116020526040842090604060029180518455602081015160018501550151910155565b61186e60405161182481613d6e565b686194049f30f7200000815268925e06eec972b000006020820152601e60408201526003845260116020526040842090604060029180518455602081015160018501550151910155565b6118c960405161187d81613d6e565b690124bc0ddd92e56000008152690200491843c1116800006020820152602360408201526004845260116020526040842090604060029180518455602081015160018501550151910155565b6119246040516118d881613d6e565b69036e342998b8b020000081526906dc68533171604000006020820152602860408201526005845260116020526040842090604060029180518455602081015160018501550151910155565b6001600f55611931614db5565b611939614db5565b6119423361494d565b61194a614db5565b6119515780f35b68ff0000000000000000195f516020614e7f5f395f51905f5254165f516020614e7f5f395f51905f52557fc7f505b2f371ae2175ee4913f4499e1f2633a7b5936321eed1cdaeb6115181d2602060405160018152a180f35b68ffffffffffffffffff191668010000000000000001175f516020614e7f5f395f51905f52555f61173a565b63f92ee8a960e01b8352600483fd5b9050155f611711565b303b159150611709565b8391506116ff565b50346104eb57806003193601126104eb576020600754604051908152f35b50346104eb5760203660031901126104eb57602061080b611a3c613ca7565b614525565b50346104eb57806003193601126104eb576007600f54049081815260246020526040812054611a6f81614079565b92825b828110611d4057505050805b8251821015611b4057805b83515f198101908111611b2c57811015611b21576020611aa982866140d4565b51015160018201908183116111565790600192916020611ac983896140d4565b51015111611ad9575b5001611a89565b611b1a90611ae783886140d4565b51611af282896140d4565b51611afd858a6140d4565b52611b0884896140d4565b50611b1382896140d4565b52866140d4565b505f611ad2565b509060010190611a7e565b634e487b7160e01b83526011600452602483fd5b9050805b8251811015611bc45760146023541115611b61575b600101611b44565b6007600f54048252601f60205260408220611b7c82856140d4565b5190805490600160401b821015611bb05791611ba3826001959486611ba995018155613ed4565b90614108565b9050611b59565b634e487b7160e01b85526041600452602485fd5b506007600f54048152601f602052604081208054611be181613fff565b91611bef6040519384613ddb565b81835283526020808420849184015b838310611d22578585815b8151811015611ca5576001600160a01b03611c2482846140d4565b51511683526013602052604083206020611c3e83856140d4565b51015169031ce37b140fe230000081029080820469031ce37b140fe23000001490151715611c9157906002611c88600194936007600f54048852601c602052604088205490614023565b91015501611c09565b634e487b7160e01b85526011600452602485fd5b82805b61069954811015611d1e576001611cbe82613eb6565b50015469021342520d5fec20000081029080820469021342520d5fec2000001490151715611b2c5790611cf6600192600a5490614023565b611cff82613eb6565b50838060a01b0390541684526013602052600360408520015501611ca8565b5080f35b60026020600192611d32856144fe565b815201920192019190611bfe565b6001908285526024602052611d588160408720613d59565b838060a01b0391549060031b1c16838652601760205260408620838060a01b0382165f5260205260405f205460405191611d9183613d89565b82526020820152611da282886140d4565b52611dad81876140d4565b5001611a72565b50346104eb5760403660031901126104eb57611dce613ca7565b6001600160a01b03168152602260205260408120805460243592908310156104eb576040610a888484613ed4565b50346104eb57806003193601126104eb57611e156149be565b5f516020614e3f5f395f51905f5280546001600160a01b0319811690915581906001600160a01b03167f8be0079c531659141344cd1fd0a4f28419497f9722a3daafe3b4186f6b6457e08280a380f35b50346104eb5760203660031901126104eb57611e7f613ca7565b611e876149be565b81546001600160a01b0319166001600160a01b039190911617815580f35b50346104eb5760203660031901126104eb57602061080b611ec4613ca7565b614494565b50346104eb57806003193601126104eb576004546040516001600160a01b039091168152602090f35b50346104eb5760203660031901126104eb57602061080b611f11613ca7565b614422565b50346104eb5760203660031901126104eb57610518611f33613ca7565b6142ac565b50346104eb5760203660031901126104eb576001600160a01b03611f5a613ca7565b168152601360205260408120906040519060808201908282106001600160401b03831117611fd557506040526107096060835493848452600181015493846020820152600360028301549283604084015201549283910152604051948594859094939260609260808301968352602083015260408201520152565b634e487b7160e01b81526041600452602490fd5b50346104eb5760203660031901126104eb576040906004358152601160205220805461070960026001840154930154604051938493846040919493926060820195825260208201520152565b50346104eb5760403660031901126104eb5761204f613ca7565b6024359061205b6149be565b6040519061206882613d89565b6001600160a01b031681526020810182905261069954600160401b8110156120b1576120ab9291611ba38260016120a3940161069955613eb6565b600a546140e8565b600a5580f35b634e487b7160e01b84526041600452602484fd5b50346104eb57806003193601126104eb576020600f54604051908152f35b50346104eb5760203660031901126104eb576120fd613ca7565b6121056149be565b60018060a01b03166001600160601b0360a01b600554161760055580f35b50346104eb57806003193601126104eb577f00000000000000000000000000000000000000000000000000000000000000006001600160a01b0316300361217b5760206040515f516020614e5f5f395f51905f528152f35b63703e46dd60e11b8152600490fd5b50346104eb57806003193601126104eb57604051809160206106985492838152019161069882527f38ab5f11fea4ac1f4814c55c438d84fd4dec22a03ca29a7e3c711ce90ff8e68c915b8181106121eb576107098561166681870382613ddb565b82546001600160a01b03168452602090930192600192830192016121d4565b50346104eb5760403660031901126104eb576040612226613cbd565b9160043581526017602052209060018060a01b03165f52602052602060405f2054604051908152f35b5060403660031901126104eb57612264613ca7565b602435906001600160401b0382116116bf57366023830112156116bf578160040135908361229183613f32565b9361229f6040519586613ddb565b838552602085019336602482840101116116bf57806024602093018637850101526001600160a01b037f000000000000000000000000000000000000000000000000000000000000000016308114908115612476575b50612467576123026149be565b6040516352d1902d60e01b81526001600160a01b0382169390602081600481885afa86918161242f575b5061234557634c9c8ce360e01b86526004859052602486fd5b93845f516020614e5f5f395f51905f5287960361241d5750823b1561240b575f516020614e5f5f395f51905f5280546001600160a01b031916821790558491907fbc7cd75a20ee27fd9adebab32041f755214dbc6bffa90cc0225b39da2e5c2d3b8380a28051156123f057611d1e9382915190845af43d156123e8573d916123cc83613f32565b926123da6040519485613ddb565b83523d85602085013e614de0565b606091614de0565b50505050346123fc5780f35b63b398979f60e01b8152600490fd5b634c9c8ce360e01b8552600452602484fd5b632a87526960e21b8652600452602485fd5b9091506020813d60201161245f575b8161244b60209383613ddb565b8101031261245b5751905f61232c565b8680fd5b3d915061243e565b63703e46dd60e11b8452600484fd5b5f516020614e5f5f395f51905f52546001600160a01b0316141590505f6122f5565b50346104eb5760203660031901126104eb57602061080b6124b7613ca7565b61422b565b50346104eb5760803660031901126104eb576105186124d9613ca7565b6124f26124e4613cbd565b6124ec6149be565b826146b8565b604051906124ff82613d6e565b60443582526064356020830152600a604083015261251d82826149f1565b6001600160a01b03908116808552601060205260408520549092911680612566575b50506040519061254e82613d89565b83825242602083015283526020805260408320614045565b612571915190614c8e565b5f8061253f565b50346104eb57806003193601126104eb576020600b54604051908152f35b50346104eb57806003193601126104eb57600f54600281116125e7575b6125bc9061421d565b80600f555f198101818111611b2c578252601d6020526040822054908252601d602052604082205580f35b6001198101818111611b2c578252601d6020526040822054806007555f198201828111611156578352601d6020526040832054908160065581811115806126d9575b806126d0575b61263b575b50506125b3565b9061264591614138565b603c811015612655575b80612634565b600b5490603b19810190811161115657600a90049060018201809211611156578169043c33c1937564800000029169043c33c1937564800000830403611156576125bc92916126a3916140e8565b6969e10de76676d08000008111156126cb57506969e10de76676d08000005b600b559061264f565b6126c2565b5081151561262f565b50801515612629565b50346104eb5760203660031901126104eb57600435600161271561270583613e9a565b50828060a01b0390541692613e9a565b500154604080516001600160a01b03939093168352602083019190915290f35b50346104eb5760203660031901126104eb576001600160a01b03612757613ca7565b168152602080526040812080549061276e82613fff565b9261277c6040519485613ddb565b82845290815260208082209084015b8383106127a057604051806107098782613eed565b600260206001926040516127b381613d89565b85548152848601548382015281520192019201919061278b565b50346104eb5760203660031901126104eb5760043560235481101561057257610eda90613e9a565b50346104eb5760203660031901126104eb576001600160a01b03612817613ca7565b168152602160205260408120805461282e81613fff565b9061283c6040519283613ddb565b80825260208201809385526020852085915b8383106128b057868587604051928392602084019060208552518091526040840192915b818110612880575050500390f35b91935091602060606001926040875180518352848101518584015201516040820152019401910191849392612872565b600360206001926128c0856141f5565b81520192019201919061284e565b50346104eb57806003193601126104eb576020600654604051908152f35b50346104eb57806003193601126104eb576129086101f4614163565b9080600c5460328101809111925b6101f4811061292d57604051806107098782613e3f565b83611b2c576103e861293f82846140e8565b06610226811015612978579061295c6003600193026026016141c4565b61296682886140d4565b5261297181876140d4565b5001612916565b634e487b7160e01b84526032600452602484fd5b50346104eb5760403660031901126104eb576129a6613ca7565b906129b96129b383614525565b92614494565b90601b5491826129cf575b602061080b8561474d565b6129dc90602435906140f5565b906007820291808304600714811517156108b45760f502918083046023149015171561122257506020926103e861114961080b94612a1994614023565b915f6129c4565b50346104eb5760203660031901126104eb57612a3a613ca7565b612a426149be565b60018060a01b03166001600160601b0360a01b600454161760045580f35b50346104eb57806003193601126104eb576025546040516001600160a01b039091168152602090f35b50346104eb5760403660031901126104eb57612aa3613ca7565b6001600160a01b03168152602160205260408120805460243591908210156116bf57612acf9250613e26565b50805461070960026001840154930154604051938493846040919493926060820195825260208201520152565b50346104eb57806003193601126104eb5760206007600f5404604051908152f35b50346104eb5760203660031901126104eb57612b37613ca7565b612b3f6149be565b60018060a01b03166001600160601b0360a01b600254161760025580f35b50346104eb5760603660031901126104eb57806020612bc2612b7d613ca7565b612b85613cbd565b90612b8e6149be565b60405163a9059cbb60e01b81526001600160a01b039091166004820152604480356024830152909485938492839190820190565b03926001600160a01b03165af18015610e2c57612bdd575080f35b611d1e9060203d602011612bfe575b612bf68183613ddb565b81019061402d565b503d612bec565b50346104eb5760203660031901126104eb5760043590610698548210156104eb5760206115ff83613d2b565b50346104eb57602061080b612c4536613d15565b90614138565b50346104eb57806003193601126104eb576040519080600154908160011c91600181168015612d46575b602084108114612d3257838652908115612d0b5750600114612cae575b61070984612ca281860382613ddb565b60405191829182613dfc565b600181527fb10e2d527612073b26eecdfd717e6a320cf44b4afac2b0732d9fcbe2b7fa0cf6939250905b808210612cf157509091508101602001612ca282612c92565b919260018160209254838588010152019101909291612cd8565b60ff191660208087019190915292151560051b85019092019250612ca29150839050612c92565b634e487b7160e01b83526022600452602483fd5b92607f1692612c75565b50346104eb57612d5f36613d15565b90612d686149be565b8252601d602052604082205580f35b50346104eb57806003193601126104eb576020600854604051908152f35b50346104eb57612da436613d15565b919081526024602052604081209081548310156104eb5760206115ff8484613d59565b50346104eb5760203660031901126104eb5760a09060406001600160a01b03612dee613ca7565b16918281526010602052600180851b038282205416928152601260205220604051612e1881613da4565b60ff82541615158152600182015480602083015260028301548060408401526003840154928360608201526004850154608082015260e06007600587015496878a850152600681015460c085015201549101526040519485526020850152604084015260608301526080820152f35b5034611262575f366003190112611262576106985490612ea682614079565b915f5b8181106134db5750505f905b8251821015612f42575f5b83515f198101908111612f2357811015612f37576020612ee082866140d4565b5101519060018101808211612f23576001926020612efe83896140d4565b51015111612f0e575b5001612ec0565b612f1c90611ae783886140d4565b505f612f07565b634e487b7160e01b5f52601160045260245ffd5b509060010190612eb5565b825f6008556023545f60235580613462575b5080516101f481111561345c57506101f4905b5f5b8281106133c257836023541515806133b7575b612f835780f35b5f5b6023549081811015612fe657612f9a81613e9a565b50546001600160a01b03165f9081526013602052604090208215612fd2576014600193692c781f708c509f4000000404905501612f85565b634e487b7160e01b5f52601260045260245ffd5b5050600854612ff25780f35b50612ffd6032614079565b602354603281116133af575b5f5b8181106133845750505f5b81518110156130f3576001600160a01b0361303182846140d4565b515116613041575b600101613016565b6001600160a01b0361305382846140d4565b5151165f52601360205260405f2090602061306e82856140d4565b5101519169943b1377290cbd80000083029280840469943b1377290cbd8000001481151715612f23576a1a0e626bf2373d4f800000810293808504602d1490151715612f23576ab664b0f39f82ad2c800000029280840460071490151715612f235760016130e9819460646014600a60085493040404614023565b9101559050613039565b50506130ff6096614079565b6023546096811161337c575b6032811015613336575b505f5b81518110156131f5576001600160a01b0361313382846140d4565b515116613143575b600101613118565b6001600160a01b0361315582846140d4565b5151165f52601360205260405f2090602061317082856140d4565b5101519169943b1377290cbd80000083029280840469943b1377290cbd8000001481151715612f23576a144413a94a9cbde880000081029380850460231490151715612f23576a8ddc89a10a49315b800000029280840460071490151715612f235760016131eb819460646014600a60085493040404614023565b910155905061313b565b50505f61320361012c614079565b906023548061012c10155f1461332d575b60c88110156132e7575b505f5b82518110156132e1576001600160a01b0361323c82856140d4565b51511661324c575b600101613221565b6001600160a01b0361325e82856140d4565b5151165f52601360205260405f2090602061327982866140d4565b5101519169943b1377290cbd80000083029280840469943b1377290cbd8000001481151715612f23576a040d9d88421f592e800000029280840460071490151715612f235760016132d7819460056014600a60085493040404614023565b9101559050613244565b50905080f35b5f5b8181106132f6575061321e565b8060c801908160c811612f235761331161088a600193613e9a565b61331b82876140d4565b5261332681866140d4565b50016132e9565b5061012c613214565b5f5b8181106133455750613115565b806032019081603211612f235761336061088a600193613e9a565b61336a82866140d4565b5261337581856140d4565b5001613338565b50609661310b565b60019061339361088a82613e9a565b61339d82866140d4565b526133a881856140d4565b500161300b565b506032613009565b506008541515612f7c565b6133cc81836140d4565b5160235490600160401b82101561344857611ba38260016133f294016023556023613ed4565b61340c602061340183856140d4565b5101516008546140e8565b6008556001600160a01b0361342182846140d4565b5151165f52601260205260405f209060018101808211612f23576005600193015501612f69565b634e487b7160e01b5f52604160045260245ffd5b90612f67565b6001600160ff1b0381168103612f235760235f5260011b7fd57b2b5166478fd4318d2acc6cc2c704584312bdd8781b32d5d06abda57f4230017fd57b2b5166478fd4318d2acc6cc2c704584312bdd8781b32d5d06abda57f42305b8181106134ca5750612f54565b5f80825560018201556002016134bd565b806134e7600192613d2b565b838060a01b0391549060031b1c16805f52601860205260405f20546040519161350f83613d89565b8252602082015261352082876140d4565b5261352b81866140d4565b5001612ea9565b346112625760203660031901126112625760043563ffffffff60e01b8116809103611262576040516301ffc9a760e01b9091148152602090f35b3461126257602036600319011261126257613585613ca7565b6001600160a01b0381165f8181526012602052604090206003810180549391908415613c005760ff82541615613bcc5760048201948554600f541115613b96576135ce84614525565b60025460405163a9059cbb60e01b81526001600160a01b038781166004830152602482018490529091602091839160449183915f91165af180156138f757613b79575b5061361b8161474d565b8211613b66575061362c8180614016565b855f52601a60205260405f206136438382546140e8565b90558190613650866147ce565b600f545f52601660205260405f20885f526020528060405f205561367387614494565b90885f526012602052600660405f208360078201550155875f5260196020526136ab816136a660405f2054601b54614016565b6140e8565b601b55875f52601960205260405f20555f9080613aa7575b506136ce81846140e8565b90604051936136dc85613d6e565b845260208401526040830152855f52602160205260405f208054600160401b8110156134485761371191600182018155613e26565b613a945761374a926137389190604060029180518455602081015160018501550151910155565b82549081811115613a8e575080614016565b80915515613a80575b5060025460048054600b5460405163a9059cbb60e01b81526001600160a01b03928316938101939093526005900460248301529091602091839160449183915f91165af180156138f757613a63575b50600254600554600b5460405163a9059cbb60e01b81526001600160a01b0392831660048201526014909104602482015291602091839160449183915f91165af180156138f757613a46575b50815f52601360205260405f208054806139dc575b506001810180549081613970575b5050600281019081549182613902575b5060039150018054918261385f575b505050600f545f52601e60205260405f20905f5260205260405f20600160ff19825416179055600f5490555f80f35b60025460405163a9059cbb60e01b81526001600160a01b0392831660048201526024810194909452602091849160449183915f91165af19182156138f7575f926138da575b5082825260226020526138d160408320825490604051916138c483613d89565b8252426020830152614045565b55828080613830565b6138f29060203d602011612bfe57612bf68183613ddb565b6138a4565b6040513d5f823e3d90fd5b60025460405163a9059cbb60e01b81526001600160a01b038681166004830152602482019590955293602091859160449183915f91165af19081156138f7576003935f92613953575b505585613821565b61396b9060203d602011612bfe57612bf68183613ddb565b61394b565b60025460405163a9059cbb60e01b81526001600160a01b038681166004830152602482019490945292602091849160449183915f91165af19182156138f7575f926139bf575b50558480613811565b6139d79060203d602011612bfe57612bf68183613ddb565b6139b6565b60025460405163a9059cbb60e01b81526001600160a01b038581166004830152602482019390935291602091839160449183915f91165af180156138f757613a29575b505f815584613803565b613a419060203d602011612bfe57612bf68183613ddb565b613a1f565b613a5e9060203d602011612bfe57612bf68183613ddb565b6137ee565b613a7b9060203d602011612bfe57612bf68183613ddb565b6137a2565b805460ff1916905583613753565b90614016565b634e487b7160e01b5f525f60045260245ffd5b9050613ab28661422b565b9081156136c35760025460405163a9059cbb60e01b81526001600160a01b0389811660048301526024820185905292945091602091839160449183915f91165af180156138f757613b49575b50613b088161474d565b8211613b3a57505b613b3381875f52601a60205260405f20613b2b8282546140e8565b9055836140e8565b90886136c3565b613b44915061474d565b613b10565b613b619060203d602011612bfe57612bf68183613ddb565b613afe565b613b7261362c9161474d565b8092614016565b613b919060203d602011612bfe57612bf68183613ddb565b613611565b60405162461bcd60e51b815260206004820152600e60248201526d6e6f207265776172642074696d6560901b6044820152606490fd5b60405162461bcd60e51b815260206004820152600c60248201526b39ba30ba3ab99032b93937b960a11b6044820152606490fd5b60405162461bcd60e51b81526020600482015260096024820152681b9bc81c995dd85c9960ba1b6044820152606490fd5b34611262576020366003190112611262576001600160a01b03613c52613ca7565b165f52601560205260405f20805480835260208301915f5260205f20905f5b818110613c88576107098561166681870382613ddb565b82546001600160a01b0316845260209093019260019283019201613c71565b600435906001600160a01b038216820361126257565b602435906001600160a01b038216820361126257565b60206040818301928281528451809452019201905f5b818110613cf65750505090565b82516001600160a01b0316845260209384019390920191600101613ce9565b6040906003190112611262576004359060243590565b61069854811015613d45576106985f5260205f2001905f90565b634e487b7160e01b5f52603260045260245ffd5b8054821015613d45575f5260205f2001905f90565b606081019081106001600160401b0382111761344857604052565b604081019081106001600160401b0382111761344857604052565b61010081019081106001600160401b0382111761344857604052565b60a081019081106001600160401b0382111761344857604052565b90601f801991011681019081106001600160401b0382111761344857604052565b602060409281835280519182918282860152018484015e5f828201840152601f01601f1916010190565b8054821015613d45575f52600360205f20910201905f90565b60206040818301928281528451809452019201905f5b818110613e625750505090565b825180516001600160a01b03168552602081810151818701526040918201519186019190915260609094019390920191600101613e55565b602354811015613d455760235f5260205f209060011b01905f90565b61069954811015613d45576106995f5260205f209060011b01905f90565b8054821015613d45575f5260205f209060011b01905f90565b60206040818301928281528451809452019201905f5b818110613f105750505090565b8251805185526020908101518186015260409094019390920191600101613f03565b6001600160401b03811161344857601f01601f191660200190565b60206040818301928281528451809452019201905f5b818110613f705750505090565b9091926020604082613f9760019488516020809160018060a01b0381511684520151910152565b019401929101613f63565b9181601f84011215611262578235916001600160401b038311611262576020808501948460051b01011161126257565b9181601f84011215611262578235916001600160401b038311611262576020838186019501011161126257565b6001600160401b0381116134485760051b60200190565b91908203918211612f2357565b8115612fd2570490565b90816020910312611262575180151581036112625790565b8054600160401b8110156134485761406291600182018155613ed4565b919091613a94576020816001925184550151910155565b9061408382613fff565b6140906040519182613ddb565b82815280926140a1601f1991613fff565b01905f5b8281106140b157505050565b6020906040516140c081613d89565b5f81525f83820152828285010152016140a5565b8051821015613d455760209160051b010190565b91908201809211612f2357565b81810292918115918404141715612f2357565b9190613a9457805182546001600160a01b0319166001600160a01b03919091161782556020015160019190910155565b908161414391614016565b90606482029180830460641490151715612f235761416091614023565b90565b9061416d82613fff565b61417a6040519182613ddb565b828152809261418b601f1991613fff565b01905f5b82811061419b57505050565b6020906040516141aa81613d6e565b5f81525f838201525f60408201528282850101520161418f565b906040516141d181613d6e565b82546001600160a01b03168152600183015460208201526002909201546040830152565b9060405161420281613d6e565b60406002829480548452600181015460208501520154910152565b5f198114612f235760010190565b6001600160a01b03165f9081526012602052604090206004810154600f5411156142a75760070154601b545f918161426257505090565b614271919250600b54906140f5565b600781029080820460071481151715612f235760f5029080820460231490151715612f23576103e8916142a391614023565b0490565b505f90565b6001600160a01b038116806142bf575050565b6142c882614494565b6142d1836147ce565b81614308575b5050506001600160a01b03165f90815260106020526040902061430690611f33905b546001600160a01b031690565b565b825f526012602052600660405f20836007820155015561434461433b8460018060a01b03165f52601960205260405f2090565b54601b54614016565b601b5561435381601b546140e8565b601b556001600160a01b0383165f908152601960205260409020819055815f52601860205260405f20555f5f61069854905b8181106143ed575b50501561439c575b80806142d7565b61069854600160401b8110156134485761430692611f33926143cb8360016142f9950161069855610698613d59565b819291549060031b91821b9160018060a01b03901b1916179055925050614395565b836143f782613d2b565b905460039190911b1c6001600160a01b03161461441657600101614385565b50505060015f8061438d565b60018060a01b03165f52601260205260405f2060405161444181613da4565b60ff8254161515815260e06007600184015493846020850152600281015460408501526003810154606085015260048101546080850152600581015460a0850152600681015460c0850152015491015290565b6144a66144a082614422565b916147ce565b906144b182826140e8565b156144f85761271081028181046127101482151715612f23576144d7836144dd936140e8565b90614023565b61271001908161271011612f2357612710916142a3916140f5565b50505f90565b9060405161450b81613d89565b82546001600160a01b031681526001909201546020830152565b6001600160a01b0381165f90815260126020526040902060040154600f549190821180159061459f575b6144f85761455f61456891614422565b600b54906140f5565b602a810290808204602a1490151715612f23575f198201918211612f2357614160915f52601d602052606460405f20549104614023565b505f198201828111612f23575f52601d60205260405f20541561454f565b8054600160401b811015613448576145da91600182018155613d59565b81546001600160a01b0393841660039290921b91821b9390911b1916919091179055565b906040519161460c83613d6e565b6001600160a01b03168252602082019081524260408301908152600d5491610226831015613d45576003602893029360018060a01b03905116846026019060018060a01b03166001600160601b0360a01b82541617905551602784015551910155600d5460018101809111612f23576102269006600d55610226600e54105f146146a05761469b600e5461421d565b600e55565b600c5460018101809111612f23576103e89006600c55565b6001600160a01b038116913383900361471c575f9283526010602052604090922080546001600160a01b0319166001600160a01b03841617905561430691614701600182614ce0565b6001600160a01b03165f9081526015602052604090206145bd565b60405162461bcd60e51b815260206004820152600960248201526836b9b39032b93937b960b91b6044820152606490fd5b5f54604051634c6afee560e11b815290602090829060049082906001600160a01b03165afa9081156138f7575f91614794575b506142a390670de0b6b3a7640000926140f5565b90506020813d6020116147c6575b816147af60209383613ddb565b810103126112625751670de0b6b3a7640000614780565b3d91506147a2565b60018060a01b03165f52601560205260405f2090604051808360208295549384815201905f5260205f20925f5b81811061492b57505061481092500383613ddb565b5f9160405161481e81613da4565b5f81525f60208201525f60408201525f60608201525f60808201525f60a08201525f60c08201525f60e0820152505f925b8151841015614926576001600160a01b0361486a85846140d4565b51165f52601260205260405f20906040519061488582613da4565b60ff83541615158252600183015491826020820152600284015460408201526003840154606082015260048401546080820152600584015460a0820152600760068501549460c08301958652015460e082015250600382029180830460031490151715612f2357600a6148f99204906140e8565b9051600381029080820460031490151715612f2357600191600a61491e9204906140e8565b93019261484f565b925050565b84546001600160a01b03168352600194850194879450602090930192016147fb565b6001600160a01b031680156149ab575f516020614e3f5f395f51905f5280546001600160a01b0319811683179091556001600160a01b03167f8be0079c531659141344cd1fd0a4f28419497f9722a3daafe3b4186f6b6457e05f80a3565b631e4fbdf760e01b5f525f60045260245ffd5b5f516020614e3f5f395f51905f52546001600160a01b031633036149de57565b63118cdaa760e01b5f523360045260245ffd5b6001600160a01b0381165f818152601260205260409020600f5460018111614c62575b815460ff1615614bb857506020840151614a33600183019182546140e8565b9055600a614a4785516040870151906140f5565b04614a57600383019182546140e8565b9055614a6a6002855192019182546140e8565b90555b5f52601060205260018060a01b0360405f20541682516007600f54045f52601760205260405f2060018060a01b0383165f52602052614ab160405f209182546140e8565b905582516007600f54045f52601c602052614ad160405f209182546140e8565b90556020830151600f545f52601d602052614af160405f209182546140e8565b9055614afe8351836145fe565b6007600f54049251835f52601760205260405f2060018060a01b0383165f5260205260405f20555f925f5b815f52602460205260405f2054811015614ba757815f52602460205282614b538260405f20613d59565b905460039190911b1c6001600160a01b031614614b7257600101614b29565b506143069350611f3391600191825b15614b8d575b50614d48565b5f526024602052614ba18160405f206145bd565b5f614b87565b50611f339160019161430695614b81565b9050600760208501518551600a614bd36040890151836140f5565b0460405194614be186613da4565b600186526020860193845260408601928352606086019182526080860190815260a08601915f835260c08701935f855260e08801955f8752895f52601260205260405f209851151560ff80198b5416911617895551600189015551600288015551600387015551600486015551600585015551600684015551910155614a6d565b6020850180515f19830190838211612f2357612710611149611140614c8794846140f5565b9052614a14565b6001600160a01b03165f8181526014602052604090206004018054614cb49084906140e8565b90555f908152601060205260409020546001600160a01b03169081614cd7575050565b61430691614c8e565b6001600160a01b03165f818152601460205260409020909160029190614d37575b01614d0c815461421d565b90555f908152601060205260409020546001600160a01b031680614d2d5750565b5f61430691614ce0565b614d41815461421d565b8155614d01565b6001600160a01b03169081614d5b575050565b815f52601460205260405f209060018201614d76815461421d565b905515614da0575b505f9081526010602052604081205461430691906001600160a01b0316614d48565b600301614dad815461421d565b90555f614d7e565b60ff5f516020614e7f5f395f51905f525460401c1615614dd157565b631afcd79f60e31b5f5260045ffd5b90614e045750805115614df557805190602001fd5b63d6bda27560e01b5f5260045ffd5b81511580614e35575b614e15575090565b639996b31560e01b5f9081526001600160a01b0391909116600452602490fd5b50803b15614e0d56fe9016d09d72d40fdae2fd8ceac6b6234c7706214fd39c1cd1e609a0528c199300360894a13ba1a3210667c828492db98dca3e2076cc3735a920a3ca505d382bbcf0c57e16840df040f15088dc2f81fe391c3923bec73e23a9662efc9c229c6a00a2646970667358221220f25477a9c5fef66587ec81a884f139d00f5863700f8139c08824cddeb77413c764736f6c634300081c0033b10e2d527612073b26eecdfd717e6a320cf44b4afac2b0732d9fcbe2b7fa0cf6f0c57e16840df040f15088dc2f81fe391c3923bec73e23a9662efc9c229c6a00",
    "sourcePath": "/Users/janly/data/solidity/UUPSNew/contracts/mint.sol",
    "compiler": {
        "name": "solc",
        "version": "0.8.28+commit.7893614a"
    },
    "functionHashes": {
        "MAX()": "d49d5181",
        "UPGRADE_INTERFACE_VERSION()": "ad3cb1cc",
        "_buyRecord(uint256)": "cefb762d",
        "_isReward(uint256,address)": "daef4079",
        "_lastT(address)": "d2557be0",
        "_mintLevelInfo(uint256)": "593439cd",
        "_nft()": "98300e18",
        "_orders(address)": "91d19dd3",
        "_ordersReward(address)": "b370e9ac",
        "_swapRouter()": "206c17bb",
        "_targetAddress20()": "6ca7f0a6",
        "_targetAddress5()": "bf4b4198",
        "_teamInfo(address)": "e44e1d2e",
        "_token()": "ecd0c0c3",
        "_uri()": "0dccc9ad",
        "addAdminRewardUser(address,uint256)": "574e2f18",
        "addElement(address,uint256)": "c8e31d17",
        "addPower(address,uint256)": "b34d30ca",
        "addPowerFee()": "8f04f310",
        "adminBind(address[],address)": "c8898a6d",
        "adminRewardList(uint256)": "be43be02",
        "adminRewardRecord(address,uint256)": "75dff622",
        "adminWrite(address,address,uint256,uint256)": "4b374c90",
        "bind(address,address)": "d1ec9f14",
        "calTodayProduce()": "4651843e",
        "calculatePercentageDifference(uint256,uint256)": "10e3b149",
        "claimBalance(address)": "b633e4cd",
        "claimToken(address,address,uint256)": "125bfb66",
        "end()": "efbe1c1c",
        "getAdminRewardList()": "d34f730a",
        "getAdminRewardList(address)": "e31e0d14",
        "getAmountA(address)": "61d7c171",
        "getAmountB(address)": "d9b86484",
        "getAmountT(address)": "6dafe92b",
        "getDayPower(uint256)": "96a1d75e",
        "getElements51to550()": "374082ab",
        "getFirst50Elements()": "ca7b942a",
        "getLastTByUser(address)": "9c6a642a",
        "getMyInfo(address)": "0a32bf36",
        "getMyInfo2(address)": "5e911643",
        "getMyTeam(address)": "a0ab0d72",
        "getPladeList(address)": "44ab55e6",
        "getRankedAddressesByRange(uint256,uint256)": "d85cd275",
        "getReawrd(address)": "01890b65",
        "getRecommend(address)": "e5194d51",
        "getRewardList(address)": "3e7ce723",
        "getRewardTotal(address)": "ed87ecaf",
        "getStatic(address)": "7b959a13",
        "getSync(address)": "4e7c914a",
        "getTListList()": "51d65da9",
        "getTRankAddress(uint256)": "44c0cfb4",
        "getTRankLength()": "8c4d1904",
        "getTeamList(address)": "01449b4f",
        "getTime()": "557ed1ba",
        "getTimeWeek()": "1e619829",
        "getTodayProduceNoDecimal()": "a5a6c64f",
        "getTokenPriceByU(uint256)": "d4f3ddcd",
        "getTotalAdminWeight()": "dbd2a07e",
        "getTotalT()": "92dfc90c",
        "getUPriceByToken(uint256)": "b0e59cf5",
        "getWeekRankUsers(uint256)": "a72db85d",
        "getWeekTotal(uint256)": "25a90417",
        "getWeekUsers(uint256)": "82fba86f",
        "initialize()": "8129fc1c",
        "lastReward(uint256,address)": "e01fe64d",
        "lastTotalT()": "7775ccd7",
        "lastdayPower()": "393a3777",
        "lastdaydayPower()": "810dfcb7",
        "mining(address,uint256)": "c4dcad1d",
        "onERC1155BatchReceived(address,address,uint256[],uint256[],bytes)": "bc197c81",
        "onERC1155Received(address,address,uint256,uint256,bytes)": "f23a6e61",
        "owner()": "8da5cb5b",
        "pladeList(address,uint256)": "d09f1344",
        "powerInfo(uint256)": "472c00a9",
        "proxiableUUID()": "52d1902d",
        "queryReawrd70(address,uint256)": "32a1fab8",
        "recommend(address)": "d88be3c0",
        "renounceOwnership()": "715018a6",
        "rewardList(address,uint256)": "1fe6bbcd",
        "rewardTotalAmount(address)": "29b35e43",
        "setNFT(address)": "f56e9c66",
        "setPow(uint256,uint256)": "0c495f0f",
        "setPowerFee(uint256)": "99c133b7",
        "setSwapContractAddress(address)": "6faaf223",
        "setTargetAddress20(address)": "2ad15386",
        "setTargetAddress5(address)": "5441833d",
        "setToken(address)": "144fa6d7",
        "size()": "949d225d",
        "sortTList()": "0615be2e",
        "sortWeekReward()": "7759db2e",
        "start()": "be9a6555",
        "supportsInterface(bytes4)": "01ffc9a7",
        "tList(uint256)": "122f0c94",
        "tRankAddress(uint256)": "445ad750",
        "tReward(address)": "bde6ac21",
        "teamList(address,uint256)": "87c3df1c",
        "todayProduce()": "479c4a2f",
        "totalAdminWeight()": "79aeccd2",
        "totalT500()": "0aa7afb0",
        "transferOwnership(address)": "f2fde38b",
        "updateT(address)": "608f8cc6",
        "upgradeToAndCall(address,bytes)": "4f1ef286",
        "weekRankAddress(uint256,uint256)": "81ca6d08",
        "weekReward(uint256,address)": "509e7b54",
        "weekTotal(uint256)": "cc90f5cd",
        "weekUsers(uint256,uint256)": "0a47dcc0"
    },
    "gasEstimates": {
        "creation": {
            "codeDepositCost": "4036000",
            "executionCost": "infinite",
            "totalCost": "infinite"
        },
        "external": {
            "MAX()": "2121",
            "UPGRADE_INTERFACE_VERSION()": "1981",
            "_buyRecord(uint256)": "8437",
            "_isReward(uint256,address)": "4562",
            "_lastT(address)": "4332",
            "_mintLevelInfo(uint256)": "7462",
            "_nft()": "3674",
            "_orders(address)": "18614",
            "_ordersReward(address)": "10428",
            "_swapRouter()": "2618",
            "_targetAddress20()": "3212",
            "_targetAddress5()": "4004",
            "_teamInfo(address)": "13082",
            "_token()": "4488",
            "_uri()": "infinite",
            "addAdminRewardUser(address,uint256)": "infinite",
            "addElement(address,uint256)": "123496",
            "addPower(address,uint256)": "infinite",
            "addPowerFee()": "3540",
            "adminBind(address[],address)": "infinite",
            "adminRewardList(uint256)": "10450",
            "adminRewardRecord(address,uint256)": "9914",
            "adminWrite(address,address,uint256,uint256)": "infinite",
            "bind(address,address)": "infinite",
            "calTodayProduce()": "122802",
            "calculatePercentageDifference(uint256,uint256)": "614",
            "claimBalance(address)": "infinite",
            "claimToken(address,address,uint256)": "infinite",
            "end()": "4508",
            "getAdminRewardList()": "infinite",
            "getAdminRewardList(address)": "infinite",
            "getAmountA(address)": "18331",
            "getAmountB(address)": "infinite",
            "getAmountT(address)": "infinite",
            "getDayPower(uint256)": "3694",
            "getElements51to550()": "infinite",
            "getFirst50Elements()": "infinite",
            "getLastTByUser(address)": "3848",
            "getMyInfo(address)": "19754",
            "getMyInfo2(address)": "9849",
            "getMyTeam(address)": "infinite",
            "getPladeList(address)": "infinite",
            "getRankedAddressesByRange(uint256,uint256)": "infinite",
            "getReawrd(address)": "infinite",
            "getRecommend(address)": "4614",
            "getRewardList(address)": "infinite",
            "getRewardTotal(address)": "4640",
            "getStatic(address)": "29617",
            "getSync(address)": "11837",
            "getTListList()": "infinite",
            "getTRankAddress(uint256)": "infinite",
            "getTRankLength()": "3496",
            "getTeamList(address)": "infinite",
            "getTime()": "3056",
            "getTimeWeek()": "2558",
            "getTodayProduceNoDecimal()": "3746",
            "getTokenPriceByU(uint256)": "infinite",
            "getTotalAdminWeight()": "4354",
            "getTotalT()": "3584",
            "getUPriceByToken(uint256)": "infinite",
            "getWeekRankUsers(uint256)": "infinite",
            "getWeekTotal(uint256)": "2682",
            "getWeekUsers(uint256)": "infinite",
            "initialize()": "infinite",
            "lastReward(uint256,address)": "4594",
            "lastTotalT()": "3320",
            "lastdayPower()": "2726",
            "lastdaydayPower()": "3386",
            "mining(address,uint256)": "infinite",
            "onERC1155BatchReceived(address,address,uint256[],uint256[],bytes)": "infinite",
            "onERC1155Received(address,address,uint256,uint256,bytes)": "2785",
            "owner()": "infinite",
            "pladeList(address,uint256)": "10772",
            "powerInfo(uint256)": "2924",
            "proxiableUUID()": "infinite",
            "queryReawrd70(address,uint256)": "infinite",
            "recommend(address)": "4460",
            "renounceOwnership()": "29120",
            "rewardList(address,uint256)": "11380",
            "rewardTotalAmount(address)": "2792",
            "setNFT(address)": "28961",
            "setPow(uint256,uint256)": "24697",
            "setPowerFee(uint256)": "25849",
            "setSwapContractAddress(address)": "27630",
            "setTargetAddress20(address)": "27052",
            "setTargetAddress5(address)": "27426",
            "setToken(address)": "26920",
            "size()": "3606",
            "sortTList()": "infinite",
            "sortWeekReward()": "infinite",
            "start()": "3958",
            "supportsInterface(bytes4)": "264",
            "tList(uint256)": "6863",
            "tRankAddress(uint256)": "9284",
            "tReward(address)": "4068",
            "teamList(address,uint256)": "8010",
            "todayProduce()": "2880",
            "totalAdminWeight()": "3342",
            "totalT500()": "2396",
            "transferOwnership(address)": "30551",
            "updateT(address)": "infinite",
            "upgradeToAndCall(address,bytes)": "infinite",
            "weekRankAddress(uint256,uint256)": "10048",
            "weekReward(uint256,address)": "3186",
            "weekTotal(uint256)": "4156",
            "weekUsers(uint256,uint256)": "6861"
        },
        "internal": {
            "_authorizeUpgrade(address)": "infinite",
            "addTeamAmountInfo(address,uint256)": "infinite",
            "addTeamInfo(address,bool)": "infinite",
            "createOrder(address,struct ContractName.MintLevelPoint memory)": "infinite",
            "reawrd70(address,uint256)": "infinite",
            "saveTeamInfo(address,bool)": "infinite",
            "setWeekReward(uint256,address,uint256)": "infinite",
            "settRank(address,uint256)": "infinite"
        }
    }
}