{
    "contractName": "Mint",
    "abi": [
        {
            "inputs": [],
            "stateMutability": "nonpayable",
            "type": "constructor"
        },
        {
            "inputs": [
                {
                    "internalType": "address",
                    "name": "target",
                    "type": "address"
                }
            ],
            "name": "AddressEmptyCode",
            "type": "error"
        },
        {
            "inputs": [
                {
                    "internalType": "address",
                    "name": "implementation",
                    "type": "address"
                }
            ],
            "name": "ERC1967InvalidImplementation",
            "type": "error"
        },
        {
            "inputs": [],
            "name": "ERC1967NonPayable",
            "type": "error"
        },
        {
            "inputs": [],
            "name": "FailedCall",
            "type": "error"
        },
        {
            "inputs": [],
            "name": "InvalidInitialization",
            "type": "error"
        },
        {
            "inputs": [],
            "name": "NotInitializing",
            "type": "error"
        },
        {
            "inputs": [
                {
                    "internalType": "address",
                    "name": "owner",
                    "type": "address"
                }
            ],
            "name": "OwnableInvalidOwner",
            "type": "error"
        },
        {
            "inputs": [
                {
                    "internalType": "address",
                    "name": "account",
                    "type": "address"
                }
            ],
            "name": "OwnableUnauthorizedAccount",
            "type": "error"
        },
        {
            "inputs": [],
            "name": "UUPSUnauthorizedCallContext",
            "type": "error"
        },
        {
            "inputs": [
                {
                    "internalType": "bytes32",
                    "name": "slot",
                    "type": "bytes32"
                }
            ],
            "name": "UUPSUnsupportedProxiableUUID",
            "type": "error"
        },
        {
            "anonymous": false,
            "inputs": [
                {
                    "indexed": false,
                    "internalType": "uint64",
                    "name": "version",
                    "type": "uint64"
                }
            ],
            "name": "Initialized",
            "type": "event"
        },
        {
            "anonymous": false,
            "inputs": [
                {
                    "indexed": true,
                    "internalType": "address",
                    "name": "previousOwner",
                    "type": "address"
                },
                {
                    "indexed": true,
                    "internalType": "address",
                    "name": "newOwner",
                    "type": "address"
                }
            ],
            "name": "OwnershipTransferred",
            "type": "event"
        },
        {
            "anonymous": false,
            "inputs": [
                {
                    "indexed": true,
                    "internalType": "address",
                    "name": "implementation",
                    "type": "address"
                }
            ],
            "name": "Upgraded",
            "type": "event"
        },
        {
            "inputs": [],
            "name": "MAX",
            "outputs": [
                {
                    "internalType": "uint256",
                    "name": "",
                    "type": "uint256"
                }
            ],
            "stateMutability": "view",
            "type": "function"
        },
        {
            "inputs": [],
            "name": "UPGRADE_INTERFACE_VERSION",
            "outputs": [
                {
                    "internalType": "string",
                    "name": "",
                    "type": "string"
                }
            ],
            "stateMutability": "view",
            "type": "function"
        },
        {
            "inputs": [
                {
                    "internalType": "uint256",
                    "name": "",
                    "type": "uint256"
                }
            ],
            "name": "_buyRecord",
            "outputs": [
                {
                    "internalType": "address",
                    "name": "ads",
                    "type": "address"
                },
                {
                    "internalType": "uint256",
                    "name": "value",
                    "type": "uint256"
                },
                {
                    "internalType": "uint256",
                    "name": "time",
                    "type": "uint256"
                }
            ],
            "stateMutability": "view",
            "type": "function"
        },
        {
            "inputs": [
                {
                    "internalType": "uint256",
                    "name": "",
                    "type": "uint256"
                },
                {
                    "internalType": "address",
                    "name": "",
                    "type": "address"
                }
            ],
            "name": "_isReward",
            "outputs": [
                {
                    "internalType": "bool",
                    "name": "",
                    "type": "bool"
                }
            ],
            "stateMutability": "view",
            "type": "function"
        },
        {
            "inputs": [
                {
                    "internalType": "address",
                    "name": "",
                    "type": "address"
                }
            ],
            "name": "_lastT",
            "outputs": [
                {
                    "internalType": "uint256",
                    "name": "",
                    "type": "uint256"
                }
            ],
            "stateMutability": "view",
            "type": "function"
        },
        {
            "inputs": [
                {
                    "internalType": "uint256",
                    "name": "",
                    "type": "uint256"
                }
            ],
            "name": "_mintLevelInfo",
            "outputs": [
                {
                    "internalType": "uint256",
                    "name": "price",
                    "type": "uint256"
                },
                {
                    "internalType": "uint256",
                    "name": "power",
                    "type": "uint256"
                },
                {
                    "internalType": "uint256",
                    "name": "bei",
                    "type": "uint256"
                }
            ],
            "stateMutability": "view",
            "type": "function"
        },
        {
            "inputs": [],
            "name": "_nft",
            "outputs": [
                {
                    "internalType": "address",
                    "name": "",
                    "type": "address"
                }
            ],
            "stateMutability": "view",
            "type": "function"
        },
        {
            "inputs": [
                {
                    "internalType": "address",
                    "name": "",
                    "type": "address"
                }
            ],
            "name": "_orders",
            "outputs": [
                {
                    "internalType": "bool",
                    "name": "isExist",
                    "type": "bool"
                },
                {
                    "internalType": "uint256",
                    "name": "power",
                    "type": "uint256"
                },
                {
                    "internalType": "uint256",
                    "name": "totalU",
                    "type": "uint256"
                },
                {
                    "internalType": "uint256",
                    "name": "remain",
                    "type": "uint256"
                },
                {
                    "internalType": "uint256",
                    "name": "lastTime",
                    "type": "uint256"
                },
                {
                    "internalType": "uint256",
                    "name": "rank",
                    "type": "uint256"
                },
                {
                    "internalType": "uint256",
                    "name": "b",
                    "type": "uint256"
                },
                {
                    "internalType": "uint256",
                    "name": "t",
                    "type": "uint256"
                }
            ],
            "stateMutability": "view",
            "type": "function"
        },
        {
            "inputs": [
                {
                    "internalType": "address",
                    "name": "",
                    "type": "address"
                }
            ],
            "name": "_ordersReward",
            "outputs": [
                {
                    "internalType": "uint256",
                    "name": "zhiJunRankReward",
                    "type": "uint256"
                },
                {
                    "internalType": "uint256",
                    "name": "zhiRankReward",
                    "type": "uint256"
                },
                {
                    "internalType": "uint256",
                    "name": "weekRankReward",
                    "type": "uint256"
                },
                {
                    "internalType": "uint256",
                    "name": "admin2Reward",
                    "type": "uint256"
                }
            ],
            "stateMutability": "view",
            "type": "function"
        },
        {
            "inputs": [],
            "name": "_swapRouter",
            "outputs": [
                {
                    "internalType": "contract IPancakeRouter02",
                    "name": "",
                    "type": "address"
                }
            ],
            "stateMutability": "view",
            "type": "function"
        },
        {
            "inputs": [],
            "name": "_targetAddress20",
            "outputs": [
                {
                    "internalType": "address",
                    "name": "",
                    "type": "address"
                }
            ],
            "stateMutability": "view",
            "type": "function"
        },
        {
            "inputs": [],
            "name": "_targetAddress5",
            "outputs": [
                {
                    "internalType": "address",
                    "name": "",
                    "type": "address"
                }
            ],
            "stateMutability": "view",
            "type": "function"
        },
        {
            "inputs": [
                {
                    "internalType": "address",
                    "name": "",
                    "type": "address"
                }
            ],
            "name": "_teamInfo",
            "outputs": [
                {
                    "internalType": "uint256",
                    "name": "zhi",
                    "type": "uint256"
                },
                {
                    "internalType": "uint256",
                    "name": "tureZhi",
                    "type": "uint256"
                },
                {
                    "internalType": "uint256",
                    "name": "team",
                    "type": "uint256"
                },
                {
                    "internalType": "uint256",
                    "name": "trueTeam",
                    "type": "uint256"
                },
                {
                    "internalType": "uint256",
                    "name": "teamAmount",
                    "type": "uint256"
                }
            ],
            "stateMutability": "view",
            "type": "function"
        },
        {
            "inputs": [],
            "name": "_token",
            "outputs": [
                {
                    "internalType": "address",
                    "name": "",
                    "type": "address"
                }
            ],
            "stateMutability": "view",
            "type": "function"
        },
        {
            "inputs": [
                {
                    "internalType": "address",
                    "name": "_target",
                    "type": "address"
                },
                {
                    "internalType": "uint256",
                    "name": "_weight",
                    "type": "uint256"
                }
            ],
            "name": "addAdminRewardUser",
            "outputs": [],
            "stateMutability": "nonpayable",
            "type": "function"
        },
        {
            "inputs": [
                {
                    "internalType": "address",
                    "name": "_ads",
                    "type": "address"
                },
                {
                    "internalType": "uint256",
                    "name": "value",
                    "type": "uint256"
                }
            ],
            "name": "addElement",
            "outputs": [],
            "stateMutability": "nonpayable",
            "type": "function"
        },
        {
            "inputs": [
                {
                    "internalType": "address",
                    "name": "_target",
                    "type": "address"
                },
                {
                    "internalType": "uint256",
                    "name": "_amount",
                    "type": "uint256"
                }
            ],
            "name": "addPower",
            "outputs": [],
            "stateMutability": "nonpayable",
            "type": "function"
        },
        {
            "inputs": [],
            "name": "addPowerFee",
            "outputs": [
                {
                    "internalType": "uint256",
                    "name": "",
                    "type": "uint256"
                }
            ],
            "stateMutability": "view",
            "type": "function"
        },
        {
            "inputs": [
                {
                    "internalType": "address[]",
                    "name": "_operAddress",
                    "type": "address[]"
                },
                {
                    "internalType": "address",
                    "name": "_target",
                    "type": "address"
                }
            ],
            "name": "adminBind",
            "outputs": [],
            "stateMutability": "nonpayable",
            "type": "function"
        },
        {
            "inputs": [
                {
                    "internalType": "uint256",
                    "name": "",
                    "type": "uint256"
                }
            ],
            "name": "adminRewardList",
            "outputs": [
                {
                    "internalType": "address",
                    "name": "user",
                    "type": "address"
                },
                {
                    "internalType": "uint256",
                    "name": "weight",
                    "type": "uint256"
                }
            ],
            "stateMutability": "view",
            "type": "function"
        },
        {
            "inputs": [
                {
                    "internalType": "address",
                    "name": "",
                    "type": "address"
                },
                {
                    "internalType": "uint256",
                    "name": "",
                    "type": "uint256"
                }
            ],
            "name": "adminRewardRecord",
            "outputs": [
                {
                    "internalType": "uint256",
                    "name": "id",
                    "type": "uint256"
                },
                {
                    "internalType": "uint256",
                    "name": "time",
                    "type": "uint256"
                }
            ],
            "stateMutability": "view",
            "type": "function"
        },
        {
            "inputs": [
                {
                    "internalType": "address",
                    "name": "_target",
                    "type": "address"
                },
                {
                    "internalType": "address",
                    "name": "_top",
                    "type": "address"
                },
                {
                    "internalType": "uint256",
                    "name": "price",
                    "type": "uint256"
                },
                {
                    "internalType": "uint256",
                    "name": "power",
                    "type": "uint256"
                }
            ],
            "name": "adminWrite",
            "outputs": [],
            "stateMutability": "nonpayable",
            "type": "function"
        },
        {
            "inputs": [
                {
                    "internalType": "address",
                    "name": "_operAddress",
                    "type": "address"
                },
                {
                    "internalType": "address",
                    "name": "_target",
                    "type": "address"
                }
            ],
            "name": "bind",
            "outputs": [],
            "stateMutability": "nonpayable",
            "type": "function"
        },
        {
            "inputs": [],
            "name": "calTodayProduce",
            "outputs": [],
            "stateMutability": "nonpayable",
            "type": "function"
        },
        {
            "inputs": [
                {
                    "internalType": "uint256",
                    "name": "a",
                    "type": "uint256"
                },
                {
                    "internalType": "uint256",
                    "name": "b",
                    "type": "uint256"
                }
            ],
            "name": "calculatePercentageDifference",
            "outputs": [
                {
                    "internalType": "uint256",
                    "name": "",
                    "type": "uint256"
                }
            ],
            "stateMutability": "pure",
            "type": "function"
        },
        {
            "inputs": [
                {
                    "internalType": "address",
                    "name": "fundAddress",
                    "type": "address"
                }
            ],
            "name": "claimBalance",
            "outputs": [],
            "stateMutability": "nonpayable",
            "type": "function"
        },
        {
            "inputs": [
                {
                    "internalType": "address",
                    "name": "fundAddress",
                    "type": "address"
                },
                {
                    "internalType": "address",
                    "name": "token",
                    "type": "address"
                },
                {
                    "internalType": "uint256",
                    "name": "amount",
                    "type": "uint256"
                }
            ],
            "name": "claimToken",
            "outputs": [],
            "stateMutability": "nonpayable",
            "type": "function"
        },
        {
            "inputs": [],
            "name": "end",
            "outputs": [
                {
                    "internalType": "uint256",
                    "name": "",
                    "type": "uint256"
                }
            ],
            "stateMutability": "view",
            "type": "function"
        },
        {
            "inputs": [],
            "name": "getAdminRewardList",
            "outputs": [
                {
                    "components": [
                        {
                            "internalType": "address",
                            "name": "user",
                            "type": "address"
                        },
                        {
                            "internalType": "uint256",
                            "name": "weight",
                            "type": "uint256"
                        }
                    ],
                    "internalType": "struct Mint.Admin2RewardInfo[]",
                    "name": "",
                    "type": "tuple[]"
                }
            ],
            "stateMutability": "view",
            "type": "function"
        },
        {
            "inputs": [
                {
                    "internalType": "address",
                    "name": "_target",
                    "type": "address"
                }
            ],
            "name": "getAdminRewardList",
            "outputs": [
                {
                    "components": [
                        {
                            "internalType": "uint256",
                            "name": "id",
                            "type": "uint256"
                        },
                        {
                            "internalType": "uint256",
                            "name": "time",
                            "type": "uint256"
                        }
                    ],
                    "internalType": "struct Mint.PladgeRecord[]",
                    "name": "",
                    "type": "tuple[]"
                }
            ],
            "stateMutability": "view",
            "type": "function"
        },
        {
            "inputs": [
                {
                    "internalType": "address",
                    "name": "_target",
                    "type": "address"
                }
            ],
            "name": "getAmountA",
            "outputs": [
                {
                    "internalType": "uint256",
                    "name": "",
                    "type": "uint256"
                }
            ],
            "stateMutability": "view",
            "type": "function"
        },
        {
            "inputs": [
                {
                    "internalType": "address",
                    "name": "_target",
                    "type": "address"
                }
            ],
            "name": "getAmountB",
            "outputs": [
                {
                    "internalType": "uint256",
                    "name": "",
                    "type": "uint256"
                }
            ],
            "stateMutability": "view",
            "type": "function"
        },
        {
            "inputs": [
                {
                    "internalType": "address",
                    "name": "_target",
                    "type": "address"
                }
            ],
            "name": "getAmountT",
            "outputs": [
                {
                    "internalType": "uint256",
                    "name": "",
                    "type": "uint256"
                }
            ],
            "stateMutability": "view",
            "type": "function"
        },
        {
            "inputs": [
                {
                    "internalType": "uint256",
                    "name": "_time",
                    "type": "uint256"
                }
            ],
            "name": "getDayPower",
            "outputs": [
                {
                    "internalType": "uint256",
                    "name": "",
                    "type": "uint256"
                }
            ],
            "stateMutability": "view",
            "type": "function"
        },
        {
            "inputs": [],
            "name": "getElements51to550",
            "outputs": [
                {
                    "components": [
                        {
                            "internalType": "address",
                            "name": "ads",
                            "type": "address"
                        },
                        {
                            "internalType": "uint256",
                            "name": "value",
                            "type": "uint256"
                        },
                        {
                            "internalType": "uint256",
                            "name": "time",
                            "type": "uint256"
                        }
                    ],
                    "internalType": "struct Mint.BuyRecord[]",
                    "name": "result",
                    "type": "tuple[]"
                }
            ],
            "stateMutability": "view",
            "type": "function"
        },
        {
            "inputs": [],
            "name": "getFirst50Elements",
            "outputs": [
                {
                    "components": [
                        {
                            "internalType": "address",
                            "name": "ads",
                            "type": "address"
                        },
                        {
                            "internalType": "uint256",
                            "name": "value",
                            "type": "uint256"
                        },
                        {
                            "internalType": "uint256",
                            "name": "time",
                            "type": "uint256"
                        }
                    ],
                    "internalType": "struct Mint.BuyRecord[]",
                    "name": "result",
                    "type": "tuple[]"
                }
            ],
            "stateMutability": "view",
            "type": "function"
        },
        {
            "inputs": [
                {
                    "internalType": "address",
                    "name": "_target",
                    "type": "address"
                }
            ],
            "name": "getLastTByUser",
            "outputs": [
                {
                    "internalType": "uint256",
                    "name": "",
                    "type": "uint256"
                }
            ],
            "stateMutability": "view",
            "type": "function"
        },
        {
            "inputs": [
                {
                    "internalType": "address",
                    "name": "_target",
                    "type": "address"
                }
            ],
            "name": "getMyInfo",
            "outputs": [
                {
                    "internalType": "address",
                    "name": "",
                    "type": "address"
                },
                {
                    "internalType": "uint256",
                    "name": "",
                    "type": "uint256"
                },
                {
                    "internalType": "uint256",
                    "name": "",
                    "type": "uint256"
                },
                {
                    "internalType": "uint256",
                    "name": "",
                    "type": "uint256"
                },
                {
                    "internalType": "uint256",
                    "name": "",
                    "type": "uint256"
                }
            ],
            "stateMutability": "view",
            "type": "function"
        },
        {
            "inputs": [
                {
                    "internalType": "address",
                    "name": "_target",
                    "type": "address"
                }
            ],
            "name": "getMyInfo2",
            "outputs": [
                {
                    "internalType": "uint256",
                    "name": "",
                    "type": "uint256"
                },
                {
                    "internalType": "uint256",
                    "name": "",
                    "type": "uint256"
                },
                {
                    "internalType": "uint256",
                    "name": "",
                    "type": "uint256"
                },
                {
                    "internalType": "uint256",
                    "name": "",
                    "type": "uint256"
                }
            ],
            "stateMutability": "view",
            "type": "function"
        },
        {
            "inputs": [
                {
                    "internalType": "address",
                    "name": "_target",
                    "type": "address"
                }
            ],
            "name": "getMyTeam",
            "outputs": [
                {
                    "components": [
                        {
                            "internalType": "uint256",
                            "name": "zhi",
                            "type": "uint256"
                        },
                        {
                            "internalType": "uint256",
                            "name": "tureZhi",
                            "type": "uint256"
                        },
                        {
                            "internalType": "uint256",
                            "name": "team",
                            "type": "uint256"
                        },
                        {
                            "internalType": "uint256",
                            "name": "trueTeam",
                            "type": "uint256"
                        },
                        {
                            "internalType": "uint256",
                            "name": "teamAmount",
                            "type": "uint256"
                        }
                    ],
                    "internalType": "struct Mint.Team",
                    "name": "",
                    "type": "tuple"
                }
            ],
            "stateMutability": "view",
            "type": "function"
        },
        {
            "inputs": [
                {
                    "internalType": "address",
                    "name": "_target",
                    "type": "address"
                }
            ],
            "name": "getPladeList",
            "outputs": [
                {
                    "components": [
                        {
                            "internalType": "uint256",
                            "name": "id",
                            "type": "uint256"
                        },
                        {
                            "internalType": "uint256",
                            "name": "time",
                            "type": "uint256"
                        }
                    ],
                    "internalType": "struct Mint.PladgeRecord[]",
                    "name": "",
                    "type": "tuple[]"
                }
            ],
            "stateMutability": "view",
            "type": "function"
        },
        {
            "inputs": [
                {
                    "internalType": "uint256",
                    "name": "startIndex",
                    "type": "uint256"
                },
                {
                    "internalType": "uint256",
                    "name": "endIndex",
                    "type": "uint256"
                }
            ],
            "name": "getRankedAddressesByRange",
            "outputs": [
                {
                    "components": [
                        {
                            "internalType": "address",
                            "name": "user",
                            "type": "address"
                        },
                        {
                            "internalType": "uint256",
                            "name": "reward",
                            "type": "uint256"
                        }
                    ],
                    "internalType": "struct Mint.RewardInfo[]",
                    "name": "",
                    "type": "tuple[]"
                }
            ],
            "stateMutability": "view",
            "type": "function"
        },
        {
            "inputs": [
                {
                    "internalType": "address",
                    "name": "_target",
                    "type": "address"
                }
            ],
            "name": "getReawrd",
            "outputs": [],
            "stateMutability": "nonpayable",
            "type": "function"
        },
        {
            "inputs": [
                {
                    "internalType": "address",
                    "name": "_address",
                    "type": "address"
                }
            ],
            "name": "getRecommend",
            "outputs": [
                {
                    "internalType": "address",
                    "name": "",
                    "type": "address"
                }
            ],
            "stateMutability": "view",
            "type": "function"
        },
        {
            "inputs": [
                {
                    "internalType": "address",
                    "name": "_target",
                    "type": "address"
                }
            ],
            "name": "getRewardList",
            "outputs": [
                {
                    "components": [
                        {
                            "internalType": "uint256",
                            "name": "stat",
                            "type": "uint256"
                        },
                        {
                            "internalType": "uint256",
                            "name": "dyna",
                            "type": "uint256"
                        },
                        {
                            "internalType": "uint256",
                            "name": "total",
                            "type": "uint256"
                        }
                    ],
                    "internalType": "struct Mint.RewardRecord[]",
                    "name": "",
                    "type": "tuple[]"
                }
            ],
            "stateMutability": "view",
            "type": "function"
        },
        {
            "inputs": [
                {
                    "internalType": "address",
                    "name": "_target",
                    "type": "address"
                }
            ],
            "name": "getRewardTotal",
            "outputs": [
                {
                    "internalType": "uint256",
                    "name": "",
                    "type": "uint256"
                }
            ],
            "stateMutability": "view",
            "type": "function"
        },
        {
            "inputs": [
                {
                    "internalType": "address",
                    "name": "_target",
                    "type": "address"
                }
            ],
            "name": "getStatic",
            "outputs": [
                {
                    "internalType": "uint256",
                    "name": "",
                    "type": "uint256"
                }
            ],
            "stateMutability": "view",
            "type": "function"
        },
        {
            "inputs": [
                {
                    "internalType": "address",
                    "name": "_target",
                    "type": "address"
                }
            ],
            "name": "getSync",
            "outputs": [
                {
                    "internalType": "uint256",
                    "name": "",
                    "type": "uint256"
                }
            ],
            "stateMutability": "view",
            "type": "function"
        },
        {
            "inputs": [],
            "name": "getTListList",
            "outputs": [
                {
                    "internalType": "address[]",
                    "name": "",
                    "type": "address[]"
                }
            ],
            "stateMutability": "view",
            "type": "function"
        },
        {
            "inputs": [
                {
                    "internalType": "uint256",
                    "name": "i",
                    "type": "uint256"
                }
            ],
            "name": "getTRankAddress",
            "outputs": [
                {
                    "internalType": "address",
                    "name": "user",
                    "type": "address"
                },
                {
                    "internalType": "uint256",
                    "name": "reward",
                    "type": "uint256"
                }
            ],
            "stateMutability": "view",
            "type": "function"
        },
        {
            "inputs": [],
            "name": "getTRankLength",
            "outputs": [
                {
                    "internalType": "uint256",
                    "name": "",
                    "type": "uint256"
                }
            ],
            "stateMutability": "view",
            "type": "function"
        },
        {
            "inputs": [
                {
                    "internalType": "address",
                    "name": "_target",
                    "type": "address"
                }
            ],
            "name": "getTeamList",
            "outputs": [
                {
                    "internalType": "address[]",
                    "name": "",
                    "type": "address[]"
                }
            ],
            "stateMutability": "view",
            "type": "function"
        },
        {
            "inputs": [],
            "name": "getTime",
            "outputs": [
                {
                    "internalType": "uint256",
                    "name": "",
                    "type": "uint256"
                }
            ],
            "stateMutability": "view",
            "type": "function"
        },
        {
            "inputs": [],
            "name": "getTimeWeek",
            "outputs": [
                {
                    "internalType": "uint256",
                    "name": "",
                    "type": "uint256"
                }
            ],
            "stateMutability": "view",
            "type": "function"
        },
        {
            "inputs": [],
            "name": "getTodayProduceNoDecimal",
            "outputs": [
                {
                    "internalType": "uint256",
                    "name": "",
                    "type": "uint256"
                }
            ],
            "stateMutability": "view",
            "type": "function"
        },
        {
            "inputs": [
                {
                    "internalType": "uint256",
                    "name": "total",
                    "type": "uint256"
                }
            ],
            "name": "getTokenPriceByU",
            "outputs": [
                {
                    "internalType": "uint256",
                    "name": "",
                    "type": "uint256"
                }
            ],
            "stateMutability": "view",
            "type": "function"
        },
        {
            "inputs": [],
            "name": "getTotalAdminWeight",
            "outputs": [
                {
                    "internalType": "uint256",
                    "name": "",
                    "type": "uint256"
                }
            ],
            "stateMutability": "view",
            "type": "function"
        },
        {
            "inputs": [],
            "name": "getTotalT",
            "outputs": [
                {
                    "internalType": "uint256",
                    "name": "",
                    "type": "uint256"
                }
            ],
            "stateMutability": "view",
            "type": "function"
        },
        {
            "inputs": [
                {
                    "internalType": "uint256",
                    "name": "total",
                    "type": "uint256"
                }
            ],
            "name": "getUPriceByToken",
            "outputs": [
                {
                    "internalType": "uint256",
                    "name": "",
                    "type": "uint256"
                }
            ],
            "stateMutability": "view",
            "type": "function"
        },
        {
            "inputs": [
                {
                    "internalType": "uint256",
                    "name": "weekId",
                    "type": "uint256"
                }
            ],
            "name": "getWeekRankUsers",
            "outputs": [
                {
                    "components": [
                        {
                            "internalType": "address",
                            "name": "user",
                            "type": "address"
                        },
                        {
                            "internalType": "uint256",
                            "name": "reward",
                            "type": "uint256"
                        }
                    ],
                    "internalType": "struct Mint.RewardInfo[]",
                    "name": "",
                    "type": "tuple[]"
                }
            ],
            "stateMutability": "view",
            "type": "function"
        },
        {
            "inputs": [
                {
                    "internalType": "uint256",
                    "name": "_time",
                    "type": "uint256"
                }
            ],
            "name": "getWeekTotal",
            "outputs": [
                {
                    "internalType": "uint256",
                    "name": "",
                    "type": "uint256"
                }
            ],
            "stateMutability": "view",
            "type": "function"
        },
        {
            "inputs": [
                {
                    "internalType": "uint256",
                    "name": "weekId",
                    "type": "uint256"
                }
            ],
            "name": "getWeekUsers",
            "outputs": [
                {
                    "internalType": "address[]",
                    "name": "",
                    "type": "address[]"
                }
            ],
            "stateMutability": "view",
            "type": "function"
        },
        {
            "inputs": [],
            "name": "initialize",
            "outputs": [],
            "stateMutability": "nonpayable",
            "type": "function"
        },
        {
            "inputs": [
                {
                    "internalType": "uint256",
                    "name": "",
                    "type": "uint256"
                },
                {
                    "internalType": "address",
                    "name": "",
                    "type": "address"
                }
            ],
            "name": "lastReward",
            "outputs": [
                {
                    "internalType": "uint256",
                    "name": "",
                    "type": "uint256"
                }
            ],
            "stateMutability": "view",
            "type": "function"
        },
        {
            "inputs": [],
            "name": "lastTotalT",
            "outputs": [
                {
                    "internalType": "uint256",
                    "name": "",
                    "type": "uint256"
                }
            ],
            "stateMutability": "view",
            "type": "function"
        },
        {
            "inputs": [],
            "name": "lastdayPower",
            "outputs": [
                {
                    "internalType": "uint256",
                    "name": "",
                    "type": "uint256"
                }
            ],
            "stateMutability": "view",
            "type": "function"
        },
        {
            "inputs": [],
            "name": "lastdaydayPower",
            "outputs": [
                {
                    "internalType": "uint256",
                    "name": "",
                    "type": "uint256"
                }
            ],
            "stateMutability": "view",
            "type": "function"
        },
        {
            "inputs": [
                {
                    "internalType": "address",
                    "name": "_operAddress",
                    "type": "address"
                },
                {
                    "internalType": "uint256",
                    "name": "_id",
                    "type": "uint256"
                }
            ],
            "name": "mining",
            "outputs": [],
            "stateMutability": "nonpayable",
            "type": "function"
        },
        {
            "inputs": [
                {
                    "internalType": "address",
                    "name": "operator",
                    "type": "address"
                },
                {
                    "internalType": "address",
                    "name": "from",
                    "type": "address"
                },
                {
                    "internalType": "uint256[]",
                    "name": "ids",
                    "type": "uint256[]"
                },
                {
                    "internalType": "uint256[]",
                    "name": "values",
                    "type": "uint256[]"
                },
                {
                    "internalType": "bytes",
                    "name": "data",
                    "type": "bytes"
                }
            ],
            "name": "onERC1155BatchReceived",
            "outputs": [
                {
                    "internalType": "bytes4",
                    "name": "",
                    "type": "bytes4"
                }
            ],
            "stateMutability": "nonpayable",
            "type": "function"
        },
        {
            "inputs": [
                {
                    "internalType": "address",
                    "name": "operator",
                    "type": "address"
                },
                {
                    "internalType": "address",
                    "name": "from",
                    "type": "address"
                },
                {
                    "internalType": "uint256",
                    "name": "id",
                    "type": "uint256"
                },
                {
                    "internalType": "uint256",
                    "name": "value",
                    "type": "uint256"
                },
                {
                    "internalType": "bytes",
                    "name": "data",
                    "type": "bytes"
                }
            ],
            "name": "onERC1155Received",
            "outputs": [
                {
                    "internalType": "bytes4",
                    "name": "",
                    "type": "bytes4"
                }
            ],
            "stateMutability": "nonpayable",
            "type": "function"
        },
        {
            "inputs": [],
            "name": "owner",
            "outputs": [
                {
                    "internalType": "address",
                    "name": "",
                    "type": "address"
                }
            ],
            "stateMutability": "view",
            "type": "function"
        },
        {
            "inputs": [
                {
                    "internalType": "address",
                    "name": "",
                    "type": "address"
                },
                {
                    "internalType": "uint256",
                    "name": "",
                    "type": "uint256"
                }
            ],
            "name": "pladeList",
            "outputs": [
                {
                    "internalType": "uint256",
                    "name": "id",
                    "type": "uint256"
                },
                {
                    "internalType": "uint256",
                    "name": "time",
                    "type": "uint256"
                }
            ],
            "stateMutability": "view",
            "type": "function"
        },
        {
            "inputs": [
                {
                    "internalType": "uint256",
                    "name": "",
                    "type": "uint256"
                }
            ],
            "name": "powerInfo",
            "outputs": [
                {
                    "internalType": "uint256",
                    "name": "",
                    "type": "uint256"
                }
            ],
            "stateMutability": "view",
            "type": "function"
        },
        {
            "inputs": [],
            "name": "proxiableUUID",
            "outputs": [
                {
                    "internalType": "bytes32",
                    "name": "",
                    "type": "bytes32"
                }
            ],
            "stateMutability": "view",
            "type": "function"
        },
        {
            "inputs": [
                {
                    "internalType": "address",
                    "name": "_target",
                    "type": "address"
                },
                {
                    "internalType": "uint256",
                    "name": "_amount",
                    "type": "uint256"
                }
            ],
            "name": "queryReawrd70",
            "outputs": [
                {
                    "internalType": "uint256",
                    "name": "res",
                    "type": "uint256"
                }
            ],
            "stateMutability": "view",
            "type": "function"
        },
        {
            "inputs": [
                {
                    "internalType": "address",
                    "name": "",
                    "type": "address"
                }
            ],
            "name": "recommend",
            "outputs": [
                {
                    "internalType": "address",
                    "name": "",
                    "type": "address"
                }
            ],
            "stateMutability": "view",
            "type": "function"
        },
        {
            "inputs": [],
            "name": "renounceOwnership",
            "outputs": [],
            "stateMutability": "nonpayable",
            "type": "function"
        },
        {
            "inputs": [
                {
                    "internalType": "address",
                    "name": "",
                    "type": "address"
                },
                {
                    "internalType": "uint256",
                    "name": "",
                    "type": "uint256"
                }
            ],
            "name": "rewardList",
            "outputs": [
                {
                    "internalType": "uint256",
                    "name": "stat",
                    "type": "uint256"
                },
                {
                    "internalType": "uint256",
                    "name": "dyna",
                    "type": "uint256"
                },
                {
                    "internalType": "uint256",
                    "name": "total",
                    "type": "uint256"
                }
            ],
            "stateMutability": "view",
            "type": "function"
        },
        {
            "inputs": [
                {
                    "internalType": "address",
                    "name": "",
                    "type": "address"
                }
            ],
            "name": "rewardTotalAmount",
            "outputs": [
                {
                    "internalType": "uint256",
                    "name": "",
                    "type": "uint256"
                }
            ],
            "stateMutability": "view",
            "type": "function"
        },
        {
            "inputs": [
                {
                    "internalType": "address",
                    "name": "_target",
                    "type": "address"
                }
            ],
            "name": "setNFT",
            "outputs": [],
            "stateMutability": "nonpayable",
            "type": "function"
        },
        {
            "inputs": [
                {
                    "internalType": "uint256",
                    "name": "time",
                    "type": "uint256"
                },
                {
                    "internalType": "uint256",
                    "name": "amount",
                    "type": "uint256"
                }
            ],
            "name": "setPow",
            "outputs": [],
            "stateMutability": "nonpayable",
            "type": "function"
        },
        {
            "inputs": [
                {
                    "internalType": "uint256",
                    "name": "fee",
                    "type": "uint256"
                }
            ],
            "name": "setPowerFee",
            "outputs": [],
            "stateMutability": "nonpayable",
            "type": "function"
        },
        {
            "inputs": [
                {
                    "internalType": "address",
                    "name": "_target",
                    "type": "address"
                }
            ],
            "name": "setSwapContractAddress",
            "outputs": [],
            "stateMutability": "nonpayable",
            "type": "function"
        },
        {
            "inputs": [
                {
                    "internalType": "address",
                    "name": "_target",
                    "type": "address"
                }
            ],
            "name": "setTargetAddress20",
            "outputs": [],
            "stateMutability": "nonpayable",
            "type": "function"
        },
        {
            "inputs": [
                {
                    "internalType": "address",
                    "name": "_target",
                    "type": "address"
                }
            ],
            "name": "setTargetAddress5",
            "outputs": [],
            "stateMutability": "nonpayable",
            "type": "function"
        },
        {
            "inputs": [
                {
                    "internalType": "address",
                    "name": "_target",
                    "type": "address"
                }
            ],
            "name": "setToken",
            "outputs": [],
            "stateMutability": "nonpayable",
            "type": "function"
        },
        {
            "inputs": [],
            "name": "size",
            "outputs": [
                {
                    "internalType": "uint256",
                    "name": "",
                    "type": "uint256"
                }
            ],
            "stateMutability": "view",
            "type": "function"
        },
        {
            "inputs": [],
            "name": "sortTList",
            "outputs": [],
            "stateMutability": "nonpayable",
            "type": "function"
        },
        {
            "inputs": [],
            "name": "sortWeekReward",
            "outputs": [],
            "stateMutability": "nonpayable",
            "type": "function"
        },
        {
            "inputs": [],
            "name": "start",
            "outputs": [
                {
                    "internalType": "uint256",
                    "name": "",
                    "type": "uint256"
                }
            ],
            "stateMutability": "view",
            "type": "function"
        },
        {
            "inputs": [
                {
                    "internalType": "bytes4",
                    "name": "interfaceId",
                    "type": "bytes4"
                }
            ],
            "name": "supportsInterface",
            "outputs": [
                {
                    "internalType": "bool",
                    "name": "",
                    "type": "bool"
                }
            ],
            "stateMutability": "view",
            "type": "function"
        },
        {
            "inputs": [
                {
                    "internalType": "uint256",
                    "name": "",
                    "type": "uint256"
                }
            ],
            "name": "tList",
            "outputs": [
                {
                    "internalType": "address",
                    "name": "",
                    "type": "address"
                }
            ],
            "stateMutability": "view",
            "type": "function"
        },
        {
            "inputs": [
                {
                    "internalType": "uint256",
                    "name": "",
                    "type": "uint256"
                }
            ],
            "name": "tRankAddress",
            "outputs": [
                {
                    "internalType": "address",
                    "name": "user",
                    "type": "address"
                },
                {
                    "internalType": "uint256",
                    "name": "reward",
                    "type": "uint256"
                }
            ],
            "stateMutability": "view",
            "type": "function"
        },
        {
            "inputs": [
                {
                    "internalType": "address",
                    "name": "",
                    "type": "address"
                }
            ],
            "name": "tReward",
            "outputs": [
                {
                    "internalType": "uint256",
                    "name": "",
                    "type": "uint256"
                }
            ],
            "stateMutability": "view",
            "type": "function"
        },
        {
            "inputs": [
                {
                    "internalType": "address",
                    "name": "",
                    "type": "address"
                },
                {
                    "internalType": "uint256",
                    "name": "",
                    "type": "uint256"
                }
            ],
            "name": "teamList",
            "outputs": [
                {
                    "internalType": "address",
                    "name": "",
                    "type": "address"
                }
            ],
            "stateMutability": "view",
            "type": "function"
        },
        {
            "inputs": [],
            "name": "todayProduce",
            "outputs": [
                {
                    "internalType": "uint256",
                    "name": "",
                    "type": "uint256"
                }
            ],
            "stateMutability": "view",
            "type": "function"
        },
        {
            "inputs": [],
            "name": "totalAdminWeight",
            "outputs": [
                {
                    "internalType": "uint256",
                    "name": "",
                    "type": "uint256"
                }
            ],
            "stateMutability": "view",
            "type": "function"
        },
        {
            "inputs": [],
            "name": "totalT500",
            "outputs": [
                {
                    "internalType": "uint256",
                    "name": "",
                    "type": "uint256"
                }
            ],
            "stateMutability": "view",
            "type": "function"
        },
        {
            "inputs": [
                {
                    "internalType": "address",
                    "name": "newOwner",
                    "type": "address"
                }
            ],
            "name": "transferOwnership",
            "outputs": [],
            "stateMutability": "nonpayable",
            "type": "function"
        },
        {
            "inputs": [
                {
                    "internalType": "address",
                    "name": "_target",
                    "type": "address"
                }
            ],
            "name": "updateT",
            "outputs": [],
            "stateMutability": "nonpayable",
            "type": "function"
        },
        {
            "inputs": [
                {
                    "internalType": "address",
                    "name": "newImplementation",
                    "type": "address"
                },
                {
                    "internalType": "bytes",
                    "name": "data",
                    "type": "bytes"
                }
            ],
            "name": "upgradeToAndCall",
            "outputs": [],
            "stateMutability": "payable",
            "type": "function"
        },
        {
            "inputs": [
                {
                    "internalType": "uint256",
                    "name": "",
                    "type": "uint256"
                },
                {
                    "internalType": "uint256",
                    "name": "",
                    "type": "uint256"
                }
            ],
            "name": "weekRankAddress",
            "outputs": [
                {
                    "internalType": "address",
                    "name": "user",
                    "type": "address"
                },
                {
                    "internalType": "uint256",
                    "name": "reward",
                    "type": "uint256"
                }
            ],
            "stateMutability": "view",
            "type": "function"
        },
        {
            "inputs": [
                {
                    "internalType": "uint256",
                    "name": "",
                    "type": "uint256"
                },
                {
                    "internalType": "address",
                    "name": "",
                    "type": "address"
                }
            ],
            "name": "weekReward",
            "outputs": [
                {
                    "internalType": "uint256",
                    "name": "",
                    "type": "uint256"
                }
            ],
            "stateMutability": "view",
            "type": "function"
        },
        {
            "inputs": [
                {
                    "internalType": "uint256",
                    "name": "",
                    "type": "uint256"
                }
            ],
            "name": "weekTotal",
            "outputs": [
                {
                    "internalType": "uint256",
                    "name": "",
                    "type": "uint256"
                }
            ],
            "stateMutability": "view",
            "type": "function"
        },
        {
            "inputs": [
                {
                    "internalType": "uint256",
                    "name": "",
                    "type": "uint256"
                },
                {
                    "internalType": "uint256",
                    "name": "",
                    "type": "uint256"
                }
            ],
            "name": "weekUsers",
            "outputs": [
                {
                    "internalType": "address",
                    "name": "",
                    "type": "address"
                }
            ],
            "stateMutability": "view",
            "type": "function"
        }
    ],
    "bytecode": "60a0806040523460d457306080525f600b555f600c555f600d557ff0c57e16840df040f15088dc2f81fe391c3923bec73e23a9662efc9c229c6a009081549060ff8260401c1660c557506001600160401b036002600160401b0319828216016081575b604051614f9490816100d9823960805181818161214401526122df0152f35b6001600160401b031990911681179091556040519081527fc7f505b2f371ae2175ee4913f4499e1f2633a7b5936321eed1cdaeb6115181d290602090a15f80806062565b63f92ee8a960e01b8152600490fd5b5f80fdfe6080604081815260049081361015610015575f80fd5b5f3560e01c92836301449b4f14613cdb5750826301890b651461359757826301ffc9a7146135615782630615be2e14612df75782630a32bf3614612d435782630a47dcc014612d145782630aa7afb014612cf75782630c495f0f14612cd257826310e3b14914612cb8578263122f0c9414612c78578263125bfb6614612bcf578263144fa6d714612b8c5782631e61982914612b6c5782631fe6bbcd14612b02578263206c17bb14612adb57826325a9041714610abd57826329b35e43146105855782632ad1538614612a9857826332a1fab8146129f2578263374082ab146128f2578263393a3777146128d55782633e7ce7231461280a578263445ad750146127e457826344ab55e61461275257826344c0cfb4146126fa5782634651843e146125b3578263472c00a9146113ec578263479c4a2f146125965782634b374c90146124df5782634e7c914a146124bb5782634f1ef28614612267578263509e7b541461222957826351d65da9146121a857826352d1902d146121325782635441833d146120f3578263557ed1ba146120d6578263574e2f181461205d578263593439cd146120135782635e91164314611f68578263608f8cc614611f4757826361d7c17114611eba5782636ca7f0a614611e935782636dafe92b14611e6f5782636faaf22314611e2d578263715018a614611dc657826375dff62214611d835782637759db2e14611a185782637775ccd71461142f57826379aeccd21461074f5782637b959a13146119f4578263810dfcb7146119d75782638129fc1c1461163c57826381ca6d081461161057826382fba86f1461159557826387c3df1c146115405782638c4d1904146115235782638da5cb5b146114f05782638f04f310146114d357826391d19dd31461144c57826392dfc90c1461142f578263949d225d1461141257826396a1d75e146113ec57826398300e18146113c557826399c133b7146113a55782639c6a642a146109bc578263a0ab0d72146112f5578263a5a6c64f146112ce578263a72db85d14611253578263ad3cb1cc146111f8578263b0e59cf51461114e578263b34d30ca14611051578263b370e9ac14610fec578263b633e4cd14610f97578263bc197c8114610f12578263bde6ac2114610edc578263be43be0214610e90578263be9a655514610e73578263bf4b419814610e4d578263c4dcad1d14610ce3578263c8898a6d14610bce578263c8e31d1714610bab578263ca7b942a14610ae3578263cc90f5cd14610abd578263cefb762d14610a71578263d09f134414610a1a578263d1ec9f14146109f2578263d2557be0146109bc578263d34f730a146108cd578263d49d5181146108b3578263d4f3ddcd14610896578263d85cd275146107da578263d88be3c0146105e2578263d9b86484146107af578263daef40791461076c578263dbd2a07e1461074f578263e01fe64d14610711578263e31e0d141461067b578263e44e1d2e1461061a578263e5194d51146105e2578263ecd0c0c3146105bb578263ed87ecaf14610585578263efbe1c1c14610568578263f23a6e61146105165750508063f2fde38b146104eb5763f56e9c66146104a4575f80fd5b346104e75760203660031901126104e7576104bd613d53565b6104c5614ade565b600280546001600160a01b0319166001600160a01b0392909216919091179055005b5f80fd5b346104e75760203660031901126104e757610514610507613d53565b61050f614ade565b614a6d565b005b346104e75760a03660031901126104e75761052f613d53565b50610538613d69565b506084356001600160401b0381116104e757602092610559913691016140e6565b50505163f23a6e6160e01b8152f35b346104e7575f3660031901126104e757602090600c549051908152f35b346104e75760203660031901126104e7576020906001600160a01b036105a9613d53565b165f5260198252805f20549051908152f35b346104e7575f3660031901126104e75760015490516001600160a01b039091168152602090f35b346104e75760203660031901126104e7576020906001600160a01b0380610607613d53565b165f52600f8352815f2054169051908152f35b90346104e75760203660031901126104e75760a0916001600160a01b0361063f613d53565b165f526013602052805f208054926001820154926002830154916003840154930154938151958652602086015284015260608301526080820152f35b346104e7576020806003193601126104e7576001600160a01b0361069d613d53565b165f5260218152815f208054906106b382614113565b926106c08551948561401b565b8284525f9182528082208185015b8484106106e6578651806106e28882613f35565b0390f35b60028360019289516106f781613fad565b8554815284860154838201528152019201930192906106ce565b346104e757806003193601126104e75760209161072c613d69565b90355f5260158352815f209060018060a01b03165f528252805f20549051908152f35b346104e7575f3660031901126104e7576020906009549051908152f35b346104e757806003193601126104e757602091610787613d69565b90355f52601d8352815f209060018060a01b03165f52825260ff815f20541690519015158152f35b346104e75760203660031901126104e7576020906107d36107ce613d53565b6148cc565b9051908152f35b346104e7576107f5906107ec36613dc3565b9080939161412a565b9160019360018401809411610883575061080e836141c8565b602254909381811061087b5750905b80821015610833575b8251806106e28682614057565b5f5b8281106108425750610826565b8061085f61085961085489948661423a565b613eac565b506145b5565b6108698288614226565b526108748187614226565b5001610835565b90509061081d565b601190634e487b7160e01b5f525260245ffd5b346104e75760203660031901126104e7576107d360209235614840565b346104e7575f3660031901126104e757515f198152602090f35b346104e7575f3660031901126104e7576106988054906108ec82614113565b926108f98151948561401b565b8284526020926020850180935f527f38ab5f11fea4ac1f4814c55c438d84fd4dec22a03ca29a7e3c711ce90ff8e68c5f915b838310610995575050505080519384936020850191602086525180925282850193925f905b83821061095d5786860387f35b91849650828661098560019496988498516020809160018060a01b0381511684520151910152565b0196019201869594929391610950565b6002876001926109a9859b999a989b6145b5565b815201920192019190969395949661092b565b346104e75760203660031901126104e7576020906001600160a01b036109e0613d53565b165f5260188252805f20549051908152f35b346104e7573660031901126104e757610514610a0c613d53565b610a14613d69565b906147bb565b346104e757806003193601126104e757610a32613d53565b6001600160a01b03165f908152601f6020528190208054602435908110156104e757610a5d91613f1c565b506001815491015482519182526020820152f35b90346104e75760203660031901126104e75735906102268210156104e75760036060920260018060a01b0381602501541691602760268301549201549181519384526020840152820152f35b346104e75760203660031901126104e757602091355f52601b8252805f20549051908152f35b346104e7575f3660031901126104e757805191610aff83613fff565b603290603284525f5b6106408110610b845750600b54915f5b818110610b2c578451806106e28882613e50565b6103e8610b39828661423a565b06610226811015610b725790610b566003600193026025016142b5565b610b608289614226565b52610b6b8188614226565b5001610b18565b8284634e487b7160e01b5f525260245ffd5b6020908451610b9281613f7e565b5f8152825f818301525f87830152828801015201610b08565b346104e7573660031901126104e757610514610bc5613d53565b60243590614712565b346104e757806003193601126104e7578135916001600160401b0383116104e757366023840112156104e75782013591610c0783614113565b90610c148351928361401b565b8382526020936024602084019160051b830101913683116104e757602401905b828210610cc457505050610c46613d69565b92610c4f614ade565b6001600160a01b038481169390915f5b8451811015610cb9578084610c7660019388614226565b51165f52600f8352835f20876001600160601b0360a01b825416179055865f5260148352610cb3845f2086610cab848a614226565b5116906146d7565b01610c5f565b610514600188614dd1565b81356001600160a01b03811681036104e7578152908501908501610c34565b346104e757806003193601126104e757610cfb613d53565b9060243591323303610e1c576002546001600160a01b039081169190823b156104e7578351637921219560e11b81525f8160c4818386881698898d8401523060248401528b60448401526001606484015260a060848401528160a48401525af18015610e1257610de4575b506105149550845f526010602052610da6610d82855f206142e6565b92610d8d8482614b16565b6001600160a01b03165f908152600f6020526040902090565b541680610dd2575b5050815192610dbc84613fad565b83524260208401525f52601f6020525f20614181565b610ddd915190614d87565b8480610dae565b6001600160401b038111610dff576105149650845286610d66565b604187634e487b7160e01b5f525260245ffd5b85513d5f823e3d90fd5b815162461bcd60e51b8152602081860152600b60248201526a1b9bc818dbdb9d1c9858dd60aa1b6044820152606490fd5b346104e7575f3660031901126104e757905490516001600160a01b039091168152602090f35b346104e7575f3660031901126104e757602090600b549051908152f35b90346104e75760203660031901126104e75735610698548110156104e757610eb790613ee4565b50805460019091015491516001600160a01b0390911681526020810191909152604090f35b346104e75760203660031901126104e7576020906001600160a01b03610f00613d53565b165f5260178252805f20549051908152f35b346104e75760a03660031901126104e757610f2b613d53565b50610f34613d69565b506001600160401b036044358181116104e757610f5490369085016140b6565b50506064358181116104e757610f6d90369085016140b6565b50506084359081116104e757602092610f88913691016140e6565b50505163bc197c8160e01b8152f35b346104e75760203660031901126104e7575f808080610fb4613d53565b610fbc614ade565b479082908215610fe2575b6001600160a01b031690f115610fd957005b513d5f823e3d90fd5b6108fc9150610fc7565b346104e75760203660031901126104e7576001600160a01b0361100d613d53565b165f526012602052805f20906106e2825491600184015493600360028201549101549151948594859094939260609260808301968352602083015260408201520152565b346104e757806003193601126104e757611069613d53565b5f54602435939192916001600160a01b03918216330361111657600e5490600182116110da575b50506110d692165f5260116020526003815f20600181016110b286825461423a565b9055016110c084825461423a565b9055600e545f52601c6020525f2091825461423a565b9055005b5f1982019182116108835750846127106111076110fe61110e946110d69899614247565b60085490614247565b049061423a565b939285611090565b606490602084519162461bcd60e51b83528201526012602482015271283937b434b134ba1037b832b930ba34b7b760711b6044820152fd5b90346104e757602091826003193601126104e7575f548151634c6afee560e11b81529084908290859082906001600160a01b03165afa80156111ee575f906111bf575b61119d9150833561414b565b91670de0b6b3a764000092838102938185041490151715610883575051908152f35b508381813d83116111e7575b6111d5818361401b565b810103126104e75761119d9051611191565b503d6111cb565b82513d5f823e3d90fd5b346104e7575f3660031901126104e75780519061121482613fad565b600582526020820191640352e302e360dc1b83528151928391602083525180918160208501528484015e5f828201840152601f01601f19168101030190f35b90346104e75760209060206003193601126104e757355f52601e602052815f2080549061127f82614113565b9261128c8551948561401b565b82845260208401915f5260205f205f925b8484106112b1578651806106e28882614057565b6002836001926112c0856145b5565b81520192019301929061129d565b346104e7575f3660031901126104e757602090670de0b6b3a7640000600a54049051908152f35b90346104e75760203660031901126104e75760a091611312613d53565b5f6080835161132081613fe4565b82815282602082015282858201528260608201520152600180851b03165f526013602052805f2081519161135383613fe4565b8154938484526001830154602085019081526080600285015492848701938452600386015495606088019687520154950194855282519586525160208601525190840152516060830152516080820152f35b50346104e75760203660031901126104e7576113bf614ade565b35600855005b346104e7575f3660031901126104e75760025490516001600160a01b039091168152602090f35b346104e75760203660031901126104e757602091355f52601c8252805f20549051908152f35b346104e7575f3660031901126104e757602090600d549051908152f35b346104e7575f3660031901126104e757602090601a549051908152f35b346104e75760203660031901126104e757610100916001600160a01b03611471613d53565b165f526011602052815f2060ff815416926001820154926002830154906003840154908401549160058501549360076006870154960154968151981515895260208901528701526060860152608085015260a084015260c083015260e0820152f35b346104e7575f3660031901126104e7576020906008549051908152f35b346104e7575f3660031901126104e7575f80516020614f3f8339815191525490516001600160a01b039091168152602090f35b346104e7575f3660031901126104e7576020906022549051908152f35b346104e757806003193601126104e757611558613d53565b906024359160018060a01b038091165f526014602052815f2080548410156104e75760209361158691613e22565b92905490519260031b1c168152f35b90346104e75760209060206003193601126104e757355f526023602052815f209180519182602085549182815201945f5260205f20915f905b8282106115f0576106e286866115e6828b038361401b565b5191829182613d7f565b83546001600160a01b0316875295860195600193840193909101906115ce565b346104e75761161e36613dc3565b905f52601e602052815f209081548110156104e757610eb791613f1c565b90346104e7575f3660031901126104e7577ff0c57e16840df040f15088dc2f81fe391c3923bec73e23a9662efc9c229c6a009182549060ff82821c16156001600160401b038316928315806119d0575b600180951490816119c6575b1590816119bd575b506119ad5767ffffffffffffffff198116841786558161198e575b5069152d02c7e14af6800000600a5560646008557310ed43c718714eb63d5aa57b78b54704e256024e6001600160601b0360a01b733e81ae5448ed9fd785467fde13ac3127775e8d008186541617855573aafda90ae7c6b084216872e6950eef5dafe48bd9816002541617600255732b676458b0cf2dd910f1b332105b55b010bf832b816003541673a1fa5d2f89e40e442fbd65dd358c062966e3059383895416917363390f615d290324c81271fd9ac48e5422aed80a855f5416175f551760035517865560245416176024556118d482519461179786613f7e565b6117da680ad78ebc5ac62000009687815260209788820152601486820152865f5260108852855f2090604060029180518455602081015160018501550151910155565b61182e84516117e881613f7e565b682086ac35105260000081526828a857425466f800008882015260198682015260025f5260108852855f2090604060029180518455602081015160018501550151910155565b611882845161183c81613f7e565b686194049f30f7200000815268925e06eec972b0000088820152601e8682015260035f5260108852855f2090604060029180518455602081015160018501550151910155565b83519061188e82613f7e565b690124bc0ddd92e56000008252690200491843c111680000878301526023858301525f5260108652835f2090604060029180518455602081015160018501550151910155565b61192a82516118e281613f7e565b69036e342998b8b020000081526906dc68533171604000008682015260288482015260055f5260108652835f2090604060029180518455602081015160018501550151910155565b82600e55611936614e9a565b61193e614e9a565b61194733614a6d565b61194f614e9a565b61195557005b7fc7f505b2f371ae2175ee4913f4499e1f2633a7b5936321eed1cdaeb6115181d29368ff000000000000000019815416905551908152a1005b68ffffffffffffffffff191668010000000000000001178555856116bb565b825163f92ee8a960e01b81528590fd5b905015876116a0565b303b159150611698565b508161168c565b346104e7575f3660031901126104e7576020906006549051908152f35b346104e75760203660031901126104e7576020906107d3611a13613d53565b6145dc565b346104e7575f3660031901126104e7576007600e916007600e540490815f5260239260209260238452825f205490611a4f826141c8565b955f5b838110611d1757505050505f945b8451861015611b33575f5b85515f198101908111611b2057811015611b145784611a8a8288614226565b5101516001820190818311611b0157906001929187611aa9838b614226565b51015111611ab9575b5001611a6b565b611afa90611ac7838a614226565b51611ad2828b614226565b51611add858c614226565b52611ae8848b614226565b50611af3828b614226565b5288614226565b5089611ab2565b60118a634e487b7160e01b5f525260245ffd5b50600190950194611a60565b601189634e487b7160e01b5f525260245ffd5b928692915f5b8651811015611bb45760146022541115611b56575b600101611b39565b818654045f52601e8352835f20611b6d8289614226565b5190805490600160401b821015611ba15791611b94826001959486611b9a95018155613f1c565b9061425a565b9050611b4e565b604188634e487b7160e01b5f525260245ffd5b509294506007600e54045f52601e8152815f20928354611bd381614113565b94611be08551968761401b565b8186525f908152838120848088015b848410611cf85750505050505f5b8451811015611c75576001600160a01b03611c188287614226565b5151165f5260128352835f2083611c2f8388614226565b51015169031ce37b140fe230000090818102918183041490151715611b2057906002611c6c60019493868b54045f52601b8852885f20549061414b565b91015501611bfd565b8387845f5b61069854811015610514576001611c9082613ee4565b50015469021342520d5fec20000090818102918183041490151715611ce55790611cbf6001926009549061414b565b611cc882613ee4565b50838060a01b039054165f52601284526003865f20015501611c7a565b601184634e487b7160e01b5f525260245ffd5b600191600291611d07856145b5565b8152019201920191908590611bef565b600190835f9a97969a52828852611d3081875f20613e22565b838060a01b0391549060031b1c16845f5260168952865f20815f528952865f2054875191611d5d83613fad565b825289820152611d6d828b614226565b52611d78818a614226565b500197939497611a52565b346104e757806003193601126104e757611d9b613d53565b6001600160a01b03165f90815260216020528190208054602435908110156104e757610a5d91613f1c565b346104e7575f3660031901126104e757611dde614ade565b5f80516020614f3f83398151915280546001600160a01b031981169091555f906001600160a01b03167f8be0079c531659141344cd1fd0a4f28419497f9722a3daafe3b4186f6b6457e08280a3005b346104e75760203660031901126104e757611e46613d53565b611e4e614ade565b5f80546001600160a01b0319166001600160a01b0392909216919091179055005b346104e75760203660031901126104e7576020906107d3611e8e613d53565b6144ee565b346104e7575f3660031901126104e75760035490516001600160a01b039091168152602090f35b90346104e75760203660031901126104e7576020916001600160a01b03611edf613d53565b165f5260118352805f2060e06007835192611ef984613fc8565b60ff815416151584526001810154958688860152600282015486860152600382015460608601528101546080850152600581015460a0850152600681015460c0850152015491015251908152f35b346104e75760203660031901126104e757610514611f63613d53565b61439d565b90346104e75760203660031901126104e7576001600160a01b03611f8a613d53565b165f526012602052815f2082519160808301908382106001600160401b0383111761200057506106e2916060918552805494858552600182015494856020820152600360028401549384848401520154938491015251948594859094939260609260808301968352602083015260408201520152565b604190634e487b7160e01b5f525260245ffd5b90346104e75760203660031901126104e757355f526010602052805f20906106e2825491600260018501549401549051938493846040919493926060820195825260208201520152565b346104e757806003193601126104e757612075613d53565b9160243591612082614ade565b519261208d84613fad565b6001600160a01b0316835260208301829052610698805491600160401b831015612000575092611b94826120d19560016120c995019055613ee4565b60095461423a565b600955005b346104e7575f3660031901126104e757602090600e549051908152f35b50346104e75760203660031901126104e75761210d613d53565b612115614ade565b81546001600160a01b0319166001600160a01b0391909116179055005b346104e7575f3660031901126104e7577f00000000000000000000000000000000000000000000000000000000000000006001600160a01b0316300361219b57602090517f360894a13ba1a3210667c828492db98dca3e2076cc3735a920a3ca505d382bbc8152f35b5163703e46dd60e11b8152fd5b346104e7575f3660031901126104e757805161069780548083525f918252602080840194927f275f90b8c6ac1b5a1f2a85482be6852bdff56884b41f8b476c085d6142c478f692915b828210612209576106e286866115e6828b038361401b565b83546001600160a01b0316875295860195600193840193909101906121f1565b346104e757806003193601126104e757602091612244613d69565b90355f5260168352815f209060018060a01b03165f528252805f20549051908152f35b90816003193601126104e75761227b613d53565b60249283356001600160401b0381116104e757366023820112156104e757808401356122a68161403c565b936122b38451958661401b565b81855260209182860193368983830101116104e757815f928a8693018737870101526001600160a01b037f0000000000000000000000000000000000000000000000000000000000000000811630811490811561248d575b5061247d57612318614ade565b81169484516352d1902d60e01b8152838189818a5afa5f918161244e575b506123515750505050505191634c9c8ce360e01b8352820152fd5b9087878794938b7f360894a13ba1a3210667c828492db98dca3e2076cc3735a920a3ca505d382bbc918281036124395750853b15612425575080546001600160a01b031916821790558451907fbc7cd75a20ee27fd9adebab32041f755214dbc6bffa90cc0225b39da2e5c2d3b5f80a282511561240b5750505f6105149581925190845af4913d15612401573d6123f36123ea8261403c565b9251928361401b565b81525f81943d92013e614edb565b5060609250614edb565b945094505050503461241957005b63b398979f60e01b8152fd5b8651634c9c8ce360e01b8152808501849052fd5b8751632a87526960e21b815280860191909152fd5b9091508481813d8311612476575b612466818361401b565b810103126104e75751908a612336565b503d61245c565b845163703e46dd60e11b81528790fd5b9050817f360894a13ba1a3210667c828492db98dca3e2076cc3735a920a3ca505d382bbc541614158961230b565b346104e75760203660031901126104e7576020906107d36124da613d53565b61431c565b346104e75760803660031901126104e757610514906124fc613d53565b90612516612508613d69565b612510614ade565b836147bb565b805161252181613f7e565b60443581526064356020820152600a8282015261253e8184614b16565b6001600160a01b039283165f818152600f6020528390205490931680612584575b505080519161256d83613fad565b5f83524260208401525f52601f6020525f20614181565b61258f915190614d87565b838061255f565b346104e7575f3660031901126104e757602090600a549051908152f35b346104e7575f3660031901126104e757600e54600281116125fe575b6125d89061430e565b9182600e555f1983019083821161088357505f908152601c602052818120549281522055005b6001198101818111611ce5575f52601c602052815f2054806006555f1982018281116126d5575f52601c602052825f2054908160055581811115806126f1575b806126e8575b612650575b50506125cf565b9061265a9161428a565b603c81101561266a575b80612649565b600a5490603b1981019081116126d557600a900490600182018092116126d55769043c33c193756480000091808302928304036126d5576125d892916126af9161423a565b6969e10de76676d080000090818111156126ce57505b600a5590612664565b90506126c5565b601185634e487b7160e01b5f525260245ffd5b50811515612644565b5080151561263e565b90346104e75760203660031901126104e757356106e2600161272e61271e84613eac565b50828060a01b0390541693613eac565b50015492516001600160a01b03909216825260208201929092529081906040820190565b346104e7576020806003193601126104e7576001600160a01b03612774613d53565b165f52601f8152815f2080549061278a82614113565b926127978551948561401b565b8284525f9182528082208185015b8484106127b9578651806106e28882613f35565b60028360019289516127ca81613fad565b8554815284860154838201528152019201930192906127a5565b90346104e75760203660031901126104e757356022548110156104e757610eb790613eac565b346104e7576020806003193601126104e7576001600160a01b0361282c613d53565b165f52808052815f2080549161284183614113565b9261284e8551948561401b565b80845281840180935f52825f205f915b8383106128b25750505050835192818401908285525180915284840192915f5b82811061288b5785850386f35b8351805186528083015186840152870151878601526060909401939281019260010161287e565b6003856001926128c4859a989a6142e6565b81520192019201919095939561285e565b346104e7575f3660031901126104e7576020906005549051908152f35b346104e7575f3660031901126104e757805190613ea082018281106001600160401b038211176129df5781526101f48083525f5b613e8081106129b257505f93600b5460329060328101809111965b848110612955578551806106e28982613e50565b87611ce5576103e8612967828461423a565b066102268110156129a057906129846003600193026025016142b5565b61298e828a614226565b526129998189614226565b5001612941565b8385634e487b7160e01b5f525260245ffd5b60209083959295516129c381613f7e565b5f8152825f818301525f86830152828701015201939093612926565b604184634e487b7160e01b5f525260245ffd5b346104e757806003193601126104e757612a0a613d53565b91612a1d612a17846145dc565b936144ee565b90601a549182612a34575b6020846107d387614840565b612a419060243590614247565b90600782029180830460071481151715612a855760f502918083046023149015171561088357506020936103e86111076107d394612a7e9461414b565b9284612a28565b601182634e487b7160e01b5f525260245ffd5b346104e75760203660031901126104e757612ab1613d53565b612ab9614ade565b600380546001600160a01b0319166001600160a01b0392909216919091179055005b346104e7575f3660031901126104e75760245490516001600160a01b039091168152602090f35b346104e757806003193601126104e757612b1a613d53565b6001600160a01b03165f908152602080528190208054602435908110156104e757612b4491613e37565b5080546001820154600290920154925190815260208101919091526040810191909152606090f35b346104e7575f3660031901126104e7576020906007600e54049051908152f35b346104e75760203660031901126104e757612ba5613d53565b612bad614ade565b600180546001600160a01b0319166001600160a01b0392909216919091179055005b346104e75760603660031901126104e7576020612c3592612bee613d53565b612bf6613d69565b90612bff614ade565b845163a9059cbb60e01b81526001600160a01b03909116928101928352604435602084015294859283915f918391604090910190565b03926001600160a01b03165af1908115610fd95750612c5057005b6105149060203d602011612c71575b612c69818361401b565b810190614169565b503d612c5f565b90346104e75760203660031901126104e7573590610697548210156104e757612ca2602092613dd9565b905491519160018060a01b039160031b1c168152f35b346104e7576020906107d3612ccc36613dc3565b9061428a565b346104e757612ce036613dc3565b9190612cea614ade565b5f908152601c6020522055005b346104e7575f3660031901126104e7576020906007549051908152f35b346104e757612d2236613dc3565b91905f526023602052805f2080548310156104e757602092612ca291613e22565b90346104e75760203660031901126104e75760a0916001600160a01b0380612d69613d53565b165f52600f602052815f205416916011602052815f2091805190612d8c82613fc8565b60ff845416151582526001840154918260208201526002850154908183820152600386015494856060830152860154608082015260e06007600588015497888b850152600681015460c085015201549101528151958652602086015284015260608301526080820152f35b346104e7575f3660031901126104e75761069754612e14816141c8565b905f5b81811061350c5750505f915b8151831015612ef7575f5b82515f198101908111612ee457811015612ed957602080612e4f8386614226565b5101516001830191828411612ec657908291612e6e6001959488614226565b51015111612e7e575b5001612e2e565b612ebf90612e8c8387614226565b51612e978288614226565b51612ea28589614226565b52612ead8488614226565b50612eb88288614226565b5285614226565b5086612e77565b601188634e487b7160e01b5f525260245ffd5b509160010191612e23565b601186634e487b7160e01b5f525260245ffd5b90836007925f845560229283545f8555806134b0575b5080516101f490818111156134a85750905b5f5b82811061341557505050825415158061340b575b612f3b57005b5f5b835480821015612fa057612f5082613eac565b50546001600160a01b03165f908152601260208190529084902091908115612f8f575090601460019392692c781f708c509f4000000404905501612f3d565b85634e487b7160e01b5f525260245ffd5b505090928054612fac57005b815191612fb883613fff565b6032938484525f5b61064081106133e9575080548086106133e2575b5f5b8181106133b75750505f5b84518110156130ab576001600160a01b0380612ffd8388614226565b51511661300e575b50600101612fe1565b6130188287614226565b5151165f52602060128152835f20906130318388614226565b51015169943b1377290cbd80000090818102918183041481151715611b01576a1a0e626bf2373d4f800000810291808304602d1490151715611b01576ab664b0f39f82ad2c8000000290808204871490151715611b20579060016130a281949360646014600a8b549304040461414b565b91015590613005565b509392508051926112e08401906001600160401b039185811083821117611ba1578352609685525f5b6112c08110613395575085546096811161338c57905b80821015613348575b50505f5b84518110156131c1576001600160a01b03806131138388614226565b515116613124575b506001016130f7565b61312e8287614226565b5151165f52602060128152835f20906131478388614226565b51015169943b1377290cbd80000090818102918183041481151715611b01576a144413a94a9cbde880000081029180830460231490151715611b01576a8ddc89a10a49315b8000000290808204871490151715611b20579060016131b881949360646014600a8b549304040461414b565b9101559061311b565b509250928351926125a08401908482109082111761333557845261012c908184525f5b61258081106133135750549081811061330c57505b60c8808210156132c8575b50505f5b8251811015610514576001600160a01b03806132248386614226565b515116613235575b50600101613208565b61323f8285614226565b5151165f52602060128152845f20906132588386614226565b51015169943b1377290cbd80000090818102918183041481151715612ec6576a040d9d88421f592e80000002908082048514901517156132b5579060016132ac81949360056014600a89549304040461414b565b9101559061322c565b601187634e487b7160e01b5f525260245ffd5b5f5b8281106132d75750613204565b808201808311612ec657906132f0610859600193613eac565b6132fa8288614226565b526133058187614226565b50016132ca565b90506131f9565b602090865161332181613fad565b5f8152825f818301528288010152016131e4565b604186634e487b7160e01b5f525260245ffd5b5f5b82811061335757506130f3565b808201808311611b015790613370610859600193613eac565b61337a828a614226565b526133858189614226565b500161334a565b506096906130ea565b60209084516133a381613fad565b5f8152825f818301528289010152016130d4565b806133c6610859600193613eac565b6133d08289614226565b526133db8188614226565b5001612fd6565b5084612fd4565b60209083516133f781613fad565b5f8152825f81830152828801015201612fc0565b5083541515612f35565b61341f8183614226565b51865490600160401b821015610dff5761344390611b946001938481018b55613eac565b60209061345e826134548587614226565b5101518a5461423a565b89556001600160a01b036134728486614226565b5151165f526011809252855f2090830191828411613497575060050155600101612f21565b87634e487b7160e01b5f525260245ffd5b905090612f1f565b60016001600160ff1b03821682036126d557855f527f61035b26e3e9eee00e0d72fd1ee8ddca6894550dca6916ea2ac6baa90d11e5109160011b8201915b8281106134fc575050612f0d565b5f808255828201556002016134ee565b80613518600192613dd9565b838060a01b0391549060031b1c16805f52602060178152865f20549087519261354084613fad565b835282015261354f8286614226565b5261355a8185614226565b5001612e17565b90346104e75760203660031901126104e7573563ffffffff60e01b81168091036104e75760209151906301ffc9a760e01b148152f35b346104e757602090816003193601126104e7576135b2613d53565b9260018060a01b039283851691825f5260118252835f209460038601968754968715613cac5760ff81541615613c7a57838101988954600e541115613c46579084916135fd846145dc565b600180548b5163a9059cbb60e01b8082526001600160a01b03891697820197885260208801859052929d929692939290918b9183918b16908290819060400103915a905f91f18015613c3c57613c1f575b5061365881614840565b8211613c0c5750613669818061412a565b90895f52601989528a5f2061367f82825461423a565b90558a8c82938c8c60116136928c6148cc565b91600e545f5260158152865f20845f52815282875f20556136b28d6144ee565b935f52526006855f20836007820155015560188d526136df816136da865f2054601a5461412a565b61423a565b601a558d5f5260188d52835f20558b895f9483613b2a575b5050505050613706818361423a565b908c519261371384613f7e565b83528a8301528b820152895f528880528a5f20805490600160401b821015613b175790613744918e82018155613e37565b613b0557815181556020820151600182015560409091015160029091015581546137779181811115613aff57508061412a565b80915515613af1575b506137bf85848a54168560035416906005600a5404915f8c518096819582948a84528d840160209093929193604081019460018060a01b031681520152565b03925af18015613aca57613ad4575b5061380c85848a541685875416906014600a5404915f8c518096819582948a84528d840160209093929193604081019460018060a01b031681520152565b03925af18015613aca579086939291613aad575b50865f5260128352875f2080548987878d84613a30575b935050505081018a8a8888845493846139b9575b505050505050600281018a8a888884549384613936575b50505050505060030194855494856138a1575b50505050505050600e545f52601d8152825f20915f52525f209060ff19825416179055600e5490555f80f35b8a548a519384526001600160a01b03909416918301918252602082019590955290938492169082905f90829060400103925af18015610e1257905f9291613919575b508382526021835261390c85832082549087519161390083613fad565b82524286830152614181565b5585808281808080613875565b61392f90843d8611612c7157612c69818361401b565b50876138e3565b5492518781526001600160a01b038916928101928352602083019490945296979596949593949293928492169082905f90829060400103925af180156139af5760039289969594925f92613992575b5055908c8a88888e613862565b6139a890883d8a11612c7157612c69818361401b565b508e613985565b8a513d5f823e3d90fd5b5492518781526001600160a01b038916928101928352602083019490945296979596949593949293928492169082905f90829060400103925af180156139af57915f918996959493613a13575b50558b808a88888e61384b565b613a2990873d8911612c7157612c69818361401b565b508d613a06565b5492518681526001600160a01b038816928101928352602083019490945295969495939492938492169082905f90829060400103925af18015613aa357908794939291613a86575b505f81558b8987878d613837565b613a9c90853d8711612c7157612c69818361401b565b508b613a78565b89513d5f823e3d90fd5b613ac390843d8611612c7157612c69818361401b565b508a613820565b88513d5f823e3d90fd5b613aea90863d8811612c7157612c69818361401b565b50896137ce565b805460ff1916905589613780565b9061412a565b5f89634e487b7160e01b82525260245ffd5b60418a634e487b7160e01b5f525260245ffd5b9091929394508c8a8d613b3c8561431c565b9788613b50575b96505050509082916136f7565b5493519182526001600160a01b0394909416918101918252602082018790529697509395938492908390036040019183915f91165af18015613c0257613be5575b50613b9b81614840565b8211613bd55750905b613bc5828b5f5260198b528c5f20613bbd82825461423a565b90558261423a565b918e8a888f8f908a8d8f92613b43565b613bdf9150614840565b90613ba4565b613bfb908b3d8d11612c7157612c69818361401b565b508e613b91565b8d513d5f823e3d90fd5b613c1861366991614840565b809261412a565b613c35908a3d8c11612c7157612c69818361401b565b508d61364e565b8c513d5f823e3d90fd5b875162461bcd60e51b8152808601879052600e60248201526d6e6f207265776172642074696d6560901b6044820152606490fd5b865162461bcd60e51b8152808501869052600c60248201526b39ba30ba3ab99032b93937b960a11b6044820152606490fd5b865162461bcd60e51b815280850186905260096024820152681b9bc81c995dd85c9960ba1b6044820152606490fd5b346104e75760209160206003193601126104e7576001600160a01b039283613d01613d53565b165f526014602052815f209384549081855260208501955f5260205f20925f915b838310613d3a576106e287876115e6828c038361401b565b8454811688529681019660019485019490920191613d22565b600435906001600160a01b03821682036104e757565b602435906001600160a01b03821682036104e757565b60209060206040818301928281528551809452019301915f5b828110613da6575050505090565b83516001600160a01b031685529381019392810192600101613d98565b60409060031901126104e7576004359060243590565b6106978054821015613e0e575f527f275f90b8c6ac1b5a1f2a85482be6852bdff56884b41f8b476c085d6142c478f601905f90565b634e487b7160e01b5f52603260045260245ffd5b8054821015613e0e575f5260205f2001905f90565b8054821015613e0e575f52600360205f20910201905f90565b60208082019080835283518092528060408094019401925f905b838210613e7957505050505090565b845180516001600160a01b0316875280840151878501528101518682015260609095019493820193600190910190613e6a565b602254811015613e0e5760225f5260011b7f61035b26e3e9eee00e0d72fd1ee8ddca6894550dca6916ea2ac6baa90d11e51001905f90565b6106988054821015613e0e575f5260011b7f38ab5f11fea4ac1f4814c55c438d84fd4dec22a03ca29a7e3c711ce90ff8e68c01905f90565b8054821015613e0e575f5260205f209060011b01905f90565b60208082019080835283518092528060408094019401925f905b838210613f5e57505050505090565b845180518752830151868401529485019493820193600190910190613f4f565b606081019081106001600160401b03821117613f9957604052565b634e487b7160e01b5f52604160045260245ffd5b604081019081106001600160401b03821117613f9957604052565b61010081019081106001600160401b03821117613f9957604052565b60a081019081106001600160401b03821117613f9957604052565b61066081019081106001600160401b03821117613f9957604052565b90601f801991011681019081106001600160401b03821117613f9957604052565b6001600160401b038111613f9957601f01601f191660200190565b602080820190602083528351809252602060408094019401925f905b83821061408257505050505090565b90919293948382826140a96001948a516020809160018060a01b0381511684520151910152565b0196019493920190614073565b9181601f840112156104e7578235916001600160401b0383116104e7576020808501948460051b0101116104e757565b9181601f840112156104e7578235916001600160401b0383116104e757602083818601950101116104e757565b6001600160401b038111613f995760051b60200190565b9190820391821161413757565b634e487b7160e01b5f52601160045260245ffd5b8115614155570490565b634e487b7160e01b5f52601260045260245ffd5b908160209103126104e7575180151581036104e75790565b8054600160401b811015613f995761419e91600182018155613f1c565b9190916141b5576020816001925184550151910155565b634e487b7160e01b5f525f60045260245ffd5b906141d282614113565b6040906141e2604051918261401b565b83815280936141f3601f1991614113565b01915f5b8381106142045750505050565b602090825161421281613fad565b5f8152825f818301528286010152016141f7565b8051821015613e0e5760209160051b010190565b9190820180921161413757565b8181029291811591840414171561413757565b91906141b557805182546001600160a01b0319166001600160a01b03919091161782556020015160019190910155565b90816142959161412a565b90606482029180830460641490151715614137576142b29161414b565b90565b906040516142c281613f7e565b82546001600160a01b03168152600183015460208201526002909201546040830152565b906040516142f381613f7e565b60406002829480548452600181015460208501520154910152565b5f1981146141375760010190565b6001600160a01b03165f9081526011602052604090206004810154600e5411156143985760070154601a545f918161435357505090565b614362919250600a5490614247565b6007810290808204600714811517156141375760f5029080820460231490151715614137576103e8916143949161414b565b0490565b505f90565b6001600160a01b0381811690816143b357505050565b6143bc836144ee565b6143c5846148cc565b816143fe575b50505050611f636143ef6143fc9260018060a01b03165f52600f60205260405f2090565b546001600160a01b031690565b565b835f526011602052600660405f20836007820155015561443e816136da6144358760018060a01b03165f52601860205260405f2090565b54601a5461412a565b601a556001600160a01b0384165f908152601860205260409020819055825f52601760205260405f20555f905f90610697928354925b8381106144c4575b506143cb57600160401b82939495921015613f99576143fc946144ab84611f639660016143ef97019055613dd9565b909283549160031b92831b921b1916179055925f6143cb565b85836144cf83613dd9565b90549060031b1c16146144e457600101614474565b505060015f61447c565b60018060a01b0381165f52601160205261456760405f209160405161451281613fc8565b60ff8454161515815260e06007600186015495866020850152600281015460408501526003810154606085015260048101546080850152600581015460a0850152600681015460c085015201549101526148cc565b614571818361423a565b156145af5761271091828102818104841482151715614137576145978361459d9361423a565b9061414b565b82018083116141375761439491614247565b50505f90565b906040516145c281613fad565b82546001600160a01b031681526001909201546020830152565b6001600160a01b03165f818152601160205260409081902060040154600e5491929082118015906146ba575b6146b3575f52601160205261467c825f20835161462481613fc8565b60ff8254161515815260e060076001840154938460208501526002810154888501526003810154606085015260048101546080850152600581015460a0850152600681015460c08501520154910152600a5490614247565b90602a820291808304602a1490151715614137575f198101908111614137576142b2926064915f52601c6020525f2054910461414b565b5050505f90565b505f198201828111614137575f52601c602052825f205415614608565b8054600160401b811015613f99576146f491600182018155613e22565b60018060a09493941b038084549260031b9316831b921b1916179055565b6040519161471f83613f7e565b6001600160a01b039182168352602083019081524260408401908152600c546102269490929085841015613e0e5760036027940294856025019151166001600160601b0360a01b82541617905551602684015551910155600c546001810180911161413757819006600c55600d5410156147a35761479e600d5461430e565b600d55565b600b5460018101809111614137576103e89006600b55565b6001600160a01b03818116923384900361480f5760016147ff916143fc955f52600f60205260405f2093811693846001600160601b0360a01b825416179055614dd1565b5f52601460205260405f206146d7565b60405162461bcd60e51b815260206004820152600960248201526836b9b39032b93937b960b91b6044820152606490fd5b5f54604051634c6afee560e11b815290602090829060049082906001600160a01b03165afa9081156148c1575f91614887575b5061439490670de0b6b3a764000092614247565b90506020813d6020116148b9575b816148a26020938361401b565b810103126104e75751670de0b6b3a7640000614873565b3d9150614895565b6040513d5f823e3d90fd5b9060018060a01b038092165f526020601481526040805f209381518086858298549384815201905f52855f20925f5b87828210614a55575050506149129250038661401b565b81515f61491e82613fc8565b5f82525f858301525f848301526060935f60608401526080925f608082015260a0945f60a083015260c0995f60c08401525f60e0809401525f945b8151861015614a4857898989898f94876149738c89614226565b51165f5289896007601195868952835f209084519461499186613fc8565b60ff835416151586526001830154809b870152600283015490860152600398898301549086015260049687830154908601526005820154908501526006810154998401998a52015491015283850294808604851490151715614a37576149fc90600a8096049061423a565b9451838102938185041490151715614a2757505091614a1f91600193049061423a565b950194614959565b634e487b7160e01b5f525260245ffd5b50634e487b7160e01b5f525260245ffd5b9a50505050505050505050565b8554871684526001958601958b9550930192016148fb565b6001600160a01b03908116908115614ac6575f80516020614f3f83398151915280546001600160a01b031981168417909155167f8be0079c531659141344cd1fd0a4f28419497f9722a3daafe3b4186f6b6457e05f80a3565b604051631e4fbdf760e01b81525f6004820152602490fd5b5f80516020614f3f833981519152546001600160a01b03163303614afe57565b60405163118cdaa760e01b8152336004820152602490fd5b91909160018060a01b039283821690815f526020601181526040805f2093600e5494600195868111614d5c575b815460ff1615614cbb575083850151614b6087830191825461423a565b9055600a614b7386518588015190614247565b04614b836003830191825461423a565b9055614b9660028651920191825461423a565b90555b5f52600f825286815f2054169280516007600e54045f5260168452825f20855f528452614bca835f2091825461423a565b905580516007600e54045f52601b8452614be8835f2091825461423a565b905582810151600e545f52601c8452614c05835f2091825461423a565b9055614c12815187614712565b6007600e54049051815f5260168452825f20855f528452825f20555f97855f905b614c71575b505092809291611f6395946143fc989915614c57575b50505050614e32565b614c68936023915f52525f206146d7565b5f818180614c4e565b825f5260238552835f208054821015614cb55782614c90838993613e22565b90549060031b1c1614614ca557860186614c33565b5094975087945081611f63614c38565b50614c38565b90506007848601518651600a614cd4878a015183614247565b04865194614ce186613fc8565b8a8652888601938452878601928352606086019182526080860190815260a08601915f835260c08701935f855260e08801955f8752895f5260118c528a5f209851151560ff80198b54169116178955518d89015551600288015551600387015551600486015551600585015551600684015551910155614b99565b85850180515f19830190838211614137576127106111076110fe614d809484614247565b9052614b43565b6001600160a01b039081165f8181526013602052604090206004018054614daf90859061423a565b90555f52600f60205260405f2054169081614dc8575050565b6143fc91614d87565b6001600160a01b039081165f81815260136020526040902091929091600291614e21575b01614e00815461430e565b90555f52600f60205260405f20541680614e175750565b5f6143fc91614dd1565b614e2b815461430e565b8155614df5565b6001600160a01b03908116919082614e4957505050565b825f926143fc9484526013602052604084209060018201614e6a815461430e565b905515614e85575b508252600f602052604082205416614e32565b600301614e92815461430e565b90555f614e72565b60ff7ff0c57e16840df040f15088dc2f81fe391c3923bec73e23a9662efc9c229c6a005460401c1615614ec957565b604051631afcd79f60e31b8152600490fd5b90614f025750805115614ef057805190602001fd5b60405163d6bda27560e01b8152600490fd5b81511580614f35575b614f13575090565b604051639996b31560e01b81526001600160a01b039091166004820152602490fd5b50803b15614f0b56fe9016d09d72d40fdae2fd8ceac6b6234c7706214fd39c1cd1e609a0528c199300a26469706673582212203c739d36e05e369869098706a73130d5aabeaeded8423383edae4e8ff0a5950364736f6c63430008190033",
    "sourcePath": "/Users/janly/data/solidity/UUPSNew/contracts/mint.sol",
    "compiler": {
        "name": "solc",
        "version": "0.8.25+commit.b61c2a91"
    },
    "functionHashes": {
        "MAX()": "d49d5181",
        "UPGRADE_INTERFACE_VERSION()": "ad3cb1cc",
        "_buyRecord(uint256)": "cefb762d",
        "_isReward(uint256,address)": "daef4079",
        "_lastT(address)": "d2557be0",
        "_mintLevelInfo(uint256)": "593439cd",
        "_nft()": "98300e18",
        "_orders(address)": "91d19dd3",
        "_ordersReward(address)": "b370e9ac",
        "_swapRouter()": "206c17bb",
        "_targetAddress20()": "6ca7f0a6",
        "_targetAddress5()": "bf4b4198",
        "_teamInfo(address)": "e44e1d2e",
        "_token()": "ecd0c0c3",
        "addAdminRewardUser(address,uint256)": "574e2f18",
        "addElement(address,uint256)": "c8e31d17",
        "addPower(address,uint256)": "b34d30ca",
        "addPowerFee()": "8f04f310",
        "adminBind(address[],address)": "c8898a6d",
        "adminRewardList(uint256)": "be43be02",
        "adminRewardRecord(address,uint256)": "75dff622",
        "adminWrite(address,address,uint256,uint256)": "4b374c90",
        "bind(address,address)": "d1ec9f14",
        "calTodayProduce()": "4651843e",
        "calculatePercentageDifference(uint256,uint256)": "10e3b149",
        "claimBalance(address)": "b633e4cd",
        "claimToken(address,address,uint256)": "125bfb66",
        "end()": "efbe1c1c",
        "getAdminRewardList()": "d34f730a",
        "getAdminRewardList(address)": "e31e0d14",
        "getAmountA(address)": "61d7c171",
        "getAmountB(address)": "d9b86484",
        "getAmountT(address)": "6dafe92b",
        "getDayPower(uint256)": "96a1d75e",
        "getElements51to550()": "374082ab",
        "getFirst50Elements()": "ca7b942a",
        "getLastTByUser(address)": "9c6a642a",
        "getMyInfo(address)": "0a32bf36",
        "getMyInfo2(address)": "5e911643",
        "getMyTeam(address)": "a0ab0d72",
        "getPladeList(address)": "44ab55e6",
        "getRankedAddressesByRange(uint256,uint256)": "d85cd275",
        "getReawrd(address)": "01890b65",
        "getRecommend(address)": "e5194d51",
        "getRewardList(address)": "3e7ce723",
        "getRewardTotal(address)": "ed87ecaf",
        "getStatic(address)": "7b959a13",
        "getSync(address)": "4e7c914a",
        "getTListList()": "51d65da9",
        "getTRankAddress(uint256)": "44c0cfb4",
        "getTRankLength()": "8c4d1904",
        "getTeamList(address)": "01449b4f",
        "getTime()": "557ed1ba",
        "getTimeWeek()": "1e619829",
        "getTodayProduceNoDecimal()": "a5a6c64f",
        "getTokenPriceByU(uint256)": "d4f3ddcd",
        "getTotalAdminWeight()": "dbd2a07e",
        "getTotalT()": "92dfc90c",
        "getUPriceByToken(uint256)": "b0e59cf5",
        "getWeekRankUsers(uint256)": "a72db85d",
        "getWeekTotal(uint256)": "25a90417",
        "getWeekUsers(uint256)": "82fba86f",
        "initialize()": "8129fc1c",
        "lastReward(uint256,address)": "e01fe64d",
        "lastTotalT()": "7775ccd7",
        "lastdayPower()": "393a3777",
        "lastdaydayPower()": "810dfcb7",
        "mining(address,uint256)": "c4dcad1d",
        "onERC1155BatchReceived(address,address,uint256[],uint256[],bytes)": "bc197c81",
        "onERC1155Received(address,address,uint256,uint256,bytes)": "f23a6e61",
        "owner()": "8da5cb5b",
        "pladeList(address,uint256)": "d09f1344",
        "powerInfo(uint256)": "472c00a9",
        "proxiableUUID()": "52d1902d",
        "queryReawrd70(address,uint256)": "32a1fab8",
        "recommend(address)": "d88be3c0",
        "renounceOwnership()": "715018a6",
        "rewardList(address,uint256)": "1fe6bbcd",
        "rewardTotalAmount(address)": "29b35e43",
        "setNFT(address)": "f56e9c66",
        "setPow(uint256,uint256)": "0c495f0f",
        "setPowerFee(uint256)": "99c133b7",
        "setSwapContractAddress(address)": "6faaf223",
        "setTargetAddress20(address)": "2ad15386",
        "setTargetAddress5(address)": "5441833d",
        "setToken(address)": "144fa6d7",
        "size()": "949d225d",
        "sortTList()": "0615be2e",
        "sortWeekReward()": "7759db2e",
        "start()": "be9a6555",
        "supportsInterface(bytes4)": "01ffc9a7",
        "tList(uint256)": "122f0c94",
        "tRankAddress(uint256)": "445ad750",
        "tReward(address)": "bde6ac21",
        "teamList(address,uint256)": "87c3df1c",
        "todayProduce()": "479c4a2f",
        "totalAdminWeight()": "79aeccd2",
        "totalT500()": "0aa7afb0",
        "transferOwnership(address)": "f2fde38b",
        "updateT(address)": "608f8cc6",
        "upgradeToAndCall(address,bytes)": "4f1ef286",
        "weekRankAddress(uint256,uint256)": "81ca6d08",
        "weekReward(uint256,address)": "509e7b54",
        "weekTotal(uint256)": "cc90f5cd",
        "weekUsers(uint256,uint256)": "0a47dcc0"
    },
    "gasEstimates": {
        "creation": {
            "codeDepositCost": "4074400",
            "executionCost": "infinite",
            "totalCost": "infinite"
        },
        "external": {
            "MAX()": "2100",
            "UPGRADE_INTERFACE_VERSION()": "1901",
            "_buyRecord(uint256)": "8412",
            "_isReward(uint256,address)": "4543",
            "_lastT(address)": "4310",
            "_mintLevelInfo(uint256)": "7446",
            "_nft()": "3653",
            "_orders(address)": "18592",
            "_ordersReward(address)": "10409",
            "_swapRouter()": "2597",
            "_targetAddress20()": "3191",
            "_targetAddress5()": "3983",
            "_teamInfo(address)": "13060",
            "_token()": "4467",
            "addAdminRewardUser(address,uint256)": "infinite",
            "addElement(address,uint256)": "123444",
            "addPower(address,uint256)": "infinite",
            "addPowerFee()": "3522",
            "adminBind(address[],address)": "infinite",
            "adminRewardList(uint256)": "10389",
            "adminRewardRecord(address,uint256)": "9890",
            "adminWrite(address,address,uint256,uint256)": "infinite",
            "bind(address,address)": "infinite",
            "calTodayProduce()": "122786",
            "calculatePercentageDifference(uint256,uint256)": "597",
            "claimBalance(address)": "infinite",
            "claimToken(address,address,uint256)": "infinite",
            "end()": "4490",
            "getAdminRewardList()": "infinite",
            "getAdminRewardList(address)": "infinite",
            "getAmountA(address)": "18287",
            "getAmountB(address)": "infinite",
            "getAmountT(address)": "infinite",
            "getDayPower(uint256)": "3672",
            "getElements51to550()": "infinite",
            "getFirst50Elements()": "infinite",
            "getLastTByUser(address)": "3826",
            "getMyInfo(address)": "19741",
            "getMyInfo2(address)": "9830",
            "getMyTeam(address)": "infinite",
            "getPladeList(address)": "infinite",
            "getRankedAddressesByRange(uint256,uint256)": "infinite",
            "getReawrd(address)": "infinite",
            "getRecommend(address)": "4580",
            "getRewardList(address)": "infinite",
            "getRewardTotal(address)": "4618",
            "getStatic(address)": "29561",
            "getSync(address)": "11820",
            "getTListList()": "infinite",
            "getTRankAddress(uint256)": "infinite",
            "getTRankLength()": "3478",
            "getTeamList(address)": "infinite",
            "getTime()": "3038",
            "getTimeWeek()": "2540",
            "getTodayProduceNoDecimal()": "3728",
            "getTokenPriceByU(uint256)": "infinite",
            "getTotalAdminWeight()": "4336",
            "getTotalT()": "3566",
            "getUPriceByToken(uint256)": "infinite",
            "getWeekRankUsers(uint256)": "infinite",
            "getWeekTotal(uint256)": "2660",
            "getWeekUsers(uint256)": "infinite",
            "initialize()": "infinite",
            "lastReward(uint256,address)": "4575",
            "lastTotalT()": "3302",
            "lastdayPower()": "2708",
            "lastdaydayPower()": "3368",
            "mining(address,uint256)": "infinite",
            "onERC1155BatchReceived(address,address,uint256[],uint256[],bytes)": "infinite",
            "onERC1155Received(address,address,uint256,uint256,bytes)": "2759",
            "owner()": "infinite",
            "pladeList(address,uint256)": "10748",
            "powerInfo(uint256)": "2902",
            "proxiableUUID()": "infinite",
            "queryReawrd70(address,uint256)": "infinite",
            "recommend(address)": "4426",
            "renounceOwnership()": "infinite",
            "rewardList(address,uint256)": "11339",
            "rewardTotalAmount(address)": "2770",
            "setNFT(address)": "infinite",
            "setPow(uint256,uint256)": "infinite",
            "setPowerFee(uint256)": "infinite",
            "setSwapContractAddress(address)": "infinite",
            "setTargetAddress20(address)": "infinite",
            "setTargetAddress5(address)": "infinite",
            "setToken(address)": "infinite",
            "size()": "3588",
            "sortTList()": "infinite",
            "sortWeekReward()": "infinite",
            "start()": "3940",
            "supportsInterface(bytes4)": "262",
            "tList(uint256)": "6802",
            "tRankAddress(uint256)": "9223",
            "tReward(address)": "4046",
            "teamList(address,uint256)": "7976",
            "todayProduce()": "2862",
            "totalAdminWeight()": "3324",
            "totalT500()": "2400",
            "transferOwnership(address)": "infinite",
            "updateT(address)": "infinite",
            "upgradeToAndCall(address,bytes)": "infinite",
            "weekRankAddress(uint256,uint256)": "10027",
            "weekReward(uint256,address)": "3167",
            "weekTotal(uint256)": "4134",
            "weekUsers(uint256,uint256)": "6855"
        },
        "internal": {
            "_authorizeUpgrade(address)": "infinite",
            "addTeamAmountInfo(address,uint256)": "infinite",
            "addTeamInfo(address,bool)": "infinite",
            "createOrder(address,struct Mint.MintLevelPoint memory)": "infinite",
            "reawrd70(address,uint256)": "infinite",
            "saveTeamInfo(address,bool)": "infinite",
            "setWeekReward(uint256,address,uint256)": "infinite",
            "settRank(address,uint256)": "infinite"
        }
    }
}