{
    "contractName": "NFT",
    "abi": [
        {
            "inputs": [],
            "stateMutability": "nonpayable",
            "type": "constructor"
        },
        {
            "inputs": [
                {
                    "internalType": "address",
                    "name": "target",
                    "type": "address"
                }
            ],
            "name": "AddressEmptyCode",
            "type": "error"
        },
        {
            "inputs": [
                {
                    "internalType": "address",
                    "name": "sender",
                    "type": "address"
                },
                {
                    "internalType": "uint256",
                    "name": "balance",
                    "type": "uint256"
                },
                {
                    "internalType": "uint256",
                    "name": "needed",
                    "type": "uint256"
                },
                {
                    "internalType": "uint256",
                    "name": "tokenId",
                    "type": "uint256"
                }
            ],
            "name": "ERC1155InsufficientBalance",
            "type": "error"
        },
        {
            "inputs": [
                {
                    "internalType": "address",
                    "name": "approver",
                    "type": "address"
                }
            ],
            "name": "ERC1155InvalidApprover",
            "type": "error"
        },
        {
            "inputs": [
                {
                    "internalType": "uint256",
                    "name": "idsLength",
                    "type": "uint256"
                },
                {
                    "internalType": "uint256",
                    "name": "valuesLength",
                    "type": "uint256"
                }
            ],
            "name": "ERC1155InvalidArrayLength",
            "type": "error"
        },
        {
            "inputs": [
                {
                    "internalType": "address",
                    "name": "operator",
                    "type": "address"
                }
            ],
            "name": "ERC1155InvalidOperator",
            "type": "error"
        },
        {
            "inputs": [
                {
                    "internalType": "address",
                    "name": "receiver",
                    "type": "address"
                }
            ],
            "name": "ERC1155InvalidReceiver",
            "type": "error"
        },
        {
            "inputs": [
                {
                    "internalType": "address",
                    "name": "sender",
                    "type": "address"
                }
            ],
            "name": "ERC1155InvalidSender",
            "type": "error"
        },
        {
            "inputs": [
                {
                    "internalType": "address",
                    "name": "operator",
                    "type": "address"
                },
                {
                    "internalType": "address",
                    "name": "owner",
                    "type": "address"
                }
            ],
            "name": "ERC1155MissingApprovalForAll",
            "type": "error"
        },
        {
            "inputs": [
                {
                    "internalType": "address",
                    "name": "implementation",
                    "type": "address"
                }
            ],
            "name": "ERC1967InvalidImplementation",
            "type": "error"
        },
        {
            "inputs": [],
            "name": "ERC1967NonPayable",
            "type": "error"
        },
        {
            "inputs": [],
            "name": "FailedCall",
            "type": "error"
        },
        {
            "inputs": [],
            "name": "InvalidInitialization",
            "type": "error"
        },
        {
            "inputs": [],
            "name": "NotInitializing",
            "type": "error"
        },
        {
            "inputs": [
                {
                    "internalType": "address",
                    "name": "owner",
                    "type": "address"
                }
            ],
            "name": "OwnableInvalidOwner",
            "type": "error"
        },
        {
            "inputs": [
                {
                    "internalType": "address",
                    "name": "account",
                    "type": "address"
                }
            ],
            "name": "OwnableUnauthorizedAccount",
            "type": "error"
        },
        {
            "inputs": [],
            "name": "UUPSUnauthorizedCallContext",
            "type": "error"
        },
        {
            "inputs": [
                {
                    "internalType": "bytes32",
                    "name": "slot",
                    "type": "bytes32"
                }
            ],
            "name": "UUPSUnsupportedProxiableUUID",
            "type": "error"
        },
        {
            "anonymous": false,
            "inputs": [
                {
                    "indexed": true,
                    "internalType": "address",
                    "name": "account",
                    "type": "address"
                },
                {
                    "indexed": true,
                    "internalType": "address",
                    "name": "operator",
                    "type": "address"
                },
                {
                    "indexed": false,
                    "internalType": "bool",
                    "name": "approved",
                    "type": "bool"
                }
            ],
            "name": "ApprovalForAll",
            "type": "event"
        },
        {
            "anonymous": false,
            "inputs": [
                {
                    "indexed": false,
                    "internalType": "uint64",
                    "name": "version",
                    "type": "uint64"
                }
            ],
            "name": "Initialized",
            "type": "event"
        },
        {
            "anonymous": false,
            "inputs": [
                {
                    "indexed": true,
                    "internalType": "address",
                    "name": "previousOwner",
                    "type": "address"
                },
                {
                    "indexed": true,
                    "internalType": "address",
                    "name": "newOwner",
                    "type": "address"
                }
            ],
            "name": "OwnershipTransferred",
            "type": "event"
        },
        {
            "anonymous": false,
            "inputs": [
                {
                    "indexed": true,
                    "internalType": "address",
                    "name": "operator",
                    "type": "address"
                },
                {
                    "indexed": true,
                    "internalType": "address",
                    "name": "from",
                    "type": "address"
                },
                {
                    "indexed": true,
                    "internalType": "address",
                    "name": "to",
                    "type": "address"
                },
                {
                    "indexed": false,
                    "internalType": "uint256[]",
                    "name": "ids",
                    "type": "uint256[]"
                },
                {
                    "indexed": false,
                    "internalType": "uint256[]",
                    "name": "values",
                    "type": "uint256[]"
                }
            ],
            "name": "TransferBatch",
            "type": "event"
        },
        {
            "anonymous": false,
            "inputs": [
                {
                    "indexed": true,
                    "internalType": "address",
                    "name": "operator",
                    "type": "address"
                },
                {
                    "indexed": true,
                    "internalType": "address",
                    "name": "from",
                    "type": "address"
                },
                {
                    "indexed": true,
                    "internalType": "address",
                    "name": "to",
                    "type": "address"
                },
                {
                    "indexed": false,
                    "internalType": "uint256",
                    "name": "id",
                    "type": "uint256"
                },
                {
                    "indexed": false,
                    "internalType": "uint256",
                    "name": "value",
                    "type": "uint256"
                }
            ],
            "name": "TransferSingle",
            "type": "event"
        },
        {
            "anonymous": false,
            "inputs": [
                {
                    "indexed": false,
                    "internalType": "string",
                    "name": "value",
                    "type": "string"
                },
                {
                    "indexed": true,
                    "internalType": "uint256",
                    "name": "id",
                    "type": "uint256"
                }
            ],
            "name": "URI",
            "type": "event"
        },
        {
            "anonymous": false,
            "inputs": [
                {
                    "indexed": true,
                    "internalType": "address",
                    "name": "implementation",
                    "type": "address"
                }
            ],
            "name": "Upgraded",
            "type": "event"
        },
        {
            "inputs": [],
            "name": "UPGRADE_INTERFACE_VERSION",
            "outputs": [
                {
                    "internalType": "string",
                    "name": "",
                    "type": "string"
                }
            ],
            "stateMutability": "view",
            "type": "function"
        },
        {
            "inputs": [],
            "name": "_USDT",
            "outputs": [
                {
                    "internalType": "address",
                    "name": "",
                    "type": "address"
                }
            ],
            "stateMutability": "view",
            "type": "function"
        },
        {
            "inputs": [
                {
                    "internalType": "uint256",
                    "name": "",
                    "type": "uint256"
                }
            ],
            "name": "_nftPrice",
            "outputs": [
                {
                    "internalType": "uint256",
                    "name": "",
                    "type": "uint256"
                }
            ],
            "stateMutability": "view",
            "type": "function"
        },
        {
            "inputs": [],
            "name": "_uri",
            "outputs": [
                {
                    "internalType": "string",
                    "name": "",
                    "type": "string"
                }
            ],
            "stateMutability": "view",
            "type": "function"
        },
        {
            "inputs": [
                {
                    "internalType": "address",
                    "name": "account",
                    "type": "address"
                },
                {
                    "internalType": "uint256",
                    "name": "id",
                    "type": "uint256"
                }
            ],
            "name": "balanceOf",
            "outputs": [
                {
                    "internalType": "uint256",
                    "name": "",
                    "type": "uint256"
                }
            ],
            "stateMutability": "view",
            "type": "function"
        },
        {
            "inputs": [
                {
                    "internalType": "address[]",
                    "name": "accounts",
                    "type": "address[]"
                },
                {
                    "internalType": "uint256[]",
                    "name": "ids",
                    "type": "uint256[]"
                }
            ],
            "name": "balanceOfBatch",
            "outputs": [
                {
                    "internalType": "uint256[]",
                    "name": "",
                    "type": "uint256[]"
                }
            ],
            "stateMutability": "view",
            "type": "function"
        },
        {
            "inputs": [
                {
                    "internalType": "address",
                    "name": "account",
                    "type": "address"
                },
                {
                    "internalType": "uint256",
                    "name": "id",
                    "type": "uint256"
                },
                {
                    "internalType": "uint256",
                    "name": "value",
                    "type": "uint256"
                }
            ],
            "name": "burn",
            "outputs": [],
            "stateMutability": "nonpayable",
            "type": "function"
        },
        {
            "inputs": [
                {
                    "internalType": "address",
                    "name": "account",
                    "type": "address"
                },
                {
                    "internalType": "uint256[]",
                    "name": "ids",
                    "type": "uint256[]"
                },
                {
                    "internalType": "uint256[]",
                    "name": "values",
                    "type": "uint256[]"
                }
            ],
            "name": "burnBatch",
            "outputs": [],
            "stateMutability": "nonpayable",
            "type": "function"
        },
        {
            "inputs": [
                {
                    "internalType": "uint256",
                    "name": "id",
                    "type": "uint256"
                }
            ],
            "name": "conflate",
            "outputs": [],
            "stateMutability": "nonpayable",
            "type": "function"
        },
        {
            "inputs": [],
            "name": "initialize",
            "outputs": [],
            "stateMutability": "nonpayable",
            "type": "function"
        },
        {
            "inputs": [
                {
                    "internalType": "address",
                    "name": "account",
                    "type": "address"
                },
                {
                    "internalType": "address",
                    "name": "operator",
                    "type": "address"
                }
            ],
            "name": "isApprovedForAll",
            "outputs": [
                {
                    "internalType": "bool",
                    "name": "",
                    "type": "bool"
                }
            ],
            "stateMutability": "view",
            "type": "function"
        },
        {
            "inputs": [
                {
                    "internalType": "uint256",
                    "name": "id",
                    "type": "uint256"
                },
                {
                    "internalType": "uint256",
                    "name": "amount",
                    "type": "uint256"
                },
                {
                    "internalType": "address",
                    "name": "_target",
                    "type": "address"
                }
            ],
            "name": "mintAdmin",
            "outputs": [],
            "stateMutability": "nonpayable",
            "type": "function"
        },
        {
            "inputs": [
                {
                    "internalType": "address",
                    "name": "to",
                    "type": "address"
                },
                {
                    "internalType": "uint256[]",
                    "name": "ids",
                    "type": "uint256[]"
                },
                {
                    "internalType": "uint256[]",
                    "name": "amounts",
                    "type": "uint256[]"
                },
                {
                    "internalType": "bytes",
                    "name": "data",
                    "type": "bytes"
                }
            ],
            "name": "mintBatch",
            "outputs": [],
            "stateMutability": "nonpayable",
            "type": "function"
        },
        {
            "inputs": [],
            "name": "owner",
            "outputs": [
                {
                    "internalType": "address",
                    "name": "",
                    "type": "address"
                }
            ],
            "stateMutability": "view",
            "type": "function"
        },
        {
            "inputs": [],
            "name": "proxiableUUID",
            "outputs": [
                {
                    "internalType": "bytes32",
                    "name": "",
                    "type": "bytes32"
                }
            ],
            "stateMutability": "view",
            "type": "function"
        },
        {
            "inputs": [],
            "name": "renounceOwnership",
            "outputs": [],
            "stateMutability": "nonpayable",
            "type": "function"
        },
        {
            "inputs": [
                {
                    "internalType": "address",
                    "name": "from",
                    "type": "address"
                },
                {
                    "internalType": "address",
                    "name": "to",
                    "type": "address"
                },
                {
                    "internalType": "uint256[]",
                    "name": "ids",
                    "type": "uint256[]"
                },
                {
                    "internalType": "uint256[]",
                    "name": "amounts",
                    "type": "uint256[]"
                },
                {
                    "internalType": "bytes",
                    "name": "data",
                    "type": "bytes"
                }
            ],
            "name": "safeBatchTransferFrom",
            "outputs": [],
            "stateMutability": "nonpayable",
            "type": "function"
        },
        {
            "inputs": [
                {
                    "internalType": "address",
                    "name": "from",
                    "type": "address"
                },
                {
                    "internalType": "address",
                    "name": "to",
                    "type": "address"
                },
                {
                    "internalType": "uint256",
                    "name": "id",
                    "type": "uint256"
                },
                {
                    "internalType": "uint256",
                    "name": "amount",
                    "type": "uint256"
                },
                {
                    "internalType": "bytes",
                    "name": "data",
                    "type": "bytes"
                }
            ],
            "name": "safeTransferFrom",
            "outputs": [],
            "stateMutability": "nonpayable",
            "type": "function"
        },
        {
            "inputs": [
                {
                    "internalType": "address",
                    "name": "operator",
                    "type": "address"
                },
                {
                    "internalType": "bool",
                    "name": "approved",
                    "type": "bool"
                }
            ],
            "name": "setApprovalForAll",
            "outputs": [],
            "stateMutability": "nonpayable",
            "type": "function"
        },
        {
            "inputs": [
                {
                    "internalType": "string",
                    "name": "URI",
                    "type": "string"
                }
            ],
            "name": "setURI",
            "outputs": [],
            "stateMutability": "nonpayable",
            "type": "function"
        },
        {
            "inputs": [
                {
                    "internalType": "address",
                    "name": "_target",
                    "type": "address"
                }
            ],
            "name": "setUSDT",
            "outputs": [],
            "stateMutability": "nonpayable",
            "type": "function"
        },
        {
            "inputs": [
                {
                    "internalType": "bytes4",
                    "name": "interfaceId",
                    "type": "bytes4"
                }
            ],
            "name": "supportsInterface",
            "outputs": [
                {
                    "internalType": "bool",
                    "name": "",
                    "type": "bool"
                }
            ],
            "stateMutability": "view",
            "type": "function"
        },
        {
            "inputs": [
                {
                    "internalType": "address",
                    "name": "newOwner",
                    "type": "address"
                }
            ],
            "name": "transferOwnership",
            "outputs": [],
            "stateMutability": "nonpayable",
            "type": "function"
        },
        {
            "inputs": [
                {
                    "internalType": "address",
                    "name": "newImplementation",
                    "type": "address"
                },
                {
                    "internalType": "bytes",
                    "name": "data",
                    "type": "bytes"
                }
            ],
            "name": "upgradeToAndCall",
            "outputs": [],
            "stateMutability": "payable",
            "type": "function"
        },
        {
            "inputs": [
                {
                    "internalType": "uint256",
                    "name": "",
                    "type": "uint256"
                }
            ],
            "name": "uri",
            "outputs": [
                {
                    "internalType": "string",
                    "name": "",
                    "type": "string"
                }
            ],
            "stateMutability": "view",
            "type": "function"
        },
        {
            "inputs": [
                {
                    "internalType": "address",
                    "name": "_token",
                    "type": "address"
                },
                {
                    "internalType": "address",
                    "name": "_target",
                    "type": "address"
                },
                {
                    "internalType": "uint256",
                    "name": "_amount",
                    "type": "uint256"
                }
            ],
            "name": "withdraw",
            "outputs": [],
            "stateMutability": "nonpayable",
            "type": "function"
        }
    ],
    "bytecode": "60a080604052346200026e57306080525f546001908181811c9116801562000263575b60208210146200024f57601f8111620001f7575b5060e15f90815580527f68747470733a2f2f6d6f63636173696e2d726976616c2d7374757267656f6e2d5f80516020620025b28339815191529081557f3335372e6d7970696e6174612e636c6f75642f697066732f516d59347268774d908201557f355665426955336e417056343257506259686d6266437175756a3155316357637f290decd9548b62a8d60345a988386fc84ba6bc95484008f6362f93160ef3e565556f3a34382198b197bdb4b23e973539b7b760811b7f290decd9548b62a8d60345a988386fc84ba6bc95484008f6362f93160ef3e5665580546001600160a01b0319167355d398326f99059ff775485246999027b31979551790557ff0c57e16840df040f15088dc2f81fe391c3923bec73e23a9662efc9c229c6a0080549091604082901c60ff16620001e857506001600160401b036002600160401b031982821601620001a2575b60405161233f9081620002738239608051818181610ad80152610c450152f35b6001600160401b031990911681179091556040519081527fc7f505b2f371ae2175ee4913f4499e1f2633a7b5936321eed1cdaeb6115181d290602090a15f808062000182565b63f92ee8a960e01b8152600490fd5b5f8052601f0160051c5f80516020620025b283398151915201817f290decd9548b62a8d60345a988386fc84ba6bc95484008f6362f93160ef3e5675b8281106200024357505062000036565b5f815501829062000233565b634e487b7160e01b5f52602260045260245ffd5b90607f169062000022565b5f80fdfe60806040526004361015610011575f80fd5b5f3560e01c8062fdd58e146101b357806301ffc9a7146101ae57806302fe5305146101a95780630dccc9ad146101a45780630e89341c1461019f5780631f7fdffa1461019a5780632eb2c2d6146101955780634e1273f4146101905780634f1ef2861461018b57806350c1b9231461018657806352d1902d14610181578063600c68d71461017c5780636b20c45414610177578063715018a6146101725780638129fc1c1461016d5780638da5cb5b1461016857806398057d8414610163578063a22cb4651461015e578063ad3cb1cc14610159578063d308534714610154578063d9caed121461014f578063e985e9c51461014a578063ecd1d70e14610145578063f242432a14610140578063f2fde38b1461013b5763f5298aca14610136575f80fd5b6113ef565b6113c6565b6112e6565b6112be565b611281565b61117c565b6110e4565b61108d565b610fe2565b610fae565b610f4d565b610e2a565b610dc3565b610d04565b610c8a565b610c33565b610bf0565b610a99565b6109df565b61086e565b6107c8565b610655565b610622565b61038a565b610276565b6101fc565b600435906001600160a01b03821682036101ce57565b5f80fd5b602435906001600160a01b03821682036101ce57565b35906001600160a01b03821682036101ce57565b346101ce5760403660031901126101ce57602061025b61021a6101b8565b6024355f527f88be536d5240c274a3b1d3a1be54482fd9caa294f08c62a7cde569f49a3c4500835260405f209060018060a01b03165f5260205260405f2090565b54604051908152f35b6001600160e01b03198116036101ce57565b346101ce5760203660031901126101ce57602060043561029581610264565b63ffffffff60e01b16636cdb3d1360e11b81149081156102d3575b81156102c2575b506040519015158152f35b6301ffc9a760e01b1490505f6102b7565b6303a24d0760e21b811491506102b0565b634e487b7160e01b5f52604160045260245ffd5b602081019081106001600160401b0382111761031357604052565b6102e4565b90601f801991011681019081106001600160401b0382111761031357604052565b6001600160401b03811161031357601f01601f191660200190565b92919261036082610339565b9161036e6040519384610318565b8294818452818301116101ce578281602093845f960137010152565b346101ce576020806003193601126101ce576001600160401b03906004358281116101ce57366023820112156101ce576103ce903690602481600401359101610354565b916103d7611876565b8251908111610313575f805160206122ea83398151915291610402826103fd85546104a3565b6118ae565b602090601f83116001146104425750819061043393945f92610437575b50508160011b915f199060031b1c19161790565b9055005b015190505f8061041f565b90601f198316946104516104db565b925f905b87821061048b575050836001959610610473575b505050811b019055005b01515f1960f88460031b161c191690555f8080610469565b80600185968294968601518155019501930190610455565b90600182811c921680156104d1575b60208310146104bd57565b634e487b7160e01b5f52602260045260245ffd5b91607f16916104b2565b5f805160206122ea8339815191525f527ff429cb5e2ec84cbb765e76b31964a56ccde03e7a6122d6cc4afb19edc55edeed90565b604051905f825f5491610521836104a3565b808352926020906001908181169081156105ac575060011461054e575b505061054c92500383610318565b565b9150925f80527f290decd9548b62a8d60345a988386fc84ba6bc95484008f6362f93160ef3e563935f925b828410610594575061054c9450505081016020015f8061053e565b85548885018301529485019487945092810192610579565b9150506020925061054c94915060ff191682840152151560051b8201015f8061053e565b91908251928382525f5b8481106105fa575050825f602080949584010152601f8019910116010190565b6020818301810151848301820152016105da565b90602061061f9281815201906105d0565b90565b346101ce575f3660031901126101ce5761065161063d61050f565b6040519182916020835260208301906105d0565b0390f35b346101ce576020806003193601126101ce576040515f915f805160206122ea8339815191528054610685816104a3565b8085529160019180831690811561071457506001146106bb575b610651856106af81890382610318565b6040519182918261060e565b5f9081529294507ff429cb5e2ec84cbb765e76b31964a56ccde03e7a6122d6cc4afb19edc55edeed5b8284106107015750505081610651936106af92820101935f61069f565b80548585018701529285019281016106e4565b60ff191686860152505050151560051b82010191506106af816106515f61069f565b6001600160401b0381116103135760051b60200190565b9080601f830112156101ce57602090823561076781610736565b936107756040519586610318565b81855260208086019260051b8201019283116101ce57602001905b82821061079e575050505090565b81358152908301908301610790565b9080601f830112156101ce5781602061061f93359101610354565b346101ce5760803660031901126101ce576107e16101b8565b6001600160401b036024358181116101ce5761080190369060040161074d565b906044358181116101ce5761081a90369060040161074d565b906064359081116101ce576108339036906004016107ad565b9161083c611876565b6001600160a01b038416156108565761085493611ac9565b005b604051632bfa23e760e11b81525f6004820152602490fd5b346101ce5760a03660031901126101ce576108876101b8565b61088f6101d2565b90604435916001600160401b03908184116101ce576108b36004943690860161074d565b906064358381116101ce576108cb903690870161074d565b926084359081116101ce576108e390369087016107ad565b936001600160a01b0380821690338214158061096e575b6109415783161561092a5715610914576108549550611c1f565b604051626a0d4560e21b81525f81880152602490fd5b604051632bfa23e760e11b81525f81890152602490fd5b6040805163711bec9160e11b815233818b019081526001600160a01b038616602082015290918291010390fd5b5060ff6109933361097e86611486565b9060018060a01b03165f5260205260405f2090565b5416156108fa565b9081518082526020808093019301915f5b8281106109ba575050505090565b8351855293810193928101926001016109ac565b90602061061f92818152019061099b565b346101ce5760403660031901126101ce576004356001600160401b038082116101ce57366023830112156101ce578160040135610a1b81610736565b92610a296040519485610318565b8184526020916024602086019160051b830101913683116101ce57602401905b828210610a8257856024358681116101ce5761065191610a70610a7692369060040161074d565b9061152d565b604051918291826109ce565b838091610a8e846101e8565b815201910190610a49565b60403660031901126101ce57610aad6101b8565b6024356001600160401b0381116101ce57610acc9036906004016107ad565b6001600160a01b0391907f00000000000000000000000000000000000000000000000000000000000000008316308114908115610bd5575b50610bc3576020600493610b16611876565b6040516352d1902d60e01b8152948591829086165afa5f9381610b92575b50610b5a57604051634c9c8ce360e01b81526001600160a01b0383166004820152602490fd5b905f805160206122aa8339815191528303610b79576108549250611df5565b604051632a87526960e21b815260048101849052602490fd5b610bb591945060203d602011610bbc575b610bad8183610318565b81019061172c565b925f610b34565b503d610ba3565b60405163703e46dd60e11b8152600490fd5b9050835f805160206122aa833981519152541614155f610b04565b346101ce5760203660031901126101ce57610c096101b8565b610c11611876565b600180546001600160a01b0319166001600160a01b0392909216919091179055005b346101ce575f3660031901126101ce577f00000000000000000000000000000000000000000000000000000000000000006001600160a01b03163003610bc35760206040515f805160206122aa8339815191528152f35b346101ce5760603660031901126101ce576044356001600160a01b0381168082036101ce57610cb7611876565b60405190610cc4826102f8565b5f8252156108565761085491610cfe6024356004359160405192600184526020840152604083019160018352606084015260808301604052565b91611ac9565b346101ce5760603660031901126101ce57610d1d6101b8565b6001600160401b036024358181116101ce57610d3d90369060040161074d565b906044359081116101ce57610d5690369060040161074d565b906001600160a01b0383163381148015610da7575b610d74906115d1565b15610d9057610854925f604051610d8a816102f8565b5261197a565b604051626a0d4560e21b81525f6004820152602490fd5b50610d7460ff610dba3361097e88611486565b54169050610d6b565b346101ce575f3660031901126101ce57610ddb611876565b5f8051602061228a83398151915280546001600160a01b031981169091555f906001600160a01b03167f8be0079c531659141344cd1fd0a4f28419497f9722a3daafe3b4186f6b6457e08280a3005b346101ce575f3660031901126101ce575f805160206122ca833981519152546001600160401b0360ff8260401c1615911680159081610f45575b6001149081610f3b575b159081610f32575b50610f20575f805160206122ca833981519152805467ffffffffffffffff1916600117905580610ef7575b610ea961162f565b610eaf57005b5f805160206122ca833981519152805460ff60401b19169055604051600181527fc7f505b2f371ae2175ee4913f4499e1f2633a7b5936321eed1cdaeb6115181d290602090a1005b5f805160206122ca833981519152805460ff60401b191668010000000000000000179055610ea1565b60405163f92ee8a960e01b8152600490fd5b9050155f610e76565b303b159150610e6e565b829150610e64565b346101ce575f3660031901126101ce575f8051602061228a833981519152546040516001600160a01b039091168152602090f35b5f527f88be536d5240c274a3b1d3a1be54482fd9caa294f08c62a7cde569f49a3c450060205260405f2090565b346101ce5760203660031901126101ce576004355f526002602052602060405f2054604051908152f35b801515036101ce57565b346101ce5760403660031901126101ce57610ffb6101b8565b60243561100781610fd8565b6001600160a01b038216918215611064576110259061097e33611486565b9015159060ff1981541660ff83161790556040519081527f17307eab39ab6107e8899845ad3d59bd9653f200f220920489ca2b5937696c3160203392a3005b60405162ced3e160e81b81525f6004820152602490fd5b60405190611088826102f8565b5f8252565b346101ce575f3660031901126101ce5760405160408101908082106001600160401b03831117610313576106519160405260058152640352e302e360dc1b60208201526040519182916020835260208301906105d0565b346101ce5760203660031901126101ce5760043580151580611172575b15611142576111108133611805565b6001810180911161112e576108549061112761107b565b9033611927565b634e487b7160e01b5f52601160045260245ffd5b60405162461bcd60e51b815260206004820152600860248201526734b21032b93937b960c11b6044820152606490fd5b5060058110611101565b346101ce5760603660031901126101ce576111956101b8565b61119d6101d2565b604435916111a9611876565b6040516370a0823160e01b815230600482015260209390916001600160a01b03168483602481845afa93841561125f576111f2836112299688965f91611264575b501015611746565b60405163a9059cbb60e01b81526001600160a01b0390911660048201526024810192909252909283919082905f9082906044820190565b03925af1801561125f5761123957005b8161085492903d10611258575b6112508183610318565b81019061177f565b503d611246565b61173b565b61127b9150873d8911610bbc57610bad8183610318565b5f6111ea565b346101ce5760403660031901126101ce57602060ff6112b26112a16101b8565b61097e6112ac6101d2565b91611486565b54166040519015158152f35b346101ce575f3660031901126101ce576001546040516001600160a01b039091168152602090f35b346101ce5760a03660031901126101ce576112ff6101b8565b6113076101d2565b6084356001600160401b0381116101ce576113269036906004016107ad565b906001600160a01b038381169033821415806113ae575b611387578216156108565715610d90576108549261137f6064356044359160405192600184526020840152604083019160018352606084015260808301604052565b929091611c1f565b60405163711bec9160e11b81523360048201526001600160a01b0386166024820152604490fd5b5060ff6113be3361097e88611486565b54161561133d565b346101ce5760203660031901126101ce576108546113e26101b8565b6113ea611876565b611794565b346101ce5760603660031901126101ce576114086101b8565b6001600160a01b038116338114801561146a575b611425906115d1565b15610d90576108549061145c6044356024359160405192600184526020840152604083019160018352606084015260808301604052565b915f604051610d8a816102f8565b5061142560ff61147d3361097e86611486565b5416905061141c565b6001600160a01b03165f9081527f88be536d5240c274a3b1d3a1be54482fd9caa294f08c62a7cde569f49a3c45016020526040902090565b611501915f527f88be536d5240c274a3b1d3a1be54482fd9caa294f08c62a7cde569f49a3c450060205260405f209060018060a01b03165f5260205260405f2090565b5490565b80518210156115195760209160051b010190565b634e487b7160e01b5f52603260045260245ffd5b919091805183518082036115af57505080519061156261154c83610736565b9261155a6040519485610318565b808452610736565b60209190601f190136848401375f5b81518110156115a7578061159660019260051b85808287010151918a010151906114be565b6115a08287611505565b5201611571565b509193505050565b604051635b05999160e01b815260048101919091526024810191909152604490fd5b156115d857565b60405162461bcd60e51b815260206004820152602960248201527f455243313135353a2063616c6c6572206973206e6f74206f776e6572206e6f7260448201526808185c1c1c9bdd995960ba1b6064820152608490fd5b61163761050f565b90611640611e9a565b611648611e9a565b81516001600160401b038111610313575f805160206122ea83398151915290611675816103fd84546104a3565b602080601f83116001146116ba575081906116a69394955f926104375750508160011b915f199060031b1c19161790565b90555b6116b233611966565b61054c611e9a565b90601f198316956116c96104db565b925f905b888210611707575050836001959697106116ef575b505050811b0190556116a9565b01515f1960f88460031b161c191690555f80806116e2565b806001859682949686015181550195019301906116cd565b9190820180921161112e57565b908160209103126101ce575190565b6040513d5f823e3d90fd5b1561174d57565b60405162461bcd60e51b815260206004820152600a6024820152696e6f2062616c616e636560b01b6044820152606490fd5b908160209103126101ce575161061f81610fd8565b6001600160a01b039081169081156117ed575f8051602061228a83398151915280546001600160a01b031981168417909155167f8be0079c531659141344cd1fd0a4f28419497f9722a3daafe3b4186f6b6457e05f80a3565b604051631e4fbdf760e01b81525f6004820152602490fd5b6001600160a01b038116338114801561185a575b611822906115d1565b15610d905761054c9160405190600182526020820152604081019160018352600360608301525f6080830180604052610d8a816102f8565b5061182260ff61186d3361097e86611486565b54169050611819565b5f8051602061228a833981519152546001600160a01b0316330361189657565b60405163118cdaa760e01b8152336004820152602490fd5b601f81116118ba575050565b5f805160206122ea8339815191525f527ff429cb5e2ec84cbb765e76b31964a56ccde03e7a6122d6cc4afb19edc55edeed906020601f840160051c8301931061191d575b601f0160051c01905b818110611912575050565b5f8155600101611907565b90915081906118fe565b9091906001600160a01b038116156108565761054c92604051906001825260208201526040810191600183526001606083015260808201604052611ac9565b61054c90611972611e9a565b6113ea611e9a565b92919080518251908181036115af5750505f5b8151811015611a2a57600581901b82810160209081015191850101516001600160a01b0387166119c2575b505060010161198d565b6119cf8761097e84610f81565b548181106119f3578761097e60019594936119eb930393610f81565b55905f6119b8565b6040516303dee4c560e01b81526001600160a01b038916600482015260248101919091526044810182905260648101839052608490fd5b50905f92939160018151148414611a8a576020908101519181015160408051938452918301526001600160a01b039092169133917fc3d58168c5ae7397731d063d5bbf3d657854427343f4c083240f7aacaa2d0f6291819081015b0390a4565b6040516001600160a01b039093169233927f4a39dc06d4c0dbc64b70af90fd698a233a518aa5d07e595d983b8c0526c8f7fb928291611a859183611ec8565b9080518351908181036115af5750505f5b8151811015611b3657600581901b82810160209081015191860101516001929185906001600160a01b038216611b14575b50505001611ada565b611b2c9161097e611b2492610f81565b91825461171f565b90555f8481611b0b565b50805191939291600103611bd7576020818101518382015160408051928352928201526001600160a01b038616915f9133917fc3d58168c5ae7397731d063d5bbf3d657854427343f4c083240f7aacaa2d0f6291a45b6001600160a01b038416611ba1575b50505050565b8051600103611bc85790602080611bbf9593015191015191336121a2565b5f808080611b9b565b611bd29333611fad565b611bbf565b6040516001600160a01b038516905f9033907f4a39dc06d4c0dbc64b70af90fd698a233a518aa5d07e595d983b8c0526c8f7fb9080611c17888883611ec8565b0390a4611b8c565b9491909181518451908181036115af5750505f5b8251811015611d0057600581901b83810160209081015191870101516001600160a01b03929186908a8516611c90575b6001948216611c76575b50505001611c33565b611c869161097e611b2492610f81565b90555f8581611c6d565b9192939050611ca28a61097e84610f81565b54838110611cc95791879184600196959403611cc18d61097e85610f81565b559450611c63565b6040516303dee4c560e01b81526001600160a01b038c16600482015260248101919091526044810184905260648101839052608490fd5b5094919392909360018551145f14611daa576020858101518382015160408051928352928201526001600160a01b03838116929086169133917fc3d58168c5ae7397731d063d5bbf3d657854427343f4c083240f7aacaa2d0f6291a45b6001600160a01b038116611d73575b5050505050565b8451600103611d9957602080611d8f96015192015192336121d7565b5f80808080611d6c565b611da5949192336120a6565b611d8f565b6040516001600160a01b03828116919085169033907f4a39dc06d4c0dbc64b70af90fd698a233a518aa5d07e595d983b8c0526c8f7fb9080611ded888c83611ec8565b0390a4611d5d565b90813b15611e79575f805160206122aa83398151915280546001600160a01b0319166001600160a01b0384169081179091557fbc7cd75a20ee27fd9adebab32041f755214dbc6bffa90cc0225b39da2e5c2d3b5f80a2805115611e5e57611e5b9161220e565b50565b505034611e6757565b60405163b398979f60e01b8152600490fd5b604051634c9c8ce360e01b81526001600160a01b0383166004820152602490fd5b60ff5f805160206122ca8339815191525460401c1615611eb657565b604051631afcd79f60e31b8152600490fd5b9091611edf61061f9360408452604084019061099b565b91602081840391015261099b565b908160209103126101ce575161061f81610264565b92611f3061061f9593611f3e9360018060a01b031686525f602087015260a0604087015260a086019061099b565b90848203606086015261099b565b9160808184039101526105d0565b939061061f9593611f3091611f3e9460018060a01b03809216885216602087015260a0604087015260a086019061099b565b3d15611fa8573d90611f8f82610339565b91611f9d6040519384610318565b82523d5f602084013e565b606090565b9293919093843b611fbf575050505050565b602091611fe2604051948593849363bc197c8160e01b9889865260048601611f02565b03815f6001600160a01b0388165af15f9181612075575b506120385782612007611f7e565b805191908261203157604051632bfa23e760e11b81526001600160a01b0383166004820152602490fd5b9050602001fd5b6001600160e01b0319160361205257505f80808080611d6c565b604051632bfa23e760e11b81526001600160a01b03919091166004820152602490fd5b61209891925060203d60201161209f575b6120908183610318565b810190611eed565b905f611ff9565b503d612086565b939290949194853b6120bb575b505050505050565b6120de602093604051958694859463bc197c8160e01b998a875260048701611f4c565b03815f6001600160a01b0388165af15f918161211e575b506121035782612007611f7e565b6001600160e01b0319160361205257505f80808080806120b3565b61213891925060203d60201161209f576120908183610318565b905f6120f5565b909260a09261061f9594600180861b031683525f60208401526040830152606082015281608082015201906105d0565b919261061f95949160a094600180871b0380921685521660208401526040830152606082015281608082015201906105d0565b9293919093843b6121b4575050505050565b602091611fe2604051948593849363f23a6e6160e01b988986526004860161213f565b939290949194853b6121eb57505050505050565b6120de602093604051958694859463f23a6e6160e01b998a87526004870161216f565b5f8061061f93602081519101845af4612225611f7e565b919061224d575080511561223b57805190602001fd5b60405163d6bda27560e01b8152600490fd5b81511580612280575b61225e575090565b604051639996b31560e01b81526001600160a01b039091166004820152602490fd5b50803b1561225656fe9016d09d72d40fdae2fd8ceac6b6234c7706214fd39c1cd1e609a0528c199300360894a13ba1a3210667c828492db98dca3e2076cc3735a920a3ca505d382bbcf0c57e16840df040f15088dc2f81fe391c3923bec73e23a9662efc9c229c6a0088be536d5240c274a3b1d3a1be54482fd9caa294f08c62a7cde569f49a3c4502a2646970667358221220c1ed93321db37831981dbe878dd0d1381781e2eecaefce8c6d44950dfdf07c7664736f6c63430008180033290decd9548b62a8d60345a988386fc84ba6bc95484008f6362f93160ef3e563",
    "sourcePath": "/Users/janly/data/solidity/UUPSNew/contracts/nft .sol",
    "compiler": {
        "name": "solc",
        "version": "0.8.24+commit.e11b9ed9"
    },
    "functionHashes": {
        "UPGRADE_INTERFACE_VERSION()": "ad3cb1cc",
        "_USDT()": "ecd1d70e",
        "_nftPrice(uint256)": "98057d84",
        "_uri()": "0dccc9ad",
        "balanceOf(address,uint256)": "00fdd58e",
        "balanceOfBatch(address[],uint256[])": "4e1273f4",
        "burn(address,uint256,uint256)": "f5298aca",
        "burnBatch(address,uint256[],uint256[])": "6b20c454",
        "conflate(uint256)": "d3085347",
        "initialize()": "8129fc1c",
        "isApprovedForAll(address,address)": "e985e9c5",
        "mintAdmin(uint256,uint256,address)": "600c68d7",
        "mintBatch(address,uint256[],uint256[],bytes)": "1f7fdffa",
        "owner()": "8da5cb5b",
        "proxiableUUID()": "52d1902d",
        "renounceOwnership()": "715018a6",
        "safeBatchTransferFrom(address,address,uint256[],uint256[],bytes)": "2eb2c2d6",
        "safeTransferFrom(address,address,uint256,uint256,bytes)": "f242432a",
        "setApprovalForAll(address,bool)": "a22cb465",
        "setURI(string)": "02fe5305",
        "setUSDT(address)": "50c1b923",
        "supportsInterface(bytes4)": "01ffc9a7",
        "transferOwnership(address)": "f2fde38b",
        "upgradeToAndCall(address,bytes)": "4f1ef286",
        "uri(uint256)": "0e89341c",
        "withdraw(address,address,uint256)": "d9caed12"
    },
    "gasEstimates": {
        "creation": {
            "codeDepositCost": "1804600",
            "executionCost": "infinite",
            "totalCost": "infinite"
        },
        "external": {
            "UPGRADE_INTERFACE_VERSION()": "infinite",
            "_USDT()": "2768",
            "_nftPrice(uint256)": "2677",
            "_uri()": "infinite",
            "balanceOf(address,uint256)": "2492",
            "balanceOfBatch(address[],uint256[])": "infinite",
            "burn(address,uint256,uint256)": "infinite",
            "burnBatch(address,uint256[],uint256[])": "infinite",
            "conflate(uint256)": "infinite",
            "initialize()": "infinite",
            "isApprovedForAll(address,address)": "3088",
            "mintAdmin(uint256,uint256,address)": "infinite",
            "mintBatch(address,uint256[],uint256[],bytes)": "infinite",
            "owner()": "infinite",
            "proxiableUUID()": "infinite",
            "renounceOwnership()": "infinite",
            "safeBatchTransferFrom(address,address,uint256[],uint256[],bytes)": "infinite",
            "safeTransferFrom(address,address,uint256,uint256,bytes)": "infinite",
            "setApprovalForAll(address,bool)": "26921",
            "setURI(string)": "infinite",
            "setUSDT(address)": "infinite",
            "supportsInterface(bytes4)": "394",
            "transferOwnership(address)": "infinite",
            "upgradeToAndCall(address,bytes)": "infinite",
            "uri(uint256)": "infinite",
            "withdraw(address,address,uint256)": "infinite"
        },
        "internal": {
            "_authorizeUpgrade(address)": "infinite"
        }
    }
}