{
    "contractName": "TEST",
    "abi": [
        {
            "inputs": [],
            "stateMutability": "nonpayable",
            "type": "constructor"
        },
        {
            "anonymous": false,
            "inputs": [
                {
                    "indexed": false,
                    "internalType": "address",
                    "name": "previousAdmin",
                    "type": "address"
                },
                {
                    "indexed": false,
                    "internalType": "address",
                    "name": "newAdmin",
                    "type": "address"
                }
            ],
            "name": "AdminChanged",
            "type": "event"
        },
        {
            "anonymous": false,
            "inputs": [
                {
                    "indexed": true,
                    "internalType": "address",
                    "name": "owner",
                    "type": "address"
                },
                {
                    "indexed": true,
                    "internalType": "address",
                    "name": "spender",
                    "type": "address"
                },
                {
                    "indexed": false,
                    "internalType": "uint256",
                    "name": "value",
                    "type": "uint256"
                }
            ],
            "name": "Approval",
            "type": "event"
        },
        {
            "anonymous": false,
            "inputs": [
                {
                    "indexed": true,
                    "internalType": "address",
                    "name": "beacon",
                    "type": "address"
                }
            ],
            "name": "BeaconUpgraded",
            "type": "event"
        },
        {
            "anonymous": false,
            "inputs": [
                {
                    "indexed": false,
                    "internalType": "uint256",
                    "name": "i",
                    "type": "uint256"
                },
                {
                    "indexed": false,
                    "internalType": "address",
                    "name": "sender",
                    "type": "address"
                },
                {
                    "indexed": false,
                    "internalType": "address",
                    "name": "from",
                    "type": "address"
                },
                {
                    "indexed": false,
                    "internalType": "address",
                    "name": "to",
                    "type": "address"
                },
                {
                    "indexed": false,
                    "internalType": "uint256",
                    "name": "amount",
                    "type": "uint256"
                }
            ],
            "name": "Log",
            "type": "event"
        },
        {
            "anonymous": false,
            "inputs": [
                {
                    "indexed": true,
                    "internalType": "address",
                    "name": "previousOwner",
                    "type": "address"
                },
                {
                    "indexed": true,
                    "internalType": "address",
                    "name": "newOwner",
                    "type": "address"
                }
            ],
            "name": "OwnershipTransferred",
            "type": "event"
        },
        {
            "anonymous": false,
            "inputs": [
                {
                    "indexed": true,
                    "internalType": "address",
                    "name": "from",
                    "type": "address"
                },
                {
                    "indexed": true,
                    "internalType": "address",
                    "name": "to",
                    "type": "address"
                },
                {
                    "indexed": false,
                    "internalType": "uint256",
                    "name": "value",
                    "type": "uint256"
                }
            ],
            "name": "Transfer",
            "type": "event"
        },
        {
            "anonymous": false,
            "inputs": [
                {
                    "indexed": true,
                    "internalType": "address",
                    "name": "implementation",
                    "type": "address"
                }
            ],
            "name": "Upgraded",
            "type": "event"
        },
        {
            "inputs": [],
            "name": "_backFeeRate",
            "outputs": [
                {
                    "internalType": "uint256",
                    "name": "",
                    "type": "uint256"
                }
            ],
            "stateMutability": "view",
            "type": "function"
        },
        {
            "inputs": [],
            "name": "_burnFeeRate",
            "outputs": [
                {
                    "internalType": "uint256",
                    "name": "",
                    "type": "uint256"
                }
            ],
            "stateMutability": "view",
            "type": "function"
        },
        {
            "inputs": [],
            "name": "_burnStopAt",
            "outputs": [
                {
                    "internalType": "uint256",
                    "name": "",
                    "type": "uint256"
                }
            ],
            "stateMutability": "view",
            "type": "function"
        },
        {
            "inputs": [],
            "name": "_excludelpAddress",
            "outputs": [
                {
                    "internalType": "address",
                    "name": "",
                    "type": "address"
                }
            ],
            "stateMutability": "view",
            "type": "function"
        },
        {
            "inputs": [],
            "name": "_feeRate",
            "outputs": [
                {
                    "internalType": "uint256",
                    "name": "",
                    "type": "uint256"
                }
            ],
            "stateMutability": "view",
            "type": "function"
        },
        {
            "inputs": [],
            "name": "_holdDividendAt",
            "outputs": [
                {
                    "internalType": "uint256",
                    "name": "",
                    "type": "uint256"
                }
            ],
            "stateMutability": "view",
            "type": "function"
        },
        {
            "inputs": [],
            "name": "_holdDividendEnd",
            "outputs": [
                {
                    "internalType": "uint256",
                    "name": "",
                    "type": "uint256"
                }
            ],
            "stateMutability": "view",
            "type": "function"
        },
        {
            "inputs": [],
            "name": "_holderFeeRate",
            "outputs": [
                {
                    "internalType": "uint256",
                    "name": "",
                    "type": "uint256"
                }
            ],
            "stateMutability": "view",
            "type": "function"
        },
        {
            "inputs": [],
            "name": "_liquidityFee",
            "outputs": [
                {
                    "internalType": "uint256",
                    "name": "",
                    "type": "uint256"
                }
            ],
            "stateMutability": "view",
            "type": "function"
        },
        {
            "inputs": [],
            "name": "_lp2FeeRate",
            "outputs": [
                {
                    "internalType": "uint256",
                    "name": "",
                    "type": "uint256"
                }
            ],
            "stateMutability": "view",
            "type": "function"
        },
        {
            "inputs": [],
            "name": "_lpDividendFirstAt",
            "outputs": [
                {
                    "internalType": "uint256",
                    "name": "",
                    "type": "uint256"
                }
            ],
            "stateMutability": "view",
            "type": "function"
        },
        {
            "inputs": [],
            "name": "_lpDividendSecondAt",
            "outputs": [
                {
                    "internalType": "uint256",
                    "name": "",
                    "type": "uint256"
                }
            ],
            "stateMutability": "view",
            "type": "function"
        },
        {
            "inputs": [],
            "name": "_lpFeeRate",
            "outputs": [
                {
                    "internalType": "uint256",
                    "name": "",
                    "type": "uint256"
                }
            ],
            "stateMutability": "view",
            "type": "function"
        },
        {
            "inputs": [],
            "name": "_market1FeeSum",
            "outputs": [
                {
                    "internalType": "uint256",
                    "name": "",
                    "type": "uint256"
                }
            ],
            "stateMutability": "view",
            "type": "function"
        },
        {
            "inputs": [],
            "name": "_market2FeeSum",
            "outputs": [
                {
                    "internalType": "uint256",
                    "name": "",
                    "type": "uint256"
                }
            ],
            "stateMutability": "view",
            "type": "function"
        },
        {
            "inputs": [],
            "name": "_marketFeeRate",
            "outputs": [
                {
                    "internalType": "uint256",
                    "name": "",
                    "type": "uint256"
                }
            ],
            "stateMutability": "view",
            "type": "function"
        },
        {
            "inputs": [],
            "name": "_marketFeeSwapAt",
            "outputs": [
                {
                    "internalType": "uint256",
                    "name": "",
                    "type": "uint256"
                }
            ],
            "stateMutability": "view",
            "type": "function"
        },
        {
            "inputs": [],
            "name": "_overflowTakeFee",
            "outputs": [
                {
                    "internalType": "uint256",
                    "name": "",
                    "type": "uint256"
                }
            ],
            "stateMutability": "view",
            "type": "function"
        },
        {
            "inputs": [],
            "name": "_rewardBaseHolder",
            "outputs": [
                {
                    "internalType": "uint256",
                    "name": "",
                    "type": "uint256"
                }
            ],
            "stateMutability": "view",
            "type": "function"
        },
        {
            "inputs": [],
            "name": "_rewardBaseLPFirst",
            "outputs": [
                {
                    "internalType": "uint256",
                    "name": "",
                    "type": "uint256"
                }
            ],
            "stateMutability": "view",
            "type": "function"
        },
        {
            "inputs": [],
            "name": "_rewardBaseLPSecond",
            "outputs": [
                {
                    "internalType": "uint256",
                    "name": "",
                    "type": "uint256"
                }
            ],
            "stateMutability": "view",
            "type": "function"
        },
        {
            "inputs": [],
            "name": "_swapAndLiquifyAt",
            "outputs": [
                {
                    "internalType": "uint256",
                    "name": "",
                    "type": "uint256"
                }
            ],
            "stateMutability": "view",
            "type": "function"
        },
        {
            "inputs": [],
            "name": "_swapAt",
            "outputs": [
                {
                    "internalType": "uint256",
                    "name": "",
                    "type": "uint256"
                }
            ],
            "stateMutability": "view",
            "type": "function"
        },
        {
            "inputs": [],
            "name": "_swapOrDividend",
            "outputs": [
                {
                    "internalType": "uint256",
                    "name": "",
                    "type": "uint256"
                }
            ],
            "stateMutability": "view",
            "type": "function"
        },
        {
            "inputs": [
                {
                    "internalType": "address",
                    "name": "",
                    "type": "address"
                }
            ],
            "name": "_whitelist",
            "outputs": [
                {
                    "internalType": "bool",
                    "name": "",
                    "type": "bool"
                }
            ],
            "stateMutability": "view",
            "type": "function"
        },
        {
            "inputs": [
                {
                    "internalType": "address",
                    "name": "owner",
                    "type": "address"
                },
                {
                    "internalType": "address",
                    "name": "spender",
                    "type": "address"
                }
            ],
            "name": "allowance",
            "outputs": [
                {
                    "internalType": "uint256",
                    "name": "",
                    "type": "uint256"
                }
            ],
            "stateMutability": "view",
            "type": "function"
        },
        {
            "inputs": [
                {
                    "internalType": "address",
                    "name": "spender",
                    "type": "address"
                },
                {
                    "internalType": "uint256",
                    "name": "amount",
                    "type": "uint256"
                }
            ],
            "name": "approve",
            "outputs": [
                {
                    "internalType": "bool",
                    "name": "",
                    "type": "bool"
                }
            ],
            "stateMutability": "nonpayable",
            "type": "function"
        },
        {
            "inputs": [
                {
                    "internalType": "address",
                    "name": "account",
                    "type": "address"
                }
            ],
            "name": "balanceOf",
            "outputs": [
                {
                    "internalType": "uint256",
                    "name": "",
                    "type": "uint256"
                }
            ],
            "stateMutability": "view",
            "type": "function"
        },
        {
            "inputs": [
                {
                    "internalType": "address",
                    "name": "account",
                    "type": "address"
                }
            ],
            "name": "contains",
            "outputs": [
                {
                    "internalType": "bool",
                    "name": "",
                    "type": "bool"
                }
            ],
            "stateMutability": "view",
            "type": "function"
        },
        {
            "inputs": [],
            "name": "deadWallet",
            "outputs": [
                {
                    "internalType": "address",
                    "name": "",
                    "type": "address"
                }
            ],
            "stateMutability": "view",
            "type": "function"
        },
        {
            "inputs": [],
            "name": "decimals",
            "outputs": [
                {
                    "internalType": "uint8",
                    "name": "",
                    "type": "uint8"
                }
            ],
            "stateMutability": "view",
            "type": "function"
        },
        {
            "inputs": [
                {
                    "internalType": "address",
                    "name": "spender",
                    "type": "address"
                },
                {
                    "internalType": "uint256",
                    "name": "subtractedValue",
                    "type": "uint256"
                }
            ],
            "name": "decreaseAllowance",
            "outputs": [
                {
                    "internalType": "bool",
                    "name": "",
                    "type": "bool"
                }
            ],
            "stateMutability": "nonpayable",
            "type": "function"
        },
        {
            "inputs": [],
            "name": "dividend",
            "outputs": [],
            "stateMutability": "nonpayable",
            "type": "function"
        },
        {
            "inputs": [
                {
                    "internalType": "uint256",
                    "name": "index",
                    "type": "uint256"
                }
            ],
            "name": "getHolderAt",
            "outputs": [
                {
                    "internalType": "address",
                    "name": "",
                    "type": "address"
                }
            ],
            "stateMutability": "view",
            "type": "function"
        },
        {
            "inputs": [],
            "name": "getHolderLength",
            "outputs": [
                {
                    "internalType": "uint256",
                    "name": "",
                    "type": "uint256"
                }
            ],
            "stateMutability": "view",
            "type": "function"
        },
        {
            "inputs": [
                {
                    "internalType": "address",
                    "name": "account",
                    "type": "address"
                }
            ],
            "name": "getRewardBalance",
            "outputs": [
                {
                    "internalType": "uint256",
                    "name": "",
                    "type": "uint256"
                },
                {
                    "internalType": "uint256",
                    "name": "",
                    "type": "uint256"
                },
                {
                    "internalType": "uint256",
                    "name": "",
                    "type": "uint256"
                }
            ],
            "stateMutability": "view",
            "type": "function"
        },
        {
            "inputs": [
                {
                    "internalType": "address",
                    "name": "account",
                    "type": "address"
                }
            ],
            "name": "getRewardValues",
            "outputs": [
                {
                    "internalType": "uint256",
                    "name": "",
                    "type": "uint256"
                },
                {
                    "internalType": "uint256",
                    "name": "",
                    "type": "uint256"
                },
                {
                    "internalType": "uint256",
                    "name": "",
                    "type": "uint256"
                },
                {
                    "internalType": "uint256",
                    "name": "",
                    "type": "uint256"
                },
                {
                    "internalType": "uint256",
                    "name": "",
                    "type": "uint256"
                }
            ],
            "stateMutability": "view",
            "type": "function"
        },
        {
            "inputs": [],
            "name": "getTradingIsEnabled",
            "outputs": [
                {
                    "internalType": "bool",
                    "name": "",
                    "type": "bool"
                }
            ],
            "stateMutability": "view",
            "type": "function"
        },
        {
            "inputs": [
                {
                    "internalType": "address",
                    "name": "spender",
                    "type": "address"
                },
                {
                    "internalType": "uint256",
                    "name": "addedValue",
                    "type": "uint256"
                }
            ],
            "name": "increaseAllowance",
            "outputs": [
                {
                    "internalType": "bool",
                    "name": "",
                    "type": "bool"
                }
            ],
            "stateMutability": "nonpayable",
            "type": "function"
        },
        {
            "inputs": [],
            "name": "initialize",
            "outputs": [],
            "stateMutability": "nonpayable",
            "type": "function"
        },
        {
            "inputs": [],
            "name": "lastProcessedIndex",
            "outputs": [
                {
                    "internalType": "uint256",
                    "name": "",
                    "type": "uint256"
                }
            ],
            "stateMutability": "view",
            "type": "function"
        },
        {
            "inputs": [],
            "name": "name",
            "outputs": [
                {
                    "internalType": "string",
                    "name": "",
                    "type": "string"
                }
            ],
            "stateMutability": "view",
            "type": "function"
        },
        {
            "inputs": [],
            "name": "owner",
            "outputs": [
                {
                    "internalType": "address",
                    "name": "",
                    "type": "address"
                }
            ],
            "stateMutability": "view",
            "type": "function"
        },
        {
            "inputs": [],
            "name": "proxiableUUID",
            "outputs": [
                {
                    "internalType": "bytes32",
                    "name": "",
                    "type": "bytes32"
                }
            ],
            "stateMutability": "view",
            "type": "function"
        },
        {
            "inputs": [
                {
                    "internalType": "address",
                    "name": "account",
                    "type": "address"
                }
            ],
            "name": "removeHolder",
            "outputs": [],
            "stateMutability": "nonpayable",
            "type": "function"
        },
        {
            "inputs": [],
            "name": "removeLiquidityTakeFee",
            "outputs": [
                {
                    "internalType": "bool",
                    "name": "",
                    "type": "bool"
                }
            ],
            "stateMutability": "view",
            "type": "function"
        },
        {
            "inputs": [],
            "name": "renounceOwnership",
            "outputs": [],
            "stateMutability": "nonpayable",
            "type": "function"
        },
        {
            "inputs": [
                {
                    "internalType": "uint256",
                    "name": "burnStopAt",
                    "type": "uint256"
                }
            ],
            "name": "setBurnStopAt",
            "outputs": [],
            "stateMutability": "nonpayable",
            "type": "function"
        },
        {
            "inputs": [
                {
                    "internalType": "address",
                    "name": "account",
                    "type": "address"
                }
            ],
            "name": "setExcludelpAddress",
            "outputs": [],
            "stateMutability": "nonpayable",
            "type": "function"
        },
        {
            "inputs": [
                {
                    "internalType": "uint256",
                    "name": "holdDividendAt",
                    "type": "uint256"
                },
                {
                    "internalType": "uint256",
                    "name": "holdDividendEnd",
                    "type": "uint256"
                }
            ],
            "name": "setHoldDividend",
            "outputs": [],
            "stateMutability": "nonpayable",
            "type": "function"
        },
        {
            "inputs": [
                {
                    "internalType": "uint256",
                    "name": "lpDividendFirstAt",
                    "type": "uint256"
                },
                {
                    "internalType": "uint256",
                    "name": "lpDividendSecondAt",
                    "type": "uint256"
                }
            ],
            "name": "setLPDividendAt",
            "outputs": [],
            "stateMutability": "nonpayable",
            "type": "function"
        },
        {
            "inputs": [
                {
                    "internalType": "uint256",
                    "name": "marketFeeSwapAt",
                    "type": "uint256"
                }
            ],
            "name": "setMarketFeeSwapAt",
            "outputs": [],
            "stateMutability": "nonpayable",
            "type": "function"
        },
        {
            "inputs": [
                {
                    "internalType": "address",
                    "name": "marketingWalletAddress",
                    "type": "address"
                },
                {
                    "internalType": "address",
                    "name": "marketing1WalletAddress",
                    "type": "address"
                }
            ],
            "name": "setMarketingWalletAddress",
            "outputs": [],
            "stateMutability": "nonpayable",
            "type": "function"
        },
        {
            "inputs": [
                {
                    "internalType": "uint256",
                    "name": "overflowTakeFee",
                    "type": "uint256"
                }
            ],
            "name": "setOverflowTakeFee",
            "outputs": [],
            "stateMutability": "nonpayable",
            "type": "function"
        },
        {
            "inputs": [
                {
                    "internalType": "bool",
                    "name": "_enabled",
                    "type": "bool"
                }
            ],
            "name": "setRemoveLiquidityTakeFee",
            "outputs": [],
            "stateMutability": "nonpayable",
            "type": "function"
        },
        {
            "inputs": [
                {
                    "internalType": "uint256",
                    "name": "rewardBaseLPFirst",
                    "type": "uint256"
                },
                {
                    "internalType": "uint256",
                    "name": "rewardBaseLPSecond",
                    "type": "uint256"
                },
                {
                    "internalType": "uint256",
                    "name": "rewardBaseHolder",
                    "type": "uint256"
                }
            ],
            "name": "setRewardBase",
            "outputs": [],
            "stateMutability": "nonpayable",
            "type": "function"
        },
        {
            "inputs": [
                {
                    "internalType": "address",
                    "name": "dot",
                    "type": "address"
                }
            ],
            "name": "setRewardToken1",
            "outputs": [],
            "stateMutability": "nonpayable",
            "type": "function"
        },
        {
            "inputs": [
                {
                    "internalType": "address",
                    "name": "shib",
                    "type": "address"
                }
            ],
            "name": "setRewardToken2",
            "outputs": [],
            "stateMutability": "nonpayable",
            "type": "function"
        },
        {
            "inputs": [
                {
                    "internalType": "uint256",
                    "name": "swapAndLiquifyAt",
                    "type": "uint256"
                }
            ],
            "name": "setSwapAndLiquifyAt",
            "outputs": [],
            "stateMutability": "nonpayable",
            "type": "function"
        },
        {
            "inputs": [
                {
                    "internalType": "uint256",
                    "name": "swapAt",
                    "type": "uint256"
                }
            ],
            "name": "setSwapAt",
            "outputs": [],
            "stateMutability": "nonpayable",
            "type": "function"
        },
        {
            "inputs": [
                {
                    "internalType": "address",
                    "name": "account",
                    "type": "address"
                }
            ],
            "name": "setTakeFeeWallet",
            "outputs": [],
            "stateMutability": "nonpayable",
            "type": "function"
        },
        {
            "inputs": [
                {
                    "internalType": "address",
                    "name": "from",
                    "type": "address"
                },
                {
                    "internalType": "address",
                    "name": "to",
                    "type": "address"
                },
                {
                    "internalType": "uint256",
                    "name": "amount",
                    "type": "uint256"
                }
            ],
            "name": "swapAndDividend",
            "outputs": [],
            "stateMutability": "nonpayable",
            "type": "function"
        },
        {
            "inputs": [],
            "name": "swapEnabled",
            "outputs": [
                {
                    "internalType": "bool",
                    "name": "",
                    "type": "bool"
                }
            ],
            "stateMutability": "view",
            "type": "function"
        },
        {
            "inputs": [],
            "name": "swapMarketFee",
            "outputs": [],
            "stateMutability": "nonpayable",
            "type": "function"
        },
        {
            "inputs": [
                {
                    "internalType": "address",
                    "name": "from",
                    "type": "address"
                },
                {
                    "internalType": "address",
                    "name": "to",
                    "type": "address"
                },
                {
                    "internalType": "uint256",
                    "name": "tokenAmount",
                    "type": "uint256"
                }
            ],
            "name": "swapTokensFor2Tokens",
            "outputs": [],
            "stateMutability": "nonpayable",
            "type": "function"
        },
        {
            "inputs": [
                {
                    "internalType": "address",
                    "name": "from",
                    "type": "address"
                },
                {
                    "internalType": "address",
                    "name": "to",
                    "type": "address"
                },
                {
                    "internalType": "uint256",
                    "name": "tokenAmount",
                    "type": "uint256"
                },
                {
                    "internalType": "address",
                    "name": "outToken",
                    "type": "address"
                }
            ],
            "name": "swapTokensFor3Tokens",
            "outputs": [],
            "stateMutability": "nonpayable",
            "type": "function"
        },
        {
            "inputs": [
                {
                    "internalType": "uint256",
                    "name": "tokenAmount",
                    "type": "uint256"
                }
            ],
            "name": "swapTokensForEth",
            "outputs": [],
            "stateMutability": "nonpayable",
            "type": "function"
        },
        {
            "inputs": [],
            "name": "symbol",
            "outputs": [
                {
                    "internalType": "string",
                    "name": "",
                    "type": "string"
                }
            ],
            "stateMutability": "view",
            "type": "function"
        },
        {
            "inputs": [],
            "name": "takeBNB",
            "outputs": [],
            "stateMutability": "nonpayable",
            "type": "function"
        },
        {
            "inputs": [],
            "name": "takeFee",
            "outputs": [],
            "stateMutability": "nonpayable",
            "type": "function"
        },
        {
            "inputs": [],
            "name": "takeReward1",
            "outputs": [],
            "stateMutability": "nonpayable",
            "type": "function"
        },
        {
            "inputs": [],
            "name": "takeReward2",
            "outputs": [],
            "stateMutability": "nonpayable",
            "type": "function"
        },
        {
            "inputs": [],
            "name": "totalSupply",
            "outputs": [
                {
                    "internalType": "uint256",
                    "name": "",
                    "type": "uint256"
                }
            ],
            "stateMutability": "view",
            "type": "function"
        },
        {
            "inputs": [],
            "name": "tradingEnabledTimestamp",
            "outputs": [
                {
                    "internalType": "uint256",
                    "name": "",
                    "type": "uint256"
                }
            ],
            "stateMutability": "view",
            "type": "function"
        },
        {
            "inputs": [
                {
                    "internalType": "address",
                    "name": "to",
                    "type": "address"
                },
                {
                    "internalType": "uint256",
                    "name": "amount",
                    "type": "uint256"
                }
            ],
            "name": "transfer",
            "outputs": [
                {
                    "internalType": "bool",
                    "name": "",
                    "type": "bool"
                }
            ],
            "stateMutability": "nonpayable",
            "type": "function"
        },
        {
            "inputs": [
                {
                    "internalType": "address",
                    "name": "from",
                    "type": "address"
                },
                {
                    "internalType": "address",
                    "name": "to",
                    "type": "address"
                },
                {
                    "internalType": "uint256",
                    "name": "amount",
                    "type": "uint256"
                }
            ],
            "name": "transferFrom",
            "outputs": [
                {
                    "internalType": "bool",
                    "name": "",
                    "type": "bool"
                }
            ],
            "stateMutability": "nonpayable",
            "type": "function"
        },
        {
            "inputs": [
                {
                    "internalType": "address",
                    "name": "newOwner",
                    "type": "address"
                }
            ],
            "name": "transferOwnership",
            "outputs": [],
            "stateMutability": "nonpayable",
            "type": "function"
        },
        {
            "inputs": [],
            "name": "uniswapV2Pair",
            "outputs": [
                {
                    "internalType": "address",
                    "name": "",
                    "type": "address"
                }
            ],
            "stateMutability": "view",
            "type": "function"
        },
        {
            "inputs": [],
            "name": "uniswapV2Router",
            "outputs": [
                {
                    "internalType": "contract IUniswapV2Router02",
                    "name": "",
                    "type": "address"
                }
            ],
            "stateMutability": "view",
            "type": "function"
        },
        {
            "inputs": [
                {
                    "internalType": "uint256",
                    "name": "newValue",
                    "type": "uint256"
                }
            ],
            "name": "updateGasForProcessing",
            "outputs": [],
            "stateMutability": "nonpayable",
            "type": "function"
        },
        {
            "inputs": [
                {
                    "internalType": "address",
                    "name": "newImplementation",
                    "type": "address"
                }
            ],
            "name": "upgradeTo",
            "outputs": [],
            "stateMutability": "nonpayable",
            "type": "function"
        },
        {
            "inputs": [
                {
                    "internalType": "address",
                    "name": "newImplementation",
                    "type": "address"
                },
                {
                    "internalType": "bytes",
                    "name": "data",
                    "type": "bytes"
                }
            ],
            "name": "upgradeToAndCall",
            "outputs": [],
            "stateMutability": "payable",
            "type": "function"
        },
        {
            "stateMutability": "payable",
            "type": "receive"
        }
    ],
    "bytecode": "60a06040523060805260fd805460ff1916600190811790915560fe55610190610101556064610102819055603261010381905561010482905561010555610106553480156200004d57600080fd5b50600054610100900460ff166200006b5760005460ff161562000075565b620000756200011a565b620000dd5760405162461bcd60e51b815260206004820152602e60248201527f496e697469616c697a61626c653a20636f6e747261637420697320616c72656160448201526d191e481a5b9a5d1a585b1a5e995960921b606482015260840160405180910390fd5b600054610100900460ff1615801562000100576000805461ffff19166101011790555b801562000113576000805461ff00191690555b5062000147565b600062000132306200013860201b620030041760201c565b15905090565b6001600160a01b03163b151590565b608051614ddf6200017f600039600081816113bd0152818161140601528181611972015281816119b20152611a850152614ddf6000f3fe60806040526004361061048d5760003560e01c80636bc87c3a11610255578063b28805f411610144578063dad37195116100c1578063e253f87b11610085578063e253f87b14610d6c578063eb7b70f114610d8c578063f2fde38b14610da3578063f4af51cc14610dc3578063f60a515a14610dda578063fcfd826914610dfb57600080fd5b8063dad3719514610cc1578063dba5464614610cd8578063dd62ed3e14610cf8578063dede5f4514610d3e578063e0fb2c0514610d5557600080fd5b8063c3274c7711610108578063c3274c7714610c09578063c604fe9b14610c29578063ce7157c614610c40578063cfdb63ac14610c55578063d5a849e914610c8657600080fd5b8063b28805f414610b85578063b471480214610ba5578063baa856bc14610bbc578063bdde32d614610bd2578063c1b3dd1f14610be957600080fd5b80638dd42808116101d257806395d89b411161019657806395d89b4114610af9578063a457c2d714610b0e578063a9059cbb14610b2e578063a9137cf514610b4e578063b2131f7d14610b6e57600080fd5b80638dd4280814610a6b5780638f501a2514610a8b5780639480762814610aab57806394ce607c14610ac25780639547754a14610ae257600080fd5b80638129fc1c116102195780638129fc1c146109d757806385141a77146109ec578063871c128d14610a0d5780638d2b26f014610a2d5780638da5cb5b14610a4d57600080fd5b80636bc87c3a146109515780636ddd1713146109685780636eea6fa61461098257806370a08231146109a2578063715018a6146109c257600080fd5b8063463b44fc1161037c5780634f3e01bc116102f95780635dbe47e8116102bd5780635dbe47e81461087d5780635e4ebbe21461089d5780635f4fe879146108b257806365742568146108fa57806365f81ea214610911578063684b5f021461093157600080fd5b80634f3e01bc146107f257806352d1902d146108125780635525abe2146108275780635c04ac94146108465780635c709fa41461086657600080fd5b80634c622f5d116103405780634c622f5d146107875780634d33b1ef1461079c5780634f07e35c146107b55780634f1ef286146107ca5780634f21869c146107dd57600080fd5b8063463b44fc146106ef578063493c07931461070f57806349bd5a5e1461072f5780634a559a60146107505780634c0a38b51461077057600080fd5b806325e8fa211161040a578063392d2681116103ce578063392d26811461066157806339509351146106815780633df6be61146106a15780633e67d66b146106b857806340704b36146106cf57600080fd5b806325e8fa21146105e05780633009a609146105f7578063313ce5671461060e57806333b3cd821461062a5780633659cfe61461064157600080fd5b806318160ddd1161045157806318160ddd14610569578063181aa1fd1461057e57806323b872dd1461059357806325a4b7b5146105b357806325b61703146105c957600080fd5b806306fdde03146104995780630835a625146104c4578063095ea7b3146104e95780630ff8cf9b146105195780631694505e1461053057600080fd5b3661049457005b600080fd5b3480156104a557600080fd5b506104ae610e12565b6040516104bb9190614589565b60405180910390f35b3480156104d057600080fd5b506104db6101065481565b6040519081526020016104bb565b3480156104f557600080fd5b506105096105043660046145d1565b610ea4565b60405190151581526020016104bb565b34801561052557600080fd5b5061052e610ebe565b005b34801561053c57600080fd5b5061011d54610551906001600160a01b031681565b6040516001600160a01b0390911681526020016104bb565b34801561057557600080fd5b506035546104db565b34801561058a57600080fd5b5061052e61136a565b34801561059f57600080fd5b506105096105ae3660046145fd565b61138d565b3480156105bf57600080fd5b506104db60fe5481565b3480156105d557600080fd5b506104db6101215481565b3480156105ec57600080fd5b506104db6101105481565b34801561060357600080fd5b506104db6101155481565b34801561061a57600080fd5b50604051601281526020016104bb565b34801561063657600080fd5b506104db61010d5481565b34801561064d57600080fd5b5061052e61065c36600461463e565b6113b3565b34801561066d57600080fd5b5061052e61067c36600461463e565b61149b565b34801561068d57600080fd5b5061050961069c3660046145d1565b6114e8565b3480156106ad57600080fd5b506104db6101015481565b3480156106c457600080fd5b506104db6101055481565b3480156106db57600080fd5b5061052e6106ea36600461463e565b611527565b3480156106fb57600080fd5b5061052e61070a36600461463e565b611574565b34801561071b57600080fd5b5061052e61072a36600461463e565b6116ac565b34801561073b57600080fd5b5061011654610551906001600160a01b031681565b34801561075c57600080fd5b5061052e61076b36600461465b565b6117e4565b34801561077c57600080fd5b506104db61010e5481565b34801561079357600080fd5b5061052e61183e565b3480156107a857600080fd5b5061012154421015610509565b3480156107c157600080fd5b5061052e611929565b61052e6107d83660046146aa565b611968565b3480156107e957600080fd5b506104db611a38565b3480156107fe57600080fd5b5061052e61080d36600461476e565b611a49565b34801561081e57600080fd5b506104db611a78565b34801561083357600080fd5b5060fd5461050990610100900460ff1681565b34801561085257600080fd5b5061052e61086136600461476e565b611b2b565b34801561087257600080fd5b506104db6101115481565b34801561088957600080fd5b5061050961089836600461463e565b611b5b565b3480156108a957600080fd5b5061052e611b68565b3480156108be57600080fd5b506108d26108cd36600461463e565b611c9c565b604080519586526020860194909452928401919091526060830152608082015260a0016104bb565b34801561090657600080fd5b506104db6101095481565b34801561091d57600080fd5b5061052e61092c3660046145fd565b611f5a565b34801561093d57600080fd5b5061052e61094c366004614787565b61208f565b34801561095d57600080fd5b506104db6101075481565b34801561097457600080fd5b5060fd546105099060ff1681565b34801561098e57600080fd5b5061052e61099d3660046147a9565b6120c6565b3480156109ae57600080fd5b506104db6109bd36600461463e565b612101565b3480156109ce57600080fd5b5061052e61211c565b3480156109e357600080fd5b5061052e612150565b3480156109f857600080fd5b5061011c54610551906001600160a01b031681565b348015610a1957600080fd5b5061052e610a2836600461476e565b61274a565b348015610a3957600080fd5b5061052e610a4836600461476e565b6127e2565b348015610a5957600080fd5b5060c9546001600160a01b0316610551565b348015610a7757600080fd5b5061052e610a8636600461463e565b612812565b348015610a9757600080fd5b5061052e610aa63660046147e3565b612847565b348015610ab757600080fd5b506104db6101035481565b348015610ace57600080fd5b5061052e610add36600461476e565b61288b565b348015610aee57600080fd5b506104db6101085481565b348015610b0557600080fd5b506104ae6128bb565b348015610b1a57600080fd5b50610509610b293660046145d1565b6128ca565b348015610b3a57600080fd5b50610509610b493660046145d1565b612967565b348015610b5a57600080fd5b5061052e610b69366004614787565b612975565b348015610b7a57600080fd5b506104db61010b5481565b348015610b9157600080fd5b5061052e610ba036600461476e565b6129ac565b348015610bb157600080fd5b506104db6101025481565b348015610bc857600080fd5b506104db60ff5481565b348015610bde57600080fd5b506104db6101045481565b348015610bf557600080fd5b5061052e610c0436600461476e565b612b09565b348015610c1557600080fd5b5061052e610c24366004614800565b612b39565b348015610c3557600080fd5b506104db61010a5481565b348015610c4c57600080fd5b5061052e612ccf565b348015610c6157600080fd5b50610509610c7036600461463e565b61011e6020526000908152604090205460ff1681565b348015610c9257600080fd5b50610ca6610ca136600461463e565b612d09565b604080519384526020840192909252908201526060016104bb565b348015610ccd57600080fd5b506104db6101135481565b348015610ce457600080fd5b5061052e610cf33660046145fd565b612e00565b348015610d0457600080fd5b506104db610d1336600461465b565b6001600160a01b03918216600090815260346020908152604080832093909416825291909152205490565b348015610d4a57600080fd5b506104db61010c5481565b348015610d6157600080fd5b506104db6101125481565b348015610d7857600080fd5b50610551610d8736600461476e565b612f5f565b348015610d9857600080fd5b506104db6101005481565b348015610daf57600080fd5b5061052e610dbe36600461463e565b612f6c565b348015610dcf57600080fd5b506104db61010f5481565b348015610de657600080fd5b5061011954610551906001600160a01b031681565b348015610e0757600080fd5b506104db6101145481565b606060368054610e2190614853565b80601f0160208091040260200160405190810160405280929190818152602001828054610e4d90614853565b8015610e9a5780601f10610e6f57610100808354040283529160200191610e9a565b820191906000526020600020905b815481529060010190602001808311610e7d57829003601f168201915b5050505050905090565b600033610eb2818585613013565b60019150505b92915050565b60fe8054906000610ece836148a3565b909155505061011b546000610ee360fb613137565b905080600003610ef1575050565b610115546000805a61011654610119546040516370a0823160e01b81526001600160a01b039182166004820152929350600092839291909116906370a0823190602401602060405180830381865afa158015610f51573d6000803e3d6000fd5b505050506040513d601f19601f82011682018060405250810190610f7591906148bc565b90506000610ffb8261011660009054906101000a90046001600160a01b03166001600160a01b03166318160ddd6040518163ffffffff1660e01b8152600401602060405180830381865afa158015610fd1573d6000803e3d6000fd5b505050506040513d601f19601f82011682018060405250810190610ff591906148bc565b90613141565b90505b878510801561100c57508683105b1561135a578261101b816148a3565b93505061102860fb613137565b861061103357600095505b600061104060fb8861314d565b610119549091506001600160a01b038083169116148061106d575060c9546001600160a01b038281169116145b156110785750610ffe565b60008060008061010e5461108b86612101565b101580156110a4575061010f546110a186612101565b11155b156110cc576110c9866110c36110b988612101565b6101145490613159565b90613165565b92505b6110d585611c9c565b610120546040516370a0823160e01b815230600482015295995092975090955093506001600160a01b0316916370a082319150602401602060405180830381865afa158015611128573d6000803e3d6000fd5b505050506040513d601f19601f8201168201806040525081019061114c91906148bc565b83118061115857504781115b806111ce575061011f546040516370a0823160e01b81523060048201526001600160a01b03909116906370a0823190602401602060405180830381865afa1580156111a7573d6000803e3d6000fd5b505050506040513d601f19601f820116820180604052508101906111cb91906148bc565b82115b156111dd57505050505061135a565b801561121b576040516001600160a01b0386169082156108fc029083906000818181858888f19350505050158015611219573d6000803e3d6000fd5b505b811561129b5761011f5460405163a9059cbb60e01b81526001600160a01b038781166004830152602482018590529091169063a9059cbb906044016020604051808303816000875af1158015611275573d6000803e3d6000fd5b505050506040513d601f19601f8201168201806040525081019061129991906148d5565b505b821561131b576101205460405163a9059cbb60e01b81526001600160a01b038781166004830152602482018690529091169063a9059cbb906044016020604051808303816000875af11580156112f5573d6000803e3d6000fd5b505050506040513d601f19601f8201168201806040525081019061131991906148d5565b505b60005a9050808a111561133f5761133c6113358b83613141565b8c90613171565b9a505b9850888b61134c816148a3565b9c5050505050505050610ffe565b5050506101159290925550505050565b61011a5461138b9030906001600160a01b031661138682612101565b61317d565b565b60003361139b85828561330f565b6113a685858561339b565b60019150505b9392505050565b6001600160a01b037f00000000000000000000000000000000000000000000000000000000000000001630036114045760405162461bcd60e51b81526004016113fb906148f2565b60405180910390fd5b7f00000000000000000000000000000000000000000000000000000000000000006001600160a01b031661144d600080516020614d43833981519152546001600160a01b031690565b6001600160a01b0316146114735760405162461bcd60e51b81526004016113fb9061493e565b61147c816135f7565b6040805160008082526020820190925261149891839190613621565b50565b60c9546001600160a01b031633146114c55760405162461bcd60e51b81526004016113fb9061498a565b61011a80546001600160a01b0319166001600160a01b0392909216919091179055565b3360008181526034602090815260408083206001600160a01b0387168452909152812054909190610eb290829086906115229087906149bf565b613013565b60c9546001600160a01b031633146115515760405162461bcd60e51b81526004016113fb9061498a565b61011980546001600160a01b0319166001600160a01b0392909216919091179055565b60c9546001600160a01b0316331461159e5760405162461bcd60e51b81526004016113fb9061498a565b61011f5461011a546040516370a0823160e01b81523060048201526001600160a01b039283169263a9059cbb92169083906370a0823190602401602060405180830381865afa1580156115f5573d6000803e3d6000fd5b505050506040513d601f19601f8201168201806040525081019061161991906148bc565b6040516001600160e01b031960e085901b1681526001600160a01b03909216600483015260248201526044016020604051808303816000875af1158015611664573d6000803e3d6000fd5b505050506040513d601f19601f8201168201806040525081019061168891906148d5565b5061011f80546001600160a01b0319166001600160a01b0392909216919091179055565b60c9546001600160a01b031633146116d65760405162461bcd60e51b81526004016113fb9061498a565b6101205461011a546040516370a0823160e01b81523060048201526001600160a01b039283169263a9059cbb92169083906370a0823190602401602060405180830381865afa15801561172d573d6000803e3d6000fd5b505050506040513d601f19601f8201168201806040525081019061175191906148bc565b6040516001600160e01b031960e085901b1681526001600160a01b03909216600483015260248201526044016020604051808303816000875af115801561179c573d6000803e3d6000fd5b505050506040513d601f19601f820116820180604052508101906117c091906148d5565b5061012080546001600160a01b0319166001600160a01b0392909216919091179055565b60c9546001600160a01b0316331461180e5760405162461bcd60e51b81526004016113fb9061498a565b61011780546001600160a01b039384166001600160a01b0319918216179091556101188054929093169116179055565b6101205461011a546040516370a0823160e01b81523060048201526001600160a01b039283169263a9059cbb92169083906370a08231906024015b602060405180830381865afa158015611896573d6000803e3d6000fd5b505050506040513d601f19601f820116820180604052508101906118ba91906148bc565b6040516001600160e01b031960e085901b1681526001600160a01b03909216600483015260248201526044016020604051808303816000875af1158015611905573d6000803e3d6000fd5b505050506040513d601f19601f8201168201806040525081019061149891906148d5565b61011f5461011a546040516370a0823160e01b81523060048201526001600160a01b039283169263a9059cbb92169083906370a0823190602401611879565b6001600160a01b037f00000000000000000000000000000000000000000000000000000000000000001630036119b05760405162461bcd60e51b81526004016113fb906148f2565b7f00000000000000000000000000000000000000000000000000000000000000006001600160a01b03166119f9600080516020614d43833981519152546001600160a01b031690565b6001600160a01b031614611a1f5760405162461bcd60e51b81526004016113fb9061493e565b611a28826135f7565b611a3482826001613621565b5050565b6000611a4460fb613137565b905090565b60c9546001600160a01b03163314611a735760405162461bcd60e51b81526004016113fb9061498a565b60ff55565b6000306001600160a01b037f00000000000000000000000000000000000000000000000000000000000000001614611b185760405162461bcd60e51b815260206004820152603860248201527f555550535570677261646561626c653a206d757374206e6f742062652063616c60448201527f6c6564207468726f7567682064656c656761746563616c6c000000000000000060648201526084016113fb565b50600080516020614d4383398151915290565b60c9546001600160a01b03163314611b555760405162461bcd60e51b81526004016113fb9061498a565b61010055565b6000610eb860fb8361378c565b61011c805460ff60a01b1916600160a01b179055610111546101095410801590611b9c575061011154611b9a30612101565b115b8015611bbf57506101115461011654611bbd906001600160a01b0316612101565b115b15611c8c5761011154600090611bd6906002613165565b6101175461011f54919250611bfb9130916001600160a01b0390811691859116612b39565b611c2381604051806060016040528060218152602001614d01602191396101085491906137ae565b610108556101185461011f54611c499130916001600160a01b0391821691859116612b39565b611c7181604051806060016040528060218152602001614d22602191396101095491906137ae565b6101095560fe8054906000611c85836148a3565b9190505550505b61011c805460ff60a01b19169055565b6000806000806000806000806000611cb38a612101565b9050611cc181612710613159565b9050611cd6611ccf60355490565b8290613165565b905061010e54611ce58b612101565b10158015611cfe575061010f54611cfb8b612101565b11155b15611d2e576000611d0e8b612101565b9050611d2a611d1c60355490565b610114546110c39084613159565b9450505b61011654604080516318160ddd60e01b815290516000926001600160a01b0316916318160ddd9160048083019260209291908290030181865afa158015611d79573d6000803e3d6000fd5b505050506040513d601f19601f82011682018060405250810190611d9d91906148bc565b905080600003611dbf5750600098509650919450869350839250611f51915050565b61011654610119546040516370a0823160e01b81526001600160a01b03918216600482015260009291909116906370a0823190602401602060405180830381865afa158015611e12573d6000803e3d6000fd5b505050506040513d601f19601f82011682018060405250810190611e3691906148bc565b90506000611e448383613141565b9050600061011660009054906101000a90046001600160a01b03166001600160a01b03166370a082318f6040518263ffffffff1660e01b8152600401611e9991906001600160a01b0391909116815260200190565b602060405180830381865afa158015611eb6573d6000803e3d6000fd5b505050506040513d601f19601f82011682018060405250810190611eda91906148bc565b90506000611eee836110c384612710613159565b905061010c548210611f1757611f14836110c3846101125461315990919063ffffffff16565b97505b61010d548210611f3e57611f3b836110c3846101135461315990919063ffffffff16565b96505b9c50939a50959850939650919450505050505b91939590929450565b600460fe54611f6991906149ed565b600003611fab57600080516020614d8a833981519152600033858585604051611f96959493929190614a01565b60405180910390a1611fa66137da565b505050565b600460fe54611fba91906149ed565b600103611ff757600080516020614d8a833981519152600133858585604051611fe7959493929190614a01565b60405180910390a1611fa6610ebe565b600460fe5461200691906149ed565b60020361204357600080516020614d8a833981519152600233858585604051612033959493929190614a01565b60405180910390a1611fa661398b565b600460fe5461205291906149ed565b600303611fa657600080516020614d8a83398151915260033385858560405161207f959493929190614a01565b60405180910390a1611fa6611b68565b60c9546001600160a01b031633146120b95760405162461bcd60e51b81526004016113fb9061498a565b61010c9190915561010d55565b60c9546001600160a01b031633146120f05760405162461bcd60e51b81526004016113fb9061498a565b610112929092556101135561011455565b6001600160a01b031660009081526033602052604090205490565b60c9546001600160a01b031633146121465760405162461bcd60e51b81526004016113fb9061498a565b61138b6000613a52565b600054610100900460ff1661216b5760005460ff161561216f565b303b155b6121d25760405162461bcd60e51b815260206004820152602e60248201527f496e697469616c697a61626c653a20636f6e747261637420697320616c72656160448201526d191e481a5b9a5d1a585b1a5e995960921b60648201526084016113fb565b600054610100900460ff161580156121f4576000805461ffff19166101011790555b61223e60405180604001604052806009815260200168151154d508151154d560ba1b815250604051806040016040528060078152602001665445535430303760c81b815250613aa4565b612246613ad5565b61224e613b04565b61226f3361225e6012600a614b13565b61226a906156ce614b22565b613b2b565b61227b6012600a614b13565b612287906108ae614b22565b60ff5561753061011b55610105546101045461010254610101546122ab91906149bf565b6122b591906149bf565b6122bf91906149bf565b61010b5561011d80546001600160a01b03191673d99d1c33f9fc3444f8101754abc46c52416550d19081179091556040805163c45a015560e01b8152905163c45a0155916004808201926020929091908290030181865afa158015612328573d6000803e3d6000fd5b505050506040513d601f19601f8201168201806040525081019061234c9190614b41565b6001600160a01b031663c9c653963061011d60009054906101000a90046001600160a01b03166001600160a01b031663ad5c46486040518163ffffffff1660e01b8152600401602060405180830381865afa1580156123af573d6000803e3d6000fd5b505050506040513d601f19601f820116820180604052508101906123d39190614b41565b6040516001600160e01b031960e085901b1681526001600160a01b039283166004820152911660248201526044016020604051808303816000875af1158015612420573d6000803e3d6000fd5b505050506040513d601f19601f820116820180604052508101906124449190614b41565b61011680546001600160a01b03929092166001600160a01b031992831617905561011f80548216737ef95a0fee0dd31b22626fa2e10ee6a223f8a68417905561012080549091167378867bbeef44f2326bf8ddd1941a4439382ef2a71790556124b560c9546001600160a01b031690565b61011980546001600160a01b03929092166001600160a01b031992831617905561011a8054821673e0023825bf2d550ddedccd58f35abe1b2de0e51f1790556101178054821673f900dde80a83bab2e388ea8a789b01982ae605d71790556101188054909116730b9aad6217b2425e63ad023d6b39da29df9c7ec317905561253b601290565b61254690600a614b13565b61255190600a614b22565b61010055671bc16d674ec8000061011255655af3107a40006101135569021e19e0c9bab240000061011455670f43fc2c04ee000061010c55674563918244f4000061010d556125a26012600a614b13565b6125ad906005614b22565b61010e556125bd6012600a614b13565b6125c89060c8614b22565b61010f556125d86012600a614b13565b6125e3906001614b22565b610111556125f36012600a614b13565b6125fe906001614b22565b6101105561260e6012600a614b13565b61261990600a614b22565b61010a5561011c80546001600160a01b03191661dead17905563625eb6886101215561011e6020527ffc83633154bb6433d0f42749efdd3cdc17130599ee2d8fac05bfbb4ccc468871805460ff1990811660019081179092557fe5d7d030bb8c81e61a957e9313eca67b168b39f42d3d4eae32999e88baa4126780548216831790557f4ccdd39e287ad9251edccbd514100902bc96ac0b64bb82296d0a5c5c186af5da80548216831790557f61010476ee38470b554433a20808e7e1e4d9b64223364dc3af9c01153ae9535080548216831790557ff31b515274abde92b20c4c1254f7c13c4b703fbfe379fe51404b9eb1e45b8b238054821683179055610119546001600160a01b0316600090815260409020805490911690911790558015611498576000805461ff001916905550565b60c9546001600160a01b031633146127745760405162461bcd60e51b81526004016113fb9061498a565b61011b5481036127dc5760405162461bcd60e51b815260206004820152602d60248201527f2043616e6e6f742075706461746520676173466f7250726f63657373696e672060448201526c746f2073616d652076616c756560981b60648201526084016113fb565b61011b55565b60c9546001600160a01b0316331461280c5760405162461bcd60e51b81526004016113fb9061498a565b61011155565b60c9546001600160a01b0316331461283c5760405162461bcd60e51b81526004016113fb9061498a565b611a3460fb82613c0a565b60c9546001600160a01b031633146128715760405162461bcd60e51b81526004016113fb9061498a565b60fd80549115156101000261ff0019909216919091179055565b60c9546001600160a01b031633146128b55760405162461bcd60e51b81526004016113fb9061498a565b61010a55565b606060378054610e2190614853565b3360008181526034602090815260408083206001600160a01b03871684529091528120549091908381101561294f5760405162461bcd60e51b815260206004820152602560248201527f45524332303a2064656372656173656420616c6c6f77616e63652062656c6f77604482015264207a65726f60d81b60648201526084016113fb565b61295c8286868403613013565b506001949350505050565b600033610eb281858561339b565b60c9546001600160a01b0316331461299f5760405162461bcd60e51b81526004016113fb9061498a565b61010e9190915561010f55565b60408051600280825260608201835260009260208301908036833701905050905030816000815181106129e1576129e1614b5e565b6001600160a01b0392831660209182029290920181019190915261011d54604080516315ab88c960e31b81529051919093169263ad5c46489260048083019391928290030181865afa158015612a3b573d6000803e3d6000fd5b505050506040513d601f19601f82011682018060405250810190612a5f9190614b41565b81600181518110612a7257612a72614b5e565b6001600160a01b03928316602091820292909201015261011d54612a999130911684613013565b61011d5460405163791ac94760e01b81526001600160a01b039091169063791ac94790612ad3908590600090869030904290600401614b74565b600060405180830381600087803b158015612aed57600080fd5b505af1158015612b01573d6000803e3d6000fd5b505050505050565b60c9546001600160a01b03163314612b335760405162461bcd60e51b81526004016113fb9061498a565b61011055565b60408051600380825260808201909252600091602082016060803683370190505090503081600081518110612b7057612b70614b5e565b6001600160a01b0392831660209182029290920181019190915261011d54604080516315ab88c960e31b81529051919093169263ad5c46489260048083019391928290030181865afa158015612bca573d6000803e3d6000fd5b505050506040513d601f19601f82011682018060405250810190612bee9190614b41565b81600181518110612c0157612c01614b5e565b60200260200101906001600160a01b031690816001600160a01b0316815250508181600281518110612c3557612c35614b5e565b6001600160a01b03928316602091820292909201015261011d54612c5c9187911685613013565b61011d54604051635c11d79560e01b81526001600160a01b0390911690635c11d79590612c9690869060009086908a904290600401614b74565b600060405180830381600087803b158015612cb057600080fd5b505af1158015612cc4573d6000803e3d6000fd5b505050505050505050565b61011a546040516001600160a01b03909116904780156108fc02916000818181858888f19350505050158015611498573d6000803e3d6000fd5b61011f546040516370a0823160e01b81526001600160a01b038381166004830181905260009384938493923192909116906370a0823190602401602060405180830381865afa158015612d60573d6000803e3d6000fd5b505050506040513d601f19601f82011682018060405250810190612d8491906148bc565b610120546040516370a0823160e01b81526001600160a01b038881166004830152909116906370a0823190602401602060405180830381865afa158015612dcf573d6000803e3d6000fd5b505050506040513d601f19601f82011682018060405250810190612df391906148bc565b9250925092509193909250565b6040805160028082526060820183526000926020830190803683370190505090503081600081518110612e3557612e35614b5e565b6001600160a01b0392831660209182029290920181019190915261011d54604080516315ab88c960e31b81529051919093169263ad5c46489260048083019391928290030181865afa158015612e8f573d6000803e3d6000fd5b505050506040513d601f19601f82011682018060405250810190612eb39190614b41565b81600181518110612ec657612ec6614b5e565b6001600160a01b03928316602091820292909201015261011d54612eed9186911684613013565b61011d5460405163791ac94760e01b81526001600160a01b039091169063791ac94790612f27908590600090869089904290600401614b74565b600060405180830381600087803b158015612f4157600080fd5b505af1158015612f55573d6000803e3d6000fd5b5050505050505050565b6000610eb860fb8361314d565b60c9546001600160a01b03163314612f965760405162461bcd60e51b81526004016113fb9061498a565b6001600160a01b038116612ffb5760405162461bcd60e51b815260206004820152602660248201527f4f776e61626c653a206e6577206f776e657220697320746865207a65726f206160448201526564647265737360d01b60648201526084016113fb565b61149881613a52565b6001600160a01b03163b151590565b6001600160a01b0383166130755760405162461bcd60e51b8152602060048201526024808201527f45524332303a20617070726f76652066726f6d20746865207a65726f206164646044820152637265737360e01b60648201526084016113fb565b6001600160a01b0382166130d65760405162461bcd60e51b815260206004820152602260248201527f45524332303a20617070726f766520746f20746865207a65726f206164647265604482015261737360f01b60648201526084016113fb565b6001600160a01b0383811660008181526034602090815260408083209487168084529482529182902085905590518481527f8c5be1e5ebec7d5bd14f71427d1e84f3dd0314c0f7b2291e5b200ac8c7c3b925910160405180910390a3505050565b6000610eb8825490565b60006113ac8284614be5565b60006113ac8383613c1f565b60006113ac8284614b22565b60006113ac8284614bfc565b60006113ac82846149bf565b6001600160a01b0383166131a35760405162461bcd60e51b81526004016113fb90614c10565b6001600160a01b0382166132055760405162461bcd60e51b815260206004820152602360248201527f45524332303a207472616e7366657220746f20746865207a65726f206164647260448201526265737360e81b60648201526084016113fb565b6001600160a01b0383166000908152603360205260409020548181101561327d5760405162461bcd60e51b815260206004820152602660248201527f45524332303a207472616e7366657220616d6f756e7420657863656564732062604482015265616c616e636560d01b60648201526084016113fb565b6001600160a01b038085166000908152603360205260408082208585039055918516815290812080548492906132b49084906149bf565b92505081905550826001600160a01b0316846001600160a01b03167fddf252ad1be2c89b69c2b068fc378daa952ba7f163c4a11628f55a4df523b3ef8460405161330091815260200190565b60405180910390a35b50505050565b6001600160a01b038381166000908152603460209081526040808320938616835292905220546000198114613309578181101561338e5760405162461bcd60e51b815260206004820152601d60248201527f45524332303a20696e73756666696369656e7420616c6c6f77616e636500000060448201526064016113fb565b6133098484848403613013565b6001600160a01b0383166133c15760405162461bcd60e51b81526004016113fb90614c10565b61011c543390600160a01b900460ff16156133e15761330984848461317d565b610116546001600160a01b0384811691161480159061340f5750610116546001600160a01b03828116911614155b801561342a575061011d546001600160a01b03828116911614155b8015613445575061011d546001600160a01b03848116911614155b1561345a5761345581848461317d565b6135a8565b610116546001600160a01b038281169116148015613486575061011d546001600160a01b038481169116145b806134cd575061011d546001600160a01b0382811691161480156134b95750610116546001600160a01b03848116911614155b80156134cd575060fd54610100900460ff16155b156134dd5761345581848461317d565b610116546001600160a01b03828116911614801561350a575061011d546001600160a01b03848116911614155b1561355a576101215442101561354f5760405162461bcd60e51b815260206004820152600a60248201526963616e6e6f742062757960b01b60448201526064016113fb565b613455848484613c49565b61011d546001600160a01b0316336001600160a01b031614801561358c5750610116546001600160a01b038481169116145b80156135985750333014155b156135a8576135a8848484613c49565b6135b3848484611f5a565b60006135be30612101565b905061010a548111156135f05761011a5461010a546135f09130916001600160a01b0390911690611386908590613141565b5050505050565b60c9546001600160a01b031633146114985760405162461bcd60e51b81526004016113fb9061498a565b7f4910fdfa16fed3260ed0e7147f7cc6da11a60208b5b9406d12a635614ffd91435460ff161561365457611fa683613ec3565b826001600160a01b03166352d1902d6040518163ffffffff1660e01b8152600401602060405180830381865afa9250505080156136ae575060408051601f3d908101601f191682019092526136ab918101906148bc565b60015b6137115760405162461bcd60e51b815260206004820152602e60248201527f45524331393637557067726164653a206e657720696d706c656d656e7461746960448201526d6f6e206973206e6f74205555505360901b60648201526084016113fb565b600080516020614d4383398151915281146137805760405162461bcd60e51b815260206004820152602960248201527f45524331393637557067726164653a20756e737570706f727465642070726f786044820152681a58589b195555525160ba1b60648201526084016113fb565b50611fa6838383613f5f565b6001600160a01b038116600090815260018301602052604081205415156113ac565b600081848411156137d25760405162461bcd60e51b81526004016113fb9190614589565b505050900390565b60fd5460ff1615806137f6575061011c54600160a01b900460ff165b156137fd57565b61011c805460ff60a01b1916600160a01b17905561010954610108546000916138269190613171565b9050600061383e61010754610ff584610ff530612101565b905061010054811015801561386b57506101005461011654613868906001600160a01b0316612101565b10155b15613979576101015461010b5460ff54603554116138bb576101035461389190836149bf565b915061010354816138a291906149bf565b905061010354610106546138b691906149bf565b610106555b60006138d7826110c3856101005461315990919063ffffffff16565b61011f549091506138f6903090819084906001600160a01b0316612b39565b6000613915836110c3610102546101005461315990919063ffffffff16565b9050613920816129ac565b600061393f846110c3610104546101005461315990919063ffffffff16565b6101205490915061395e903090819084906001600160a01b0316612b39565b60fe805490600061396e836148a3565b919050555050505050505b505061011c805460ff60a01b19169055565b610110546101075410806139a95750610110546139a730612101565b105b806139cb575061011054610116546139c9906001600160a01b0316612101565b105b156139d257565b610110546000906139e4906002613165565b905060006139fe826101105461314190919063ffffffff16565b905047613a0a836129ac565b6000613a164783613141565b9050613a228382613f84565b6101105461010754613a3391613141565b6101075560fe8054906000613a47836148a3565b919050555050505050565b60c980546001600160a01b038381166001600160a01b0319831681179093556040519116919082907f8be0079c531659141344cd1fd0a4f28419497f9722a3daafe3b4186f6b6457e090600090a35050565b600054610100900460ff16613acb5760405162461bcd60e51b81526004016113fb90614c55565b611a348282614034565b600054610100900460ff16613afc5760405162461bcd60e51b81526004016113fb90614c55565b61138b614082565b600054610100900460ff1661138b5760405162461bcd60e51b81526004016113fb90614c55565b6001600160a01b038216613b815760405162461bcd60e51b815260206004820152601f60248201527f45524332303a206d696e7420746f20746865207a65726f20616464726573730060448201526064016113fb565b8060356000828254613b9391906149bf565b90915550506001600160a01b03821660009081526033602052604081208054839290613bc09084906149bf565b90915550506040518181526001600160a01b038316906000907fddf252ad1be2c89b69c2b068fc378daa952ba7f163c4a11628f55a4df523b3ef9060200160405180910390a35050565b60006113ac836001600160a01b0384166140b2565b6000826000018281548110613c3657613c36614b5e565b9060005260206000200154905092915050565b61011c54600160a01b900460ff16158015613c7e57506001600160a01b038216600090815261011e602052604090205460ff16155b8015613ca457506001600160a01b038316600090815261011e602052604090205460ff16155b15613eb8576000613cc76127106110c361010b548561315990919063ffffffff16565b90506000613ce76127106110c3610106548661315990919063ffffffff16565b90506000613d076127106110c3610105548761315990919063ffffffff16565b61010754909150613d189082613171565b6101075561010354600090613d3690612710906110c3908890613159565b905060ff54613d4460355490565b1115613d5957613d5487826141a5565b613d79565b613d638482613171565b61010854909450613d749082613171565b610108555b6000613d86846002613165565b61010854909150613d979082613171565b6101085561010954613da99082613171565b61010955613db78683613141565b9550613dc784610ff58888613141565b9550613dd488308761317d565b610116546001600160a01b03888116911614801590613e02575061011d546001600160a01b03888116911614155b8015613e1d5750610119546001600160a01b03888116911614155b8015613e315750613e2f60fb8861378c565b155b15613e4357613e4160fb886142f3565b505b610116546001600160a01b03898116911614801590613e71575061011d546001600160a01b03898116911614155b8015613e8c5750610119546001600160a01b03898116911614155b8015613ea05750613e9e60fb8961378c565b155b15613eb257613eb060fb896142f3565b505b50505050505b611fa683838361317d565b6001600160a01b0381163b613f305760405162461bcd60e51b815260206004820152602d60248201527f455243313936373a206e657720696d706c656d656e746174696f6e206973206e60448201526c1bdd08184818dbdb9d1c9858dd609a1b60648201526084016113fb565b600080516020614d4383398151915280546001600160a01b0319166001600160a01b0392909216919091179055565b613f6883614308565b600082511180613f755750805b15611fa6576133098383614348565b61011d54613f9d9030906001600160a01b031684613013565b61011d5461011c5460405163f305d71960e01b81523060048201526024810185905260006044820181905260648201526001600160a01b0391821660848201524260a482015291169063f305d71990839060c40160606040518083038185885af115801561400f573d6000803e3d6000fd5b50505050506040513d601f19601f820116820180604052508101906135f09190614ca0565b600054610100900460ff1661405b5760405162461bcd60e51b81526004016113fb90614c55565b815161406e9060369060208501906144c4565b508051611fa69060379060208401906144c4565b600054610100900460ff166140a95760405162461bcd60e51b81526004016113fb90614c55565b61138b33613a52565b6000818152600183016020526040812054801561419b5760006140d6600183614be5565b85549091506000906140ea90600190614be5565b905081811461414f57600086600001828154811061410a5761410a614b5e565b906000526020600020015490508087600001848154811061412d5761412d614b5e565b6000918252602080832090910192909255918252600188019052604090208390555b855486908061416057614160614cce565b600190038181906000526020600020016000905590558560010160008681526020019081526020016000206000905560019350505050610eb8565b6000915050610eb8565b6001600160a01b0382166142055760405162461bcd60e51b815260206004820152602160248201527f45524332303a206275726e2066726f6d20746865207a65726f206164647265736044820152607360f81b60648201526084016113fb565b6001600160a01b038216600090815260336020526040902054818110156142795760405162461bcd60e51b815260206004820152602260248201527f45524332303a206275726e20616d6f756e7420657863656564732062616c616e604482015261636560f01b60648201526084016113fb565b6001600160a01b03831660009081526033602052604081208383039055603580548492906142a8908490614be5565b90915550506040518281526000906001600160a01b038516907fddf252ad1be2c89b69c2b068fc378daa952ba7f163c4a11628f55a4df523b3ef9060200160405180910390a3505050565b60006113ac836001600160a01b03841661443c565b61431181613ec3565b6040516001600160a01b038216907fbc7cd75a20ee27fd9adebab32041f755214dbc6bffa90cc0225b39da2e5c2d3b90600090a250565b60606001600160a01b0383163b6143b05760405162461bcd60e51b815260206004820152602660248201527f416464726573733a2064656c65676174652063616c6c20746f206e6f6e2d636f6044820152651b9d1c9858dd60d21b60648201526084016113fb565b600080846001600160a01b0316846040516143cb9190614ce4565b600060405180830381855af49150503d8060008114614406576040519150601f19603f3d011682016040523d82523d6000602084013e61440b565b606091505b50915091506144338282604051806060016040528060278152602001614d636027913961448b565b95945050505050565b600081815260018301602052604081205461448357508154600181810184556000848152602080822090930184905584548482528286019093526040902091909155610eb8565b506000610eb8565b6060831561449a5750816113ac565b8251156144aa5782518084602001fd5b8160405162461bcd60e51b81526004016113fb9190614589565b8280546144d090614853565b90600052602060002090601f0160209004810192826144f25760008555614538565b82601f1061450b57805160ff1916838001178555614538565b82800160010185558215614538579182015b8281111561453857825182559160200191906001019061451d565b50614544929150614548565b5090565b5b808211156145445760008155600101614549565b60005b83811015614578578181015183820152602001614560565b838111156133095750506000910152565b60208152600082518060208401526145a881604085016020870161455d565b601f01601f19169190910160400192915050565b6001600160a01b038116811461149857600080fd5b600080604083850312156145e457600080fd5b82356145ef816145bc565b946020939093013593505050565b60008060006060848603121561461257600080fd5b833561461d816145bc565b9250602084013561462d816145bc565b929592945050506040919091013590565b60006020828403121561465057600080fd5b81356113ac816145bc565b6000806040838503121561466e57600080fd5b8235614679816145bc565b91506020830135614689816145bc565b809150509250929050565b634e487b7160e01b600052604160045260246000fd5b600080604083850312156146bd57600080fd5b82356146c8816145bc565b9150602083013567ffffffffffffffff808211156146e557600080fd5b818501915085601f8301126146f957600080fd5b81358181111561470b5761470b614694565b604051601f8201601f19908116603f0116810190838211818310171561473357614733614694565b8160405282815288602084870101111561474c57600080fd5b8260208601602083013760006020848301015280955050505050509250929050565b60006020828403121561478057600080fd5b5035919050565b6000806040838503121561479a57600080fd5b50508035926020909101359150565b6000806000606084860312156147be57600080fd5b505081359360208301359350604090920135919050565b801515811461149857600080fd5b6000602082840312156147f557600080fd5b81356113ac816147d5565b6000806000806080858703121561481657600080fd5b8435614821816145bc565b93506020850135614831816145bc565b9250604085013591506060850135614848816145bc565b939692955090935050565b600181811c9082168061486757607f821691505b60208210810361488757634e487b7160e01b600052602260045260246000fd5b50919050565b634e487b7160e01b600052601160045260246000fd5b6000600182016148b5576148b561488d565b5060010190565b6000602082840312156148ce57600080fd5b5051919050565b6000602082840312156148e757600080fd5b81516113ac816147d5565b6020808252602c908201527f46756e6374696f6e206d7573742062652063616c6c6564207468726f7567682060408201526b19195b1959d85d1958d85b1b60a21b606082015260800190565b6020808252602c908201527f46756e6374696f6e206d7573742062652063616c6c6564207468726f7567682060408201526b6163746976652070726f787960a01b606082015260800190565b6020808252818101527f4f776e61626c653a2063616c6c6572206973206e6f7420746865206f776e6572604082015260600190565b600082198211156149d2576149d261488d565b500190565b634e487b7160e01b600052601260045260246000fd5b6000826149fc576149fc6149d7565b500690565b9485526001600160a01b03938416602086015291831660408501529091166060830152608082015260a00190565b600181815b80851115614a6a578160001904821115614a5057614a5061488d565b80851615614a5d57918102915b93841c9390800290614a34565b509250929050565b600082614a8157506001610eb8565b81614a8e57506000610eb8565b8160018114614aa45760028114614aae57614aca565b6001915050610eb8565b60ff841115614abf57614abf61488d565b50506001821b610eb8565b5060208310610133831016604e8410600b8410161715614aed575081810a610eb8565b614af78383614a2f565b8060001904821115614b0b57614b0b61488d565b029392505050565b60006113ac60ff841683614a72565b6000816000190483118215151615614b3c57614b3c61488d565b500290565b600060208284031215614b5357600080fd5b81516113ac816145bc565b634e487b7160e01b600052603260045260246000fd5b600060a082018783526020878185015260a0604085015281875180845260c086019150828901935060005b81811015614bc45784516001600160a01b031683529383019391830191600101614b9f565b50506001600160a01b03969096166060850152505050608001529392505050565b600082821015614bf757614bf761488d565b500390565b600082614c0b57614c0b6149d7565b500490565b60208082526025908201527f45524332303a207472616e736665722066726f6d20746865207a65726f206164604082015264647265737360d81b606082015260800190565b6020808252602b908201527f496e697469616c697a61626c653a20636f6e7472616374206973206e6f74206960408201526a6e697469616c697a696e6760a81b606082015260800190565b600080600060608486031215614cb557600080fd5b8351925060208401519150604084015190509250925092565b634e487b7160e01b600052603160045260246000fd5b60008251614cf681846020870161455d565b919091019291505056fe5f6d61726b65743146656553756d203c205f6d61726b65744665655377617041745f6d61726b65743246656553756d203c205f6d61726b6574466565537761704174360894a13ba1a3210667c828492db98dca3e2076cc3735a920a3ca505d382bbc416464726573733a206c6f772d6c6576656c2064656c65676174652063616c6c206661696c6564e89405beace6906fadfd6504de4b4906aa76048e3b9c0669d76e08c541115d5fa2646970667358221220890ad3f12848de0024976e0cb07d2856b4f8ab128107c07f5dd8c9bad799d30b64736f6c634300080d0033",
    "sourcePath": "/Users/janly/data/solidity/UUPS/contracts/dotty.sol",
    "compiler": {
        "name": "solc",
        "version": "0.8.13+commit.abaa5c0e"
    },
    "functionHashes": {
        "_backFeeRate()": "3e67d66b",
        "_burnFeeRate()": "94807628",
        "_burnStopAt()": "baa856bc",
        "_excludelpAddress()": "f60a515a",
        "_feeRate()": "b2131f7d",
        "_holdDividendAt()": "4c0a38b5",
        "_holdDividendEnd()": "f4af51cc",
        "_holderFeeRate()": "bdde32d6",
        "_liquidityFee()": "6bc87c3a",
        "_lp2FeeRate()": "b4714802",
        "_lpDividendFirstAt()": "dede5f45",
        "_lpDividendSecondAt()": "33b3cd82",
        "_lpFeeRate()": "3df6be61",
        "_market1FeeSum()": "9547754a",
        "_market2FeeSum()": "65742568",
        "_marketFeeRate()": "0835a625",
        "_marketFeeSwapAt()": "5c709fa4",
        "_overflowTakeFee()": "c604fe9b",
        "_rewardBaseHolder()": "fcfd8269",
        "_rewardBaseLPFirst()": "e0fb2c05",
        "_rewardBaseLPSecond()": "dad37195",
        "_swapAndLiquifyAt()": "25e8fa21",
        "_swapAt()": "eb7b70f1",
        "_swapOrDividend()": "25a4b7b5",
        "_whitelist(address)": "cfdb63ac",
        "allowance(address,address)": "dd62ed3e",
        "approve(address,uint256)": "095ea7b3",
        "balanceOf(address)": "70a08231",
        "contains(address)": "5dbe47e8",
        "deadWallet()": "85141a77",
        "decimals()": "313ce567",
        "decreaseAllowance(address,uint256)": "a457c2d7",
        "dividend()": "0ff8cf9b",
        "getHolderAt(uint256)": "e253f87b",
        "getHolderLength()": "4f21869c",
        "getRewardBalance(address)": "d5a849e9",
        "getRewardValues(address)": "5f4fe879",
        "getTradingIsEnabled()": "4d33b1ef",
        "increaseAllowance(address,uint256)": "39509351",
        "initialize()": "8129fc1c",
        "lastProcessedIndex()": "3009a609",
        "name()": "06fdde03",
        "owner()": "8da5cb5b",
        "proxiableUUID()": "52d1902d",
        "removeHolder(address)": "8dd42808",
        "removeLiquidityTakeFee()": "5525abe2",
        "renounceOwnership()": "715018a6",
        "setBurnStopAt(uint256)": "4f3e01bc",
        "setExcludelpAddress(address)": "40704b36",
        "setHoldDividend(uint256,uint256)": "a9137cf5",
        "setLPDividendAt(uint256,uint256)": "684b5f02",
        "setMarketFeeSwapAt(uint256)": "8d2b26f0",
        "setMarketingWalletAddress(address,address)": "4a559a60",
        "setOverflowTakeFee(uint256)": "94ce607c",
        "setRemoveLiquidityTakeFee(bool)": "8f501a25",
        "setRewardBase(uint256,uint256,uint256)": "6eea6fa6",
        "setRewardToken1(address)": "463b44fc",
        "setRewardToken2(address)": "493c0793",
        "setSwapAndLiquifyAt(uint256)": "c1b3dd1f",
        "setSwapAt(uint256)": "5c04ac94",
        "setTakeFeeWallet(address)": "392d2681",
        "swapAndDividend(address,address,uint256)": "65f81ea2",
        "swapEnabled()": "6ddd1713",
        "swapMarketFee()": "5e4ebbe2",
        "swapTokensFor2Tokens(address,address,uint256)": "dba54646",
        "swapTokensFor3Tokens(address,address,uint256,address)": "c3274c77",
        "swapTokensForEth(uint256)": "b28805f4",
        "symbol()": "95d89b41",
        "takeBNB()": "ce7157c6",
        "takeFee()": "181aa1fd",
        "takeReward1()": "4f07e35c",
        "takeReward2()": "4c622f5d",
        "totalSupply()": "18160ddd",
        "tradingEnabledTimestamp()": "25b61703",
        "transfer(address,uint256)": "a9059cbb",
        "transferFrom(address,address,uint256)": "23b872dd",
        "transferOwnership(address)": "f2fde38b",
        "uniswapV2Pair()": "49bd5a5e",
        "uniswapV2Router()": "1694505e",
        "updateGasForProcessing(uint256)": "871c128d",
        "upgradeTo(address)": "3659cfe6",
        "upgradeToAndCall(address,bytes)": "4f1ef286"
    },
    "gasEstimates": {
        "creation": {
            "codeDepositCost": "3987000",
            "executionCost": "infinite",
            "totalCost": "infinite"
        },
        "external": {
            "_backFeeRate()": "2429",
            "_burnFeeRate()": "2407",
            "_burnStopAt()": "2407",
            "_excludelpAddress()": "2491",
            "_feeRate()": "2450",
            "_holdDividendAt()": "2452",
            "_holdDividendEnd()": "2427",
            "_holderFeeRate()": "2429",
            "_liquidityFee()": "2364",
            "_lp2FeeRate()": "2385",
            "_lpDividendFirstAt()": "2428",
            "_lpDividendSecondAt()": "2430",
            "_lpFeeRate()": "2407",
            "_market1FeeSum()": "2451",
            "_market2FeeSum()": "2428",
            "_marketFeeRate()": "2387",
            "_marketFeeSwapAt()": "2451",
            "_overflowTakeFee()": "2384",
            "_rewardBaseHolder()": "2471",
            "_rewardBaseLPFirst()": "2450",
            "_rewardBaseLPSecond()": "2362",
            "_swapAndLiquifyAt()": "2364",
            "_swapAt()": "2383",
            "_swapOrDividend()": "2430",
            "_whitelist(address)": "2658",
            "allowance(address,address)": "infinite",
            "approve(address,uint256)": "24713",
            "balanceOf(address)": "2678",
            "contains(address)": "infinite",
            "deadWallet()": "2427",
            "decimals()": "290",
            "decreaseAllowance(address,uint256)": "26983",
            "dividend()": "infinite",
            "getHolderAt(uint256)": "4760",
            "getHolderLength()": "2526",
            "getRewardBalance(address)": "infinite",
            "getRewardValues(address)": "infinite",
            "getTradingIsEnabled()": "2396",
            "increaseAllowance(address,uint256)": "27033",
            "initialize()": "infinite",
            "lastProcessedIndex()": "2386",
            "name()": "infinite",
            "owner()": "2487",
            "proxiableUUID()": "infinite",
            "removeHolder(address)": "infinite",
            "removeLiquidityTakeFee()": "2433",
            "renounceOwnership()": "28274",
            "setBurnStopAt(uint256)": "24532",
            "setExcludelpAddress(address)": "26861",
            "setHoldDividend(uint256,uint256)": "46732",
            "setLPDividendAt(uint256,uint256)": "46776",
            "setMarketFeeSwapAt(uint256)": "24598",
            "setMarketingWalletAddress(address,address)": "infinite",
            "setOverflowTakeFee(uint256)": "24598",
            "setRemoveLiquidityTakeFee(bool)": "26767",
            "setRewardBase(uint256,uint256,uint256)": "68838",
            "setRewardToken1(address)": "infinite",
            "setRewardToken2(address)": "infinite",
            "setSwapAndLiquifyAt(uint256)": "24620",
            "setSwapAt(uint256)": "24598",
            "setTakeFeeWallet(address)": "26773",
            "swapAndDividend(address,address,uint256)": "infinite",
            "swapEnabled()": "2401",
            "swapMarketFee()": "infinite",
            "swapTokensFor2Tokens(address,address,uint256)": "infinite",
            "swapTokensFor3Tokens(address,address,uint256,address)": "infinite",
            "swapTokensForEth(uint256)": "infinite",
            "symbol()": "infinite",
            "takeBNB()": "infinite",
            "takeFee()": "38235",
            "takeReward1()": "infinite",
            "takeReward2()": "infinite",
            "totalSupply()": "2361",
            "tradingEnabledTimestamp()": "2452",
            "transfer(address,uint256)": "infinite",
            "transferFrom(address,address,uint256)": "infinite",
            "transferOwnership(address)": "infinite",
            "uniswapV2Pair()": "2450",
            "uniswapV2Router()": "2495",
            "updateGasForProcessing(uint256)": "26699",
            "upgradeTo(address)": "infinite",
            "upgradeToAndCall(address,bytes)": "infinite"
        },
        "internal": {
            "_authorizeUpgrade(address)": "infinite",
            "_swapDividendTokens()": "infinite",
            "_takeFeeAndAddHolder(address,address,uint256)": "infinite",
            "_transfer(address,address,uint256)": "infinite",
            "addLiquidity(uint256,uint256)": "infinite",
            "swapAndLiquify()": "infinite"
        }
    }
}