{
    "contractName": "TEST",
    "abi": [
        {
            "anonymous": false,
            "inputs": [
                {
                    "indexed": false,
                    "internalType": "address",
                    "name": "previousAdmin",
                    "type": "address"
                },
                {
                    "indexed": false,
                    "internalType": "address",
                    "name": "newAdmin",
                    "type": "address"
                }
            ],
            "name": "AdminChanged",
            "type": "event"
        },
        {
            "anonymous": false,
            "inputs": [
                {
                    "indexed": true,
                    "internalType": "address",
                    "name": "owner",
                    "type": "address"
                },
                {
                    "indexed": true,
                    "internalType": "address",
                    "name": "spender",
                    "type": "address"
                },
                {
                    "indexed": false,
                    "internalType": "uint256",
                    "name": "value",
                    "type": "uint256"
                }
            ],
            "name": "Approval",
            "type": "event"
        },
        {
            "anonymous": false,
            "inputs": [
                {
                    "indexed": true,
                    "internalType": "address",
                    "name": "beacon",
                    "type": "address"
                }
            ],
            "name": "BeaconUpgraded",
            "type": "event"
        },
        {
            "anonymous": false,
            "inputs": [
                {
                    "indexed": true,
                    "internalType": "address",
                    "name": "previousOwner",
                    "type": "address"
                },
                {
                    "indexed": true,
                    "internalType": "address",
                    "name": "newOwner",
                    "type": "address"
                }
            ],
            "name": "OwnershipTransferred",
            "type": "event"
        },
        {
            "anonymous": false,
            "inputs": [
                {
                    "indexed": true,
                    "internalType": "address",
                    "name": "from",
                    "type": "address"
                },
                {
                    "indexed": true,
                    "internalType": "address",
                    "name": "to",
                    "type": "address"
                },
                {
                    "indexed": false,
                    "internalType": "uint256",
                    "name": "value",
                    "type": "uint256"
                }
            ],
            "name": "Transfer",
            "type": "event"
        },
        {
            "anonymous": false,
            "inputs": [
                {
                    "indexed": true,
                    "internalType": "address",
                    "name": "implementation",
                    "type": "address"
                }
            ],
            "name": "Upgraded",
            "type": "event"
        },
        {
            "inputs": [],
            "name": "_backFeeRate",
            "outputs": [
                {
                    "internalType": "uint256",
                    "name": "",
                    "type": "uint256"
                }
            ],
            "stateMutability": "view",
            "type": "function"
        },
        {
            "inputs": [],
            "name": "_burnFeeRate",
            "outputs": [
                {
                    "internalType": "uint256",
                    "name": "",
                    "type": "uint256"
                }
            ],
            "stateMutability": "view",
            "type": "function"
        },
        {
            "inputs": [],
            "name": "_burnStopAt",
            "outputs": [
                {
                    "internalType": "uint256",
                    "name": "",
                    "type": "uint256"
                }
            ],
            "stateMutability": "view",
            "type": "function"
        },
        {
            "inputs": [],
            "name": "_excludelpAddress",
            "outputs": [
                {
                    "internalType": "address",
                    "name": "",
                    "type": "address"
                }
            ],
            "stateMutability": "view",
            "type": "function"
        },
        {
            "inputs": [],
            "name": "_feeRate",
            "outputs": [
                {
                    "internalType": "uint256",
                    "name": "",
                    "type": "uint256"
                }
            ],
            "stateMutability": "view",
            "type": "function"
        },
        {
            "inputs": [],
            "name": "_holdDividendAt",
            "outputs": [
                {
                    "internalType": "uint256",
                    "name": "",
                    "type": "uint256"
                }
            ],
            "stateMutability": "view",
            "type": "function"
        },
        {
            "inputs": [],
            "name": "_holdDividendEnd",
            "outputs": [
                {
                    "internalType": "uint256",
                    "name": "",
                    "type": "uint256"
                }
            ],
            "stateMutability": "view",
            "type": "function"
        },
        {
            "inputs": [],
            "name": "_holderFeeRate",
            "outputs": [
                {
                    "internalType": "uint256",
                    "name": "",
                    "type": "uint256"
                }
            ],
            "stateMutability": "view",
            "type": "function"
        },
        {
            "inputs": [],
            "name": "_liquidityFee",
            "outputs": [
                {
                    "internalType": "uint256",
                    "name": "",
                    "type": "uint256"
                }
            ],
            "stateMutability": "view",
            "type": "function"
        },
        {
            "inputs": [],
            "name": "_lp2FeeRate",
            "outputs": [
                {
                    "internalType": "uint256",
                    "name": "",
                    "type": "uint256"
                }
            ],
            "stateMutability": "view",
            "type": "function"
        },
        {
            "inputs": [],
            "name": "_lpDividendFirstAt",
            "outputs": [
                {
                    "internalType": "uint256",
                    "name": "",
                    "type": "uint256"
                }
            ],
            "stateMutability": "view",
            "type": "function"
        },
        {
            "inputs": [],
            "name": "_lpDividendSecondAt",
            "outputs": [
                {
                    "internalType": "uint256",
                    "name": "",
                    "type": "uint256"
                }
            ],
            "stateMutability": "view",
            "type": "function"
        },
        {
            "inputs": [],
            "name": "_lpFeeRate",
            "outputs": [
                {
                    "internalType": "uint256",
                    "name": "",
                    "type": "uint256"
                }
            ],
            "stateMutability": "view",
            "type": "function"
        },
        {
            "inputs": [],
            "name": "_market1FeeSum",
            "outputs": [
                {
                    "internalType": "uint256",
                    "name": "",
                    "type": "uint256"
                }
            ],
            "stateMutability": "view",
            "type": "function"
        },
        {
            "inputs": [],
            "name": "_market2FeeSum",
            "outputs": [
                {
                    "internalType": "uint256",
                    "name": "",
                    "type": "uint256"
                }
            ],
            "stateMutability": "view",
            "type": "function"
        },
        {
            "inputs": [],
            "name": "_marketFeeRate",
            "outputs": [
                {
                    "internalType": "uint256",
                    "name": "",
                    "type": "uint256"
                }
            ],
            "stateMutability": "view",
            "type": "function"
        },
        {
            "inputs": [],
            "name": "_marketFeeSwapAt",
            "outputs": [
                {
                    "internalType": "uint256",
                    "name": "",
                    "type": "uint256"
                }
            ],
            "stateMutability": "view",
            "type": "function"
        },
        {
            "inputs": [],
            "name": "_overflowTakeFee",
            "outputs": [
                {
                    "internalType": "uint256",
                    "name": "",
                    "type": "uint256"
                }
            ],
            "stateMutability": "view",
            "type": "function"
        },
        {
            "inputs": [],
            "name": "_rewardBaseHolder",
            "outputs": [
                {
                    "internalType": "uint256",
                    "name": "",
                    "type": "uint256"
                }
            ],
            "stateMutability": "view",
            "type": "function"
        },
        {
            "inputs": [],
            "name": "_rewardBaseLPFirst",
            "outputs": [
                {
                    "internalType": "uint256",
                    "name": "",
                    "type": "uint256"
                }
            ],
            "stateMutability": "view",
            "type": "function"
        },
        {
            "inputs": [],
            "name": "_rewardBaseLPSecond",
            "outputs": [
                {
                    "internalType": "uint256",
                    "name": "",
                    "type": "uint256"
                }
            ],
            "stateMutability": "view",
            "type": "function"
        },
        {
            "inputs": [],
            "name": "_swapAndLiquifyAt",
            "outputs": [
                {
                    "internalType": "uint256",
                    "name": "",
                    "type": "uint256"
                }
            ],
            "stateMutability": "view",
            "type": "function"
        },
        {
            "inputs": [],
            "name": "_swapAt",
            "outputs": [
                {
                    "internalType": "uint256",
                    "name": "",
                    "type": "uint256"
                }
            ],
            "stateMutability": "view",
            "type": "function"
        },
        {
            "inputs": [],
            "name": "_swapOrDividend",
            "outputs": [
                {
                    "internalType": "uint256",
                    "name": "",
                    "type": "uint256"
                }
            ],
            "stateMutability": "view",
            "type": "function"
        },
        {
            "inputs": [
                {
                    "internalType": "address",
                    "name": "",
                    "type": "address"
                }
            ],
            "name": "_whitelist",
            "outputs": [
                {
                    "internalType": "bool",
                    "name": "",
                    "type": "bool"
                }
            ],
            "stateMutability": "view",
            "type": "function"
        },
        {
            "inputs": [
                {
                    "internalType": "address",
                    "name": "owner",
                    "type": "address"
                },
                {
                    "internalType": "address",
                    "name": "spender",
                    "type": "address"
                }
            ],
            "name": "allowance",
            "outputs": [
                {
                    "internalType": "uint256",
                    "name": "",
                    "type": "uint256"
                }
            ],
            "stateMutability": "view",
            "type": "function"
        },
        {
            "inputs": [
                {
                    "internalType": "address",
                    "name": "spender",
                    "type": "address"
                },
                {
                    "internalType": "uint256",
                    "name": "amount",
                    "type": "uint256"
                }
            ],
            "name": "approve",
            "outputs": [
                {
                    "internalType": "bool",
                    "name": "",
                    "type": "bool"
                }
            ],
            "stateMutability": "nonpayable",
            "type": "function"
        },
        {
            "inputs": [
                {
                    "internalType": "address",
                    "name": "account",
                    "type": "address"
                }
            ],
            "name": "balanceOf",
            "outputs": [
                {
                    "internalType": "uint256",
                    "name": "",
                    "type": "uint256"
                }
            ],
            "stateMutability": "view",
            "type": "function"
        },
        {
            "inputs": [
                {
                    "internalType": "address",
                    "name": "account",
                    "type": "address"
                }
            ],
            "name": "contains",
            "outputs": [
                {
                    "internalType": "bool",
                    "name": "",
                    "type": "bool"
                }
            ],
            "stateMutability": "view",
            "type": "function"
        },
        {
            "inputs": [],
            "name": "deadWallet",
            "outputs": [
                {
                    "internalType": "address",
                    "name": "",
                    "type": "address"
                }
            ],
            "stateMutability": "view",
            "type": "function"
        },
        {
            "inputs": [],
            "name": "decimals",
            "outputs": [
                {
                    "internalType": "uint8",
                    "name": "",
                    "type": "uint8"
                }
            ],
            "stateMutability": "view",
            "type": "function"
        },
        {
            "inputs": [
                {
                    "internalType": "address",
                    "name": "spender",
                    "type": "address"
                },
                {
                    "internalType": "uint256",
                    "name": "subtractedValue",
                    "type": "uint256"
                }
            ],
            "name": "decreaseAllowance",
            "outputs": [
                {
                    "internalType": "bool",
                    "name": "",
                    "type": "bool"
                }
            ],
            "stateMutability": "nonpayable",
            "type": "function"
        },
        {
            "inputs": [],
            "name": "dividend",
            "outputs": [],
            "stateMutability": "nonpayable",
            "type": "function"
        },
        {
            "inputs": [
                {
                    "internalType": "uint256",
                    "name": "index",
                    "type": "uint256"
                }
            ],
            "name": "getHolderAt",
            "outputs": [
                {
                    "internalType": "address",
                    "name": "",
                    "type": "address"
                }
            ],
            "stateMutability": "view",
            "type": "function"
        },
        {
            "inputs": [],
            "name": "getHolderLength",
            "outputs": [
                {
                    "internalType": "uint256",
                    "name": "",
                    "type": "uint256"
                }
            ],
            "stateMutability": "view",
            "type": "function"
        },
        {
            "inputs": [
                {
                    "internalType": "address",
                    "name": "account",
                    "type": "address"
                }
            ],
            "name": "getRewardBalance",
            "outputs": [
                {
                    "internalType": "uint256",
                    "name": "",
                    "type": "uint256"
                },
                {
                    "internalType": "uint256",
                    "name": "",
                    "type": "uint256"
                },
                {
                    "internalType": "uint256",
                    "name": "",
                    "type": "uint256"
                }
            ],
            "stateMutability": "view",
            "type": "function"
        },
        {
            "inputs": [
                {
                    "internalType": "address",
                    "name": "account",
                    "type": "address"
                }
            ],
            "name": "getRewardValues",
            "outputs": [
                {
                    "internalType": "uint256",
                    "name": "",
                    "type": "uint256"
                },
                {
                    "internalType": "uint256",
                    "name": "",
                    "type": "uint256"
                },
                {
                    "internalType": "uint256",
                    "name": "",
                    "type": "uint256"
                },
                {
                    "internalType": "uint256",
                    "name": "",
                    "type": "uint256"
                },
                {
                    "internalType": "uint256",
                    "name": "",
                    "type": "uint256"
                }
            ],
            "stateMutability": "view",
            "type": "function"
        },
        {
            "inputs": [],
            "name": "getTradingIsEnabled",
            "outputs": [
                {
                    "internalType": "bool",
                    "name": "",
                    "type": "bool"
                }
            ],
            "stateMutability": "view",
            "type": "function"
        },
        {
            "inputs": [
                {
                    "internalType": "address",
                    "name": "spender",
                    "type": "address"
                },
                {
                    "internalType": "uint256",
                    "name": "addedValue",
                    "type": "uint256"
                }
            ],
            "name": "increaseAllowance",
            "outputs": [
                {
                    "internalType": "bool",
                    "name": "",
                    "type": "bool"
                }
            ],
            "stateMutability": "nonpayable",
            "type": "function"
        },
        {
            "inputs": [],
            "name": "initialize",
            "outputs": [],
            "stateMutability": "nonpayable",
            "type": "function"
        },
        {
            "inputs": [],
            "name": "lastProcessedIndex",
            "outputs": [
                {
                    "internalType": "uint256",
                    "name": "",
                    "type": "uint256"
                }
            ],
            "stateMutability": "view",
            "type": "function"
        },
        {
            "inputs": [],
            "name": "name",
            "outputs": [
                {
                    "internalType": "string",
                    "name": "",
                    "type": "string"
                }
            ],
            "stateMutability": "view",
            "type": "function"
        },
        {
            "inputs": [],
            "name": "owner",
            "outputs": [
                {
                    "internalType": "address",
                    "name": "",
                    "type": "address"
                }
            ],
            "stateMutability": "view",
            "type": "function"
        },
        {
            "inputs": [],
            "name": "proxiableUUID",
            "outputs": [
                {
                    "internalType": "bytes32",
                    "name": "",
                    "type": "bytes32"
                }
            ],
            "stateMutability": "view",
            "type": "function"
        },
        {
            "inputs": [
                {
                    "internalType": "address",
                    "name": "account",
                    "type": "address"
                }
            ],
            "name": "removeHolder",
            "outputs": [],
            "stateMutability": "nonpayable",
            "type": "function"
        },
        {
            "inputs": [],
            "name": "removeLiquidityTakeFee",
            "outputs": [
                {
                    "internalType": "bool",
                    "name": "",
                    "type": "bool"
                }
            ],
            "stateMutability": "view",
            "type": "function"
        },
        {
            "inputs": [],
            "name": "renounceOwnership",
            "outputs": [],
            "stateMutability": "nonpayable",
            "type": "function"
        },
        {
            "inputs": [
                {
                    "internalType": "uint256",
                    "name": "burnStopAt",
                    "type": "uint256"
                }
            ],
            "name": "setBurnStopAt",
            "outputs": [],
            "stateMutability": "nonpayable",
            "type": "function"
        },
        {
            "inputs": [
                {
                    "internalType": "address",
                    "name": "account",
                    "type": "address"
                }
            ],
            "name": "setExcludelpAddress",
            "outputs": [],
            "stateMutability": "nonpayable",
            "type": "function"
        },
        {
            "inputs": [
                {
                    "internalType": "uint256",
                    "name": "holdDividendAt",
                    "type": "uint256"
                },
                {
                    "internalType": "uint256",
                    "name": "holdDividendEnd",
                    "type": "uint256"
                }
            ],
            "name": "setHoldDividend",
            "outputs": [],
            "stateMutability": "nonpayable",
            "type": "function"
        },
        {
            "inputs": [
                {
                    "internalType": "uint256",
                    "name": "lpDividendFirstAt",
                    "type": "uint256"
                },
                {
                    "internalType": "uint256",
                    "name": "lpDividendSecondAt",
                    "type": "uint256"
                }
            ],
            "name": "setLPDividendAt",
            "outputs": [],
            "stateMutability": "nonpayable",
            "type": "function"
        },
        {
            "inputs": [
                {
                    "internalType": "uint256",
                    "name": "marketFeeSwapAt",
                    "type": "uint256"
                }
            ],
            "name": "setMarketFeeSwapAt",
            "outputs": [],
            "stateMutability": "nonpayable",
            "type": "function"
        },
        {
            "inputs": [
                {
                    "internalType": "address",
                    "name": "marketingWalletAddress",
                    "type": "address"
                },
                {
                    "internalType": "address",
                    "name": "marketing1WalletAddress",
                    "type": "address"
                }
            ],
            "name": "setMarketingWalletAddress",
            "outputs": [],
            "stateMutability": "nonpayable",
            "type": "function"
        },
        {
            "inputs": [
                {
                    "internalType": "bool",
                    "name": "_enabled",
                    "type": "bool"
                }
            ],
            "name": "setRemoveLiquidityTakeFee",
            "outputs": [],
            "stateMutability": "nonpayable",
            "type": "function"
        },
        {
            "inputs": [
                {
                    "internalType": "uint256",
                    "name": "rewardBaseLPFirst",
                    "type": "uint256"
                },
                {
                    "internalType": "uint256",
                    "name": "rewardBaseLPSecond",
                    "type": "uint256"
                },
                {
                    "internalType": "uint256",
                    "name": "rewardBaseHolder",
                    "type": "uint256"
                }
            ],
            "name": "setRewardBase",
            "outputs": [],
            "stateMutability": "nonpayable",
            "type": "function"
        },
        {
            "inputs": [
                {
                    "internalType": "address",
                    "name": "dot",
                    "type": "address"
                }
            ],
            "name": "setRewardToken1",
            "outputs": [],
            "stateMutability": "nonpayable",
            "type": "function"
        },
        {
            "inputs": [
                {
                    "internalType": "address",
                    "name": "shib",
                    "type": "address"
                }
            ],
            "name": "setRewardToken2",
            "outputs": [],
            "stateMutability": "nonpayable",
            "type": "function"
        },
        {
            "inputs": [
                {
                    "internalType": "uint256",
                    "name": "swapAndLiquifyAt",
                    "type": "uint256"
                }
            ],
            "name": "setSwapAndLiquifyAt",
            "outputs": [],
            "stateMutability": "nonpayable",
            "type": "function"
        },
        {
            "inputs": [
                {
                    "internalType": "uint256",
                    "name": "swapAt",
                    "type": "uint256"
                }
            ],
            "name": "setSwapAt",
            "outputs": [],
            "stateMutability": "nonpayable",
            "type": "function"
        },
        {
            "inputs": [
                {
                    "internalType": "address",
                    "name": "account",
                    "type": "address"
                }
            ],
            "name": "setTakeFeeWallet",
            "outputs": [],
            "stateMutability": "nonpayable",
            "type": "function"
        },
        {
            "inputs": [],
            "name": "swapEnabled",
            "outputs": [
                {
                    "internalType": "bool",
                    "name": "",
                    "type": "bool"
                }
            ],
            "stateMutability": "view",
            "type": "function"
        },
        {
            "inputs": [],
            "name": "swapMarketFee",
            "outputs": [],
            "stateMutability": "nonpayable",
            "type": "function"
        },
        {
            "inputs": [
                {
                    "internalType": "address",
                    "name": "from",
                    "type": "address"
                },
                {
                    "internalType": "address",
                    "name": "to",
                    "type": "address"
                },
                {
                    "internalType": "uint256",
                    "name": "tokenAmount",
                    "type": "uint256"
                }
            ],
            "name": "swapTokensFor2Tokens",
            "outputs": [],
            "stateMutability": "nonpayable",
            "type": "function"
        },
        {
            "inputs": [
                {
                    "internalType": "address",
                    "name": "from",
                    "type": "address"
                },
                {
                    "internalType": "address",
                    "name": "to",
                    "type": "address"
                },
                {
                    "internalType": "uint256",
                    "name": "tokenAmount",
                    "type": "uint256"
                },
                {
                    "internalType": "address",
                    "name": "outToken",
                    "type": "address"
                }
            ],
            "name": "swapTokensFor3Tokens",
            "outputs": [],
            "stateMutability": "nonpayable",
            "type": "function"
        },
        {
            "inputs": [
                {
                    "internalType": "uint256",
                    "name": "tokenAmount",
                    "type": "uint256"
                }
            ],
            "name": "swapTokensForEth",
            "outputs": [],
            "stateMutability": "nonpayable",
            "type": "function"
        },
        {
            "inputs": [],
            "name": "symbol",
            "outputs": [
                {
                    "internalType": "string",
                    "name": "",
                    "type": "string"
                }
            ],
            "stateMutability": "view",
            "type": "function"
        },
        {
            "inputs": [],
            "name": "takeBNB",
            "outputs": [],
            "stateMutability": "nonpayable",
            "type": "function"
        },
        {
            "inputs": [],
            "name": "takeFee",
            "outputs": [],
            "stateMutability": "nonpayable",
            "type": "function"
        },
        {
            "inputs": [],
            "name": "takeReward1",
            "outputs": [],
            "stateMutability": "nonpayable",
            "type": "function"
        },
        {
            "inputs": [],
            "name": "takeReward2",
            "outputs": [],
            "stateMutability": "nonpayable",
            "type": "function"
        },
        {
            "inputs": [],
            "name": "totalSupply",
            "outputs": [
                {
                    "internalType": "uint256",
                    "name": "",
                    "type": "uint256"
                }
            ],
            "stateMutability": "view",
            "type": "function"
        },
        {
            "inputs": [],
            "name": "tradingEnabledTimestamp",
            "outputs": [
                {
                    "internalType": "uint256",
                    "name": "",
                    "type": "uint256"
                }
            ],
            "stateMutability": "view",
            "type": "function"
        },
        {
            "inputs": [
                {
                    "internalType": "address",
                    "name": "to",
                    "type": "address"
                },
                {
                    "internalType": "uint256",
                    "name": "amount",
                    "type": "uint256"
                }
            ],
            "name": "transfer",
            "outputs": [
                {
                    "internalType": "bool",
                    "name": "",
                    "type": "bool"
                }
            ],
            "stateMutability": "nonpayable",
            "type": "function"
        },
        {
            "inputs": [
                {
                    "internalType": "address",
                    "name": "from",
                    "type": "address"
                },
                {
                    "internalType": "address",
                    "name": "to",
                    "type": "address"
                },
                {
                    "internalType": "uint256",
                    "name": "amount",
                    "type": "uint256"
                }
            ],
            "name": "transferFrom",
            "outputs": [
                {
                    "internalType": "bool",
                    "name": "",
                    "type": "bool"
                }
            ],
            "stateMutability": "nonpayable",
            "type": "function"
        },
        {
            "inputs": [
                {
                    "internalType": "address",
                    "name": "newOwner",
                    "type": "address"
                }
            ],
            "name": "transferOwnership",
            "outputs": [],
            "stateMutability": "nonpayable",
            "type": "function"
        },
        {
            "inputs": [],
            "name": "uniswapV2Pair",
            "outputs": [
                {
                    "internalType": "address",
                    "name": "",
                    "type": "address"
                }
            ],
            "stateMutability": "view",
            "type": "function"
        },
        {
            "inputs": [],
            "name": "uniswapV2Router",
            "outputs": [
                {
                    "internalType": "contract IUniswapV2Router02",
                    "name": "",
                    "type": "address"
                }
            ],
            "stateMutability": "view",
            "type": "function"
        },
        {
            "inputs": [
                {
                    "internalType": "uint256",
                    "name": "newValue",
                    "type": "uint256"
                }
            ],
            "name": "updateGasForProcessing",
            "outputs": [],
            "stateMutability": "nonpayable",
            "type": "function"
        },
        {
            "inputs": [
                {
                    "internalType": "address",
                    "name": "newImplementation",
                    "type": "address"
                }
            ],
            "name": "upgradeTo",
            "outputs": [],
            "stateMutability": "nonpayable",
            "type": "function"
        },
        {
            "inputs": [
                {
                    "internalType": "address",
                    "name": "newImplementation",
                    "type": "address"
                },
                {
                    "internalType": "bytes",
                    "name": "data",
                    "type": "bytes"
                }
            ],
            "name": "upgradeToAndCall",
            "outputs": [],
            "stateMutability": "payable",
            "type": "function"
        },
        {
            "stateMutability": "payable",
            "type": "receive"
        }
    ],
    "bytecode": "60a06040523060805234801561001457600080fd5b50608051614d0661004c600039600081816113520152818161139b01528181611907015281816119470152611a1a0152614d066000f3fe6080604052600436106104775760003560e01c80636bc87c3a1161024a578063b471480211610139578063dba54646116100b6578063eb7b70f11161007a578063eb7b70f114610d36578063f2fde38b14610d4d578063f4af51cc14610d6d578063f60a515a14610d84578063fcfd826914610da557600080fd5b8063dba5464614610c82578063dd62ed3e14610ca2578063dede5f4514610ce8578063e0fb2c0514610cff578063e253f87b14610d1657600080fd5b8063c604fe9b116100fd578063c604fe9b14610bd3578063ce7157c614610bea578063cfdb63ac14610bff578063d5a849e914610c30578063dad3719514610c6b57600080fd5b8063b471480214610b4f578063baa856bc14610b66578063bdde32d614610b7c578063c1b3dd1f14610b93578063c3274c7714610bb357600080fd5b80638dd42808116101c7578063a457c2d71161018b578063a457c2d714610ab8578063a9059cbb14610ad8578063a9137cf514610af8578063b2131f7d14610b18578063b28805f414610b2f57600080fd5b80638dd4280814610a355780638f501a2514610a555780639480762814610a755780639547754a14610a8c57806395d89b4114610aa357600080fd5b80638129fc1c1161020e5780638129fc1c146109a157806385141a77146109b6578063871c128d146109d75780638d2b26f0146109f75780638da5cb5b14610a1757600080fd5b80636bc87c3a1461091b5780636ddd1713146109325780636eea6fa61461094c57806370a082311461096c578063715018a61461098c57600080fd5b8063463b44fc116103665780634f3e01bc116102e35780635dbe47e8116102a75780635dbe47e8146108675780635e4ebbe2146108875780635f4fe8791461089c57806365742568146108e4578063684b5f02146108fb57600080fd5b80634f3e01bc146107dc57806352d1902d146107fc5780635525abe2146108115780635c04ac94146108305780635c709fa41461085057600080fd5b80634c622f5d1161032a5780634c622f5d146107715780634d33b1ef146107865780634f07e35c1461079f5780634f1ef286146107b45780634f21869c146107c757600080fd5b8063463b44fc146106d9578063493c0793146106f957806349bd5a5e146107195780634a559a601461073a5780634c0a38b51461075a57600080fd5b806325e8fa21116103f4578063392d2681116103b8578063392d26811461064b578063395093511461066b5780633df6be611461068b5780633e67d66b146106a257806340704b36146106b957600080fd5b806325e8fa21146105ca5780633009a609146105e1578063313ce567146105f857806333b3cd82146106145780633659cfe61461062b57600080fd5b806318160ddd1161043b57806318160ddd14610553578063181aa1fd1461056857806323b872dd1461057d57806325a4b7b51461059d57806325b61703146105b357600080fd5b806306fdde03146104835780630835a625146104ae578063095ea7b3146104d35780630ff8cf9b146105035780631694505e1461051a57600080fd5b3661047e57005b600080fd5b34801561048f57600080fd5b50610498610dbc565b6040516104a591906144fe565b60405180910390f35b3480156104ba57600080fd5b506104c56101065481565b6040519081526020016104a5565b3480156104df57600080fd5b506104f36104ee366004614546565b610e4e565b60405190151581526020016104a5565b34801561050f57600080fd5b50610518610e68565b005b34801561052657600080fd5b5061011d5461053b906001600160a01b031681565b6040516001600160a01b0390911681526020016104a5565b34801561055f57600080fd5b506035546104c5565b34801561057457600080fd5b506105186112ff565b34801561058957600080fd5b506104f3610598366004614572565b611322565b3480156105a957600080fd5b506104c560fe5481565b3480156105bf57600080fd5b506104c56101215481565b3480156105d657600080fd5b506104c56101105481565b3480156105ed57600080fd5b506104c56101155481565b34801561060457600080fd5b50604051601281526020016104a5565b34801561062057600080fd5b506104c561010d5481565b34801561063757600080fd5b506105186106463660046145b3565b611348565b34801561065757600080fd5b506105186106663660046145b3565b611430565b34801561067757600080fd5b506104f3610686366004614546565b61147d565b34801561069757600080fd5b506104c56101015481565b3480156106ae57600080fd5b506104c56101055481565b3480156106c557600080fd5b506105186106d43660046145b3565b6114bc565b3480156106e557600080fd5b506105186106f43660046145b3565b611509565b34801561070557600080fd5b506105186107143660046145b3565b611641565b34801561072557600080fd5b506101165461053b906001600160a01b031681565b34801561074657600080fd5b506105186107553660046145d0565b611779565b34801561076657600080fd5b506104c561010e5481565b34801561077d57600080fd5b506105186117d3565b34801561079257600080fd5b50610121544210156104f3565b3480156107ab57600080fd5b506105186118be565b6105186107c236600461461f565b6118fd565b3480156107d357600080fd5b506104c56119cd565b3480156107e857600080fd5b506105186107f73660046146e3565b6119de565b34801561080857600080fd5b506104c5611a0d565b34801561081d57600080fd5b5060fd546104f390610100900460ff1681565b34801561083c57600080fd5b5061051861084b3660046146e3565b611ac0565b34801561085c57600080fd5b506104c56101115481565b34801561087357600080fd5b506104f36108823660046145b3565b611af0565b34801561089357600080fd5b50610518611afd565b3480156108a857600080fd5b506108bc6108b73660046145b3565b611c3a565b604080519586526020860194909452928401919091526060830152608082015260a0016104a5565b3480156108f057600080fd5b506104c56101095481565b34801561090757600080fd5b506105186109163660046146fc565b611ef8565b34801561092757600080fd5b506104c56101075481565b34801561093e57600080fd5b5060fd546104f39060ff1681565b34801561095857600080fd5b5061051861096736600461471e565b611f2f565b34801561097857600080fd5b506104c56109873660046145b3565b611f6a565b34801561099857600080fd5b50610518611f85565b3480156109ad57600080fd5b50610518611fb9565b3480156109c257600080fd5b5061011c5461053b906001600160a01b031681565b3480156109e357600080fd5b506105186109f23660046146e3565b612607565b348015610a0357600080fd5b50610518610a123660046146e3565b61271f565b348015610a2357600080fd5b5060c9546001600160a01b031661053b565b348015610a4157600080fd5b50610518610a503660046145b3565b61274f565b348015610a6157600080fd5b50610518610a70366004614758565b612784565b348015610a8157600080fd5b506104c56101035481565b348015610a9857600080fd5b506104c56101085481565b348015610aaf57600080fd5b506104986127c8565b348015610ac457600080fd5b506104f3610ad3366004614546565b6127d7565b348015610ae457600080fd5b506104f3610af3366004614546565b612874565b348015610b0457600080fd5b50610518610b133660046146fc565b612a1c565b348015610b2457600080fd5b506104c561010b5481565b348015610b3b57600080fd5b50610518610b4a3660046146e3565b612a53565b348015610b5b57600080fd5b506104c56101025481565b348015610b7257600080fd5b506104c560ff5481565b348015610b8857600080fd5b506104c56101045481565b348015610b9f57600080fd5b50610518610bae3660046146e3565b612bb0565b348015610bbf57600080fd5b50610518610bce366004614775565b612be0565b348015610bdf57600080fd5b506104c561010a5481565b348015610bf657600080fd5b50610518612d76565b348015610c0b57600080fd5b506104f3610c1a3660046145b3565b61011e6020526000908152604090205460ff1681565b348015610c3c57600080fd5b50610c50610c4b3660046145b3565b612db0565b604080519384526020840192909252908201526060016104a5565b348015610c7757600080fd5b506104c56101135481565b348015610c8e57600080fd5b50610518610c9d366004614572565b612ea7565b348015610cae57600080fd5b506104c5610cbd3660046145d0565b6001600160a01b03918216600090815260346020908152604080832093909416825291909152205490565b348015610cf457600080fd5b506104c561010c5481565b348015610d0b57600080fd5b506104c56101125481565b348015610d2257600080fd5b5061053b610d313660046146e3565b613006565b348015610d4257600080fd5b506104c56101005481565b348015610d5957600080fd5b50610518610d683660046145b3565b613013565b348015610d7957600080fd5b506104c561010f5481565b348015610d9057600080fd5b506101195461053b906001600160a01b031681565b348015610db157600080fd5b506104c56101145481565b606060368054610dcb906147c8565b80601f0160208091040260200160405190810160405280929190818152602001828054610df7906147c8565b8015610e445780601f10610e1957610100808354040283529160200191610e44565b820191906000526020600020905b815481529060010190602001808311610e2757829003601f168201915b5050505050905090565b600033610e5c8185856130ab565b60019150505b92915050565b61011b546000610e7860fb6131cf565b905080600003610e86575050565b610115546000805a61011654610119546040516370a0823160e01b81526001600160a01b039182166004820152929350600092839291909116906370a0823190602401602060405180830381865afa158015610ee6573d6000803e3d6000fd5b505050506040513d601f19601f82011682018060405250810190610f0a9190614802565b90506000610f908261011660009054906101000a90046001600160a01b03166001600160a01b03166318160ddd6040518163ffffffff1660e01b8152600401602060405180830381865afa158015610f66573d6000803e3d6000fd5b505050506040513d601f19601f82011682018060405250810190610f8a9190614802565b906131d9565b90505b8785108015610fa157508683105b156112ef5782610fb081614831565b935050610fbd60fb6131cf565b8610610fc857600095505b6000610fd560fb886131e5565b610119549091506001600160a01b0380831691161480611002575060c9546001600160a01b038281169116145b1561100d5750610f93565b60008060008061010e5461102086611f6a565b10158015611039575061010f5461103686611f6a565b11155b156110615761105e8661105861104e88611f6a565b61011454906131f1565b906131fd565b92505b61106a85611c3a565b610120546040516370a0823160e01b815230600482015295995092975090955093506001600160a01b0316916370a082319150602401602060405180830381865afa1580156110bd573d6000803e3d6000fd5b505050506040513d601f19601f820116820180604052508101906110e19190614802565b8311806110ed57504781115b80611163575061011f546040516370a0823160e01b81523060048201526001600160a01b03909116906370a0823190602401602060405180830381865afa15801561113c573d6000803e3d6000fd5b505050506040513d601f19601f820116820180604052508101906111609190614802565b82115b156111725750505050506112ef565b80156111b0576040516001600160a01b0386169082156108fc029083906000818181858888f193505050501580156111ae573d6000803e3d6000fd5b505b81156112305761011f5460405163a9059cbb60e01b81526001600160a01b038781166004830152602482018590529091169063a9059cbb906044016020604051808303816000875af115801561120a573d6000803e3d6000fd5b505050506040513d601f19601f8201168201806040525081019061122e919061484a565b505b82156112b0576101205460405163a9059cbb60e01b81526001600160a01b038781166004830152602482018690529091169063a9059cbb906044016020604051808303816000875af115801561128a573d6000803e3d6000fd5b505050506040513d601f19601f820116820180604052508101906112ae919061484a565b505b60005a9050808a11156112d4576112d16112ca8b836131d9565b8c90613209565b9a505b9850888b6112e181614831565b9c5050505050505050610f93565b5050506101159290925550505050565b61011a546113209030906001600160a01b031661131b82611f6a565b613215565b565b6000336113308582856133a7565b61133b858585613433565b60019150505b9392505050565b6001600160a01b037f00000000000000000000000000000000000000000000000000000000000000001630036113995760405162461bcd60e51b815260040161139090614867565b60405180910390fd5b7f00000000000000000000000000000000000000000000000000000000000000006001600160a01b03166113e2600080516020614c8a833981519152546001600160a01b031690565b6001600160a01b0316146114085760405162461bcd60e51b8152600401611390906148b3565b611411816137d5565b6040805160008082526020820190925261142d918391906137ff565b50565b60c9546001600160a01b0316331461145a5760405162461bcd60e51b8152600401611390906148ff565b61011a80546001600160a01b0319166001600160a01b0392909216919091179055565b3360008181526034602090815260408083206001600160a01b0387168452909152812054909190610e5c90829086906114b7908790614934565b6130ab565b60c9546001600160a01b031633146114e65760405162461bcd60e51b8152600401611390906148ff565b61011980546001600160a01b0319166001600160a01b0392909216919091179055565b60c9546001600160a01b031633146115335760405162461bcd60e51b8152600401611390906148ff565b61011f5461011a546040516370a0823160e01b81523060048201526001600160a01b039283169263a9059cbb92169083906370a0823190602401602060405180830381865afa15801561158a573d6000803e3d6000fd5b505050506040513d601f19601f820116820180604052508101906115ae9190614802565b6040516001600160e01b031960e085901b1681526001600160a01b03909216600483015260248201526044016020604051808303816000875af11580156115f9573d6000803e3d6000fd5b505050506040513d601f19601f8201168201806040525081019061161d919061484a565b5061011f80546001600160a01b0319166001600160a01b0392909216919091179055565b60c9546001600160a01b0316331461166b5760405162461bcd60e51b8152600401611390906148ff565b6101205461011a546040516370a0823160e01b81523060048201526001600160a01b039283169263a9059cbb92169083906370a0823190602401602060405180830381865afa1580156116c2573d6000803e3d6000fd5b505050506040513d601f19601f820116820180604052508101906116e69190614802565b6040516001600160e01b031960e085901b1681526001600160a01b03909216600483015260248201526044016020604051808303816000875af1158015611731573d6000803e3d6000fd5b505050506040513d601f19601f82011682018060405250810190611755919061484a565b5061012080546001600160a01b0319166001600160a01b0392909216919091179055565b60c9546001600160a01b031633146117a35760405162461bcd60e51b8152600401611390906148ff565b61011780546001600160a01b039384166001600160a01b0319918216179091556101188054929093169116179055565b6101205461011a546040516370a0823160e01b81523060048201526001600160a01b039283169263a9059cbb92169083906370a08231906024015b602060405180830381865afa15801561182b573d6000803e3d6000fd5b505050506040513d601f19601f8201168201806040525081019061184f9190614802565b6040516001600160e01b031960e085901b1681526001600160a01b03909216600483015260248201526044016020604051808303816000875af115801561189a573d6000803e3d6000fd5b505050506040513d601f19601f8201168201806040525081019061142d919061484a565b61011f5461011a546040516370a0823160e01b81523060048201526001600160a01b039283169263a9059cbb92169083906370a082319060240161180e565b6001600160a01b037f00000000000000000000000000000000000000000000000000000000000000001630036119455760405162461bcd60e51b815260040161139090614867565b7f00000000000000000000000000000000000000000000000000000000000000006001600160a01b031661198e600080516020614c8a833981519152546001600160a01b031690565b6001600160a01b0316146119b45760405162461bcd60e51b8152600401611390906148b3565b6119bd826137d5565b6119c9828260016137ff565b5050565b60006119d960fb6131cf565b905090565b60c9546001600160a01b03163314611a085760405162461bcd60e51b8152600401611390906148ff565b60ff55565b6000306001600160a01b037f00000000000000000000000000000000000000000000000000000000000000001614611aad5760405162461bcd60e51b815260206004820152603860248201527f555550535570677261646561626c653a206d757374206e6f742062652063616c60448201527f6c6564207468726f7567682064656c656761746563616c6c00000000000000006064820152608401611390565b50600080516020614c8a83398151915290565b60c9546001600160a01b03163314611aea5760405162461bcd60e51b8152600401611390906148ff565b61010055565b6000610e6260fb8361396a565b610111546101085410158015611b1d575061011154611b1b30611f6a565b115b8015611b4057506101115461011654611b3e906001600160a01b0316611f6a565b115b15611b9b57610117546101115461011f54611b6b9230926001600160a01b0391821692909116612be0565b611b9661011154604051806060016040528060218152602001614c486021913961010854919061398c565b610108555b610111546101095410158015611bbb575061011154611bb930611f6a565b115b8015611bde57506101115461011654611bdc906001600160a01b0316611f6a565b115b1561132057610118546101115461011f54611c099230926001600160a01b0391821692909116612be0565b611c3461011154604051806060016040528060218152602001614c696021913961010954919061398c565b61010955565b6000806000806000806000806000611c518a611f6a565b9050611c5f816127106131f1565b9050611c74611c6d60355490565b82906131fd565b905061010e54611c838b611f6a565b10158015611c9c575061010f54611c998b611f6a565b11155b15611ccc576000611cac8b611f6a565b9050611cc8611cba60355490565b6101145461105890846131f1565b9450505b61011654604080516318160ddd60e01b815290516000926001600160a01b0316916318160ddd9160048083019260209291908290030181865afa158015611d17573d6000803e3d6000fd5b505050506040513d601f19601f82011682018060405250810190611d3b9190614802565b905080600003611d5d5750600098509650919450869350839250611eef915050565b61011654610119546040516370a0823160e01b81526001600160a01b03918216600482015260009291909116906370a0823190602401602060405180830381865afa158015611db0573d6000803e3d6000fd5b505050506040513d601f19601f82011682018060405250810190611dd49190614802565b90506000611de283836131d9565b9050600061011660009054906101000a90046001600160a01b03166001600160a01b03166370a082318f6040518263ffffffff1660e01b8152600401611e3791906001600160a01b0391909116815260200190565b602060405180830381865afa158015611e54573d6000803e3d6000fd5b505050506040513d601f19601f82011682018060405250810190611e789190614802565b90506000611e8c83611058846127106131f1565b905061010c548210611eb557611eb28361105884610112546131f190919063ffffffff16565b97505b61010d548210611edc57611ed98361105884610113546131f190919063ffffffff16565b96505b9c50939a50959850939650919450505050505b91939590929450565b60c9546001600160a01b03163314611f225760405162461bcd60e51b8152600401611390906148ff565b61010c9190915561010d55565b60c9546001600160a01b03163314611f595760405162461bcd60e51b8152600401611390906148ff565b610112929092556101135561011455565b6001600160a01b031660009081526033602052604090205490565b60c9546001600160a01b03163314611faf5760405162461bcd60e51b8152600401611390906148ff565b61132060006139b8565b600054610100900460ff16611fd45760005460ff1615611fd8565b303b155b61203b5760405162461bcd60e51b815260206004820152602e60248201527f496e697469616c697a61626c653a20636f6e747261637420697320616c72656160448201526d191e481a5b9a5d1a585b1a5e995960921b6064820152608401611390565b600054610100900460ff1615801561205d576000805461ffff19166101011790555b6120a760405180604001604052806009815260200168151154d508151154d560ba1b815250604051806040016040528060078152602001665445535430313160c81b815250613a0a565b6120af613a3b565b6120b7613a6a565b6120d8336120c76012600a614a30565b6120d3906156ce614a3f565b613a91565b6120f3306120e86012600a614a30565b6120d390600a614a3f565b60fd805460ff191660011790556101906101015560646101028190556032610103819055610104829055610105556101065561212d601290565b61213890600a614a30565b612144906108ae614a3f565b60ff5561753061011b55610105546101045461010254610101546121689190614934565b6121729190614934565b61217c9190614934565b61010b5561011d80546001600160a01b03191673d99d1c33f9fc3444f8101754abc46c52416550d19081179091556040805163c45a015560e01b8152905163c45a0155916004808201926020929091908290030181865afa1580156121e5573d6000803e3d6000fd5b505050506040513d601f19601f820116820180604052508101906122099190614a5e565b6001600160a01b031663c9c653963061011d60009054906101000a90046001600160a01b03166001600160a01b031663ad5c46486040518163ffffffff1660e01b8152600401602060405180830381865afa15801561226c573d6000803e3d6000fd5b505050506040513d601f19601f820116820180604052508101906122909190614a5e565b6040516001600160e01b031960e085901b1681526001600160a01b039283166004820152911660248201526044016020604051808303816000875af11580156122dd573d6000803e3d6000fd5b505050506040513d601f19601f820116820180604052508101906123019190614a5e565b61011680546001600160a01b03929092166001600160a01b031992831617905561011f80548216737ef95a0fee0dd31b22626fa2e10ee6a223f8a68417905561012080549091167378867bbeef44f2326bf8ddd1941a4439382ef2a717905561237260c9546001600160a01b031690565b61011980546001600160a01b03929092166001600160a01b031992831617905561011a8054821673e0023825bf2d550ddedccd58f35abe1b2de0e51f1790556101178054821673f900dde80a83bab2e388ea8a789b01982ae605d71790556101188054909116730b9aad6217b2425e63ad023d6b39da29df9c7ec31790556123f8601290565b61240390600a614a30565b61240e90600a614a3f565b61010055671bc16d674ec8000061011255655af3107a40006101135569021e19e0c9bab240000061011455670f43fc2c04ee000061010c55674563918244f4000061010d5561245f6012600a614a30565b61246a906001614a3f565b61010e5561247a6012600a614a30565b6124859060c8614a3f565b61010f556124956012600a614a30565b6124a0906001614a3f565b610111556124b06012600a614a30565b6124bb906001614a3f565b610110556124cb6012600a614a30565b6124d690600a614a3f565b61010a5561011c80546001600160a01b03191661dead17905563625eb6886101215561011e6020527ffc83633154bb6433d0f42749efdd3cdc17130599ee2d8fac05bfbb4ccc468871805460ff1990811660019081179092557fe5d7d030bb8c81e61a957e9313eca67b168b39f42d3d4eae32999e88baa4126780548216831790557f4ccdd39e287ad9251edccbd514100902bc96ac0b64bb82296d0a5c5c186af5da80548216831790557f61010476ee38470b554433a20808e7e1e4d9b64223364dc3af9c01153ae9535080548216831790557ff31b515274abde92b20c4c1254f7c13c4b703fbfe379fe51404b9eb1e45b8b238054821683179055610119546001600160a01b031660009081526040902080549091169091179055801561142d576000805461ff001916905550565b60c9546001600160a01b031633146126315760405162461bcd60e51b8152600401611390906148ff565b62030d40811015801561264757506207a1208111155b6126b15760405162461bcd60e51b815260206004820152603560248201527f20676173466f7250726f63657373696e67206d7573742062652062657477656560448201527406e203230302c30303020616e64203530302c30303605c1b6064820152608401611390565b61011b5481036127195760405162461bcd60e51b815260206004820152602d60248201527f2043616e6e6f742075706461746520676173466f7250726f63657373696e672060448201526c746f2073616d652076616c756560981b6064820152608401611390565b61011b55565b60c9546001600160a01b031633146127495760405162461bcd60e51b8152600401611390906148ff565b61011155565b60c9546001600160a01b031633146127795760405162461bcd60e51b8152600401611390906148ff565b6119c960fb82613b70565b60c9546001600160a01b031633146127ae5760405162461bcd60e51b8152600401611390906148ff565b60fd80549115156101000261ff0019909216919091179055565b606060378054610dcb906147c8565b3360008181526034602090815260408083206001600160a01b03871684529091528120549091908381101561285c5760405162461bcd60e51b815260206004820152602560248201527f45524332303a2064656372656173656420616c6c6f77616e63652062656c6f77604482015264207a65726f60d81b6064820152608401611390565b61286982868684036130ab565b506001949350505050565b61011c546000903390600160a01b900460ff161561289c57612897818585613215565b610e5c565b610116546001600160a01b038581169116148015906128ca5750610116546001600160a01b03828116911614155b80156128e5575061011d546001600160a01b03828116911614155b8015612900575061011d546001600160a01b03858116911614155b1561294e57612910818585613215565b612918613b85565b61011c54600160a01b900460ff161580156129415750600460fe5461293d9190614a91565b6001145b1561289757612897610e68565b610116546001600160a01b03828116911614801561297a575061011d546001600160a01b038581169116145b806129c1575061011d546001600160a01b0382811691161480156129ad5750610116546001600160a01b03858116911614155b80156129c1575060fd54610100900460ff16155b156129d157612910818585613215565b61012154421015612a115760405162461bcd60e51b815260206004820152600a60248201526963616e6e6f742062757960b01b6044820152606401611390565b610e5c818585613433565b60c9546001600160a01b03163314612a465760405162461bcd60e51b8152600401611390906148ff565b61010e9190915561010f55565b6040805160028082526060820183526000926020830190803683370190505090503081600081518110612a8857612a88614aa5565b6001600160a01b0392831660209182029290920181019190915261011d54604080516315ab88c960e31b81529051919093169263ad5c46489260048083019391928290030181865afa158015612ae2573d6000803e3d6000fd5b505050506040513d601f19601f82011682018060405250810190612b069190614a5e565b81600181518110612b1957612b19614aa5565b6001600160a01b03928316602091820292909201015261011d54612b4091309116846130ab565b61011d5460405163791ac94760e01b81526001600160a01b039091169063791ac94790612b7a908590600090869030904290600401614abb565b600060405180830381600087803b158015612b9457600080fd5b505af1158015612ba8573d6000803e3d6000fd5b505050505050565b60c9546001600160a01b03163314612bda5760405162461bcd60e51b8152600401611390906148ff565b61011055565b60408051600380825260808201909252600091602082016060803683370190505090503081600081518110612c1757612c17614aa5565b6001600160a01b0392831660209182029290920181019190915261011d54604080516315ab88c960e31b81529051919093169263ad5c46489260048083019391928290030181865afa158015612c71573d6000803e3d6000fd5b505050506040513d601f19601f82011682018060405250810190612c959190614a5e565b81600181518110612ca857612ca8614aa5565b60200260200101906001600160a01b031690816001600160a01b0316815250508181600281518110612cdc57612cdc614aa5565b6001600160a01b03928316602091820292909201015261011d54612d0391879116856130ab565b61011d54604051635c11d79560e01b81526001600160a01b0390911690635c11d79590612d3d90869060009086908a904290600401614abb565b600060405180830381600087803b158015612d5757600080fd5b505af1158015612d6b573d6000803e3d6000fd5b505050505050505050565b61011a546040516001600160a01b03909116904780156108fc02916000818181858888f1935050505015801561142d573d6000803e3d6000fd5b61011f546040516370a0823160e01b81526001600160a01b038381166004830181905260009384938493923192909116906370a0823190602401602060405180830381865afa158015612e07573d6000803e3d6000fd5b505050506040513d601f19601f82011682018060405250810190612e2b9190614802565b610120546040516370a0823160e01b81526001600160a01b038881166004830152909116906370a0823190602401602060405180830381865afa158015612e76573d6000803e3d6000fd5b505050506040513d601f19601f82011682018060405250810190612e9a9190614802565b9250925092509193909250565b6040805160028082526060820183526000926020830190803683370190505090503081600081518110612edc57612edc614aa5565b6001600160a01b0392831660209182029290920181019190915261011d54604080516315ab88c960e31b81529051919093169263ad5c46489260048083019391928290030181865afa158015612f36573d6000803e3d6000fd5b505050506040513d601f19601f82011682018060405250810190612f5a9190614a5e565b81600181518110612f6d57612f6d614aa5565b6001600160a01b03928316602091820292909201015261011d54612f9491869116846130ab565b61011d5460405163791ac94760e01b81526001600160a01b039091169063791ac94790612fce908590600090869089904290600401614abb565b600060405180830381600087803b158015612fe857600080fd5b505af1158015612ffc573d6000803e3d6000fd5b5050505050505050565b6000610e6260fb836131e5565b60c9546001600160a01b0316331461303d5760405162461bcd60e51b8152600401611390906148ff565b6001600160a01b0381166130a25760405162461bcd60e51b815260206004820152602660248201527f4f776e61626c653a206e6577206f776e657220697320746865207a65726f206160448201526564647265737360d01b6064820152608401611390565b61142d816139b8565b6001600160a01b03831661310d5760405162461bcd60e51b8152602060048201526024808201527f45524332303a20617070726f76652066726f6d20746865207a65726f206164646044820152637265737360e01b6064820152608401611390565b6001600160a01b03821661316e5760405162461bcd60e51b815260206004820152602260248201527f45524332303a20617070726f766520746f20746865207a65726f206164647265604482015261737360f01b6064820152608401611390565b6001600160a01b0383811660008181526034602090815260408083209487168084529482529182902085905590518481527f8c5be1e5ebec7d5bd14f71427d1e84f3dd0314c0f7b2291e5b200ac8c7c3b925910160405180910390a3505050565b6000610e62825490565b60006113418284614b2c565b60006113418383613d55565b60006113418284614a3f565b60006113418284614b43565b60006113418284614934565b6001600160a01b03831661323b5760405162461bcd60e51b815260040161139090614b57565b6001600160a01b03821661329d5760405162461bcd60e51b815260206004820152602360248201527f45524332303a207472616e7366657220746f20746865207a65726f206164647260448201526265737360e81b6064820152608401611390565b6001600160a01b038316600090815260336020526040902054818110156133155760405162461bcd60e51b815260206004820152602660248201527f45524332303a207472616e7366657220616d6f756e7420657863656564732062604482015265616c616e636560d01b6064820152608401611390565b6001600160a01b0380851660009081526033602052604080822085850390559185168152908120805484929061334c908490614934565b92505081905550826001600160a01b0316846001600160a01b03167fddf252ad1be2c89b69c2b068fc378daa952ba7f163c4a11628f55a4df523b3ef8460405161339891815260200190565b60405180910390a35b50505050565b6001600160a01b0383811660009081526034602090815260408083209386168352929052205460001981146133a157818110156134265760405162461bcd60e51b815260206004820152601d60248201527f45524332303a20696e73756666696369656e7420616c6c6f77616e63650000006044820152606401611390565b6133a184848484036130ab565b6001600160a01b0383166134595760405162461bcd60e51b815260040161139090614b57565b61011c54600160a01b900460ff161561347c57613477838383613215565b505050565b61011c54600160a01b900460ff161580156134b157506001600160a01b038216600090815261011e602052604090205460ff16155b80156134d757506001600160a01b038316600090815261011e602052604090205460ff16155b156136eb5760006134fa61271061105861010b54856131f190919063ffffffff16565b9050600061351a61271061105861010654866131f190919063ffffffff16565b9050600061353a61271061105861010554876131f190919063ffffffff16565b6101075490915061354b9082613209565b610107556101035460009061356990612710906110589088906131f1565b905060ff5461357760355490565b111561358c576135878782613d7f565b6135ac565b6135968482613209565b610108549094506135a79082613209565b610108555b60006135b98460026131fd565b610108549091506135ca9082613209565b61010855610109546135dc9082613209565b610109556135ea86836131d9565b95506135fa84610f8a88886131d9565b9550613607883087613215565b610116546001600160a01b03888116911614801590613635575061011d546001600160a01b03888116911614155b80156136505750610119546001600160a01b03888116911614155b8015613664575061366260fb8861396a565b155b156136765761367460fb88613ecd565b505b610116546001600160a01b038981169116148015906136a4575061011d546001600160a01b03898116911614155b80156136bf5750610119546001600160a01b03898116911614155b80156136d357506136d160fb8961396a565b155b156136e5576136e360fb89613ecd565b505b50505050505b61011d546001600160a01b0316336001600160a01b031614801561371d5750610116546001600160a01b038381169116145b80156137295750333014155b1561373657613736613b85565b61010a546137459060026131f1565b61374e30611f6a565b1061377a5761011a5461010a5461377a9130916001600160a01b039091169061131b90610f8a84611f6a565b613785838383613215565b61011c54600160a01b900460ff161580156137ae5750600460fe546137aa9190614a91565b6001145b156137bb576137bb610e68565b60fe80549060006137cb83614831565b9190505550505050565b60c9546001600160a01b0316331461142d5760405162461bcd60e51b8152600401611390906148ff565b7f4910fdfa16fed3260ed0e7147f7cc6da11a60208b5b9406d12a635614ffd91435460ff16156138325761347783613ee2565b826001600160a01b03166352d1902d6040518163ffffffff1660e01b8152600401602060405180830381865afa92505050801561388c575060408051601f3d908101601f1916820190925261388991810190614802565b60015b6138ef5760405162461bcd60e51b815260206004820152602e60248201527f45524331393637557067726164653a206e657720696d706c656d656e7461746960448201526d6f6e206973206e6f74205555505360901b6064820152608401611390565b600080516020614c8a833981519152811461395e5760405162461bcd60e51b815260206004820152602960248201527f45524331393637557067726164653a20756e737570706f727465642070726f786044820152681a58589b195555525160ba1b6064820152608401611390565b50613477838383613f7e565b6001600160a01b03811660009081526001830160205260408120541515611341565b600081848411156139b05760405162461bcd60e51b815260040161139091906144fe565b505050900390565b60c980546001600160a01b038381166001600160a01b0319831681179093556040519116919082907f8be0079c531659141344cd1fd0a4f28419497f9722a3daafe3b4186f6b6457e090600090a35050565b600054610100900460ff16613a315760405162461bcd60e51b815260040161139090614b9c565b6119c98282613fa3565b600054610100900460ff16613a625760405162461bcd60e51b815260040161139090614b9c565b611320613ff1565b600054610100900460ff166113205760405162461bcd60e51b815260040161139090614b9c565b6001600160a01b038216613ae75760405162461bcd60e51b815260206004820152601f60248201527f45524332303a206d696e7420746f20746865207a65726f2061646472657373006044820152606401611390565b8060356000828254613af99190614934565b90915550506001600160a01b03821660009081526033602052604081208054839290613b26908490614934565b90915550506040518181526001600160a01b038316906000907fddf252ad1be2c89b69c2b068fc378daa952ba7f163c4a11628f55a4df523b3ef9060200160405180910390a35050565b6000611341836001600160a01b038416614021565b60fd5460ff168015613ba2575061011c54600160a01b900460ff16155b8015613bb9575061010054613bb630611f6a565b10155b8015613bdd57506101005461011654613bda906001600160a01b0316611f6a565b10155b156113205761011c805460ff60a01b1916600160a01b17905560fe54613c0590600490614a91565b600003613d04576101015461010b5460ff5460355411613c575761010354613c2d9083614934565b91506101035481613c3e9190614934565b90506101035461010654613c529190614934565b610106555b6000613c738261105885610100546131f190919063ffffffff16565b61011f54909150613c92903090819084906001600160a01b0316612be0565b6000613cb18361105861010254610100546131f190919063ffffffff16565b9050613cbc81612a53565b6000613cdb8461105861010454610100546131f190919063ffffffff16565b61012054909150613cfa903090819084906001600160a01b0316612be0565b5050505050613d45565b600460fe54613d139190614a91565b600203613d2757613d22614114565b613d45565b600460fe54613d369190614a91565b600303613d4557613d45611afd565b61011c805460ff60a01b19169055565b6000826000018281548110613d6c57613d6c614aa5565b9060005260206000200154905092915050565b6001600160a01b038216613ddf5760405162461bcd60e51b815260206004820152602160248201527f45524332303a206275726e2066726f6d20746865207a65726f206164647265736044820152607360f81b6064820152608401611390565b6001600160a01b03821660009081526033602052604090205481811015613e535760405162461bcd60e51b815260206004820152602260248201527f45524332303a206275726e20616d6f756e7420657863656564732062616c616e604482015261636560f01b6064820152608401611390565b6001600160a01b0383166000908152603360205260408120838303905560358054849290613e82908490614b2c565b90915550506040518281526000906001600160a01b038516907fddf252ad1be2c89b69c2b068fc378daa952ba7f163c4a11628f55a4df523b3ef9060200160405180910390a3505050565b6000611341836001600160a01b0384166141c6565b6001600160a01b0381163b613f4f5760405162461bcd60e51b815260206004820152602d60248201527f455243313936373a206e657720696d706c656d656e746174696f6e206973206e60448201526c1bdd08184818dbdb9d1c9858dd609a1b6064820152608401611390565b600080516020614c8a83398151915280546001600160a01b0319166001600160a01b0392909216919091179055565b613f8783614215565b600082511180613f945750805b15613477576133a18383614255565b600054610100900460ff16613fca5760405162461bcd60e51b815260040161139090614b9c565b8151613fdd906036906020850190614439565b508051613477906037906020840190614439565b600054610100900460ff166140185760405162461bcd60e51b815260040161139090614b9c565b611320336139b8565b6000818152600183016020526040812054801561410a576000614045600183614b2c565b855490915060009061405990600190614b2c565b90508181146140be57600086600001828154811061407957614079614aa5565b906000526020600020015490508087600001848154811061409c5761409c614aa5565b6000918252602080832090910192909255918252600188019052604090208390555b85548690806140cf576140cf614be7565b600190038181906000526020600020016000905590558560010160008681526020019081526020016000206000905560019350505050610e62565b6000915050610e62565b6101105461010754108061415457506101105461413030611f6a565b10801561415457506101105461011654614152906001600160a01b0316611f6a565b105b1561415b57565b6101105460009061416d9060026131fd565b9050600061418782610110546131d990919063ffffffff16565b90504761419383612a53565b600061419f47836131d9565b90506141ab8382614349565b61011054610107546141bc916131d9565b6101075550505050565b600081815260018301602052604081205461420d57508154600181810184556000848152602080822090930184905584548482528286019093526040902091909155610e62565b506000610e62565b61421e81613ee2565b6040516001600160a01b038216907fbc7cd75a20ee27fd9adebab32041f755214dbc6bffa90cc0225b39da2e5c2d3b90600090a250565b60606001600160a01b0383163b6142bd5760405162461bcd60e51b815260206004820152602660248201527f416464726573733a2064656c65676174652063616c6c20746f206e6f6e2d636f6044820152651b9d1c9858dd60d21b6064820152608401611390565b600080846001600160a01b0316846040516142d89190614bfd565b600060405180830381855af49150503d8060008114614313576040519150601f19603f3d011682016040523d82523d6000602084013e614318565b606091505b50915091506143408282604051806060016040528060278152602001614caa60279139614400565b95945050505050565b61011d546143629030906001600160a01b0316846130ab565b61011d5461011c5460405163f305d71960e01b81523060048201526024810185905260006044820181905260648201526001600160a01b0391821660848201524260a482015291169063f305d71990839060c40160606040518083038185885af11580156143d4573d6000803e3d6000fd5b50505050506040513d601f19601f820116820180604052508101906143f99190614c19565b5050505050565b6060831561440f575081611341565b82511561441f5782518084602001fd5b8160405162461bcd60e51b815260040161139091906144fe565b828054614445906147c8565b90600052602060002090601f01602090048101928261446757600085556144ad565b82601f1061448057805160ff19168380011785556144ad565b828001600101855582156144ad579182015b828111156144ad578251825591602001919060010190614492565b506144b99291506144bd565b5090565b5b808211156144b957600081556001016144be565b60005b838110156144ed5781810151838201526020016144d5565b838111156133a15750506000910152565b602081526000825180602084015261451d8160408501602087016144d2565b601f01601f19169190910160400192915050565b6001600160a01b038116811461142d57600080fd5b6000806040838503121561455957600080fd5b823561456481614531565b946020939093013593505050565b60008060006060848603121561458757600080fd5b833561459281614531565b925060208401356145a281614531565b929592945050506040919091013590565b6000602082840312156145c557600080fd5b813561134181614531565b600080604083850312156145e357600080fd5b82356145ee81614531565b915060208301356145fe81614531565b809150509250929050565b634e487b7160e01b600052604160045260246000fd5b6000806040838503121561463257600080fd5b823561463d81614531565b9150602083013567ffffffffffffffff8082111561465a57600080fd5b818501915085601f83011261466e57600080fd5b81358181111561468057614680614609565b604051601f8201601f19908116603f011681019083821181831017156146a8576146a8614609565b816040528281528860208487010111156146c157600080fd5b8260208601602083013760006020848301015280955050505050509250929050565b6000602082840312156146f557600080fd5b5035919050565b6000806040838503121561470f57600080fd5b50508035926020909101359150565b60008060006060848603121561473357600080fd5b505081359360208301359350604090920135919050565b801515811461142d57600080fd5b60006020828403121561476a57600080fd5b81356113418161474a565b6000806000806080858703121561478b57600080fd5b843561479681614531565b935060208501356147a681614531565b92506040850135915060608501356147bd81614531565b939692955090935050565b600181811c908216806147dc57607f821691505b6020821081036147fc57634e487b7160e01b600052602260045260246000fd5b50919050565b60006020828403121561481457600080fd5b5051919050565b634e487b7160e01b600052601160045260246000fd5b6000600182016148435761484361481b565b5060010190565b60006020828403121561485c57600080fd5b81516113418161474a565b6020808252602c908201527f46756e6374696f6e206d7573742062652063616c6c6564207468726f7567682060408201526b19195b1959d85d1958d85b1b60a21b606082015260800190565b6020808252602c908201527f46756e6374696f6e206d7573742062652063616c6c6564207468726f7567682060408201526b6163746976652070726f787960a01b606082015260800190565b6020808252818101527f4f776e61626c653a2063616c6c6572206973206e6f7420746865206f776e6572604082015260600190565b600082198211156149475761494761481b565b500190565b600181815b8085111561498757816000190482111561496d5761496d61481b565b8085161561497a57918102915b93841c9390800290614951565b509250929050565b60008261499e57506001610e62565b816149ab57506000610e62565b81600181146149c157600281146149cb576149e7565b6001915050610e62565b60ff8411156149dc576149dc61481b565b50506001821b610e62565b5060208310610133831016604e8410600b8410161715614a0a575081810a610e62565b614a14838361494c565b8060001904821115614a2857614a2861481b565b029392505050565b600061134160ff84168361498f565b6000816000190483118215151615614a5957614a5961481b565b500290565b600060208284031215614a7057600080fd5b815161134181614531565b634e487b7160e01b600052601260045260246000fd5b600082614aa057614aa0614a7b565b500690565b634e487b7160e01b600052603260045260246000fd5b600060a082018783526020878185015260a0604085015281875180845260c086019150828901935060005b81811015614b0b5784516001600160a01b031683529383019391830191600101614ae6565b50506001600160a01b03969096166060850152505050608001529392505050565b600082821015614b3e57614b3e61481b565b500390565b600082614b5257614b52614a7b565b500490565b60208082526025908201527f45524332303a207472616e736665722066726f6d20746865207a65726f206164604082015264647265737360d81b606082015260800190565b6020808252602b908201527f496e697469616c697a61626c653a20636f6e7472616374206973206e6f74206960408201526a6e697469616c697a696e6760a81b606082015260800190565b634e487b7160e01b600052603160045260246000fd5b60008251614c0f8184602087016144d2565b9190910192915050565b600080600060608486031215614c2e57600080fd5b835192506020840151915060408401519050925092509256fe5f6d61726b65743146656553756d203c205f6d61726b65744665655377617041745f6d61726b65743246656553756d203c205f6d61726b6574466565537761704174360894a13ba1a3210667c828492db98dca3e2076cc3735a920a3ca505d382bbc416464726573733a206c6f772d6c6576656c2064656c65676174652063616c6c206661696c6564a26469706673582212205511dcc98d4bfc2fbfe795acf1b617eb9f736c265911831c06df4b22b1f2f22c64736f6c634300080d0033",
    "sourcePath": "/Users/janly/data/solidity/UUPS/contracts/dotty.sol",
    "compiler": {
        "name": "solc",
        "version": "0.8.13+commit.abaa5c0e"
    },
    "functionHashes": {
        "_backFeeRate()": "3e67d66b",
        "_burnFeeRate()": "94807628",
        "_burnStopAt()": "baa856bc",
        "_excludelpAddress()": "f60a515a",
        "_feeRate()": "b2131f7d",
        "_holdDividendAt()": "4c0a38b5",
        "_holdDividendEnd()": "f4af51cc",
        "_holderFeeRate()": "bdde32d6",
        "_liquidityFee()": "6bc87c3a",
        "_lp2FeeRate()": "b4714802",
        "_lpDividendFirstAt()": "dede5f45",
        "_lpDividendSecondAt()": "33b3cd82",
        "_lpFeeRate()": "3df6be61",
        "_market1FeeSum()": "9547754a",
        "_market2FeeSum()": "65742568",
        "_marketFeeRate()": "0835a625",
        "_marketFeeSwapAt()": "5c709fa4",
        "_overflowTakeFee()": "c604fe9b",
        "_rewardBaseHolder()": "fcfd8269",
        "_rewardBaseLPFirst()": "e0fb2c05",
        "_rewardBaseLPSecond()": "dad37195",
        "_swapAndLiquifyAt()": "25e8fa21",
        "_swapAt()": "eb7b70f1",
        "_swapOrDividend()": "25a4b7b5",
        "_whitelist(address)": "cfdb63ac",
        "allowance(address,address)": "dd62ed3e",
        "approve(address,uint256)": "095ea7b3",
        "balanceOf(address)": "70a08231",
        "contains(address)": "5dbe47e8",
        "deadWallet()": "85141a77",
        "decimals()": "313ce567",
        "decreaseAllowance(address,uint256)": "a457c2d7",
        "dividend()": "0ff8cf9b",
        "getHolderAt(uint256)": "e253f87b",
        "getHolderLength()": "4f21869c",
        "getRewardBalance(address)": "d5a849e9",
        "getRewardValues(address)": "5f4fe879",
        "getTradingIsEnabled()": "4d33b1ef",
        "increaseAllowance(address,uint256)": "39509351",
        "initialize()": "8129fc1c",
        "lastProcessedIndex()": "3009a609",
        "name()": "06fdde03",
        "owner()": "8da5cb5b",
        "proxiableUUID()": "52d1902d",
        "removeHolder(address)": "8dd42808",
        "removeLiquidityTakeFee()": "5525abe2",
        "renounceOwnership()": "715018a6",
        "setBurnStopAt(uint256)": "4f3e01bc",
        "setExcludelpAddress(address)": "40704b36",
        "setHoldDividend(uint256,uint256)": "a9137cf5",
        "setLPDividendAt(uint256,uint256)": "684b5f02",
        "setMarketFeeSwapAt(uint256)": "8d2b26f0",
        "setMarketingWalletAddress(address,address)": "4a559a60",
        "setRemoveLiquidityTakeFee(bool)": "8f501a25",
        "setRewardBase(uint256,uint256,uint256)": "6eea6fa6",
        "setRewardToken1(address)": "463b44fc",
        "setRewardToken2(address)": "493c0793",
        "setSwapAndLiquifyAt(uint256)": "c1b3dd1f",
        "setSwapAt(uint256)": "5c04ac94",
        "setTakeFeeWallet(address)": "392d2681",
        "swapEnabled()": "6ddd1713",
        "swapMarketFee()": "5e4ebbe2",
        "swapTokensFor2Tokens(address,address,uint256)": "dba54646",
        "swapTokensFor3Tokens(address,address,uint256,address)": "c3274c77",
        "swapTokensForEth(uint256)": "b28805f4",
        "symbol()": "95d89b41",
        "takeBNB()": "ce7157c6",
        "takeFee()": "181aa1fd",
        "takeReward1()": "4f07e35c",
        "takeReward2()": "4c622f5d",
        "totalSupply()": "18160ddd",
        "tradingEnabledTimestamp()": "25b61703",
        "transfer(address,uint256)": "a9059cbb",
        "transferFrom(address,address,uint256)": "23b872dd",
        "transferOwnership(address)": "f2fde38b",
        "uniswapV2Pair()": "49bd5a5e",
        "uniswapV2Router()": "1694505e",
        "updateGasForProcessing(uint256)": "871c128d",
        "upgradeTo(address)": "3659cfe6",
        "upgradeToAndCall(address,bytes)": "4f1ef286"
    },
    "gasEstimates": {
        "creation": {
            "codeDepositCost": "3943600",
            "executionCost": "infinite",
            "totalCost": "infinite"
        },
        "external": {
            "_backFeeRate()": "2429",
            "_burnFeeRate()": "2407",
            "_burnStopAt()": "2385",
            "_excludelpAddress()": "2469",
            "_feeRate()": "2428",
            "_holdDividendAt()": "2452",
            "_holdDividendEnd()": "2405",
            "_holderFeeRate()": "2407",
            "_liquidityFee()": "2364",
            "_lp2FeeRate()": "2363",
            "_lpDividendFirstAt()": "2406",
            "_lpDividendSecondAt()": "2430",
            "_lpFeeRate()": "2407",
            "_market1FeeSum()": "2429",
            "_market2FeeSum()": "2428",
            "_marketFeeRate()": "2387",
            "_marketFeeSwapAt()": "2451",
            "_overflowTakeFee()": "2362",
            "_rewardBaseHolder()": "2449",
            "_rewardBaseLPFirst()": "2428",
            "_rewardBaseLPSecond()": "2450",
            "_swapAndLiquifyAt()": "2364",
            "_swapAt()": "2361",
            "_swapOrDividend()": "2430",
            "_whitelist(address)": "2636",
            "allowance(address,address)": "infinite",
            "approve(address,uint256)": "24713",
            "balanceOf(address)": "2678",
            "contains(address)": "infinite",
            "deadWallet()": "2427",
            "decimals()": "290",
            "decreaseAllowance(address,uint256)": "26961",
            "dividend()": "infinite",
            "getHolderAt(uint256)": "4849",
            "getHolderLength()": "2526",
            "getRewardBalance(address)": "infinite",
            "getRewardValues(address)": "infinite",
            "getTradingIsEnabled()": "2396",
            "increaseAllowance(address,uint256)": "27033",
            "initialize()": "infinite",
            "lastProcessedIndex()": "2386",
            "name()": "infinite",
            "owner()": "2487",
            "proxiableUUID()": "infinite",
            "removeHolder(address)": "infinite",
            "removeLiquidityTakeFee()": "2433",
            "renounceOwnership()": "28274",
            "setBurnStopAt(uint256)": "24532",
            "setExcludelpAddress(address)": "26861",
            "setHoldDividend(uint256,uint256)": "46710",
            "setLPDividendAt(uint256,uint256)": "46754",
            "setMarketFeeSwapAt(uint256)": "24598",
            "setMarketingWalletAddress(address,address)": "infinite",
            "setRemoveLiquidityTakeFee(bool)": "26767",
            "setRewardBase(uint256,uint256,uint256)": "68838",
            "setRewardToken1(address)": "infinite",
            "setRewardToken2(address)": "infinite",
            "setSwapAndLiquifyAt(uint256)": "24598",
            "setSwapAt(uint256)": "24598",
            "setTakeFeeWallet(address)": "26773",
            "swapEnabled()": "2401",
            "swapMarketFee()": "infinite",
            "swapTokensFor2Tokens(address,address,uint256)": "infinite",
            "swapTokensFor3Tokens(address,address,uint256,address)": "infinite",
            "swapTokensForEth(uint256)": "infinite",
            "symbol()": "infinite",
            "takeBNB()": "infinite",
            "takeFee()": "38235",
            "takeReward1()": "infinite",
            "takeReward2()": "infinite",
            "totalSupply()": "2361",
            "tradingEnabledTimestamp()": "2452",
            "transfer(address,uint256)": "infinite",
            "transferFrom(address,address,uint256)": "infinite",
            "transferOwnership(address)": "infinite",
            "uniswapV2Pair()": "2450",
            "uniswapV2Router()": "2495",
            "updateGasForProcessing(uint256)": "26759",
            "upgradeTo(address)": "infinite",
            "upgradeToAndCall(address,bytes)": "infinite"
        },
        "internal": {
            "_authorizeUpgrade(address)": "infinite",
            "_swap()": "infinite",
            "_transfer(address,address,uint256)": "infinite",
            "addLiquidity(uint256,uint256)": "infinite",
            "swapAndLiquify()": "infinite"
        }
    }
}