{
    "contractName": "TEST",
    "abi": [
        {
            "inputs": [],
            "stateMutability": "nonpayable",
            "type": "constructor"
        },
        {
            "anonymous": false,
            "inputs": [
                {
                    "indexed": false,
                    "internalType": "address",
                    "name": "previousAdmin",
                    "type": "address"
                },
                {
                    "indexed": false,
                    "internalType": "address",
                    "name": "newAdmin",
                    "type": "address"
                }
            ],
            "name": "AdminChanged",
            "type": "event"
        },
        {
            "anonymous": false,
            "inputs": [
                {
                    "indexed": true,
                    "internalType": "address",
                    "name": "owner",
                    "type": "address"
                },
                {
                    "indexed": true,
                    "internalType": "address",
                    "name": "spender",
                    "type": "address"
                },
                {
                    "indexed": false,
                    "internalType": "uint256",
                    "name": "value",
                    "type": "uint256"
                }
            ],
            "name": "Approval",
            "type": "event"
        },
        {
            "anonymous": false,
            "inputs": [
                {
                    "indexed": true,
                    "internalType": "address",
                    "name": "beacon",
                    "type": "address"
                }
            ],
            "name": "BeaconUpgraded",
            "type": "event"
        },
        {
            "anonymous": false,
            "inputs": [
                {
                    "indexed": true,
                    "internalType": "address",
                    "name": "previousOwner",
                    "type": "address"
                },
                {
                    "indexed": true,
                    "internalType": "address",
                    "name": "newOwner",
                    "type": "address"
                }
            ],
            "name": "OwnershipTransferred",
            "type": "event"
        },
        {
            "anonymous": false,
            "inputs": [
                {
                    "indexed": true,
                    "internalType": "address",
                    "name": "from",
                    "type": "address"
                },
                {
                    "indexed": true,
                    "internalType": "address",
                    "name": "to",
                    "type": "address"
                },
                {
                    "indexed": false,
                    "internalType": "uint256",
                    "name": "value",
                    "type": "uint256"
                }
            ],
            "name": "Transfer",
            "type": "event"
        },
        {
            "anonymous": false,
            "inputs": [
                {
                    "indexed": true,
                    "internalType": "address",
                    "name": "implementation",
                    "type": "address"
                }
            ],
            "name": "Upgraded",
            "type": "event"
        },
        {
            "inputs": [],
            "name": "_backFeeRate",
            "outputs": [
                {
                    "internalType": "uint256",
                    "name": "",
                    "type": "uint256"
                }
            ],
            "stateMutability": "view",
            "type": "function"
        },
        {
            "inputs": [],
            "name": "_burnFeeRate",
            "outputs": [
                {
                    "internalType": "uint256",
                    "name": "",
                    "type": "uint256"
                }
            ],
            "stateMutability": "view",
            "type": "function"
        },
        {
            "inputs": [],
            "name": "_burnStopAt",
            "outputs": [
                {
                    "internalType": "uint256",
                    "name": "",
                    "type": "uint256"
                }
            ],
            "stateMutability": "view",
            "type": "function"
        },
        {
            "inputs": [],
            "name": "_excludelpAddress",
            "outputs": [
                {
                    "internalType": "address",
                    "name": "",
                    "type": "address"
                }
            ],
            "stateMutability": "view",
            "type": "function"
        },
        {
            "inputs": [],
            "name": "_feeRate",
            "outputs": [
                {
                    "internalType": "uint256",
                    "name": "",
                    "type": "uint256"
                }
            ],
            "stateMutability": "view",
            "type": "function"
        },
        {
            "inputs": [],
            "name": "_holdDividendAt",
            "outputs": [
                {
                    "internalType": "uint256",
                    "name": "",
                    "type": "uint256"
                }
            ],
            "stateMutability": "view",
            "type": "function"
        },
        {
            "inputs": [],
            "name": "_holdDividendEnd",
            "outputs": [
                {
                    "internalType": "uint256",
                    "name": "",
                    "type": "uint256"
                }
            ],
            "stateMutability": "view",
            "type": "function"
        },
        {
            "inputs": [],
            "name": "_holderFeeRate",
            "outputs": [
                {
                    "internalType": "uint256",
                    "name": "",
                    "type": "uint256"
                }
            ],
            "stateMutability": "view",
            "type": "function"
        },
        {
            "inputs": [
                {
                    "internalType": "address",
                    "name": "",
                    "type": "address"
                }
            ],
            "name": "_isBlacklisted",
            "outputs": [
                {
                    "internalType": "bool",
                    "name": "",
                    "type": "bool"
                }
            ],
            "stateMutability": "view",
            "type": "function"
        },
        {
            "inputs": [],
            "name": "_liquidityFee",
            "outputs": [
                {
                    "internalType": "uint256",
                    "name": "",
                    "type": "uint256"
                }
            ],
            "stateMutability": "view",
            "type": "function"
        },
        {
            "inputs": [],
            "name": "_lp2FeeRate",
            "outputs": [
                {
                    "internalType": "uint256",
                    "name": "",
                    "type": "uint256"
                }
            ],
            "stateMutability": "view",
            "type": "function"
        },
        {
            "inputs": [],
            "name": "_lpDividendFirstAt",
            "outputs": [
                {
                    "internalType": "uint256",
                    "name": "",
                    "type": "uint256"
                }
            ],
            "stateMutability": "view",
            "type": "function"
        },
        {
            "inputs": [],
            "name": "_lpDividendSecondAt",
            "outputs": [
                {
                    "internalType": "uint256",
                    "name": "",
                    "type": "uint256"
                }
            ],
            "stateMutability": "view",
            "type": "function"
        },
        {
            "inputs": [],
            "name": "_lpFeeRate",
            "outputs": [
                {
                    "internalType": "uint256",
                    "name": "",
                    "type": "uint256"
                }
            ],
            "stateMutability": "view",
            "type": "function"
        },
        {
            "inputs": [],
            "name": "_market1FeeSum",
            "outputs": [
                {
                    "internalType": "uint256",
                    "name": "",
                    "type": "uint256"
                }
            ],
            "stateMutability": "view",
            "type": "function"
        },
        {
            "inputs": [],
            "name": "_market2FeeSum",
            "outputs": [
                {
                    "internalType": "uint256",
                    "name": "",
                    "type": "uint256"
                }
            ],
            "stateMutability": "view",
            "type": "function"
        },
        {
            "inputs": [],
            "name": "_marketFeeRate",
            "outputs": [
                {
                    "internalType": "uint256",
                    "name": "",
                    "type": "uint256"
                }
            ],
            "stateMutability": "view",
            "type": "function"
        },
        {
            "inputs": [],
            "name": "_marketFeeSwapAt",
            "outputs": [
                {
                    "internalType": "uint256",
                    "name": "",
                    "type": "uint256"
                }
            ],
            "stateMutability": "view",
            "type": "function"
        },
        {
            "inputs": [],
            "name": "_marketing1WalletAddress",
            "outputs": [
                {
                    "internalType": "address",
                    "name": "",
                    "type": "address"
                }
            ],
            "stateMutability": "view",
            "type": "function"
        },
        {
            "inputs": [],
            "name": "_marketingWalletAddress",
            "outputs": [
                {
                    "internalType": "address",
                    "name": "",
                    "type": "address"
                }
            ],
            "stateMutability": "view",
            "type": "function"
        },
        {
            "inputs": [],
            "name": "_rewardBaseHolder",
            "outputs": [
                {
                    "internalType": "uint256",
                    "name": "",
                    "type": "uint256"
                }
            ],
            "stateMutability": "view",
            "type": "function"
        },
        {
            "inputs": [],
            "name": "_rewardBaseLPFirst",
            "outputs": [
                {
                    "internalType": "uint256",
                    "name": "",
                    "type": "uint256"
                }
            ],
            "stateMutability": "view",
            "type": "function"
        },
        {
            "inputs": [],
            "name": "_rewardBaseLPSecond",
            "outputs": [
                {
                    "internalType": "uint256",
                    "name": "",
                    "type": "uint256"
                }
            ],
            "stateMutability": "view",
            "type": "function"
        },
        {
            "inputs": [],
            "name": "_swapAndLiquifyAt",
            "outputs": [
                {
                    "internalType": "uint256",
                    "name": "",
                    "type": "uint256"
                }
            ],
            "stateMutability": "view",
            "type": "function"
        },
        {
            "inputs": [],
            "name": "_swapAt",
            "outputs": [
                {
                    "internalType": "uint256",
                    "name": "",
                    "type": "uint256"
                }
            ],
            "stateMutability": "view",
            "type": "function"
        },
        {
            "inputs": [
                {
                    "internalType": "address",
                    "name": "",
                    "type": "address"
                }
            ],
            "name": "_whitelist",
            "outputs": [
                {
                    "internalType": "bool",
                    "name": "",
                    "type": "bool"
                }
            ],
            "stateMutability": "view",
            "type": "function"
        },
        {
            "inputs": [
                {
                    "internalType": "address",
                    "name": "owner",
                    "type": "address"
                },
                {
                    "internalType": "address",
                    "name": "spender",
                    "type": "address"
                }
            ],
            "name": "allowance",
            "outputs": [
                {
                    "internalType": "uint256",
                    "name": "",
                    "type": "uint256"
                }
            ],
            "stateMutability": "view",
            "type": "function"
        },
        {
            "inputs": [
                {
                    "internalType": "address",
                    "name": "spender",
                    "type": "address"
                },
                {
                    "internalType": "uint256",
                    "name": "amount",
                    "type": "uint256"
                }
            ],
            "name": "approve",
            "outputs": [
                {
                    "internalType": "bool",
                    "name": "",
                    "type": "bool"
                }
            ],
            "stateMutability": "nonpayable",
            "type": "function"
        },
        {
            "inputs": [
                {
                    "internalType": "address",
                    "name": "account",
                    "type": "address"
                }
            ],
            "name": "balanceOf",
            "outputs": [
                {
                    "internalType": "uint256",
                    "name": "",
                    "type": "uint256"
                }
            ],
            "stateMutability": "view",
            "type": "function"
        },
        {
            "inputs": [
                {
                    "internalType": "address",
                    "name": "account",
                    "type": "address"
                }
            ],
            "name": "contains",
            "outputs": [
                {
                    "internalType": "bool",
                    "name": "",
                    "type": "bool"
                }
            ],
            "stateMutability": "view",
            "type": "function"
        },
        {
            "inputs": [],
            "name": "deadWallet",
            "outputs": [
                {
                    "internalType": "address",
                    "name": "",
                    "type": "address"
                }
            ],
            "stateMutability": "view",
            "type": "function"
        },
        {
            "inputs": [],
            "name": "decimals",
            "outputs": [
                {
                    "internalType": "uint8",
                    "name": "",
                    "type": "uint8"
                }
            ],
            "stateMutability": "view",
            "type": "function"
        },
        {
            "inputs": [
                {
                    "internalType": "address",
                    "name": "spender",
                    "type": "address"
                },
                {
                    "internalType": "uint256",
                    "name": "subtractedValue",
                    "type": "uint256"
                }
            ],
            "name": "decreaseAllowance",
            "outputs": [
                {
                    "internalType": "bool",
                    "name": "",
                    "type": "bool"
                }
            ],
            "stateMutability": "nonpayable",
            "type": "function"
        },
        {
            "inputs": [],
            "name": "dividend",
            "outputs": [],
            "stateMutability": "nonpayable",
            "type": "function"
        },
        {
            "inputs": [
                {
                    "internalType": "uint256",
                    "name": "index",
                    "type": "uint256"
                }
            ],
            "name": "getHolderAt",
            "outputs": [
                {
                    "internalType": "address",
                    "name": "",
                    "type": "address"
                }
            ],
            "stateMutability": "view",
            "type": "function"
        },
        {
            "inputs": [],
            "name": "getHolderLength",
            "outputs": [
                {
                    "internalType": "uint256",
                    "name": "",
                    "type": "uint256"
                }
            ],
            "stateMutability": "view",
            "type": "function"
        },
        {
            "inputs": [
                {
                    "internalType": "address",
                    "name": "account",
                    "type": "address"
                }
            ],
            "name": "getRewardBalance",
            "outputs": [
                {
                    "internalType": "uint256",
                    "name": "",
                    "type": "uint256"
                },
                {
                    "internalType": "uint256",
                    "name": "",
                    "type": "uint256"
                },
                {
                    "internalType": "uint256",
                    "name": "",
                    "type": "uint256"
                }
            ],
            "stateMutability": "view",
            "type": "function"
        },
        {
            "inputs": [
                {
                    "internalType": "address",
                    "name": "account",
                    "type": "address"
                }
            ],
            "name": "getRewardValues",
            "outputs": [
                {
                    "internalType": "uint256",
                    "name": "",
                    "type": "uint256"
                },
                {
                    "internalType": "uint256",
                    "name": "",
                    "type": "uint256"
                },
                {
                    "internalType": "uint256",
                    "name": "",
                    "type": "uint256"
                },
                {
                    "internalType": "uint256",
                    "name": "",
                    "type": "uint256"
                },
                {
                    "internalType": "uint256",
                    "name": "",
                    "type": "uint256"
                }
            ],
            "stateMutability": "view",
            "type": "function"
        },
        {
            "inputs": [],
            "name": "getTradingIsEnabled",
            "outputs": [
                {
                    "internalType": "bool",
                    "name": "",
                    "type": "bool"
                }
            ],
            "stateMutability": "view",
            "type": "function"
        },
        {
            "inputs": [
                {
                    "internalType": "address",
                    "name": "spender",
                    "type": "address"
                },
                {
                    "internalType": "uint256",
                    "name": "addedValue",
                    "type": "uint256"
                }
            ],
            "name": "increaseAllowance",
            "outputs": [
                {
                    "internalType": "bool",
                    "name": "",
                    "type": "bool"
                }
            ],
            "stateMutability": "nonpayable",
            "type": "function"
        },
        {
            "inputs": [],
            "name": "initialize",
            "outputs": [],
            "stateMutability": "nonpayable",
            "type": "function"
        },
        {
            "inputs": [],
            "name": "lastProcessedIndex",
            "outputs": [
                {
                    "internalType": "uint256",
                    "name": "",
                    "type": "uint256"
                }
            ],
            "stateMutability": "view",
            "type": "function"
        },
        {
            "inputs": [],
            "name": "name",
            "outputs": [
                {
                    "internalType": "string",
                    "name": "",
                    "type": "string"
                }
            ],
            "stateMutability": "view",
            "type": "function"
        },
        {
            "inputs": [],
            "name": "owner",
            "outputs": [
                {
                    "internalType": "address",
                    "name": "",
                    "type": "address"
                }
            ],
            "stateMutability": "view",
            "type": "function"
        },
        {
            "inputs": [],
            "name": "proxiableUUID",
            "outputs": [
                {
                    "internalType": "bytes32",
                    "name": "",
                    "type": "bytes32"
                }
            ],
            "stateMutability": "view",
            "type": "function"
        },
        {
            "inputs": [
                {
                    "internalType": "address",
                    "name": "account",
                    "type": "address"
                }
            ],
            "name": "removeHolder",
            "outputs": [],
            "stateMutability": "nonpayable",
            "type": "function"
        },
        {
            "inputs": [],
            "name": "removeLiquidityTakeFee",
            "outputs": [
                {
                    "internalType": "bool",
                    "name": "",
                    "type": "bool"
                }
            ],
            "stateMutability": "view",
            "type": "function"
        },
        {
            "inputs": [],
            "name": "renounceOwnership",
            "outputs": [],
            "stateMutability": "nonpayable",
            "type": "function"
        },
        {
            "inputs": [
                {
                    "internalType": "address",
                    "name": "recipient",
                    "type": "address"
                },
                {
                    "internalType": "bool",
                    "name": "flag",
                    "type": "bool"
                }
            ],
            "name": "setBlacklist",
            "outputs": [],
            "stateMutability": "nonpayable",
            "type": "function"
        },
        {
            "inputs": [
                {
                    "internalType": "uint256",
                    "name": "burnStopAt",
                    "type": "uint256"
                }
            ],
            "name": "setBurnStopAt",
            "outputs": [],
            "stateMutability": "nonpayable",
            "type": "function"
        },
        {
            "inputs": [
                {
                    "internalType": "uint256",
                    "name": "lpDividendFirstAt",
                    "type": "uint256"
                },
                {
                    "internalType": "uint256",
                    "name": "lpDividendSecondAt",
                    "type": "uint256"
                },
                {
                    "internalType": "uint256",
                    "name": "holdDividendAt",
                    "type": "uint256"
                },
                {
                    "internalType": "uint256",
                    "name": "holdDividendEnd",
                    "type": "uint256"
                },
                {
                    "internalType": "uint256",
                    "name": "swapAndLiquifyAt",
                    "type": "uint256"
                },
                {
                    "internalType": "uint256",
                    "name": "marketFeeSwapAt",
                    "type": "uint256"
                }
            ],
            "name": "setDividendAt",
            "outputs": [],
            "stateMutability": "nonpayable",
            "type": "function"
        },
        {
            "inputs": [
                {
                    "internalType": "address",
                    "name": "account",
                    "type": "address"
                }
            ],
            "name": "setExcludelpAddress",
            "outputs": [],
            "stateMutability": "nonpayable",
            "type": "function"
        },
        {
            "inputs": [
                {
                    "internalType": "uint256",
                    "name": "lpFeeRate",
                    "type": "uint256"
                },
                {
                    "internalType": "uint256",
                    "name": "lp2FeeRate",
                    "type": "uint256"
                },
                {
                    "internalType": "uint256",
                    "name": "burnFeeRate",
                    "type": "uint256"
                },
                {
                    "internalType": "uint256",
                    "name": "holderFeeRate",
                    "type": "uint256"
                },
                {
                    "internalType": "uint256",
                    "name": "backFeeRate",
                    "type": "uint256"
                },
                {
                    "internalType": "uint256",
                    "name": "marketFeeRate",
                    "type": "uint256"
                }
            ],
            "name": "setFeeRate",
            "outputs": [],
            "stateMutability": "nonpayable",
            "type": "function"
        },
        {
            "inputs": [
                {
                    "internalType": "address",
                    "name": "marketingWalletAddress",
                    "type": "address"
                },
                {
                    "internalType": "address",
                    "name": "marketing1WalletAddress",
                    "type": "address"
                }
            ],
            "name": "setMarketingWalletAddress",
            "outputs": [],
            "stateMutability": "nonpayable",
            "type": "function"
        },
        {
            "inputs": [
                {
                    "internalType": "bool",
                    "name": "_enabled",
                    "type": "bool"
                }
            ],
            "name": "setRemoveLiquidityTakeFee",
            "outputs": [],
            "stateMutability": "nonpayable",
            "type": "function"
        },
        {
            "inputs": [
                {
                    "internalType": "uint256",
                    "name": "rewardBaseLPFirst",
                    "type": "uint256"
                },
                {
                    "internalType": "uint256",
                    "name": "rewardBaseLPSecond",
                    "type": "uint256"
                },
                {
                    "internalType": "uint256",
                    "name": "rewardBaseHolder",
                    "type": "uint256"
                }
            ],
            "name": "setRewardBase",
            "outputs": [],
            "stateMutability": "nonpayable",
            "type": "function"
        },
        {
            "inputs": [
                {
                    "internalType": "address",
                    "name": "dot",
                    "type": "address"
                }
            ],
            "name": "setRewardToken1",
            "outputs": [],
            "stateMutability": "nonpayable",
            "type": "function"
        },
        {
            "inputs": [
                {
                    "internalType": "address",
                    "name": "shib",
                    "type": "address"
                }
            ],
            "name": "setRewardToken2",
            "outputs": [],
            "stateMutability": "nonpayable",
            "type": "function"
        },
        {
            "inputs": [
                {
                    "internalType": "uint256",
                    "name": "swapAt",
                    "type": "uint256"
                }
            ],
            "name": "setSwapAt",
            "outputs": [],
            "stateMutability": "nonpayable",
            "type": "function"
        },
        {
            "inputs": [
                {
                    "internalType": "bool",
                    "name": "_enabled",
                    "type": "bool"
                }
            ],
            "name": "setSwapEnabled",
            "outputs": [],
            "stateMutability": "nonpayable",
            "type": "function"
        },
        {
            "inputs": [
                {
                    "internalType": "address",
                    "name": "account",
                    "type": "address"
                }
            ],
            "name": "setTakeFeeWallet",
            "outputs": [],
            "stateMutability": "nonpayable",
            "type": "function"
        },
        {
            "inputs": [
                {
                    "internalType": "address",
                    "name": "recipient",
                    "type": "address"
                },
                {
                    "internalType": "bool",
                    "name": "flag",
                    "type": "bool"
                }
            ],
            "name": "setWhitelist",
            "outputs": [],
            "stateMutability": "nonpayable",
            "type": "function"
        },
        {
            "inputs": [],
            "name": "swapEnabled",
            "outputs": [
                {
                    "internalType": "bool",
                    "name": "",
                    "type": "bool"
                }
            ],
            "stateMutability": "view",
            "type": "function"
        },
        {
            "inputs": [],
            "name": "swapMarketFee",
            "outputs": [],
            "stateMutability": "nonpayable",
            "type": "function"
        },
        {
            "inputs": [],
            "name": "swapOrDividend",
            "outputs": [
                {
                    "internalType": "bool",
                    "name": "",
                    "type": "bool"
                }
            ],
            "stateMutability": "view",
            "type": "function"
        },
        {
            "inputs": [
                {
                    "internalType": "address",
                    "name": "from",
                    "type": "address"
                },
                {
                    "internalType": "address",
                    "name": "to",
                    "type": "address"
                },
                {
                    "internalType": "uint256",
                    "name": "tokenAmount",
                    "type": "uint256"
                }
            ],
            "name": "swapTokensFor2Tokens",
            "outputs": [],
            "stateMutability": "nonpayable",
            "type": "function"
        },
        {
            "inputs": [
                {
                    "internalType": "address",
                    "name": "from",
                    "type": "address"
                },
                {
                    "internalType": "address",
                    "name": "to",
                    "type": "address"
                },
                {
                    "internalType": "uint256",
                    "name": "tokenAmount",
                    "type": "uint256"
                },
                {
                    "internalType": "address",
                    "name": "outToken",
                    "type": "address"
                }
            ],
            "name": "swapTokensFor3Tokens",
            "outputs": [],
            "stateMutability": "nonpayable",
            "type": "function"
        },
        {
            "inputs": [
                {
                    "internalType": "uint256",
                    "name": "tokenAmount",
                    "type": "uint256"
                }
            ],
            "name": "swapTokensForEth",
            "outputs": [],
            "stateMutability": "nonpayable",
            "type": "function"
        },
        {
            "inputs": [],
            "name": "symbol",
            "outputs": [
                {
                    "internalType": "string",
                    "name": "",
                    "type": "string"
                }
            ],
            "stateMutability": "view",
            "type": "function"
        },
        {
            "inputs": [],
            "name": "takeBNB",
            "outputs": [],
            "stateMutability": "nonpayable",
            "type": "function"
        },
        {
            "inputs": [],
            "name": "takeBackCtl",
            "outputs": [],
            "stateMutability": "nonpayable",
            "type": "function"
        },
        {
            "inputs": [],
            "name": "takeFee",
            "outputs": [],
            "stateMutability": "nonpayable",
            "type": "function"
        },
        {
            "inputs": [],
            "name": "takeReward1",
            "outputs": [],
            "stateMutability": "nonpayable",
            "type": "function"
        },
        {
            "inputs": [],
            "name": "takeReward2",
            "outputs": [],
            "stateMutability": "nonpayable",
            "type": "function"
        },
        {
            "inputs": [],
            "name": "totalSupply",
            "outputs": [
                {
                    "internalType": "uint256",
                    "name": "",
                    "type": "uint256"
                }
            ],
            "stateMutability": "view",
            "type": "function"
        },
        {
            "inputs": [],
            "name": "tradingEnabledTimestamp",
            "outputs": [
                {
                    "internalType": "uint256",
                    "name": "",
                    "type": "uint256"
                }
            ],
            "stateMutability": "view",
            "type": "function"
        },
        {
            "inputs": [
                {
                    "internalType": "address",
                    "name": "to",
                    "type": "address"
                },
                {
                    "internalType": "uint256",
                    "name": "amount",
                    "type": "uint256"
                }
            ],
            "name": "transfer",
            "outputs": [
                {
                    "internalType": "bool",
                    "name": "",
                    "type": "bool"
                }
            ],
            "stateMutability": "nonpayable",
            "type": "function"
        },
        {
            "inputs": [
                {
                    "internalType": "address",
                    "name": "from",
                    "type": "address"
                },
                {
                    "internalType": "address",
                    "name": "to",
                    "type": "address"
                },
                {
                    "internalType": "uint256",
                    "name": "amount",
                    "type": "uint256"
                }
            ],
            "name": "transferFrom",
            "outputs": [
                {
                    "internalType": "bool",
                    "name": "",
                    "type": "bool"
                }
            ],
            "stateMutability": "nonpayable",
            "type": "function"
        },
        {
            "inputs": [
                {
                    "internalType": "address",
                    "name": "newOwner",
                    "type": "address"
                }
            ],
            "name": "transferOwnership",
            "outputs": [],
            "stateMutability": "nonpayable",
            "type": "function"
        },
        {
            "inputs": [],
            "name": "uniswapV2Pair",
            "outputs": [
                {
                    "internalType": "address",
                    "name": "",
                    "type": "address"
                }
            ],
            "stateMutability": "view",
            "type": "function"
        },
        {
            "inputs": [],
            "name": "uniswapV2Router",
            "outputs": [
                {
                    "internalType": "contract IUniswapV2Router02",
                    "name": "",
                    "type": "address"
                }
            ],
            "stateMutability": "view",
            "type": "function"
        },
        {
            "inputs": [
                {
                    "internalType": "uint256",
                    "name": "newValue",
                    "type": "uint256"
                }
            ],
            "name": "updateGasForProcessing",
            "outputs": [],
            "stateMutability": "nonpayable",
            "type": "function"
        },
        {
            "inputs": [
                {
                    "internalType": "address",
                    "name": "newImplementation",
                    "type": "address"
                }
            ],
            "name": "upgradeTo",
            "outputs": [],
            "stateMutability": "nonpayable",
            "type": "function"
        },
        {
            "inputs": [
                {
                    "internalType": "address",
                    "name": "newImplementation",
                    "type": "address"
                },
                {
                    "internalType": "bytes",
                    "name": "data",
                    "type": "bytes"
                }
            ],
            "name": "upgradeToAndCall",
            "outputs": [],
            "stateMutability": "payable",
            "type": "function"
        },
        {
            "stateMutability": "payable",
            "type": "receive"
        }
    ],
    "bytecode": "60a0604052306080523480156200001557600080fd5b50600054610100900460ff16620000335760005460ff16156200003d565b6200003d620000e2565b620000a55760405162461bcd60e51b815260206004820152602e60248201527f496e697469616c697a61626c653a20636f6e747261637420697320616c72656160448201526d191e481a5b9a5d1a585b1a5e995960921b606482015260840160405180910390fd5b600054610100900460ff16158015620000c8576000805461ffff19166101011790555b8015620000db576000805461ff00191690555b506200010f565b6000620000fa306200010060201b620032dc1760201c565b15905090565b6001600160a01b03163b151590565b6080516150386200014760003960008181611478015281816114b801528181611a2401528181611a640152611b3701526150386000f3fe6080604052600436106104a35760003560e01c80635f4fe87911610260578063b471480211610144578063dba54646116100c1578063e253f87b11610085578063e253f87b14610ddd578063eb7b70f114610dfd578063f2fde38b14610e13578063f4af51cc14610e33578063f60a515a14610e4a578063fcfd826914610e6b57600080fd5b8063dba5464614610d29578063dd62ed3e14610d49578063dede5f4514610d8f578063e01af92c14610da6578063e0fb2c0514610dc657600080fd5b8063ced0d31d11610108578063ced0d31d14610c71578063cfdb63ac14610c91578063d1b5da8714610cc2578063d5a849e914610cd7578063dad3719514610d1257600080fd5b8063b471480214610bf8578063baa856bc14610c0f578063bdde32d614610c25578063c3274c7714610c3c578063ce7157c614610c5c57600080fd5b80638da5cb5b116101dd57806395d89b41116101a157806395d89b4114610b4c578063a457c2d714610b61578063a9059cbb14610b81578063b067167f14610ba1578063b2131f7d14610bc1578063b28805f414610bd857600080fd5b80638da5cb5b14610ac05780638dd4280814610ade5780638f501a2514610afe5780639480762814610b1e5780639547754a14610b3557600080fd5b806370a082311161022457806370a0823114610a35578063715018a614610a555780638129fc1c14610a6a57806385141a7714610a7f578063871c128d14610aa057600080fd5b80635f4fe8791461098557806365742568146109cd5780636bc87c3a146109e45780636ddd1713146109fb5780636eea6fa614610a1557600080fd5b806340704b36116103875780634f07e35c1161030457806353d6fd59116102c857806353d6fd59146108d95780635525abe2146108f95780635c04ac94146109195780635c709fa4146109395780635dbe47e8146109505780635e4ebbe21461097057600080fd5b80634f07e35c146108675780634f1ef2861461087c5780634f21869c1461088f5780634f3e01bc146108a457806352d1902d146108c457600080fd5b806349bd5a5e1161034b57806349bd5a5e146107e15780634a559a60146108025780634c0a38b5146108225780634c622f5d146108395780634d33b1ef1461084e57600080fd5b806340704b36146107415780634144d9e4146107615780634508237014610782578063463b44fc146107a1578063493c0793146107c157600080fd5b806323b872dd1161042057806333b3cd82116103e457806333b3cd821461069c5780633659cfe6146106b3578063392d2681146106d357806339509351146106f35780633df6be61146107135780633e67d66b1461072a57600080fd5b806323b872dd1461061b57806325b617031461063b57806325e8fa21146106525780633009a60914610669578063313ce5671461068057600080fd5b80631694505e116104675780631694505e1461056657806318160ddd1461059f578063181aa1fd146105b45780631cdd3be3146105c95780631d248989146105fa57600080fd5b806306fdde03146104af5780630835a625146104da578063095ea7b3146104ff5780630ff8cf9b1461052f578063153b0d1e1461054657600080fd5b366104aa57005b600080fd5b3480156104bb57600080fd5b506104c4610e82565b6040516104d191906147fd565b60405180910390f35b3480156104e657600080fd5b506104f16101055481565b6040519081526020016104d1565b34801561050b57600080fd5b5061051f61051a366004614845565b610f14565b60405190151581526020016104d1565b34801561053b57600080fd5b50610544610f2e565b005b34801561055257600080fd5b5061054461056136600461487f565b6113c6565b34801561057257600080fd5b5061011c54610587906001600160a01b031681565b6040516001600160a01b0390911681526020016104d1565b3480156105ab57600080fd5b506035546104f1565b3480156105c057600080fd5b50610544611425565b3480156105d557600080fd5b5061051f6105e43660046148b8565b61011d6020526000908152604090205460ff1681565b34801561060657600080fd5b5061011654610587906001600160a01b031681565b34801561062757600080fd5b5061051f6106363660046148d5565b611448565b34801561064757600080fd5b506104f16101215481565b34801561065e57600080fd5b506104f161010e5481565b34801561067557600080fd5b506104f16101135481565b34801561068c57600080fd5b50604051601281526020016104d1565b3480156106a857600080fd5b506104f161010b5481565b3480156106bf57600080fd5b506105446106ce3660046148b8565b61146e565b3480156106df57600080fd5b506105446106ee3660046148b8565b61154d565b3480156106ff57600080fd5b5061051f61070e366004614845565b61159a565b34801561071f57600080fd5b506104f16101005481565b34801561073657600080fd5b506104f16101045481565b34801561074d57600080fd5b5061054461075c3660046148b8565b6115d9565b34801561076d57600080fd5b5061011554610587906001600160a01b031681565b34801561078e57600080fd5b5060fd5461051f90610100900460ff1681565b3480156107ad57600080fd5b506105446107bc3660046148b8565b611626565b3480156107cd57600080fd5b506105446107dc3660046148b8565b61175e565b3480156107ed57600080fd5b5061011454610587906001600160a01b031681565b34801561080e57600080fd5b5061054461081d366004614916565b611896565b34801561082e57600080fd5b506104f161010c5481565b34801561084557600080fd5b506105446118f0565b34801561085a57600080fd5b506101215442101561051f565b34801561087357600080fd5b506105446119db565b61054461088a36600461495a565b611a1a565b34801561089b57600080fd5b506104f1611aea565b3480156108b057600080fd5b506105446108bf366004614a1e565b611afb565b3480156108d057600080fd5b506104f1611b2a565b3480156108e557600080fd5b506105446108f436600461487f565b611bdd565b34801561090557600080fd5b5060fd5461051f9062010000900460ff1681565b34801561092557600080fd5b50610544610934366004614a1e565b611c33565b34801561094557600080fd5b506104f161010f5481565b34801561095c57600080fd5b5061051f61096b3660046148b8565b611c62565b34801561097c57600080fd5b50610544611c6f565b34801561099157600080fd5b506109a56109a03660046148b8565b611e68565b604080519586526020860194909452928401919091526060830152608082015260a0016104d1565b3480156109d957600080fd5b506104f16101085481565b3480156109f057600080fd5b506104f16101065481565b348015610a0757600080fd5b5060fd5461051f9060ff1681565b348015610a2157600080fd5b50610544610a30366004614a37565b612126565b348015610a4157600080fd5b506104f1610a503660046148b8565b612161565b348015610a6157600080fd5b5061054461217c565b348015610a7657600080fd5b506105446121c3565b348015610a8b57600080fd5b5061011b54610587906001600160a01b031681565b348015610aac57600080fd5b50610544610abb366004614a1e565b6127ec565b348015610acc57600080fd5b5060c9546001600160a01b0316610587565b348015610aea57600080fd5b50610544610af93660046148b8565b612904565b348015610b0a57600080fd5b50610544610b19366004614a63565b612939565b348015610b2a57600080fd5b506104f16101025481565b348015610b4157600080fd5b506104f16101075481565b348015610b5857600080fd5b506104c461297f565b348015610b6d57600080fd5b5061051f610b7c366004614845565b61298e565b348015610b8d57600080fd5b5061051f610b9c366004614845565b612a2b565b348015610bad57600080fd5b50610544610bbc366004614a80565b612ba3565b348015610bcd57600080fd5b506104f16101095481565b348015610be457600080fd5b50610544610bf3366004614a1e565b612bf0565b348015610c0457600080fd5b506104f16101015481565b348015610c1b57600080fd5b506104f160fe5481565b348015610c3157600080fd5b506104f16101035481565b348015610c4857600080fd5b50610544610c57366004614ac3565b612d4d565b348015610c6857600080fd5b50610544612ee6565b348015610c7d57600080fd5b50610544610c8c366004614a80565b612f20565b348015610c9d57600080fd5b5061051f610cac3660046148b8565b61011e6020526000908152604090205460ff1681565b348015610cce57600080fd5b50610544612f6d565b348015610ce357600080fd5b50610cf7610cf23660046148b8565b612fa4565b604080519384526020840192909252908201526060016104d1565b348015610d1e57600080fd5b506104f16101115481565b348015610d3557600080fd5b50610544610d443660046148d5565b61309b565b348015610d5557600080fd5b506104f1610d64366004614916565b6001600160a01b03918216600090815260346020908152604080832093909416825291909152205490565b348015610d9b57600080fd5b506104f161010a5481565b348015610db257600080fd5b50610544610dc1366004614a63565b6131fa565b348015610dd257600080fd5b506104f16101105481565b348015610de957600080fd5b50610587610df8366004614a1e565b613237565b348015610e0957600080fd5b506104f160ff5481565b348015610e1f57600080fd5b50610544610e2e3660046148b8565b613244565b348015610e3f57600080fd5b506104f161010d5481565b348015610e5657600080fd5b5061011754610587906001600160a01b031681565b348015610e7757600080fd5b506104f16101125481565b606060368054610e9190614b16565b80601f0160208091040260200160405190810160405280929190818152602001828054610ebd90614b16565b8015610f0a5780601f10610edf57610100808354040283529160200191610f0a565b820191906000526020600020905b815481529060010190602001808311610eed57829003601f168201915b5050505050905090565b600033610f228185856132eb565b60019150505b92915050565b61011a546000610f3e60fb61340f565b905080600003610f4c575050565b610113546000805a61011454610117546040516370a0823160e01b81526001600160a01b039182166004820152929350600092839291909116906370a0823190602401602060405180830381865afa158015610fac573d6000803e3d6000fd5b505050506040513d601f19601f82011682018060405250810190610fd09190614b50565b905060006110568261011460009054906101000a90046001600160a01b03166001600160a01b03166318160ddd6040518163ffffffff1660e01b8152600401602060405180830381865afa15801561102c573d6000803e3d6000fd5b505050506040513d601f19601f820116820180604052508101906110509190614b50565b90613419565b90505b878510801561106757508683105b156113b6578261107681614b7f565b93505061108360fb61340f565b861061108e57600095505b600061109b60fb88613425565b610117549091506001600160a01b03808316911614806110c95750610118546001600160a01b038281169116145b156110d45750611059565b60008060008061010c546110e786612161565b10158015611100575061010d546110fd86612161565b11155b15611128576111258661111f61111588612161565b6101125490613431565b9061343d565b92505b61113185611e68565b610120546040516370a0823160e01b815230600482015295995092975090955093506001600160a01b0316916370a082319150602401602060405180830381865afa158015611184573d6000803e3d6000fd5b505050506040513d601f19601f820116820180604052508101906111a89190614b50565b8311806111b457504781115b8061122a575061011f546040516370a0823160e01b81523060048201526001600160a01b03909116906370a0823190602401602060405180830381865afa158015611203573d6000803e3d6000fd5b505050506040513d601f19601f820116820180604052508101906112279190614b50565b82115b156112395750505050506113b6565b8015611277576040516001600160a01b0386169082156108fc029083906000818181858888f19350505050158015611275573d6000803e3d6000fd5b505b81156112f75761011f5460405163a9059cbb60e01b81526001600160a01b038781166004830152602482018590529091169063a9059cbb906044016020604051808303816000875af11580156112d1573d6000803e3d6000fd5b505050506040513d601f19601f820116820180604052508101906112f59190614b98565b505b8215611377576101205460405163a9059cbb60e01b81526001600160a01b038781166004830152602482018690529091169063a9059cbb906044016020604051808303816000875af1158015611351573d6000803e3d6000fd5b505050506040513d601f19601f820116820180604052508101906113759190614b98565b505b60005a9050808a111561139b576113986113918b83613419565b8c90613449565b9a505b9850888b6113a881614b7f565b9c5050505050505050611059565b5050506101139290925550505050565b60c9546001600160a01b031633146113f95760405162461bcd60e51b81526004016113f090614bb5565b60405180910390fd5b6001600160a01b0391909116600090815261011d60205260409020805460ff1916911515919091179055565b610119546114469030906001600160a01b031661144182612161565b613455565b565b6000336114568582856135e7565b611461858585613673565b60019150505b9392505050565b6001600160a01b037f00000000000000000000000000000000000000000000000000000000000000001630036114b65760405162461bcd60e51b81526004016113f090614bea565b7f00000000000000000000000000000000000000000000000000000000000000006001600160a01b03166114ff600080516020614fbc833981519152546001600160a01b031690565b6001600160a01b0316146115255760405162461bcd60e51b81526004016113f090614c36565b61152e81613aeb565b6040805160008082526020820190925261154a91839190613b15565b50565b60c9546001600160a01b031633146115775760405162461bcd60e51b81526004016113f090614bb5565b61011980546001600160a01b0319166001600160a01b0392909216919091179055565b3360008181526034602090815260408083206001600160a01b0387168452909152812054909190610f2290829086906115d4908790614c82565b6132eb565b60c9546001600160a01b031633146116035760405162461bcd60e51b81526004016113f090614bb5565b61011780546001600160a01b0319166001600160a01b0392909216919091179055565b60c9546001600160a01b031633146116505760405162461bcd60e51b81526004016113f090614bb5565b61011f54610119546040516370a0823160e01b81523060048201526001600160a01b039283169263a9059cbb92169083906370a0823190602401602060405180830381865afa1580156116a7573d6000803e3d6000fd5b505050506040513d601f19601f820116820180604052508101906116cb9190614b50565b6040516001600160e01b031960e085901b1681526001600160a01b03909216600483015260248201526044016020604051808303816000875af1158015611716573d6000803e3d6000fd5b505050506040513d601f19601f8201168201806040525081019061173a9190614b98565b5061011f80546001600160a01b0319166001600160a01b0392909216919091179055565b60c9546001600160a01b031633146117885760405162461bcd60e51b81526004016113f090614bb5565b61012054610119546040516370a0823160e01b81523060048201526001600160a01b039283169263a9059cbb92169083906370a0823190602401602060405180830381865afa1580156117df573d6000803e3d6000fd5b505050506040513d601f19601f820116820180604052508101906118039190614b50565b6040516001600160e01b031960e085901b1681526001600160a01b03909216600483015260248201526044016020604051808303816000875af115801561184e573d6000803e3d6000fd5b505050506040513d601f19601f820116820180604052508101906118729190614b98565b5061012080546001600160a01b0319166001600160a01b0392909216919091179055565b60c9546001600160a01b031633146118c05760405162461bcd60e51b81526004016113f090614bb5565b61011580546001600160a01b039384166001600160a01b0319918216179091556101168054929093169116179055565b61012054610119546040516370a0823160e01b81523060048201526001600160a01b039283169263a9059cbb92169083906370a08231906024015b602060405180830381865afa158015611948573d6000803e3d6000fd5b505050506040513d601f19601f8201168201806040525081019061196c9190614b50565b6040516001600160e01b031960e085901b1681526001600160a01b03909216600483015260248201526044016020604051808303816000875af11580156119b7573d6000803e3d6000fd5b505050506040513d601f19601f8201168201806040525081019061154a9190614b98565b61011f54610119546040516370a0823160e01b81523060048201526001600160a01b039283169263a9059cbb92169083906370a082319060240161192b565b6001600160a01b037f0000000000000000000000000000000000000000000000000000000000000000163003611a625760405162461bcd60e51b81526004016113f090614bea565b7f00000000000000000000000000000000000000000000000000000000000000006001600160a01b0316611aab600080516020614fbc833981519152546001600160a01b031690565b6001600160a01b031614611ad15760405162461bcd60e51b81526004016113f090614c36565b611ada82613aeb565b611ae682826001613b15565b5050565b6000611af660fb61340f565b905090565b60c9546001600160a01b03163314611b255760405162461bcd60e51b81526004016113f090614bb5565b60fe55565b6000306001600160a01b037f00000000000000000000000000000000000000000000000000000000000000001614611bca5760405162461bcd60e51b815260206004820152603860248201527f555550535570677261646561626c653a206d757374206e6f742062652063616c60448201527f6c6564207468726f7567682064656c656761746563616c6c000000000000000060648201526084016113f0565b50600080516020614fbc83398151915290565b60c9546001600160a01b03163314611c075760405162461bcd60e51b81526004016113f090614bb5565b6001600160a01b0391909116600090815261011e60205260409020805460ff1916911515919091179055565b60c9546001600160a01b03163314611c5d5760405162461bcd60e51b81526004016113f090614bb5565b60ff55565b6000610f2860fb83613c80565b61010f546101075410158015611c8f575061010f54611c8d30612161565b115b15611d6b5761011f546101155461010f5460405163a9059cbb60e01b81526001600160a01b039283166004820152602481019190915291169063a9059cbb906044016020604051808303816000875af1158015611cf0573d6000803e3d6000fd5b505050506040513d601f19601f82011682018060405250810190611d149190614b98565b506101155461010f5461011f54611d3b9230926001600160a01b0391821692909116612d4d565b611d6661010f54604051806060016040528060218152602001614f7a60219139610107549190613ca2565b610107555b61010f546101085410158015611d8b575061010f54611d8930612161565b115b156114465761011f546101165461010f5460405163a9059cbb60e01b81526001600160a01b039283166004820152602481019190915291169063a9059cbb906044016020604051808303816000875af1158015611dec573d6000803e3d6000fd5b505050506040513d601f19601f82011682018060405250810190611e109190614b98565b506101165461010f5461011f54611e379230926001600160a01b0391821692909116612d4d565b611e6261010f54604051806060016040528060218152602001614f9b60219139610108549190613ca2565b61010855565b6000806000806000806000806000611e7f8a612161565b9050611e8d81612710613431565b9050611ea2611e9b60355490565b829061343d565b905061010c54611eb18b612161565b10158015611eca575061010d54611ec78b612161565b11155b15611efa576000611eda8b612161565b9050611ef6611ee860355490565b6101125461111f9084613431565b9450505b61011454604080516318160ddd60e01b815290516000926001600160a01b0316916318160ddd9160048083019260209291908290030181865afa158015611f45573d6000803e3d6000fd5b505050506040513d601f19601f82011682018060405250810190611f699190614b50565b905080600003611f8b575060009850965091945086935083925061211d915050565b61011454610117546040516370a0823160e01b81526001600160a01b03918216600482015260009291909116906370a0823190602401602060405180830381865afa158015611fde573d6000803e3d6000fd5b505050506040513d601f19601f820116820180604052508101906120029190614b50565b905060006120108383613419565b9050600061011460009054906101000a90046001600160a01b03166001600160a01b03166370a082318f6040518263ffffffff1660e01b815260040161206591906001600160a01b0391909116815260200190565b602060405180830381865afa158015612082573d6000803e3d6000fd5b505050506040513d601f19601f820116820180604052508101906120a69190614b50565b905060006120ba8361111f84612710613431565b905061010a5482106120e3576120e08361111f846101105461343190919063ffffffff16565b97505b61010b54821061210a576121078361111f846101115461343190919063ffffffff16565b96505b9c50939a50959850939650919450505050505b91939590929450565b60c9546001600160a01b031633146121505760405162461bcd60e51b81526004016113f090614bb5565b610110929092556101115561011255565b6001600160a01b031660009081526033602052604090205490565b60c9546001600160a01b031633146121a65760405162461bcd60e51b81526004016113f090614bb5565b61011880546001600160a01b031916331790556114466000613cce565b600054610100900460ff166121de5760005460ff16156121e2565b303b155b6122455760405162461bcd60e51b815260206004820152602e60248201527f496e697469616c697a61626c653a20636f6e747261637420697320616c72656160448201526d191e481a5b9a5d1a585b1a5e995960921b60648201526084016113f0565b600054610100900460ff16158015612267576000805461ffff19166101011790555b6122ae60405180604001604052806009815260200168151154d508151154d560ba1b81525060405180604001604052806004815260200163151154d560e21b815250613d20565b6122b6613d51565b6122be613d80565b6122df336122ce6012600a614d7e565b6122da906156ce614d8d565b613da7565b6122eb6012600a614d7e565b6122f7906108ae614d8d565b60fe556101906101008190556064610101819055603261010281905561010382905561010481905561010582905561753061011a5591612338908290614c82565b6123429190614c82565b61234c9190614c82565b6101095561011c80546001600160a01b03191673d99d1c33f9fc3444f8101754abc46c52416550d19081179091556040805163c45a015560e01b8152905163c45a0155916004808201926020929091908290030181865afa1580156123b5573d6000803e3d6000fd5b505050506040513d601f19601f820116820180604052508101906123d99190614dac565b6001600160a01b031663c9c653963061011c60009054906101000a90046001600160a01b03166001600160a01b031663ad5c46486040518163ffffffff1660e01b8152600401602060405180830381865afa15801561243c573d6000803e3d6000fd5b505050506040513d601f19601f820116820180604052508101906124609190614dac565b6040516001600160e01b031960e085901b1681526001600160a01b039283166004820152911660248201526044016020604051808303816000875af11580156124ad573d6000803e3d6000fd5b505050506040513d601f19601f820116820180604052508101906124d19190614dac565b61011480546001600160a01b03929092166001600160a01b031992831617905561011f80548216737ef95a0fee0dd31b22626fa2e10ee6a223f8a68417905561012080549091167378867bbeef44f2326bf8ddd1941a4439382ef2a717905561254260c9546001600160a01b031690565b61011780546001600160a01b0319166001600160a01b0392831617905560c9541661011880546001600160a01b03929092166001600160a01b03199283161790556101198054821673e0023825bf2d550ddedccd58f35abe1b2de0e51f1790556101158054821673f900dde80a83bab2e388ea8a789b01982ae605d71790556101168054909116730b9aad6217b2425e63ad023d6b39da29df9c7ec31790556125e9601290565b6125f490600a614d7e565b6125ff906001614d8d565b60ff55670de0b6b3a7640000610110819055610111556a084595161401484a0000006101125560fd805460ff19166001179055670f43fc2c04ee000061010a55674563918244f4000061010b55612654601290565b61265f90600a614d7e565b61266a906005614d8d565b61010c5561267a6012600a614d7e565b6126859060c8614d8d565b61010d556126956012600a614d7e565b6126a0906005614d8d565b61010f556126b06012600a614d7e565b6126bb906005614d8d565b61010e5561011b80546001600160a01b03191661dead17905563610d40606101215561011e6020527f1eef267e306ec58e9f8ed1e7f0a413aa67ffb6abc1b9ce1dc601f53e356c8c2d805460ff1990811660019081179092557fe5d7d030bb8c81e61a957e9313eca67b168b39f42d3d4eae32999e88baa4126780548216831790557f750956f7807f4e7c7145de8fa5bb4b2fda7cd07d7fa1e49f4da1e1995913fa7b80548216831790557fb1400cc20c0ef117a780e8f6a7f9e50b2c529c6e6e1880647f0c8e2b97f4759680548216831790557f4ccdd39e287ad9251edccbd514100902bc96ac0b64bb82296d0a5c5c186af5da8054821683179055610118546001600160a01b031660009081526040902080549091169091179055801561154a576000805461ff001916905550565b60c9546001600160a01b031633146128165760405162461bcd60e51b81526004016113f090614bb5565b62030d40811015801561282c57506207a1208111155b6128965760405162461bcd60e51b815260206004820152603560248201527f20676173466f7250726f63657373696e67206d7573742062652062657477656560448201527406e203230302c30303020616e64203530302c30303605c1b60648201526084016113f0565b61011a5481036128fe5760405162461bcd60e51b815260206004820152602d60248201527f2043616e6e6f742075706461746520676173466f7250726f63657373696e672060448201526c746f2073616d652076616c756560981b60648201526084016113f0565b61011a55565b60c9546001600160a01b0316331461292e5760405162461bcd60e51b81526004016113f090614bb5565b611ae660fb82613e86565b60c9546001600160a01b031633146129635760405162461bcd60e51b81526004016113f090614bb5565b60fd8054911515620100000262ff000019909216919091179055565b606060378054610e9190614b16565b3360008181526034602090815260408083206001600160a01b038716845290915281205490919083811015612a135760405162461bcd60e51b815260206004820152602560248201527f45524332303a2064656372656173656420616c6c6f77616e63652062656c6f77604482015264207a65726f60d81b60648201526084016113f0565b612a2082868684036132eb565b506001949350505050565b6000612a3a6101215442101590565b612a735760405162461bcd60e51b815260206004820152600a60248201526963616e6e6f742062757960b01b60448201526064016113f0565b61011b543390600160a01b900460ff1615612a9857612a93818585613455565b610f22565b610114546001600160a01b03858116911614801590612ac65750610114546001600160a01b03828116911614155b8015612ae1575061011c546001600160a01b03828116911614155b8015612afc575061011c546001600160a01b03858116911614155b15612b1457612b0c818585613455565b612a93613e9b565b610114546001600160a01b038281169116148015612b40575061011c546001600160a01b038581169116145b80612b88575061011c546001600160a01b038281169116148015612b735750610114546001600160a01b03858116911614155b8015612b88575060fd5462010000900460ff16155b15612b9857612a93818585613455565b610f22818585613673565b60c9546001600160a01b03163314612bcd5760405162461bcd60e51b81526004016113f090614bb5565b61010a9590955561010b9390935561010c9190915561010d5561010e5561010f55565b6040805160028082526060820183526000926020830190803683370190505090503081600081518110612c2557612c25614dc9565b6001600160a01b0392831660209182029290920181019190915261011c54604080516315ab88c960e31b81529051919093169263ad5c46489260048083019391928290030181865afa158015612c7f573d6000803e3d6000fd5b505050506040513d601f19601f82011682018060405250810190612ca39190614dac565b81600181518110612cb657612cb6614dc9565b6001600160a01b03928316602091820292909201015261011c54612cdd91309116846132eb565b61011c5460405163791ac94760e01b81526001600160a01b039091169063791ac94790612d17908590600090869030904290600401614ddf565b600060405180830381600087803b158015612d3157600080fd5b505af1158015612d45573d6000803e3d6000fd5b505050505050565b60408051600380825260808201909252600091602082016060803683370190505090503081600081518110612d8457612d84614dc9565b6001600160a01b0392831660209182029290920181019190915261011c54604080516315ab88c960e31b81529051919093169263ad5c46489260048083019391928290030181865afa158015612dde573d6000803e3d6000fd5b505050506040513d601f19601f82011682018060405250810190612e029190614dac565b81600181518110612e1557612e15614dc9565b60200260200101906001600160a01b031690816001600160a01b0316815250508181600281518110612e4957612e49614dc9565b6001600160a01b03928316602091820292909201015261011c5460ff54612e7392889216906132eb565b61011c54604051635c11d79560e01b81526001600160a01b0390911690635c11d79590612ead90869060009086908a904290600401614ddf565b600060405180830381600087803b158015612ec757600080fd5b505af1158015612edb573d6000803e3d6000fd5b505050505050505050565b610119546040516001600160a01b03909116904780156108fc02916000818181858888f1935050505015801561154a573d6000803e3d6000fd5b60c9546001600160a01b03163314612f4a5760405162461bcd60e51b81526004016113f090614bb5565b610100959095556101019390935561010291909155610103556101045561010555565b610118546001600160a01b0316336001600160a01b031614612f8e57600080fd5b61011854611446906001600160a01b0316613cce565b61011f546040516370a0823160e01b81526001600160a01b038381166004830181905260009384938493923192909116906370a0823190602401602060405180830381865afa158015612ffb573d6000803e3d6000fd5b505050506040513d601f19601f8201168201806040525081019061301f9190614b50565b610120546040516370a0823160e01b81526001600160a01b038881166004830152909116906370a0823190602401602060405180830381865afa15801561306a573d6000803e3d6000fd5b505050506040513d601f19601f8201168201806040525081019061308e9190614b50565b9250925092509193909250565b60408051600280825260608201835260009260208301908036833701905050905030816000815181106130d0576130d0614dc9565b6001600160a01b0392831660209182029290920181019190915261011c54604080516315ab88c960e31b81529051919093169263ad5c46489260048083019391928290030181865afa15801561312a573d6000803e3d6000fd5b505050506040513d601f19601f8201168201806040525081019061314e9190614dac565b8160018151811061316157613161614dc9565b6001600160a01b03928316602091820292909201015261011c5461318891869116846132eb565b61011c5460405163791ac94760e01b81526001600160a01b039091169063791ac947906131c2908590600090869089904290600401614ddf565b600060405180830381600087803b1580156131dc57600080fd5b505af11580156131f0573d6000803e3d6000fd5b5050505050505050565b60c9546001600160a01b031633146132245760405162461bcd60e51b81526004016113f090614bb5565b60fd805460ff1916911515919091179055565b6000610f2860fb83613425565b60c9546001600160a01b0316331461326e5760405162461bcd60e51b81526004016113f090614bb5565b6001600160a01b0381166132d35760405162461bcd60e51b815260206004820152602660248201527f4f776e61626c653a206e6577206f776e657220697320746865207a65726f206160448201526564647265737360d01b60648201526084016113f0565b61154a81613cce565b6001600160a01b03163b151590565b6001600160a01b03831661334d5760405162461bcd60e51b8152602060048201526024808201527f45524332303a20617070726f76652066726f6d20746865207a65726f206164646044820152637265737360e01b60648201526084016113f0565b6001600160a01b0382166133ae5760405162461bcd60e51b815260206004820152602260248201527f45524332303a20617070726f766520746f20746865207a65726f206164647265604482015261737360f01b60648201526084016113f0565b6001600160a01b0383811660008181526034602090815260408083209487168084529482529182902085905590518481527f8c5be1e5ebec7d5bd14f71427d1e84f3dd0314c0f7b2291e5b200ac8c7c3b925910160405180910390a3505050565b6000610f28825490565b60006114678284614e50565b6000611467838361402e565b60006114678284614d8d565b60006114678284614e67565b60006114678284614c82565b6001600160a01b03831661347b5760405162461bcd60e51b81526004016113f090614e89565b6001600160a01b0382166134dd5760405162461bcd60e51b815260206004820152602360248201527f45524332303a207472616e7366657220746f20746865207a65726f206164647260448201526265737360e81b60648201526084016113f0565b6001600160a01b038316600090815260336020526040902054818110156135555760405162461bcd60e51b815260206004820152602660248201527f45524332303a207472616e7366657220616d6f756e7420657863656564732062604482015265616c616e636560d01b60648201526084016113f0565b6001600160a01b0380851660009081526033602052604080822085850390559185168152908120805484929061358c908490614c82565b92505081905550826001600160a01b0316846001600160a01b03167fddf252ad1be2c89b69c2b068fc378daa952ba7f163c4a11628f55a4df523b3ef846040516135d891815260200190565b60405180910390a35b50505050565b6001600160a01b0383811660009081526034602090815260408083209386168352929052205460001981146135e157818110156136665760405162461bcd60e51b815260206004820152601d60248201527f45524332303a20696e73756666696369656e7420616c6c6f77616e636500000060448201526064016113f0565b6135e184848484036132eb565b6001600160a01b0383166136995760405162461bcd60e51b81526004016113f090614e89565b6001600160a01b038316600090815261011d602052604090205460ff16156136f95760405162461bcd60e51b8152602060048201526013602482015272426c61636b6c6973746564206164647265737360681b60448201526064016113f0565b61011b54600160a01b900460ff161561371c57613717838383613455565b505050565b600061372b6101215442101590565b905080801561375057506101145460009061374e906001600160a01b0316612161565b115b801561376a5750610114546001600160a01b038581169116145b80156137855750610118546001600160a01b03858116911614155b801561378e5750805b80156137a85750610121546137a4906009614c82565b4211155b156137b6576137b683614058565b61011c546001600160a01b0316336001600160a01b03161480156137e85750610114546001600160a01b038481169116145b80156137f45750333014155b1561380157613801613e9b565b6101065461380e30612161565b106138575760006138256101065461105030612161565b60ff54909150613836906003613431565b811061385557610119546138559030906001600160a01b031683613455565b505b61011b54600160a01b900460ff1615801561388c57506001600160a01b038316600090815261011e602052604090205460ff16155b80156138b257506001600160a01b038416600090815261011e602052604090205460ff16155b15613ac65760006138d561271061111f610109548661343190919063ffffffff16565b905060006138f561271061111f610105548761343190919063ffffffff16565b9050600061391561271061111f610104548861343190919063ffffffff16565b610106549091506139269082613449565b6101065561010254600090613944906127109061111f908990613431565b905060fe5461395260355490565b11156139675761396288826140a0565b613987565b6139718482613449565b610107549094506139829082613449565b610107555b600061399484600261343d565b610107549091506139a59082613449565b61010755610108546139b79082613449565b610108556139c58783613419565b96506139d5846110508988613419565b96506139e2893087613455565b610114546001600160a01b03898116911614801590613a10575061011c546001600160a01b03898116911614155b8015613a2b5750610117546001600160a01b03898116911614155b8015613a3f5750613a3d60fb89613c80565b155b15613a5157613a4f60fb896141ee565b505b610114546001600160a01b038a8116911614801590613a7f575061011c546001600160a01b038a8116911614155b8015613a9a5750610117546001600160a01b038a8116911614155b8015613aae5750613aac60fb8a613c80565b155b15613ac057613abe60fb8a6141ee565b505b50505050505b613ad1848484613455565b61011b54600160a01b900460ff166135e1576135e1610f2e565b60c9546001600160a01b0316331461154a5760405162461bcd60e51b81526004016113f090614bb5565b7f4910fdfa16fed3260ed0e7147f7cc6da11a60208b5b9406d12a635614ffd91435460ff1615613b485761371783614203565b826001600160a01b03166352d1902d6040518163ffffffff1660e01b8152600401602060405180830381865afa925050508015613ba2575060408051601f3d908101601f19168201909252613b9f91810190614b50565b60015b613c055760405162461bcd60e51b815260206004820152602e60248201527f45524331393637557067726164653a206e657720696d706c656d656e7461746960448201526d6f6e206973206e6f74205555505360901b60648201526084016113f0565b600080516020614fbc8339815191528114613c745760405162461bcd60e51b815260206004820152602960248201527f45524331393637557067726164653a20756e737570706f727465642070726f786044820152681a58589b195555525160ba1b60648201526084016113f0565b5061371783838361429f565b6001600160a01b03811660009081526001830160205260408120541515611467565b60008184841115613cc65760405162461bcd60e51b81526004016113f091906147fd565b505050900390565b60c980546001600160a01b038381166001600160a01b0319831681179093556040519116919082907f8be0079c531659141344cd1fd0a4f28419497f9722a3daafe3b4186f6b6457e090600090a35050565b600054610100900460ff16613d475760405162461bcd60e51b81526004016113f090614ece565b611ae682826142c4565b600054610100900460ff16613d785760405162461bcd60e51b81526004016113f090614ece565b611446614312565b600054610100900460ff166114465760405162461bcd60e51b81526004016113f090614ece565b6001600160a01b038216613dfd5760405162461bcd60e51b815260206004820152601f60248201527f45524332303a206d696e7420746f20746865207a65726f20616464726573730060448201526064016113f0565b8060356000828254613e0f9190614c82565b90915550506001600160a01b03821660009081526033602052604081208054839290613e3c908490614c82565b90915550506040518181526001600160a01b038316906000907fddf252ad1be2c89b69c2b068fc378daa952ba7f163c4a11628f55a4df523b3ef9060200160405180910390a35050565b6000611467836001600160a01b038416614342565b60fd5460ff168015613eb8575061011b54600160a01b900460ff16155b8015613ece575060ff54613ecb30612161565b10155b8015613edc57506101105447105b8015613eff575060ff5461011454613efc906001600160a01b0316612161565b10155b156114465761011b805460ff60a01b1916600160a01b179055610100546101095460fe54613f2c60355490565b11613f695761010254613f3f9083614c82565b91506101025481613f509190614c82565b90506101025461010554613f649190614c82565b610105555b6000613f848261111f8560ff5461343190919063ffffffff16565b61011f54909150613fa3903090819084906001600160a01b0316612d4d565b6000613fc18361111f6101015460ff5461343190919063ffffffff16565b9050613fcc81612bf0565b6000613fea8461111f6101035460ff5461343190919063ffffffff16565b61012054909150614009903090819084906001600160a01b0316612d4d565b614011614435565b614019611c6f565b505061011b805460ff60a01b19169055505050565b600082600001828154811061404557614045614dc9565b9060005260206000200154905092915050565b6001600160a01b038116600090815261011d602052604090205460ff1661154a576001600160a01b038116600090815261011d60205260409020805460ff1916600117905550565b6001600160a01b0382166141005760405162461bcd60e51b815260206004820152602160248201527f45524332303a206275726e2066726f6d20746865207a65726f206164647265736044820152607360f81b60648201526084016113f0565b6001600160a01b038216600090815260336020526040902054818110156141745760405162461bcd60e51b815260206004820152602260248201527f45524332303a206275726e20616d6f756e7420657863656564732062616c616e604482015261636560f01b60648201526084016113f0565b6001600160a01b03831660009081526033602052604081208383039055603580548492906141a3908490614e50565b90915550506040518281526000906001600160a01b038516907fddf252ad1be2c89b69c2b068fc378daa952ba7f163c4a11628f55a4df523b3ef9060200160405180910390a3505050565b6000611467836001600160a01b0384166144c5565b6001600160a01b0381163b6142705760405162461bcd60e51b815260206004820152602d60248201527f455243313936373a206e657720696d706c656d656e746174696f6e206973206e60448201526c1bdd08184818dbdb9d1c9858dd609a1b60648201526084016113f0565b600080516020614fbc83398151915280546001600160a01b0319166001600160a01b0392909216919091179055565b6142a883614514565b6000825111806142b55750805b15613717576135e18383614554565b600054610100900460ff166142eb5760405162461bcd60e51b81526004016113f090614ece565b81516142fe906036906020850190614738565b508051613717906037906020840190614738565b600054610100900460ff166143395760405162461bcd60e51b81526004016113f090614ece565b61144633613cce565b6000818152600183016020526040812054801561442b576000614366600183614e50565b855490915060009061437a90600190614e50565b90508181146143df57600086600001828154811061439a5761439a614dc9565b90600052602060002001549050808760000184815481106143bd576143bd614dc9565b6000918252602080832090910192909255918252600188019052604090208390555b85548690806143f0576143f0614f19565b600190038181906000526020600020016000905590558560010160008681526020019081526020016000206000905560019350505050610f28565b6000915050610f28565b61010e54610106541080614453575061010e5461445130612161565b105b1561445a57565b61010e5460009061446c90600261343d565b905060006144868261010e5461341990919063ffffffff16565b90504761449283612bf0565b600061449e4783613419565b90506144aa8382614648565b61010e54610106546144bb91613419565b6101065550505050565b600081815260018301602052604081205461450c57508154600181810184556000848152602080822090930184905584548482528286019093526040902091909155610f28565b506000610f28565b61451d81614203565b6040516001600160a01b038216907fbc7cd75a20ee27fd9adebab32041f755214dbc6bffa90cc0225b39da2e5c2d3b90600090a250565b60606001600160a01b0383163b6145bc5760405162461bcd60e51b815260206004820152602660248201527f416464726573733a2064656c65676174652063616c6c20746f206e6f6e2d636f6044820152651b9d1c9858dd60d21b60648201526084016113f0565b600080846001600160a01b0316846040516145d79190614f2f565b600060405180830381855af49150503d8060008114614612576040519150601f19603f3d011682016040523d82523d6000602084013e614617565b606091505b509150915061463f8282604051806060016040528060278152602001614fdc602791396146ff565b95945050505050565b61011c546146619030906001600160a01b0316846132eb565b61011c5461011b5460405163f305d71960e01b81523060048201526024810185905260006044820181905260648201526001600160a01b0391821660848201524260a482015291169063f305d71990839060c40160606040518083038185885af11580156146d3573d6000803e3d6000fd5b50505050506040513d601f19601f820116820180604052508101906146f89190614f4b565b5050505050565b6060831561470e575081611467565b82511561471e5782518084602001fd5b8160405162461bcd60e51b81526004016113f091906147fd565b82805461474490614b16565b90600052602060002090601f01602090048101928261476657600085556147ac565b82601f1061477f57805160ff19168380011785556147ac565b828001600101855582156147ac579182015b828111156147ac578251825591602001919060010190614791565b506147b89291506147bc565b5090565b5b808211156147b857600081556001016147bd565b60005b838110156147ec5781810151838201526020016147d4565b838111156135e15750506000910152565b602081526000825180602084015261481c8160408501602087016147d1565b601f01601f19169190910160400192915050565b6001600160a01b038116811461154a57600080fd5b6000806040838503121561485857600080fd5b823561486381614830565b946020939093013593505050565b801515811461154a57600080fd5b6000806040838503121561489257600080fd5b823561489d81614830565b915060208301356148ad81614871565b809150509250929050565b6000602082840312156148ca57600080fd5b813561146781614830565b6000806000606084860312156148ea57600080fd5b83356148f581614830565b9250602084013561490581614830565b929592945050506040919091013590565b6000806040838503121561492957600080fd5b823561493481614830565b915060208301356148ad81614830565b634e487b7160e01b600052604160045260246000fd5b6000806040838503121561496d57600080fd5b823561497881614830565b9150602083013567ffffffffffffffff8082111561499557600080fd5b818501915085601f8301126149a957600080fd5b8135818111156149bb576149bb614944565b604051601f8201601f19908116603f011681019083821181831017156149e3576149e3614944565b816040528281528860208487010111156149fc57600080fd5b8260208601602083013760006020848301015280955050505050509250929050565b600060208284031215614a3057600080fd5b5035919050565b600080600060608486031215614a4c57600080fd5b505081359360208301359350604090920135919050565b600060208284031215614a7557600080fd5b813561146781614871565b60008060008060008060c08789031215614a9957600080fd5b505084359660208601359650604086013595606081013595506080810135945060a0013592509050565b60008060008060808587031215614ad957600080fd5b8435614ae481614830565b93506020850135614af481614830565b9250604085013591506060850135614b0b81614830565b939692955090935050565b600181811c90821680614b2a57607f821691505b602082108103614b4a57634e487b7160e01b600052602260045260246000fd5b50919050565b600060208284031215614b6257600080fd5b5051919050565b634e487b7160e01b600052601160045260246000fd5b600060018201614b9157614b91614b69565b5060010190565b600060208284031215614baa57600080fd5b815161146781614871565b6020808252818101527f4f776e61626c653a2063616c6c6572206973206e6f7420746865206f776e6572604082015260600190565b6020808252602c908201527f46756e6374696f6e206d7573742062652063616c6c6564207468726f7567682060408201526b19195b1959d85d1958d85b1b60a21b606082015260800190565b6020808252602c908201527f46756e6374696f6e206d7573742062652063616c6c6564207468726f7567682060408201526b6163746976652070726f787960a01b606082015260800190565b60008219821115614c9557614c95614b69565b500190565b600181815b80851115614cd5578160001904821115614cbb57614cbb614b69565b80851615614cc857918102915b93841c9390800290614c9f565b509250929050565b600082614cec57506001610f28565b81614cf957506000610f28565b8160018114614d0f5760028114614d1957614d35565b6001915050610f28565b60ff841115614d2a57614d2a614b69565b50506001821b610f28565b5060208310610133831016604e8410600b8410161715614d58575081810a610f28565b614d628383614c9a565b8060001904821115614d7657614d76614b69565b029392505050565b600061146760ff841683614cdd565b6000816000190483118215151615614da757614da7614b69565b500290565b600060208284031215614dbe57600080fd5b815161146781614830565b634e487b7160e01b600052603260045260246000fd5b600060a082018783526020878185015260a0604085015281875180845260c086019150828901935060005b81811015614e2f5784516001600160a01b031683529383019391830191600101614e0a565b50506001600160a01b03969096166060850152505050608001529392505050565b600082821015614e6257614e62614b69565b500390565b600082614e8457634e487b7160e01b600052601260045260246000fd5b500490565b60208082526025908201527f45524332303a207472616e736665722066726f6d20746865207a65726f206164604082015264647265737360d81b606082015260800190565b6020808252602b908201527f496e697469616c697a61626c653a20636f6e7472616374206973206e6f74206960408201526a6e697469616c697a696e6760a81b606082015260800190565b634e487b7160e01b600052603160045260246000fd5b60008251614f418184602087016147d1565b9190910192915050565b600080600060608486031215614f6057600080fd5b835192506020840151915060408401519050925092509256fe5f6d61726b65743146656553756d203c205f6d61726b65744665655377617041745f6d61726b65743246656553756d203c205f6d61726b6574466565537761704174360894a13ba1a3210667c828492db98dca3e2076cc3735a920a3ca505d382bbc416464726573733a206c6f772d6c6576656c2064656c65676174652063616c6c206661696c6564a26469706673582212203b0ec809fc67b2597d141df3ce1f1134b2648c69f94b10ecf1f0b63f7bb3666464736f6c634300080d0033",
    "sourcePath": "/Users/janly/data/solidity/UUPS/contracts/dotty.sol",
    "compiler": {
        "name": "solc",
        "version": "0.8.13+commit.abaa5c0e"
    },
    "functionHashes": {
        "_backFeeRate()": "3e67d66b",
        "_burnFeeRate()": "94807628",
        "_burnStopAt()": "baa856bc",
        "_excludelpAddress()": "f60a515a",
        "_feeRate()": "b2131f7d",
        "_holdDividendAt()": "4c0a38b5",
        "_holdDividendEnd()": "f4af51cc",
        "_holderFeeRate()": "bdde32d6",
        "_isBlacklisted(address)": "1cdd3be3",
        "_liquidityFee()": "6bc87c3a",
        "_lp2FeeRate()": "b4714802",
        "_lpDividendFirstAt()": "dede5f45",
        "_lpDividendSecondAt()": "33b3cd82",
        "_lpFeeRate()": "3df6be61",
        "_market1FeeSum()": "9547754a",
        "_market2FeeSum()": "65742568",
        "_marketFeeRate()": "0835a625",
        "_marketFeeSwapAt()": "5c709fa4",
        "_marketing1WalletAddress()": "1d248989",
        "_marketingWalletAddress()": "4144d9e4",
        "_rewardBaseHolder()": "fcfd8269",
        "_rewardBaseLPFirst()": "e0fb2c05",
        "_rewardBaseLPSecond()": "dad37195",
        "_swapAndLiquifyAt()": "25e8fa21",
        "_swapAt()": "eb7b70f1",
        "_whitelist(address)": "cfdb63ac",
        "allowance(address,address)": "dd62ed3e",
        "approve(address,uint256)": "095ea7b3",
        "balanceOf(address)": "70a08231",
        "contains(address)": "5dbe47e8",
        "deadWallet()": "85141a77",
        "decimals()": "313ce567",
        "decreaseAllowance(address,uint256)": "a457c2d7",
        "dividend()": "0ff8cf9b",
        "getHolderAt(uint256)": "e253f87b",
        "getHolderLength()": "4f21869c",
        "getRewardBalance(address)": "d5a849e9",
        "getRewardValues(address)": "5f4fe879",
        "getTradingIsEnabled()": "4d33b1ef",
        "increaseAllowance(address,uint256)": "39509351",
        "initialize()": "8129fc1c",
        "lastProcessedIndex()": "3009a609",
        "name()": "06fdde03",
        "owner()": "8da5cb5b",
        "proxiableUUID()": "52d1902d",
        "removeHolder(address)": "8dd42808",
        "removeLiquidityTakeFee()": "5525abe2",
        "renounceOwnership()": "715018a6",
        "setBlacklist(address,bool)": "153b0d1e",
        "setBurnStopAt(uint256)": "4f3e01bc",
        "setDividendAt(uint256,uint256,uint256,uint256,uint256,uint256)": "b067167f",
        "setExcludelpAddress(address)": "40704b36",
        "setFeeRate(uint256,uint256,uint256,uint256,uint256,uint256)": "ced0d31d",
        "setMarketingWalletAddress(address,address)": "4a559a60",
        "setRemoveLiquidityTakeFee(bool)": "8f501a25",
        "setRewardBase(uint256,uint256,uint256)": "6eea6fa6",
        "setRewardToken1(address)": "463b44fc",
        "setRewardToken2(address)": "493c0793",
        "setSwapAt(uint256)": "5c04ac94",
        "setSwapEnabled(bool)": "e01af92c",
        "setTakeFeeWallet(address)": "392d2681",
        "setWhitelist(address,bool)": "53d6fd59",
        "swapEnabled()": "6ddd1713",
        "swapMarketFee()": "5e4ebbe2",
        "swapOrDividend()": "45082370",
        "swapTokensFor2Tokens(address,address,uint256)": "dba54646",
        "swapTokensFor3Tokens(address,address,uint256,address)": "c3274c77",
        "swapTokensForEth(uint256)": "b28805f4",
        "symbol()": "95d89b41",
        "takeBNB()": "ce7157c6",
        "takeBackCtl()": "d1b5da87",
        "takeFee()": "181aa1fd",
        "takeReward1()": "4f07e35c",
        "takeReward2()": "4c622f5d",
        "totalSupply()": "18160ddd",
        "tradingEnabledTimestamp()": "25b61703",
        "transfer(address,uint256)": "a9059cbb",
        "transferFrom(address,address,uint256)": "23b872dd",
        "transferOwnership(address)": "f2fde38b",
        "uniswapV2Pair()": "49bd5a5e",
        "uniswapV2Router()": "1694505e",
        "updateGasForProcessing(uint256)": "871c128d",
        "upgradeTo(address)": "3659cfe6",
        "upgradeToAndCall(address,bytes)": "4f1ef286"
    },
    "gasEstimates": {
        "creation": {
            "codeDepositCost": "4107200",
            "executionCost": "infinite",
            "totalCost": "infinite"
        },
        "external": {
            "_backFeeRate()": "2473",
            "_burnFeeRate()": "2429",
            "_burnStopAt()": "2385",
            "_excludelpAddress()": "2491",
            "_feeRate()": "2450",
            "_holdDividendAt()": "2407",
            "_holdDividendEnd()": "2427",
            "_holderFeeRate()": "2407",
            "_isBlacklisted(address)": "2660",
            "_liquidityFee()": "2408",
            "_lp2FeeRate()": "2363",
            "_lpDividendFirstAt()": "2406",
            "_lpDividendSecondAt()": "2363",
            "_lpFeeRate()": "2451",
            "_market1FeeSum()": "2451",
            "_market2FeeSum()": "2386",
            "_marketFeeRate()": "2387",
            "_marketFeeSwapAt()": "2428",
            "_marketing1WalletAddress()": "2494",
            "_marketingWalletAddress()": "2428",
            "_rewardBaseHolder()": "2471",
            "_rewardBaseLPFirst()": "2450",
            "_rewardBaseLPSecond()": "2450",
            "_swapAndLiquifyAt()": "2408",
            "_swapAt()": "2383",
            "_whitelist(address)": "2614",
            "allowance(address,address)": "infinite",
            "approve(address,uint256)": "24713",
            "balanceOf(address)": "2611",
            "contains(address)": "infinite",
            "deadWallet()": "2471",
            "decimals()": "334",
            "decreaseAllowance(address,uint256)": "26983",
            "dividend()": "infinite",
            "getHolderAt(uint256)": "4760",
            "getHolderLength()": "2482",
            "getRewardBalance(address)": "infinite",
            "getRewardValues(address)": "infinite",
            "getTradingIsEnabled()": "2462",
            "increaseAllowance(address,uint256)": "27077",
            "initialize()": "infinite",
            "lastProcessedIndex()": "2430",
            "name()": "infinite",
            "owner()": "2399",
            "proxiableUUID()": "infinite",
            "removeHolder(address)": "infinite",
            "removeLiquidityTakeFee()": "2410",
            "renounceOwnership()": "52442",
            "setBlacklist(address,bool)": "infinite",
            "setBurnStopAt(uint256)": "24598",
            "setDividendAt(uint256,uint256,uint256,uint256,uint256,uint256)": "135239",
            "setExcludelpAddress(address)": "26774",
            "setFeeRate(uint256,uint256,uint256,uint256,uint256,uint256)": "135173",
            "setMarketingWalletAddress(address,address)": "infinite",
            "setRemoveLiquidityTakeFee(bool)": "26789",
            "setRewardBase(uint256,uint256,uint256)": "68882",
            "setRewardToken1(address)": "infinite",
            "setRewardToken2(address)": "infinite",
            "setSwapAt(uint256)": "24575",
            "setSwapEnabled(bool)": "26796",
            "setTakeFeeWallet(address)": "26817",
            "setWhitelist(address,bool)": "infinite",
            "swapEnabled()": "2445",
            "swapMarketFee()": "infinite",
            "swapOrDividend()": "2434",
            "swapTokensFor2Tokens(address,address,uint256)": "infinite",
            "swapTokensFor3Tokens(address,address,uint256,address)": "infinite",
            "swapTokensForEth(uint256)": "infinite",
            "symbol()": "infinite",
            "takeBNB()": "infinite",
            "takeBackCtl()": "30367",
            "takeFee()": "38257",
            "takeReward1()": "infinite",
            "takeReward2()": "infinite",
            "totalSupply()": "2383",
            "tradingEnabledTimestamp()": "2386",
            "transfer(address,uint256)": "infinite",
            "transferFrom(address,address,uint256)": "infinite",
            "transferOwnership(address)": "infinite",
            "uniswapV2Pair()": "2405",
            "uniswapV2Router()": "2406",
            "updateGasForProcessing(uint256)": "26803",
            "upgradeTo(address)": "infinite",
            "upgradeToAndCall(address,bytes)": "infinite"
        },
        "internal": {
            "_authorizeUpgrade(address)": "infinite",
            "_swap()": "infinite",
            "_transfer(address,address,uint256)": "infinite",
            "addBot(address)": "26537",
            "addLiquidity(uint256,uint256)": "infinite",
            "swapAndLiquify()": "infinite"
        }
    }
}