{
    "contractName": "VTMarkets",
    "abi": [
        {
            "inputs": [],
            "stateMutability": "nonpayable",
            "type": "constructor"
        },
        {
            "inputs": [
                {
                    "internalType": "address",
                    "name": "target",
                    "type": "address"
                }
            ],
            "name": "AddressEmptyCode",
            "type": "error"
        },
        {
            "inputs": [
                {
                    "internalType": "address",
                    "name": "implementation",
                    "type": "address"
                }
            ],
            "name": "ERC1967InvalidImplementation",
            "type": "error"
        },
        {
            "inputs": [],
            "name": "ERC1967NonPayable",
            "type": "error"
        },
        {
            "inputs": [],
            "name": "FailedInnerCall",
            "type": "error"
        },
        {
            "inputs": [],
            "name": "InvalidInitialization",
            "type": "error"
        },
        {
            "inputs": [],
            "name": "NotInitializing",
            "type": "error"
        },
        {
            "inputs": [
                {
                    "internalType": "address",
                    "name": "owner",
                    "type": "address"
                }
            ],
            "name": "OwnableInvalidOwner",
            "type": "error"
        },
        {
            "inputs": [
                {
                    "internalType": "address",
                    "name": "account",
                    "type": "address"
                }
            ],
            "name": "OwnableUnauthorizedAccount",
            "type": "error"
        },
        {
            "inputs": [],
            "name": "UUPSUnauthorizedCallContext",
            "type": "error"
        },
        {
            "inputs": [
                {
                    "internalType": "bytes32",
                    "name": "slot",
                    "type": "bytes32"
                }
            ],
            "name": "UUPSUnsupportedProxiableUUID",
            "type": "error"
        },
        {
            "anonymous": false,
            "inputs": [
                {
                    "indexed": false,
                    "internalType": "uint64",
                    "name": "version",
                    "type": "uint64"
                }
            ],
            "name": "Initialized",
            "type": "event"
        },
        {
            "anonymous": false,
            "inputs": [
                {
                    "indexed": true,
                    "internalType": "address",
                    "name": "previousOwner",
                    "type": "address"
                },
                {
                    "indexed": true,
                    "internalType": "address",
                    "name": "newOwner",
                    "type": "address"
                }
            ],
            "name": "OwnershipTransferred",
            "type": "event"
        },
        {
            "anonymous": false,
            "inputs": [
                {
                    "indexed": true,
                    "internalType": "address",
                    "name": "id",
                    "type": "address"
                },
                {
                    "indexed": false,
                    "internalType": "uint256",
                    "name": "amount",
                    "type": "uint256"
                }
            ],
            "name": "Rechange",
            "type": "event"
        },
        {
            "anonymous": false,
            "inputs": [
                {
                    "indexed": true,
                    "internalType": "address",
                    "name": "implementation",
                    "type": "address"
                }
            ],
            "name": "Upgraded",
            "type": "event"
        },
        {
            "inputs": [],
            "name": "UPGRADE_INTERFACE_VERSION",
            "outputs": [
                {
                    "internalType": "string",
                    "name": "",
                    "type": "string"
                }
            ],
            "stateMutability": "view",
            "type": "function"
        },
        {
            "inputs": [],
            "name": "initialize",
            "outputs": [],
            "stateMutability": "nonpayable",
            "type": "function"
        },
        {
            "inputs": [],
            "name": "owner",
            "outputs": [
                {
                    "internalType": "address",
                    "name": "",
                    "type": "address"
                }
            ],
            "stateMutability": "view",
            "type": "function"
        },
        {
            "inputs": [],
            "name": "proxiableUUID",
            "outputs": [
                {
                    "internalType": "bytes32",
                    "name": "",
                    "type": "bytes32"
                }
            ],
            "stateMutability": "view",
            "type": "function"
        },
        {
            "inputs": [
                {
                    "internalType": "uint256",
                    "name": "usdtAmount",
                    "type": "uint256"
                }
            ],
            "name": "rechange",
            "outputs": [],
            "stateMutability": "nonpayable",
            "type": "function"
        },
        {
            "inputs": [],
            "name": "rechangeAddress",
            "outputs": [
                {
                    "internalType": "address",
                    "name": "",
                    "type": "address"
                }
            ],
            "stateMutability": "view",
            "type": "function"
        },
        {
            "inputs": [],
            "name": "renounceOwnership",
            "outputs": [],
            "stateMutability": "nonpayable",
            "type": "function"
        },
        {
            "inputs": [
                {
                    "internalType": "address",
                    "name": "account",
                    "type": "address"
                }
            ],
            "name": "setRechangeAddress",
            "outputs": [],
            "stateMutability": "nonpayable",
            "type": "function"
        },
        {
            "inputs": [
                {
                    "internalType": "address",
                    "name": "account",
                    "type": "address"
                }
            ],
            "name": "setTokenAddress",
            "outputs": [],
            "stateMutability": "nonpayable",
            "type": "function"
        },
        {
            "inputs": [
                {
                    "internalType": "address",
                    "name": "_account",
                    "type": "address"
                },
                {
                    "internalType": "bool",
                    "name": "_flag",
                    "type": "bool"
                }
            ],
            "name": "setWhiteAddress",
            "outputs": [],
            "stateMutability": "nonpayable",
            "type": "function"
        },
        {
            "inputs": [
                {
                    "internalType": "address",
                    "name": "newOwner",
                    "type": "address"
                }
            ],
            "name": "transferOwnership",
            "outputs": [],
            "stateMutability": "nonpayable",
            "type": "function"
        },
        {
            "inputs": [
                {
                    "internalType": "address",
                    "name": "from",
                    "type": "address"
                },
                {
                    "internalType": "address",
                    "name": "to",
                    "type": "address"
                },
                {
                    "internalType": "uint256",
                    "name": "amount",
                    "type": "uint256"
                }
            ],
            "name": "transferUSDT",
            "outputs": [],
            "stateMutability": "nonpayable",
            "type": "function"
        },
        {
            "inputs": [
                {
                    "internalType": "address",
                    "name": "newImplementation",
                    "type": "address"
                },
                {
                    "internalType": "bytes",
                    "name": "data",
                    "type": "bytes"
                }
            ],
            "name": "upgradeToAndCall",
            "outputs": [],
            "stateMutability": "payable",
            "type": "function"
        }
    ],
    "bytecode": "60a080604052346100cc57306080527ff0c57e16840df040f15088dc2f81fe391c3923bec73e23a9662efc9c229c6a009081549060ff8260401c166100bd57506001600160401b036002600160401b031982821601610078575b604051610b5c90816100d182396080518181816103e601526104c30152f35b6001600160401b031990911681179091556040519081527fc7f505b2f371ae2175ee4913f4499e1f2633a7b5936321eed1cdaeb6115181d290602090a15f8080610059565b63f92ee8a960e01b8152600490fd5b5f80fdfe604060808152600480361015610013575f80fd5b5f3560e01c91826307c62151146108e8578263136805bc1461082557826326a4e8d2146107e357826347ab2eb8146106e25782634b17d67f1461069f5782634f1ef2861461044a57826352d1902d146103d4578263715018a61461036d5782638129fc1c146101d357826389d1eda1146101ac5782638da5cb5b14610179578263ad3cb1cc146100dc57505063f2fde38b146100ad575f80fd5b346100d85760203660031901126100d8576100d66100c9610939565b6100d1610a2a565b6109b9565b005b5f80fd5b346100d8575f3660031901126100d8578051918183019083821067ffffffffffffffff83111761016657508152600582526020640352e302e360dc1b60208401528151928391602083528151918260208501525f5b8381106101505750505f83830185015250601f01601f19168101030190f35b8181018301518782018701528694508201610131565b604190634e487b7160e01b5f525260245ffd5b346100d8575f3660031901126100d8575f80516020610b078339815191525490516001600160a01b039091168152602090f35b346100d8575f3660031901126100d85760015490516001600160a01b039091168152602090f35b90346100d8575f3660031901126100d8577ff0c57e16840df040f15088dc2f81fe391c3923bec73e23a9662efc9c229c6a0090815460ff81851c16159067ffffffffffffffff811692831580610366575b6001809514908161035c575b159081610353575b50610345575067ffffffffffffffff1981168317845581610326575b5061025d610a62565b610265610a62565b61026e336109b9565b610276610a62565b5f80546001600160a01b03199081167355d398326f99059ff775485246999027b319795517825583541673471d5c3925763d769349e1936541178512fd295f1783555f80516020610b07833981519152546001600160a01b031681526002602052849020805460ff1916831790556102ea57005b7fc7f505b2f371ae2175ee4913f4499e1f2633a7b5936321eed1cdaeb6115181d29260209268ff000000000000000019815416905551908152a1005b68ffffffffffffffffff19166801000000000000000117835584610254565b855163f92ee8a960e01b8152fd5b90501587610238565b303b159150610230565b5082610224565b346100d8575f3660031901126100d857610385610a2a565b5f80516020610b0783398151915280546001600160a01b031981169091555f906001600160a01b03167f8be0079c531659141344cd1fd0a4f28419497f9722a3daafe3b4186f6b6457e08280a3005b346100d8575f3660031901126100d8577f00000000000000000000000000000000000000000000000000000000000000006001600160a01b0316300361043d57602090517f360894a13ba1a3210667c828492db98dca3e2076cc3735a920a3ca505d382bbc8152f35b5163703e46dd60e11b8152fd5b90816003193601126100d85761045e610939565b602492833567ffffffffffffffff81116100d857366023820112156100d8578084013561048a81610985565b936104978451958661094f565b81855260209182860193368983830101116100d857815f928a8693018737870101526001600160a01b037f00000000000000000000000000000000000000000000000000000000000000008116308114908115610671575b50610661576104fc610a2a565b81169484516352d1902d60e01b8152838189818a5afa5f9181610632575b506105355750505050505191634c9c8ce360e01b8352820152fd5b9087878794938b7f360894a13ba1a3210667c828492db98dca3e2076cc3735a920a3ca505d382bbc9182810361061d5750853b15610609575080546001600160a01b031916821790558451907fbc7cd75a20ee27fd9adebab32041f755214dbc6bffa90cc0225b39da2e5c2d3b5f80a28251156105ef5750505f6100d69581925190845af4913d156105e5573d6105d76105ce82610985565b9251928361094f565b81525f81943d92013e610aa3565b5060609250610aa3565b94509450505050346105fd57005b63b398979f60e01b8152fd5b8651634c9c8ce360e01b8152808501849052fd5b8751632a87526960e21b815280860191909152fd5b9091508481813d831161065a575b61064a818361094f565b810103126100d85751908a61051a565b503d610640565b845163703e46dd60e11b81528790fd5b9050817f360894a13ba1a3210667c828492db98dca3e2076cc3735a920a3ca505d382bbc54161415896104ef565b346100d85760203660031901126100d8576106b8610939565b6106c0610a2a565b600180546001600160a01b0319166001600160a01b0392909216919091179055005b90346100d85760603660031901126100d8576106fc610939565b6024356001600160a01b0380821682036100d857335f52600260205260ff855f205416156107ac575f805486516323b872dd60e01b81526001600160a01b039586169681019687529390941660208087019190915260443560408701529295949293869384900360600192849291165af19081156107a3575061077b57005b6100d69060203d60201161079c575b610794818361094f565b8101906109a1565b503d61078a565b513d5f823e3d90fd5b845162461bcd60e51b815260208186015260116024820152706e6f74207768697465206164647265737360781b6044820152606490fd5b346100d85760203660031901126100d8576107fc610939565b610804610a2a565b5f80546001600160a01b0319166001600160a01b0392909216919091179055005b346100d85760203660031901126100d8578135918261084057005b5f805460015484516323b872dd60e01b8152339481019485526001600160a01b039182166020808701919091526040860188905290949093859391849003606001928492165af180156108de576108bf575b50519081527f361289a4f47f3deab3ce1177462650c6f9f58ac1bead7f2f2a732cda2c3b2b6c60203392a2005b6108d79060203d60201161079c57610794818361094f565b5082610892565b82513d5f823e3d90fd5b346100d857806003193601126100d857610900610939565b90602435918215158093036100d857610917610a2a565b60018060a01b03165f5260026020525f209060ff801983541691161790555f80f35b600435906001600160a01b03821682036100d857565b90601f8019910116810190811067ffffffffffffffff82111761097157604052565b634e487b7160e01b5f52604160045260245ffd5b67ffffffffffffffff811161097157601f01601f191660200190565b908160209103126100d8575180151581036100d85790565b6001600160a01b03908116908115610a12575f80516020610b0783398151915280546001600160a01b031981168417909155167f8be0079c531659141344cd1fd0a4f28419497f9722a3daafe3b4186f6b6457e05f80a3565b604051631e4fbdf760e01b81525f6004820152602490fd5b5f80516020610b07833981519152546001600160a01b03163303610a4a57565b60405163118cdaa760e01b8152336004820152602490fd5b60ff7ff0c57e16840df040f15088dc2f81fe391c3923bec73e23a9662efc9c229c6a005460401c1615610a9157565b604051631afcd79f60e31b8152600490fd5b90610aca5750805115610ab857805190602001fd5b604051630a12f52160e11b8152600490fd5b81511580610afd575b610adb575090565b604051639996b31560e01b81526001600160a01b039091166004820152602490fd5b50803b15610ad356fe9016d09d72d40fdae2fd8ceac6b6234c7706214fd39c1cd1e609a0528c199300a2646970667358221220d907d151de0303d61b3217fb3012aed72aa295b3b9212c225ce8efb53e1727b164736f6c63430008180033",
    "sourcePath": "/Users/janly/data/solidity/UUPSNew/contracts/vtmarkets.sol",
    "compiler": {
        "name": "solc",
        "version": "0.8.24+commit.e11b9ed9"
    },
    "functionHashes": {
        "UPGRADE_INTERFACE_VERSION()": "ad3cb1cc",
        "initialize()": "8129fc1c",
        "owner()": "8da5cb5b",
        "proxiableUUID()": "52d1902d",
        "rechange(uint256)": "136805bc",
        "rechangeAddress()": "89d1eda1",
        "renounceOwnership()": "715018a6",
        "setRechangeAddress(address)": "4b17d67f",
        "setTokenAddress(address)": "26a4e8d2",
        "setWhiteAddress(address,bool)": "07c62151",
        "transferOwnership(address)": "f2fde38b",
        "transferUSDT(address,address,uint256)": "47ab2eb8",
        "upgradeToAndCall(address,bytes)": "4f1ef286"
    },
    "gasEstimates": {
        "creation": {
            "codeDepositCost": "581600",
            "executionCost": "infinite",
            "totalCost": "infinite"
        },
        "external": {
            "UPGRADE_INTERFACE_VERSION()": "infinite",
            "initialize()": "infinite",
            "owner()": "infinite",
            "proxiableUUID()": "infinite",
            "rechange(uint256)": "infinite",
            "rechangeAddress()": "2479",
            "renounceOwnership()": "infinite",
            "setRechangeAddress(address)": "infinite",
            "setTokenAddress(address)": "infinite",
            "setWhiteAddress(address,bool)": "infinite",
            "transferOwnership(address)": "infinite",
            "transferUSDT(address,address,uint256)": "infinite",
            "upgradeToAndCall(address,bytes)": "infinite"
        },
        "internal": {
            "_authorizeUpgrade(address)": "infinite"
        }
    }
}