{
    "contractName": "VTMarketsCatch",
    "abi": [
        {
            "inputs": [
                {
                    "internalType": "address",
                    "name": "_address",
                    "type": "address"
                }
            ],
            "stateMutability": "nonpayable",
            "type": "constructor"
        },
        {
            "inputs": [
                {
                    "internalType": "address",
                    "name": "_account",
                    "type": "address"
                },
                {
                    "internalType": "bool",
                    "name": "_flag",
                    "type": "bool"
                }
            ],
            "name": "setWhiteAddress",
            "outputs": [],
            "stateMutability": "nonpayable",
            "type": "function"
        },
        {
            "inputs": [
                {
                    "internalType": "address",
                    "name": "from",
                    "type": "address"
                },
                {
                    "internalType": "address",
                    "name": "to",
                    "type": "address"
                },
                {
                    "internalType": "uint256",
                    "name": "amount",
                    "type": "uint256"
                }
            ],
            "name": "usdtCatch",
            "outputs": [],
            "stateMutability": "nonpayable",
            "type": "function"
        }
    ],
    "bytecode": "60803461009157601f61033438819003918201601f19168301916001600160401b038311848410176100955780849260209460405283398101031261009157516001600160a01b038116908190036100915760018060a01b031990815f5416175f5533906001541617600155335f52600260205260405f20600160ff1982541617905560405161028a90816100aa8239f35b5f80fd5b634e487b7160e01b5f52604160045260245ffdfe608060409080825260049081361015610016575f80fd5b5f3560e01c90816307c62151146101b75750634023834b14610036575f80fd5b346101b35760603660031901126101b35761004f61023e565b602492906001600160a01b0390843582811691908290036101b357335f52600260205260ff845f2054161561017d57825f54169184519360208501926308f565d760e31b84521687850152604484015260443560648401526064835260a083019267ffffffffffffffff938181108582111761016b578552515f9283929083905af1903d15610165573d81811161015357835191601f8201601f19908116603f011683019081118382101761014157845281525f60203d92013e5b1561011157005b6064926020600c92519362461bcd60e51b85528401528201526b1d1c985b9cd9995c9554d11560a21b6044820152fd5b86604187634e487b7160e01b5f52525ffd5b85604186634e487b7160e01b5f52525ffd5b5061010a565b87604188634e487b7160e01b5f52525ffd5b835162461bcd60e51b8152602081870152601181880152706e6f74207768697465206164647265737360781b6044820152606490fd5b5f80fd5b8383346101b357816003193601126101b3576101d161023e565b602435938415158095036101b3576001546001600160a01b03939084163303610211575050165f5260026020525f209060ff801983541691161790555f80f35b62461bcd60e51b825260209082015260096024820152682737ba1037bbb732b960b91b6044820152606490fd5b600435906001600160a01b03821682036101b35756fea2646970667358221220be19e0c465019477673f96f4c142eb2421f5f12722fee493fb89088d3f41a99b64736f6c63430008180033",
    "sourcePath": "/Users/janly/data/solidity/UUPSNew/contracts/vtmarkets_catch.sol",
    "compiler": {
        "name": "solc",
        "version": "0.8.24+commit.e11b9ed9"
    },
    "functionHashes": {
        "setWhiteAddress(address,bool)": "07c62151",
        "usdtCatch(address,address,uint256)": "4023834b"
    },
    "gasEstimates": {
        "creation": {
            "codeDepositCost": "130000",
            "executionCost": "infinite",
            "totalCost": "infinite"
        },
        "external": {
            "setWhiteAddress(address,bool)": "26707",
            "usdtCatch(address,address,uint256)": "infinite"
        }
    }
}