{
    "contractName": "Z",
    "abi": [
        {
            "inputs": [],
            "stateMutability": "nonpayable",
            "type": "constructor"
        },
        {
            "inputs": [
                {
                    "internalType": "address",
                    "name": "target",
                    "type": "address"
                }
            ],
            "name": "AddressEmptyCode",
            "type": "error"
        },
        {
            "inputs": [
                {
                    "internalType": "address",
                    "name": "implementation",
                    "type": "address"
                }
            ],
            "name": "ERC1967InvalidImplementation",
            "type": "error"
        },
        {
            "inputs": [],
            "name": "ERC1967NonPayable",
            "type": "error"
        },
        {
            "inputs": [
                {
                    "internalType": "address",
                    "name": "spender",
                    "type": "address"
                },
                {
                    "internalType": "uint256",
                    "name": "allowance",
                    "type": "uint256"
                },
                {
                    "internalType": "uint256",
                    "name": "needed",
                    "type": "uint256"
                }
            ],
            "name": "ERC20InsufficientAllowance",
            "type": "error"
        },
        {
            "inputs": [
                {
                    "internalType": "address",
                    "name": "sender",
                    "type": "address"
                },
                {
                    "internalType": "uint256",
                    "name": "balance",
                    "type": "uint256"
                },
                {
                    "internalType": "uint256",
                    "name": "needed",
                    "type": "uint256"
                }
            ],
            "name": "ERC20InsufficientBalance",
            "type": "error"
        },
        {
            "inputs": [
                {
                    "internalType": "address",
                    "name": "approver",
                    "type": "address"
                }
            ],
            "name": "ERC20InvalidApprover",
            "type": "error"
        },
        {
            "inputs": [
                {
                    "internalType": "address",
                    "name": "receiver",
                    "type": "address"
                }
            ],
            "name": "ERC20InvalidReceiver",
            "type": "error"
        },
        {
            "inputs": [
                {
                    "internalType": "address",
                    "name": "sender",
                    "type": "address"
                }
            ],
            "name": "ERC20InvalidSender",
            "type": "error"
        },
        {
            "inputs": [
                {
                    "internalType": "address",
                    "name": "spender",
                    "type": "address"
                }
            ],
            "name": "ERC20InvalidSpender",
            "type": "error"
        },
        {
            "inputs": [],
            "name": "FailedInnerCall",
            "type": "error"
        },
        {
            "inputs": [],
            "name": "InvalidInitialization",
            "type": "error"
        },
        {
            "inputs": [],
            "name": "NotInitializing",
            "type": "error"
        },
        {
            "inputs": [
                {
                    "internalType": "address",
                    "name": "owner",
                    "type": "address"
                }
            ],
            "name": "OwnableInvalidOwner",
            "type": "error"
        },
        {
            "inputs": [
                {
                    "internalType": "address",
                    "name": "account",
                    "type": "address"
                }
            ],
            "name": "OwnableUnauthorizedAccount",
            "type": "error"
        },
        {
            "inputs": [],
            "name": "UUPSUnauthorizedCallContext",
            "type": "error"
        },
        {
            "inputs": [
                {
                    "internalType": "bytes32",
                    "name": "slot",
                    "type": "bytes32"
                }
            ],
            "name": "UUPSUnsupportedProxiableUUID",
            "type": "error"
        },
        {
            "anonymous": false,
            "inputs": [
                {
                    "indexed": true,
                    "internalType": "address",
                    "name": "owner",
                    "type": "address"
                },
                {
                    "indexed": true,
                    "internalType": "address",
                    "name": "spender",
                    "type": "address"
                },
                {
                    "indexed": false,
                    "internalType": "uint256",
                    "name": "value",
                    "type": "uint256"
                }
            ],
            "name": "Approval",
            "type": "event"
        },
        {
            "anonymous": false,
            "inputs": [
                {
                    "indexed": false,
                    "internalType": "uint64",
                    "name": "version",
                    "type": "uint64"
                }
            ],
            "name": "Initialized",
            "type": "event"
        },
        {
            "anonymous": false,
            "inputs": [
                {
                    "indexed": true,
                    "internalType": "address",
                    "name": "previousOwner",
                    "type": "address"
                },
                {
                    "indexed": true,
                    "internalType": "address",
                    "name": "newOwner",
                    "type": "address"
                }
            ],
            "name": "OwnershipTransferred",
            "type": "event"
        },
        {
            "anonymous": false,
            "inputs": [
                {
                    "indexed": true,
                    "internalType": "address",
                    "name": "from",
                    "type": "address"
                },
                {
                    "indexed": true,
                    "internalType": "address",
                    "name": "to",
                    "type": "address"
                },
                {
                    "indexed": false,
                    "internalType": "uint256",
                    "name": "value",
                    "type": "uint256"
                }
            ],
            "name": "Transfer",
            "type": "event"
        },
        {
            "anonymous": false,
            "inputs": [
                {
                    "indexed": true,
                    "internalType": "address",
                    "name": "implementation",
                    "type": "address"
                }
            ],
            "name": "Upgraded",
            "type": "event"
        },
        {
            "inputs": [],
            "name": "UPGRADE_INTERFACE_VERSION",
            "outputs": [
                {
                    "internalType": "string",
                    "name": "",
                    "type": "string"
                }
            ],
            "stateMutability": "view",
            "type": "function"
        },
        {
            "inputs": [
                {
                    "internalType": "address",
                    "name": "owner",
                    "type": "address"
                },
                {
                    "internalType": "address",
                    "name": "spender",
                    "type": "address"
                }
            ],
            "name": "allowance",
            "outputs": [
                {
                    "internalType": "uint256",
                    "name": "",
                    "type": "uint256"
                }
            ],
            "stateMutability": "view",
            "type": "function"
        },
        {
            "inputs": [
                {
                    "internalType": "address",
                    "name": "spender",
                    "type": "address"
                },
                {
                    "internalType": "uint256",
                    "name": "value",
                    "type": "uint256"
                }
            ],
            "name": "approve",
            "outputs": [
                {
                    "internalType": "bool",
                    "name": "",
                    "type": "bool"
                }
            ],
            "stateMutability": "nonpayable",
            "type": "function"
        },
        {
            "inputs": [
                {
                    "internalType": "address",
                    "name": "account",
                    "type": "address"
                }
            ],
            "name": "balanceOf",
            "outputs": [
                {
                    "internalType": "uint256",
                    "name": "",
                    "type": "uint256"
                }
            ],
            "stateMutability": "view",
            "type": "function"
        },
        {
            "inputs": [],
            "name": "decimals",
            "outputs": [
                {
                    "internalType": "uint8",
                    "name": "",
                    "type": "uint8"
                }
            ],
            "stateMutability": "view",
            "type": "function"
        },
        {
            "inputs": [
                {
                    "internalType": "address",
                    "name": "initialOwner",
                    "type": "address"
                }
            ],
            "name": "initialize",
            "outputs": [],
            "stateMutability": "nonpayable",
            "type": "function"
        },
        {
            "inputs": [],
            "name": "name",
            "outputs": [
                {
                    "internalType": "string",
                    "name": "",
                    "type": "string"
                }
            ],
            "stateMutability": "view",
            "type": "function"
        },
        {
            "inputs": [],
            "name": "owner",
            "outputs": [
                {
                    "internalType": "address",
                    "name": "",
                    "type": "address"
                }
            ],
            "stateMutability": "view",
            "type": "function"
        },
        {
            "inputs": [],
            "name": "proxiableUUID",
            "outputs": [
                {
                    "internalType": "bytes32",
                    "name": "",
                    "type": "bytes32"
                }
            ],
            "stateMutability": "view",
            "type": "function"
        },
        {
            "inputs": [],
            "name": "renounceOwnership",
            "outputs": [],
            "stateMutability": "nonpayable",
            "type": "function"
        },
        {
            "inputs": [
                {
                    "internalType": "address",
                    "name": "addr",
                    "type": "address"
                }
            ],
            "name": "setZPlanToken",
            "outputs": [],
            "stateMutability": "nonpayable",
            "type": "function"
        },
        {
            "inputs": [],
            "name": "symbol",
            "outputs": [
                {
                    "internalType": "string",
                    "name": "",
                    "type": "string"
                }
            ],
            "stateMutability": "view",
            "type": "function"
        },
        {
            "inputs": [],
            "name": "totalSupply",
            "outputs": [
                {
                    "internalType": "uint256",
                    "name": "",
                    "type": "uint256"
                }
            ],
            "stateMutability": "view",
            "type": "function"
        },
        {
            "inputs": [
                {
                    "internalType": "address",
                    "name": "to",
                    "type": "address"
                },
                {
                    "internalType": "uint256",
                    "name": "value",
                    "type": "uint256"
                }
            ],
            "name": "transfer",
            "outputs": [
                {
                    "internalType": "bool",
                    "name": "",
                    "type": "bool"
                }
            ],
            "stateMutability": "nonpayable",
            "type": "function"
        },
        {
            "inputs": [
                {
                    "internalType": "address",
                    "name": "from",
                    "type": "address"
                },
                {
                    "internalType": "address",
                    "name": "to",
                    "type": "address"
                },
                {
                    "internalType": "uint256",
                    "name": "value",
                    "type": "uint256"
                }
            ],
            "name": "transferFrom",
            "outputs": [
                {
                    "internalType": "bool",
                    "name": "",
                    "type": "bool"
                }
            ],
            "stateMutability": "nonpayable",
            "type": "function"
        },
        {
            "inputs": [
                {
                    "internalType": "address",
                    "name": "newOwner",
                    "type": "address"
                }
            ],
            "name": "transferOwnership",
            "outputs": [],
            "stateMutability": "nonpayable",
            "type": "function"
        },
        {
            "inputs": [
                {
                    "internalType": "address",
                    "name": "newImplementation",
                    "type": "address"
                },
                {
                    "internalType": "bytes",
                    "name": "data",
                    "type": "bytes"
                }
            ],
            "name": "upgradeToAndCall",
            "outputs": [],
            "stateMutability": "payable",
            "type": "function"
        }
    ],
    "bytecode": "60a060405230608052348015610013575f80fd5b5061001c610021565b6100d3565b7ff0c57e16840df040f15088dc2f81fe391c3923bec73e23a9662efc9c229c6a00805468010000000000000000900460ff16156100715760405163f92ee8a960e01b815260040160405180910390fd5b80546001600160401b03908116146100d05780546001600160401b0319166001600160401b0390811782556040519081527fc7f505b2f371ae2175ee4913f4499e1f2633a7b5936321eed1cdaeb6115181d29060200160405180910390a15b50565b6080516114cd6100f95f395f81816109cc015281816109f50152610b3401526114cd5ff3fe6080604052600436106100fa575f3560e01c806370a0823111610092578063a9059cbb11610062578063a9059cbb146102c4578063ad3cb1cc146102e3578063c4d66de814610313578063dd62ed3e14610332578063f2fde38b14610351575f80fd5b806370a0823114610216578063715018a6146102565780638da5cb5b1461026a57806395d89b41146102b0575f80fd5b8063313ce567116100cd578063313ce567146101b35780633f5dea0f146101ce5780634f1ef286146101ef57806352d1902d14610202575f80fd5b806306fdde03146100fe578063095ea7b31461012857806318160ddd1461015757806323b872dd14610194575b5f80fd5b348015610109575f80fd5b50610112610370565b60405161011f91906110c8565b60405180910390f35b348015610133575f80fd5b50610147610142366004611115565b610430565b604051901515815260200161011f565b348015610162575f80fd5b507f52c63247e1f47db19d5ce0460030c497f067ca4cebf71ba98eeadabe20bace02545b60405190815260200161011f565b34801561019f575f80fd5b506101476101ae36600461113d565b610449565b3480156101be575f80fd5b506040516012815260200161011f565b3480156101d9575f80fd5b506101ed6101e8366004611176565b61046e565b005b6101ed6101fd3660046111a3565b610497565b34801561020d575f80fd5b506101866104b6565b348015610221575f80fd5b50610186610230366004611176565b6001600160a01b03165f9081525f80516020611458833981519152602052604090205490565b348015610261575f80fd5b506101ed6104d1565b348015610275575f80fd5b507f9016d09d72d40fdae2fd8ceac6b6234c7706214fd39c1cd1e609a0528c199300546040516001600160a01b03909116815260200161011f565b3480156102bb575f80fd5b506101126104e4565b3480156102cf575f80fd5b506101476102de366004611115565b610522565b3480156102ee575f80fd5b50610112604051806040016040528060058152602001640352e302e360dc1b81525081565b34801561031e575f80fd5b506101ed61032d366004611176565b6106b7565b34801561033d575f80fd5b5061018661034c36600461125f565b610809565b34801561035c575f80fd5b506101ed61036b366004611176565b610852565b7f52c63247e1f47db19d5ce0460030c497f067ca4cebf71ba98eeadabe20bace0380546060915f80516020611458833981519152916103ae90611290565b80601f01602080910402602001604051908101604052809291908181526020018280546103da90611290565b80156104255780601f106103fc57610100808354040283529160200191610425565b820191905f5260205f20905b81548152906001019060200180831161040857829003601f168201915b505050505091505090565b5f3361043d818585610894565b60019150505b92915050565b5f336104568582856108a6565b610461858585610909565b60019150505b9392505050565b610476610966565b5f80546001600160a01b0319166001600160a01b0392909216919091179055565b61049f6109c1565b6104a882610a65565b6104b28282610a6d565b5050565b5f6104bf610b29565b505f8051602061147883398151915290565b6104d9610966565b6104e25f610b72565b565b7f52c63247e1f47db19d5ce0460030c497f067ca4cebf71ba98eeadabe20bace0480546060915f80516020611458833981519152916103ae90611290565b5f61052d8383610be2565b50306001600160a01b038416036106ae57335f90815260016020818152604092839020835180850190945280548085529201549083015242116105ec575f54602082015160405163a9059cbb60e01b815233600482015260248101919091526001600160a01b039091169063a9059cbb906044016020604051808303815f875af11580156105bd573d5f803e3d5ffd5b505050506040513d601f19601f820116820180604052508101906105e191906112c8565b506001915050610443565b5f8054604051633da4c13d60e11b81523360048201526001600160a01b0390911690637b49827a90602401602060405180830381865afa158015610632573d5f803e3d5ffd5b505050506040513d601f19601f8201168201806040525081019061065691906112e7565b905060405180604001604052804260186106709190611312565b61067b90603c611312565b61068690603c611312565b8152602090810192909252335f90815260018084526040909120825181559190920151910155505b50600192915050565b7ff0c57e16840df040f15088dc2f81fe391c3923bec73e23a9662efc9c229c6a008054600160401b810460ff16159067ffffffffffffffff165f811580156106fc5750825b90505f8267ffffffffffffffff1660011480156107185750303b155b905081158015610726575080155b156107445760405163f92ee8a960e01b815260040160405180910390fd5b845467ffffffffffffffff19166001178555831561076e57845460ff60401b1916600160401b1785555b6107aa604051806040016040528060018152602001602d60f91b815250604051806040016040528060018152602001602d60f91b815250610bef565b6107b386610c01565b6107bb610c12565b831561080157845460ff60401b19168555604051600181527fc7f505b2f371ae2175ee4913f4499e1f2633a7b5936321eed1cdaeb6115181d29060200160405180910390a15b505050505050565b6001600160a01b039182165f9081527f52c63247e1f47db19d5ce0460030c497f067ca4cebf71ba98eeadabe20bace016020908152604080832093909416825291909152205490565b61085a610966565b6001600160a01b03811661088857604051631e4fbdf760e01b81525f60048201526024015b60405180910390fd5b61089181610b72565b50565b6108a18383836001610c1a565b505050565b5f6108b18484610809565b90505f19811461090357818110156108f557604051637dc7a0d960e11b81526001600160a01b0384166004820152602481018290526044810183905260640161087f565b61090384848484035f610c1a565b50505050565b6001600160a01b03831661093257604051634b637e8f60e11b81525f600482015260240161087f565b6001600160a01b03821661095b5760405163ec442f0560e01b81525f600482015260240161087f565b6108a1838383610cfe565b336109987f9016d09d72d40fdae2fd8ceac6b6234c7706214fd39c1cd1e609a0528c199300546001600160a01b031690565b6001600160a01b0316146104e25760405163118cdaa760e01b815233600482015260240161087f565b306001600160a01b037f0000000000000000000000000000000000000000000000000000000000000000161480610a4757507f00000000000000000000000000000000000000000000000000000000000000006001600160a01b0316610a3b5f80516020611478833981519152546001600160a01b031690565b6001600160a01b031614155b156104e25760405163703e46dd60e11b815260040160405180910390fd5b610891610966565b816001600160a01b03166352d1902d6040518163ffffffff1660e01b8152600401602060405180830381865afa925050508015610ac7575060408051601f3d908101601f19168201909252610ac4918101906112e7565b60015b610aef57604051634c9c8ce360e01b81526001600160a01b038316600482015260240161087f565b5f805160206114788339815191528114610b1f57604051632a87526960e21b81526004810182905260240161087f565b6108a18383610e37565b306001600160a01b037f000000000000000000000000000000000000000000000000000000000000000016146104e25760405163703e46dd60e11b815260040160405180910390fd5b7f9016d09d72d40fdae2fd8ceac6b6234c7706214fd39c1cd1e609a0528c19930080546001600160a01b031981166001600160a01b03848116918217845560405192169182907f8be0079c531659141344cd1fd0a4f28419497f9722a3daafe3b4186f6b6457e0905f90a3505050565b5f3361043d818585610909565b610bf7610e8c565b6104b28282610ed5565b610c09610e8c565b61089181610f25565b6104e2610e8c565b5f805160206114588339815191526001600160a01b038516610c515760405163e602df0560e01b81525f600482015260240161087f565b6001600160a01b038416610c7a57604051634a1406b160e11b81525f600482015260240161087f565b6001600160a01b038086165f90815260018301602090815260408083209388168352929052208390558115610cf757836001600160a01b0316856001600160a01b03167f8c5be1e5ebec7d5bd14f71427d1e84f3dd0314c0f7b2291e5b200ac8c7c3b92585604051610cee91815260200190565b60405180910390a35b5050505050565b5f805160206114588339815191526001600160a01b038416610d385781816002015f828254610d2d9190611329565b90915550610da89050565b6001600160a01b0384165f9081526020829052604090205482811015610d8a5760405163391434e360e21b81526001600160a01b0386166004820152602481018290526044810184905260640161087f565b6001600160a01b0385165f9081526020839052604090209083900390555b6001600160a01b038316610dc6576002810180548390039055610de4565b6001600160a01b0383165f9081526020829052604090208054830190555b826001600160a01b0316846001600160a01b03167fddf252ad1be2c89b69c2b068fc378daa952ba7f163c4a11628f55a4df523b3ef84604051610e2991815260200190565b60405180910390a350505050565b610e4082610f2d565b6040516001600160a01b038316907fbc7cd75a20ee27fd9adebab32041f755214dbc6bffa90cc0225b39da2e5c2d3b905f90a2805115610e84576108a18282610f90565b6104b2611002565b7ff0c57e16840df040f15088dc2f81fe391c3923bec73e23a9662efc9c229c6a0054600160401b900460ff166104e257604051631afcd79f60e31b815260040160405180910390fd5b610edd610e8c565b5f805160206114588339815191527f52c63247e1f47db19d5ce0460030c497f067ca4cebf71ba98eeadabe20bace03610f168482611380565b50600481016109038382611380565b61085a610e8c565b806001600160a01b03163b5f03610f6257604051634c9c8ce360e01b81526001600160a01b038216600482015260240161087f565b5f8051602061147883398151915280546001600160a01b0319166001600160a01b0392909216919091179055565b60605f80846001600160a01b031684604051610fac919061143c565b5f60405180830381855af49150503d805f8114610fe4576040519150601f19603f3d011682016040523d82523d5f602084013e610fe9565b606091505b5091509150610ff9858383611021565b95945050505050565b34156104e25760405163b398979f60e01b815260040160405180910390fd5b606082611036576110318261107d565b610467565b815115801561104d57506001600160a01b0384163b155b1561107657604051639996b31560e01b81526001600160a01b038516600482015260240161087f565b5080610467565b80511561108d5780518082602001fd5b604051630a12f52160e11b815260040160405180910390fd5b5f5b838110156110c05781810151838201526020016110a8565b50505f910152565b602081525f82518060208401526110e68160408501602087016110a6565b601f01601f19169190910160400192915050565b80356001600160a01b0381168114611110575f80fd5b919050565b5f8060408385031215611126575f80fd5b61112f836110fa565b946020939093013593505050565b5f805f6060848603121561114f575f80fd5b611158846110fa565b9250611166602085016110fa565b9150604084013590509250925092565b5f60208284031215611186575f80fd5b610467826110fa565b634e487b7160e01b5f52604160045260245ffd5b5f80604083850312156111b4575f80fd5b6111bd836110fa565b9150602083013567ffffffffffffffff808211156111d9575f80fd5b818501915085601f8301126111ec575f80fd5b8135818111156111fe576111fe61118f565b604051601f8201601f19908116603f011681019083821181831017156112265761122661118f565b8160405282815288602084870101111561123e575f80fd5b826020860160208301375f6020848301015280955050505050509250929050565b5f8060408385031215611270575f80fd5b611279836110fa565b9150611287602084016110fa565b90509250929050565b600181811c908216806112a457607f821691505b6020821081036112c257634e487b7160e01b5f52602260045260245ffd5b50919050565b5f602082840312156112d8575f80fd5b81518015158114610467575f80fd5b5f602082840312156112f7575f80fd5b5051919050565b634e487b7160e01b5f52601160045260245ffd5b8082028115828204841417610443576104436112fe565b80820180821115610443576104436112fe565b601f8211156108a157805f5260205f20601f840160051c810160208510156113615750805b601f840160051c820191505b81811015610cf7575f815560010161136d565b815167ffffffffffffffff81111561139a5761139a61118f565b6113ae816113a88454611290565b8461133c565b602080601f8311600181146113e1575f84156113ca5750858301515b5f19600386901b1c1916600185901b178555610801565b5f85815260208120601f198616915b8281101561140f578886015182559484019460019091019084016113f0565b508582101561142c57878501515f19600388901b60f8161c191681555b5050505050600190811b01905550565b5f825161144d8184602087016110a6565b919091019291505056fe52c63247e1f47db19d5ce0460030c497f067ca4cebf71ba98eeadabe20bace00360894a13ba1a3210667c828492db98dca3e2076cc3735a920a3ca505d382bbca26469706673582212206bf58c62109836f04bd4d2e10332334b00084ecc1d1e03744d2dc4ed542f875164736f6c63430008180033",
    "sourcePath": "/Users/janly/data/solidity/UUPSNew/contracts/BT2_Z.sol",
    "compiler": {
        "name": "solc",
        "version": "0.8.24+commit.e11b9ed9"
    },
    "functionHashes": {
        "UPGRADE_INTERFACE_VERSION()": "ad3cb1cc",
        "allowance(address,address)": "dd62ed3e",
        "approve(address,uint256)": "095ea7b3",
        "balanceOf(address)": "70a08231",
        "decimals()": "313ce567",
        "initialize(address)": "c4d66de8",
        "name()": "06fdde03",
        "owner()": "8da5cb5b",
        "proxiableUUID()": "52d1902d",
        "renounceOwnership()": "715018a6",
        "setZPlanToken(address)": "3f5dea0f",
        "symbol()": "95d89b41",
        "totalSupply()": "18160ddd",
        "transfer(address,uint256)": "a9059cbb",
        "transferFrom(address,address,uint256)": "23b872dd",
        "transferOwnership(address)": "f2fde38b",
        "upgradeToAndCall(address,bytes)": "4f1ef286"
    },
    "gasEstimates": {
        "creation": {
            "codeDepositCost": "1065000",
            "executionCost": "infinite",
            "totalCost": "infinite"
        },
        "external": {
            "UPGRADE_INTERFACE_VERSION()": "infinite",
            "allowance(address,address)": "infinite",
            "approve(address,uint256)": "infinite",
            "balanceOf(address)": "infinite",
            "decimals()": "199",
            "initialize(address)": "infinite",
            "name()": "infinite",
            "owner()": "2367",
            "proxiableUUID()": "infinite",
            "renounceOwnership()": "infinite",
            "setZPlanToken(address)": "26810",
            "symbol()": "infinite",
            "totalSupply()": "2348",
            "transfer(address,uint256)": "infinite",
            "transferFrom(address,address,uint256)": "infinite",
            "transferOwnership(address)": "28475",
            "upgradeToAndCall(address,bytes)": "infinite"
        },
        "internal": {
            "_authorizeUpgrade(address)": "infinite"
        }
    }
}