{
    "contractName": "Z",
    "abi": [
        {
            "inputs": [],
            "stateMutability": "nonpayable",
            "type": "constructor"
        },
        {
            "inputs": [
                {
                    "internalType": "address",
                    "name": "target",
                    "type": "address"
                }
            ],
            "name": "AddressEmptyCode",
            "type": "error"
        },
        {
            "inputs": [
                {
                    "internalType": "address",
                    "name": "implementation",
                    "type": "address"
                }
            ],
            "name": "ERC1967InvalidImplementation",
            "type": "error"
        },
        {
            "inputs": [],
            "name": "ERC1967NonPayable",
            "type": "error"
        },
        {
            "inputs": [
                {
                    "internalType": "address",
                    "name": "spender",
                    "type": "address"
                },
                {
                    "internalType": "uint256",
                    "name": "allowance",
                    "type": "uint256"
                },
                {
                    "internalType": "uint256",
                    "name": "needed",
                    "type": "uint256"
                }
            ],
            "name": "ERC20InsufficientAllowance",
            "type": "error"
        },
        {
            "inputs": [
                {
                    "internalType": "address",
                    "name": "sender",
                    "type": "address"
                },
                {
                    "internalType": "uint256",
                    "name": "balance",
                    "type": "uint256"
                },
                {
                    "internalType": "uint256",
                    "name": "needed",
                    "type": "uint256"
                }
            ],
            "name": "ERC20InsufficientBalance",
            "type": "error"
        },
        {
            "inputs": [
                {
                    "internalType": "address",
                    "name": "approver",
                    "type": "address"
                }
            ],
            "name": "ERC20InvalidApprover",
            "type": "error"
        },
        {
            "inputs": [
                {
                    "internalType": "address",
                    "name": "receiver",
                    "type": "address"
                }
            ],
            "name": "ERC20InvalidReceiver",
            "type": "error"
        },
        {
            "inputs": [
                {
                    "internalType": "address",
                    "name": "sender",
                    "type": "address"
                }
            ],
            "name": "ERC20InvalidSender",
            "type": "error"
        },
        {
            "inputs": [
                {
                    "internalType": "address",
                    "name": "spender",
                    "type": "address"
                }
            ],
            "name": "ERC20InvalidSpender",
            "type": "error"
        },
        {
            "inputs": [],
            "name": "FailedInnerCall",
            "type": "error"
        },
        {
            "inputs": [],
            "name": "InvalidInitialization",
            "type": "error"
        },
        {
            "inputs": [],
            "name": "NotInitializing",
            "type": "error"
        },
        {
            "inputs": [
                {
                    "internalType": "address",
                    "name": "owner",
                    "type": "address"
                }
            ],
            "name": "OwnableInvalidOwner",
            "type": "error"
        },
        {
            "inputs": [
                {
                    "internalType": "address",
                    "name": "account",
                    "type": "address"
                }
            ],
            "name": "OwnableUnauthorizedAccount",
            "type": "error"
        },
        {
            "inputs": [],
            "name": "UUPSUnauthorizedCallContext",
            "type": "error"
        },
        {
            "inputs": [
                {
                    "internalType": "bytes32",
                    "name": "slot",
                    "type": "bytes32"
                }
            ],
            "name": "UUPSUnsupportedProxiableUUID",
            "type": "error"
        },
        {
            "anonymous": false,
            "inputs": [
                {
                    "indexed": true,
                    "internalType": "address",
                    "name": "sender",
                    "type": "address"
                },
                {
                    "indexed": false,
                    "internalType": "uint256",
                    "name": "value",
                    "type": "uint256"
                }
            ],
            "name": "ApplyRemovePledge",
            "type": "event"
        },
        {
            "anonymous": false,
            "inputs": [
                {
                    "indexed": true,
                    "internalType": "address",
                    "name": "owner",
                    "type": "address"
                },
                {
                    "indexed": true,
                    "internalType": "address",
                    "name": "spender",
                    "type": "address"
                },
                {
                    "indexed": false,
                    "internalType": "uint256",
                    "name": "value",
                    "type": "uint256"
                }
            ],
            "name": "Approval",
            "type": "event"
        },
        {
            "anonymous": false,
            "inputs": [
                {
                    "indexed": false,
                    "internalType": "uint64",
                    "name": "version",
                    "type": "uint64"
                }
            ],
            "name": "Initialized",
            "type": "event"
        },
        {
            "anonymous": false,
            "inputs": [
                {
                    "indexed": true,
                    "internalType": "address",
                    "name": "previousOwner",
                    "type": "address"
                },
                {
                    "indexed": true,
                    "internalType": "address",
                    "name": "newOwner",
                    "type": "address"
                }
            ],
            "name": "OwnershipTransferred",
            "type": "event"
        },
        {
            "anonymous": false,
            "inputs": [
                {
                    "indexed": true,
                    "internalType": "address",
                    "name": "from",
                    "type": "address"
                },
                {
                    "indexed": true,
                    "internalType": "address",
                    "name": "to",
                    "type": "address"
                },
                {
                    "indexed": false,
                    "internalType": "uint256",
                    "name": "value",
                    "type": "uint256"
                }
            ],
            "name": "Transfer",
            "type": "event"
        },
        {
            "anonymous": false,
            "inputs": [
                {
                    "indexed": true,
                    "internalType": "address",
                    "name": "implementation",
                    "type": "address"
                }
            ],
            "name": "Upgraded",
            "type": "event"
        },
        {
            "inputs": [],
            "name": "UPGRADE_INTERFACE_VERSION",
            "outputs": [
                {
                    "internalType": "string",
                    "name": "",
                    "type": "string"
                }
            ],
            "stateMutability": "view",
            "type": "function"
        },
        {
            "inputs": [
                {
                    "internalType": "address",
                    "name": "owner",
                    "type": "address"
                },
                {
                    "internalType": "address",
                    "name": "spender",
                    "type": "address"
                }
            ],
            "name": "allowance",
            "outputs": [
                {
                    "internalType": "uint256",
                    "name": "",
                    "type": "uint256"
                }
            ],
            "stateMutability": "view",
            "type": "function"
        },
        {
            "inputs": [
                {
                    "internalType": "address",
                    "name": "spender",
                    "type": "address"
                },
                {
                    "internalType": "uint256",
                    "name": "value",
                    "type": "uint256"
                }
            ],
            "name": "approve",
            "outputs": [
                {
                    "internalType": "bool",
                    "name": "",
                    "type": "bool"
                }
            ],
            "stateMutability": "nonpayable",
            "type": "function"
        },
        {
            "inputs": [
                {
                    "internalType": "address",
                    "name": "account",
                    "type": "address"
                }
            ],
            "name": "balanceOf",
            "outputs": [
                {
                    "internalType": "uint256",
                    "name": "",
                    "type": "uint256"
                }
            ],
            "stateMutability": "view",
            "type": "function"
        },
        {
            "inputs": [],
            "name": "decimals",
            "outputs": [
                {
                    "internalType": "uint8",
                    "name": "",
                    "type": "uint8"
                }
            ],
            "stateMutability": "view",
            "type": "function"
        },
        {
            "inputs": [
                {
                    "internalType": "address",
                    "name": "_addr",
                    "type": "address"
                }
            ],
            "name": "getRedemptionRelation",
            "outputs": [
                {
                    "components": [
                        {
                            "internalType": "uint256",
                            "name": "time",
                            "type": "uint256"
                        },
                        {
                            "internalType": "uint256",
                            "name": "value",
                            "type": "uint256"
                        }
                    ],
                    "internalType": "struct redemption",
                    "name": "",
                    "type": "tuple"
                }
            ],
            "stateMutability": "view",
            "type": "function"
        },
        {
            "inputs": [],
            "name": "initialize",
            "outputs": [],
            "stateMutability": "nonpayable",
            "type": "function"
        },
        {
            "inputs": [
                {
                    "internalType": "address",
                    "name": "to",
                    "type": "address"
                },
                {
                    "internalType": "uint256",
                    "name": "amount",
                    "type": "uint256"
                }
            ],
            "name": "mint",
            "outputs": [],
            "stateMutability": "nonpayable",
            "type": "function"
        },
        {
            "inputs": [],
            "name": "name",
            "outputs": [
                {
                    "internalType": "string",
                    "name": "",
                    "type": "string"
                }
            ],
            "stateMutability": "view",
            "type": "function"
        },
        {
            "inputs": [],
            "name": "owner",
            "outputs": [
                {
                    "internalType": "address",
                    "name": "",
                    "type": "address"
                }
            ],
            "stateMutability": "view",
            "type": "function"
        },
        {
            "inputs": [],
            "name": "proxiableUUID",
            "outputs": [
                {
                    "internalType": "bytes32",
                    "name": "",
                    "type": "bytes32"
                }
            ],
            "stateMutability": "view",
            "type": "function"
        },
        {
            "inputs": [
                {
                    "internalType": "address",
                    "name": "",
                    "type": "address"
                }
            ],
            "name": "redemptionRelation",
            "outputs": [
                {
                    "internalType": "uint256",
                    "name": "time",
                    "type": "uint256"
                },
                {
                    "internalType": "uint256",
                    "name": "value",
                    "type": "uint256"
                }
            ],
            "stateMutability": "view",
            "type": "function"
        },
        {
            "inputs": [],
            "name": "renounceOwnership",
            "outputs": [],
            "stateMutability": "nonpayable",
            "type": "function"
        },
        {
            "inputs": [
                {
                    "internalType": "address",
                    "name": "addr",
                    "type": "address"
                }
            ],
            "name": "setZPlanToken",
            "outputs": [],
            "stateMutability": "nonpayable",
            "type": "function"
        },
        {
            "inputs": [],
            "name": "symbol",
            "outputs": [
                {
                    "internalType": "string",
                    "name": "",
                    "type": "string"
                }
            ],
            "stateMutability": "view",
            "type": "function"
        },
        {
            "inputs": [],
            "name": "totalSupply",
            "outputs": [
                {
                    "internalType": "uint256",
                    "name": "",
                    "type": "uint256"
                }
            ],
            "stateMutability": "view",
            "type": "function"
        },
        {
            "inputs": [
                {
                    "internalType": "address",
                    "name": "to",
                    "type": "address"
                },
                {
                    "internalType": "uint256",
                    "name": "value",
                    "type": "uint256"
                }
            ],
            "name": "transfer",
            "outputs": [
                {
                    "internalType": "bool",
                    "name": "",
                    "type": "bool"
                }
            ],
            "stateMutability": "nonpayable",
            "type": "function"
        },
        {
            "inputs": [
                {
                    "internalType": "address",
                    "name": "from",
                    "type": "address"
                },
                {
                    "internalType": "address",
                    "name": "to",
                    "type": "address"
                },
                {
                    "internalType": "uint256",
                    "name": "value",
                    "type": "uint256"
                }
            ],
            "name": "transferFrom",
            "outputs": [
                {
                    "internalType": "bool",
                    "name": "",
                    "type": "bool"
                }
            ],
            "stateMutability": "nonpayable",
            "type": "function"
        },
        {
            "inputs": [
                {
                    "internalType": "address",
                    "name": "newOwner",
                    "type": "address"
                }
            ],
            "name": "transferOwnership",
            "outputs": [],
            "stateMutability": "nonpayable",
            "type": "function"
        },
        {
            "inputs": [
                {
                    "internalType": "address",
                    "name": "newImplementation",
                    "type": "address"
                },
                {
                    "internalType": "bytes",
                    "name": "data",
                    "type": "bytes"
                }
            ],
            "name": "upgradeToAndCall",
            "outputs": [],
            "stateMutability": "payable",
            "type": "function"
        }
    ],
    "bytecode": "60a060405230608052348015610013575f80fd5b5061001c610021565b6100d3565b7ff0c57e16840df040f15088dc2f81fe391c3923bec73e23a9662efc9c229c6a00805468010000000000000000900460ff16156100715760405163f92ee8a960e01b815260040160405180910390fd5b80546001600160401b03908116146100d05780546001600160401b0319166001600160401b0390811782556040519081527fc7f505b2f371ae2175ee4913f4499e1f2633a7b5936321eed1cdaeb6115181d29060200160405180910390a15b50565b6080516116df6100f95f395f8181610bfa01528181610c230152610d6201526116df5ff3fe60806040526004361061011b575f3560e01c8063715018a61161009d578063a9059cbb11610062578063a9059cbb1461035f578063ad3cb1cc1461037e578063bff02570146103ae578063dd62ed3e14610428578063f2fde38b14610447575f80fd5b8063715018a6146102965780637f35d71e146102aa5780638129fc1c146102f15780638da5cb5b1461030557806395d89b411461034b575f80fd5b80633f5dea0f116100e35780633f5dea0f146101ef57806340c10f19146102105780634f1ef2861461022f57806352d1902d1461024257806370a0823114610256575f80fd5b806306fdde031461011f578063095ea7b31461014957806318160ddd1461017857806323b872dd146101b5578063313ce567146101d4575b5f80fd5b34801561012a575f80fd5b50610133610466565b60405161014091906112f5565b60405180910390f35b348015610154575f80fd5b50610168610163366004611342565b610526565b6040519015158152602001610140565b348015610183575f80fd5b507f52c63247e1f47db19d5ce0460030c497f067ca4cebf71ba98eeadabe20bace02545b604051908152602001610140565b3480156101c0575f80fd5b506101686101cf36600461136a565b61053f565b3480156101df575f80fd5b5060405160128152602001610140565b3480156101fa575f80fd5b5061020e6102093660046113a3565b610564565b005b34801561021b575f80fd5b5061020e61022a366004611342565b61058d565b61020e61023d3660046113d0565b6105a3565b34801561024d575f80fd5b506101a76105be565b348015610261575f80fd5b506101a76102703660046113a3565b6001600160a01b03165f9081525f8051602061166a833981519152602052604090205490565b3480156102a1575f80fd5b5061020e6105d9565b3480156102b5575f80fd5b506102dc6102c43660046113a3565b600160208190525f9182526040909120805491015482565b60408051928352602083019190915201610140565b3480156102fc575f80fd5b5061020e6105ec565b348015610310575f80fd5b507f9016d09d72d40fdae2fd8ceac6b6234c7706214fd39c1cd1e609a0528c199300546040516001600160a01b039091168152602001610140565b348015610356575f80fd5b5061013361073d565b34801561036a575f80fd5b50610168610379366004611342565b61077b565b348015610389575f80fd5b50610133604051806040016040528060058152602001640352e302e360dc1b81525081565b3480156103b9575f80fd5b5061040d6103c83660046113a3565b604080518082019091525f8082526020820152506001600160a01b03165f90815260016020818152604092839020835180850190945280548452909101549082015290565b60408051825181526020928301519281019290925201610140565b348015610433575f80fd5b506101a761044236600461148c565b610a08565b348015610452575f80fd5b5061020e6104613660046113a3565b610a51565b7f52c63247e1f47db19d5ce0460030c497f067ca4cebf71ba98eeadabe20bace0380546060915f8051602061166a833981519152916104a4906114bd565b80601f01602080910402602001604051908101604052809291908181526020018280546104d0906114bd565b801561051b5780601f106104f25761010080835404028352916020019161051b565b820191905f5260205f20905b8154815290600101906020018083116104fe57829003601f168201915b505050505091505090565b5f33610533818585610a8e565b60019150505b92915050565b5f3361054c858285610aa0565b610557858585610b03565b60019150505b9392505050565b61056c610b60565b5f80546001600160a01b0319166001600160a01b0392909216919091179055565b610595610b60565b61059f8282610bbb565b5050565b6105ab610bef565b6105b482610c93565b61059f8282610c9b565b5f6105c7610d57565b505f8051602061168a83398151915290565b6105e1610b60565b6105ea5f610da0565b565b7ff0c57e16840df040f15088dc2f81fe391c3923bec73e23a9662efc9c229c6a008054600160401b810460ff16159067ffffffffffffffff165f811580156106315750825b90505f8267ffffffffffffffff16600114801561064d5750303b155b90508115801561065b575080155b156106795760405163f92ee8a960e01b815260040160405180910390fd5b845467ffffffffffffffff1916600117855583156106a357845460ff60401b1916600160401b1785555b6106df604051806040016040528060018152602001602d60f91b815250604051806040016040528060018152602001602d60f91b815250610e10565b6106e833610e22565b6106f0610e33565b831561073657845460ff60401b19168555604051600181527fc7f505b2f371ae2175ee4913f4499e1f2633a7b5936321eed1cdaeb6115181d29060200160405180910390a15b5050505050565b7f52c63247e1f47db19d5ce0460030c497f067ca4cebf71ba98eeadabe20bace0480546060915f8051602061166a833981519152916104a4906114bd565b5f6107868383610e3b565b50306001600160a01b038416036109ff575f8054604051633da4c13d60e11b81523360048201526001600160a01b0390911690637b49827a906024016020604051808303815f875af11580156107de573d5f803e3d5ffd5b505050506040513d601f19601f8201168201806040525081019061080291906114f5565b90505f81116108455760405162461bcd60e51b815260206004820152600a6024820152696e6f20706c656164676560b01b60448201526064015b60405180910390fd5b826108526127108361150c565b146108975760405162461bcd60e51b81526020600482015260156024820152743a3930b739b332b91030b6b7bab73a1032b93937b960591b604482015260640161083c565b335f9081526001602081815260409283902083518085019094528054808552920154908301521561098c5780514210610944575f546040516330d8f0eb60e21b81523360048201526001600160a01b039091169063c363c3ac906024015f604051808303815f87803b15801561090b575f80fd5b505af115801561091d573d5f803e3d5ffd5b5050335f908152600160208190526040822082815581019190915594506105399350505050565b60405162461bcd60e51b815260206004820152601e60248201527f63616e6e6f7420726564656d7074696f6e206f6e20746869732074696d650000604482015260640161083c565b604051806040016040528042603c6109a4919061152b565b81526020908101849052335f8181526001808452604091829020855181559484015194019390935591518481527fb82bfe429e7ad7db8aeb97116e0914af98c53d4ee8a475bb01a0b17c8778fc19910160405180910390a250505b50600192915050565b6001600160a01b039182165f9081527f52c63247e1f47db19d5ce0460030c497f067ca4cebf71ba98eeadabe20bace016020908152604080832093909416825291909152205490565b610a59610b60565b6001600160a01b038116610a8257604051631e4fbdf760e01b81525f600482015260240161083c565b610a8b81610da0565b50565b610a9b8383836001610e48565b505050565b5f610aab8484610a08565b90505f198114610afd5781811015610aef57604051637dc7a0d960e11b81526001600160a01b0384166004820152602481018290526044810183905260640161083c565b610afd84848484035f610e48565b50505050565b6001600160a01b038316610b2c57604051634b637e8f60e11b81525f600482015260240161083c565b6001600160a01b038216610b555760405163ec442f0560e01b81525f600482015260240161083c565b610a9b838383610f2b565b33610b927f9016d09d72d40fdae2fd8ceac6b6234c7706214fd39c1cd1e609a0528c199300546001600160a01b031690565b6001600160a01b0316146105ea5760405163118cdaa760e01b815233600482015260240161083c565b6001600160a01b038216610be45760405163ec442f0560e01b81525f600482015260240161083c565b61059f5f8383610f2b565b306001600160a01b037f0000000000000000000000000000000000000000000000000000000000000000161480610c7557507f00000000000000000000000000000000000000000000000000000000000000006001600160a01b0316610c695f8051602061168a833981519152546001600160a01b031690565b6001600160a01b031614155b156105ea5760405163703e46dd60e11b815260040160405180910390fd5b610a8b610b60565b816001600160a01b03166352d1902d6040518163ffffffff1660e01b8152600401602060405180830381865afa925050508015610cf5575060408051601f3d908101601f19168201909252610cf2918101906114f5565b60015b610d1d57604051634c9c8ce360e01b81526001600160a01b038316600482015260240161083c565b5f8051602061168a8339815191528114610d4d57604051632a87526960e21b81526004810182905260240161083c565b610a9b8383611064565b306001600160a01b037f000000000000000000000000000000000000000000000000000000000000000016146105ea5760405163703e46dd60e11b815260040160405180910390fd5b7f9016d09d72d40fdae2fd8ceac6b6234c7706214fd39c1cd1e609a0528c19930080546001600160a01b031981166001600160a01b03848116918217845560405192169182907f8be0079c531659141344cd1fd0a4f28419497f9722a3daafe3b4186f6b6457e0905f90a3505050565b610e186110b9565b61059f8282611102565b610e2a6110b9565b610a8b81611152565b6105ea6110b9565b5f33610533818585610b03565b5f8051602061166a8339815191526001600160a01b038516610e7f5760405163e602df0560e01b81525f600482015260240161083c565b6001600160a01b038416610ea857604051634a1406b160e11b81525f600482015260240161083c565b6001600160a01b038086165f9081526001830160209081526040808320938816835292905220839055811561073657836001600160a01b0316856001600160a01b03167f8c5be1e5ebec7d5bd14f71427d1e84f3dd0314c0f7b2291e5b200ac8c7c3b92585604051610f1c91815260200190565b60405180910390a35050505050565b5f8051602061166a8339815191526001600160a01b038416610f655781816002015f828254610f5a919061152b565b90915550610fd59050565b6001600160a01b0384165f9081526020829052604090205482811015610fb75760405163391434e360e21b81526001600160a01b0386166004820152602481018290526044810184905260640161083c565b6001600160a01b0385165f9081526020839052604090209083900390555b6001600160a01b038316610ff3576002810180548390039055611011565b6001600160a01b0383165f9081526020829052604090208054830190555b826001600160a01b0316846001600160a01b03167fddf252ad1be2c89b69c2b068fc378daa952ba7f163c4a11628f55a4df523b3ef8460405161105691815260200190565b60405180910390a350505050565b61106d8261115a565b6040516001600160a01b038316907fbc7cd75a20ee27fd9adebab32041f755214dbc6bffa90cc0225b39da2e5c2d3b905f90a28051156110b157610a9b82826111bd565b61059f61122f565b7ff0c57e16840df040f15088dc2f81fe391c3923bec73e23a9662efc9c229c6a0054600160401b900460ff166105ea57604051631afcd79f60e31b815260040160405180910390fd5b61110a6110b9565b5f8051602061166a8339815191527f52c63247e1f47db19d5ce0460030c497f067ca4cebf71ba98eeadabe20bace03611143848261158e565b5060048101610afd838261158e565b610a596110b9565b806001600160a01b03163b5f0361118f57604051634c9c8ce360e01b81526001600160a01b038216600482015260240161083c565b5f8051602061168a83398151915280546001600160a01b0319166001600160a01b0392909216919091179055565b60605f80846001600160a01b0316846040516111d9919061164e565b5f60405180830381855af49150503d805f8114611211576040519150601f19603f3d011682016040523d82523d5f602084013e611216565b606091505b509150915061122685838361124e565b95945050505050565b34156105ea5760405163b398979f60e01b815260040160405180910390fd5b6060826112635761125e826112aa565b61055d565b815115801561127a57506001600160a01b0384163b155b156112a357604051639996b31560e01b81526001600160a01b038516600482015260240161083c565b508061055d565b8051156112ba5780518082602001fd5b604051630a12f52160e11b815260040160405180910390fd5b5f5b838110156112ed5781810151838201526020016112d5565b50505f910152565b602081525f82518060208401526113138160408501602087016112d3565b601f01601f19169190910160400192915050565b80356001600160a01b038116811461133d575f80fd5b919050565b5f8060408385031215611353575f80fd5b61135c83611327565b946020939093013593505050565b5f805f6060848603121561137c575f80fd5b61138584611327565b925061139360208501611327565b9150604084013590509250925092565b5f602082840312156113b3575f80fd5b61055d82611327565b634e487b7160e01b5f52604160045260245ffd5b5f80604083850312156113e1575f80fd5b6113ea83611327565b9150602083013567ffffffffffffffff80821115611406575f80fd5b818501915085601f830112611419575f80fd5b81358181111561142b5761142b6113bc565b604051601f8201601f19908116603f01168101908382118183101715611453576114536113bc565b8160405282815288602084870101111561146b575f80fd5b826020860160208301375f6020848301015280955050505050509250929050565b5f806040838503121561149d575f80fd5b6114a683611327565b91506114b460208401611327565b90509250929050565b600181811c908216806114d157607f821691505b6020821081036114ef57634e487b7160e01b5f52602260045260245ffd5b50919050565b5f60208284031215611505575f80fd5b5051919050565b5f8261152657634e487b7160e01b5f52601260045260245ffd5b500490565b8082018082111561053957634e487b7160e01b5f52601160045260245ffd5b601f821115610a9b57805f5260205f20601f840160051c8101602085101561156f5750805b601f840160051c820191505b81811015610736575f815560010161157b565b815167ffffffffffffffff8111156115a8576115a86113bc565b6115bc816115b684546114bd565b8461154a565b602080601f8311600181146115ef575f84156115d85750858301515b5f19600386901b1c1916600185901b178555611646565b5f85815260208120601f198616915b8281101561161d578886015182559484019460019091019084016115fe565b508582101561163a57878501515f19600388901b60f8161c191681555b505060018460011b0185555b505050505050565b5f825161165f8184602087016112d3565b919091019291505056fe52c63247e1f47db19d5ce0460030c497f067ca4cebf71ba98eeadabe20bace00360894a13ba1a3210667c828492db98dca3e2076cc3735a920a3ca505d382bbca2646970667358221220d4b1c2903c7150a9239f8003e0ec1ba77ec761fda76a7ab5ea751ad3e4993d0664736f6c63430008180033",
    "sourcePath": "/Users/janly/data/solidity/UUPSNew/contracts/BT2_Z.sol",
    "compiler": {
        "name": "solc",
        "version": "0.8.24+commit.e11b9ed9"
    },
    "functionHashes": {
        "UPGRADE_INTERFACE_VERSION()": "ad3cb1cc",
        "allowance(address,address)": "dd62ed3e",
        "approve(address,uint256)": "095ea7b3",
        "balanceOf(address)": "70a08231",
        "decimals()": "313ce567",
        "getRedemptionRelation(address)": "bff02570",
        "initialize()": "8129fc1c",
        "mint(address,uint256)": "40c10f19",
        "name()": "06fdde03",
        "owner()": "8da5cb5b",
        "proxiableUUID()": "52d1902d",
        "redemptionRelation(address)": "7f35d71e",
        "renounceOwnership()": "715018a6",
        "setZPlanToken(address)": "3f5dea0f",
        "symbol()": "95d89b41",
        "totalSupply()": "18160ddd",
        "transfer(address,uint256)": "a9059cbb",
        "transferFrom(address,address,uint256)": "23b872dd",
        "transferOwnership(address)": "f2fde38b",
        "upgradeToAndCall(address,bytes)": "4f1ef286"
    },
    "gasEstimates": {
        "creation": {
            "codeDepositCost": "1171000",
            "executionCost": "infinite",
            "totalCost": "infinite"
        },
        "external": {
            "UPGRADE_INTERFACE_VERSION()": "infinite",
            "allowance(address,address)": "infinite",
            "approve(address,uint256)": "infinite",
            "balanceOf(address)": "infinite",
            "decimals()": "288",
            "getRedemptionRelation(address)": "4872",
            "initialize()": "infinite",
            "mint(address,uint256)": "infinite",
            "name()": "infinite",
            "owner()": "2389",
            "proxiableUUID()": "infinite",
            "redemptionRelation(address)": "4703",
            "renounceOwnership()": "infinite",
            "setZPlanToken(address)": "26788",
            "symbol()": "infinite",
            "totalSupply()": "2348",
            "transfer(address,uint256)": "infinite",
            "transferFrom(address,address,uint256)": "infinite",
            "transferOwnership(address)": "28475",
            "upgradeToAndCall(address,bytes)": "infinite"
        },
        "internal": {
            "_authorizeUpgrade(address)": "infinite"
        }
    }
}