{
  "_format": "hh-sol-artifact-1",
  "contractName": "PIZZA",
  "sourceName": "contracts/pizza_dapp.sol",
  "abi": [
    {
      "inputs": [],
      "stateMutability": "nonpayable",
      "type": "constructor"
    },
    {
      "inputs": [
        {
          "internalType": "address",
          "name": "target",
          "type": "address"
        }
      ],
      "name": "AddressEmptyCode",
      "type": "error"
    },
    {
      "inputs": [
        {
          "internalType": "address",
          "name": "implementation",
          "type": "address"
        }
      ],
      "name": "ERC1967InvalidImplementation",
      "type": "error"
    },
    {
      "inputs": [],
      "name": "ERC1967NonPayable",
      "type": "error"
    },
    {
      "inputs": [],
      "name": "FailedInnerCall",
      "type": "error"
    },
    {
      "inputs": [],
      "name": "InvalidInitialization",
      "type": "error"
    },
    {
      "inputs": [],
      "name": "NotInitializing",
      "type": "error"
    },
    {
      "inputs": [
        {
          "internalType": "address",
          "name": "owner",
          "type": "address"
        }
      ],
      "name": "OwnableInvalidOwner",
      "type": "error"
    },
    {
      "inputs": [
        {
          "internalType": "address",
          "name": "account",
          "type": "address"
        }
      ],
      "name": "OwnableUnauthorizedAccount",
      "type": "error"
    },
    {
      "inputs": [],
      "name": "UUPSUnauthorizedCallContext",
      "type": "error"
    },
    {
      "inputs": [
        {
          "internalType": "bytes32",
          "name": "slot",
          "type": "bytes32"
        }
      ],
      "name": "UUPSUnsupportedProxiableUUID",
      "type": "error"
    },
    {
      "anonymous": false,
      "inputs": [
        {
          "indexed": false,
          "internalType": "uint64",
          "name": "version",
          "type": "uint64"
        }
      ],
      "name": "Initialized",
      "type": "event"
    },
    {
      "anonymous": false,
      "inputs": [
        {
          "indexed": true,
          "internalType": "address",
          "name": "previousOwner",
          "type": "address"
        },
        {
          "indexed": true,
          "internalType": "address",
          "name": "newOwner",
          "type": "address"
        }
      ],
      "name": "OwnershipTransferred",
      "type": "event"
    },
    {
      "anonymous": false,
      "inputs": [
        {
          "indexed": false,
          "internalType": "address",
          "name": "",
          "type": "address"
        },
        {
          "indexed": false,
          "internalType": "address",
          "name": "",
          "type": "address"
        },
        {
          "indexed": false,
          "internalType": "address",
          "name": "",
          "type": "address"
        },
        {
          "indexed": false,
          "internalType": "uint256[]",
          "name": "",
          "type": "uint256[]"
        }
      ],
      "name": "PledgeNFT",
      "type": "event"
    },
    {
      "anonymous": false,
      "inputs": [
        {
          "indexed": true,
          "internalType": "address",
          "name": "implementation",
          "type": "address"
        }
      ],
      "name": "Upgraded",
      "type": "event"
    },
    {
      "inputs": [],
      "name": "UPGRADE_INTERFACE_VERSION",
      "outputs": [
        {
          "internalType": "string",
          "name": "",
          "type": "string"
        }
      ],
      "stateMutability": "view",
      "type": "function"
    },
    {
      "inputs": [],
      "name": "initialize",
      "outputs": [],
      "stateMutability": "nonpayable",
      "type": "function"
    },
    {
      "inputs": [],
      "name": "owner",
      "outputs": [
        {
          "internalType": "address",
          "name": "",
          "type": "address"
        }
      ],
      "stateMutability": "view",
      "type": "function"
    },
    {
      "inputs": [
        {
          "internalType": "uint256[]",
          "name": "_tokenIDs",
          "type": "uint256[]"
        }
      ],
      "name": "pledgeNFT",
      "outputs": [],
      "stateMutability": "nonpayable",
      "type": "function"
    },
    {
      "inputs": [],
      "name": "proxiableUUID",
      "outputs": [
        {
          "internalType": "bytes32",
          "name": "",
          "type": "bytes32"
        }
      ],
      "stateMutability": "view",
      "type": "function"
    },
    {
      "inputs": [
        {
          "internalType": "address",
          "name": "_user",
          "type": "address"
        },
        {
          "internalType": "uint256",
          "name": "_tokenID",
          "type": "uint256"
        }
      ],
      "name": "redemptionNFT",
      "outputs": [],
      "stateMutability": "nonpayable",
      "type": "function"
    },
    {
      "inputs": [],
      "name": "renounceOwnership",
      "outputs": [],
      "stateMutability": "nonpayable",
      "type": "function"
    },
    {
      "inputs": [
        {
          "internalType": "address",
          "name": "_nftTokenAddress",
          "type": "address"
        }
      ],
      "name": "setNFTAddress",
      "outputs": [],
      "stateMutability": "nonpayable",
      "type": "function"
    },
    {
      "inputs": [
        {
          "internalType": "address",
          "name": "_account",
          "type": "address"
        },
        {
          "internalType": "bool",
          "name": "_flag",
          "type": "bool"
        }
      ],
      "name": "setWhiteAddress",
      "outputs": [],
      "stateMutability": "nonpayable",
      "type": "function"
    },
    {
      "inputs": [
        {
          "internalType": "address[]",
          "name": "_token",
          "type": "address[]"
        },
        {
          "internalType": "address[]",
          "name": "_address",
          "type": "address[]"
        },
        {
          "internalType": "uint256[]",
          "name": "_amounts",
          "type": "uint256[]"
        }
      ],
      "name": "transferBNBBatch",
      "outputs": [],
      "stateMutability": "nonpayable",
      "type": "function"
    },
    {
      "inputs": [
        {
          "internalType": "address",
          "name": "newOwner",
          "type": "address"
        }
      ],
      "name": "transferOwnership",
      "outputs": [],
      "stateMutability": "nonpayable",
      "type": "function"
    },
    {
      "inputs": [
        {
          "internalType": "address",
          "name": "newImplementation",
          "type": "address"
        },
        {
          "internalType": "bytes",
          "name": "data",
          "type": "bytes"
        }
      ],
      "name": "upgradeToAndCall",
      "outputs": [],
      "stateMutability": "payable",
      "type": "function"
    }
  ],
  "bytecode": "0x60a06040523060805234801561001457600080fd5b5061001d610022565b6100d4565b7ff0c57e16840df040f15088dc2f81fe391c3923bec73e23a9662efc9c229c6a00805468010000000000000000900460ff16156100725760405163f92ee8a960e01b815260040160405180910390fd5b80546001600160401b03908116146100d15780546001600160401b0319166001600160401b0390811782556040519081527fc7f505b2f371ae2175ee4913f4499e1f2633a7b5936321eed1cdaeb6115181d29060200160405180910390a15b50565b6080516112886100fd600039600081816109450152818161096e0152610af101526112886000f3fe6080604052600436106100c75760003560e01c80638129fc1c116100745780639bc813f71161004e5780639bc813f7146101fa578063ad3cb1cc1461021a578063f2fde38b1461027057600080fd5b80638129fc1c1461017e5780638da5cb5b1461019357806393d8da48146101da57600080fd5b806352d1902d116100a557806352d1902d1461012157806369d0373814610149578063715018a61461016957600080fd5b806307c62151146100cc5780632e8cc0c6146100ee5780634f1ef2861461010e575b600080fd5b3480156100d857600080fd5b506100ec6100e7366004610ea1565b610290565b005b3480156100fa57600080fd5b506100ec610109366004610ed8565b6102c3565b6100ec61011c366004610f18565b6103b0565b34801561012d57600080fd5b506101366103cf565b6040519081526020015b60405180910390f35b34801561015557600080fd5b506100ec610164366004610fda565b6103fe565b34801561017557600080fd5b506100ec610435565b34801561018a57600080fd5b506100ec610449565b34801561019f57600080fd5b507f9016d09d72d40fdae2fd8ceac6b6234c7706214fd39c1cd1e609a0528c199300546040516001600160a01b039091168152602001610140565b3480156101e657600080fd5b506100ec6101f5366004611041565b6105da565b34801561020657600080fd5b506100ec6102153660046110db565b61075a565b34801561022657600080fd5b506102636040518060400160405280600581526020017f352e302e3000000000000000000000000000000000000000000000000000000081525081565b6040516101409190611141565b34801561027c57600080fd5b506100ec61028b366004610fda565b61086f565b6102986108c6565b6001600160a01b03919091166000908152600260205260409020805460ff1916911515919091179055565b3360009081526002602052604090205460ff166103275760405162461bcd60e51b815260206004820152601160248201527f6e6f74207768697465206164647265737300000000000000000000000000000060448201526064015b60405180910390fd5b6001546040517f23b872dd0000000000000000000000000000000000000000000000000000000081523060048201526001600160a01b03848116602483015260448201849052909116906323b872dd90606401600060405180830381600087803b15801561039457600080fd5b505af11580156103a8573d6000803e3d6000fd5b505050505050565b6103b861093a565b6103c1826109f1565b6103cb82826109f9565b5050565b60006103d9610ae6565b507f360894a13ba1a3210667c828492db98dca3e2076cc3735a920a3ca505d382bbc90565b6104066108c6565b6001805473ffffffffffffffffffffffffffffffffffffffff19166001600160a01b0392909216919091179055565b61043d6108c6565b6104476000610b2f565b565b7ff0c57e16840df040f15088dc2f81fe391c3923bec73e23a9662efc9c229c6a00805468010000000000000000810460ff16159067ffffffffffffffff166000811580156104945750825b905060008267ffffffffffffffff1660011480156104b15750303b155b9050811580156104bf575080155b156104f6576040517ff92ee8a900000000000000000000000000000000000000000000000000000000815260040160405180910390fd5b845467ffffffffffffffff19166001178555831561052a57845468ff00000000000000001916680100000000000000001785555b61053333610bad565b61053b610bbe565b6001805473ffffffffffffffffffffffffffffffffffffffff191673fb054f3ae25fac08bc8cdd7aad66aac1d0a8f936178155336000908152600260205260409020805460ff1916909117905583156105d357845468ff000000000000000019168555604051600181527fc7f505b2f371ae2175ee4913f4499e1f2633a7b5936321eed1cdaeb6115181d29060200160405180910390a15b5050505050565b3360009081526002602052604090205460ff166106395760405162461bcd60e51b815260206004820152601160248201527f6e6f742077686974652061646472657373000000000000000000000000000000604482015260640161031e565b60005b8581101561075157600085858381811061065857610658611174565b905060200201602081019061066d9190610fda565b905087878381811061068157610681611174565b90506020020160208101906106969190610fda565b6001600160a01b031663a9059cbb828686868181106106b7576106b7611174565b6040517fffffffff0000000000000000000000000000000000000000000000000000000060e087901b1681526001600160a01b03909416600485015260200291909101356024830152506044016020604051808303816000875af1158015610723573d6000803e3d6000fd5b505050506040513d601f19601f82011682018060405250810190610747919061118a565b505060010161063c565b50505050505050565b60005b8181101561081d576001546001600160a01b03166323b872dd333086868681811061078a5761078a611174565b6040517fffffffff0000000000000000000000000000000000000000000000000000000060e088901b1681526001600160a01b03958616600482015294909316602485015250602090910201356044820152606401600060405180830381600087803b1580156107f957600080fd5b505af115801561080d573d6000803e3d6000fd5b50506001909201915061075d9050565b506001546040517fe207b122c9598cd168952e1548dd8ed57f4e90077c99323d8df9f90d7842818991610863916001600160a01b039091169033903090879087906111a7565b60405180910390a15050565b6108776108c6565b6001600160a01b0381166108ba576040517f1e4fbdf70000000000000000000000000000000000000000000000000000000081526000600482015260240161031e565b6108c381610b2f565b50565b336108f87f9016d09d72d40fdae2fd8ceac6b6234c7706214fd39c1cd1e609a0528c199300546001600160a01b031690565b6001600160a01b031614610447576040517f118cdaa700000000000000000000000000000000000000000000000000000000815233600482015260240161031e565b306001600160a01b037f00000000000000000000000000000000000000000000000000000000000000001614806109d357507f00000000000000000000000000000000000000000000000000000000000000006001600160a01b03166109c77f360894a13ba1a3210667c828492db98dca3e2076cc3735a920a3ca505d382bbc546001600160a01b031690565b6001600160a01b031614155b156104475760405163703e46dd60e11b815260040160405180910390fd5b6108c36108c6565b816001600160a01b03166352d1902d6040518163ffffffff1660e01b8152600401602060405180830381865afa925050508015610a53575060408051601f3d908101601f19168201909252610a509181019061121d565b60015b610a7b57604051634c9c8ce360e01b81526001600160a01b038316600482015260240161031e565b7f360894a13ba1a3210667c828492db98dca3e2076cc3735a920a3ca505d382bbc8114610ad7576040517faa1d49a40000000000000000000000000000000000000000000000000000000081526004810182905260240161031e565b610ae18383610bc6565b505050565b306001600160a01b037f000000000000000000000000000000000000000000000000000000000000000016146104475760405163703e46dd60e11b815260040160405180910390fd5b7f9016d09d72d40fdae2fd8ceac6b6234c7706214fd39c1cd1e609a0528c199300805473ffffffffffffffffffffffffffffffffffffffff1981166001600160a01b03848116918217845560405192169182907f8be0079c531659141344cd1fd0a4f28419497f9722a3daafe3b4186f6b6457e090600090a3505050565b610bb5610c1c565b6108c381610c83565b610447610c1c565b610bcf82610c8b565b6040516001600160a01b038316907fbc7cd75a20ee27fd9adebab32041f755214dbc6bffa90cc0225b39da2e5c2d3b90600090a2805115610c1457610ae18282610d0f565b6103cb610d85565b7ff0c57e16840df040f15088dc2f81fe391c3923bec73e23a9662efc9c229c6a005468010000000000000000900460ff16610447576040517fd7e6bcf800000000000000000000000000000000000000000000000000000000815260040160405180910390fd5b610877610c1c565b806001600160a01b03163b600003610cc157604051634c9c8ce360e01b81526001600160a01b038216600482015260240161031e565b7f360894a13ba1a3210667c828492db98dca3e2076cc3735a920a3ca505d382bbc805473ffffffffffffffffffffffffffffffffffffffff19166001600160a01b0392909216919091179055565b6060600080846001600160a01b031684604051610d2c9190611236565b600060405180830381855af49150503d8060008114610d67576040519150601f19603f3d011682016040523d82523d6000602084013e610d6c565b606091505b5091509150610d7c858383610dbd565b95945050505050565b3415610447576040517fb398979f00000000000000000000000000000000000000000000000000000000815260040160405180910390fd5b606082610dd257610dcd82610e35565b610e2e565b8151158015610de957506001600160a01b0384163b155b15610e2b576040517f9996b3150000000000000000000000000000000000000000000000000000000081526001600160a01b038516600482015260240161031e565b50805b9392505050565b805115610e455780518082602001fd5b6040517f1425ea4200000000000000000000000000000000000000000000000000000000815260040160405180910390fd5b80356001600160a01b0381168114610e8e57600080fd5b919050565b80151581146108c357600080fd5b60008060408385031215610eb457600080fd5b610ebd83610e77565b91506020830135610ecd81610e93565b809150509250929050565b60008060408385031215610eeb57600080fd5b610ef483610e77565b946020939093013593505050565b634e487b7160e01b600052604160045260246000fd5b60008060408385031215610f2b57600080fd5b610f3483610e77565b9150602083013567ffffffffffffffff80821115610f5157600080fd5b818501915085601f830112610f6557600080fd5b813581811115610f7757610f77610f02565b604051601f8201601f19908116603f01168101908382118183101715610f9f57610f9f610f02565b81604052828152886020848701011115610fb857600080fd5b8260208601602083013760006020848301015280955050505050509250929050565b600060208284031215610fec57600080fd5b610e2e82610e77565b60008083601f84011261100757600080fd5b50813567ffffffffffffffff81111561101f57600080fd5b6020830191508360208260051b850101111561103a57600080fd5b9250929050565b6000806000806000806060878903121561105a57600080fd5b863567ffffffffffffffff8082111561107257600080fd5b61107e8a838b01610ff5565b9098509650602089013591508082111561109757600080fd5b6110a38a838b01610ff5565b909650945060408901359150808211156110bc57600080fd5b506110c989828a01610ff5565b979a9699509497509295939492505050565b600080602083850312156110ee57600080fd5b823567ffffffffffffffff81111561110557600080fd5b61111185828601610ff5565b90969095509350505050565b60005b83811015611138578181015183820152602001611120565b50506000910152565b602081526000825180602084015261116081604085016020870161111d565b601f01601f19169190910160400192915050565b634e487b7160e01b600052603260045260246000fd5b60006020828403121561119c57600080fd5b8151610e2e81610e93565b60006001600160a01b0380881683528087166020840152808616604084015250608060608301528260808301527f07ffffffffffffffffffffffffffffffffffffffffffffffffffffffffffffff83111561120157600080fd5b8260051b808560a08501379190910160a0019695505050505050565b60006020828403121561122f57600080fd5b5051919050565b6000825161124881846020870161111d565b919091019291505056fea2646970667358221220804329c3460db9619272ba7cb6c019caf3f45f7946f2be1bf60e0c4ecdb5158e64736f6c63430008180033",
  "linkReferences": {},
  "deployedLinkReferences": {}
}