{
  "_format": "hh-sol-artifact-1",
  "contractName": "NFT",
  "sourceName": "contracts/psc/nft.sol",
  "abi": [
    {
      "inputs": [],
      "stateMutability": "nonpayable",
      "type": "constructor"
    },
    {
      "inputs": [
        {
          "internalType": "address",
          "name": "target",
          "type": "address"
        }
      ],
      "name": "AddressEmptyCode",
      "type": "error"
    },
    {
      "inputs": [
        {
          "internalType": "address",
          "name": "sender",
          "type": "address"
        },
        {
          "internalType": "uint256",
          "name": "balance",
          "type": "uint256"
        },
        {
          "internalType": "uint256",
          "name": "needed",
          "type": "uint256"
        },
        {
          "internalType": "uint256",
          "name": "tokenId",
          "type": "uint256"
        }
      ],
      "name": "ERC1155InsufficientBalance",
      "type": "error"
    },
    {
      "inputs": [
        {
          "internalType": "address",
          "name": "approver",
          "type": "address"
        }
      ],
      "name": "ERC1155InvalidApprover",
      "type": "error"
    },
    {
      "inputs": [
        {
          "internalType": "uint256",
          "name": "idsLength",
          "type": "uint256"
        },
        {
          "internalType": "uint256",
          "name": "valuesLength",
          "type": "uint256"
        }
      ],
      "name": "ERC1155InvalidArrayLength",
      "type": "error"
    },
    {
      "inputs": [
        {
          "internalType": "address",
          "name": "operator",
          "type": "address"
        }
      ],
      "name": "ERC1155InvalidOperator",
      "type": "error"
    },
    {
      "inputs": [
        {
          "internalType": "address",
          "name": "receiver",
          "type": "address"
        }
      ],
      "name": "ERC1155InvalidReceiver",
      "type": "error"
    },
    {
      "inputs": [
        {
          "internalType": "address",
          "name": "sender",
          "type": "address"
        }
      ],
      "name": "ERC1155InvalidSender",
      "type": "error"
    },
    {
      "inputs": [
        {
          "internalType": "address",
          "name": "operator",
          "type": "address"
        },
        {
          "internalType": "address",
          "name": "owner",
          "type": "address"
        }
      ],
      "name": "ERC1155MissingApprovalForAll",
      "type": "error"
    },
    {
      "inputs": [
        {
          "internalType": "address",
          "name": "implementation",
          "type": "address"
        }
      ],
      "name": "ERC1967InvalidImplementation",
      "type": "error"
    },
    {
      "inputs": [],
      "name": "ERC1967NonPayable",
      "type": "error"
    },
    {
      "inputs": [],
      "name": "FailedCall",
      "type": "error"
    },
    {
      "inputs": [],
      "name": "InvalidInitialization",
      "type": "error"
    },
    {
      "inputs": [],
      "name": "NotInitializing",
      "type": "error"
    },
    {
      "inputs": [
        {
          "internalType": "address",
          "name": "owner",
          "type": "address"
        }
      ],
      "name": "OwnableInvalidOwner",
      "type": "error"
    },
    {
      "inputs": [
        {
          "internalType": "address",
          "name": "account",
          "type": "address"
        }
      ],
      "name": "OwnableUnauthorizedAccount",
      "type": "error"
    },
    {
      "inputs": [],
      "name": "UUPSUnauthorizedCallContext",
      "type": "error"
    },
    {
      "inputs": [
        {
          "internalType": "bytes32",
          "name": "slot",
          "type": "bytes32"
        }
      ],
      "name": "UUPSUnsupportedProxiableUUID",
      "type": "error"
    },
    {
      "anonymous": false,
      "inputs": [
        {
          "indexed": true,
          "internalType": "address",
          "name": "account",
          "type": "address"
        },
        {
          "indexed": true,
          "internalType": "address",
          "name": "operator",
          "type": "address"
        },
        {
          "indexed": false,
          "internalType": "bool",
          "name": "approved",
          "type": "bool"
        }
      ],
      "name": "ApprovalForAll",
      "type": "event"
    },
    {
      "anonymous": false,
      "inputs": [
        {
          "indexed": false,
          "internalType": "uint64",
          "name": "version",
          "type": "uint64"
        }
      ],
      "name": "Initialized",
      "type": "event"
    },
    {
      "anonymous": false,
      "inputs": [
        {
          "indexed": true,
          "internalType": "address",
          "name": "previousOwner",
          "type": "address"
        },
        {
          "indexed": true,
          "internalType": "address",
          "name": "newOwner",
          "type": "address"
        }
      ],
      "name": "OwnershipTransferred",
      "type": "event"
    },
    {
      "anonymous": false,
      "inputs": [
        {
          "indexed": true,
          "internalType": "address",
          "name": "operator",
          "type": "address"
        },
        {
          "indexed": true,
          "internalType": "address",
          "name": "from",
          "type": "address"
        },
        {
          "indexed": true,
          "internalType": "address",
          "name": "to",
          "type": "address"
        },
        {
          "indexed": false,
          "internalType": "uint256[]",
          "name": "ids",
          "type": "uint256[]"
        },
        {
          "indexed": false,
          "internalType": "uint256[]",
          "name": "values",
          "type": "uint256[]"
        }
      ],
      "name": "TransferBatch",
      "type": "event"
    },
    {
      "anonymous": false,
      "inputs": [
        {
          "indexed": true,
          "internalType": "address",
          "name": "operator",
          "type": "address"
        },
        {
          "indexed": true,
          "internalType": "address",
          "name": "from",
          "type": "address"
        },
        {
          "indexed": true,
          "internalType": "address",
          "name": "to",
          "type": "address"
        },
        {
          "indexed": false,
          "internalType": "uint256",
          "name": "id",
          "type": "uint256"
        },
        {
          "indexed": false,
          "internalType": "uint256",
          "name": "value",
          "type": "uint256"
        }
      ],
      "name": "TransferSingle",
      "type": "event"
    },
    {
      "anonymous": false,
      "inputs": [
        {
          "indexed": false,
          "internalType": "string",
          "name": "value",
          "type": "string"
        },
        {
          "indexed": true,
          "internalType": "uint256",
          "name": "id",
          "type": "uint256"
        }
      ],
      "name": "URI",
      "type": "event"
    },
    {
      "anonymous": false,
      "inputs": [
        {
          "indexed": true,
          "internalType": "address",
          "name": "implementation",
          "type": "address"
        }
      ],
      "name": "Upgraded",
      "type": "event"
    },
    {
      "inputs": [],
      "name": "UPGRADE_INTERFACE_VERSION",
      "outputs": [
        {
          "internalType": "string",
          "name": "",
          "type": "string"
        }
      ],
      "stateMutability": "view",
      "type": "function"
    },
    {
      "inputs": [
        {
          "internalType": "uint256",
          "name": "",
          "type": "uint256"
        }
      ],
      "name": "_nftPrice",
      "outputs": [
        {
          "internalType": "uint256",
          "name": "",
          "type": "uint256"
        }
      ],
      "stateMutability": "view",
      "type": "function"
    },
    {
      "inputs": [],
      "name": "_uri",
      "outputs": [
        {
          "internalType": "string",
          "name": "",
          "type": "string"
        }
      ],
      "stateMutability": "view",
      "type": "function"
    },
    {
      "inputs": [
        {
          "internalType": "address",
          "name": "account",
          "type": "address"
        },
        {
          "internalType": "uint256",
          "name": "id",
          "type": "uint256"
        }
      ],
      "name": "balanceOf",
      "outputs": [
        {
          "internalType": "uint256",
          "name": "",
          "type": "uint256"
        }
      ],
      "stateMutability": "view",
      "type": "function"
    },
    {
      "inputs": [
        {
          "internalType": "address[]",
          "name": "accounts",
          "type": "address[]"
        },
        {
          "internalType": "uint256[]",
          "name": "ids",
          "type": "uint256[]"
        }
      ],
      "name": "balanceOfBatch",
      "outputs": [
        {
          "internalType": "uint256[]",
          "name": "",
          "type": "uint256[]"
        }
      ],
      "stateMutability": "view",
      "type": "function"
    },
    {
      "inputs": [
        {
          "internalType": "address",
          "name": "account",
          "type": "address"
        },
        {
          "internalType": "uint256",
          "name": "id",
          "type": "uint256"
        },
        {
          "internalType": "uint256",
          "name": "value",
          "type": "uint256"
        }
      ],
      "name": "burn",
      "outputs": [],
      "stateMutability": "nonpayable",
      "type": "function"
    },
    {
      "inputs": [
        {
          "internalType": "address",
          "name": "account",
          "type": "address"
        },
        {
          "internalType": "uint256[]",
          "name": "ids",
          "type": "uint256[]"
        },
        {
          "internalType": "uint256[]",
          "name": "values",
          "type": "uint256[]"
        }
      ],
      "name": "burnBatch",
      "outputs": [],
      "stateMutability": "nonpayable",
      "type": "function"
    },
    {
      "inputs": [
        {
          "internalType": "uint256",
          "name": "id",
          "type": "uint256"
        }
      ],
      "name": "conflate",
      "outputs": [],
      "stateMutability": "nonpayable",
      "type": "function"
    },
    {
      "inputs": [],
      "name": "initialize",
      "outputs": [],
      "stateMutability": "nonpayable",
      "type": "function"
    },
    {
      "inputs": [
        {
          "internalType": "address",
          "name": "account",
          "type": "address"
        },
        {
          "internalType": "address",
          "name": "operator",
          "type": "address"
        }
      ],
      "name": "isApprovedForAll",
      "outputs": [
        {
          "internalType": "bool",
          "name": "",
          "type": "bool"
        }
      ],
      "stateMutability": "view",
      "type": "function"
    },
    {
      "inputs": [
        {
          "internalType": "uint256",
          "name": "id",
          "type": "uint256"
        },
        {
          "internalType": "uint256",
          "name": "amount",
          "type": "uint256"
        },
        {
          "internalType": "address",
          "name": "_target",
          "type": "address"
        }
      ],
      "name": "mintAdmin",
      "outputs": [],
      "stateMutability": "nonpayable",
      "type": "function"
    },
    {
      "inputs": [
        {
          "internalType": "address",
          "name": "to",
          "type": "address"
        },
        {
          "internalType": "uint256[]",
          "name": "ids",
          "type": "uint256[]"
        },
        {
          "internalType": "uint256[]",
          "name": "amounts",
          "type": "uint256[]"
        },
        {
          "internalType": "bytes",
          "name": "data",
          "type": "bytes"
        }
      ],
      "name": "mintBatch",
      "outputs": [],
      "stateMutability": "nonpayable",
      "type": "function"
    },
    {
      "inputs": [],
      "name": "owner",
      "outputs": [
        {
          "internalType": "address",
          "name": "",
          "type": "address"
        }
      ],
      "stateMutability": "view",
      "type": "function"
    },
    {
      "inputs": [],
      "name": "proxiableUUID",
      "outputs": [
        {
          "internalType": "bytes32",
          "name": "",
          "type": "bytes32"
        }
      ],
      "stateMutability": "view",
      "type": "function"
    },
    {
      "inputs": [],
      "name": "renounceOwnership",
      "outputs": [],
      "stateMutability": "nonpayable",
      "type": "function"
    },
    {
      "inputs": [
        {
          "internalType": "address",
          "name": "from",
          "type": "address"
        },
        {
          "internalType": "address",
          "name": "to",
          "type": "address"
        },
        {
          "internalType": "uint256[]",
          "name": "ids",
          "type": "uint256[]"
        },
        {
          "internalType": "uint256[]",
          "name": "amounts",
          "type": "uint256[]"
        },
        {
          "internalType": "bytes",
          "name": "data",
          "type": "bytes"
        }
      ],
      "name": "safeBatchTransferFrom",
      "outputs": [],
      "stateMutability": "nonpayable",
      "type": "function"
    },
    {
      "inputs": [
        {
          "internalType": "address",
          "name": "from",
          "type": "address"
        },
        {
          "internalType": "address",
          "name": "to",
          "type": "address"
        },
        {
          "internalType": "uint256",
          "name": "id",
          "type": "uint256"
        },
        {
          "internalType": "uint256",
          "name": "amount",
          "type": "uint256"
        },
        {
          "internalType": "bytes",
          "name": "data",
          "type": "bytes"
        }
      ],
      "name": "safeTransferFrom",
      "outputs": [],
      "stateMutability": "nonpayable",
      "type": "function"
    },
    {
      "inputs": [
        {
          "internalType": "address",
          "name": "operator",
          "type": "address"
        },
        {
          "internalType": "bool",
          "name": "approved",
          "type": "bool"
        }
      ],
      "name": "setApprovalForAll",
      "outputs": [],
      "stateMutability": "nonpayable",
      "type": "function"
    },
    {
      "inputs": [
        {
          "internalType": "string",
          "name": "URI",
          "type": "string"
        }
      ],
      "name": "setURI",
      "outputs": [],
      "stateMutability": "nonpayable",
      "type": "function"
    },
    {
      "inputs": [
        {
          "internalType": "bytes4",
          "name": "interfaceId",
          "type": "bytes4"
        }
      ],
      "name": "supportsInterface",
      "outputs": [
        {
          "internalType": "bool",
          "name": "",
          "type": "bool"
        }
      ],
      "stateMutability": "view",
      "type": "function"
    },
    {
      "inputs": [
        {
          "internalType": "address",
          "name": "newOwner",
          "type": "address"
        }
      ],
      "name": "transferOwnership",
      "outputs": [],
      "stateMutability": "nonpayable",
      "type": "function"
    },
    {
      "inputs": [
        {
          "internalType": "address",
          "name": "newImplementation",
          "type": "address"
        },
        {
          "internalType": "bytes",
          "name": "data",
          "type": "bytes"
        }
      ],
      "name": "upgradeToAndCall",
      "outputs": [],
      "stateMutability": "payable",
      "type": "function"
    },
    {
      "inputs": [
        {
          "internalType": "uint256",
          "name": "",
          "type": "uint256"
        }
      ],
      "name": "uri",
      "outputs": [
        {
          "internalType": "string",
          "name": "",
          "type": "string"
        }
      ],
      "stateMutability": "view",
      "type": "function"
    },
    {
      "inputs": [
        {
          "internalType": "address",
          "name": "_token",
          "type": "address"
        },
        {
          "internalType": "address",
          "name": "_target",
          "type": "address"
        },
        {
          "internalType": "uint256",
          "name": "_amount",
          "type": "uint256"
        }
      ],
      "name": "withdraw",
      "outputs": [],
      "stateMutability": "nonpayable",
      "type": "function"
    }
  ],
  "bytecode": "0x60a06040523060805234801561001457600080fd5b5061001d610022565b6100d4565b7ff0c57e16840df040f15088dc2f81fe391c3923bec73e23a9662efc9c229c6a00805468010000000000000000900460ff16156100725760405163f92ee8a960e01b815260040160405180910390fd5b80546001600160401b03908116146100d15780546001600160401b0319166001600160401b0390811782556040519081527fc7f505b2f371ae2175ee4913f4499e1f2633a7b5936321eed1cdaeb6115181d29060200160405180910390a15b50565b6080516127fe6100fd600039600081816110100152818161103901526111b701526127fe6000f3fe60806040526004361061018a5760003560e01c8063715018a6116100d6578063d30853471161007f578063f242432a11610059578063f242432a146104da578063f2fde38b146104fa578063f5298aca1461051a57600080fd5b8063d308534714610432578063d9caed1214610452578063e985e9c51461047257600080fd5b806398057d84116100b057806398057d841461039c578063a22cb465146103c9578063ad3cb1cc146103e957600080fd5b8063715018a61461032b5780638129fc1c146103405780638da5cb5b1461035557600080fd5b80632eb2c2d61161013857806352d1902d1161011257806352d1902d146102d6578063600c68d7146102eb5780636b20c4541461030b57600080fd5b80632eb2c2d6146102765780634e1273f4146102965780634f1ef286146102c357600080fd5b80630dccc9ad116101695780630dccc9ad146102145780630e89341c146102365780631f7fdffa1461025657600080fd5b8062fdd58e1461018f57806301ffc9a7146101c257806302fe5305146101f2575b600080fd5b34801561019b57600080fd5b506101af6101aa366004611d88565b61053a565b6040519081526020015b60405180910390f35b3480156101ce57600080fd5b506101e26101dd366004611dc8565b610583565b60405190151581526020016101b9565b3480156101fe57600080fd5b5061021261020d366004611e84565b61061e565b005b34801561022057600080fd5b50610229610632565b6040516101b99190611f25565b34801561024257600080fd5b50610229610251366004611f38565b6106c0565b34801561026257600080fd5b50610212610271366004612004565b610797565b34801561028257600080fd5b5061021261029136600461209d565b6107b1565b3480156102a257600080fd5b506102b66102b1366004612147565b6107c5565b6040516101b99190612243565b6102126102d1366004612256565b610897565b3480156102e257600080fd5b506101af6108b6565b3480156102f757600080fd5b5061021261030636600461229a565b6108e5565b34801561031757600080fd5b506102126103263660046122cf565b61090d565b34801561033757600080fd5b506102126109cf565b34801561034c57600080fd5b506102126109e3565b34801561036157600080fd5b507f9016d09d72d40fdae2fd8ceac6b6234c7706214fd39c1cd1e609a0528c199300546040516001600160a01b0390911681526020016101b9565b3480156103a857600080fd5b506101af6103b7366004611f38565b60016020526000908152604090205481565b3480156103d557600080fd5b506102126103e4366004612351565b610b47565b3480156103f557600080fd5b506102296040518060400160405280600581526020017f352e302e3000000000000000000000000000000000000000000000000000000081525081565b34801561043e57600080fd5b5061021261044d366004611f38565b610b52565b34801561045e57600080fd5b5061021261046d366004612388565b610be0565b34801561047e57600080fd5b506101e261048d3660046123c4565b6001600160a01b0391821660009081527f88be536d5240c274a3b1d3a1be54482fd9caa294f08c62a7cde569f49a3c45016020908152604080832093909416825291909152205460ff1690565b3480156104e657600080fd5b506102126104f53660046123f7565b610d45565b34801561050657600080fd5b5061021261051536600461245c565b610d52565b34801561052657600080fd5b50610212610535366004612477565b610da6565b60008181527f88be536d5240c274a3b1d3a1be54482fd9caa294f08c62a7cde569f49a3c4500602090815260408083206001600160a01b03861684529091529020545b92915050565b60006001600160e01b031982167fd9b67a260000000000000000000000000000000000000000000000000000000014806105e657506001600160e01b031982167f0e89341c00000000000000000000000000000000000000000000000000000000145b8061057d57507f01ffc9a7000000000000000000000000000000000000000000000000000000006001600160e01b031983161461057d565b610626610e68565b61062f81610edc565b50565b6000805461063f906124aa565b80601f016020809104026020016040519081016040528092919081815260200182805461066b906124aa565b80156106b85780601f1061068d576101008083540402835291602001916106b8565b820191906000526020600020905b81548152906001019060200180831161069b57829003601f168201915b505050505081565b7f88be536d5240c274a3b1d3a1be54482fd9caa294f08c62a7cde569f49a3c450280546060917f88be536d5240c274a3b1d3a1be54482fd9caa294f08c62a7cde569f49a3c450091610711906124aa565b80601f016020809104026020016040519081016040528092919081815260200182805461073d906124aa565b801561078a5780601f1061075f5761010080835404028352916020019161078a565b820191906000526020600020905b81548152906001019060200180831161076d57829003601f168201915b5050505050915050919050565b61079f610e68565b6107ab84848484610f28565b50505050565b6107be8585858585610f60565b5050505050565b606081518351146107fb5781518351604051635b05999160e01b8152600481019290925260248201526044015b60405180910390fd5b6000835167ffffffffffffffff81111561081757610817611de5565b604051908082528060200260200182016040528015610840578160200160208202803683370190505b50905060005b845181101561088f5760208082028601015161086a9060208084028701015161053a565b82828151811061087c5761087c6124e4565b6020908102919091010152600101610846565b509392505050565b61089f611005565b6108a8826110bc565b6108b282826110c4565b5050565b60006108c06111ac565b507f360894a13ba1a3210667c828492db98dca3e2076cc3735a920a3ca505d382bbc90565b6108ed610e68565b610908818484604051806020016040528060008152506111f5565b505050565b6001600160a01b03831633148061096657506001600160a01b03831660009081527f88be536d5240c274a3b1d3a1be54482fd9caa294f08c62a7cde569f49a3c45016020908152604080832033845290915290205460ff165b6109c45760405162461bcd60e51b815260206004820152602960248201527f455243313135353a2063616c6c6572206973206e6f74206f776e6572206e6f7260448201526808185c1c1c9bdd995960ba1b60648201526084016107f2565b610908838383611252565b6109d7610e68565b6109e16000611298565b565b7ff0c57e16840df040f15088dc2f81fe391c3923bec73e23a9662efc9c229c6a00805468010000000000000000810460ff16159067ffffffffffffffff16600081158015610a2e5750825b905060008267ffffffffffffffff166001148015610a4b5750303b155b905081158015610a59575080155b15610a90576040517ff92ee8a900000000000000000000000000000000000000000000000000000000815260040160405180910390fd5b845467ffffffffffffffff191660011785558315610ac457845468ff00000000000000001916680100000000000000001785555b610ae56040518060a001604052806070815260200161275960709139611316565b610aee33611327565b610af6611338565b83156107be57845468ff000000000000000019168555604051600181527fc7f505b2f371ae2175ee4913f4499e1f2633a7b5936321eed1cdaeb6115181d29060200160405180910390a15050505050565b6108b2338383611340565b600081118015610b625750600581105b610bae5760405162461bcd60e51b815260206004820152600860248201527f6964206572726f7200000000000000000000000000000000000000000000000060448201526064016107f2565b610bba33826003610da6565b61062f33610bc98360016124fa565b6001604051806020016040528060008152506111f5565b610be8610e68565b6040517f70a0823100000000000000000000000000000000000000000000000000000000815230600482015281906001600160a01b038516906370a0823190602401602060405180830381865afa158015610c47573d6000803e3d6000fd5b505050506040513d601f19601f82011682018060405250810190610c6b919061251b565b1015610cb95760405162461bcd60e51b815260206004820152600a60248201527f6e6f2062616c616e63650000000000000000000000000000000000000000000060448201526064016107f2565b6040517fa9059cbb0000000000000000000000000000000000000000000000000000000081526001600160a01b0383811660048301526024820183905284169063a9059cbb906044016020604051808303816000875af1158015610d21573d6000803e3d6000fd5b505050506040513d601f19601f820116820180604052508101906107ab9190612534565b6107be8585858585611414565b610d5a610e68565b6001600160a01b038116610d9d576040517f1e4fbdf7000000000000000000000000000000000000000000000000000000008152600060048201526024016107f2565b61062f81611298565b6001600160a01b038316331480610dff57506001600160a01b03831660009081527f88be536d5240c274a3b1d3a1be54482fd9caa294f08c62a7cde569f49a3c45016020908152604080832033845290915290205460ff165b610e5d5760405162461bcd60e51b815260206004820152602960248201527f455243313135353a2063616c6c6572206973206e6f74206f776e6572206e6f7260448201526808185c1c1c9bdd995960ba1b60648201526084016107f2565b6109088383836114b1565b33610e9a7f9016d09d72d40fdae2fd8ceac6b6234c7706214fd39c1cd1e609a0528c199300546001600160a01b031690565b6001600160a01b0316146109e1576040517f118cdaa70000000000000000000000000000000000000000000000000000000081523360048201526024016107f2565b7f88be536d5240c274a3b1d3a1be54482fd9caa294f08c62a7cde569f49a3c45007f88be536d5240c274a3b1d3a1be54482fd9caa294f08c62a7cde569f49a3c45026109088382612599565b6001600160a01b038416610f5257604051632bfa23e760e11b8152600060048201526024016107f2565b6107ab600085858585611515565b336001600160a01b0386168114801590610fbf57506001600160a01b0380871660009081527f88be536d5240c274a3b1d3a1be54482fd9caa294f08c62a7cde569f49a3c4501602090815260408083209385168352929052205460ff16155b15610ff05760405163711bec9160e11b81526001600160a01b038083166004830152871660248201526044016107f2565b610ffd8686868686611568565b505050505050565b306001600160a01b037f000000000000000000000000000000000000000000000000000000000000000016148061109e57507f00000000000000000000000000000000000000000000000000000000000000006001600160a01b03166110927f360894a13ba1a3210667c828492db98dca3e2076cc3735a920a3ca505d382bbc546001600160a01b031690565b6001600160a01b031614155b156109e15760405163703e46dd60e11b815260040160405180910390fd5b61062f610e68565b816001600160a01b03166352d1902d6040518163ffffffff1660e01b8152600401602060405180830381865afa92505050801561111e575060408051601f3d908101601f1916820190925261111b9181019061251b565b60015b61114657604051634c9c8ce360e01b81526001600160a01b03831660048201526024016107f2565b7f360894a13ba1a3210667c828492db98dca3e2076cc3735a920a3ca505d382bbc81146111a2576040517faa1d49a4000000000000000000000000000000000000000000000000000000008152600481018290526024016107f2565b61090883836115c8565b306001600160a01b037f000000000000000000000000000000000000000000000000000000000000000016146109e15760405163703e46dd60e11b815260040160405180910390fd5b6001600160a01b03841661121f57604051632bfa23e760e11b8152600060048201526024016107f2565b60408051600180825260208201869052818301908152606082018590526080820190925290610ffd600087848487611515565b6001600160a01b03831661127b57604051626a0d4560e21b8152600060048201526024016107f2565b610908836000848460405180602001604052806000815250611515565b7f9016d09d72d40fdae2fd8ceac6b6234c7706214fd39c1cd1e609a0528c199300805473ffffffffffffffffffffffffffffffffffffffff1981166001600160a01b03848116918217845560405192169182907f8be0079c531659141344cd1fd0a4f28419497f9722a3daafe3b4186f6b6457e090600090a3505050565b61131e61161e565b61062f81611685565b61132f61161e565b61062f8161168d565b6109e161161e565b7f88be536d5240c274a3b1d3a1be54482fd9caa294f08c62a7cde569f49a3c45006001600160a01b0383166113a4576040517fced3e100000000000000000000000000000000000000000000000000000000008152600060048201526024016107f2565b6001600160a01b038481166000818152600184016020908152604080832094881680845294825291829020805460ff191687151590811790915591519182527f17307eab39ab6107e8899845ad3d59bd9653f200f220920489ca2b5937696c31910160405180910390a350505050565b336001600160a01b038616811480159061147357506001600160a01b0380871660009081527f88be536d5240c274a3b1d3a1be54482fd9caa294f08c62a7cde569f49a3c4501602090815260408083209385168352929052205460ff16155b156114a45760405163711bec9160e11b81526001600160a01b038083166004830152871660248201526044016107f2565b610ffd8686868686611695565b6001600160a01b0383166114da57604051626a0d4560e21b8152600060048201526024016107f2565b604080516001808252602082018590528183019081526060820184905260a082019092526000608082018181529192916107be918791859085905b61152185858585611723565b6001600160a01b038416156107be578251339060010361155a5760208481015190840151611553838989858589611973565b5050610ffd565b610ffd818787878787611a97565b6001600160a01b03841661159257604051632bfa23e760e11b8152600060048201526024016107f2565b6001600160a01b0385166115bb57604051626a0d4560e21b8152600060048201526024016107f2565b6107be8585858585611515565b6115d182611b80565b6040516001600160a01b038316907fbc7cd75a20ee27fd9adebab32041f755214dbc6bffa90cc0225b39da2e5c2d3b90600090a2805115611616576109088282611c04565b6108b2611c7a565b7ff0c57e16840df040f15088dc2f81fe391c3923bec73e23a9662efc9c229c6a005468010000000000000000900460ff166109e1576040517fd7e6bcf800000000000000000000000000000000000000000000000000000000815260040160405180910390fd5b61062661161e565b610d5a61161e565b6001600160a01b0384166116bf57604051632bfa23e760e11b8152600060048201526024016107f2565b6001600160a01b0385166116e857604051626a0d4560e21b8152600060048201526024016107f2565b6040805160018082526020820186905281830190815260608201859052608082019092529061171a8787848487611515565b50505050505050565b805182517f88be536d5240c274a3b1d3a1be54482fd9caa294f08c62a7cde569f49a3c450091146117745782518251604051635b05999160e01b8152600481019290925260248201526044016107f2565b3360005b8451811015611893576020818102868101820151908601909101516001600160a01b03891615611844576000828152602086815260408083206001600160a01b038d1684529091529020548181101561181d576040517f03dee4c50000000000000000000000000000000000000000000000000000000081526001600160a01b038b1660048201526024810182905260448101839052606481018490526084016107f2565b6000838152602087815260408083206001600160a01b038e16845290915290209082900390555b6001600160a01b03881615611889576000828152602086815260408083206001600160a01b038c168452909152812080548392906118839084906124fa565b90915550505b5050600101611778565b5083516001036119145760208401516000906020850151909150866001600160a01b0316886001600160a01b0316846001600160a01b03167fc3d58168c5ae7397731d063d5bbf3d657854427343f4c083240f7aacaa2d0f628585604051611905929190918252602082015260400190565b60405180910390a45050610ffd565b846001600160a01b0316866001600160a01b0316826001600160a01b03167f4a39dc06d4c0dbc64b70af90fd698a233a518aa5d07e595d983b8c0526c8f7fb8787604051611963929190612659565b60405180910390a4505050505050565b6001600160a01b0384163b15610ffd5760405163f23a6e6160e01b81526001600160a01b0385169063f23a6e61906119b7908990899088908890889060040161267e565b6020604051808303816000875af19250505080156119f2575060408051601f3d908101601f191682019092526119ef918101906126c1565b60015b611a5b573d808015611a20576040519150601f19603f3d011682016040523d82523d6000602084013e611a25565b606091505b508051600003611a5357604051632bfa23e760e11b81526001600160a01b03861660048201526024016107f2565b805181602001fd5b6001600160e01b0319811663f23a6e6160e01b1461171a57604051632bfa23e760e11b81526001600160a01b03861660048201526024016107f2565b6001600160a01b0384163b15610ffd5760405163bc197c8160e01b81526001600160a01b0385169063bc197c8190611adb90899089908890889088906004016126de565b6020604051808303816000875af1925050508015611b16575060408051601f3d908101601f19168201909252611b13918101906126c1565b60015b611b44573d808015611a20576040519150601f19603f3d011682016040523d82523d6000602084013e611a25565b6001600160e01b0319811663bc197c8160e01b1461171a57604051632bfa23e760e11b81526001600160a01b03861660048201526024016107f2565b806001600160a01b03163b600003611bb657604051634c9c8ce360e01b81526001600160a01b03821660048201526024016107f2565b7f360894a13ba1a3210667c828492db98dca3e2076cc3735a920a3ca505d382bbc805473ffffffffffffffffffffffffffffffffffffffff19166001600160a01b0392909216919091179055565b6060600080846001600160a01b031684604051611c21919061273c565b600060405180830381855af49150503d8060008114611c5c576040519150601f19603f3d011682016040523d82523d6000602084013e611c61565b606091505b5091509150611c71858383611cb2565b95945050505050565b34156109e1576040517fb398979f00000000000000000000000000000000000000000000000000000000815260040160405180910390fd5b606082611cc757611cc282611d2a565b611d23565b8151158015611cde57506001600160a01b0384163b155b15611d20576040517f9996b3150000000000000000000000000000000000000000000000000000000081526001600160a01b03851660048201526024016107f2565b50805b9392505050565b805115611d3a5780518082602001fd5b6040517fd6bda27500000000000000000000000000000000000000000000000000000000815260040160405180910390fd5b80356001600160a01b0381168114611d8357600080fd5b919050565b60008060408385031215611d9b57600080fd5b611da483611d6c565b946020939093013593505050565b6001600160e01b03198116811461062f57600080fd5b600060208284031215611dda57600080fd5b8135611d2381611db2565b634e487b7160e01b600052604160045260246000fd5b604051601f8201601f1916810167ffffffffffffffff81118282101715611e2457611e24611de5565b604052919050565b600067ffffffffffffffff831115611e4657611e46611de5565b611e59601f8401601f1916602001611dfb565b9050828152838383011115611e6d57600080fd5b828260208301376000602084830101529392505050565b600060208284031215611e9657600080fd5b813567ffffffffffffffff811115611ead57600080fd5b8201601f81018413611ebe57600080fd5b611ecd84823560208401611e2c565b949350505050565b60005b83811015611ef0578181015183820152602001611ed8565b50506000910152565b60008151808452611f11816020860160208601611ed5565b601f01601f19169290920160200192915050565b602081526000611d236020830184611ef9565b600060208284031215611f4a57600080fd5b5035919050565b600067ffffffffffffffff821115611f6b57611f6b611de5565b5060051b60200190565b600082601f830112611f8657600080fd5b81356020611f9b611f9683611f51565b611dfb565b8083825260208201915060208460051b870101935086841115611fbd57600080fd5b602086015b84811015611fd95780358352918301918301611fc2565b509695505050505050565b600082601f830112611ff557600080fd5b611d2383833560208501611e2c565b6000806000806080858703121561201a57600080fd5b61202385611d6c565b9350602085013567ffffffffffffffff8082111561204057600080fd5b61204c88838901611f75565b9450604087013591508082111561206257600080fd5b61206e88838901611f75565b9350606087013591508082111561208457600080fd5b5061209187828801611fe4565b91505092959194509250565b600080600080600060a086880312156120b557600080fd5b6120be86611d6c565b94506120cc60208701611d6c565b9350604086013567ffffffffffffffff808211156120e957600080fd5b6120f589838a01611f75565b9450606088013591508082111561210b57600080fd5b61211789838a01611f75565b9350608088013591508082111561212d57600080fd5b5061213a88828901611fe4565b9150509295509295909350565b6000806040838503121561215a57600080fd5b823567ffffffffffffffff8082111561217257600080fd5b818501915085601f83011261218657600080fd5b81356020612196611f9683611f51565b82815260059290921b840181019181810190898411156121b557600080fd5b948201945b838610156121da576121cb86611d6c565b825294820194908201906121ba565b965050860135925050808211156121f057600080fd5b506121fd85828601611f75565b9150509250929050565b60008151808452602080850194506020840160005b838110156122385781518752958201959082019060010161221c565b509495945050505050565b602081526000611d236020830184612207565b6000806040838503121561226957600080fd5b61227283611d6c565b9150602083013567ffffffffffffffff81111561228e57600080fd5b6121fd85828601611fe4565b6000806000606084860312156122af57600080fd5b83359250602084013591506122c660408501611d6c565b90509250925092565b6000806000606084860312156122e457600080fd5b6122ed84611d6c565b9250602084013567ffffffffffffffff8082111561230a57600080fd5b61231687838801611f75565b9350604086013591508082111561232c57600080fd5b5061233986828701611f75565b9150509250925092565b801515811461062f57600080fd5b6000806040838503121561236457600080fd5b61236d83611d6c565b9150602083013561237d81612343565b809150509250929050565b60008060006060848603121561239d57600080fd5b6123a684611d6c565b92506123b460208501611d6c565b9150604084013590509250925092565b600080604083850312156123d757600080fd5b6123e083611d6c565b91506123ee60208401611d6c565b90509250929050565b600080600080600060a0868803121561240f57600080fd5b61241886611d6c565b945061242660208701611d6c565b93506040860135925060608601359150608086013567ffffffffffffffff81111561245057600080fd5b61213a88828901611fe4565b60006020828403121561246e57600080fd5b611d2382611d6c565b60008060006060848603121561248c57600080fd5b61249584611d6c565b95602085013595506040909401359392505050565b600181811c908216806124be57607f821691505b6020821081036124de57634e487b7160e01b600052602260045260246000fd5b50919050565b634e487b7160e01b600052603260045260246000fd5b8082018082111561057d57634e487b7160e01b600052601160045260246000fd5b60006020828403121561252d57600080fd5b5051919050565b60006020828403121561254657600080fd5b8151611d2381612343565b601f821115610908576000816000526020600020601f850160051c8101602086101561257a5750805b601f850160051c820191505b81811015610ffd57828155600101612586565b815167ffffffffffffffff8111156125b3576125b3611de5565b6125c7816125c184546124aa565b84612551565b602080601f8311600181146125fc57600084156125e45750858301515b600019600386901b1c1916600185901b178555610ffd565b600085815260208120601f198616915b8281101561262b5788860151825594840194600190910190840161260c565b50858210156126495787850151600019600388901b60f8161c191681555b5050505050600190811b01905550565b60408152600061266c6040830185612207565b8281036020840152611c718185612207565b60006001600160a01b03808816835280871660208401525084604083015283606083015260a060808301526126b660a0830184611ef9565b979650505050505050565b6000602082840312156126d357600080fd5b8151611d2381611db2565b60006001600160a01b03808816835280871660208401525060a0604083015261270a60a0830186612207565b828103606084015261271c8186612207565b905082810360808401526127308185611ef9565b98975050505050505050565b6000825161274e818460208701611ed5565b919091019291505056fe68747470733a2f2f6d6f63636173696e2d726976616c2d7374757267656f6e2d3335372e6d7970696e6174612e636c6f75642f697066732f516d59347268774d355665426955336e417056343257506259686d6266437175756a3155316357637468704331632f7b69647d2e6a736f6ea264697066735822122031d90e4c4148dae3f49b870a74d14a494cd24822f16364fcda32efc81b1ceb9564736f6c63430008190033",
  "linkReferences": {},
  "deployedLinkReferences": {}
}