{
  "_format": "hh-sol-artifact-1",
  "contractName": "Z",
  "sourceName": "contracts/BT2_Z.sol",
  "abi": [
    {
      "inputs": [],
      "stateMutability": "nonpayable",
      "type": "constructor"
    },
    {
      "inputs": [
        {
          "internalType": "address",
          "name": "target",
          "type": "address"
        }
      ],
      "name": "AddressEmptyCode",
      "type": "error"
    },
    {
      "inputs": [
        {
          "internalType": "address",
          "name": "implementation",
          "type": "address"
        }
      ],
      "name": "ERC1967InvalidImplementation",
      "type": "error"
    },
    {
      "inputs": [],
      "name": "ERC1967NonPayable",
      "type": "error"
    },
    {
      "inputs": [
        {
          "internalType": "address",
          "name": "spender",
          "type": "address"
        },
        {
          "internalType": "uint256",
          "name": "allowance",
          "type": "uint256"
        },
        {
          "internalType": "uint256",
          "name": "needed",
          "type": "uint256"
        }
      ],
      "name": "ERC20InsufficientAllowance",
      "type": "error"
    },
    {
      "inputs": [
        {
          "internalType": "address",
          "name": "sender",
          "type": "address"
        },
        {
          "internalType": "uint256",
          "name": "balance",
          "type": "uint256"
        },
        {
          "internalType": "uint256",
          "name": "needed",
          "type": "uint256"
        }
      ],
      "name": "ERC20InsufficientBalance",
      "type": "error"
    },
    {
      "inputs": [
        {
          "internalType": "address",
          "name": "approver",
          "type": "address"
        }
      ],
      "name": "ERC20InvalidApprover",
      "type": "error"
    },
    {
      "inputs": [
        {
          "internalType": "address",
          "name": "receiver",
          "type": "address"
        }
      ],
      "name": "ERC20InvalidReceiver",
      "type": "error"
    },
    {
      "inputs": [
        {
          "internalType": "address",
          "name": "sender",
          "type": "address"
        }
      ],
      "name": "ERC20InvalidSender",
      "type": "error"
    },
    {
      "inputs": [
        {
          "internalType": "address",
          "name": "spender",
          "type": "address"
        }
      ],
      "name": "ERC20InvalidSpender",
      "type": "error"
    },
    {
      "inputs": [],
      "name": "FailedInnerCall",
      "type": "error"
    },
    {
      "inputs": [],
      "name": "InvalidInitialization",
      "type": "error"
    },
    {
      "inputs": [],
      "name": "NotInitializing",
      "type": "error"
    },
    {
      "inputs": [
        {
          "internalType": "address",
          "name": "owner",
          "type": "address"
        }
      ],
      "name": "OwnableInvalidOwner",
      "type": "error"
    },
    {
      "inputs": [
        {
          "internalType": "address",
          "name": "account",
          "type": "address"
        }
      ],
      "name": "OwnableUnauthorizedAccount",
      "type": "error"
    },
    {
      "inputs": [],
      "name": "UUPSUnauthorizedCallContext",
      "type": "error"
    },
    {
      "inputs": [
        {
          "internalType": "bytes32",
          "name": "slot",
          "type": "bytes32"
        }
      ],
      "name": "UUPSUnsupportedProxiableUUID",
      "type": "error"
    },
    {
      "anonymous": false,
      "inputs": [
        {
          "indexed": true,
          "internalType": "address",
          "name": "sender",
          "type": "address"
        },
        {
          "indexed": false,
          "internalType": "uint256",
          "name": "value",
          "type": "uint256"
        }
      ],
      "name": "ApplyRemovePledge",
      "type": "event"
    },
    {
      "anonymous": false,
      "inputs": [
        {
          "indexed": true,
          "internalType": "address",
          "name": "owner",
          "type": "address"
        },
        {
          "indexed": true,
          "internalType": "address",
          "name": "spender",
          "type": "address"
        },
        {
          "indexed": false,
          "internalType": "uint256",
          "name": "value",
          "type": "uint256"
        }
      ],
      "name": "Approval",
      "type": "event"
    },
    {
      "anonymous": false,
      "inputs": [
        {
          "indexed": false,
          "internalType": "uint64",
          "name": "version",
          "type": "uint64"
        }
      ],
      "name": "Initialized",
      "type": "event"
    },
    {
      "anonymous": false,
      "inputs": [
        {
          "indexed": true,
          "internalType": "address",
          "name": "previousOwner",
          "type": "address"
        },
        {
          "indexed": true,
          "internalType": "address",
          "name": "newOwner",
          "type": "address"
        }
      ],
      "name": "OwnershipTransferred",
      "type": "event"
    },
    {
      "anonymous": false,
      "inputs": [
        {
          "indexed": true,
          "internalType": "address",
          "name": "from",
          "type": "address"
        },
        {
          "indexed": true,
          "internalType": "address",
          "name": "to",
          "type": "address"
        },
        {
          "indexed": false,
          "internalType": "uint256",
          "name": "value",
          "type": "uint256"
        }
      ],
      "name": "Transfer",
      "type": "event"
    },
    {
      "anonymous": false,
      "inputs": [
        {
          "indexed": true,
          "internalType": "address",
          "name": "implementation",
          "type": "address"
        }
      ],
      "name": "Upgraded",
      "type": "event"
    },
    {
      "inputs": [],
      "name": "UPGRADE_INTERFACE_VERSION",
      "outputs": [
        {
          "internalType": "string",
          "name": "",
          "type": "string"
        }
      ],
      "stateMutability": "view",
      "type": "function"
    },
    {
      "inputs": [
        {
          "internalType": "address",
          "name": "owner",
          "type": "address"
        },
        {
          "internalType": "address",
          "name": "spender",
          "type": "address"
        }
      ],
      "name": "allowance",
      "outputs": [
        {
          "internalType": "uint256",
          "name": "",
          "type": "uint256"
        }
      ],
      "stateMutability": "view",
      "type": "function"
    },
    {
      "inputs": [
        {
          "internalType": "address",
          "name": "spender",
          "type": "address"
        },
        {
          "internalType": "uint256",
          "name": "value",
          "type": "uint256"
        }
      ],
      "name": "approve",
      "outputs": [
        {
          "internalType": "bool",
          "name": "",
          "type": "bool"
        }
      ],
      "stateMutability": "nonpayable",
      "type": "function"
    },
    {
      "inputs": [
        {
          "internalType": "address",
          "name": "account",
          "type": "address"
        }
      ],
      "name": "balanceOf",
      "outputs": [
        {
          "internalType": "uint256",
          "name": "",
          "type": "uint256"
        }
      ],
      "stateMutability": "view",
      "type": "function"
    },
    {
      "inputs": [],
      "name": "decimals",
      "outputs": [
        {
          "internalType": "uint8",
          "name": "",
          "type": "uint8"
        }
      ],
      "stateMutability": "view",
      "type": "function"
    },
    {
      "inputs": [
        {
          "internalType": "address",
          "name": "_addr",
          "type": "address"
        }
      ],
      "name": "getRedemptionRelation",
      "outputs": [
        {
          "components": [
            {
              "internalType": "uint256",
              "name": "time",
              "type": "uint256"
            },
            {
              "internalType": "uint256",
              "name": "value",
              "type": "uint256"
            }
          ],
          "internalType": "struct redemption",
          "name": "",
          "type": "tuple"
        }
      ],
      "stateMutability": "view",
      "type": "function"
    },
    {
      "inputs": [
        {
          "internalType": "contract ZPlan",
          "name": "_address",
          "type": "address"
        }
      ],
      "name": "initialize",
      "outputs": [],
      "stateMutability": "nonpayable",
      "type": "function"
    },
    {
      "inputs": [
        {
          "internalType": "address",
          "name": "to",
          "type": "address"
        },
        {
          "internalType": "uint256",
          "name": "amount",
          "type": "uint256"
        }
      ],
      "name": "mint",
      "outputs": [],
      "stateMutability": "nonpayable",
      "type": "function"
    },
    {
      "inputs": [],
      "name": "name",
      "outputs": [
        {
          "internalType": "string",
          "name": "",
          "type": "string"
        }
      ],
      "stateMutability": "view",
      "type": "function"
    },
    {
      "inputs": [],
      "name": "owner",
      "outputs": [
        {
          "internalType": "address",
          "name": "",
          "type": "address"
        }
      ],
      "stateMutability": "view",
      "type": "function"
    },
    {
      "inputs": [],
      "name": "proxiableUUID",
      "outputs": [
        {
          "internalType": "bytes32",
          "name": "",
          "type": "bytes32"
        }
      ],
      "stateMutability": "view",
      "type": "function"
    },
    {
      "inputs": [
        {
          "internalType": "address",
          "name": "",
          "type": "address"
        }
      ],
      "name": "redemptionRelation",
      "outputs": [
        {
          "internalType": "uint256",
          "name": "time",
          "type": "uint256"
        },
        {
          "internalType": "uint256",
          "name": "value",
          "type": "uint256"
        }
      ],
      "stateMutability": "view",
      "type": "function"
    },
    {
      "inputs": [],
      "name": "renounceOwnership",
      "outputs": [],
      "stateMutability": "nonpayable",
      "type": "function"
    },
    {
      "inputs": [
        {
          "internalType": "uint256",
          "name": "_unxitime",
          "type": "uint256"
        }
      ],
      "name": "setRedemptionIntervals",
      "outputs": [],
      "stateMutability": "nonpayable",
      "type": "function"
    },
    {
      "inputs": [
        {
          "internalType": "address",
          "name": "addr",
          "type": "address"
        }
      ],
      "name": "setZPlanToken",
      "outputs": [],
      "stateMutability": "nonpayable",
      "type": "function"
    },
    {
      "inputs": [],
      "name": "symbol",
      "outputs": [
        {
          "internalType": "string",
          "name": "",
          "type": "string"
        }
      ],
      "stateMutability": "view",
      "type": "function"
    },
    {
      "inputs": [],
      "name": "totalSupply",
      "outputs": [
        {
          "internalType": "uint256",
          "name": "",
          "type": "uint256"
        }
      ],
      "stateMutability": "view",
      "type": "function"
    },
    {
      "inputs": [
        {
          "internalType": "address",
          "name": "to",
          "type": "address"
        },
        {
          "internalType": "uint256",
          "name": "value",
          "type": "uint256"
        }
      ],
      "name": "transfer",
      "outputs": [
        {
          "internalType": "bool",
          "name": "",
          "type": "bool"
        }
      ],
      "stateMutability": "nonpayable",
      "type": "function"
    },
    {
      "inputs": [
        {
          "internalType": "address",
          "name": "from",
          "type": "address"
        },
        {
          "internalType": "address",
          "name": "to",
          "type": "address"
        },
        {
          "internalType": "uint256",
          "name": "value",
          "type": "uint256"
        }
      ],
      "name": "transferFrom",
      "outputs": [
        {
          "internalType": "bool",
          "name": "",
          "type": "bool"
        }
      ],
      "stateMutability": "nonpayable",
      "type": "function"
    },
    {
      "inputs": [
        {
          "internalType": "address",
          "name": "newOwner",
          "type": "address"
        }
      ],
      "name": "transferOwnership",
      "outputs": [],
      "stateMutability": "nonpayable",
      "type": "function"
    },
    {
      "inputs": [
        {
          "internalType": "address",
          "name": "newImplementation",
          "type": "address"
        },
        {
          "internalType": "bytes",
          "name": "data",
          "type": "bytes"
        }
      ],
      "name": "upgradeToAndCall",
      "outputs": [],
      "stateMutability": "payable",
      "type": "function"
    }
  ],
  "bytecode": "0x60a06040523060805234801561001457600080fd5b5061001d610022565b6100d4565b7ff0c57e16840df040f15088dc2f81fe391c3923bec73e23a9662efc9c229c6a00805468010000000000000000900460ff16156100725760405163f92ee8a960e01b815260040160405180910390fd5b80546001600160401b03908116146100d15780546001600160401b0319166001600160401b0390811782556040519081527fc7f505b2f371ae2175ee4913f4499e1f2633a7b5936321eed1cdaeb6115181d29060200160405180910390a15b50565b608051611bfd6100fd60003960008181610e9701528181610ec0015261103e0152611bfd6000f3fe60806040526004361061016a5760003560e01c806370a08231116100cb578063a9059cbb1161007f578063c4d66de811610059578063c4d66de8146104c3578063dd62ed3e146104e3578063f2fde38b1461054857600080fd5b8063a9059cbb146103dd578063ad3cb1cc146103fd578063bff025701461044657600080fd5b80637f35d71e116100b05780637f35d71e146103385780638da5cb5b1461038157806395d89b41146103c857600080fd5b806370a08231146102ce578063715018a61461032357600080fd5b80633f5dea0f116101225780634f1ef286116101075780634f1ef2861461028657806352d1902d1461029957806369bf2074146102ae57600080fd5b80633f5dea0f1461024457806340c10f191461026657600080fd5b806318160ddd1161015357806318160ddd146101ca57806323b872dd14610208578063313ce5671461022857600080fd5b806306fdde031461016f578063095ea7b31461019a575b600080fd5b34801561017b57600080fd5b50610184610568565b60405161019191906116fd565b60405180910390f35b3480156101a657600080fd5b506101ba6101b5366004611745565b61063d565b6040519015158152602001610191565b3480156101d657600080fd5b507f52c63247e1f47db19d5ce0460030c497f067ca4cebf71ba98eeadabe20bace02545b604051908152602001610191565b34801561021457600080fd5b506101ba610223366004611771565b610657565b34801561023457600080fd5b5060405160128152602001610191565b34801561025057600080fd5b5061026461025f3660046117b2565b61067d565b005b34801561027257600080fd5b50610264610281366004611745565b6106b4565b6102646102943660046117e5565b6106ca565b3480156102a557600080fd5b506101fa6106e5565b3480156102ba57600080fd5b506102646102c93660046118a9565b610714565b3480156102da57600080fd5b506101fa6102e93660046117b2565b6001600160a01b031660009081527f52c63247e1f47db19d5ce0460030c497f067ca4cebf71ba98eeadabe20bace00602052604090205490565b34801561032f57600080fd5b50610264610721565b34801561034457600080fd5b5061036c6103533660046117b2565b6002602052600090815260409020805460019091015482565b60408051928352602083019190915201610191565b34801561038d57600080fd5b507f9016d09d72d40fdae2fd8ceac6b6234c7706214fd39c1cd1e609a0528c199300546040516001600160a01b039091168152602001610191565b3480156103d457600080fd5b50610184610735565b3480156103e957600080fd5b506101ba6103f8366004611745565b610786565b34801561040957600080fd5b506101846040518060400160405280600581526020017f352e302e3000000000000000000000000000000000000000000000000000000081525081565b34801561045257600080fd5b506104a86104613660046117b2565b6040805180820190915260008082526020820152506001600160a01b0316600090815260026020908152604091829020825180840190935280548352600101549082015290565b60408051825181526020928301519281019290925201610191565b3480156104cf57600080fd5b506102646104de3660046117b2565b610a79565b3480156104ef57600080fd5b506101fa6104fe3660046118c2565b6001600160a01b0391821660009081527f52c63247e1f47db19d5ce0460030c497f067ca4cebf71ba98eeadabe20bace016020908152604080832093909416825291909152205490565b34801561055457600080fd5b506102646105633660046117b2565b610c4b565b7f52c63247e1f47db19d5ce0460030c497f067ca4cebf71ba98eeadabe20bace0380546060917f52c63247e1f47db19d5ce0460030c497f067ca4cebf71ba98eeadabe20bace00916105b9906118fb565b80601f01602080910402602001604051908101604052809291908181526020018280546105e5906118fb565b80156106325780601f1061060757610100808354040283529160200191610632565b820191906000526020600020905b81548152906001019060200180831161061557829003601f168201915b505050505091505090565b60003361064b818585610ca2565b60019150505b92915050565b600033610665858285610cb4565b610670858585610d6a565b60019150505b9392505050565b610685610de2565b6000805473ffffffffffffffffffffffffffffffffffffffff19166001600160a01b0392909216919091179055565b6106bc610de2565b6106c68282610e56565b5050565b6106d2610e8c565b6106db82610f43565b6106c68282610f4b565b60006106ef611033565b507f360894a13ba1a3210667c828492db98dca3e2076cc3735a920a3ca505d382bbc90565b61071c610de2565b600155565b610729610de2565b610733600061107c565b565b7f52c63247e1f47db19d5ce0460030c497f067ca4cebf71ba98eeadabe20bace0480546060917f52c63247e1f47db19d5ce0460030c497f067ca4cebf71ba98eeadabe20bace00916105b9906118fb565b600061079283836110fa565b50306001600160a01b03841603610a7057600080546040517f7b49827a0000000000000000000000000000000000000000000000000000000081523360048201526001600160a01b0390911690637b49827a906024016020604051808303816000875af1158015610807573d6000803e3d6000fd5b505050506040513d601f19601f8201168201806040525081019061082b9190611935565b9050600081116108825760405162461bcd60e51b815260206004820152600a60248201527f6e6f20706c65616467650000000000000000000000000000000000000000000060448201526064015b60405180910390fd5b8261088f61271083611964565b146108dc5760405162461bcd60e51b815260206004820152601560248201527f7472616e7366657220616d6f756e74206572726f7200000000000000000000006044820152606401610879565b336000908152600260209081526040918290208251808401909352805480845260019091015491830191909152156109f957805142106109b1576000546040517fc363c3ac0000000000000000000000000000000000000000000000000000000081523360048201526001600160a01b039091169063c363c3ac90602401600060405180830381600087803b15801561097457600080fd5b505af1158015610988573d6000803e3d6000fd5b505033600090815260026020526040812081815560019081019190915594506106519350505050565b60405162461bcd60e51b815260206004820152601e60248201527f63616e6e6f7420726564656d7074696f6e206f6e20746869732074696d6500006044820152606401610879565b604051806040016040528060015442610a129190611986565b8152602090810184905233600081815260028352604090819020845181559383015160019094019390935591518481527fb82bfe429e7ad7db8aeb97116e0914af98c53d4ee8a475bb01a0b17c8778fc19910160405180910390a250505b50600192915050565b7ff0c57e16840df040f15088dc2f81fe391c3923bec73e23a9662efc9c229c6a00805468010000000000000000810460ff16159067ffffffffffffffff16600081158015610ac45750825b905060008267ffffffffffffffff166001148015610ae15750303b155b905081158015610aef575080155b15610b26576040517ff92ee8a900000000000000000000000000000000000000000000000000000000815260040160405180910390fd5b845467ffffffffffffffff191660011785558315610b5a57845468ff00000000000000001916680100000000000000001785555b610b96604051806040016040528060018152602001602d60f91b815250604051806040016040528060018152602001602d60f91b815250611108565b610b9f3361111a565b610ba761112b565b6000805473ffffffffffffffffffffffffffffffffffffffff19166001600160a01b038816179055610bf2866012610be090600a611a7d565b610bed90620f1b30611a8c565b610e56565b61a8c06001558315610c4357845468ff000000000000000019168555604051600181527fc7f505b2f371ae2175ee4913f4499e1f2633a7b5936321eed1cdaeb6115181d29060200160405180910390a15b505050505050565b610c53610de2565b6001600160a01b038116610c96576040517f1e4fbdf700000000000000000000000000000000000000000000000000000000815260006004820152602401610879565b610c9f8161107c565b50565b610caf8383836001611133565b505050565b6001600160a01b0383811660009081527f52c63247e1f47db19d5ce0460030c497f067ca4cebf71ba98eeadabe20bace0160209081526040808320938616835292905220546000198114610d645781811015610d55576040517ffb8f41b20000000000000000000000000000000000000000000000000000000081526001600160a01b03841660048201526024810182905260448101839052606401610879565b610d6484848484036000611133565b50505050565b6001600160a01b038316610dad576040517f96c6fd1e00000000000000000000000000000000000000000000000000000000815260006004820152602401610879565b6001600160a01b038216610dd75760405163ec442f0560e01b815260006004820152602401610879565b610caf83838361125f565b33610e147f9016d09d72d40fdae2fd8ceac6b6234c7706214fd39c1cd1e609a0528c199300546001600160a01b031690565b6001600160a01b031614610733576040517f118cdaa7000000000000000000000000000000000000000000000000000000008152336004820152602401610879565b6001600160a01b038216610e805760405163ec442f0560e01b815260006004820152602401610879565b6106c66000838361125f565b306001600160a01b037f0000000000000000000000000000000000000000000000000000000000000000161480610f2557507f00000000000000000000000000000000000000000000000000000000000000006001600160a01b0316610f197f360894a13ba1a3210667c828492db98dca3e2076cc3735a920a3ca505d382bbc546001600160a01b031690565b6001600160a01b031614155b156107335760405163703e46dd60e11b815260040160405180910390fd5b610c9f610de2565b816001600160a01b03166352d1902d6040518163ffffffff1660e01b8152600401602060405180830381865afa925050508015610fa5575060408051601f3d908101601f19168201909252610fa291810190611935565b60015b610fcd57604051634c9c8ce360e01b81526001600160a01b0383166004820152602401610879565b7f360894a13ba1a3210667c828492db98dca3e2076cc3735a920a3ca505d382bbc8114611029576040517faa1d49a400000000000000000000000000000000000000000000000000000000815260048101829052602401610879565b610caf83836113c8565b306001600160a01b037f000000000000000000000000000000000000000000000000000000000000000016146107335760405163703e46dd60e11b815260040160405180910390fd5b7f9016d09d72d40fdae2fd8ceac6b6234c7706214fd39c1cd1e609a0528c199300805473ffffffffffffffffffffffffffffffffffffffff1981166001600160a01b03848116918217845560405192169182907f8be0079c531659141344cd1fd0a4f28419497f9722a3daafe3b4186f6b6457e090600090a3505050565b60003361064b818585610d6a565b61111061141e565b6106c68282611485565b61112261141e565b610c9f816114e8565b61073361141e565b7f52c63247e1f47db19d5ce0460030c497f067ca4cebf71ba98eeadabe20bace006001600160a01b038516611197576040517fe602df0500000000000000000000000000000000000000000000000000000000815260006004820152602401610879565b6001600160a01b0384166111da576040517f94280d6200000000000000000000000000000000000000000000000000000000815260006004820152602401610879565b6001600160a01b0380861660009081526001830160209081526040808320938816835292905220839055811561125857836001600160a01b0316856001600160a01b03167f8c5be1e5ebec7d5bd14f71427d1e84f3dd0314c0f7b2291e5b200ac8c7c3b9258560405161124f91815260200190565b60405180910390a35b5050505050565b7f52c63247e1f47db19d5ce0460030c497f067ca4cebf71ba98eeadabe20bace006001600160a01b0384166112ad57818160020160008282546112a29190611986565b909155506113389050565b6001600160a01b03841660009081526020829052604090205482811015611319576040517fe450d38c0000000000000000000000000000000000000000000000000000000081526001600160a01b03861660048201526024810182905260448101849052606401610879565b6001600160a01b03851660009081526020839052604090209083900390555b6001600160a01b038316611356576002810180548390039055611375565b6001600160a01b03831660009081526020829052604090208054830190555b826001600160a01b0316846001600160a01b03167fddf252ad1be2c89b69c2b068fc378daa952ba7f163c4a11628f55a4df523b3ef846040516113ba91815260200190565b60405180910390a350505050565b6113d1826114f0565b6040516001600160a01b038316907fbc7cd75a20ee27fd9adebab32041f755214dbc6bffa90cc0225b39da2e5c2d3b90600090a280511561141657610caf8282611574565b6106c66115ea565b7ff0c57e16840df040f15088dc2f81fe391c3923bec73e23a9662efc9c229c6a005468010000000000000000900460ff16610733576040517fd7e6bcf800000000000000000000000000000000000000000000000000000000815260040160405180910390fd5b61148d61141e565b7f52c63247e1f47db19d5ce0460030c497f067ca4cebf71ba98eeadabe20bace007f52c63247e1f47db19d5ce0460030c497f067ca4cebf71ba98eeadabe20bace036114d98482611aeb565b5060048101610d648382611aeb565b610c5361141e565b806001600160a01b03163b60000361152657604051634c9c8ce360e01b81526001600160a01b0382166004820152602401610879565b7f360894a13ba1a3210667c828492db98dca3e2076cc3735a920a3ca505d382bbc805473ffffffffffffffffffffffffffffffffffffffff19166001600160a01b0392909216919091179055565b6060600080846001600160a01b0316846040516115919190611bab565b600060405180830381855af49150503d80600081146115cc576040519150601f19603f3d011682016040523d82523d6000602084013e6115d1565b606091505b50915091506115e1858383611622565b95945050505050565b3415610733576040517fb398979f00000000000000000000000000000000000000000000000000000000815260040160405180910390fd5b6060826116375761163282611697565b610676565b815115801561164e57506001600160a01b0384163b155b15611690576040517f9996b3150000000000000000000000000000000000000000000000000000000081526001600160a01b0385166004820152602401610879565b5080610676565b8051156116a75780518082602001fd5b6040517f1425ea4200000000000000000000000000000000000000000000000000000000815260040160405180910390fd5b60005b838110156116f45781810151838201526020016116dc565b50506000910152565b602081526000825180602084015261171c8160408501602087016116d9565b601f01601f19169190910160400192915050565b6001600160a01b0381168114610c9f57600080fd5b6000806040838503121561175857600080fd5b823561176381611730565b946020939093013593505050565b60008060006060848603121561178657600080fd5b833561179181611730565b925060208401356117a181611730565b929592945050506040919091013590565b6000602082840312156117c457600080fd5b813561067681611730565b634e487b7160e01b600052604160045260246000fd5b600080604083850312156117f857600080fd5b823561180381611730565b9150602083013567ffffffffffffffff8082111561182057600080fd5b818501915085601f83011261183457600080fd5b813581811115611846576118466117cf565b604051601f8201601f19908116603f0116810190838211818310171561186e5761186e6117cf565b8160405282815288602084870101111561188757600080fd5b8260208601602083013760006020848301015280955050505050509250929050565b6000602082840312156118bb57600080fd5b5035919050565b600080604083850312156118d557600080fd5b82356118e081611730565b915060208301356118f081611730565b809150509250929050565b600181811c9082168061190f57607f821691505b60208210810361192f57634e487b7160e01b600052602260045260246000fd5b50919050565b60006020828403121561194757600080fd5b5051919050565b634e487b7160e01b600052601160045260246000fd5b60008261198157634e487b7160e01b600052601260045260246000fd5b500490565b808201808211156106515761065161194e565b600181815b808511156119d45781600019048211156119ba576119ba61194e565b808516156119c757918102915b93841c939080029061199e565b509250929050565b6000826119eb57506001610651565b816119f857506000610651565b8160018114611a0e5760028114611a1857611a34565b6001915050610651565b60ff841115611a2957611a2961194e565b50506001821b610651565b5060208310610133831016604e8410600b8410161715611a57575081810a610651565b611a618383611999565b8060001904821115611a7557611a7561194e565b029392505050565b600061067660ff8416836119dc565b80820281158282048414176106515761065161194e565b601f821115610caf576000816000526020600020601f850160051c81016020861015611acc5750805b601f850160051c820191505b81811015610c4357828155600101611ad8565b815167ffffffffffffffff811115611b0557611b056117cf565b611b1981611b1384546118fb565b84611aa3565b602080601f831160018114611b4e5760008415611b365750858301515b600019600386901b1c1916600185901b178555610c43565b600085815260208120601f198616915b82811015611b7d57888601518255948401946001909101908401611b5e565b5085821015611b9b5787850151600019600388901b60f8161c191681555b5050505050600190811b01905550565b60008251611bbd8184602087016116d9565b919091019291505056fea2646970667358221220c04c987eb227b4978bd6585995ccc73fbb66cddcf43ca3117205d92d19e08cca64736f6c63430008180033",
  "linkReferences": {},
  "deployedLinkReferences": {}
}