{
  "_format": "hh-sol-artifact-1",
  "contractName": "Z",
  "sourceName": "contracts/BT2_Z.sol",
  "abi": [
    {
      "inputs": [],
      "stateMutability": "nonpayable",
      "type": "constructor"
    },
    {
      "inputs": [
        {
          "internalType": "address",
          "name": "target",
          "type": "address"
        }
      ],
      "name": "AddressEmptyCode",
      "type": "error"
    },
    {
      "inputs": [
        {
          "internalType": "address",
          "name": "implementation",
          "type": "address"
        }
      ],
      "name": "ERC1967InvalidImplementation",
      "type": "error"
    },
    {
      "inputs": [],
      "name": "ERC1967NonPayable",
      "type": "error"
    },
    {
      "inputs": [
        {
          "internalType": "address",
          "name": "spender",
          "type": "address"
        },
        {
          "internalType": "uint256",
          "name": "allowance",
          "type": "uint256"
        },
        {
          "internalType": "uint256",
          "name": "needed",
          "type": "uint256"
        }
      ],
      "name": "ERC20InsufficientAllowance",
      "type": "error"
    },
    {
      "inputs": [
        {
          "internalType": "address",
          "name": "sender",
          "type": "address"
        },
        {
          "internalType": "uint256",
          "name": "balance",
          "type": "uint256"
        },
        {
          "internalType": "uint256",
          "name": "needed",
          "type": "uint256"
        }
      ],
      "name": "ERC20InsufficientBalance",
      "type": "error"
    },
    {
      "inputs": [
        {
          "internalType": "address",
          "name": "approver",
          "type": "address"
        }
      ],
      "name": "ERC20InvalidApprover",
      "type": "error"
    },
    {
      "inputs": [
        {
          "internalType": "address",
          "name": "receiver",
          "type": "address"
        }
      ],
      "name": "ERC20InvalidReceiver",
      "type": "error"
    },
    {
      "inputs": [
        {
          "internalType": "address",
          "name": "sender",
          "type": "address"
        }
      ],
      "name": "ERC20InvalidSender",
      "type": "error"
    },
    {
      "inputs": [
        {
          "internalType": "address",
          "name": "spender",
          "type": "address"
        }
      ],
      "name": "ERC20InvalidSpender",
      "type": "error"
    },
    {
      "inputs": [],
      "name": "FailedInnerCall",
      "type": "error"
    },
    {
      "inputs": [],
      "name": "InvalidInitialization",
      "type": "error"
    },
    {
      "inputs": [],
      "name": "NotInitializing",
      "type": "error"
    },
    {
      "inputs": [
        {
          "internalType": "address",
          "name": "owner",
          "type": "address"
        }
      ],
      "name": "OwnableInvalidOwner",
      "type": "error"
    },
    {
      "inputs": [
        {
          "internalType": "address",
          "name": "account",
          "type": "address"
        }
      ],
      "name": "OwnableUnauthorizedAccount",
      "type": "error"
    },
    {
      "inputs": [],
      "name": "UUPSUnauthorizedCallContext",
      "type": "error"
    },
    {
      "inputs": [
        {
          "internalType": "bytes32",
          "name": "slot",
          "type": "bytes32"
        }
      ],
      "name": "UUPSUnsupportedProxiableUUID",
      "type": "error"
    },
    {
      "anonymous": false,
      "inputs": [
        {
          "indexed": true,
          "internalType": "address",
          "name": "sender",
          "type": "address"
        },
        {
          "indexed": false,
          "internalType": "uint256",
          "name": "value",
          "type": "uint256"
        }
      ],
      "name": "ApplyRemovePledge",
      "type": "event"
    },
    {
      "anonymous": false,
      "inputs": [
        {
          "indexed": true,
          "internalType": "address",
          "name": "owner",
          "type": "address"
        },
        {
          "indexed": true,
          "internalType": "address",
          "name": "spender",
          "type": "address"
        },
        {
          "indexed": false,
          "internalType": "uint256",
          "name": "value",
          "type": "uint256"
        }
      ],
      "name": "Approval",
      "type": "event"
    },
    {
      "anonymous": false,
      "inputs": [
        {
          "indexed": false,
          "internalType": "uint64",
          "name": "version",
          "type": "uint64"
        }
      ],
      "name": "Initialized",
      "type": "event"
    },
    {
      "anonymous": false,
      "inputs": [
        {
          "indexed": true,
          "internalType": "address",
          "name": "previousOwner",
          "type": "address"
        },
        {
          "indexed": true,
          "internalType": "address",
          "name": "newOwner",
          "type": "address"
        }
      ],
      "name": "OwnershipTransferred",
      "type": "event"
    },
    {
      "anonymous": false,
      "inputs": [
        {
          "indexed": true,
          "internalType": "address",
          "name": "from",
          "type": "address"
        },
        {
          "indexed": true,
          "internalType": "address",
          "name": "to",
          "type": "address"
        },
        {
          "indexed": false,
          "internalType": "uint256",
          "name": "value",
          "type": "uint256"
        }
      ],
      "name": "Transfer",
      "type": "event"
    },
    {
      "anonymous": false,
      "inputs": [
        {
          "indexed": true,
          "internalType": "address",
          "name": "implementation",
          "type": "address"
        }
      ],
      "name": "Upgraded",
      "type": "event"
    },
    {
      "inputs": [],
      "name": "UPGRADE_INTERFACE_VERSION",
      "outputs": [
        {
          "internalType": "string",
          "name": "",
          "type": "string"
        }
      ],
      "stateMutability": "view",
      "type": "function"
    },
    {
      "inputs": [
        {
          "internalType": "address",
          "name": "owner",
          "type": "address"
        },
        {
          "internalType": "address",
          "name": "spender",
          "type": "address"
        }
      ],
      "name": "allowance",
      "outputs": [
        {
          "internalType": "uint256",
          "name": "",
          "type": "uint256"
        }
      ],
      "stateMutability": "view",
      "type": "function"
    },
    {
      "inputs": [
        {
          "internalType": "address",
          "name": "spender",
          "type": "address"
        },
        {
          "internalType": "uint256",
          "name": "value",
          "type": "uint256"
        }
      ],
      "name": "approve",
      "outputs": [
        {
          "internalType": "bool",
          "name": "",
          "type": "bool"
        }
      ],
      "stateMutability": "nonpayable",
      "type": "function"
    },
    {
      "inputs": [
        {
          "internalType": "address",
          "name": "account",
          "type": "address"
        }
      ],
      "name": "balanceOf",
      "outputs": [
        {
          "internalType": "uint256",
          "name": "",
          "type": "uint256"
        }
      ],
      "stateMutability": "view",
      "type": "function"
    },
    {
      "inputs": [],
      "name": "decimals",
      "outputs": [
        {
          "internalType": "uint8",
          "name": "",
          "type": "uint8"
        }
      ],
      "stateMutability": "view",
      "type": "function"
    },
    {
      "inputs": [
        {
          "internalType": "address",
          "name": "_addr",
          "type": "address"
        }
      ],
      "name": "getRedemptionRelation",
      "outputs": [
        {
          "components": [
            {
              "internalType": "uint256",
              "name": "time",
              "type": "uint256"
            },
            {
              "internalType": "uint256",
              "name": "value",
              "type": "uint256"
            }
          ],
          "internalType": "struct redemption",
          "name": "",
          "type": "tuple"
        }
      ],
      "stateMutability": "view",
      "type": "function"
    },
    {
      "inputs": [],
      "name": "initialize",
      "outputs": [],
      "stateMutability": "nonpayable",
      "type": "function"
    },
    {
      "inputs": [
        {
          "internalType": "address",
          "name": "to",
          "type": "address"
        },
        {
          "internalType": "uint256",
          "name": "amount",
          "type": "uint256"
        }
      ],
      "name": "mint",
      "outputs": [],
      "stateMutability": "nonpayable",
      "type": "function"
    },
    {
      "inputs": [],
      "name": "name",
      "outputs": [
        {
          "internalType": "string",
          "name": "",
          "type": "string"
        }
      ],
      "stateMutability": "view",
      "type": "function"
    },
    {
      "inputs": [],
      "name": "owner",
      "outputs": [
        {
          "internalType": "address",
          "name": "",
          "type": "address"
        }
      ],
      "stateMutability": "view",
      "type": "function"
    },
    {
      "inputs": [],
      "name": "proxiableUUID",
      "outputs": [
        {
          "internalType": "bytes32",
          "name": "",
          "type": "bytes32"
        }
      ],
      "stateMutability": "view",
      "type": "function"
    },
    {
      "inputs": [
        {
          "internalType": "address",
          "name": "",
          "type": "address"
        }
      ],
      "name": "redemptionRelation",
      "outputs": [
        {
          "internalType": "uint256",
          "name": "time",
          "type": "uint256"
        },
        {
          "internalType": "uint256",
          "name": "value",
          "type": "uint256"
        }
      ],
      "stateMutability": "view",
      "type": "function"
    },
    {
      "inputs": [],
      "name": "renounceOwnership",
      "outputs": [],
      "stateMutability": "nonpayable",
      "type": "function"
    },
    {
      "inputs": [
        {
          "internalType": "address",
          "name": "addr",
          "type": "address"
        }
      ],
      "name": "setZPlanToken",
      "outputs": [],
      "stateMutability": "nonpayable",
      "type": "function"
    },
    {
      "inputs": [],
      "name": "symbol",
      "outputs": [
        {
          "internalType": "string",
          "name": "",
          "type": "string"
        }
      ],
      "stateMutability": "view",
      "type": "function"
    },
    {
      "inputs": [],
      "name": "totalSupply",
      "outputs": [
        {
          "internalType": "uint256",
          "name": "",
          "type": "uint256"
        }
      ],
      "stateMutability": "view",
      "type": "function"
    },
    {
      "inputs": [
        {
          "internalType": "address",
          "name": "to",
          "type": "address"
        },
        {
          "internalType": "uint256",
          "name": "value",
          "type": "uint256"
        }
      ],
      "name": "transfer",
      "outputs": [
        {
          "internalType": "bool",
          "name": "",
          "type": "bool"
        }
      ],
      "stateMutability": "nonpayable",
      "type": "function"
    },
    {
      "inputs": [
        {
          "internalType": "address",
          "name": "from",
          "type": "address"
        },
        {
          "internalType": "address",
          "name": "to",
          "type": "address"
        },
        {
          "internalType": "uint256",
          "name": "value",
          "type": "uint256"
        }
      ],
      "name": "transferFrom",
      "outputs": [
        {
          "internalType": "bool",
          "name": "",
          "type": "bool"
        }
      ],
      "stateMutability": "nonpayable",
      "type": "function"
    },
    {
      "inputs": [
        {
          "internalType": "address",
          "name": "newOwner",
          "type": "address"
        }
      ],
      "name": "transferOwnership",
      "outputs": [],
      "stateMutability": "nonpayable",
      "type": "function"
    },
    {
      "inputs": [
        {
          "internalType": "address",
          "name": "newImplementation",
          "type": "address"
        },
        {
          "internalType": "bytes",
          "name": "data",
          "type": "bytes"
        }
      ],
      "name": "upgradeToAndCall",
      "outputs": [],
      "stateMutability": "payable",
      "type": "function"
    }
  ],
  "bytecode": "0x60a06040523060805234801561001457600080fd5b5061001d610022565b6100d4565b7ff0c57e16840df040f15088dc2f81fe391c3923bec73e23a9662efc9c229c6a00805468010000000000000000900460ff16156100725760405163f92ee8a960e01b815260040160405180910390fd5b80546001600160401b03908116146100d15780546001600160401b0319166001600160401b0390811782556040519081527fc7f505b2f371ae2175ee4913f4499e1f2633a7b5936321eed1cdaeb6115181d29060200160405180910390a15b50565b608051611a306100fd60003960008181610df801528181610e210152610f9f0152611a306000f3fe60806040526004361061015f5760003560e01c8063715018a6116100c0578063a9059cbb11610074578063bff0257011610059578063bff0257014610430578063dd62ed3e146104ad578063f2fde38b1461051257600080fd5b8063a9059cbb146103c7578063ad3cb1cc146103e757600080fd5b80638129fc1c116100a55780638129fc1c146103565780638da5cb5b1461036b57806395d89b41146103b257600080fd5b8063715018a6146102f85780637f35d71e1461030d57600080fd5b80633f5dea0f116101175780634f1ef286116100fc5780634f1ef2861461027b57806352d1902d1461028e57806370a08231146102a357600080fd5b80633f5dea0f1461023957806340c10f191461025b57600080fd5b806318160ddd1161014857806318160ddd146101bf57806323b872dd146101fd578063313ce5671461021d57600080fd5b806306fdde0314610164578063095ea7b31461018f575b600080fd5b34801561017057600080fd5b50610179610532565b604051610186919061165d565b60405180910390f35b34801561019b57600080fd5b506101af6101aa3660046116ac565b610607565b6040519015158152602001610186565b3480156101cb57600080fd5b507f52c63247e1f47db19d5ce0460030c497f067ca4cebf71ba98eeadabe20bace02545b604051908152602001610186565b34801561020957600080fd5b506101af6102183660046116d6565b610621565b34801561022957600080fd5b5060405160128152602001610186565b34801561024557600080fd5b50610259610254366004611712565b610647565b005b34801561026757600080fd5b506102596102763660046116ac565b61067e565b610259610289366004611743565b610694565b34801561029a57600080fd5b506101ef6106af565b3480156102af57600080fd5b506101ef6102be366004611712565b6001600160a01b031660009081527f52c63247e1f47db19d5ce0460030c497f067ca4cebf71ba98eeadabe20bace00602052604090205490565b34801561030457600080fd5b506102596106de565b34801561031957600080fd5b50610341610328366004611712565b6001602081905260009182526040909120805491015482565b60408051928352602083019190915201610186565b34801561036257600080fd5b506102596106f2565b34801561037757600080fd5b507f9016d09d72d40fdae2fd8ceac6b6234c7706214fd39c1cd1e609a0528c199300546040516001600160a01b039091168152602001610186565b3480156103be57600080fd5b50610179610872565b3480156103d357600080fd5b506101af6103e23660046116ac565b6108c3565b3480156103f357600080fd5b506101796040518060400160405280600581526020017f352e302e3000000000000000000000000000000000000000000000000000000081525081565b34801561043c57600080fd5b5061049261044b366004611712565b6040805180820190915260008082526020820152506001600160a01b0316600090815260016020818152604092839020835180850190945280548452909101549082015290565b60408051825181526020928301519281019290925201610186565b3480156104b957600080fd5b506101ef6104c8366004611805565b6001600160a01b0391821660009081527f52c63247e1f47db19d5ce0460030c497f067ca4cebf71ba98eeadabe20bace016020908152604080832093909416825291909152205490565b34801561051e57600080fd5b5061025961052d366004611712565b610bac565b7f52c63247e1f47db19d5ce0460030c497f067ca4cebf71ba98eeadabe20bace0380546060917f52c63247e1f47db19d5ce0460030c497f067ca4cebf71ba98eeadabe20bace009161058390611838565b80601f01602080910402602001604051908101604052809291908181526020018280546105af90611838565b80156105fc5780601f106105d1576101008083540402835291602001916105fc565b820191906000526020600020905b8154815290600101906020018083116105df57829003601f168201915b505050505091505090565b600033610615818585610c03565b60019150505b92915050565b60003361062f858285610c15565b61063a858585610ccb565b60019150505b9392505050565b61064f610d43565b6000805473ffffffffffffffffffffffffffffffffffffffff19166001600160a01b0392909216919091179055565b610686610d43565b6106908282610db7565b5050565b61069c610ded565b6106a582610ea4565b6106908282610eac565b60006106b9610f94565b507f360894a13ba1a3210667c828492db98dca3e2076cc3735a920a3ca505d382bbc90565b6106e6610d43565b6106f06000610fdd565b565b7ff0c57e16840df040f15088dc2f81fe391c3923bec73e23a9662efc9c229c6a00805468010000000000000000810460ff16159067ffffffffffffffff1660008115801561073d5750825b905060008267ffffffffffffffff16600114801561075a5750303b155b905081158015610768575080155b1561079f576040517ff92ee8a900000000000000000000000000000000000000000000000000000000815260040160405180910390fd5b845467ffffffffffffffff1916600117855583156107d357845468ff00000000000000001916680100000000000000001785555b61080f604051806040016040528060018152602001602d60f91b815250604051806040016040528060018152602001602d60f91b81525061105b565b6108183361106d565b61082061107e565b831561086b57845468ff000000000000000019168555604051600181527fc7f505b2f371ae2175ee4913f4499e1f2633a7b5936321eed1cdaeb6115181d29060200160405180910390a15b5050505050565b7f52c63247e1f47db19d5ce0460030c497f067ca4cebf71ba98eeadabe20bace0480546060917f52c63247e1f47db19d5ce0460030c497f067ca4cebf71ba98eeadabe20bace009161058390611838565b60006108cf8383611086565b50306001600160a01b03841603610ba357600080546040517f7b49827a0000000000000000000000000000000000000000000000000000000081523360048201526001600160a01b0390911690637b49827a906024016020604051808303816000875af1158015610944573d6000803e3d6000fd5b505050506040513d601f19601f820116820180604052508101906109689190611872565b9050600081116109bf5760405162461bcd60e51b815260206004820152600a60248201527f6e6f20706c65616467650000000000000000000000000000000000000000000060448201526064015b60405180910390fd5b826109cc6127108361188b565b14610a195760405162461bcd60e51b815260206004820152601560248201527f7472616e7366657220616d6f756e74206572726f72000000000000000000000060448201526064016109b6565b33600090815260016020818152604092839020835180850190945280548085529201549083015215610b2f5780514210610ae7576000546040517fc363c3ac0000000000000000000000000000000000000000000000000000000081523360048201526001600160a01b039091169063c363c3ac90602401600060405180830381600087803b158015610aab57600080fd5b505af1158015610abf573d6000803e3d6000fd5b50503360009081526001602081905260408220828155810191909155945061061b9350505050565b60405162461bcd60e51b815260206004820152601e60248201527f63616e6e6f7420726564656d7074696f6e206f6e20746869732074696d65000060448201526064016109b6565b604051806040016040528042603c610b4791906118ad565b815260209081018490523360008181526001808452604091829020855181559484015194019390935591518481527fb82bfe429e7ad7db8aeb97116e0914af98c53d4ee8a475bb01a0b17c8778fc19910160405180910390a250505b50600192915050565b610bb4610d43565b6001600160a01b038116610bf7576040517f1e4fbdf7000000000000000000000000000000000000000000000000000000008152600060048201526024016109b6565b610c0081610fdd565b50565b610c108383836001611094565b505050565b6001600160a01b0383811660009081527f52c63247e1f47db19d5ce0460030c497f067ca4cebf71ba98eeadabe20bace0160209081526040808320938616835292905220546000198114610cc55781811015610cb6576040517ffb8f41b20000000000000000000000000000000000000000000000000000000081526001600160a01b038416600482015260248101829052604481018390526064016109b6565b610cc584848484036000611094565b50505050565b6001600160a01b038316610d0e576040517f96c6fd1e000000000000000000000000000000000000000000000000000000008152600060048201526024016109b6565b6001600160a01b038216610d385760405163ec442f0560e01b8152600060048201526024016109b6565b610c108383836111bf565b33610d757f9016d09d72d40fdae2fd8ceac6b6234c7706214fd39c1cd1e609a0528c199300546001600160a01b031690565b6001600160a01b0316146106f0576040517f118cdaa70000000000000000000000000000000000000000000000000000000081523360048201526024016109b6565b6001600160a01b038216610de15760405163ec442f0560e01b8152600060048201526024016109b6565b610690600083836111bf565b306001600160a01b037f0000000000000000000000000000000000000000000000000000000000000000161480610e8657507f00000000000000000000000000000000000000000000000000000000000000006001600160a01b0316610e7a7f360894a13ba1a3210667c828492db98dca3e2076cc3735a920a3ca505d382bbc546001600160a01b031690565b6001600160a01b031614155b156106f05760405163703e46dd60e11b815260040160405180910390fd5b610c00610d43565b816001600160a01b03166352d1902d6040518163ffffffff1660e01b8152600401602060405180830381865afa925050508015610f06575060408051601f3d908101601f19168201909252610f0391810190611872565b60015b610f2e57604051634c9c8ce360e01b81526001600160a01b03831660048201526024016109b6565b7f360894a13ba1a3210667c828492db98dca3e2076cc3735a920a3ca505d382bbc8114610f8a576040517faa1d49a4000000000000000000000000000000000000000000000000000000008152600481018290526024016109b6565b610c108383611328565b306001600160a01b037f000000000000000000000000000000000000000000000000000000000000000016146106f05760405163703e46dd60e11b815260040160405180910390fd5b7f9016d09d72d40fdae2fd8ceac6b6234c7706214fd39c1cd1e609a0528c199300805473ffffffffffffffffffffffffffffffffffffffff1981166001600160a01b03848116918217845560405192169182907f8be0079c531659141344cd1fd0a4f28419497f9722a3daafe3b4186f6b6457e090600090a3505050565b61106361137e565b61069082826113e5565b61107561137e565b610c0081611448565b6106f061137e565b600033610615818585610ccb565b7f52c63247e1f47db19d5ce0460030c497f067ca4cebf71ba98eeadabe20bace006001600160a01b0385166110f8576040517fe602df05000000000000000000000000000000000000000000000000000000008152600060048201526024016109b6565b6001600160a01b03841661113b576040517f94280d62000000000000000000000000000000000000000000000000000000008152600060048201526024016109b6565b6001600160a01b0380861660009081526001830160209081526040808320938816835292905220839055811561086b57836001600160a01b0316856001600160a01b03167f8c5be1e5ebec7d5bd14f71427d1e84f3dd0314c0f7b2291e5b200ac8c7c3b925856040516111b091815260200190565b60405180910390a35050505050565b7f52c63247e1f47db19d5ce0460030c497f067ca4cebf71ba98eeadabe20bace006001600160a01b03841661120d578181600201600082825461120291906118ad565b909155506112989050565b6001600160a01b03841660009081526020829052604090205482811015611279576040517fe450d38c0000000000000000000000000000000000000000000000000000000081526001600160a01b038616600482015260248101829052604481018490526064016109b6565b6001600160a01b03851660009081526020839052604090209083900390555b6001600160a01b0383166112b65760028101805483900390556112d5565b6001600160a01b03831660009081526020829052604090208054830190555b826001600160a01b0316846001600160a01b03167fddf252ad1be2c89b69c2b068fc378daa952ba7f163c4a11628f55a4df523b3ef8460405161131a91815260200190565b60405180910390a350505050565b61133182611450565b6040516001600160a01b038316907fbc7cd75a20ee27fd9adebab32041f755214dbc6bffa90cc0225b39da2e5c2d3b90600090a280511561137657610c1082826114d4565b61069061154a565b7ff0c57e16840df040f15088dc2f81fe391c3923bec73e23a9662efc9c229c6a005468010000000000000000900460ff166106f0576040517fd7e6bcf800000000000000000000000000000000000000000000000000000000815260040160405180910390fd5b6113ed61137e565b7f52c63247e1f47db19d5ce0460030c497f067ca4cebf71ba98eeadabe20bace007f52c63247e1f47db19d5ce0460030c497f067ca4cebf71ba98eeadabe20bace03611439848261191e565b5060048101610cc5838261191e565b610bb461137e565b806001600160a01b03163b60000361148657604051634c9c8ce360e01b81526001600160a01b03821660048201526024016109b6565b7f360894a13ba1a3210667c828492db98dca3e2076cc3735a920a3ca505d382bbc805473ffffffffffffffffffffffffffffffffffffffff19166001600160a01b0392909216919091179055565b6060600080846001600160a01b0316846040516114f191906119de565b600060405180830381855af49150503d806000811461152c576040519150601f19603f3d011682016040523d82523d6000602084013e611531565b606091505b5091509150611541858383611582565b95945050505050565b34156106f0576040517fb398979f00000000000000000000000000000000000000000000000000000000815260040160405180910390fd5b60608261159757611592826115f7565b610640565b81511580156115ae57506001600160a01b0384163b155b156115f0576040517f9996b3150000000000000000000000000000000000000000000000000000000081526001600160a01b03851660048201526024016109b6565b5080610640565b8051156116075780518082602001fd5b6040517f1425ea4200000000000000000000000000000000000000000000000000000000815260040160405180910390fd5b60005b8381101561165457818101518382015260200161163c565b50506000910152565b602081526000825180602084015261167c816040850160208701611639565b601f01601f19169190910160400192915050565b80356001600160a01b03811681146116a757600080fd5b919050565b600080604083850312156116bf57600080fd5b6116c883611690565b946020939093013593505050565b6000806000606084860312156116eb57600080fd5b6116f484611690565b925061170260208501611690565b9150604084013590509250925092565b60006020828403121561172457600080fd5b61064082611690565b634e487b7160e01b600052604160045260246000fd5b6000806040838503121561175657600080fd5b61175f83611690565b9150602083013567ffffffffffffffff8082111561177c57600080fd5b818501915085601f83011261179057600080fd5b8135818111156117a2576117a261172d565b604051601f8201601f19908116603f011681019083821181831017156117ca576117ca61172d565b816040528281528860208487010111156117e357600080fd5b8260208601602083013760006020848301015280955050505050509250929050565b6000806040838503121561181857600080fd5b61182183611690565b915061182f60208401611690565b90509250929050565b600181811c9082168061184c57607f821691505b60208210810361186c57634e487b7160e01b600052602260045260246000fd5b50919050565b60006020828403121561188457600080fd5b5051919050565b6000826118a857634e487b7160e01b600052601260045260246000fd5b500490565b8082018082111561061b57634e487b7160e01b600052601160045260246000fd5b601f821115610c10576000816000526020600020601f850160051c810160208610156118f75750805b601f850160051c820191505b8181101561191657828155600101611903565b505050505050565b815167ffffffffffffffff8111156119385761193861172d565b61194c816119468454611838565b846118ce565b602080601f83116001811461198157600084156119695750858301515b600019600386901b1c1916600185901b178555611916565b600085815260208120601f198616915b828110156119b057888601518255948401946001909101908401611991565b50858210156119ce5787850151600019600388901b60f8161c191681555b5050505050600190811b01905550565b600082516119f0818460208701611639565b919091019291505056fea26469706673582212208ea2a7a5c58386f50235ef5dbfa5a2c33fec788fbbeb0596e01d2b6f7d6cf11164736f6c63430008180033",
  "linkReferences": {},
  "deployedLinkReferences": {}
}