{
    "contractName": "PizzaSpaceClub",
    "abi": [
        {
            "inputs": [],
            "stateMutability": "nonpayable",
            "type": "constructor"
        },
        {
            "inputs": [
                {
                    "internalType": "address",
                    "name": "target",
                    "type": "address"
                }
            ],
            "name": "AddressEmptyCode",
            "type": "error"
        },
        {
            "inputs": [
                {
                    "internalType": "address",
                    "name": "implementation",
                    "type": "address"
                }
            ],
            "name": "ERC1967InvalidImplementation",
            "type": "error"
        },
        {
            "inputs": [],
            "name": "ERC1967NonPayable",
            "type": "error"
        },
        {
            "inputs": [
                {
                    "internalType": "address",
                    "name": "sender",
                    "type": "address"
                },
                {
                    "internalType": "uint256",
                    "name": "tokenId",
                    "type": "uint256"
                },
                {
                    "internalType": "address",
                    "name": "owner",
                    "type": "address"
                }
            ],
            "name": "ERC721IncorrectOwner",
            "type": "error"
        },
        {
            "inputs": [
                {
                    "internalType": "address",
                    "name": "operator",
                    "type": "address"
                },
                {
                    "internalType": "uint256",
                    "name": "tokenId",
                    "type": "uint256"
                }
            ],
            "name": "ERC721InsufficientApproval",
            "type": "error"
        },
        {
            "inputs": [
                {
                    "internalType": "address",
                    "name": "approver",
                    "type": "address"
                }
            ],
            "name": "ERC721InvalidApprover",
            "type": "error"
        },
        {
            "inputs": [
                {
                    "internalType": "address",
                    "name": "operator",
                    "type": "address"
                }
            ],
            "name": "ERC721InvalidOperator",
            "type": "error"
        },
        {
            "inputs": [
                {
                    "internalType": "address",
                    "name": "owner",
                    "type": "address"
                }
            ],
            "name": "ERC721InvalidOwner",
            "type": "error"
        },
        {
            "inputs": [
                {
                    "internalType": "address",
                    "name": "receiver",
                    "type": "address"
                }
            ],
            "name": "ERC721InvalidReceiver",
            "type": "error"
        },
        {
            "inputs": [
                {
                    "internalType": "address",
                    "name": "sender",
                    "type": "address"
                }
            ],
            "name": "ERC721InvalidSender",
            "type": "error"
        },
        {
            "inputs": [
                {
                    "internalType": "uint256",
                    "name": "tokenId",
                    "type": "uint256"
                }
            ],
            "name": "ERC721NonexistentToken",
            "type": "error"
        },
        {
            "inputs": [],
            "name": "FailedInnerCall",
            "type": "error"
        },
        {
            "inputs": [],
            "name": "InvalidInitialization",
            "type": "error"
        },
        {
            "inputs": [],
            "name": "NotInitializing",
            "type": "error"
        },
        {
            "inputs": [
                {
                    "internalType": "address",
                    "name": "owner",
                    "type": "address"
                }
            ],
            "name": "OwnableInvalidOwner",
            "type": "error"
        },
        {
            "inputs": [
                {
                    "internalType": "address",
                    "name": "account",
                    "type": "address"
                }
            ],
            "name": "OwnableUnauthorizedAccount",
            "type": "error"
        },
        {
            "inputs": [],
            "name": "UUPSUnauthorizedCallContext",
            "type": "error"
        },
        {
            "inputs": [
                {
                    "internalType": "bytes32",
                    "name": "slot",
                    "type": "bytes32"
                }
            ],
            "name": "UUPSUnsupportedProxiableUUID",
            "type": "error"
        },
        {
            "anonymous": false,
            "inputs": [
                {
                    "indexed": true,
                    "internalType": "address",
                    "name": "owner",
                    "type": "address"
                },
                {
                    "indexed": true,
                    "internalType": "address",
                    "name": "approved",
                    "type": "address"
                },
                {
                    "indexed": true,
                    "internalType": "uint256",
                    "name": "tokenId",
                    "type": "uint256"
                }
            ],
            "name": "Approval",
            "type": "event"
        },
        {
            "anonymous": false,
            "inputs": [
                {
                    "indexed": true,
                    "internalType": "address",
                    "name": "owner",
                    "type": "address"
                },
                {
                    "indexed": true,
                    "internalType": "address",
                    "name": "operator",
                    "type": "address"
                },
                {
                    "indexed": false,
                    "internalType": "bool",
                    "name": "approved",
                    "type": "bool"
                }
            ],
            "name": "ApprovalForAll",
            "type": "event"
        },
        {
            "anonymous": false,
            "inputs": [
                {
                    "indexed": false,
                    "internalType": "uint64",
                    "name": "version",
                    "type": "uint64"
                }
            ],
            "name": "Initialized",
            "type": "event"
        },
        {
            "anonymous": false,
            "inputs": [
                {
                    "indexed": true,
                    "internalType": "address",
                    "name": "previousOwner",
                    "type": "address"
                },
                {
                    "indexed": true,
                    "internalType": "address",
                    "name": "newOwner",
                    "type": "address"
                }
            ],
            "name": "OwnershipTransferred",
            "type": "event"
        },
        {
            "anonymous": false,
            "inputs": [
                {
                    "indexed": true,
                    "internalType": "address",
                    "name": "from",
                    "type": "address"
                },
                {
                    "indexed": true,
                    "internalType": "address",
                    "name": "to",
                    "type": "address"
                },
                {
                    "indexed": true,
                    "internalType": "uint256",
                    "name": "tokenId",
                    "type": "uint256"
                }
            ],
            "name": "Transfer",
            "type": "event"
        },
        {
            "anonymous": false,
            "inputs": [
                {
                    "indexed": true,
                    "internalType": "address",
                    "name": "implementation",
                    "type": "address"
                }
            ],
            "name": "Upgraded",
            "type": "event"
        },
        {
            "inputs": [],
            "name": "UPGRADE_INTERFACE_VERSION",
            "outputs": [
                {
                    "internalType": "string",
                    "name": "",
                    "type": "string"
                }
            ],
            "stateMutability": "view",
            "type": "function"
        },
        {
            "inputs": [
                {
                    "internalType": "address",
                    "name": "to",
                    "type": "address"
                },
                {
                    "internalType": "uint256",
                    "name": "tokenId",
                    "type": "uint256"
                }
            ],
            "name": "approve",
            "outputs": [],
            "stateMutability": "nonpayable",
            "type": "function"
        },
        {
            "inputs": [
                {
                    "internalType": "address",
                    "name": "owner",
                    "type": "address"
                }
            ],
            "name": "balanceOf",
            "outputs": [
                {
                    "internalType": "uint256",
                    "name": "",
                    "type": "uint256"
                }
            ],
            "stateMutability": "view",
            "type": "function"
        },
        {
            "inputs": [
                {
                    "internalType": "uint256",
                    "name": "tokenId",
                    "type": "uint256"
                }
            ],
            "name": "burn",
            "outputs": [],
            "stateMutability": "nonpayable",
            "type": "function"
        },
        {
            "inputs": [
                {
                    "internalType": "uint256",
                    "name": "tokenId",
                    "type": "uint256"
                }
            ],
            "name": "getApproved",
            "outputs": [
                {
                    "internalType": "address",
                    "name": "",
                    "type": "address"
                }
            ],
            "stateMutability": "view",
            "type": "function"
        },
        {
            "inputs": [],
            "name": "initialize",
            "outputs": [],
            "stateMutability": "nonpayable",
            "type": "function"
        },
        {
            "inputs": [
                {
                    "internalType": "address",
                    "name": "owner",
                    "type": "address"
                },
                {
                    "internalType": "address",
                    "name": "operator",
                    "type": "address"
                }
            ],
            "name": "isApprovedForAll",
            "outputs": [
                {
                    "internalType": "bool",
                    "name": "",
                    "type": "bool"
                }
            ],
            "stateMutability": "view",
            "type": "function"
        },
        {
            "inputs": [],
            "name": "name",
            "outputs": [
                {
                    "internalType": "string",
                    "name": "",
                    "type": "string"
                }
            ],
            "stateMutability": "view",
            "type": "function"
        },
        {
            "inputs": [],
            "name": "owner",
            "outputs": [
                {
                    "internalType": "address",
                    "name": "",
                    "type": "address"
                }
            ],
            "stateMutability": "view",
            "type": "function"
        },
        {
            "inputs": [
                {
                    "internalType": "uint256",
                    "name": "tokenId",
                    "type": "uint256"
                }
            ],
            "name": "ownerOf",
            "outputs": [
                {
                    "internalType": "address",
                    "name": "",
                    "type": "address"
                }
            ],
            "stateMutability": "view",
            "type": "function"
        },
        {
            "inputs": [],
            "name": "proxiableUUID",
            "outputs": [
                {
                    "internalType": "bytes32",
                    "name": "",
                    "type": "bytes32"
                }
            ],
            "stateMutability": "view",
            "type": "function"
        },
        {
            "inputs": [],
            "name": "renounceOwnership",
            "outputs": [],
            "stateMutability": "nonpayable",
            "type": "function"
        },
        {
            "inputs": [
                {
                    "internalType": "address",
                    "name": "to",
                    "type": "address"
                }
            ],
            "name": "safeMint",
            "outputs": [],
            "stateMutability": "nonpayable",
            "type": "function"
        },
        {
            "inputs": [
                {
                    "internalType": "uint256",
                    "name": "_count",
                    "type": "uint256"
                }
            ],
            "name": "safeMintBatch",
            "outputs": [],
            "stateMutability": "nonpayable",
            "type": "function"
        },
        {
            "inputs": [
                {
                    "internalType": "address",
                    "name": "from",
                    "type": "address"
                },
                {
                    "internalType": "address",
                    "name": "to",
                    "type": "address"
                },
                {
                    "internalType": "uint256",
                    "name": "tokenId",
                    "type": "uint256"
                }
            ],
            "name": "safeTransferFrom",
            "outputs": [],
            "stateMutability": "nonpayable",
            "type": "function"
        },
        {
            "inputs": [
                {
                    "internalType": "address",
                    "name": "from",
                    "type": "address"
                },
                {
                    "internalType": "address",
                    "name": "to",
                    "type": "address"
                },
                {
                    "internalType": "uint256",
                    "name": "tokenId",
                    "type": "uint256"
                },
                {
                    "internalType": "bytes",
                    "name": "data",
                    "type": "bytes"
                }
            ],
            "name": "safeTransferFrom",
            "outputs": [],
            "stateMutability": "nonpayable",
            "type": "function"
        },
        {
            "inputs": [
                {
                    "internalType": "address",
                    "name": "operator",
                    "type": "address"
                },
                {
                    "internalType": "bool",
                    "name": "approved",
                    "type": "bool"
                }
            ],
            "name": "setApprovalForAll",
            "outputs": [],
            "stateMutability": "nonpayable",
            "type": "function"
        },
        {
            "inputs": [
                {
                    "internalType": "string",
                    "name": "uri",
                    "type": "string"
                }
            ],
            "name": "setBaseURI",
            "outputs": [],
            "stateMutability": "nonpayable",
            "type": "function"
        },
        {
            "inputs": [
                {
                    "internalType": "uint256",
                    "name": "_id",
                    "type": "uint256"
                }
            ],
            "name": "setNextId",
            "outputs": [],
            "stateMutability": "nonpayable",
            "type": "function"
        },
        {
            "inputs": [
                {
                    "internalType": "address",
                    "name": "addr",
                    "type": "address"
                },
                {
                    "internalType": "bool",
                    "name": "flag",
                    "type": "bool"
                }
            ],
            "name": "setSenderAllowlist",
            "outputs": [],
            "stateMutability": "nonpayable",
            "type": "function"
        },
        {
            "inputs": [
                {
                    "internalType": "bytes4",
                    "name": "interfaceId",
                    "type": "bytes4"
                }
            ],
            "name": "supportsInterface",
            "outputs": [
                {
                    "internalType": "bool",
                    "name": "",
                    "type": "bool"
                }
            ],
            "stateMutability": "view",
            "type": "function"
        },
        {
            "inputs": [],
            "name": "symbol",
            "outputs": [
                {
                    "internalType": "string",
                    "name": "",
                    "type": "string"
                }
            ],
            "stateMutability": "view",
            "type": "function"
        },
        {
            "inputs": [
                {
                    "internalType": "uint256",
                    "name": "tokenId",
                    "type": "uint256"
                }
            ],
            "name": "tokenURI",
            "outputs": [
                {
                    "internalType": "string",
                    "name": "",
                    "type": "string"
                }
            ],
            "stateMutability": "view",
            "type": "function"
        },
        {
            "inputs": [
                {
                    "internalType": "address",
                    "name": "from",
                    "type": "address"
                },
                {
                    "internalType": "address",
                    "name": "to",
                    "type": "address"
                },
                {
                    "internalType": "uint256",
                    "name": "tokenId",
                    "type": "uint256"
                }
            ],
            "name": "transferFrom",
            "outputs": [],
            "stateMutability": "nonpayable",
            "type": "function"
        },
        {
            "inputs": [
                {
                    "internalType": "address",
                    "name": "newOwner",
                    "type": "address"
                }
            ],
            "name": "transferOwnership",
            "outputs": [],
            "stateMutability": "nonpayable",
            "type": "function"
        },
        {
            "inputs": [
                {
                    "internalType": "address",
                    "name": "newImplementation",
                    "type": "address"
                },
                {
                    "internalType": "bytes",
                    "name": "data",
                    "type": "bytes"
                }
            ],
            "name": "upgradeToAndCall",
            "outputs": [],
            "stateMutability": "payable",
            "type": "function"
        }
    ],
    "bytecode": "60a080604052346100cc57306080527ff0c57e16840df040f15088dc2f81fe391c3923bec73e23a9662efc9c229c6a009081549060ff8260401c166100bd57506001600160401b036002600160401b031982821601610078575b60405161214a90816100d18239608051818181610fd301526110740152f35b6001600160401b031990911681179091556040519081527fc7f505b2f371ae2175ee4913f4499e1f2633a7b5936321eed1cdaeb6115181d290602090a15f8080610059565b63f92ee8a960e01b8152600490fd5b5f80fdfe60406080815260049081361015610014575f80fd5b5f3560e01c918263019e9251146116d357826301ffc9a71461166957826306fdde0314611596578263081812fc14611551578263095ea7b31461147057826323b872dd1461145957826336a6b8281461141257826340d097c3146113d957826342842e0e146113ab57826342966c681461126e5782634ce885fb1461122f5782634f1ef2861461103757826352d1902d14610fc057826355f804b314610e5b5782636352211e14610e2c57826370a0823114610dd9578263715018a614610d725782638129fc1c1461068b5782638da5cb5b1461065757826395d89b411461055c578263a22cb465146104cd578263ad3cb1cc14610489578263b88d4fde14610431578263c87b56dd146101b557508163e985e9c51461016c575063f2fde38b1461013d575f80fd5b3461016857602036600319011261016857610166610159611738565b610161611c0b565b611b9a565b005b5f80fd5b34610168578060031936011261016857602090610187611738565b61019861019261174e565b91611916565b9060018060a01b03165f52825260ff815f20541690519015158152f35b90346101685760209081600319360112610168576005833506805f947a184f03e93ff9f4daa797ed6e38ed64bf6a1f01000000000000000080841015610423575b506d04ee2d6d415b85acef810000000080831015610415575b50662386f26fc1000080831015610406575b506305f5e100808310156103f7575b50612710808310156103eb575b505060648110156103dd575b600a809110156103d3575b60018086019161027b61026684611836565b9361027387519586611814565b808552611836565b9382602188860199601f19809801368c37860101905b6103a5575b5050506102d16025855180946102b48983019a8b92519283916116f2565b810164173539b7b760d91b89820152036005810185520183611814565b83519586925f925f54906102e4826118a6565b91896001821691825f14610383575050600114610337575b505091806103176103249593610333989795519384916116f2565b0103908101865285611814565b51928284938452830190611713565b0390f35b88929394505f80525f80516020612095833981519152905f915b838310610369575050508401019190806103176102fc565b80549783018501979097528a968a94909201918101610351565b60ff1916818901528315159093028701909201945082915061031790506102fc565b5f19019082906f181899199a1a9b1b9c1cb0b131b232b360811b8282061a8353049083826102915750610296565b9360010193610254565b606460029104940193610249565b9501949004858061023d565b60089196920491019486610230565b60109196920491019486610221565b85919692049101948661020f565b9150945081048294866101f6565b346101685760803660031901126101685761044a611738565b61045261174e565b6044359060643567ffffffffffffffff8111610168576101669461047891369101611888565b9261048483838361194e565b611e94565b5034610168575f366003190112610168578051610333916104a9826117f8565b60058252640352e302e360dc1b602083015251918291602083526020830190611713565b9034610168576104dc36611799565b6001600160a01b0390911692909190831561054757506104fb33611916565b835f5260205261051982825f209060ff801983541691151516179055565b5190151581527f17307eab39ab6107e8899845ad3d59bd9653f200f220920489ca2b5937696c3160203392a3005b836024925191630b61174360e31b8352820152fd5b5034610168575f366003190112610168578051905f90827f80bb2b638cc20bc4d0a60d66940f3ab4a00c1d7b313497ca82fb0b4ab00793019283546105a0816118a6565b90818452602095600191876001821691825f146106305750506001146105d4575b5050506103339291610324910385611814565b5f90815286935091907ff4bad0a69248f59680a4f2b3000328cec71a413447c96781cfe5996daa8c456e5b82841061061857505050820101816103246103336105c1565b8054848a0186015288955087949093019281016105ff565b60ff19168782015293151560051b86019093019350849250610324915061033390506105c1565b5034610168575f366003190112610168575f805160206120758339815191525490516001600160a01b039091168152602090f35b34610168575f366003190112610168577ff0c57e16840df040f15088dc2f81fe391c3923bec73e23a9662efc9c229c6a00805460ff81851c161567ffffffffffffffff80831692831580610d6b575b60018095149081610d61575b159081610d58575b50610d485767ffffffffffffffff1981168417855582610d29575b50610712611b6e565b9061071b611b6e565b90610724611fd0565b61072c611fd0565b8251818111610d16577f80bb2b638cc20bc4d0a60d66940f3ab4a00c1d7b313497ca82fb0b4ab0079300908061076283546118a6565b95601f96878111610ccb575b50602090878311600114610c4e575f92610c43575b50505f19600383901b1c191690871b1790555b8151908111610c3057807f80bb2b638cc20bc4d0a60d66940f3ab4a00c1d7b313497ca82fb0b4ab0079301926107cc84546118a6565b858111610bdb575b50602090858311600114610b5e575f92610b53575b50505f19600383901b1c191690851b1790555b610804611fd0565b61080c611fd0565b61081533611b9a565b61081d611fd0565b6108275f546118a6565b818111610b05575b5050605d5f555f80527f68747470733a2f2f62747767737761702e6769746875622e696f2f6e66742f705f80516020612095833981519152556d697a7a617370616365636c75622f60901b7f290decd9548b62a8d60345a988386fc84ba6bc95484008f6362f93160ef3e56455620a279c806002556108ac611c0b565b620a279d60025585516108be816117c8565b5f81523315610aef57815f525f805160206120d5833981519152806020528260018060a01b03895f2054168015159283610ab7575b6108fc336118de565b888154019055825f52602052895f20336001600160601b0360a01b82541617905533905f805160206120b58339815191525f80a4610aa157333b6109ab575b50509091925073dc8b1f859bd9afd93159decf75eadd5f871ae6ee5f5281602052835f208260ff1982541617905561096f57005b7fc7f505b2f371ae2175ee4913f4499e1f2633a7b5936321eed1cdaeb6115181d29260209268ff000000000000000019815416905551908152a1005b60206109e491885180938192630a85bd0160e11b96878452338c8501525f60248501526044840152608060648401526084830190611713565b03815f335af15f9181610a5c575b50610a27578686610a01611e65565b8051929083610a20578151633250574960e11b81523381850152602490fd5b8390602001fd5b63ffffffff60e096939495961b1603610a455750908291858061093b565b602490855190633250574960e11b82523390820152fd5b9091506020813d602011610a99575b81610a7860209383611814565b8101031261016857516001600160e01b0319811681036101685790886109f2565b3d9150610a6b565b86516339e3563760e11b81525f81880152602490fd5b5f805160206120f58339815191526020525f8b902080546001600160a01b0319169055610ae3826118de565b80545f190190556108f3565b8651633250574960e11b81525f81880152602490fd5b0160051c5f8051602061209583398151915201827f290decd9548b62a8d60345a988386fc84ba6bc95484008f6362f93160ef3e5655b828110610b48575061082f565b5f8155018390610b3b565b0151905089806107e9565b90879350601f19831691855f527ff4bad0a69248f59680a4f2b3000328cec71a413447c96781cfe5996daa8c456e925f5b818110610bc357508411610bab575b505050811b0190556107fc565b01515f1960f88460031b161c19169055898080610b9e565b8284015185558a969094019360209384019301610b8f565b610c2190855f527ff4bad0a69248f59680a4f2b3000328cec71a413447c96781cfe5996daa8c456e8780860160051c82019260208710610c27575b0160051c0190611b58565b8a6107d4565b92508192610c16565b604187634e487b7160e01b5f525260245ffd5b015190508b80610783565b90899350601f19831691855f527f37c58c799b6609234b945e882912ee9ad34948a1dfaa20a97485e1a7752bbf81925f5b818110610cb357508411610c9b575b505050811b019055610796565b01515f1960f88460031b161c191690558b8080610c8e565b8284015185558c969094019360209384019301610c7f565b610d1090855f527f37c58c799b6609234b945e882912ee9ad34948a1dfaa20a97485e1a7752bbf818980860160051c82019260208710610c27570160051c0190611b58565b8c61076e565b604188634e487b7160e01b5f525260245ffd5b68ffffffffffffffffff19166801000000000000000117845586610709565b865163f92ee8a960e01b81528690fd5b905015886106ee565b303b1591506106e6565b50826106da565b34610168575f36600319011261016857610d8a611c0b565b5f8051602061207583398151915280546001600160a01b031981169091555f906001600160a01b03167f8be0079c531659141344cd1fd0a4f28419497f9722a3daafe3b4186f6b6457e08280a3005b3461016857602036600319011261016857610df2611738565b906001600160a01b03821615610e1657602083610e0e846118de565b549051908152f35b6024905f8451916322718ad960e21b8352820152fd5b903461016857602036600319011261016857610e4a60209235611c43565b90516001600160a01b039091168152f35b34610168576020806003193601126101685767ffffffffffffffff908235828111610168573660238201121561016857610e9e9036906024818701359101611852565b92610ea7611c0b565b8351928311610fad5750610ebb5f546118a6565b601f8111610f68575b50602090601f8311600114610eff575081925f92610ef4575b50505f19600383901b1c191660019190911b175f55005b015190508280610edd565b90601f198316935f80525f80516020612095833981519152925f905b868210610f505750508360019510610f38575b505050811b015f55005b01515f1960f88460031b161c19169055828080610f2e565b80600185968294968601518155019501930190610f1b565b610f9d905f80525f80516020612095833981519152601f850160051c81019160208610610fa3575b601f0160051c0190611b58565b83610ec4565b9091508190610f90565b604190634e487b7160e01b5f525260245ffd5b9034610168575f366003190112610168577f00000000000000000000000000000000000000000000000000000000000000006001600160a01b0316300361102a57602090517f360894a13ba1a3210667c828492db98dca3e2076cc3735a920a3ca505d382bbc8152f35b5163703e46dd60e11b8152fd5b816003193601126101685761104a611738565b60243567ffffffffffffffff8111610168576110699036908401611888565b926001600160a01b037f00000000000000000000000000000000000000000000000000000000000000008116308114908115611201575b506111f1576110ad611c0b565b82169181516352d1902d60e01b81526020818681875afa5f91816111bd575b506110e857505051634c9c8ce360e01b81529182015260249150fd5b7f360894a13ba1a3210667c828492db98dca3e2076cc3735a920a3ca505d382bbc9493929194908181036111a75750843b156111915780546001600160a01b0319168317905551907fbc7cd75a20ee27fd9adebab32041f755214dbc6bffa90cc0225b39da2e5c2d3b5f80a283511561117a5750505f8083602061016695519101845af4611174611e65565b91612011565b915091503461118557005b63b398979f60e01b8152fd5b5051634c9c8ce360e01b81529182015260249150fd5b84602491845191632a87526960e21b8352820152fd5b9091506020813d6020116111e9575b816111d960209383611814565b81010312610168575190876110cc565b3d91506111cc565b815163703e46dd60e11b81528490fd5b9050817f360894a13ba1a3210667c828492db98dca3e2076cc3735a920a3ca505d382bbc54161415866110a0565b5034610168576101669061124236611799565b919061124c611c0b565b60018060a01b03165f5260016020525f209060ff801983541691151516179055565b903461016857602036600319011261016857813590815f525f805160206120d5833981519152908160205260018060a01b039182825f205416923315159081611305575b50505f939450826112e7575b848452602052822080546001600160a01b03191690555f805160206120b58339815191528280a4005b6112f085611fa7565b6112f9836118de565b841981540190556112be565b8161134f575b50156113185784806112b2565b50929190611334576024925191637e27328960e01b8352820152fd5b604492519163177e802f60e01b835233908301526024820152fd5b3385149150811561138d575b8115611369575b508661130b565b9050845f525f805160206120f58339815191526020523390835f2054161486611362565b905061139884611916565b335f5260205260ff835f2054169061135b565b503461016857610166906113be36611764565b919251926113cb846117c8565b5f845261048483838361194e565b34610168576020366003190112610168576101666113f5611738565b6113fd611c0b565b6002549061140a82611b36565b600255611c89565b34610168576020366003190112610168573561142c611c0b565b5f5b81811061143757005b600190611453600280549061144b82611b36565b905533611c89565b0161142e565b346101685761016661146a36611764565b9161194e565b9034610168578060031936011261016857611489611738565b916024359061149782611c43565b903315158061153e575b80611521575b61150a57506001600160a01b039384169382918591167f8c5be1e5ebec7d5bd14f71427d1e84f3dd0314c0f7b2291e5b200ac8c7c3b9255f80a45f9081525f805160206120f58339815191526020522080546001600160a01b0319169091179055005b60249084519063a9fbf51f60e01b82523390820152fd5b5061152b82611916565b335f5260205260ff845f205416156114a7565b506001600160a01b0382163314156114a1565b9034610168576020366003190112610168576020913561157081611c43565b505f525f805160206120f5833981519152825260018060a01b03815f2054169051908152f35b5034610168575f366003190112610168578051905f90827f80bb2b638cc20bc4d0a60d66940f3ab4a00c1d7b313497ca82fb0b4ab00793009283546115da816118a6565b90818452602095600191876001821691825f1461063057505060011461160d575050506103339291610324910385611814565b5f90815286935091907f37c58c799b6609234b945e882912ee9ad34948a1dfaa20a97485e1a7752bbf815b82841061165157505050820101816103246103336105c1565b8054848a018601528895508794909301928101611638565b34610168576020366003190112610168573563ffffffff60e01b8116809103610168576020916380ac58cd60e01b82149182156116c2575b82156116b1575b50519015158152f35b6301ffc9a760e01b149150836116a8565b635b5e139f60e01b811492506116a1565b34610168576020366003190112610168576116ec611c0b565b35600255005b5f5b8381106117035750505f910152565b81810151838201526020016116f4565b9060209161172c815180928185528580860191016116f2565b601f01601f1916010190565b600435906001600160a01b038216820361016857565b602435906001600160a01b038216820361016857565b6060906003190112610168576001600160a01b0390600435828116810361016857916024359081168103610168579060443590565b6040906003190112610168576004356001600160a01b0381168103610168579060243580151581036101685790565b6020810190811067ffffffffffffffff8211176117e457604052565b634e487b7160e01b5f52604160045260245ffd5b6040810190811067ffffffffffffffff8211176117e457604052565b90601f8019910116810190811067ffffffffffffffff8211176117e457604052565b67ffffffffffffffff81116117e457601f01601f191660200190565b92919261185e82611836565b9161186c6040519384611814565b829481845281830111610168578281602093845f960137010152565b9080601f83011215610168578160206118a393359101611852565b90565b90600182811c921680156118d4575b60208310146118c057565b634e487b7160e01b5f52602260045260245ffd5b91607f16916118b5565b6001600160a01b03165f9081527f80bb2b638cc20bc4d0a60d66940f3ab4a00c1d7b313497ca82fb0b4ab00793036020526040902090565b6001600160a01b03165f9081527f80bb2b638cc20bc4d0a60d66940f3ab4a00c1d7b313497ca82fb0b4ab00793056020526040902090565b91323314611add575b6001600160a01b03828116938415611ac557825f52825f805160206120d5833981519152958660205260409684885f2054169633151580611a24575b506119a29088611a06576118de565b60018154019055825f52602052865f20816001600160601b0360a01b825416179055855f805160206120b58339815191525f80a416928383036119e55750505050565b6064945051926364283d7b60e01b8452600484015260248301526044820152fd5b611a0f85611fa7565b611a18896118de565b80545f190190556118de565b929350909180611a77575b15611a3e57908592915f611993565b878688611a5b576024915190637e27328960e01b82526004820152fd5b604491519063177e802f60e01b82523360048301526024820152fd5b503387148015611aa9575b80611a2f5750855f525f805160206120f58339815191526020523385895f20541614611a2f565b50611ab387611916565b335f5260205260ff885f205416611a82565b604051633250574960e11b81525f6004820152602490fd5b335f52600160205260ff60405f2054166119575760405162461bcd60e51b815260206004820152601760248201527f53656e646572206e6f7420696e20416c6c6f776c6973740000000000000000006044820152606490fd5b5f198114611b445760010190565b634e487b7160e01b5f52601160045260245ffd5b818110611b63575050565b5f8155600101611b58565b60405190611b7b826117f8565b601082526f2834bd3d309029b830b1b29021b63ab160811b6020830152565b6001600160a01b03908116908115611bf3575f8051602061207583398151915280546001600160a01b031981168417909155167f8be0079c531659141344cd1fd0a4f28419497f9722a3daafe3b4186f6b6457e05f80a3565b604051631e4fbdf760e01b81525f6004820152602490fd5b5f80516020612075833981519152546001600160a01b03163303611c2b57565b60405163118cdaa760e01b8152336004820152602490fd5b5f8181525f805160206120d583398151915260205260409020546001600160a01b0316908115611c71575090565b60249060405190637e27328960e01b82526004820152fd5b6040805192611c97846117c8565b5f84526001600160a01b0393838516938415611e4e57825f525f805160206120d58339815191528386602098838a52875f2054168015159384611e30575b611cde866118de565b60018154019055835f528a52875f20826001600160601b0360a01b8254161790555f805160206120b58339815191525f80a4611e19573b611d21575b5050505050565b84611d5e9184959697945180938192630a85bd0160e11b968784523360048501525f60248501526044840152608060648401526084830190611713565b03815f895af15f9181611dd9575b50611da257505050611d7c611e65565b80519384611d9c578251633250574960e11b815260048101859052602490fd5b84925001fd5b9194506001600160e01b031990911603611dc25750505f80808080611d1a565b602492505190633250574960e11b82526004820152fd5b9091508681813d8311611e12575b611df18183611814565b8101031261016857516001600160e01b03198116810361016857905f611d6c565b503d611de7565b83516339e3563760e11b81525f6004820152602490fd5b611e3984611fa7565b611e42826118de565b80545f19019055611cd5565b8351633250574960e11b81525f6004820152602490fd5b3d15611e8f573d90611e7682611836565b91611e846040519384611814565b82523d5f602084013e565b606090565b91929092833b611ea5575b50505050565b60209060018060a01b0380951694611eec6040519485938493630a85bd0160e11b988986523360048701521660248501526044840152608060648401526084830190611713565b03815f875af15f9181611f62575b50611f315782611f08611e65565b8051919082611f2a57604051633250574960e11b815260048101839052602490fd5b9050602001fd5b6001600160e01b03191603611f4a57505f808080611e9f565b60249060405190633250574960e11b82526004820152fd5b9091506020813d602011611f9f575b81611f7e60209383611814565b8101031261016857516001600160e01b03198116810361016857905f611efa565b3d9150611f71565b5f525f805160206120f583398151915260205260405f206001600160601b0360a01b8154169055565b60ff7ff0c57e16840df040f15088dc2f81fe391c3923bec73e23a9662efc9c229c6a005460401c1615611fff57565b604051631afcd79f60e31b8152600490fd5b90612038575080511561202657805190602001fd5b604051630a12f52160e11b8152600490fd5b8151158061206b575b612049575090565b604051639996b31560e01b81526001600160a01b039091166004820152602490fd5b50803b1561204156fe9016d09d72d40fdae2fd8ceac6b6234c7706214fd39c1cd1e609a0528c199300290decd9548b62a8d60345a988386fc84ba6bc95484008f6362f93160ef3e563ddf252ad1be2c89b69c2b068fc378daa952ba7f163c4a11628f55a4df523b3ef80bb2b638cc20bc4d0a60d66940f3ab4a00c1d7b313497ca82fb0b4ab007930280bb2b638cc20bc4d0a60d66940f3ab4a00c1d7b313497ca82fb0b4ab0079304a2646970667358221220ce7fdbd2857787eee2c8daeff6b995e73b1b6704f9032b1181949b1c366029a864736f6c63430008180033",
    "sourcePath": "/Users/janly/data/solidity/UUPSNew/backup/pizzaspace_nft_new.sol",
    "compiler": {
        "name": "solc",
        "version": "0.8.24+commit.e11b9ed9"
    },
    "functionHashes": {
        "UPGRADE_INTERFACE_VERSION()": "ad3cb1cc",
        "approve(address,uint256)": "095ea7b3",
        "balanceOf(address)": "70a08231",
        "burn(uint256)": "42966c68",
        "getApproved(uint256)": "081812fc",
        "initialize()": "8129fc1c",
        "isApprovedForAll(address,address)": "e985e9c5",
        "name()": "06fdde03",
        "owner()": "8da5cb5b",
        "ownerOf(uint256)": "6352211e",
        "proxiableUUID()": "52d1902d",
        "renounceOwnership()": "715018a6",
        "safeMint(address)": "40d097c3",
        "safeMintBatch(uint256)": "36a6b828",
        "safeTransferFrom(address,address,uint256)": "42842e0e",
        "safeTransferFrom(address,address,uint256,bytes)": "b88d4fde",
        "setApprovalForAll(address,bool)": "a22cb465",
        "setBaseURI(string)": "55f804b3",
        "setNextId(uint256)": "019e9251",
        "setSenderAllowlist(address,bool)": "4ce885fb",
        "supportsInterface(bytes4)": "01ffc9a7",
        "symbol()": "95d89b41",
        "tokenURI(uint256)": "c87b56dd",
        "transferFrom(address,address,uint256)": "23b872dd",
        "transferOwnership(address)": "f2fde38b",
        "upgradeToAndCall(address,bytes)": "4f1ef286"
    },
    "gasEstimates": {
        "creation": {
            "codeDepositCost": "1704400",
            "executionCost": "infinite",
            "totalCost": "infinite"
        },
        "external": {
            "UPGRADE_INTERFACE_VERSION()": "infinite",
            "approve(address,uint256)": "infinite",
            "balanceOf(address)": "2820",
            "burn(uint256)": "infinite",
            "getApproved(uint256)": "infinite",
            "initialize()": "infinite",
            "isApprovedForAll(address,address)": "3144",
            "name()": "infinite",
            "owner()": "infinite",
            "ownerOf(uint256)": "infinite",
            "proxiableUUID()": "infinite",
            "renounceOwnership()": "infinite",
            "safeMint(address)": "infinite",
            "safeMintBatch(uint256)": "infinite",
            "safeTransferFrom(address,address,uint256)": "infinite",
            "safeTransferFrom(address,address,uint256,bytes)": "infinite",
            "setApprovalForAll(address,bool)": "26965",
            "setBaseURI(string)": "infinite",
            "setNextId(uint256)": "infinite",
            "setSenderAllowlist(address,bool)": "infinite",
            "supportsInterface(bytes4)": "350",
            "symbol()": "infinite",
            "tokenURI(uint256)": "infinite",
            "transferFrom(address,address,uint256)": "infinite",
            "transferOwnership(address)": "infinite",
            "upgradeToAndCall(address,bytes)": "infinite"
        },
        "internal": {
            "_authorizeUpgrade(address)": "infinite",
            "_baseURI()": "infinite"
        }
    }
}