{
  "_format": "hh-sol-artifact-1",
  "contractName": "SwapContract",
  "sourceName": "contracts/psc/swap.sol",
  "abi": [
    {
      "inputs": [],
      "stateMutability": "nonpayable",
      "type": "constructor"
    },
    {
      "inputs": [
        {
          "internalType": "address",
          "name": "target",
          "type": "address"
        }
      ],
      "name": "AddressEmptyCode",
      "type": "error"
    },
    {
      "inputs": [
        {
          "internalType": "address",
          "name": "implementation",
          "type": "address"
        }
      ],
      "name": "ERC1967InvalidImplementation",
      "type": "error"
    },
    {
      "inputs": [],
      "name": "ERC1967NonPayable",
      "type": "error"
    },
    {
      "inputs": [],
      "name": "FailedCall",
      "type": "error"
    },
    {
      "inputs": [],
      "name": "InvalidInitialization",
      "type": "error"
    },
    {
      "inputs": [],
      "name": "NotInitializing",
      "type": "error"
    },
    {
      "inputs": [
        {
          "internalType": "address",
          "name": "owner",
          "type": "address"
        }
      ],
      "name": "OwnableInvalidOwner",
      "type": "error"
    },
    {
      "inputs": [
        {
          "internalType": "address",
          "name": "account",
          "type": "address"
        }
      ],
      "name": "OwnableUnauthorizedAccount",
      "type": "error"
    },
    {
      "inputs": [],
      "name": "UUPSUnauthorizedCallContext",
      "type": "error"
    },
    {
      "inputs": [
        {
          "internalType": "bytes32",
          "name": "slot",
          "type": "bytes32"
        }
      ],
      "name": "UUPSUnsupportedProxiableUUID",
      "type": "error"
    },
    {
      "anonymous": false,
      "inputs": [
        {
          "indexed": false,
          "internalType": "address",
          "name": "_target",
          "type": "address"
        },
        {
          "indexed": false,
          "internalType": "uint256",
          "name": "_power",
          "type": "uint256"
        }
      ],
      "name": "AddPower",
      "type": "event"
    },
    {
      "anonymous": false,
      "inputs": [
        {
          "indexed": false,
          "internalType": "uint64",
          "name": "version",
          "type": "uint64"
        }
      ],
      "name": "Initialized",
      "type": "event"
    },
    {
      "anonymous": false,
      "inputs": [
        {
          "indexed": true,
          "internalType": "address",
          "name": "previousOwner",
          "type": "address"
        },
        {
          "indexed": true,
          "internalType": "address",
          "name": "newOwner",
          "type": "address"
        }
      ],
      "name": "OwnershipTransferred",
      "type": "event"
    },
    {
      "anonymous": false,
      "inputs": [
        {
          "indexed": true,
          "internalType": "address",
          "name": "implementation",
          "type": "address"
        }
      ],
      "name": "Upgraded",
      "type": "event"
    },
    {
      "inputs": [],
      "name": "UPGRADE_INTERFACE_VERSION",
      "outputs": [
        {
          "internalType": "string",
          "name": "",
          "type": "string"
        }
      ],
      "stateMutability": "view",
      "type": "function"
    },
    {
      "inputs": [],
      "name": "_address10",
      "outputs": [
        {
          "internalType": "address",
          "name": "",
          "type": "address"
        }
      ],
      "stateMutability": "view",
      "type": "function"
    },
    {
      "inputs": [],
      "name": "_address35",
      "outputs": [
        {
          "internalType": "address",
          "name": "",
          "type": "address"
        }
      ],
      "stateMutability": "view",
      "type": "function"
    },
    {
      "inputs": [],
      "name": "_address5",
      "outputs": [
        {
          "internalType": "address",
          "name": "",
          "type": "address"
        }
      ],
      "stateMutability": "view",
      "type": "function"
    },
    {
      "inputs": [
        {
          "internalType": "uint256",
          "name": "",
          "type": "uint256"
        }
      ],
      "name": "_hisPrice",
      "outputs": [
        {
          "internalType": "uint256",
          "name": "time",
          "type": "uint256"
        },
        {
          "internalType": "uint256",
          "name": "price",
          "type": "uint256"
        }
      ],
      "stateMutability": "view",
      "type": "function"
    },
    {
      "inputs": [],
      "name": "_hourFee",
      "outputs": [
        {
          "internalType": "uint256",
          "name": "",
          "type": "uint256"
        }
      ],
      "stateMutability": "view",
      "type": "function"
    },
    {
      "inputs": [],
      "name": "_lastSellTime",
      "outputs": [
        {
          "internalType": "uint256",
          "name": "",
          "type": "uint256"
        }
      ],
      "stateMutability": "view",
      "type": "function"
    },
    {
      "inputs": [],
      "name": "_price",
      "outputs": [
        {
          "internalType": "uint256",
          "name": "",
          "type": "uint256"
        }
      ],
      "stateMutability": "view",
      "type": "function"
    },
    {
      "inputs": [],
      "name": "_token",
      "outputs": [
        {
          "internalType": "address",
          "name": "",
          "type": "address"
        }
      ],
      "stateMutability": "view",
      "type": "function"
    },
    {
      "inputs": [],
      "name": "_updateTimes",
      "outputs": [
        {
          "internalType": "uint256",
          "name": "",
          "type": "uint256"
        }
      ],
      "stateMutability": "view",
      "type": "function"
    },
    {
      "inputs": [],
      "name": "_usdt",
      "outputs": [
        {
          "internalType": "address",
          "name": "",
          "type": "address"
        }
      ],
      "stateMutability": "view",
      "type": "function"
    },
    {
      "inputs": [],
      "name": "_zero",
      "outputs": [
        {
          "internalType": "address",
          "name": "",
          "type": "address"
        }
      ],
      "stateMutability": "view",
      "type": "function"
    },
    {
      "inputs": [],
      "name": "claimBalance",
      "outputs": [],
      "stateMutability": "nonpayable",
      "type": "function"
    },
    {
      "inputs": [],
      "name": "getHisPrice",
      "outputs": [
        {
          "components": [
            {
              "internalType": "uint256",
              "name": "time",
              "type": "uint256"
            },
            {
              "internalType": "uint256",
              "name": "price",
              "type": "uint256"
            }
          ],
          "internalType": "struct SwapContract.HisPrice[]",
          "name": "",
          "type": "tuple[]"
        }
      ],
      "stateMutability": "view",
      "type": "function"
    },
    {
      "inputs": [],
      "name": "getPrice",
      "outputs": [
        {
          "internalType": "uint256",
          "name": "",
          "type": "uint256"
        }
      ],
      "stateMutability": "view",
      "type": "function"
    },
    {
      "inputs": [],
      "name": "initialize",
      "outputs": [],
      "stateMutability": "nonpayable",
      "type": "function"
    },
    {
      "inputs": [],
      "name": "owner",
      "outputs": [
        {
          "internalType": "address",
          "name": "",
          "type": "address"
        }
      ],
      "stateMutability": "view",
      "type": "function"
    },
    {
      "inputs": [],
      "name": "proxiableUUID",
      "outputs": [
        {
          "internalType": "bytes32",
          "name": "",
          "type": "bytes32"
        }
      ],
      "stateMutability": "view",
      "type": "function"
    },
    {
      "inputs": [],
      "name": "renounceOwnership",
      "outputs": [],
      "stateMutability": "nonpayable",
      "type": "function"
    },
    {
      "inputs": [
        {
          "internalType": "address",
          "name": "_target",
          "type": "address"
        },
        {
          "internalType": "uint256",
          "name": "_amount",
          "type": "uint256"
        }
      ],
      "name": "sell",
      "outputs": [],
      "stateMutability": "nonpayable",
      "type": "function"
    },
    {
      "inputs": [
        {
          "internalType": "address",
          "name": "_target",
          "type": "address"
        }
      ],
      "name": "setAddress10",
      "outputs": [],
      "stateMutability": "nonpayable",
      "type": "function"
    },
    {
      "inputs": [
        {
          "internalType": "address",
          "name": "_target",
          "type": "address"
        }
      ],
      "name": "setAddress35",
      "outputs": [],
      "stateMutability": "nonpayable",
      "type": "function"
    },
    {
      "inputs": [
        {
          "internalType": "address",
          "name": "_target",
          "type": "address"
        }
      ],
      "name": "setAddress5",
      "outputs": [],
      "stateMutability": "nonpayable",
      "type": "function"
    },
    {
      "inputs": [
        {
          "internalType": "uint256",
          "name": "fee",
          "type": "uint256"
        }
      ],
      "name": "setFee",
      "outputs": [],
      "stateMutability": "nonpayable",
      "type": "function"
    },
    {
      "inputs": [
        {
          "internalType": "address",
          "name": "_target",
          "type": "address"
        }
      ],
      "name": "setMintContractAddress",
      "outputs": [],
      "stateMutability": "nonpayable",
      "type": "function"
    },
    {
      "inputs": [
        {
          "internalType": "uint256",
          "name": "price",
          "type": "uint256"
        }
      ],
      "name": "setPrice",
      "outputs": [],
      "stateMutability": "nonpayable",
      "type": "function"
    },
    {
      "inputs": [
        {
          "internalType": "address",
          "name": "_target",
          "type": "address"
        }
      ],
      "name": "setToken",
      "outputs": [],
      "stateMutability": "nonpayable",
      "type": "function"
    },
    {
      "inputs": [
        {
          "internalType": "uint256",
          "name": "_time",
          "type": "uint256"
        }
      ],
      "name": "setUpdateTimes",
      "outputs": [],
      "stateMutability": "nonpayable",
      "type": "function"
    },
    {
      "inputs": [
        {
          "internalType": "address",
          "name": "_target",
          "type": "address"
        }
      ],
      "name": "setUsdt",
      "outputs": [],
      "stateMutability": "nonpayable",
      "type": "function"
    },
    {
      "inputs": [
        {
          "internalType": "address",
          "name": "newOwner",
          "type": "address"
        }
      ],
      "name": "transferOwnership",
      "outputs": [],
      "stateMutability": "nonpayable",
      "type": "function"
    },
    {
      "inputs": [],
      "name": "update",
      "outputs": [],
      "stateMutability": "nonpayable",
      "type": "function"
    },
    {
      "inputs": [
        {
          "internalType": "address",
          "name": "newImplementation",
          "type": "address"
        },
        {
          "internalType": "bytes",
          "name": "data",
          "type": "bytes"
        }
      ],
      "name": "upgradeToAndCall",
      "outputs": [],
      "stateMutability": "payable",
      "type": "function"
    },
    {
      "inputs": [
        {
          "internalType": "address",
          "name": "_tokens",
          "type": "address"
        },
        {
          "internalType": "address",
          "name": "_target",
          "type": "address"
        },
        {
          "internalType": "uint256",
          "name": "_amount",
          "type": "uint256"
        }
      ],
      "name": "withdraw",
      "outputs": [],
      "stateMutability": "nonpayable",
      "type": "function"
    }
  ],
  "bytecode": "0x60a06040523060805234801561001457600080fd5b5061001d610022565b6100d4565b7ff0c57e16840df040f15088dc2f81fe391c3923bec73e23a9662efc9c229c6a00805468010000000000000000900460ff16156100725760405163f92ee8a960e01b815260040160405180910390fd5b80546001600160401b03908116146100d15780546001600160401b0319166001600160401b0390811782556040519081527fc7f505b2f371ae2175ee4913f4499e1f2633a7b5936321eed1cdaeb6115181d29060200160405180910390a15b50565b608051611dcb6100fd6000396000818161157b015281816115a401526117270152611dcb6000f3fe6080604052600436106101fe5760003560e01c80638129fc1c1161011d578063a58a613c116100b0578063d9caed121161007f578063ecd0c0c311610064578063ecd0c0c3146105ed578063f02d85ef1461060d578063f2fde38b1461062357600080fd5b8063d9caed12146105ad578063e15336ef146105cd57600080fd5b8063a58a613c14610501578063ad3cb1cc14610521578063be3601f814610577578063be3a5f681461059757600080fd5b8063909d3b53116100ec578063909d3b531461049757806391b7f5ed146104b757806398d5fdca146104d7578063a2e62045146104ec57600080fd5b80638129fc1c146104055780638514eefa1461041a5780638c16100f1461043a5780638da5cb5b1461045a57600080fd5b806352d1902d1161019557806369fe0e2d1161016457806369fe0e2d1461039a5780636be61263146103ba5780636c197ff5146103d0578063715018a6146103f057600080fd5b806352d1902d1461032557806358979bfe1461033a5780635c2318281461035a578063603dfebc1461037a57600080fd5b806330509bca116101d157806330509bca146102a657806343d11447146102bb5780634697388f146102dd5780634f1ef2861461031257600080fd5b80630cdcccd9146102035780631084839e14610240578063144fa6d714610262578063235b6ea114610282575b600080fd5b34801561020f57600080fd5b50600354610223906001600160a01b031681565b6040516001600160a01b0390911681526020015b60405180910390f35b34801561024c57600080fd5b5061026061025b366004611ab1565b610643565b005b34801561026e57600080fd5b5061026061027d366004611ab1565b61066d565b34801561028e57600080fd5b5061029860095481565b604051908152602001610237565b3480156102b257600080fd5b50610260610697565b3480156102c757600080fd5b506102d06106ce565b6040516102379190611acc565b3480156102e957600080fd5b506102fd6102f8366004611b1b565b610741565b60408051928352602083019190915201610237565b610260610320366004611b4a565b61076f565b34801561033157600080fd5b5061029861078e565b34801561034657600080fd5b50610260610355366004611ab1565b6107bd565b34801561036657600080fd5b50600654610223906001600160a01b031681565b34801561038657600080fd5b50600554610223906001600160a01b031681565b3480156103a657600080fd5b506102606103b5366004611b1b565b6107e7565b3480156103c657600080fd5b5061029860075481565b3480156103dc57600080fd5b506102606103eb366004611c0c565b610805565b3480156103fc57600080fd5b50610260610f1d565b34801561041157600080fd5b50610260610f31565b34801561042657600080fd5b50600454610223906001600160a01b031681565b34801561044657600080fd5b50610260610455366004611b1b565b61115e565b34801561046657600080fd5b507f9016d09d72d40fdae2fd8ceac6b6234c7706214fd39c1cd1e609a0528c199300546001600160a01b0316610223565b3480156104a357600080fd5b506102606104b2366004611ab1565b61116b565b3480156104c357600080fd5b506102606104d2366004611b1b565b611195565b3480156104e357600080fd5b50600954610298565b3480156104f857600080fd5b5061026061121d565b34801561050d57600080fd5b5061026061051c366004611ab1565b61132e565b34801561052d57600080fd5b5061056a6040518060400160405280600581526020017f352e302e3000000000000000000000000000000000000000000000000000000081525081565b6040516102379190611c5a565b34801561058357600080fd5b50600254610223906001600160a01b031681565b3480156105a357600080fd5b5061029860085481565b3480156105b957600080fd5b506102606105c8366004611c8d565b611358565b3480156105d957600080fd5b506102606105e8366004611ab1565b61147e565b3480156105f957600080fd5b50600154610223906001600160a01b031681565b34801561061957600080fd5b50610298600a5481565b34801561062f57600080fd5b5061026061063e366004611ab1565b6114a8565b61064b6114fc565b600480546001600160a01b0319166001600160a01b0392909216919091179055565b6106756114fc565b600180546001600160a01b0319166001600160a01b0392909216919091179055565b61069f6114fc565b60405133904780156108fc02916000818181858888f193505050501580156106cb573d6000803e3d6000fd5b50565b6060600b805480602002602001604051908101604052809291908181526020016000905b82821015610738578382906000526020600020906002020160405180604001604052908160008201548152602001600182015481525050815260200190600101906106f2565b50505050905090565b600b818154811061075157600080fd5b60009182526020909120600290910201805460019091015490915082565b610777611570565b61078082611627565b61078a828261162f565b5050565b600061079861171c565b507f360894a13ba1a3210667c828492db98dca3e2076cc3735a920a3ca505d382bbc90565b6107c56114fc565b600280546001600160a01b0319166001600160a01b0392909216919091179055565b6107ef6114fc565b6107ff81655af3107a4000611cdf565b60075550565b6001546002546040517f23b872dd0000000000000000000000000000000000000000000000000000000081526001600160a01b03858116600483015230602483015260448201859052928316929091169082906323b872dd906064016020604051808303816000875af1158015610880573d6000803e3d6000fd5b505050506040513d601f19601f820116820180604052508101906108a49190611cf6565b506006546040516370a0823160e01b81526001600160a01b0391821660048201526aabf889953e9fc7d9800000918416906370a0823190602401602060405180830381865afa1580156108fb573d6000803e3d6000fd5b505050506040513d601f19601f8201168201806040525081019061091f9190611d18565b10156109b7576006546001600160a01b038084169163a9059cbb9116610946600287611d31565b6040516001600160e01b031960e085901b1681526001600160a01b03909216600483015260248201526044016020604051808303816000875af1158015610991573d6000803e3d6000fd5b505050506040513d601f19601f820116820180604052508101906109b59190611cf6565b505b6003546001600160a01b038084169163a9059cbb91166109d8601487611d31565b6040516001600160e01b031960e085901b1681526001600160a01b03909216600483015260248201526044016020604051808303816000875af1158015610a23573d6000803e3d6000fd5b505050506040513d601f19601f82011682018060405250810190610a479190611cf6565b506004546001600160a01b038084169163a9059cbb9116610a69600a87611d31565b6040516001600160e01b031960e085901b1681526001600160a01b03909216600483015260248201526044016020604051808303816000875af1158015610ab4573d6000803e3d6000fd5b505050506040513d601f19601f82011682018060405250810190610ad89190611cf6565b506005546001600160a01b038084169163a9059cbb91166064610afc876023611cdf565b610b069190611d31565b6040516001600160e01b031960e085901b1681526001600160a01b03909216600483015260248201526044016020604051808303816000875af1158015610b51573d6000803e3d6000fd5b505050506040513d601f19601f82011682018060405250810190610b759190611cf6565b506000670de0b6b3a764000060095485610b8f9190611cdf565b610b999190611d31565b6040516370a0823160e01b815230600482015290915081906001600160a01b038416906370a0823190602401602060405180830381865afa158015610be2573d6000803e3d6000fd5b505050506040513d601f19601f82011682018060405250810190610c069190611d18565b1015610c465760405162461bcd60e51b815260206004820152600a6024820152696e6f2062616c616e636560b01b60448201526064015b60405180910390fd5b6001600160a01b03821663a9059cbb866064610c6385602d611cdf565b610c6d9190611d31565b6040516001600160e01b031960e085901b1681526001600160a01b03909216600483015260248201526044016020604051808303816000875af1158015610cb8573d6000803e3d6000fd5b505050506040513d601f19601f82011682018060405250810190610cdc9190611cf6565b506000546001600160a01b031663b34d30ca866064610cfc856037611cdf565b610d069190611d31565b6040516001600160e01b031960e085901b1681526001600160a01b0390921660048301526024820152604401600060405180830381600087803b158015610d4c57600080fd5b505af1925050508015610d5d575060015b507f581503780528fdbb46eb924cb34fa74ab1663af80e0a10447f278b36060918ec856064610d8d846037611cdf565b610d979190611d31565b604080516001600160a01b03909316835260208301919091520160405180910390a160006064610dc8866037611cdf565b610dd29190611d31565b60065460405163a9059cbb60e01b81526001600160a01b0391821660048201526024810183905291925085169063a9059cbb906044016020604051808303816000875af1158015610e27573d6000803e3d6000fd5b505050506040513d601f19601f82011682018060405250810190610e4b9190611cf6565b50600a54600854610e5c9042611d53565b1115610f15574260088190556040805180820190915290815260095460208201908152600b805460018101825560009190915282517f0175b7a638427703f0dbe7bb9bbf987a2551717b34e79f33b5b1008d1fa01db960029092029182015590517f0175b7a638427703f0dbe7bb9bbf987a2551717b34e79f33b5b1008d1fa01dba90910155600754670de0b6b3a764000090610ef99082611d66565b600954610f069190611cdf565b610f109190611d31565b600955505b505050505050565b610f256114fc565b610f2f6000611765565b565b7ff0c57e16840df040f15088dc2f81fe391c3923bec73e23a9662efc9c229c6a00805468010000000000000000810460ff16159067ffffffffffffffff16600081158015610f7c5750825b905060008267ffffffffffffffff166001148015610f995750303b155b905081158015610fa7575080155b15610fde576040517ff92ee8a900000000000000000000000000000000000000000000000000000000815260040160405180910390fd5b845467ffffffffffffffff19166001178555831561101257845468ff00000000000000001916680100000000000000001785555b662386f26fc10000600755600080546001600160a01b0319908116739ae3c0dff91a4bdb046e51486c1ccd847235df8617909155600180548216733e81ae5448ed9fd785467fde13ac3127775e8d001790556002805482167355d398326f99059ff775485246999027b3197955179055600380548216737ba9d04660896c2fd21eb2daa417e35fa6fd30581790556004805482167348f5fc6ef301234b1d48003e87519a6f451b1caa179055600580548216738151a4add170253dba18f44d5149999007ac4b731790556006805490911661dead179055670de0b6b3a7640000600955610e10600a55611104336117d6565b61110c6117e7565b831561115757845468ff000000000000000019168555604051600181527fc7f505b2f371ae2175ee4913f4499e1f2633a7b5936321eed1cdaeb6115181d29060200160405180910390a15b5050505050565b6111666114fc565b600a55565b6111736114fc565b600580546001600160a01b0319166001600160a01b0392909216919091179055565b61119d6114fc565b604080518082019091524281526009805460208301908152600b805460018101825560009190915292517f0175b7a638427703f0dbe7bb9bbf987a2551717b34e79f33b5b1008d1fa01db9600290940293840155517f0175b7a638427703f0dbe7bb9bbf987a2551717b34e79f33b5b1008d1fa01dba9092019190915555565b600a5460085461122d9042611d53565b1161127a5760405162461bcd60e51b815260206004820152600c60248201527f74696d65206e6f20636f6d6500000000000000000000000000000000000000006044820152606401610c3d565b4260088190556040805180820190915290815260095460208201908152600b805460018101825560009190915282517f0175b7a638427703f0dbe7bb9bbf987a2551717b34e79f33b5b1008d1fa01db960029092029182015590517f0175b7a638427703f0dbe7bb9bbf987a2551717b34e79f33b5b1008d1fa01dba90910155600754670de0b6b3a7640000906113119082611d66565b60095461131e9190611cdf565b6113289190611d31565b60095550565b6113366114fc565b600380546001600160a01b0319166001600160a01b0392909216919091179055565b6113606114fc565b6040516370a0823160e01b815230600482015281906001600160a01b038516906370a0823190602401602060405180830381865afa1580156113a6573d6000803e3d6000fd5b505050506040513d601f19601f820116820180604052508101906113ca9190611d18565b10156114055760405162461bcd60e51b815260206004820152600a6024820152696e6f2062616c616e636560b01b6044820152606401610c3d565b60405163a9059cbb60e01b81526001600160a01b0383811660048301526024820183905284169063a9059cbb906044016020604051808303816000875af1158015611454573d6000803e3d6000fd5b505050506040513d601f19601f820116820180604052508101906114789190611cf6565b50505050565b6114866114fc565b600080546001600160a01b0319166001600160a01b0392909216919091179055565b6114b06114fc565b6001600160a01b0381166114f3576040517f1e4fbdf700000000000000000000000000000000000000000000000000000000815260006004820152602401610c3d565b6106cb81611765565b3361152e7f9016d09d72d40fdae2fd8ceac6b6234c7706214fd39c1cd1e609a0528c199300546001600160a01b031690565b6001600160a01b031614610f2f576040517f118cdaa7000000000000000000000000000000000000000000000000000000008152336004820152602401610c3d565b306001600160a01b037f000000000000000000000000000000000000000000000000000000000000000016148061160957507f00000000000000000000000000000000000000000000000000000000000000006001600160a01b03166115fd7f360894a13ba1a3210667c828492db98dca3e2076cc3735a920a3ca505d382bbc546001600160a01b031690565b6001600160a01b031614155b15610f2f5760405163703e46dd60e11b815260040160405180910390fd5b6106cb6114fc565b816001600160a01b03166352d1902d6040518163ffffffff1660e01b8152600401602060405180830381865afa925050508015611689575060408051601f3d908101601f1916820190925261168691810190611d18565b60015b6116b157604051634c9c8ce360e01b81526001600160a01b0383166004820152602401610c3d565b7f360894a13ba1a3210667c828492db98dca3e2076cc3735a920a3ca505d382bbc811461170d576040517faa1d49a400000000000000000000000000000000000000000000000000000000815260048101829052602401610c3d565b61171783836117ef565b505050565b306001600160a01b037f00000000000000000000000000000000000000000000000000000000000000001614610f2f5760405163703e46dd60e11b815260040160405180910390fd5b7f9016d09d72d40fdae2fd8ceac6b6234c7706214fd39c1cd1e609a0528c19930080546001600160a01b031981166001600160a01b03848116918217845560405192169182907f8be0079c531659141344cd1fd0a4f28419497f9722a3daafe3b4186f6b6457e090600090a3505050565b6117de611845565b6106cb816118ac565b610f2f611845565b6117f8826118b4565b6040516001600160a01b038316907fbc7cd75a20ee27fd9adebab32041f755214dbc6bffa90cc0225b39da2e5c2d3b90600090a280511561183d57611717828261192b565b61078a6119a3565b7ff0c57e16840df040f15088dc2f81fe391c3923bec73e23a9662efc9c229c6a005468010000000000000000900460ff16610f2f576040517fd7e6bcf800000000000000000000000000000000000000000000000000000000815260040160405180910390fd5b6114b0611845565b806001600160a01b03163b6000036118ea57604051634c9c8ce360e01b81526001600160a01b0382166004820152602401610c3d565b7f360894a13ba1a3210667c828492db98dca3e2076cc3735a920a3ca505d382bbc80546001600160a01b0319166001600160a01b0392909216919091179055565b6060600080846001600160a01b0316846040516119489190611d79565b600060405180830381855af49150503d8060008114611983576040519150601f19603f3d011682016040523d82523d6000602084013e611988565b606091505b50915091506119988583836119db565b925050505b92915050565b3415610f2f576040517fb398979f00000000000000000000000000000000000000000000000000000000815260040160405180910390fd5b6060826119f0576119eb82611a53565b611a4c565b8151158015611a0757506001600160a01b0384163b155b15611a49576040517f9996b3150000000000000000000000000000000000000000000000000000000081526001600160a01b0385166004820152602401610c3d565b50805b9392505050565b805115611a635780518082602001fd5b6040517fd6bda27500000000000000000000000000000000000000000000000000000000815260040160405180910390fd5b80356001600160a01b0381168114611aac57600080fd5b919050565b600060208284031215611ac357600080fd5b611a4c82611a95565b602080825282518282018190526000919060409081850190868401855b82811015611b0e57815180518552860151868501529284019290850190600101611ae9565b5091979650505050505050565b600060208284031215611b2d57600080fd5b5035919050565b634e487b7160e01b600052604160045260246000fd5b60008060408385031215611b5d57600080fd5b611b6683611a95565b9150602083013567ffffffffffffffff80821115611b8357600080fd5b818501915085601f830112611b9757600080fd5b813581811115611ba957611ba9611b34565b604051601f8201601f19908116603f01168101908382118183101715611bd157611bd1611b34565b81604052828152886020848701011115611bea57600080fd5b8260208601602083013760006020848301015280955050505050509250929050565b60008060408385031215611c1f57600080fd5b611c2883611a95565b946020939093013593505050565b60005b83811015611c51578181015183820152602001611c39565b50506000910152565b6020815260008251806020840152611c79816040850160208701611c36565b601f01601f19169190910160400192915050565b600080600060608486031215611ca257600080fd5b611cab84611a95565b9250611cb960208501611a95565b9150604084013590509250925092565b634e487b7160e01b600052601160045260246000fd5b808202811582820484141761199d5761199d611cc9565b600060208284031215611d0857600080fd5b81518015158114611a4c57600080fd5b600060208284031215611d2a57600080fd5b5051919050565b600082611d4e57634e487b7160e01b600052601260045260246000fd5b500490565b8181038181111561199d5761199d611cc9565b8082018082111561199d5761199d611cc9565b60008251611d8b818460208701611c36565b919091019291505056fea264697066735822122095a9854cbe8f0926a05d5a4eb8fa62c6733b8b28a3163871ff1dd95a07abf91a64736f6c63430008190033",
  "linkReferences": {},
  "deployedLinkReferences": {}
}