{
  "_format": "hh-sol-artifact-1",
  "contractName": "MultiNFTAuction",
  "sourceName": "contracts/nft_auction/aud.sol",
  "abi": [
    {
      "inputs": [
        {
          "internalType": "address",
          "name": "target",
          "type": "address"
        }
      ],
      "name": "AddressEmptyCode",
      "type": "error"
    },
    {
      "inputs": [
        {
          "internalType": "address",
          "name": "implementation",
          "type": "address"
        }
      ],
      "name": "ERC1967InvalidImplementation",
      "type": "error"
    },
    {
      "inputs": [],
      "name": "ERC1967NonPayable",
      "type": "error"
    },
    {
      "inputs": [
        {
          "internalType": "address",
          "name": "sender",
          "type": "address"
        },
        {
          "internalType": "uint256",
          "name": "tokenId",
          "type": "uint256"
        },
        {
          "internalType": "address",
          "name": "owner",
          "type": "address"
        }
      ],
      "name": "ERC721IncorrectOwner",
      "type": "error"
    },
    {
      "inputs": [
        {
          "internalType": "address",
          "name": "operator",
          "type": "address"
        },
        {
          "internalType": "uint256",
          "name": "tokenId",
          "type": "uint256"
        }
      ],
      "name": "ERC721InsufficientApproval",
      "type": "error"
    },
    {
      "inputs": [
        {
          "internalType": "address",
          "name": "approver",
          "type": "address"
        }
      ],
      "name": "ERC721InvalidApprover",
      "type": "error"
    },
    {
      "inputs": [
        {
          "internalType": "address",
          "name": "operator",
          "type": "address"
        }
      ],
      "name": "ERC721InvalidOperator",
      "type": "error"
    },
    {
      "inputs": [
        {
          "internalType": "address",
          "name": "owner",
          "type": "address"
        }
      ],
      "name": "ERC721InvalidOwner",
      "type": "error"
    },
    {
      "inputs": [
        {
          "internalType": "address",
          "name": "receiver",
          "type": "address"
        }
      ],
      "name": "ERC721InvalidReceiver",
      "type": "error"
    },
    {
      "inputs": [
        {
          "internalType": "address",
          "name": "sender",
          "type": "address"
        }
      ],
      "name": "ERC721InvalidSender",
      "type": "error"
    },
    {
      "inputs": [
        {
          "internalType": "uint256",
          "name": "tokenId",
          "type": "uint256"
        }
      ],
      "name": "ERC721NonexistentToken",
      "type": "error"
    },
    {
      "inputs": [],
      "name": "FailedCall",
      "type": "error"
    },
    {
      "inputs": [],
      "name": "InvalidInitialization",
      "type": "error"
    },
    {
      "inputs": [],
      "name": "NotInitializing",
      "type": "error"
    },
    {
      "inputs": [
        {
          "internalType": "address",
          "name": "owner",
          "type": "address"
        }
      ],
      "name": "OwnableInvalidOwner",
      "type": "error"
    },
    {
      "inputs": [
        {
          "internalType": "address",
          "name": "account",
          "type": "address"
        }
      ],
      "name": "OwnableUnauthorizedAccount",
      "type": "error"
    },
    {
      "inputs": [],
      "name": "UUPSUnauthorizedCallContext",
      "type": "error"
    },
    {
      "inputs": [
        {
          "internalType": "bytes32",
          "name": "slot",
          "type": "bytes32"
        }
      ],
      "name": "UUPSUnsupportedProxiableUUID",
      "type": "error"
    },
    {
      "anonymous": false,
      "inputs": [
        {
          "indexed": true,
          "internalType": "address",
          "name": "owner",
          "type": "address"
        },
        {
          "indexed": true,
          "internalType": "address",
          "name": "approved",
          "type": "address"
        },
        {
          "indexed": true,
          "internalType": "uint256",
          "name": "tokenId",
          "type": "uint256"
        }
      ],
      "name": "Approval",
      "type": "event"
    },
    {
      "anonymous": false,
      "inputs": [
        {
          "indexed": true,
          "internalType": "address",
          "name": "owner",
          "type": "address"
        },
        {
          "indexed": true,
          "internalType": "address",
          "name": "operator",
          "type": "address"
        },
        {
          "indexed": false,
          "internalType": "bool",
          "name": "approved",
          "type": "bool"
        }
      ],
      "name": "ApprovalForAll",
      "type": "event"
    },
    {
      "anonymous": false,
      "inputs": [
        {
          "indexed": false,
          "internalType": "uint256",
          "name": "auctionId",
          "type": "uint256"
        },
        {
          "indexed": false,
          "internalType": "address",
          "name": "nft",
          "type": "address"
        },
        {
          "indexed": false,
          "internalType": "uint256",
          "name": "nftId",
          "type": "uint256"
        }
      ],
      "name": "AuctionCreated",
      "type": "event"
    },
    {
      "anonymous": false,
      "inputs": [
        {
          "indexed": false,
          "internalType": "uint256",
          "name": "auctionId",
          "type": "uint256"
        },
        {
          "indexed": true,
          "internalType": "address",
          "name": "bidder",
          "type": "address"
        },
        {
          "indexed": false,
          "internalType": "uint256",
          "name": "amount",
          "type": "uint256"
        }
      ],
      "name": "BidPlaced",
      "type": "event"
    },
    {
      "anonymous": false,
      "inputs": [
        {
          "indexed": false,
          "internalType": "uint64",
          "name": "version",
          "type": "uint64"
        }
      ],
      "name": "Initialized",
      "type": "event"
    },
    {
      "anonymous": false,
      "inputs": [
        {
          "indexed": false,
          "internalType": "uint256",
          "name": "day",
          "type": "uint256"
        },
        {
          "indexed": false,
          "internalType": "uint256",
          "name": "totalAmount",
          "type": "uint256"
        }
      ],
      "name": "LuckyPoolDistributed",
      "type": "event"
    },
    {
      "anonymous": false,
      "inputs": [
        {
          "indexed": true,
          "internalType": "address",
          "name": "previousOwner",
          "type": "address"
        },
        {
          "indexed": true,
          "internalType": "address",
          "name": "newOwner",
          "type": "address"
        }
      ],
      "name": "OwnershipTransferred",
      "type": "event"
    },
    {
      "anonymous": false,
      "inputs": [
        {
          "indexed": true,
          "internalType": "address",
          "name": "from",
          "type": "address"
        },
        {
          "indexed": true,
          "internalType": "address",
          "name": "to",
          "type": "address"
        },
        {
          "indexed": true,
          "internalType": "uint256",
          "name": "tokenId",
          "type": "uint256"
        }
      ],
      "name": "Transfer",
      "type": "event"
    },
    {
      "anonymous": false,
      "inputs": [
        {
          "indexed": true,
          "internalType": "address",
          "name": "implementation",
          "type": "address"
        }
      ],
      "name": "Upgraded",
      "type": "event"
    },
    {
      "anonymous": false,
      "inputs": [
        {
          "indexed": false,
          "internalType": "address",
          "name": "user",
          "type": "address"
        },
        {
          "indexed": false,
          "internalType": "address",
          "name": "referrer",
          "type": "address"
        }
      ],
      "name": "UserBound",
      "type": "event"
    },
    {
      "inputs": [],
      "name": "FOUNDATION_FEE_PERCENT",
      "outputs": [
        {
          "internalType": "uint256",
          "name": "",
          "type": "uint256"
        }
      ],
      "stateMutability": "view",
      "type": "function"
    },
    {
      "inputs": [],
      "name": "FOUNDATION_RECEIVE_ADDRESS",
      "outputs": [
        {
          "internalType": "address",
          "name": "",
          "type": "address"
        }
      ],
      "stateMutability": "view",
      "type": "function"
    },
    {
      "inputs": [],
      "name": "LAST_PERCENT",
      "outputs": [
        {
          "internalType": "uint256",
          "name": "",
          "type": "uint256"
        }
      ],
      "stateMutability": "view",
      "type": "function"
    },
    {
      "inputs": [],
      "name": "LUCKY_POOL_RECEIVE_ADDRESS",
      "outputs": [
        {
          "internalType": "address",
          "name": "",
          "type": "address"
        }
      ],
      "stateMutability": "view",
      "type": "function"
    },
    {
      "inputs": [],
      "name": "NFT_EXPIRED_TIME",
      "outputs": [
        {
          "internalType": "uint256",
          "name": "",
          "type": "uint256"
        }
      ],
      "stateMutability": "view",
      "type": "function"
    },
    {
      "inputs": [],
      "name": "NFT_PRICE_INCR",
      "outputs": [
        {
          "internalType": "uint256",
          "name": "",
          "type": "uint256"
        }
      ],
      "stateMutability": "view",
      "type": "function"
    },
    {
      "inputs": [],
      "name": "REFERRER_FEE_PERCENT",
      "outputs": [
        {
          "internalType": "uint256",
          "name": "",
          "type": "uint256"
        }
      ],
      "stateMutability": "view",
      "type": "function"
    },
    {
      "inputs": [],
      "name": "TEAM_FEE_PERCENT",
      "outputs": [
        {
          "internalType": "uint256",
          "name": "",
          "type": "uint256"
        }
      ],
      "stateMutability": "view",
      "type": "function"
    },
    {
      "inputs": [],
      "name": "TEAM_RECEIVE_ADDRESS",
      "outputs": [
        {
          "internalType": "address",
          "name": "",
          "type": "address"
        }
      ],
      "stateMutability": "view",
      "type": "function"
    },
    {
      "inputs": [],
      "name": "TOP10_FEE_PERCENT",
      "outputs": [
        {
          "internalType": "uint256",
          "name": "",
          "type": "uint256"
        }
      ],
      "stateMutability": "view",
      "type": "function"
    },
    {
      "inputs": [],
      "name": "TOP10_RECEIVE_ADDRESS",
      "outputs": [
        {
          "internalType": "address",
          "name": "",
          "type": "address"
        }
      ],
      "stateMutability": "view",
      "type": "function"
    },
    {
      "inputs": [],
      "name": "UPGRADE_INTERFACE_VERSION",
      "outputs": [
        {
          "internalType": "string",
          "name": "",
          "type": "string"
        }
      ],
      "stateMutability": "view",
      "type": "function"
    },
    {
      "inputs": [
        {
          "internalType": "address",
          "name": "to",
          "type": "address"
        },
        {
          "internalType": "uint256",
          "name": "tokenId",
          "type": "uint256"
        }
      ],
      "name": "approve",
      "outputs": [],
      "stateMutability": "nonpayable",
      "type": "function"
    },
    {
      "inputs": [],
      "name": "auctionCounter",
      "outputs": [
        {
          "internalType": "uint256",
          "name": "",
          "type": "uint256"
        }
      ],
      "stateMutability": "view",
      "type": "function"
    },
    {
      "inputs": [
        {
          "internalType": "uint256",
          "name": "",
          "type": "uint256"
        }
      ],
      "name": "auctions",
      "outputs": [
        {
          "internalType": "contract ERC721Upgradeable",
          "name": "nft",
          "type": "address"
        },
        {
          "internalType": "uint256",
          "name": "nftId",
          "type": "uint256"
        },
        {
          "internalType": "uint256",
          "name": "lastPrice",
          "type": "uint256"
        },
        {
          "internalType": "address",
          "name": "lastBidder",
          "type": "address"
        },
        {
          "internalType": "uint256",
          "name": "expiredTime",
          "type": "uint256"
        }
      ],
      "stateMutability": "view",
      "type": "function"
    },
    {
      "inputs": [
        {
          "internalType": "address",
          "name": "owner",
          "type": "address"
        }
      ],
      "name": "balanceOf",
      "outputs": [
        {
          "internalType": "uint256",
          "name": "",
          "type": "uint256"
        }
      ],
      "stateMutability": "view",
      "type": "function"
    },
    {
      "inputs": [
        {
          "internalType": "address",
          "name": "_referrer",
          "type": "address"
        }
      ],
      "name": "bindUser",
      "outputs": [],
      "stateMutability": "nonpayable",
      "type": "function"
    },
    {
      "inputs": [
        {
          "internalType": "address",
          "name": "_nft",
          "type": "address"
        },
        {
          "internalType": "uint256",
          "name": "_nftId",
          "type": "uint256"
        },
        {
          "internalType": "uint256",
          "name": "_price",
          "type": "uint256"
        }
      ],
      "name": "createAuction",
      "outputs": [],
      "stateMutability": "nonpayable",
      "type": "function"
    },
    {
      "inputs": [
        {
          "internalType": "uint256",
          "name": "tokenId",
          "type": "uint256"
        }
      ],
      "name": "getApproved",
      "outputs": [
        {
          "internalType": "address",
          "name": "",
          "type": "address"
        }
      ],
      "stateMutability": "view",
      "type": "function"
    },
    {
      "inputs": [],
      "name": "getDayStart",
      "outputs": [
        {
          "internalType": "uint256",
          "name": "",
          "type": "uint256"
        }
      ],
      "stateMutability": "view",
      "type": "function"
    },
    {
      "inputs": [
        {
          "internalType": "address",
          "name": "initialOwner",
          "type": "address"
        }
      ],
      "name": "initialize",
      "outputs": [],
      "stateMutability": "nonpayable",
      "type": "function"
    },
    {
      "inputs": [
        {
          "internalType": "address",
          "name": "owner",
          "type": "address"
        },
        {
          "internalType": "address",
          "name": "operator",
          "type": "address"
        }
      ],
      "name": "isApprovedForAll",
      "outputs": [
        {
          "internalType": "bool",
          "name": "",
          "type": "bool"
        }
      ],
      "stateMutability": "view",
      "type": "function"
    },
    {
      "inputs": [
        {
          "internalType": "address",
          "name": "",
          "type": "address"
        }
      ],
      "name": "lastParticipationDay",
      "outputs": [
        {
          "internalType": "uint256",
          "name": "",
          "type": "uint256"
        }
      ],
      "stateMutability": "view",
      "type": "function"
    },
    {
      "inputs": [],
      "name": "name",
      "outputs": [
        {
          "internalType": "string",
          "name": "",
          "type": "string"
        }
      ],
      "stateMutability": "view",
      "type": "function"
    },
    {
      "inputs": [],
      "name": "owner",
      "outputs": [
        {
          "internalType": "address",
          "name": "",
          "type": "address"
        }
      ],
      "stateMutability": "view",
      "type": "function"
    },
    {
      "inputs": [
        {
          "internalType": "uint256",
          "name": "tokenId",
          "type": "uint256"
        }
      ],
      "name": "ownerOf",
      "outputs": [
        {
          "internalType": "address",
          "name": "",
          "type": "address"
        }
      ],
      "stateMutability": "view",
      "type": "function"
    },
    {
      "inputs": [
        {
          "internalType": "uint256",
          "name": "auctionId",
          "type": "uint256"
        }
      ],
      "name": "placeBid",
      "outputs": [],
      "stateMutability": "payable",
      "type": "function"
    },
    {
      "inputs": [],
      "name": "proxiableUUID",
      "outputs": [
        {
          "internalType": "bytes32",
          "name": "",
          "type": "bytes32"
        }
      ],
      "stateMutability": "view",
      "type": "function"
    },
    {
      "inputs": [],
      "name": "renounceOwnership",
      "outputs": [],
      "stateMutability": "nonpayable",
      "type": "function"
    },
    {
      "inputs": [
        {
          "internalType": "address",
          "name": "to",
          "type": "address"
        },
        {
          "internalType": "uint256",
          "name": "tokenId",
          "type": "uint256"
        }
      ],
      "name": "safeMint",
      "outputs": [],
      "stateMutability": "nonpayable",
      "type": "function"
    },
    {
      "inputs": [
        {
          "internalType": "address",
          "name": "from",
          "type": "address"
        },
        {
          "internalType": "address",
          "name": "to",
          "type": "address"
        },
        {
          "internalType": "uint256",
          "name": "tokenId",
          "type": "uint256"
        }
      ],
      "name": "safeTransferFrom",
      "outputs": [],
      "stateMutability": "nonpayable",
      "type": "function"
    },
    {
      "inputs": [
        {
          "internalType": "address",
          "name": "from",
          "type": "address"
        },
        {
          "internalType": "address",
          "name": "to",
          "type": "address"
        },
        {
          "internalType": "uint256",
          "name": "tokenId",
          "type": "uint256"
        },
        {
          "internalType": "bytes",
          "name": "data",
          "type": "bytes"
        }
      ],
      "name": "safeTransferFrom",
      "outputs": [],
      "stateMutability": "nonpayable",
      "type": "function"
    },
    {
      "inputs": [
        {
          "internalType": "address",
          "name": "operator",
          "type": "address"
        },
        {
          "internalType": "bool",
          "name": "approved",
          "type": "bool"
        }
      ],
      "name": "setApprovalForAll",
      "outputs": [],
      "stateMutability": "nonpayable",
      "type": "function"
    },
    {
      "inputs": [
        {
          "internalType": "bytes4",
          "name": "interfaceId",
          "type": "bytes4"
        }
      ],
      "name": "supportsInterface",
      "outputs": [
        {
          "internalType": "bool",
          "name": "",
          "type": "bool"
        }
      ],
      "stateMutability": "view",
      "type": "function"
    },
    {
      "inputs": [],
      "name": "symbol",
      "outputs": [
        {
          "internalType": "string",
          "name": "",
          "type": "string"
        }
      ],
      "stateMutability": "view",
      "type": "function"
    },
    {
      "inputs": [
        {
          "internalType": "uint256",
          "name": "tokenId",
          "type": "uint256"
        }
      ],
      "name": "tokenURI",
      "outputs": [
        {
          "internalType": "string",
          "name": "",
          "type": "string"
        }
      ],
      "stateMutability": "view",
      "type": "function"
    },
    {
      "inputs": [
        {
          "internalType": "address",
          "name": "from",
          "type": "address"
        },
        {
          "internalType": "address",
          "name": "to",
          "type": "address"
        },
        {
          "internalType": "uint256",
          "name": "tokenId",
          "type": "uint256"
        }
      ],
      "name": "transferFrom",
      "outputs": [],
      "stateMutability": "nonpayable",
      "type": "function"
    },
    {
      "inputs": [
        {
          "internalType": "address",
          "name": "newOwner",
          "type": "address"
        }
      ],
      "name": "transferOwnership",
      "outputs": [],
      "stateMutability": "nonpayable",
      "type": "function"
    },
    {
      "inputs": [
        {
          "internalType": "address",
          "name": "newImplementation",
          "type": "address"
        },
        {
          "internalType": "bytes",
          "name": "data",
          "type": "bytes"
        }
      ],
      "name": "upgradeToAndCall",
      "outputs": [],
      "stateMutability": "payable",
      "type": "function"
    },
    {
      "inputs": [
        {
          "internalType": "address",
          "name": "",
          "type": "address"
        },
        {
          "internalType": "uint256",
          "name": "",
          "type": "uint256"
        }
      ],
      "name": "userReferrals",
      "outputs": [
        {
          "internalType": "address",
          "name": "",
          "type": "address"
        }
      ],
      "stateMutability": "view",
      "type": "function"
    },
    {
      "inputs": [
        {
          "internalType": "address",
          "name": "",
          "type": "address"
        }
      ],
      "name": "userReferrer",
      "outputs": [
        {
          "internalType": "address",
          "name": "",
          "type": "address"
        }
      ],
      "stateMutability": "view",
      "type": "function"
    }
  ],
  "bytecode": "0x60a06040523060805260038054731cde2d7d9d160b2299a87a3b335dd74d87b9f9486001600160a01b031991821681179092556004805482168317905560058054821683179055600680549091169091179055606e600755348015606257600080fd5b50608051612b0061008c6000396000818161180b0152818161183401526119b20152612b006000f3fe6080604052600436106102c65760003560e01c806395d89b4111610179578063c87b56dd116100d6578063e985e9c51161008a578063ef29a3cc11610064578063ef29a3cc14610850578063f2fde38b1461087d578063f3d428ae1461081b57600080fd5b8063e985e9c5146107b3578063ed2d75191461081b578063eeb20b711461083057600080fd5b8063d9753930116100bb578063d975393014610768578063dee0da621461077e578063e0c858ad1461079e57600080fd5b8063c87b56dd14610728578063d3ed5ec61461074857600080fd5b8063a7e766441161012d578063ad3cb1cc11610112578063ad3cb1cc1461069f578063b88d4fde146106e8578063c4d66de81461070857600080fd5b8063a7e7664414610669578063abb940511461067f57600080fd5b80639979ef451161015e5780639979ef4514610616578063a144819414610629578063a22cb4651461064957600080fd5b806395d89b41146105e1578063989baf69146105f657600080fd5b80634697e2f5116102275780636352211e116101db578063715018a6116101c0578063715018a6146105595780637c3fcc381461056e5780638da5cb5b146105a457600080fd5b80636352211e1461051957806370a082311461053957600080fd5b806352d1902d1161020c57806352d1902d14610454578063571a26a0146104695780635aaf2c10146104f957600080fd5b80634697e2f5146104215780634f1ef2861461044157600080fd5b806312c980421161027e57806323b872dd1161026357806323b872dd146103cb57806338ecd620146103eb57806342842e0e1461040157600080fd5b806312c980421461039f5780631b8d2068146103b557600080fd5b806307e0d93c116102af57806307e0d93c14610322578063081812fc14610345578063095ea7b31461037d57600080fd5b806301ffc9a7146102cb57806306fdde0314610300575b600080fd5b3480156102d757600080fd5b506102eb6102e63660046124f0565b61089d565b60405190151581526020015b60405180910390f35b34801561030c57600080fd5b5061031561093a565b6040516102f7919061255d565b34801561032e57600080fd5b50610337603281565b6040519081526020016102f7565b34801561035157600080fd5b50610365610360366004612570565b6109f0565b6040516001600160a01b0390911681526020016102f7565b34801561038957600080fd5b5061039d6103983660046125a5565b610a38565b005b3480156103ab57600080fd5b5061033761708081565b3480156103c157600080fd5b5061033760075481565b3480156103d757600080fd5b5061039d6103e63660046125cf565b610a47565b3480156103f757600080fd5b5061033761012c81565b34801561040d57600080fd5b5061039d61041c3660046125cf565b610af0565b34801561042d57600080fd5b5061039d61043c36600461260b565b610b10565b61039d61044f3660046126c9565b610c88565b34801561046057600080fd5b50610337610ca3565b34801561047557600080fd5b506104c2610484366004612570565b6001602081905260009182526040909120805491810154600282015460038301546004909301546001600160a01b0394851694929391929091169085565b604080516001600160a01b03968716815260208101959095528401929092529092166060820152608081019190915260a0016102f7565b34801561050557600080fd5b50600654610365906001600160a01b031681565b34801561052557600080fd5b50610365610534366004612570565b610cd2565b34801561054557600080fd5b5061033761055436600461260b565b610cdd565b34801561056557600080fd5b5061039d610d64565b34801561057a57600080fd5b5061036561058936600461260b565b6000602081905290815260409020546001600160a01b031681565b3480156105b057600080fd5b507f9016d09d72d40fdae2fd8ceac6b6234c7706214fd39c1cd1e609a0528c199300546001600160a01b0316610365565b3480156105ed57600080fd5b50610315610d78565b34801561060257600080fd5b506103656106113660046125a5565b610dc9565b61039d610624366004612570565b610e01565b34801561063557600080fd5b5061039d6106443660046125a5565b611286565b34801561065557600080fd5b5061039d610664366004612717565b611298565b34801561067557600080fd5b5061033760025481565b34801561068b57600080fd5b5061039d61069a366004612753565b6112a3565b3480156106ab57600080fd5b506103156040518060400160405280600581526020017f352e302e3000000000000000000000000000000000000000000000000000000081525081565b3480156106f457600080fd5b5061039d610703366004612786565b61137b565b34801561071457600080fd5b5061039d61072336600461260b565b611392565b34801561073457600080fd5b50610315610743366004612570565b61154b565b34801561075457600080fd5b50600554610365906001600160a01b031681565b34801561077457600080fd5b506103376103b181565b34801561078a57600080fd5b50600354610365906001600160a01b031681565b3480156107aa57600080fd5b506103376115e5565b3480156107bf57600080fd5b506102eb6107ce3660046127ee565b6001600160a01b0391821660009081527f80bb2b638cc20bc4d0a60d66940f3ab4a00c1d7b313497ca82fb0b4ab00793056020908152604080832093909416825291909152205460ff1690565b34801561082757600080fd5b50610337606481565b34801561083c57600080fd5b50600454610365906001600160a01b031681565b34801561085c57600080fd5b5061033761086b36600461260b565b60096020526000908152604090205481565b34801561088957600080fd5b5061039d61089836600461260b565b611603565b60006001600160e01b031982167f80ac58cd00000000000000000000000000000000000000000000000000000000148061090057506001600160e01b031982167f5b5e139f00000000000000000000000000000000000000000000000000000000145b8061093457507f01ffc9a7000000000000000000000000000000000000000000000000000000006001600160e01b03198316145b92915050565b7f80bb2b638cc20bc4d0a60d66940f3ab4a00c1d7b313497ca82fb0b4ab0079300805460609190819061096c90612821565b80601f016020809104026020016040519081016040528092919081815260200182805461099890612821565b80156109e55780601f106109ba576101008083540402835291602001916109e5565b820191906000526020600020905b8154815290600101906020018083116109c857829003601f168201915b505050505091505090565b60006109fb8261165a565b5060008281527f80bb2b638cc20bc4d0a60d66940f3ab4a00c1d7b313497ca82fb0b4ab007930460205260409020546001600160a01b0316610934565b610a438282336116b2565b5050565b6001600160a01b038216610a7657604051633250574960e11b8152600060048201526024015b60405180910390fd5b6000610a838383336116bf565b9050836001600160a01b0316816001600160a01b031614610aea576040517f64283d7b0000000000000000000000000000000000000000000000000000000081526001600160a01b0380861660048301526024820184905282166044820152606401610a6d565b50505050565b610b0b8383836040518060200160405280600081525061137b565b505050565b336001600160a01b03821603610b685760405162461bcd60e51b815260206004820152601560248201527f43616e6e6f7420726566657220796f757273656c6600000000000000000000006044820152606401610a6d565b336000908152602081905260409020546001600160a01b031615610bce5760405162461bcd60e51b815260206004820152601460248201527f526566657272657220616c7265616479207365740000000000000000000000006044820152606401610a6d565b6001600160a01b038116610c245760405162461bcd60e51b815260206004820152601f60248201527f526566657272657220616464726573732063616e6e6f74206265207a65726f006044820152606401610a6d565b336000818152602081815260409182902080546001600160a01b0319166001600160a01b0386169081179091558251938452908301527f8a68d2e6f304cf168bbe42336c9c1d160c10033f73e7d85b53222e812b239145910160405180910390a150565b610c90611800565b610c99826118b7565b610a4382826118bf565b6000610cad6119a7565b507f360894a13ba1a3210667c828492db98dca3e2076cc3735a920a3ca505d382bbc90565b60006109348261165a565b60007f80bb2b638cc20bc4d0a60d66940f3ab4a00c1d7b313497ca82fb0b4ab00793006001600160a01b038316610d43576040517f89c62b6400000000000000000000000000000000000000000000000000000000815260006004820152602401610a6d565b6001600160a01b039092166000908152600390920160205250604090205490565b610d6c6119f0565b610d766000611a64565b565b7f80bb2b638cc20bc4d0a60d66940f3ab4a00c1d7b313497ca82fb0b4ab007930180546060917f80bb2b638cc20bc4d0a60d66940f3ab4a00c1d7b313497ca82fb0b4ab00793009161096c90612821565b60086020528160005260406000208181548110610de557600080fd5b6000918252602090912001546001600160a01b03169150829050565b60008181526001602052604090206002810154610e605760405162461bcd60e51b815260206004820152601360248201527f6e6674207072696365206d7573742067742030000000000000000000000000006044820152606401610a6d565b60038101546001600160a01b0316610eba5760405162461bcd60e51b815260206004820152601960248201527f6e66742061646472657373206d757374206e6f74206e756c6c000000000000006044820152606401610a6d565b4281600401541015610f0e5760405162461bcd60e51b815260206004820152600b60248201527f6e66742068617320656e640000000000000000000000000000000000000000006044820152606401610a6d565b60646007548260020154610f229190612871565b610f2c919061289e565b6002820181905560038201546001600160a01b0316906108fc906103e890610f57906103b190612871565b610f61919061289e565b6040518115909202916000818181858888f19350505050158015610f89573d6000803e3d6000fd5b5060055460028201546001600160a01b03909116906108fc906103e890610fb290606490612871565b610fbc919061289e565b6040518115909202916000818181858888f19350505050158015610fe4573d6000803e3d6000fd5b5060035460028201546001600160a01b03909116906108fc906103e89061100e9061012c90612871565b611018919061289e565b6040518115909202916000818181858888f19350505050158015611040573d6000803e3d6000fd5b5060065460028201546001600160a01b03909116906108fc906103e89061106990603290612871565b611073919061289e565b6040518115909202916000818181858888f1935050505015801561109b573d6000803e3d6000fd5b50336000908152602081905260409020546001600160a01b0316158015906110ed57506110c66115e5565b33600090815260208181526040808320546001600160a01b03168352600990915290205410155b1561115b573360009081526020819052604090205460028201546001600160a01b03909116906108fc906103e89061112790606490612871565b611131919061289e565b6040518115909202916000818181858888f19350505050158015611159573d6000803e3d6000fd5b505b6003810180546001600160a01b031916339081179091556002820154600091825260058301602052604082208054919290916111989084906128b2565b90915550508054600382015460018301546040517f23b872dd0000000000000000000000000000000000000000000000000000000081526001600160a01b03928316600482015233602482015260448101919091529116906323b872dd90606401600060405180830381600087803b15801561121357600080fd5b505af1158015611227573d6000803e3d6000fd5b50503360008181526009602052604090819020429055519092507f0e54eff26401bf69b81b26f60bd85ef47f5d85275c1d268d84f68d6897431c47915061127a9085903490918252602082015260400190565b60405180910390a25050565b61128e6119f0565b610a438282611ad5565b610a43338383611aef565b6112ab6119f0565b600280546000916001918391826112c1836128c5565b909155508152602081019190915260400160002080546001600160a01b0386166001600160a01b03199182161782556001820185905560028201849055600382018054909116331790559050611319617080426128b2565b60048201556002547f6ff530872708bbb51bad8ea341564e4ea039807ad1331f61ab4c906a66875daf9061134f906001906128de565b604080519182526001600160a01b0387166020830152810185905260600160405180910390a150505050565b611386848484610a47565b610aea84848484611bcb565b7ff0c57e16840df040f15088dc2f81fe391c3923bec73e23a9662efc9c229c6a00805468010000000000000000810460ff16159067ffffffffffffffff166000811580156113dd5750825b905060008267ffffffffffffffff1660011480156113fa5750303b155b905081158015611408575080155b1561143f576040517ff92ee8a900000000000000000000000000000000000000000000000000000000815260040160405180910390fd5b845467ffffffffffffffff19166001178555831561147357845468ff00000000000000001916680100000000000000001785555b6114e76040518060400160405280600781526020017f4d79546f6b656e000000000000000000000000000000000000000000000000008152506040518060400160405280600381526020017f4d544b0000000000000000000000000000000000000000000000000000000000815250611cf4565b6114f086611d06565b6114f8611d17565b831561154357845468ff000000000000000019168555604051600181527fc7f505b2f371ae2175ee4913f4499e1f2633a7b5936321eed1cdaeb6115181d29060200160405180910390a15b505050505050565b60606115568261165a565b50600061159360408051808201909152600d81527f7777772e62616964752e636f6d00000000000000000000000000000000000000602082015290565b905060008151116115b357604051806020016040528060008152506115de565b806115bd84611d1f565b6040516020016115ce9291906128f1565b6040516020818303038152906040525b9392505050565b60006115f46201518042612920565b6115fe90426128de565b905090565b61160b6119f0565b6001600160a01b03811661164e576040517f1e4fbdf700000000000000000000000000000000000000000000000000000000815260006004820152602401610a6d565b61165781611a64565b50565b60008181527f80bb2b638cc20bc4d0a60d66940f3ab4a00c1d7b313497ca82fb0b4ab007930260205260408120546001600160a01b03168061093457604051637e27328960e01b815260048101849052602401610a6d565b610b0b8383836001611dbf565b60008281527f80bb2b638cc20bc4d0a60d66940f3ab4a00c1d7b313497ca82fb0b4ab007930260205260408120547f80bb2b638cc20bc4d0a60d66940f3ab4a00c1d7b313497ca82fb0b4ab0079300906001600160a01b039081169084161561172d5761172d818587611f3e565b6001600160a01b0381161561176d5761174a600086600080611dbf565b6001600160a01b0381166000908152600383016020526040902080546000190190555b6001600160a01b0386161561179e576001600160a01b03861660009081526003830160205260409020805460010190555b600085815260028301602052604080822080546001600160a01b0319166001600160a01b038a811691821790925591518893918516917fddf252ad1be2c89b69c2b068fc378daa952ba7f163c4a11628f55a4df523b3ef91a495945050505050565b306001600160a01b037f000000000000000000000000000000000000000000000000000000000000000016148061189957507f00000000000000000000000000000000000000000000000000000000000000006001600160a01b031661188d7f360894a13ba1a3210667c828492db98dca3e2076cc3735a920a3ca505d382bbc546001600160a01b031690565b6001600160a01b031614155b15610d765760405163703e46dd60e11b815260040160405180910390fd5b6116576119f0565b816001600160a01b03166352d1902d6040518163ffffffff1660e01b8152600401602060405180830381865afa925050508015611919575060408051601f3d908101601f1916820190925261191691810190612934565b60015b61194157604051634c9c8ce360e01b81526001600160a01b0383166004820152602401610a6d565b7f360894a13ba1a3210667c828492db98dca3e2076cc3735a920a3ca505d382bbc811461199d576040517faa1d49a400000000000000000000000000000000000000000000000000000000815260048101829052602401610a6d565b610b0b8383611fbb565b306001600160a01b037f00000000000000000000000000000000000000000000000000000000000000001614610d765760405163703e46dd60e11b815260040160405180910390fd5b33611a227f9016d09d72d40fdae2fd8ceac6b6234c7706214fd39c1cd1e609a0528c199300546001600160a01b031690565b6001600160a01b031614610d76576040517f118cdaa7000000000000000000000000000000000000000000000000000000008152336004820152602401610a6d565b7f9016d09d72d40fdae2fd8ceac6b6234c7706214fd39c1cd1e609a0528c19930080546001600160a01b031981166001600160a01b03848116918217845560405192169182907f8be0079c531659141344cd1fd0a4f28419497f9722a3daafe3b4186f6b6457e090600090a3505050565b610a43828260405180602001604052806000815250612011565b7f80bb2b638cc20bc4d0a60d66940f3ab4a00c1d7b313497ca82fb0b4ab00793006001600160a01b038316611b5b576040517f5b08ba180000000000000000000000000000000000000000000000000000000081526001600160a01b0384166004820152602401610a6d565b6001600160a01b038481166000818152600584016020908152604080832094881680845294825291829020805460ff191687151590811790915591519182527f17307eab39ab6107e8899845ad3d59bd9653f200f220920489ca2b5937696c31910160405180910390a350505050565b6001600160a01b0383163b15610aea57604051630a85bd0160e11b81526001600160a01b0384169063150b7a0290611c0d90339088908790879060040161294d565b6020604051808303816000875af1925050508015611c48575060408051601f3d908101601f19168201909252611c4591810190612989565b60015b611cb1573d808015611c76576040519150601f19603f3d011682016040523d82523d6000602084013e611c7b565b606091505b508051600003611ca957604051633250574960e11b81526001600160a01b0385166004820152602401610a6d565b805181602001fd5b6001600160e01b03198116630a85bd0160e11b14611ced57604051633250574960e11b81526001600160a01b0385166004820152602401610a6d565b5050505050565b611cfc612028565b610a43828261208f565b611d0e612028565b611657816120d2565b610d76612028565b60606000611d2c836120da565b600101905060008167ffffffffffffffff811115611d4c57611d4c612626565b6040519080825280601f01601f191660200182016040528015611d76576020820181803683370190505b5090508181016020015b600019017f3031323334353637383961626364656600000000000000000000000000000000600a86061a8153600a8504945084611d8057509392505050565b7f80bb2b638cc20bc4d0a60d66940f3ab4a00c1d7b313497ca82fb0b4ab00793008180611df457506001600160a01b03831615155b15611f0d576000611e048561165a565b90506001600160a01b03841615801590611e305750836001600160a01b0316816001600160a01b031614155b8015611e8157506001600160a01b0380821660009081527f80bb2b638cc20bc4d0a60d66940f3ab4a00c1d7b313497ca82fb0b4ab0079305602090815260408083209388168352929052205460ff16155b15611ec3576040517fa9fbf51f0000000000000000000000000000000000000000000000000000000081526001600160a01b0385166004820152602401610a6d565b8215611f0b5784866001600160a01b0316826001600160a01b03167f8c5be1e5ebec7d5bd14f71427d1e84f3dd0314c0f7b2291e5b200ac8c7c3b92560405160405180910390a45b505b600093845260040160205250506040902080546001600160a01b0319166001600160a01b0392909216919091179055565b611f498383836121bc565b610b0b576001600160a01b038316611f7757604051637e27328960e01b815260048101829052602401610a6d565b6040517f177e802f0000000000000000000000000000000000000000000000000000000081526001600160a01b038316600482015260248101829052604401610a6d565b611fc482612280565b6040516001600160a01b038316907fbc7cd75a20ee27fd9adebab32041f755214dbc6bffa90cc0225b39da2e5c2d3b90600090a280511561200957610b0b82826122f7565b610a4361236d565b61201b83836123a5565b610b0b6000848484611bcb565b7ff0c57e16840df040f15088dc2f81fe391c3923bec73e23a9662efc9c229c6a005468010000000000000000900460ff16610d76576040517fd7e6bcf800000000000000000000000000000000000000000000000000000000815260040160405180910390fd5b612097612028565b7f80bb2b638cc20bc4d0a60d66940f3ab4a00c1d7b313497ca82fb0b4ab0079300806120c384826129ee565b5060018101610aea83826129ee565b61160b612028565b6000807a184f03e93ff9f4daa797ed6e38ed64bf6a1f0100000000000000008310612123577a184f03e93ff9f4daa797ed6e38ed64bf6a1f010000000000000000830492506040015b6d04ee2d6d415b85acef8100000000831061214f576d04ee2d6d415b85acef8100000000830492506020015b662386f26fc10000831061216d57662386f26fc10000830492506010015b6305f5e1008310612185576305f5e100830492506008015b612710831061219957612710830492506004015b606483106121ab576064830492506002015b600a83106109345760010192915050565b60006001600160a01b038316158015906122785750826001600160a01b0316846001600160a01b0316148061223557506001600160a01b0380851660009081527f80bb2b638cc20bc4d0a60d66940f3ab4a00c1d7b313497ca82fb0b4ab0079305602090815260408083209387168352929052205460ff165b80612278575060008281527f80bb2b638cc20bc4d0a60d66940f3ab4a00c1d7b313497ca82fb0b4ab007930460205260409020546001600160a01b038481169116145b949350505050565b806001600160a01b03163b6000036122b657604051634c9c8ce360e01b81526001600160a01b0382166004820152602401610a6d565b7f360894a13ba1a3210667c828492db98dca3e2076cc3735a920a3ca505d382bbc80546001600160a01b0319166001600160a01b0392909216919091179055565b6060600080846001600160a01b0316846040516123149190612aae565b600060405180830381855af49150503d806000811461234f576040519150601f19603f3d011682016040523d82523d6000602084013e612354565b606091505b5091509150612364858383612423565b95945050505050565b3415610d76576040517fb398979f00000000000000000000000000000000000000000000000000000000815260040160405180910390fd5b6001600160a01b0382166123cf57604051633250574960e11b815260006004820152602401610a6d565b60006123dd838360006116bf565b90506001600160a01b03811615610b0b576040517f73c6ac6e00000000000000000000000000000000000000000000000000000000815260006004820152602401610a6d565b6060826124385761243382612498565b6115de565b815115801561244f57506001600160a01b0384163b155b15612491576040517f9996b3150000000000000000000000000000000000000000000000000000000081526001600160a01b0385166004820152602401610a6d565b50806115de565b8051156124a85780518082602001fd5b6040517fd6bda27500000000000000000000000000000000000000000000000000000000815260040160405180910390fd5b6001600160e01b03198116811461165757600080fd5b60006020828403121561250257600080fd5b81356115de816124da565b60005b83811015612528578181015183820152602001612510565b50506000910152565b6000815180845261254981602086016020860161250d565b601f01601f19169290920160200192915050565b6020815260006115de6020830184612531565b60006020828403121561258257600080fd5b5035919050565b80356001600160a01b03811681146125a057600080fd5b919050565b600080604083850312156125b857600080fd5b6125c183612589565b946020939093013593505050565b6000806000606084860312156125e457600080fd5b6125ed84612589565b92506125fb60208501612589565b9150604084013590509250925092565b60006020828403121561261d57600080fd5b6115de82612589565b634e487b7160e01b600052604160045260246000fd5b600082601f83011261264d57600080fd5b813567ffffffffffffffff8082111561266857612668612626565b604051601f8301601f19908116603f0116810190828211818310171561269057612690612626565b816040528381528660208588010111156126a957600080fd5b836020870160208301376000602085830101528094505050505092915050565b600080604083850312156126dc57600080fd5b6126e583612589565b9150602083013567ffffffffffffffff81111561270157600080fd5b61270d8582860161263c565b9150509250929050565b6000806040838503121561272a57600080fd5b61273383612589565b91506020830135801515811461274857600080fd5b809150509250929050565b60008060006060848603121561276857600080fd5b61277184612589565b95602085013595506040909401359392505050565b6000806000806080858703121561279c57600080fd5b6127a585612589565b93506127b360208601612589565b925060408501359150606085013567ffffffffffffffff8111156127d657600080fd5b6127e28782880161263c565b91505092959194509250565b6000806040838503121561280157600080fd5b61280a83612589565b915061281860208401612589565b90509250929050565b600181811c9082168061283557607f821691505b60208210810361285557634e487b7160e01b600052602260045260246000fd5b50919050565b634e487b7160e01b600052601160045260246000fd5b80820281158282048414176109345761093461285b565b634e487b7160e01b600052601260045260246000fd5b6000826128ad576128ad612888565b500490565b808201808211156109345761093461285b565b6000600182016128d7576128d761285b565b5060010190565b818103818111156109345761093461285b565b6000835161290381846020880161250d565b83519083019061291781836020880161250d565b01949350505050565b60008261292f5761292f612888565b500690565b60006020828403121561294657600080fd5b5051919050565b60006001600160a01b0380871683528086166020840152508360408301526080606083015261297f6080830184612531565b9695505050505050565b60006020828403121561299b57600080fd5b81516115de816124da565b601f821115610b0b576000816000526020600020601f850160051c810160208610156129cf5750805b601f850160051c820191505b81811015611543578281556001016129db565b815167ffffffffffffffff811115612a0857612a08612626565b612a1c81612a168454612821565b846129a6565b602080601f831160018114612a515760008415612a395750858301515b600019600386901b1c1916600185901b178555611543565b600085815260208120601f198616915b82811015612a8057888601518255948401946001909101908401612a61565b5085821015612a9e5787850151600019600388901b60f8161c191681555b5050505050600190811b01905550565b60008251612ac081846020870161250d565b919091019291505056fea2646970667358221220d956b47b2160ec303ca310e55798ae2a81a21db5aaa6e7d49b7aa896a7fb42fe64736f6c63430008190033",
  "linkReferences": {},
  "deployedLinkReferences": {}
}