{
  "_format": "hh-sol-artifact-1",
  "contractName": "BT2",
  "sourceName": "contracts/BT2.sol",
  "abi": [
    {
      "inputs": [],
      "stateMutability": "nonpayable",
      "type": "constructor"
    },
    {
      "anonymous": false,
      "inputs": [
        {
          "indexed": false,
          "internalType": "uint32",
          "name": "_blockToUnlockLiquidity",
          "type": "uint32"
        },
        {
          "indexed": false,
          "internalType": "uint256",
          "name": "value",
          "type": "uint256"
        }
      ],
      "name": "AddLiquidity",
      "type": "event"
    },
    {
      "anonymous": false,
      "inputs": [
        {
          "indexed": false,
          "internalType": "uint256",
          "name": "value",
          "type": "uint256"
        }
      ],
      "name": "RemoveLiquidity",
      "type": "event"
    },
    {
      "anonymous": false,
      "inputs": [
        {
          "indexed": true,
          "internalType": "address",
          "name": "sender",
          "type": "address"
        },
        {
          "indexed": false,
          "internalType": "uint256",
          "name": "amount0In",
          "type": "uint256"
        },
        {
          "indexed": false,
          "internalType": "uint256",
          "name": "amount1In",
          "type": "uint256"
        },
        {
          "indexed": false,
          "internalType": "uint256",
          "name": "amount0Out",
          "type": "uint256"
        },
        {
          "indexed": false,
          "internalType": "uint256",
          "name": "amount1Out",
          "type": "uint256"
        }
      ],
      "name": "Swap",
      "type": "event"
    },
    {
      "anonymous": false,
      "inputs": [
        {
          "indexed": true,
          "internalType": "address",
          "name": "from",
          "type": "address"
        },
        {
          "indexed": true,
          "internalType": "address",
          "name": "to",
          "type": "address"
        },
        {
          "indexed": false,
          "internalType": "uint256",
          "name": "value",
          "type": "uint256"
        }
      ],
      "name": "Transfer",
      "type": "event"
    },
    {
      "inputs": [],
      "name": "_fireStopAmount",
      "outputs": [
        {
          "internalType": "uint256",
          "name": "",
          "type": "uint256"
        }
      ],
      "stateMutability": "view",
      "type": "function"
    },
    {
      "inputs": [],
      "name": "_maxSellAmount",
      "outputs": [
        {
          "internalType": "uint256",
          "name": "",
          "type": "uint256"
        }
      ],
      "stateMutability": "view",
      "type": "function"
    },
    {
      "inputs": [],
      "name": "_maxWallet",
      "outputs": [
        {
          "internalType": "uint256",
          "name": "",
          "type": "uint256"
        }
      ],
      "stateMutability": "view",
      "type": "function"
    },
    {
      "inputs": [],
      "name": "_nodeLimitAmount",
      "outputs": [
        {
          "internalType": "uint256",
          "name": "",
          "type": "uint256"
        }
      ],
      "stateMutability": "view",
      "type": "function"
    },
    {
      "inputs": [
        {
          "internalType": "address",
          "name": "account",
          "type": "address"
        }
      ],
      "name": "balanceOf",
      "outputs": [
        {
          "internalType": "uint256",
          "name": "",
          "type": "uint256"
        }
      ],
      "stateMutability": "view",
      "type": "function"
    },
    {
      "inputs": [
        {
          "internalType": "uint256",
          "name": "",
          "type": "uint256"
        }
      ],
      "name": "communityAddress",
      "outputs": [
        {
          "internalType": "address",
          "name": "",
          "type": "address"
        }
      ],
      "stateMutability": "view",
      "type": "function"
    },
    {
      "inputs": [],
      "name": "communityBonus",
      "outputs": [
        {
          "internalType": "uint256",
          "name": "",
          "type": "uint256"
        }
      ],
      "stateMutability": "view",
      "type": "function"
    },
    {
      "inputs": [
        {
          "internalType": "address",
          "name": "",
          "type": "address"
        }
      ],
      "name": "communityCount",
      "outputs": [
        {
          "internalType": "uint256",
          "name": "",
          "type": "uint256"
        }
      ],
      "stateMutability": "view",
      "type": "function"
    },
    {
      "inputs": [],
      "name": "decimals",
      "outputs": [
        {
          "internalType": "uint8",
          "name": "",
          "type": "uint8"
        }
      ],
      "stateMutability": "view",
      "type": "function"
    },
    {
      "inputs": [],
      "name": "ecoAddress",
      "outputs": [
        {
          "internalType": "address",
          "name": "",
          "type": "address"
        }
      ],
      "stateMutability": "view",
      "type": "function"
    },
    {
      "inputs": [
        {
          "internalType": "bool",
          "name": "_maxWalletEnable",
          "type": "bool"
        }
      ],
      "name": "enableMaxWallet",
      "outputs": [],
      "stateMutability": "nonpayable",
      "type": "function"
    },
    {
      "inputs": [],
      "name": "feeAddress",
      "outputs": [
        {
          "internalType": "address",
          "name": "",
          "type": "address"
        }
      ],
      "stateMutability": "view",
      "type": "function"
    },
    {
      "inputs": [
        {
          "internalType": "uint256",
          "name": "value",
          "type": "uint256"
        },
        {
          "internalType": "bool",
          "name": "_buy",
          "type": "bool"
        }
      ],
      "name": "getAmountOut",
      "outputs": [
        {
          "internalType": "uint256",
          "name": "",
          "type": "uint256"
        }
      ],
      "stateMutability": "view",
      "type": "function"
    },
    {
      "inputs": [],
      "name": "getReserves",
      "outputs": [
        {
          "internalType": "uint256",
          "name": "",
          "type": "uint256"
        },
        {
          "internalType": "uint256",
          "name": "",
          "type": "uint256"
        }
      ],
      "stateMutability": "view",
      "type": "function"
    },
    {
      "inputs": [],
      "name": "lastRewardAt",
      "outputs": [
        {
          "internalType": "uint256",
          "name": "",
          "type": "uint256"
        }
      ],
      "stateMutability": "view",
      "type": "function"
    },
    {
      "inputs": [],
      "name": "liquidityProvider",
      "outputs": [
        {
          "internalType": "address",
          "name": "",
          "type": "address"
        }
      ],
      "stateMutability": "view",
      "type": "function"
    },
    {
      "inputs": [],
      "name": "marketAddress",
      "outputs": [
        {
          "internalType": "address",
          "name": "",
          "type": "address"
        }
      ],
      "stateMutability": "view",
      "type": "function"
    },
    {
      "inputs": [],
      "name": "maxWalletEnable",
      "outputs": [
        {
          "internalType": "bool",
          "name": "",
          "type": "bool"
        }
      ],
      "stateMutability": "view",
      "type": "function"
    },
    {
      "inputs": [],
      "name": "name",
      "outputs": [
        {
          "internalType": "string",
          "name": "",
          "type": "string"
        }
      ],
      "stateMutability": "view",
      "type": "function"
    },
    {
      "inputs": [
        {
          "internalType": "uint256",
          "name": "",
          "type": "uint256"
        }
      ],
      "name": "nodeAddress",
      "outputs": [
        {
          "internalType": "address",
          "name": "",
          "type": "address"
        }
      ],
      "stateMutability": "view",
      "type": "function"
    },
    {
      "inputs": [],
      "name": "owner",
      "outputs": [
        {
          "internalType": "address",
          "name": "",
          "type": "address"
        }
      ],
      "stateMutability": "view",
      "type": "function"
    },
    {
      "inputs": [],
      "name": "presaleEnable",
      "outputs": [
        {
          "internalType": "bool",
          "name": "",
          "type": "bool"
        }
      ],
      "stateMutability": "view",
      "type": "function"
    },
    {
      "inputs": [
        {
          "internalType": "address",
          "name": "",
          "type": "address"
        }
      ],
      "name": "relation",
      "outputs": [
        {
          "internalType": "address",
          "name": "",
          "type": "address"
        }
      ],
      "stateMutability": "view",
      "type": "function"
    },
    {
      "inputs": [
        {
          "internalType": "uint256",
          "name": "index",
          "type": "uint256"
        }
      ],
      "name": "removeNodeAddress",
      "outputs": [],
      "stateMutability": "nonpayable",
      "type": "function"
    },
    {
      "inputs": [],
      "name": "renounceOwnership",
      "outputs": [],
      "stateMutability": "nonpayable",
      "type": "function"
    },
    {
      "inputs": [
        {
          "internalType": "uint256",
          "name": "_maxWallet_",
          "type": "uint256"
        }
      ],
      "name": "setMaxWallet",
      "outputs": [],
      "stateMutability": "nonpayable",
      "type": "function"
    },
    {
      "inputs": [],
      "name": "symbol",
      "outputs": [
        {
          "internalType": "string",
          "name": "",
          "type": "string"
        }
      ],
      "stateMutability": "view",
      "type": "function"
    },
    {
      "inputs": [],
      "name": "totalSupply",
      "outputs": [
        {
          "internalType": "uint256",
          "name": "",
          "type": "uint256"
        }
      ],
      "stateMutability": "view",
      "type": "function"
    },
    {
      "inputs": [
        {
          "internalType": "address",
          "name": "to",
          "type": "address"
        },
        {
          "internalType": "uint256",
          "name": "value",
          "type": "uint256"
        }
      ],
      "name": "transfer",
      "outputs": [
        {
          "internalType": "bool",
          "name": "",
          "type": "bool"
        }
      ],
      "stateMutability": "nonpayable",
      "type": "function"
    },
    {
      "stateMutability": "payable",
      "type": "receive"
    }
  ],
  "bytecode": "0x60806040526014805460ff1916905567015fb7f9b8c380006016553480156200002757600080fd5b5060405180604001604052806004815260200163151154d560e21b81525060405180604001604052806004815260200163151154d560e21b81525060165482600690816200007691906200021f565b5060076200008583826200021f565b506001555050681043561a882930000060025566038d7ea4c68000600555652d79883d2000600381905560105565048c27395000600455600880546001600160a01b03199081163317909155600b805482167398a8790028c6476b740be640627a62496e5d616b1781556009805460ff60a01b1916600160a01b179055306000908152602081905260408082206627147114878000905591546001600160a01b0316815220670138a388a43c00009055600a80548216737a6ca6a66b7ca223ecd10ef837895f7a32e902d4179055600c805490911673bedddae2062f0b573ec72562f88da141a67b70b2179055620002eb565b634e487b7160e01b600052604160045260246000fd5b600181811c90821680620001a357607f821691505b602082108103620001c457634e487b7160e01b600052602260045260246000fd5b50919050565b601f8211156200021a576000816000526020600020601f850160051c81016020861015620001f55750805b601f850160051c820191505b81811015620002165782815560010162000201565b5050505b505050565b81516001600160401b038111156200023b576200023b62000178565b62000253816200024c84546200018e565b84620001ca565b602080601f8311600181146200028b5760008415620002725750858301515b600019600386901b1c1916600185901b17855562000216565b600085815260208120601f198616915b82811015620002bc578886015182559484019460019091019084016200029b565b5085821015620002db5787850151600019600388901b60f8161c191681555b5050505050600190811b01905550565b61171280620002fb6000396000f3fe6080604052600436106101c65760003560e01c80637cca52fe116100f7578063ae19139e11610095578063dc54150411610064578063dc54150414610533578063e98533b814610549578063f2e1562814610569578063f3e019421461057f57600080fd5b8063ae19139e146104a7578063b74de591146104c7578063d0943e17146104dd578063d7a05f05146104fd57600080fd5b80638da5cb5b116100d15780638da5cb5b14610432578063956236411461045257806395d89b4114610472578063a9059cbb1461048757600080fd5b80637cca52fe146103ec5780637ec18cf61461040257806382247ec01461041c57600080fd5b8063412753581161016457806368961ecb1161013e57806368961ecb1461035457806370a0823114610374578063715018a6146103aa57806378554a4f146103bf57600080fd5b806341275358146102dc5780635b8bec55146103145780635d0044ca1461033457600080fd5b806312a54b62116101a057806312a54b621461026457806318160ddd14610295578063313ce567146102aa5780633cd691d5146102c657600080fd5b806306fdde03146101da5780630902f1ac1461020557806311106ee21461023657600080fd5b366101d5576101d361059f565b005b600080fd5b3480156101e657600080fd5b506101ef6107e1565b6040516101fc91906113dd565b60405180910390f35b34801561021157600080fd5b50600254306000908152602081815260409182902054825193845290830152016101fc565b34801561024257600080fd5b50610256610251366004611441565b610873565b6040519081526020016101fc565b34801561027057600080fd5b5060095461028590600160a01b900460ff1681565b60405190151581526020016101fc565b3480156102a157600080fd5b50600154610256565b3480156102b657600080fd5b50604051600881526020016101fc565b3480156102d257600080fd5b5061025660105481565b3480156102e857600080fd5b50600c546102fc906001600160a01b031681565b6040516001600160a01b0390911681526020016101fc565b34801561032057600080fd5b506009546102fc906001600160a01b031681565b34801561034057600080fd5b506101d361034f36600461146d565b6108dd565b34801561036057600080fd5b50600b546102fc906001600160a01b031681565b34801561038057600080fd5b5061025661038f36600461149d565b6001600160a01b031660009081526020819052604090205490565b3480156103b657600080fd5b506101d361093c565b3480156103cb57600080fd5b506102566103da36600461149d565b60126020526000908152604090205481565b3480156103f857600080fd5b5061025660045481565b34801561040e57600080fd5b506014546102859060ff1681565b34801561042857600080fd5b5061025660035481565b34801561043e57600080fd5b506008546102fc906001600160a01b031681565b34801561045e57600080fd5b50600a546102fc906001600160a01b031681565b34801561047e57600080fd5b506101ef6109b5565b34801561049357600080fd5b506102856104a23660046114bf565b6109c4565b3480156104b357600080fd5b506101d36104c23660046114e9565b610a8d565b3480156104d357600080fd5b5061025660055481565b3480156104e957600080fd5b506102fc6104f836600461146d565b610b20565b34801561050957600080fd5b506102fc61051836600461149d565b6011602052600090815260409020546001600160a01b031681565b34801561053f57600080fd5b50610256600f5481565b34801561055557600080fd5b506102fc61056436600461146d565b610b4a565b34801561057557600080fd5b5061025660135481565b34801561058b57600080fd5b506101d361059a36600461146d565b610b5a565b336000908152601560205260409020544363ffffffff909116036106305760405162461bcd60e51b815260206004820152603160248201527f596f752063616e2774206d616b652074776f207472616e73616374696f6e732060448201527f696e207468652073616d6520626c6f636b00000000000000000000000000000060648201526084015b60405180910390fd5b336000908152601560205260408120805463ffffffff19164363ffffffff1617905560025434919061066390839061151a565b3060009081526020819052604090205461067d908461152d565b6106879190611544565b600954909150600160a01b900460ff161561070757600354336000908152602081905260409020546106b9908361151a565b11156107075760405162461bcd60e51b815260206004820152601360248201527f4d61782077616c6c6574206578636565646564000000000000000000000000006044820152606401610627565b6107283033606461071985605f61152d565b6107239190611544565b610c17565b6103e8610737836103d961152d565b6107419190611544565b60026000828254610752919061151a565b90915550610761905034610d4a565b61076a81610d9d565b6107743382610ec4565b61077d81610f0a565b61078633610f3e565b61078f81610fbb565b60408051348152600060208201819052918101919091526060810182905233907f49926bbebe8474393f434dfa4f78694c0923efa07d19f2284518bfabd06eb737906080015b60405180910390a25050565b6060600680546107f090611566565b80601f016020809104026020016040519081016040528092919081815260200182805461081c90611566565b80156108695780601f1061083e57610100808354040283529160200191610869565b820191906000526020600020905b81548152906001019060200180831161084c57829003601f168201915b5050505050905090565b6000806000610892600254306000908152602081905260409020549091565b9150915083156108c3576108a6858361151a565b6108b0828761152d565b6108ba9190611544565b925050506108d7565b6108cd858261151a565b6108b0838761152d565b92915050565b6008546001600160a01b031633146109375760405162461bcd60e51b815260206004820181905260248201527f4f776e61626c653a2063616c6c6572206973206e6f7420746865206f776e65726044820152606401610627565b600355565b6008546001600160a01b031633146109965760405162461bcd60e51b815260206004820181905260248201527f4f776e61626c653a2063616c6c6572206973206e6f7420746865206f776e65726044820152606401610627565b6008805473ffffffffffffffffffffffffffffffffffffffff19169055565b6060600780546107f090611566565b6000306001600160a01b038416036109e4576109df82611030565b610a84565b60006109f2600660086115a0565b6109fd90600a61168e565b610a0890600161152d565b336000908152602081905260409020549091508303610a645733600090815260208190526040902054811015610a5a5733600090815260208190526040902054610a5390829061169d565b9250610a64565b60019150506108d7565b610a6f338585610c17565b610a7884610f3e565b610a8233856112fd565b505b50600192915050565b6008546001600160a01b03163314610ae75760405162461bcd60e51b815260206004820181905260248201527f4f776e61626c653a2063616c6c6572206973206e6f7420746865206f776e65726044820152606401610627565b60098054911515600160a01b027fffffffffffffffffffffff00ffffffffffffffffffffffffffffffffffffffff909216919091179055565b600e8181548110610b3057600080fd5b6000918252602090912001546001600160a01b0316905081565b600d8181548110610b3057600080fd5b600d8054610b6a9060019061169d565b81548110610b7a57610b7a6116b0565b600091825260209091200154600d80546001600160a01b039092169183908110610ba657610ba66116b0565b9060005260206000200160006101000a8154816001600160a01b0302191690836001600160a01b03160217905550600d805480610be557610be56116c6565b6000828152602090208101600019908101805473ffffffffffffffffffffffffffffffffffffffff1916905501905550565b6001600160a01b038316600090815260208190526040902054811115610ca55760405162461bcd60e51b815260206004820152602660248201527f45524332303a207472616e7366657220616d6f756e742065786365656473206260448201527f616c616e636500000000000000000000000000000000000000000000000000006064820152608401610627565b6001600160a01b038084166000908152602081905260409020805483900390558216610cd957600180548290039055610cf8565b6001600160a01b03821660009081526020819052604090208054820190555b816001600160a01b0316836001600160a01b03167fddf252ad1be2c89b69c2b068fc378daa952ba7f163c4a11628f55a4df523b3ef83604051610d3d91815260200190565b60405180910390a3505050565b600a546001600160a01b03166108fc6103e8610d6784600f61152d565b610d719190611544565b6040518115909202916000818181858888f19350505050158015610d99573d6000803e3d6000fd5b5050565b60006103e8610dad83600f61152d565b610db79190611544565b600d54909150600003610ddc57600c54610d999030906001600160a01b031683610c17565b600d54600090610dec9083611544565b905060005b600d54811015610ebe5760006001600160a01b0316600d8281548110610e1957610e196116b0565b6000918252602090912001546001600160a01b031614610eb657601054600080600d8481548110610e4c57610e4c6116b0565b60009182526020808320909101546001600160a01b0316835282019290925260400190205410610ead57610ea830600d8381548110610e8d57610e8d6116b0565b6000918252602090912001546001600160a01b031684610c17565b610eb6565b610eb681610b5a565b600101610df1565b50505050565b6001600160a01b038083166000908152601160205260409020541680610ef25750600c546001600160a01b03165b610f0530826103e861071986600a61152d565b505050565b60006064610f1983600561152d565b610f239190611544565b600b54909150610d999030906001600160a01b031683610c17565b6010546001600160a01b03821660009081526020819052604090205410610fb857600d80546001810182556000919091527fd7b6990105719101dabeb77144f2a3385c8033acd3af97e9423a695e81ad1eb501805473ffffffffffffffffffffffffffffffffffffffff19166001600160a01b0383161790555b50565b60006103e8610fcb83600a61152d565b610fd59190611544565b905060055481600154610fe8919061169d565b101561100157600554600154610ffe919061169d565b90505b60008111801561101f57503060009081526020819052604090205481105b15610d9957610d9930600083610c17565b336000908152601560205260409020544363ffffffff909116036110bc5760405162461bcd60e51b815260206004820152603160248201527f596f752063616e2774206d616b652074776f207472616e73616374696f6e732060448201527f696e207468652073616d6520626c6f636b0000000000000000000000000000006064820152608401610627565b336000908152601560205260409020805463ffffffff19164363ffffffff161790556004548111156111305760405162461bcd60e51b815260206004820152600e60248201527f4d6178204c696d69742053656c6c0000000000000000000000000000000000006044820152606401610627565b3060009081526020819052604081205461114b90839061151a565b600254611158908461152d565b6111629190611544565b9050600081116111b45760405162461bcd60e51b815260206004820152601360248201527f53656c6c20616d6f756e7420746f6f206c6f77000000000000000000000000006044820152606401610627565b8060025410156112065760405162461bcd60e51b815260206004820152601c60248201527f496e73756666696369656e7420424e4220696e207265736572766573000000006044820152606401610627565b611211333084610c17565b336108fc606461122284605f61152d565b61122c9190611544565b6040518115909202916000818181858888f19350505050158015611254573d6000803e3d6000fd5b506103e8611264826103c561152d565b61126e9190611544565b6002600082825461127f919061169d565b9091555061128e905081610d4a565b61129782610d9d565b6112a13383610ec4565b6112aa82610f0a565b6112b382610fbb565b60408051600080825260208201859052918101839052606081019190915233907f49926bbebe8474393f434dfa4f78694c0923efa07d19f2284518bfabd06eb737906080016107d5565b6001600160a01b03818116600090815260116020526040902054161580156113375750806001600160a01b0316826001600160a01b031614155b801561134c57506001600160a01b0381163014155b80156113665750600a546001600160a01b03828116911614155b80156113805750600b546001600160a01b03828116911614155b801561139a5750600c546001600160a01b03828116911614155b15610d99576001600160a01b039081166000908152601160205260409020805473ffffffffffffffffffffffffffffffffffffffff191692909116919091179055565b60006020808352835180602085015260005b8181101561140b578581018301518582016040015282016113ef565b506000604082860101526040601f19601f8301168501019250505092915050565b8035801515811461143c57600080fd5b919050565b6000806040838503121561145457600080fd5b823591506114646020840161142c565b90509250929050565b60006020828403121561147f57600080fd5b5035919050565b80356001600160a01b038116811461143c57600080fd5b6000602082840312156114af57600080fd5b6114b882611486565b9392505050565b600080604083850312156114d257600080fd5b6114db83611486565b946020939093013593505050565b6000602082840312156114fb57600080fd5b6114b88261142c565b634e487b7160e01b600052601160045260246000fd5b808201808211156108d7576108d7611504565b80820281158282048414176108d7576108d7611504565b60008261156157634e487b7160e01b600052601260045260246000fd5b500490565b600181811c9082168061157a57607f821691505b60208210810361159a57634e487b7160e01b600052602260045260246000fd5b50919050565b60ff82811682821603908111156108d7576108d7611504565b600181815b808511156115f45781600019048211156115da576115da611504565b808516156115e757918102915b93841c93908002906115be565b509250929050565b60008261160b575060016108d7565b81611618575060006108d7565b8160018114610a5a57600281036116455760ff84111561163a5761163a611504565b50506001821b6108d7565b5060208310610133831016604e8410600b8410161715611668575081810a6108d7565b61167283836115b9565b806000190482111561168657611686611504565b029392505050565b60006114b860ff8416836115fc565b818103818111156108d7576108d7611504565b634e487b7160e01b600052603260045260246000fd5b634e487b7160e01b600052603160045260246000fdfea2646970667358221220a97b123b1b0acb245582945d5b318ee02fdbaec4b05662e2da5fa2e6535ad98464736f6c63430008180033",
  "linkReferences": {},
  "deployedLinkReferences": {}
}