{
  "_format": "hh-sol-artifact-1",
  "contractName": "BT2",
  "sourceName": "contracts/BT2.sol",
  "abi": [
    {
      "inputs": [],
      "stateMutability": "nonpayable",
      "type": "constructor"
    },
    {
      "inputs": [
        {
          "internalType": "address",
          "name": "target",
          "type": "address"
        }
      ],
      "name": "AddressEmptyCode",
      "type": "error"
    },
    {
      "inputs": [
        {
          "internalType": "address",
          "name": "implementation",
          "type": "address"
        }
      ],
      "name": "ERC1967InvalidImplementation",
      "type": "error"
    },
    {
      "inputs": [],
      "name": "ERC1967NonPayable",
      "type": "error"
    },
    {
      "inputs": [
        {
          "internalType": "address",
          "name": "spender",
          "type": "address"
        },
        {
          "internalType": "uint256",
          "name": "allowance",
          "type": "uint256"
        },
        {
          "internalType": "uint256",
          "name": "needed",
          "type": "uint256"
        }
      ],
      "name": "ERC20InsufficientAllowance",
      "type": "error"
    },
    {
      "inputs": [
        {
          "internalType": "address",
          "name": "sender",
          "type": "address"
        },
        {
          "internalType": "uint256",
          "name": "balance",
          "type": "uint256"
        },
        {
          "internalType": "uint256",
          "name": "needed",
          "type": "uint256"
        }
      ],
      "name": "ERC20InsufficientBalance",
      "type": "error"
    },
    {
      "inputs": [
        {
          "internalType": "address",
          "name": "approver",
          "type": "address"
        }
      ],
      "name": "ERC20InvalidApprover",
      "type": "error"
    },
    {
      "inputs": [
        {
          "internalType": "address",
          "name": "receiver",
          "type": "address"
        }
      ],
      "name": "ERC20InvalidReceiver",
      "type": "error"
    },
    {
      "inputs": [
        {
          "internalType": "address",
          "name": "sender",
          "type": "address"
        }
      ],
      "name": "ERC20InvalidSender",
      "type": "error"
    },
    {
      "inputs": [
        {
          "internalType": "address",
          "name": "spender",
          "type": "address"
        }
      ],
      "name": "ERC20InvalidSpender",
      "type": "error"
    },
    {
      "inputs": [],
      "name": "FailedInnerCall",
      "type": "error"
    },
    {
      "inputs": [],
      "name": "InvalidInitialization",
      "type": "error"
    },
    {
      "inputs": [],
      "name": "NotInitializing",
      "type": "error"
    },
    {
      "inputs": [
        {
          "internalType": "address",
          "name": "owner",
          "type": "address"
        }
      ],
      "name": "OwnableInvalidOwner",
      "type": "error"
    },
    {
      "inputs": [
        {
          "internalType": "address",
          "name": "account",
          "type": "address"
        }
      ],
      "name": "OwnableUnauthorizedAccount",
      "type": "error"
    },
    {
      "inputs": [],
      "name": "UUPSUnauthorizedCallContext",
      "type": "error"
    },
    {
      "inputs": [
        {
          "internalType": "bytes32",
          "name": "slot",
          "type": "bytes32"
        }
      ],
      "name": "UUPSUnsupportedProxiableUUID",
      "type": "error"
    },
    {
      "anonymous": false,
      "inputs": [
        {
          "indexed": false,
          "internalType": "uint32",
          "name": "_blockToUnlockLiquidity",
          "type": "uint32"
        },
        {
          "indexed": false,
          "internalType": "uint256",
          "name": "value",
          "type": "uint256"
        }
      ],
      "name": "AddLiquidity",
      "type": "event"
    },
    {
      "anonymous": false,
      "inputs": [
        {
          "indexed": true,
          "internalType": "address",
          "name": "owner",
          "type": "address"
        },
        {
          "indexed": true,
          "internalType": "address",
          "name": "spender",
          "type": "address"
        },
        {
          "indexed": false,
          "internalType": "uint256",
          "name": "value",
          "type": "uint256"
        }
      ],
      "name": "Approval",
      "type": "event"
    },
    {
      "anonymous": false,
      "inputs": [
        {
          "indexed": false,
          "internalType": "uint64",
          "name": "version",
          "type": "uint64"
        }
      ],
      "name": "Initialized",
      "type": "event"
    },
    {
      "anonymous": false,
      "inputs": [
        {
          "indexed": true,
          "internalType": "address",
          "name": "previousOwner",
          "type": "address"
        },
        {
          "indexed": true,
          "internalType": "address",
          "name": "newOwner",
          "type": "address"
        }
      ],
      "name": "OwnershipTransferred",
      "type": "event"
    },
    {
      "anonymous": false,
      "inputs": [
        {
          "indexed": true,
          "internalType": "address",
          "name": "sender",
          "type": "address"
        },
        {
          "indexed": false,
          "internalType": "uint256",
          "name": "value",
          "type": "uint256"
        }
      ],
      "name": "Pledge",
      "type": "event"
    },
    {
      "anonymous": false,
      "inputs": [
        {
          "indexed": false,
          "internalType": "uint256",
          "name": "value",
          "type": "uint256"
        }
      ],
      "name": "RemoveLiquidity",
      "type": "event"
    },
    {
      "anonymous": false,
      "inputs": [
        {
          "indexed": true,
          "internalType": "address",
          "name": "sender",
          "type": "address"
        },
        {
          "indexed": false,
          "internalType": "uint256",
          "name": "value",
          "type": "uint256"
        }
      ],
      "name": "RemovePledge",
      "type": "event"
    },
    {
      "anonymous": false,
      "inputs": [
        {
          "indexed": true,
          "internalType": "address",
          "name": "sender",
          "type": "address"
        },
        {
          "indexed": false,
          "internalType": "uint256",
          "name": "amount0In",
          "type": "uint256"
        },
        {
          "indexed": false,
          "internalType": "uint256",
          "name": "amount1In",
          "type": "uint256"
        },
        {
          "indexed": false,
          "internalType": "uint256",
          "name": "amount0Out",
          "type": "uint256"
        },
        {
          "indexed": false,
          "internalType": "uint256",
          "name": "amount1Out",
          "type": "uint256"
        }
      ],
      "name": "Swap",
      "type": "event"
    },
    {
      "anonymous": false,
      "inputs": [
        {
          "indexed": true,
          "internalType": "address",
          "name": "from",
          "type": "address"
        },
        {
          "indexed": true,
          "internalType": "address",
          "name": "to",
          "type": "address"
        },
        {
          "indexed": false,
          "internalType": "uint256",
          "name": "value",
          "type": "uint256"
        }
      ],
      "name": "Transfer",
      "type": "event"
    },
    {
      "anonymous": false,
      "inputs": [
        {
          "indexed": true,
          "internalType": "address",
          "name": "implementation",
          "type": "address"
        }
      ],
      "name": "Upgraded",
      "type": "event"
    },
    {
      "inputs": [],
      "name": "UPGRADE_INTERFACE_VERSION",
      "outputs": [
        {
          "internalType": "string",
          "name": "",
          "type": "string"
        }
      ],
      "stateMutability": "view",
      "type": "function"
    },
    {
      "inputs": [],
      "name": "_fireStopAmount",
      "outputs": [
        {
          "internalType": "uint256",
          "name": "",
          "type": "uint256"
        }
      ],
      "stateMutability": "view",
      "type": "function"
    },
    {
      "inputs": [],
      "name": "_maxSellAmount",
      "outputs": [
        {
          "internalType": "uint256",
          "name": "",
          "type": "uint256"
        }
      ],
      "stateMutability": "view",
      "type": "function"
    },
    {
      "inputs": [],
      "name": "_maxWallet",
      "outputs": [
        {
          "internalType": "uint256",
          "name": "",
          "type": "uint256"
        }
      ],
      "stateMutability": "view",
      "type": "function"
    },
    {
      "inputs": [],
      "name": "_nodeLimitAmount",
      "outputs": [
        {
          "internalType": "uint256",
          "name": "",
          "type": "uint256"
        }
      ],
      "stateMutability": "view",
      "type": "function"
    },
    {
      "inputs": [
        {
          "internalType": "address",
          "name": "owner",
          "type": "address"
        },
        {
          "internalType": "address",
          "name": "spender",
          "type": "address"
        }
      ],
      "name": "allowance",
      "outputs": [
        {
          "internalType": "uint256",
          "name": "",
          "type": "uint256"
        }
      ],
      "stateMutability": "view",
      "type": "function"
    },
    {
      "inputs": [
        {
          "internalType": "address",
          "name": "spender",
          "type": "address"
        },
        {
          "internalType": "uint256",
          "name": "value",
          "type": "uint256"
        }
      ],
      "name": "approve",
      "outputs": [
        {
          "internalType": "bool",
          "name": "",
          "type": "bool"
        }
      ],
      "stateMutability": "nonpayable",
      "type": "function"
    },
    {
      "inputs": [
        {
          "internalType": "address",
          "name": "account",
          "type": "address"
        }
      ],
      "name": "balanceOf",
      "outputs": [
        {
          "internalType": "uint256",
          "name": "",
          "type": "uint256"
        }
      ],
      "stateMutability": "view",
      "type": "function"
    },
    {
      "inputs": [
        {
          "internalType": "uint256",
          "name": "",
          "type": "uint256"
        }
      ],
      "name": "communityAddress",
      "outputs": [
        {
          "internalType": "address",
          "name": "",
          "type": "address"
        }
      ],
      "stateMutability": "view",
      "type": "function"
    },
    {
      "inputs": [],
      "name": "communityBonus",
      "outputs": [
        {
          "internalType": "uint256",
          "name": "",
          "type": "uint256"
        }
      ],
      "stateMutability": "view",
      "type": "function"
    },
    {
      "inputs": [
        {
          "internalType": "address",
          "name": "",
          "type": "address"
        }
      ],
      "name": "communityCount",
      "outputs": [
        {
          "internalType": "uint256",
          "name": "",
          "type": "uint256"
        }
      ],
      "stateMutability": "view",
      "type": "function"
    },
    {
      "inputs": [],
      "name": "decimals",
      "outputs": [
        {
          "internalType": "uint8",
          "name": "",
          "type": "uint8"
        }
      ],
      "stateMutability": "view",
      "type": "function"
    },
    {
      "inputs": [],
      "name": "ecoAddress",
      "outputs": [
        {
          "internalType": "address",
          "name": "",
          "type": "address"
        }
      ],
      "stateMutability": "view",
      "type": "function"
    },
    {
      "inputs": [
        {
          "internalType": "bool",
          "name": "_maxWalletEnable",
          "type": "bool"
        }
      ],
      "name": "enableMaxWallet",
      "outputs": [],
      "stateMutability": "nonpayable",
      "type": "function"
    },
    {
      "inputs": [],
      "name": "feeAddress",
      "outputs": [
        {
          "internalType": "address",
          "name": "",
          "type": "address"
        }
      ],
      "stateMutability": "view",
      "type": "function"
    },
    {
      "inputs": [
        {
          "internalType": "uint256",
          "name": "value",
          "type": "uint256"
        },
        {
          "internalType": "bool",
          "name": "_buy",
          "type": "bool"
        }
      ],
      "name": "getAmountOut",
      "outputs": [
        {
          "internalType": "uint256",
          "name": "",
          "type": "uint256"
        }
      ],
      "stateMutability": "view",
      "type": "function"
    },
    {
      "inputs": [],
      "name": "getNodeAddress",
      "outputs": [
        {
          "internalType": "address[]",
          "name": "",
          "type": "address[]"
        }
      ],
      "stateMutability": "view",
      "type": "function"
    },
    {
      "inputs": [
        {
          "internalType": "address",
          "name": "addr",
          "type": "address"
        }
      ],
      "name": "getPledgeReceiptRelation",
      "outputs": [
        {
          "internalType": "uint256",
          "name": "",
          "type": "uint256"
        }
      ],
      "stateMutability": "view",
      "type": "function"
    },
    {
      "inputs": [],
      "name": "getReserves",
      "outputs": [
        {
          "internalType": "uint256",
          "name": "",
          "type": "uint256"
        },
        {
          "internalType": "uint256",
          "name": "",
          "type": "uint256"
        }
      ],
      "stateMutability": "view",
      "type": "function"
    },
    {
      "inputs": [],
      "name": "initialize",
      "outputs": [],
      "stateMutability": "nonpayable",
      "type": "function"
    },
    {
      "inputs": [],
      "name": "lastRewardAt",
      "outputs": [
        {
          "internalType": "uint256",
          "name": "",
          "type": "uint256"
        }
      ],
      "stateMutability": "view",
      "type": "function"
    },
    {
      "inputs": [],
      "name": "liquidityProvider",
      "outputs": [
        {
          "internalType": "address",
          "name": "",
          "type": "address"
        }
      ],
      "stateMutability": "view",
      "type": "function"
    },
    {
      "inputs": [],
      "name": "marketAddress",
      "outputs": [
        {
          "internalType": "address",
          "name": "",
          "type": "address"
        }
      ],
      "stateMutability": "view",
      "type": "function"
    },
    {
      "inputs": [],
      "name": "maxWalletEnable",
      "outputs": [
        {
          "internalType": "bool",
          "name": "",
          "type": "bool"
        }
      ],
      "stateMutability": "view",
      "type": "function"
    },
    {
      "inputs": [],
      "name": "name",
      "outputs": [
        {
          "internalType": "string",
          "name": "",
          "type": "string"
        }
      ],
      "stateMutability": "view",
      "type": "function"
    },
    {
      "inputs": [
        {
          "internalType": "uint256",
          "name": "",
          "type": "uint256"
        }
      ],
      "name": "nodeAddress",
      "outputs": [
        {
          "internalType": "address",
          "name": "",
          "type": "address"
        }
      ],
      "stateMutability": "view",
      "type": "function"
    },
    {
      "inputs": [],
      "name": "owner",
      "outputs": [
        {
          "internalType": "address",
          "name": "",
          "type": "address"
        }
      ],
      "stateMutability": "view",
      "type": "function"
    },
    {
      "inputs": [
        {
          "internalType": "address",
          "name": "",
          "type": "address"
        }
      ],
      "name": "pledgeReceiptRelation",
      "outputs": [
        {
          "internalType": "uint256",
          "name": "",
          "type": "uint256"
        }
      ],
      "stateMutability": "view",
      "type": "function"
    },
    {
      "inputs": [],
      "name": "proxiableUUID",
      "outputs": [
        {
          "internalType": "bytes32",
          "name": "",
          "type": "bytes32"
        }
      ],
      "stateMutability": "view",
      "type": "function"
    },
    {
      "inputs": [
        {
          "internalType": "address",
          "name": "",
          "type": "address"
        }
      ],
      "name": "relation",
      "outputs": [
        {
          "internalType": "address",
          "name": "",
          "type": "address"
        }
      ],
      "stateMutability": "view",
      "type": "function"
    },
    {
      "inputs": [
        {
          "internalType": "uint256",
          "name": "index",
          "type": "uint256"
        }
      ],
      "name": "removeNodeAddress",
      "outputs": [],
      "stateMutability": "nonpayable",
      "type": "function"
    },
    {
      "inputs": [
        {
          "internalType": "address",
          "name": "addr",
          "type": "address"
        }
      ],
      "name": "removePledgeReceiptRelation",
      "outputs": [],
      "stateMutability": "nonpayable",
      "type": "function"
    },
    {
      "inputs": [],
      "name": "renounceOwnership",
      "outputs": [],
      "stateMutability": "nonpayable",
      "type": "function"
    },
    {
      "inputs": [
        {
          "internalType": "uint256",
          "name": "sell_amount",
          "type": "uint256"
        }
      ],
      "name": "sell",
      "outputs": [],
      "stateMutability": "nonpayable",
      "type": "function"
    },
    {
      "inputs": [
        {
          "internalType": "uint256",
          "name": "_maxWallet_",
          "type": "uint256"
        }
      ],
      "name": "setMaxWallet",
      "outputs": [],
      "stateMutability": "nonpayable",
      "type": "function"
    },
    {
      "inputs": [
        {
          "internalType": "address",
          "name": "addr",
          "type": "address"
        },
        {
          "internalType": "bool",
          "name": "flag",
          "type": "bool"
        }
      ],
      "name": "setWhiteAddress",
      "outputs": [],
      "stateMutability": "nonpayable",
      "type": "function"
    },
    {
      "inputs": [
        {
          "internalType": "address",
          "name": "addr",
          "type": "address"
        }
      ],
      "name": "setZToken",
      "outputs": [],
      "stateMutability": "nonpayable",
      "type": "function"
    },
    {
      "inputs": [],
      "name": "symbol",
      "outputs": [
        {
          "internalType": "string",
          "name": "",
          "type": "string"
        }
      ],
      "stateMutability": "view",
      "type": "function"
    },
    {
      "inputs": [],
      "name": "totalSupply",
      "outputs": [
        {
          "internalType": "uint256",
          "name": "",
          "type": "uint256"
        }
      ],
      "stateMutability": "view",
      "type": "function"
    },
    {
      "inputs": [
        {
          "internalType": "address",
          "name": "to",
          "type": "address"
        },
        {
          "internalType": "uint256",
          "name": "value",
          "type": "uint256"
        }
      ],
      "name": "transfer",
      "outputs": [
        {
          "internalType": "bool",
          "name": "",
          "type": "bool"
        }
      ],
      "stateMutability": "nonpayable",
      "type": "function"
    },
    {
      "inputs": [
        {
          "internalType": "address[]",
          "name": "_address",
          "type": "address[]"
        },
        {
          "internalType": "uint256[]",
          "name": "_amounts",
          "type": "uint256[]"
        }
      ],
      "name": "transferBNBBatch",
      "outputs": [],
      "stateMutability": "nonpayable",
      "type": "function"
    },
    {
      "inputs": [
        {
          "internalType": "address",
          "name": "from",
          "type": "address"
        },
        {
          "internalType": "address",
          "name": "to",
          "type": "address"
        },
        {
          "internalType": "uint256",
          "name": "value",
          "type": "uint256"
        }
      ],
      "name": "transferFrom",
      "outputs": [
        {
          "internalType": "bool",
          "name": "",
          "type": "bool"
        }
      ],
      "stateMutability": "nonpayable",
      "type": "function"
    },
    {
      "inputs": [
        {
          "internalType": "address",
          "name": "newOwner",
          "type": "address"
        }
      ],
      "name": "transferOwnership",
      "outputs": [],
      "stateMutability": "nonpayable",
      "type": "function"
    },
    {
      "inputs": [
        {
          "internalType": "address",
          "name": "newImplementation",
          "type": "address"
        },
        {
          "internalType": "bytes",
          "name": "data",
          "type": "bytes"
        }
      ],
      "name": "upgradeToAndCall",
      "outputs": [],
      "stateMutability": "payable",
      "type": "function"
    },
    {
      "stateMutability": "payable",
      "type": "receive"
    }
  ],
  "bytecode": "0x60a0604052306080523480156200001557600080fd5b506200002062000026565b620000da565b7ff0c57e16840df040f15088dc2f81fe391c3923bec73e23a9662efc9c229c6a00805468010000000000000000900460ff1615620000775760405163f92ee8a960e01b815260040160405180910390fd5b80546001600160401b0390811614620000d75780546001600160401b0319166001600160401b0390811782556040519081527fc7f505b2f371ae2175ee4913f4499e1f2633a7b5936321eed1cdaeb6115181d29060200160405180910390a15b50565b608051612ff3620001046000396000818161212a0152818161215301526122d10152612ff36000f3fe6080604052600436106102eb5760003560e01c80637cca52fe11610184578063c363c3ac116100d6578063dd62ed3e1161008a578063f2e1562811610064578063f2e156281461091e578063f2fde38b14610934578063f3e019421461095457600080fd5b8063dd62ed3e14610879578063e4849b32146108de578063e98533b8146108fe57600080fd5b8063d7a05f05116100bb578063d7a05f0514610800578063dbcdf03214610836578063dc5415041461086357600080fd5b8063c363c3ac146107c0578063d0943e17146107e057600080fd5b806395d89b4111610138578063ad3cb1cc11610112578063ad3cb1cc14610741578063ae19139e1461078a578063b74de591146107aa57600080fd5b806395d89b41146106ec5780639e1e171314610701578063a9059cbb1461072157600080fd5b806382247ec01161016957806382247ec0146106795780638da5cb5b1461068f57806395623641146106cc57600080fd5b80637cca52fe1461064e5780638129fc1c1461066457600080fd5b8063412753581161023d57806368961ecb116101f1578063715018a6116101cb578063715018a6146105d657806378554a4f146105eb5780637b49827a1461061857600080fd5b806368961ecb1461055157806370a082311461057157806370dabc9e146105b457600080fd5b806352d1902d1161022257806352d1902d146104fc5780635b8bec55146105115780635d0044ca1461053157600080fd5b806341275358146104b15780634f1ef286146104e957600080fd5b806312a54b621161029f578063313ce56711610279578063313ce5671461045f5780633a5fe70b1461047b5780633cd691d51461049b57600080fd5b806312a54b62146103ea57806318160ddd1461040b57806323b872dd1461043f57600080fd5b80630902f1ac116102d05780630902f1ac1461034a578063095ea7b31461038c57806311106ee2146103bc57600080fd5b806306fdde03146102ff57806307c621511461032a57600080fd5b366102fa576102f8610974565b005b600080fd5b34801561030b57600080fd5b50610314610bd0565b60405161032191906128e3565b60405180910390f35b34801561033657600080fd5b506102f8610345366004612940565b610c93565b34801561035657600080fd5b50600154306000908152600080516020612f9e833981519152602052604090205460408051928352602083019190915201610321565b34801561039857600080fd5b506103ac6103a7366004612977565b610cc6565b6040519015158152602001610321565b3480156103c857600080fd5b506103dc6103d73660046129a1565b610ce0565b604051908152602001610321565b3480156103f657600080fd5b506007546103ac90600160a01b900460ff1681565b34801561041757600080fd5b507f52c63247e1f47db19d5ce0460030c497f067ca4cebf71ba98eeadabe20bace02546103dc565b34801561044b57600080fd5b506103ac61045a3660046129c6565b610d51565b34801561046b57600080fd5b5060405160128152602001610321565b34801561048757600080fd5b506102f8610496366004612a4e565b610d77565b3480156104a757600080fd5b506103dc600e5481565b3480156104bd57600080fd5b50600a546104d1906001600160a01b031681565b6040516001600160a01b039091168152602001610321565b6102f86104f7366004612ad0565b610e39565b34801561050857600080fd5b506103dc610e58565b34801561051d57600080fd5b506007546104d1906001600160a01b031681565b34801561053d57600080fd5b506102f861054c366004612b92565b610e87565b34801561055d57600080fd5b506009546104d1906001600160a01b031681565b34801561057d57600080fd5b506103dc61058c366004612bab565b6001600160a01b03166000908152600080516020612f9e833981519152602052604090205490565b3480156105c057600080fd5b506105c9610e94565b6040516103219190612bc6565b3480156105e257600080fd5b506102f8610ef6565b3480156105f757600080fd5b506103dc610606366004612bab565b60106020526000908152604090205481565b34801561062457600080fd5b506103dc610633366004612bab565b6001600160a01b031660009081526011602052604090205490565b34801561065a57600080fd5b506103dc60035481565b34801561067057600080fd5b506102f8610f0a565b34801561068557600080fd5b506103dc60025481565b34801561069b57600080fd5b507f9016d09d72d40fdae2fd8ceac6b6234c7706214fd39c1cd1e609a0528c199300546001600160a01b03166104d1565b3480156106d857600080fd5b506008546104d1906001600160a01b031681565b3480156106f857600080fd5b50610314611222565b34801561070d57600080fd5b506102f861071c366004612bab565b611261565b34801561072d57600080fd5b506103ac61073c366004612977565b61128b565b34801561074d57600080fd5b506103146040518060400160405280600581526020017f352e302e3000000000000000000000000000000000000000000000000000000081525081565b34801561079657600080fd5b506102f86107a5366004612c13565b6115b8565b3480156107b657600080fd5b506103dc60045481565b3480156107cc57600080fd5b506102f86107db366004612bab565b6115de565b3480156107ec57600080fd5b506104d16107fb366004612b92565b611707565b34801561080c57600080fd5b506104d161081b366004612bab565b600f602052600090815260409020546001600160a01b031681565b34801561084257600080fd5b506103dc610851366004612bab565b60116020526000908152604090205481565b34801561086f57600080fd5b506103dc600d5481565b34801561088557600080fd5b506103dc610894366004612c30565b6001600160a01b0391821660009081527f52c63247e1f47db19d5ce0460030c497f067ca4cebf71ba98eeadabe20bace016020908152604080832093909416825291909152205490565b3480156108ea57600080fd5b506102f86108f9366004612b92565b611731565b34801561090a57600080fd5b506104d1610919366004612b92565b611a0b565b34801561092a57600080fd5b506103dc60135481565b34801561094057600080fd5b506102f861094f366004612bab565b611a1b565b34801561096057600080fd5b506102f861096f366004612b92565b611a72565b336000908152601560205260409020544363ffffffff90911603610a055760405162461bcd60e51b815260206004820152603160248201527f596f752063616e2774206d616b652074776f207472616e73616374696f6e732060448201527f696e207468652073616d6520626c6f636b00000000000000000000000000000060648201526084015b60405180910390fd5b336000908152601560205260408120805463ffffffff19164363ffffffff16179055600154349190610a38908390612c79565b306000908152600080516020612f9e8339815191526020526040902054610a5f9084612c8c565b610a699190612ca3565b600754909150600160a01b900460ff1615610af657600254336000908152600080516020612f9e8339815191526020526040902054610aa89083612c79565b1115610af65760405162461bcd60e51b815260206004820152601360248201527f4d61782077616c6c65742065786365656465640000000000000000000000000060448201526064016109fc565b610b1730336064610b0885605f612c8c565b610b129190612ca3565b611b22565b6103e8610b26836103d9612c8c565b610b309190612ca3565b60016000828254610b419190612c79565b90915550610b50905034611c79565b610b5981611cc8565b610b633382611dfc565b610b6c81611e42565b610b7533611e76565b610b7e81611ef4565b60408051348152600060208201819052918101919091526060810182905233907f49926bbebe8474393f434dfa4f78694c0923efa07d19f2284518bfabd06eb737906080015b60405180910390a25050565b7f52c63247e1f47db19d5ce0460030c497f067ca4cebf71ba98eeadabe20bace038054606091600080516020612f9e83398151915291610c0f90612cc5565b80601f0160208091040260200160405190810160405280929190818152602001828054610c3b90612cc5565b8015610c885780601f10610c5d57610100808354040283529160200191610c88565b820191906000526020600020905b815481529060010190602001808311610c6b57829003601f168201915b505050505091505090565b610c9b611f76565b6001600160a01b03919091166000908152601260205260409020805460ff1916911515919091179055565b600033610cd4818585611fea565b60019150505b92915050565b6000806000610d0c600154306000908152600080516020612f9e83398151915260205260409020549091565b915091508315610d3d57610d208583612c79565b610d2a8287612c8c565b610d349190612ca3565b92505050610cda565b610d478582612c79565b610d2a8387612c8c565b600033610d5f858285611ff7565b610d6a8585856120a7565b60019150505b9392505050565b3360009081526012602052604090205460ff16610dd65760405162461bcd60e51b815260206004820152601f60248201527f63616c6c6572206973206e6f742074686520776869746520616464726573730060448201526064016109fc565b60005b83811015610e3257610e2a30868684818110610df757610df7612cff565b9050602002016020810190610e0c9190612bab565b858585818110610e1e57610e1e612cff565b90506020020135611b22565b600101610dd9565b5050505050565b610e4161211f565b610e4a826121d6565b610e5482826121de565b5050565b6000610e626122c6565b507f360894a13ba1a3210667c828492db98dca3e2076cc3735a920a3ca505d382bbc90565b610e8f611f76565b600255565b6060600b805480602002602001604051908101604052809291908181526020018280548015610eec57602002820191906000526020600020905b81546001600160a01b03168152600190910190602001808311610ece575b5050505050905090565b610efe611f76565b610f08600061230f565b565b7ff0c57e16840df040f15088dc2f81fe391c3923bec73e23a9662efc9c229c6a00805468010000000000000000810460ff16159067ffffffffffffffff16600081158015610f555750825b905060008267ffffffffffffffff166001148015610f725750303b155b905081158015610f80575080155b15610fb7576040517ff92ee8a900000000000000000000000000000000000000000000000000000000815260040160405180910390fd5b845467ffffffffffffffff191660011785558315610feb57845468ff00000000000000001916680100000000000000001785555b61105f6040518060400160405280600781526020017f4d79546f6b656e000000000000000000000000000000000000000000000000008152506040518060400160405280600381526020017f4d544b0000000000000000000000000000000000000000000000000000000000815250612380565b61106b6012600a612dea565b61107990633b023380612c8c565b6000556110886012600a612dea565b611094906104b0612c8c565b6001556110a36012600a612dea565b6110b09062989680612c8c565b6004556110bf6012600a612dea565b6110cc906207a120612c8c565b6002556110db6012600a612dea565b6110e8906207a120612c8c565b600e556110f76012600a612dea565b6111039061c350612c8c565b600355600980546001600160a01b03199081167398a8790028c6476b740be640627a62496e5d616b179091556007805460ff60a01b1916600160a01b179055600880548216737a6ca6a66b7ca223ecd10ef837895f7a32e902d4179055600a805490911673bedddae2062f0b573ec72562f88da141a67b70b217905561118833612392565b6111906123a3565b6111b3306111a06012600a612dea565b6111ae90631a39de00612c8c565b6123ab565b6111d1336111c36012600a612dea565b6111ae906320c85580612c8c565b8315610e3257845468ff000000000000000019168555604051600181527fc7f505b2f371ae2175ee4913f4499e1f2633a7b5936321eed1cdaeb6115181d29060200160405180910390a15050505050565b7f52c63247e1f47db19d5ce0460030c497f067ca4cebf71ba98eeadabe20bace048054606091600080516020612f9e83398151915291610c0f90612cc5565b611269611f76565b601480546001600160a01b0319166001600160a01b0392909216919091179055565b6000306001600160a01b038416036112ab576112a682611731565b6115af565b6014546001600160a01b03908116908416036114e8576112cd6012600a612dea565b6112d990617530612c8c565b8214806112fd57506112ed6012600a612dea565b6112fa90620186a0612c8c565b82145b8061131f575061130f6012600a612dea565b61131c90620493e0612c8c565b82145b8061134157506113316012600a612dea565b61133e906207a120612c8c565b82145b61138d5760405162461bcd60e51b815260206004820152600e60248201527f33772f3130772f3330772f35307700000000000000000000000000000000000060448201526064016109fc565b33600090815260116020526040902054156113ea5760405162461bcd60e51b815260206004820152600f60248201527f416c726561647920706c6564676564000000000000000000000000000000000060448201526064016109fc565b6113f53384846120a7565b3360008181526011602052604090208390556014546001600160a01b03169063a9059cbb9061142661138886612ca3565b6040517fffffffff0000000000000000000000000000000000000000000000000000000060e085901b1681526001600160a01b03909216600483015260248201526044016020604051808303816000875af1158015611489573d6000803e3d6000fd5b505050506040513d601f19601f820116820180604052508101906114ad9190612df9565b5060405182815233907f5e91ea8ea1c46300eb761859be01d7b16d44389ef91e03a163a87413cbf55b959060200160405180910390a26115af565b60006114f660066012612e16565b61150190600a612dea565b61150c906001612c8c565b336000908152600080516020612f9e8339815191526020526040902054909150830361158f57336000908152600080516020612f9e833981519152602052604090205481101561158557336000908152600080516020612f9e833981519152602052604090205461157e908290612e2f565b925061158f565b6001915050610cda565b61159a338585611b22565b6115a384611e76565b6115ad33856123e1565b505b50600192915050565b6115c0611f76565b60078054911515600160a01b0260ff60a01b19909216919091179055565b3360009081526012602052604090205460ff1661163d5760405162461bcd60e51b815260206004820152601f60248201527f63616c6c6572206973206e6f742074686520776869746520616464726573730060448201526064016109fc565b6001600160a01b038116600090815260116020526040902054806116a35760405162461bcd60e51b815260206004820152600960248201527f6e6f20706c65646765000000000000000000000000000000000000000000000060448201526064016109fc565b6014546116ba906001600160a01b031683836120a7565b6001600160a01b03821660008181526011602052604080822091909155517f7c1499da310db315606891cff45c8999e67bc58b9fa507440dd5c02506d64de090610bc49084815260200190565b600c818154811061171757600080fd5b6000918252602090912001546001600160a01b0316905081565b336000908152601560205260409020544363ffffffff909116036117bd5760405162461bcd60e51b815260206004820152603160248201527f596f752063616e2774206d616b652074776f207472616e73616374696f6e732060448201527f696e207468652073616d6520626c6f636b00000000000000000000000000000060648201526084016109fc565b336000908152601560205260409020805463ffffffff19164363ffffffff161790556003548111156118315760405162461bcd60e51b815260206004820152600e60248201527f4d6178204c696d69742053656c6c00000000000000000000000000000000000060448201526064016109fc565b306000908152600080516020612f9e8339815191526020526040812054611859908390612c79565b6001546118669084612c8c565b6118709190612ca3565b9050600081116118c25760405162461bcd60e51b815260206004820152601360248201527f53656c6c20616d6f756e7420746f6f206c6f770000000000000000000000000060448201526064016109fc565b8060015410156119145760405162461bcd60e51b815260206004820152601c60248201527f496e73756666696369656e7420424e4220696e2072657365727665730000000060448201526064016109fc565b61191f333084611b22565b6103e861192e826103c5612c8c565b6119389190612ca3565b600160008282546119499190612e2f565b90915550611958905081611c79565b61196182611cc8565b61196b3383611dfc565b61197482611e42565b61197d82611ef4565b336108fc606461198e84605f612c8c565b6119989190612ca3565b6040518115909202916000818181858888f193505050501580156119c0573d6000803e3d6000fd5b5060408051600080825260208201859052918101839052606081019190915233907f49926bbebe8474393f434dfa4f78694c0923efa07d19f2284518bfabd06eb73790608001610bc4565b600b818154811061171757600080fd5b611a23611f76565b6001600160a01b038116611a66576040517f1e4fbdf7000000000000000000000000000000000000000000000000000000008152600060048201526024016109fc565b611a6f8161230f565b50565b600b8054611a8290600190612e2f565b81548110611a9257611a92612cff565b600091825260209091200154600b80546001600160a01b039092169183908110611abe57611abe612cff565b9060005260206000200160006101000a8154816001600160a01b0302191690836001600160a01b03160217905550600b805480611afd57611afd612e42565b600082815260209020810160001990810180546001600160a01b031916905501905550565b600080516020612f9e8339815191526001600160a01b038416611b5e5781816002016000828254611b539190612c79565b90915550611be99050565b6001600160a01b03841660009081526020829052604090205482811015611bca576040517fe450d38c0000000000000000000000000000000000000000000000000000000081526001600160a01b038616600482015260248101829052604481018490526064016109fc565b6001600160a01b03851660009081526020839052604090209083900390555b6001600160a01b038316611c07576002810180548390039055611c26565b6001600160a01b03831660009081526020829052604090208054830190555b826001600160a01b0316846001600160a01b03167fddf252ad1be2c89b69c2b068fc378daa952ba7f163c4a11628f55a4df523b3ef84604051611c6b91815260200190565b60405180910390a350505050565b6008546001600160a01b03166108fc6103e8611c9684600f612c8c565b611ca09190612ca3565b6040518115909202916000818181858888f19350505050158015610e54573d6000803e3d6000fd5b60006103e8611cd883600f612c8c565b611ce29190612ca3565b600b54909150600003611d0757600a54610e549030906001600160a01b031683611b22565b600b54600090611d179083612ca3565b905060005b600b54811015611df65760006001600160a01b0316600b8281548110611d4457611d44612cff565b6000918252602090912001546001600160a01b031614611dee57600e54611da9600b8381548110611d7757611d77612cff565b60009182526020808320909101546001600160a01b03168252600080516020612f9e8339815191529052604090205490565b10611de557611de030600b8381548110611dc557611dc5612cff565b6000918252602090912001546001600160a01b031684611b22565b611dee565b611dee81611a72565b600101611d1c565b50505050565b6001600160a01b038083166000908152600f60205260409020541680611e2a5750600a546001600160a01b03165b611e3d30826103e8610b0886600a612c8c565b505050565b60006064611e51836005612c8c565b611e5b9190612ca3565b600954909150610e549030906001600160a01b031683611b22565b600e546001600160a01b0382166000908152600080516020612f9e833981519152602052604090205410611a6f57600b80546001810182556000919091527f0175b7a638427703f0dbe7bb9bbf987a2551717b34e79f33b5b1008d1fa01db90180546001600160a01b0383166001600160a01b031990911617905550565b60006103e8611f0483600a612c8c565b611f0e9190612ca3565b905060045481600054611f219190612e2f565b1015611f3a57600454600054611f379190612e2f565b90505b600081118015611f655750306000908152600080516020612f9e833981519152602052604090205481105b15610e5457610e5430600083611b22565b33611fa87f9016d09d72d40fdae2fd8ceac6b6234c7706214fd39c1cd1e609a0528c199300546001600160a01b031690565b6001600160a01b031614610f08576040517f118cdaa70000000000000000000000000000000000000000000000000000000081523360048201526024016109fc565b611e3d83838360016124b4565b6001600160a01b0383811660009081527f52c63247e1f47db19d5ce0460030c497f067ca4cebf71ba98eeadabe20bace0160209081526040808320938616835292905220546000198114611df65781811015612098576040517ffb8f41b20000000000000000000000000000000000000000000000000000000081526001600160a01b038416600482015260248101829052604481018390526064016109fc565b611df6848484840360006124b4565b6001600160a01b0383166120ea576040517f96c6fd1e000000000000000000000000000000000000000000000000000000008152600060048201526024016109fc565b6001600160a01b0382166121145760405163ec442f0560e01b8152600060048201526024016109fc565b611e3d838383611b22565b306001600160a01b037f00000000000000000000000000000000000000000000000000000000000000001614806121b857507f00000000000000000000000000000000000000000000000000000000000000006001600160a01b03166121ac7f360894a13ba1a3210667c828492db98dca3e2076cc3735a920a3ca505d382bbc546001600160a01b031690565b6001600160a01b031614155b15610f085760405163703e46dd60e11b815260040160405180910390fd5b611a6f611f76565b816001600160a01b03166352d1902d6040518163ffffffff1660e01b8152600401602060405180830381865afa925050508015612238575060408051601f3d908101601f1916820190925261223591810190612e58565b60015b61226057604051634c9c8ce360e01b81526001600160a01b03831660048201526024016109fc565b7f360894a13ba1a3210667c828492db98dca3e2076cc3735a920a3ca505d382bbc81146122bc576040517faa1d49a4000000000000000000000000000000000000000000000000000000008152600481018290526024016109fc565b611e3d83836125cd565b306001600160a01b037f00000000000000000000000000000000000000000000000000000000000000001614610f085760405163703e46dd60e11b815260040160405180910390fd5b7f9016d09d72d40fdae2fd8ceac6b6234c7706214fd39c1cd1e609a0528c19930080546001600160a01b031981166001600160a01b03848116918217845560405192169182907f8be0079c531659141344cd1fd0a4f28419497f9722a3daafe3b4186f6b6457e090600090a3505050565b612388612623565b610e54828261268a565b61239a612623565b611a6f816126db565b610f08612623565b6001600160a01b0382166123d55760405163ec442f0560e01b8152600060048201526024016109fc565b610e5460008383611b22565b6001600160a01b038181166000908152600f60205260409020541615801561241b5750806001600160a01b0316826001600160a01b031614155b801561243057506001600160a01b0381163014155b801561244a57506008546001600160a01b03828116911614155b801561246457506009546001600160a01b03828116911614155b801561247e5750600a546001600160a01b03828116911614155b15610e54576001600160a01b039081166000908152600f6020526040902080546001600160a01b03191692909116919091179055565b600080516020612f9e8339815191526001600160a01b038516612506576040517fe602df05000000000000000000000000000000000000000000000000000000008152600060048201526024016109fc565b6001600160a01b038416612549576040517f94280d62000000000000000000000000000000000000000000000000000000008152600060048201526024016109fc565b6001600160a01b03808616600090815260018301602090815260408083209388168352929052208390558115610e3257836001600160a01b0316856001600160a01b03167f8c5be1e5ebec7d5bd14f71427d1e84f3dd0314c0f7b2291e5b200ac8c7c3b925856040516125be91815260200190565b60405180910390a35050505050565b6125d6826126e3565b6040516001600160a01b038316907fbc7cd75a20ee27fd9adebab32041f755214dbc6bffa90cc0225b39da2e5c2d3b90600090a280511561261b57611e3d828261275a565b610e546127d0565b7ff0c57e16840df040f15088dc2f81fe391c3923bec73e23a9662efc9c229c6a005468010000000000000000900460ff16610f08576040517fd7e6bcf800000000000000000000000000000000000000000000000000000000815260040160405180910390fd5b612692612623565b600080516020612f9e8339815191527f52c63247e1f47db19d5ce0460030c497f067ca4cebf71ba98eeadabe20bace036126cc8482612ec1565b5060048101611df68382612ec1565b611a23612623565b806001600160a01b03163b60000361271957604051634c9c8ce360e01b81526001600160a01b03821660048201526024016109fc565b7f360894a13ba1a3210667c828492db98dca3e2076cc3735a920a3ca505d382bbc80546001600160a01b0319166001600160a01b0392909216919091179055565b6060600080846001600160a01b0316846040516127779190612f81565b600060405180830381855af49150503d80600081146127b2576040519150601f19603f3d011682016040523d82523d6000602084013e6127b7565b606091505b50915091506127c7858383612808565b95945050505050565b3415610f08576040517fb398979f00000000000000000000000000000000000000000000000000000000815260040160405180910390fd5b60608261281d576128188261287d565b610d70565b815115801561283457506001600160a01b0384163b155b15612876576040517f9996b3150000000000000000000000000000000000000000000000000000000081526001600160a01b03851660048201526024016109fc565b5080610d70565b80511561288d5780518082602001fd5b6040517f1425ea4200000000000000000000000000000000000000000000000000000000815260040160405180910390fd5b60005b838110156128da5781810151838201526020016128c2565b50506000910152565b60208152600082518060208401526129028160408501602087016128bf565b601f01601f19169190910160400192915050565b80356001600160a01b038116811461292d57600080fd5b919050565b8015158114611a6f57600080fd5b6000806040838503121561295357600080fd5b61295c83612916565b9150602083013561296c81612932565b809150509250929050565b6000806040838503121561298a57600080fd5b61299383612916565b946020939093013593505050565b600080604083850312156129b457600080fd5b82359150602083013561296c81612932565b6000806000606084860312156129db57600080fd5b6129e484612916565b92506129f260208501612916565b9150604084013590509250925092565b60008083601f840112612a1457600080fd5b50813567ffffffffffffffff811115612a2c57600080fd5b6020830191508360208260051b8501011115612a4757600080fd5b9250929050565b60008060008060408587031215612a6457600080fd5b843567ffffffffffffffff80821115612a7c57600080fd5b612a8888838901612a02565b90965094506020870135915080821115612aa157600080fd5b50612aae87828801612a02565b95989497509550505050565b634e487b7160e01b600052604160045260246000fd5b60008060408385031215612ae357600080fd5b612aec83612916565b9150602083013567ffffffffffffffff80821115612b0957600080fd5b818501915085601f830112612b1d57600080fd5b813581811115612b2f57612b2f612aba565b604051601f8201601f19908116603f01168101908382118183101715612b5757612b57612aba565b81604052828152886020848701011115612b7057600080fd5b8260208601602083013760006020848301015280955050505050509250929050565b600060208284031215612ba457600080fd5b5035919050565b600060208284031215612bbd57600080fd5b610d7082612916565b6020808252825182820181905260009190848201906040850190845b81811015612c075783516001600160a01b031683529284019291840191600101612be2565b50909695505050505050565b600060208284031215612c2557600080fd5b8135610d7081612932565b60008060408385031215612c4357600080fd5b612c4c83612916565b9150612c5a60208401612916565b90509250929050565b634e487b7160e01b600052601160045260246000fd5b80820180821115610cda57610cda612c63565b8082028115828204841417610cda57610cda612c63565b600082612cc057634e487b7160e01b600052601260045260246000fd5b500490565b600181811c90821680612cd957607f821691505b602082108103612cf957634e487b7160e01b600052602260045260246000fd5b50919050565b634e487b7160e01b600052603260045260246000fd5b600181815b80851115612d50578160001904821115612d3657612d36612c63565b80851615612d4357918102915b93841c9390800290612d1a565b509250929050565b600082612d6757506001610cda565b81612d7457506000610cda565b81600181146115855760028103612da15760ff841115612d9657612d96612c63565b50506001821b610cda565b5060208310610133831016604e8410600b8410161715612dc4575081810a610cda565b612dce8383612d15565b8060001904821115612de257612de2612c63565b029392505050565b6000610d7060ff841683612d58565b600060208284031215612e0b57600080fd5b8151610d7081612932565b60ff8281168282160390811115610cda57610cda612c63565b81810381811115610cda57610cda612c63565b634e487b7160e01b600052603160045260246000fd5b600060208284031215612e6a57600080fd5b5051919050565b601f821115611e3d576000816000526020600020601f850160051c81016020861015612e9a5750805b601f850160051c820191505b81811015612eb957828155600101612ea6565b505050505050565b815167ffffffffffffffff811115612edb57612edb612aba565b612eef81612ee98454612cc5565b84612e71565b602080601f831160018114612f245760008415612f0c5750858301515b600019600386901b1c1916600185901b178555612eb9565b600085815260208120601f198616915b82811015612f5357888601518255948401946001909101908401612f34565b5085821015612f715787850151600019600388901b60f8161c191681555b5050505050600190811b01905550565b60008251612f938184602087016128bf565b919091019291505056fe52c63247e1f47db19d5ce0460030c497f067ca4cebf71ba98eeadabe20bace00a2646970667358221220272505844869297dce04219bbac108e4b0fca32cd351661082681379b2638dd164736f6c63430008180033",
  "linkReferences": {},
  "deployedLinkReferences": {}
}