{
  "_format": "hh-sol-artifact-1",
  "contractName": "BT2",
  "sourceName": "contracts/BT2.sol",
  "abi": [
    {
      "inputs": [],
      "stateMutability": "nonpayable",
      "type": "constructor"
    },
    {
      "inputs": [
        {
          "internalType": "address",
          "name": "target",
          "type": "address"
        }
      ],
      "name": "AddressEmptyCode",
      "type": "error"
    },
    {
      "inputs": [
        {
          "internalType": "address",
          "name": "implementation",
          "type": "address"
        }
      ],
      "name": "ERC1967InvalidImplementation",
      "type": "error"
    },
    {
      "inputs": [],
      "name": "ERC1967NonPayable",
      "type": "error"
    },
    {
      "inputs": [
        {
          "internalType": "address",
          "name": "spender",
          "type": "address"
        },
        {
          "internalType": "uint256",
          "name": "allowance",
          "type": "uint256"
        },
        {
          "internalType": "uint256",
          "name": "needed",
          "type": "uint256"
        }
      ],
      "name": "ERC20InsufficientAllowance",
      "type": "error"
    },
    {
      "inputs": [
        {
          "internalType": "address",
          "name": "sender",
          "type": "address"
        },
        {
          "internalType": "uint256",
          "name": "balance",
          "type": "uint256"
        },
        {
          "internalType": "uint256",
          "name": "needed",
          "type": "uint256"
        }
      ],
      "name": "ERC20InsufficientBalance",
      "type": "error"
    },
    {
      "inputs": [
        {
          "internalType": "address",
          "name": "approver",
          "type": "address"
        }
      ],
      "name": "ERC20InvalidApprover",
      "type": "error"
    },
    {
      "inputs": [
        {
          "internalType": "address",
          "name": "receiver",
          "type": "address"
        }
      ],
      "name": "ERC20InvalidReceiver",
      "type": "error"
    },
    {
      "inputs": [
        {
          "internalType": "address",
          "name": "sender",
          "type": "address"
        }
      ],
      "name": "ERC20InvalidSender",
      "type": "error"
    },
    {
      "inputs": [
        {
          "internalType": "address",
          "name": "spender",
          "type": "address"
        }
      ],
      "name": "ERC20InvalidSpender",
      "type": "error"
    },
    {
      "inputs": [],
      "name": "FailedInnerCall",
      "type": "error"
    },
    {
      "inputs": [],
      "name": "InvalidInitialization",
      "type": "error"
    },
    {
      "inputs": [],
      "name": "NotInitializing",
      "type": "error"
    },
    {
      "inputs": [
        {
          "internalType": "address",
          "name": "owner",
          "type": "address"
        }
      ],
      "name": "OwnableInvalidOwner",
      "type": "error"
    },
    {
      "inputs": [
        {
          "internalType": "address",
          "name": "account",
          "type": "address"
        }
      ],
      "name": "OwnableUnauthorizedAccount",
      "type": "error"
    },
    {
      "inputs": [],
      "name": "UUPSUnauthorizedCallContext",
      "type": "error"
    },
    {
      "inputs": [
        {
          "internalType": "bytes32",
          "name": "slot",
          "type": "bytes32"
        }
      ],
      "name": "UUPSUnsupportedProxiableUUID",
      "type": "error"
    },
    {
      "anonymous": false,
      "inputs": [
        {
          "indexed": false,
          "internalType": "uint32",
          "name": "_blockToUnlockLiquidity",
          "type": "uint32"
        },
        {
          "indexed": false,
          "internalType": "uint256",
          "name": "value",
          "type": "uint256"
        }
      ],
      "name": "AddLiquidity",
      "type": "event"
    },
    {
      "anonymous": false,
      "inputs": [
        {
          "indexed": true,
          "internalType": "address",
          "name": "owner",
          "type": "address"
        },
        {
          "indexed": true,
          "internalType": "address",
          "name": "spender",
          "type": "address"
        },
        {
          "indexed": false,
          "internalType": "uint256",
          "name": "value",
          "type": "uint256"
        }
      ],
      "name": "Approval",
      "type": "event"
    },
    {
      "anonymous": false,
      "inputs": [
        {
          "indexed": false,
          "internalType": "uint64",
          "name": "version",
          "type": "uint64"
        }
      ],
      "name": "Initialized",
      "type": "event"
    },
    {
      "anonymous": false,
      "inputs": [
        {
          "indexed": true,
          "internalType": "address",
          "name": "previousOwner",
          "type": "address"
        },
        {
          "indexed": true,
          "internalType": "address",
          "name": "newOwner",
          "type": "address"
        }
      ],
      "name": "OwnershipTransferred",
      "type": "event"
    },
    {
      "anonymous": false,
      "inputs": [
        {
          "indexed": true,
          "internalType": "address",
          "name": "sender",
          "type": "address"
        },
        {
          "indexed": false,
          "internalType": "uint256",
          "name": "value",
          "type": "uint256"
        }
      ],
      "name": "Pledge",
      "type": "event"
    },
    {
      "anonymous": false,
      "inputs": [
        {
          "indexed": false,
          "internalType": "uint256",
          "name": "value",
          "type": "uint256"
        }
      ],
      "name": "RemoveLiquidity",
      "type": "event"
    },
    {
      "anonymous": false,
      "inputs": [
        {
          "indexed": true,
          "internalType": "address",
          "name": "sender",
          "type": "address"
        },
        {
          "indexed": false,
          "internalType": "uint256",
          "name": "value",
          "type": "uint256"
        }
      ],
      "name": "RemovePledge",
      "type": "event"
    },
    {
      "anonymous": false,
      "inputs": [
        {
          "indexed": true,
          "internalType": "address",
          "name": "sender",
          "type": "address"
        },
        {
          "indexed": false,
          "internalType": "uint256",
          "name": "amount0In",
          "type": "uint256"
        },
        {
          "indexed": false,
          "internalType": "uint256",
          "name": "amount1In",
          "type": "uint256"
        },
        {
          "indexed": false,
          "internalType": "uint256",
          "name": "amount0Out",
          "type": "uint256"
        },
        {
          "indexed": false,
          "internalType": "uint256",
          "name": "amount1Out",
          "type": "uint256"
        }
      ],
      "name": "Swap",
      "type": "event"
    },
    {
      "anonymous": false,
      "inputs": [
        {
          "indexed": true,
          "internalType": "address",
          "name": "from",
          "type": "address"
        },
        {
          "indexed": true,
          "internalType": "address",
          "name": "to",
          "type": "address"
        },
        {
          "indexed": false,
          "internalType": "uint256",
          "name": "value",
          "type": "uint256"
        }
      ],
      "name": "Transfer",
      "type": "event"
    },
    {
      "anonymous": false,
      "inputs": [
        {
          "indexed": true,
          "internalType": "address",
          "name": "implementation",
          "type": "address"
        }
      ],
      "name": "Upgraded",
      "type": "event"
    },
    {
      "inputs": [],
      "name": "UPGRADE_INTERFACE_VERSION",
      "outputs": [
        {
          "internalType": "string",
          "name": "",
          "type": "string"
        }
      ],
      "stateMutability": "view",
      "type": "function"
    },
    {
      "inputs": [],
      "name": "_fireStopAmount",
      "outputs": [
        {
          "internalType": "uint256",
          "name": "",
          "type": "uint256"
        }
      ],
      "stateMutability": "view",
      "type": "function"
    },
    {
      "inputs": [],
      "name": "_maxBuyAmount",
      "outputs": [
        {
          "internalType": "uint256",
          "name": "",
          "type": "uint256"
        }
      ],
      "stateMutability": "view",
      "type": "function"
    },
    {
      "inputs": [],
      "name": "_maxSellAmount",
      "outputs": [
        {
          "internalType": "uint256",
          "name": "",
          "type": "uint256"
        }
      ],
      "stateMutability": "view",
      "type": "function"
    },
    {
      "inputs": [
        {
          "internalType": "address",
          "name": "_addr",
          "type": "address"
        }
      ],
      "name": "_nodeCheck",
      "outputs": [],
      "stateMutability": "nonpayable",
      "type": "function"
    },
    {
      "inputs": [],
      "name": "_nodeLimitAmount",
      "outputs": [
        {
          "internalType": "uint256",
          "name": "",
          "type": "uint256"
        }
      ],
      "stateMutability": "view",
      "type": "function"
    },
    {
      "inputs": [
        {
          "internalType": "address",
          "name": "owner",
          "type": "address"
        },
        {
          "internalType": "address",
          "name": "spender",
          "type": "address"
        }
      ],
      "name": "allowance",
      "outputs": [
        {
          "internalType": "uint256",
          "name": "",
          "type": "uint256"
        }
      ],
      "stateMutability": "view",
      "type": "function"
    },
    {
      "inputs": [
        {
          "internalType": "address",
          "name": "spender",
          "type": "address"
        },
        {
          "internalType": "uint256",
          "name": "value",
          "type": "uint256"
        }
      ],
      "name": "approve",
      "outputs": [
        {
          "internalType": "bool",
          "name": "",
          "type": "bool"
        }
      ],
      "stateMutability": "nonpayable",
      "type": "function"
    },
    {
      "inputs": [
        {
          "internalType": "address",
          "name": "account",
          "type": "address"
        }
      ],
      "name": "balanceOf",
      "outputs": [
        {
          "internalType": "uint256",
          "name": "",
          "type": "uint256"
        }
      ],
      "stateMutability": "view",
      "type": "function"
    },
    {
      "inputs": [
        {
          "internalType": "uint256",
          "name": "",
          "type": "uint256"
        }
      ],
      "name": "communityAddress",
      "outputs": [
        {
          "internalType": "address",
          "name": "",
          "type": "address"
        }
      ],
      "stateMutability": "view",
      "type": "function"
    },
    {
      "inputs": [],
      "name": "communityBonus",
      "outputs": [
        {
          "internalType": "uint256",
          "name": "",
          "type": "uint256"
        }
      ],
      "stateMutability": "view",
      "type": "function"
    },
    {
      "inputs": [
        {
          "internalType": "address",
          "name": "",
          "type": "address"
        }
      ],
      "name": "communityCount",
      "outputs": [
        {
          "internalType": "uint256",
          "name": "",
          "type": "uint256"
        }
      ],
      "stateMutability": "view",
      "type": "function"
    },
    {
      "inputs": [],
      "name": "decimals",
      "outputs": [
        {
          "internalType": "uint8",
          "name": "",
          "type": "uint8"
        }
      ],
      "stateMutability": "view",
      "type": "function"
    },
    {
      "inputs": [],
      "name": "ecoAddress",
      "outputs": [
        {
          "internalType": "address",
          "name": "",
          "type": "address"
        }
      ],
      "stateMutability": "view",
      "type": "function"
    },
    {
      "inputs": [],
      "name": "feeAddress",
      "outputs": [
        {
          "internalType": "address",
          "name": "",
          "type": "address"
        }
      ],
      "stateMutability": "view",
      "type": "function"
    },
    {
      "inputs": [
        {
          "internalType": "uint256",
          "name": "value",
          "type": "uint256"
        },
        {
          "internalType": "bool",
          "name": "_buy",
          "type": "bool"
        }
      ],
      "name": "getAmountOut",
      "outputs": [
        {
          "internalType": "uint256",
          "name": "",
          "type": "uint256"
        }
      ],
      "stateMutability": "view",
      "type": "function"
    },
    {
      "inputs": [],
      "name": "getNodeAddress",
      "outputs": [
        {
          "internalType": "address[]",
          "name": "",
          "type": "address[]"
        }
      ],
      "stateMutability": "view",
      "type": "function"
    },
    {
      "inputs": [
        {
          "internalType": "address",
          "name": "addr",
          "type": "address"
        }
      ],
      "name": "getPledgeReceiptRelation",
      "outputs": [
        {
          "internalType": "uint256",
          "name": "",
          "type": "uint256"
        }
      ],
      "stateMutability": "view",
      "type": "function"
    },
    {
      "inputs": [],
      "name": "getReserves",
      "outputs": [
        {
          "internalType": "uint256",
          "name": "",
          "type": "uint256"
        },
        {
          "internalType": "uint256",
          "name": "",
          "type": "uint256"
        }
      ],
      "stateMutability": "view",
      "type": "function"
    },
    {
      "inputs": [],
      "name": "initialize",
      "outputs": [],
      "stateMutability": "nonpayable",
      "type": "function"
    },
    {
      "inputs": [],
      "name": "lastRewardAt",
      "outputs": [
        {
          "internalType": "uint256",
          "name": "",
          "type": "uint256"
        }
      ],
      "stateMutability": "view",
      "type": "function"
    },
    {
      "inputs": [],
      "name": "liquidityProvider",
      "outputs": [
        {
          "internalType": "address",
          "name": "",
          "type": "address"
        }
      ],
      "stateMutability": "view",
      "type": "function"
    },
    {
      "inputs": [],
      "name": "marketAddress",
      "outputs": [
        {
          "internalType": "address",
          "name": "",
          "type": "address"
        }
      ],
      "stateMutability": "view",
      "type": "function"
    },
    {
      "inputs": [],
      "name": "maxWalletEnable",
      "outputs": [
        {
          "internalType": "bool",
          "name": "",
          "type": "bool"
        }
      ],
      "stateMutability": "view",
      "type": "function"
    },
    {
      "inputs": [],
      "name": "name",
      "outputs": [
        {
          "internalType": "string",
          "name": "",
          "type": "string"
        }
      ],
      "stateMutability": "view",
      "type": "function"
    },
    {
      "inputs": [
        {
          "internalType": "uint256",
          "name": "",
          "type": "uint256"
        }
      ],
      "name": "nodeAddress",
      "outputs": [
        {
          "internalType": "address",
          "name": "",
          "type": "address"
        }
      ],
      "stateMutability": "view",
      "type": "function"
    },
    {
      "inputs": [
        {
          "internalType": "address",
          "name": "",
          "type": "address"
        }
      ],
      "name": "nodeAddressRelation",
      "outputs": [
        {
          "internalType": "uint256",
          "name": "",
          "type": "uint256"
        }
      ],
      "stateMutability": "view",
      "type": "function"
    },
    {
      "inputs": [],
      "name": "owner",
      "outputs": [
        {
          "internalType": "address",
          "name": "",
          "type": "address"
        }
      ],
      "stateMutability": "view",
      "type": "function"
    },
    {
      "inputs": [
        {
          "internalType": "address",
          "name": "",
          "type": "address"
        }
      ],
      "name": "pledgeReceiptRelation",
      "outputs": [
        {
          "internalType": "uint256",
          "name": "",
          "type": "uint256"
        }
      ],
      "stateMutability": "view",
      "type": "function"
    },
    {
      "inputs": [],
      "name": "proxiableUUID",
      "outputs": [
        {
          "internalType": "bytes32",
          "name": "",
          "type": "bytes32"
        }
      ],
      "stateMutability": "view",
      "type": "function"
    },
    {
      "inputs": [
        {
          "internalType": "address",
          "name": "",
          "type": "address"
        }
      ],
      "name": "relation",
      "outputs": [
        {
          "internalType": "address",
          "name": "",
          "type": "address"
        }
      ],
      "stateMutability": "view",
      "type": "function"
    },
    {
      "inputs": [
        {
          "internalType": "address",
          "name": "addr",
          "type": "address"
        }
      ],
      "name": "removePledgeReceiptRelation",
      "outputs": [],
      "stateMutability": "nonpayable",
      "type": "function"
    },
    {
      "inputs": [],
      "name": "renounceOwnership",
      "outputs": [],
      "stateMutability": "nonpayable",
      "type": "function"
    },
    {
      "inputs": [
        {
          "internalType": "uint256",
          "name": "_t",
          "type": "uint256"
        }
      ],
      "name": "setOpenTradeAt",
      "outputs": [],
      "stateMutability": "nonpayable",
      "type": "function"
    },
    {
      "inputs": [
        {
          "internalType": "contract ERC20Upgradeable",
          "name": "_token",
          "type": "address"
        }
      ],
      "name": "setZToken",
      "outputs": [],
      "stateMutability": "nonpayable",
      "type": "function"
    },
    {
      "inputs": [],
      "name": "symbol",
      "outputs": [
        {
          "internalType": "string",
          "name": "",
          "type": "string"
        }
      ],
      "stateMutability": "view",
      "type": "function"
    },
    {
      "inputs": [],
      "name": "totalSupply",
      "outputs": [
        {
          "internalType": "uint256",
          "name": "",
          "type": "uint256"
        }
      ],
      "stateMutability": "view",
      "type": "function"
    },
    {
      "inputs": [],
      "name": "tradeFeeAmount",
      "outputs": [
        {
          "internalType": "uint256",
          "name": "",
          "type": "uint256"
        }
      ],
      "stateMutability": "view",
      "type": "function"
    },
    {
      "inputs": [
        {
          "internalType": "address",
          "name": "to",
          "type": "address"
        },
        {
          "internalType": "uint256",
          "name": "value",
          "type": "uint256"
        }
      ],
      "name": "transfer",
      "outputs": [
        {
          "internalType": "bool",
          "name": "",
          "type": "bool"
        }
      ],
      "stateMutability": "nonpayable",
      "type": "function"
    },
    {
      "inputs": [
        {
          "internalType": "address[]",
          "name": "_address",
          "type": "address[]"
        },
        {
          "internalType": "uint256[]",
          "name": "_amounts",
          "type": "uint256[]"
        }
      ],
      "name": "transferBatch",
      "outputs": [],
      "stateMutability": "nonpayable",
      "type": "function"
    },
    {
      "inputs": [
        {
          "internalType": "address",
          "name": "from",
          "type": "address"
        },
        {
          "internalType": "address",
          "name": "to",
          "type": "address"
        },
        {
          "internalType": "uint256",
          "name": "value",
          "type": "uint256"
        }
      ],
      "name": "transferFrom",
      "outputs": [
        {
          "internalType": "bool",
          "name": "",
          "type": "bool"
        }
      ],
      "stateMutability": "nonpayable",
      "type": "function"
    },
    {
      "inputs": [
        {
          "internalType": "address",
          "name": "newOwner",
          "type": "address"
        }
      ],
      "name": "transferOwnership",
      "outputs": [],
      "stateMutability": "nonpayable",
      "type": "function"
    },
    {
      "inputs": [
        {
          "internalType": "address",
          "name": "newImplementation",
          "type": "address"
        },
        {
          "internalType": "bytes",
          "name": "data",
          "type": "bytes"
        }
      ],
      "name": "upgradeToAndCall",
      "outputs": [],
      "stateMutability": "payable",
      "type": "function"
    },
    {
      "stateMutability": "payable",
      "type": "receive"
    }
  ],
  "bytecode": "0x60a0604052306080523480156200001557600080fd5b506200002062000026565b620000da565b7ff0c57e16840df040f15088dc2f81fe391c3923bec73e23a9662efc9c229c6a00805468010000000000000000900460ff1615620000775760405163f92ee8a960e01b815260040160405180910390fd5b80546001600160401b0390811614620000d75780546001600160401b0319166001600160401b0390811782556040519081527fc7f505b2f371ae2175ee4913f4499e1f2633a7b5936321eed1cdaeb6115181d29060200160405180910390a15b50565b60805161306f6200010460003960008181611eb701528181611ee0015261205e015261306f6000f3fe6080604052600436106102e05760003560e01c8063715018a611610184578063b28645a0116100d6578063dbcdf0321161008a578063e98533b811610064578063e98533b814610903578063f2e1562814610923578063f2fde38b1461093957600080fd5b8063dbcdf0321461085b578063dc54150414610888578063dd62ed3e1461089e57600080fd5b8063c363c3ac116100bb578063c363c3ac146107e5578063d0943e1714610805578063d7a05f051461082557600080fd5b8063b28645a0146107a2578063b74de591146107cf57600080fd5b80638da5cb5b116101385780639e1e1713116101125780639e1e171314610719578063a9059cbb14610739578063ad3cb1cc1461075957600080fd5b80638da5cb5b146106a757806395623641146106e457806395d89b411461070457600080fd5b80637b49827a116101695780637b49827a146106465780637cca52fe1461067c5780638129fc1c1461069257600080fd5b8063715018a61461060457806378554a4f1461061957600080fd5b80633b3e672f1161023d5780634f1ef286116101f157806368961ecb116101cb57806368961ecb1461057f57806370a082311461059f57806370dabc9e146105e257600080fd5b80634f1ef2861461053757806352d1902d1461054a5780635b8bec551461055f57600080fd5b80633b8e8b97116102225780633b8e8b97146104c95780633cd691d5146104e957806341275358146104ff57600080fd5b80633b3e672f146104895780633b71d549146104a957600080fd5b806311106ee21161029457806318160ddd1161027957806318160ddd1461041957806323b872dd1461044d578063313ce5671461046d57600080fd5b806311106ee2146103c757806312a54b62146103e757600080fd5b806306fdde03116102c557806306fdde03146103335780630902f1ac14610355578063095ea7b31461039757600080fd5b80630492f055146102f457806304f60cd71461031d57600080fd5b366102ef576102ed610959565b005b600080fd5b34801561030057600080fd5b5061030a60025481565b6040519081526020015b60405180910390f35b34801561032957600080fd5b5061030a60105481565b34801561033f57600080fd5b50610348610bcd565b604051610314919061299a565b34801561036157600080fd5b5060015430600090815260008051602061301a833981519152602052604090205460408051928352602083019190915201610314565b3480156103a357600080fd5b506103b76103b23660046129e2565b610c90565b6040519015158152602001610314565b3480156103d357600080fd5b5061030a6103e2366004612a1c565b610caa565b3480156103f357600080fd5b506007546103b79074010000000000000000000000000000000000000000900460ff1681565b34801561042557600080fd5b507f52c63247e1f47db19d5ce0460030c497f067ca4cebf71ba98eeadabe20bace025461030a565b34801561045957600080fd5b506103b7610468366004612a4c565b610d1b565b34801561047957600080fd5b5060405160128152602001610314565b34801561049557600080fd5b506102ed6104a4366004612ad9565b610d41565b3480156104b557600080fd5b506102ed6104c4366004612b45565b610da4565b3480156104d557600080fd5b506102ed6104e4366004612b62565b610ed2565b3480156104f557600080fd5b5061030a600f5481565b34801561050b57600080fd5b50600a5461051f906001600160a01b031681565b6040516001600160a01b039091168152602001610314565b6102ed610545366004612b91565b610edf565b34801561055657600080fd5b5061030a610efa565b34801561056b57600080fd5b5060075461051f906001600160a01b031681565b34801561058b57600080fd5b5060095461051f906001600160a01b031681565b3480156105ab57600080fd5b5061030a6105ba366004612b45565b6001600160a01b0316600090815260008051602061301a833981519152602052604090205490565b3480156105ee57600080fd5b506105f7610f29565b6040516103149190612c55565b34801561061057600080fd5b506102ed610f8b565b34801561062557600080fd5b5061030a610634366004612b45565b60126020526000908152604090205481565b34801561065257600080fd5b5061030a610661366004612b45565b6001600160a01b031660009081526013602052604090205490565b34801561068857600080fd5b5061030a60035481565b34801561069e57600080fd5b506102ed610f9f565b3480156106b357600080fd5b507f9016d09d72d40fdae2fd8ceac6b6234c7706214fd39c1cd1e609a0528c199300546001600160a01b031661051f565b3480156106f057600080fd5b5060085461051f906001600160a01b031681565b34801561071057600080fd5b50610348611284565b34801561072557600080fd5b506102ed610734366004612b45565b6112c3565b34801561074557600080fd5b506103b76107543660046129e2565b6112ed565b34801561076557600080fd5b506103486040518060400160405280600581526020017f352e302e3000000000000000000000000000000000000000000000000000000081525081565b3480156107ae57600080fd5b5061030a6107bd366004612b45565b600c6020526000908152604090205481565b3480156107db57600080fd5b5061030a60045481565b3480156107f157600080fd5b506102ed610800366004612b45565b611660565b34801561081157600080fd5b5061051f610820366004612b62565b61178d565b34801561083157600080fd5b5061051f610840366004612b45565b6011602052600090815260409020546001600160a01b031681565b34801561086757600080fd5b5061030a610876366004612b45565b60136020526000908152604090205481565b34801561089457600080fd5b5061030a600e5481565b3480156108aa57600080fd5b5061030a6108b9366004612ca2565b6001600160a01b0391821660009081527f52c63247e1f47db19d5ce0460030c497f067ca4cebf71ba98eeadabe20bace016020908152604080832093909416825291909152205490565b34801561090f57600080fd5b5061051f61091e366004612b62565b6117b7565b34801561092f57600080fd5b5061030a60145481565b34801561094557600080fd5b506102ed610954366004612b45565b6117c7565b336000908152601760205260409020544363ffffffff909116036109ea5760405162461bcd60e51b815260206004820152603160248201527f596f752063616e2774206d616b652074776f207472616e73616374696f6e732060448201527f696e207468652073616d6520626c6f636b00000000000000000000000000000060648201526084015b60405180910390fd5b6016544211610a3b5760405162461bcd60e51b815260206004820152600a60248201527f6e6f74206f70656e65640000000000000000000000000000000000000000000060448201526064016109e1565b336000908152601760205260408120805463ffffffff19164363ffffffff16179055600154349190610a6e908390612ce6565b30600090815260008051602061301a8339815191526020526040902054610a959084612cf9565b610a9f9190612d10565b9050600254811115610af35760405162461bcd60e51b815260206004820152600d60248201527f4d6178204c696d6974204275790000000000000000000000000000000000000060448201526064016109e1565b610b1430336064610b0585605f612cf9565b610b0f9190612d10565b61181e565b6103e8610b23836103d9612cf9565b610b2d9190612d10565b60016000828254610b3e9190612ce6565b90915550610b4d905034611975565b610b56816119c4565b610b603382611b20565b610b6981611b66565b610b7233610da4565b610b7b81611bb5565b60408051348152600060208201819052918101919091526060810182905233907f49926bbebe8474393f434dfa4f78694c0923efa07d19f2284518bfabd06eb737906080015b60405180910390a25050565b7f52c63247e1f47db19d5ce0460030c497f067ca4cebf71ba98eeadabe20bace03805460609160008051602061301a83398151915291610c0c90612d32565b80601f0160208091040260200160405190810160405280929190818152602001828054610c3890612d32565b8015610c855780601f10610c5a57610100808354040283529160200191610c85565b820191906000526020600020905b815481529060010190602001808311610c6857829003601f168201915b505050505091505090565b600033610c9e818585611c37565b60019150505b92915050565b6000806000610cd660015430600090815260008051602061301a83398151915260205260409020549091565b915091508315610d0757610cea8583612ce6565b610cf48287612cf9565b610cfe9190612d10565b92505050610ca4565b610d118582612ce6565b610cf48387612cf9565b600033610d29858285611c44565b610d34858585611cf4565b60019150505b9392505050565b60005b83811015610d9d57610d9533868684818110610d6257610d62612d6c565b9050602002016020810190610d779190612b45565b858585818110610d8957610d89612d6c565b9050602002013561181e565b600101610d44565b5050505050565b6009546001600160a01b0382811691161480610dc857506001600160a01b03811630145b15610dd05750565b6001600160a01b0381166000908152600c60205260409020548015801590610e1e5750600f546001600160a01b038316600090815260008051602061301a8339815191526020526040902054105b15610e3b57610e37610e31600183612d82565b83611d6c565b5050565b80158015610e705750600f546001600160a01b038316600090815260008051602061301a833981519152602052604090205410155b15610e375750600b80546001810182557f0175b7a638427703f0dbe7bb9bbf987a2551717b34e79f33b5b1008d1fa01db90180546001600160a01b039093166001600160a01b031990931683179055546000918252600c602052604090912055565b610eda611e38565b601655565b610ee7611eac565b610ef082611f63565b610e378282611f6b565b6000610f04612053565b507f360894a13ba1a3210667c828492db98dca3e2076cc3735a920a3ca505d382bbc90565b6060600b805480602002602001604051908101604052809291908181526020018280548015610f8157602002820191906000526020600020905b81546001600160a01b03168152600190910190602001808311610f63575b5050505050905090565b610f93611e38565b610f9d600061209c565b565b7ff0c57e16840df040f15088dc2f81fe391c3923bec73e23a9662efc9c229c6a00805468010000000000000000810460ff16159067ffffffffffffffff16600081158015610fea5750825b905060008267ffffffffffffffff1660011480156110075750303b155b905081158015611015575080155b1561104c576040517ff92ee8a900000000000000000000000000000000000000000000000000000000815260040160405180910390fd5b845467ffffffffffffffff19166001178555831561108057845468ff00000000000000001916680100000000000000001785555b6110c060405180604001604052806003815260200162212a1960e91b81525060405180604001604052806003815260200162212a1960e91b81525061210d565b6110cc6012600a612e79565b6110da90633b023380612cf9565b6000556110e96012600a612e79565b6110f5906104b0612cf9565b6001556111046012600a612e79565b6111119062989680612cf9565b6004556111206012600a612e79565b61112d906207a120612cf9565b600f5561113c6012600a612e79565b6111489061c350612cf9565b6003556111576012600a612e79565b6111649062030d40612cf9565b600255600980546001600160a01b03199081167398a8790028c6476b740be640627a62496e5d616b17909155600880548216737a6ca6a66b7ca223ecd10ef837895f7a32e902d4179055600a805490911673bedddae2062f0b573ec72562f88da141a67b70b21790556111d63361211f565b6111de612130565b611201306111ee6012600a612e79565b6111fc90631a39de00612cf9565b612138565b60095461122b906001600160a01b031661121d6012600a612e79565b6111fc906320c85580612cf9565b63664995606016558315610d9d57845468ff000000000000000019168555604051600181527fc7f505b2f371ae2175ee4913f4499e1f2633a7b5936321eed1cdaeb6115181d29060200160405180910390a15050505050565b7f52c63247e1f47db19d5ce0460030c497f067ca4cebf71ba98eeadabe20bace04805460609160008051602061301a83398151915291610c0c90612d32565b6112cb611e38565b601580546001600160a01b0319166001600160a01b0392909216919091179055565b600033306001600160a01b0385160361130e576113098361216e565b611657565b6015546001600160a01b0390811690851603611563576113306012600a612e79565b61133c90617530612cf9565b83148061136057506113506012600a612e79565b61135d90620186a0612cf9565b83145b8061138257506113726012600a612e79565b61137f90620493e0612cf9565b83145b806113a457506113946012600a612e79565b6113a1906207a120612cf9565b83145b6113f05760405162461bcd60e51b815260206004820152600e60248201527f33772f3130772f3330772f35307700000000000000000000000000000000000060448201526064016109e1565b6001600160a01b038116600090815260136020526040902054156114565760405162461bcd60e51b815260206004820152600f60248201527f416c726561647920706c6564676564000000000000000000000000000000000060448201526064016109e1565b611461818585611cf4565b6001600160a01b0380821660009081526013602052604090208490556015541663a9059cbb8261149361138887612d10565b6040517fffffffff0000000000000000000000000000000000000000000000000000000060e085901b1681526001600160a01b03909216600483015260248201526044016020604051808303816000875af11580156114f6573d6000803e3d6000fd5b505050506040513d601f19601f8201168201806040525081019061151a9190612e88565b50806001600160a01b03167f5e91ea8ea1c46300eb761859be01d7b16d44389ef91e03a163a87413cbf55b958460405161155691815260200190565b60405180910390a2611657565b600061157160066012612ea5565b61157c90600a612e79565b611587906001612cf9565b90506115b5826001600160a01b0316600090815260008051602061301a833981519152602052604090205490565b840361163757806115e8836001600160a01b0316600090815260008051602061301a833981519152602052604090205490565b111561162c578061161b836001600160a01b0316600090815260008051602061301a833981519152602052604090205490565b6116259190612d82565b9350611637565b600192505050610ca4565b61164282868661181e565b61164c8286612498565b61165585610da4565b505b610c9e81610da4565b6015546001600160a01b031633146116ba5760405162461bcd60e51b815260206004820152600d60248201527f4e6f207065726d697373696f6e0000000000000000000000000000000000000060448201526064016109e1565b6001600160a01b038116600090815260136020526040902054806117205760405162461bcd60e51b815260206004820152600960248201527f6e6f20706c65646765000000000000000000000000000000000000000000000060448201526064016109e1565b601554611737906001600160a01b03168383611cf4565b61174082610da4565b6001600160a01b03821660008181526013602052604080822091909155517f7c1499da310db315606891cff45c8999e67bc58b9fa507440dd5c02506d64de090610bc19084815260200190565b600d818154811061179d57600080fd5b6000918252602090912001546001600160a01b0316905081565b600b818154811061179d57600080fd5b6117cf611e38565b6001600160a01b038116611812576040517f1e4fbdf7000000000000000000000000000000000000000000000000000000008152600060048201526024016109e1565b61181b8161209c565b50565b60008051602061301a8339815191526001600160a01b03841661185a578181600201600082825461184f9190612ce6565b909155506118e59050565b6001600160a01b038416600090815260208290526040902054828110156118c6576040517fe450d38c0000000000000000000000000000000000000000000000000000000081526001600160a01b038616600482015260248101829052604481018490526064016109e1565b6001600160a01b03851660009081526020839052604090209083900390555b6001600160a01b038316611903576002810180548390039055611922565b6001600160a01b03831660009081526020829052604090208054830190555b826001600160a01b0316846001600160a01b03167fddf252ad1be2c89b69c2b068fc378daa952ba7f163c4a11628f55a4df523b3ef8460405161196791815260200190565b60405180910390a350505050565b6008546001600160a01b03166108fc6103e861199284600f612cf9565b61199c9190612d10565b6040518115909202916000818181858888f19350505050158015610e37573d6000803e3d6000fd5b60006103e86119d483600f612cf9565b6119de9190612d10565b600b54909150600003611a0357600a54610e379030906001600160a01b03168361181e565b600b54600090611a139083612d10565b905060005b600b54811015611b1a5760006001600160a01b0316600b8281548110611a4057611a40612d6c565b6000918252602090912001546001600160a01b031614611b1257600f54611aa5600b8381548110611a7357611a73612d6c565b60009182526020808320909101546001600160a01b0316825260008051602061301a8339815191529052604090205490565b10611ae157611adc30600b8381548110611ac157611ac1612d6c565b6000918252602090912001546001600160a01b03168461181e565b611b12565b611b1281600b8381548110611af857611af8612d6c565b6000918252602090912001546001600160a01b0316611d6c565b600101611a18565b50505050565b6001600160a01b038083166000908152601160205260409020541680611b4e5750600a546001600160a01b03165b611b6130826103e8610b0586600a612cf9565b505050565b60006064611b75836005612cf9565b611b7f9190612d10565b600954909150611b9a9030906001600160a01b03168361181e565b8060106000828254611bac9190612ce6565b90915550505050565b60006103e8611bc583600a612cf9565b611bcf9190612d10565b905060045481600054611be29190612d82565b1015611bfb57600454600054611bf89190612d82565b90505b600081118015611c26575030600090815260008051602061301a833981519152602052604090205481105b15610e3757610e373060008361181e565b611b61838383600161256b565b6001600160a01b0383811660009081527f52c63247e1f47db19d5ce0460030c497f067ca4cebf71ba98eeadabe20bace0160209081526040808320938616835292905220546000198114611b1a5781811015611ce5576040517ffb8f41b20000000000000000000000000000000000000000000000000000000081526001600160a01b038416600482015260248101829052604481018390526064016109e1565b611b1a8484848403600061256b565b6001600160a01b038316611d37576040517f96c6fd1e000000000000000000000000000000000000000000000000000000008152600060048201526024016109e1565b6001600160a01b038216611d615760405163ec442f0560e01b8152600060048201526024016109e1565b611b6183838361181e565b600b8054611d7c90600190612d82565b81548110611d8c57611d8c612d6c565b600091825260209091200154600b80546001600160a01b039092169184908110611db857611db8612d6c565b9060005260206000200160006101000a8154816001600160a01b0302191690836001600160a01b03160217905550600b805480611df757611df7612ebe565b60008281526020808220830160001990810180546001600160a01b03191690559092019092556001600160a01b03929092168152600c909152604081205550565b33611e6a7f9016d09d72d40fdae2fd8ceac6b6234c7706214fd39c1cd1e609a0528c199300546001600160a01b031690565b6001600160a01b031614610f9d576040517f118cdaa70000000000000000000000000000000000000000000000000000000081523360048201526024016109e1565b306001600160a01b037f0000000000000000000000000000000000000000000000000000000000000000161480611f4557507f00000000000000000000000000000000000000000000000000000000000000006001600160a01b0316611f397f360894a13ba1a3210667c828492db98dca3e2076cc3735a920a3ca505d382bbc546001600160a01b031690565b6001600160a01b031614155b15610f9d5760405163703e46dd60e11b815260040160405180910390fd5b61181b611e38565b816001600160a01b03166352d1902d6040518163ffffffff1660e01b8152600401602060405180830381865afa925050508015611fc5575060408051601f3d908101601f19168201909252611fc291810190612ed4565b60015b611fed57604051634c9c8ce360e01b81526001600160a01b03831660048201526024016109e1565b7f360894a13ba1a3210667c828492db98dca3e2076cc3735a920a3ca505d382bbc8114612049576040517faa1d49a4000000000000000000000000000000000000000000000000000000008152600481018290526024016109e1565b611b618383612684565b306001600160a01b037f00000000000000000000000000000000000000000000000000000000000000001614610f9d5760405163703e46dd60e11b815260040160405180910390fd5b7f9016d09d72d40fdae2fd8ceac6b6234c7706214fd39c1cd1e609a0528c19930080546001600160a01b031981166001600160a01b03848116918217845560405192169182907f8be0079c531659141344cd1fd0a4f28419497f9722a3daafe3b4186f6b6457e090600090a3505050565b6121156126da565b610e378282612741565b6121276126da565b61181b81612792565b610f9d6126da565b6001600160a01b0382166121625760405163ec442f0560e01b8152600060048201526024016109e1565b610e376000838361181e565b336000908152601760205260409020544363ffffffff909116036121fa5760405162461bcd60e51b815260206004820152603160248201527f596f752063616e2774206d616b652074776f207472616e73616374696f6e732060448201527f696e207468652073616d6520626c6f636b00000000000000000000000000000060648201526084016109e1565b336000908152601760205260409020805463ffffffff19164363ffffffff1617905560035481111561226e5760405162461bcd60e51b815260206004820152600e60248201527f4d6178204c696d69742053656c6c00000000000000000000000000000000000060448201526064016109e1565b30600090815260008051602061301a8339815191526020526040812054612296908390612ce6565b6001546122a39084612cf9565b6122ad9190612d10565b9050600081116122ff5760405162461bcd60e51b815260206004820152601360248201527f53656c6c20616d6f756e7420746f6f206c6f770000000000000000000000000060448201526064016109e1565b8060015410156123515760405162461bcd60e51b815260206004820152601c60248201527f496e73756666696369656e7420424e4220696e2072657365727665730000000060448201526064016109e1565b804710156123a15760405162461bcd60e51b815260206004820152601b60248201527f496e73756666696369656e7420424e4220696e2062616c616e6365000000000060448201526064016109e1565b6123ac33308461181e565b6103e86123bb826103c5612cf9565b6123c59190612d10565b600160008282546123d69190612d82565b909155506123e5905081611975565b6123ee826119c4565b6123f83383611b20565b61240182611b66565b61240a82611bb5565b336108fc606461241b84605f612cf9565b6124259190612d10565b6040518115909202916000818181858888f1935050505015801561244d573d6000803e3d6000fd5b5060408051600080825260208201859052918101839052606081019190915233907f49926bbebe8474393f434dfa4f78694c0923efa07d19f2284518bfabd06eb73790608001610bc1565b6001600160a01b03818116600090815260116020526040902054161580156124d25750806001600160a01b0316826001600160a01b031614155b80156124e757506001600160a01b0381163014155b801561250157506008546001600160a01b03828116911614155b801561251b57506009546001600160a01b03828116911614155b80156125355750600a546001600160a01b03828116911614155b15610e37576001600160a01b03908116600090815260116020526040902080546001600160a01b03191692909116919091179055565b60008051602061301a8339815191526001600160a01b0385166125bd576040517fe602df05000000000000000000000000000000000000000000000000000000008152600060048201526024016109e1565b6001600160a01b038416612600576040517f94280d62000000000000000000000000000000000000000000000000000000008152600060048201526024016109e1565b6001600160a01b03808616600090815260018301602090815260408083209388168352929052208390558115610d9d57836001600160a01b0316856001600160a01b03167f8c5be1e5ebec7d5bd14f71427d1e84f3dd0314c0f7b2291e5b200ac8c7c3b9258560405161267591815260200190565b60405180910390a35050505050565b61268d8261279a565b6040516001600160a01b038316907fbc7cd75a20ee27fd9adebab32041f755214dbc6bffa90cc0225b39da2e5c2d3b90600090a28051156126d257611b618282612811565b610e37612887565b7ff0c57e16840df040f15088dc2f81fe391c3923bec73e23a9662efc9c229c6a005468010000000000000000900460ff16610f9d576040517fd7e6bcf800000000000000000000000000000000000000000000000000000000815260040160405180910390fd5b6127496126da565b60008051602061301a8339815191527f52c63247e1f47db19d5ce0460030c497f067ca4cebf71ba98eeadabe20bace036127838482612f3d565b5060048101611b1a8382612f3d565b6117cf6126da565b806001600160a01b03163b6000036127d057604051634c9c8ce360e01b81526001600160a01b03821660048201526024016109e1565b7f360894a13ba1a3210667c828492db98dca3e2076cc3735a920a3ca505d382bbc80546001600160a01b0319166001600160a01b0392909216919091179055565b6060600080846001600160a01b03168460405161282e9190612ffd565b600060405180830381855af49150503d8060008114612869576040519150601f19603f3d011682016040523d82523d6000602084013e61286e565b606091505b509150915061287e8583836128bf565b95945050505050565b3415610f9d576040517fb398979f00000000000000000000000000000000000000000000000000000000815260040160405180910390fd5b6060826128d4576128cf82612934565b610d3a565b81511580156128eb57506001600160a01b0384163b155b1561292d576040517f9996b3150000000000000000000000000000000000000000000000000000000081526001600160a01b03851660048201526024016109e1565b5080610d3a565b8051156129445780518082602001fd5b6040517f1425ea4200000000000000000000000000000000000000000000000000000000815260040160405180910390fd5b60005b83811015612991578181015183820152602001612979565b50506000910152565b60208152600082518060208401526129b9816040850160208701612976565b601f01601f19169190910160400192915050565b6001600160a01b038116811461181b57600080fd5b600080604083850312156129f557600080fd5b8235612a00816129cd565b946020939093013593505050565b801515811461181b57600080fd5b60008060408385031215612a2f57600080fd5b823591506020830135612a4181612a0e565b809150509250929050565b600080600060608486031215612a6157600080fd5b8335612a6c816129cd565b92506020840135612a7c816129cd565b929592945050506040919091013590565b60008083601f840112612a9f57600080fd5b50813567ffffffffffffffff811115612ab757600080fd5b6020830191508360208260051b8501011115612ad257600080fd5b9250929050565b60008060008060408587031215612aef57600080fd5b843567ffffffffffffffff80821115612b0757600080fd5b612b1388838901612a8d565b90965094506020870135915080821115612b2c57600080fd5b50612b3987828801612a8d565b95989497509550505050565b600060208284031215612b5757600080fd5b8135610d3a816129cd565b600060208284031215612b7457600080fd5b5035919050565b634e487b7160e01b600052604160045260246000fd5b60008060408385031215612ba457600080fd5b8235612baf816129cd565b9150602083013567ffffffffffffffff80821115612bcc57600080fd5b818501915085601f830112612be057600080fd5b813581811115612bf257612bf2612b7b565b604051601f8201601f19908116603f01168101908382118183101715612c1a57612c1a612b7b565b81604052828152886020848701011115612c3357600080fd5b8260208601602083013760006020848301015280955050505050509250929050565b6020808252825182820181905260009190848201906040850190845b81811015612c965783516001600160a01b031683529284019291840191600101612c71565b50909695505050505050565b60008060408385031215612cb557600080fd5b8235612cc0816129cd565b91506020830135612a41816129cd565b634e487b7160e01b600052601160045260246000fd5b80820180821115610ca457610ca4612cd0565b8082028115828204841417610ca457610ca4612cd0565b600082612d2d57634e487b7160e01b600052601260045260246000fd5b500490565b600181811c90821680612d4657607f821691505b602082108103612d6657634e487b7160e01b600052602260045260246000fd5b50919050565b634e487b7160e01b600052603260045260246000fd5b81810381811115610ca457610ca4612cd0565b600181815b80851115612dd0578160001904821115612db657612db6612cd0565b80851615612dc357918102915b93841c9390800290612d9a565b509250929050565b600082612de757506001610ca4565b81612df457506000610ca4565b8160018114612e0a5760028114612e1457612e30565b6001915050610ca4565b60ff841115612e2557612e25612cd0565b50506001821b610ca4565b5060208310610133831016604e8410600b8410161715612e53575081810a610ca4565b612e5d8383612d95565b8060001904821115612e7157612e71612cd0565b029392505050565b6000610d3a60ff841683612dd8565b600060208284031215612e9a57600080fd5b8151610d3a81612a0e565b60ff8281168282160390811115610ca457610ca4612cd0565b634e487b7160e01b600052603160045260246000fd5b600060208284031215612ee657600080fd5b5051919050565b601f821115611b61576000816000526020600020601f850160051c81016020861015612f165750805b601f850160051c820191505b81811015612f3557828155600101612f22565b505050505050565b815167ffffffffffffffff811115612f5757612f57612b7b565b612f6b81612f658454612d32565b84612eed565b602080601f831160018114612fa05760008415612f885750858301515b600019600386901b1c1916600185901b178555612f35565b600085815260208120601f198616915b82811015612fcf57888601518255948401946001909101908401612fb0565b5085821015612fed5787850151600019600388901b60f8161c191681555b5050505050600190811b01905550565b6000825161300f818460208701612976565b919091019291505056fe52c63247e1f47db19d5ce0460030c497f067ca4cebf71ba98eeadabe20bace00a264697066735822122023fbb1f461b47a9b7b075a1940625664b955c457af91e8ce07267e1d975118b064736f6c63430008180033",
  "linkReferences": {},
  "deployedLinkReferences": {}
}