{
  "_format": "hh-sol-artifact-1",
  "contractName": "MyTokenV2",
  "sourceName": "contracts/mytokenV2.sol",
  "abi": [
    {
      "inputs": [],
      "stateMutability": "nonpayable",
      "type": "constructor"
    },
    {
      "anonymous": false,
      "inputs": [
        {
          "indexed": false,
          "internalType": "address",
          "name": "previousAdmin",
          "type": "address"
        },
        {
          "indexed": false,
          "internalType": "address",
          "name": "newAdmin",
          "type": "address"
        }
      ],
      "name": "AdminChanged",
      "type": "event"
    },
    {
      "anonymous": false,
      "inputs": [
        {
          "indexed": true,
          "internalType": "address",
          "name": "owner",
          "type": "address"
        },
        {
          "indexed": true,
          "internalType": "address",
          "name": "spender",
          "type": "address"
        },
        {
          "indexed": false,
          "internalType": "uint256",
          "name": "value",
          "type": "uint256"
        }
      ],
      "name": "Approval",
      "type": "event"
    },
    {
      "anonymous": false,
      "inputs": [
        {
          "indexed": true,
          "internalType": "address",
          "name": "beacon",
          "type": "address"
        }
      ],
      "name": "BeaconUpgraded",
      "type": "event"
    },
    {
      "anonymous": false,
      "inputs": [
        {
          "indexed": true,
          "internalType": "address",
          "name": "previousOwner",
          "type": "address"
        },
        {
          "indexed": true,
          "internalType": "address",
          "name": "newOwner",
          "type": "address"
        }
      ],
      "name": "OwnershipTransferred",
      "type": "event"
    },
    {
      "anonymous": false,
      "inputs": [
        {
          "indexed": true,
          "internalType": "address",
          "name": "from",
          "type": "address"
        },
        {
          "indexed": true,
          "internalType": "address",
          "name": "to",
          "type": "address"
        },
        {
          "indexed": false,
          "internalType": "uint256",
          "name": "value",
          "type": "uint256"
        }
      ],
      "name": "Transfer",
      "type": "event"
    },
    {
      "anonymous": false,
      "inputs": [
        {
          "indexed": true,
          "internalType": "address",
          "name": "implementation",
          "type": "address"
        }
      ],
      "name": "Upgraded",
      "type": "event"
    },
    {
      "inputs": [
        {
          "internalType": "address",
          "name": "owner",
          "type": "address"
        },
        {
          "internalType": "address",
          "name": "spender",
          "type": "address"
        }
      ],
      "name": "allowance",
      "outputs": [
        {
          "internalType": "uint256",
          "name": "",
          "type": "uint256"
        }
      ],
      "stateMutability": "view",
      "type": "function"
    },
    {
      "inputs": [
        {
          "internalType": "address",
          "name": "spender",
          "type": "address"
        },
        {
          "internalType": "uint256",
          "name": "amount",
          "type": "uint256"
        }
      ],
      "name": "approve",
      "outputs": [
        {
          "internalType": "bool",
          "name": "",
          "type": "bool"
        }
      ],
      "stateMutability": "nonpayable",
      "type": "function"
    },
    {
      "inputs": [
        {
          "internalType": "address",
          "name": "account",
          "type": "address"
        }
      ],
      "name": "balanceOf",
      "outputs": [
        {
          "internalType": "uint256",
          "name": "",
          "type": "uint256"
        }
      ],
      "stateMutability": "view",
      "type": "function"
    },
    {
      "inputs": [],
      "name": "decimals",
      "outputs": [
        {
          "internalType": "uint8",
          "name": "",
          "type": "uint8"
        }
      ],
      "stateMutability": "view",
      "type": "function"
    },
    {
      "inputs": [
        {
          "internalType": "address",
          "name": "spender",
          "type": "address"
        },
        {
          "internalType": "uint256",
          "name": "subtractedValue",
          "type": "uint256"
        }
      ],
      "name": "decreaseAllowance",
      "outputs": [
        {
          "internalType": "bool",
          "name": "",
          "type": "bool"
        }
      ],
      "stateMutability": "nonpayable",
      "type": "function"
    },
    {
      "inputs": [
        {
          "internalType": "address",
          "name": "spender",
          "type": "address"
        },
        {
          "internalType": "uint256",
          "name": "addedValue",
          "type": "uint256"
        }
      ],
      "name": "increaseAllowance",
      "outputs": [
        {
          "internalType": "bool",
          "name": "",
          "type": "bool"
        }
      ],
      "stateMutability": "nonpayable",
      "type": "function"
    },
    {
      "inputs": [],
      "name": "initialize",
      "outputs": [],
      "stateMutability": "nonpayable",
      "type": "function"
    },
    {
      "inputs": [],
      "name": "name",
      "outputs": [
        {
          "internalType": "string",
          "name": "",
          "type": "string"
        }
      ],
      "stateMutability": "view",
      "type": "function"
    },
    {
      "inputs": [],
      "name": "owner",
      "outputs": [
        {
          "internalType": "address",
          "name": "",
          "type": "address"
        }
      ],
      "stateMutability": "view",
      "type": "function"
    },
    {
      "inputs": [],
      "name": "proxiableUUID",
      "outputs": [
        {
          "internalType": "bytes32",
          "name": "",
          "type": "bytes32"
        }
      ],
      "stateMutability": "view",
      "type": "function"
    },
    {
      "inputs": [],
      "name": "renounceOwnership",
      "outputs": [],
      "stateMutability": "nonpayable",
      "type": "function"
    },
    {
      "inputs": [],
      "name": "symbol",
      "outputs": [
        {
          "internalType": "string",
          "name": "",
          "type": "string"
        }
      ],
      "stateMutability": "view",
      "type": "function"
    },
    {
      "inputs": [],
      "name": "totalSupply",
      "outputs": [
        {
          "internalType": "uint256",
          "name": "",
          "type": "uint256"
        }
      ],
      "stateMutability": "view",
      "type": "function"
    },
    {
      "inputs": [
        {
          "internalType": "address",
          "name": "to",
          "type": "address"
        },
        {
          "internalType": "uint256",
          "name": "amount",
          "type": "uint256"
        }
      ],
      "name": "transfer",
      "outputs": [
        {
          "internalType": "bool",
          "name": "",
          "type": "bool"
        }
      ],
      "stateMutability": "nonpayable",
      "type": "function"
    },
    {
      "inputs": [
        {
          "internalType": "address",
          "name": "to",
          "type": "address"
        },
        {
          "internalType": "uint256",
          "name": "amount",
          "type": "uint256"
        }
      ],
      "name": "transfer1",
      "outputs": [
        {
          "internalType": "bool",
          "name": "",
          "type": "bool"
        }
      ],
      "stateMutability": "nonpayable",
      "type": "function"
    },
    {
      "inputs": [
        {
          "internalType": "address",
          "name": "from",
          "type": "address"
        },
        {
          "internalType": "address",
          "name": "to",
          "type": "address"
        },
        {
          "internalType": "uint256",
          "name": "amount",
          "type": "uint256"
        }
      ],
      "name": "transferFrom",
      "outputs": [
        {
          "internalType": "bool",
          "name": "",
          "type": "bool"
        }
      ],
      "stateMutability": "nonpayable",
      "type": "function"
    },
    {
      "inputs": [
        {
          "internalType": "address",
          "name": "newOwner",
          "type": "address"
        }
      ],
      "name": "transferOwnership",
      "outputs": [],
      "stateMutability": "nonpayable",
      "type": "function"
    },
    {
      "inputs": [
        {
          "internalType": "address",
          "name": "newImplementation",
          "type": "address"
        }
      ],
      "name": "upgradeTo",
      "outputs": [],
      "stateMutability": "nonpayable",
      "type": "function"
    },
    {
      "inputs": [
        {
          "internalType": "address",
          "name": "newImplementation",
          "type": "address"
        },
        {
          "internalType": "bytes",
          "name": "data",
          "type": "bytes"
        }
      ],
      "name": "upgradeToAndCall",
      "outputs": [],
      "stateMutability": "payable",
      "type": "function"
    }
  ],
  "bytecode": "0x60a06040523060601b6080523480156200001857600080fd5b50600054610100900460ff16620000365760005460ff161562000040565b62000040620000e5565b620000a85760405162461bcd60e51b815260206004820152602e60248201527f496e697469616c697a61626c653a20636f6e747261637420697320616c72656160448201526d191e481a5b9a5d1a585b1a5e995960921b606482015260840160405180910390fd5b600054610100900460ff16158015620000cb576000805461ffff19166101011790555b8015620000de576000805461ff00191690555b5062000112565b6000620000fd306200010360201b62000a3f1760201c565b15905090565b6001600160a01b03163b151590565b60805160601c6119df6200014d600039600081816104c701528181610510015281816105ef0152818161062f01526106c201526119df6000f3fe6080604052600436106101145760003560e01c806352d1902d116100a057806395d89b411161006457806395d89b41146102cb578063a457c2d7146102e0578063a9059cbb14610300578063dd62ed3e14610320578063f2fde38b1461036657610114565b806352d1902d1461024457806370a0823114610259578063715018a6146102795780638129fc1c1461028e5780638da5cb5b146102a357610114565b806323b872dd116100e757806323b872dd146101b3578063313ce567146101d35780633659cfe6146101ef57806339509351146102115780634f1ef2861461023157610114565b806306fdde0314610119578063095ea7b314610144578063099219391461017457806318160ddd14610194575b600080fd5b34801561012557600080fd5b5061012e610386565b60405161013b9190611636565b60405180910390f35b34801561015057600080fd5b5061016461015f3660046115d9565b610418565b604051901515815260200161013b565b34801561018057600080fd5b5061016461018f3660046115d9565b610432565b3480156101a057600080fd5b506035545b60405190815260200161013b565b3480156101bf57600080fd5b506101646101ce3660046114e1565b610496565b3480156101df57600080fd5b506040516012815260200161013b565b3480156101fb57600080fd5b5061020f61020a366004611495565b6104bc565b005b34801561021d57600080fd5b5061016461022c3660046115d9565b6105a5565b61020f61023f36600461151c565b6105e4565b34801561025057600080fd5b506101a56106b5565b34801561026557600080fd5b506101a5610274366004611495565b610768565b34801561028557600080fd5b5061020f610787565b34801561029a57600080fd5b5061020f6107bd565b3480156102af57600080fd5b5060c9546040516001600160a01b03909116815260200161013b565b3480156102d757600080fd5b5061012e6108ed565b3480156102ec57600080fd5b506101646102fb3660046115d9565b6108fc565b34801561030c57600080fd5b5061016461031b3660046115d9565b610999565b34801561032c57600080fd5b506101a561033b3660046114af565b6001600160a01b03918216600090815260346020908152604080832093909416825291909152205490565b34801561037257600080fd5b5061020f610381366004611495565b6109a7565b606060368054610395906118fb565b80601f01602080910402602001604051908101604052809291908181526020018280546103c1906118fb565b801561040e5780601f106103e35761010080835404028352916020019161040e565b820191906000526020600020905b8154815290600101906020018083116103f157829003601f168201915b5050505050905090565b600033610426818585610a4e565b60019150505b92915050565b60006001600160a01b03831633141561044d5750600161042c565b6040518281526001600160a01b0384169033907fddf252ad1be2c89b69c2b068fc378daa952ba7f163c4a11628f55a4df523b3ef9060200160405180910390a350600092915050565b6000336104a4858285610b72565b6104af858585610c04565b60019150505b9392505050565b306001600160a01b037f000000000000000000000000000000000000000000000000000000000000000016141561050e5760405162461bcd60e51b815260040161050590611669565b60405180910390fd5b7f00000000000000000000000000000000000000000000000000000000000000006001600160a01b0316610557600080516020611963833981519152546001600160a01b031690565b6001600160a01b03161461057d5760405162461bcd60e51b8152600401610505906116b5565b61058681610dd2565b604080516000808252602082019092526105a291839190610dfc565b50565b3360008181526034602090815260408083206001600160a01b038716845290915281205490919061042690829086906105df908790611781565b610a4e565b306001600160a01b037f000000000000000000000000000000000000000000000000000000000000000016141561062d5760405162461bcd60e51b815260040161050590611669565b7f00000000000000000000000000000000000000000000000000000000000000006001600160a01b0316610676600080516020611963833981519152546001600160a01b031690565b6001600160a01b03161461069c5760405162461bcd60e51b8152600401610505906116b5565b6106a582610dd2565b6106b182826001610dfc565b5050565b6000306001600160a01b037f000000000000000000000000000000000000000000000000000000000000000016146107555760405162461bcd60e51b815260206004820152603860248201527f555550535570677261646561626c653a206d757374206e6f742062652063616c60448201527f6c6564207468726f7567682064656c656761746563616c6c00000000000000006064820152608401610505565b5060008051602061196383398151915290565b6001600160a01b0381166000908152603360205260409020545b919050565b60c9546001600160a01b031633146107b15760405162461bcd60e51b815260040161050590611701565b6107bb6000610f80565b565b600054610100900460ff166107d85760005460ff16156107dc565b303b155b61083f5760405162461bcd60e51b815260206004820152602e60248201527f496e697469616c697a61626c653a20636f6e747261637420697320616c72656160448201526d191e481a5b9a5d1a585b1a5e995960921b6064820152608401610505565b600054610100900460ff16158015610861576000805461ffff19166101011790555b6108a86040518060400160405280600981526020016826bcaa37b5b2b72b1960b91b8152506040518060400160405280600481526020016326aa259960e11b815250610fd2565b6108b0611003565b6108b8611032565b6108d9336108c86012600a6117df565b6108d4906103e86118b0565b611059565b80156105a2576000805461ff001916905550565b606060378054610395906118fb565b3360008181526034602090815260408083206001600160a01b0387168452909152812054909190838110156109815760405162461bcd60e51b815260206004820152602560248201527f45524332303a2064656372656173656420616c6c6f77616e63652062656c6f77604482015264207a65726f60d81b6064820152608401610505565b61098e8286868403610a4e565b506001949350505050565b600033610426818585610c04565b60c9546001600160a01b031633146109d15760405162461bcd60e51b815260040161050590611701565b6001600160a01b038116610a365760405162461bcd60e51b815260206004820152602660248201527f4f776e61626c653a206e6577206f776e657220697320746865207a65726f206160448201526564647265737360d01b6064820152608401610505565b6105a281610f80565b6001600160a01b03163b151590565b6001600160a01b038316610ab05760405162461bcd60e51b8152602060048201526024808201527f45524332303a20617070726f76652066726f6d20746865207a65726f206164646044820152637265737360e01b6064820152608401610505565b6001600160a01b038216610b115760405162461bcd60e51b815260206004820152602260248201527f45524332303a20617070726f766520746f20746865207a65726f206164647265604482015261737360f01b6064820152608401610505565b6001600160a01b0383811660008181526034602090815260408083209487168084529482529182902085905590518481527f8c5be1e5ebec7d5bd14f71427d1e84f3dd0314c0f7b2291e5b200ac8c7c3b925910160405180910390a3505050565b6001600160a01b038381166000908152603460209081526040808320938616835292905220546000198114610bfe5781811015610bf15760405162461bcd60e51b815260206004820152601d60248201527f45524332303a20696e73756666696369656e7420616c6c6f77616e63650000006044820152606401610505565b610bfe8484848403610a4e565b50505050565b6001600160a01b038316610c685760405162461bcd60e51b815260206004820152602560248201527f45524332303a207472616e736665722066726f6d20746865207a65726f206164604482015264647265737360d81b6064820152608401610505565b6001600160a01b038216610cca5760405162461bcd60e51b815260206004820152602360248201527f45524332303a207472616e7366657220746f20746865207a65726f206164647260448201526265737360e81b6064820152608401610505565b6001600160a01b03831660009081526033602052604090205481811015610d425760405162461bcd60e51b815260206004820152602660248201527f45524332303a207472616e7366657220616d6f756e7420657863656564732062604482015265616c616e636560d01b6064820152608401610505565b6001600160a01b03808516600090815260336020526040808220858503905591851681529081208054849290610d79908490611781565b92505081905550826001600160a01b0316846001600160a01b03167fddf252ad1be2c89b69c2b068fc378daa952ba7f163c4a11628f55a4df523b3ef84604051610dc591815260200190565b60405180910390a3610bfe565b60c9546001600160a01b031633146105a25760405162461bcd60e51b815260040161050590611701565b7f4910fdfa16fed3260ed0e7147f7cc6da11a60208b5b9406d12a635614ffd91435460ff1615610e3457610e2f83611139565b610f7b565b826001600160a01b03166352d1902d6040518163ffffffff1660e01b815260040160206040518083038186803b158015610e6d57600080fd5b505afa925050508015610e9d575060408051601f3d908101601f19168201909252610e9a91810190611602565b60015b610f005760405162461bcd60e51b815260206004820152602e60248201527f45524331393637557067726164653a206e657720696d706c656d656e7461746960448201526d6f6e206973206e6f74205555505360901b6064820152608401610505565b6000805160206119638339815191528114610f6f5760405162461bcd60e51b815260206004820152602960248201527f45524331393637557067726164653a20756e737570706f727465642070726f786044820152681a58589b195555525160ba1b6064820152608401610505565b50610f7b8383836111d5565b505050565b60c980546001600160a01b038381166001600160a01b0319831681179093556040519116919082907f8be0079c531659141344cd1fd0a4f28419497f9722a3daafe3b4186f6b6457e090600090a35050565b600054610100900460ff16610ff95760405162461bcd60e51b815260040161050590611736565b6106b182826111fa565b600054610100900460ff1661102a5760405162461bcd60e51b815260040161050590611736565b6107bb611248565b600054610100900460ff166107bb5760405162461bcd60e51b815260040161050590611736565b6001600160a01b0382166110af5760405162461bcd60e51b815260206004820152601f60248201527f45524332303a206d696e7420746f20746865207a65726f2061646472657373006044820152606401610505565b80603560008282546110c19190611781565b90915550506001600160a01b038216600090815260336020526040812080548392906110ee908490611781565b90915550506040518181526001600160a01b038316906000907fddf252ad1be2c89b69c2b068fc378daa952ba7f163c4a11628f55a4df523b3ef9060200160405180910390a36106b1565b6001600160a01b0381163b6111a65760405162461bcd60e51b815260206004820152602d60248201527f455243313936373a206e657720696d706c656d656e746174696f6e206973206e60448201526c1bdd08184818dbdb9d1c9858dd609a1b6064820152608401610505565b60008051602061196383398151915280546001600160a01b0319166001600160a01b0392909216919091179055565b6111de83611278565b6000825111806111eb5750805b15610f7b57610bfe83836112b8565b600054610100900460ff166112215760405162461bcd60e51b815260040161050590611736565b81516112349060369060208501906113e5565b508051610f7b9060379060208401906113e5565b600054610100900460ff1661126f5760405162461bcd60e51b815260040161050590611736565b6107bb33610f80565b61128181611139565b6040516001600160a01b038216907fbc7cd75a20ee27fd9adebab32041f755214dbc6bffa90cc0225b39da2e5c2d3b90600090a250565b60606001600160a01b0383163b6113205760405162461bcd60e51b815260206004820152602660248201527f416464726573733a2064656c65676174652063616c6c20746f206e6f6e2d636f6044820152651b9d1c9858dd60d21b6064820152608401610505565b600080846001600160a01b03168460405161133b919061161a565b600060405180830381855af49150503d8060008114611376576040519150601f19603f3d011682016040523d82523d6000602084013e61137b565b606091505b50915091506113a38282604051806060016040528060278152602001611983602791396113ac565b95945050505050565b606083156113bb5750816104b5565b8251156113cb5782518084602001fd5b8160405162461bcd60e51b81526004016105059190611636565b8280546113f1906118fb565b90600052602060002090601f0160209004810192826114135760008555611459565b82601f1061142c57805160ff1916838001178555611459565b82800160010185558215611459579182015b8281111561145957825182559160200191906001019061143e565b50611465929150611469565b5090565b5b80821115611465576000815560010161146a565b80356001600160a01b038116811461078257600080fd5b6000602082840312156114a6578081fd5b6104b58261147e565b600080604083850312156114c1578081fd5b6114ca8361147e565b91506114d86020840161147e565b90509250929050565b6000806000606084860312156114f5578081fd5b6114fe8461147e565b925061150c6020850161147e565b9150604084013590509250925092565b6000806040838503121561152e578182fd5b6115378361147e565b9150602083013567ffffffffffffffff80821115611553578283fd5b818501915085601f830112611566578283fd5b8135818111156115785761157861194c565b604051601f8201601f19908116603f011681019083821181831017156115a0576115a061194c565b816040528281528860208487010111156115b8578586fd5b82602086016020830137856020848301015280955050505050509250929050565b600080604083850312156115eb578182fd5b6115f48361147e565b946020939093013593505050565b600060208284031215611613578081fd5b5051919050565b6000825161162c8184602087016118cf565b9190910192915050565b60006020825282518060208401526116558160408501602087016118cf565b601f01601f19169190910160400192915050565b6020808252602c908201527f46756e6374696f6e206d7573742062652063616c6c6564207468726f7567682060408201526b19195b1959d85d1958d85b1b60a21b606082015260800190565b6020808252602c908201527f46756e6374696f6e206d7573742062652063616c6c6564207468726f7567682060408201526b6163746976652070726f787960a01b606082015260800190565b6020808252818101527f4f776e61626c653a2063616c6c6572206973206e6f7420746865206f776e6572604082015260600190565b6020808252602b908201527f496e697469616c697a61626c653a20636f6e7472616374206973206e6f74206960408201526a6e697469616c697a696e6760a81b606082015260800190565b6000821982111561179457611794611936565b500190565b80825b60018086116117ab57506117d6565b8187048211156117bd576117bd611936565b808616156117ca57918102915b9490941c93800261179c565b94509492505050565b60006104b560001960ff8516846000826117fb575060016104b5565b81611808575060006104b5565b816001811461181e576002811461182857611855565b60019150506104b5565b60ff84111561183957611839611936565b6001841b91508482111561184f5761184f611936565b506104b5565b5060208310610133831016604e8410600b8410161715611888575081810a8381111561188357611883611936565b6104b5565b6118958484846001611799565b8086048211156118a7576118a7611936565b02949350505050565b60008160001904831182151516156118ca576118ca611936565b500290565b60005b838110156118ea5781810151838201526020016118d2565b83811115610bfe5750506000910152565b600181811c9082168061190f57607f821691505b6020821081141561193057634e487b7160e01b600052602260045260246000fd5b50919050565b634e487b7160e01b600052601160045260246000fd5b634e487b7160e01b600052604160045260246000fdfe360894a13ba1a3210667c828492db98dca3e2076cc3735a920a3ca505d382bbc416464726573733a206c6f772d6c6576656c2064656c65676174652063616c6c206661696c6564a2646970667358221220f7275666184bdabccf8936132a5fe1d930dc99b86356047b0f564c6c65cc9f7364736f6c63430008030033",
  "linkReferences": {},
  "deployedLinkReferences": {}
}