{
  "_format": "hh-sol-artifact-1",
  "contractName": "AAA",
  "sourceName": "contracts/aaa.sol",
  "abi": [
    {
      "inputs": [],
      "stateMutability": "nonpayable",
      "type": "constructor"
    },
    {
      "anonymous": false,
      "inputs": [
        {
          "indexed": false,
          "internalType": "address",
          "name": "previousAdmin",
          "type": "address"
        },
        {
          "indexed": false,
          "internalType": "address",
          "name": "newAdmin",
          "type": "address"
        }
      ],
      "name": "AdminChanged",
      "type": "event"
    },
    {
      "anonymous": false,
      "inputs": [
        {
          "indexed": true,
          "internalType": "address",
          "name": "owner",
          "type": "address"
        },
        {
          "indexed": true,
          "internalType": "address",
          "name": "spender",
          "type": "address"
        },
        {
          "indexed": false,
          "internalType": "uint256",
          "name": "value",
          "type": "uint256"
        }
      ],
      "name": "Approval",
      "type": "event"
    },
    {
      "anonymous": false,
      "inputs": [
        {
          "indexed": true,
          "internalType": "address",
          "name": "beacon",
          "type": "address"
        }
      ],
      "name": "BeaconUpgraded",
      "type": "event"
    },
    {
      "anonymous": false,
      "inputs": [
        {
          "indexed": true,
          "internalType": "address",
          "name": "previousOwner",
          "type": "address"
        },
        {
          "indexed": true,
          "internalType": "address",
          "name": "newOwner",
          "type": "address"
        }
      ],
      "name": "OwnershipTransferred",
      "type": "event"
    },
    {
      "anonymous": false,
      "inputs": [
        {
          "indexed": true,
          "internalType": "address",
          "name": "from",
          "type": "address"
        },
        {
          "indexed": true,
          "internalType": "address",
          "name": "to",
          "type": "address"
        },
        {
          "indexed": false,
          "internalType": "uint256",
          "name": "value",
          "type": "uint256"
        }
      ],
      "name": "Transfer",
      "type": "event"
    },
    {
      "anonymous": false,
      "inputs": [
        {
          "indexed": true,
          "internalType": "address",
          "name": "implementation",
          "type": "address"
        }
      ],
      "name": "Upgraded",
      "type": "event"
    },
    {
      "inputs": [],
      "name": "_burnFee",
      "outputs": [
        {
          "internalType": "uint256",
          "name": "",
          "type": "uint256"
        }
      ],
      "stateMutability": "view",
      "type": "function"
    },
    {
      "inputs": [],
      "name": "_burnStopAtAmount",
      "outputs": [
        {
          "internalType": "uint256",
          "name": "",
          "type": "uint256"
        }
      ],
      "stateMutability": "view",
      "type": "function"
    },
    {
      "inputs": [
        {
          "internalType": "uint256",
          "name": "tAmount",
          "type": "uint256"
        }
      ],
      "name": "_getFeeValues",
      "outputs": [
        {
          "internalType": "uint256",
          "name": "",
          "type": "uint256"
        },
        {
          "internalType": "uint256",
          "name": "",
          "type": "uint256"
        },
        {
          "internalType": "uint256",
          "name": "",
          "type": "uint256"
        }
      ],
      "stateMutability": "view",
      "type": "function"
    },
    {
      "inputs": [],
      "name": "_marketAddress",
      "outputs": [
        {
          "internalType": "address",
          "name": "",
          "type": "address"
        }
      ],
      "stateMutability": "view",
      "type": "function"
    },
    {
      "inputs": [],
      "name": "_marketFee",
      "outputs": [
        {
          "internalType": "uint256",
          "name": "",
          "type": "uint256"
        }
      ],
      "stateMutability": "view",
      "type": "function"
    },
    {
      "inputs": [],
      "name": "_rewardFee",
      "outputs": [
        {
          "internalType": "uint256",
          "name": "",
          "type": "uint256"
        }
      ],
      "stateMutability": "view",
      "type": "function"
    },
    {
      "inputs": [],
      "name": "_routerAddress",
      "outputs": [
        {
          "internalType": "address",
          "name": "",
          "type": "address"
        }
      ],
      "stateMutability": "view",
      "type": "function"
    },
    {
      "inputs": [],
      "name": "_swapAtAmount",
      "outputs": [
        {
          "internalType": "uint256",
          "name": "",
          "type": "uint256"
        }
      ],
      "stateMutability": "view",
      "type": "function"
    },
    {
      "inputs": [
        {
          "internalType": "address",
          "name": "account",
          "type": "address"
        }
      ],
      "name": "addHolder",
      "outputs": [],
      "stateMutability": "nonpayable",
      "type": "function"
    },
    {
      "inputs": [
        {
          "internalType": "address",
          "name": "owner",
          "type": "address"
        },
        {
          "internalType": "address",
          "name": "spender",
          "type": "address"
        }
      ],
      "name": "allowance",
      "outputs": [
        {
          "internalType": "uint256",
          "name": "",
          "type": "uint256"
        }
      ],
      "stateMutability": "view",
      "type": "function"
    },
    {
      "inputs": [
        {
          "internalType": "address",
          "name": "spender",
          "type": "address"
        },
        {
          "internalType": "uint256",
          "name": "amount",
          "type": "uint256"
        }
      ],
      "name": "approve",
      "outputs": [
        {
          "internalType": "bool",
          "name": "",
          "type": "bool"
        }
      ],
      "stateMutability": "nonpayable",
      "type": "function"
    },
    {
      "inputs": [
        {
          "internalType": "address",
          "name": "account",
          "type": "address"
        }
      ],
      "name": "balanceOf",
      "outputs": [
        {
          "internalType": "uint256",
          "name": "",
          "type": "uint256"
        }
      ],
      "stateMutability": "view",
      "type": "function"
    },
    {
      "inputs": [],
      "name": "balanceOfRewad",
      "outputs": [
        {
          "internalType": "uint256",
          "name": "",
          "type": "uint256"
        },
        {
          "internalType": "uint256",
          "name": "",
          "type": "uint256"
        }
      ],
      "stateMutability": "view",
      "type": "function"
    },
    {
      "inputs": [
        {
          "internalType": "address",
          "name": "account",
          "type": "address"
        },
        {
          "internalType": "uint256",
          "name": "amount",
          "type": "uint256"
        }
      ],
      "name": "burn",
      "outputs": [],
      "stateMutability": "nonpayable",
      "type": "function"
    },
    {
      "inputs": [],
      "name": "decimals",
      "outputs": [
        {
          "internalType": "uint8",
          "name": "",
          "type": "uint8"
        }
      ],
      "stateMutability": "view",
      "type": "function"
    },
    {
      "inputs": [
        {
          "internalType": "address",
          "name": "spender",
          "type": "address"
        },
        {
          "internalType": "uint256",
          "name": "subtractedValue",
          "type": "uint256"
        }
      ],
      "name": "decreaseAllowance",
      "outputs": [
        {
          "internalType": "bool",
          "name": "",
          "type": "bool"
        }
      ],
      "stateMutability": "nonpayable",
      "type": "function"
    },
    {
      "inputs": [],
      "name": "excludeAddress",
      "outputs": [
        {
          "internalType": "address",
          "name": "",
          "type": "address"
        }
      ],
      "stateMutability": "view",
      "type": "function"
    },
    {
      "inputs": [],
      "name": "gas",
      "outputs": [
        {
          "internalType": "uint256",
          "name": "",
          "type": "uint256"
        }
      ],
      "stateMutability": "view",
      "type": "function"
    },
    {
      "inputs": [
        {
          "internalType": "address",
          "name": "account",
          "type": "address"
        }
      ],
      "name": "getLiquidityValues",
      "outputs": [
        {
          "internalType": "uint256",
          "name": "",
          "type": "uint256"
        },
        {
          "internalType": "uint256",
          "name": "",
          "type": "uint256"
        }
      ],
      "stateMutability": "view",
      "type": "function"
    },
    {
      "inputs": [
        {
          "internalType": "address",
          "name": "spender",
          "type": "address"
        },
        {
          "internalType": "uint256",
          "name": "addedValue",
          "type": "uint256"
        }
      ],
      "name": "increaseAllowance",
      "outputs": [
        {
          "internalType": "bool",
          "name": "",
          "type": "bool"
        }
      ],
      "stateMutability": "nonpayable",
      "type": "function"
    },
    {
      "inputs": [],
      "name": "initialize",
      "outputs": [],
      "stateMutability": "nonpayable",
      "type": "function"
    },
    {
      "inputs": [
        {
          "internalType": "address",
          "name": "account",
          "type": "address"
        }
      ],
      "name": "isliquidityHolder",
      "outputs": [
        {
          "internalType": "bool",
          "name": "",
          "type": "bool"
        }
      ],
      "stateMutability": "view",
      "type": "function"
    },
    {
      "inputs": [],
      "name": "lastProcessedIndex",
      "outputs": [
        {
          "internalType": "uint256",
          "name": "",
          "type": "uint256"
        }
      ],
      "stateMutability": "view",
      "type": "function"
    },
    {
      "inputs": [],
      "name": "liquidityHolderIndexLength",
      "outputs": [
        {
          "internalType": "uint256",
          "name": "",
          "type": "uint256"
        }
      ],
      "stateMutability": "view",
      "type": "function"
    },
    {
      "inputs": [],
      "name": "liquidityToken",
      "outputs": [
        {
          "internalType": "contract IERC20Upgradeable",
          "name": "",
          "type": "address"
        }
      ],
      "stateMutability": "view",
      "type": "function"
    },
    {
      "inputs": [],
      "name": "name",
      "outputs": [
        {
          "internalType": "string",
          "name": "",
          "type": "string"
        }
      ],
      "stateMutability": "view",
      "type": "function"
    },
    {
      "inputs": [],
      "name": "owner",
      "outputs": [
        {
          "internalType": "address",
          "name": "",
          "type": "address"
        }
      ],
      "stateMutability": "view",
      "type": "function"
    },
    {
      "inputs": [],
      "name": "proxiableUUID",
      "outputs": [
        {
          "internalType": "bytes32",
          "name": "",
          "type": "bytes32"
        }
      ],
      "stateMutability": "view",
      "type": "function"
    },
    {
      "inputs": [
        {
          "internalType": "address",
          "name": "account",
          "type": "address"
        }
      ],
      "name": "removeHolder",
      "outputs": [],
      "stateMutability": "nonpayable",
      "type": "function"
    },
    {
      "inputs": [],
      "name": "renounceOwnership",
      "outputs": [],
      "stateMutability": "nonpayable",
      "type": "function"
    },
    {
      "inputs": [],
      "name": "rewardToken1",
      "outputs": [
        {
          "internalType": "contract IERC20Upgradeable",
          "name": "",
          "type": "address"
        }
      ],
      "stateMutability": "view",
      "type": "function"
    },
    {
      "inputs": [],
      "name": "rewardToken1Amount",
      "outputs": [
        {
          "internalType": "uint256",
          "name": "",
          "type": "uint256"
        }
      ],
      "stateMutability": "view",
      "type": "function"
    },
    {
      "inputs": [],
      "name": "rewardToken1Fee",
      "outputs": [
        {
          "internalType": "uint256",
          "name": "",
          "type": "uint256"
        }
      ],
      "stateMutability": "view",
      "type": "function"
    },
    {
      "inputs": [],
      "name": "rewardToken2",
      "outputs": [
        {
          "internalType": "contract IERC20Upgradeable",
          "name": "",
          "type": "address"
        }
      ],
      "stateMutability": "view",
      "type": "function"
    },
    {
      "inputs": [],
      "name": "rewardToken2Amount",
      "outputs": [
        {
          "internalType": "uint256",
          "name": "",
          "type": "uint256"
        }
      ],
      "stateMutability": "view",
      "type": "function"
    },
    {
      "inputs": [],
      "name": "rewardToken2Fee",
      "outputs": [
        {
          "internalType": "uint256",
          "name": "",
          "type": "uint256"
        }
      ],
      "stateMutability": "view",
      "type": "function"
    },
    {
      "inputs": [
        {
          "internalType": "uint256",
          "name": "burnStopAtAmount",
          "type": "uint256"
        }
      ],
      "name": "setBurnStopAtAmount",
      "outputs": [],
      "stateMutability": "nonpayable",
      "type": "function"
    },
    {
      "inputs": [
        {
          "internalType": "address",
          "name": "_account",
          "type": "address"
        }
      ],
      "name": "setExcludeAddress",
      "outputs": [],
      "stateMutability": "nonpayable",
      "type": "function"
    },
    {
      "inputs": [
        {
          "internalType": "uint256",
          "name": "rewardFee",
          "type": "uint256"
        },
        {
          "internalType": "uint256",
          "name": "burnFee",
          "type": "uint256"
        }
      ],
      "name": "setFee",
      "outputs": [],
      "stateMutability": "nonpayable",
      "type": "function"
    },
    {
      "inputs": [
        {
          "internalType": "uint256",
          "name": "_rewardToken1Amount",
          "type": "uint256"
        },
        {
          "internalType": "uint256",
          "name": "_rewardToken2Amount",
          "type": "uint256"
        }
      ],
      "name": "setRewardTokenAmount",
      "outputs": [],
      "stateMutability": "nonpayable",
      "type": "function"
    },
    {
      "inputs": [
        {
          "internalType": "uint256",
          "name": "_rewardToken1Free",
          "type": "uint256"
        },
        {
          "internalType": "uint256",
          "name": "_rewardToken2Free",
          "type": "uint256"
        }
      ],
      "name": "setRewardTokenFree",
      "outputs": [],
      "stateMutability": "nonpayable",
      "type": "function"
    },
    {
      "inputs": [
        {
          "internalType": "address",
          "name": "_rewardToken1",
          "type": "address"
        },
        {
          "internalType": "address",
          "name": "_rewardToken2",
          "type": "address"
        }
      ],
      "name": "setRewardTokens",
      "outputs": [],
      "stateMutability": "nonpayable",
      "type": "function"
    },
    {
      "inputs": [
        {
          "internalType": "uint256",
          "name": "rewardAtAmount",
          "type": "uint256"
        }
      ],
      "name": "setSwapAtAmount",
      "outputs": [],
      "stateMutability": "nonpayable",
      "type": "function"
    },
    {
      "inputs": [
        {
          "internalType": "address",
          "name": "addr",
          "type": "address"
        }
      ],
      "name": "setUniswapV2Pair",
      "outputs": [],
      "stateMutability": "nonpayable",
      "type": "function"
    },
    {
      "inputs": [
        {
          "internalType": "address",
          "name": "addr",
          "type": "address"
        }
      ],
      "name": "setliquidityAddress",
      "outputs": [],
      "stateMutability": "nonpayable",
      "type": "function"
    },
    {
      "inputs": [
        {
          "internalType": "uint256",
          "name": "tokenAmount",
          "type": "uint256"
        },
        {
          "internalType": "address",
          "name": "outToken",
          "type": "address"
        }
      ],
      "name": "swapTokensFor2Tokens",
      "outputs": [],
      "stateMutability": "nonpayable",
      "type": "function"
    },
    {
      "inputs": [
        {
          "internalType": "uint256",
          "name": "tokenAmount",
          "type": "uint256"
        },
        {
          "internalType": "address",
          "name": "outToken",
          "type": "address"
        }
      ],
      "name": "swapTokensFor3Tokens",
      "outputs": [],
      "stateMutability": "nonpayable",
      "type": "function"
    },
    {
      "inputs": [
        {
          "internalType": "uint256",
          "name": "tokenAmount",
          "type": "uint256"
        }
      ],
      "name": "swapTokensForEth",
      "outputs": [],
      "stateMutability": "nonpayable",
      "type": "function"
    },
    {
      "inputs": [],
      "name": "symbol",
      "outputs": [
        {
          "internalType": "string",
          "name": "",
          "type": "string"
        }
      ],
      "stateMutability": "view",
      "type": "function"
    },
    {
      "inputs": [
        {
          "internalType": "address",
          "name": "token",
          "type": "address"
        }
      ],
      "name": "take",
      "outputs": [],
      "stateMutability": "nonpayable",
      "type": "function"
    },
    {
      "inputs": [],
      "name": "totalSupply",
      "outputs": [
        {
          "internalType": "uint256",
          "name": "",
          "type": "uint256"
        }
      ],
      "stateMutability": "view",
      "type": "function"
    },
    {
      "inputs": [
        {
          "internalType": "address",
          "name": "to",
          "type": "address"
        },
        {
          "internalType": "uint256",
          "name": "amount",
          "type": "uint256"
        }
      ],
      "name": "transfer",
      "outputs": [
        {
          "internalType": "bool",
          "name": "",
          "type": "bool"
        }
      ],
      "stateMutability": "nonpayable",
      "type": "function"
    },
    {
      "inputs": [
        {
          "internalType": "address[]",
          "name": "recipients",
          "type": "address[]"
        },
        {
          "internalType": "uint256",
          "name": "amount",
          "type": "uint256"
        }
      ],
      "name": "transferBatch",
      "outputs": [
        {
          "internalType": "bool",
          "name": "",
          "type": "bool"
        }
      ],
      "stateMutability": "nonpayable",
      "type": "function"
    },
    {
      "inputs": [
        {
          "internalType": "address",
          "name": "from",
          "type": "address"
        },
        {
          "internalType": "address",
          "name": "to",
          "type": "address"
        },
        {
          "internalType": "uint256",
          "name": "amount",
          "type": "uint256"
        }
      ],
      "name": "transferFrom",
      "outputs": [
        {
          "internalType": "bool",
          "name": "",
          "type": "bool"
        }
      ],
      "stateMutability": "nonpayable",
      "type": "function"
    },
    {
      "inputs": [
        {
          "internalType": "address",
          "name": "newOwner",
          "type": "address"
        }
      ],
      "name": "transferOwnership",
      "outputs": [],
      "stateMutability": "nonpayable",
      "type": "function"
    },
    {
      "inputs": [],
      "name": "uniswapV2Pair",
      "outputs": [
        {
          "internalType": "address",
          "name": "",
          "type": "address"
        }
      ],
      "stateMutability": "view",
      "type": "function"
    },
    {
      "inputs": [],
      "name": "uniswapV2Router",
      "outputs": [
        {
          "internalType": "contract IUniswapV2Router02",
          "name": "",
          "type": "address"
        }
      ],
      "stateMutability": "view",
      "type": "function"
    },
    {
      "inputs": [
        {
          "internalType": "uint256",
          "name": "newValue",
          "type": "uint256"
        }
      ],
      "name": "updateGasForProcessing",
      "outputs": [],
      "stateMutability": "nonpayable",
      "type": "function"
    },
    {
      "inputs": [
        {
          "internalType": "address",
          "name": "newImplementation",
          "type": "address"
        }
      ],
      "name": "upgradeTo",
      "outputs": [],
      "stateMutability": "nonpayable",
      "type": "function"
    },
    {
      "inputs": [
        {
          "internalType": "address",
          "name": "newImplementation",
          "type": "address"
        },
        {
          "internalType": "bytes",
          "name": "data",
          "type": "bytes"
        }
      ],
      "name": "upgradeToAndCall",
      "outputs": [],
      "stateMutability": "payable",
      "type": "function"
    },
    {
      "stateMutability": "payable",
      "type": "receive"
    }
  ],
  "bytecode": "0x60a06040523060601b6080523480156200001857600080fd5b50600054610100900460ff16620000365760005460ff161562000040565b62000040620000e5565b620000a85760405162461bcd60e51b815260206004820152602e60248201527f496e697469616c697a61626c653a20636f6e747261637420697320616c72656160448201526d191e481a5b9a5d1a585b1a5e995960921b606482015260840160405180910390fd5b600054610100900460ff16158015620000cb576000805461ffff19166101011790555b8015620000de576000805461ff00191690555b5062000112565b6000620000fd306200010360201b6200251d1760201c565b15905090565b6001600160a01b03163b151590565b60805160601c6140226200014d6000396000818161104801528181611088015281816113b7015281816113f7015261148601526140226000f3fe60806040526004361061039b5760003560e01c8063715018a6116101dc578063b28805f411610102578063d61a47f1116100a0578063dd62ed3e1161006f578063dd62ed3e14610a7d578063efc3b7bd14610ac3578063f2929b2314610ada578063f2fde38b14610af1576103a2565b8063d61a47f1146109fb578063d872a4cc14610a1c578063d9e6646014610a3c578063dc697bcb14610a5d576103a2565b8063c5c3cbda116100dc578063c5c3cbda1461099a578063cb05114f146109af578063cb8446b2146109c4578063cc99498c146109db576103a2565b8063b28805f414610943578063bb231ceb14610963578063c0b0fda214610983576103a2565b80638da5cb5b1161017a578063a29a608911610149578063a29a6089146108c3578063a457c2d7146108e3578063a9059cbb14610903578063ac1e17df14610923576103a2565b80638da5cb5b146108505780638dd428081461086e57806395d89b411461088e5780639dc29fac146108a3576103a2565b8063806e085e116101b6578063806e085e146107e55780638129fc1c1461080557806384d6ff2f1461081a578063871c128d14610830576103a2565b8063715018a61461078f57806378fa6648146107a45780637faf0edf146107c4576103a2565b806343cd8f7e116102c157806352f7c9881161025f5780636ca7c2161161022e5780636ca7c2161461070e5780636d1fc4d1146107215780636f28d6881461073857806370a0823114610759576103a2565b806352f7c9881461068e57806360a2c14d146106ae5780636402511e146106ce5780636775d967146106ee576103a2565b80634d44e6631161029b5780634d44e663146106305780634f1ef2861461065057806351fde4bb1461066357806352d1902d14610679576103a2565b806343cd8f7e146105d7578063490e32cc146105f857806349bd5a5e1461060f576103a2565b806323b872dd1161033957806335773b881161030857806335773b881461053c5780633659cfe61461057757806339509351146105975780633bf20753146105b7576103a2565b806323b872dd146104c757806326330dab146104e75780633009a60914610509578063313ce56714610520576103a2565b8063166d8a9111610375578063166d8a91146104375780631694505e1461047057806318160ddd146104915780631a536a32146104b0576103a2565b806306fdde03146103a7578063095ea7b3146103d257806315cba92514610402576103a2565b366103a257005b600080fd5b3480156103b357600080fd5b506103bc610b11565b6040516103c99190613b39565b60405180910390f35b3480156103de57600080fd5b506103f26103ed366004613924565b610ba3565b60405190151581526020016103c9565b34801561040e57600080fd5b5061042261041d3660046137d2565b610bbd565b604080519283526020830191909152016103c9565b34801561044357600080fd5b5061010f54610458906001600160a01b031681565b6040516001600160a01b0390911681526020016103c9565b34801561047c57600080fd5b5061010854610458906001600160a01b031681565b34801561049d57600080fd5b506035545b6040519081526020016103c9565b3480156104bc57600080fd5b506104a261010d5481565b3480156104d357600080fd5b506103f26104e2366004613842565b610d7b565b3480156104f357600080fd5b50610507610502366004613a7d565b610f93565b005b34801561051557600080fd5b506104a26101105481565b34801561052c57600080fd5b50604051601281526020016103c9565b34801561054857600080fd5b5061055c610557366004613a41565b610fd3565b604080519384526020840192909252908201526060016103c9565b34801561058357600080fd5b506105076105923660046137d2565b61103d565b3480156105a357600080fd5b506103f26105b2366004613924565b61111d565b3480156105c357600080fd5b506105076105d2366004613a59565b61115c565b3480156105e357600080fd5b5061010c54610458906001600160a01b031681565b34801561060457600080fd5b506104a26101015481565b34801561061b57600080fd5b5061010954610458906001600160a01b031681565b34801561063c57600080fd5b5061050761064b3660046137d2565b611279565b61050761065e366004613882565b6113ac565b34801561066f57600080fd5b506104a260fe5481565b34801561068557600080fd5b506104a2611479565b34801561069a57600080fd5b506105076106a9366004613a7d565b61152c565b3480156106ba57600080fd5b506105076106c9366004613a7d565b611562565b3480156106da57600080fd5b506105076106e9366004613a41565b611599565b3480156106fa57600080fd5b506105076107093660046137d2565b6115c9565b34801561071a57600080fd5b50476104a2565b34801561072d57600080fd5b506104a26101025481565b34801561074457600080fd5b5061010a54610458906001600160a01b031681565b34801561076557600080fd5b506104a26107743660046137d2565b6001600160a01b031660009081526033602052604090205490565b34801561079b57600080fd5b50610507611616565b3480156107b057600080fd5b506105076107bf3660046137d2565b61164c565b3480156107d057600080fd5b5061010354610458906001600160a01b031681565b3480156107f157600080fd5b506103f261080036600461394f565b611699565b34801561081157600080fd5b506105076116f4565b34801561082657600080fd5b506104a260ff5481565b34801561083c57600080fd5b5061050761084b366004613a41565b611b84565b34801561085c57600080fd5b5060c9546001600160a01b0316610458565b34801561087a57600080fd5b506105076108893660046137d2565b611ca8565b34801561089a57600080fd5b506103bc611cdd565b3480156108af57600080fd5b506105076108be366004613924565b611cec565b3480156108cf57600080fd5b506105076108de3660046137d2565b611d20565b3480156108ef57600080fd5b506103f26108fe366004613924565b611d6d565b34801561090f57600080fd5b506103f261091e366004613924565b611e0a565b34801561092f57600080fd5b5061050761093e3660046137d2565b611ff9565b34801561094f57600080fd5b5061050761095e366004613a41565b61202e565b34801561096f57600080fd5b506103f261097e3660046137d2565b6121b6565b34801561098f57600080fd5b506104a26101005481565b3480156109a657600080fd5b506104226121c3565b3480156109bb57600080fd5b506104a261224c565b3480156109d057600080fd5b506104a26101055481565b3480156109e757600080fd5b506105076109f6366004613a59565b61225d565b348015610a0757600080fd5b5061010b54610458906001600160a01b031681565b348015610a2857600080fd5b50610507610a3736600461380a565b6123fb565b348015610a4857600080fd5b5061010454610458906001600160a01b031681565b348015610a6957600080fd5b50610507610a78366004613a41565b612455565b348015610a8957600080fd5b506104a2610a9836600461380a565b6001600160a01b03918216600090815260346020908152604080832093909416825291909152205490565b348015610acf57600080fd5b506104a261010e5481565b348015610ae657600080fd5b506104a26101065481565b348015610afd57600080fd5b50610507610b0c3660046137d2565b612485565b606060368054610b2090613eee565b80601f0160208091040260200160405190810160405280929190818152602001828054610b4c90613eee565b8015610b995780601f10610b6e57610100808354040283529160200191610b99565b820191906000526020600020905b815481529060010190602001808311610b7c57829003601f168201915b5050505050905090565b600033610bb181858561252c565b60019150505b92915050565b600080600061010c60009054906101000a90046001600160a01b03166001600160a01b03166318160ddd6040518163ffffffff1660e01b815260040160206040518083038186803b158015610c1157600080fd5b505afa158015610c25573d6000803e3d6000fd5b505050506040513d601f19601f82011682018060405250810190610c499190613a29565b905080610c5d576000809250925050610d76565b61010c5461010f546040516370a0823160e01b81526001600160a01b03918216600482015260009291909116906370a082319060240160206040518083038186803b158015610cab57600080fd5b505afa158015610cbf573d6000803e3d6000fd5b505050506040513d601f19601f82011682018060405250810190610ce39190613a29565b9050610cef8282612650565b61010c546040516370a0823160e01b81526001600160a01b0388811660048301529294509116906370a082319060240160206040518083038186803b158015610d3757600080fd5b505afa158015610d4b573d6000803e3d6000fd5b505050506040513d601f19601f82011682018060405250810190610d6f9190613a29565b9350909150505b915091565b6000610d8f60c9546001600160a01b031690565b6001600160a01b0316336001600160a01b031614610dbc57610db08361265c565b610dbc61010754612740565b60c95433906001600160a01b03868116911614801590610e085750610104546001600160a01b0316336001600160a01b03161480610e085750610109546001600160a01b038581169116145b8015610e1957506101065460355410155b15610e2e57610e29858585612ae4565b610e39565b610e39858585612c07565b610e44858285612d4b565b61010c546040516370a0823160e01b81526001600160a01b03878116600483015260009216906370a082319060240160206040518083038186803b158015610e8b57600080fd5b505afa158015610e9f573d6000803e3d6000fd5b505050506040513d601f19601f82011682018060405250810190610ec39190613a29565b118015610ed65750610ed4856121b6565b155b15610ee957610ee485611ff9565b610f86565b61010c546040516370a0823160e01b81526001600160a01b038781166004830152909116906370a082319060240160206040518083038186803b158015610f2f57600080fd5b505afa158015610f43573d6000803e3d6000fd5b505050506040513d601f19601f82011682018060405250810190610f679190613a29565b158015610f785750610f78856121b6565b15610f8657610f8685611ca8565b60019150505b9392505050565b60c9546001600160a01b03163314610fc65760405162461bcd60e51b8152600401610fbd90613c47565b60405180910390fd5b61010d9190915561010e55565b600080600080610ffb612710610ff56101005488612dd790919063ffffffff16565b90612de3565b90506110078582612650565b94506000611026612710610ff560fe5489612dd790919063ffffffff16565b90506110328682612650565b969195509350915050565b306001600160a01b037f00000000000000000000000000000000000000000000000000000000000000001614156110865760405162461bcd60e51b8152600401610fbd90613baf565b7f00000000000000000000000000000000000000000000000000000000000000006001600160a01b03166110cf600080516020613f86833981519152546001600160a01b031690565b6001600160a01b0316146110f55760405162461bcd60e51b8152600401610fbd90613bfb565b6110fe81612def565b6040805160008082526020820190925261111a91839190612e19565b50565b3360008181526034602090815260408083206001600160a01b0387168452909152812054909190610bb19082908690611157908790613d3d565b61252c565b604080516002808252606082018352600092602083019080368337019050509050308160008151811061119f57634e487b7160e01b600052603260045260246000fd5b60200260200101906001600160a01b031690816001600160a01b03168152505081816001815181106111e157634e487b7160e01b600052603260045260246000fd5b6001600160a01b03928316602091820292909201015261010854611208913091168561252c565b61010854604051635c11d79560e01b81526001600160a01b0390911690635c11d79590611242908690600090869030904290600401613afd565b600060405180830381600087803b15801561125c57600080fd5b505af1158015611270573d6000803e3d6000fd5b50505050505050565b60c9546001600160a01b031633146112a35760405162461bcd60e51b8152600401610fbd90613c47565b6001600160a01b03811663a9059cbb336040516370a0823160e01b81523060048201526001600160a01b038516906370a082319060240160206040518083038186803b1580156112f257600080fd5b505afa158015611306573d6000803e3d6000fd5b505050506040513d601f19601f8201168201806040525081019061132a9190613a29565b6040516001600160e01b031960e085901b1681526001600160a01b0390921660048301526024820152604401602060405180830381600087803b15801561137057600080fd5b505af1158015611384573d6000803e3d6000fd5b505050506040513d601f19601f820116820180604052508101906113a89190613a09565b5050565b306001600160a01b037f00000000000000000000000000000000000000000000000000000000000000001614156113f55760405162461bcd60e51b8152600401610fbd90613baf565b7f00000000000000000000000000000000000000000000000000000000000000006001600160a01b031661143e600080516020613f86833981519152546001600160a01b031690565b6001600160a01b0316146114645760405162461bcd60e51b8152600401610fbd90613bfb565b61146d82612def565b6113a882826001612e19565b6000306001600160a01b037f000000000000000000000000000000000000000000000000000000000000000016146115195760405162461bcd60e51b815260206004820152603860248201527f555550535570677261646561626c653a206d757374206e6f742062652063616c60448201527f6c6564207468726f7567682064656c656761746563616c6c00000000000000006064820152608401610fbd565b50600080516020613f8683398151915290565b60c9546001600160a01b031633146115565760405162461bcd60e51b8152600401610fbd90613c47565b60fe9190915561010055565b60c9546001600160a01b0316331461158c5760405162461bcd60e51b8152600401610fbd90613c47565b6101019190915561010255565b60c9546001600160a01b031633146115c35760405162461bcd60e51b8152600401610fbd90613c47565b61010555565b60c9546001600160a01b031633146115f35760405162461bcd60e51b8152600401610fbd90613c47565b61010c80546001600160a01b0319166001600160a01b0392909216919091179055565b60c9546001600160a01b031633146116405760405162461bcd60e51b8152600401610fbd90613c47565b61164a6000612f98565b565b60c9546001600160a01b031633146116765760405162461bcd60e51b8152600401610fbd90613c47565b61010f80546001600160a01b0319166001600160a01b0392909216919091179055565b6000805b83518110156116ea576116d8338583815181106116ca57634e487b7160e01b600052603260045260246000fd5b602002602001015185612c07565b806116e281613f29565b91505061169d565b5060019392505050565b600054610100900460ff1661170f5760005460ff1615611713565b303b155b6117765760405162461bcd60e51b815260206004820152602e60248201527f496e697469616c697a61626c653a20636f6e747261637420697320616c72656160448201526d191e481a5b9a5d1a585b1a5e995960921b6064820152608401610fbd565b600054610100900460ff16158015611798576000805461ffff19166101011790555b6117df6040518060400160405280600a81526020016925bab0b33a9021b7b4b760b11b815250604051806040016040528060038152602001624b464360e81b815250612fea565b6117e761301b565b6117ef61304a565b611810336117ff6012600a613dbb565b61180b90612710613e8c565b613071565b61019060fe5560646101005560326101018190556101025561010480546001600160a01b03191673d99d1c33f9fc3444f8101754abc46c52416550d1179055611857601290565b61186290600a613dbb565b61186d90600f613e8c565b6101055561187d6012600a613dbb565b61188990610384613e8c565b61010655617530610107556101045461010880546001600160a01b0319166001600160a01b0390921691821790556040805163c45a015560e01b8152905163c45a015591600480820192602092909190829003018186803b1580156118ed57600080fd5b505afa158015611901573d6000803e3d6000fd5b505050506040513d601f19601f8201168201806040525081019061192591906137ee565b6001600160a01b031663c9c653963061010860009054906101000a90046001600160a01b03166001600160a01b031663ad5c46486040518163ffffffff1660e01b815260040160206040518083038186803b15801561198357600080fd5b505afa158015611997573d6000803e3d6000fd5b505050506040513d601f19601f820116820180604052508101906119bb91906137ee565b6040516001600160e01b031960e085901b1681526001600160a01b03928316600482015291166024820152604401602060405180830381600087803b158015611a0357600080fd5b505af1158015611a17573d6000803e3d6000fd5b505050506040513d601f19601f82011682018060405250810190611a3b91906137ee565b61010980546001600160a01b039283166001600160a01b0319918216811790925561010c8054909116909117905561010854604080516315ab88c960e31b81529051919092169163ad5c4648916004808301926020929190829003018186803b158015611aa757600080fd5b505afa158015611abb573d6000803e3d6000fd5b505050506040513d601f19601f82011682018060405250810190611adf91906137ee565b61010a80546001600160a01b03929092166001600160a01b031992831617905561010b8054909116737ef95a0fee0dd31b22626fa2e10ee6a223f8a6841790556702c68af0bb14000061010d556302625a0061010e55611b3c3390565b6001600160a01b03166000600080516020613fcd833981519152611b5f60355490565b60405190815260200160405180910390a3801561111a576000805461ff001916905550565b60c9546001600160a01b03163314611bae5760405162461bcd60e51b8152600401610fbd90613c47565b62030d408110158015611bc457506207a1208111155b611c365760405162461bcd60e51b815260206004820152603860248201527f424b3a20676173466f7250726f63657373696e67206d7573742062652062657460448201527f7765656e203230302c30303020616e64203530302c30303000000000000000006064820152608401610fbd565b61010754811415611ca25760405162461bcd60e51b815260206004820152603060248201527f424b3a2043616e6e6f742075706461746520676173466f7250726f636573736960448201526f6e6720746f2073616d652076616c756560801b6064820152608401610fbd565b61010755565b60c9546001600160a01b03163314611cd25760405162461bcd60e51b8152600401610fbd90613c47565b6113a860fb8261313f565b606060378054610b2090613eee565b60c9546001600160a01b03163314611d165760405162461bcd60e51b8152600401610fbd90613c47565b6113a88282613154565b60c9546001600160a01b03163314611d4a5760405162461bcd60e51b8152600401610fbd90613c47565b61010980546001600160a01b0319166001600160a01b0392909216919091179055565b3360008181526034602090815260408083206001600160a01b038716845290915281205490919083811015611df25760405162461bcd60e51b815260206004820152602560248201527f45524332303a2064656372656173656420616c6c6f77616e63652062656c6f77604482015264207a65726f60d81b6064820152608401610fbd565b611dff828686840361252c565b506001949350505050565b6000611e1e60c9546001600160a01b031690565b6001600160a01b0316336001600160a01b031614611e4b57611e3f8361265c565b611e4b61010754612740565b610109546001600160a01b0316336001600160a01b0316148015611e7457506101065460355410155b15611e8957611e84338484612ae4565b611e94565b611e94338484612c07565b61010c546000906001600160a01b03166370a08231336040516001600160e01b031960e084901b1681526001600160a01b03909116600482015260240160206040518083038186803b158015611ee957600080fd5b505afa158015611efd573d6000803e3d6000fd5b505050506040513d601f19601f82011682018060405250810190611f219190613a29565b118015611f345750611f323361097e565b155b15611f4757611f423361093e565b611ff0565b61010c546001600160a01b03166370a08231336040516001600160e01b031960e084901b1681526001600160a01b03909116600482015260240160206040518083038186803b158015611f9957600080fd5b505afa158015611fad573d6000803e3d6000fd5b505050506040513d601f19601f82011682018060405250810190611fd19190613a29565b158015611fe25750611fe23361097e565b15611ff057611ff033610889565b50600192915050565b60c9546001600160a01b031633146120235760405162461bcd60e51b8152600401610fbd90613c47565b6113a860fb82613290565b604080516002808252606082018352600092602083019080368337019050509050308160008151811061207157634e487b7160e01b600052603260045260246000fd5b6001600160a01b0392831660209182029290920181019190915261010854604080516315ab88c960e31b81529051919093169263ad5c4648926004808301939192829003018186803b1580156120c657600080fd5b505afa1580156120da573d6000803e3d6000fd5b505050506040513d601f19601f820116820180604052508101906120fe91906137ee565b8160018151811061211f57634e487b7160e01b600052603260045260246000fd5b6001600160a01b03928316602091820292909201015261010854612146913091168461252c565b6101085460405163791ac94760e01b81526001600160a01b039091169063791ac94790612180908590600090869030904290600401613afd565b600060405180830381600087803b15801561219a57600080fd5b505af11580156121ae573d6000803e3d6000fd5b505050505050565b6000610bb760fb836132a5565b61010b546040516370a0823160e01b8152306004820152600091829147916001600160a01b0316906370a082319060240160206040518083038186803b15801561220c57600080fd5b505afa158015612220573d6000803e3d6000fd5b505050506040513d601f19601f820116820180604052508101906122449190613a29565b915091509091565b600061225860fb6132c7565b905090565b604080516003808252608082019092526000916020820160608036833701905050905030816000815181106122a257634e487b7160e01b600052603260045260246000fd5b6001600160a01b0392831660209182029290920181019190915261010854604080516315ab88c960e31b81529051919093169263ad5c4648926004808301939192829003018186803b1580156122f757600080fd5b505afa15801561230b573d6000803e3d6000fd5b505050506040513d601f19601f8201168201806040525081019061232f91906137ee565b8160018151811061235057634e487b7160e01b600052603260045260246000fd5b60200260200101906001600160a01b031690816001600160a01b031681525050818160028151811061239257634e487b7160e01b600052603260045260246000fd5b6001600160a01b039283166020918202929092010152610108546123b9913091168561252c565b61010854604051635c11d79560e01b81526001600160a01b0390911690635c11d7959061124290670de0b6b3a764000090600090869030904290600401613afd565b60c9546001600160a01b031633146124255760405162461bcd60e51b8152600401610fbd90613c47565b61010a80546001600160a01b039384166001600160a01b03199182161790915561010b8054929093169116179055565b60c9546001600160a01b0316331461247f5760405162461bcd60e51b8152600401610fbd90613c47565b61010655565b60c9546001600160a01b031633146124af5760405162461bcd60e51b8152600401610fbd90613c47565b6001600160a01b0381166125145760405162461bcd60e51b815260206004820152602660248201527f4f776e61626c653a206e6577206f776e657220697320746865207a65726f206160448201526564647265737360d01b6064820152608401610fbd565b61111a81612f98565b6001600160a01b03163b151590565b6001600160a01b03831661258e5760405162461bcd60e51b8152602060048201526024808201527f45524332303a20617070726f76652066726f6d20746865207a65726f206164646044820152637265737360e01b6064820152608401610fbd565b6001600160a01b0382166125ef5760405162461bcd60e51b815260206004820152602260248201527f45524332303a20617070726f766520746f20746865207a65726f206164647265604482015261737360f01b6064820152608401610fbd565b6001600160a01b0383811660008181526034602090815260408083209487168084529482529182902085905590518481527f8c5be1e5ebec7d5bd14f71427d1e84f3dd0314c0f7b2291e5b200ac8c7c3b925910160405180910390a3505050565b6000610f8c8284613eab565b610109546001600160a01b03828116911614801561267d575060fd5460ff16155b801561269b5750610105543060009081526033602052604090205410155b1561111a5760fd805460ff1916600117905561010154156126ea576126ea61095e6064610ff5610101546126e4306001600160a01b031660009081526033602052604090205490565b90612dd7565b6101015415612733576127336127216064610ff5610102546126e4306001600160a01b031660009081526033602052604090205490565b61010b546001600160a01b031661225d565b60fd805460ff1916905550565b600061274c60fb6132c7565b905080158061275d575061010d5447105b806127e5575061010e5461010b546040516370a0823160e01b81523060048201526001600160a01b03909116906370a082319060240160206040518083038186803b1580156127ab57600080fd5b505afa1580156127bf573d6000803e3d6000fd5b505050506040513d601f19601f820116820180604052508101906127e39190613a29565b105b156127f0575061111a565b610110546000805a905060005b858310801561280b57508481105b15612ad9578061281a81613f29565b91505061282760fb6132c7565b841061283257600093505b600061283f60fb866132d1565b905060008061284d83610bbd565b91509150816000141561286e5761286560fb8461313f565b505050506127fd565b600061288a82610ff58561010d54612dd790919063ffffffff16565b905060006128a883610ff58661010e54612dd790919063ffffffff16565b905081471080612931575061010b546040516370a0823160e01b815230600482015282916001600160a01b0316906370a082319060240160206040518083038186803b1580156128f757600080fd5b505afa15801561290b573d6000803e3d6000fd5b505050506040513d601f19601f8201168201806040525081019061292f9190613a29565b105b15612945575050505050505050505061111a565b6000841180156129555750600083115b8015612970575061010f546001600160a01b03868116911614155b801561298457506001600160a01b03851615155b15612a9a5761010a5460405163a9059cbb60e01b81526001600160a01b038781166004830152602482018590529091169063a9059cbb90604401602060405180830381600087803b1580156129d857600080fd5b505af11580156129ec573d6000803e3d6000fd5b505050506040513d601f19601f82011682018060405250810190612a109190613a09565b5061010b5460405163a9059cbb60e01b81526001600160a01b038781166004830152602482018490529091169063a9059cbb90604401602060405180830381600087803b158015612a6057600080fd5b505af1158015612a74573d6000803e3d6000fd5b505050506040513d601f19601f82011682018060405250810190612a989190613a09565b505b60005a905080881115612abe57612abb612ab48983612650565b8a906132dd565b98505b96508689612acb81613f29565b9a50505050505050506127fd565b505050610110555050565b6001600160a01b038316612b0a5760405162461bcd60e51b8152600401610fbd90613c7c565b6001600160a01b038216612b305760405162461bcd60e51b8152600401610fbd90613b6c565b60008111612b925760405162461bcd60e51b815260206004820152602960248201527f5472616e7366657220616d6f756e74206d7573742062652067726561746572206044820152687468616e207a65726f60b81b6064820152608401610fbd565b60fd5460ff16612bf7576000806000612baa84610fd3565b92509250925061010654612bc783612bc160355490565b90612650565b10612bd957612bd98661010054613154565b612be4863083612c07565b612bef868685612c07565b505050612c02565b612c02838383612c07565b505050565b6001600160a01b038316612c2d5760405162461bcd60e51b8152600401610fbd90613c7c565b6001600160a01b038216612c535760405162461bcd60e51b8152600401610fbd90613b6c565b6001600160a01b03831660009081526033602052604090205481811015612ccb5760405162461bcd60e51b815260206004820152602660248201527f45524332303a207472616e7366657220616d6f756e7420657863656564732062604482015265616c616e636560d01b6064820152608401610fbd565b6001600160a01b03808516600090815260336020526040808220858503905591851681529081208054849290612d02908490613d3d565b92505081905550826001600160a01b0316846001600160a01b0316600080516020613fcd83398151915284604051612d3c91815260200190565b60405180910390a35b50505050565b6001600160a01b038381166000908152603460209081526040808320938616835292905220546000198114612d455781811015612dca5760405162461bcd60e51b815260206004820152601d60248201527f45524332303a20696e73756666696369656e7420616c6c6f77616e63650000006044820152606401610fbd565b612d45848484840361252c565b6000610f8c8284613e8c565b6000610f8c8284613d55565b60c9546001600160a01b0316331461111a5760405162461bcd60e51b8152600401610fbd90613c47565b7f4910fdfa16fed3260ed0e7147f7cc6da11a60208b5b9406d12a635614ffd91435460ff1615612e5157612e4c836132e9565b612c02565b826001600160a01b03166352d1902d6040518163ffffffff1660e01b815260040160206040518083038186803b158015612e8a57600080fd5b505afa925050508015612eba575060408051601f3d908101601f19168201909252612eb791810190613a29565b60015b612f1d5760405162461bcd60e51b815260206004820152602e60248201527f45524331393637557067726164653a206e657720696d706c656d656e7461746960448201526d6f6e206973206e6f74205555505360901b6064820152608401610fbd565b600080516020613f868339815191528114612f8c5760405162461bcd60e51b815260206004820152602960248201527f45524331393637557067726164653a20756e737570706f727465642070726f786044820152681a58589b195555525160ba1b6064820152608401610fbd565b50612c02838383613385565b60c980546001600160a01b038381166001600160a01b0319831681179093556040519116919082907f8be0079c531659141344cd1fd0a4f28419497f9722a3daafe3b4186f6b6457e090600090a35050565b600054610100900460ff166130115760405162461bcd60e51b8152600401610fbd90613cc1565b6113a882826133aa565b600054610100900460ff166130425760405162461bcd60e51b8152600401610fbd90613cc1565b61164a6133f8565b600054610100900460ff1661164a5760405162461bcd60e51b8152600401610fbd90613cc1565b6001600160a01b0382166130c75760405162461bcd60e51b815260206004820152601f60248201527f45524332303a206d696e7420746f20746865207a65726f2061646472657373006044820152606401610fbd565b80603560008282546130d99190613d3d565b90915550506001600160a01b03821660009081526033602052604081208054839290613106908490613d3d565b90915550506040518181526001600160a01b03831690600090600080516020613fcd8339815191529060200160405180910390a36113a8565b6000610f8c836001600160a01b038416613428565b6001600160a01b0382166131b45760405162461bcd60e51b815260206004820152602160248201527f45524332303a206275726e2066726f6d20746865207a65726f206164647265736044820152607360f81b6064820152608401610fbd565b6001600160a01b038216600090815260336020526040902054818110156132285760405162461bcd60e51b815260206004820152602260248201527f45524332303a206275726e20616d6f756e7420657863656564732062616c616e604482015261636560f01b6064820152608401610fbd565b6001600160a01b0383166000908152603360205260408120838303905560358054849290613257908490613eab565b90915550506040518281526000906001600160a01b03851690600080516020613fcd8339815191529060200160405180910390a3612c02565b6000610f8c836001600160a01b038416613545565b6001600160a01b03811660009081526001830160205260408120541515610f8c565b6000610bb7825490565b6000610f8c8383613594565b6000610f8c8284613d3d565b6001600160a01b0381163b6133565760405162461bcd60e51b815260206004820152602d60248201527f455243313936373a206e657720696d706c656d656e746174696f6e206973206e60448201526c1bdd08184818dbdb9d1c9858dd609a1b6064820152608401610fbd565b600080516020613f8683398151915280546001600160a01b0319166001600160a01b0392909216919091179055565b61338e836135cc565b60008251118061339b5750805b15612c0257612d45838361360c565b600054610100900460ff166133d15760405162461bcd60e51b8152600401610fbd90613cc1565b81516133e4906036906020850190613739565b508051612c02906037906020840190613739565b600054610100900460ff1661341f5760405162461bcd60e51b8152600401610fbd90613cc1565b61164a33612f98565b6000818152600183016020526040812054801561353b57600061344c600183613eab565b855490915060009061346090600190613eab565b90508181146134e157600086600001828154811061348e57634e487b7160e01b600052603260045260246000fd5b90600052602060002001549050808760000184815481106134bf57634e487b7160e01b600052603260045260246000fd5b6000918252602080832090910192909255918252600188019052604090208390555b855486908061350057634e487b7160e01b600052603160045260246000fd5b600190038181906000526020600020016000905590558560010160008681526020019081526020016000206000905560019350505050610bb7565b6000915050610bb7565b600081815260018301602052604081205461358c57508154600181810184556000848152602080822090930184905584548482528286019093526040902091909155610bb7565b506000610bb7565b60008260000182815481106135b957634e487b7160e01b600052603260045260246000fd5b9060005260206000200154905092915050565b6135d5816132e9565b6040516001600160a01b038216907fbc7cd75a20ee27fd9adebab32041f755214dbc6bffa90cc0225b39da2e5c2d3b90600090a250565b60606001600160a01b0383163b6136745760405162461bcd60e51b815260206004820152602660248201527f416464726573733a2064656c65676174652063616c6c20746f206e6f6e2d636f6044820152651b9d1c9858dd60d21b6064820152608401610fbd565b600080846001600160a01b03168460405161368f9190613ae1565b600060405180830381855af49150503d80600081146136ca576040519150601f19603f3d011682016040523d82523d6000602084013e6136cf565b606091505b50915091506136f78282604051806060016040528060278152602001613fa660279139613700565b95945050505050565b6060831561370f575081610f8c565b82511561371f5782518084602001fd5b8160405162461bcd60e51b8152600401610fbd9190613b39565b82805461374590613eee565b90600052602060002090601f01602090048101928261376757600085556137ad565b82601f1061378057805160ff19168380011785556137ad565b828001600101855582156137ad579182015b828111156137ad578251825591602001919060010190613792565b506137b99291506137bd565b5090565b5b808211156137b957600081556001016137be565b6000602082840312156137e3578081fd5b8135610f8c81613f70565b6000602082840312156137ff578081fd5b8151610f8c81613f70565b6000806040838503121561381c578081fd5b823561382781613f70565b9150602083013561383781613f70565b809150509250929050565b600080600060608486031215613856578081fd5b833561386181613f70565b9250602084013561387181613f70565b929592945050506040919091013590565b60008060408385031215613894578182fd5b823561389f81613f70565b915060208381013567ffffffffffffffff808211156138bc578384fd5b818601915086601f8301126138cf578384fd5b8135818111156138e1576138e1613f5a565b6138f3601f8201601f19168501613d0c565b91508082528784828501011115613908578485fd5b8084840185840137810190920192909252919491935090915050565b60008060408385031215613936578182fd5b823561394181613f70565b946020939093013593505050565b60008060408385031215613961578182fd5b823567ffffffffffffffff80821115613978578384fd5b818501915085601f83011261398b578384fd5b813560208282111561399f5761399f613f5a565b8160051b92506139b0818401613d0c565b8281528181019085830185870184018b10156139ca578889fd5b8896505b848710156139f857803595506139e386613f70565b858352600196909601959183019183016139ce565b509997909101359750505050505050565b600060208284031215613a1a578081fd5b81518015158114610f8c578182fd5b600060208284031215613a3a578081fd5b5051919050565b600060208284031215613a52578081fd5b5035919050565b60008060408385031215613a6b578182fd5b82359150602083013561383781613f70565b60008060408385031215613a8f578182fd5b50508035926020909101359150565b6000815180845260208085019450808401835b83811015613ad65781516001600160a01b031687529582019590820190600101613ab1565b509495945050505050565b60008251613af3818460208701613ec2565b9190910192915050565b600086825285602083015260a06040830152613b1c60a0830186613a9e565b6001600160a01b0394909416606083015250608001529392505050565b6000602082528251806020840152613b58816040850160208701613ec2565b601f01601f19169190910160400192915050565b60208082526023908201527f45524332303a207472616e7366657220746f20746865207a65726f206164647260408201526265737360e81b606082015260800190565b6020808252602c908201527f46756e6374696f6e206d7573742062652063616c6c6564207468726f7567682060408201526b19195b1959d85d1958d85b1b60a21b606082015260800190565b6020808252602c908201527f46756e6374696f6e206d7573742062652063616c6c6564207468726f7567682060408201526b6163746976652070726f787960a01b606082015260800190565b6020808252818101527f4f776e61626c653a2063616c6c6572206973206e6f7420746865206f776e6572604082015260600190565b60208082526025908201527f45524332303a207472616e736665722066726f6d20746865207a65726f206164604082015264647265737360d81b606082015260800190565b6020808252602b908201527f496e697469616c697a61626c653a20636f6e7472616374206973206e6f74206960408201526a6e697469616c697a696e6760a81b606082015260800190565b604051601f8201601f1916810167ffffffffffffffff81118282101715613d3557613d35613f5a565b604052919050565b60008219821115613d5057613d50613f44565b500190565b600082613d7057634e487b7160e01b81526012600452602481fd5b500490565b80825b6001808611613d875750613db2565b818704821115613d9957613d99613f44565b80861615613da657918102915b9490941c938002613d78565b94509492505050565b6000610f8c60001960ff851684600082613dd757506001610f8c565b81613de457506000610f8c565b8160018114613dfa5760028114613e0457613e31565b6001915050610f8c565b60ff841115613e1557613e15613f44565b6001841b915084821115613e2b57613e2b613f44565b50610f8c565b5060208310610133831016604e8410600b8410161715613e64575081810a83811115613e5f57613e5f613f44565b610f8c565b613e718484846001613d75565b808604821115613e8357613e83613f44565b02949350505050565b6000816000190483118215151615613ea657613ea6613f44565b500290565b600082821015613ebd57613ebd613f44565b500390565b60005b83811015613edd578181015183820152602001613ec5565b83811115612d455750506000910152565b600181811c90821680613f0257607f821691505b60208210811415613f2357634e487b7160e01b600052602260045260246000fd5b50919050565b6000600019821415613f3d57613f3d613f44565b5060010190565b634e487b7160e01b600052601160045260246000fd5b634e487b7160e01b600052604160045260246000fd5b6001600160a01b038116811461111a57600080fdfe360894a13ba1a3210667c828492db98dca3e2076cc3735a920a3ca505d382bbc416464726573733a206c6f772d6c6576656c2064656c65676174652063616c6c206661696c6564ddf252ad1be2c89b69c2b068fc378daa952ba7f163c4a11628f55a4df523b3efa26469706673582212208174952d77715a1777651b57caa4c0840130bd41b5c7d68d0dc1ca20ce7acf7464736f6c63430008030033",
  "linkReferences": {},
  "deployedLinkReferences": {}
}