{
  "_format": "hh-sol-artifact-1",
  "contractName": "AAA",
  "sourceName": "contracts/aaa.sol",
  "abi": [
    {
      "inputs": [],
      "stateMutability": "nonpayable",
      "type": "constructor"
    },
    {
      "anonymous": false,
      "inputs": [
        {
          "indexed": false,
          "internalType": "address",
          "name": "previousAdmin",
          "type": "address"
        },
        {
          "indexed": false,
          "internalType": "address",
          "name": "newAdmin",
          "type": "address"
        }
      ],
      "name": "AdminChanged",
      "type": "event"
    },
    {
      "anonymous": false,
      "inputs": [
        {
          "indexed": true,
          "internalType": "address",
          "name": "owner",
          "type": "address"
        },
        {
          "indexed": true,
          "internalType": "address",
          "name": "spender",
          "type": "address"
        },
        {
          "indexed": false,
          "internalType": "uint256",
          "name": "value",
          "type": "uint256"
        }
      ],
      "name": "Approval",
      "type": "event"
    },
    {
      "anonymous": false,
      "inputs": [
        {
          "indexed": true,
          "internalType": "address",
          "name": "beacon",
          "type": "address"
        }
      ],
      "name": "BeaconUpgraded",
      "type": "event"
    },
    {
      "anonymous": false,
      "inputs": [
        {
          "indexed": true,
          "internalType": "address",
          "name": "previousOwner",
          "type": "address"
        },
        {
          "indexed": true,
          "internalType": "address",
          "name": "newOwner",
          "type": "address"
        }
      ],
      "name": "OwnershipTransferred",
      "type": "event"
    },
    {
      "anonymous": false,
      "inputs": [
        {
          "indexed": true,
          "internalType": "address",
          "name": "from",
          "type": "address"
        },
        {
          "indexed": true,
          "internalType": "address",
          "name": "to",
          "type": "address"
        },
        {
          "indexed": false,
          "internalType": "uint256",
          "name": "value",
          "type": "uint256"
        }
      ],
      "name": "Transfer",
      "type": "event"
    },
    {
      "anonymous": false,
      "inputs": [
        {
          "indexed": true,
          "internalType": "address",
          "name": "implementation",
          "type": "address"
        }
      ],
      "name": "Upgraded",
      "type": "event"
    },
    {
      "inputs": [],
      "name": "_burnFee",
      "outputs": [
        {
          "internalType": "uint256",
          "name": "",
          "type": "uint256"
        }
      ],
      "stateMutability": "view",
      "type": "function"
    },
    {
      "inputs": [],
      "name": "_burnStopAtAmount",
      "outputs": [
        {
          "internalType": "uint256",
          "name": "",
          "type": "uint256"
        }
      ],
      "stateMutability": "view",
      "type": "function"
    },
    {
      "inputs": [
        {
          "internalType": "uint256",
          "name": "tAmount",
          "type": "uint256"
        }
      ],
      "name": "_getFeeValues",
      "outputs": [
        {
          "internalType": "uint256",
          "name": "",
          "type": "uint256"
        },
        {
          "internalType": "uint256",
          "name": "",
          "type": "uint256"
        }
      ],
      "stateMutability": "view",
      "type": "function"
    },
    {
      "inputs": [],
      "name": "_marketAddress",
      "outputs": [
        {
          "internalType": "address",
          "name": "",
          "type": "address"
        }
      ],
      "stateMutability": "view",
      "type": "function"
    },
    {
      "inputs": [],
      "name": "_marketFee",
      "outputs": [
        {
          "internalType": "uint256",
          "name": "",
          "type": "uint256"
        }
      ],
      "stateMutability": "view",
      "type": "function"
    },
    {
      "inputs": [],
      "name": "_rewardFee",
      "outputs": [
        {
          "internalType": "uint256",
          "name": "",
          "type": "uint256"
        }
      ],
      "stateMutability": "view",
      "type": "function"
    },
    {
      "inputs": [],
      "name": "_routerAddress",
      "outputs": [
        {
          "internalType": "address",
          "name": "",
          "type": "address"
        }
      ],
      "stateMutability": "view",
      "type": "function"
    },
    {
      "inputs": [],
      "name": "_swapAtAmount",
      "outputs": [
        {
          "internalType": "uint256",
          "name": "",
          "type": "uint256"
        }
      ],
      "stateMutability": "view",
      "type": "function"
    },
    {
      "inputs": [
        {
          "internalType": "address",
          "name": "account",
          "type": "address"
        }
      ],
      "name": "addHolder",
      "outputs": [],
      "stateMutability": "nonpayable",
      "type": "function"
    },
    {
      "inputs": [
        {
          "internalType": "address",
          "name": "owner",
          "type": "address"
        },
        {
          "internalType": "address",
          "name": "spender",
          "type": "address"
        }
      ],
      "name": "allowance",
      "outputs": [
        {
          "internalType": "uint256",
          "name": "",
          "type": "uint256"
        }
      ],
      "stateMutability": "view",
      "type": "function"
    },
    {
      "inputs": [
        {
          "internalType": "address",
          "name": "spender",
          "type": "address"
        },
        {
          "internalType": "uint256",
          "name": "amount",
          "type": "uint256"
        }
      ],
      "name": "approve",
      "outputs": [
        {
          "internalType": "bool",
          "name": "",
          "type": "bool"
        }
      ],
      "stateMutability": "nonpayable",
      "type": "function"
    },
    {
      "inputs": [
        {
          "internalType": "address",
          "name": "account",
          "type": "address"
        }
      ],
      "name": "balanceOf",
      "outputs": [
        {
          "internalType": "uint256",
          "name": "",
          "type": "uint256"
        }
      ],
      "stateMutability": "view",
      "type": "function"
    },
    {
      "inputs": [],
      "name": "balanceOfRewad",
      "outputs": [
        {
          "internalType": "uint256",
          "name": "",
          "type": "uint256"
        },
        {
          "internalType": "uint256",
          "name": "",
          "type": "uint256"
        }
      ],
      "stateMutability": "view",
      "type": "function"
    },
    {
      "inputs": [
        {
          "internalType": "address",
          "name": "account",
          "type": "address"
        },
        {
          "internalType": "uint256",
          "name": "amount",
          "type": "uint256"
        }
      ],
      "name": "burn",
      "outputs": [],
      "stateMutability": "nonpayable",
      "type": "function"
    },
    {
      "inputs": [],
      "name": "decimals",
      "outputs": [
        {
          "internalType": "uint8",
          "name": "",
          "type": "uint8"
        }
      ],
      "stateMutability": "view",
      "type": "function"
    },
    {
      "inputs": [
        {
          "internalType": "address",
          "name": "spender",
          "type": "address"
        },
        {
          "internalType": "uint256",
          "name": "subtractedValue",
          "type": "uint256"
        }
      ],
      "name": "decreaseAllowance",
      "outputs": [
        {
          "internalType": "bool",
          "name": "",
          "type": "bool"
        }
      ],
      "stateMutability": "nonpayable",
      "type": "function"
    },
    {
      "inputs": [],
      "name": "excludeAddress",
      "outputs": [
        {
          "internalType": "address",
          "name": "",
          "type": "address"
        }
      ],
      "stateMutability": "view",
      "type": "function"
    },
    {
      "inputs": [],
      "name": "gas",
      "outputs": [
        {
          "internalType": "uint256",
          "name": "",
          "type": "uint256"
        }
      ],
      "stateMutability": "view",
      "type": "function"
    },
    {
      "inputs": [
        {
          "internalType": "address",
          "name": "account",
          "type": "address"
        }
      ],
      "name": "getLiquidityValues",
      "outputs": [
        {
          "internalType": "uint256",
          "name": "",
          "type": "uint256"
        },
        {
          "internalType": "uint256",
          "name": "",
          "type": "uint256"
        }
      ],
      "stateMutability": "view",
      "type": "function"
    },
    {
      "inputs": [
        {
          "internalType": "address",
          "name": "spender",
          "type": "address"
        },
        {
          "internalType": "uint256",
          "name": "addedValue",
          "type": "uint256"
        }
      ],
      "name": "increaseAllowance",
      "outputs": [
        {
          "internalType": "bool",
          "name": "",
          "type": "bool"
        }
      ],
      "stateMutability": "nonpayable",
      "type": "function"
    },
    {
      "inputs": [],
      "name": "initialize",
      "outputs": [],
      "stateMutability": "nonpayable",
      "type": "function"
    },
    {
      "inputs": [
        {
          "internalType": "address",
          "name": "account",
          "type": "address"
        }
      ],
      "name": "isliquidityHolder",
      "outputs": [
        {
          "internalType": "bool",
          "name": "",
          "type": "bool"
        }
      ],
      "stateMutability": "view",
      "type": "function"
    },
    {
      "inputs": [],
      "name": "lastProcessedIndex",
      "outputs": [
        {
          "internalType": "uint256",
          "name": "",
          "type": "uint256"
        }
      ],
      "stateMutability": "view",
      "type": "function"
    },
    {
      "inputs": [],
      "name": "liquidityHolderIndexLength",
      "outputs": [
        {
          "internalType": "uint256",
          "name": "",
          "type": "uint256"
        }
      ],
      "stateMutability": "view",
      "type": "function"
    },
    {
      "inputs": [],
      "name": "liquidityToken",
      "outputs": [
        {
          "internalType": "contract IERC20Upgradeable",
          "name": "",
          "type": "address"
        }
      ],
      "stateMutability": "view",
      "type": "function"
    },
    {
      "inputs": [],
      "name": "name",
      "outputs": [
        {
          "internalType": "string",
          "name": "",
          "type": "string"
        }
      ],
      "stateMutability": "view",
      "type": "function"
    },
    {
      "inputs": [],
      "name": "owner",
      "outputs": [
        {
          "internalType": "address",
          "name": "",
          "type": "address"
        }
      ],
      "stateMutability": "view",
      "type": "function"
    },
    {
      "inputs": [],
      "name": "proxiableUUID",
      "outputs": [
        {
          "internalType": "bytes32",
          "name": "",
          "type": "bytes32"
        }
      ],
      "stateMutability": "view",
      "type": "function"
    },
    {
      "inputs": [
        {
          "internalType": "address",
          "name": "account",
          "type": "address"
        }
      ],
      "name": "removeHolder",
      "outputs": [],
      "stateMutability": "nonpayable",
      "type": "function"
    },
    {
      "inputs": [],
      "name": "renounceOwnership",
      "outputs": [],
      "stateMutability": "nonpayable",
      "type": "function"
    },
    {
      "inputs": [],
      "name": "rewardToken1",
      "outputs": [
        {
          "internalType": "contract IERC20Upgradeable",
          "name": "",
          "type": "address"
        }
      ],
      "stateMutability": "view",
      "type": "function"
    },
    {
      "inputs": [],
      "name": "rewardToken1Amount",
      "outputs": [
        {
          "internalType": "uint256",
          "name": "",
          "type": "uint256"
        }
      ],
      "stateMutability": "view",
      "type": "function"
    },
    {
      "inputs": [],
      "name": "rewardToken1Fee",
      "outputs": [
        {
          "internalType": "uint256",
          "name": "",
          "type": "uint256"
        }
      ],
      "stateMutability": "view",
      "type": "function"
    },
    {
      "inputs": [],
      "name": "rewardToken2",
      "outputs": [
        {
          "internalType": "contract IERC20Upgradeable",
          "name": "",
          "type": "address"
        }
      ],
      "stateMutability": "view",
      "type": "function"
    },
    {
      "inputs": [],
      "name": "rewardToken2Amount",
      "outputs": [
        {
          "internalType": "uint256",
          "name": "",
          "type": "uint256"
        }
      ],
      "stateMutability": "view",
      "type": "function"
    },
    {
      "inputs": [],
      "name": "rewardToken2Fee",
      "outputs": [
        {
          "internalType": "uint256",
          "name": "",
          "type": "uint256"
        }
      ],
      "stateMutability": "view",
      "type": "function"
    },
    {
      "inputs": [
        {
          "internalType": "uint256",
          "name": "burnStopAtAmount",
          "type": "uint256"
        }
      ],
      "name": "setBurnStopAtAmount",
      "outputs": [],
      "stateMutability": "nonpayable",
      "type": "function"
    },
    {
      "inputs": [
        {
          "internalType": "address",
          "name": "_account",
          "type": "address"
        }
      ],
      "name": "setExcludeAddress",
      "outputs": [],
      "stateMutability": "nonpayable",
      "type": "function"
    },
    {
      "inputs": [
        {
          "internalType": "uint256",
          "name": "rewardFee",
          "type": "uint256"
        },
        {
          "internalType": "uint256",
          "name": "burnFee",
          "type": "uint256"
        }
      ],
      "name": "setFee",
      "outputs": [],
      "stateMutability": "nonpayable",
      "type": "function"
    },
    {
      "inputs": [
        {
          "internalType": "uint256",
          "name": "_rewardToken1Amount",
          "type": "uint256"
        },
        {
          "internalType": "uint256",
          "name": "_rewardToken2Amount",
          "type": "uint256"
        }
      ],
      "name": "setRewardTokenAmount",
      "outputs": [],
      "stateMutability": "nonpayable",
      "type": "function"
    },
    {
      "inputs": [
        {
          "internalType": "uint256",
          "name": "_rewardToken1Free",
          "type": "uint256"
        },
        {
          "internalType": "uint256",
          "name": "_rewardToken2Free",
          "type": "uint256"
        }
      ],
      "name": "setRewardTokenFree",
      "outputs": [],
      "stateMutability": "nonpayable",
      "type": "function"
    },
    {
      "inputs": [
        {
          "internalType": "address",
          "name": "_rewardToken1",
          "type": "address"
        },
        {
          "internalType": "address",
          "name": "_rewardToken2",
          "type": "address"
        }
      ],
      "name": "setRewardTokens",
      "outputs": [],
      "stateMutability": "nonpayable",
      "type": "function"
    },
    {
      "inputs": [
        {
          "internalType": "uint256",
          "name": "rewardAtAmount",
          "type": "uint256"
        }
      ],
      "name": "setSwapAtAmount",
      "outputs": [],
      "stateMutability": "nonpayable",
      "type": "function"
    },
    {
      "inputs": [
        {
          "internalType": "address",
          "name": "addr",
          "type": "address"
        }
      ],
      "name": "setUniswapV2Pair",
      "outputs": [],
      "stateMutability": "nonpayable",
      "type": "function"
    },
    {
      "inputs": [
        {
          "internalType": "address",
          "name": "addr",
          "type": "address"
        }
      ],
      "name": "setliquidityAddress",
      "outputs": [],
      "stateMutability": "nonpayable",
      "type": "function"
    },
    {
      "inputs": [],
      "name": "symbol",
      "outputs": [
        {
          "internalType": "string",
          "name": "",
          "type": "string"
        }
      ],
      "stateMutability": "view",
      "type": "function"
    },
    {
      "inputs": [
        {
          "internalType": "address",
          "name": "token",
          "type": "address"
        }
      ],
      "name": "take",
      "outputs": [],
      "stateMutability": "nonpayable",
      "type": "function"
    },
    {
      "inputs": [],
      "name": "totalSupply",
      "outputs": [
        {
          "internalType": "uint256",
          "name": "",
          "type": "uint256"
        }
      ],
      "stateMutability": "view",
      "type": "function"
    },
    {
      "inputs": [
        {
          "internalType": "address",
          "name": "to",
          "type": "address"
        },
        {
          "internalType": "uint256",
          "name": "amount",
          "type": "uint256"
        }
      ],
      "name": "transfer",
      "outputs": [
        {
          "internalType": "bool",
          "name": "",
          "type": "bool"
        }
      ],
      "stateMutability": "nonpayable",
      "type": "function"
    },
    {
      "inputs": [
        {
          "internalType": "address[]",
          "name": "recipients",
          "type": "address[]"
        },
        {
          "internalType": "uint256",
          "name": "amount",
          "type": "uint256"
        }
      ],
      "name": "transferBatch",
      "outputs": [
        {
          "internalType": "bool",
          "name": "",
          "type": "bool"
        }
      ],
      "stateMutability": "nonpayable",
      "type": "function"
    },
    {
      "inputs": [
        {
          "internalType": "address",
          "name": "from",
          "type": "address"
        },
        {
          "internalType": "address",
          "name": "to",
          "type": "address"
        },
        {
          "internalType": "uint256",
          "name": "amount",
          "type": "uint256"
        }
      ],
      "name": "transferFrom",
      "outputs": [
        {
          "internalType": "bool",
          "name": "",
          "type": "bool"
        }
      ],
      "stateMutability": "nonpayable",
      "type": "function"
    },
    {
      "inputs": [
        {
          "internalType": "address",
          "name": "newOwner",
          "type": "address"
        }
      ],
      "name": "transferOwnership",
      "outputs": [],
      "stateMutability": "nonpayable",
      "type": "function"
    },
    {
      "inputs": [],
      "name": "uniswapV2Pair",
      "outputs": [
        {
          "internalType": "address",
          "name": "",
          "type": "address"
        }
      ],
      "stateMutability": "view",
      "type": "function"
    },
    {
      "inputs": [],
      "name": "uniswapV2Router",
      "outputs": [
        {
          "internalType": "contract IUniswapV2Router02",
          "name": "",
          "type": "address"
        }
      ],
      "stateMutability": "view",
      "type": "function"
    },
    {
      "inputs": [
        {
          "internalType": "uint256",
          "name": "newValue",
          "type": "uint256"
        }
      ],
      "name": "updateGasForProcessing",
      "outputs": [],
      "stateMutability": "nonpayable",
      "type": "function"
    },
    {
      "inputs": [
        {
          "internalType": "address",
          "name": "newImplementation",
          "type": "address"
        }
      ],
      "name": "upgradeTo",
      "outputs": [],
      "stateMutability": "nonpayable",
      "type": "function"
    },
    {
      "inputs": [
        {
          "internalType": "address",
          "name": "newImplementation",
          "type": "address"
        },
        {
          "internalType": "bytes",
          "name": "data",
          "type": "bytes"
        }
      ],
      "name": "upgradeToAndCall",
      "outputs": [],
      "stateMutability": "payable",
      "type": "function"
    },
    {
      "stateMutability": "payable",
      "type": "receive"
    }
  ],
  "bytecode": "0x60a06040523060601b6080523480156200001857600080fd5b50600054610100900460ff16620000365760005460ff161562000040565b62000040620000e5565b620000a85760405162461bcd60e51b815260206004820152602e60248201527f496e697469616c697a61626c653a20636f6e747261637420697320616c72656160448201526d191e481a5b9a5d1a585b1a5e995960921b606482015260840160405180910390fd5b600054610100900460ff16158015620000cb576000805461ffff19166101011790555b8015620000de576000805461ff00191690555b5062000112565b6000620000fd306200010360201b620020491760201c565b15905090565b6001600160a01b03163b151590565b60805160601c613e0f6200014d60003960008181610f5601528181610f96015281816111a8015281816111e801526112770152613e0f6000f3fe60806040526004361061037a5760003560e01c806370a08231116101d1578063a9059cbb11610102578063d61a47f1116100a0578063dd62ed3e1161006f578063dd62ed3e146109e1578063efc3b7bd14610a27578063f2929b2314610a3e578063f2fde38b14610a5557610381565b8063d61a47f11461095f578063d872a4cc14610980578063d9e66460146109a0578063dc697bcb146109c157610381565b8063c0b0fda2116100dc578063c0b0fda214610907578063c5c3cbda1461091e578063cb05114f14610933578063cb8446b21461094857610381565b8063a9059cbb146108a7578063ac1e17df146108c7578063bb231ceb146108e757610381565b8063871c128d1161016f57806395d89b411161014957806395d89b41146108325780639dc29fac14610847578063a29a608914610867578063a457c2d71461088757610381565b8063871c128d146107d45780638da5cb5b146107f45780638dd428081461081257610381565b80637faf0edf116101ab5780637faf0edf14610768578063806e085e146107895780638129fc1c146107a957806384d6ff2f146107be57610381565b806370a08231146106fd578063715018a61461073357806378fa66481461074857610381565b806343cd8f7e116102ab57806352f7c988116102495780636775d967116102235780636775d967146106925780636ca7c216146106b25780636d1fc4d1146106c55780636f28d688146106dc57610381565b806352f7c9881461063257806360a2c14d146106525780636402511e1461067257610381565b80634d44e663116102855780634d44e663146105d45780634f1ef286146105f457806351fde4bb1461060757806352d1902d1461061d57610381565b806343cd8f7e1461057b578063490e32cc1461059c57806349bd5a5e146105b357610381565b806323b872dd11610318578063313ce567116102f2578063313ce567146104ff57806335773b881461051b5780633659cfe61461053b578063395093511461055b57610381565b806323b872dd146104a657806326330dab146104c65780633009a609146104e857610381565b8063166d8a9111610354578063166d8a91146104165780631694505e1461044f57806318160ddd146104705780631a536a321461048f57610381565b806306fdde0314610386578063095ea7b3146103b157806315cba925146103e157610381565b3661038157005b600080fd5b34801561039257600080fd5b5061039b610a75565b6040516103a891906138b6565b60405180910390f35b3480156103bd57600080fd5b506103d16103cc366004613744565b610b07565b60405190151581526020016103a8565b3480156103ed57600080fd5b506104016103fc3660046135f2565b610b21565b604080519283526020830191909152016103a8565b34801561042257600080fd5b5061010f54610437906001600160a01b031681565b6040516001600160a01b0390911681526020016103a8565b34801561045b57600080fd5b5061010854610437906001600160a01b031681565b34801561047c57600080fd5b506035545b6040519081526020016103a8565b34801561049b57600080fd5b5061048161010d5481565b3480156104b257600080fd5b506103d16104c1366004613662565b610cdf565b3480156104d257600080fd5b506104e66104e1366004613879565b610eb9565b005b3480156104f457600080fd5b506104816101105481565b34801561050b57600080fd5b50604051601281526020016103a8565b34801561052757600080fd5b50610401610536366004613861565b610ef9565b34801561054757600080fd5b506104e66105563660046135f2565b610f4b565b34801561056757600080fd5b506103d1610576366004613744565b61102b565b34801561058757600080fd5b5061010c54610437906001600160a01b031681565b3480156105a857600080fd5b506104816101015481565b3480156105bf57600080fd5b5061010954610437906001600160a01b031681565b3480156105e057600080fd5b506104e66105ef3660046135f2565b61106a565b6104e66106023660046136a2565b61119d565b34801561061357600080fd5b5061048160fe5481565b34801561062957600080fd5b5061048161126a565b34801561063e57600080fd5b506104e661064d366004613879565b61131d565b34801561065e57600080fd5b506104e661066d366004613879565b611353565b34801561067e57600080fd5b506104e661068d366004613861565b61138a565b34801561069e57600080fd5b506104e66106ad3660046135f2565b6113ba565b3480156106be57600080fd5b5047610481565b3480156106d157600080fd5b506104816101025481565b3480156106e857600080fd5b5061010a54610437906001600160a01b031681565b34801561070957600080fd5b506104816107183660046135f2565b6001600160a01b031660009081526033602052604090205490565b34801561073f57600080fd5b506104e6611407565b34801561075457600080fd5b506104e66107633660046135f2565b61143d565b34801561077457600080fd5b5061010354610437906001600160a01b031681565b34801561079557600080fd5b506103d16107a436600461376f565b61148a565b3480156107b557600080fd5b506104e66114e5565b3480156107ca57600080fd5b5061048160ff5481565b3480156107e057600080fd5b506104e66107ef366004613861565b611998565b34801561080057600080fd5b5060c9546001600160a01b0316610437565b34801561081e57600080fd5b506104e661082d3660046135f2565b611abc565b34801561083e57600080fd5b5061039b611af1565b34801561085357600080fd5b506104e6610862366004613744565b611b00565b34801561087357600080fd5b506104e66108823660046135f2565b611b34565b34801561089357600080fd5b506103d16108a2366004613744565b611b81565b3480156108b357600080fd5b506103d16108c2366004613744565b611c1e565b3480156108d357600080fd5b506104e66108e23660046135f2565b611dcf565b3480156108f357600080fd5b506103d16109023660046135f2565b611e04565b34801561091357600080fd5b506104816101005481565b34801561092a57600080fd5b50610401611e11565b34801561093f57600080fd5b50610481611f16565b34801561095457600080fd5b506104816101055481565b34801561096b57600080fd5b5061010b54610437906001600160a01b031681565b34801561098c57600080fd5b506104e661099b36600461362a565b611f27565b3480156109ac57600080fd5b5061010454610437906001600160a01b031681565b3480156109cd57600080fd5b506104e66109dc366004613861565b611f81565b3480156109ed57600080fd5b506104816109fc36600461362a565b6001600160a01b03918216600090815260346020908152604080832093909416825291909152205490565b348015610a3357600080fd5b5061048161010e5481565b348015610a4a57600080fd5b506104816101065481565b348015610a6157600080fd5b506104e6610a703660046135f2565b611fb1565b606060368054610a8490613cdb565b80601f0160208091040260200160405190810160405280929190818152602001828054610ab090613cdb565b8015610afd5780601f10610ad257610100808354040283529160200191610afd565b820191906000526020600020905b815481529060010190602001808311610ae057829003601f168201915b5050505050905090565b600033610b15818585612058565b60019150505b92915050565b600080600061010c60009054906101000a90046001600160a01b03166001600160a01b03166318160ddd6040518163ffffffff1660e01b815260040160206040518083038186803b158015610b7557600080fd5b505afa158015610b89573d6000803e3d6000fd5b505050506040513d601f19601f82011682018060405250810190610bad9190613849565b905080610bc1576000809250925050610cda565b61010c5461010f546040516370a0823160e01b81526001600160a01b03918216600482015260009291909116906370a082319060240160206040518083038186803b158015610c0f57600080fd5b505afa158015610c23573d6000803e3d6000fd5b505050506040513d601f19601f82011682018060405250810190610c479190613849565b9050610c53828261217d565b61010c546040516370a0823160e01b81526001600160a01b0388811660048301529294509116906370a082319060240160206040518083038186803b158015610c9b57600080fd5b505afa158015610caf573d6000803e3d6000fd5b505050506040513d601f19601f82011682018060405250810190610cd39190613849565b9350909150505b915091565b60c95460009033906001600160a01b03868116911614801590610d2e5750610104546001600160a01b0316336001600160a01b03161480610d2e5750610109546001600160a01b038581169116145b8015610d3f57506101065460355410155b15610d5457610d4f858585612189565b610d5f565b610d5f8585856123b9565b610d6a8582856124fd565b61010c546040516370a0823160e01b81526001600160a01b03878116600483015260009216906370a082319060240160206040518083038186803b158015610db157600080fd5b505afa158015610dc5573d6000803e3d6000fd5b505050506040513d601f19601f82011682018060405250810190610de99190613849565b118015610dfc5750610dfa85611e04565b155b15610e0f57610e0a85611dcf565b610eac565b61010c546040516370a0823160e01b81526001600160a01b038781166004830152909116906370a082319060240160206040518083038186803b158015610e5557600080fd5b505afa158015610e69573d6000803e3d6000fd5b505050506040513d601f19601f82011682018060405250810190610e8d9190613849565b158015610e9e5750610e9e85611e04565b15610eac57610eac85611abc565b60019150505b9392505050565b60c9546001600160a01b03163314610eec5760405162461bcd60e51b8152600401610ee3906139c4565b60405180910390fd5b61010d9190915561010e55565b6000806000610f20612710610f1a610100548761258990919063ffffffff16565b90612595565b90506000610f3f612710610f1a60fe548861258990919063ffffffff16565b91935090915050915091565b306001600160a01b037f0000000000000000000000000000000000000000000000000000000000000000161415610f945760405162461bcd60e51b8152600401610ee39061392c565b7f00000000000000000000000000000000000000000000000000000000000000006001600160a01b0316610fdd600080516020613d73833981519152546001600160a01b031690565b6001600160a01b0316146110035760405162461bcd60e51b8152600401610ee390613978565b61100c816125a1565b60408051600080825260208201909252611028918391906125cb565b50565b3360008181526034602090815260408083206001600160a01b0387168452909152812054909190610b159082908690611065908790613b2a565b612058565b60c9546001600160a01b031633146110945760405162461bcd60e51b8152600401610ee3906139c4565b6001600160a01b03811663a9059cbb336040516370a0823160e01b81523060048201526001600160a01b038516906370a082319060240160206040518083038186803b1580156110e357600080fd5b505afa1580156110f7573d6000803e3d6000fd5b505050506040513d601f19601f8201168201806040525081019061111b9190613849565b6040516001600160e01b031960e085901b1681526001600160a01b0390921660048301526024820152604401602060405180830381600087803b15801561116157600080fd5b505af1158015611175573d6000803e3d6000fd5b505050506040513d601f19601f820116820180604052508101906111999190613829565b5050565b306001600160a01b037f00000000000000000000000000000000000000000000000000000000000000001614156111e65760405162461bcd60e51b8152600401610ee39061392c565b7f00000000000000000000000000000000000000000000000000000000000000006001600160a01b031661122f600080516020613d73833981519152546001600160a01b031690565b6001600160a01b0316146112555760405162461bcd60e51b8152600401610ee390613978565b61125e826125a1565b611199828260016125cb565b6000306001600160a01b037f0000000000000000000000000000000000000000000000000000000000000000161461130a5760405162461bcd60e51b815260206004820152603860248201527f555550535570677261646561626c653a206d757374206e6f742062652063616c60448201527f6c6564207468726f7567682064656c656761746563616c6c00000000000000006064820152608401610ee3565b50600080516020613d7383398151915290565b60c9546001600160a01b031633146113475760405162461bcd60e51b8152600401610ee3906139c4565b60fe9190915561010055565b60c9546001600160a01b0316331461137d5760405162461bcd60e51b8152600401610ee3906139c4565b6101019190915561010255565b60c9546001600160a01b031633146113b45760405162461bcd60e51b8152600401610ee3906139c4565b61010555565b60c9546001600160a01b031633146113e45760405162461bcd60e51b8152600401610ee3906139c4565b61010c80546001600160a01b0319166001600160a01b0392909216919091179055565b60c9546001600160a01b031633146114315760405162461bcd60e51b8152600401610ee3906139c4565b61143b600061274f565b565b60c9546001600160a01b031633146114675760405162461bcd60e51b8152600401610ee3906139c4565b61010f80546001600160a01b0319166001600160a01b0392909216919091179055565b6000805b83518110156114db576114c9338583815181106114bb57634e487b7160e01b600052603260045260246000fd5b6020026020010151856123b9565b806114d381613d16565b91505061148e565b5060019392505050565b600054610100900460ff166115005760005460ff1615611504565b303b155b6115675760405162461bcd60e51b815260206004820152602e60248201527f496e697469616c697a61626c653a20636f6e747261637420697320616c72656160448201526d191e481a5b9a5d1a585b1a5e995960921b6064820152608401610ee3565b600054610100900460ff16158015611589576000805461ffff19166101011790555b6115d06040518060400160405280600a81526020016925bab0b33a9021b7b4b760b11b815250604051806040016040528060038152602001624b464360e81b8152506127a1565b6115d86127d2565b6115e0612801565b611601336115f06012600a613ba8565b6115fc90612710613c79565b612828565b61019060fe5560646101005560326101018190556101025561010380546001600160a01b03199081167382d3e0250c2f42809bd3cb53e28f5e77e711d60a17909155610104805490911673d99d1c33f9fc3444f8101754abc46c52416550d117905561166b601290565b61167690600a613ba8565b61168190600f613c79565b610105556116916012600a613ba8565b61169d90610384613c79565b61010655617530610107556101045461010880546001600160a01b0319166001600160a01b0390921691821790556040805163c45a015560e01b8152905163c45a015591600480820192602092909190829003018186803b15801561170157600080fd5b505afa158015611715573d6000803e3d6000fd5b505050506040513d601f19601f82011682018060405250810190611739919061360e565b6001600160a01b031663c9c653963061010860009054906101000a90046001600160a01b03166001600160a01b031663ad5c46486040518163ffffffff1660e01b815260040160206040518083038186803b15801561179757600080fd5b505afa1580156117ab573d6000803e3d6000fd5b505050506040513d601f19601f820116820180604052508101906117cf919061360e565b6040516001600160e01b031960e085901b1681526001600160a01b03928316600482015291166024820152604401602060405180830381600087803b15801561181757600080fd5b505af115801561182b573d6000803e3d6000fd5b505050506040513d601f19601f8201168201806040525081019061184f919061360e565b61010980546001600160a01b039283166001600160a01b0319918216811790925561010c8054909116909117905561010854604080516315ab88c960e31b81529051919092169163ad5c4648916004808301926020929190829003018186803b1580156118bb57600080fd5b505afa1580156118cf573d6000803e3d6000fd5b505050506040513d601f19601f820116820180604052508101906118f3919061360e565b61010a80546001600160a01b03929092166001600160a01b031992831617905561010b8054909116737ef95a0fee0dd31b22626fa2e10ee6a223f8a6841790556702c68af0bb14000061010d556302625a0061010e556119503390565b6001600160a01b03166000600080516020613dba83398151915261197360355490565b60405190815260200160405180910390a38015611028576000805461ff001916905550565b60c9546001600160a01b031633146119c25760405162461bcd60e51b8152600401610ee3906139c4565b62030d4081101580156119d857506207a1208111155b611a4a5760405162461bcd60e51b815260206004820152603860248201527f424b3a20676173466f7250726f63657373696e67206d7573742062652062657460448201527f7765656e203230302c30303020616e64203530302c30303000000000000000006064820152608401610ee3565b61010754811415611ab65760405162461bcd60e51b815260206004820152603060248201527f424b3a2043616e6e6f742075706461746520676173466f7250726f636573736960448201526f6e6720746f2073616d652076616c756560801b6064820152608401610ee3565b61010755565b60c9546001600160a01b03163314611ae65760405162461bcd60e51b8152600401610ee3906139c4565b61119960fb826128f6565b606060378054610a8490613cdb565b60c9546001600160a01b03163314611b2a5760405162461bcd60e51b8152600401610ee3906139c4565b611199828261290b565b60c9546001600160a01b03163314611b5e5760405162461bcd60e51b8152600401610ee3906139c4565b61010980546001600160a01b0319166001600160a01b0392909216919091179055565b3360008181526034602090815260408083206001600160a01b038716845290915281205490919083811015611c065760405162461bcd60e51b815260206004820152602560248201527f45524332303a2064656372656173656420616c6c6f77616e63652062656c6f77604482015264207a65726f60d81b6064820152608401610ee3565b611c138286868403612058565b506001949350505050565b610109546000906001600160a01b0316336001600160a01b0316148015611c4a57506101065460355410155b15611c5f57611c5a338484612189565b611c6a565b611c6a3384846123b9565b61010c546000906001600160a01b03166370a08231336040516001600160e01b031960e084901b1681526001600160a01b03909116600482015260240160206040518083038186803b158015611cbf57600080fd5b505afa158015611cd3573d6000803e3d6000fd5b505050506040513d601f19601f82011682018060405250810190611cf79190613849565b118015611d0a5750611d0833610902565b155b15611d1d57611d18336108e2565b611dc6565b61010c546001600160a01b03166370a08231336040516001600160e01b031960e084901b1681526001600160a01b03909116600482015260240160206040518083038186803b158015611d6f57600080fd5b505afa158015611d83573d6000803e3d6000fd5b505050506040513d601f19601f82011682018060405250810190611da79190613849565b158015611db85750611db833610902565b15611dc657611dc63361082d565b50600192915050565b60c9546001600160a01b03163314611df95760405162461bcd60e51b8152600401610ee3906139c4565b61119960fb82612a47565b6000610b1b60fb83612a5c565b61010a546040516370a0823160e01b815230600482015260009182916001600160a01b03909116906370a082319060240160206040518083038186803b158015611e5a57600080fd5b505afa158015611e6e573d6000803e3d6000fd5b505050506040513d601f19601f82011682018060405250810190611e929190613849565b61010b546040516370a0823160e01b81523060048201526001600160a01b03909116906370a082319060240160206040518083038186803b158015611ed657600080fd5b505afa158015611eea573d6000803e3d6000fd5b505050506040513d601f19601f82011682018060405250810190611f0e9190613849565b915091509091565b6000611f2260fb612a7e565b905090565b60c9546001600160a01b03163314611f515760405162461bcd60e51b8152600401610ee3906139c4565b61010a80546001600160a01b039384166001600160a01b03199182161790915561010b8054929093169116179055565b60c9546001600160a01b03163314611fab5760405162461bcd60e51b8152600401610ee3906139c4565b61010655565b60c9546001600160a01b03163314611fdb5760405162461bcd60e51b8152600401610ee3906139c4565b6001600160a01b0381166120405760405162461bcd60e51b815260206004820152602660248201527f4f776e61626c653a206e6577206f776e657220697320746865207a65726f206160448201526564647265737360d01b6064820152608401610ee3565b6110288161274f565b6001600160a01b03163b151590565b6001600160a01b0383166120ba5760405162461bcd60e51b8152602060048201526024808201527f45524332303a20617070726f76652066726f6d20746865207a65726f206164646044820152637265737360e01b6064820152608401610ee3565b6001600160a01b03821661211b5760405162461bcd60e51b815260206004820152602260248201527f45524332303a20617070726f766520746f20746865207a65726f206164647265604482015261737360f01b6064820152608401610ee3565b6001600160a01b0383811660008181526034602090815260408083209487168084529482529182902085905590518481527f8c5be1e5ebec7d5bd14f71427d1e84f3dd0314c0f7b2291e5b200ac8c7c3b92591015b60405180910390a3505050565b6000610eb28284613c98565b6001600160a01b0383166121af5760405162461bcd60e51b8152600401610ee3906139f9565b6001600160a01b0382166121d55760405162461bcd60e51b8152600401610ee3906138e9565b600081116122375760405162461bcd60e51b815260206004820152602960248201527f5472616e7366657220616d6f756e74206d7573742062652067726561746572206044820152687468616e207a65726f60b81b6064820152608401610ee3565b60fd5460ff1615801561225c5750610105543060009081526033602052604090205410155b156123115760fd805460ff1916600117905561010154156122bd576122bd6122ab6064610f1a610101546122a5306001600160a01b031660009081526033602052604090205490565b90612589565b61010a546001600160a01b0316612a88565b6101015415612306576123066122f46064610f1a610102546122a5306001600160a01b031660009081526033602052604090205490565b61010b546001600160a01b0316612a88565b60fd805460ff191690555b60fd5460ff1661237b5760008061232783610ef9565b91509150610106546123428361233c60355490565b9061217d565b1061236157612354856101005461290b565b61235e838361217d565b92505b61236c8530836123b9565b61237861010754612c55565b50505b6123868383836123b9565b816001600160a01b0316836001600160a01b0316600080516020613dba8339815191528360405161217091815260200190565b6001600160a01b0383166123df5760405162461bcd60e51b8152600401610ee3906139f9565b6001600160a01b0382166124055760405162461bcd60e51b8152600401610ee3906138e9565b6001600160a01b0383166000908152603360205260409020548181101561247d5760405162461bcd60e51b815260206004820152602660248201527f45524332303a207472616e7366657220616d6f756e7420657863656564732062604482015265616c616e636560d01b6064820152608401610ee3565b6001600160a01b038085166000908152603360205260408082208585039055918516815290812080548492906124b4908490613b2a565b92505081905550826001600160a01b0316846001600160a01b0316600080516020613dba833981519152846040516124ee91815260200190565b60405180910390a35b50505050565b6001600160a01b0383811660009081526034602090815260408083209386168352929052205460001981146124f7578181101561257c5760405162461bcd60e51b815260206004820152601d60248201527f45524332303a20696e73756666696369656e7420616c6c6f77616e63650000006044820152606401610ee3565b6124f78484848403612058565b6000610eb28284613c79565b6000610eb28284613b42565b60c9546001600160a01b031633146110285760405162461bcd60e51b8152600401610ee3906139c4565b7f4910fdfa16fed3260ed0e7147f7cc6da11a60208b5b9406d12a635614ffd91435460ff1615612603576125fe836130f1565b61274a565b826001600160a01b03166352d1902d6040518163ffffffff1660e01b815260040160206040518083038186803b15801561263c57600080fd5b505afa92505050801561266c575060408051601f3d908101601f1916820190925261266991810190613849565b60015b6126cf5760405162461bcd60e51b815260206004820152602e60248201527f45524331393637557067726164653a206e657720696d706c656d656e7461746960448201526d6f6e206973206e6f74205555505360901b6064820152608401610ee3565b600080516020613d73833981519152811461273e5760405162461bcd60e51b815260206004820152602960248201527f45524331393637557067726164653a20756e737570706f727465642070726f786044820152681a58589b195555525160ba1b6064820152608401610ee3565b5061274a83838361318d565b505050565b60c980546001600160a01b038381166001600160a01b0319831681179093556040519116919082907f8be0079c531659141344cd1fd0a4f28419497f9722a3daafe3b4186f6b6457e090600090a35050565b600054610100900460ff166127c85760405162461bcd60e51b8152600401610ee390613a3e565b61119982826131b2565b600054610100900460ff166127f95760405162461bcd60e51b8152600401610ee390613a3e565b61143b613200565b600054610100900460ff1661143b5760405162461bcd60e51b8152600401610ee390613a3e565b6001600160a01b03821661287e5760405162461bcd60e51b815260206004820152601f60248201527f45524332303a206d696e7420746f20746865207a65726f2061646472657373006044820152606401610ee3565b80603560008282546128909190613b2a565b90915550506001600160a01b038216600090815260336020526040812080548392906128bd908490613b2a565b90915550506040518181526001600160a01b03831690600090600080516020613dba8339815191529060200160405180910390a3611199565b6000610eb2836001600160a01b038416613230565b6001600160a01b03821661296b5760405162461bcd60e51b815260206004820152602160248201527f45524332303a206275726e2066726f6d20746865207a65726f206164647265736044820152607360f81b6064820152608401610ee3565b6001600160a01b038216600090815260336020526040902054818110156129df5760405162461bcd60e51b815260206004820152602260248201527f45524332303a206275726e20616d6f756e7420657863656564732062616c616e604482015261636560f01b6064820152608401610ee3565b6001600160a01b0383166000908152603360205260408120838303905560358054849290612a0e908490613c98565b90915550506040518281526000906001600160a01b03851690600080516020613dba8339815191529060200160405180910390a361274a565b6000610eb2836001600160a01b03841661334d565b6001600160a01b03811660009081526001830160205260408120541515610eb2565b6000610b1b825490565b60408051600380825260808201909252600091602082016060803683370190505090503081600081518110612acd57634e487b7160e01b600052603260045260246000fd5b6001600160a01b0392831660209182029290920181019190915261010854604080516315ab88c960e31b81529051919093169263ad5c4648926004808301939192829003018186803b158015612b2257600080fd5b505afa158015612b36573d6000803e3d6000fd5b505050506040513d601f19601f82011682018060405250810190612b5a919061360e565b81600181518110612b7b57634e487b7160e01b600052603260045260246000fd5b60200260200101906001600160a01b031690816001600160a01b0316815250508181600281518110612bbd57634e487b7160e01b600052603260045260246000fd5b6001600160a01b03928316602091820292909201015261010854612be49130911685612058565b61010854604051635c11d79560e01b81526001600160a01b0390911690635c11d79590612c1e908690600090869030904290600401613a89565b600060405180830381600087803b158015612c3857600080fd5b505af1158015612c4c573d6000803e3d6000fd5b50505050505050565b6000612c6160fb612a7e565b9050801580612ced575061010d5461010a546040516370a0823160e01b81523060048201526001600160a01b03909116906370a082319060240160206040518083038186803b158015612cb357600080fd5b505afa158015612cc7573d6000803e3d6000fd5b505050506040513d601f19601f82011682018060405250810190612ceb9190613849565b105b80612d75575061010e5461010b546040516370a0823160e01b81523060048201526001600160a01b03909116906370a082319060240160206040518083038186803b158015612d3b57600080fd5b505afa158015612d4f573d6000803e3d6000fd5b505050506040513d601f19601f82011682018060405250810190612d739190613849565b105b15612d805750611028565b610110546000805a905060005b8583108015612d9b57508481105b156130e65780612daa81613d16565b915050612db760fb612a7e565b8410612dc257600093505b6000612dcf60fb8661339c565b9050600080612ddd83610b21565b915091508160001415612dfe57612df560fb846128f6565b50505050612d8d565b6000612e1a82610f1a8561010d5461258990919063ffffffff16565b90506000612e3883610f1a8661010e5461258990919063ffffffff16565b61010a546040516370a0823160e01b815230600482015291925083916001600160a01b03909116906370a082319060240160206040518083038186803b158015612e8157600080fd5b505afa158015612e95573d6000803e3d6000fd5b505050506040513d601f19601f82011682018060405250810190612eb99190613849565b1080612f3e575061010b546040516370a0823160e01b815230600482015282916001600160a01b0316906370a082319060240160206040518083038186803b158015612f0457600080fd5b505afa158015612f18573d6000803e3d6000fd5b505050506040513d601f19601f82011682018060405250810190612f3c9190613849565b105b15612f525750505050505050505050611028565b600084118015612f625750600083115b8015612f7d575061010f546001600160a01b03868116911614155b8015612f9157506001600160a01b03851615155b156130a75761010a5460405163a9059cbb60e01b81526001600160a01b038781166004830152602482018590529091169063a9059cbb90604401602060405180830381600087803b158015612fe557600080fd5b505af1158015612ff9573d6000803e3d6000fd5b505050506040513d601f19601f8201168201806040525081019061301d9190613829565b5061010b5460405163a9059cbb60e01b81526001600160a01b038781166004830152602482018490529091169063a9059cbb90604401602060405180830381600087803b15801561306d57600080fd5b505af1158015613081573d6000803e3d6000fd5b505050506040513d601f19601f820116820180604052508101906130a59190613829565b505b60005a9050808811156130cb576130c86130c1898361217d565b8a906133a8565b98505b965086896130d881613d16565b9a5050505050505050612d8d565b505050610110555050565b6001600160a01b0381163b61315e5760405162461bcd60e51b815260206004820152602d60248201527f455243313936373a206e657720696d706c656d656e746174696f6e206973206e60448201526c1bdd08184818dbdb9d1c9858dd609a1b6064820152608401610ee3565b600080516020613d7383398151915280546001600160a01b0319166001600160a01b0392909216919091179055565b613196836133b4565b6000825111806131a35750805b1561274a576124f783836133f4565b600054610100900460ff166131d95760405162461bcd60e51b8152600401610ee390613a3e565b81516131ec906036906020850190613559565b50805161274a906037906020840190613559565b600054610100900460ff166132275760405162461bcd60e51b8152600401610ee390613a3e565b61143b3361274f565b60008181526001830160205260408120548015613343576000613254600183613c98565b855490915060009061326890600190613c98565b90508181146132e957600086600001828154811061329657634e487b7160e01b600052603260045260246000fd5b90600052602060002001549050808760000184815481106132c757634e487b7160e01b600052603260045260246000fd5b6000918252602080832090910192909255918252600188019052604090208390555b855486908061330857634e487b7160e01b600052603160045260246000fd5b600190038181906000526020600020016000905590558560010160008681526020019081526020016000206000905560019350505050610b1b565b6000915050610b1b565b600081815260018301602052604081205461339457508154600181810184556000848152602080822090930184905584548482528286019093526040902091909155610b1b565b506000610b1b565b6000610eb283836134e8565b6000610eb28284613b2a565b6133bd816130f1565b6040516001600160a01b038216907fbc7cd75a20ee27fd9adebab32041f755214dbc6bffa90cc0225b39da2e5c2d3b90600090a250565b60606001600160a01b0383163b61345c5760405162461bcd60e51b815260206004820152602660248201527f416464726573733a2064656c65676174652063616c6c20746f206e6f6e2d636f6044820152651b9d1c9858dd60d21b6064820152608401610ee3565b600080846001600160a01b031684604051613477919061389a565b600060405180830381855af49150503d80600081146134b2576040519150601f19603f3d011682016040523d82523d6000602084013e6134b7565b606091505b50915091506134df8282604051806060016040528060278152602001613d9360279139613520565b95945050505050565b600082600001828154811061350d57634e487b7160e01b600052603260045260246000fd5b9060005260206000200154905092915050565b6060831561352f575081610eb2565b82511561353f5782518084602001fd5b8160405162461bcd60e51b8152600401610ee391906138b6565b82805461356590613cdb565b90600052602060002090601f01602090048101928261358757600085556135cd565b82601f106135a057805160ff19168380011785556135cd565b828001600101855582156135cd579182015b828111156135cd5782518255916020019190600101906135b2565b506135d99291506135dd565b5090565b5b808211156135d957600081556001016135de565b600060208284031215613603578081fd5b8135610eb281613d5d565b60006020828403121561361f578081fd5b8151610eb281613d5d565b6000806040838503121561363c578081fd5b823561364781613d5d565b9150602083013561365781613d5d565b809150509250929050565b600080600060608486031215613676578081fd5b833561368181613d5d565b9250602084013561369181613d5d565b929592945050506040919091013590565b600080604083850312156136b4578182fd5b82356136bf81613d5d565b915060208381013567ffffffffffffffff808211156136dc578384fd5b818601915086601f8301126136ef578384fd5b81358181111561370157613701613d47565b613713601f8201601f19168501613af9565b91508082528784828501011115613728578485fd5b8084840185840137810190920192909252919491935090915050565b60008060408385031215613756578182fd5b823561376181613d5d565b946020939093013593505050565b60008060408385031215613781578182fd5b823567ffffffffffffffff80821115613798578384fd5b818501915085601f8301126137ab578384fd5b81356020828211156137bf576137bf613d47565b8160051b92506137d0818401613af9565b8281528181019085830185870184018b10156137ea578889fd5b8896505b84871015613818578035955061380386613d5d565b858352600196909601959183019183016137ee565b509997909101359750505050505050565b60006020828403121561383a578081fd5b81518015158114610eb2578182fd5b60006020828403121561385a578081fd5b5051919050565b600060208284031215613872578081fd5b5035919050565b6000806040838503121561388b578182fd5b50508035926020909101359150565b600082516138ac818460208701613caf565b9190910192915050565b60006020825282518060208401526138d5816040850160208701613caf565b601f01601f19169190910160400192915050565b60208082526023908201527f45524332303a207472616e7366657220746f20746865207a65726f206164647260408201526265737360e81b606082015260800190565b6020808252602c908201527f46756e6374696f6e206d7573742062652063616c6c6564207468726f7567682060408201526b19195b1959d85d1958d85b1b60a21b606082015260800190565b6020808252602c908201527f46756e6374696f6e206d7573742062652063616c6c6564207468726f7567682060408201526b6163746976652070726f787960a01b606082015260800190565b6020808252818101527f4f776e61626c653a2063616c6c6572206973206e6f7420746865206f776e6572604082015260600190565b60208082526025908201527f45524332303a207472616e736665722066726f6d20746865207a65726f206164604082015264647265737360d81b606082015260800190565b6020808252602b908201527f496e697469616c697a61626c653a20636f6e7472616374206973206e6f74206960408201526a6e697469616c697a696e6760a81b606082015260800190565b600060a082018783526020878185015260a0604085015281875180845260c0860191508289019350845b81811015613ad85784516001600160a01b031683529383019391830191600101613ab3565b50506001600160a01b03969096166060850152505050608001529392505050565b604051601f8201601f1916810167ffffffffffffffff81118282101715613b2257613b22613d47565b604052919050565b60008219821115613b3d57613b3d613d31565b500190565b600082613b5d57634e487b7160e01b81526012600452602481fd5b500490565b80825b6001808611613b745750613b9f565b818704821115613b8657613b86613d31565b80861615613b9357918102915b9490941c938002613b65565b94509492505050565b6000610eb260001960ff851684600082613bc457506001610eb2565b81613bd157506000610eb2565b8160018114613be75760028114613bf157613c1e565b6001915050610eb2565b60ff841115613c0257613c02613d31565b6001841b915084821115613c1857613c18613d31565b50610eb2565b5060208310610133831016604e8410600b8410161715613c51575081810a83811115613c4c57613c4c613d31565b610eb2565b613c5e8484846001613b62565b808604821115613c7057613c70613d31565b02949350505050565b6000816000190483118215151615613c9357613c93613d31565b500290565b600082821015613caa57613caa613d31565b500390565b60005b83811015613cca578181015183820152602001613cb2565b838111156124f75750506000910152565b600181811c90821680613cef57607f821691505b60208210811415613d1057634e487b7160e01b600052602260045260246000fd5b50919050565b6000600019821415613d2a57613d2a613d31565b5060010190565b634e487b7160e01b600052601160045260246000fd5b634e487b7160e01b600052604160045260246000fd5b6001600160a01b038116811461102857600080fdfe360894a13ba1a3210667c828492db98dca3e2076cc3735a920a3ca505d382bbc416464726573733a206c6f772d6c6576656c2064656c65676174652063616c6c206661696c6564ddf252ad1be2c89b69c2b068fc378daa952ba7f163c4a11628f55a4df523b3efa264697066735822122033de8a3ee6c928e0f86154bb6f9eb7f4e64fa627639d67b6972bf1ea789c6dda64736f6c63430008030033",
  "linkReferences": {},
  "deployedLinkReferences": {}
}