{
  "_format": "hh-sol-artifact-1",
  "contractName": "AAA",
  "sourceName": "contracts/aaa.sol",
  "abi": [
    {
      "inputs": [],
      "stateMutability": "nonpayable",
      "type": "constructor"
    },
    {
      "anonymous": false,
      "inputs": [
        {
          "indexed": false,
          "internalType": "address",
          "name": "previousAdmin",
          "type": "address"
        },
        {
          "indexed": false,
          "internalType": "address",
          "name": "newAdmin",
          "type": "address"
        }
      ],
      "name": "AdminChanged",
      "type": "event"
    },
    {
      "anonymous": false,
      "inputs": [
        {
          "indexed": true,
          "internalType": "address",
          "name": "owner",
          "type": "address"
        },
        {
          "indexed": true,
          "internalType": "address",
          "name": "spender",
          "type": "address"
        },
        {
          "indexed": false,
          "internalType": "uint256",
          "name": "value",
          "type": "uint256"
        }
      ],
      "name": "Approval",
      "type": "event"
    },
    {
      "anonymous": false,
      "inputs": [
        {
          "indexed": true,
          "internalType": "address",
          "name": "beacon",
          "type": "address"
        }
      ],
      "name": "BeaconUpgraded",
      "type": "event"
    },
    {
      "anonymous": false,
      "inputs": [
        {
          "indexed": false,
          "internalType": "uint256",
          "name": "ty",
          "type": "uint256"
        },
        {
          "indexed": false,
          "internalType": "uint256",
          "name": "seq",
          "type": "uint256"
        },
        {
          "indexed": false,
          "internalType": "address",
          "name": "form",
          "type": "address"
        },
        {
          "indexed": false,
          "internalType": "address",
          "name": "to",
          "type": "address"
        },
        {
          "indexed": false,
          "internalType": "uint256",
          "name": "amount",
          "type": "uint256"
        }
      ],
      "name": "Log",
      "type": "event"
    },
    {
      "anonymous": false,
      "inputs": [
        {
          "indexed": true,
          "internalType": "address",
          "name": "previousOwner",
          "type": "address"
        },
        {
          "indexed": true,
          "internalType": "address",
          "name": "newOwner",
          "type": "address"
        }
      ],
      "name": "OwnershipTransferred",
      "type": "event"
    },
    {
      "anonymous": false,
      "inputs": [
        {
          "indexed": true,
          "internalType": "address",
          "name": "from",
          "type": "address"
        },
        {
          "indexed": true,
          "internalType": "address",
          "name": "to",
          "type": "address"
        },
        {
          "indexed": false,
          "internalType": "uint256",
          "name": "value",
          "type": "uint256"
        }
      ],
      "name": "Transfer",
      "type": "event"
    },
    {
      "anonymous": false,
      "inputs": [
        {
          "indexed": true,
          "internalType": "address",
          "name": "implementation",
          "type": "address"
        }
      ],
      "name": "Upgraded",
      "type": "event"
    },
    {
      "inputs": [],
      "name": "_burnFee",
      "outputs": [
        {
          "internalType": "uint256",
          "name": "",
          "type": "uint256"
        }
      ],
      "stateMutability": "view",
      "type": "function"
    },
    {
      "inputs": [],
      "name": "_burnStopAtAmount",
      "outputs": [
        {
          "internalType": "uint256",
          "name": "",
          "type": "uint256"
        }
      ],
      "stateMutability": "view",
      "type": "function"
    },
    {
      "inputs": [
        {
          "internalType": "uint256",
          "name": "tAmount",
          "type": "uint256"
        }
      ],
      "name": "_getFeeValues",
      "outputs": [
        {
          "internalType": "uint256",
          "name": "",
          "type": "uint256"
        },
        {
          "internalType": "uint256",
          "name": "",
          "type": "uint256"
        },
        {
          "internalType": "uint256",
          "name": "",
          "type": "uint256"
        }
      ],
      "stateMutability": "view",
      "type": "function"
    },
    {
      "inputs": [],
      "name": "_rewardFee",
      "outputs": [
        {
          "internalType": "uint256",
          "name": "",
          "type": "uint256"
        }
      ],
      "stateMutability": "view",
      "type": "function"
    },
    {
      "inputs": [],
      "name": "_routerAddress",
      "outputs": [
        {
          "internalType": "address",
          "name": "",
          "type": "address"
        }
      ],
      "stateMutability": "view",
      "type": "function"
    },
    {
      "inputs": [],
      "name": "_swapAtAmount",
      "outputs": [
        {
          "internalType": "uint256",
          "name": "",
          "type": "uint256"
        }
      ],
      "stateMutability": "view",
      "type": "function"
    },
    {
      "inputs": [
        {
          "internalType": "address",
          "name": "account",
          "type": "address"
        }
      ],
      "name": "addHolder",
      "outputs": [],
      "stateMutability": "nonpayable",
      "type": "function"
    },
    {
      "inputs": [
        {
          "internalType": "address",
          "name": "owner",
          "type": "address"
        },
        {
          "internalType": "address",
          "name": "spender",
          "type": "address"
        }
      ],
      "name": "allowance",
      "outputs": [
        {
          "internalType": "uint256",
          "name": "",
          "type": "uint256"
        }
      ],
      "stateMutability": "view",
      "type": "function"
    },
    {
      "inputs": [
        {
          "internalType": "address",
          "name": "spender",
          "type": "address"
        },
        {
          "internalType": "uint256",
          "name": "amount",
          "type": "uint256"
        }
      ],
      "name": "approve",
      "outputs": [
        {
          "internalType": "bool",
          "name": "",
          "type": "bool"
        }
      ],
      "stateMutability": "nonpayable",
      "type": "function"
    },
    {
      "inputs": [
        {
          "internalType": "address",
          "name": "account",
          "type": "address"
        }
      ],
      "name": "balanceOf",
      "outputs": [
        {
          "internalType": "uint256",
          "name": "",
          "type": "uint256"
        }
      ],
      "stateMutability": "view",
      "type": "function"
    },
    {
      "inputs": [],
      "name": "balanceOfRewad",
      "outputs": [
        {
          "internalType": "uint256",
          "name": "",
          "type": "uint256"
        },
        {
          "internalType": "uint256",
          "name": "",
          "type": "uint256"
        }
      ],
      "stateMutability": "view",
      "type": "function"
    },
    {
      "inputs": [
        {
          "internalType": "address",
          "name": "account",
          "type": "address"
        },
        {
          "internalType": "uint256",
          "name": "amount",
          "type": "uint256"
        }
      ],
      "name": "burn",
      "outputs": [],
      "stateMutability": "nonpayable",
      "type": "function"
    },
    {
      "inputs": [],
      "name": "decimals",
      "outputs": [
        {
          "internalType": "uint8",
          "name": "",
          "type": "uint8"
        }
      ],
      "stateMutability": "view",
      "type": "function"
    },
    {
      "inputs": [
        {
          "internalType": "address",
          "name": "spender",
          "type": "address"
        },
        {
          "internalType": "uint256",
          "name": "subtractedValue",
          "type": "uint256"
        }
      ],
      "name": "decreaseAllowance",
      "outputs": [
        {
          "internalType": "bool",
          "name": "",
          "type": "bool"
        }
      ],
      "stateMutability": "nonpayable",
      "type": "function"
    },
    {
      "inputs": [],
      "name": "excludeAddress",
      "outputs": [
        {
          "internalType": "address",
          "name": "",
          "type": "address"
        }
      ],
      "stateMutability": "view",
      "type": "function"
    },
    {
      "inputs": [
        {
          "internalType": "address",
          "name": "account",
          "type": "address"
        }
      ],
      "name": "getLiquidityValues",
      "outputs": [
        {
          "internalType": "uint256",
          "name": "",
          "type": "uint256"
        },
        {
          "internalType": "uint256",
          "name": "",
          "type": "uint256"
        }
      ],
      "stateMutability": "view",
      "type": "function"
    },
    {
      "inputs": [
        {
          "internalType": "address",
          "name": "spender",
          "type": "address"
        },
        {
          "internalType": "uint256",
          "name": "addedValue",
          "type": "uint256"
        }
      ],
      "name": "increaseAllowance",
      "outputs": [
        {
          "internalType": "bool",
          "name": "",
          "type": "bool"
        }
      ],
      "stateMutability": "nonpayable",
      "type": "function"
    },
    {
      "inputs": [],
      "name": "initialize",
      "outputs": [],
      "stateMutability": "nonpayable",
      "type": "function"
    },
    {
      "inputs": [
        {
          "internalType": "address",
          "name": "account",
          "type": "address"
        }
      ],
      "name": "isliquidityHolder",
      "outputs": [
        {
          "internalType": "bool",
          "name": "",
          "type": "bool"
        }
      ],
      "stateMutability": "view",
      "type": "function"
    },
    {
      "inputs": [],
      "name": "lastProcessedIndex",
      "outputs": [
        {
          "internalType": "uint256",
          "name": "",
          "type": "uint256"
        }
      ],
      "stateMutability": "view",
      "type": "function"
    },
    {
      "inputs": [],
      "name": "liquidityHolderIndexLength",
      "outputs": [
        {
          "internalType": "uint256",
          "name": "",
          "type": "uint256"
        }
      ],
      "stateMutability": "view",
      "type": "function"
    },
    {
      "inputs": [],
      "name": "liquidityToken",
      "outputs": [
        {
          "internalType": "contract IERC20Upgradeable",
          "name": "",
          "type": "address"
        }
      ],
      "stateMutability": "view",
      "type": "function"
    },
    {
      "inputs": [],
      "name": "name",
      "outputs": [
        {
          "internalType": "string",
          "name": "",
          "type": "string"
        }
      ],
      "stateMutability": "view",
      "type": "function"
    },
    {
      "inputs": [],
      "name": "owner",
      "outputs": [
        {
          "internalType": "address",
          "name": "",
          "type": "address"
        }
      ],
      "stateMutability": "view",
      "type": "function"
    },
    {
      "inputs": [
        {
          "internalType": "uint256",
          "name": "_gasLimit",
          "type": "uint256"
        }
      ],
      "name": "process",
      "outputs": [],
      "stateMutability": "nonpayable",
      "type": "function"
    },
    {
      "inputs": [],
      "name": "proxiableUUID",
      "outputs": [
        {
          "internalType": "bytes32",
          "name": "",
          "type": "bytes32"
        }
      ],
      "stateMutability": "view",
      "type": "function"
    },
    {
      "inputs": [
        {
          "internalType": "address",
          "name": "account",
          "type": "address"
        }
      ],
      "name": "removeHolder",
      "outputs": [],
      "stateMutability": "nonpayable",
      "type": "function"
    },
    {
      "inputs": [],
      "name": "renounceOwnership",
      "outputs": [],
      "stateMutability": "nonpayable",
      "type": "function"
    },
    {
      "inputs": [],
      "name": "rewardToken1",
      "outputs": [
        {
          "internalType": "contract IERC20Upgradeable",
          "name": "",
          "type": "address"
        }
      ],
      "stateMutability": "view",
      "type": "function"
    },
    {
      "inputs": [],
      "name": "rewardToken1Amount",
      "outputs": [
        {
          "internalType": "uint256",
          "name": "",
          "type": "uint256"
        }
      ],
      "stateMutability": "view",
      "type": "function"
    },
    {
      "inputs": [],
      "name": "rewardToken1Fee",
      "outputs": [
        {
          "internalType": "uint256",
          "name": "",
          "type": "uint256"
        }
      ],
      "stateMutability": "view",
      "type": "function"
    },
    {
      "inputs": [],
      "name": "rewardToken2",
      "outputs": [
        {
          "internalType": "contract IERC20Upgradeable",
          "name": "",
          "type": "address"
        }
      ],
      "stateMutability": "view",
      "type": "function"
    },
    {
      "inputs": [],
      "name": "rewardToken2Amount",
      "outputs": [
        {
          "internalType": "uint256",
          "name": "",
          "type": "uint256"
        }
      ],
      "stateMutability": "view",
      "type": "function"
    },
    {
      "inputs": [],
      "name": "rewardToken2Fee",
      "outputs": [
        {
          "internalType": "uint256",
          "name": "",
          "type": "uint256"
        }
      ],
      "stateMutability": "view",
      "type": "function"
    },
    {
      "inputs": [
        {
          "internalType": "uint256",
          "name": "burnStopAtAmount",
          "type": "uint256"
        }
      ],
      "name": "setBurnStopAtAmount",
      "outputs": [],
      "stateMutability": "nonpayable",
      "type": "function"
    },
    {
      "inputs": [
        {
          "internalType": "address",
          "name": "_account",
          "type": "address"
        }
      ],
      "name": "setExcludeAddress",
      "outputs": [],
      "stateMutability": "nonpayable",
      "type": "function"
    },
    {
      "inputs": [
        {
          "internalType": "uint256",
          "name": "rewardFee",
          "type": "uint256"
        },
        {
          "internalType": "uint256",
          "name": "burnFee",
          "type": "uint256"
        }
      ],
      "name": "setFee",
      "outputs": [],
      "stateMutability": "nonpayable",
      "type": "function"
    },
    {
      "inputs": [
        {
          "internalType": "uint256",
          "name": "_rewardToken1Amount",
          "type": "uint256"
        },
        {
          "internalType": "uint256",
          "name": "_rewardToken2Amount",
          "type": "uint256"
        }
      ],
      "name": "setRewardTokenAmount",
      "outputs": [],
      "stateMutability": "nonpayable",
      "type": "function"
    },
    {
      "inputs": [
        {
          "internalType": "uint256",
          "name": "_rewardToken1Free",
          "type": "uint256"
        },
        {
          "internalType": "uint256",
          "name": "_rewardToken2Free",
          "type": "uint256"
        }
      ],
      "name": "setRewardTokenFree",
      "outputs": [],
      "stateMutability": "nonpayable",
      "type": "function"
    },
    {
      "inputs": [
        {
          "internalType": "address",
          "name": "_rewardToken1",
          "type": "address"
        },
        {
          "internalType": "address",
          "name": "_rewardToken2",
          "type": "address"
        }
      ],
      "name": "setRewardTokens",
      "outputs": [],
      "stateMutability": "nonpayable",
      "type": "function"
    },
    {
      "inputs": [
        {
          "internalType": "uint256",
          "name": "rewardAtAmount",
          "type": "uint256"
        }
      ],
      "name": "setSwapAtAmount",
      "outputs": [],
      "stateMutability": "nonpayable",
      "type": "function"
    },
    {
      "inputs": [
        {
          "internalType": "address",
          "name": "addr",
          "type": "address"
        }
      ],
      "name": "setUniswapV2Pair",
      "outputs": [],
      "stateMutability": "nonpayable",
      "type": "function"
    },
    {
      "inputs": [
        {
          "internalType": "address",
          "name": "addr",
          "type": "address"
        }
      ],
      "name": "setliquidityAddress",
      "outputs": [],
      "stateMutability": "nonpayable",
      "type": "function"
    },
    {
      "inputs": [
        {
          "internalType": "uint256",
          "name": "tokenAmount",
          "type": "uint256"
        },
        {
          "internalType": "address",
          "name": "outToken",
          "type": "address"
        }
      ],
      "name": "swapTokensFor2Tokens",
      "outputs": [],
      "stateMutability": "nonpayable",
      "type": "function"
    },
    {
      "inputs": [
        {
          "internalType": "uint256",
          "name": "tokenAmount",
          "type": "uint256"
        },
        {
          "internalType": "address",
          "name": "outToken",
          "type": "address"
        }
      ],
      "name": "swapTokensFor3Tokens",
      "outputs": [],
      "stateMutability": "nonpayable",
      "type": "function"
    },
    {
      "inputs": [
        {
          "internalType": "uint256",
          "name": "tokenAmount",
          "type": "uint256"
        }
      ],
      "name": "swapTokensForEth",
      "outputs": [],
      "stateMutability": "nonpayable",
      "type": "function"
    },
    {
      "inputs": [],
      "name": "symbol",
      "outputs": [
        {
          "internalType": "string",
          "name": "",
          "type": "string"
        }
      ],
      "stateMutability": "view",
      "type": "function"
    },
    {
      "inputs": [
        {
          "internalType": "address",
          "name": "token",
          "type": "address"
        }
      ],
      "name": "take",
      "outputs": [],
      "stateMutability": "nonpayable",
      "type": "function"
    },
    {
      "inputs": [],
      "name": "totalSupply",
      "outputs": [
        {
          "internalType": "uint256",
          "name": "",
          "type": "uint256"
        }
      ],
      "stateMutability": "view",
      "type": "function"
    },
    {
      "inputs": [
        {
          "internalType": "address",
          "name": "to",
          "type": "address"
        },
        {
          "internalType": "uint256",
          "name": "amount",
          "type": "uint256"
        }
      ],
      "name": "transfer",
      "outputs": [
        {
          "internalType": "bool",
          "name": "",
          "type": "bool"
        }
      ],
      "stateMutability": "nonpayable",
      "type": "function"
    },
    {
      "inputs": [
        {
          "internalType": "address[]",
          "name": "recipients",
          "type": "address[]"
        },
        {
          "internalType": "uint256",
          "name": "amount",
          "type": "uint256"
        }
      ],
      "name": "transferBatch",
      "outputs": [
        {
          "internalType": "bool",
          "name": "",
          "type": "bool"
        }
      ],
      "stateMutability": "nonpayable",
      "type": "function"
    },
    {
      "inputs": [
        {
          "internalType": "address",
          "name": "from",
          "type": "address"
        },
        {
          "internalType": "address",
          "name": "to",
          "type": "address"
        },
        {
          "internalType": "uint256",
          "name": "amount",
          "type": "uint256"
        }
      ],
      "name": "transferFrom",
      "outputs": [
        {
          "internalType": "bool",
          "name": "",
          "type": "bool"
        }
      ],
      "stateMutability": "nonpayable",
      "type": "function"
    },
    {
      "inputs": [
        {
          "internalType": "address",
          "name": "newOwner",
          "type": "address"
        }
      ],
      "name": "transferOwnership",
      "outputs": [],
      "stateMutability": "nonpayable",
      "type": "function"
    },
    {
      "inputs": [],
      "name": "uniswapV2Pair",
      "outputs": [
        {
          "internalType": "address",
          "name": "",
          "type": "address"
        }
      ],
      "stateMutability": "view",
      "type": "function"
    },
    {
      "inputs": [],
      "name": "uniswapV2Router",
      "outputs": [
        {
          "internalType": "contract IUniswapV2Router02",
          "name": "",
          "type": "address"
        }
      ],
      "stateMutability": "view",
      "type": "function"
    },
    {
      "inputs": [
        {
          "internalType": "uint256",
          "name": "newValue",
          "type": "uint256"
        }
      ],
      "name": "updateGasForProcessing",
      "outputs": [],
      "stateMutability": "nonpayable",
      "type": "function"
    },
    {
      "inputs": [
        {
          "internalType": "address",
          "name": "newImplementation",
          "type": "address"
        }
      ],
      "name": "upgradeTo",
      "outputs": [],
      "stateMutability": "nonpayable",
      "type": "function"
    },
    {
      "inputs": [
        {
          "internalType": "address",
          "name": "newImplementation",
          "type": "address"
        },
        {
          "internalType": "bytes",
          "name": "data",
          "type": "bytes"
        }
      ],
      "name": "upgradeToAndCall",
      "outputs": [],
      "stateMutability": "payable",
      "type": "function"
    },
    {
      "stateMutability": "payable",
      "type": "receive"
    }
  ],
  "bytecode": "0x60a06040523060601b6080523480156200001857600080fd5b50600054610100900460ff16620000365760005460ff161562000040565b62000040620000e5565b620000a85760405162461bcd60e51b815260206004820152602e60248201527f496e697469616c697a61626c653a20636f6e747261637420697320616c72656160448201526d191e481a5b9a5d1a585b1a5e995960921b606482015260840160405180910390fd5b600054610100900460ff16158015620000cb576000805461ffff19166101011790555b8015620000de576000805461ff00191690555b5062000112565b6000620000fd306200010360201b620028851760201c565b15905090565b6001600160a01b03163b151590565b60805160601c6142376200014d6000396000818161103501528181611075015281816113a4015281816113e4015261147301526142376000f3fe6080604052600436106103855760003560e01c8063715018a6116101d1578063bb231ceb11610102578063d872a4cc116100a0578063efc3b7bd1161006f578063efc3b7bd14610a62578063f2929b2314610a79578063f2fde38b14610a90578063ffb2c47914610ab05761038c565b8063d872a4cc146109bb578063d9e66460146109db578063dc697bcb146109fc578063dd62ed3e14610a1c5761038c565b8063cb05114f116100dc578063cb05114f1461094e578063cb8446b214610963578063cc99498c1461097a578063d61a47f11461099a5761038c565b8063bb231ceb14610903578063c0b0fda214610923578063c5c3cbda146109395761038c565b806395d89b411161016f578063a457c2d711610149578063a457c2d714610883578063a9059cbb146108a3578063ac1e17df146108c3578063b28805f4146108e35761038c565b806395d89b411461082e5780639dc29fac14610843578063a29a6089146108635761038c565b80638129fc1c116101ab5780638129fc1c146107bb578063871c128d146107d05780638da5cb5b146107f05780638dd428081461080e5761038c565b8063715018a61461076657806378fa66481461077b578063806e085e1461079b5761038c565b80633bf20753116102b657806352d1902d116102545780636775d967116102235780636775d967146106d85780636d1fc4d1146106f85780636f28d6881461070f57806370a08231146107305761038c565b806352d1902d1461066357806352f7c9881461067857806360a2c14d146106985780636402511e146106b85761038c565b806349bd5a5e1161029057806349bd5a5e146105f95780634d44e6631461061a5780634f1ef2861461063a57806351fde4bb1461064d5761038c565b80633bf20753146105a157806343cd8f7e146105c1578063490e32cc146105e25761038c565b806323b872dd11610323578063313ce567116102fd578063313ce5671461050a57806335773b88146105265780633659cfe61461056157806339509351146105815761038c565b806323b872dd146104b157806326330dab146104d15780633009a609146104f35761038c565b8063166d8a911161035f578063166d8a91146104215780631694505e1461045a57806318160ddd1461047b5780631a536a321461049a5761038c565b806306fdde0314610391578063095ea7b3146103bc57806315cba925146103ec5761038c565b3661038c57005b600080fd5b34801561039d57600080fd5b506103a6610ad0565b6040516103b39190613cbe565b60405180910390f35b3480156103c857600080fd5b506103dc6103d7366004613afc565b610b62565b60405190151581526020016103b3565b3480156103f857600080fd5b5061040c6104073660046139aa565b610b7c565b604080519283526020830191909152016103b3565b34801561042d57600080fd5b5061010d54610442906001600160a01b031681565b6040516001600160a01b0390911681526020016103b3565b34801561046657600080fd5b5061010654610442906001600160a01b031681565b34801561048757600080fd5b506035545b6040519081526020016103b3565b3480156104a657600080fd5b5061048c61010b5481565b3480156104bd57600080fd5b506103dc6104cc366004613a1a565b610d3a565b3480156104dd57600080fd5b506104f16104ec366004613c55565b610f81565b005b3480156104ff57600080fd5b5061048c61010e5481565b34801561051657600080fd5b50604051601281526020016103b3565b34801561053257600080fd5b50610546610541366004613c19565b610fc1565b604080519384526020840192909252908201526060016103b3565b34801561056d57600080fd5b506104f161057c3660046139aa565b61102a565b34801561058d57600080fd5b506103dc61059c366004613afc565b61110a565b3480156105ad57600080fd5b506104f16105bc366004613c31565b611149565b3480156105cd57600080fd5b5061010a54610442906001600160a01b031681565b3480156105ee57600080fd5b5061048c6101005481565b34801561060557600080fd5b5061010754610442906001600160a01b031681565b34801561062657600080fd5b506104f16106353660046139aa565b611266565b6104f1610648366004613a5a565b611399565b34801561065957600080fd5b5061048c60fe5481565b34801561066f57600080fd5b5061048c611466565b34801561068457600080fd5b506104f1610693366004613c55565b611519565b3480156106a457600080fd5b506104f16106b3366004613c55565b61154e565b3480156106c457600080fd5b506104f16106d3366004613c19565b611585565b3480156106e457600080fd5b506104f16106f33660046139aa565b6115b5565b34801561070457600080fd5b5061048c6101015481565b34801561071b57600080fd5b5061010854610442906001600160a01b031681565b34801561073c57600080fd5b5061048c61074b3660046139aa565b6001600160a01b031660009081526033602052604090205490565b34801561077257600080fd5b506104f1611602565b34801561078757600080fd5b506104f16107963660046139aa565b611638565b3480156107a757600080fd5b506103dc6107b6366004613b27565b611685565b3480156107c757600080fd5b506104f16116e0565b3480156107dc57600080fd5b506104f16107eb366004613c19565b611b6f565b3480156107fc57600080fd5b5060c9546001600160a01b0316610442565b34801561081a57600080fd5b506104f16108293660046139aa565b611c93565b34801561083a57600080fd5b506103a6611cc8565b34801561084f57600080fd5b506104f161085e366004613afc565b611cd7565b34801561086f57600080fd5b506104f161087e3660046139aa565b611d0b565b34801561088f57600080fd5b506103dc61089e366004613afc565b611d58565b3480156108af57600080fd5b506103dc6108be366004613afc565b611df5565b3480156108cf57600080fd5b506104f16108de3660046139aa565b612077565b3480156108ef57600080fd5b506104f16108fe366004613c19565b6120ac565b34801561090f57600080fd5b506103dc61091e3660046139aa565b612234565b34801561092f57600080fd5b5061048c60ff5481565b34801561094557600080fd5b5061040c612241565b34801561095a57600080fd5b5061048c6122ca565b34801561096f57600080fd5b5061048c6101035481565b34801561098657600080fd5b506104f1610995366004613c31565b6122db565b3480156109a657600080fd5b5061010954610442906001600160a01b031681565b3480156109c757600080fd5b506104f16109d63660046139e2565b612410565b3480156109e757600080fd5b5061010254610442906001600160a01b031681565b348015610a0857600080fd5b506104f1610a17366004613c19565b61246a565b348015610a2857600080fd5b5061048c610a373660046139e2565b6001600160a01b03918216600090815260346020908152604080832093909416825291909152205490565b348015610a6e57600080fd5b5061048c61010c5481565b348015610a8557600080fd5b5061048c6101045481565b348015610a9c57600080fd5b506104f1610aab3660046139aa565b61249a565b348015610abc57600080fd5b506104f1610acb366004613c19565b612532565b606060368054610adf906140e3565b80601f0160208091040260200160405190810160405280929190818152602001828054610b0b906140e3565b8015610b585780601f10610b2d57610100808354040283529160200191610b58565b820191906000526020600020905b815481529060010190602001808311610b3b57829003601f168201915b5050505050905090565b600033610b70818585612894565b60019150505b92915050565b600080600061010a60009054906101000a90046001600160a01b03166001600160a01b03166318160ddd6040518163ffffffff1660e01b815260040160206040518083038186803b158015610bd057600080fd5b505afa158015610be4573d6000803e3d6000fd5b505050506040513d601f19601f82011682018060405250810190610c089190613c01565b905080610c1c576000809250925050610d35565b61010a5461010d546040516370a0823160e01b81526001600160a01b03918216600482015260009291909116906370a082319060240160206040518083038186803b158015610c6a57600080fd5b505afa158015610c7e573d6000803e3d6000fd5b505050506040513d601f19601f82011682018060405250810190610ca29190613c01565b9050610cae82826129b8565b61010a546040516370a0823160e01b81526001600160a01b0388811660048301529294509116906370a082319060240160206040518083038186803b158015610cf657600080fd5b505afa158015610d0a573d6000803e3d6000fd5b505050506040513d601f19601f82011682018060405250810190610d2e9190613c01565b9350909150505b915091565b600060008051602061417b833981519152600180868686604051610d62959493929190613c92565b60405180910390a160c95433906001600160a01b03868116911614801590610d985750610107546001600160a01b038581169116145b8015610da957506101045460355410155b15610ded5760008051602061417b83398151915260016002878787604051610dd5959493929190613c92565b60405180910390a1610de88585856129c4565b610e27565b60008051602061417b83398151915260016003878787604051610e14959493929190613c92565b60405180910390a1610e27858585612be7565b610e32858285612d2b565b61010a546040516370a0823160e01b81526001600160a01b03878116600483015260009216906370a082319060240160206040518083038186803b158015610e7957600080fd5b505afa158015610e8d573d6000803e3d6000fd5b505050506040513d601f19601f82011682018060405250810190610eb19190613c01565b118015610ec45750610ec285612234565b155b15610ed757610ed285612077565b610f74565b61010a546040516370a0823160e01b81526001600160a01b038781166004830152909116906370a082319060240160206040518083038186803b158015610f1d57600080fd5b505afa158015610f31573d6000803e3d6000fd5b505050506040513d601f19601f82011682018060405250810190610f559190613c01565b158015610f665750610f6685612234565b15610f7457610f7485611c93565b60019150505b9392505050565b60c9546001600160a01b03163314610fb45760405162461bcd60e51b8152600401610fab90613dcc565b60405180910390fd5b61010b9190915561010c55565b600080600080610fe8612710610fe260ff5488612db790919063ffffffff16565b90612dc3565b90506000611007612710610fe260fe5489612db790919063ffffffff16565b905061101386836129b8565b955061101f86826129b8565b969195509350915050565b306001600160a01b037f00000000000000000000000000000000000000000000000000000000000000001614156110735760405162461bcd60e51b8152600401610fab90613d34565b7f00000000000000000000000000000000000000000000000000000000000000006001600160a01b03166110bc60008051602061419b833981519152546001600160a01b031690565b6001600160a01b0316146110e25760405162461bcd60e51b8152600401610fab90613d80565b6110eb81612dcf565b6040805160008082526020820190925261110791839190612df9565b50565b3360008181526034602090815260408083206001600160a01b0387168452909152812054909190610b709082908690611144908790613f32565b612894565b604080516002808252606082018352600092602083019080368337019050509050308160008151811061118c57634e487b7160e01b600052603260045260246000fd5b60200260200101906001600160a01b031690816001600160a01b03168152505081816001815181106111ce57634e487b7160e01b600052603260045260246000fd5b6001600160a01b039283166020918202929092010152610106546111f59130911685612894565b61010654604051635c11d79560e01b81526001600160a01b0390911690635c11d7959061122f908690600090869030904290600401613e91565b600060405180830381600087803b15801561124957600080fd5b505af115801561125d573d6000803e3d6000fd5b50505050505050565b60c9546001600160a01b031633146112905760405162461bcd60e51b8152600401610fab90613dcc565b6001600160a01b03811663a9059cbb336040516370a0823160e01b81523060048201526001600160a01b038516906370a082319060240160206040518083038186803b1580156112df57600080fd5b505afa1580156112f3573d6000803e3d6000fd5b505050506040513d601f19601f820116820180604052508101906113179190613c01565b6040516001600160e01b031960e085901b1681526001600160a01b0390921660048301526024820152604401602060405180830381600087803b15801561135d57600080fd5b505af1158015611371573d6000803e3d6000fd5b505050506040513d601f19601f820116820180604052508101906113959190613be1565b5050565b306001600160a01b037f00000000000000000000000000000000000000000000000000000000000000001614156113e25760405162461bcd60e51b8152600401610fab90613d34565b7f00000000000000000000000000000000000000000000000000000000000000006001600160a01b031661142b60008051602061419b833981519152546001600160a01b031690565b6001600160a01b0316146114515760405162461bcd60e51b8152600401610fab90613d80565b61145a82612dcf565b61139582826001612df9565b6000306001600160a01b037f000000000000000000000000000000000000000000000000000000000000000016146115065760405162461bcd60e51b815260206004820152603860248201527f555550535570677261646561626c653a206d757374206e6f742062652063616c60448201527f6c6564207468726f7567682064656c656761746563616c6c00000000000000006064820152608401610fab565b5060008051602061419b83398151915290565b60c9546001600160a01b031633146115435760405162461bcd60e51b8152600401610fab90613dcc565b60fe9190915560ff55565b60c9546001600160a01b031633146115785760405162461bcd60e51b8152600401610fab90613dcc565b6101009190915561010155565b60c9546001600160a01b031633146115af5760405162461bcd60e51b8152600401610fab90613dcc565b61010355565b60c9546001600160a01b031633146115df5760405162461bcd60e51b8152600401610fab90613dcc565b61010a80546001600160a01b0319166001600160a01b0392909216919091179055565b60c9546001600160a01b0316331461162c5760405162461bcd60e51b8152600401610fab90613dcc565b6116366000612f7d565b565b60c9546001600160a01b031633146116625760405162461bcd60e51b8152600401610fab90613dcc565b61010d80546001600160a01b0319166001600160a01b0392909216919091179055565b6000805b83518110156116d6576116c4338583815181106116b657634e487b7160e01b600052603260045260246000fd5b602002602001015185612be7565b806116ce8161411e565b915050611689565b5060019392505050565b600054610100900460ff166116fb5760005460ff16156116ff565b303b155b6117625760405162461bcd60e51b815260206004820152602e60248201527f496e697469616c697a61626c653a20636f6e747261637420697320616c72656160448201526d191e481a5b9a5d1a585b1a5e995960921b6064820152608401610fab565b600054610100900460ff16158015611784576000805461ffff19166101011790555b6117cb6040518060400160405280600a81526020016925bab0b33a9021b7b4b760b11b815250604051806040016040528060038152602001624b464360e81b815250612fcf565b6117d3613000565b6117db61302f565b6117fc336117eb6012600a613fb0565b6117f790612710614081565b613056565b61019060fe55606460ff5560326101008190556101015561010280546001600160a01b03191673d99d1c33f9fc3444f8101754abc46c52416550d1179055611842601290565b61184d90600a613fb0565b61185890600f614081565b610103556118686012600a613fb0565b61187490610384614081565b61010455617530610105556101025461010680546001600160a01b0319166001600160a01b0390921691821790556040805163c45a015560e01b8152905163c45a015591600480820192602092909190829003018186803b1580156118d857600080fd5b505afa1580156118ec573d6000803e3d6000fd5b505050506040513d601f19601f8201168201806040525081019061191091906139c6565b6001600160a01b031663c9c653963061010660009054906101000a90046001600160a01b03166001600160a01b031663ad5c46486040518163ffffffff1660e01b815260040160206040518083038186803b15801561196e57600080fd5b505afa158015611982573d6000803e3d6000fd5b505050506040513d601f19601f820116820180604052508101906119a691906139c6565b6040516001600160e01b031960e085901b1681526001600160a01b03928316600482015291166024820152604401602060405180830381600087803b1580156119ee57600080fd5b505af1158015611a02573d6000803e3d6000fd5b505050506040513d601f19601f82011682018060405250810190611a2691906139c6565b61010780546001600160a01b039283166001600160a01b0319918216811790925561010a8054909116909117905561010654604080516315ab88c960e31b81529051919092169163ad5c4648916004808301926020929190829003018186803b158015611a9257600080fd5b505afa158015611aa6573d6000803e3d6000fd5b505050506040513d601f19601f82011682018060405250810190611aca91906139c6565b61010880546001600160a01b03929092166001600160a01b03199283161790556101098054909116737ef95a0fee0dd31b22626fa2e10ee6a223f8a6841790556702c68af0bb14000061010b556302625a0061010c55611b273390565b6001600160a01b031660006000805160206141e2833981519152611b4a60355490565b60405190815260200160405180910390a38015611107576000805461ff001916905550565b60c9546001600160a01b03163314611b995760405162461bcd60e51b8152600401610fab90613dcc565b62030d408110158015611baf57506207a1208111155b611c215760405162461bcd60e51b815260206004820152603860248201527f424b3a20676173466f7250726f63657373696e67206d7573742062652062657460448201527f7765656e203230302c30303020616e64203530302c30303000000000000000006064820152608401610fab565b61010554811415611c8d5760405162461bcd60e51b815260206004820152603060248201527f424b3a2043616e6e6f742075706461746520676173466f7250726f636573736960448201526f6e6720746f2073616d652076616c756560801b6064820152608401610fab565b61010555565b60c9546001600160a01b03163314611cbd5760405162461bcd60e51b8152600401610fab90613dcc565b61139560fb82613124565b606060378054610adf906140e3565b60c9546001600160a01b03163314611d015760405162461bcd60e51b8152600401610fab90613dcc565b6113958282613139565b60c9546001600160a01b03163314611d355760405162461bcd60e51b8152600401610fab90613dcc565b61010780546001600160a01b0319166001600160a01b0392909216919091179055565b3360008181526034602090815260408083206001600160a01b038716845290915281205490919083811015611ddd5760405162461bcd60e51b815260206004820152602560248201527f45524332303a2064656372656173656420616c6c6f77616e63652062656c6f77604482015264207a65726f60d81b6064820152608401610fab565b611dea8286868403612894565b506001949350505050565b600060008051602061417b83398151915260026001338686604051611e1e959493929190613c92565b60405180910390a160c9546001600160a01b03163314801590611e555750610107546001600160a01b0316336001600160a01b0316145b8015611e6657506101045460355410155b15611ea95760008051602061417b833981519152600280338686604051611e91959493929190613c92565b60405180910390a1611ea43384846129c4565b611ee3565b60008051602061417b83398151915260026003338686604051611ed0959493929190613c92565b60405180910390a1611ee3338484612be7565b60008051602061417b83398151915260026004338686604051611f0a959493929190613c92565b60405180910390a161010a546000906001600160a01b03166370a08231336040516001600160e01b031960e084901b1681526001600160a01b03909116600482015260240160206040518083038186803b158015611f6757600080fd5b505afa158015611f7b573d6000803e3d6000fd5b505050506040513d601f19601f82011682018060405250810190611f9f9190613c01565b118015611fb25750611fb03361091e565b155b15611fc557611fc0336108de565b61206e565b61010a546001600160a01b03166370a08231336040516001600160e01b031960e084901b1681526001600160a01b03909116600482015260240160206040518083038186803b15801561201757600080fd5b505afa15801561202b573d6000803e3d6000fd5b505050506040513d601f19601f8201168201806040525081019061204f9190613c01565b15801561206057506120603361091e565b1561206e5761206e33610829565b50600192915050565b60c9546001600160a01b031633146120a15760405162461bcd60e51b8152600401610fab90613dcc565b61139560fb82613275565b60408051600280825260608201835260009260208301908036833701905050905030816000815181106120ef57634e487b7160e01b600052603260045260246000fd5b6001600160a01b0392831660209182029290920181019190915261010654604080516315ab88c960e31b81529051919093169263ad5c4648926004808301939192829003018186803b15801561214457600080fd5b505afa158015612158573d6000803e3d6000fd5b505050506040513d601f19601f8201168201806040525081019061217c91906139c6565b8160018151811061219d57634e487b7160e01b600052603260045260246000fd5b6001600160a01b039283166020918202929092010152610106546121c49130911684612894565b6101065460405163791ac94760e01b81526001600160a01b039091169063791ac947906121fe908590600090869030904290600401613e91565b600060405180830381600087803b15801561221857600080fd5b505af115801561222c573d6000803e3d6000fd5b505050505050565b6000610b7660fb8361328a565b610109546040516370a0823160e01b8152306004820152600091829147916001600160a01b0316906370a082319060240160206040518083038186803b15801561228a57600080fd5b505afa15801561229e573d6000803e3d6000fd5b505050506040513d601f19601f820116820180604052508101906122c29190613c01565b915091509091565b60006122d660fb6132ac565b905090565b6040805160038082526080820190925260009160208201606080368337019050509050308160008151811061232057634e487b7160e01b600052603260045260246000fd5b6001600160a01b0392831660209182029290920181019190915261010654604080516315ab88c960e31b81529051919093169263ad5c4648926004808301939192829003018186803b15801561237557600080fd5b505afa158015612389573d6000803e3d6000fd5b505050506040513d601f19601f820116820180604052508101906123ad91906139c6565b816001815181106123ce57634e487b7160e01b600052603260045260246000fd5b60200260200101906001600160a01b031690816001600160a01b03168152505081816002815181106111ce57634e487b7160e01b600052603260045260246000fd5b60c9546001600160a01b0316331461243a5760405162461bcd60e51b8152600401610fab90613dcc565b61010880546001600160a01b039384166001600160a01b0319918216179091556101098054929093169116179055565b60c9546001600160a01b031633146124945760405162461bcd60e51b8152600401610fab90613dcc565b61010455565b60c9546001600160a01b031633146124c45760405162461bcd60e51b8152600401610fab90613dcc565b6001600160a01b0381166125295760405162461bcd60e51b815260206004820152602660248201527f4f776e61626c653a206e6577206f776e657220697320746865207a65726f206160448201526564647265737360d01b6064820152608401610fab565b61110781612f7d565b600061253e60fb6132ac565b905080158061254f575061010b5447105b806125d7575061010c54610109546040516370a0823160e01b81523060048201526001600160a01b03909116906370a082319060240160206040518083038186803b15801561259d57600080fd5b505afa1580156125b1573d6000803e3d6000fd5b505050506040513d601f19601f820116820180604052508101906125d59190613c01565b105b156125e25750611107565b61010e546000805a905060005b85831080156125fd57508481105b1561287a578061260c8161411e565b91505061261960fb6132ac565b841061262457600093505b600061263160fb866132b6565b905060008061263f83610b7c565b9150915081600014156126605761265760fb84613124565b505050506125ef565b600061267c82610fe28561010b54612db790919063ffffffff16565b9050600061269a83610fe28661010c54612db790919063ffffffff16565b9050814710806127235750610109546040516370a0823160e01b815230600482015282916001600160a01b0316906370a082319060240160206040518083038186803b1580156126e957600080fd5b505afa1580156126fd573d6000803e3d6000fd5b505050506040513d601f19601f820116820180604052508101906127219190613c01565b105b156127375750505050505050505050611107565b6000841180156127475750600083115b8015612762575061010d546001600160a01b03868116911614155b801561277657506001600160a01b03851615155b1561283b576040516001600160a01b0386169083156108fc029084906000818181858888f193505050501580156127b1573d6000803e3d6000fd5b506101095460405163a9059cbb60e01b81526001600160a01b038781166004830152602482018490529091169063a9059cbb90604401602060405180830381600087803b15801561280157600080fd5b505af1158015612815573d6000803e3d6000fd5b505050506040513d601f19601f820116820180604052508101906128399190613be1565b505b60005a90508088111561285f5761285c61285589836129b8565b8a906132c2565b98505b9650868961286c8161411e565b9a50505050505050506125ef565b50505061010e555050565b6001600160a01b03163b151590565b6001600160a01b0383166128f65760405162461bcd60e51b8152602060048201526024808201527f45524332303a20617070726f76652066726f6d20746865207a65726f206164646044820152637265737360e01b6064820152608401610fab565b6001600160a01b0382166129575760405162461bcd60e51b815260206004820152602260248201527f45524332303a20617070726f766520746f20746865207a65726f206164647265604482015261737360f01b6064820152608401610fab565b6001600160a01b0383811660008181526034602090815260408083209487168084529482529182902085905590518481527f8c5be1e5ebec7d5bd14f71427d1e84f3dd0314c0f7b2291e5b200ac8c7c3b925910160405180910390a3505050565b6000610f7a82846140a0565b6001600160a01b0383166129ea5760405162461bcd60e51b8152600401610fab90613e01565b6001600160a01b038216612a105760405162461bcd60e51b8152600401610fab90613cf1565b60008111612a725760405162461bcd60e51b815260206004820152602960248201527f5472616e7366657220616d6f756e74206d7573742062652067726561746572206044820152687468616e207a65726f60b81b6064820152608401610fab565b60008051602061417b83398151915260006001858585604051612a99959493929190613c92565b60405180910390a160008051602061417b83398151915260006002858585604051612ac8959493929190613c92565b60405180910390a1612ada33836132ce565b60fd5460ff16612b795760008051602061417b83398151915260006003858585604051612b0b959493929190613c92565b60405180910390a16000806000612b2184610fc1565b92509250925061010454612b3e83612b3860355490565b906129b8565b10612b4f57612b4f8660ff54613139565b612b5a863083612be7565b612b65868685612be7565b612b7161010554612532565b505050612bb3565b60008051602061417b83398151915260006004858585604051612ba0959493929190613c92565b60405180910390a1612bb3838383612be7565b60008051602061417b83398151915260006005858585604051612bda959493929190613c92565b60405180910390a1505050565b6001600160a01b038316612c0d5760405162461bcd60e51b8152600401610fab90613e01565b6001600160a01b038216612c335760405162461bcd60e51b8152600401610fab90613cf1565b6001600160a01b03831660009081526033602052604090205481811015612cab5760405162461bcd60e51b815260206004820152602660248201527f45524332303a207472616e7366657220616d6f756e7420657863656564732062604482015265616c616e636560d01b6064820152608401610fab565b6001600160a01b03808516600090815260336020526040808220858503905591851681529081208054849290612ce2908490613f32565b92505081905550826001600160a01b0316846001600160a01b03166000805160206141e283398151915284604051612d1c91815260200190565b60405180910390a35b50505050565b6001600160a01b038381166000908152603460209081526040808320938616835292905220546000198114612d255781811015612daa5760405162461bcd60e51b815260206004820152601d60248201527f45524332303a20696e73756666696369656e7420616c6c6f77616e63650000006044820152606401610fab565b612d258484848403612894565b6000610f7a8284614081565b6000610f7a8284613f4a565b60c9546001600160a01b031633146111075760405162461bcd60e51b8152600401610fab90613dcc565b7f4910fdfa16fed3260ed0e7147f7cc6da11a60208b5b9406d12a635614ffd91435460ff1615612e3157612e2c836134c1565b612f78565b826001600160a01b03166352d1902d6040518163ffffffff1660e01b815260040160206040518083038186803b158015612e6a57600080fd5b505afa925050508015612e9a575060408051601f3d908101601f19168201909252612e9791810190613c01565b60015b612efd5760405162461bcd60e51b815260206004820152602e60248201527f45524331393637557067726164653a206e657720696d706c656d656e7461746960448201526d6f6e206973206e6f74205555505360901b6064820152608401610fab565b60008051602061419b8339815191528114612f6c5760405162461bcd60e51b815260206004820152602960248201527f45524331393637557067726164653a20756e737570706f727465642070726f786044820152681a58589b195555525160ba1b6064820152608401610fab565b50612f7883838361355d565b505050565b60c980546001600160a01b038381166001600160a01b0319831681179093556040519116919082907f8be0079c531659141344cd1fd0a4f28419497f9722a3daafe3b4186f6b6457e090600090a35050565b600054610100900460ff16612ff65760405162461bcd60e51b8152600401610fab90613e46565b6113958282613582565b600054610100900460ff166130275760405162461bcd60e51b8152600401610fab90613e46565b6116366135d0565b600054610100900460ff166116365760405162461bcd60e51b8152600401610fab90613e46565b6001600160a01b0382166130ac5760405162461bcd60e51b815260206004820152601f60248201527f45524332303a206d696e7420746f20746865207a65726f2061646472657373006044820152606401610fab565b80603560008282546130be9190613f32565b90915550506001600160a01b038216600090815260336020526040812080548392906130eb908490613f32565b90915550506040518181526001600160a01b038316906000906000805160206141e28339815191529060200160405180910390a3611395565b6000610f7a836001600160a01b038416613600565b6001600160a01b0382166131995760405162461bcd60e51b815260206004820152602160248201527f45524332303a206275726e2066726f6d20746865207a65726f206164647265736044820152607360f81b6064820152608401610fab565b6001600160a01b0382166000908152603360205260409020548181101561320d5760405162461bcd60e51b815260206004820152602260248201527f45524332303a206275726e20616d6f756e7420657863656564732062616c616e604482015261636560f01b6064820152608401610fab565b6001600160a01b038316600090815260336020526040812083830390556035805484929061323c9084906140a0565b90915550506040518281526000906001600160a01b038516906000805160206141e28339815191529060200160405180910390a3612f78565b6000610f7a836001600160a01b03841661371d565b6001600160a01b03811660009081526001830160205260408120541515610f7a565b6000610b76825490565b6000610f7a838361376c565b6000610f7a8284613f32565b60fd5460ff161580156132ef5750610107546001600160a01b038281169116145b801561330d5750610103543060009081526033602052604090205410155b1561348d5760008051602061417b833981519152600060068484600060405161333a959493929190613c92565b60405180910390a160fd805460ff191660011790556101005430600090815260336020526040812054909161337691606491610fe29190612db7565b9050600061339d82612b38306001600160a01b031660009081526033602052604090205490565b90506000610100541180156133b25750600082115b156133f05760008051602061417b83398151915260006042868660006040516133df959493929190613c92565b60405180910390a16133f0826120ac565b6000610101541180156134035750600081115b156134505760008051602061417b8339815191526000604386866000604051613430959493929190613c92565b60405180910390a1610109546134509082906001600160a01b03166122db565b60008051602061417b8339815191526000600786866000604051613478959493929190613c92565b60405180910390a1505060fd805460ff191690555b60008051602061417b83398151915260006008848460006040516134b5959493929190613c92565b60405180910390a15050565b6001600160a01b0381163b61352e5760405162461bcd60e51b815260206004820152602d60248201527f455243313936373a206e657720696d706c656d656e746174696f6e206973206e60448201526c1bdd08184818dbdb9d1c9858dd609a1b6064820152608401610fab565b60008051602061419b83398151915280546001600160a01b0319166001600160a01b0392909216919091179055565b613566836137a4565b6000825111806135735750805b15612f7857612d2583836137e4565b600054610100900460ff166135a95760405162461bcd60e51b8152600401610fab90613e46565b81516135bc906036906020850190613911565b508051612f78906037906020840190613911565b600054610100900460ff166135f75760405162461bcd60e51b8152600401610fab90613e46565b61163633612f7d565b600081815260018301602052604081205480156137135760006136246001836140a0565b8554909150600090613638906001906140a0565b90508181146136b957600086600001828154811061366657634e487b7160e01b600052603260045260246000fd5b906000526020600020015490508087600001848154811061369757634e487b7160e01b600052603260045260246000fd5b6000918252602080832090910192909255918252600188019052604090208390555b85548690806136d857634e487b7160e01b600052603160045260246000fd5b600190038181906000526020600020016000905590558560010160008681526020019081526020016000206000905560019350505050610b76565b6000915050610b76565b600081815260018301602052604081205461376457508154600181810184556000848152602080822090930184905584548482528286019093526040902091909155610b76565b506000610b76565b600082600001828154811061379157634e487b7160e01b600052603260045260246000fd5b9060005260206000200154905092915050565b6137ad816134c1565b6040516001600160a01b038216907fbc7cd75a20ee27fd9adebab32041f755214dbc6bffa90cc0225b39da2e5c2d3b90600090a250565b60606001600160a01b0383163b61384c5760405162461bcd60e51b815260206004820152602660248201527f416464726573733a2064656c65676174652063616c6c20746f206e6f6e2d636f6044820152651b9d1c9858dd60d21b6064820152608401610fab565b600080846001600160a01b0316846040516138679190613c76565b600060405180830381855af49150503d80600081146138a2576040519150601f19603f3d011682016040523d82523d6000602084013e6138a7565b606091505b50915091506138cf82826040518060600160405280602781526020016141bb602791396138d8565b95945050505050565b606083156138e7575081610f7a565b8251156138f75782518084602001fd5b8160405162461bcd60e51b8152600401610fab9190613cbe565b82805461391d906140e3565b90600052602060002090601f01602090048101928261393f5760008555613985565b82601f1061395857805160ff1916838001178555613985565b82800160010185558215613985579182015b8281111561398557825182559160200191906001019061396a565b50613991929150613995565b5090565b5b808211156139915760008155600101613996565b6000602082840312156139bb578081fd5b8135610f7a81614165565b6000602082840312156139d7578081fd5b8151610f7a81614165565b600080604083850312156139f4578081fd5b82356139ff81614165565b91506020830135613a0f81614165565b809150509250929050565b600080600060608486031215613a2e578081fd5b8335613a3981614165565b92506020840135613a4981614165565b929592945050506040919091013590565b60008060408385031215613a6c578182fd5b8235613a7781614165565b915060208381013567ffffffffffffffff80821115613a94578384fd5b818601915086601f830112613aa7578384fd5b813581811115613ab957613ab961414f565b613acb601f8201601f19168501613f01565b91508082528784828501011115613ae0578485fd5b8084840185840137810190920192909252919491935090915050565b60008060408385031215613b0e578182fd5b8235613b1981614165565b946020939093013593505050565b60008060408385031215613b39578182fd5b823567ffffffffffffffff80821115613b50578384fd5b818501915085601f830112613b63578384fd5b8135602082821115613b7757613b7761414f565b8160051b9250613b88818401613f01565b8281528181019085830185870184018b1015613ba2578889fd5b8896505b84871015613bd05780359550613bbb86614165565b85835260019690960195918301918301613ba6565b509997909101359750505050505050565b600060208284031215613bf2578081fd5b81518015158114610f7a578182fd5b600060208284031215613c12578081fd5b5051919050565b600060208284031215613c2a578081fd5b5035919050565b60008060408385031215613c43578182fd5b823591506020830135613a0f81614165565b60008060408385031215613c67578182fd5b50508035926020909101359150565b60008251613c888184602087016140b7565b9190910192915050565b94855260208501939093526001600160a01b039182166040850152166060830152608082015260a00190565b6000602082528251806020840152613cdd8160408501602087016140b7565b601f01601f19169190910160400192915050565b60208082526023908201527f45524332303a207472616e7366657220746f20746865207a65726f206164647260408201526265737360e81b606082015260800190565b6020808252602c908201527f46756e6374696f6e206d7573742062652063616c6c6564207468726f7567682060408201526b19195b1959d85d1958d85b1b60a21b606082015260800190565b6020808252602c908201527f46756e6374696f6e206d7573742062652063616c6c6564207468726f7567682060408201526b6163746976652070726f787960a01b606082015260800190565b6020808252818101527f4f776e61626c653a2063616c6c6572206973206e6f7420746865206f776e6572604082015260600190565b60208082526025908201527f45524332303a207472616e736665722066726f6d20746865207a65726f206164604082015264647265737360d81b606082015260800190565b6020808252602b908201527f496e697469616c697a61626c653a20636f6e7472616374206973206e6f74206960408201526a6e697469616c697a696e6760a81b606082015260800190565b600060a082018783526020878185015260a0604085015281875180845260c0860191508289019350845b81811015613ee05784516001600160a01b031683529383019391830191600101613ebb565b50506001600160a01b03969096166060850152505050608001529392505050565b604051601f8201601f1916810167ffffffffffffffff81118282101715613f2a57613f2a61414f565b604052919050565b60008219821115613f4557613f45614139565b500190565b600082613f6557634e487b7160e01b81526012600452602481fd5b500490565b80825b6001808611613f7c5750613fa7565b818704821115613f8e57613f8e614139565b80861615613f9b57918102915b9490941c938002613f6d565b94509492505050565b6000610f7a60001960ff851684600082613fcc57506001610f7a565b81613fd957506000610f7a565b8160018114613fef5760028114613ff957614026565b6001915050610f7a565b60ff84111561400a5761400a614139565b6001841b91508482111561402057614020614139565b50610f7a565b5060208310610133831016604e8410600b8410161715614059575081810a8381111561405457614054614139565b610f7a565b6140668484846001613f6a565b80860482111561407857614078614139565b02949350505050565b600081600019048311821515161561409b5761409b614139565b500290565b6000828210156140b2576140b2614139565b500390565b60005b838110156140d25781810151838201526020016140ba565b83811115612d255750506000910152565b600181811c908216806140f757607f821691505b6020821081141561411857634e487b7160e01b600052602260045260246000fd5b50919050565b600060001982141561413257614132614139565b5060010190565b634e487b7160e01b600052601160045260246000fd5b634e487b7160e01b600052604160045260246000fd5b6001600160a01b038116811461110757600080fdfee91f2017409711d1b4dcb018874137ba954554608275dc81b46e3e385fb76739360894a13ba1a3210667c828492db98dca3e2076cc3735a920a3ca505d382bbc416464726573733a206c6f772d6c6576656c2064656c65676174652063616c6c206661696c6564ddf252ad1be2c89b69c2b068fc378daa952ba7f163c4a11628f55a4df523b3efa26469706673582212201cd9fb7f561bd5b3ee325e1d2b07e23afc4f603b37d6f8706cb5a120717e4cab64736f6c63430008030033",
  "linkReferences": {},
  "deployedLinkReferences": {}
}