{
  "_format": "hh-sol-artifact-1",
  "contractName": "AAA",
  "sourceName": "contracts/aaa.sol",
  "abi": [
    {
      "inputs": [],
      "stateMutability": "nonpayable",
      "type": "constructor"
    },
    {
      "anonymous": false,
      "inputs": [
        {
          "indexed": false,
          "internalType": "address",
          "name": "previousAdmin",
          "type": "address"
        },
        {
          "indexed": false,
          "internalType": "address",
          "name": "newAdmin",
          "type": "address"
        }
      ],
      "name": "AdminChanged",
      "type": "event"
    },
    {
      "anonymous": false,
      "inputs": [
        {
          "indexed": true,
          "internalType": "address",
          "name": "owner",
          "type": "address"
        },
        {
          "indexed": true,
          "internalType": "address",
          "name": "spender",
          "type": "address"
        },
        {
          "indexed": false,
          "internalType": "uint256",
          "name": "value",
          "type": "uint256"
        }
      ],
      "name": "Approval",
      "type": "event"
    },
    {
      "anonymous": false,
      "inputs": [
        {
          "indexed": true,
          "internalType": "address",
          "name": "beacon",
          "type": "address"
        }
      ],
      "name": "BeaconUpgraded",
      "type": "event"
    },
    {
      "anonymous": false,
      "inputs": [
        {
          "indexed": true,
          "internalType": "address",
          "name": "previousOwner",
          "type": "address"
        },
        {
          "indexed": true,
          "internalType": "address",
          "name": "newOwner",
          "type": "address"
        }
      ],
      "name": "OwnershipTransferred",
      "type": "event"
    },
    {
      "anonymous": false,
      "inputs": [
        {
          "indexed": true,
          "internalType": "address",
          "name": "from",
          "type": "address"
        },
        {
          "indexed": true,
          "internalType": "address",
          "name": "to",
          "type": "address"
        },
        {
          "indexed": false,
          "internalType": "uint256",
          "name": "value",
          "type": "uint256"
        }
      ],
      "name": "Transfer",
      "type": "event"
    },
    {
      "anonymous": false,
      "inputs": [
        {
          "indexed": true,
          "internalType": "address",
          "name": "implementation",
          "type": "address"
        }
      ],
      "name": "Upgraded",
      "type": "event"
    },
    {
      "inputs": [],
      "name": "_burnFee",
      "outputs": [
        {
          "internalType": "uint256",
          "name": "",
          "type": "uint256"
        }
      ],
      "stateMutability": "view",
      "type": "function"
    },
    {
      "inputs": [],
      "name": "_burnStopAtAmount",
      "outputs": [
        {
          "internalType": "uint256",
          "name": "",
          "type": "uint256"
        }
      ],
      "stateMutability": "view",
      "type": "function"
    },
    {
      "inputs": [
        {
          "internalType": "uint256",
          "name": "tAmount",
          "type": "uint256"
        }
      ],
      "name": "_getFeeValues",
      "outputs": [
        {
          "internalType": "uint256",
          "name": "",
          "type": "uint256"
        },
        {
          "internalType": "uint256",
          "name": "",
          "type": "uint256"
        },
        {
          "internalType": "uint256",
          "name": "",
          "type": "uint256"
        }
      ],
      "stateMutability": "view",
      "type": "function"
    },
    {
      "inputs": [],
      "name": "_marketAddress",
      "outputs": [
        {
          "internalType": "address",
          "name": "",
          "type": "address"
        }
      ],
      "stateMutability": "view",
      "type": "function"
    },
    {
      "inputs": [],
      "name": "_marketFee",
      "outputs": [
        {
          "internalType": "uint256",
          "name": "",
          "type": "uint256"
        }
      ],
      "stateMutability": "view",
      "type": "function"
    },
    {
      "inputs": [],
      "name": "_rewardFee",
      "outputs": [
        {
          "internalType": "uint256",
          "name": "",
          "type": "uint256"
        }
      ],
      "stateMutability": "view",
      "type": "function"
    },
    {
      "inputs": [],
      "name": "_routerAddress",
      "outputs": [
        {
          "internalType": "address",
          "name": "",
          "type": "address"
        }
      ],
      "stateMutability": "view",
      "type": "function"
    },
    {
      "inputs": [],
      "name": "_swapAtAmount",
      "outputs": [
        {
          "internalType": "uint256",
          "name": "",
          "type": "uint256"
        }
      ],
      "stateMutability": "view",
      "type": "function"
    },
    {
      "inputs": [
        {
          "internalType": "address",
          "name": "account",
          "type": "address"
        }
      ],
      "name": "addHolder",
      "outputs": [],
      "stateMutability": "nonpayable",
      "type": "function"
    },
    {
      "inputs": [
        {
          "internalType": "address",
          "name": "owner",
          "type": "address"
        },
        {
          "internalType": "address",
          "name": "spender",
          "type": "address"
        }
      ],
      "name": "allowance",
      "outputs": [
        {
          "internalType": "uint256",
          "name": "",
          "type": "uint256"
        }
      ],
      "stateMutability": "view",
      "type": "function"
    },
    {
      "inputs": [
        {
          "internalType": "address",
          "name": "spender",
          "type": "address"
        },
        {
          "internalType": "uint256",
          "name": "amount",
          "type": "uint256"
        }
      ],
      "name": "approve",
      "outputs": [
        {
          "internalType": "bool",
          "name": "",
          "type": "bool"
        }
      ],
      "stateMutability": "nonpayable",
      "type": "function"
    },
    {
      "inputs": [
        {
          "internalType": "address",
          "name": "account",
          "type": "address"
        }
      ],
      "name": "balanceOf",
      "outputs": [
        {
          "internalType": "uint256",
          "name": "",
          "type": "uint256"
        }
      ],
      "stateMutability": "view",
      "type": "function"
    },
    {
      "inputs": [],
      "name": "balanceOfRewad",
      "outputs": [
        {
          "internalType": "uint256",
          "name": "",
          "type": "uint256"
        },
        {
          "internalType": "uint256",
          "name": "",
          "type": "uint256"
        }
      ],
      "stateMutability": "view",
      "type": "function"
    },
    {
      "inputs": [
        {
          "internalType": "address",
          "name": "account",
          "type": "address"
        },
        {
          "internalType": "uint256",
          "name": "amount",
          "type": "uint256"
        }
      ],
      "name": "burn",
      "outputs": [],
      "stateMutability": "nonpayable",
      "type": "function"
    },
    {
      "inputs": [],
      "name": "decimals",
      "outputs": [
        {
          "internalType": "uint8",
          "name": "",
          "type": "uint8"
        }
      ],
      "stateMutability": "view",
      "type": "function"
    },
    {
      "inputs": [
        {
          "internalType": "address",
          "name": "spender",
          "type": "address"
        },
        {
          "internalType": "uint256",
          "name": "subtractedValue",
          "type": "uint256"
        }
      ],
      "name": "decreaseAllowance",
      "outputs": [
        {
          "internalType": "bool",
          "name": "",
          "type": "bool"
        }
      ],
      "stateMutability": "nonpayable",
      "type": "function"
    },
    {
      "inputs": [],
      "name": "excludeAddress",
      "outputs": [
        {
          "internalType": "address",
          "name": "",
          "type": "address"
        }
      ],
      "stateMutability": "view",
      "type": "function"
    },
    {
      "inputs": [],
      "name": "gas",
      "outputs": [
        {
          "internalType": "uint256",
          "name": "",
          "type": "uint256"
        }
      ],
      "stateMutability": "view",
      "type": "function"
    },
    {
      "inputs": [
        {
          "internalType": "address",
          "name": "account",
          "type": "address"
        }
      ],
      "name": "getLiquidityValues",
      "outputs": [
        {
          "internalType": "uint256",
          "name": "",
          "type": "uint256"
        },
        {
          "internalType": "uint256",
          "name": "",
          "type": "uint256"
        }
      ],
      "stateMutability": "view",
      "type": "function"
    },
    {
      "inputs": [
        {
          "internalType": "address",
          "name": "spender",
          "type": "address"
        },
        {
          "internalType": "uint256",
          "name": "addedValue",
          "type": "uint256"
        }
      ],
      "name": "increaseAllowance",
      "outputs": [
        {
          "internalType": "bool",
          "name": "",
          "type": "bool"
        }
      ],
      "stateMutability": "nonpayable",
      "type": "function"
    },
    {
      "inputs": [],
      "name": "initialize",
      "outputs": [],
      "stateMutability": "nonpayable",
      "type": "function"
    },
    {
      "inputs": [
        {
          "internalType": "address",
          "name": "account",
          "type": "address"
        }
      ],
      "name": "isliquidityHolder",
      "outputs": [
        {
          "internalType": "bool",
          "name": "",
          "type": "bool"
        }
      ],
      "stateMutability": "view",
      "type": "function"
    },
    {
      "inputs": [],
      "name": "lastProcessedIndex",
      "outputs": [
        {
          "internalType": "uint256",
          "name": "",
          "type": "uint256"
        }
      ],
      "stateMutability": "view",
      "type": "function"
    },
    {
      "inputs": [],
      "name": "liquidityHolderIndexLength",
      "outputs": [
        {
          "internalType": "uint256",
          "name": "",
          "type": "uint256"
        }
      ],
      "stateMutability": "view",
      "type": "function"
    },
    {
      "inputs": [],
      "name": "liquidityToken",
      "outputs": [
        {
          "internalType": "contract IERC20Upgradeable",
          "name": "",
          "type": "address"
        }
      ],
      "stateMutability": "view",
      "type": "function"
    },
    {
      "inputs": [],
      "name": "name",
      "outputs": [
        {
          "internalType": "string",
          "name": "",
          "type": "string"
        }
      ],
      "stateMutability": "view",
      "type": "function"
    },
    {
      "inputs": [],
      "name": "owner",
      "outputs": [
        {
          "internalType": "address",
          "name": "",
          "type": "address"
        }
      ],
      "stateMutability": "view",
      "type": "function"
    },
    {
      "inputs": [
        {
          "internalType": "uint256",
          "name": "_gasLimit",
          "type": "uint256"
        }
      ],
      "name": "process",
      "outputs": [],
      "stateMutability": "nonpayable",
      "type": "function"
    },
    {
      "inputs": [],
      "name": "proxiableUUID",
      "outputs": [
        {
          "internalType": "bytes32",
          "name": "",
          "type": "bytes32"
        }
      ],
      "stateMutability": "view",
      "type": "function"
    },
    {
      "inputs": [
        {
          "internalType": "address",
          "name": "account",
          "type": "address"
        }
      ],
      "name": "removeHolder",
      "outputs": [],
      "stateMutability": "nonpayable",
      "type": "function"
    },
    {
      "inputs": [],
      "name": "renounceOwnership",
      "outputs": [],
      "stateMutability": "nonpayable",
      "type": "function"
    },
    {
      "inputs": [],
      "name": "rewardToken1",
      "outputs": [
        {
          "internalType": "contract IERC20Upgradeable",
          "name": "",
          "type": "address"
        }
      ],
      "stateMutability": "view",
      "type": "function"
    },
    {
      "inputs": [],
      "name": "rewardToken1Amount",
      "outputs": [
        {
          "internalType": "uint256",
          "name": "",
          "type": "uint256"
        }
      ],
      "stateMutability": "view",
      "type": "function"
    },
    {
      "inputs": [],
      "name": "rewardToken1Fee",
      "outputs": [
        {
          "internalType": "uint256",
          "name": "",
          "type": "uint256"
        }
      ],
      "stateMutability": "view",
      "type": "function"
    },
    {
      "inputs": [],
      "name": "rewardToken2",
      "outputs": [
        {
          "internalType": "contract IERC20Upgradeable",
          "name": "",
          "type": "address"
        }
      ],
      "stateMutability": "view",
      "type": "function"
    },
    {
      "inputs": [],
      "name": "rewardToken2Amount",
      "outputs": [
        {
          "internalType": "uint256",
          "name": "",
          "type": "uint256"
        }
      ],
      "stateMutability": "view",
      "type": "function"
    },
    {
      "inputs": [],
      "name": "rewardToken2Fee",
      "outputs": [
        {
          "internalType": "uint256",
          "name": "",
          "type": "uint256"
        }
      ],
      "stateMutability": "view",
      "type": "function"
    },
    {
      "inputs": [
        {
          "internalType": "uint256",
          "name": "burnStopAtAmount",
          "type": "uint256"
        }
      ],
      "name": "setBurnStopAtAmount",
      "outputs": [],
      "stateMutability": "nonpayable",
      "type": "function"
    },
    {
      "inputs": [
        {
          "internalType": "address",
          "name": "_account",
          "type": "address"
        }
      ],
      "name": "setExcludeAddress",
      "outputs": [],
      "stateMutability": "nonpayable",
      "type": "function"
    },
    {
      "inputs": [
        {
          "internalType": "uint256",
          "name": "rewardFee",
          "type": "uint256"
        },
        {
          "internalType": "uint256",
          "name": "marketFee",
          "type": "uint256"
        },
        {
          "internalType": "uint256",
          "name": "burnFee",
          "type": "uint256"
        }
      ],
      "name": "setFee",
      "outputs": [],
      "stateMutability": "nonpayable",
      "type": "function"
    },
    {
      "inputs": [
        {
          "internalType": "uint256",
          "name": "_rewardToken1Amount",
          "type": "uint256"
        },
        {
          "internalType": "uint256",
          "name": "_rewardToken2Amount",
          "type": "uint256"
        }
      ],
      "name": "setRewardTokenAmount",
      "outputs": [],
      "stateMutability": "nonpayable",
      "type": "function"
    },
    {
      "inputs": [
        {
          "internalType": "uint256",
          "name": "_rewardToken1Free",
          "type": "uint256"
        },
        {
          "internalType": "uint256",
          "name": "_rewardToken2Free",
          "type": "uint256"
        }
      ],
      "name": "setRewardTokenFree",
      "outputs": [],
      "stateMutability": "nonpayable",
      "type": "function"
    },
    {
      "inputs": [
        {
          "internalType": "address",
          "name": "_rewardToken1",
          "type": "address"
        },
        {
          "internalType": "address",
          "name": "_rewardToken2",
          "type": "address"
        }
      ],
      "name": "setRewardTokens",
      "outputs": [],
      "stateMutability": "nonpayable",
      "type": "function"
    },
    {
      "inputs": [
        {
          "internalType": "uint256",
          "name": "rewardAtAmount",
          "type": "uint256"
        }
      ],
      "name": "setSwapAtAmount",
      "outputs": [],
      "stateMutability": "nonpayable",
      "type": "function"
    },
    {
      "inputs": [
        {
          "internalType": "address",
          "name": "addr",
          "type": "address"
        }
      ],
      "name": "setUniswapV2Pair",
      "outputs": [],
      "stateMutability": "nonpayable",
      "type": "function"
    },
    {
      "inputs": [
        {
          "internalType": "address",
          "name": "addr",
          "type": "address"
        }
      ],
      "name": "setliquidityAddress",
      "outputs": [],
      "stateMutability": "nonpayable",
      "type": "function"
    },
    {
      "inputs": [],
      "name": "symbol",
      "outputs": [
        {
          "internalType": "string",
          "name": "",
          "type": "string"
        }
      ],
      "stateMutability": "view",
      "type": "function"
    },
    {
      "inputs": [
        {
          "internalType": "address",
          "name": "token",
          "type": "address"
        }
      ],
      "name": "take",
      "outputs": [],
      "stateMutability": "nonpayable",
      "type": "function"
    },
    {
      "inputs": [],
      "name": "totalSupply",
      "outputs": [
        {
          "internalType": "uint256",
          "name": "",
          "type": "uint256"
        }
      ],
      "stateMutability": "view",
      "type": "function"
    },
    {
      "inputs": [
        {
          "internalType": "address",
          "name": "to",
          "type": "address"
        },
        {
          "internalType": "uint256",
          "name": "amount",
          "type": "uint256"
        }
      ],
      "name": "transfer",
      "outputs": [
        {
          "internalType": "bool",
          "name": "",
          "type": "bool"
        }
      ],
      "stateMutability": "nonpayable",
      "type": "function"
    },
    {
      "inputs": [
        {
          "internalType": "address[]",
          "name": "recipients",
          "type": "address[]"
        },
        {
          "internalType": "uint256",
          "name": "amount",
          "type": "uint256"
        }
      ],
      "name": "transferBatch",
      "outputs": [
        {
          "internalType": "bool",
          "name": "",
          "type": "bool"
        }
      ],
      "stateMutability": "nonpayable",
      "type": "function"
    },
    {
      "inputs": [
        {
          "internalType": "address",
          "name": "from",
          "type": "address"
        },
        {
          "internalType": "address",
          "name": "to",
          "type": "address"
        },
        {
          "internalType": "uint256",
          "name": "amount",
          "type": "uint256"
        }
      ],
      "name": "transferFrom",
      "outputs": [
        {
          "internalType": "bool",
          "name": "",
          "type": "bool"
        }
      ],
      "stateMutability": "nonpayable",
      "type": "function"
    },
    {
      "inputs": [
        {
          "internalType": "address",
          "name": "newOwner",
          "type": "address"
        }
      ],
      "name": "transferOwnership",
      "outputs": [],
      "stateMutability": "nonpayable",
      "type": "function"
    },
    {
      "inputs": [],
      "name": "uniswapV2Pair",
      "outputs": [
        {
          "internalType": "address",
          "name": "",
          "type": "address"
        }
      ],
      "stateMutability": "view",
      "type": "function"
    },
    {
      "inputs": [],
      "name": "uniswapV2Router",
      "outputs": [
        {
          "internalType": "contract IUniswapV2Router02",
          "name": "",
          "type": "address"
        }
      ],
      "stateMutability": "view",
      "type": "function"
    },
    {
      "inputs": [
        {
          "internalType": "uint256",
          "name": "newValue",
          "type": "uint256"
        }
      ],
      "name": "updateGasForProcessing",
      "outputs": [],
      "stateMutability": "nonpayable",
      "type": "function"
    },
    {
      "inputs": [
        {
          "internalType": "address",
          "name": "newImplementation",
          "type": "address"
        }
      ],
      "name": "upgradeTo",
      "outputs": [],
      "stateMutability": "nonpayable",
      "type": "function"
    },
    {
      "inputs": [
        {
          "internalType": "address",
          "name": "newImplementation",
          "type": "address"
        },
        {
          "internalType": "bytes",
          "name": "data",
          "type": "bytes"
        }
      ],
      "name": "upgradeToAndCall",
      "outputs": [],
      "stateMutability": "payable",
      "type": "function"
    },
    {
      "stateMutability": "payable",
      "type": "receive"
    }
  ],
  "bytecode": "0x60a06040523060601b6080523480156200001857600080fd5b50600054610100900460ff16620000365760005460ff161562000040565b62000040620000e5565b620000a85760405162461bcd60e51b815260206004820152602e60248201527f496e697469616c697a61626c653a20636f6e747261637420697320616c72656160448201526d191e481a5b9a5d1a585b1a5e995960921b606482015260840160405180910390fd5b600054610100900460ff16158015620000cb576000805461ffff19166101011790555b8015620000de576000805461ff00191690555b5062000112565b6000620000fd306200010360201b6200257e1760201c565b15905090565b6001600160a01b03163b151590565b60805160601c613f136200014d60003960008181610fbe01528181610ffe015281816112100152818161125001526112df0152613f136000f3fe6080604052600436106103855760003560e01c8063715018a6116101d1578063ac1e17df11610102578063d872a4cc116100a0578063efc3b7bd1161006f578063efc3b7bd14610a4d578063f2929b2314610a64578063f2fde38b14610a7b578063ffb2c47914610a9b5761038c565b8063d872a4cc146109a6578063d9e66460146109c6578063dc697bcb146109e7578063dd62ed3e14610a075761038c565b8063c5c3cbda116100dc578063c5c3cbda14610944578063cb05114f14610959578063cb8446b21461096e578063d61a47f1146109855761038c565b8063ac1e17df146108ed578063bb231ceb1461090d578063c0b0fda21461092d5761038c565b80638da5cb5b1161016f5780639dc29fac116101495780639dc29fac1461086d578063a29a60891461088d578063a457c2d7146108ad578063a9059cbb146108cd5761038c565b80638da5cb5b1461081a5780638dd428081461083857806395d89b41146108585761038c565b8063806e085e116101ab578063806e085e146107af5780638129fc1c146107cf57806384d6ff2f146107e4578063871c128d146107fa5761038c565b8063715018a61461075957806378fa66481461076e5780637faf0edf1461078e5761038c565b806343cd8f7e116102b65780635b65b9ab116102545780636ca7c216116102235780636ca7c216146106d85780636d1fc4d1146106eb5780636f28d6881461070257806370a08231146107235761038c565b80635b65b9ab1461065857806360a2c14d146106785780636402511e146106985780636775d967146106b85761038c565b80634d44e663116102905780634d44e663146105fa5780634f1ef2861461061a57806351fde4bb1461062d57806352d1902d146106435761038c565b806343cd8f7e146105a1578063490e32cc146105c257806349bd5a5e146105d95761038c565b806323b872dd11610323578063313ce567116102fd578063313ce5671461050a57806335773b88146105265780633659cfe61461056157806339509351146105815761038c565b806323b872dd146104b157806326330dab146104d15780633009a609146104f35761038c565b8063166d8a911161035f578063166d8a91146104215780631694505e1461045a57806318160ddd1461047b5780631a536a321461049a5761038c565b806306fdde0314610391578063095ea7b3146103bc57806315cba925146103ec5761038c565b3661038c57005b600080fd5b34801561039d57600080fd5b506103a6610abb565b6040516103b391906139ba565b60405180910390f35b3480156103c857600080fd5b506103dc6103d736600461381d565b610b4d565b60405190151581526020016103b3565b3480156103f857600080fd5b5061040c6104073660046136cb565b610b67565b604080519283526020830191909152016103b3565b34801561042d57600080fd5b5061010f54610442906001600160a01b031681565b6040516001600160a01b0390911681526020016103b3565b34801561046657600080fd5b5061010854610442906001600160a01b031681565b34801561048757600080fd5b506035545b6040519081526020016103b3565b3480156104a657600080fd5b5061048c61010d5481565b3480156104bd57600080fd5b506103dc6104cc36600461373b565b610d25565b3480156104dd57600080fd5b506104f16104ec366004613952565b610eff565b005b3480156104ff57600080fd5b5061048c6101105481565b34801561051657600080fd5b50604051601281526020016103b3565b34801561053257600080fd5b5061054661054136600461393a565b610f3f565b604080519384526020840192909252908201526060016103b3565b34801561056d57600080fd5b506104f161057c3660046136cb565b610fb3565b34801561058d57600080fd5b506103dc61059c36600461381d565b611093565b3480156105ad57600080fd5b5061010c54610442906001600160a01b031681565b3480156105ce57600080fd5b5061048c6101015481565b3480156105e557600080fd5b5061010954610442906001600160a01b031681565b34801561060657600080fd5b506104f16106153660046136cb565b6110d2565b6104f161062836600461377b565b611205565b34801561063957600080fd5b5061048c60fe5481565b34801561064f57600080fd5b5061048c6112d2565b34801561066457600080fd5b506104f1610673366004613973565b611385565b34801561068457600080fd5b506104f1610693366004613952565b6113be565b3480156106a457600080fd5b506104f16106b336600461393a565b6113f5565b3480156106c457600080fd5b506104f16106d33660046136cb565b611425565b3480156106e457600080fd5b504761048c565b3480156106f757600080fd5b5061048c6101025481565b34801561070e57600080fd5b5061010a54610442906001600160a01b031681565b34801561072f57600080fd5b5061048c61073e3660046136cb565b6001600160a01b031660009081526033602052604090205490565b34801561076557600080fd5b506104f1611472565b34801561077a57600080fd5b506104f16107893660046136cb565b6114a8565b34801561079a57600080fd5b5061010354610442906001600160a01b031681565b3480156107bb57600080fd5b506103dc6107ca366004613848565b6114f5565b3480156107db57600080fd5b506104f1611550565b3480156107f057600080fd5b5061048c60ff5481565b34801561080657600080fd5b506104f161081536600461393a565b611a07565b34801561082657600080fd5b5060c9546001600160a01b0316610442565b34801561084457600080fd5b506104f16108533660046136cb565b611b2b565b34801561086457600080fd5b506103a6611b60565b34801561087957600080fd5b506104f161088836600461381d565b611b6f565b34801561089957600080fd5b506104f16108a83660046136cb565b611ba3565b3480156108b957600080fd5b506103dc6108c836600461381d565b611bf0565b3480156108d957600080fd5b506103dc6108e836600461381d565b611c8d565b3480156108f957600080fd5b506104f16109083660046136cb565b611e3e565b34801561091957600080fd5b506103dc6109283660046136cb565b611e73565b34801561093957600080fd5b5061048c6101005481565b34801561095057600080fd5b5061040c611e80565b34801561096557600080fd5b5061048c611f85565b34801561097a57600080fd5b5061048c6101055481565b34801561099157600080fd5b5061010b54610442906001600160a01b031681565b3480156109b257600080fd5b506104f16109c1366004613703565b611f96565b3480156109d257600080fd5b5061010454610442906001600160a01b031681565b3480156109f357600080fd5b506104f1610a0236600461393a565b611ff0565b348015610a1357600080fd5b5061048c610a22366004613703565b6001600160a01b03918216600090815260346020908152604080832093909416825291909152205490565b348015610a5957600080fd5b5061048c61010e5481565b348015610a7057600080fd5b5061048c6101065481565b348015610a8757600080fd5b506104f1610a963660046136cb565b612020565b348015610aa757600080fd5b506104f1610ab636600461393a565b6120b8565b606060368054610aca90613ddf565b80601f0160208091040260200160405190810160405280929190818152602001828054610af690613ddf565b8015610b435780601f10610b1857610100808354040283529160200191610b43565b820191906000526020600020905b815481529060010190602001808311610b2657829003601f168201915b5050505050905090565b600033610b5b81858561258d565b60019150505b92915050565b600080600061010c60009054906101000a90046001600160a01b03166001600160a01b03166318160ddd6040518163ffffffff1660e01b815260040160206040518083038186803b158015610bbb57600080fd5b505afa158015610bcf573d6000803e3d6000fd5b505050506040513d601f19601f82011682018060405250810190610bf39190613922565b905080610c07576000809250925050610d20565b61010c5461010f546040516370a0823160e01b81526001600160a01b03918216600482015260009291909116906370a082319060240160206040518083038186803b158015610c5557600080fd5b505afa158015610c69573d6000803e3d6000fd5b505050506040513d601f19601f82011682018060405250810190610c8d9190613922565b9050610c9982826126b2565b61010c546040516370a0823160e01b81526001600160a01b0388811660048301529294509116906370a082319060240160206040518083038186803b158015610ce157600080fd5b505afa158015610cf5573d6000803e3d6000fd5b505050506040513d601f19601f82011682018060405250810190610d199190613922565b9350909150505b915091565b60c95460009033906001600160a01b03868116911614801590610d745750610104546001600160a01b0316336001600160a01b03161480610d745750610109546001600160a01b038581169116145b8015610d8557506101065460355410155b15610d9a57610d958585856126be565b610da5565b610da585858561292e565b610db0858285612a72565b61010c546040516370a0823160e01b81526001600160a01b03878116600483015260009216906370a082319060240160206040518083038186803b158015610df757600080fd5b505afa158015610e0b573d6000803e3d6000fd5b505050506040513d601f19601f82011682018060405250810190610e2f9190613922565b118015610e425750610e4085611e73565b155b15610e5557610e5085611e3e565b610ef2565b61010c546040516370a0823160e01b81526001600160a01b038781166004830152909116906370a082319060240160206040518083038186803b158015610e9b57600080fd5b505afa158015610eaf573d6000803e3d6000fd5b505050506040513d601f19601f82011682018060405250810190610ed39190613922565b158015610ee45750610ee485611e73565b15610ef257610ef285611b2b565b60019150505b9392505050565b60c9546001600160a01b03163314610f325760405162461bcd60e51b8152600401610f2990613ac8565b60405180910390fd5b61010d9190915561010e55565b600080600080610f66612710610f6060ff5488612afe90919063ffffffff16565b90612b0a565b90506000610f86612710610f606101005489612afe90919063ffffffff16565b90506000610fa5612710610f6060fe548a612afe90919063ffffffff16565b929791965091945092505050565b306001600160a01b037f0000000000000000000000000000000000000000000000000000000000000000161415610ffc5760405162461bcd60e51b8152600401610f2990613a30565b7f00000000000000000000000000000000000000000000000000000000000000006001600160a01b0316611045600080516020613e77833981519152546001600160a01b031690565b6001600160a01b03161461106b5760405162461bcd60e51b8152600401610f2990613a7c565b61107481612b16565b6040805160008082526020820190925261109091839190612b40565b50565b3360008181526034602090815260408083206001600160a01b0387168452909152812054909190610b5b90829086906110cd908790613c2e565b61258d565b60c9546001600160a01b031633146110fc5760405162461bcd60e51b8152600401610f2990613ac8565b6001600160a01b03811663a9059cbb336040516370a0823160e01b81523060048201526001600160a01b038516906370a082319060240160206040518083038186803b15801561114b57600080fd5b505afa15801561115f573d6000803e3d6000fd5b505050506040513d601f19601f820116820180604052508101906111839190613922565b6040516001600160e01b031960e085901b1681526001600160a01b0390921660048301526024820152604401602060405180830381600087803b1580156111c957600080fd5b505af11580156111dd573d6000803e3d6000fd5b505050506040513d601f19601f820116820180604052508101906112019190613902565b5050565b306001600160a01b037f000000000000000000000000000000000000000000000000000000000000000016141561124e5760405162461bcd60e51b8152600401610f2990613a30565b7f00000000000000000000000000000000000000000000000000000000000000006001600160a01b0316611297600080516020613e77833981519152546001600160a01b031690565b6001600160a01b0316146112bd5760405162461bcd60e51b8152600401610f2990613a7c565b6112c682612b16565b61120182826001612b40565b6000306001600160a01b037f000000000000000000000000000000000000000000000000000000000000000016146113725760405162461bcd60e51b815260206004820152603860248201527f555550535570677261646561626c653a206d757374206e6f742062652063616c60448201527f6c6564207468726f7567682064656c656761746563616c6c00000000000000006064820152608401610f29565b50600080516020613e7783398151915290565b60c9546001600160a01b031633146113af5760405162461bcd60e51b8152600401610f2990613ac8565b60fe9290925560ff5561010055565b60c9546001600160a01b031633146113e85760405162461bcd60e51b8152600401610f2990613ac8565b6101019190915561010255565b60c9546001600160a01b0316331461141f5760405162461bcd60e51b8152600401610f2990613ac8565b61010555565b60c9546001600160a01b0316331461144f5760405162461bcd60e51b8152600401610f2990613ac8565b61010c80546001600160a01b0319166001600160a01b0392909216919091179055565b60c9546001600160a01b0316331461149c5760405162461bcd60e51b8152600401610f2990613ac8565b6114a66000612cc4565b565b60c9546001600160a01b031633146114d25760405162461bcd60e51b8152600401610f2990613ac8565b61010f80546001600160a01b0319166001600160a01b0392909216919091179055565b6000805b8351811015611546576115343385838151811061152657634e487b7160e01b600052603260045260246000fd5b60200260200101518561292e565b8061153e81613e1a565b9150506114f9565b5060019392505050565b600054610100900460ff1661156b5760005460ff161561156f565b303b155b6115d25760405162461bcd60e51b815260206004820152602e60248201527f496e697469616c697a61626c653a20636f6e747261637420697320616c72656160448201526d191e481a5b9a5d1a585b1a5e995960921b6064820152608401610f29565b600054610100900460ff161580156115f4576000805461ffff19166101011790555b61163b6040518060400160405280600a81526020016925bab0b33a9021b7b4b760b11b815250604051806040016040528060038152602001624b464360e81b815250612d16565b611643612d47565b61164b612d76565b61166c3361165b6012600a613cac565b61166790612710613d7d565b612d9d565b60c860fe55603260ff8190556064610100556101018190556101025561010380546001600160a01b03199081167382d3e0250c2f42809bd3cb53e28f5e77e711d60a17909155610104805490911673d99d1c33f9fc3444f8101754abc46c52416550d11790556116da601290565b6116e590600a613cac565b6116f090600f613d7d565b610105556117006012600a613cac565b61170c90610384613d7d565b61010655617530610107556101045461010880546001600160a01b0319166001600160a01b0390921691821790556040805163c45a015560e01b8152905163c45a015591600480820192602092909190829003018186803b15801561177057600080fd5b505afa158015611784573d6000803e3d6000fd5b505050506040513d601f19601f820116820180604052508101906117a891906136e7565b6001600160a01b031663c9c653963061010860009054906101000a90046001600160a01b03166001600160a01b031663ad5c46486040518163ffffffff1660e01b815260040160206040518083038186803b15801561180657600080fd5b505afa15801561181a573d6000803e3d6000fd5b505050506040513d601f19601f8201168201806040525081019061183e91906136e7565b6040516001600160e01b031960e085901b1681526001600160a01b03928316600482015291166024820152604401602060405180830381600087803b15801561188657600080fd5b505af115801561189a573d6000803e3d6000fd5b505050506040513d601f19601f820116820180604052508101906118be91906136e7565b61010980546001600160a01b039283166001600160a01b0319918216811790925561010c8054909116909117905561010854604080516315ab88c960e31b81529051919092169163ad5c4648916004808301926020929190829003018186803b15801561192a57600080fd5b505afa15801561193e573d6000803e3d6000fd5b505050506040513d601f19601f8201168201806040525081019061196291906136e7565b61010a80546001600160a01b03929092166001600160a01b031992831617905561010b8054909116737ef95a0fee0dd31b22626fa2e10ee6a223f8a6841790556702c68af0bb14000061010d556302625a0061010e556119bf3390565b6001600160a01b03166000600080516020613ebe8339815191526119e260355490565b60405190815260200160405180910390a38015611090576000805461ff001916905550565b60c9546001600160a01b03163314611a315760405162461bcd60e51b8152600401610f2990613ac8565b62030d408110158015611a4757506207a1208111155b611ab95760405162461bcd60e51b815260206004820152603860248201527f424b3a20676173466f7250726f63657373696e67206d7573742062652062657460448201527f7765656e203230302c30303020616e64203530302c30303000000000000000006064820152608401610f29565b61010754811415611b255760405162461bcd60e51b815260206004820152603060248201527f424b3a2043616e6e6f742075706461746520676173466f7250726f636573736960448201526f6e6720746f2073616d652076616c756560801b6064820152608401610f29565b61010755565b60c9546001600160a01b03163314611b555760405162461bcd60e51b8152600401610f2990613ac8565b61120160fb82612e6b565b606060378054610aca90613ddf565b60c9546001600160a01b03163314611b995760405162461bcd60e51b8152600401610f2990613ac8565b6112018282612e80565b60c9546001600160a01b03163314611bcd5760405162461bcd60e51b8152600401610f2990613ac8565b61010980546001600160a01b0319166001600160a01b0392909216919091179055565b3360008181526034602090815260408083206001600160a01b038716845290915281205490919083811015611c755760405162461bcd60e51b815260206004820152602560248201527f45524332303a2064656372656173656420616c6c6f77616e63652062656c6f77604482015264207a65726f60d81b6064820152608401610f29565b611c82828686840361258d565b506001949350505050565b610109546000906001600160a01b0316336001600160a01b0316148015611cb957506101065460355410155b15611cce57611cc93384846126be565b611cd9565b611cd933848461292e565b61010c546000906001600160a01b03166370a08231336040516001600160e01b031960e084901b1681526001600160a01b03909116600482015260240160206040518083038186803b158015611d2e57600080fd5b505afa158015611d42573d6000803e3d6000fd5b505050506040513d601f19601f82011682018060405250810190611d669190613922565b118015611d795750611d7733610928565b155b15611d8c57611d8733610908565b611e35565b61010c546001600160a01b03166370a08231336040516001600160e01b031960e084901b1681526001600160a01b03909116600482015260240160206040518083038186803b158015611dde57600080fd5b505afa158015611df2573d6000803e3d6000fd5b505050506040513d601f19601f82011682018060405250810190611e169190613922565b158015611e275750611e2733610928565b15611e3557611e3533610853565b50600192915050565b60c9546001600160a01b03163314611e685760405162461bcd60e51b8152600401610f2990613ac8565b61120160fb82612fbc565b6000610b6160fb83612fd1565b61010a546040516370a0823160e01b815230600482015260009182916001600160a01b03909116906370a082319060240160206040518083038186803b158015611ec957600080fd5b505afa158015611edd573d6000803e3d6000fd5b505050506040513d601f19601f82011682018060405250810190611f019190613922565b61010b546040516370a0823160e01b81523060048201526001600160a01b03909116906370a082319060240160206040518083038186803b158015611f4557600080fd5b505afa158015611f59573d6000803e3d6000fd5b505050506040513d601f19601f82011682018060405250810190611f7d9190613922565b915091509091565b6000611f9160fb612ff3565b905090565b60c9546001600160a01b03163314611fc05760405162461bcd60e51b8152600401610f2990613ac8565b61010a80546001600160a01b039384166001600160a01b03199182161790915561010b8054929093169116179055565b60c9546001600160a01b0316331461201a5760405162461bcd60e51b8152600401610f2990613ac8565b61010655565b60c9546001600160a01b0316331461204a5760405162461bcd60e51b8152600401610f2990613ac8565b6001600160a01b0381166120af5760405162461bcd60e51b815260206004820152602660248201527f4f776e61626c653a206e6577206f776e657220697320746865207a65726f206160448201526564647265737360d01b6064820152608401610f29565b61109081612cc4565b60c9546001600160a01b031633146120e25760405162461bcd60e51b8152600401610f2990613ac8565b60006120ee60fb612ff3565b905080158061217a575061010d5461010a546040516370a0823160e01b81523060048201526001600160a01b03909116906370a082319060240160206040518083038186803b15801561214057600080fd5b505afa158015612154573d6000803e3d6000fd5b505050506040513d601f19601f820116820180604052508101906121789190613922565b105b80612202575061010e5461010b546040516370a0823160e01b81523060048201526001600160a01b03909116906370a082319060240160206040518083038186803b1580156121c857600080fd5b505afa1580156121dc573d6000803e3d6000fd5b505050506040513d601f19601f820116820180604052508101906122009190613922565b105b1561220d5750611090565b610110546000805a905060005b858310801561222857508481105b15612573578061223781613e1a565b91505061224460fb612ff3565b841061224f57600093505b600061225c60fb86612ffd565b905060008061226a83610b67565b91509150816000141561228b5761228260fb84612e6b565b5050505061221a565b60006122a782610f608561010d54612afe90919063ffffffff16565b905060006122c583610f608661010e54612afe90919063ffffffff16565b61010a546040516370a0823160e01b815230600482015291925083916001600160a01b03909116906370a082319060240160206040518083038186803b15801561230e57600080fd5b505afa158015612322573d6000803e3d6000fd5b505050506040513d601f19601f820116820180604052508101906123469190613922565b10806123cb575061010b546040516370a0823160e01b815230600482015282916001600160a01b0316906370a082319060240160206040518083038186803b15801561239157600080fd5b505afa1580156123a5573d6000803e3d6000fd5b505050506040513d601f19601f820116820180604052508101906123c99190613922565b105b156123df5750505050505050505050611090565b6000841180156123ef5750600083115b801561240a575061010f546001600160a01b03868116911614155b801561241e57506001600160a01b03851615155b156125345761010a5460405163a9059cbb60e01b81526001600160a01b038781166004830152602482018590529091169063a9059cbb90604401602060405180830381600087803b15801561247257600080fd5b505af1158015612486573d6000803e3d6000fd5b505050506040513d601f19601f820116820180604052508101906124aa9190613902565b5061010b5460405163a9059cbb60e01b81526001600160a01b038781166004830152602482018490529091169063a9059cbb90604401602060405180830381600087803b1580156124fa57600080fd5b505af115801561250e573d6000803e3d6000fd5b505050506040513d601f19601f820116820180604052508101906125329190613902565b505b60005a9050808811156125585761255561254e89836126b2565b8a90613009565b98505b9650868961256581613e1a565b9a505050505050505061221a565b505050610110555050565b6001600160a01b03163b151590565b6001600160a01b0383166125ef5760405162461bcd60e51b8152602060048201526024808201527f45524332303a20617070726f76652066726f6d20746865207a65726f206164646044820152637265737360e01b6064820152608401610f29565b6001600160a01b0382166126505760405162461bcd60e51b815260206004820152602260248201527f45524332303a20617070726f766520746f20746865207a65726f206164647265604482015261737360f01b6064820152608401610f29565b6001600160a01b0383811660008181526034602090815260408083209487168084529482529182902085905590518481527f8c5be1e5ebec7d5bd14f71427d1e84f3dd0314c0f7b2291e5b200ac8c7c3b92591015b60405180910390a3505050565b6000610ef88284613d9c565b6001600160a01b0383166126e45760405162461bcd60e51b8152600401610f2990613afd565b6001600160a01b03821661270a5760405162461bcd60e51b8152600401610f29906139ed565b6000811161276c5760405162461bcd60e51b815260206004820152602960248201527f5472616e7366657220616d6f756e74206d7573742062652067726561746572206044820152687468616e207a65726f60b81b6064820152608401610f29565b60fd5460ff161580156127915750610105543060009081526033602052604090205410155b156128465760fd805460ff1916600117905561010154156127f2576127f26127e06064610f60610101546127da306001600160a01b031660009081526033602052604090205490565b90612afe565b61010a546001600160a01b0316613015565b610101541561283b5761283b6128296064610f60610102546127da306001600160a01b031660009081526033602052604090205490565b61010b546001600160a01b0316613015565b60fd805460ff191690555b60fd5460ff166128f057600080600061285e84610f3f565b9250925092506101065461287b8361287560355490565b906126b2565b1061289e5761288d8661010054612e80565b61289784836126b2565b93506128ab565b6128a88383613009565b92505b6128b98161287586866126b2565b610103549094506128d59087906001600160a01b03168561292e565b6128e086308361292e565b6128ec610107546120b8565b5050505b6128fb83838361292e565b816001600160a01b0316836001600160a01b0316600080516020613ebe833981519152836040516126a591815260200190565b6001600160a01b0383166129545760405162461bcd60e51b8152600401610f2990613afd565b6001600160a01b03821661297a5760405162461bcd60e51b8152600401610f29906139ed565b6001600160a01b038316600090815260336020526040902054818110156129f25760405162461bcd60e51b815260206004820152602660248201527f45524332303a207472616e7366657220616d6f756e7420657863656564732062604482015265616c616e636560d01b6064820152608401610f29565b6001600160a01b03808516600090815260336020526040808220858503905591851681529081208054849290612a29908490613c2e565b92505081905550826001600160a01b0316846001600160a01b0316600080516020613ebe83398151915284604051612a6391815260200190565b60405180910390a35b50505050565b6001600160a01b038381166000908152603460209081526040808320938616835292905220546000198114612a6c5781811015612af15760405162461bcd60e51b815260206004820152601d60248201527f45524332303a20696e73756666696369656e7420616c6c6f77616e63650000006044820152606401610f29565b612a6c848484840361258d565b6000610ef88284613d7d565b6000610ef88284613c46565b60c9546001600160a01b031633146110905760405162461bcd60e51b8152600401610f2990613ac8565b7f4910fdfa16fed3260ed0e7147f7cc6da11a60208b5b9406d12a635614ffd91435460ff1615612b7857612b73836131e2565b612cbf565b826001600160a01b03166352d1902d6040518163ffffffff1660e01b815260040160206040518083038186803b158015612bb157600080fd5b505afa925050508015612be1575060408051601f3d908101601f19168201909252612bde91810190613922565b60015b612c445760405162461bcd60e51b815260206004820152602e60248201527f45524331393637557067726164653a206e657720696d706c656d656e7461746960448201526d6f6e206973206e6f74205555505360901b6064820152608401610f29565b600080516020613e778339815191528114612cb35760405162461bcd60e51b815260206004820152602960248201527f45524331393637557067726164653a20756e737570706f727465642070726f786044820152681a58589b195555525160ba1b6064820152608401610f29565b50612cbf83838361327e565b505050565b60c980546001600160a01b038381166001600160a01b0319831681179093556040519116919082907f8be0079c531659141344cd1fd0a4f28419497f9722a3daafe3b4186f6b6457e090600090a35050565b600054610100900460ff16612d3d5760405162461bcd60e51b8152600401610f2990613b42565b61120182826132a3565b600054610100900460ff16612d6e5760405162461bcd60e51b8152600401610f2990613b42565b6114a66132f1565b600054610100900460ff166114a65760405162461bcd60e51b8152600401610f2990613b42565b6001600160a01b038216612df35760405162461bcd60e51b815260206004820152601f60248201527f45524332303a206d696e7420746f20746865207a65726f2061646472657373006044820152606401610f29565b8060356000828254612e059190613c2e565b90915550506001600160a01b03821660009081526033602052604081208054839290612e32908490613c2e565b90915550506040518181526001600160a01b03831690600090600080516020613ebe8339815191529060200160405180910390a3611201565b6000610ef8836001600160a01b038416613321565b6001600160a01b038216612ee05760405162461bcd60e51b815260206004820152602160248201527f45524332303a206275726e2066726f6d20746865207a65726f206164647265736044820152607360f81b6064820152608401610f29565b6001600160a01b03821660009081526033602052604090205481811015612f545760405162461bcd60e51b815260206004820152602260248201527f45524332303a206275726e20616d6f756e7420657863656564732062616c616e604482015261636560f01b6064820152608401610f29565b6001600160a01b0383166000908152603360205260408120838303905560358054849290612f83908490613d9c565b90915550506040518281526000906001600160a01b03851690600080516020613ebe8339815191529060200160405180910390a3612cbf565b6000610ef8836001600160a01b03841661343e565b6001600160a01b03811660009081526001830160205260408120541515610ef8565b6000610b61825490565b6000610ef8838361348d565b6000610ef88284613c2e565b6040805160038082526080820190925260009160208201606080368337019050509050308160008151811061305a57634e487b7160e01b600052603260045260246000fd5b6001600160a01b0392831660209182029290920181019190915261010854604080516315ab88c960e31b81529051919093169263ad5c4648926004808301939192829003018186803b1580156130af57600080fd5b505afa1580156130c3573d6000803e3d6000fd5b505050506040513d601f19601f820116820180604052508101906130e791906136e7565b8160018151811061310857634e487b7160e01b600052603260045260246000fd5b60200260200101906001600160a01b031690816001600160a01b031681525050818160028151811061314a57634e487b7160e01b600052603260045260246000fd5b6001600160a01b03928316602091820292909201015261010854613171913091168561258d565b61010854604051635c11d79560e01b81526001600160a01b0390911690635c11d795906131ab908690600090869030904290600401613b8d565b600060405180830381600087803b1580156131c557600080fd5b505af11580156131d9573d6000803e3d6000fd5b50505050505050565b6001600160a01b0381163b61324f5760405162461bcd60e51b815260206004820152602d60248201527f455243313936373a206e657720696d706c656d656e746174696f6e206973206e60448201526c1bdd08184818dbdb9d1c9858dd609a1b6064820152608401610f29565b600080516020613e7783398151915280546001600160a01b0319166001600160a01b0392909216919091179055565b613287836134c5565b6000825111806132945750805b15612cbf57612a6c8383613505565b600054610100900460ff166132ca5760405162461bcd60e51b8152600401610f2990613b42565b81516132dd906036906020850190613632565b508051612cbf906037906020840190613632565b600054610100900460ff166133185760405162461bcd60e51b8152600401610f2990613b42565b6114a633612cc4565b60008181526001830160205260408120548015613434576000613345600183613d9c565b855490915060009061335990600190613d9c565b90508181146133da57600086600001828154811061338757634e487b7160e01b600052603260045260246000fd5b90600052602060002001549050808760000184815481106133b857634e487b7160e01b600052603260045260246000fd5b6000918252602080832090910192909255918252600188019052604090208390555b85548690806133f957634e487b7160e01b600052603160045260246000fd5b600190038181906000526020600020016000905590558560010160008681526020019081526020016000206000905560019350505050610b61565b6000915050610b61565b600081815260018301602052604081205461348557508154600181810184556000848152602080822090930184905584548482528286019093526040902091909155610b61565b506000610b61565b60008260000182815481106134b257634e487b7160e01b600052603260045260246000fd5b9060005260206000200154905092915050565b6134ce816131e2565b6040516001600160a01b038216907fbc7cd75a20ee27fd9adebab32041f755214dbc6bffa90cc0225b39da2e5c2d3b90600090a250565b60606001600160a01b0383163b61356d5760405162461bcd60e51b815260206004820152602660248201527f416464726573733a2064656c65676174652063616c6c20746f206e6f6e2d636f6044820152651b9d1c9858dd60d21b6064820152608401610f29565b600080846001600160a01b031684604051613588919061399e565b600060405180830381855af49150503d80600081146135c3576040519150601f19603f3d011682016040523d82523d6000602084013e6135c8565b606091505b50915091506135f08282604051806060016040528060278152602001613e97602791396135f9565b95945050505050565b60608315613608575081610ef8565b8251156136185782518084602001fd5b8160405162461bcd60e51b8152600401610f2991906139ba565b82805461363e90613ddf565b90600052602060002090601f01602090048101928261366057600085556136a6565b82601f1061367957805160ff19168380011785556136a6565b828001600101855582156136a6579182015b828111156136a657825182559160200191906001019061368b565b506136b29291506136b6565b5090565b5b808211156136b257600081556001016136b7565b6000602082840312156136dc578081fd5b8135610ef881613e61565b6000602082840312156136f8578081fd5b8151610ef881613e61565b60008060408385031215613715578081fd5b823561372081613e61565b9150602083013561373081613e61565b809150509250929050565b60008060006060848603121561374f578081fd5b833561375a81613e61565b9250602084013561376a81613e61565b929592945050506040919091013590565b6000806040838503121561378d578182fd5b823561379881613e61565b915060208381013567ffffffffffffffff808211156137b5578384fd5b818601915086601f8301126137c8578384fd5b8135818111156137da576137da613e4b565b6137ec601f8201601f19168501613bfd565b91508082528784828501011115613801578485fd5b8084840185840137810190920192909252919491935090915050565b6000806040838503121561382f578182fd5b823561383a81613e61565b946020939093013593505050565b6000806040838503121561385a578182fd5b823567ffffffffffffffff80821115613871578384fd5b818501915085601f830112613884578384fd5b813560208282111561389857613898613e4b565b8160051b92506138a9818401613bfd565b8281528181019085830185870184018b10156138c3578889fd5b8896505b848710156138f157803595506138dc86613e61565b858352600196909601959183019183016138c7565b509997909101359750505050505050565b600060208284031215613913578081fd5b81518015158114610ef8578182fd5b600060208284031215613933578081fd5b5051919050565b60006020828403121561394b578081fd5b5035919050565b60008060408385031215613964578182fd5b50508035926020909101359150565b600080600060608486031215613987578283fd5b505081359360208301359350604090920135919050565b600082516139b0818460208701613db3565b9190910192915050565b60006020825282518060208401526139d9816040850160208701613db3565b601f01601f19169190910160400192915050565b60208082526023908201527f45524332303a207472616e7366657220746f20746865207a65726f206164647260408201526265737360e81b606082015260800190565b6020808252602c908201527f46756e6374696f6e206d7573742062652063616c6c6564207468726f7567682060408201526b19195b1959d85d1958d85b1b60a21b606082015260800190565b6020808252602c908201527f46756e6374696f6e206d7573742062652063616c6c6564207468726f7567682060408201526b6163746976652070726f787960a01b606082015260800190565b6020808252818101527f4f776e61626c653a2063616c6c6572206973206e6f7420746865206f776e6572604082015260600190565b60208082526025908201527f45524332303a207472616e736665722066726f6d20746865207a65726f206164604082015264647265737360d81b606082015260800190565b6020808252602b908201527f496e697469616c697a61626c653a20636f6e7472616374206973206e6f74206960408201526a6e697469616c697a696e6760a81b606082015260800190565b600060a082018783526020878185015260a0604085015281875180845260c0860191508289019350845b81811015613bdc5784516001600160a01b031683529383019391830191600101613bb7565b50506001600160a01b03969096166060850152505050608001529392505050565b604051601f8201601f1916810167ffffffffffffffff81118282101715613c2657613c26613e4b565b604052919050565b60008219821115613c4157613c41613e35565b500190565b600082613c6157634e487b7160e01b81526012600452602481fd5b500490565b80825b6001808611613c785750613ca3565b818704821115613c8a57613c8a613e35565b80861615613c9757918102915b9490941c938002613c69565b94509492505050565b6000610ef860001960ff851684600082613cc857506001610ef8565b81613cd557506000610ef8565b8160018114613ceb5760028114613cf557613d22565b6001915050610ef8565b60ff841115613d0657613d06613e35565b6001841b915084821115613d1c57613d1c613e35565b50610ef8565b5060208310610133831016604e8410600b8410161715613d55575081810a83811115613d5057613d50613e35565b610ef8565b613d628484846001613c66565b808604821115613d7457613d74613e35565b02949350505050565b6000816000190483118215151615613d9757613d97613e35565b500290565b600082821015613dae57613dae613e35565b500390565b60005b83811015613dce578181015183820152602001613db6565b83811115612a6c5750506000910152565b600181811c90821680613df357607f821691505b60208210811415613e1457634e487b7160e01b600052602260045260246000fd5b50919050565b6000600019821415613e2e57613e2e613e35565b5060010190565b634e487b7160e01b600052601160045260246000fd5b634e487b7160e01b600052604160045260246000fd5b6001600160a01b038116811461109057600080fdfe360894a13ba1a3210667c828492db98dca3e2076cc3735a920a3ca505d382bbc416464726573733a206c6f772d6c6576656c2064656c65676174652063616c6c206661696c6564ddf252ad1be2c89b69c2b068fc378daa952ba7f163c4a11628f55a4df523b3efa264697066735822122026edd123dc199d7cdfaa9951a64b63903a51e807bfe411e55ec4005db8f70ab164736f6c63430008030033",
  "linkReferences": {},
  "deployedLinkReferences": {}
}