{
  "_format": "hh-sol-artifact-1",
  "contractName": "AAA",
  "sourceName": "contracts/aaa.sol",
  "abi": [
    {
      "inputs": [],
      "stateMutability": "nonpayable",
      "type": "constructor"
    },
    {
      "anonymous": false,
      "inputs": [
        {
          "indexed": false,
          "internalType": "address",
          "name": "previousAdmin",
          "type": "address"
        },
        {
          "indexed": false,
          "internalType": "address",
          "name": "newAdmin",
          "type": "address"
        }
      ],
      "name": "AdminChanged",
      "type": "event"
    },
    {
      "anonymous": false,
      "inputs": [
        {
          "indexed": true,
          "internalType": "address",
          "name": "owner",
          "type": "address"
        },
        {
          "indexed": true,
          "internalType": "address",
          "name": "spender",
          "type": "address"
        },
        {
          "indexed": false,
          "internalType": "uint256",
          "name": "value",
          "type": "uint256"
        }
      ],
      "name": "Approval",
      "type": "event"
    },
    {
      "anonymous": false,
      "inputs": [
        {
          "indexed": true,
          "internalType": "address",
          "name": "beacon",
          "type": "address"
        }
      ],
      "name": "BeaconUpgraded",
      "type": "event"
    },
    {
      "anonymous": false,
      "inputs": [
        {
          "indexed": true,
          "internalType": "address",
          "name": "previousOwner",
          "type": "address"
        },
        {
          "indexed": true,
          "internalType": "address",
          "name": "newOwner",
          "type": "address"
        }
      ],
      "name": "OwnershipTransferred",
      "type": "event"
    },
    {
      "anonymous": false,
      "inputs": [
        {
          "indexed": true,
          "internalType": "address",
          "name": "from",
          "type": "address"
        },
        {
          "indexed": true,
          "internalType": "address",
          "name": "to",
          "type": "address"
        },
        {
          "indexed": false,
          "internalType": "uint256",
          "name": "value",
          "type": "uint256"
        }
      ],
      "name": "Transfer",
      "type": "event"
    },
    {
      "anonymous": false,
      "inputs": [
        {
          "indexed": true,
          "internalType": "address",
          "name": "implementation",
          "type": "address"
        }
      ],
      "name": "Upgraded",
      "type": "event"
    },
    {
      "inputs": [],
      "name": "_burnFee",
      "outputs": [
        {
          "internalType": "uint256",
          "name": "",
          "type": "uint256"
        }
      ],
      "stateMutability": "view",
      "type": "function"
    },
    {
      "inputs": [],
      "name": "_burnStopAtAmount",
      "outputs": [
        {
          "internalType": "uint256",
          "name": "",
          "type": "uint256"
        }
      ],
      "stateMutability": "view",
      "type": "function"
    },
    {
      "inputs": [
        {
          "internalType": "uint256",
          "name": "tAmount",
          "type": "uint256"
        }
      ],
      "name": "_getFeeValues",
      "outputs": [
        {
          "internalType": "uint256",
          "name": "",
          "type": "uint256"
        },
        {
          "internalType": "uint256",
          "name": "",
          "type": "uint256"
        },
        {
          "internalType": "uint256",
          "name": "",
          "type": "uint256"
        }
      ],
      "stateMutability": "view",
      "type": "function"
    },
    {
      "inputs": [],
      "name": "_marketAddress",
      "outputs": [
        {
          "internalType": "address",
          "name": "",
          "type": "address"
        }
      ],
      "stateMutability": "view",
      "type": "function"
    },
    {
      "inputs": [],
      "name": "_marketFee",
      "outputs": [
        {
          "internalType": "uint256",
          "name": "",
          "type": "uint256"
        }
      ],
      "stateMutability": "view",
      "type": "function"
    },
    {
      "inputs": [],
      "name": "_rewardFee",
      "outputs": [
        {
          "internalType": "uint256",
          "name": "",
          "type": "uint256"
        }
      ],
      "stateMutability": "view",
      "type": "function"
    },
    {
      "inputs": [],
      "name": "_routerAddress",
      "outputs": [
        {
          "internalType": "address",
          "name": "",
          "type": "address"
        }
      ],
      "stateMutability": "view",
      "type": "function"
    },
    {
      "inputs": [],
      "name": "_swapAtAmount",
      "outputs": [
        {
          "internalType": "uint256",
          "name": "",
          "type": "uint256"
        }
      ],
      "stateMutability": "view",
      "type": "function"
    },
    {
      "inputs": [
        {
          "internalType": "address",
          "name": "account",
          "type": "address"
        }
      ],
      "name": "addHolder",
      "outputs": [],
      "stateMutability": "nonpayable",
      "type": "function"
    },
    {
      "inputs": [
        {
          "internalType": "address",
          "name": "owner",
          "type": "address"
        },
        {
          "internalType": "address",
          "name": "spender",
          "type": "address"
        }
      ],
      "name": "allowance",
      "outputs": [
        {
          "internalType": "uint256",
          "name": "",
          "type": "uint256"
        }
      ],
      "stateMutability": "view",
      "type": "function"
    },
    {
      "inputs": [
        {
          "internalType": "address",
          "name": "spender",
          "type": "address"
        },
        {
          "internalType": "uint256",
          "name": "amount",
          "type": "uint256"
        }
      ],
      "name": "approve",
      "outputs": [
        {
          "internalType": "bool",
          "name": "",
          "type": "bool"
        }
      ],
      "stateMutability": "nonpayable",
      "type": "function"
    },
    {
      "inputs": [
        {
          "internalType": "address",
          "name": "account",
          "type": "address"
        }
      ],
      "name": "balanceOf",
      "outputs": [
        {
          "internalType": "uint256",
          "name": "",
          "type": "uint256"
        }
      ],
      "stateMutability": "view",
      "type": "function"
    },
    {
      "inputs": [],
      "name": "balanceOfRewad",
      "outputs": [
        {
          "internalType": "uint256",
          "name": "",
          "type": "uint256"
        },
        {
          "internalType": "uint256",
          "name": "",
          "type": "uint256"
        }
      ],
      "stateMutability": "view",
      "type": "function"
    },
    {
      "inputs": [
        {
          "internalType": "address",
          "name": "account",
          "type": "address"
        },
        {
          "internalType": "uint256",
          "name": "amount",
          "type": "uint256"
        }
      ],
      "name": "burn",
      "outputs": [],
      "stateMutability": "nonpayable",
      "type": "function"
    },
    {
      "inputs": [],
      "name": "decimals",
      "outputs": [
        {
          "internalType": "uint8",
          "name": "",
          "type": "uint8"
        }
      ],
      "stateMutability": "view",
      "type": "function"
    },
    {
      "inputs": [
        {
          "internalType": "address",
          "name": "spender",
          "type": "address"
        },
        {
          "internalType": "uint256",
          "name": "subtractedValue",
          "type": "uint256"
        }
      ],
      "name": "decreaseAllowance",
      "outputs": [
        {
          "internalType": "bool",
          "name": "",
          "type": "bool"
        }
      ],
      "stateMutability": "nonpayable",
      "type": "function"
    },
    {
      "inputs": [],
      "name": "excludeAddress",
      "outputs": [
        {
          "internalType": "address",
          "name": "",
          "type": "address"
        }
      ],
      "stateMutability": "view",
      "type": "function"
    },
    {
      "inputs": [
        {
          "internalType": "address",
          "name": "account",
          "type": "address"
        }
      ],
      "name": "getLiquidityValues",
      "outputs": [
        {
          "internalType": "uint256",
          "name": "",
          "type": "uint256"
        },
        {
          "internalType": "uint256",
          "name": "",
          "type": "uint256"
        }
      ],
      "stateMutability": "view",
      "type": "function"
    },
    {
      "inputs": [
        {
          "internalType": "address",
          "name": "spender",
          "type": "address"
        },
        {
          "internalType": "uint256",
          "name": "addedValue",
          "type": "uint256"
        }
      ],
      "name": "increaseAllowance",
      "outputs": [
        {
          "internalType": "bool",
          "name": "",
          "type": "bool"
        }
      ],
      "stateMutability": "nonpayable",
      "type": "function"
    },
    {
      "inputs": [],
      "name": "initialize",
      "outputs": [],
      "stateMutability": "nonpayable",
      "type": "function"
    },
    {
      "inputs": [
        {
          "internalType": "address",
          "name": "account",
          "type": "address"
        }
      ],
      "name": "isliquidityHolder",
      "outputs": [
        {
          "internalType": "bool",
          "name": "",
          "type": "bool"
        }
      ],
      "stateMutability": "view",
      "type": "function"
    },
    {
      "inputs": [],
      "name": "lastProcessedIndex",
      "outputs": [
        {
          "internalType": "uint256",
          "name": "",
          "type": "uint256"
        }
      ],
      "stateMutability": "view",
      "type": "function"
    },
    {
      "inputs": [],
      "name": "liquidityHolderIndexLength",
      "outputs": [
        {
          "internalType": "uint256",
          "name": "",
          "type": "uint256"
        }
      ],
      "stateMutability": "view",
      "type": "function"
    },
    {
      "inputs": [],
      "name": "liquidityToken",
      "outputs": [
        {
          "internalType": "contract IERC20Upgradeable",
          "name": "",
          "type": "address"
        }
      ],
      "stateMutability": "view",
      "type": "function"
    },
    {
      "inputs": [],
      "name": "name",
      "outputs": [
        {
          "internalType": "string",
          "name": "",
          "type": "string"
        }
      ],
      "stateMutability": "view",
      "type": "function"
    },
    {
      "inputs": [],
      "name": "owner",
      "outputs": [
        {
          "internalType": "address",
          "name": "",
          "type": "address"
        }
      ],
      "stateMutability": "view",
      "type": "function"
    },
    {
      "inputs": [
        {
          "internalType": "uint256",
          "name": "_gasLimit",
          "type": "uint256"
        }
      ],
      "name": "process",
      "outputs": [],
      "stateMutability": "nonpayable",
      "type": "function"
    },
    {
      "inputs": [],
      "name": "proxiableUUID",
      "outputs": [
        {
          "internalType": "bytes32",
          "name": "",
          "type": "bytes32"
        }
      ],
      "stateMutability": "view",
      "type": "function"
    },
    {
      "inputs": [
        {
          "internalType": "address",
          "name": "account",
          "type": "address"
        }
      ],
      "name": "removeHolder",
      "outputs": [],
      "stateMutability": "nonpayable",
      "type": "function"
    },
    {
      "inputs": [],
      "name": "renounceOwnership",
      "outputs": [],
      "stateMutability": "nonpayable",
      "type": "function"
    },
    {
      "inputs": [],
      "name": "rewardToken1",
      "outputs": [
        {
          "internalType": "contract IERC20Upgradeable",
          "name": "",
          "type": "address"
        }
      ],
      "stateMutability": "view",
      "type": "function"
    },
    {
      "inputs": [],
      "name": "rewardToken1Amount",
      "outputs": [
        {
          "internalType": "uint256",
          "name": "",
          "type": "uint256"
        }
      ],
      "stateMutability": "view",
      "type": "function"
    },
    {
      "inputs": [],
      "name": "rewardToken1Fee",
      "outputs": [
        {
          "internalType": "uint256",
          "name": "",
          "type": "uint256"
        }
      ],
      "stateMutability": "view",
      "type": "function"
    },
    {
      "inputs": [],
      "name": "rewardToken2",
      "outputs": [
        {
          "internalType": "contract IERC20Upgradeable",
          "name": "",
          "type": "address"
        }
      ],
      "stateMutability": "view",
      "type": "function"
    },
    {
      "inputs": [],
      "name": "rewardToken2Amount",
      "outputs": [
        {
          "internalType": "uint256",
          "name": "",
          "type": "uint256"
        }
      ],
      "stateMutability": "view",
      "type": "function"
    },
    {
      "inputs": [],
      "name": "rewardToken2Fee",
      "outputs": [
        {
          "internalType": "uint256",
          "name": "",
          "type": "uint256"
        }
      ],
      "stateMutability": "view",
      "type": "function"
    },
    {
      "inputs": [
        {
          "internalType": "uint256",
          "name": "burnStopAtAmount",
          "type": "uint256"
        }
      ],
      "name": "setBurnStopAtAmount",
      "outputs": [],
      "stateMutability": "nonpayable",
      "type": "function"
    },
    {
      "inputs": [
        {
          "internalType": "address",
          "name": "_account",
          "type": "address"
        }
      ],
      "name": "setExcludeAddress",
      "outputs": [],
      "stateMutability": "nonpayable",
      "type": "function"
    },
    {
      "inputs": [
        {
          "internalType": "uint256",
          "name": "rewardFee",
          "type": "uint256"
        },
        {
          "internalType": "uint256",
          "name": "burnFee",
          "type": "uint256"
        }
      ],
      "name": "setFee",
      "outputs": [],
      "stateMutability": "nonpayable",
      "type": "function"
    },
    {
      "inputs": [
        {
          "internalType": "uint256",
          "name": "_rewardToken1Amount",
          "type": "uint256"
        },
        {
          "internalType": "uint256",
          "name": "_rewardToken2Amount",
          "type": "uint256"
        }
      ],
      "name": "setRewardTokenAmount",
      "outputs": [],
      "stateMutability": "nonpayable",
      "type": "function"
    },
    {
      "inputs": [
        {
          "internalType": "uint256",
          "name": "_rewardToken1Free",
          "type": "uint256"
        },
        {
          "internalType": "uint256",
          "name": "_rewardToken2Free",
          "type": "uint256"
        }
      ],
      "name": "setRewardTokenFree",
      "outputs": [],
      "stateMutability": "nonpayable",
      "type": "function"
    },
    {
      "inputs": [
        {
          "internalType": "address",
          "name": "_rewardToken1",
          "type": "address"
        },
        {
          "internalType": "address",
          "name": "_rewardToken2",
          "type": "address"
        }
      ],
      "name": "setRewardTokens",
      "outputs": [],
      "stateMutability": "nonpayable",
      "type": "function"
    },
    {
      "inputs": [
        {
          "internalType": "uint256",
          "name": "rewardAtAmount",
          "type": "uint256"
        }
      ],
      "name": "setSwapAtAmount",
      "outputs": [],
      "stateMutability": "nonpayable",
      "type": "function"
    },
    {
      "inputs": [
        {
          "internalType": "address",
          "name": "addr",
          "type": "address"
        }
      ],
      "name": "setUniswapV2Pair",
      "outputs": [],
      "stateMutability": "nonpayable",
      "type": "function"
    },
    {
      "inputs": [
        {
          "internalType": "address",
          "name": "addr",
          "type": "address"
        }
      ],
      "name": "setliquidityAddress",
      "outputs": [],
      "stateMutability": "nonpayable",
      "type": "function"
    },
    {
      "inputs": [
        {
          "internalType": "uint256",
          "name": "tokenAmount",
          "type": "uint256"
        },
        {
          "internalType": "address",
          "name": "outToken",
          "type": "address"
        }
      ],
      "name": "swapTokensFor2Tokens",
      "outputs": [],
      "stateMutability": "nonpayable",
      "type": "function"
    },
    {
      "inputs": [
        {
          "internalType": "uint256",
          "name": "tokenAmount",
          "type": "uint256"
        },
        {
          "internalType": "address",
          "name": "outToken",
          "type": "address"
        }
      ],
      "name": "swapTokensFor3Tokens",
      "outputs": [],
      "stateMutability": "nonpayable",
      "type": "function"
    },
    {
      "inputs": [
        {
          "internalType": "uint256",
          "name": "tokenAmount",
          "type": "uint256"
        }
      ],
      "name": "swapTokensForEth",
      "outputs": [],
      "stateMutability": "nonpayable",
      "type": "function"
    },
    {
      "inputs": [],
      "name": "symbol",
      "outputs": [
        {
          "internalType": "string",
          "name": "",
          "type": "string"
        }
      ],
      "stateMutability": "view",
      "type": "function"
    },
    {
      "inputs": [
        {
          "internalType": "address",
          "name": "token",
          "type": "address"
        }
      ],
      "name": "take",
      "outputs": [],
      "stateMutability": "nonpayable",
      "type": "function"
    },
    {
      "inputs": [],
      "name": "totalSupply",
      "outputs": [
        {
          "internalType": "uint256",
          "name": "",
          "type": "uint256"
        }
      ],
      "stateMutability": "view",
      "type": "function"
    },
    {
      "inputs": [
        {
          "internalType": "address",
          "name": "to",
          "type": "address"
        },
        {
          "internalType": "uint256",
          "name": "amount",
          "type": "uint256"
        }
      ],
      "name": "transfer",
      "outputs": [
        {
          "internalType": "bool",
          "name": "",
          "type": "bool"
        }
      ],
      "stateMutability": "nonpayable",
      "type": "function"
    },
    {
      "inputs": [
        {
          "internalType": "address[]",
          "name": "recipients",
          "type": "address[]"
        },
        {
          "internalType": "uint256",
          "name": "amount",
          "type": "uint256"
        }
      ],
      "name": "transferBatch",
      "outputs": [
        {
          "internalType": "bool",
          "name": "",
          "type": "bool"
        }
      ],
      "stateMutability": "nonpayable",
      "type": "function"
    },
    {
      "inputs": [
        {
          "internalType": "address",
          "name": "from",
          "type": "address"
        },
        {
          "internalType": "address",
          "name": "to",
          "type": "address"
        },
        {
          "internalType": "uint256",
          "name": "amount",
          "type": "uint256"
        }
      ],
      "name": "transferFrom",
      "outputs": [
        {
          "internalType": "bool",
          "name": "",
          "type": "bool"
        }
      ],
      "stateMutability": "nonpayable",
      "type": "function"
    },
    {
      "inputs": [
        {
          "internalType": "address",
          "name": "newOwner",
          "type": "address"
        }
      ],
      "name": "transferOwnership",
      "outputs": [],
      "stateMutability": "nonpayable",
      "type": "function"
    },
    {
      "inputs": [],
      "name": "uniswapV2Pair",
      "outputs": [
        {
          "internalType": "address",
          "name": "",
          "type": "address"
        }
      ],
      "stateMutability": "view",
      "type": "function"
    },
    {
      "inputs": [],
      "name": "uniswapV2Router",
      "outputs": [
        {
          "internalType": "contract IUniswapV2Router02",
          "name": "",
          "type": "address"
        }
      ],
      "stateMutability": "view",
      "type": "function"
    },
    {
      "inputs": [
        {
          "internalType": "uint256",
          "name": "newValue",
          "type": "uint256"
        }
      ],
      "name": "updateGasForProcessing",
      "outputs": [],
      "stateMutability": "nonpayable",
      "type": "function"
    },
    {
      "inputs": [
        {
          "internalType": "address",
          "name": "newImplementation",
          "type": "address"
        }
      ],
      "name": "upgradeTo",
      "outputs": [],
      "stateMutability": "nonpayable",
      "type": "function"
    },
    {
      "inputs": [
        {
          "internalType": "address",
          "name": "newImplementation",
          "type": "address"
        },
        {
          "internalType": "bytes",
          "name": "data",
          "type": "bytes"
        }
      ],
      "name": "upgradeToAndCall",
      "outputs": [],
      "stateMutability": "payable",
      "type": "function"
    },
    {
      "stateMutability": "payable",
      "type": "receive"
    }
  ],
  "bytecode": "0x60a06040523060601b6080523480156200001857600080fd5b50600054610100900460ff16620000365760005460ff161562000040565b62000040620000e5565b620000a85760405162461bcd60e51b815260206004820152602e60248201527f496e697469616c697a61626c653a20636f6e747261637420697320616c72656160448201526d191e481a5b9a5d1a585b1a5e995960921b606482015260840160405180910390fd5b600054610100900460ff16158015620000cb576000805461ffff19166101011790555b8015620000de576000805461ff00191690555b5062000112565b6000620000fd306200010360201b6200287d1760201c565b15905090565b6001600160a01b03163b151590565b60805160601c613ffc6200014d6000396000818161105501528181611095015281816113c40152818161140401526114930152613ffc6000f3fe60806040526004361061039b5760003560e01c806378fa6648116101dc578063bb231ceb11610102578063d872a4cc116100a0578063efc3b7bd1161006f578063efc3b7bd14610ab0578063f2929b2314610ac7578063f2fde38b14610ade578063ffb2c47914610afe576103a2565b8063d872a4cc14610a09578063d9e6646014610a29578063dc697bcb14610a4a578063dd62ed3e14610a6a576103a2565b8063cb05114f116100dc578063cb05114f1461099c578063cb8446b2146109b1578063cc99498c146109c8578063d61a47f1146109e8576103a2565b8063bb231ceb14610950578063c0b0fda214610970578063c5c3cbda14610987576103a2565b80638dd428081161017a578063a457c2d711610149578063a457c2d7146108d0578063a9059cbb146108f0578063ac1e17df14610910578063b28805f414610930576103a2565b80638dd428081461085b57806395d89b411461087b5780639dc29fac14610890578063a29a6089146108b0576103a2565b80638129fc1c116101b65780638129fc1c146107f257806384d6ff2f14610807578063871c128d1461081d5780638da5cb5b1461083d576103a2565b806378fa6648146107915780637faf0edf146107b1578063806e085e146107d2576103a2565b806343cd8f7e116102c157806352f7c9881161025f5780636d1fc4d11161022e5780636d1fc4d11461070e5780636f28d6881461072557806370a0823114610746578063715018a61461077c576103a2565b806352f7c9881461068e57806360a2c14d146106ae5780636402511e146106ce5780636775d967146106ee576103a2565b80634d44e6631161029b5780634d44e663146106305780634f1ef2861461065057806351fde4bb1461066357806352d1902d14610679576103a2565b806343cd8f7e146105d7578063490e32cc146105f857806349bd5a5e1461060f576103a2565b806323b872dd1161033957806335773b881161030857806335773b881461053c5780633659cfe61461057757806339509351146105975780633bf20753146105b7576103a2565b806323b872dd146104c757806326330dab146104e75780633009a60914610509578063313ce56714610520576103a2565b8063166d8a9111610375578063166d8a91146104375780631694505e1461047057806318160ddd146104915780631a536a32146104b0576103a2565b806306fdde03146103a7578063095ea7b3146103d257806315cba92514610402576103a2565b366103a257005b600080fd5b3480156103b357600080fd5b506103bc610b1e565b6040516103c99190613b13565b60405180910390f35b3480156103de57600080fd5b506103f26103ed3660046138fe565b610bb0565b60405190151581526020016103c9565b34801561040e57600080fd5b5061042261041d3660046137ac565b610bca565b604080519283526020830191909152016103c9565b34801561044357600080fd5b5061010f54610458906001600160a01b031681565b6040516001600160a01b0390911681526020016103c9565b34801561047c57600080fd5b5061010854610458906001600160a01b031681565b34801561049d57600080fd5b506035545b6040519081526020016103c9565b3480156104bc57600080fd5b506104a261010d5481565b3480156104d357600080fd5b506103f26104e236600461381c565b610d88565b3480156104f357600080fd5b50610507610502366004613a57565b610fa0565b005b34801561051557600080fd5b506104a26101105481565b34801561052c57600080fd5b50604051601281526020016103c9565b34801561054857600080fd5b5061055c610557366004613a1b565b610fe0565b604080519384526020840192909252908201526060016103c9565b34801561058357600080fd5b506105076105923660046137ac565b61104a565b3480156105a357600080fd5b506103f26105b23660046138fe565b61112a565b3480156105c357600080fd5b506105076105d2366004613a33565b611169565b3480156105e357600080fd5b5061010c54610458906001600160a01b031681565b34801561060457600080fd5b506104a26101015481565b34801561061b57600080fd5b5061010954610458906001600160a01b031681565b34801561063c57600080fd5b5061050761064b3660046137ac565b611286565b61050761065e36600461385c565b6113b9565b34801561066f57600080fd5b506104a260fe5481565b34801561068557600080fd5b506104a2611486565b34801561069a57600080fd5b506105076106a9366004613a57565b611539565b3480156106ba57600080fd5b506105076106c9366004613a57565b61156f565b3480156106da57600080fd5b506105076106e9366004613a1b565b6115a6565b3480156106fa57600080fd5b506105076107093660046137ac565b6115d6565b34801561071a57600080fd5b506104a26101025481565b34801561073157600080fd5b5061010a54610458906001600160a01b031681565b34801561075257600080fd5b506104a26107613660046137ac565b6001600160a01b031660009081526033602052604090205490565b34801561078857600080fd5b50610507611623565b34801561079d57600080fd5b506105076107ac3660046137ac565b611659565b3480156107bd57600080fd5b5061010354610458906001600160a01b031681565b3480156107de57600080fd5b506103f26107ed366004613929565b6116a6565b3480156107fe57600080fd5b50610507611701565b34801561081357600080fd5b506104a260ff5481565b34801561082957600080fd5b50610507610838366004613a1b565b611b91565b34801561084957600080fd5b5060c9546001600160a01b0316610458565b34801561086757600080fd5b506105076108763660046137ac565b611cb5565b34801561088757600080fd5b506103bc611cea565b34801561089c57600080fd5b506105076108ab3660046138fe565b611cf9565b3480156108bc57600080fd5b506105076108cb3660046137ac565b611d2d565b3480156108dc57600080fd5b506103f26108eb3660046138fe565b611d7a565b3480156108fc57600080fd5b506103f261090b3660046138fe565b611e17565b34801561091c57600080fd5b5061050761092b3660046137ac565b612006565b34801561093c57600080fd5b5061050761094b366004613a1b565b61203b565b34801561095c57600080fd5b506103f261096b3660046137ac565b6121c3565b34801561097c57600080fd5b506104a26101005481565b34801561099357600080fd5b506104226121d0565b3480156109a857600080fd5b506104a2612259565b3480156109bd57600080fd5b506104a26101055481565b3480156109d457600080fd5b506105076109e3366004613a33565b61226a565b3480156109f457600080fd5b5061010b54610458906001600160a01b031681565b348015610a1557600080fd5b50610507610a243660046137e4565b612408565b348015610a3557600080fd5b5061010454610458906001600160a01b031681565b348015610a5657600080fd5b50610507610a65366004613a1b565b612462565b348015610a7657600080fd5b506104a2610a853660046137e4565b6001600160a01b03918216600090815260346020908152604080832093909416825291909152205490565b348015610abc57600080fd5b506104a261010e5481565b348015610ad357600080fd5b506104a26101065481565b348015610aea57600080fd5b50610507610af93660046137ac565b612492565b348015610b0a57600080fd5b50610507610b19366004613a1b565b61252a565b606060368054610b2d90613ec8565b80601f0160208091040260200160405190810160405280929190818152602001828054610b5990613ec8565b8015610ba65780601f10610b7b57610100808354040283529160200191610ba6565b820191906000526020600020905b815481529060010190602001808311610b8957829003601f168201915b5050505050905090565b600033610bbe81858561288c565b60019150505b92915050565b600080600061010c60009054906101000a90046001600160a01b03166001600160a01b03166318160ddd6040518163ffffffff1660e01b815260040160206040518083038186803b158015610c1e57600080fd5b505afa158015610c32573d6000803e3d6000fd5b505050506040513d601f19601f82011682018060405250810190610c569190613a03565b905080610c6a576000809250925050610d83565b61010c5461010f546040516370a0823160e01b81526001600160a01b03918216600482015260009291909116906370a082319060240160206040518083038186803b158015610cb857600080fd5b505afa158015610ccc573d6000803e3d6000fd5b505050506040513d601f19601f82011682018060405250810190610cf09190613a03565b9050610cfc82826129b0565b61010c546040516370a0823160e01b81526001600160a01b0388811660048301529294509116906370a082319060240160206040518083038186803b158015610d4457600080fd5b505afa158015610d58573d6000803e3d6000fd5b505050506040513d601f19601f82011682018060405250810190610d7c9190613a03565b9350909150505b915091565b6000610d9c60c9546001600160a01b031690565b6001600160a01b0316336001600160a01b031614610dc957610dbd836129bc565b610dc96101075461252a565b60c95433906001600160a01b03868116911614801590610e155750610104546001600160a01b0316336001600160a01b03161480610e155750610109546001600160a01b038581169116145b8015610e2657506101065460355410155b15610e3b57610e36858585612ac4565b610e46565b610e46858585612be1565b610e51858285612d25565b61010c546040516370a0823160e01b81526001600160a01b03878116600483015260009216906370a082319060240160206040518083038186803b158015610e9857600080fd5b505afa158015610eac573d6000803e3d6000fd5b505050506040513d601f19601f82011682018060405250810190610ed09190613a03565b118015610ee35750610ee1856121c3565b155b15610ef657610ef185612006565b610f93565b61010c546040516370a0823160e01b81526001600160a01b038781166004830152909116906370a082319060240160206040518083038186803b158015610f3c57600080fd5b505afa158015610f50573d6000803e3d6000fd5b505050506040513d601f19601f82011682018060405250810190610f749190613a03565b158015610f855750610f85856121c3565b15610f9357610f9385611cb5565b60019150505b9392505050565b60c9546001600160a01b03163314610fd35760405162461bcd60e51b8152600401610fca90613c21565b60405180910390fd5b61010d9190915561010e55565b6000806000806110086127106110026101005488612db190919063ffffffff16565b90612dbd565b905061101485826129b0565b9450600061103361271061100260fe5489612db190919063ffffffff16565b905061103f86826129b0565b969195509350915050565b306001600160a01b037f00000000000000000000000000000000000000000000000000000000000000001614156110935760405162461bcd60e51b8152600401610fca90613b89565b7f00000000000000000000000000000000000000000000000000000000000000006001600160a01b03166110dc600080516020613f60833981519152546001600160a01b031690565b6001600160a01b0316146111025760405162461bcd60e51b8152600401610fca90613bd5565b61110b81612dc9565b6040805160008082526020820190925261112791839190612df3565b50565b3360008181526034602090815260408083206001600160a01b0387168452909152812054909190610bbe9082908690611164908790613d17565b61288c565b60408051600280825260608201835260009260208301908036833701905050905030816000815181106111ac57634e487b7160e01b600052603260045260246000fd5b60200260200101906001600160a01b031690816001600160a01b03168152505081816001815181106111ee57634e487b7160e01b600052603260045260246000fd5b6001600160a01b03928316602091820292909201015261010854611215913091168561288c565b61010854604051635c11d79560e01b81526001600160a01b0390911690635c11d7959061124f908690600090869030904290600401613ad7565b600060405180830381600087803b15801561126957600080fd5b505af115801561127d573d6000803e3d6000fd5b50505050505050565b60c9546001600160a01b031633146112b05760405162461bcd60e51b8152600401610fca90613c21565b6001600160a01b03811663a9059cbb336040516370a0823160e01b81523060048201526001600160a01b038516906370a082319060240160206040518083038186803b1580156112ff57600080fd5b505afa158015611313573d6000803e3d6000fd5b505050506040513d601f19601f820116820180604052508101906113379190613a03565b6040516001600160e01b031960e085901b1681526001600160a01b0390921660048301526024820152604401602060405180830381600087803b15801561137d57600080fd5b505af1158015611391573d6000803e3d6000fd5b505050506040513d601f19601f820116820180604052508101906113b591906139e3565b5050565b306001600160a01b037f00000000000000000000000000000000000000000000000000000000000000001614156114025760405162461bcd60e51b8152600401610fca90613b89565b7f00000000000000000000000000000000000000000000000000000000000000006001600160a01b031661144b600080516020613f60833981519152546001600160a01b031690565b6001600160a01b0316146114715760405162461bcd60e51b8152600401610fca90613bd5565b61147a82612dc9565b6113b582826001612df3565b6000306001600160a01b037f000000000000000000000000000000000000000000000000000000000000000016146115265760405162461bcd60e51b815260206004820152603860248201527f555550535570677261646561626c653a206d757374206e6f742062652063616c60448201527f6c6564207468726f7567682064656c656761746563616c6c00000000000000006064820152608401610fca565b50600080516020613f6083398151915290565b60c9546001600160a01b031633146115635760405162461bcd60e51b8152600401610fca90613c21565b60fe9190915561010055565b60c9546001600160a01b031633146115995760405162461bcd60e51b8152600401610fca90613c21565b6101019190915561010255565b60c9546001600160a01b031633146115d05760405162461bcd60e51b8152600401610fca90613c21565b61010555565b60c9546001600160a01b031633146116005760405162461bcd60e51b8152600401610fca90613c21565b61010c80546001600160a01b0319166001600160a01b0392909216919091179055565b60c9546001600160a01b0316331461164d5760405162461bcd60e51b8152600401610fca90613c21565b6116576000612f72565b565b60c9546001600160a01b031633146116835760405162461bcd60e51b8152600401610fca90613c21565b61010f80546001600160a01b0319166001600160a01b0392909216919091179055565b6000805b83518110156116f7576116e5338583815181106116d757634e487b7160e01b600052603260045260246000fd5b602002602001015185612be1565b806116ef81613f03565b9150506116aa565b5060019392505050565b600054610100900460ff1661171c5760005460ff1615611720565b303b155b6117835760405162461bcd60e51b815260206004820152602e60248201527f496e697469616c697a61626c653a20636f6e747261637420697320616c72656160448201526d191e481a5b9a5d1a585b1a5e995960921b6064820152608401610fca565b600054610100900460ff161580156117a5576000805461ffff19166101011790555b6117ec6040518060400160405280600a81526020016925bab0b33a9021b7b4b760b11b815250604051806040016040528060038152602001624b464360e81b815250612fc4565b6117f4612ff5565b6117fc613024565b61181d3361180c6012600a613d95565b61181890612710613e66565b61304b565b61019060fe5560646101005560326101018190556101025561010480546001600160a01b03191673d99d1c33f9fc3444f8101754abc46c52416550d1179055611864601290565b61186f90600a613d95565b61187a90600f613e66565b6101055561188a6012600a613d95565b61189690610384613e66565b61010655617530610107556101045461010880546001600160a01b0319166001600160a01b0390921691821790556040805163c45a015560e01b8152905163c45a015591600480820192602092909190829003018186803b1580156118fa57600080fd5b505afa15801561190e573d6000803e3d6000fd5b505050506040513d601f19601f8201168201806040525081019061193291906137c8565b6001600160a01b031663c9c653963061010860009054906101000a90046001600160a01b03166001600160a01b031663ad5c46486040518163ffffffff1660e01b815260040160206040518083038186803b15801561199057600080fd5b505afa1580156119a4573d6000803e3d6000fd5b505050506040513d601f19601f820116820180604052508101906119c891906137c8565b6040516001600160e01b031960e085901b1681526001600160a01b03928316600482015291166024820152604401602060405180830381600087803b158015611a1057600080fd5b505af1158015611a24573d6000803e3d6000fd5b505050506040513d601f19601f82011682018060405250810190611a4891906137c8565b61010980546001600160a01b039283166001600160a01b0319918216811790925561010c8054909116909117905561010854604080516315ab88c960e31b81529051919092169163ad5c4648916004808301926020929190829003018186803b158015611ab457600080fd5b505afa158015611ac8573d6000803e3d6000fd5b505050506040513d601f19601f82011682018060405250810190611aec91906137c8565b61010a80546001600160a01b03929092166001600160a01b031992831617905561010b8054909116737ef95a0fee0dd31b22626fa2e10ee6a223f8a6841790556702c68af0bb14000061010d556302625a0061010e55611b493390565b6001600160a01b03166000600080516020613fa7833981519152611b6c60355490565b60405190815260200160405180910390a38015611127576000805461ff001916905550565b60c9546001600160a01b03163314611bbb5760405162461bcd60e51b8152600401610fca90613c21565b62030d408110158015611bd157506207a1208111155b611c435760405162461bcd60e51b815260206004820152603860248201527f424b3a20676173466f7250726f63657373696e67206d7573742062652062657460448201527f7765656e203230302c30303020616e64203530302c30303000000000000000006064820152608401610fca565b61010754811415611caf5760405162461bcd60e51b815260206004820152603060248201527f424b3a2043616e6e6f742075706461746520676173466f7250726f636573736960448201526f6e6720746f2073616d652076616c756560801b6064820152608401610fca565b61010755565b60c9546001600160a01b03163314611cdf5760405162461bcd60e51b8152600401610fca90613c21565b6113b560fb82613119565b606060378054610b2d90613ec8565b60c9546001600160a01b03163314611d235760405162461bcd60e51b8152600401610fca90613c21565b6113b5828261312e565b60c9546001600160a01b03163314611d575760405162461bcd60e51b8152600401610fca90613c21565b61010980546001600160a01b0319166001600160a01b0392909216919091179055565b3360008181526034602090815260408083206001600160a01b038716845290915281205490919083811015611dff5760405162461bcd60e51b815260206004820152602560248201527f45524332303a2064656372656173656420616c6c6f77616e63652062656c6f77604482015264207a65726f60d81b6064820152608401610fca565b611e0c828686840361288c565b506001949350505050565b6000611e2b60c9546001600160a01b031690565b6001600160a01b0316336001600160a01b031614611e5857611e4c836129bc565b611e586101075461252a565b610109546001600160a01b0316336001600160a01b0316148015611e8157506101065460355410155b15611e9657611e91338484612ac4565b611ea1565b611ea1338484612be1565b61010c546000906001600160a01b03166370a08231336040516001600160e01b031960e084901b1681526001600160a01b03909116600482015260240160206040518083038186803b158015611ef657600080fd5b505afa158015611f0a573d6000803e3d6000fd5b505050506040513d601f19601f82011682018060405250810190611f2e9190613a03565b118015611f415750611f3f3361096b565b155b15611f5457611f4f3361092b565b611ffd565b61010c546001600160a01b03166370a08231336040516001600160e01b031960e084901b1681526001600160a01b03909116600482015260240160206040518083038186803b158015611fa657600080fd5b505afa158015611fba573d6000803e3d6000fd5b505050506040513d601f19601f82011682018060405250810190611fde9190613a03565b158015611fef5750611fef3361096b565b15611ffd57611ffd33610876565b50600192915050565b60c9546001600160a01b031633146120305760405162461bcd60e51b8152600401610fca90613c21565b6113b560fb8261326a565b604080516002808252606082018352600092602083019080368337019050509050308160008151811061207e57634e487b7160e01b600052603260045260246000fd5b6001600160a01b0392831660209182029290920181019190915261010854604080516315ab88c960e31b81529051919093169263ad5c4648926004808301939192829003018186803b1580156120d357600080fd5b505afa1580156120e7573d6000803e3d6000fd5b505050506040513d601f19601f8201168201806040525081019061210b91906137c8565b8160018151811061212c57634e487b7160e01b600052603260045260246000fd5b6001600160a01b03928316602091820292909201015261010854612153913091168461288c565b6101085460405163791ac94760e01b81526001600160a01b039091169063791ac9479061218d908590600090869030904290600401613ad7565b600060405180830381600087803b1580156121a757600080fd5b505af11580156121bb573d6000803e3d6000fd5b505050505050565b6000610bc460fb8361327f565b61010b546040516370a0823160e01b8152306004820152600091829147916001600160a01b0316906370a082319060240160206040518083038186803b15801561221957600080fd5b505afa15801561222d573d6000803e3d6000fd5b505050506040513d601f19601f820116820180604052508101906122519190613a03565b915091509091565b600061226560fb6132a1565b905090565b604080516003808252608082019092526000916020820160608036833701905050905030816000815181106122af57634e487b7160e01b600052603260045260246000fd5b6001600160a01b0392831660209182029290920181019190915261010854604080516315ab88c960e31b81529051919093169263ad5c4648926004808301939192829003018186803b15801561230457600080fd5b505afa158015612318573d6000803e3d6000fd5b505050506040513d601f19601f8201168201806040525081019061233c91906137c8565b8160018151811061235d57634e487b7160e01b600052603260045260246000fd5b60200260200101906001600160a01b031690816001600160a01b031681525050818160028151811061239f57634e487b7160e01b600052603260045260246000fd5b6001600160a01b039283166020918202929092010152610108546123c6913091168561288c565b61010854604051635c11d79560e01b81526001600160a01b0390911690635c11d7959061124f90670de0b6b3a764000090600090869030904290600401613ad7565b60c9546001600160a01b031633146124325760405162461bcd60e51b8152600401610fca90613c21565b61010a80546001600160a01b039384166001600160a01b03199182161790915561010b8054929093169116179055565b60c9546001600160a01b0316331461248c5760405162461bcd60e51b8152600401610fca90613c21565b61010655565b60c9546001600160a01b031633146124bc5760405162461bcd60e51b8152600401610fca90613c21565b6001600160a01b0381166125215760405162461bcd60e51b815260206004820152602660248201527f4f776e61626c653a206e6577206f776e657220697320746865207a65726f206160448201526564647265737360d01b6064820152608401610fca565b61112781612f72565b600061253660fb6132a1565b9050801580612547575061010d5447105b806125cf575061010e5461010b546040516370a0823160e01b81523060048201526001600160a01b03909116906370a082319060240160206040518083038186803b15801561259557600080fd5b505afa1580156125a9573d6000803e3d6000fd5b505050506040513d601f19601f820116820180604052508101906125cd9190613a03565b105b156125da5750611127565b610110546000805a905060005b85831080156125f557508481105b15612872578061260481613f03565b91505061261160fb6132a1565b841061261c57600093505b600061262960fb866132ab565b905060008061263783610bca565b9150915081600014156126585761264f60fb84613119565b505050506125e7565b6000612674826110028561010d54612db190919063ffffffff16565b90506000612692836110028661010e54612db190919063ffffffff16565b90508147108061271b575061010b546040516370a0823160e01b815230600482015282916001600160a01b0316906370a082319060240160206040518083038186803b1580156126e157600080fd5b505afa1580156126f5573d6000803e3d6000fd5b505050506040513d601f19601f820116820180604052508101906127199190613a03565b105b1561272f5750505050505050505050611127565b60008411801561273f5750600083115b801561275a575061010f546001600160a01b03868116911614155b801561276e57506001600160a01b03851615155b15612833576040516001600160a01b0386169083156108fc029084906000818181858888f193505050501580156127a9573d6000803e3d6000fd5b5061010b5460405163a9059cbb60e01b81526001600160a01b038781166004830152602482018490529091169063a9059cbb90604401602060405180830381600087803b1580156127f957600080fd5b505af115801561280d573d6000803e3d6000fd5b505050506040513d601f19601f8201168201806040525081019061283191906139e3565b505b60005a9050808811156128575761285461284d89836129b0565b8a906132b7565b98505b9650868961286481613f03565b9a50505050505050506125e7565b505050610110555050565b6001600160a01b03163b151590565b6001600160a01b0383166128ee5760405162461bcd60e51b8152602060048201526024808201527f45524332303a20617070726f76652066726f6d20746865207a65726f206164646044820152637265737360e01b6064820152608401610fca565b6001600160a01b03821661294f5760405162461bcd60e51b815260206004820152602260248201527f45524332303a20617070726f766520746f20746865207a65726f206164647265604482015261737360f01b6064820152608401610fca565b6001600160a01b0383811660008181526034602090815260408083209487168084529482529182902085905590518481527f8c5be1e5ebec7d5bd14f71427d1e84f3dd0314c0f7b2291e5b200ac8c7c3b925910160405180910390a3505050565b6000610f998284613e85565b610109546001600160a01b038281169116148015906129de575060fd5460ff16155b80156129fc5750610105543060009081526033602052604090205410155b156111275760fd805460ff1916600117905561010154306000908152603360205260408120549091612a35916064916110029190612db1565b90506000612a6282612a5c306001600160a01b031660009081526033602052604090205490565b906129b0565b9050600061010154118015612a775750600082115b15612a8557612a858261203b565b600061010254118015612a985750600081115b15612ab55761010b54612ab59082906001600160a01b031661226a565b505060fd805460ff1916905550565b6001600160a01b038316612aea5760405162461bcd60e51b8152600401610fca90613c56565b6001600160a01b038216612b105760405162461bcd60e51b8152600401610fca90613b46565b60008111612b725760405162461bcd60e51b815260206004820152602960248201527f5472616e7366657220616d6f756e74206d7573742062652067726561746572206044820152687468616e207a65726f60b81b6064820152608401610fca565b60fd5460ff16612bd1576000806000612b8a84610fe0565b92509250925061010654612ba183612a5c60355490565b10612bb357612bb3866101005461312e565b612bbe863083612be1565b612bc9868685612be1565b505050612bdc565b612bdc838383612be1565b505050565b6001600160a01b038316612c075760405162461bcd60e51b8152600401610fca90613c56565b6001600160a01b038216612c2d5760405162461bcd60e51b8152600401610fca90613b46565b6001600160a01b03831660009081526033602052604090205481811015612ca55760405162461bcd60e51b815260206004820152602660248201527f45524332303a207472616e7366657220616d6f756e7420657863656564732062604482015265616c616e636560d01b6064820152608401610fca565b6001600160a01b03808516600090815260336020526040808220858503905591851681529081208054849290612cdc908490613d17565b92505081905550826001600160a01b0316846001600160a01b0316600080516020613fa783398151915284604051612d1691815260200190565b60405180910390a35b50505050565b6001600160a01b038381166000908152603460209081526040808320938616835292905220546000198114612d1f5781811015612da45760405162461bcd60e51b815260206004820152601d60248201527f45524332303a20696e73756666696369656e7420616c6c6f77616e63650000006044820152606401610fca565b612d1f848484840361288c565b6000610f998284613e66565b6000610f998284613d2f565b60c9546001600160a01b031633146111275760405162461bcd60e51b8152600401610fca90613c21565b7f4910fdfa16fed3260ed0e7147f7cc6da11a60208b5b9406d12a635614ffd91435460ff1615612e2b57612e26836132c3565b612bdc565b826001600160a01b03166352d1902d6040518163ffffffff1660e01b815260040160206040518083038186803b158015612e6457600080fd5b505afa925050508015612e94575060408051601f3d908101601f19168201909252612e9191810190613a03565b60015b612ef75760405162461bcd60e51b815260206004820152602e60248201527f45524331393637557067726164653a206e657720696d706c656d656e7461746960448201526d6f6e206973206e6f74205555505360901b6064820152608401610fca565b600080516020613f608339815191528114612f665760405162461bcd60e51b815260206004820152602960248201527f45524331393637557067726164653a20756e737570706f727465642070726f786044820152681a58589b195555525160ba1b6064820152608401610fca565b50612bdc83838361335f565b60c980546001600160a01b038381166001600160a01b0319831681179093556040519116919082907f8be0079c531659141344cd1fd0a4f28419497f9722a3daafe3b4186f6b6457e090600090a35050565b600054610100900460ff16612feb5760405162461bcd60e51b8152600401610fca90613c9b565b6113b58282613384565b600054610100900460ff1661301c5760405162461bcd60e51b8152600401610fca90613c9b565b6116576133d2565b600054610100900460ff166116575760405162461bcd60e51b8152600401610fca90613c9b565b6001600160a01b0382166130a15760405162461bcd60e51b815260206004820152601f60248201527f45524332303a206d696e7420746f20746865207a65726f2061646472657373006044820152606401610fca565b80603560008282546130b39190613d17565b90915550506001600160a01b038216600090815260336020526040812080548392906130e0908490613d17565b90915550506040518181526001600160a01b03831690600090600080516020613fa78339815191529060200160405180910390a36113b5565b6000610f99836001600160a01b038416613402565b6001600160a01b03821661318e5760405162461bcd60e51b815260206004820152602160248201527f45524332303a206275726e2066726f6d20746865207a65726f206164647265736044820152607360f81b6064820152608401610fca565b6001600160a01b038216600090815260336020526040902054818110156132025760405162461bcd60e51b815260206004820152602260248201527f45524332303a206275726e20616d6f756e7420657863656564732062616c616e604482015261636560f01b6064820152608401610fca565b6001600160a01b0383166000908152603360205260408120838303905560358054849290613231908490613e85565b90915550506040518281526000906001600160a01b03851690600080516020613fa78339815191529060200160405180910390a3612bdc565b6000610f99836001600160a01b03841661351f565b6001600160a01b03811660009081526001830160205260408120541515610f99565b6000610bc4825490565b6000610f99838361356e565b6000610f998284613d17565b6001600160a01b0381163b6133305760405162461bcd60e51b815260206004820152602d60248201527f455243313936373a206e657720696d706c656d656e746174696f6e206973206e60448201526c1bdd08184818dbdb9d1c9858dd609a1b6064820152608401610fca565b600080516020613f6083398151915280546001600160a01b0319166001600160a01b0392909216919091179055565b613368836135a6565b6000825111806133755750805b15612bdc57612d1f83836135e6565b600054610100900460ff166133ab5760405162461bcd60e51b8152600401610fca90613c9b565b81516133be906036906020850190613713565b508051612bdc906037906020840190613713565b600054610100900460ff166133f95760405162461bcd60e51b8152600401610fca90613c9b565b61165733612f72565b60008181526001830160205260408120548015613515576000613426600183613e85565b855490915060009061343a90600190613e85565b90508181146134bb57600086600001828154811061346857634e487b7160e01b600052603260045260246000fd5b906000526020600020015490508087600001848154811061349957634e487b7160e01b600052603260045260246000fd5b6000918252602080832090910192909255918252600188019052604090208390555b85548690806134da57634e487b7160e01b600052603160045260246000fd5b600190038181906000526020600020016000905590558560010160008681526020019081526020016000206000905560019350505050610bc4565b6000915050610bc4565b600081815260018301602052604081205461356657508154600181810184556000848152602080822090930184905584548482528286019093526040902091909155610bc4565b506000610bc4565b600082600001828154811061359357634e487b7160e01b600052603260045260246000fd5b9060005260206000200154905092915050565b6135af816132c3565b6040516001600160a01b038216907fbc7cd75a20ee27fd9adebab32041f755214dbc6bffa90cc0225b39da2e5c2d3b90600090a250565b60606001600160a01b0383163b61364e5760405162461bcd60e51b815260206004820152602660248201527f416464726573733a2064656c65676174652063616c6c20746f206e6f6e2d636f6044820152651b9d1c9858dd60d21b6064820152608401610fca565b600080846001600160a01b0316846040516136699190613abb565b600060405180830381855af49150503d80600081146136a4576040519150601f19603f3d011682016040523d82523d6000602084013e6136a9565b606091505b50915091506136d18282604051806060016040528060278152602001613f80602791396136da565b95945050505050565b606083156136e9575081610f99565b8251156136f95782518084602001fd5b8160405162461bcd60e51b8152600401610fca9190613b13565b82805461371f90613ec8565b90600052602060002090601f0160209004810192826137415760008555613787565b82601f1061375a57805160ff1916838001178555613787565b82800160010185558215613787579182015b8281111561378757825182559160200191906001019061376c565b50613793929150613797565b5090565b5b808211156137935760008155600101613798565b6000602082840312156137bd578081fd5b8135610f9981613f4a565b6000602082840312156137d9578081fd5b8151610f9981613f4a565b600080604083850312156137f6578081fd5b823561380181613f4a565b9150602083013561381181613f4a565b809150509250929050565b600080600060608486031215613830578081fd5b833561383b81613f4a565b9250602084013561384b81613f4a565b929592945050506040919091013590565b6000806040838503121561386e578182fd5b823561387981613f4a565b915060208381013567ffffffffffffffff80821115613896578384fd5b818601915086601f8301126138a9578384fd5b8135818111156138bb576138bb613f34565b6138cd601f8201601f19168501613ce6565b915080825287848285010111156138e2578485fd5b8084840185840137810190920192909252919491935090915050565b60008060408385031215613910578182fd5b823561391b81613f4a565b946020939093013593505050565b6000806040838503121561393b578182fd5b823567ffffffffffffffff80821115613952578384fd5b818501915085601f830112613965578384fd5b813560208282111561397957613979613f34565b8160051b925061398a818401613ce6565b8281528181019085830185870184018b10156139a4578889fd5b8896505b848710156139d257803595506139bd86613f4a565b858352600196909601959183019183016139a8565b509997909101359750505050505050565b6000602082840312156139f4578081fd5b81518015158114610f99578182fd5b600060208284031215613a14578081fd5b5051919050565b600060208284031215613a2c578081fd5b5035919050565b60008060408385031215613a45578182fd5b82359150602083013561381181613f4a565b60008060408385031215613a69578182fd5b50508035926020909101359150565b6000815180845260208085019450808401835b83811015613ab05781516001600160a01b031687529582019590820190600101613a8b565b509495945050505050565b60008251613acd818460208701613e9c565b9190910192915050565b600086825285602083015260a06040830152613af660a0830186613a78565b6001600160a01b0394909416606083015250608001529392505050565b6000602082528251806020840152613b32816040850160208701613e9c565b601f01601f19169190910160400192915050565b60208082526023908201527f45524332303a207472616e7366657220746f20746865207a65726f206164647260408201526265737360e81b606082015260800190565b6020808252602c908201527f46756e6374696f6e206d7573742062652063616c6c6564207468726f7567682060408201526b19195b1959d85d1958d85b1b60a21b606082015260800190565b6020808252602c908201527f46756e6374696f6e206d7573742062652063616c6c6564207468726f7567682060408201526b6163746976652070726f787960a01b606082015260800190565b6020808252818101527f4f776e61626c653a2063616c6c6572206973206e6f7420746865206f776e6572604082015260600190565b60208082526025908201527f45524332303a207472616e736665722066726f6d20746865207a65726f206164604082015264647265737360d81b606082015260800190565b6020808252602b908201527f496e697469616c697a61626c653a20636f6e7472616374206973206e6f74206960408201526a6e697469616c697a696e6760a81b606082015260800190565b604051601f8201601f1916810167ffffffffffffffff81118282101715613d0f57613d0f613f34565b604052919050565b60008219821115613d2a57613d2a613f1e565b500190565b600082613d4a57634e487b7160e01b81526012600452602481fd5b500490565b80825b6001808611613d615750613d8c565b818704821115613d7357613d73613f1e565b80861615613d8057918102915b9490941c938002613d52565b94509492505050565b6000610f9960001960ff851684600082613db157506001610f99565b81613dbe57506000610f99565b8160018114613dd45760028114613dde57613e0b565b6001915050610f99565b60ff841115613def57613def613f1e565b6001841b915084821115613e0557613e05613f1e565b50610f99565b5060208310610133831016604e8410600b8410161715613e3e575081810a83811115613e3957613e39613f1e565b610f99565b613e4b8484846001613d4f565b808604821115613e5d57613e5d613f1e565b02949350505050565b6000816000190483118215151615613e8057613e80613f1e565b500290565b600082821015613e9757613e97613f1e565b500390565b60005b83811015613eb7578181015183820152602001613e9f565b83811115612d1f5750506000910152565b600181811c90821680613edc57607f821691505b60208210811415613efd57634e487b7160e01b600052602260045260246000fd5b50919050565b6000600019821415613f1757613f17613f1e565b5060010190565b634e487b7160e01b600052601160045260246000fd5b634e487b7160e01b600052604160045260246000fd5b6001600160a01b038116811461112757600080fdfe360894a13ba1a3210667c828492db98dca3e2076cc3735a920a3ca505d382bbc416464726573733a206c6f772d6c6576656c2064656c65676174652063616c6c206661696c6564ddf252ad1be2c89b69c2b068fc378daa952ba7f163c4a11628f55a4df523b3efa2646970667358221220b2d95b55a57452b1ea13860efffcc802df3a7849d8ba925056090a4400f5afc464736f6c63430008030033",
  "linkReferences": {},
  "deployedLinkReferences": {}
}