{
  "_format": "hh-sol-artifact-1",
  "contractName": "AAA",
  "sourceName": "contracts/aaa.sol",
  "abi": [
    {
      "inputs": [],
      "stateMutability": "nonpayable",
      "type": "constructor"
    },
    {
      "anonymous": false,
      "inputs": [
        {
          "indexed": false,
          "internalType": "address",
          "name": "previousAdmin",
          "type": "address"
        },
        {
          "indexed": false,
          "internalType": "address",
          "name": "newAdmin",
          "type": "address"
        }
      ],
      "name": "AdminChanged",
      "type": "event"
    },
    {
      "anonymous": false,
      "inputs": [
        {
          "indexed": true,
          "internalType": "address",
          "name": "owner",
          "type": "address"
        },
        {
          "indexed": true,
          "internalType": "address",
          "name": "spender",
          "type": "address"
        },
        {
          "indexed": false,
          "internalType": "uint256",
          "name": "value",
          "type": "uint256"
        }
      ],
      "name": "Approval",
      "type": "event"
    },
    {
      "anonymous": false,
      "inputs": [
        {
          "indexed": true,
          "internalType": "address",
          "name": "beacon",
          "type": "address"
        }
      ],
      "name": "BeaconUpgraded",
      "type": "event"
    },
    {
      "anonymous": false,
      "inputs": [
        {
          "indexed": true,
          "internalType": "address",
          "name": "previousOwner",
          "type": "address"
        },
        {
          "indexed": true,
          "internalType": "address",
          "name": "newOwner",
          "type": "address"
        }
      ],
      "name": "OwnershipTransferred",
      "type": "event"
    },
    {
      "anonymous": false,
      "inputs": [
        {
          "indexed": true,
          "internalType": "address",
          "name": "from",
          "type": "address"
        },
        {
          "indexed": true,
          "internalType": "address",
          "name": "to",
          "type": "address"
        },
        {
          "indexed": false,
          "internalType": "uint256",
          "name": "value",
          "type": "uint256"
        }
      ],
      "name": "Transfer",
      "type": "event"
    },
    {
      "anonymous": false,
      "inputs": [
        {
          "indexed": true,
          "internalType": "address",
          "name": "implementation",
          "type": "address"
        }
      ],
      "name": "Upgraded",
      "type": "event"
    },
    {
      "inputs": [],
      "name": "_burnFee",
      "outputs": [
        {
          "internalType": "uint256",
          "name": "",
          "type": "uint256"
        }
      ],
      "stateMutability": "view",
      "type": "function"
    },
    {
      "inputs": [],
      "name": "_burnStopAtAmount",
      "outputs": [
        {
          "internalType": "uint256",
          "name": "",
          "type": "uint256"
        }
      ],
      "stateMutability": "view",
      "type": "function"
    },
    {
      "inputs": [
        {
          "internalType": "uint256",
          "name": "tAmount",
          "type": "uint256"
        }
      ],
      "name": "_getFeeValues",
      "outputs": [
        {
          "internalType": "uint256",
          "name": "",
          "type": "uint256"
        },
        {
          "internalType": "uint256",
          "name": "",
          "type": "uint256"
        },
        {
          "internalType": "uint256",
          "name": "",
          "type": "uint256"
        }
      ],
      "stateMutability": "view",
      "type": "function"
    },
    {
      "inputs": [],
      "name": "_marketAddress",
      "outputs": [
        {
          "internalType": "address",
          "name": "",
          "type": "address"
        }
      ],
      "stateMutability": "view",
      "type": "function"
    },
    {
      "inputs": [],
      "name": "_marketFee",
      "outputs": [
        {
          "internalType": "uint256",
          "name": "",
          "type": "uint256"
        }
      ],
      "stateMutability": "view",
      "type": "function"
    },
    {
      "inputs": [],
      "name": "_rewardFee",
      "outputs": [
        {
          "internalType": "uint256",
          "name": "",
          "type": "uint256"
        }
      ],
      "stateMutability": "view",
      "type": "function"
    },
    {
      "inputs": [],
      "name": "_routerAddress",
      "outputs": [
        {
          "internalType": "address",
          "name": "",
          "type": "address"
        }
      ],
      "stateMutability": "view",
      "type": "function"
    },
    {
      "inputs": [],
      "name": "_swapAtAmount",
      "outputs": [
        {
          "internalType": "uint256",
          "name": "",
          "type": "uint256"
        }
      ],
      "stateMutability": "view",
      "type": "function"
    },
    {
      "inputs": [
        {
          "internalType": "address",
          "name": "account",
          "type": "address"
        }
      ],
      "name": "addHolder",
      "outputs": [],
      "stateMutability": "nonpayable",
      "type": "function"
    },
    {
      "inputs": [
        {
          "internalType": "address",
          "name": "owner",
          "type": "address"
        },
        {
          "internalType": "address",
          "name": "spender",
          "type": "address"
        }
      ],
      "name": "allowance",
      "outputs": [
        {
          "internalType": "uint256",
          "name": "",
          "type": "uint256"
        }
      ],
      "stateMutability": "view",
      "type": "function"
    },
    {
      "inputs": [
        {
          "internalType": "address",
          "name": "spender",
          "type": "address"
        },
        {
          "internalType": "uint256",
          "name": "amount",
          "type": "uint256"
        }
      ],
      "name": "approve",
      "outputs": [
        {
          "internalType": "bool",
          "name": "",
          "type": "bool"
        }
      ],
      "stateMutability": "nonpayable",
      "type": "function"
    },
    {
      "inputs": [
        {
          "internalType": "address",
          "name": "account",
          "type": "address"
        }
      ],
      "name": "balanceOf",
      "outputs": [
        {
          "internalType": "uint256",
          "name": "",
          "type": "uint256"
        }
      ],
      "stateMutability": "view",
      "type": "function"
    },
    {
      "inputs": [],
      "name": "balanceOfRewad",
      "outputs": [
        {
          "internalType": "uint256",
          "name": "",
          "type": "uint256"
        },
        {
          "internalType": "uint256",
          "name": "",
          "type": "uint256"
        }
      ],
      "stateMutability": "view",
      "type": "function"
    },
    {
      "inputs": [
        {
          "internalType": "address",
          "name": "account",
          "type": "address"
        },
        {
          "internalType": "uint256",
          "name": "amount",
          "type": "uint256"
        }
      ],
      "name": "burn",
      "outputs": [],
      "stateMutability": "nonpayable",
      "type": "function"
    },
    {
      "inputs": [],
      "name": "decimals",
      "outputs": [
        {
          "internalType": "uint8",
          "name": "",
          "type": "uint8"
        }
      ],
      "stateMutability": "view",
      "type": "function"
    },
    {
      "inputs": [
        {
          "internalType": "address",
          "name": "spender",
          "type": "address"
        },
        {
          "internalType": "uint256",
          "name": "subtractedValue",
          "type": "uint256"
        }
      ],
      "name": "decreaseAllowance",
      "outputs": [
        {
          "internalType": "bool",
          "name": "",
          "type": "bool"
        }
      ],
      "stateMutability": "nonpayable",
      "type": "function"
    },
    {
      "inputs": [],
      "name": "excludeAddress",
      "outputs": [
        {
          "internalType": "address",
          "name": "",
          "type": "address"
        }
      ],
      "stateMutability": "view",
      "type": "function"
    },
    {
      "inputs": [
        {
          "internalType": "address",
          "name": "account",
          "type": "address"
        }
      ],
      "name": "getLiquidityValues",
      "outputs": [
        {
          "internalType": "uint256",
          "name": "",
          "type": "uint256"
        },
        {
          "internalType": "uint256",
          "name": "",
          "type": "uint256"
        }
      ],
      "stateMutability": "view",
      "type": "function"
    },
    {
      "inputs": [
        {
          "internalType": "address",
          "name": "spender",
          "type": "address"
        },
        {
          "internalType": "uint256",
          "name": "addedValue",
          "type": "uint256"
        }
      ],
      "name": "increaseAllowance",
      "outputs": [
        {
          "internalType": "bool",
          "name": "",
          "type": "bool"
        }
      ],
      "stateMutability": "nonpayable",
      "type": "function"
    },
    {
      "inputs": [],
      "name": "initialize",
      "outputs": [],
      "stateMutability": "nonpayable",
      "type": "function"
    },
    {
      "inputs": [
        {
          "internalType": "address",
          "name": "account",
          "type": "address"
        }
      ],
      "name": "isliquidityHolder",
      "outputs": [
        {
          "internalType": "bool",
          "name": "",
          "type": "bool"
        }
      ],
      "stateMutability": "view",
      "type": "function"
    },
    {
      "inputs": [],
      "name": "lastProcessedIndex",
      "outputs": [
        {
          "internalType": "uint256",
          "name": "",
          "type": "uint256"
        }
      ],
      "stateMutability": "view",
      "type": "function"
    },
    {
      "inputs": [],
      "name": "liquidityHolderIndexLength",
      "outputs": [
        {
          "internalType": "uint256",
          "name": "",
          "type": "uint256"
        }
      ],
      "stateMutability": "view",
      "type": "function"
    },
    {
      "inputs": [],
      "name": "liquidityToken",
      "outputs": [
        {
          "internalType": "contract IERC20Upgradeable",
          "name": "",
          "type": "address"
        }
      ],
      "stateMutability": "view",
      "type": "function"
    },
    {
      "inputs": [],
      "name": "name",
      "outputs": [
        {
          "internalType": "string",
          "name": "",
          "type": "string"
        }
      ],
      "stateMutability": "view",
      "type": "function"
    },
    {
      "inputs": [],
      "name": "owner",
      "outputs": [
        {
          "internalType": "address",
          "name": "",
          "type": "address"
        }
      ],
      "stateMutability": "view",
      "type": "function"
    },
    {
      "inputs": [
        {
          "internalType": "uint256",
          "name": "_gasLimit",
          "type": "uint256"
        }
      ],
      "name": "process",
      "outputs": [],
      "stateMutability": "nonpayable",
      "type": "function"
    },
    {
      "inputs": [],
      "name": "proxiableUUID",
      "outputs": [
        {
          "internalType": "bytes32",
          "name": "",
          "type": "bytes32"
        }
      ],
      "stateMutability": "view",
      "type": "function"
    },
    {
      "inputs": [
        {
          "internalType": "address",
          "name": "account",
          "type": "address"
        }
      ],
      "name": "removeHolder",
      "outputs": [],
      "stateMutability": "nonpayable",
      "type": "function"
    },
    {
      "inputs": [],
      "name": "renounceOwnership",
      "outputs": [],
      "stateMutability": "nonpayable",
      "type": "function"
    },
    {
      "inputs": [],
      "name": "rewardToken1",
      "outputs": [
        {
          "internalType": "contract IERC20Upgradeable",
          "name": "",
          "type": "address"
        }
      ],
      "stateMutability": "view",
      "type": "function"
    },
    {
      "inputs": [],
      "name": "rewardToken1Amount",
      "outputs": [
        {
          "internalType": "uint256",
          "name": "",
          "type": "uint256"
        }
      ],
      "stateMutability": "view",
      "type": "function"
    },
    {
      "inputs": [],
      "name": "rewardToken1Fee",
      "outputs": [
        {
          "internalType": "uint256",
          "name": "",
          "type": "uint256"
        }
      ],
      "stateMutability": "view",
      "type": "function"
    },
    {
      "inputs": [],
      "name": "rewardToken2",
      "outputs": [
        {
          "internalType": "contract IERC20Upgradeable",
          "name": "",
          "type": "address"
        }
      ],
      "stateMutability": "view",
      "type": "function"
    },
    {
      "inputs": [],
      "name": "rewardToken2Amount",
      "outputs": [
        {
          "internalType": "uint256",
          "name": "",
          "type": "uint256"
        }
      ],
      "stateMutability": "view",
      "type": "function"
    },
    {
      "inputs": [],
      "name": "rewardToken2Fee",
      "outputs": [
        {
          "internalType": "uint256",
          "name": "",
          "type": "uint256"
        }
      ],
      "stateMutability": "view",
      "type": "function"
    },
    {
      "inputs": [
        {
          "internalType": "uint256",
          "name": "burnStopAtAmount",
          "type": "uint256"
        }
      ],
      "name": "setBurnStopAtAmount",
      "outputs": [],
      "stateMutability": "nonpayable",
      "type": "function"
    },
    {
      "inputs": [
        {
          "internalType": "address",
          "name": "_account",
          "type": "address"
        }
      ],
      "name": "setExcludeAddress",
      "outputs": [],
      "stateMutability": "nonpayable",
      "type": "function"
    },
    {
      "inputs": [
        {
          "internalType": "uint256",
          "name": "rewardFee",
          "type": "uint256"
        },
        {
          "internalType": "uint256",
          "name": "burnFee",
          "type": "uint256"
        }
      ],
      "name": "setFee",
      "outputs": [],
      "stateMutability": "nonpayable",
      "type": "function"
    },
    {
      "inputs": [
        {
          "internalType": "uint256",
          "name": "_rewardToken1Amount",
          "type": "uint256"
        },
        {
          "internalType": "uint256",
          "name": "_rewardToken2Amount",
          "type": "uint256"
        }
      ],
      "name": "setRewardTokenAmount",
      "outputs": [],
      "stateMutability": "nonpayable",
      "type": "function"
    },
    {
      "inputs": [
        {
          "internalType": "uint256",
          "name": "_rewardToken1Free",
          "type": "uint256"
        },
        {
          "internalType": "uint256",
          "name": "_rewardToken2Free",
          "type": "uint256"
        }
      ],
      "name": "setRewardTokenFree",
      "outputs": [],
      "stateMutability": "nonpayable",
      "type": "function"
    },
    {
      "inputs": [
        {
          "internalType": "address",
          "name": "_rewardToken1",
          "type": "address"
        },
        {
          "internalType": "address",
          "name": "_rewardToken2",
          "type": "address"
        }
      ],
      "name": "setRewardTokens",
      "outputs": [],
      "stateMutability": "nonpayable",
      "type": "function"
    },
    {
      "inputs": [
        {
          "internalType": "uint256",
          "name": "rewardAtAmount",
          "type": "uint256"
        }
      ],
      "name": "setSwapAtAmount",
      "outputs": [],
      "stateMutability": "nonpayable",
      "type": "function"
    },
    {
      "inputs": [
        {
          "internalType": "address",
          "name": "addr",
          "type": "address"
        }
      ],
      "name": "setUniswapV2Pair",
      "outputs": [],
      "stateMutability": "nonpayable",
      "type": "function"
    },
    {
      "inputs": [
        {
          "internalType": "address",
          "name": "addr",
          "type": "address"
        }
      ],
      "name": "setliquidityAddress",
      "outputs": [],
      "stateMutability": "nonpayable",
      "type": "function"
    },
    {
      "inputs": [
        {
          "internalType": "uint256",
          "name": "tokenAmount",
          "type": "uint256"
        },
        {
          "internalType": "address",
          "name": "outToken",
          "type": "address"
        }
      ],
      "name": "swapTokensFor2Tokens",
      "outputs": [],
      "stateMutability": "nonpayable",
      "type": "function"
    },
    {
      "inputs": [
        {
          "internalType": "uint256",
          "name": "tokenAmount",
          "type": "uint256"
        },
        {
          "internalType": "address",
          "name": "outToken",
          "type": "address"
        }
      ],
      "name": "swapTokensFor3Tokens",
      "outputs": [],
      "stateMutability": "nonpayable",
      "type": "function"
    },
    {
      "inputs": [
        {
          "internalType": "uint256",
          "name": "tokenAmount",
          "type": "uint256"
        }
      ],
      "name": "swapTokensForEth",
      "outputs": [],
      "stateMutability": "nonpayable",
      "type": "function"
    },
    {
      "inputs": [],
      "name": "symbol",
      "outputs": [
        {
          "internalType": "string",
          "name": "",
          "type": "string"
        }
      ],
      "stateMutability": "view",
      "type": "function"
    },
    {
      "inputs": [
        {
          "internalType": "address",
          "name": "token",
          "type": "address"
        }
      ],
      "name": "take",
      "outputs": [],
      "stateMutability": "nonpayable",
      "type": "function"
    },
    {
      "inputs": [],
      "name": "totalSupply",
      "outputs": [
        {
          "internalType": "uint256",
          "name": "",
          "type": "uint256"
        }
      ],
      "stateMutability": "view",
      "type": "function"
    },
    {
      "inputs": [
        {
          "internalType": "address",
          "name": "to",
          "type": "address"
        },
        {
          "internalType": "uint256",
          "name": "amount",
          "type": "uint256"
        }
      ],
      "name": "transfer",
      "outputs": [
        {
          "internalType": "bool",
          "name": "",
          "type": "bool"
        }
      ],
      "stateMutability": "nonpayable",
      "type": "function"
    },
    {
      "inputs": [
        {
          "internalType": "address[]",
          "name": "recipients",
          "type": "address[]"
        },
        {
          "internalType": "uint256",
          "name": "amount",
          "type": "uint256"
        }
      ],
      "name": "transferBatch",
      "outputs": [
        {
          "internalType": "bool",
          "name": "",
          "type": "bool"
        }
      ],
      "stateMutability": "nonpayable",
      "type": "function"
    },
    {
      "inputs": [
        {
          "internalType": "address",
          "name": "from",
          "type": "address"
        },
        {
          "internalType": "address",
          "name": "to",
          "type": "address"
        },
        {
          "internalType": "uint256",
          "name": "amount",
          "type": "uint256"
        }
      ],
      "name": "transferFrom",
      "outputs": [
        {
          "internalType": "bool",
          "name": "",
          "type": "bool"
        }
      ],
      "stateMutability": "nonpayable",
      "type": "function"
    },
    {
      "inputs": [
        {
          "internalType": "address",
          "name": "newOwner",
          "type": "address"
        }
      ],
      "name": "transferOwnership",
      "outputs": [],
      "stateMutability": "nonpayable",
      "type": "function"
    },
    {
      "inputs": [],
      "name": "uniswapV2Pair",
      "outputs": [
        {
          "internalType": "address",
          "name": "",
          "type": "address"
        }
      ],
      "stateMutability": "view",
      "type": "function"
    },
    {
      "inputs": [],
      "name": "uniswapV2Router",
      "outputs": [
        {
          "internalType": "contract IUniswapV2Router02",
          "name": "",
          "type": "address"
        }
      ],
      "stateMutability": "view",
      "type": "function"
    },
    {
      "inputs": [
        {
          "internalType": "uint256",
          "name": "newValue",
          "type": "uint256"
        }
      ],
      "name": "updateGasForProcessing",
      "outputs": [],
      "stateMutability": "nonpayable",
      "type": "function"
    },
    {
      "inputs": [
        {
          "internalType": "address",
          "name": "newImplementation",
          "type": "address"
        }
      ],
      "name": "upgradeTo",
      "outputs": [],
      "stateMutability": "nonpayable",
      "type": "function"
    },
    {
      "inputs": [
        {
          "internalType": "address",
          "name": "newImplementation",
          "type": "address"
        },
        {
          "internalType": "bytes",
          "name": "data",
          "type": "bytes"
        }
      ],
      "name": "upgradeToAndCall",
      "outputs": [],
      "stateMutability": "payable",
      "type": "function"
    },
    {
      "stateMutability": "payable",
      "type": "receive"
    }
  ],
  "bytecode": "0x60a06040523060601b6080523480156200001857600080fd5b50600054610100900460ff16620000365760005460ff161562000040565b62000040620000e5565b620000a85760405162461bcd60e51b815260206004820152602e60248201527f496e697469616c697a61626c653a20636f6e747261637420697320616c72656160448201526d191e481a5b9a5d1a585b1a5e995960921b606482015260840160405180910390fd5b600054610100900460ff16158015620000cb576000805461ffff19166101011790555b8015620000de576000805461ff00191690555b5062000112565b6000620000fd306200010360201b6200287e1760201c565b15905090565b6001600160a01b03163b151590565b60805160601c6140186200014d6000396000818161105601528181611096015281816113c501528181611405015261149401526140186000f3fe60806040526004361061039b5760003560e01c806378fa6648116101dc578063bb231ceb11610102578063d872a4cc116100a0578063efc3b7bd1161006f578063efc3b7bd14610ab0578063f2929b2314610ac7578063f2fde38b14610ade578063ffb2c47914610afe576103a2565b8063d872a4cc14610a09578063d9e6646014610a29578063dc697bcb14610a4a578063dd62ed3e14610a6a576103a2565b8063cb05114f116100dc578063cb05114f1461099c578063cb8446b2146109b1578063cc99498c146109c8578063d61a47f1146109e8576103a2565b8063bb231ceb14610950578063c0b0fda214610970578063c5c3cbda14610987576103a2565b80638dd428081161017a578063a457c2d711610149578063a457c2d7146108d0578063a9059cbb146108f0578063ac1e17df14610910578063b28805f414610930576103a2565b80638dd428081461085b57806395d89b411461087b5780639dc29fac14610890578063a29a6089146108b0576103a2565b80638129fc1c116101b65780638129fc1c146107f257806384d6ff2f14610807578063871c128d1461081d5780638da5cb5b1461083d576103a2565b806378fa6648146107915780637faf0edf146107b1578063806e085e146107d2576103a2565b806343cd8f7e116102c157806352f7c9881161025f5780636d1fc4d11161022e5780636d1fc4d11461070e5780636f28d6881461072557806370a0823114610746578063715018a61461077c576103a2565b806352f7c9881461068e57806360a2c14d146106ae5780636402511e146106ce5780636775d967146106ee576103a2565b80634d44e6631161029b5780634d44e663146106305780634f1ef2861461065057806351fde4bb1461066357806352d1902d14610679576103a2565b806343cd8f7e146105d7578063490e32cc146105f857806349bd5a5e1461060f576103a2565b806323b872dd1161033957806335773b881161030857806335773b881461053c5780633659cfe61461057757806339509351146105975780633bf20753146105b7576103a2565b806323b872dd146104c757806326330dab146104e75780633009a60914610509578063313ce56714610520576103a2565b8063166d8a9111610375578063166d8a91146104375780631694505e1461047057806318160ddd146104915780631a536a32146104b0576103a2565b806306fdde03146103a7578063095ea7b3146103d257806315cba92514610402576103a2565b366103a257005b600080fd5b3480156103b357600080fd5b506103bc610b1e565b6040516103c99190613b2f565b60405180910390f35b3480156103de57600080fd5b506103f26103ed36600461391a565b610bb0565b60405190151581526020016103c9565b34801561040e57600080fd5b5061042261041d3660046137c8565b610bca565b604080519283526020830191909152016103c9565b34801561044357600080fd5b5061010f54610458906001600160a01b031681565b6040516001600160a01b0390911681526020016103c9565b34801561047c57600080fd5b5061010854610458906001600160a01b031681565b34801561049d57600080fd5b506035545b6040519081526020016103c9565b3480156104bc57600080fd5b506104a261010d5481565b3480156104d357600080fd5b506103f26104e2366004613838565b610d88565b3480156104f357600080fd5b50610507610502366004613a73565b610fa1565b005b34801561051557600080fd5b506104a26101105481565b34801561052c57600080fd5b50604051601281526020016103c9565b34801561054857600080fd5b5061055c610557366004613a37565b610fe1565b604080519384526020840192909252908201526060016103c9565b34801561058357600080fd5b506105076105923660046137c8565b61104b565b3480156105a357600080fd5b506103f26105b236600461391a565b61112b565b3480156105c357600080fd5b506105076105d2366004613a4f565b61116a565b3480156105e357600080fd5b5061010c54610458906001600160a01b031681565b34801561060457600080fd5b506104a26101015481565b34801561061b57600080fd5b5061010954610458906001600160a01b031681565b34801561063c57600080fd5b5061050761064b3660046137c8565b611287565b61050761065e366004613878565b6113ba565b34801561066f57600080fd5b506104a260fe5481565b34801561068557600080fd5b506104a2611487565b34801561069a57600080fd5b506105076106a9366004613a73565b61153a565b3480156106ba57600080fd5b506105076106c9366004613a73565b611570565b3480156106da57600080fd5b506105076106e9366004613a37565b6115a7565b3480156106fa57600080fd5b506105076107093660046137c8565b6115d7565b34801561071a57600080fd5b506104a26101025481565b34801561073157600080fd5b5061010a54610458906001600160a01b031681565b34801561075257600080fd5b506104a26107613660046137c8565b6001600160a01b031660009081526033602052604090205490565b34801561078857600080fd5b50610507611624565b34801561079d57600080fd5b506105076107ac3660046137c8565b61165a565b3480156107bd57600080fd5b5061010354610458906001600160a01b031681565b3480156107de57600080fd5b506103f26107ed366004613945565b6116a7565b3480156107fe57600080fd5b50610507611702565b34801561081357600080fd5b506104a260ff5481565b34801561082957600080fd5b50610507610838366004613a37565b611b92565b34801561084957600080fd5b5060c9546001600160a01b0316610458565b34801561086757600080fd5b506105076108763660046137c8565b611cb6565b34801561088757600080fd5b506103bc611ceb565b34801561089c57600080fd5b506105076108ab36600461391a565b611cfa565b3480156108bc57600080fd5b506105076108cb3660046137c8565b611d2e565b3480156108dc57600080fd5b506103f26108eb36600461391a565b611d7b565b3480156108fc57600080fd5b506103f261090b36600461391a565b611e18565b34801561091c57600080fd5b5061050761092b3660046137c8565b612007565b34801561093c57600080fd5b5061050761094b366004613a37565b61203c565b34801561095c57600080fd5b506103f261096b3660046137c8565b6121c4565b34801561097c57600080fd5b506104a26101005481565b34801561099357600080fd5b506104226121d1565b3480156109a857600080fd5b506104a261225a565b3480156109bd57600080fd5b506104a26101055481565b3480156109d457600080fd5b506105076109e3366004613a4f565b61226b565b3480156109f457600080fd5b5061010b54610458906001600160a01b031681565b348015610a1557600080fd5b50610507610a24366004613800565b612409565b348015610a3557600080fd5b5061010454610458906001600160a01b031681565b348015610a5657600080fd5b50610507610a65366004613a37565b612463565b348015610a7657600080fd5b506104a2610a85366004613800565b6001600160a01b03918216600090815260346020908152604080832093909416825291909152205490565b348015610abc57600080fd5b506104a261010e5481565b348015610ad357600080fd5b506104a26101065481565b348015610aea57600080fd5b50610507610af93660046137c8565b612493565b348015610b0a57600080fd5b50610507610b19366004613a37565b61252b565b606060368054610b2d90613ee4565b80601f0160208091040260200160405190810160405280929190818152602001828054610b5990613ee4565b8015610ba65780601f10610b7b57610100808354040283529160200191610ba6565b820191906000526020600020905b815481529060010190602001808311610b8957829003601f168201915b5050505050905090565b600033610bbe81858561288d565b60019150505b92915050565b600080600061010c60009054906101000a90046001600160a01b03166001600160a01b03166318160ddd6040518163ffffffff1660e01b815260040160206040518083038186803b158015610c1e57600080fd5b505afa158015610c32573d6000803e3d6000fd5b505050506040513d601f19601f82011682018060405250810190610c569190613a1f565b905080610c6a576000809250925050610d83565b61010c5461010f546040516370a0823160e01b81526001600160a01b03918216600482015260009291909116906370a082319060240160206040518083038186803b158015610cb857600080fd5b505afa158015610ccc573d6000803e3d6000fd5b505050506040513d601f19601f82011682018060405250810190610cf09190613a1f565b9050610cfc82826129b1565b61010c546040516370a0823160e01b81526001600160a01b0388811660048301529294509116906370a082319060240160206040518083038186803b158015610d4457600080fd5b505afa158015610d58573d6000803e3d6000fd5b505050506040513d601f19601f82011682018060405250810190610d7c9190613a1f565b9350909150505b915091565b6000610d9c60c9546001600160a01b031690565b6001600160a01b0316336001600160a01b031614610dca57610dbe335b6129bd565b610dca6101075461252b565b60c95433906001600160a01b03868116911614801590610e165750610104546001600160a01b0316336001600160a01b03161480610e165750610109546001600160a01b038581169116145b8015610e2757506101065460355410155b15610e3c57610e37858585612ae0565b610e47565b610e47858585612bfd565b610e52858285612d41565b61010c546040516370a0823160e01b81526001600160a01b03878116600483015260009216906370a082319060240160206040518083038186803b158015610e9957600080fd5b505afa158015610ead573d6000803e3d6000fd5b505050506040513d601f19601f82011682018060405250810190610ed19190613a1f565b118015610ee45750610ee2856121c4565b155b15610ef757610ef285612007565b610f94565b61010c546040516370a0823160e01b81526001600160a01b038781166004830152909116906370a082319060240160206040518083038186803b158015610f3d57600080fd5b505afa158015610f51573d6000803e3d6000fd5b505050506040513d601f19601f82011682018060405250810190610f759190613a1f565b158015610f865750610f86856121c4565b15610f9457610f9485611cb6565b60019150505b9392505050565b60c9546001600160a01b03163314610fd45760405162461bcd60e51b8152600401610fcb90613c3d565b60405180910390fd5b61010d9190915561010e55565b6000806000806110096127106110036101005488612dcd90919063ffffffff16565b90612dd9565b905061101585826129b1565b9450600061103461271061100360fe5489612dcd90919063ffffffff16565b905061104086826129b1565b969195509350915050565b306001600160a01b037f00000000000000000000000000000000000000000000000000000000000000001614156110945760405162461bcd60e51b8152600401610fcb90613ba5565b7f00000000000000000000000000000000000000000000000000000000000000006001600160a01b03166110dd600080516020613f7c833981519152546001600160a01b031690565b6001600160a01b0316146111035760405162461bcd60e51b8152600401610fcb90613bf1565b61110c81612de5565b6040805160008082526020820190925261112891839190612e0f565b50565b3360008181526034602090815260408083206001600160a01b0387168452909152812054909190610bbe9082908690611165908790613d33565b61288d565b60408051600280825260608201835260009260208301908036833701905050905030816000815181106111ad57634e487b7160e01b600052603260045260246000fd5b60200260200101906001600160a01b031690816001600160a01b03168152505081816001815181106111ef57634e487b7160e01b600052603260045260246000fd5b6001600160a01b03928316602091820292909201015261010854611216913091168561288d565b61010854604051635c11d79560e01b81526001600160a01b0390911690635c11d79590611250908690600090869030904290600401613af3565b600060405180830381600087803b15801561126a57600080fd5b505af115801561127e573d6000803e3d6000fd5b50505050505050565b60c9546001600160a01b031633146112b15760405162461bcd60e51b8152600401610fcb90613c3d565b6001600160a01b03811663a9059cbb336040516370a0823160e01b81523060048201526001600160a01b038516906370a082319060240160206040518083038186803b15801561130057600080fd5b505afa158015611314573d6000803e3d6000fd5b505050506040513d601f19601f820116820180604052508101906113389190613a1f565b6040516001600160e01b031960e085901b1681526001600160a01b0390921660048301526024820152604401602060405180830381600087803b15801561137e57600080fd5b505af1158015611392573d6000803e3d6000fd5b505050506040513d601f19601f820116820180604052508101906113b691906139ff565b5050565b306001600160a01b037f00000000000000000000000000000000000000000000000000000000000000001614156114035760405162461bcd60e51b8152600401610fcb90613ba5565b7f00000000000000000000000000000000000000000000000000000000000000006001600160a01b031661144c600080516020613f7c833981519152546001600160a01b031690565b6001600160a01b0316146114725760405162461bcd60e51b8152600401610fcb90613bf1565b61147b82612de5565b6113b682826001612e0f565b6000306001600160a01b037f000000000000000000000000000000000000000000000000000000000000000016146115275760405162461bcd60e51b815260206004820152603860248201527f555550535570677261646561626c653a206d757374206e6f742062652063616c60448201527f6c6564207468726f7567682064656c656761746563616c6c00000000000000006064820152608401610fcb565b50600080516020613f7c83398151915290565b60c9546001600160a01b031633146115645760405162461bcd60e51b8152600401610fcb90613c3d565b60fe9190915561010055565b60c9546001600160a01b0316331461159a5760405162461bcd60e51b8152600401610fcb90613c3d565b6101019190915561010255565b60c9546001600160a01b031633146115d15760405162461bcd60e51b8152600401610fcb90613c3d565b61010555565b60c9546001600160a01b031633146116015760405162461bcd60e51b8152600401610fcb90613c3d565b61010c80546001600160a01b0319166001600160a01b0392909216919091179055565b60c9546001600160a01b0316331461164e5760405162461bcd60e51b8152600401610fcb90613c3d565b6116586000612f8e565b565b60c9546001600160a01b031633146116845760405162461bcd60e51b8152600401610fcb90613c3d565b61010f80546001600160a01b0319166001600160a01b0392909216919091179055565b6000805b83518110156116f8576116e6338583815181106116d857634e487b7160e01b600052603260045260246000fd5b602002602001015185612bfd565b806116f081613f1f565b9150506116ab565b5060019392505050565b600054610100900460ff1661171d5760005460ff1615611721565b303b155b6117845760405162461bcd60e51b815260206004820152602e60248201527f496e697469616c697a61626c653a20636f6e747261637420697320616c72656160448201526d191e481a5b9a5d1a585b1a5e995960921b6064820152608401610fcb565b600054610100900460ff161580156117a6576000805461ffff19166101011790555b6117ed6040518060400160405280600a81526020016925bab0b33a9021b7b4b760b11b815250604051806040016040528060038152602001624b464360e81b815250612fe0565b6117f5613011565b6117fd613040565b61181e3361180d6012600a613db1565b61181990612710613e82565b613067565b61019060fe5560646101005560326101018190556101025561010480546001600160a01b03191673d99d1c33f9fc3444f8101754abc46c52416550d1179055611865601290565b61187090600a613db1565b61187b90600f613e82565b6101055561188b6012600a613db1565b61189790610384613e82565b61010655617530610107556101045461010880546001600160a01b0319166001600160a01b0390921691821790556040805163c45a015560e01b8152905163c45a015591600480820192602092909190829003018186803b1580156118fb57600080fd5b505afa15801561190f573d6000803e3d6000fd5b505050506040513d601f19601f8201168201806040525081019061193391906137e4565b6001600160a01b031663c9c653963061010860009054906101000a90046001600160a01b03166001600160a01b031663ad5c46486040518163ffffffff1660e01b815260040160206040518083038186803b15801561199157600080fd5b505afa1580156119a5573d6000803e3d6000fd5b505050506040513d601f19601f820116820180604052508101906119c991906137e4565b6040516001600160e01b031960e085901b1681526001600160a01b03928316600482015291166024820152604401602060405180830381600087803b158015611a1157600080fd5b505af1158015611a25573d6000803e3d6000fd5b505050506040513d601f19601f82011682018060405250810190611a4991906137e4565b61010980546001600160a01b039283166001600160a01b0319918216811790925561010c8054909116909117905561010854604080516315ab88c960e31b81529051919092169163ad5c4648916004808301926020929190829003018186803b158015611ab557600080fd5b505afa158015611ac9573d6000803e3d6000fd5b505050506040513d601f19601f82011682018060405250810190611aed91906137e4565b61010a80546001600160a01b03929092166001600160a01b031992831617905561010b8054909116737ef95a0fee0dd31b22626fa2e10ee6a223f8a6841790556702c68af0bb14000061010d556302625a0061010e55611b4a3390565b6001600160a01b03166000600080516020613fc3833981519152611b6d60355490565b60405190815260200160405180910390a38015611128576000805461ff001916905550565b60c9546001600160a01b03163314611bbc5760405162461bcd60e51b8152600401610fcb90613c3d565b62030d408110158015611bd257506207a1208111155b611c445760405162461bcd60e51b815260206004820152603860248201527f424b3a20676173466f7250726f63657373696e67206d7573742062652062657460448201527f7765656e203230302c30303020616e64203530302c30303000000000000000006064820152608401610fcb565b61010754811415611cb05760405162461bcd60e51b815260206004820152603060248201527f424b3a2043616e6e6f742075706461746520676173466f7250726f636573736960448201526f6e6720746f2073616d652076616c756560801b6064820152608401610fcb565b61010755565b60c9546001600160a01b03163314611ce05760405162461bcd60e51b8152600401610fcb90613c3d565b6113b660fb82613135565b606060378054610b2d90613ee4565b60c9546001600160a01b03163314611d245760405162461bcd60e51b8152600401610fcb90613c3d565b6113b6828261314a565b60c9546001600160a01b03163314611d585760405162461bcd60e51b8152600401610fcb90613c3d565b61010980546001600160a01b0319166001600160a01b0392909216919091179055565b3360008181526034602090815260408083206001600160a01b038716845290915281205490919083811015611e005760405162461bcd60e51b815260206004820152602560248201527f45524332303a2064656372656173656420616c6c6f77616e63652062656c6f77604482015264207a65726f60d81b6064820152608401610fcb565b611e0d828686840361288d565b506001949350505050565b6000611e2c60c9546001600160a01b031690565b6001600160a01b0316336001600160a01b031614611e5957611e4d33610db9565b611e596101075461252b565b610109546001600160a01b0316336001600160a01b0316148015611e8257506101065460355410155b15611e9757611e92338484612ae0565b611ea2565b611ea2338484612bfd565b61010c546000906001600160a01b03166370a08231336040516001600160e01b031960e084901b1681526001600160a01b03909116600482015260240160206040518083038186803b158015611ef757600080fd5b505afa158015611f0b573d6000803e3d6000fd5b505050506040513d601f19601f82011682018060405250810190611f2f9190613a1f565b118015611f425750611f403361096b565b155b15611f5557611f503361092b565b611ffe565b61010c546001600160a01b03166370a08231336040516001600160e01b031960e084901b1681526001600160a01b03909116600482015260240160206040518083038186803b158015611fa757600080fd5b505afa158015611fbb573d6000803e3d6000fd5b505050506040513d601f19601f82011682018060405250810190611fdf9190613a1f565b158015611ff05750611ff03361096b565b15611ffe57611ffe33610876565b50600192915050565b60c9546001600160a01b031633146120315760405162461bcd60e51b8152600401610fcb90613c3d565b6113b660fb82613286565b604080516002808252606082018352600092602083019080368337019050509050308160008151811061207f57634e487b7160e01b600052603260045260246000fd5b6001600160a01b0392831660209182029290920181019190915261010854604080516315ab88c960e31b81529051919093169263ad5c4648926004808301939192829003018186803b1580156120d457600080fd5b505afa1580156120e8573d6000803e3d6000fd5b505050506040513d601f19601f8201168201806040525081019061210c91906137e4565b8160018151811061212d57634e487b7160e01b600052603260045260246000fd5b6001600160a01b03928316602091820292909201015261010854612154913091168461288d565b6101085460405163791ac94760e01b81526001600160a01b039091169063791ac9479061218e908590600090869030904290600401613af3565b600060405180830381600087803b1580156121a857600080fd5b505af11580156121bc573d6000803e3d6000fd5b505050505050565b6000610bc460fb8361329b565b61010b546040516370a0823160e01b8152306004820152600091829147916001600160a01b0316906370a082319060240160206040518083038186803b15801561221a57600080fd5b505afa15801561222e573d6000803e3d6000fd5b505050506040513d601f19601f820116820180604052508101906122529190613a1f565b915091509091565b600061226660fb6132bd565b905090565b604080516003808252608082019092526000916020820160608036833701905050905030816000815181106122b057634e487b7160e01b600052603260045260246000fd5b6001600160a01b0392831660209182029290920181019190915261010854604080516315ab88c960e31b81529051919093169263ad5c4648926004808301939192829003018186803b15801561230557600080fd5b505afa158015612319573d6000803e3d6000fd5b505050506040513d601f19601f8201168201806040525081019061233d91906137e4565b8160018151811061235e57634e487b7160e01b600052603260045260246000fd5b60200260200101906001600160a01b031690816001600160a01b03168152505081816002815181106123a057634e487b7160e01b600052603260045260246000fd5b6001600160a01b039283166020918202929092010152610108546123c7913091168561288d565b61010854604051635c11d79560e01b81526001600160a01b0390911690635c11d7959061125090670de0b6b3a764000090600090869030904290600401613af3565b60c9546001600160a01b031633146124335760405162461bcd60e51b8152600401610fcb90613c3d565b61010a80546001600160a01b039384166001600160a01b03199182161790915561010b8054929093169116179055565b60c9546001600160a01b0316331461248d5760405162461bcd60e51b8152600401610fcb90613c3d565b61010655565b60c9546001600160a01b031633146124bd5760405162461bcd60e51b8152600401610fcb90613c3d565b6001600160a01b0381166125225760405162461bcd60e51b815260206004820152602660248201527f4f776e61626c653a206e6577206f776e657220697320746865207a65726f206160448201526564647265737360d01b6064820152608401610fcb565b61112881612f8e565b600061253760fb6132bd565b9050801580612548575061010d5447105b806125d0575061010e5461010b546040516370a0823160e01b81523060048201526001600160a01b03909116906370a082319060240160206040518083038186803b15801561259657600080fd5b505afa1580156125aa573d6000803e3d6000fd5b505050506040513d601f19601f820116820180604052508101906125ce9190613a1f565b105b156125db5750611128565b610110546000805a905060005b85831080156125f657508481105b15612873578061260581613f1f565b91505061261260fb6132bd565b841061261d57600093505b600061262a60fb866132c7565b905060008061263883610bca565b9150915081600014156126595761265060fb84613135565b505050506125e8565b6000612675826110038561010d54612dcd90919063ffffffff16565b90506000612693836110038661010e54612dcd90919063ffffffff16565b90508147108061271c575061010b546040516370a0823160e01b815230600482015282916001600160a01b0316906370a082319060240160206040518083038186803b1580156126e257600080fd5b505afa1580156126f6573d6000803e3d6000fd5b505050506040513d601f19601f8201168201806040525081019061271a9190613a1f565b105b156127305750505050505050505050611128565b6000841180156127405750600083115b801561275b575061010f546001600160a01b03868116911614155b801561276f57506001600160a01b03851615155b15612834576040516001600160a01b0386169083156108fc029084906000818181858888f193505050501580156127aa573d6000803e3d6000fd5b5061010b5460405163a9059cbb60e01b81526001600160a01b038781166004830152602482018490529091169063a9059cbb90604401602060405180830381600087803b1580156127fa57600080fd5b505af115801561280e573d6000803e3d6000fd5b505050506040513d601f19601f8201168201806040525081019061283291906139ff565b505b60005a9050808811156128585761285561284e89836129b1565b8a906132d3565b98505b9650868961286581613f1f565b9a50505050505050506125e8565b505050610110555050565b6001600160a01b03163b151590565b6001600160a01b0383166128ef5760405162461bcd60e51b8152602060048201526024808201527f45524332303a20617070726f76652066726f6d20746865207a65726f206164646044820152637265737360e01b6064820152608401610fcb565b6001600160a01b0382166129505760405162461bcd60e51b815260206004820152602260248201527f45524332303a20617070726f766520746f20746865207a65726f206164647265604482015261737360f01b6064820152608401610fcb565b6001600160a01b0383811660008181526034602090815260408083209487168084529482529182902085905590518481527f8c5be1e5ebec7d5bd14f71427d1e84f3dd0314c0f7b2291e5b200ac8c7c3b925910160405180910390a3505050565b6000610f9a8284613ea1565b610109546001600160a01b038281169116148015906129eb5750610108546001600160a01b03828116911614155b80156129fa575060fd5460ff16155b8015612a185750610105543060009081526033602052604090205410155b156111285760fd805460ff1916600117905561010154306000908152603360205260408120549091612a51916064916110039190612dcd565b90506000612a7e82612a78306001600160a01b031660009081526033602052604090205490565b906129b1565b9050600061010154118015612a935750600082115b15612aa157612aa18261203c565b600061010254118015612ab45750600081115b15612ad15761010b54612ad19082906001600160a01b031661226b565b505060fd805460ff1916905550565b6001600160a01b038316612b065760405162461bcd60e51b8152600401610fcb90613c72565b6001600160a01b038216612b2c5760405162461bcd60e51b8152600401610fcb90613b62565b60008111612b8e5760405162461bcd60e51b815260206004820152602960248201527f5472616e7366657220616d6f756e74206d7573742062652067726561746572206044820152687468616e207a65726f60b81b6064820152608401610fcb565b60fd5460ff16612bed576000806000612ba684610fe1565b92509250925061010654612bbd83612a7860355490565b10612bcf57612bcf866101005461314a565b612bda863083612bfd565b612be5868685612bfd565b505050612bf8565b612bf8838383612bfd565b505050565b6001600160a01b038316612c235760405162461bcd60e51b8152600401610fcb90613c72565b6001600160a01b038216612c495760405162461bcd60e51b8152600401610fcb90613b62565b6001600160a01b03831660009081526033602052604090205481811015612cc15760405162461bcd60e51b815260206004820152602660248201527f45524332303a207472616e7366657220616d6f756e7420657863656564732062604482015265616c616e636560d01b6064820152608401610fcb565b6001600160a01b03808516600090815260336020526040808220858503905591851681529081208054849290612cf8908490613d33565b92505081905550826001600160a01b0316846001600160a01b0316600080516020613fc383398151915284604051612d3291815260200190565b60405180910390a35b50505050565b6001600160a01b038381166000908152603460209081526040808320938616835292905220546000198114612d3b5781811015612dc05760405162461bcd60e51b815260206004820152601d60248201527f45524332303a20696e73756666696369656e7420616c6c6f77616e63650000006044820152606401610fcb565b612d3b848484840361288d565b6000610f9a8284613e82565b6000610f9a8284613d4b565b60c9546001600160a01b031633146111285760405162461bcd60e51b8152600401610fcb90613c3d565b7f4910fdfa16fed3260ed0e7147f7cc6da11a60208b5b9406d12a635614ffd91435460ff1615612e4757612e42836132df565b612bf8565b826001600160a01b03166352d1902d6040518163ffffffff1660e01b815260040160206040518083038186803b158015612e8057600080fd5b505afa925050508015612eb0575060408051601f3d908101601f19168201909252612ead91810190613a1f565b60015b612f135760405162461bcd60e51b815260206004820152602e60248201527f45524331393637557067726164653a206e657720696d706c656d656e7461746960448201526d6f6e206973206e6f74205555505360901b6064820152608401610fcb565b600080516020613f7c8339815191528114612f825760405162461bcd60e51b815260206004820152602960248201527f45524331393637557067726164653a20756e737570706f727465642070726f786044820152681a58589b195555525160ba1b6064820152608401610fcb565b50612bf883838361337b565b60c980546001600160a01b038381166001600160a01b0319831681179093556040519116919082907f8be0079c531659141344cd1fd0a4f28419497f9722a3daafe3b4186f6b6457e090600090a35050565b600054610100900460ff166130075760405162461bcd60e51b8152600401610fcb90613cb7565b6113b682826133a0565b600054610100900460ff166130385760405162461bcd60e51b8152600401610fcb90613cb7565b6116586133ee565b600054610100900460ff166116585760405162461bcd60e51b8152600401610fcb90613cb7565b6001600160a01b0382166130bd5760405162461bcd60e51b815260206004820152601f60248201527f45524332303a206d696e7420746f20746865207a65726f2061646472657373006044820152606401610fcb565b80603560008282546130cf9190613d33565b90915550506001600160a01b038216600090815260336020526040812080548392906130fc908490613d33565b90915550506040518181526001600160a01b03831690600090600080516020613fc38339815191529060200160405180910390a36113b6565b6000610f9a836001600160a01b03841661341e565b6001600160a01b0382166131aa5760405162461bcd60e51b815260206004820152602160248201527f45524332303a206275726e2066726f6d20746865207a65726f206164647265736044820152607360f81b6064820152608401610fcb565b6001600160a01b0382166000908152603360205260409020548181101561321e5760405162461bcd60e51b815260206004820152602260248201527f45524332303a206275726e20616d6f756e7420657863656564732062616c616e604482015261636560f01b6064820152608401610fcb565b6001600160a01b038316600090815260336020526040812083830390556035805484929061324d908490613ea1565b90915550506040518281526000906001600160a01b03851690600080516020613fc38339815191529060200160405180910390a3612bf8565b6000610f9a836001600160a01b03841661353b565b6001600160a01b03811660009081526001830160205260408120541515610f9a565b6000610bc4825490565b6000610f9a838361358a565b6000610f9a8284613d33565b6001600160a01b0381163b61334c5760405162461bcd60e51b815260206004820152602d60248201527f455243313936373a206e657720696d706c656d656e746174696f6e206973206e60448201526c1bdd08184818dbdb9d1c9858dd609a1b6064820152608401610fcb565b600080516020613f7c83398151915280546001600160a01b0319166001600160a01b0392909216919091179055565b613384836135c2565b6000825111806133915750805b15612bf857612d3b8383613602565b600054610100900460ff166133c75760405162461bcd60e51b8152600401610fcb90613cb7565b81516133da90603690602085019061372f565b508051612bf890603790602084019061372f565b600054610100900460ff166134155760405162461bcd60e51b8152600401610fcb90613cb7565b61165833612f8e565b60008181526001830160205260408120548015613531576000613442600183613ea1565b855490915060009061345690600190613ea1565b90508181146134d757600086600001828154811061348457634e487b7160e01b600052603260045260246000fd5b90600052602060002001549050808760000184815481106134b557634e487b7160e01b600052603260045260246000fd5b6000918252602080832090910192909255918252600188019052604090208390555b85548690806134f657634e487b7160e01b600052603160045260246000fd5b600190038181906000526020600020016000905590558560010160008681526020019081526020016000206000905560019350505050610bc4565b6000915050610bc4565b600081815260018301602052604081205461358257508154600181810184556000848152602080822090930184905584548482528286019093526040902091909155610bc4565b506000610bc4565b60008260000182815481106135af57634e487b7160e01b600052603260045260246000fd5b9060005260206000200154905092915050565b6135cb816132df565b6040516001600160a01b038216907fbc7cd75a20ee27fd9adebab32041f755214dbc6bffa90cc0225b39da2e5c2d3b90600090a250565b60606001600160a01b0383163b61366a5760405162461bcd60e51b815260206004820152602660248201527f416464726573733a2064656c65676174652063616c6c20746f206e6f6e2d636f6044820152651b9d1c9858dd60d21b6064820152608401610fcb565b600080846001600160a01b0316846040516136859190613ad7565b600060405180830381855af49150503d80600081146136c0576040519150601f19603f3d011682016040523d82523d6000602084013e6136c5565b606091505b50915091506136ed8282604051806060016040528060278152602001613f9c602791396136f6565b95945050505050565b60608315613705575081610f9a565b8251156137155782518084602001fd5b8160405162461bcd60e51b8152600401610fcb9190613b2f565b82805461373b90613ee4565b90600052602060002090601f01602090048101928261375d57600085556137a3565b82601f1061377657805160ff19168380011785556137a3565b828001600101855582156137a3579182015b828111156137a3578251825591602001919060010190613788565b506137af9291506137b3565b5090565b5b808211156137af57600081556001016137b4565b6000602082840312156137d9578081fd5b8135610f9a81613f66565b6000602082840312156137f5578081fd5b8151610f9a81613f66565b60008060408385031215613812578081fd5b823561381d81613f66565b9150602083013561382d81613f66565b809150509250929050565b60008060006060848603121561384c578081fd5b833561385781613f66565b9250602084013561386781613f66565b929592945050506040919091013590565b6000806040838503121561388a578182fd5b823561389581613f66565b915060208381013567ffffffffffffffff808211156138b2578384fd5b818601915086601f8301126138c5578384fd5b8135818111156138d7576138d7613f50565b6138e9601f8201601f19168501613d02565b915080825287848285010111156138fe578485fd5b8084840185840137810190920192909252919491935090915050565b6000806040838503121561392c578182fd5b823561393781613f66565b946020939093013593505050565b60008060408385031215613957578182fd5b823567ffffffffffffffff8082111561396e578384fd5b818501915085601f830112613981578384fd5b813560208282111561399557613995613f50565b8160051b92506139a6818401613d02565b8281528181019085830185870184018b10156139c0578889fd5b8896505b848710156139ee57803595506139d986613f66565b858352600196909601959183019183016139c4565b509997909101359750505050505050565b600060208284031215613a10578081fd5b81518015158114610f9a578182fd5b600060208284031215613a30578081fd5b5051919050565b600060208284031215613a48578081fd5b5035919050565b60008060408385031215613a61578182fd5b82359150602083013561382d81613f66565b60008060408385031215613a85578182fd5b50508035926020909101359150565b6000815180845260208085019450808401835b83811015613acc5781516001600160a01b031687529582019590820190600101613aa7565b509495945050505050565b60008251613ae9818460208701613eb8565b9190910192915050565b600086825285602083015260a06040830152613b1260a0830186613a94565b6001600160a01b0394909416606083015250608001529392505050565b6000602082528251806020840152613b4e816040850160208701613eb8565b601f01601f19169190910160400192915050565b60208082526023908201527f45524332303a207472616e7366657220746f20746865207a65726f206164647260408201526265737360e81b606082015260800190565b6020808252602c908201527f46756e6374696f6e206d7573742062652063616c6c6564207468726f7567682060408201526b19195b1959d85d1958d85b1b60a21b606082015260800190565b6020808252602c908201527f46756e6374696f6e206d7573742062652063616c6c6564207468726f7567682060408201526b6163746976652070726f787960a01b606082015260800190565b6020808252818101527f4f776e61626c653a2063616c6c6572206973206e6f7420746865206f776e6572604082015260600190565b60208082526025908201527f45524332303a207472616e736665722066726f6d20746865207a65726f206164604082015264647265737360d81b606082015260800190565b6020808252602b908201527f496e697469616c697a61626c653a20636f6e7472616374206973206e6f74206960408201526a6e697469616c697a696e6760a81b606082015260800190565b604051601f8201601f1916810167ffffffffffffffff81118282101715613d2b57613d2b613f50565b604052919050565b60008219821115613d4657613d46613f3a565b500190565b600082613d6657634e487b7160e01b81526012600452602481fd5b500490565b80825b6001808611613d7d5750613da8565b818704821115613d8f57613d8f613f3a565b80861615613d9c57918102915b9490941c938002613d6e565b94509492505050565b6000610f9a60001960ff851684600082613dcd57506001610f9a565b81613dda57506000610f9a565b8160018114613df05760028114613dfa57613e27565b6001915050610f9a565b60ff841115613e0b57613e0b613f3a565b6001841b915084821115613e2157613e21613f3a565b50610f9a565b5060208310610133831016604e8410600b8410161715613e5a575081810a83811115613e5557613e55613f3a565b610f9a565b613e678484846001613d6b565b808604821115613e7957613e79613f3a565b02949350505050565b6000816000190483118215151615613e9c57613e9c613f3a565b500290565b600082821015613eb357613eb3613f3a565b500390565b60005b83811015613ed3578181015183820152602001613ebb565b83811115612d3b5750506000910152565b600181811c90821680613ef857607f821691505b60208210811415613f1957634e487b7160e01b600052602260045260246000fd5b50919050565b6000600019821415613f3357613f33613f3a565b5060010190565b634e487b7160e01b600052601160045260246000fd5b634e487b7160e01b600052604160045260246000fd5b6001600160a01b038116811461112857600080fdfe360894a13ba1a3210667c828492db98dca3e2076cc3735a920a3ca505d382bbc416464726573733a206c6f772d6c6576656c2064656c65676174652063616c6c206661696c6564ddf252ad1be2c89b69c2b068fc378daa952ba7f163c4a11628f55a4df523b3efa2646970667358221220763dad6c70d154474cb44072e552424678a068ee7b85a79f177007421974815f64736f6c63430008030033",
  "linkReferences": {},
  "deployedLinkReferences": {}
}