{
  "_format": "hh-sol-artifact-1",
  "contractName": "AAA",
  "sourceName": "contracts/aaa.sol",
  "abi": [
    {
      "inputs": [],
      "stateMutability": "nonpayable",
      "type": "constructor"
    },
    {
      "anonymous": false,
      "inputs": [
        {
          "indexed": false,
          "internalType": "address",
          "name": "previousAdmin",
          "type": "address"
        },
        {
          "indexed": false,
          "internalType": "address",
          "name": "newAdmin",
          "type": "address"
        }
      ],
      "name": "AdminChanged",
      "type": "event"
    },
    {
      "anonymous": false,
      "inputs": [
        {
          "indexed": true,
          "internalType": "address",
          "name": "owner",
          "type": "address"
        },
        {
          "indexed": true,
          "internalType": "address",
          "name": "spender",
          "type": "address"
        },
        {
          "indexed": false,
          "internalType": "uint256",
          "name": "value",
          "type": "uint256"
        }
      ],
      "name": "Approval",
      "type": "event"
    },
    {
      "anonymous": false,
      "inputs": [
        {
          "indexed": true,
          "internalType": "address",
          "name": "beacon",
          "type": "address"
        }
      ],
      "name": "BeaconUpgraded",
      "type": "event"
    },
    {
      "anonymous": false,
      "inputs": [
        {
          "indexed": true,
          "internalType": "address",
          "name": "previousOwner",
          "type": "address"
        },
        {
          "indexed": true,
          "internalType": "address",
          "name": "newOwner",
          "type": "address"
        }
      ],
      "name": "OwnershipTransferred",
      "type": "event"
    },
    {
      "anonymous": false,
      "inputs": [
        {
          "indexed": true,
          "internalType": "address",
          "name": "from",
          "type": "address"
        },
        {
          "indexed": true,
          "internalType": "address",
          "name": "to",
          "type": "address"
        },
        {
          "indexed": false,
          "internalType": "uint256",
          "name": "value",
          "type": "uint256"
        }
      ],
      "name": "Transfer",
      "type": "event"
    },
    {
      "anonymous": false,
      "inputs": [
        {
          "indexed": true,
          "internalType": "address",
          "name": "implementation",
          "type": "address"
        }
      ],
      "name": "Upgraded",
      "type": "event"
    },
    {
      "inputs": [],
      "name": "_burnFee",
      "outputs": [
        {
          "internalType": "uint256",
          "name": "",
          "type": "uint256"
        }
      ],
      "stateMutability": "view",
      "type": "function"
    },
    {
      "inputs": [],
      "name": "_burnStopAtAmount",
      "outputs": [
        {
          "internalType": "uint256",
          "name": "",
          "type": "uint256"
        }
      ],
      "stateMutability": "view",
      "type": "function"
    },
    {
      "inputs": [
        {
          "internalType": "uint256",
          "name": "tAmount",
          "type": "uint256"
        }
      ],
      "name": "_getFeeValues",
      "outputs": [
        {
          "internalType": "uint256",
          "name": "",
          "type": "uint256"
        },
        {
          "internalType": "uint256",
          "name": "",
          "type": "uint256"
        },
        {
          "internalType": "uint256",
          "name": "",
          "type": "uint256"
        }
      ],
      "stateMutability": "view",
      "type": "function"
    },
    {
      "inputs": [],
      "name": "_marketAddress",
      "outputs": [
        {
          "internalType": "address",
          "name": "",
          "type": "address"
        }
      ],
      "stateMutability": "view",
      "type": "function"
    },
    {
      "inputs": [],
      "name": "_marketFee",
      "outputs": [
        {
          "internalType": "uint256",
          "name": "",
          "type": "uint256"
        }
      ],
      "stateMutability": "view",
      "type": "function"
    },
    {
      "inputs": [],
      "name": "_rewardFee",
      "outputs": [
        {
          "internalType": "uint256",
          "name": "",
          "type": "uint256"
        }
      ],
      "stateMutability": "view",
      "type": "function"
    },
    {
      "inputs": [],
      "name": "_routerAddress",
      "outputs": [
        {
          "internalType": "address",
          "name": "",
          "type": "address"
        }
      ],
      "stateMutability": "view",
      "type": "function"
    },
    {
      "inputs": [],
      "name": "_swapAtAmount",
      "outputs": [
        {
          "internalType": "uint256",
          "name": "",
          "type": "uint256"
        }
      ],
      "stateMutability": "view",
      "type": "function"
    },
    {
      "inputs": [
        {
          "internalType": "address",
          "name": "account",
          "type": "address"
        }
      ],
      "name": "addHolder",
      "outputs": [],
      "stateMutability": "nonpayable",
      "type": "function"
    },
    {
      "inputs": [
        {
          "internalType": "address",
          "name": "owner",
          "type": "address"
        },
        {
          "internalType": "address",
          "name": "spender",
          "type": "address"
        }
      ],
      "name": "allowance",
      "outputs": [
        {
          "internalType": "uint256",
          "name": "",
          "type": "uint256"
        }
      ],
      "stateMutability": "view",
      "type": "function"
    },
    {
      "inputs": [
        {
          "internalType": "address",
          "name": "spender",
          "type": "address"
        },
        {
          "internalType": "uint256",
          "name": "amount",
          "type": "uint256"
        }
      ],
      "name": "approve",
      "outputs": [
        {
          "internalType": "bool",
          "name": "",
          "type": "bool"
        }
      ],
      "stateMutability": "nonpayable",
      "type": "function"
    },
    {
      "inputs": [
        {
          "internalType": "address",
          "name": "account",
          "type": "address"
        }
      ],
      "name": "balanceOf",
      "outputs": [
        {
          "internalType": "uint256",
          "name": "",
          "type": "uint256"
        }
      ],
      "stateMutability": "view",
      "type": "function"
    },
    {
      "inputs": [],
      "name": "balanceOfRewad",
      "outputs": [
        {
          "internalType": "uint256",
          "name": "",
          "type": "uint256"
        },
        {
          "internalType": "uint256",
          "name": "",
          "type": "uint256"
        }
      ],
      "stateMutability": "view",
      "type": "function"
    },
    {
      "inputs": [
        {
          "internalType": "address",
          "name": "account",
          "type": "address"
        },
        {
          "internalType": "uint256",
          "name": "amount",
          "type": "uint256"
        }
      ],
      "name": "burn",
      "outputs": [],
      "stateMutability": "nonpayable",
      "type": "function"
    },
    {
      "inputs": [],
      "name": "decimals",
      "outputs": [
        {
          "internalType": "uint8",
          "name": "",
          "type": "uint8"
        }
      ],
      "stateMutability": "view",
      "type": "function"
    },
    {
      "inputs": [
        {
          "internalType": "address",
          "name": "spender",
          "type": "address"
        },
        {
          "internalType": "uint256",
          "name": "subtractedValue",
          "type": "uint256"
        }
      ],
      "name": "decreaseAllowance",
      "outputs": [
        {
          "internalType": "bool",
          "name": "",
          "type": "bool"
        }
      ],
      "stateMutability": "nonpayable",
      "type": "function"
    },
    {
      "inputs": [],
      "name": "excludeAddress",
      "outputs": [
        {
          "internalType": "address",
          "name": "",
          "type": "address"
        }
      ],
      "stateMutability": "view",
      "type": "function"
    },
    {
      "inputs": [],
      "name": "gas",
      "outputs": [
        {
          "internalType": "uint256",
          "name": "",
          "type": "uint256"
        }
      ],
      "stateMutability": "view",
      "type": "function"
    },
    {
      "inputs": [
        {
          "internalType": "address",
          "name": "account",
          "type": "address"
        }
      ],
      "name": "getLiquidityValues",
      "outputs": [
        {
          "internalType": "uint256",
          "name": "",
          "type": "uint256"
        },
        {
          "internalType": "uint256",
          "name": "",
          "type": "uint256"
        }
      ],
      "stateMutability": "view",
      "type": "function"
    },
    {
      "inputs": [
        {
          "internalType": "address",
          "name": "spender",
          "type": "address"
        },
        {
          "internalType": "uint256",
          "name": "addedValue",
          "type": "uint256"
        }
      ],
      "name": "increaseAllowance",
      "outputs": [
        {
          "internalType": "bool",
          "name": "",
          "type": "bool"
        }
      ],
      "stateMutability": "nonpayable",
      "type": "function"
    },
    {
      "inputs": [],
      "name": "initialize",
      "outputs": [],
      "stateMutability": "nonpayable",
      "type": "function"
    },
    {
      "inputs": [
        {
          "internalType": "address",
          "name": "account",
          "type": "address"
        }
      ],
      "name": "isliquidityHolder",
      "outputs": [
        {
          "internalType": "bool",
          "name": "",
          "type": "bool"
        }
      ],
      "stateMutability": "view",
      "type": "function"
    },
    {
      "inputs": [],
      "name": "lastProcessedIndex",
      "outputs": [
        {
          "internalType": "uint256",
          "name": "",
          "type": "uint256"
        }
      ],
      "stateMutability": "view",
      "type": "function"
    },
    {
      "inputs": [],
      "name": "liquidityHolderIndexLength",
      "outputs": [
        {
          "internalType": "uint256",
          "name": "",
          "type": "uint256"
        }
      ],
      "stateMutability": "view",
      "type": "function"
    },
    {
      "inputs": [],
      "name": "liquidityToken",
      "outputs": [
        {
          "internalType": "contract IERC20Upgradeable",
          "name": "",
          "type": "address"
        }
      ],
      "stateMutability": "view",
      "type": "function"
    },
    {
      "inputs": [],
      "name": "name",
      "outputs": [
        {
          "internalType": "string",
          "name": "",
          "type": "string"
        }
      ],
      "stateMutability": "view",
      "type": "function"
    },
    {
      "inputs": [],
      "name": "owner",
      "outputs": [
        {
          "internalType": "address",
          "name": "",
          "type": "address"
        }
      ],
      "stateMutability": "view",
      "type": "function"
    },
    {
      "inputs": [],
      "name": "proxiableUUID",
      "outputs": [
        {
          "internalType": "bytes32",
          "name": "",
          "type": "bytes32"
        }
      ],
      "stateMutability": "view",
      "type": "function"
    },
    {
      "inputs": [
        {
          "internalType": "address",
          "name": "account",
          "type": "address"
        }
      ],
      "name": "removeHolder",
      "outputs": [],
      "stateMutability": "nonpayable",
      "type": "function"
    },
    {
      "inputs": [],
      "name": "renounceOwnership",
      "outputs": [],
      "stateMutability": "nonpayable",
      "type": "function"
    },
    {
      "inputs": [],
      "name": "rewardToken1",
      "outputs": [
        {
          "internalType": "contract IERC20Upgradeable",
          "name": "",
          "type": "address"
        }
      ],
      "stateMutability": "view",
      "type": "function"
    },
    {
      "inputs": [],
      "name": "rewardToken1Amount",
      "outputs": [
        {
          "internalType": "uint256",
          "name": "",
          "type": "uint256"
        }
      ],
      "stateMutability": "view",
      "type": "function"
    },
    {
      "inputs": [],
      "name": "rewardToken1Fee",
      "outputs": [
        {
          "internalType": "uint256",
          "name": "",
          "type": "uint256"
        }
      ],
      "stateMutability": "view",
      "type": "function"
    },
    {
      "inputs": [],
      "name": "rewardToken2",
      "outputs": [
        {
          "internalType": "contract IERC20Upgradeable",
          "name": "",
          "type": "address"
        }
      ],
      "stateMutability": "view",
      "type": "function"
    },
    {
      "inputs": [],
      "name": "rewardToken2Amount",
      "outputs": [
        {
          "internalType": "uint256",
          "name": "",
          "type": "uint256"
        }
      ],
      "stateMutability": "view",
      "type": "function"
    },
    {
      "inputs": [],
      "name": "rewardToken2Fee",
      "outputs": [
        {
          "internalType": "uint256",
          "name": "",
          "type": "uint256"
        }
      ],
      "stateMutability": "view",
      "type": "function"
    },
    {
      "inputs": [
        {
          "internalType": "uint256",
          "name": "burnStopAtAmount",
          "type": "uint256"
        }
      ],
      "name": "setBurnStopAtAmount",
      "outputs": [],
      "stateMutability": "nonpayable",
      "type": "function"
    },
    {
      "inputs": [
        {
          "internalType": "address",
          "name": "_account",
          "type": "address"
        }
      ],
      "name": "setExcludeAddress",
      "outputs": [],
      "stateMutability": "nonpayable",
      "type": "function"
    },
    {
      "inputs": [
        {
          "internalType": "uint256",
          "name": "rewardFee",
          "type": "uint256"
        },
        {
          "internalType": "uint256",
          "name": "burnFee",
          "type": "uint256"
        }
      ],
      "name": "setFee",
      "outputs": [],
      "stateMutability": "nonpayable",
      "type": "function"
    },
    {
      "inputs": [
        {
          "internalType": "uint256",
          "name": "_rewardToken1Amount",
          "type": "uint256"
        },
        {
          "internalType": "uint256",
          "name": "_rewardToken2Amount",
          "type": "uint256"
        }
      ],
      "name": "setRewardTokenAmount",
      "outputs": [],
      "stateMutability": "nonpayable",
      "type": "function"
    },
    {
      "inputs": [
        {
          "internalType": "uint256",
          "name": "_rewardToken1Free",
          "type": "uint256"
        },
        {
          "internalType": "uint256",
          "name": "_rewardToken2Free",
          "type": "uint256"
        }
      ],
      "name": "setRewardTokenFree",
      "outputs": [],
      "stateMutability": "nonpayable",
      "type": "function"
    },
    {
      "inputs": [
        {
          "internalType": "address",
          "name": "_rewardToken1",
          "type": "address"
        },
        {
          "internalType": "address",
          "name": "_rewardToken2",
          "type": "address"
        }
      ],
      "name": "setRewardTokens",
      "outputs": [],
      "stateMutability": "nonpayable",
      "type": "function"
    },
    {
      "inputs": [
        {
          "internalType": "uint256",
          "name": "rewardAtAmount",
          "type": "uint256"
        }
      ],
      "name": "setSwapAtAmount",
      "outputs": [],
      "stateMutability": "nonpayable",
      "type": "function"
    },
    {
      "inputs": [
        {
          "internalType": "address",
          "name": "addr",
          "type": "address"
        }
      ],
      "name": "setUniswapV2Pair",
      "outputs": [],
      "stateMutability": "nonpayable",
      "type": "function"
    },
    {
      "inputs": [
        {
          "internalType": "address",
          "name": "addr",
          "type": "address"
        }
      ],
      "name": "setliquidityAddress",
      "outputs": [],
      "stateMutability": "nonpayable",
      "type": "function"
    },
    {
      "inputs": [],
      "name": "symbol",
      "outputs": [
        {
          "internalType": "string",
          "name": "",
          "type": "string"
        }
      ],
      "stateMutability": "view",
      "type": "function"
    },
    {
      "inputs": [
        {
          "internalType": "address",
          "name": "token",
          "type": "address"
        }
      ],
      "name": "take",
      "outputs": [],
      "stateMutability": "nonpayable",
      "type": "function"
    },
    {
      "inputs": [],
      "name": "totalSupply",
      "outputs": [
        {
          "internalType": "uint256",
          "name": "",
          "type": "uint256"
        }
      ],
      "stateMutability": "view",
      "type": "function"
    },
    {
      "inputs": [
        {
          "internalType": "address",
          "name": "to",
          "type": "address"
        },
        {
          "internalType": "uint256",
          "name": "amount",
          "type": "uint256"
        }
      ],
      "name": "transfer",
      "outputs": [
        {
          "internalType": "bool",
          "name": "",
          "type": "bool"
        }
      ],
      "stateMutability": "nonpayable",
      "type": "function"
    },
    {
      "inputs": [
        {
          "internalType": "address[]",
          "name": "recipients",
          "type": "address[]"
        },
        {
          "internalType": "uint256",
          "name": "amount",
          "type": "uint256"
        }
      ],
      "name": "transferBatch",
      "outputs": [
        {
          "internalType": "bool",
          "name": "",
          "type": "bool"
        }
      ],
      "stateMutability": "nonpayable",
      "type": "function"
    },
    {
      "inputs": [
        {
          "internalType": "address",
          "name": "from",
          "type": "address"
        },
        {
          "internalType": "address",
          "name": "to",
          "type": "address"
        },
        {
          "internalType": "uint256",
          "name": "amount",
          "type": "uint256"
        }
      ],
      "name": "transferFrom",
      "outputs": [
        {
          "internalType": "bool",
          "name": "",
          "type": "bool"
        }
      ],
      "stateMutability": "nonpayable",
      "type": "function"
    },
    {
      "inputs": [
        {
          "internalType": "address",
          "name": "newOwner",
          "type": "address"
        }
      ],
      "name": "transferOwnership",
      "outputs": [],
      "stateMutability": "nonpayable",
      "type": "function"
    },
    {
      "inputs": [],
      "name": "uniswapV2Pair",
      "outputs": [
        {
          "internalType": "address",
          "name": "",
          "type": "address"
        }
      ],
      "stateMutability": "view",
      "type": "function"
    },
    {
      "inputs": [],
      "name": "uniswapV2Router",
      "outputs": [
        {
          "internalType": "contract IUniswapV2Router02",
          "name": "",
          "type": "address"
        }
      ],
      "stateMutability": "view",
      "type": "function"
    },
    {
      "inputs": [
        {
          "internalType": "uint256",
          "name": "newValue",
          "type": "uint256"
        }
      ],
      "name": "updateGasForProcessing",
      "outputs": [],
      "stateMutability": "nonpayable",
      "type": "function"
    },
    {
      "inputs": [
        {
          "internalType": "address",
          "name": "newImplementation",
          "type": "address"
        }
      ],
      "name": "upgradeTo",
      "outputs": [],
      "stateMutability": "nonpayable",
      "type": "function"
    },
    {
      "inputs": [
        {
          "internalType": "address",
          "name": "newImplementation",
          "type": "address"
        },
        {
          "internalType": "bytes",
          "name": "data",
          "type": "bytes"
        }
      ],
      "name": "upgradeToAndCall",
      "outputs": [],
      "stateMutability": "payable",
      "type": "function"
    },
    {
      "stateMutability": "payable",
      "type": "receive"
    }
  ],
  "bytecode": "0x60a06040523060601b6080523480156200001857600080fd5b50600054610100900460ff16620000365760005460ff161562000040565b62000040620000e5565b620000a85760405162461bcd60e51b815260206004820152602e60248201527f496e697469616c697a61626c653a20636f6e747261637420697320616c72656160448201526d191e481a5b9a5d1a585b1a5e995960921b606482015260840160405180910390fd5b600054610100900460ff16158015620000cb576000805461ffff19166101011790555b8015620000de576000805461ff00191690555b5062000112565b6000620000fd306200010360201b620020591760201c565b15905090565b6001600160a01b03163b151590565b60805160601c613e176200014d60003960008181610f8901528181610fc9015281816111db0152818161121b01526112aa0152613e176000f3fe60806040526004361061037a5760003560e01c806370a08231116101d1578063a9059cbb11610102578063d61a47f1116100a0578063dd62ed3e1161006f578063dd62ed3e146109fc578063efc3b7bd14610a42578063f2929b2314610a59578063f2fde38b14610a7057610381565b8063d61a47f11461097a578063d872a4cc1461099b578063d9e66460146109bb578063dc697bcb146109dc57610381565b8063c0b0fda2116100dc578063c0b0fda214610922578063c5c3cbda14610939578063cb05114f1461094e578063cb8446b21461096357610381565b8063a9059cbb146108c2578063ac1e17df146108e2578063bb231ceb1461090257610381565b8063871c128d1161016f57806395d89b411161014957806395d89b411461084d5780639dc29fac14610862578063a29a608914610882578063a457c2d7146108a257610381565b8063871c128d146107ef5780638da5cb5b1461080f5780638dd428081461082d57610381565b80637faf0edf116101ab5780637faf0edf14610783578063806e085e146107a45780638129fc1c146107c457806384d6ff2f146107d957610381565b806370a0823114610718578063715018a61461074e57806378fa66481461076357610381565b806343cd8f7e116102ab57806352f7c988116102495780636775d967116102235780636775d967146106ad5780636ca7c216146106cd5780636d1fc4d1146106e05780636f28d688146106f757610381565b806352f7c9881461064d57806360a2c14d1461066d5780636402511e1461068d57610381565b80634d44e663116102855780634d44e663146105ef5780634f1ef2861461060f57806351fde4bb1461062257806352d1902d1461063857610381565b806343cd8f7e14610596578063490e32cc146105b757806349bd5a5e146105ce57610381565b806323b872dd11610318578063313ce567116102f2578063313ce567146104ff57806335773b881461051b5780633659cfe614610556578063395093511461057657610381565b806323b872dd146104a657806326330dab146104c65780633009a609146104e857610381565b8063166d8a9111610354578063166d8a91146104165780631694505e1461044f57806318160ddd146104705780631a536a321461048f57610381565b806306fdde0314610386578063095ea7b3146103b157806315cba925146103e157610381565b3661038157005b600080fd5b34801561039257600080fd5b5061039b610a90565b6040516103a891906138be565b60405180910390f35b3480156103bd57600080fd5b506103d16103cc36600461374c565b610b22565b60405190151581526020016103a8565b3480156103ed57600080fd5b506104016103fc3660046135fa565b610b3c565b604080519283526020830191909152016103a8565b34801561042257600080fd5b5061010f54610437906001600160a01b031681565b6040516001600160a01b0390911681526020016103a8565b34801561045b57600080fd5b5061010854610437906001600160a01b031681565b34801561047c57600080fd5b506035545b6040519081526020016103a8565b34801561049b57600080fd5b5061048161010d5481565b3480156104b257600080fd5b506103d16104c136600461366a565b610cfa565b3480156104d257600080fd5b506104e66104e1366004613881565b610ed4565b005b3480156104f457600080fd5b506104816101105481565b34801561050b57600080fd5b50604051601281526020016103a8565b34801561052757600080fd5b5061053b610536366004613869565b610f14565b604080519384526020840192909252908201526060016103a8565b34801561056257600080fd5b506104e66105713660046135fa565b610f7e565b34801561058257600080fd5b506103d161059136600461374c565b61105e565b3480156105a257600080fd5b5061010c54610437906001600160a01b031681565b3480156105c357600080fd5b506104816101015481565b3480156105da57600080fd5b5061010954610437906001600160a01b031681565b3480156105fb57600080fd5b506104e661060a3660046135fa565b61109d565b6104e661061d3660046136aa565b6111d0565b34801561062e57600080fd5b5061048160fe5481565b34801561064457600080fd5b5061048161129d565b34801561065957600080fd5b506104e6610668366004613881565b611350565b34801561067957600080fd5b506104e6610688366004613881565b611386565b34801561069957600080fd5b506104e66106a8366004613869565b6113bd565b3480156106b957600080fd5b506104e66106c83660046135fa565b6113ed565b3480156106d957600080fd5b5047610481565b3480156106ec57600080fd5b506104816101025481565b34801561070357600080fd5b5061010a54610437906001600160a01b031681565b34801561072457600080fd5b506104816107333660046135fa565b6001600160a01b031660009081526033602052604090205490565b34801561075a57600080fd5b506104e661143a565b34801561076f57600080fd5b506104e661077e3660046135fa565b611470565b34801561078f57600080fd5b5061010354610437906001600160a01b031681565b3480156107b057600080fd5b506103d16107bf366004613777565b6114bd565b3480156107d057600080fd5b506104e6611518565b3480156107e557600080fd5b5061048160ff5481565b3480156107fb57600080fd5b506104e661080a366004613869565b6119a8565b34801561081b57600080fd5b5060c9546001600160a01b0316610437565b34801561083957600080fd5b506104e66108483660046135fa565b611acc565b34801561085957600080fd5b5061039b611b01565b34801561086e57600080fd5b506104e661087d36600461374c565b611b10565b34801561088e57600080fd5b506104e661089d3660046135fa565b611b44565b3480156108ae57600080fd5b506103d16108bd36600461374c565b611b91565b3480156108ce57600080fd5b506103d16108dd36600461374c565b611c2e565b3480156108ee57600080fd5b506104e66108fd3660046135fa565b611ddf565b34801561090e57600080fd5b506103d161091d3660046135fa565b611e14565b34801561092e57600080fd5b506104816101005481565b34801561094557600080fd5b50610401611e21565b34801561095a57600080fd5b50610481611f26565b34801561096f57600080fd5b506104816101055481565b34801561098657600080fd5b5061010b54610437906001600160a01b031681565b3480156109a757600080fd5b506104e66109b6366004613632565b611f37565b3480156109c757600080fd5b5061010454610437906001600160a01b031681565b3480156109e857600080fd5b506104e66109f7366004613869565b611f91565b348015610a0857600080fd5b50610481610a17366004613632565b6001600160a01b03918216600090815260346020908152604080832093909416825291909152205490565b348015610a4e57600080fd5b5061048161010e5481565b348015610a6557600080fd5b506104816101065481565b348015610a7c57600080fd5b506104e6610a8b3660046135fa565b611fc1565b606060368054610a9f90613ce3565b80601f0160208091040260200160405190810160405280929190818152602001828054610acb90613ce3565b8015610b185780601f10610aed57610100808354040283529160200191610b18565b820191906000526020600020905b815481529060010190602001808311610afb57829003601f168201915b5050505050905090565b600033610b30818585612068565b60019150505b92915050565b600080600061010c60009054906101000a90046001600160a01b03166001600160a01b03166318160ddd6040518163ffffffff1660e01b815260040160206040518083038186803b158015610b9057600080fd5b505afa158015610ba4573d6000803e3d6000fd5b505050506040513d601f19601f82011682018060405250810190610bc89190613851565b905080610bdc576000809250925050610cf5565b61010c5461010f546040516370a0823160e01b81526001600160a01b03918216600482015260009291909116906370a082319060240160206040518083038186803b158015610c2a57600080fd5b505afa158015610c3e573d6000803e3d6000fd5b505050506040513d601f19601f82011682018060405250810190610c629190613851565b9050610c6e828261218d565b61010c546040516370a0823160e01b81526001600160a01b0388811660048301529294509116906370a082319060240160206040518083038186803b158015610cb657600080fd5b505afa158015610cca573d6000803e3d6000fd5b505050506040513d601f19601f82011682018060405250810190610cee9190613851565b9350909150505b915091565b60c95460009033906001600160a01b03868116911614801590610d495750610104546001600160a01b0316336001600160a01b03161480610d495750610109546001600160a01b038581169116145b8015610d5a57506101065460355410155b15610d6f57610d6a858585612199565b610d7a565b610d7a8585856123c1565b610d85858285612505565b61010c546040516370a0823160e01b81526001600160a01b03878116600483015260009216906370a082319060240160206040518083038186803b158015610dcc57600080fd5b505afa158015610de0573d6000803e3d6000fd5b505050506040513d601f19601f82011682018060405250810190610e049190613851565b118015610e175750610e1585611e14565b155b15610e2a57610e2585611ddf565b610ec7565b61010c546040516370a0823160e01b81526001600160a01b038781166004830152909116906370a082319060240160206040518083038186803b158015610e7057600080fd5b505afa158015610e84573d6000803e3d6000fd5b505050506040513d601f19601f82011682018060405250810190610ea89190613851565b158015610eb95750610eb985611e14565b15610ec757610ec785611acc565b60019150505b9392505050565b60c9546001600160a01b03163314610f075760405162461bcd60e51b8152600401610efe906139cc565b60405180910390fd5b61010d9190915561010e55565b600080600080610f3c612710610f36610100548861259190919063ffffffff16565b9061259d565b9050610f48858261218d565b94506000610f67612710610f3660fe548961259190919063ffffffff16565b9050610f73868261218d565b969195509350915050565b306001600160a01b037f0000000000000000000000000000000000000000000000000000000000000000161415610fc75760405162461bcd60e51b8152600401610efe90613934565b7f00000000000000000000000000000000000000000000000000000000000000006001600160a01b0316611010600080516020613d7b833981519152546001600160a01b031690565b6001600160a01b0316146110365760405162461bcd60e51b8152600401610efe90613980565b61103f816125a9565b6040805160008082526020820190925261105b918391906125d3565b50565b3360008181526034602090815260408083206001600160a01b0387168452909152812054909190610b309082908690611098908790613b32565b612068565b60c9546001600160a01b031633146110c75760405162461bcd60e51b8152600401610efe906139cc565b6001600160a01b03811663a9059cbb336040516370a0823160e01b81523060048201526001600160a01b038516906370a082319060240160206040518083038186803b15801561111657600080fd5b505afa15801561112a573d6000803e3d6000fd5b505050506040513d601f19601f8201168201806040525081019061114e9190613851565b6040516001600160e01b031960e085901b1681526001600160a01b0390921660048301526024820152604401602060405180830381600087803b15801561119457600080fd5b505af11580156111a8573d6000803e3d6000fd5b505050506040513d601f19601f820116820180604052508101906111cc9190613831565b5050565b306001600160a01b037f00000000000000000000000000000000000000000000000000000000000000001614156112195760405162461bcd60e51b8152600401610efe90613934565b7f00000000000000000000000000000000000000000000000000000000000000006001600160a01b0316611262600080516020613d7b833981519152546001600160a01b031690565b6001600160a01b0316146112885760405162461bcd60e51b8152600401610efe90613980565b611291826125a9565b6111cc828260016125d3565b6000306001600160a01b037f0000000000000000000000000000000000000000000000000000000000000000161461133d5760405162461bcd60e51b815260206004820152603860248201527f555550535570677261646561626c653a206d757374206e6f742062652063616c60448201527f6c6564207468726f7567682064656c656761746563616c6c00000000000000006064820152608401610efe565b50600080516020613d7b83398151915290565b60c9546001600160a01b0316331461137a5760405162461bcd60e51b8152600401610efe906139cc565b60fe9190915561010055565b60c9546001600160a01b031633146113b05760405162461bcd60e51b8152600401610efe906139cc565b6101019190915561010255565b60c9546001600160a01b031633146113e75760405162461bcd60e51b8152600401610efe906139cc565b61010555565b60c9546001600160a01b031633146114175760405162461bcd60e51b8152600401610efe906139cc565b61010c80546001600160a01b0319166001600160a01b0392909216919091179055565b60c9546001600160a01b031633146114645760405162461bcd60e51b8152600401610efe906139cc565b61146e6000612757565b565b60c9546001600160a01b0316331461149a5760405162461bcd60e51b8152600401610efe906139cc565b61010f80546001600160a01b0319166001600160a01b0392909216919091179055565b6000805b835181101561150e576114fc338583815181106114ee57634e487b7160e01b600052603260045260246000fd5b6020026020010151856123c1565b8061150681613d1e565b9150506114c1565b5060019392505050565b600054610100900460ff166115335760005460ff1615611537565b303b155b61159a5760405162461bcd60e51b815260206004820152602e60248201527f496e697469616c697a61626c653a20636f6e747261637420697320616c72656160448201526d191e481a5b9a5d1a585b1a5e995960921b6064820152608401610efe565b600054610100900460ff161580156115bc576000805461ffff19166101011790555b6116036040518060400160405280600a81526020016925bab0b33a9021b7b4b760b11b815250604051806040016040528060038152602001624b464360e81b8152506127a9565b61160b6127da565b611613612809565b611634336116236012600a613bb0565b61162f90612710613c81565b612830565b61019060fe5560646101005560326101018190556101025561010480546001600160a01b03191673d99d1c33f9fc3444f8101754abc46c52416550d117905561167b601290565b61168690600a613bb0565b61169190600f613c81565b610105556116a16012600a613bb0565b6116ad90610384613c81565b61010655617530610107556101045461010880546001600160a01b0319166001600160a01b0390921691821790556040805163c45a015560e01b8152905163c45a015591600480820192602092909190829003018186803b15801561171157600080fd5b505afa158015611725573d6000803e3d6000fd5b505050506040513d601f19601f820116820180604052508101906117499190613616565b6001600160a01b031663c9c653963061010860009054906101000a90046001600160a01b03166001600160a01b031663ad5c46486040518163ffffffff1660e01b815260040160206040518083038186803b1580156117a757600080fd5b505afa1580156117bb573d6000803e3d6000fd5b505050506040513d601f19601f820116820180604052508101906117df9190613616565b6040516001600160e01b031960e085901b1681526001600160a01b03928316600482015291166024820152604401602060405180830381600087803b15801561182757600080fd5b505af115801561183b573d6000803e3d6000fd5b505050506040513d601f19601f8201168201806040525081019061185f9190613616565b61010980546001600160a01b039283166001600160a01b0319918216811790925561010c8054909116909117905561010854604080516315ab88c960e31b81529051919092169163ad5c4648916004808301926020929190829003018186803b1580156118cb57600080fd5b505afa1580156118df573d6000803e3d6000fd5b505050506040513d601f19601f820116820180604052508101906119039190613616565b61010a80546001600160a01b03929092166001600160a01b031992831617905561010b8054909116737ef95a0fee0dd31b22626fa2e10ee6a223f8a6841790556702c68af0bb14000061010d556302625a0061010e556119603390565b6001600160a01b03166000600080516020613dc283398151915261198360355490565b60405190815260200160405180910390a3801561105b576000805461ff001916905550565b60c9546001600160a01b031633146119d25760405162461bcd60e51b8152600401610efe906139cc565b62030d4081101580156119e857506207a1208111155b611a5a5760405162461bcd60e51b815260206004820152603860248201527f424b3a20676173466f7250726f63657373696e67206d7573742062652062657460448201527f7765656e203230302c30303020616e64203530302c30303000000000000000006064820152608401610efe565b61010754811415611ac65760405162461bcd60e51b815260206004820152603060248201527f424b3a2043616e6e6f742075706461746520676173466f7250726f636573736960448201526f6e6720746f2073616d652076616c756560801b6064820152608401610efe565b61010755565b60c9546001600160a01b03163314611af65760405162461bcd60e51b8152600401610efe906139cc565b6111cc60fb826128fe565b606060378054610a9f90613ce3565b60c9546001600160a01b03163314611b3a5760405162461bcd60e51b8152600401610efe906139cc565b6111cc8282612913565b60c9546001600160a01b03163314611b6e5760405162461bcd60e51b8152600401610efe906139cc565b61010980546001600160a01b0319166001600160a01b0392909216919091179055565b3360008181526034602090815260408083206001600160a01b038716845290915281205490919083811015611c165760405162461bcd60e51b815260206004820152602560248201527f45524332303a2064656372656173656420616c6c6f77616e63652062656c6f77604482015264207a65726f60d81b6064820152608401610efe565b611c238286868403612068565b506001949350505050565b610109546000906001600160a01b0316336001600160a01b0316148015611c5a57506101065460355410155b15611c6f57611c6a338484612199565b611c7a565b611c7a3384846123c1565b61010c546000906001600160a01b03166370a08231336040516001600160e01b031960e084901b1681526001600160a01b03909116600482015260240160206040518083038186803b158015611ccf57600080fd5b505afa158015611ce3573d6000803e3d6000fd5b505050506040513d601f19601f82011682018060405250810190611d079190613851565b118015611d1a5750611d183361091d565b155b15611d2d57611d28336108fd565b611dd6565b61010c546001600160a01b03166370a08231336040516001600160e01b031960e084901b1681526001600160a01b03909116600482015260240160206040518083038186803b158015611d7f57600080fd5b505afa158015611d93573d6000803e3d6000fd5b505050506040513d601f19601f82011682018060405250810190611db79190613851565b158015611dc85750611dc83361091d565b15611dd657611dd633610848565b50600192915050565b60c9546001600160a01b03163314611e095760405162461bcd60e51b8152600401610efe906139cc565b6111cc60fb82612a4f565b6000610b3660fb83612a64565b61010a546040516370a0823160e01b815230600482015260009182916001600160a01b03909116906370a082319060240160206040518083038186803b158015611e6a57600080fd5b505afa158015611e7e573d6000803e3d6000fd5b505050506040513d601f19601f82011682018060405250810190611ea29190613851565b61010b546040516370a0823160e01b81523060048201526001600160a01b03909116906370a082319060240160206040518083038186803b158015611ee657600080fd5b505afa158015611efa573d6000803e3d6000fd5b505050506040513d601f19601f82011682018060405250810190611f1e9190613851565b915091509091565b6000611f3260fb612a86565b905090565b60c9546001600160a01b03163314611f615760405162461bcd60e51b8152600401610efe906139cc565b61010a80546001600160a01b039384166001600160a01b03199182161790915561010b8054929093169116179055565b60c9546001600160a01b03163314611fbb5760405162461bcd60e51b8152600401610efe906139cc565b61010655565b60c9546001600160a01b03163314611feb5760405162461bcd60e51b8152600401610efe906139cc565b6001600160a01b0381166120505760405162461bcd60e51b815260206004820152602660248201527f4f776e61626c653a206e6577206f776e657220697320746865207a65726f206160448201526564647265737360d01b6064820152608401610efe565b61105b81612757565b6001600160a01b03163b151590565b6001600160a01b0383166120ca5760405162461bcd60e51b8152602060048201526024808201527f45524332303a20617070726f76652066726f6d20746865207a65726f206164646044820152637265737360e01b6064820152608401610efe565b6001600160a01b03821661212b5760405162461bcd60e51b815260206004820152602260248201527f45524332303a20617070726f766520746f20746865207a65726f206164647265604482015261737360f01b6064820152608401610efe565b6001600160a01b0383811660008181526034602090815260408083209487168084529482529182902085905590518481527f8c5be1e5ebec7d5bd14f71427d1e84f3dd0314c0f7b2291e5b200ac8c7c3b92591015b60405180910390a3505050565b6000610ecd8284613ca0565b6001600160a01b0383166121bf5760405162461bcd60e51b8152600401610efe90613a01565b6001600160a01b0382166121e55760405162461bcd60e51b8152600401610efe906138f1565b600081116122475760405162461bcd60e51b815260206004820152602960248201527f5472616e7366657220616d6f756e74206d7573742062652067726561746572206044820152687468616e207a65726f60b81b6064820152608401610efe565b60fd5460ff1615801561226c5750610105543060009081526033602052604090205410155b156123215760fd805460ff1916600117905561010154156122cd576122cd6122bb6064610f36610101546122b5306001600160a01b031660009081526033602052604090205490565b90612591565b61010a546001600160a01b0316612a90565b6101015415612316576123166123046064610f36610102546122b5306001600160a01b031660009081526033602052604090205490565b61010b546001600160a01b0316612a90565b60fd805460ff191690555b60fd5460ff1661238e57600080600061233984610f14565b925092509250610106546123568361235060355490565b9061218d565b10612368576123688661010054612913565b6123738630836123c1565b61237e8686856123c1565b61238a61010754612c5d565b5050505b816001600160a01b0316836001600160a01b0316600080516020613dc28339815191528360405161218091815260200190565b6001600160a01b0383166123e75760405162461bcd60e51b8152600401610efe90613a01565b6001600160a01b03821661240d5760405162461bcd60e51b8152600401610efe906138f1565b6001600160a01b038316600090815260336020526040902054818110156124855760405162461bcd60e51b815260206004820152602660248201527f45524332303a207472616e7366657220616d6f756e7420657863656564732062604482015265616c616e636560d01b6064820152608401610efe565b6001600160a01b038085166000908152603360205260408082208585039055918516815290812080548492906124bc908490613b32565b92505081905550826001600160a01b0316846001600160a01b0316600080516020613dc2833981519152846040516124f691815260200190565b60405180910390a35b50505050565b6001600160a01b0383811660009081526034602090815260408083209386168352929052205460001981146124ff57818110156125845760405162461bcd60e51b815260206004820152601d60248201527f45524332303a20696e73756666696369656e7420616c6c6f77616e63650000006044820152606401610efe565b6124ff8484848403612068565b6000610ecd8284613c81565b6000610ecd8284613b4a565b60c9546001600160a01b0316331461105b5760405162461bcd60e51b8152600401610efe906139cc565b7f4910fdfa16fed3260ed0e7147f7cc6da11a60208b5b9406d12a635614ffd91435460ff161561260b57612606836130f9565b612752565b826001600160a01b03166352d1902d6040518163ffffffff1660e01b815260040160206040518083038186803b15801561264457600080fd5b505afa925050508015612674575060408051601f3d908101601f1916820190925261267191810190613851565b60015b6126d75760405162461bcd60e51b815260206004820152602e60248201527f45524331393637557067726164653a206e657720696d706c656d656e7461746960448201526d6f6e206973206e6f74205555505360901b6064820152608401610efe565b600080516020613d7b83398151915281146127465760405162461bcd60e51b815260206004820152602960248201527f45524331393637557067726164653a20756e737570706f727465642070726f786044820152681a58589b195555525160ba1b6064820152608401610efe565b50612752838383613195565b505050565b60c980546001600160a01b038381166001600160a01b0319831681179093556040519116919082907f8be0079c531659141344cd1fd0a4f28419497f9722a3daafe3b4186f6b6457e090600090a35050565b600054610100900460ff166127d05760405162461bcd60e51b8152600401610efe90613a46565b6111cc82826131ba565b600054610100900460ff166128015760405162461bcd60e51b8152600401610efe90613a46565b61146e613208565b600054610100900460ff1661146e5760405162461bcd60e51b8152600401610efe90613a46565b6001600160a01b0382166128865760405162461bcd60e51b815260206004820152601f60248201527f45524332303a206d696e7420746f20746865207a65726f2061646472657373006044820152606401610efe565b80603560008282546128989190613b32565b90915550506001600160a01b038216600090815260336020526040812080548392906128c5908490613b32565b90915550506040518181526001600160a01b03831690600090600080516020613dc28339815191529060200160405180910390a36111cc565b6000610ecd836001600160a01b038416613238565b6001600160a01b0382166129735760405162461bcd60e51b815260206004820152602160248201527f45524332303a206275726e2066726f6d20746865207a65726f206164647265736044820152607360f81b6064820152608401610efe565b6001600160a01b038216600090815260336020526040902054818110156129e75760405162461bcd60e51b815260206004820152602260248201527f45524332303a206275726e20616d6f756e7420657863656564732062616c616e604482015261636560f01b6064820152608401610efe565b6001600160a01b0383166000908152603360205260408120838303905560358054849290612a16908490613ca0565b90915550506040518281526000906001600160a01b03851690600080516020613dc28339815191529060200160405180910390a3612752565b6000610ecd836001600160a01b038416613355565b6001600160a01b03811660009081526001830160205260408120541515610ecd565b6000610b36825490565b60408051600380825260808201909252600091602082016060803683370190505090503081600081518110612ad557634e487b7160e01b600052603260045260246000fd5b6001600160a01b0392831660209182029290920181019190915261010854604080516315ab88c960e31b81529051919093169263ad5c4648926004808301939192829003018186803b158015612b2a57600080fd5b505afa158015612b3e573d6000803e3d6000fd5b505050506040513d601f19601f82011682018060405250810190612b629190613616565b81600181518110612b8357634e487b7160e01b600052603260045260246000fd5b60200260200101906001600160a01b031690816001600160a01b0316815250508181600281518110612bc557634e487b7160e01b600052603260045260246000fd5b6001600160a01b03928316602091820292909201015261010854612bec9130911685612068565b61010854604051635c11d79560e01b81526001600160a01b0390911690635c11d79590612c26908690600090869030904290600401613a91565b600060405180830381600087803b158015612c4057600080fd5b505af1158015612c54573d6000803e3d6000fd5b50505050505050565b6000612c6960fb612a86565b9050801580612cf5575061010d5461010a546040516370a0823160e01b81523060048201526001600160a01b03909116906370a082319060240160206040518083038186803b158015612cbb57600080fd5b505afa158015612ccf573d6000803e3d6000fd5b505050506040513d601f19601f82011682018060405250810190612cf39190613851565b105b80612d7d575061010e5461010b546040516370a0823160e01b81523060048201526001600160a01b03909116906370a082319060240160206040518083038186803b158015612d4357600080fd5b505afa158015612d57573d6000803e3d6000fd5b505050506040513d601f19601f82011682018060405250810190612d7b9190613851565b105b15612d88575061105b565b610110546000805a905060005b8583108015612da357508481105b156130ee5780612db281613d1e565b915050612dbf60fb612a86565b8410612dca57600093505b6000612dd760fb866133a4565b9050600080612de583610b3c565b915091508160001415612e0657612dfd60fb846128fe565b50505050612d95565b6000612e2282610f368561010d5461259190919063ffffffff16565b90506000612e4083610f368661010e5461259190919063ffffffff16565b61010a546040516370a0823160e01b815230600482015291925083916001600160a01b03909116906370a082319060240160206040518083038186803b158015612e8957600080fd5b505afa158015612e9d573d6000803e3d6000fd5b505050506040513d601f19601f82011682018060405250810190612ec19190613851565b1080612f46575061010b546040516370a0823160e01b815230600482015282916001600160a01b0316906370a082319060240160206040518083038186803b158015612f0c57600080fd5b505afa158015612f20573d6000803e3d6000fd5b505050506040513d601f19601f82011682018060405250810190612f449190613851565b105b15612f5a575050505050505050505061105b565b600084118015612f6a5750600083115b8015612f85575061010f546001600160a01b03868116911614155b8015612f9957506001600160a01b03851615155b156130af5761010a5460405163a9059cbb60e01b81526001600160a01b038781166004830152602482018590529091169063a9059cbb90604401602060405180830381600087803b158015612fed57600080fd5b505af1158015613001573d6000803e3d6000fd5b505050506040513d601f19601f820116820180604052508101906130259190613831565b5061010b5460405163a9059cbb60e01b81526001600160a01b038781166004830152602482018490529091169063a9059cbb90604401602060405180830381600087803b15801561307557600080fd5b505af1158015613089573d6000803e3d6000fd5b505050506040513d601f19601f820116820180604052508101906130ad9190613831565b505b60005a9050808811156130d3576130d06130c9898361218d565b8a906133b0565b98505b965086896130e081613d1e565b9a5050505050505050612d95565b505050610110555050565b6001600160a01b0381163b6131665760405162461bcd60e51b815260206004820152602d60248201527f455243313936373a206e657720696d706c656d656e746174696f6e206973206e60448201526c1bdd08184818dbdb9d1c9858dd609a1b6064820152608401610efe565b600080516020613d7b83398151915280546001600160a01b0319166001600160a01b0392909216919091179055565b61319e836133bc565b6000825111806131ab5750805b15612752576124ff83836133fc565b600054610100900460ff166131e15760405162461bcd60e51b8152600401610efe90613a46565b81516131f4906036906020850190613561565b508051612752906037906020840190613561565b600054610100900460ff1661322f5760405162461bcd60e51b8152600401610efe90613a46565b61146e33612757565b6000818152600183016020526040812054801561334b57600061325c600183613ca0565b855490915060009061327090600190613ca0565b90508181146132f157600086600001828154811061329e57634e487b7160e01b600052603260045260246000fd5b90600052602060002001549050808760000184815481106132cf57634e487b7160e01b600052603260045260246000fd5b6000918252602080832090910192909255918252600188019052604090208390555b855486908061331057634e487b7160e01b600052603160045260246000fd5b600190038181906000526020600020016000905590558560010160008681526020019081526020016000206000905560019350505050610b36565b6000915050610b36565b600081815260018301602052604081205461339c57508154600181810184556000848152602080822090930184905584548482528286019093526040902091909155610b36565b506000610b36565b6000610ecd83836134f0565b6000610ecd8284613b32565b6133c5816130f9565b6040516001600160a01b038216907fbc7cd75a20ee27fd9adebab32041f755214dbc6bffa90cc0225b39da2e5c2d3b90600090a250565b60606001600160a01b0383163b6134645760405162461bcd60e51b815260206004820152602660248201527f416464726573733a2064656c65676174652063616c6c20746f206e6f6e2d636f6044820152651b9d1c9858dd60d21b6064820152608401610efe565b600080846001600160a01b03168460405161347f91906138a2565b600060405180830381855af49150503d80600081146134ba576040519150601f19603f3d011682016040523d82523d6000602084013e6134bf565b606091505b50915091506134e78282604051806060016040528060278152602001613d9b60279139613528565b95945050505050565b600082600001828154811061351557634e487b7160e01b600052603260045260246000fd5b9060005260206000200154905092915050565b60608315613537575081610ecd565b8251156135475782518084602001fd5b8160405162461bcd60e51b8152600401610efe91906138be565b82805461356d90613ce3565b90600052602060002090601f01602090048101928261358f57600085556135d5565b82601f106135a857805160ff19168380011785556135d5565b828001600101855582156135d5579182015b828111156135d55782518255916020019190600101906135ba565b506135e19291506135e5565b5090565b5b808211156135e157600081556001016135e6565b60006020828403121561360b578081fd5b8135610ecd81613d65565b600060208284031215613627578081fd5b8151610ecd81613d65565b60008060408385031215613644578081fd5b823561364f81613d65565b9150602083013561365f81613d65565b809150509250929050565b60008060006060848603121561367e578081fd5b833561368981613d65565b9250602084013561369981613d65565b929592945050506040919091013590565b600080604083850312156136bc578182fd5b82356136c781613d65565b915060208381013567ffffffffffffffff808211156136e4578384fd5b818601915086601f8301126136f7578384fd5b81358181111561370957613709613d4f565b61371b601f8201601f19168501613b01565b91508082528784828501011115613730578485fd5b8084840185840137810190920192909252919491935090915050565b6000806040838503121561375e578182fd5b823561376981613d65565b946020939093013593505050565b60008060408385031215613789578182fd5b823567ffffffffffffffff808211156137a0578384fd5b818501915085601f8301126137b3578384fd5b81356020828211156137c7576137c7613d4f565b8160051b92506137d8818401613b01565b8281528181019085830185870184018b10156137f2578889fd5b8896505b84871015613820578035955061380b86613d65565b858352600196909601959183019183016137f6565b509997909101359750505050505050565b600060208284031215613842578081fd5b81518015158114610ecd578182fd5b600060208284031215613862578081fd5b5051919050565b60006020828403121561387a578081fd5b5035919050565b60008060408385031215613893578182fd5b50508035926020909101359150565b600082516138b4818460208701613cb7565b9190910192915050565b60006020825282518060208401526138dd816040850160208701613cb7565b601f01601f19169190910160400192915050565b60208082526023908201527f45524332303a207472616e7366657220746f20746865207a65726f206164647260408201526265737360e81b606082015260800190565b6020808252602c908201527f46756e6374696f6e206d7573742062652063616c6c6564207468726f7567682060408201526b19195b1959d85d1958d85b1b60a21b606082015260800190565b6020808252602c908201527f46756e6374696f6e206d7573742062652063616c6c6564207468726f7567682060408201526b6163746976652070726f787960a01b606082015260800190565b6020808252818101527f4f776e61626c653a2063616c6c6572206973206e6f7420746865206f776e6572604082015260600190565b60208082526025908201527f45524332303a207472616e736665722066726f6d20746865207a65726f206164604082015264647265737360d81b606082015260800190565b6020808252602b908201527f496e697469616c697a61626c653a20636f6e7472616374206973206e6f74206960408201526a6e697469616c697a696e6760a81b606082015260800190565b600060a082018783526020878185015260a0604085015281875180845260c0860191508289019350845b81811015613ae05784516001600160a01b031683529383019391830191600101613abb565b50506001600160a01b03969096166060850152505050608001529392505050565b604051601f8201601f1916810167ffffffffffffffff81118282101715613b2a57613b2a613d4f565b604052919050565b60008219821115613b4557613b45613d39565b500190565b600082613b6557634e487b7160e01b81526012600452602481fd5b500490565b80825b6001808611613b7c5750613ba7565b818704821115613b8e57613b8e613d39565b80861615613b9b57918102915b9490941c938002613b6d565b94509492505050565b6000610ecd60001960ff851684600082613bcc57506001610ecd565b81613bd957506000610ecd565b8160018114613bef5760028114613bf957613c26565b6001915050610ecd565b60ff841115613c0a57613c0a613d39565b6001841b915084821115613c2057613c20613d39565b50610ecd565b5060208310610133831016604e8410600b8410161715613c59575081810a83811115613c5457613c54613d39565b610ecd565b613c668484846001613b6a565b808604821115613c7857613c78613d39565b02949350505050565b6000816000190483118215151615613c9b57613c9b613d39565b500290565b600082821015613cb257613cb2613d39565b500390565b60005b83811015613cd2578181015183820152602001613cba565b838111156124ff5750506000910152565b600181811c90821680613cf757607f821691505b60208210811415613d1857634e487b7160e01b600052602260045260246000fd5b50919050565b6000600019821415613d3257613d32613d39565b5060010190565b634e487b7160e01b600052601160045260246000fd5b634e487b7160e01b600052604160045260246000fd5b6001600160a01b038116811461105b57600080fdfe360894a13ba1a3210667c828492db98dca3e2076cc3735a920a3ca505d382bbc416464726573733a206c6f772d6c6576656c2064656c65676174652063616c6c206661696c6564ddf252ad1be2c89b69c2b068fc378daa952ba7f163c4a11628f55a4df523b3efa26469706673582212203f3610ce09778dc484129cffba0584fef40f8176fad0d28ba08eab8d446ab61a64736f6c63430008030033",
  "linkReferences": {},
  "deployedLinkReferences": {}
}