{
  "_format": "hh-sol-artifact-1",
  "contractName": "AAA",
  "sourceName": "contracts/aaa.sol",
  "abi": [
    {
      "inputs": [],
      "stateMutability": "nonpayable",
      "type": "constructor"
    },
    {
      "anonymous": false,
      "inputs": [
        {
          "indexed": false,
          "internalType": "address",
          "name": "previousAdmin",
          "type": "address"
        },
        {
          "indexed": false,
          "internalType": "address",
          "name": "newAdmin",
          "type": "address"
        }
      ],
      "name": "AdminChanged",
      "type": "event"
    },
    {
      "anonymous": false,
      "inputs": [
        {
          "indexed": true,
          "internalType": "address",
          "name": "owner",
          "type": "address"
        },
        {
          "indexed": true,
          "internalType": "address",
          "name": "spender",
          "type": "address"
        },
        {
          "indexed": false,
          "internalType": "uint256",
          "name": "value",
          "type": "uint256"
        }
      ],
      "name": "Approval",
      "type": "event"
    },
    {
      "anonymous": false,
      "inputs": [
        {
          "indexed": true,
          "internalType": "address",
          "name": "beacon",
          "type": "address"
        }
      ],
      "name": "BeaconUpgraded",
      "type": "event"
    },
    {
      "anonymous": false,
      "inputs": [
        {
          "indexed": true,
          "internalType": "address",
          "name": "previousOwner",
          "type": "address"
        },
        {
          "indexed": true,
          "internalType": "address",
          "name": "newOwner",
          "type": "address"
        }
      ],
      "name": "OwnershipTransferred",
      "type": "event"
    },
    {
      "anonymous": false,
      "inputs": [
        {
          "indexed": true,
          "internalType": "address",
          "name": "from",
          "type": "address"
        },
        {
          "indexed": true,
          "internalType": "address",
          "name": "to",
          "type": "address"
        },
        {
          "indexed": false,
          "internalType": "uint256",
          "name": "value",
          "type": "uint256"
        }
      ],
      "name": "Transfer",
      "type": "event"
    },
    {
      "anonymous": false,
      "inputs": [
        {
          "indexed": true,
          "internalType": "address",
          "name": "implementation",
          "type": "address"
        }
      ],
      "name": "Upgraded",
      "type": "event"
    },
    {
      "inputs": [],
      "name": "_burnFee",
      "outputs": [
        {
          "internalType": "uint256",
          "name": "",
          "type": "uint256"
        }
      ],
      "stateMutability": "view",
      "type": "function"
    },
    {
      "inputs": [],
      "name": "_burnStopAtAmount",
      "outputs": [
        {
          "internalType": "uint256",
          "name": "",
          "type": "uint256"
        }
      ],
      "stateMutability": "view",
      "type": "function"
    },
    {
      "inputs": [
        {
          "internalType": "uint256",
          "name": "tAmount",
          "type": "uint256"
        }
      ],
      "name": "_getFeeValues",
      "outputs": [
        {
          "internalType": "uint256",
          "name": "",
          "type": "uint256"
        },
        {
          "internalType": "uint256",
          "name": "",
          "type": "uint256"
        },
        {
          "internalType": "uint256",
          "name": "",
          "type": "uint256"
        }
      ],
      "stateMutability": "view",
      "type": "function"
    },
    {
      "inputs": [],
      "name": "_marketAddress",
      "outputs": [
        {
          "internalType": "address",
          "name": "",
          "type": "address"
        }
      ],
      "stateMutability": "view",
      "type": "function"
    },
    {
      "inputs": [],
      "name": "_marketFee",
      "outputs": [
        {
          "internalType": "uint256",
          "name": "",
          "type": "uint256"
        }
      ],
      "stateMutability": "view",
      "type": "function"
    },
    {
      "inputs": [],
      "name": "_rewardAtAmount",
      "outputs": [
        {
          "internalType": "uint256",
          "name": "",
          "type": "uint256"
        }
      ],
      "stateMutability": "view",
      "type": "function"
    },
    {
      "inputs": [],
      "name": "_rewardFee",
      "outputs": [
        {
          "internalType": "uint256",
          "name": "",
          "type": "uint256"
        }
      ],
      "stateMutability": "view",
      "type": "function"
    },
    {
      "inputs": [],
      "name": "_routerAddress",
      "outputs": [
        {
          "internalType": "address",
          "name": "",
          "type": "address"
        }
      ],
      "stateMutability": "view",
      "type": "function"
    },
    {
      "inputs": [
        {
          "internalType": "address",
          "name": "account",
          "type": "address"
        }
      ],
      "name": "addHolder",
      "outputs": [],
      "stateMutability": "nonpayable",
      "type": "function"
    },
    {
      "inputs": [
        {
          "internalType": "address",
          "name": "owner",
          "type": "address"
        },
        {
          "internalType": "address",
          "name": "spender",
          "type": "address"
        }
      ],
      "name": "allowance",
      "outputs": [
        {
          "internalType": "uint256",
          "name": "",
          "type": "uint256"
        }
      ],
      "stateMutability": "view",
      "type": "function"
    },
    {
      "inputs": [
        {
          "internalType": "address",
          "name": "spender",
          "type": "address"
        },
        {
          "internalType": "uint256",
          "name": "amount",
          "type": "uint256"
        }
      ],
      "name": "approve",
      "outputs": [
        {
          "internalType": "bool",
          "name": "",
          "type": "bool"
        }
      ],
      "stateMutability": "nonpayable",
      "type": "function"
    },
    {
      "inputs": [
        {
          "internalType": "address",
          "name": "account",
          "type": "address"
        }
      ],
      "name": "balanceOf",
      "outputs": [
        {
          "internalType": "uint256",
          "name": "",
          "type": "uint256"
        }
      ],
      "stateMutability": "view",
      "type": "function"
    },
    {
      "inputs": [],
      "name": "balanceOfRewad",
      "outputs": [
        {
          "internalType": "uint256",
          "name": "",
          "type": "uint256"
        },
        {
          "internalType": "uint256",
          "name": "",
          "type": "uint256"
        }
      ],
      "stateMutability": "view",
      "type": "function"
    },
    {
      "inputs": [
        {
          "internalType": "address",
          "name": "account",
          "type": "address"
        },
        {
          "internalType": "uint256",
          "name": "amount",
          "type": "uint256"
        }
      ],
      "name": "burn",
      "outputs": [],
      "stateMutability": "nonpayable",
      "type": "function"
    },
    {
      "inputs": [],
      "name": "decimals",
      "outputs": [
        {
          "internalType": "uint8",
          "name": "",
          "type": "uint8"
        }
      ],
      "stateMutability": "view",
      "type": "function"
    },
    {
      "inputs": [
        {
          "internalType": "address",
          "name": "spender",
          "type": "address"
        },
        {
          "internalType": "uint256",
          "name": "subtractedValue",
          "type": "uint256"
        }
      ],
      "name": "decreaseAllowance",
      "outputs": [
        {
          "internalType": "bool",
          "name": "",
          "type": "bool"
        }
      ],
      "stateMutability": "nonpayable",
      "type": "function"
    },
    {
      "inputs": [],
      "name": "excludeAddress",
      "outputs": [
        {
          "internalType": "address",
          "name": "",
          "type": "address"
        }
      ],
      "stateMutability": "view",
      "type": "function"
    },
    {
      "inputs": [],
      "name": "gas",
      "outputs": [
        {
          "internalType": "uint256",
          "name": "",
          "type": "uint256"
        }
      ],
      "stateMutability": "view",
      "type": "function"
    },
    {
      "inputs": [
        {
          "internalType": "address",
          "name": "account",
          "type": "address"
        }
      ],
      "name": "getLiquidityValues",
      "outputs": [
        {
          "internalType": "uint256",
          "name": "",
          "type": "uint256"
        },
        {
          "internalType": "uint256",
          "name": "",
          "type": "uint256"
        }
      ],
      "stateMutability": "view",
      "type": "function"
    },
    {
      "inputs": [
        {
          "internalType": "address",
          "name": "spender",
          "type": "address"
        },
        {
          "internalType": "uint256",
          "name": "addedValue",
          "type": "uint256"
        }
      ],
      "name": "increaseAllowance",
      "outputs": [
        {
          "internalType": "bool",
          "name": "",
          "type": "bool"
        }
      ],
      "stateMutability": "nonpayable",
      "type": "function"
    },
    {
      "inputs": [],
      "name": "initialize",
      "outputs": [],
      "stateMutability": "nonpayable",
      "type": "function"
    },
    {
      "inputs": [
        {
          "internalType": "address",
          "name": "account",
          "type": "address"
        }
      ],
      "name": "isliquidityHolder",
      "outputs": [
        {
          "internalType": "bool",
          "name": "",
          "type": "bool"
        }
      ],
      "stateMutability": "view",
      "type": "function"
    },
    {
      "inputs": [],
      "name": "lastProcessedIndex",
      "outputs": [
        {
          "internalType": "uint256",
          "name": "",
          "type": "uint256"
        }
      ],
      "stateMutability": "view",
      "type": "function"
    },
    {
      "inputs": [],
      "name": "liquidityHolderIndexLength",
      "outputs": [
        {
          "internalType": "uint256",
          "name": "",
          "type": "uint256"
        }
      ],
      "stateMutability": "view",
      "type": "function"
    },
    {
      "inputs": [],
      "name": "liquidityToken",
      "outputs": [
        {
          "internalType": "contract IERC20Upgradeable",
          "name": "",
          "type": "address"
        }
      ],
      "stateMutability": "view",
      "type": "function"
    },
    {
      "inputs": [],
      "name": "name",
      "outputs": [
        {
          "internalType": "string",
          "name": "",
          "type": "string"
        }
      ],
      "stateMutability": "view",
      "type": "function"
    },
    {
      "inputs": [],
      "name": "owner",
      "outputs": [
        {
          "internalType": "address",
          "name": "",
          "type": "address"
        }
      ],
      "stateMutability": "view",
      "type": "function"
    },
    {
      "inputs": [
        {
          "internalType": "uint256",
          "name": "_gasLimit",
          "type": "uint256"
        }
      ],
      "name": "process",
      "outputs": [],
      "stateMutability": "nonpayable",
      "type": "function"
    },
    {
      "inputs": [],
      "name": "proxiableUUID",
      "outputs": [
        {
          "internalType": "bytes32",
          "name": "",
          "type": "bytes32"
        }
      ],
      "stateMutability": "view",
      "type": "function"
    },
    {
      "inputs": [
        {
          "internalType": "address",
          "name": "account",
          "type": "address"
        }
      ],
      "name": "removeHolder",
      "outputs": [],
      "stateMutability": "nonpayable",
      "type": "function"
    },
    {
      "inputs": [],
      "name": "renounceOwnership",
      "outputs": [],
      "stateMutability": "nonpayable",
      "type": "function"
    },
    {
      "inputs": [],
      "name": "rewardToken1",
      "outputs": [
        {
          "internalType": "contract IERC20Upgradeable",
          "name": "",
          "type": "address"
        }
      ],
      "stateMutability": "view",
      "type": "function"
    },
    {
      "inputs": [],
      "name": "rewardToken1Amount",
      "outputs": [
        {
          "internalType": "uint256",
          "name": "",
          "type": "uint256"
        }
      ],
      "stateMutability": "view",
      "type": "function"
    },
    {
      "inputs": [],
      "name": "rewardToken1Fee",
      "outputs": [
        {
          "internalType": "uint256",
          "name": "",
          "type": "uint256"
        }
      ],
      "stateMutability": "view",
      "type": "function"
    },
    {
      "inputs": [],
      "name": "rewardToken2",
      "outputs": [
        {
          "internalType": "contract IERC20Upgradeable",
          "name": "",
          "type": "address"
        }
      ],
      "stateMutability": "view",
      "type": "function"
    },
    {
      "inputs": [],
      "name": "rewardToken2Amount",
      "outputs": [
        {
          "internalType": "uint256",
          "name": "",
          "type": "uint256"
        }
      ],
      "stateMutability": "view",
      "type": "function"
    },
    {
      "inputs": [],
      "name": "rewardToken2Fee",
      "outputs": [
        {
          "internalType": "uint256",
          "name": "",
          "type": "uint256"
        }
      ],
      "stateMutability": "view",
      "type": "function"
    },
    {
      "inputs": [
        {
          "internalType": "uint256",
          "name": "burnStopAtAmount",
          "type": "uint256"
        }
      ],
      "name": "setBurnStopAtAmount",
      "outputs": [],
      "stateMutability": "nonpayable",
      "type": "function"
    },
    {
      "inputs": [
        {
          "internalType": "address",
          "name": "_account",
          "type": "address"
        }
      ],
      "name": "setExcludeAddress",
      "outputs": [],
      "stateMutability": "nonpayable",
      "type": "function"
    },
    {
      "inputs": [
        {
          "internalType": "uint256",
          "name": "rewardFee",
          "type": "uint256"
        },
        {
          "internalType": "uint256",
          "name": "marketFee",
          "type": "uint256"
        },
        {
          "internalType": "uint256",
          "name": "burnFee",
          "type": "uint256"
        }
      ],
      "name": "setFee",
      "outputs": [],
      "stateMutability": "nonpayable",
      "type": "function"
    },
    {
      "inputs": [
        {
          "internalType": "uint256",
          "name": "rewardAtAmount",
          "type": "uint256"
        }
      ],
      "name": "setRewardAtAmount",
      "outputs": [],
      "stateMutability": "nonpayable",
      "type": "function"
    },
    {
      "inputs": [
        {
          "internalType": "uint256",
          "name": "_rewardToken1Amount",
          "type": "uint256"
        },
        {
          "internalType": "uint256",
          "name": "_rewardToken2Amount",
          "type": "uint256"
        }
      ],
      "name": "setRewardTokenAmount",
      "outputs": [],
      "stateMutability": "nonpayable",
      "type": "function"
    },
    {
      "inputs": [
        {
          "internalType": "uint256",
          "name": "_rewardToken1Free",
          "type": "uint256"
        },
        {
          "internalType": "uint256",
          "name": "_rewardToken2Free",
          "type": "uint256"
        }
      ],
      "name": "setRewardTokenFree",
      "outputs": [],
      "stateMutability": "nonpayable",
      "type": "function"
    },
    {
      "inputs": [
        {
          "internalType": "address",
          "name": "_rewardToken1",
          "type": "address"
        },
        {
          "internalType": "address",
          "name": "_rewardToken2",
          "type": "address"
        }
      ],
      "name": "setRewardTokens",
      "outputs": [],
      "stateMutability": "nonpayable",
      "type": "function"
    },
    {
      "inputs": [
        {
          "internalType": "address",
          "name": "addr",
          "type": "address"
        }
      ],
      "name": "setUniswapV2Pair",
      "outputs": [],
      "stateMutability": "nonpayable",
      "type": "function"
    },
    {
      "inputs": [
        {
          "internalType": "address",
          "name": "addr",
          "type": "address"
        }
      ],
      "name": "setliquidityAddress",
      "outputs": [],
      "stateMutability": "nonpayable",
      "type": "function"
    },
    {
      "inputs": [],
      "name": "symbol",
      "outputs": [
        {
          "internalType": "string",
          "name": "",
          "type": "string"
        }
      ],
      "stateMutability": "view",
      "type": "function"
    },
    {
      "inputs": [
        {
          "internalType": "address",
          "name": "token",
          "type": "address"
        }
      ],
      "name": "take",
      "outputs": [],
      "stateMutability": "nonpayable",
      "type": "function"
    },
    {
      "inputs": [],
      "name": "totalSupply",
      "outputs": [
        {
          "internalType": "uint256",
          "name": "",
          "type": "uint256"
        }
      ],
      "stateMutability": "view",
      "type": "function"
    },
    {
      "inputs": [
        {
          "internalType": "address",
          "name": "to",
          "type": "address"
        },
        {
          "internalType": "uint256",
          "name": "amount",
          "type": "uint256"
        }
      ],
      "name": "transfer",
      "outputs": [
        {
          "internalType": "bool",
          "name": "",
          "type": "bool"
        }
      ],
      "stateMutability": "nonpayable",
      "type": "function"
    },
    {
      "inputs": [
        {
          "internalType": "address[]",
          "name": "recipients",
          "type": "address[]"
        },
        {
          "internalType": "uint256",
          "name": "amount",
          "type": "uint256"
        }
      ],
      "name": "transferBatch",
      "outputs": [
        {
          "internalType": "bool",
          "name": "",
          "type": "bool"
        }
      ],
      "stateMutability": "nonpayable",
      "type": "function"
    },
    {
      "inputs": [
        {
          "internalType": "address",
          "name": "from",
          "type": "address"
        },
        {
          "internalType": "address",
          "name": "to",
          "type": "address"
        },
        {
          "internalType": "uint256",
          "name": "amount",
          "type": "uint256"
        }
      ],
      "name": "transferFrom",
      "outputs": [
        {
          "internalType": "bool",
          "name": "",
          "type": "bool"
        }
      ],
      "stateMutability": "nonpayable",
      "type": "function"
    },
    {
      "inputs": [
        {
          "internalType": "address",
          "name": "newOwner",
          "type": "address"
        }
      ],
      "name": "transferOwnership",
      "outputs": [],
      "stateMutability": "nonpayable",
      "type": "function"
    },
    {
      "inputs": [],
      "name": "uniswapV2Pair",
      "outputs": [
        {
          "internalType": "address",
          "name": "",
          "type": "address"
        }
      ],
      "stateMutability": "view",
      "type": "function"
    },
    {
      "inputs": [],
      "name": "uniswapV2Router",
      "outputs": [
        {
          "internalType": "contract IUniswapV2Router02",
          "name": "",
          "type": "address"
        }
      ],
      "stateMutability": "view",
      "type": "function"
    },
    {
      "inputs": [
        {
          "internalType": "uint256",
          "name": "newValue",
          "type": "uint256"
        }
      ],
      "name": "updateGasForProcessing",
      "outputs": [],
      "stateMutability": "nonpayable",
      "type": "function"
    },
    {
      "inputs": [
        {
          "internalType": "address",
          "name": "newImplementation",
          "type": "address"
        }
      ],
      "name": "upgradeTo",
      "outputs": [],
      "stateMutability": "nonpayable",
      "type": "function"
    },
    {
      "inputs": [
        {
          "internalType": "address",
          "name": "newImplementation",
          "type": "address"
        },
        {
          "internalType": "bytes",
          "name": "data",
          "type": "bytes"
        }
      ],
      "name": "upgradeToAndCall",
      "outputs": [],
      "stateMutability": "payable",
      "type": "function"
    },
    {
      "stateMutability": "payable",
      "type": "receive"
    }
  ],
  "bytecode": "0x60a06040523060601b6080523480156200001857600080fd5b50600054610100900460ff16620000365760005460ff161562000040565b62000040620000e5565b620000a85760405162461bcd60e51b815260206004820152602e60248201527f496e697469616c697a61626c653a20636f6e747261637420697320616c72656160448201526d191e481a5b9a5d1a585b1a5e995960921b606482015260840160405180910390fd5b600054610100900460ff16158015620000cb576000805461ffff19166101011790555b8015620000de576000805461ff00191690555b5062000112565b6000620000fd306200010360201b6200235b1760201c565b15905090565b6001600160a01b03163b151590565b60805160601c613cf06200014d60003960008181610fbe01528181610ffe0152818161124001528181611280015261130f0152613cf06000f3fe6080604052600436106103855760003560e01c8063715018a6116101d1578063aa450cfe11610102578063d872a4cc116100a0578063efc3b7bd1161006f578063efc3b7bd14610a4d578063f2929b2314610a64578063f2fde38b14610a7b578063ffb2c47914610a9b5761038c565b8063d872a4cc146109a6578063d9e66460146109c6578063dc697bcb146109e7578063dd62ed3e14610a075761038c565b8063c0b0fda2116100dc578063c0b0fda214610944578063c5c3cbda1461095b578063cb05114f14610970578063d61a47f1146109855761038c565b8063aa450cfe146108ed578063ac1e17df14610904578063bb231ceb146109245761038c565b80638da5cb5b1161016f5780639dc29fac116101495780639dc29fac1461086d578063a29a60891461088d578063a457c2d7146108ad578063a9059cbb146108cd5761038c565b80638da5cb5b1461081a5780638dd428081461083857806395d89b41146108585761038c565b8063806e085e116101ab578063806e085e146107af5780638129fc1c146107cf57806384d6ff2f146107e4578063871c128d146107fa5761038c565b8063715018a61461075957806378fa66481461076e5780637faf0edf1461078e5761038c565b806343cd8f7e116102b657806352d1902d116102545780636ca7c216116102235780636ca7c216146106d85780636d1fc4d1146106eb5780636f28d6881461070257806370a08231146107235761038c565b806352d1902d146106635780635b65b9ab1461067857806360a2c14d146106985780636775d967146106b85761038c565b806349bd5a5e1161029057806349bd5a5e146105f95780634d44e6631461061a5780634f1ef2861461063a57806351fde4bb1461064d5761038c565b806343cd8f7e146105a157806348f227d7146105c2578063490e32cc146105e25761038c565b806323b872dd11610323578063313ce567116102fd578063313ce5671461050a57806335773b88146105265780633659cfe61461056157806339509351146105815761038c565b806323b872dd146104b157806326330dab146104d15780633009a609146104f35761038c565b8063166d8a911161035f578063166d8a91146104215780631694505e1461045a57806318160ddd1461047b5780631a536a321461049a5761038c565b806306fdde0314610391578063095ea7b3146103bc57806315cba925146103ec5761038c565b3661038c57005b600080fd5b34801561039d57600080fd5b506103a6610abb565b6040516103b39190613797565b60405180910390f35b3480156103c857600080fd5b506103dc6103d73660046135fa565b610b4d565b60405190151581526020016103b3565b3480156103f857600080fd5b5061040c6104073660046134a8565b610b67565b604080519283526020830191909152016103b3565b34801561042d57600080fd5b5061011154610442906001600160a01b031681565b6040516001600160a01b0390911681526020016103b3565b34801561046657600080fd5b5061010854610442906001600160a01b031681565b34801561048757600080fd5b506035545b6040519081526020016103b3565b3480156104a657600080fd5b5061048c61010f5481565b3480156104bd57600080fd5b506103dc6104cc366004613518565b610d25565b3480156104dd57600080fd5b506104f16104ec36600461372f565b610eff565b005b3480156104ff57600080fd5b5061048c6101125481565b34801561051657600080fd5b50604051601281526020016103b3565b34801561053257600080fd5b50610546610541366004613717565b610f3f565b604080519384526020840192909252908201526060016103b3565b34801561056d57600080fd5b506104f161057c3660046134a8565b610fb3565b34801561058d57600080fd5b506103dc61059c3660046135fa565b611093565b3480156105ad57600080fd5b5061010e54610442906001600160a01b031681565b3480156105ce57600080fd5b506104f16105dd366004613717565b6110d2565b3480156105ee57600080fd5b5061048c6101015481565b34801561060557600080fd5b5061010954610442906001600160a01b031681565b34801561062657600080fd5b506104f16106353660046134a8565b611102565b6104f1610648366004613558565b611235565b34801561065957600080fd5b5061048c60fe5481565b34801561066f57600080fd5b5061048c611302565b34801561068457600080fd5b506104f1610693366004613750565b6113b5565b3480156106a457600080fd5b506104f16106b336600461372f565b6113ee565b3480156106c457600080fd5b506104f16106d33660046134a8565b611425565b3480156106e457600080fd5b504761048c565b3480156106f757600080fd5b5061048c6101025481565b34801561070e57600080fd5b5061010a54610442906001600160a01b031681565b34801561072f57600080fd5b5061048c61073e3660046134a8565b6001600160a01b0316600090815260fb602052604090205490565b34801561076557600080fd5b506104f1611472565b34801561077a57600080fd5b506104f16107893660046134a8565b6114a8565b34801561079a57600080fd5b5061010354610442906001600160a01b031681565b3480156107bb57600080fd5b506103dc6107ca366004613625565b6114f5565b3480156107db57600080fd5b506104f1611550565b3480156107f057600080fd5b5061048c60ff5481565b34801561080657600080fd5b506104f1610815366004613717565b6117dc565b34801561082657600080fd5b5060c9546001600160a01b0316610442565b34801561084457600080fd5b506104f16108533660046134a8565b611900565b34801561086457600080fd5b506103a6611936565b34801561087957600080fd5b506104f16108883660046135fa565b611945565b34801561089957600080fd5b506104f16108a83660046134a8565b611979565b3480156108b957600080fd5b506103dc6108c83660046135fa565b6119c6565b3480156108d957600080fd5b506103dc6108e83660046135fa565b611a63565b3480156108f957600080fd5b5061048c6101055481565b34801561091057600080fd5b506104f161091f3660046134a8565b611c14565b34801561093057600080fd5b506103dc61093f3660046134a8565b611c4a565b34801561095057600080fd5b5061048c6101005481565b34801561096757600080fd5b5061040c611c58565b34801561097c57600080fd5b5061048c611d5d565b34801561099157600080fd5b5061010b54610442906001600160a01b031681565b3480156109b257600080fd5b506104f16109c13660046134e0565b611d6f565b3480156109d257600080fd5b5061010454610442906001600160a01b031681565b3480156109f357600080fd5b506104f1610a02366004613717565b611dc9565b348015610a1357600080fd5b5061048c610a223660046134e0565b6001600160a01b03918216600090815260346020908152604080832093909416825291909152205490565b348015610a5957600080fd5b5061048c6101105481565b348015610a7057600080fd5b5061048c6101065481565b348015610a8757600080fd5b506104f1610a963660046134a8565b611df9565b348015610aa757600080fd5b506104f1610ab6366004613717565b611e91565b606060368054610aca90613bbc565b80601f0160208091040260200160405190810160405280929190818152602001828054610af690613bbc565b8015610b435780601f10610b1857610100808354040283529160200191610b43565b820191906000526020600020905b815481529060010190602001808311610b2657829003601f168201915b5050505050905090565b600033610b5b81858561236a565b60019150505b92915050565b600080600061010e60009054906101000a90046001600160a01b03166001600160a01b03166318160ddd6040518163ffffffff1660e01b815260040160206040518083038186803b158015610bbb57600080fd5b505afa158015610bcf573d6000803e3d6000fd5b505050506040513d601f19601f82011682018060405250810190610bf391906136ff565b905080610c07576000809250925050610d20565b61010e54610111546040516370a0823160e01b81526001600160a01b03918216600482015260009291909116906370a082319060240160206040518083038186803b158015610c5557600080fd5b505afa158015610c69573d6000803e3d6000fd5b505050506040513d601f19601f82011682018060405250810190610c8d91906136ff565b9050610c99828261248f565b61010e546040516370a0823160e01b81526001600160a01b0388811660048301529294509116906370a082319060240160206040518083038186803b158015610ce157600080fd5b505afa158015610cf5573d6000803e3d6000fd5b505050506040513d601f19601f82011682018060405250810190610d1991906136ff565b9350909150505b915091565b60c95460009033906001600160a01b03868116911614801590610d745750610104546001600160a01b0316336001600160a01b03161480610d745750610109546001600160a01b038581169116145b8015610d8557506101065460355410155b15610d9a57610d9585858561249b565b610da5565b610da585858561270b565b610db085828561284f565b61010e546040516370a0823160e01b81526001600160a01b03878116600483015260009216906370a082319060240160206040518083038186803b158015610df757600080fd5b505afa158015610e0b573d6000803e3d6000fd5b505050506040513d601f19601f82011682018060405250810190610e2f91906136ff565b118015610e425750610e4085611c4a565b155b15610e5557610e5085611c14565b610ef2565b61010e546040516370a0823160e01b81526001600160a01b038781166004830152909116906370a082319060240160206040518083038186803b158015610e9b57600080fd5b505afa158015610eaf573d6000803e3d6000fd5b505050506040513d601f19601f82011682018060405250810190610ed391906136ff565b158015610ee45750610ee485611c4a565b15610ef257610ef285611900565b60019150505b9392505050565b60c9546001600160a01b03163314610f325760405162461bcd60e51b8152600401610f29906138a5565b60405180910390fd5b61010f9190915561011055565b600080600080610f66612710610f6060ff54886128db90919063ffffffff16565b906128e7565b90506000610f86612710610f6061010054896128db90919063ffffffff16565b90506000610fa5612710610f6060fe548a6128db90919063ffffffff16565b929791965091945092505050565b306001600160a01b037f0000000000000000000000000000000000000000000000000000000000000000161415610ffc5760405162461bcd60e51b8152600401610f299061380d565b7f00000000000000000000000000000000000000000000000000000000000000006001600160a01b0316611045600080516020613c54833981519152546001600160a01b031690565b6001600160a01b03161461106b5760405162461bcd60e51b8152600401610f2990613859565b611074816128f3565b604080516000808252602082019092526110909183919061291d565b50565b3360008181526034602090815260408083206001600160a01b0387168452909152812054909190610b5b90829086906110cd908790613a0b565b61236a565b60c9546001600160a01b031633146110fc5760405162461bcd60e51b8152600401610f29906138a5565b61010555565b60c9546001600160a01b0316331461112c5760405162461bcd60e51b8152600401610f29906138a5565b6001600160a01b03811663a9059cbb336040516370a0823160e01b81523060048201526001600160a01b038516906370a082319060240160206040518083038186803b15801561117b57600080fd5b505afa15801561118f573d6000803e3d6000fd5b505050506040513d601f19601f820116820180604052508101906111b391906136ff565b6040516001600160e01b031960e085901b1681526001600160a01b0390921660048301526024820152604401602060405180830381600087803b1580156111f957600080fd5b505af115801561120d573d6000803e3d6000fd5b505050506040513d601f19601f8201168201806040525081019061123191906136df565b5050565b306001600160a01b037f000000000000000000000000000000000000000000000000000000000000000016141561127e5760405162461bcd60e51b8152600401610f299061380d565b7f00000000000000000000000000000000000000000000000000000000000000006001600160a01b03166112c7600080516020613c54833981519152546001600160a01b031690565b6001600160a01b0316146112ed5760405162461bcd60e51b8152600401610f2990613859565b6112f6826128f3565b6112318282600161291d565b6000306001600160a01b037f000000000000000000000000000000000000000000000000000000000000000016146113a25760405162461bcd60e51b815260206004820152603860248201527f555550535570677261646561626c653a206d757374206e6f742062652063616c60448201527f6c6564207468726f7567682064656c656761746563616c6c00000000000000006064820152608401610f29565b50600080516020613c5483398151915290565b60c9546001600160a01b031633146113df5760405162461bcd60e51b8152600401610f29906138a5565b60fe9290925560ff5561010055565b60c9546001600160a01b031633146114185760405162461bcd60e51b8152600401610f29906138a5565b6101019190915561010255565b60c9546001600160a01b0316331461144f5760405162461bcd60e51b8152600401610f29906138a5565b61010e80546001600160a01b0319166001600160a01b0392909216919091179055565b60c9546001600160a01b0316331461149c5760405162461bcd60e51b8152600401610f29906138a5565b6114a66000612aa1565b565b60c9546001600160a01b031633146114d25760405162461bcd60e51b8152600401610f29906138a5565b61011180546001600160a01b0319166001600160a01b0392909216919091179055565b6000805b8351811015611546576115343385838151811061152657634e487b7160e01b600052603260045260246000fd5b60200260200101518561270b565b8061153e81613bf7565b9150506114f9565b5060019392505050565b600054610100900460ff1661156b5760005460ff161561156f565b303b155b6115d25760405162461bcd60e51b815260206004820152602e60248201527f496e697469616c697a61626c653a20636f6e747261637420697320616c72656160448201526d191e481a5b9a5d1a585b1a5e995960921b6064820152608401610f29565b600054610100900460ff161580156115f4576000805461ffff19166101011790555b61163b6040518060400160405280600a81526020016925bab0b33a9021b7b4b760b11b815250604051806040016040528060038152602001624b464360e81b815250612af3565b611643612b24565b61164b612b53565b61166c3361165b6012600a613a89565b61166790612710613b5a565b612b7a565b60c860fe55603260ff8190556064610100556101018190556101025561010380546001600160a01b03199081167382d3e0250c2f42809bd3cb53e28f5e77e711d60a17909155610104805490911673d99d1c33f9fc3444f8101754abc46c52416550d11790556116da601290565b6116e590600a613a89565b6116f0906064613b5a565b610105556117006012600a613a89565b61170c90610384613b5a565b61010655617530610107556101045461010880546001600160a01b03199081166001600160a01b03938416179091556101095461010e80548316919093161790915561010a805482167347fb260e384c807c7f365f754239408cd1ff34f217905561010b805490911673c9882def23bc42d53895b8361d0b1edc7570bc6a1790556117943390565b6001600160a01b03166000600080516020613c9b8339815191526117b760355490565b60405190815260200160405180910390a38015611090576000805461ff001916905550565b60c9546001600160a01b031633146118065760405162461bcd60e51b8152600401610f29906138a5565b62030d40811015801561181c57506207a1208111155b61188e5760405162461bcd60e51b815260206004820152603860248201527f424b3a20676173466f7250726f63657373696e67206d7573742062652062657460448201527f7765656e203230302c30303020616e64203530302c30303000000000000000006064820152608401610f29565b610107548114156118fa5760405162461bcd60e51b815260206004820152603060248201527f424b3a2043616e6e6f742075706461746520676173466f7250726f636573736960448201526f6e6720746f2073616d652076616c756560801b6064820152608401610f29565b61010755565b60c9546001600160a01b0316331461192a5760405162461bcd60e51b8152600401610f29906138a5565b61123161010c82612c48565b606060378054610aca90613bbc565b60c9546001600160a01b0316331461196f5760405162461bcd60e51b8152600401610f29906138a5565b6112318282612c5d565b60c9546001600160a01b031633146119a35760405162461bcd60e51b8152600401610f29906138a5565b61010980546001600160a01b0319166001600160a01b0392909216919091179055565b3360008181526034602090815260408083206001600160a01b038716845290915281205490919083811015611a4b5760405162461bcd60e51b815260206004820152602560248201527f45524332303a2064656372656173656420616c6c6f77616e63652062656c6f77604482015264207a65726f60d81b6064820152608401610f29565b611a58828686840361236a565b506001949350505050565b610109546000906001600160a01b0316336001600160a01b0316148015611a8f57506101065460355410155b15611aa457611a9f33848461249b565b611aaf565b611aaf33848461270b565b61010e546000906001600160a01b03166370a08231336040516001600160e01b031960e084901b1681526001600160a01b03909116600482015260240160206040518083038186803b158015611b0457600080fd5b505afa158015611b18573d6000803e3d6000fd5b505050506040513d601f19601f82011682018060405250810190611b3c91906136ff565b118015611b4f5750611b4d3361093f565b155b15611b6257611b5d3361091f565b611c0b565b61010e546001600160a01b03166370a08231336040516001600160e01b031960e084901b1681526001600160a01b03909116600482015260240160206040518083038186803b158015611bb457600080fd5b505afa158015611bc8573d6000803e3d6000fd5b505050506040513d601f19601f82011682018060405250810190611bec91906136ff565b158015611bfd5750611bfd3361093f565b15611c0b57611c0b33610853565b50600192915050565b60c9546001600160a01b03163314611c3e5760405162461bcd60e51b8152600401610f29906138a5565b61123161010c82612d99565b6000610b6161010c83612dae565b61010a546040516370a0823160e01b815230600482015260009182916001600160a01b03909116906370a082319060240160206040518083038186803b158015611ca157600080fd5b505afa158015611cb5573d6000803e3d6000fd5b505050506040513d601f19601f82011682018060405250810190611cd991906136ff565b61010b546040516370a0823160e01b81523060048201526001600160a01b03909116906370a082319060240160206040518083038186803b158015611d1d57600080fd5b505afa158015611d31573d6000803e3d6000fd5b505050506040513d601f19601f82011682018060405250810190611d5591906136ff565b915091509091565b6000611d6a61010c612dd0565b905090565b60c9546001600160a01b03163314611d995760405162461bcd60e51b8152600401610f29906138a5565b61010a80546001600160a01b039384166001600160a01b03199182161790915561010b8054929093169116179055565b60c9546001600160a01b03163314611df35760405162461bcd60e51b8152600401610f29906138a5565b61010655565b60c9546001600160a01b03163314611e235760405162461bcd60e51b8152600401610f29906138a5565b6001600160a01b038116611e885760405162461bcd60e51b815260206004820152602660248201527f4f776e61626c653a206e6577206f776e657220697320746865207a65726f206160448201526564647265737360d01b6064820152608401610f29565b61109081612aa1565b60c9546001600160a01b03163314611ebb5760405162461bcd60e51b8152600401610f29906138a5565b6000611ec861010c612dd0565b9050801580611f54575061010f5461010a546040516370a0823160e01b81523060048201526001600160a01b03909116906370a082319060240160206040518083038186803b158015611f1a57600080fd5b505afa158015611f2e573d6000803e3d6000fd5b505050506040513d601f19601f82011682018060405250810190611f5291906136ff565b105b80611fdc57506101105461010b546040516370a0823160e01b81523060048201526001600160a01b03909116906370a082319060240160206040518083038186803b158015611fa257600080fd5b505afa158015611fb6573d6000803e3d6000fd5b505050506040513d601f19601f82011682018060405250810190611fda91906136ff565b105b15611fe75750611090565b610112546000805a905060005b858310801561200257508481105b15612350578061201181613bf7565b91505061201f61010c612dd0565b841061202a57600093505b600061203861010c86612dda565b905060008061204683610b67565b9150915081600014156120685761205f61010c84612c48565b50505050611ff4565b600061208482610f608561010f546128db90919063ffffffff16565b905060006120a283610f6086610110546128db90919063ffffffff16565b61010a546040516370a0823160e01b815230600482015291925083916001600160a01b03909116906370a082319060240160206040518083038186803b1580156120eb57600080fd5b505afa1580156120ff573d6000803e3d6000fd5b505050506040513d601f19601f8201168201806040525081019061212391906136ff565b10806121a8575061010b546040516370a0823160e01b815230600482015282916001600160a01b0316906370a082319060240160206040518083038186803b15801561216e57600080fd5b505afa158015612182573d6000803e3d6000fd5b505050506040513d601f19601f820116820180604052508101906121a691906136ff565b105b156121bc5750505050505050505050611090565b6000841180156121cc5750600083115b80156121e75750610111546001600160a01b03868116911614155b80156121fb57506001600160a01b03851615155b156123115761010a5460405163a9059cbb60e01b81526001600160a01b038781166004830152602482018590529091169063a9059cbb90604401602060405180830381600087803b15801561224f57600080fd5b505af1158015612263573d6000803e3d6000fd5b505050506040513d601f19601f8201168201806040525081019061228791906136df565b5061010b5460405163a9059cbb60e01b81526001600160a01b038781166004830152602482018490529091169063a9059cbb90604401602060405180830381600087803b1580156122d757600080fd5b505af11580156122eb573d6000803e3d6000fd5b505050506040513d601f19601f8201168201806040525081019061230f91906136df565b505b60005a9050808811156123355761233261232b898361248f565b8a90612de6565b98505b9650868961234281613bf7565b9a5050505050505050611ff4565b505050610112555050565b6001600160a01b03163b151590565b6001600160a01b0383166123cc5760405162461bcd60e51b8152602060048201526024808201527f45524332303a20617070726f76652066726f6d20746865207a65726f206164646044820152637265737360e01b6064820152608401610f29565b6001600160a01b03821661242d5760405162461bcd60e51b815260206004820152602260248201527f45524332303a20617070726f766520746f20746865207a65726f206164647265604482015261737360f01b6064820152608401610f29565b6001600160a01b0383811660008181526034602090815260408083209487168084529482529182902085905590518481527f8c5be1e5ebec7d5bd14f71427d1e84f3dd0314c0f7b2291e5b200ac8c7c3b92591015b60405180910390a3505050565b6000610ef88284613b79565b6001600160a01b0383166124c15760405162461bcd60e51b8152600401610f29906138da565b6001600160a01b0382166124e75760405162461bcd60e51b8152600401610f29906137ca565b600081116125495760405162461bcd60e51b815260206004820152602960248201527f5472616e7366657220616d6f756e74206d7573742062652067726561746572206044820152687468616e207a65726f60b81b6064820152608401610f29565b60fd5460ff1615801561256e57506101055430600090815260fb602052604090205410155b156126235760fd805460ff1916600117905561010154156125cf576125cf6125bd6064610f60610101546125b7306001600160a01b0316600090815260fb602052604090205490565b906128db565b61010a546001600160a01b0316612df2565b6101015415612618576126186126066064610f60610102546125b7306001600160a01b0316600090815260fb602052604090205490565b61010b546001600160a01b0316612df2565b60fd805460ff191690555b60fd5460ff166126cd57600080600061263b84610f3f565b925092509250610106546126588361265260355490565b9061248f565b1061267b5761266a8661010054612c5d565b612674848361248f565b9350612688565b6126858383612de6565b92505b61269681612652868661248f565b610103549094506126b29087906001600160a01b03168561270b565b6126bd86308361270b565b6126c961010754611e91565b5050505b6126d883838361270b565b816001600160a01b0316836001600160a01b0316600080516020613c9b8339815191528360405161248291815260200190565b6001600160a01b0383166127315760405162461bcd60e51b8152600401610f29906138da565b6001600160a01b0382166127575760405162461bcd60e51b8152600401610f29906137ca565b6001600160a01b038316600090815260336020526040902054818110156127cf5760405162461bcd60e51b815260206004820152602660248201527f45524332303a207472616e7366657220616d6f756e7420657863656564732062604482015265616c616e636560d01b6064820152608401610f29565b6001600160a01b03808516600090815260336020526040808220858503905591851681529081208054849290612806908490613a0b565b92505081905550826001600160a01b0316846001600160a01b0316600080516020613c9b8339815191528460405161284091815260200190565b60405180910390a35b50505050565b6001600160a01b03838116600090815260346020908152604080832093861683529290522054600019811461284957818110156128ce5760405162461bcd60e51b815260206004820152601d60248201527f45524332303a20696e73756666696369656e7420616c6c6f77616e63650000006044820152606401610f29565b612849848484840361236a565b6000610ef88284613b5a565b6000610ef88284613a23565b60c9546001600160a01b031633146110905760405162461bcd60e51b8152600401610f29906138a5565b7f4910fdfa16fed3260ed0e7147f7cc6da11a60208b5b9406d12a635614ffd91435460ff16156129555761295083612fbf565b612a9c565b826001600160a01b03166352d1902d6040518163ffffffff1660e01b815260040160206040518083038186803b15801561298e57600080fd5b505afa9250505080156129be575060408051601f3d908101601f191682019092526129bb918101906136ff565b60015b612a215760405162461bcd60e51b815260206004820152602e60248201527f45524331393637557067726164653a206e657720696d706c656d656e7461746960448201526d6f6e206973206e6f74205555505360901b6064820152608401610f29565b600080516020613c548339815191528114612a905760405162461bcd60e51b815260206004820152602960248201527f45524331393637557067726164653a20756e737570706f727465642070726f786044820152681a58589b195555525160ba1b6064820152608401610f29565b50612a9c83838361305b565b505050565b60c980546001600160a01b038381166001600160a01b0319831681179093556040519116919082907f8be0079c531659141344cd1fd0a4f28419497f9722a3daafe3b4186f6b6457e090600090a35050565b600054610100900460ff16612b1a5760405162461bcd60e51b8152600401610f299061391f565b6112318282613080565b600054610100900460ff16612b4b5760405162461bcd60e51b8152600401610f299061391f565b6114a66130ce565b600054610100900460ff166114a65760405162461bcd60e51b8152600401610f299061391f565b6001600160a01b038216612bd05760405162461bcd60e51b815260206004820152601f60248201527f45524332303a206d696e7420746f20746865207a65726f2061646472657373006044820152606401610f29565b8060356000828254612be29190613a0b565b90915550506001600160a01b03821660009081526033602052604081208054839290612c0f908490613a0b565b90915550506040518181526001600160a01b03831690600090600080516020613c9b8339815191529060200160405180910390a3611231565b6000610ef8836001600160a01b0384166130fe565b6001600160a01b038216612cbd5760405162461bcd60e51b815260206004820152602160248201527f45524332303a206275726e2066726f6d20746865207a65726f206164647265736044820152607360f81b6064820152608401610f29565b6001600160a01b03821660009081526033602052604090205481811015612d315760405162461bcd60e51b815260206004820152602260248201527f45524332303a206275726e20616d6f756e7420657863656564732062616c616e604482015261636560f01b6064820152608401610f29565b6001600160a01b0383166000908152603360205260408120838303905560358054849290612d60908490613b79565b90915550506040518281526000906001600160a01b03851690600080516020613c9b8339815191529060200160405180910390a3612a9c565b6000610ef8836001600160a01b03841661321b565b6001600160a01b03811660009081526001830160205260408120541515610ef8565b6000610b61825490565b6000610ef8838361326a565b6000610ef88284613a0b565b60408051600380825260808201909252600091602082016060803683370190505090503081600081518110612e3757634e487b7160e01b600052603260045260246000fd5b6001600160a01b0392831660209182029290920181019190915261010854604080516315ab88c960e31b81529051919093169263ad5c4648926004808301939192829003018186803b158015612e8c57600080fd5b505afa158015612ea0573d6000803e3d6000fd5b505050506040513d601f19601f82011682018060405250810190612ec491906134c4565b81600181518110612ee557634e487b7160e01b600052603260045260246000fd5b60200260200101906001600160a01b031690816001600160a01b0316815250508181600281518110612f2757634e487b7160e01b600052603260045260246000fd5b6001600160a01b03928316602091820292909201015261010854612f4e913091168561236a565b61010854604051635c11d79560e01b81526001600160a01b0390911690635c11d79590612f8890869060009086903090429060040161396a565b600060405180830381600087803b158015612fa257600080fd5b505af1158015612fb6573d6000803e3d6000fd5b50505050505050565b6001600160a01b0381163b61302c5760405162461bcd60e51b815260206004820152602d60248201527f455243313936373a206e657720696d706c656d656e746174696f6e206973206e60448201526c1bdd08184818dbdb9d1c9858dd609a1b6064820152608401610f29565b600080516020613c5483398151915280546001600160a01b0319166001600160a01b0392909216919091179055565b613064836132a2565b6000825111806130715750805b15612a9c5761284983836132e2565b600054610100900460ff166130a75760405162461bcd60e51b8152600401610f299061391f565b81516130ba90603690602085019061340f565b508051612a9c90603790602084019061340f565b600054610100900460ff166130f55760405162461bcd60e51b8152600401610f299061391f565b6114a633612aa1565b60008181526001830160205260408120548015613211576000613122600183613b79565b855490915060009061313690600190613b79565b90508181146131b757600086600001828154811061316457634e487b7160e01b600052603260045260246000fd5b906000526020600020015490508087600001848154811061319557634e487b7160e01b600052603260045260246000fd5b6000918252602080832090910192909255918252600188019052604090208390555b85548690806131d657634e487b7160e01b600052603160045260246000fd5b600190038181906000526020600020016000905590558560010160008681526020019081526020016000206000905560019350505050610b61565b6000915050610b61565b600081815260018301602052604081205461326257508154600181810184556000848152602080822090930184905584548482528286019093526040902091909155610b61565b506000610b61565b600082600001828154811061328f57634e487b7160e01b600052603260045260246000fd5b9060005260206000200154905092915050565b6132ab81612fbf565b6040516001600160a01b038216907fbc7cd75a20ee27fd9adebab32041f755214dbc6bffa90cc0225b39da2e5c2d3b90600090a250565b60606001600160a01b0383163b61334a5760405162461bcd60e51b815260206004820152602660248201527f416464726573733a2064656c65676174652063616c6c20746f206e6f6e2d636f6044820152651b9d1c9858dd60d21b6064820152608401610f29565b600080846001600160a01b031684604051613365919061377b565b600060405180830381855af49150503d80600081146133a0576040519150601f19603f3d011682016040523d82523d6000602084013e6133a5565b606091505b50915091506133cd8282604051806060016040528060278152602001613c74602791396133d6565b95945050505050565b606083156133e5575081610ef8565b8251156133f55782518084602001fd5b8160405162461bcd60e51b8152600401610f299190613797565b82805461341b90613bbc565b90600052602060002090601f01602090048101928261343d5760008555613483565b82601f1061345657805160ff1916838001178555613483565b82800160010185558215613483579182015b82811115613483578251825591602001919060010190613468565b5061348f929150613493565b5090565b5b8082111561348f5760008155600101613494565b6000602082840312156134b9578081fd5b8135610ef881613c3e565b6000602082840312156134d5578081fd5b8151610ef881613c3e565b600080604083850312156134f2578081fd5b82356134fd81613c3e565b9150602083013561350d81613c3e565b809150509250929050565b60008060006060848603121561352c578081fd5b833561353781613c3e565b9250602084013561354781613c3e565b929592945050506040919091013590565b6000806040838503121561356a578182fd5b823561357581613c3e565b915060208381013567ffffffffffffffff80821115613592578384fd5b818601915086601f8301126135a5578384fd5b8135818111156135b7576135b7613c28565b6135c9601f8201601f191685016139da565b915080825287848285010111156135de578485fd5b8084840185840137810190920192909252919491935090915050565b6000806040838503121561360c578182fd5b823561361781613c3e565b946020939093013593505050565b60008060408385031215613637578182fd5b823567ffffffffffffffff8082111561364e578384fd5b818501915085601f830112613661578384fd5b813560208282111561367557613675613c28565b8160051b92506136868184016139da565b8281528181019085830185870184018b10156136a0578889fd5b8896505b848710156136ce57803595506136b986613c3e565b858352600196909601959183019183016136a4565b509997909101359750505050505050565b6000602082840312156136f0578081fd5b81518015158114610ef8578182fd5b600060208284031215613710578081fd5b5051919050565b600060208284031215613728578081fd5b5035919050565b60008060408385031215613741578182fd5b50508035926020909101359150565b600080600060608486031215613764578283fd5b505081359360208301359350604090920135919050565b6000825161378d818460208701613b90565b9190910192915050565b60006020825282518060208401526137b6816040850160208701613b90565b601f01601f19169190910160400192915050565b60208082526023908201527f45524332303a207472616e7366657220746f20746865207a65726f206164647260408201526265737360e81b606082015260800190565b6020808252602c908201527f46756e6374696f6e206d7573742062652063616c6c6564207468726f7567682060408201526b19195b1959d85d1958d85b1b60a21b606082015260800190565b6020808252602c908201527f46756e6374696f6e206d7573742062652063616c6c6564207468726f7567682060408201526b6163746976652070726f787960a01b606082015260800190565b6020808252818101527f4f776e61626c653a2063616c6c6572206973206e6f7420746865206f776e6572604082015260600190565b60208082526025908201527f45524332303a207472616e736665722066726f6d20746865207a65726f206164604082015264647265737360d81b606082015260800190565b6020808252602b908201527f496e697469616c697a61626c653a20636f6e7472616374206973206e6f74206960408201526a6e697469616c697a696e6760a81b606082015260800190565b600060a082018783526020878185015260a0604085015281875180845260c0860191508289019350845b818110156139b95784516001600160a01b031683529383019391830191600101613994565b50506001600160a01b03969096166060850152505050608001529392505050565b604051601f8201601f1916810167ffffffffffffffff81118282101715613a0357613a03613c28565b604052919050565b60008219821115613a1e57613a1e613c12565b500190565b600082613a3e57634e487b7160e01b81526012600452602481fd5b500490565b80825b6001808611613a555750613a80565b818704821115613a6757613a67613c12565b80861615613a7457918102915b9490941c938002613a46565b94509492505050565b6000610ef860001960ff851684600082613aa557506001610ef8565b81613ab257506000610ef8565b8160018114613ac85760028114613ad257613aff565b6001915050610ef8565b60ff841115613ae357613ae3613c12565b6001841b915084821115613af957613af9613c12565b50610ef8565b5060208310610133831016604e8410600b8410161715613b32575081810a83811115613b2d57613b2d613c12565b610ef8565b613b3f8484846001613a43565b808604821115613b5157613b51613c12565b02949350505050565b6000816000190483118215151615613b7457613b74613c12565b500290565b600082821015613b8b57613b8b613c12565b500390565b60005b83811015613bab578181015183820152602001613b93565b838111156128495750506000910152565b600181811c90821680613bd057607f821691505b60208210811415613bf157634e487b7160e01b600052602260045260246000fd5b50919050565b6000600019821415613c0b57613c0b613c12565b5060010190565b634e487b7160e01b600052601160045260246000fd5b634e487b7160e01b600052604160045260246000fd5b6001600160a01b038116811461109057600080fdfe360894a13ba1a3210667c828492db98dca3e2076cc3735a920a3ca505d382bbc416464726573733a206c6f772d6c6576656c2064656c65676174652063616c6c206661696c6564ddf252ad1be2c89b69c2b068fc378daa952ba7f163c4a11628f55a4df523b3efa2646970667358221220a10455e94e699b43048cc17fbb4f8223550d565ca1793b5a28a3ae12594cb71664736f6c63430008030033",
  "linkReferences": {},
  "deployedLinkReferences": {}
}