{
  "_format": "hh-sol-artifact-1",
  "contractName": "AAA",
  "sourceName": "contracts/aaa.sol",
  "abi": [
    {
      "inputs": [],
      "stateMutability": "nonpayable",
      "type": "constructor"
    },
    {
      "anonymous": false,
      "inputs": [
        {
          "indexed": false,
          "internalType": "address",
          "name": "previousAdmin",
          "type": "address"
        },
        {
          "indexed": false,
          "internalType": "address",
          "name": "newAdmin",
          "type": "address"
        }
      ],
      "name": "AdminChanged",
      "type": "event"
    },
    {
      "anonymous": false,
      "inputs": [
        {
          "indexed": true,
          "internalType": "address",
          "name": "owner",
          "type": "address"
        },
        {
          "indexed": true,
          "internalType": "address",
          "name": "spender",
          "type": "address"
        },
        {
          "indexed": false,
          "internalType": "uint256",
          "name": "value",
          "type": "uint256"
        }
      ],
      "name": "Approval",
      "type": "event"
    },
    {
      "anonymous": false,
      "inputs": [
        {
          "indexed": true,
          "internalType": "address",
          "name": "beacon",
          "type": "address"
        }
      ],
      "name": "BeaconUpgraded",
      "type": "event"
    },
    {
      "anonymous": false,
      "inputs": [
        {
          "indexed": false,
          "internalType": "uint256",
          "name": "ty",
          "type": "uint256"
        },
        {
          "indexed": false,
          "internalType": "uint256",
          "name": "seq",
          "type": "uint256"
        },
        {
          "indexed": false,
          "internalType": "address",
          "name": "sender",
          "type": "address"
        },
        {
          "indexed": false,
          "internalType": "address",
          "name": "form",
          "type": "address"
        },
        {
          "indexed": false,
          "internalType": "address",
          "name": "to",
          "type": "address"
        },
        {
          "indexed": false,
          "internalType": "uint256",
          "name": "amount",
          "type": "uint256"
        }
      ],
      "name": "Log",
      "type": "event"
    },
    {
      "anonymous": false,
      "inputs": [
        {
          "indexed": true,
          "internalType": "address",
          "name": "previousOwner",
          "type": "address"
        },
        {
          "indexed": true,
          "internalType": "address",
          "name": "newOwner",
          "type": "address"
        }
      ],
      "name": "OwnershipTransferred",
      "type": "event"
    },
    {
      "anonymous": false,
      "inputs": [
        {
          "indexed": true,
          "internalType": "address",
          "name": "from",
          "type": "address"
        },
        {
          "indexed": true,
          "internalType": "address",
          "name": "to",
          "type": "address"
        },
        {
          "indexed": false,
          "internalType": "uint256",
          "name": "value",
          "type": "uint256"
        }
      ],
      "name": "Transfer",
      "type": "event"
    },
    {
      "anonymous": false,
      "inputs": [
        {
          "indexed": true,
          "internalType": "address",
          "name": "implementation",
          "type": "address"
        }
      ],
      "name": "Upgraded",
      "type": "event"
    },
    {
      "inputs": [],
      "name": "_burnFee",
      "outputs": [
        {
          "internalType": "uint256",
          "name": "",
          "type": "uint256"
        }
      ],
      "stateMutability": "view",
      "type": "function"
    },
    {
      "inputs": [],
      "name": "_burnStopAtAmount",
      "outputs": [
        {
          "internalType": "uint256",
          "name": "",
          "type": "uint256"
        }
      ],
      "stateMutability": "view",
      "type": "function"
    },
    {
      "inputs": [
        {
          "internalType": "uint256",
          "name": "tAmount",
          "type": "uint256"
        }
      ],
      "name": "_getFeeValues",
      "outputs": [
        {
          "internalType": "uint256",
          "name": "",
          "type": "uint256"
        },
        {
          "internalType": "uint256",
          "name": "",
          "type": "uint256"
        },
        {
          "internalType": "uint256",
          "name": "",
          "type": "uint256"
        }
      ],
      "stateMutability": "view",
      "type": "function"
    },
    {
      "inputs": [],
      "name": "_rewardFee",
      "outputs": [
        {
          "internalType": "uint256",
          "name": "",
          "type": "uint256"
        }
      ],
      "stateMutability": "view",
      "type": "function"
    },
    {
      "inputs": [],
      "name": "_routerAddress",
      "outputs": [
        {
          "internalType": "address",
          "name": "",
          "type": "address"
        }
      ],
      "stateMutability": "view",
      "type": "function"
    },
    {
      "inputs": [],
      "name": "_swapAtAmount",
      "outputs": [
        {
          "internalType": "uint256",
          "name": "",
          "type": "uint256"
        }
      ],
      "stateMutability": "view",
      "type": "function"
    },
    {
      "inputs": [
        {
          "internalType": "address",
          "name": "account",
          "type": "address"
        }
      ],
      "name": "addHolder",
      "outputs": [],
      "stateMutability": "nonpayable",
      "type": "function"
    },
    {
      "inputs": [
        {
          "internalType": "address",
          "name": "owner",
          "type": "address"
        },
        {
          "internalType": "address",
          "name": "spender",
          "type": "address"
        }
      ],
      "name": "allowance",
      "outputs": [
        {
          "internalType": "uint256",
          "name": "",
          "type": "uint256"
        }
      ],
      "stateMutability": "view",
      "type": "function"
    },
    {
      "inputs": [
        {
          "internalType": "address",
          "name": "spender",
          "type": "address"
        },
        {
          "internalType": "uint256",
          "name": "amount",
          "type": "uint256"
        }
      ],
      "name": "approve",
      "outputs": [
        {
          "internalType": "bool",
          "name": "",
          "type": "bool"
        }
      ],
      "stateMutability": "nonpayable",
      "type": "function"
    },
    {
      "inputs": [
        {
          "internalType": "address",
          "name": "account",
          "type": "address"
        }
      ],
      "name": "balanceOf",
      "outputs": [
        {
          "internalType": "uint256",
          "name": "",
          "type": "uint256"
        }
      ],
      "stateMutability": "view",
      "type": "function"
    },
    {
      "inputs": [],
      "name": "balanceOfRewad",
      "outputs": [
        {
          "internalType": "uint256",
          "name": "",
          "type": "uint256"
        },
        {
          "internalType": "uint256",
          "name": "",
          "type": "uint256"
        }
      ],
      "stateMutability": "view",
      "type": "function"
    },
    {
      "inputs": [
        {
          "internalType": "address",
          "name": "account",
          "type": "address"
        },
        {
          "internalType": "uint256",
          "name": "amount",
          "type": "uint256"
        }
      ],
      "name": "burn",
      "outputs": [],
      "stateMutability": "nonpayable",
      "type": "function"
    },
    {
      "inputs": [],
      "name": "decimals",
      "outputs": [
        {
          "internalType": "uint8",
          "name": "",
          "type": "uint8"
        }
      ],
      "stateMutability": "view",
      "type": "function"
    },
    {
      "inputs": [
        {
          "internalType": "address",
          "name": "spender",
          "type": "address"
        },
        {
          "internalType": "uint256",
          "name": "subtractedValue",
          "type": "uint256"
        }
      ],
      "name": "decreaseAllowance",
      "outputs": [
        {
          "internalType": "bool",
          "name": "",
          "type": "bool"
        }
      ],
      "stateMutability": "nonpayable",
      "type": "function"
    },
    {
      "inputs": [],
      "name": "excludeAddress",
      "outputs": [
        {
          "internalType": "address",
          "name": "",
          "type": "address"
        }
      ],
      "stateMutability": "view",
      "type": "function"
    },
    {
      "inputs": [
        {
          "internalType": "address",
          "name": "account",
          "type": "address"
        }
      ],
      "name": "getLiquidityValues",
      "outputs": [
        {
          "internalType": "uint256",
          "name": "",
          "type": "uint256"
        },
        {
          "internalType": "uint256",
          "name": "",
          "type": "uint256"
        }
      ],
      "stateMutability": "view",
      "type": "function"
    },
    {
      "inputs": [
        {
          "internalType": "address",
          "name": "spender",
          "type": "address"
        },
        {
          "internalType": "uint256",
          "name": "addedValue",
          "type": "uint256"
        }
      ],
      "name": "increaseAllowance",
      "outputs": [
        {
          "internalType": "bool",
          "name": "",
          "type": "bool"
        }
      ],
      "stateMutability": "nonpayable",
      "type": "function"
    },
    {
      "inputs": [],
      "name": "initialize",
      "outputs": [],
      "stateMutability": "nonpayable",
      "type": "function"
    },
    {
      "inputs": [
        {
          "internalType": "address",
          "name": "account",
          "type": "address"
        }
      ],
      "name": "isliquidityHolder",
      "outputs": [
        {
          "internalType": "bool",
          "name": "",
          "type": "bool"
        }
      ],
      "stateMutability": "view",
      "type": "function"
    },
    {
      "inputs": [],
      "name": "lastProcessedIndex",
      "outputs": [
        {
          "internalType": "uint256",
          "name": "",
          "type": "uint256"
        }
      ],
      "stateMutability": "view",
      "type": "function"
    },
    {
      "inputs": [],
      "name": "liquidityHolderIndexLength",
      "outputs": [
        {
          "internalType": "uint256",
          "name": "",
          "type": "uint256"
        }
      ],
      "stateMutability": "view",
      "type": "function"
    },
    {
      "inputs": [],
      "name": "liquidityToken",
      "outputs": [
        {
          "internalType": "contract IERC20Upgradeable",
          "name": "",
          "type": "address"
        }
      ],
      "stateMutability": "view",
      "type": "function"
    },
    {
      "inputs": [],
      "name": "name",
      "outputs": [
        {
          "internalType": "string",
          "name": "",
          "type": "string"
        }
      ],
      "stateMutability": "view",
      "type": "function"
    },
    {
      "inputs": [],
      "name": "owner",
      "outputs": [
        {
          "internalType": "address",
          "name": "",
          "type": "address"
        }
      ],
      "stateMutability": "view",
      "type": "function"
    },
    {
      "inputs": [
        {
          "internalType": "uint256",
          "name": "_gasLimit",
          "type": "uint256"
        }
      ],
      "name": "process",
      "outputs": [],
      "stateMutability": "nonpayable",
      "type": "function"
    },
    {
      "inputs": [],
      "name": "proxiableUUID",
      "outputs": [
        {
          "internalType": "bytes32",
          "name": "",
          "type": "bytes32"
        }
      ],
      "stateMutability": "view",
      "type": "function"
    },
    {
      "inputs": [
        {
          "internalType": "address",
          "name": "account",
          "type": "address"
        }
      ],
      "name": "removeHolder",
      "outputs": [],
      "stateMutability": "nonpayable",
      "type": "function"
    },
    {
      "inputs": [],
      "name": "renounceOwnership",
      "outputs": [],
      "stateMutability": "nonpayable",
      "type": "function"
    },
    {
      "inputs": [],
      "name": "rewardToken1",
      "outputs": [
        {
          "internalType": "contract IERC20Upgradeable",
          "name": "",
          "type": "address"
        }
      ],
      "stateMutability": "view",
      "type": "function"
    },
    {
      "inputs": [],
      "name": "rewardToken1Amount",
      "outputs": [
        {
          "internalType": "uint256",
          "name": "",
          "type": "uint256"
        }
      ],
      "stateMutability": "view",
      "type": "function"
    },
    {
      "inputs": [],
      "name": "rewardToken1Fee",
      "outputs": [
        {
          "internalType": "uint256",
          "name": "",
          "type": "uint256"
        }
      ],
      "stateMutability": "view",
      "type": "function"
    },
    {
      "inputs": [],
      "name": "rewardToken2",
      "outputs": [
        {
          "internalType": "contract IERC20Upgradeable",
          "name": "",
          "type": "address"
        }
      ],
      "stateMutability": "view",
      "type": "function"
    },
    {
      "inputs": [],
      "name": "rewardToken2Amount",
      "outputs": [
        {
          "internalType": "uint256",
          "name": "",
          "type": "uint256"
        }
      ],
      "stateMutability": "view",
      "type": "function"
    },
    {
      "inputs": [],
      "name": "rewardToken2Fee",
      "outputs": [
        {
          "internalType": "uint256",
          "name": "",
          "type": "uint256"
        }
      ],
      "stateMutability": "view",
      "type": "function"
    },
    {
      "inputs": [
        {
          "internalType": "uint256",
          "name": "burnStopAtAmount",
          "type": "uint256"
        }
      ],
      "name": "setBurnStopAtAmount",
      "outputs": [],
      "stateMutability": "nonpayable",
      "type": "function"
    },
    {
      "inputs": [
        {
          "internalType": "address",
          "name": "_account",
          "type": "address"
        }
      ],
      "name": "setExcludeAddress",
      "outputs": [],
      "stateMutability": "nonpayable",
      "type": "function"
    },
    {
      "inputs": [
        {
          "internalType": "uint256",
          "name": "rewardFee",
          "type": "uint256"
        },
        {
          "internalType": "uint256",
          "name": "burnFee",
          "type": "uint256"
        }
      ],
      "name": "setFee",
      "outputs": [],
      "stateMutability": "nonpayable",
      "type": "function"
    },
    {
      "inputs": [
        {
          "internalType": "uint256",
          "name": "_rewardToken1Amount",
          "type": "uint256"
        },
        {
          "internalType": "uint256",
          "name": "_rewardToken2Amount",
          "type": "uint256"
        }
      ],
      "name": "setRewardTokenAmount",
      "outputs": [],
      "stateMutability": "nonpayable",
      "type": "function"
    },
    {
      "inputs": [
        {
          "internalType": "uint256",
          "name": "_rewardToken1Free",
          "type": "uint256"
        },
        {
          "internalType": "uint256",
          "name": "_rewardToken2Free",
          "type": "uint256"
        }
      ],
      "name": "setRewardTokenFree",
      "outputs": [],
      "stateMutability": "nonpayable",
      "type": "function"
    },
    {
      "inputs": [
        {
          "internalType": "address",
          "name": "_rewardToken1",
          "type": "address"
        },
        {
          "internalType": "address",
          "name": "_rewardToken2",
          "type": "address"
        }
      ],
      "name": "setRewardTokens",
      "outputs": [],
      "stateMutability": "nonpayable",
      "type": "function"
    },
    {
      "inputs": [
        {
          "internalType": "uint256",
          "name": "rewardAtAmount",
          "type": "uint256"
        }
      ],
      "name": "setSwapAtAmount",
      "outputs": [],
      "stateMutability": "nonpayable",
      "type": "function"
    },
    {
      "inputs": [
        {
          "internalType": "address",
          "name": "addr",
          "type": "address"
        }
      ],
      "name": "setUniswapV2Pair",
      "outputs": [],
      "stateMutability": "nonpayable",
      "type": "function"
    },
    {
      "inputs": [
        {
          "internalType": "address",
          "name": "addr",
          "type": "address"
        }
      ],
      "name": "setliquidityAddress",
      "outputs": [],
      "stateMutability": "nonpayable",
      "type": "function"
    },
    {
      "inputs": [
        {
          "internalType": "uint256",
          "name": "tokenAmount",
          "type": "uint256"
        },
        {
          "internalType": "address",
          "name": "outToken",
          "type": "address"
        }
      ],
      "name": "swapTokensFor2Tokens",
      "outputs": [],
      "stateMutability": "nonpayable",
      "type": "function"
    },
    {
      "inputs": [
        {
          "internalType": "uint256",
          "name": "tokenAmount",
          "type": "uint256"
        },
        {
          "internalType": "address",
          "name": "outToken",
          "type": "address"
        }
      ],
      "name": "swapTokensFor3Tokens",
      "outputs": [],
      "stateMutability": "nonpayable",
      "type": "function"
    },
    {
      "inputs": [
        {
          "internalType": "uint256",
          "name": "tokenAmount",
          "type": "uint256"
        }
      ],
      "name": "swapTokensForEth",
      "outputs": [],
      "stateMutability": "nonpayable",
      "type": "function"
    },
    {
      "inputs": [],
      "name": "symbol",
      "outputs": [
        {
          "internalType": "string",
          "name": "",
          "type": "string"
        }
      ],
      "stateMutability": "view",
      "type": "function"
    },
    {
      "inputs": [
        {
          "internalType": "address",
          "name": "token",
          "type": "address"
        }
      ],
      "name": "take",
      "outputs": [],
      "stateMutability": "nonpayable",
      "type": "function"
    },
    {
      "inputs": [],
      "name": "totalSupply",
      "outputs": [
        {
          "internalType": "uint256",
          "name": "",
          "type": "uint256"
        }
      ],
      "stateMutability": "view",
      "type": "function"
    },
    {
      "inputs": [
        {
          "internalType": "address",
          "name": "to",
          "type": "address"
        },
        {
          "internalType": "uint256",
          "name": "amount",
          "type": "uint256"
        }
      ],
      "name": "transfer",
      "outputs": [
        {
          "internalType": "bool",
          "name": "",
          "type": "bool"
        }
      ],
      "stateMutability": "nonpayable",
      "type": "function"
    },
    {
      "inputs": [
        {
          "internalType": "address[]",
          "name": "recipients",
          "type": "address[]"
        },
        {
          "internalType": "uint256",
          "name": "amount",
          "type": "uint256"
        }
      ],
      "name": "transferBatch",
      "outputs": [
        {
          "internalType": "bool",
          "name": "",
          "type": "bool"
        }
      ],
      "stateMutability": "nonpayable",
      "type": "function"
    },
    {
      "inputs": [
        {
          "internalType": "address",
          "name": "from",
          "type": "address"
        },
        {
          "internalType": "address",
          "name": "to",
          "type": "address"
        },
        {
          "internalType": "uint256",
          "name": "amount",
          "type": "uint256"
        }
      ],
      "name": "transferFrom",
      "outputs": [
        {
          "internalType": "bool",
          "name": "",
          "type": "bool"
        }
      ],
      "stateMutability": "nonpayable",
      "type": "function"
    },
    {
      "inputs": [
        {
          "internalType": "address",
          "name": "newOwner",
          "type": "address"
        }
      ],
      "name": "transferOwnership",
      "outputs": [],
      "stateMutability": "nonpayable",
      "type": "function"
    },
    {
      "inputs": [],
      "name": "uniswapV2Pair",
      "outputs": [
        {
          "internalType": "address",
          "name": "",
          "type": "address"
        }
      ],
      "stateMutability": "view",
      "type": "function"
    },
    {
      "inputs": [],
      "name": "uniswapV2Router",
      "outputs": [
        {
          "internalType": "contract IUniswapV2Router02",
          "name": "",
          "type": "address"
        }
      ],
      "stateMutability": "view",
      "type": "function"
    },
    {
      "inputs": [
        {
          "internalType": "uint256",
          "name": "newValue",
          "type": "uint256"
        }
      ],
      "name": "updateGasForProcessing",
      "outputs": [],
      "stateMutability": "nonpayable",
      "type": "function"
    },
    {
      "inputs": [
        {
          "internalType": "address",
          "name": "newImplementation",
          "type": "address"
        }
      ],
      "name": "upgradeTo",
      "outputs": [],
      "stateMutability": "nonpayable",
      "type": "function"
    },
    {
      "inputs": [
        {
          "internalType": "address",
          "name": "newImplementation",
          "type": "address"
        },
        {
          "internalType": "bytes",
          "name": "data",
          "type": "bytes"
        }
      ],
      "name": "upgradeToAndCall",
      "outputs": [],
      "stateMutability": "payable",
      "type": "function"
    },
    {
      "stateMutability": "payable",
      "type": "receive"
    }
  ],
  "bytecode": "0x60a06040523060601b6080523480156200001857600080fd5b50600054610100900460ff16620000365760005460ff161562000040565b62000040620000e5565b620000a85760405162461bcd60e51b815260206004820152602e60248201527f496e697469616c697a61626c653a20636f6e747261637420697320616c72656160448201526d191e481a5b9a5d1a585b1a5e995960921b606482015260840160405180910390fd5b600054610100900460ff16158015620000cb576000805461ffff19166101011790555b8015620000de576000805461ff00191690555b5062000112565b6000620000fd306200010360201b620029971760201c565b15905090565b6001600160a01b03163b151590565b60805160601c6143c76200014d6000396000818161104701528181611087015281816113b6015281816113f6015261148501526143c76000f3fe6080604052600436106103855760003560e01c8063715018a6116101d1578063bb231ceb11610102578063d872a4cc116100a0578063efc3b7bd1161006f578063efc3b7bd14610a62578063f2929b2314610a79578063f2fde38b14610a90578063ffb2c47914610ab05761038c565b8063d872a4cc146109bb578063d9e66460146109db578063dc697bcb146109fc578063dd62ed3e14610a1c5761038c565b8063cb05114f116100dc578063cb05114f1461094e578063cb8446b214610963578063cc99498c1461097a578063d61a47f11461099a5761038c565b8063bb231ceb14610903578063c0b0fda214610923578063c5c3cbda146109395761038c565b806395d89b411161016f578063a457c2d711610149578063a457c2d714610883578063a9059cbb146108a3578063ac1e17df146108c3578063b28805f4146108e35761038c565b806395d89b411461082e5780639dc29fac14610843578063a29a6089146108635761038c565b80638129fc1c116101ab5780638129fc1c146107bb578063871c128d146107d05780638da5cb5b146107f05780638dd428081461080e5761038c565b8063715018a61461076657806378fa66481461077b578063806e085e1461079b5761038c565b80633bf20753116102b657806352d1902d116102545780636775d967116102235780636775d967146106d85780636d1fc4d1146106f85780636f28d6881461070f57806370a08231146107305761038c565b806352d1902d1461066357806352f7c9881461067857806360a2c14d146106985780636402511e146106b85761038c565b806349bd5a5e1161029057806349bd5a5e146105f95780634d44e6631461061a5780634f1ef2861461063a57806351fde4bb1461064d5761038c565b80633bf20753146105a157806343cd8f7e146105c1578063490e32cc146105e25761038c565b806323b872dd11610323578063313ce567116102fd578063313ce5671461050a57806335773b88146105265780633659cfe61461056157806339509351146105815761038c565b806323b872dd146104b157806326330dab146104d15780633009a609146104f35761038c565b8063166d8a911161035f578063166d8a91146104215780631694505e1461045a57806318160ddd1461047b5780631a536a321461049a5761038c565b806306fdde0314610391578063095ea7b3146103bc57806315cba925146103ec5761038c565b3661038c57005b600080fd5b34801561039d57600080fd5b506103a6610ad0565b6040516103b39190613e4e565b60405180910390f35b3480156103c857600080fd5b506103dc6103d7366004613c84565b610b62565b60405190151581526020016103b3565b3480156103f857600080fd5b5061040c610407366004613b32565b610b7c565b604080519283526020830191909152016103b3565b34801561042d57600080fd5b5061010d54610442906001600160a01b031681565b6040516001600160a01b0390911681526020016103b3565b34801561046657600080fd5b5061010654610442906001600160a01b031681565b34801561048757600080fd5b506035545b6040519081526020016103b3565b3480156104a657600080fd5b5061048c61010b5481565b3480156104bd57600080fd5b506103dc6104cc366004613ba2565b610d3a565b3480156104dd57600080fd5b506104f16104ec366004613ddd565b610f93565b005b3480156104ff57600080fd5b5061048c61010e5481565b34801561051657600080fd5b50604051601281526020016103b3565b34801561053257600080fd5b50610546610541366004613da1565b610fd3565b604080519384526020840192909252908201526060016103b3565b34801561056d57600080fd5b506104f161057c366004613b32565b61103c565b34801561058d57600080fd5b506103dc61059c366004613c84565b61111c565b3480156105ad57600080fd5b506104f16105bc366004613db9565b61115b565b3480156105cd57600080fd5b5061010a54610442906001600160a01b031681565b3480156105ee57600080fd5b5061048c6101005481565b34801561060557600080fd5b5061010754610442906001600160a01b031681565b34801561062657600080fd5b506104f1610635366004613b32565b611278565b6104f1610648366004613be2565b6113ab565b34801561065957600080fd5b5061048c60fe5481565b34801561066f57600080fd5b5061048c611478565b34801561068457600080fd5b506104f1610693366004613ddd565b61152b565b3480156106a457600080fd5b506104f16106b3366004613ddd565b611560565b3480156106c457600080fd5b506104f16106d3366004613da1565b611597565b3480156106e457600080fd5b506104f16106f3366004613b32565b6115c7565b34801561070457600080fd5b5061048c6101015481565b34801561071b57600080fd5b5061010854610442906001600160a01b031681565b34801561073c57600080fd5b5061048c61074b366004613b32565b6001600160a01b031660009081526033602052604090205490565b34801561077257600080fd5b506104f1611614565b34801561078757600080fd5b506104f1610796366004613b32565b61164a565b3480156107a757600080fd5b506103dc6107b6366004613caf565b611697565b3480156107c757600080fd5b506104f16116f2565b3480156107dc57600080fd5b506104f16107eb366004613da1565b611b81565b3480156107fc57600080fd5b5060c9546001600160a01b0316610442565b34801561081a57600080fd5b506104f1610829366004613b32565b611ca5565b34801561083a57600080fd5b506103a6611cb0565b34801561084f57600080fd5b506104f161085e366004613c84565b611cbf565b34801561086f57600080fd5b506104f161087e366004613b32565b611cf3565b34801561088f57600080fd5b506103dc61089e366004613c84565b611d40565b3480156108af57600080fd5b506103dc6108be366004613c84565b611ddd565b3480156108cf57600080fd5b506104f16108de366004613b32565b6121b3565b3480156108ef57600080fd5b506104f16108fe366004613da1565b6121be565b34801561090f57600080fd5b506103dc61091e366004613b32565b612346565b34801561092f57600080fd5b5061048c60ff5481565b34801561094557600080fd5b5061040c612353565b34801561095a57600080fd5b5061048c6123dc565b34801561096f57600080fd5b5061048c6101035481565b34801561098657600080fd5b506104f1610995366004613db9565b6123ed565b3480156109a657600080fd5b5061010954610442906001600160a01b031681565b3480156109c757600080fd5b506104f16109d6366004613b6a565b612522565b3480156109e757600080fd5b5061010254610442906001600160a01b031681565b348015610a0857600080fd5b506104f1610a17366004613da1565b61257c565b348015610a2857600080fd5b5061048c610a37366004613b6a565b6001600160a01b03918216600090815260346020908152604080832093909416825291909152205490565b348015610a6e57600080fd5b5061048c61010c5481565b348015610a8557600080fd5b5061048c6101045481565b348015610a9c57600080fd5b506104f1610aab366004613b32565b6125ac565b348015610abc57600080fd5b506104f1610acb366004613da1565b612644565b606060368054610adf90614273565b80601f0160208091040260200160405190810160405280929190818152602001828054610b0b90614273565b8015610b585780601f10610b2d57610100808354040283529160200191610b58565b820191906000526020600020905b815481529060010190602001808311610b3b57829003601f168201915b5050505050905090565b600033610b708185856129a6565b60019150505b92915050565b600080600061010a60009054906101000a90046001600160a01b03166001600160a01b03166318160ddd6040518163ffffffff1660e01b815260040160206040518083038186803b158015610bd057600080fd5b505afa158015610be4573d6000803e3d6000fd5b505050506040513d601f19601f82011682018060405250810190610c089190613d89565b905080610c1c576000809250925050610d35565b61010a5461010d546040516370a0823160e01b81526001600160a01b03918216600482015260009291909116906370a082319060240160206040518083038186803b158015610c6a57600080fd5b505afa158015610c7e573d6000803e3d6000fd5b505050506040513d601f19601f82011682018060405250810190610ca29190613d89565b9050610cae8282612aca565b61010a546040516370a0823160e01b81526001600160a01b0388811660048301529294509116906370a082319060240160206040518083038186803b158015610cf657600080fd5b505afa158015610d0a573d6000803e3d6000fd5b505050506040513d601f19601f82011682018060405250810190610d2e9190613d89565b9350909150505b915091565b600060008051602061432b83398151915260018033878787604051610d6496959493929190613e1a565b60405180910390a160c95433906001600160a01b03868116911614801590610d9157506101045460355410155b15610dd75760008051602061432b8339815191526001600233888888604051610dbf96959493929190613e1a565b60405180910390a1610dd2858585612ad6565b610e13565b60008051602061432b8339815191526001600333888888604051610e0096959493929190613e1a565b60405180910390a1610e13858585612d64565b610e1e858285612ea8565b60fd5460ff16158015610e3f575060c9546001600160a01b03868116911614155b15610f865761010a546040516370a0823160e01b81526001600160a01b03878116600483015260009216906370a082319060240160206040518083038186803b158015610e8b57600080fd5b505afa158015610e9f573d6000803e3d6000fd5b505050506040513d601f19601f82011682018060405250810190610ec39190613d89565b118015610ed65750610ed485612346565b155b15610ee957610ee4856121b3565b610f86565b61010a546040516370a0823160e01b81526001600160a01b038781166004830152909116906370a082319060240160206040518083038186803b158015610f2f57600080fd5b505afa158015610f43573d6000803e3d6000fd5b505050506040513d601f19601f82011682018060405250810190610f679190613d89565b158015610f785750610f7885612346565b15610f8657610f8685611ca5565b60019150505b9392505050565b60c9546001600160a01b03163314610fc65760405162461bcd60e51b8152600401610fbd90613f5c565b60405180910390fd5b61010b9190915561010c55565b600080600080610ffa612710610ff460ff5488612f3490919063ffffffff16565b90612f40565b90506000611019612710610ff460fe5489612f3490919063ffffffff16565b90506110258683612aca565b95506110318682612aca565b969195509350915050565b306001600160a01b037f00000000000000000000000000000000000000000000000000000000000000001614156110855760405162461bcd60e51b8152600401610fbd90613ec4565b7f00000000000000000000000000000000000000000000000000000000000000006001600160a01b03166110ce60008051602061430b833981519152546001600160a01b031690565b6001600160a01b0316146110f45760405162461bcd60e51b8152600401610fbd90613f10565b6110fd81612f4c565b6040805160008082526020820190925261111991839190612f76565b50565b3360008181526034602090815260408083206001600160a01b0387168452909152812054909190610b7090829086906111569087906140c2565b6129a6565b604080516002808252606082018352600092602083019080368337019050509050308160008151811061119e57634e487b7160e01b600052603260045260246000fd5b60200260200101906001600160a01b031690816001600160a01b03168152505081816001815181106111e057634e487b7160e01b600052603260045260246000fd5b6001600160a01b0392831660209182029290920101526101065461120791309116856129a6565b61010654604051635c11d79560e01b81526001600160a01b0390911690635c11d79590611241908690600090869030904290600401614021565b600060405180830381600087803b15801561125b57600080fd5b505af115801561126f573d6000803e3d6000fd5b50505050505050565b60c9546001600160a01b031633146112a25760405162461bcd60e51b8152600401610fbd90613f5c565b6001600160a01b03811663a9059cbb336040516370a0823160e01b81523060048201526001600160a01b038516906370a082319060240160206040518083038186803b1580156112f157600080fd5b505afa158015611305573d6000803e3d6000fd5b505050506040513d601f19601f820116820180604052508101906113299190613d89565b6040516001600160e01b031960e085901b1681526001600160a01b0390921660048301526024820152604401602060405180830381600087803b15801561136f57600080fd5b505af1158015611383573d6000803e3d6000fd5b505050506040513d601f19601f820116820180604052508101906113a79190613d69565b5050565b306001600160a01b037f00000000000000000000000000000000000000000000000000000000000000001614156113f45760405162461bcd60e51b8152600401610fbd90613ec4565b7f00000000000000000000000000000000000000000000000000000000000000006001600160a01b031661143d60008051602061430b833981519152546001600160a01b031690565b6001600160a01b0316146114635760405162461bcd60e51b8152600401610fbd90613f10565b61146c82612f4c565b6113a782826001612f76565b6000306001600160a01b037f000000000000000000000000000000000000000000000000000000000000000016146115185760405162461bcd60e51b815260206004820152603860248201527f555550535570677261646561626c653a206d757374206e6f742062652063616c60448201527f6c6564207468726f7567682064656c656761746563616c6c00000000000000006064820152608401610fbd565b5060008051602061430b83398151915290565b60c9546001600160a01b031633146115555760405162461bcd60e51b8152600401610fbd90613f5c565b60fe9190915560ff55565b60c9546001600160a01b0316331461158a5760405162461bcd60e51b8152600401610fbd90613f5c565b6101009190915561010155565b60c9546001600160a01b031633146115c15760405162461bcd60e51b8152600401610fbd90613f5c565b61010355565b60c9546001600160a01b031633146115f15760405162461bcd60e51b8152600401610fbd90613f5c565b61010a80546001600160a01b0319166001600160a01b0392909216919091179055565b60c9546001600160a01b0316331461163e5760405162461bcd60e51b8152600401610fbd90613f5c565b61164860006130fa565b565b60c9546001600160a01b031633146116745760405162461bcd60e51b8152600401610fbd90613f5c565b61010d80546001600160a01b0319166001600160a01b0392909216919091179055565b6000805b83518110156116e8576116d6338583815181106116c857634e487b7160e01b600052603260045260246000fd5b602002602001015185612d64565b806116e0816142ae565b91505061169b565b5060019392505050565b600054610100900460ff1661170d5760005460ff1615611711565b303b155b6117745760405162461bcd60e51b815260206004820152602e60248201527f496e697469616c697a61626c653a20636f6e747261637420697320616c72656160448201526d191e481a5b9a5d1a585b1a5e995960921b6064820152608401610fbd565b600054610100900460ff16158015611796576000805461ffff19166101011790555b6117dd6040518060400160405280600a81526020016925bab0b33a9021b7b4b760b11b815250604051806040016040528060038152602001624b464360e81b81525061314c565b6117e561317d565b6117ed6131ac565b61180e336117fd6012600a614140565b61180990612710614211565b6131d3565b61019060fe55606460ff5560326101008190556101015561010280546001600160a01b03191673d99d1c33f9fc3444f8101754abc46c52416550d1179055611854601290565b61185f90600a614140565b61186a90600f614211565b6101035561187a6012600a614140565b61188690610384614211565b61010455617530610105556101025461010680546001600160a01b0319166001600160a01b0390921691821790556040805163c45a015560e01b8152905163c45a015591600480820192602092909190829003018186803b1580156118ea57600080fd5b505afa1580156118fe573d6000803e3d6000fd5b505050506040513d601f19601f820116820180604052508101906119229190613b4e565b6001600160a01b031663c9c653963061010660009054906101000a90046001600160a01b03166001600160a01b031663ad5c46486040518163ffffffff1660e01b815260040160206040518083038186803b15801561198057600080fd5b505afa158015611994573d6000803e3d6000fd5b505050506040513d601f19601f820116820180604052508101906119b89190613b4e565b6040516001600160e01b031960e085901b1681526001600160a01b03928316600482015291166024820152604401602060405180830381600087803b158015611a0057600080fd5b505af1158015611a14573d6000803e3d6000fd5b505050506040513d601f19601f82011682018060405250810190611a389190613b4e565b61010780546001600160a01b039283166001600160a01b0319918216811790925561010a8054909116909117905561010654604080516315ab88c960e31b81529051919092169163ad5c4648916004808301926020929190829003018186803b158015611aa457600080fd5b505afa158015611ab8573d6000803e3d6000fd5b505050506040513d601f19601f82011682018060405250810190611adc9190613b4e565b61010880546001600160a01b03929092166001600160a01b03199283161790556101098054909116737ef95a0fee0dd31b22626fa2e10ee6a223f8a6841790556702c68af0bb14000061010b556302625a0061010c55611b393390565b6001600160a01b03166000600080516020614372833981519152611b5c60355490565b60405190815260200160405180910390a38015611119576000805461ff001916905550565b60c9546001600160a01b03163314611bab5760405162461bcd60e51b8152600401610fbd90613f5c565b62030d408110158015611bc157506207a1208111155b611c335760405162461bcd60e51b815260206004820152603860248201527f424b3a20676173466f7250726f63657373696e67206d7573742062652062657460448201527f7765656e203230302c30303020616e64203530302c30303000000000000000006064820152608401610fbd565b61010554811415611c9f5760405162461bcd60e51b815260206004820152603060248201527f424b3a2043616e6e6f742075706461746520676173466f7250726f636573736960448201526f6e6720746f2073616d652076616c756560801b6064820152608401610fbd565b61010555565b6113a760fb826132a1565b606060378054610adf90614273565b60c9546001600160a01b03163314611ce95760405162461bcd60e51b8152600401610fbd90613f5c565b6113a782826132b6565b60c9546001600160a01b03163314611d1d5760405162461bcd60e51b8152600401610fbd90613f5c565b61010780546001600160a01b0319166001600160a01b0392909216919091179055565b3360008181526034602090815260408083206001600160a01b038716845290915281205490919083811015611dc55760405162461bcd60e51b815260206004820152602560248201527f45524332303a2064656372656173656420616c6c6f77616e63652062656c6f77604482015264207a65726f60d81b6064820152608401610fbd565b611dd282868684036129a6565b506001949350505050565b600060008051602061432b8339815191526002600133338787604051611e0896959493929190613e1a565b60405180910390a160c9546001600160a01b03163314801590611e3f5750610107546001600160a01b0316336001600160a01b0316145b8015611e5057506101045460355410155b15611e955760008051602061432b83398151915260028033338787604051611e7d96959493929190613e1a565b60405180910390a1611e90338484612ad6565b611ed1565b60008051602061432b8339815191526002600333338787604051611ebe96959493929190613e1a565b60405180910390a1611ed1338484612d64565b60008051602061432b8339815191526002600433338787604051611efa96959493929190613e1a565b60405180910390a160fd5460ff166121aa5761010a546040516370a0823160e01b81526001600160a01b03858116600483015260009216906370a082319060240160206040518083038186803b158015611f5357600080fd5b505afa158015611f67573d6000803e3d6000fd5b505050506040513d601f19601f82011682018060405250810190611f8b9190613d89565b118015611f9e5750611f9c83612346565b155b15611fb157611fac836121b3565b61204e565b61010a546040516370a0823160e01b81526001600160a01b038581166004830152909116906370a082319060240160206040518083038186803b158015611ff757600080fd5b505afa15801561200b573d6000803e3d6000fd5b505050506040513d601f19601f8201168201806040525081019061202f9190613d89565b158015612040575061204083612346565b1561204e5761204e83611ca5565b61010a546000906001600160a01b03166370a08231336040516001600160e01b031960e084901b1681526001600160a01b03909116600482015260240160206040518083038186803b1580156120a357600080fd5b505afa1580156120b7573d6000803e3d6000fd5b505050506040513d601f19601f820116820180604052508101906120db9190613d89565b1180156120ee57506120ec3361091e565b155b15612101576120fc336108de565b6121aa565b61010a546001600160a01b03166370a08231336040516001600160e01b031960e084901b1681526001600160a01b03909116600482015260240160206040518083038186803b15801561215357600080fd5b505afa158015612167573d6000803e3d6000fd5b505050506040513d601f19601f8201168201806040525081019061218b9190613d89565b15801561219c575061219c3361091e565b156121aa576121aa33610829565b50600192915050565b6113a760fb826133f2565b604080516002808252606082018352600092602083019080368337019050509050308160008151811061220157634e487b7160e01b600052603260045260246000fd5b6001600160a01b0392831660209182029290920181019190915261010654604080516315ab88c960e31b81529051919093169263ad5c4648926004808301939192829003018186803b15801561225657600080fd5b505afa15801561226a573d6000803e3d6000fd5b505050506040513d601f19601f8201168201806040525081019061228e9190613b4e565b816001815181106122af57634e487b7160e01b600052603260045260246000fd5b6001600160a01b039283166020918202929092010152610106546122d691309116846129a6565b6101065460405163791ac94760e01b81526001600160a01b039091169063791ac94790612310908590600090869030904290600401614021565b600060405180830381600087803b15801561232a57600080fd5b505af115801561233e573d6000803e3d6000fd5b505050505050565b6000610b7660fb83613407565b610109546040516370a0823160e01b8152306004820152600091829147916001600160a01b0316906370a082319060240160206040518083038186803b15801561239c57600080fd5b505afa1580156123b0573d6000803e3d6000fd5b505050506040513d601f19601f820116820180604052508101906123d49190613d89565b915091509091565b60006123e860fb613429565b905090565b6040805160038082526080820190925260009160208201606080368337019050509050308160008151811061243257634e487b7160e01b600052603260045260246000fd5b6001600160a01b0392831660209182029290920181019190915261010654604080516315ab88c960e31b81529051919093169263ad5c4648926004808301939192829003018186803b15801561248757600080fd5b505afa15801561249b573d6000803e3d6000fd5b505050506040513d601f19601f820116820180604052508101906124bf9190613b4e565b816001815181106124e057634e487b7160e01b600052603260045260246000fd5b60200260200101906001600160a01b031690816001600160a01b03168152505081816002815181106111e057634e487b7160e01b600052603260045260246000fd5b60c9546001600160a01b0316331461254c5760405162461bcd60e51b8152600401610fbd90613f5c565b61010880546001600160a01b039384166001600160a01b0319918216179091556101098054929093169116179055565b60c9546001600160a01b031633146125a65760405162461bcd60e51b8152600401610fbd90613f5c565b61010455565b60c9546001600160a01b031633146125d65760405162461bcd60e51b8152600401610fbd90613f5c565b6001600160a01b03811661263b5760405162461bcd60e51b815260206004820152602660248201527f4f776e61626c653a206e6577206f776e657220697320746865207a65726f206160448201526564647265737360d01b6064820152608401610fbd565b611119816130fa565b600061265060fb613429565b9050801580612661575061010b5447105b806126e9575061010c54610109546040516370a0823160e01b81523060048201526001600160a01b03909116906370a082319060240160206040518083038186803b1580156126af57600080fd5b505afa1580156126c3573d6000803e3d6000fd5b505050506040513d601f19601f820116820180604052508101906126e79190613d89565b105b156126f45750611119565b61010e546000805a905060005b858310801561270f57508481105b1561298c578061271e816142ae565b91505061272b60fb613429565b841061273657600093505b600061274360fb86613433565b905060008061275183610b7c565b9150915081600014156127725761276960fb846132a1565b50505050612701565b600061278e82610ff48561010b54612f3490919063ffffffff16565b905060006127ac83610ff48661010c54612f3490919063ffffffff16565b9050814710806128355750610109546040516370a0823160e01b815230600482015282916001600160a01b0316906370a082319060240160206040518083038186803b1580156127fb57600080fd5b505afa15801561280f573d6000803e3d6000fd5b505050506040513d601f19601f820116820180604052508101906128339190613d89565b105b156128495750505050505050505050611119565b6000841180156128595750600083115b8015612874575061010d546001600160a01b03868116911614155b801561288857506001600160a01b03851615155b1561294d576040516001600160a01b0386169083156108fc029084906000818181858888f193505050501580156128c3573d6000803e3d6000fd5b506101095460405163a9059cbb60e01b81526001600160a01b038781166004830152602482018490529091169063a9059cbb90604401602060405180830381600087803b15801561291357600080fd5b505af1158015612927573d6000803e3d6000fd5b505050506040513d601f19601f8201168201806040525081019061294b9190613d69565b505b60005a9050808811156129715761296e6129678983612aca565b8a9061343f565b98505b9650868961297e816142ae565b9a5050505050505050612701565b50505061010e555050565b6001600160a01b03163b151590565b6001600160a01b038316612a085760405162461bcd60e51b8152602060048201526024808201527f45524332303a20617070726f76652066726f6d20746865207a65726f206164646044820152637265737360e01b6064820152608401610fbd565b6001600160a01b038216612a695760405162461bcd60e51b815260206004820152602260248201527f45524332303a20617070726f766520746f20746865207a65726f206164647265604482015261737360f01b6064820152608401610fbd565b6001600160a01b0383811660008181526034602090815260408083209487168084529482529182902085905590518481527f8c5be1e5ebec7d5bd14f71427d1e84f3dd0314c0f7b2291e5b200ac8c7c3b925910160405180910390a3505050565b6000610f8c8284614230565b6001600160a01b038316612afc5760405162461bcd60e51b8152600401610fbd90613f91565b6001600160a01b038216612b225760405162461bcd60e51b8152600401610fbd90613e81565b60008111612b845760405162461bcd60e51b815260206004820152602960248201527f5472616e7366657220616d6f756e74206d7573742062652067726561746572206044820152687468616e207a65726f60b81b6064820152608401610fbd565b60008051602061432b8339815191526000600133868686604051612bad96959493929190613e1a565b60405180910390a160008051602061432b8339815191526000600233868686604051612bde96959493929190613e1a565b60405180910390a1612bf0838361344b565b60fd5460ff16612d235760008051602061432b8339815191526000600333868686604051612c2396959493929190613e1a565b60405180910390a16000806000612c3984610fd3565b92509250925082935061010454612c5983612c5360355490565b90612aca565b10612cb85760008051602061432b83398151915260006108ae338989612c948c6001600160a01b031660009081526033602052604090205490565b604051612ca696959493929190613e1a565b60405180910390a1612cb886836132b6565b60008051602061432b833981519152600061014d338989612cee8c6001600160a01b031660009081526033602052604090205490565b604051612d0096959493929190613e1a565b60405180910390a1612d13863083612d64565b612d1f61010554612644565b5050505b612d2e838383612d64565b60008051602061432b8339815191526000600533868686604051612d5796959493929190613e1a565b60405180910390a1505050565b6001600160a01b038316612d8a5760405162461bcd60e51b8152600401610fbd90613f91565b6001600160a01b038216612db05760405162461bcd60e51b8152600401610fbd90613e81565b6001600160a01b03831660009081526033602052604090205481811015612e285760405162461bcd60e51b815260206004820152602660248201527f45524332303a207472616e7366657220616d6f756e7420657863656564732062604482015265616c616e636560d01b6064820152608401610fbd565b6001600160a01b03808516600090815260336020526040808220858503905591851681529081208054849290612e5f9084906140c2565b92505081905550826001600160a01b0316846001600160a01b031660008051602061437283398151915284604051612e9991815260200190565b60405180910390a35b50505050565b6001600160a01b038381166000908152603460209081526040808320938616835292905220546000198114612ea25781811015612f275760405162461bcd60e51b815260206004820152601d60248201527f45524332303a20696e73756666696369656e7420616c6c6f77616e63650000006044820152606401610fbd565b612ea284848484036129a6565b6000610f8c8284614211565b6000610f8c82846140da565b60c9546001600160a01b031633146111195760405162461bcd60e51b8152600401610fbd90613f5c565b7f4910fdfa16fed3260ed0e7147f7cc6da11a60208b5b9406d12a635614ffd91435460ff1615612fae57612fa983613649565b6130f5565b826001600160a01b03166352d1902d6040518163ffffffff1660e01b815260040160206040518083038186803b158015612fe757600080fd5b505afa925050508015613017575060408051601f3d908101601f1916820190925261301491810190613d89565b60015b61307a5760405162461bcd60e51b815260206004820152602e60248201527f45524331393637557067726164653a206e657720696d706c656d656e7461746960448201526d6f6e206973206e6f74205555505360901b6064820152608401610fbd565b60008051602061430b83398151915281146130e95760405162461bcd60e51b815260206004820152602960248201527f45524331393637557067726164653a20756e737570706f727465642070726f786044820152681a58589b195555525160ba1b6064820152608401610fbd565b506130f58383836136e5565b505050565b60c980546001600160a01b038381166001600160a01b0319831681179093556040519116919082907f8be0079c531659141344cd1fd0a4f28419497f9722a3daafe3b4186f6b6457e090600090a35050565b600054610100900460ff166131735760405162461bcd60e51b8152600401610fbd90613fd6565b6113a7828261370a565b600054610100900460ff166131a45760405162461bcd60e51b8152600401610fbd90613fd6565b611648613758565b600054610100900460ff166116485760405162461bcd60e51b8152600401610fbd90613fd6565b6001600160a01b0382166132295760405162461bcd60e51b815260206004820152601f60248201527f45524332303a206d696e7420746f20746865207a65726f2061646472657373006044820152606401610fbd565b806035600082825461323b91906140c2565b90915550506001600160a01b038216600090815260336020526040812080548392906132689084906140c2565b90915550506040518181526001600160a01b038316906000906000805160206143728339815191529060200160405180910390a36113a7565b6000610f8c836001600160a01b038416613788565b6001600160a01b0382166133165760405162461bcd60e51b815260206004820152602160248201527f45524332303a206275726e2066726f6d20746865207a65726f206164647265736044820152607360f81b6064820152608401610fbd565b6001600160a01b0382166000908152603360205260409020548181101561338a5760405162461bcd60e51b815260206004820152602260248201527f45524332303a206275726e20616d6f756e7420657863656564732062616c616e604482015261636560f01b6064820152608401610fbd565b6001600160a01b03831660009081526033602052604081208383039055603580548492906133b9908490614230565b90915550506040518281526000906001600160a01b038516906000805160206143728339815191529060200160405180910390a36130f5565b6000610f8c836001600160a01b0384166138a5565b6001600160a01b03811660009081526001830160205260408120541515610f8c565b6000610b76825490565b6000610f8c83836138f4565b6000610f8c82846140c2565b60fd5460ff1615801561346d5750610107546001600160a01b03838116911614155b801561348b5750610103543060009081526033602052604090205410155b156136135760008051602061432b8339815191526000600633858560006040516134ba96959493929190613e1a565b60405180910390a160fd805460ff19166001179055610100543060009081526033602052604081205490916134f691606491610ff49190612f34565b9050600061351d82612c53306001600160a01b031660009081526033602052604090205490565b90506000610100541180156135325750600082115b156135725760008051602061432b83398151915260006042338787600060405161356196959493929190613e1a565b60405180910390a1613572826121be565b6000610101541180156135855750600081115b156135d45760008051602061432b8339815191526000604333878760006040516135b496959493929190613e1a565b60405180910390a1610109546135d49082906001600160a01b03166123ed565b60008051602061432b8339815191526000600733878760006040516135fe96959493929190613e1a565b60405180910390a1505060fd805460ff191690555b60008051602061432b83398151915260006008338585600060405161363d96959493929190613e1a565b60405180910390a15050565b6001600160a01b0381163b6136b65760405162461bcd60e51b815260206004820152602d60248201527f455243313936373a206e657720696d706c656d656e746174696f6e206973206e60448201526c1bdd08184818dbdb9d1c9858dd609a1b6064820152608401610fbd565b60008051602061430b83398151915280546001600160a01b0319166001600160a01b0392909216919091179055565b6136ee8361392c565b6000825111806136fb5750805b156130f557612ea2838361396c565b600054610100900460ff166137315760405162461bcd60e51b8152600401610fbd90613fd6565b8151613744906036906020850190613a99565b5080516130f5906037906020840190613a99565b600054610100900460ff1661377f5760405162461bcd60e51b8152600401610fbd90613fd6565b611648336130fa565b6000818152600183016020526040812054801561389b5760006137ac600183614230565b85549091506000906137c090600190614230565b90508181146138415760008660000182815481106137ee57634e487b7160e01b600052603260045260246000fd5b906000526020600020015490508087600001848154811061381f57634e487b7160e01b600052603260045260246000fd5b6000918252602080832090910192909255918252600188019052604090208390555b855486908061386057634e487b7160e01b600052603160045260246000fd5b600190038181906000526020600020016000905590558560010160008681526020019081526020016000206000905560019350505050610b76565b6000915050610b76565b60008181526001830160205260408120546138ec57508154600181810184556000848152602080822090930184905584548482528286019093526040902091909155610b76565b506000610b76565b600082600001828154811061391957634e487b7160e01b600052603260045260246000fd5b9060005260206000200154905092915050565b61393581613649565b6040516001600160a01b038216907fbc7cd75a20ee27fd9adebab32041f755214dbc6bffa90cc0225b39da2e5c2d3b90600090a250565b60606001600160a01b0383163b6139d45760405162461bcd60e51b815260206004820152602660248201527f416464726573733a2064656c65676174652063616c6c20746f206e6f6e2d636f6044820152651b9d1c9858dd60d21b6064820152608401610fbd565b600080846001600160a01b0316846040516139ef9190613dfe565b600060405180830381855af49150503d8060008114613a2a576040519150601f19603f3d011682016040523d82523d6000602084013e613a2f565b606091505b5091509150613a57828260405180606001604052806027815260200161434b60279139613a60565b95945050505050565b60608315613a6f575081610f8c565b825115613a7f5782518084602001fd5b8160405162461bcd60e51b8152600401610fbd9190613e4e565b828054613aa590614273565b90600052602060002090601f016020900481019282613ac75760008555613b0d565b82601f10613ae057805160ff1916838001178555613b0d565b82800160010185558215613b0d579182015b82811115613b0d578251825591602001919060010190613af2565b50613b19929150613b1d565b5090565b5b80821115613b195760008155600101613b1e565b600060208284031215613b43578081fd5b8135610f8c816142f5565b600060208284031215613b5f578081fd5b8151610f8c816142f5565b60008060408385031215613b7c578081fd5b8235613b87816142f5565b91506020830135613b97816142f5565b809150509250929050565b600080600060608486031215613bb6578081fd5b8335613bc1816142f5565b92506020840135613bd1816142f5565b929592945050506040919091013590565b60008060408385031215613bf4578182fd5b8235613bff816142f5565b915060208381013567ffffffffffffffff80821115613c1c578384fd5b818601915086601f830112613c2f578384fd5b813581811115613c4157613c416142df565b613c53601f8201601f19168501614091565b91508082528784828501011115613c68578485fd5b8084840185840137810190920192909252919491935090915050565b60008060408385031215613c96578182fd5b8235613ca1816142f5565b946020939093013593505050565b60008060408385031215613cc1578182fd5b823567ffffffffffffffff80821115613cd8578384fd5b818501915085601f830112613ceb578384fd5b8135602082821115613cff57613cff6142df565b8160051b9250613d10818401614091565b8281528181019085830185870184018b1015613d2a578889fd5b8896505b84871015613d585780359550613d43866142f5565b85835260019690960195918301918301613d2e565b509997909101359750505050505050565b600060208284031215613d7a578081fd5b81518015158114610f8c578182fd5b600060208284031215613d9a578081fd5b5051919050565b600060208284031215613db2578081fd5b5035919050565b60008060408385031215613dcb578182fd5b823591506020830135613b97816142f5565b60008060408385031215613def578182fd5b50508035926020909101359150565b60008251613e10818460208701614247565b9190910192915050565b95865260208601949094526001600160a01b039283166040860152908216606085015216608083015260a082015260c00190565b6000602082528251806020840152613e6d816040850160208701614247565b601f01601f19169190910160400192915050565b60208082526023908201527f45524332303a207472616e7366657220746f20746865207a65726f206164647260408201526265737360e81b606082015260800190565b6020808252602c908201527f46756e6374696f6e206d7573742062652063616c6c6564207468726f7567682060408201526b19195b1959d85d1958d85b1b60a21b606082015260800190565b6020808252602c908201527f46756e6374696f6e206d7573742062652063616c6c6564207468726f7567682060408201526b6163746976652070726f787960a01b606082015260800190565b6020808252818101527f4f776e61626c653a2063616c6c6572206973206e6f7420746865206f776e6572604082015260600190565b60208082526025908201527f45524332303a207472616e736665722066726f6d20746865207a65726f206164604082015264647265737360d81b606082015260800190565b6020808252602b908201527f496e697469616c697a61626c653a20636f6e7472616374206973206e6f74206960408201526a6e697469616c697a696e6760a81b606082015260800190565b600060a082018783526020878185015260a0604085015281875180845260c0860191508289019350845b818110156140705784516001600160a01b03168352938301939183019160010161404b565b50506001600160a01b03969096166060850152505050608001529392505050565b604051601f8201601f1916810167ffffffffffffffff811182821017156140ba576140ba6142df565b604052919050565b600082198211156140d5576140d56142c9565b500190565b6000826140f557634e487b7160e01b81526012600452602481fd5b500490565b80825b600180861161410c5750614137565b81870482111561411e5761411e6142c9565b8086161561412b57918102915b9490941c9380026140fd565b94509492505050565b6000610f8c60001960ff85168460008261415c57506001610f8c565b8161416957506000610f8c565b816001811461417f5760028114614189576141b6565b6001915050610f8c565b60ff84111561419a5761419a6142c9565b6001841b9150848211156141b0576141b06142c9565b50610f8c565b5060208310610133831016604e8410600b84101617156141e9575081810a838111156141e4576141e46142c9565b610f8c565b6141f684848460016140fa565b808604821115614208576142086142c9565b02949350505050565b600081600019048311821515161561422b5761422b6142c9565b500290565b600082821015614242576142426142c9565b500390565b60005b8381101561426257818101518382015260200161424a565b83811115612ea25750506000910152565b600181811c9082168061428757607f821691505b602082108114156142a857634e487b7160e01b600052602260045260246000fd5b50919050565b60006000198214156142c2576142c26142c9565b5060010190565b634e487b7160e01b600052601160045260246000fd5b634e487b7160e01b600052604160045260246000fd5b6001600160a01b038116811461111957600080fdfe360894a13ba1a3210667c828492db98dca3e2076cc3735a920a3ca505d382bbcacc61842209f91de2335ecd9d6a7e5e01e7870fdcee2e344c762555479ffd069416464726573733a206c6f772d6c6576656c2064656c65676174652063616c6c206661696c6564ddf252ad1be2c89b69c2b068fc378daa952ba7f163c4a11628f55a4df523b3efa264697066735822122052610eb1527aac91b5f29bfb2e4d2d6b31cb7521b174d239cf10e6a2f60ef0be64736f6c63430008030033",
  "linkReferences": {},
  "deployedLinkReferences": {}
}