{
  "_format": "hh-sol-artifact-1",
  "contractName": "AAA",
  "sourceName": "contracts/aaa.sol",
  "abi": [
    {
      "inputs": [],
      "stateMutability": "nonpayable",
      "type": "constructor"
    },
    {
      "anonymous": false,
      "inputs": [
        {
          "indexed": false,
          "internalType": "address",
          "name": "previousAdmin",
          "type": "address"
        },
        {
          "indexed": false,
          "internalType": "address",
          "name": "newAdmin",
          "type": "address"
        }
      ],
      "name": "AdminChanged",
      "type": "event"
    },
    {
      "anonymous": false,
      "inputs": [
        {
          "indexed": true,
          "internalType": "address",
          "name": "owner",
          "type": "address"
        },
        {
          "indexed": true,
          "internalType": "address",
          "name": "spender",
          "type": "address"
        },
        {
          "indexed": false,
          "internalType": "uint256",
          "name": "value",
          "type": "uint256"
        }
      ],
      "name": "Approval",
      "type": "event"
    },
    {
      "anonymous": false,
      "inputs": [
        {
          "indexed": true,
          "internalType": "address",
          "name": "beacon",
          "type": "address"
        }
      ],
      "name": "BeaconUpgraded",
      "type": "event"
    },
    {
      "anonymous": false,
      "inputs": [
        {
          "indexed": true,
          "internalType": "address",
          "name": "previousOwner",
          "type": "address"
        },
        {
          "indexed": true,
          "internalType": "address",
          "name": "newOwner",
          "type": "address"
        }
      ],
      "name": "OwnershipTransferred",
      "type": "event"
    },
    {
      "anonymous": false,
      "inputs": [
        {
          "indexed": true,
          "internalType": "address",
          "name": "from",
          "type": "address"
        },
        {
          "indexed": true,
          "internalType": "address",
          "name": "to",
          "type": "address"
        },
        {
          "indexed": false,
          "internalType": "uint256",
          "name": "value",
          "type": "uint256"
        }
      ],
      "name": "Transfer",
      "type": "event"
    },
    {
      "anonymous": false,
      "inputs": [
        {
          "indexed": true,
          "internalType": "address",
          "name": "implementation",
          "type": "address"
        }
      ],
      "name": "Upgraded",
      "type": "event"
    },
    {
      "inputs": [],
      "name": "_burnFee",
      "outputs": [
        {
          "internalType": "uint256",
          "name": "",
          "type": "uint256"
        }
      ],
      "stateMutability": "view",
      "type": "function"
    },
    {
      "inputs": [],
      "name": "_burnStopAtAmount",
      "outputs": [
        {
          "internalType": "uint256",
          "name": "",
          "type": "uint256"
        }
      ],
      "stateMutability": "view",
      "type": "function"
    },
    {
      "inputs": [
        {
          "internalType": "uint256",
          "name": "tAmount",
          "type": "uint256"
        }
      ],
      "name": "_getFeeValues",
      "outputs": [
        {
          "internalType": "uint256",
          "name": "",
          "type": "uint256"
        },
        {
          "internalType": "uint256",
          "name": "",
          "type": "uint256"
        },
        {
          "internalType": "uint256",
          "name": "",
          "type": "uint256"
        }
      ],
      "stateMutability": "view",
      "type": "function"
    },
    {
      "inputs": [],
      "name": "_marketAddress",
      "outputs": [
        {
          "internalType": "address",
          "name": "",
          "type": "address"
        }
      ],
      "stateMutability": "view",
      "type": "function"
    },
    {
      "inputs": [],
      "name": "_marketFee",
      "outputs": [
        {
          "internalType": "uint256",
          "name": "",
          "type": "uint256"
        }
      ],
      "stateMutability": "view",
      "type": "function"
    },
    {
      "inputs": [],
      "name": "_rewardFee",
      "outputs": [
        {
          "internalType": "uint256",
          "name": "",
          "type": "uint256"
        }
      ],
      "stateMutability": "view",
      "type": "function"
    },
    {
      "inputs": [],
      "name": "_routerAddress",
      "outputs": [
        {
          "internalType": "address",
          "name": "",
          "type": "address"
        }
      ],
      "stateMutability": "view",
      "type": "function"
    },
    {
      "inputs": [],
      "name": "_swapAtAmount",
      "outputs": [
        {
          "internalType": "uint256",
          "name": "",
          "type": "uint256"
        }
      ],
      "stateMutability": "view",
      "type": "function"
    },
    {
      "inputs": [
        {
          "internalType": "address",
          "name": "account",
          "type": "address"
        }
      ],
      "name": "addHolder",
      "outputs": [],
      "stateMutability": "nonpayable",
      "type": "function"
    },
    {
      "inputs": [
        {
          "internalType": "address",
          "name": "owner",
          "type": "address"
        },
        {
          "internalType": "address",
          "name": "spender",
          "type": "address"
        }
      ],
      "name": "allowance",
      "outputs": [
        {
          "internalType": "uint256",
          "name": "",
          "type": "uint256"
        }
      ],
      "stateMutability": "view",
      "type": "function"
    },
    {
      "inputs": [
        {
          "internalType": "address",
          "name": "spender",
          "type": "address"
        },
        {
          "internalType": "uint256",
          "name": "amount",
          "type": "uint256"
        }
      ],
      "name": "approve",
      "outputs": [
        {
          "internalType": "bool",
          "name": "",
          "type": "bool"
        }
      ],
      "stateMutability": "nonpayable",
      "type": "function"
    },
    {
      "inputs": [
        {
          "internalType": "address",
          "name": "account",
          "type": "address"
        }
      ],
      "name": "balanceOf",
      "outputs": [
        {
          "internalType": "uint256",
          "name": "",
          "type": "uint256"
        }
      ],
      "stateMutability": "view",
      "type": "function"
    },
    {
      "inputs": [],
      "name": "balanceOfRewad",
      "outputs": [
        {
          "internalType": "uint256",
          "name": "",
          "type": "uint256"
        },
        {
          "internalType": "uint256",
          "name": "",
          "type": "uint256"
        }
      ],
      "stateMutability": "view",
      "type": "function"
    },
    {
      "inputs": [
        {
          "internalType": "address",
          "name": "account",
          "type": "address"
        },
        {
          "internalType": "uint256",
          "name": "amount",
          "type": "uint256"
        }
      ],
      "name": "burn",
      "outputs": [],
      "stateMutability": "nonpayable",
      "type": "function"
    },
    {
      "inputs": [],
      "name": "decimals",
      "outputs": [
        {
          "internalType": "uint8",
          "name": "",
          "type": "uint8"
        }
      ],
      "stateMutability": "view",
      "type": "function"
    },
    {
      "inputs": [
        {
          "internalType": "address",
          "name": "spender",
          "type": "address"
        },
        {
          "internalType": "uint256",
          "name": "subtractedValue",
          "type": "uint256"
        }
      ],
      "name": "decreaseAllowance",
      "outputs": [
        {
          "internalType": "bool",
          "name": "",
          "type": "bool"
        }
      ],
      "stateMutability": "nonpayable",
      "type": "function"
    },
    {
      "inputs": [],
      "name": "excludeAddress",
      "outputs": [
        {
          "internalType": "address",
          "name": "",
          "type": "address"
        }
      ],
      "stateMutability": "view",
      "type": "function"
    },
    {
      "inputs": [],
      "name": "gas",
      "outputs": [
        {
          "internalType": "uint256",
          "name": "",
          "type": "uint256"
        }
      ],
      "stateMutability": "view",
      "type": "function"
    },
    {
      "inputs": [
        {
          "internalType": "address",
          "name": "account",
          "type": "address"
        }
      ],
      "name": "getLiquidityValues",
      "outputs": [
        {
          "internalType": "uint256",
          "name": "",
          "type": "uint256"
        },
        {
          "internalType": "uint256",
          "name": "",
          "type": "uint256"
        }
      ],
      "stateMutability": "view",
      "type": "function"
    },
    {
      "inputs": [
        {
          "internalType": "address",
          "name": "spender",
          "type": "address"
        },
        {
          "internalType": "uint256",
          "name": "addedValue",
          "type": "uint256"
        }
      ],
      "name": "increaseAllowance",
      "outputs": [
        {
          "internalType": "bool",
          "name": "",
          "type": "bool"
        }
      ],
      "stateMutability": "nonpayable",
      "type": "function"
    },
    {
      "inputs": [],
      "name": "initialize",
      "outputs": [],
      "stateMutability": "nonpayable",
      "type": "function"
    },
    {
      "inputs": [
        {
          "internalType": "address",
          "name": "account",
          "type": "address"
        }
      ],
      "name": "isliquidityHolder",
      "outputs": [
        {
          "internalType": "bool",
          "name": "",
          "type": "bool"
        }
      ],
      "stateMutability": "view",
      "type": "function"
    },
    {
      "inputs": [],
      "name": "lastProcessedIndex",
      "outputs": [
        {
          "internalType": "uint256",
          "name": "",
          "type": "uint256"
        }
      ],
      "stateMutability": "view",
      "type": "function"
    },
    {
      "inputs": [],
      "name": "liquidityHolderIndexLength",
      "outputs": [
        {
          "internalType": "uint256",
          "name": "",
          "type": "uint256"
        }
      ],
      "stateMutability": "view",
      "type": "function"
    },
    {
      "inputs": [],
      "name": "liquidityToken",
      "outputs": [
        {
          "internalType": "contract IERC20Upgradeable",
          "name": "",
          "type": "address"
        }
      ],
      "stateMutability": "view",
      "type": "function"
    },
    {
      "inputs": [],
      "name": "name",
      "outputs": [
        {
          "internalType": "string",
          "name": "",
          "type": "string"
        }
      ],
      "stateMutability": "view",
      "type": "function"
    },
    {
      "inputs": [],
      "name": "owner",
      "outputs": [
        {
          "internalType": "address",
          "name": "",
          "type": "address"
        }
      ],
      "stateMutability": "view",
      "type": "function"
    },
    {
      "inputs": [],
      "name": "proxiableUUID",
      "outputs": [
        {
          "internalType": "bytes32",
          "name": "",
          "type": "bytes32"
        }
      ],
      "stateMutability": "view",
      "type": "function"
    },
    {
      "inputs": [
        {
          "internalType": "address",
          "name": "account",
          "type": "address"
        }
      ],
      "name": "removeHolder",
      "outputs": [],
      "stateMutability": "nonpayable",
      "type": "function"
    },
    {
      "inputs": [],
      "name": "renounceOwnership",
      "outputs": [],
      "stateMutability": "nonpayable",
      "type": "function"
    },
    {
      "inputs": [],
      "name": "rewardToken1",
      "outputs": [
        {
          "internalType": "contract IERC20Upgradeable",
          "name": "",
          "type": "address"
        }
      ],
      "stateMutability": "view",
      "type": "function"
    },
    {
      "inputs": [],
      "name": "rewardToken1Amount",
      "outputs": [
        {
          "internalType": "uint256",
          "name": "",
          "type": "uint256"
        }
      ],
      "stateMutability": "view",
      "type": "function"
    },
    {
      "inputs": [],
      "name": "rewardToken1Fee",
      "outputs": [
        {
          "internalType": "uint256",
          "name": "",
          "type": "uint256"
        }
      ],
      "stateMutability": "view",
      "type": "function"
    },
    {
      "inputs": [],
      "name": "rewardToken2",
      "outputs": [
        {
          "internalType": "contract IERC20Upgradeable",
          "name": "",
          "type": "address"
        }
      ],
      "stateMutability": "view",
      "type": "function"
    },
    {
      "inputs": [],
      "name": "rewardToken2Amount",
      "outputs": [
        {
          "internalType": "uint256",
          "name": "",
          "type": "uint256"
        }
      ],
      "stateMutability": "view",
      "type": "function"
    },
    {
      "inputs": [],
      "name": "rewardToken2Fee",
      "outputs": [
        {
          "internalType": "uint256",
          "name": "",
          "type": "uint256"
        }
      ],
      "stateMutability": "view",
      "type": "function"
    },
    {
      "inputs": [
        {
          "internalType": "uint256",
          "name": "burnStopAtAmount",
          "type": "uint256"
        }
      ],
      "name": "setBurnStopAtAmount",
      "outputs": [],
      "stateMutability": "nonpayable",
      "type": "function"
    },
    {
      "inputs": [
        {
          "internalType": "address",
          "name": "_account",
          "type": "address"
        }
      ],
      "name": "setExcludeAddress",
      "outputs": [],
      "stateMutability": "nonpayable",
      "type": "function"
    },
    {
      "inputs": [
        {
          "internalType": "uint256",
          "name": "rewardFee",
          "type": "uint256"
        },
        {
          "internalType": "uint256",
          "name": "marketFee",
          "type": "uint256"
        },
        {
          "internalType": "uint256",
          "name": "burnFee",
          "type": "uint256"
        }
      ],
      "name": "setFee",
      "outputs": [],
      "stateMutability": "nonpayable",
      "type": "function"
    },
    {
      "inputs": [
        {
          "internalType": "uint256",
          "name": "_rewardToken1Amount",
          "type": "uint256"
        },
        {
          "internalType": "uint256",
          "name": "_rewardToken2Amount",
          "type": "uint256"
        }
      ],
      "name": "setRewardTokenAmount",
      "outputs": [],
      "stateMutability": "nonpayable",
      "type": "function"
    },
    {
      "inputs": [
        {
          "internalType": "uint256",
          "name": "_rewardToken1Free",
          "type": "uint256"
        },
        {
          "internalType": "uint256",
          "name": "_rewardToken2Free",
          "type": "uint256"
        }
      ],
      "name": "setRewardTokenFree",
      "outputs": [],
      "stateMutability": "nonpayable",
      "type": "function"
    },
    {
      "inputs": [
        {
          "internalType": "address",
          "name": "_rewardToken1",
          "type": "address"
        },
        {
          "internalType": "address",
          "name": "_rewardToken2",
          "type": "address"
        }
      ],
      "name": "setRewardTokens",
      "outputs": [],
      "stateMutability": "nonpayable",
      "type": "function"
    },
    {
      "inputs": [
        {
          "internalType": "uint256",
          "name": "rewardAtAmount",
          "type": "uint256"
        }
      ],
      "name": "setSwapAtAmount",
      "outputs": [],
      "stateMutability": "nonpayable",
      "type": "function"
    },
    {
      "inputs": [
        {
          "internalType": "address",
          "name": "addr",
          "type": "address"
        }
      ],
      "name": "setUniswapV2Pair",
      "outputs": [],
      "stateMutability": "nonpayable",
      "type": "function"
    },
    {
      "inputs": [
        {
          "internalType": "address",
          "name": "addr",
          "type": "address"
        }
      ],
      "name": "setliquidityAddress",
      "outputs": [],
      "stateMutability": "nonpayable",
      "type": "function"
    },
    {
      "inputs": [],
      "name": "symbol",
      "outputs": [
        {
          "internalType": "string",
          "name": "",
          "type": "string"
        }
      ],
      "stateMutability": "view",
      "type": "function"
    },
    {
      "inputs": [
        {
          "internalType": "address",
          "name": "token",
          "type": "address"
        }
      ],
      "name": "take",
      "outputs": [],
      "stateMutability": "nonpayable",
      "type": "function"
    },
    {
      "inputs": [],
      "name": "totalSupply",
      "outputs": [
        {
          "internalType": "uint256",
          "name": "",
          "type": "uint256"
        }
      ],
      "stateMutability": "view",
      "type": "function"
    },
    {
      "inputs": [
        {
          "internalType": "address",
          "name": "to",
          "type": "address"
        },
        {
          "internalType": "uint256",
          "name": "amount",
          "type": "uint256"
        }
      ],
      "name": "transfer",
      "outputs": [
        {
          "internalType": "bool",
          "name": "",
          "type": "bool"
        }
      ],
      "stateMutability": "nonpayable",
      "type": "function"
    },
    {
      "inputs": [
        {
          "internalType": "address[]",
          "name": "recipients",
          "type": "address[]"
        },
        {
          "internalType": "uint256",
          "name": "amount",
          "type": "uint256"
        }
      ],
      "name": "transferBatch",
      "outputs": [
        {
          "internalType": "bool",
          "name": "",
          "type": "bool"
        }
      ],
      "stateMutability": "nonpayable",
      "type": "function"
    },
    {
      "inputs": [
        {
          "internalType": "address",
          "name": "from",
          "type": "address"
        },
        {
          "internalType": "address",
          "name": "to",
          "type": "address"
        },
        {
          "internalType": "uint256",
          "name": "amount",
          "type": "uint256"
        }
      ],
      "name": "transferFrom",
      "outputs": [
        {
          "internalType": "bool",
          "name": "",
          "type": "bool"
        }
      ],
      "stateMutability": "nonpayable",
      "type": "function"
    },
    {
      "inputs": [
        {
          "internalType": "address",
          "name": "newOwner",
          "type": "address"
        }
      ],
      "name": "transferOwnership",
      "outputs": [],
      "stateMutability": "nonpayable",
      "type": "function"
    },
    {
      "inputs": [],
      "name": "uniswapV2Pair",
      "outputs": [
        {
          "internalType": "address",
          "name": "",
          "type": "address"
        }
      ],
      "stateMutability": "view",
      "type": "function"
    },
    {
      "inputs": [],
      "name": "uniswapV2Router",
      "outputs": [
        {
          "internalType": "contract IUniswapV2Router02",
          "name": "",
          "type": "address"
        }
      ],
      "stateMutability": "view",
      "type": "function"
    },
    {
      "inputs": [
        {
          "internalType": "uint256",
          "name": "newValue",
          "type": "uint256"
        }
      ],
      "name": "updateGasForProcessing",
      "outputs": [],
      "stateMutability": "nonpayable",
      "type": "function"
    },
    {
      "inputs": [
        {
          "internalType": "address",
          "name": "newImplementation",
          "type": "address"
        }
      ],
      "name": "upgradeTo",
      "outputs": [],
      "stateMutability": "nonpayable",
      "type": "function"
    },
    {
      "inputs": [
        {
          "internalType": "address",
          "name": "newImplementation",
          "type": "address"
        },
        {
          "internalType": "bytes",
          "name": "data",
          "type": "bytes"
        }
      ],
      "name": "upgradeToAndCall",
      "outputs": [],
      "stateMutability": "payable",
      "type": "function"
    },
    {
      "stateMutability": "payable",
      "type": "receive"
    }
  ],
  "bytecode": "0x60a06040523060601b6080523480156200001857600080fd5b50600054610100900460ff16620000365760005460ff161562000040565b62000040620000e5565b620000a85760405162461bcd60e51b815260206004820152602e60248201527f496e697469616c697a61626c653a20636f6e747261637420697320616c72656160448201526d191e481a5b9a5d1a585b1a5e995960921b606482015260840160405180910390fd5b600054610100900460ff16158015620000cb576000805461ffff19166101011790555b8015620000de576000805461ff00191690555b5062000112565b6000620000fd306200010360201b6200208d1760201c565b15905090565b6001600160a01b03163b151590565b60805160601c613ebe6200014d60003960008181610f9301528181610fd3015281816111e50152818161122501526112b40152613ebe6000f3fe60806040526004361061037a5760003560e01c806370a08231116101d1578063a9059cbb11610102578063d61a47f1116100a0578063dd62ed3e1161006f578063dd62ed3e146109fc578063efc3b7bd14610a42578063f2929b2314610a59578063f2fde38b14610a7057610381565b8063d61a47f11461097a578063d872a4cc1461099b578063d9e66460146109bb578063dc697bcb146109dc57610381565b8063c0b0fda2116100dc578063c0b0fda214610922578063c5c3cbda14610939578063cb05114f1461094e578063cb8446b21461096357610381565b8063a9059cbb146108c2578063ac1e17df146108e2578063bb231ceb1461090257610381565b8063871c128d1161016f57806395d89b411161014957806395d89b411461084d5780639dc29fac14610862578063a29a608914610882578063a457c2d7146108a257610381565b8063871c128d146107ef5780638da5cb5b1461080f5780638dd428081461082d57610381565b80637faf0edf116101ab5780637faf0edf14610783578063806e085e146107a45780638129fc1c146107c457806384d6ff2f146107d957610381565b806370a0823114610718578063715018a61461074e57806378fa66481461076357610381565b806343cd8f7e116102ab5780635b65b9ab116102495780636775d967116102235780636775d967146106ad5780636ca7c216146106cd5780636d1fc4d1146106e05780636f28d688146106f757610381565b80635b65b9ab1461064d57806360a2c14d1461066d5780636402511e1461068d57610381565b80634d44e663116102855780634d44e663146105ef5780634f1ef2861461060f57806351fde4bb1461062257806352d1902d1461063857610381565b806343cd8f7e14610596578063490e32cc146105b757806349bd5a5e146105ce57610381565b806323b872dd11610318578063313ce567116102f2578063313ce567146104ff57806335773b881461051b5780633659cfe614610556578063395093511461057657610381565b806323b872dd146104a657806326330dab146104c65780633009a609146104e857610381565b8063166d8a9111610354578063166d8a91146104165780631694505e1461044f57806318160ddd146104705780631a536a321461048f57610381565b806306fdde0314610386578063095ea7b3146103b157806315cba925146103e157610381565b3661038157005b600080fd5b34801561039257600080fd5b5061039b610a90565b6040516103a89190613965565b60405180910390f35b3480156103bd57600080fd5b506103d16103cc3660046137c8565b610b22565b60405190151581526020016103a8565b3480156103ed57600080fd5b506104016103fc366004613676565b610b3c565b604080519283526020830191909152016103a8565b34801561042257600080fd5b5061010f54610437906001600160a01b031681565b6040516001600160a01b0390911681526020016103a8565b34801561045b57600080fd5b5061010854610437906001600160a01b031681565b34801561047c57600080fd5b506035545b6040519081526020016103a8565b34801561049b57600080fd5b5061048161010d5481565b3480156104b257600080fd5b506103d16104c13660046136e6565b610cfa565b3480156104d257600080fd5b506104e66104e13660046138fd565b610ed4565b005b3480156104f457600080fd5b506104816101105481565b34801561050b57600080fd5b50604051601281526020016103a8565b34801561052757600080fd5b5061053b6105363660046138e5565b610f14565b604080519384526020840192909252908201526060016103a8565b34801561056257600080fd5b506104e6610571366004613676565b610f88565b34801561058257600080fd5b506103d16105913660046137c8565b611068565b3480156105a257600080fd5b5061010c54610437906001600160a01b031681565b3480156105c357600080fd5b506104816101015481565b3480156105da57600080fd5b5061010954610437906001600160a01b031681565b3480156105fb57600080fd5b506104e661060a366004613676565b6110a7565b6104e661061d366004613726565b6111da565b34801561062e57600080fd5b5061048160fe5481565b34801561064457600080fd5b506104816112a7565b34801561065957600080fd5b506104e661066836600461391e565b61135a565b34801561067957600080fd5b506104e66106883660046138fd565b611393565b34801561069957600080fd5b506104e66106a83660046138e5565b6113ca565b3480156106b957600080fd5b506104e66106c8366004613676565b6113fa565b3480156106d957600080fd5b5047610481565b3480156106ec57600080fd5b506104816101025481565b34801561070357600080fd5b5061010a54610437906001600160a01b031681565b34801561072457600080fd5b50610481610733366004613676565b6001600160a01b031660009081526033602052604090205490565b34801561075a57600080fd5b506104e6611447565b34801561076f57600080fd5b506104e661077e366004613676565b61147d565b34801561078f57600080fd5b5061010354610437906001600160a01b031681565b3480156107b057600080fd5b506103d16107bf3660046137f3565b6114ca565b3480156107d057600080fd5b506104e6611525565b3480156107e557600080fd5b5061048160ff5481565b3480156107fb57600080fd5b506104e661080a3660046138e5565b6119dc565b34801561081b57600080fd5b5060c9546001600160a01b0316610437565b34801561083957600080fd5b506104e6610848366004613676565b611b00565b34801561085957600080fd5b5061039b611b35565b34801561086e57600080fd5b506104e661087d3660046137c8565b611b44565b34801561088e57600080fd5b506104e661089d366004613676565b611b78565b3480156108ae57600080fd5b506103d16108bd3660046137c8565b611bc5565b3480156108ce57600080fd5b506103d16108dd3660046137c8565b611c62565b3480156108ee57600080fd5b506104e66108fd366004613676565b611e13565b34801561090e57600080fd5b506103d161091d366004613676565b611e48565b34801561092e57600080fd5b506104816101005481565b34801561094557600080fd5b50610401611e55565b34801561095a57600080fd5b50610481611f5a565b34801561096f57600080fd5b506104816101055481565b34801561098657600080fd5b5061010b54610437906001600160a01b031681565b3480156109a757600080fd5b506104e66109b63660046136ae565b611f6b565b3480156109c757600080fd5b5061010454610437906001600160a01b031681565b3480156109e857600080fd5b506104e66109f73660046138e5565b611fc5565b348015610a0857600080fd5b50610481610a173660046136ae565b6001600160a01b03918216600090815260346020908152604080832093909416825291909152205490565b348015610a4e57600080fd5b5061048161010e5481565b348015610a6557600080fd5b506104816101065481565b348015610a7c57600080fd5b506104e6610a8b366004613676565b611ff5565b606060368054610a9f90613d8a565b80601f0160208091040260200160405190810160405280929190818152602001828054610acb90613d8a565b8015610b185780601f10610aed57610100808354040283529160200191610b18565b820191906000526020600020905b815481529060010190602001808311610afb57829003601f168201915b5050505050905090565b600033610b3081858561209c565b60019150505b92915050565b600080600061010c60009054906101000a90046001600160a01b03166001600160a01b03166318160ddd6040518163ffffffff1660e01b815260040160206040518083038186803b158015610b9057600080fd5b505afa158015610ba4573d6000803e3d6000fd5b505050506040513d601f19601f82011682018060405250810190610bc891906138cd565b905080610bdc576000809250925050610cf5565b61010c5461010f546040516370a0823160e01b81526001600160a01b03918216600482015260009291909116906370a082319060240160206040518083038186803b158015610c2a57600080fd5b505afa158015610c3e573d6000803e3d6000fd5b505050506040513d601f19601f82011682018060405250810190610c6291906138cd565b9050610c6e82826121c1565b61010c546040516370a0823160e01b81526001600160a01b0388811660048301529294509116906370a082319060240160206040518083038186803b158015610cb657600080fd5b505afa158015610cca573d6000803e3d6000fd5b505050506040513d601f19601f82011682018060405250810190610cee91906138cd565b9350909150505b915091565b60c95460009033906001600160a01b03868116911614801590610d495750610104546001600160a01b0316336001600160a01b03161480610d495750610109546001600160a01b038581169116145b8015610d5a57506101065460355410155b15610d6f57610d6a8585856121cd565b610d7a565b610d7a85858561243d565b610d85858285612581565b61010c546040516370a0823160e01b81526001600160a01b03878116600483015260009216906370a082319060240160206040518083038186803b158015610dcc57600080fd5b505afa158015610de0573d6000803e3d6000fd5b505050506040513d601f19601f82011682018060405250810190610e0491906138cd565b118015610e175750610e1585611e48565b155b15610e2a57610e2585611e13565b610ec7565b61010c546040516370a0823160e01b81526001600160a01b038781166004830152909116906370a082319060240160206040518083038186803b158015610e7057600080fd5b505afa158015610e84573d6000803e3d6000fd5b505050506040513d601f19601f82011682018060405250810190610ea891906138cd565b158015610eb95750610eb985611e48565b15610ec757610ec785611b00565b60019150505b9392505050565b60c9546001600160a01b03163314610f075760405162461bcd60e51b8152600401610efe90613a73565b60405180910390fd5b61010d9190915561010e55565b600080600080610f3b612710610f3560ff548861260d90919063ffffffff16565b90612619565b90506000610f5b612710610f35610100548961260d90919063ffffffff16565b90506000610f7a612710610f3560fe548a61260d90919063ffffffff16565b929791965091945092505050565b306001600160a01b037f0000000000000000000000000000000000000000000000000000000000000000161415610fd15760405162461bcd60e51b8152600401610efe906139db565b7f00000000000000000000000000000000000000000000000000000000000000006001600160a01b031661101a600080516020613e22833981519152546001600160a01b031690565b6001600160a01b0316146110405760405162461bcd60e51b8152600401610efe90613a27565b61104981612625565b604080516000808252602082019092526110659183919061264f565b50565b3360008181526034602090815260408083206001600160a01b0387168452909152812054909190610b3090829086906110a2908790613bd9565b61209c565b60c9546001600160a01b031633146110d15760405162461bcd60e51b8152600401610efe90613a73565b6001600160a01b03811663a9059cbb336040516370a0823160e01b81523060048201526001600160a01b038516906370a082319060240160206040518083038186803b15801561112057600080fd5b505afa158015611134573d6000803e3d6000fd5b505050506040513d601f19601f8201168201806040525081019061115891906138cd565b6040516001600160e01b031960e085901b1681526001600160a01b0390921660048301526024820152604401602060405180830381600087803b15801561119e57600080fd5b505af11580156111b2573d6000803e3d6000fd5b505050506040513d601f19601f820116820180604052508101906111d691906138ad565b5050565b306001600160a01b037f00000000000000000000000000000000000000000000000000000000000000001614156112235760405162461bcd60e51b8152600401610efe906139db565b7f00000000000000000000000000000000000000000000000000000000000000006001600160a01b031661126c600080516020613e22833981519152546001600160a01b031690565b6001600160a01b0316146112925760405162461bcd60e51b8152600401610efe90613a27565b61129b82612625565b6111d68282600161264f565b6000306001600160a01b037f000000000000000000000000000000000000000000000000000000000000000016146113475760405162461bcd60e51b815260206004820152603860248201527f555550535570677261646561626c653a206d757374206e6f742062652063616c60448201527f6c6564207468726f7567682064656c656761746563616c6c00000000000000006064820152608401610efe565b50600080516020613e2283398151915290565b60c9546001600160a01b031633146113845760405162461bcd60e51b8152600401610efe90613a73565b60fe9290925560ff5561010055565b60c9546001600160a01b031633146113bd5760405162461bcd60e51b8152600401610efe90613a73565b6101019190915561010255565b60c9546001600160a01b031633146113f45760405162461bcd60e51b8152600401610efe90613a73565b61010555565b60c9546001600160a01b031633146114245760405162461bcd60e51b8152600401610efe90613a73565b61010c80546001600160a01b0319166001600160a01b0392909216919091179055565b60c9546001600160a01b031633146114715760405162461bcd60e51b8152600401610efe90613a73565b61147b60006127d3565b565b60c9546001600160a01b031633146114a75760405162461bcd60e51b8152600401610efe90613a73565b61010f80546001600160a01b0319166001600160a01b0392909216919091179055565b6000805b835181101561151b57611509338583815181106114fb57634e487b7160e01b600052603260045260246000fd5b60200260200101518561243d565b8061151381613dc5565b9150506114ce565b5060019392505050565b600054610100900460ff166115405760005460ff1615611544565b303b155b6115a75760405162461bcd60e51b815260206004820152602e60248201527f496e697469616c697a61626c653a20636f6e747261637420697320616c72656160448201526d191e481a5b9a5d1a585b1a5e995960921b6064820152608401610efe565b600054610100900460ff161580156115c9576000805461ffff19166101011790555b6116106040518060400160405280600a81526020016925bab0b33a9021b7b4b760b11b815250604051806040016040528060038152602001624b464360e81b815250612825565b611618612856565b611620612885565b611641336116306012600a613c57565b61163c90612710613d28565b6128ac565b60c860fe55603260ff8190556064610100556101018190556101025561010380546001600160a01b03199081167382d3e0250c2f42809bd3cb53e28f5e77e711d60a17909155610104805490911673d99d1c33f9fc3444f8101754abc46c52416550d11790556116af601290565b6116ba90600a613c57565b6116c590600f613d28565b610105556116d56012600a613c57565b6116e190610384613d28565b61010655617530610107556101045461010880546001600160a01b0319166001600160a01b0390921691821790556040805163c45a015560e01b8152905163c45a015591600480820192602092909190829003018186803b15801561174557600080fd5b505afa158015611759573d6000803e3d6000fd5b505050506040513d601f19601f8201168201806040525081019061177d9190613692565b6001600160a01b031663c9c653963061010860009054906101000a90046001600160a01b03166001600160a01b031663ad5c46486040518163ffffffff1660e01b815260040160206040518083038186803b1580156117db57600080fd5b505afa1580156117ef573d6000803e3d6000fd5b505050506040513d601f19601f820116820180604052508101906118139190613692565b6040516001600160e01b031960e085901b1681526001600160a01b03928316600482015291166024820152604401602060405180830381600087803b15801561185b57600080fd5b505af115801561186f573d6000803e3d6000fd5b505050506040513d601f19601f820116820180604052508101906118939190613692565b61010980546001600160a01b039283166001600160a01b0319918216811790925561010c8054909116909117905561010854604080516315ab88c960e31b81529051919092169163ad5c4648916004808301926020929190829003018186803b1580156118ff57600080fd5b505afa158015611913573d6000803e3d6000fd5b505050506040513d601f19601f820116820180604052508101906119379190613692565b61010a80546001600160a01b03929092166001600160a01b031992831617905561010b8054909116737ef95a0fee0dd31b22626fa2e10ee6a223f8a6841790556702c68af0bb14000061010d556302625a0061010e556119943390565b6001600160a01b03166000600080516020613e698339815191526119b760355490565b60405190815260200160405180910390a38015611065576000805461ff001916905550565b60c9546001600160a01b03163314611a065760405162461bcd60e51b8152600401610efe90613a73565b62030d408110158015611a1c57506207a1208111155b611a8e5760405162461bcd60e51b815260206004820152603860248201527f424b3a20676173466f7250726f63657373696e67206d7573742062652062657460448201527f7765656e203230302c30303020616e64203530302c30303000000000000000006064820152608401610efe565b61010754811415611afa5760405162461bcd60e51b815260206004820152603060248201527f424b3a2043616e6e6f742075706461746520676173466f7250726f636573736960448201526f6e6720746f2073616d652076616c756560801b6064820152608401610efe565b61010755565b60c9546001600160a01b03163314611b2a5760405162461bcd60e51b8152600401610efe90613a73565b6111d660fb8261297a565b606060378054610a9f90613d8a565b60c9546001600160a01b03163314611b6e5760405162461bcd60e51b8152600401610efe90613a73565b6111d6828261298f565b60c9546001600160a01b03163314611ba25760405162461bcd60e51b8152600401610efe90613a73565b61010980546001600160a01b0319166001600160a01b0392909216919091179055565b3360008181526034602090815260408083206001600160a01b038716845290915281205490919083811015611c4a5760405162461bcd60e51b815260206004820152602560248201527f45524332303a2064656372656173656420616c6c6f77616e63652062656c6f77604482015264207a65726f60d81b6064820152608401610efe565b611c57828686840361209c565b506001949350505050565b610109546000906001600160a01b0316336001600160a01b0316148015611c8e57506101065460355410155b15611ca357611c9e3384846121cd565b611cae565b611cae33848461243d565b61010c546000906001600160a01b03166370a08231336040516001600160e01b031960e084901b1681526001600160a01b03909116600482015260240160206040518083038186803b158015611d0357600080fd5b505afa158015611d17573d6000803e3d6000fd5b505050506040513d601f19601f82011682018060405250810190611d3b91906138cd565b118015611d4e5750611d4c3361091d565b155b15611d6157611d5c336108fd565b611e0a565b61010c546001600160a01b03166370a08231336040516001600160e01b031960e084901b1681526001600160a01b03909116600482015260240160206040518083038186803b158015611db357600080fd5b505afa158015611dc7573d6000803e3d6000fd5b505050506040513d601f19601f82011682018060405250810190611deb91906138cd565b158015611dfc5750611dfc3361091d565b15611e0a57611e0a33610848565b50600192915050565b60c9546001600160a01b03163314611e3d5760405162461bcd60e51b8152600401610efe90613a73565b6111d660fb82612acb565b6000610b3660fb83612ae0565b61010a546040516370a0823160e01b815230600482015260009182916001600160a01b03909116906370a082319060240160206040518083038186803b158015611e9e57600080fd5b505afa158015611eb2573d6000803e3d6000fd5b505050506040513d601f19601f82011682018060405250810190611ed691906138cd565b61010b546040516370a0823160e01b81523060048201526001600160a01b03909116906370a082319060240160206040518083038186803b158015611f1a57600080fd5b505afa158015611f2e573d6000803e3d6000fd5b505050506040513d601f19601f82011682018060405250810190611f5291906138cd565b915091509091565b6000611f6660fb612b02565b905090565b60c9546001600160a01b03163314611f955760405162461bcd60e51b8152600401610efe90613a73565b61010a80546001600160a01b039384166001600160a01b03199182161790915561010b8054929093169116179055565b60c9546001600160a01b03163314611fef5760405162461bcd60e51b8152600401610efe90613a73565b61010655565b60c9546001600160a01b0316331461201f5760405162461bcd60e51b8152600401610efe90613a73565b6001600160a01b0381166120845760405162461bcd60e51b815260206004820152602660248201527f4f776e61626c653a206e6577206f776e657220697320746865207a65726f206160448201526564647265737360d01b6064820152608401610efe565b611065816127d3565b6001600160a01b03163b151590565b6001600160a01b0383166120fe5760405162461bcd60e51b8152602060048201526024808201527f45524332303a20617070726f76652066726f6d20746865207a65726f206164646044820152637265737360e01b6064820152608401610efe565b6001600160a01b03821661215f5760405162461bcd60e51b815260206004820152602260248201527f45524332303a20617070726f766520746f20746865207a65726f206164647265604482015261737360f01b6064820152608401610efe565b6001600160a01b0383811660008181526034602090815260408083209487168084529482529182902085905590518481527f8c5be1e5ebec7d5bd14f71427d1e84f3dd0314c0f7b2291e5b200ac8c7c3b92591015b60405180910390a3505050565b6000610ecd8284613d47565b6001600160a01b0383166121f35760405162461bcd60e51b8152600401610efe90613aa8565b6001600160a01b0382166122195760405162461bcd60e51b8152600401610efe90613998565b6000811161227b5760405162461bcd60e51b815260206004820152602960248201527f5472616e7366657220616d6f756e74206d7573742062652067726561746572206044820152687468616e207a65726f60b81b6064820152608401610efe565b60fd5460ff161580156122a05750610105543060009081526033602052604090205410155b156123555760fd805460ff191660011790556101015415612301576123016122ef6064610f35610101546122e9306001600160a01b031660009081526033602052604090205490565b9061260d565b61010a546001600160a01b0316612b0c565b610101541561234a5761234a6123386064610f35610102546122e9306001600160a01b031660009081526033602052604090205490565b61010b546001600160a01b0316612b0c565b60fd805460ff191690555b60fd5460ff166123ff57600080600061236d84610f14565b9250925092506101065461238a8361238460355490565b906121c1565b106123ad5761239c866101005461298f565b6123a684836121c1565b93506123ba565b6123b78383612cd9565b92505b6123c88161238486866121c1565b610103549094506123e49087906001600160a01b03168561243d565b6123ef86308361243d565b6123fb61010754612ce5565b5050505b61240a83838361243d565b816001600160a01b0316836001600160a01b0316600080516020613e69833981519152836040516121b491815260200190565b6001600160a01b0383166124635760405162461bcd60e51b8152600401610efe90613aa8565b6001600160a01b0382166124895760405162461bcd60e51b8152600401610efe90613998565b6001600160a01b038316600090815260336020526040902054818110156125015760405162461bcd60e51b815260206004820152602660248201527f45524332303a207472616e7366657220616d6f756e7420657863656564732062604482015265616c616e636560d01b6064820152608401610efe565b6001600160a01b03808516600090815260336020526040808220858503905591851681529081208054849290612538908490613bd9565b92505081905550826001600160a01b0316846001600160a01b0316600080516020613e698339815191528460405161257291815260200190565b60405180910390a35b50505050565b6001600160a01b03838116600090815260346020908152604080832093861683529290522054600019811461257b57818110156126005760405162461bcd60e51b815260206004820152601d60248201527f45524332303a20696e73756666696369656e7420616c6c6f77616e63650000006044820152606401610efe565b61257b848484840361209c565b6000610ecd8284613d28565b6000610ecd8284613bf1565b60c9546001600160a01b031633146110655760405162461bcd60e51b8152600401610efe90613a73565b7f4910fdfa16fed3260ed0e7147f7cc6da11a60208b5b9406d12a635614ffd91435460ff16156126875761268283613181565b6127ce565b826001600160a01b03166352d1902d6040518163ffffffff1660e01b815260040160206040518083038186803b1580156126c057600080fd5b505afa9250505080156126f0575060408051601f3d908101601f191682019092526126ed918101906138cd565b60015b6127535760405162461bcd60e51b815260206004820152602e60248201527f45524331393637557067726164653a206e657720696d706c656d656e7461746960448201526d6f6e206973206e6f74205555505360901b6064820152608401610efe565b600080516020613e2283398151915281146127c25760405162461bcd60e51b815260206004820152602960248201527f45524331393637557067726164653a20756e737570706f727465642070726f786044820152681a58589b195555525160ba1b6064820152608401610efe565b506127ce83838361321d565b505050565b60c980546001600160a01b038381166001600160a01b0319831681179093556040519116919082907f8be0079c531659141344cd1fd0a4f28419497f9722a3daafe3b4186f6b6457e090600090a35050565b600054610100900460ff1661284c5760405162461bcd60e51b8152600401610efe90613aed565b6111d68282613242565b600054610100900460ff1661287d5760405162461bcd60e51b8152600401610efe90613aed565b61147b613290565b600054610100900460ff1661147b5760405162461bcd60e51b8152600401610efe90613aed565b6001600160a01b0382166129025760405162461bcd60e51b815260206004820152601f60248201527f45524332303a206d696e7420746f20746865207a65726f2061646472657373006044820152606401610efe565b80603560008282546129149190613bd9565b90915550506001600160a01b03821660009081526033602052604081208054839290612941908490613bd9565b90915550506040518181526001600160a01b03831690600090600080516020613e698339815191529060200160405180910390a36111d6565b6000610ecd836001600160a01b0384166132c0565b6001600160a01b0382166129ef5760405162461bcd60e51b815260206004820152602160248201527f45524332303a206275726e2066726f6d20746865207a65726f206164647265736044820152607360f81b6064820152608401610efe565b6001600160a01b03821660009081526033602052604090205481811015612a635760405162461bcd60e51b815260206004820152602260248201527f45524332303a206275726e20616d6f756e7420657863656564732062616c616e604482015261636560f01b6064820152608401610efe565b6001600160a01b0383166000908152603360205260408120838303905560358054849290612a92908490613d47565b90915550506040518281526000906001600160a01b03851690600080516020613e698339815191529060200160405180910390a36127ce565b6000610ecd836001600160a01b0384166133dd565b6001600160a01b03811660009081526001830160205260408120541515610ecd565b6000610b36825490565b60408051600380825260808201909252600091602082016060803683370190505090503081600081518110612b5157634e487b7160e01b600052603260045260246000fd5b6001600160a01b0392831660209182029290920181019190915261010854604080516315ab88c960e31b81529051919093169263ad5c4648926004808301939192829003018186803b158015612ba657600080fd5b505afa158015612bba573d6000803e3d6000fd5b505050506040513d601f19601f82011682018060405250810190612bde9190613692565b81600181518110612bff57634e487b7160e01b600052603260045260246000fd5b60200260200101906001600160a01b031690816001600160a01b0316815250508181600281518110612c4157634e487b7160e01b600052603260045260246000fd5b6001600160a01b03928316602091820292909201015261010854612c68913091168561209c565b61010854604051635c11d79560e01b81526001600160a01b0390911690635c11d79590612ca2908690600090869030904290600401613b38565b600060405180830381600087803b158015612cbc57600080fd5b505af1158015612cd0573d6000803e3d6000fd5b50505050505050565b6000610ecd8284613bd9565b6000612cf160fb612b02565b9050801580612d7d575061010d5461010a546040516370a0823160e01b81523060048201526001600160a01b03909116906370a082319060240160206040518083038186803b158015612d4357600080fd5b505afa158015612d57573d6000803e3d6000fd5b505050506040513d601f19601f82011682018060405250810190612d7b91906138cd565b105b80612e05575061010e5461010b546040516370a0823160e01b81523060048201526001600160a01b03909116906370a082319060240160206040518083038186803b158015612dcb57600080fd5b505afa158015612ddf573d6000803e3d6000fd5b505050506040513d601f19601f82011682018060405250810190612e0391906138cd565b105b15612e105750611065565b610110546000805a905060005b8583108015612e2b57508481105b156131765780612e3a81613dc5565b915050612e4760fb612b02565b8410612e5257600093505b6000612e5f60fb8661342c565b9050600080612e6d83610b3c565b915091508160001415612e8e57612e8560fb8461297a565b50505050612e1d565b6000612eaa82610f358561010d5461260d90919063ffffffff16565b90506000612ec883610f358661010e5461260d90919063ffffffff16565b61010a546040516370a0823160e01b815230600482015291925083916001600160a01b03909116906370a082319060240160206040518083038186803b158015612f1157600080fd5b505afa158015612f25573d6000803e3d6000fd5b505050506040513d601f19601f82011682018060405250810190612f4991906138cd565b1080612fce575061010b546040516370a0823160e01b815230600482015282916001600160a01b0316906370a082319060240160206040518083038186803b158015612f9457600080fd5b505afa158015612fa8573d6000803e3d6000fd5b505050506040513d601f19601f82011682018060405250810190612fcc91906138cd565b105b15612fe25750505050505050505050611065565b600084118015612ff25750600083115b801561300d575061010f546001600160a01b03868116911614155b801561302157506001600160a01b03851615155b156131375761010a5460405163a9059cbb60e01b81526001600160a01b038781166004830152602482018590529091169063a9059cbb90604401602060405180830381600087803b15801561307557600080fd5b505af1158015613089573d6000803e3d6000fd5b505050506040513d601f19601f820116820180604052508101906130ad91906138ad565b5061010b5460405163a9059cbb60e01b81526001600160a01b038781166004830152602482018490529091169063a9059cbb90604401602060405180830381600087803b1580156130fd57600080fd5b505af1158015613111573d6000803e3d6000fd5b505050506040513d601f19601f8201168201806040525081019061313591906138ad565b505b60005a90508088111561315b5761315861315189836121c1565b8a90612cd9565b98505b9650868961316881613dc5565b9a5050505050505050612e1d565b505050610110555050565b6001600160a01b0381163b6131ee5760405162461bcd60e51b815260206004820152602d60248201527f455243313936373a206e657720696d706c656d656e746174696f6e206973206e60448201526c1bdd08184818dbdb9d1c9858dd609a1b6064820152608401610efe565b600080516020613e2283398151915280546001600160a01b0319166001600160a01b0392909216919091179055565b61322683613438565b6000825111806132335750805b156127ce5761257b8383613478565b600054610100900460ff166132695760405162461bcd60e51b8152600401610efe90613aed565b815161327c9060369060208501906135dd565b5080516127ce9060379060208401906135dd565b600054610100900460ff166132b75760405162461bcd60e51b8152600401610efe90613aed565b61147b336127d3565b600081815260018301602052604081205480156133d35760006132e4600183613d47565b85549091506000906132f890600190613d47565b905081811461337957600086600001828154811061332657634e487b7160e01b600052603260045260246000fd5b906000526020600020015490508087600001848154811061335757634e487b7160e01b600052603260045260246000fd5b6000918252602080832090910192909255918252600188019052604090208390555b855486908061339857634e487b7160e01b600052603160045260246000fd5b600190038181906000526020600020016000905590558560010160008681526020019081526020016000206000905560019350505050610b36565b6000915050610b36565b600081815260018301602052604081205461342457508154600181810184556000848152602080822090930184905584548482528286019093526040902091909155610b36565b506000610b36565b6000610ecd838361356c565b61344181613181565b6040516001600160a01b038216907fbc7cd75a20ee27fd9adebab32041f755214dbc6bffa90cc0225b39da2e5c2d3b90600090a250565b60606001600160a01b0383163b6134e05760405162461bcd60e51b815260206004820152602660248201527f416464726573733a2064656c65676174652063616c6c20746f206e6f6e2d636f6044820152651b9d1c9858dd60d21b6064820152608401610efe565b600080846001600160a01b0316846040516134fb9190613949565b600060405180830381855af49150503d8060008114613536576040519150601f19603f3d011682016040523d82523d6000602084013e61353b565b606091505b50915091506135638282604051806060016040528060278152602001613e42602791396135a4565b95945050505050565b600082600001828154811061359157634e487b7160e01b600052603260045260246000fd5b9060005260206000200154905092915050565b606083156135b3575081610ecd565b8251156135c35782518084602001fd5b8160405162461bcd60e51b8152600401610efe9190613965565b8280546135e990613d8a565b90600052602060002090601f01602090048101928261360b5760008555613651565b82601f1061362457805160ff1916838001178555613651565b82800160010185558215613651579182015b82811115613651578251825591602001919060010190613636565b5061365d929150613661565b5090565b5b8082111561365d5760008155600101613662565b600060208284031215613687578081fd5b8135610ecd81613e0c565b6000602082840312156136a3578081fd5b8151610ecd81613e0c565b600080604083850312156136c0578081fd5b82356136cb81613e0c565b915060208301356136db81613e0c565b809150509250929050565b6000806000606084860312156136fa578081fd5b833561370581613e0c565b9250602084013561371581613e0c565b929592945050506040919091013590565b60008060408385031215613738578182fd5b823561374381613e0c565b915060208381013567ffffffffffffffff80821115613760578384fd5b818601915086601f830112613773578384fd5b81358181111561378557613785613df6565b613797601f8201601f19168501613ba8565b915080825287848285010111156137ac578485fd5b8084840185840137810190920192909252919491935090915050565b600080604083850312156137da578182fd5b82356137e581613e0c565b946020939093013593505050565b60008060408385031215613805578182fd5b823567ffffffffffffffff8082111561381c578384fd5b818501915085601f83011261382f578384fd5b813560208282111561384357613843613df6565b8160051b9250613854818401613ba8565b8281528181019085830185870184018b101561386e578889fd5b8896505b8487101561389c578035955061388786613e0c565b85835260019690960195918301918301613872565b509997909101359750505050505050565b6000602082840312156138be578081fd5b81518015158114610ecd578182fd5b6000602082840312156138de578081fd5b5051919050565b6000602082840312156138f6578081fd5b5035919050565b6000806040838503121561390f578182fd5b50508035926020909101359150565b600080600060608486031215613932578283fd5b505081359360208301359350604090920135919050565b6000825161395b818460208701613d5e565b9190910192915050565b6000602082528251806020840152613984816040850160208701613d5e565b601f01601f19169190910160400192915050565b60208082526023908201527f45524332303a207472616e7366657220746f20746865207a65726f206164647260408201526265737360e81b606082015260800190565b6020808252602c908201527f46756e6374696f6e206d7573742062652063616c6c6564207468726f7567682060408201526b19195b1959d85d1958d85b1b60a21b606082015260800190565b6020808252602c908201527f46756e6374696f6e206d7573742062652063616c6c6564207468726f7567682060408201526b6163746976652070726f787960a01b606082015260800190565b6020808252818101527f4f776e61626c653a2063616c6c6572206973206e6f7420746865206f776e6572604082015260600190565b60208082526025908201527f45524332303a207472616e736665722066726f6d20746865207a65726f206164604082015264647265737360d81b606082015260800190565b6020808252602b908201527f496e697469616c697a61626c653a20636f6e7472616374206973206e6f74206960408201526a6e697469616c697a696e6760a81b606082015260800190565b600060a082018783526020878185015260a0604085015281875180845260c0860191508289019350845b81811015613b875784516001600160a01b031683529383019391830191600101613b62565b50506001600160a01b03969096166060850152505050608001529392505050565b604051601f8201601f1916810167ffffffffffffffff81118282101715613bd157613bd1613df6565b604052919050565b60008219821115613bec57613bec613de0565b500190565b600082613c0c57634e487b7160e01b81526012600452602481fd5b500490565b80825b6001808611613c235750613c4e565b818704821115613c3557613c35613de0565b80861615613c4257918102915b9490941c938002613c14565b94509492505050565b6000610ecd60001960ff851684600082613c7357506001610ecd565b81613c8057506000610ecd565b8160018114613c965760028114613ca057613ccd565b6001915050610ecd565b60ff841115613cb157613cb1613de0565b6001841b915084821115613cc757613cc7613de0565b50610ecd565b5060208310610133831016604e8410600b8410161715613d00575081810a83811115613cfb57613cfb613de0565b610ecd565b613d0d8484846001613c11565b808604821115613d1f57613d1f613de0565b02949350505050565b6000816000190483118215151615613d4257613d42613de0565b500290565b600082821015613d5957613d59613de0565b500390565b60005b83811015613d79578181015183820152602001613d61565b8381111561257b5750506000910152565b600181811c90821680613d9e57607f821691505b60208210811415613dbf57634e487b7160e01b600052602260045260246000fd5b50919050565b6000600019821415613dd957613dd9613de0565b5060010190565b634e487b7160e01b600052601160045260246000fd5b634e487b7160e01b600052604160045260246000fd5b6001600160a01b038116811461106557600080fdfe360894a13ba1a3210667c828492db98dca3e2076cc3735a920a3ca505d382bbc416464726573733a206c6f772d6c6576656c2064656c65676174652063616c6c206661696c6564ddf252ad1be2c89b69c2b068fc378daa952ba7f163c4a11628f55a4df523b3efa2646970667358221220c6c4325dfb79f3d3f938597ae995af82aa5566e010d29739e9ac78caf00f992464736f6c63430008030033",
  "linkReferences": {},
  "deployedLinkReferences": {}
}