{
  "_format": "hh-sol-artifact-1",
  "contractName": "MyTokenV1",
  "sourceName": "contracts/mytoken.sol",
  "abi": [
    {
      "inputs": [],
      "stateMutability": "nonpayable",
      "type": "constructor"
    },
    {
      "anonymous": false,
      "inputs": [
        {
          "indexed": false,
          "internalType": "address",
          "name": "previousAdmin",
          "type": "address"
        },
        {
          "indexed": false,
          "internalType": "address",
          "name": "newAdmin",
          "type": "address"
        }
      ],
      "name": "AdminChanged",
      "type": "event"
    },
    {
      "anonymous": false,
      "inputs": [
        {
          "indexed": true,
          "internalType": "address",
          "name": "owner",
          "type": "address"
        },
        {
          "indexed": true,
          "internalType": "address",
          "name": "spender",
          "type": "address"
        },
        {
          "indexed": false,
          "internalType": "uint256",
          "name": "value",
          "type": "uint256"
        }
      ],
      "name": "Approval",
      "type": "event"
    },
    {
      "anonymous": false,
      "inputs": [
        {
          "indexed": true,
          "internalType": "address",
          "name": "beacon",
          "type": "address"
        }
      ],
      "name": "BeaconUpgraded",
      "type": "event"
    },
    {
      "anonymous": false,
      "inputs": [
        {
          "indexed": true,
          "internalType": "address",
          "name": "previousOwner",
          "type": "address"
        },
        {
          "indexed": true,
          "internalType": "address",
          "name": "newOwner",
          "type": "address"
        }
      ],
      "name": "OwnershipTransferred",
      "type": "event"
    },
    {
      "anonymous": false,
      "inputs": [
        {
          "indexed": true,
          "internalType": "address",
          "name": "from",
          "type": "address"
        },
        {
          "indexed": true,
          "internalType": "address",
          "name": "to",
          "type": "address"
        },
        {
          "indexed": false,
          "internalType": "uint256",
          "name": "value",
          "type": "uint256"
        }
      ],
      "name": "Transfer",
      "type": "event"
    },
    {
      "anonymous": false,
      "inputs": [
        {
          "indexed": true,
          "internalType": "address",
          "name": "implementation",
          "type": "address"
        }
      ],
      "name": "Upgraded",
      "type": "event"
    },
    {
      "inputs": [
        {
          "internalType": "address",
          "name": "owner",
          "type": "address"
        },
        {
          "internalType": "address",
          "name": "spender",
          "type": "address"
        }
      ],
      "name": "allowance",
      "outputs": [
        {
          "internalType": "uint256",
          "name": "",
          "type": "uint256"
        }
      ],
      "stateMutability": "view",
      "type": "function"
    },
    {
      "inputs": [
        {
          "internalType": "address",
          "name": "spender",
          "type": "address"
        },
        {
          "internalType": "uint256",
          "name": "amount",
          "type": "uint256"
        }
      ],
      "name": "approve",
      "outputs": [
        {
          "internalType": "bool",
          "name": "",
          "type": "bool"
        }
      ],
      "stateMutability": "nonpayable",
      "type": "function"
    },
    {
      "inputs": [
        {
          "internalType": "address",
          "name": "account",
          "type": "address"
        }
      ],
      "name": "balanceOf",
      "outputs": [
        {
          "internalType": "uint256",
          "name": "",
          "type": "uint256"
        }
      ],
      "stateMutability": "view",
      "type": "function"
    },
    {
      "inputs": [],
      "name": "decimals",
      "outputs": [
        {
          "internalType": "uint8",
          "name": "",
          "type": "uint8"
        }
      ],
      "stateMutability": "view",
      "type": "function"
    },
    {
      "inputs": [
        {
          "internalType": "address",
          "name": "spender",
          "type": "address"
        },
        {
          "internalType": "uint256",
          "name": "subtractedValue",
          "type": "uint256"
        }
      ],
      "name": "decreaseAllowance",
      "outputs": [
        {
          "internalType": "bool",
          "name": "",
          "type": "bool"
        }
      ],
      "stateMutability": "nonpayable",
      "type": "function"
    },
    {
      "inputs": [],
      "name": "getValue1",
      "outputs": [
        {
          "internalType": "uint256",
          "name": "",
          "type": "uint256"
        }
      ],
      "stateMutability": "view",
      "type": "function"
    },
    {
      "inputs": [],
      "name": "getValue2",
      "outputs": [
        {
          "internalType": "uint256",
          "name": "",
          "type": "uint256"
        }
      ],
      "stateMutability": "pure",
      "type": "function"
    },
    {
      "inputs": [
        {
          "internalType": "address",
          "name": "spender",
          "type": "address"
        },
        {
          "internalType": "uint256",
          "name": "addedValue",
          "type": "uint256"
        }
      ],
      "name": "increaseAllowance",
      "outputs": [
        {
          "internalType": "bool",
          "name": "",
          "type": "bool"
        }
      ],
      "stateMutability": "nonpayable",
      "type": "function"
    },
    {
      "inputs": [],
      "name": "initialize",
      "outputs": [],
      "stateMutability": "nonpayable",
      "type": "function"
    },
    {
      "inputs": [],
      "name": "name",
      "outputs": [
        {
          "internalType": "string",
          "name": "",
          "type": "string"
        }
      ],
      "stateMutability": "view",
      "type": "function"
    },
    {
      "inputs": [],
      "name": "owner",
      "outputs": [
        {
          "internalType": "address",
          "name": "",
          "type": "address"
        }
      ],
      "stateMutability": "view",
      "type": "function"
    },
    {
      "inputs": [],
      "name": "proxiableUUID",
      "outputs": [
        {
          "internalType": "bytes32",
          "name": "",
          "type": "bytes32"
        }
      ],
      "stateMutability": "view",
      "type": "function"
    },
    {
      "inputs": [],
      "name": "renounceOwnership",
      "outputs": [],
      "stateMutability": "nonpayable",
      "type": "function"
    },
    {
      "inputs": [
        {
          "internalType": "uint256",
          "name": "v1",
          "type": "uint256"
        }
      ],
      "name": "setValue1",
      "outputs": [],
      "stateMutability": "nonpayable",
      "type": "function"
    },
    {
      "inputs": [],
      "name": "symbol",
      "outputs": [
        {
          "internalType": "string",
          "name": "",
          "type": "string"
        }
      ],
      "stateMutability": "view",
      "type": "function"
    },
    {
      "inputs": [],
      "name": "totalSupply",
      "outputs": [
        {
          "internalType": "uint256",
          "name": "",
          "type": "uint256"
        }
      ],
      "stateMutability": "view",
      "type": "function"
    },
    {
      "inputs": [
        {
          "internalType": "address",
          "name": "to",
          "type": "address"
        },
        {
          "internalType": "uint256",
          "name": "amount",
          "type": "uint256"
        }
      ],
      "name": "transfer",
      "outputs": [
        {
          "internalType": "bool",
          "name": "",
          "type": "bool"
        }
      ],
      "stateMutability": "nonpayable",
      "type": "function"
    },
    {
      "inputs": [
        {
          "internalType": "address",
          "name": "from",
          "type": "address"
        },
        {
          "internalType": "address",
          "name": "to",
          "type": "address"
        },
        {
          "internalType": "uint256",
          "name": "amount",
          "type": "uint256"
        }
      ],
      "name": "transferFrom",
      "outputs": [
        {
          "internalType": "bool",
          "name": "",
          "type": "bool"
        }
      ],
      "stateMutability": "nonpayable",
      "type": "function"
    },
    {
      "inputs": [
        {
          "internalType": "address",
          "name": "newOwner",
          "type": "address"
        }
      ],
      "name": "transferOwnership",
      "outputs": [],
      "stateMutability": "nonpayable",
      "type": "function"
    },
    {
      "inputs": [
        {
          "internalType": "address",
          "name": "newImplementation",
          "type": "address"
        }
      ],
      "name": "upgradeTo",
      "outputs": [],
      "stateMutability": "nonpayable",
      "type": "function"
    },
    {
      "inputs": [
        {
          "internalType": "address",
          "name": "newImplementation",
          "type": "address"
        },
        {
          "internalType": "bytes",
          "name": "data",
          "type": "bytes"
        }
      ],
      "name": "upgradeToAndCall",
      "outputs": [],
      "stateMutability": "payable",
      "type": "function"
    }
  ],
  "bytecode": "0x60a06040523060601b6080523480156200001857600080fd5b50600054610100900460ff16620000365760005460ff161562000040565b62000040620000e5565b620000a85760405162461bcd60e51b815260206004820152602e60248201527f496e697469616c697a61626c653a20636f6e747261637420697320616c72656160448201526d191e481a5b9a5d1a585b1a5e995960921b606482015260840160405180910390fd5b600054610100900460ff16158015620000cb576000805461ffff19166101011790555b8015620000de576000805461ff00191690555b5062000112565b6000620000fd306200010360201b62000a371760201c565b15905090565b6001600160a01b03163b151590565b60805160601c611a276200014d600039600081816104a0015281816104e9015281816105c801528181610608015261069b0152611a276000f3fe60806040526004361061012a5760003560e01c80636ca0f321116100ab57806395d89b411161006f57806395d89b41146102f6578063a457c2d71461030b578063a9059cbb1461032b578063c515205d1461034b578063dd62ed3e1461035f578063f2fde38b146103a55761012a565b80636ca0f3211461026457806370a0823114610284578063715018a6146102a45780638129fc1c146102b95780638da5cb5b146102ce5761012a565b80633659cfe6116100f25780633659cfe6146101e557806339509351146102075780634f1ef2861461022757806352d1902d1461023a57806360d586f81461024f5761012a565b806306fdde031461012f578063095ea7b31461015a57806318160ddd1461018a57806323b872dd146101a9578063313ce567146101c9575b600080fd5b34801561013b57600080fd5b506101446103c5565b604051610151919061165e565b60405180910390f35b34801561016657600080fd5b5061017a6101753660046115e9565b610457565b6040519015158152602001610151565b34801561019657600080fd5b506035545b604051908152602001610151565b3480156101b557600080fd5b5061017a6101c43660046114f1565b61046f565b3480156101d557600080fd5b5060405160128152602001610151565b3480156101f157600080fd5b506102056102003660046114a5565b610495565b005b34801561021357600080fd5b5061017a6102223660046115e9565b61057e565b61020561023536600461152c565b6105bd565b34801561024657600080fd5b5061019b61068e565b34801561025b57600080fd5b5060fb5461019b565b34801561027057600080fd5b5061020561027f36600461162a565b60fb55565b34801561029057600080fd5b5061019b61029f3660046114a5565b610741565b3480156102b057600080fd5b50610205610760565b3480156102c557600080fd5b50610205610796565b3480156102da57600080fd5b5060c9546040516001600160a01b039091168152602001610151565b34801561030257600080fd5b506101446108c8565b34801561031757600080fd5b5061017a6103263660046115e9565b6108d7565b34801561033757600080fd5b5061017a6103463660046115e9565b610974565b34801561035757600080fd5b50600261019b565b34801561036b57600080fd5b5061019b61037a3660046114bf565b6001600160a01b03918216600090815260346020908152604080832093909416825291909152205490565b3480156103b157600080fd5b506102056103c03660046114a5565b61099f565b6060603680546103d490611943565b80601f016020809104026020016040519081016040528092919081815260200182805461040090611943565b801561044d5780601f106104225761010080835404028352916020019161044d565b820191906000526020600020905b81548152906001019060200180831161043057829003601f168201915b5050505050905090565b600033610465818585610a46565b5060019392505050565b60003361047d858285610b6a565b610488858585610bfc565b60019150505b9392505050565b306001600160a01b037f00000000000000000000000000000000000000000000000000000000000000001614156104e75760405162461bcd60e51b81526004016104de90611691565b60405180910390fd5b7f00000000000000000000000000000000000000000000000000000000000000006001600160a01b03166105306000805160206119ab833981519152546001600160a01b031690565b6001600160a01b0316146105565760405162461bcd60e51b81526004016104de906116dd565b61055f81610dca565b6040805160008082526020820190925261057b91839190610df4565b50565b3360008181526034602090815260408083206001600160a01b038716845290915281205490919061046590829086906105b89087906117a9565b610a46565b306001600160a01b037f00000000000000000000000000000000000000000000000000000000000000001614156106065760405162461bcd60e51b81526004016104de90611691565b7f00000000000000000000000000000000000000000000000000000000000000006001600160a01b031661064f6000805160206119ab833981519152546001600160a01b031690565b6001600160a01b0316146106755760405162461bcd60e51b81526004016104de906116dd565b61067e82610dca565b61068a82826001610df4565b5050565b6000306001600160a01b037f0000000000000000000000000000000000000000000000000000000000000000161461072e5760405162461bcd60e51b815260206004820152603860248201527f555550535570677261646561626c653a206d757374206e6f742062652063616c60448201527f6c6564207468726f7567682064656c656761746563616c6c000000000000000060648201526084016104de565b506000805160206119ab83398151915290565b6001600160a01b0381166000908152603360205260409020545b919050565b60c9546001600160a01b0316331461078a5760405162461bcd60e51b81526004016104de90611729565b6107946000610f78565b565b600054610100900460ff166107b15760005460ff16156107b5565b303b155b6108185760405162461bcd60e51b815260206004820152602e60248201527f496e697469616c697a61626c653a20636f6e747261637420697320616c72656160448201526d191e481a5b9a5d1a585b1a5e995960921b60648201526084016104de565b600054610100900460ff1615801561083a576000805461ffff19166101011790555b61087e6040518060400160405280600781526020016626bcaa37b5b2b760c91b815250604051806040016040528060038152602001624d544b60e81b815250610fca565b610886610ffb565b61088e61102a565b6108af3361089e6012600a611827565b6108aa906103e86118f8565b611051565b600160fb55801561057b576000805461ff001916905550565b6060603780546103d490611943565b3360008181526034602090815260408083206001600160a01b03871684529091528120549091908381101561095c5760405162461bcd60e51b815260206004820152602560248201527f45524332303a2064656372656173656420616c6c6f77616e63652062656c6f77604482015264207a65726f60d81b60648201526084016104de565b6109698286868403610a46565b506001949350505050565b60006109963384610991606461098b87600a611131565b9061113d565b610bfc565b50600192915050565b60c9546001600160a01b031633146109c95760405162461bcd60e51b81526004016104de90611729565b6001600160a01b038116610a2e5760405162461bcd60e51b815260206004820152602660248201527f4f776e61626c653a206e6577206f776e657220697320746865207a65726f206160448201526564647265737360d01b60648201526084016104de565b61057b81610f78565b6001600160a01b03163b151590565b6001600160a01b038316610aa85760405162461bcd60e51b8152602060048201526024808201527f45524332303a20617070726f76652066726f6d20746865207a65726f206164646044820152637265737360e01b60648201526084016104de565b6001600160a01b038216610b095760405162461bcd60e51b815260206004820152602260248201527f45524332303a20617070726f766520746f20746865207a65726f206164647265604482015261737360f01b60648201526084016104de565b6001600160a01b0383811660008181526034602090815260408083209487168084529482529182902085905590518481527f8c5be1e5ebec7d5bd14f71427d1e84f3dd0314c0f7b2291e5b200ac8c7c3b925910160405180910390a3505050565b6001600160a01b038381166000908152603460209081526040808320938616835292905220546000198114610bf65781811015610be95760405162461bcd60e51b815260206004820152601d60248201527f45524332303a20696e73756666696369656e7420616c6c6f77616e636500000060448201526064016104de565b610bf68484848403610a46565b50505050565b6001600160a01b038316610c605760405162461bcd60e51b815260206004820152602560248201527f45524332303a207472616e736665722066726f6d20746865207a65726f206164604482015264647265737360d81b60648201526084016104de565b6001600160a01b038216610cc25760405162461bcd60e51b815260206004820152602360248201527f45524332303a207472616e7366657220746f20746865207a65726f206164647260448201526265737360e81b60648201526084016104de565b6001600160a01b03831660009081526033602052604090205481811015610d3a5760405162461bcd60e51b815260206004820152602660248201527f45524332303a207472616e7366657220616d6f756e7420657863656564732062604482015265616c616e636560d01b60648201526084016104de565b6001600160a01b03808516600090815260336020526040808220858503905591851681529081208054849290610d719084906117a9565b92505081905550826001600160a01b0316846001600160a01b03167fddf252ad1be2c89b69c2b068fc378daa952ba7f163c4a11628f55a4df523b3ef84604051610dbd91815260200190565b60405180910390a3610bf6565b60c9546001600160a01b0316331461057b5760405162461bcd60e51b81526004016104de90611729565b7f4910fdfa16fed3260ed0e7147f7cc6da11a60208b5b9406d12a635614ffd91435460ff1615610e2c57610e2783611149565b610f73565b826001600160a01b03166352d1902d6040518163ffffffff1660e01b815260040160206040518083038186803b158015610e6557600080fd5b505afa925050508015610e95575060408051601f3d908101601f19168201909252610e9291810190611612565b60015b610ef85760405162461bcd60e51b815260206004820152602e60248201527f45524331393637557067726164653a206e657720696d706c656d656e7461746960448201526d6f6e206973206e6f74205555505360901b60648201526084016104de565b6000805160206119ab8339815191528114610f675760405162461bcd60e51b815260206004820152602960248201527f45524331393637557067726164653a20756e737570706f727465642070726f786044820152681a58589b195555525160ba1b60648201526084016104de565b50610f738383836111e5565b505050565b60c980546001600160a01b038381166001600160a01b0319831681179093556040519116919082907f8be0079c531659141344cd1fd0a4f28419497f9722a3daafe3b4186f6b6457e090600090a35050565b600054610100900460ff16610ff15760405162461bcd60e51b81526004016104de9061175e565b61068a828261120a565b600054610100900460ff166110225760405162461bcd60e51b81526004016104de9061175e565b610794611258565b600054610100900460ff166107945760405162461bcd60e51b81526004016104de9061175e565b6001600160a01b0382166110a75760405162461bcd60e51b815260206004820152601f60248201527f45524332303a206d696e7420746f20746865207a65726f20616464726573730060448201526064016104de565b80603560008282546110b991906117a9565b90915550506001600160a01b038216600090815260336020526040812080548392906110e69084906117a9565b90915550506040518181526001600160a01b038316906000907fddf252ad1be2c89b69c2b068fc378daa952ba7f163c4a11628f55a4df523b3ef9060200160405180910390a361068a565b600061048e82846118f8565b600061048e82846117c1565b6001600160a01b0381163b6111b65760405162461bcd60e51b815260206004820152602d60248201527f455243313936373a206e657720696d706c656d656e746174696f6e206973206e60448201526c1bdd08184818dbdb9d1c9858dd609a1b60648201526084016104de565b6000805160206119ab83398151915280546001600160a01b0319166001600160a01b0392909216919091179055565b6111ee83611288565b6000825111806111fb5750805b15610f7357610bf683836112c8565b600054610100900460ff166112315760405162461bcd60e51b81526004016104de9061175e565b81516112449060369060208501906113f5565b508051610f739060379060208401906113f5565b600054610100900460ff1661127f5760405162461bcd60e51b81526004016104de9061175e565b61079433610f78565b61129181611149565b6040516001600160a01b038216907fbc7cd75a20ee27fd9adebab32041f755214dbc6bffa90cc0225b39da2e5c2d3b90600090a250565b60606001600160a01b0383163b6113305760405162461bcd60e51b815260206004820152602660248201527f416464726573733a2064656c65676174652063616c6c20746f206e6f6e2d636f6044820152651b9d1c9858dd60d21b60648201526084016104de565b600080846001600160a01b03168460405161134b9190611642565b600060405180830381855af49150503d8060008114611386576040519150601f19603f3d011682016040523d82523d6000602084013e61138b565b606091505b50915091506113b382826040518060600160405280602781526020016119cb602791396113bc565b95945050505050565b606083156113cb57508161048e565b8251156113db5782518084602001fd5b8160405162461bcd60e51b81526004016104de919061165e565b82805461140190611943565b90600052602060002090601f0160209004810192826114235760008555611469565b82601f1061143c57805160ff1916838001178555611469565b82800160010185558215611469579182015b8281111561146957825182559160200191906001019061144e565b50611475929150611479565b5090565b5b80821115611475576000815560010161147a565b80356001600160a01b038116811461075b57600080fd5b6000602082840312156114b6578081fd5b61048e8261148e565b600080604083850312156114d1578081fd5b6114da8361148e565b91506114e86020840161148e565b90509250929050565b600080600060608486031215611505578081fd5b61150e8461148e565b925061151c6020850161148e565b9150604084013590509250925092565b6000806040838503121561153e578182fd5b6115478361148e565b9150602083013567ffffffffffffffff80821115611563578283fd5b818501915085601f830112611576578283fd5b81358181111561158857611588611994565b604051601f8201601f19908116603f011681019083821181831017156115b0576115b0611994565b816040528281528860208487010111156115c8578586fd5b82602086016020830137856020848301015280955050505050509250929050565b600080604083850312156115fb578182fd5b6116048361148e565b946020939093013593505050565b600060208284031215611623578081fd5b5051919050565b60006020828403121561163b578081fd5b5035919050565b60008251611654818460208701611917565b9190910192915050565b600060208252825180602084015261167d816040850160208701611917565b601f01601f19169190910160400192915050565b6020808252602c908201527f46756e6374696f6e206d7573742062652063616c6c6564207468726f7567682060408201526b19195b1959d85d1958d85b1b60a21b606082015260800190565b6020808252602c908201527f46756e6374696f6e206d7573742062652063616c6c6564207468726f7567682060408201526b6163746976652070726f787960a01b606082015260800190565b6020808252818101527f4f776e61626c653a2063616c6c6572206973206e6f7420746865206f776e6572604082015260600190565b6020808252602b908201527f496e697469616c697a61626c653a20636f6e7472616374206973206e6f74206960408201526a6e697469616c697a696e6760a81b606082015260800190565b600082198211156117bc576117bc61197e565b500190565b6000826117dc57634e487b7160e01b81526012600452602481fd5b500490565b80825b60018086116117f3575061181e565b8187048211156118055761180561197e565b8086161561181257918102915b9490941c9380026117e4565b94509492505050565b600061048e60001960ff8516846000826118435750600161048e565b816118505750600061048e565b816001811461186657600281146118705761189d565b600191505061048e565b60ff8411156118815761188161197e565b6001841b9150848211156118975761189761197e565b5061048e565b5060208310610133831016604e8410600b84101617156118d0575081810a838111156118cb576118cb61197e565b61048e565b6118dd84848460016117e1565b8086048211156118ef576118ef61197e565b02949350505050565b60008160001904831182151516156119125761191261197e565b500290565b60005b8381101561193257818101518382015260200161191a565b83811115610bf65750506000910152565b600181811c9082168061195757607f821691505b6020821081141561197857634e487b7160e01b600052602260045260246000fd5b50919050565b634e487b7160e01b600052601160045260246000fd5b634e487b7160e01b600052604160045260246000fdfe360894a13ba1a3210667c828492db98dca3e2076cc3735a920a3ca505d382bbc416464726573733a206c6f772d6c6576656c2064656c65676174652063616c6c206661696c6564a2646970667358221220dfba3688c9391219fe238bbe4a78fea34e56d52056b087acc0c9a687323ebf6364736f6c63430008030033",
  "linkReferences": {},
  "deployedLinkReferences": {}
}