{
  "_format": "hh-sol-artifact-1",
  "contractName": "MyTokenV1",
  "sourceName": "contracts/mytoken.sol",
  "abi": [
    {
      "inputs": [],
      "stateMutability": "nonpayable",
      "type": "constructor"
    },
    {
      "anonymous": false,
      "inputs": [
        {
          "indexed": false,
          "internalType": "address",
          "name": "previousAdmin",
          "type": "address"
        },
        {
          "indexed": false,
          "internalType": "address",
          "name": "newAdmin",
          "type": "address"
        }
      ],
      "name": "AdminChanged",
      "type": "event"
    },
    {
      "anonymous": false,
      "inputs": [
        {
          "indexed": true,
          "internalType": "address",
          "name": "owner",
          "type": "address"
        },
        {
          "indexed": true,
          "internalType": "address",
          "name": "spender",
          "type": "address"
        },
        {
          "indexed": false,
          "internalType": "uint256",
          "name": "value",
          "type": "uint256"
        }
      ],
      "name": "Approval",
      "type": "event"
    },
    {
      "anonymous": false,
      "inputs": [
        {
          "indexed": true,
          "internalType": "address",
          "name": "beacon",
          "type": "address"
        }
      ],
      "name": "BeaconUpgraded",
      "type": "event"
    },
    {
      "anonymous": false,
      "inputs": [
        {
          "indexed": true,
          "internalType": "address",
          "name": "previousOwner",
          "type": "address"
        },
        {
          "indexed": true,
          "internalType": "address",
          "name": "newOwner",
          "type": "address"
        }
      ],
      "name": "OwnershipTransferred",
      "type": "event"
    },
    {
      "anonymous": false,
      "inputs": [
        {
          "indexed": true,
          "internalType": "address",
          "name": "from",
          "type": "address"
        },
        {
          "indexed": true,
          "internalType": "address",
          "name": "to",
          "type": "address"
        },
        {
          "indexed": false,
          "internalType": "uint256",
          "name": "value",
          "type": "uint256"
        }
      ],
      "name": "Transfer",
      "type": "event"
    },
    {
      "anonymous": false,
      "inputs": [
        {
          "indexed": true,
          "internalType": "address",
          "name": "implementation",
          "type": "address"
        }
      ],
      "name": "Upgraded",
      "type": "event"
    },
    {
      "inputs": [
        {
          "internalType": "address",
          "name": "owner",
          "type": "address"
        },
        {
          "internalType": "address",
          "name": "spender",
          "type": "address"
        }
      ],
      "name": "allowance",
      "outputs": [
        {
          "internalType": "uint256",
          "name": "",
          "type": "uint256"
        }
      ],
      "stateMutability": "view",
      "type": "function"
    },
    {
      "inputs": [
        {
          "internalType": "address",
          "name": "spender",
          "type": "address"
        },
        {
          "internalType": "uint256",
          "name": "amount",
          "type": "uint256"
        }
      ],
      "name": "approve",
      "outputs": [
        {
          "internalType": "bool",
          "name": "",
          "type": "bool"
        }
      ],
      "stateMutability": "nonpayable",
      "type": "function"
    },
    {
      "inputs": [
        {
          "internalType": "address",
          "name": "account",
          "type": "address"
        }
      ],
      "name": "balanceOf",
      "outputs": [
        {
          "internalType": "uint256",
          "name": "",
          "type": "uint256"
        }
      ],
      "stateMutability": "view",
      "type": "function"
    },
    {
      "inputs": [],
      "name": "decimals",
      "outputs": [
        {
          "internalType": "uint8",
          "name": "",
          "type": "uint8"
        }
      ],
      "stateMutability": "view",
      "type": "function"
    },
    {
      "inputs": [
        {
          "internalType": "address",
          "name": "spender",
          "type": "address"
        },
        {
          "internalType": "uint256",
          "name": "subtractedValue",
          "type": "uint256"
        }
      ],
      "name": "decreaseAllowance",
      "outputs": [
        {
          "internalType": "bool",
          "name": "",
          "type": "bool"
        }
      ],
      "stateMutability": "nonpayable",
      "type": "function"
    },
    {
      "inputs": [
        {
          "internalType": "address",
          "name": "spender",
          "type": "address"
        },
        {
          "internalType": "uint256",
          "name": "addedValue",
          "type": "uint256"
        }
      ],
      "name": "increaseAllowance",
      "outputs": [
        {
          "internalType": "bool",
          "name": "",
          "type": "bool"
        }
      ],
      "stateMutability": "nonpayable",
      "type": "function"
    },
    {
      "inputs": [],
      "name": "initialize",
      "outputs": [],
      "stateMutability": "nonpayable",
      "type": "function"
    },
    {
      "inputs": [],
      "name": "name",
      "outputs": [
        {
          "internalType": "string",
          "name": "",
          "type": "string"
        }
      ],
      "stateMutability": "view",
      "type": "function"
    },
    {
      "inputs": [],
      "name": "owner",
      "outputs": [
        {
          "internalType": "address",
          "name": "",
          "type": "address"
        }
      ],
      "stateMutability": "view",
      "type": "function"
    },
    {
      "inputs": [],
      "name": "proxiableUUID",
      "outputs": [
        {
          "internalType": "bytes32",
          "name": "",
          "type": "bytes32"
        }
      ],
      "stateMutability": "view",
      "type": "function"
    },
    {
      "inputs": [],
      "name": "renounceOwnership",
      "outputs": [],
      "stateMutability": "nonpayable",
      "type": "function"
    },
    {
      "inputs": [],
      "name": "symbol",
      "outputs": [
        {
          "internalType": "string",
          "name": "",
          "type": "string"
        }
      ],
      "stateMutability": "view",
      "type": "function"
    },
    {
      "inputs": [],
      "name": "totalSupply",
      "outputs": [
        {
          "internalType": "uint256",
          "name": "",
          "type": "uint256"
        }
      ],
      "stateMutability": "view",
      "type": "function"
    },
    {
      "inputs": [
        {
          "internalType": "address",
          "name": "to",
          "type": "address"
        },
        {
          "internalType": "uint256",
          "name": "amount",
          "type": "uint256"
        }
      ],
      "name": "transfer",
      "outputs": [
        {
          "internalType": "bool",
          "name": "",
          "type": "bool"
        }
      ],
      "stateMutability": "nonpayable",
      "type": "function"
    },
    {
      "inputs": [
        {
          "internalType": "address",
          "name": "from",
          "type": "address"
        },
        {
          "internalType": "address",
          "name": "to",
          "type": "address"
        },
        {
          "internalType": "uint256",
          "name": "amount",
          "type": "uint256"
        }
      ],
      "name": "transferFrom",
      "outputs": [
        {
          "internalType": "bool",
          "name": "",
          "type": "bool"
        }
      ],
      "stateMutability": "nonpayable",
      "type": "function"
    },
    {
      "inputs": [
        {
          "internalType": "address",
          "name": "newOwner",
          "type": "address"
        }
      ],
      "name": "transferOwnership",
      "outputs": [],
      "stateMutability": "nonpayable",
      "type": "function"
    },
    {
      "inputs": [
        {
          "internalType": "address",
          "name": "newImplementation",
          "type": "address"
        }
      ],
      "name": "upgradeTo",
      "outputs": [],
      "stateMutability": "nonpayable",
      "type": "function"
    },
    {
      "inputs": [
        {
          "internalType": "address",
          "name": "newImplementation",
          "type": "address"
        },
        {
          "internalType": "bytes",
          "name": "data",
          "type": "bytes"
        }
      ],
      "name": "upgradeToAndCall",
      "outputs": [],
      "stateMutability": "payable",
      "type": "function"
    }
  ],
  "bytecode": "0x60a06040523060601b6080523480156200001857600080fd5b50600054610100900460ff16620000365760005460ff161562000040565b62000040620000e5565b620000a85760405162461bcd60e51b815260206004820152602e60248201527f496e697469616c697a61626c653a20636f6e747261637420697320616c72656160448201526d191e481a5b9a5d1a585b1a5e995960921b606482015260840160405180910390fd5b600054610100900460ff16158015620000cb576000805461ffff19166101011790555b8015620000de576000805461ff00191690555b5062000112565b6000620000fd306200010360201b620009ab1760201c565b15905090565b6001600160a01b03163b151590565b60805160601c61194b6200014d600039600081816104360152818161047f0152818161055e0152818161059e0152610631015261194b6000f3fe6080604052600436106101095760003560e01c806370a082311161009557806395d89b411161006457806395d89b41146102a0578063a457c2d7146102b5578063a9059cbb146102d5578063dd62ed3e146102f5578063f2fde38b1461033b57610109565b806370a082311461022e578063715018a61461024e5780638129fc1c146102635780638da5cb5b1461027857610109565b8063313ce567116100dc578063313ce567146101a85780633659cfe6146101c457806339509351146101e65780634f1ef2861461020657806352d1902d1461021957610109565b806306fdde031461010e578063095ea7b31461013957806318160ddd1461016957806323b872dd14610188575b600080fd5b34801561011a57600080fd5b5061012361035b565b60405161013091906115a2565b60405180910390f35b34801561014557600080fd5b50610159610154366004611545565b6103ed565b6040519015158152602001610130565b34801561017557600080fd5b506035545b604051908152602001610130565b34801561019457600080fd5b506101596101a336600461144d565b610405565b3480156101b457600080fd5b5060405160128152602001610130565b3480156101d057600080fd5b506101e46101df366004611401565b61042b565b005b3480156101f257600080fd5b50610159610201366004611545565b610514565b6101e4610214366004611488565b610553565b34801561022557600080fd5b5061017a610624565b34801561023a57600080fd5b5061017a610249366004611401565b6106d7565b34801561025a57600080fd5b506101e46106f6565b34801561026f57600080fd5b506101e461072c565b34801561028457600080fd5b5060c9546040516001600160a01b039091168152602001610130565b3480156102ac57600080fd5b50610123610859565b3480156102c157600080fd5b506101596102d0366004611545565b610868565b3480156102e157600080fd5b506101596102f0366004611545565b610905565b34801561030157600080fd5b5061017a61031036600461141b565b6001600160a01b03918216600090815260346020908152604080832093909416825291909152205490565b34801561034757600080fd5b506101e4610356366004611401565b610913565b60606036805461036a90611867565b80601f016020809104026020016040519081016040528092919081815260200182805461039690611867565b80156103e35780601f106103b8576101008083540402835291602001916103e3565b820191906000526020600020905b8154815290600101906020018083116103c657829003601f168201915b5050505050905090565b6000336103fb8185856109ba565b5060019392505050565b600033610413858285610ade565b61041e858585610b70565b60019150505b9392505050565b306001600160a01b037f000000000000000000000000000000000000000000000000000000000000000016141561047d5760405162461bcd60e51b8152600401610474906115d5565b60405180910390fd5b7f00000000000000000000000000000000000000000000000000000000000000006001600160a01b03166104c66000805160206118cf833981519152546001600160a01b031690565b6001600160a01b0316146104ec5760405162461bcd60e51b815260040161047490611621565b6104f581610d3e565b6040805160008082526020820190925261051191839190610d68565b50565b3360008181526034602090815260408083206001600160a01b03871684529091528120549091906103fb908290869061054e9087906116ed565b6109ba565b306001600160a01b037f000000000000000000000000000000000000000000000000000000000000000016141561059c5760405162461bcd60e51b8152600401610474906115d5565b7f00000000000000000000000000000000000000000000000000000000000000006001600160a01b03166105e56000805160206118cf833981519152546001600160a01b031690565b6001600160a01b03161461060b5760405162461bcd60e51b815260040161047490611621565b61061482610d3e565b61062082826001610d68565b5050565b6000306001600160a01b037f000000000000000000000000000000000000000000000000000000000000000016146106c45760405162461bcd60e51b815260206004820152603860248201527f555550535570677261646561626c653a206d757374206e6f742062652063616c60448201527f6c6564207468726f7567682064656c656761746563616c6c00000000000000006064820152608401610474565b506000805160206118cf83398151915290565b6001600160a01b0381166000908152603360205260409020545b919050565b60c9546001600160a01b031633146107205760405162461bcd60e51b81526004016104749061166d565b61072a6000610eec565b565b600054610100900460ff166107475760005460ff161561074b565b303b155b6107ae5760405162461bcd60e51b815260206004820152602e60248201527f496e697469616c697a61626c653a20636f6e747261637420697320616c72656160448201526d191e481a5b9a5d1a585b1a5e995960921b6064820152608401610474565b600054610100900460ff161580156107d0576000805461ffff19166101011790555b6108146040518060400160405280600781526020016626bcaa37b5b2b760c91b815250604051806040016040528060038152602001624d544b60e81b815250610f3e565b61081c610f6f565b610824610f9e565b610845336108346012600a61174b565b610840906103e861181c565b610fc5565b8015610511576000805461ff001916905550565b60606037805461036a90611867565b3360008181526034602090815260408083206001600160a01b0387168452909152812054909190838110156108ed5760405162461bcd60e51b815260206004820152602560248201527f45524332303a2064656372656173656420616c6c6f77616e63652062656c6f77604482015264207a65726f60d81b6064820152608401610474565b6108fa82868684036109ba565b506001949350505050565b6000336103fb818585610b70565b60c9546001600160a01b0316331461093d5760405162461bcd60e51b81526004016104749061166d565b6001600160a01b0381166109a25760405162461bcd60e51b815260206004820152602660248201527f4f776e61626c653a206e6577206f776e657220697320746865207a65726f206160448201526564647265737360d01b6064820152608401610474565b61051181610eec565b6001600160a01b03163b151590565b6001600160a01b038316610a1c5760405162461bcd60e51b8152602060048201526024808201527f45524332303a20617070726f76652066726f6d20746865207a65726f206164646044820152637265737360e01b6064820152608401610474565b6001600160a01b038216610a7d5760405162461bcd60e51b815260206004820152602260248201527f45524332303a20617070726f766520746f20746865207a65726f206164647265604482015261737360f01b6064820152608401610474565b6001600160a01b0383811660008181526034602090815260408083209487168084529482529182902085905590518481527f8c5be1e5ebec7d5bd14f71427d1e84f3dd0314c0f7b2291e5b200ac8c7c3b925910160405180910390a3505050565b6001600160a01b038381166000908152603460209081526040808320938616835292905220546000198114610b6a5781811015610b5d5760405162461bcd60e51b815260206004820152601d60248201527f45524332303a20696e73756666696369656e7420616c6c6f77616e63650000006044820152606401610474565b610b6a84848484036109ba565b50505050565b6001600160a01b038316610bd45760405162461bcd60e51b815260206004820152602560248201527f45524332303a207472616e736665722066726f6d20746865207a65726f206164604482015264647265737360d81b6064820152608401610474565b6001600160a01b038216610c365760405162461bcd60e51b815260206004820152602360248201527f45524332303a207472616e7366657220746f20746865207a65726f206164647260448201526265737360e81b6064820152608401610474565b6001600160a01b03831660009081526033602052604090205481811015610cae5760405162461bcd60e51b815260206004820152602660248201527f45524332303a207472616e7366657220616d6f756e7420657863656564732062604482015265616c616e636560d01b6064820152608401610474565b6001600160a01b03808516600090815260336020526040808220858503905591851681529081208054849290610ce59084906116ed565b92505081905550826001600160a01b0316846001600160a01b03167fddf252ad1be2c89b69c2b068fc378daa952ba7f163c4a11628f55a4df523b3ef84604051610d3191815260200190565b60405180910390a3610b6a565b60c9546001600160a01b031633146105115760405162461bcd60e51b81526004016104749061166d565b7f4910fdfa16fed3260ed0e7147f7cc6da11a60208b5b9406d12a635614ffd91435460ff1615610da057610d9b836110a5565b610ee7565b826001600160a01b03166352d1902d6040518163ffffffff1660e01b815260040160206040518083038186803b158015610dd957600080fd5b505afa925050508015610e09575060408051601f3d908101601f19168201909252610e069181019061156e565b60015b610e6c5760405162461bcd60e51b815260206004820152602e60248201527f45524331393637557067726164653a206e657720696d706c656d656e7461746960448201526d6f6e206973206e6f74205555505360901b6064820152608401610474565b6000805160206118cf8339815191528114610edb5760405162461bcd60e51b815260206004820152602960248201527f45524331393637557067726164653a20756e737570706f727465642070726f786044820152681a58589b195555525160ba1b6064820152608401610474565b50610ee7838383611141565b505050565b60c980546001600160a01b038381166001600160a01b0319831681179093556040519116919082907f8be0079c531659141344cd1fd0a4f28419497f9722a3daafe3b4186f6b6457e090600090a35050565b600054610100900460ff16610f655760405162461bcd60e51b8152600401610474906116a2565b6106208282611166565b600054610100900460ff16610f965760405162461bcd60e51b8152600401610474906116a2565b61072a6111b4565b600054610100900460ff1661072a5760405162461bcd60e51b8152600401610474906116a2565b6001600160a01b03821661101b5760405162461bcd60e51b815260206004820152601f60248201527f45524332303a206d696e7420746f20746865207a65726f2061646472657373006044820152606401610474565b806035600082825461102d91906116ed565b90915550506001600160a01b0382166000908152603360205260408120805483929061105a9084906116ed565b90915550506040518181526001600160a01b038316906000907fddf252ad1be2c89b69c2b068fc378daa952ba7f163c4a11628f55a4df523b3ef9060200160405180910390a3610620565b6001600160a01b0381163b6111125760405162461bcd60e51b815260206004820152602d60248201527f455243313936373a206e657720696d706c656d656e746174696f6e206973206e60448201526c1bdd08184818dbdb9d1c9858dd609a1b6064820152608401610474565b6000805160206118cf83398151915280546001600160a01b0319166001600160a01b0392909216919091179055565b61114a836111e4565b6000825111806111575750805b15610ee757610b6a8383611224565b600054610100900460ff1661118d5760405162461bcd60e51b8152600401610474906116a2565b81516111a0906036906020850190611351565b508051610ee7906037906020840190611351565b600054610100900460ff166111db5760405162461bcd60e51b8152600401610474906116a2565b61072a33610eec565b6111ed816110a5565b6040516001600160a01b038216907fbc7cd75a20ee27fd9adebab32041f755214dbc6bffa90cc0225b39da2e5c2d3b90600090a250565b60606001600160a01b0383163b61128c5760405162461bcd60e51b815260206004820152602660248201527f416464726573733a2064656c65676174652063616c6c20746f206e6f6e2d636f6044820152651b9d1c9858dd60d21b6064820152608401610474565b600080846001600160a01b0316846040516112a79190611586565b600060405180830381855af49150503d80600081146112e2576040519150601f19603f3d011682016040523d82523d6000602084013e6112e7565b606091505b509150915061130f82826040518060600160405280602781526020016118ef60279139611318565b95945050505050565b60608315611327575081610424565b8251156113375782518084602001fd5b8160405162461bcd60e51b815260040161047491906115a2565b82805461135d90611867565b90600052602060002090601f01602090048101928261137f57600085556113c5565b82601f1061139857805160ff19168380011785556113c5565b828001600101855582156113c5579182015b828111156113c55782518255916020019190600101906113aa565b506113d19291506113d5565b5090565b5b808211156113d157600081556001016113d6565b80356001600160a01b03811681146106f157600080fd5b600060208284031215611412578081fd5b610424826113ea565b6000806040838503121561142d578081fd5b611436836113ea565b9150611444602084016113ea565b90509250929050565b600080600060608486031215611461578081fd5b61146a846113ea565b9250611478602085016113ea565b9150604084013590509250925092565b6000806040838503121561149a578182fd5b6114a3836113ea565b9150602083013567ffffffffffffffff808211156114bf578283fd5b818501915085601f8301126114d2578283fd5b8135818111156114e4576114e46118b8565b604051601f8201601f19908116603f0116810190838211818310171561150c5761150c6118b8565b81604052828152886020848701011115611524578586fd5b82602086016020830137856020848301015280955050505050509250929050565b60008060408385031215611557578182fd5b611560836113ea565b946020939093013593505050565b60006020828403121561157f578081fd5b5051919050565b6000825161159881846020870161183b565b9190910192915050565b60006020825282518060208401526115c181604085016020870161183b565b601f01601f19169190910160400192915050565b6020808252602c908201527f46756e6374696f6e206d7573742062652063616c6c6564207468726f7567682060408201526b19195b1959d85d1958d85b1b60a21b606082015260800190565b6020808252602c908201527f46756e6374696f6e206d7573742062652063616c6c6564207468726f7567682060408201526b6163746976652070726f787960a01b606082015260800190565b6020808252818101527f4f776e61626c653a2063616c6c6572206973206e6f7420746865206f776e6572604082015260600190565b6020808252602b908201527f496e697469616c697a61626c653a20636f6e7472616374206973206e6f74206960408201526a6e697469616c697a696e6760a81b606082015260800190565b60008219821115611700576117006118a2565b500190565b80825b60018086116117175750611742565b818704821115611729576117296118a2565b8086161561173657918102915b9490941c938002611708565b94509492505050565b600061042460001960ff85168460008261176757506001610424565b8161177457506000610424565b816001811461178a5760028114611794576117c1565b6001915050610424565b60ff8411156117a5576117a56118a2565b6001841b9150848211156117bb576117bb6118a2565b50610424565b5060208310610133831016604e8410600b84101617156117f4575081810a838111156117ef576117ef6118a2565b610424565b6118018484846001611705565b808604821115611813576118136118a2565b02949350505050565b6000816000190483118215151615611836576118366118a2565b500290565b60005b8381101561185657818101518382015260200161183e565b83811115610b6a5750506000910152565b600181811c9082168061187b57607f821691505b6020821081141561189c57634e487b7160e01b600052602260045260246000fd5b50919050565b634e487b7160e01b600052601160045260246000fd5b634e487b7160e01b600052604160045260246000fdfe360894a13ba1a3210667c828492db98dca3e2076cc3735a920a3ca505d382bbc416464726573733a206c6f772d6c6576656c2064656c65676174652063616c6c206661696c6564a2646970667358221220d453116aec688a633f29d0626dda41f7665f4a5500ebf6c86e1c92683875acd464736f6c63430008030033",
  "linkReferences": {},
  "deployedLinkReferences": {}
}